{
	"contracts/Whitelist.sol": {
		"Whitelist": {
			"abi": [
				{
					"inputs": [
						{
							"internalType": "string",
							"name": "_owner_name",
							"type": "string"
						}
					],
					"stateMutability": "nonpayable",
					"type": "constructor"
				},
				{
					"anonymous": false,
					"inputs": [
						{
							"indexed": true,
							"internalType": "address",
							"name": "_addr",
							"type": "address"
						}
					],
					"name": "User_whitelisted",
					"type": "event"
				},
				{
					"inputs": [
						{
							"internalType": "string",
							"name": "_name",
							"type": "string"
						}
					],
					"name": "change_name",
					"outputs": [],
					"stateMutability": "nonpayable",
					"type": "function"
				},
				{
					"inputs": [
						{
							"internalType": "address",
							"name": "_addr",
							"type": "address"
						}
					],
					"name": "check_name",
					"outputs": [
						{
							"internalType": "string",
							"name": "",
							"type": "string"
						}
					],
					"stateMutability": "view",
					"type": "function"
				},
				{
					"inputs": [],
					"name": "check_owner",
					"outputs": [
						{
							"internalType": "address",
							"name": "",
							"type": "address"
						}
					],
					"stateMutability": "view",
					"type": "function"
				},
				{
					"inputs": [],
					"name": "check_whitelist",
					"outputs": [
						{
							"internalType": "address[]",
							"name": "",
							"type": "address[]"
						}
					],
					"stateMutability": "view",
					"type": "function"
				},
				{
					"inputs": [],
					"name": "num_of_users",
					"outputs": [
						{
							"internalType": "uint256",
							"name": "",
							"type": "uint256"
						}
					],
					"stateMutability": "view",
					"type": "function"
				},
				{
					"inputs": [
						{
							"internalType": "address",
							"name": "_addr",
							"type": "address"
						}
					],
					"name": "whitelist_user",
					"outputs": [],
					"stateMutability": "nonpayable",
					"type": "function"
				}
			],
			"devdoc": {
				"kind": "dev",
				"methods": {},
				"version": 1
			},
			"evm": {
				"assembly": "    /* \"contracts/Whitelist.sol\":127:2464  contract Whitelist {... */\n  mstore(0x40, 0x80)\n    /* \"contracts/Whitelist.sol\":486:814  constructor(string memory _owner_name) {... */\n  callvalue\n  dup1\n  iszero\n  tag_1\n  jumpi\n  0x00\n  dup1\n  revert\ntag_1:\n  pop\n  mload(0x40)\n  sub(codesize, bytecodeSize)\n  dup1\n  bytecodeSize\n  dup4\n  codecopy\n  dup2\n  dup2\n  add\n  0x40\n  mstore\n  dup2\n  add\n  swap1\n  tag_2\n  swap2\n  swap1\n  tag_3\n  jump\t// in\ntag_2:\n    /* \"contracts/Whitelist.sol\":549:559  msg.sender */\n  caller\n    /* \"contracts/Whitelist.sol\":536:541  owner */\n  0x00\n    /* \"contracts/Whitelist.sol\":536:546  owner.addr */\n  dup1\n  add\n  0x00\n    /* \"contracts/Whitelist.sol\":536:559  owner.addr = msg.sender */\n  0x0100\n  exp\n  dup2\n  sload\n  dup2\n  0xffffffffffffffffffffffffffffffffffffffff\n  mul\n  not\n  and\n  swap1\n  dup4\n  0xffffffffffffffffffffffffffffffffffffffff\n  and\n  mul\n  or\n  swap1\n  sstore\n  pop\n    /* \"contracts/Whitelist.sol\":581:582  0 */\n  0x00\n    /* \"contracts/Whitelist.sol\":570:575  owner */\n  dup1\n    /* \"contracts/Whitelist.sol\":570:578  owner.id */\n  0x01\n  add\n    /* \"contracts/Whitelist.sol\":570:582  owner.id = 0 */\n  dup2\n  swap1\n  sstore\n  pop\n    /* \"contracts/Whitelist.sol\":606:617  _owner_name */\n  dup1\n    /* \"contracts/Whitelist.sol\":593:598  owner */\n  0x00\n    /* \"contracts/Whitelist.sol\":593:603  owner.name */\n  0x02\n  add\n    /* \"contracts/Whitelist.sol\":593:617  owner.name = _owner_name */\n  swap1\n  dup2\n  tag_6\n  swap2\n  swap1\n  tag_7\n  jump\t// in\ntag_6:\n  pop\n    /* \"contracts/Whitelist.sol\":653:658  owner */\n  0x00\n    /* \"contracts/Whitelist.sol\":630:638  get_user */\n  0x04\n    /* \"contracts/Whitelist.sol\":630:650  get_user[msg.sender] */\n  0x00\n    /* \"contracts/Whitelist.sol\":639:649  msg.sender */\n  caller\n    /* \"contracts/Whitelist.sol\":630:650  get_user[msg.sender] */\n  0xffffffffffffffffffffffffffffffffffffffff\n  and\n  0xffffffffffffffffffffffffffffffffffffffff\n  and\n  dup2\n  mstore\n  0x20\n  add\n  swap1\n  dup2\n  mstore\n  0x20\n  add\n  0x00\n  keccak256\n    /* \"contracts/Whitelist.sol\":630:658  get_user[msg.sender] = owner */\n  0x00\n  dup3\n  add\n  0x00\n  swap1\n  sload\n  swap1\n  0x0100\n  exp\n  swap1\n  div\n  0xffffffffffffffffffffffffffffffffffffffff\n  and\n  dup2\n  0x00\n  add\n  exp(0x0100, 0x00)\n  dup2\n  sload\n  dup2\n  0xffffffffffffffffffffffffffffffffffffffff\n  mul\n  not\n  and\n  swap1\n  dup4\n  0xffffffffffffffffffffffffffffffffffffffff\n  and\n  mul\n  or\n  swap1\n  sstore\n  pop\n  0x01\n  dup3\n  add\n  sload\n  dup2\n  0x01\n  add\n  sstore\n  0x02\n  dup3\n  add\n  dup2\n  0x02\n  add\n  swap1\n  dup2\n  tag_8\n  swap2\n  swap1\n  tag_9\n  jump\t// in\ntag_8:\n  pop\n  swap1\n  pop\n  pop\n    /* \"contracts/Whitelist.sol\":693:697  true */\n  0x01\n    /* \"contracts/Whitelist.sol\":669:678  whitelist */\n  0x05\n    /* \"contracts/Whitelist.sol\":669:690  whitelist[owner.addr] */\n  0x00\n    /* \"contracts/Whitelist.sol\":679:684  owner */\n  dup1\n    /* \"contracts/Whitelist.sol\":679:689  owner.addr */\n  0x00\n  add\n  0x00\n  swap1\n  sload\n  swap1\n  0x0100\n  exp\n  swap1\n  div\n  0xffffffffffffffffffffffffffffffffffffffff\n  and\n    /* \"contracts/Whitelist.sol\":669:690  whitelist[owner.addr] */\n  0xffffffffffffffffffffffffffffffffffffffff\n  and\n  0xffffffffffffffffffffffffffffffffffffffff\n  and\n  dup2\n  mstore\n  0x20\n  add\n  swap1\n  dup2\n  mstore\n  0x20\n  add\n  0x00\n  keccak256\n  0x00\n    /* \"contracts/Whitelist.sol\":669:697  whitelist[owner.addr] = true */\n  0x0100\n  exp\n  dup2\n  sload\n  dup2\n  0xff\n  mul\n  not\n  and\n  swap1\n  dup4\n  iszero\n  iszero\n  mul\n  or\n  swap1\n  sstore\n  pop\n    /* \"contracts/Whitelist.sol\":726:731  owner */\n  0x00\n    /* \"contracts/Whitelist.sol\":726:736  owner.addr */\n  dup1\n  add\n  0x00\n  swap1\n  sload\n  swap1\n  0x0100\n  exp\n  swap1\n  div\n  0xffffffffffffffffffffffffffffffffffffffff\n  and\n    /* \"contracts/Whitelist.sol\":708:713  by_id */\n  0x06\n    /* \"contracts/Whitelist.sol\":708:723  by_id[owner.id] */\n  0x00\n    /* \"contracts/Whitelist.sol\":714:719  owner */\n  dup1\n    /* \"contracts/Whitelist.sol\":714:722  owner.id */\n  0x01\n  add\n  sload\n    /* \"contracts/Whitelist.sol\":708:723  by_id[owner.id] */\n  dup2\n  mstore\n  0x20\n  add\n  swap1\n  dup2\n  mstore\n  0x20\n  add\n  0x00\n  keccak256\n  0x00\n    /* \"contracts/Whitelist.sol\":708:736  by_id[owner.id] = owner.addr */\n  0x0100\n  exp\n  dup2\n  sload\n  dup2\n  0xffffffffffffffffffffffffffffffffffffffff\n  mul\n  not\n  and\n  swap1\n  dup4\n  0xffffffffffffffffffffffffffffffffffffffff\n  and\n  mul\n  or\n  swap1\n  sstore\n  pop\n    /* \"contracts/Whitelist.sol\":769:774  owner */\n  0x00\n    /* \"contracts/Whitelist.sol\":769:779  owner.addr */\n  dup1\n  add\n  0x00\n  swap1\n  sload\n  swap1\n  0x0100\n  exp\n  swap1\n  div\n  0xffffffffffffffffffffffffffffffffffffffff\n  and\n    /* \"contracts/Whitelist.sol\":747:754  by_name */\n  0x07\n    /* \"contracts/Whitelist.sol\":755:760  owner */\n  0x00\n    /* \"contracts/Whitelist.sol\":755:765  owner.name */\n  0x02\n  add\n    /* \"contracts/Whitelist.sol\":747:766  by_name[owner.name] */\n  mload(0x40)\n  tag_10\n  swap2\n  swap1\n  tag_11\n  jump\t// in\ntag_10:\n  swap1\n  dup2\n  mstore\n  0x20\n  add\n  mload(0x40)\n  dup1\n  swap2\n  sub\n  swap1\n  keccak256\n  0x00\n    /* \"contracts/Whitelist.sol\":747:779  by_name[owner.name] = owner.addr */\n  0x0100\n  exp\n  dup2\n  sload\n  dup2\n  0xffffffffffffffffffffffffffffffffffffffff\n  mul\n  not\n  and\n  swap1\n  dup4\n  0xffffffffffffffffffffffffffffffffffffffff\n  and\n  mul\n  or\n  swap1\n  sstore\n  pop\n    /* \"contracts/Whitelist.sol\":805:806  1 */\n  0x01\n    /* \"contracts/Whitelist.sol\":790:802  num_of_users */\n  0x08\n    /* \"contracts/Whitelist.sol\":790:806  num_of_users = 1 */\n  dup2\n  swap1\n  sstore\n  pop\n    /* \"contracts/Whitelist.sol\":486:814  constructor(string memory _owner_name) {... */\n  pop\n    /* \"contracts/Whitelist.sol\":127:2464  contract Whitelist {... */\n  jump(tag_12)\n    /* \"#utility.yul\":7:82   */\ntag_13:\n    /* \"#utility.yul\":40:46   */\n  0x00\n    /* \"#utility.yul\":73:75   */\n  0x40\n    /* \"#utility.yul\":67:76   */\n  mload\n    /* \"#utility.yul\":57:76   */\n  swap1\n  pop\n    /* \"#utility.yul\":7:82   */\n  swap1\n  jump\t// out\n    /* \"#utility.yul\":88:205   */\ntag_14:\n    /* \"#utility.yul\":197:198   */\n  0x00\n    /* \"#utility.yul\":194:195   */\n  dup1\n    /* \"#utility.yul\":187:199   */\n  revert\n    /* \"#utility.yul\":211:328   */\ntag_15:\n    /* \"#utility.yul\":320:321   */\n  0x00\n    /* \"#utility.yul\":317:318   */\n  dup1\n    /* \"#utility.yul\":310:322   */\n  revert\n    /* \"#utility.yul\":334:451   */\ntag_16:\n    /* \"#utility.yul\":443:444   */\n  0x00\n    /* \"#utility.yul\":440:441   */\n  dup1\n    /* \"#utility.yul\":433:445   */\n  revert\n    /* \"#utility.yul\":457:574   */\ntag_17:\n    /* \"#utility.yul\":566:567   */\n  0x00\n    /* \"#utility.yul\":563:564   */\n  dup1\n    /* \"#utility.yul\":556:568   */\n  revert\n    /* \"#utility.yul\":580:682   */\ntag_18:\n    /* \"#utility.yul\":621:627   */\n  0x00\n    /* \"#utility.yul\":672:674   */\n  0x1f\n    /* \"#utility.yul\":668:675   */\n  not\n    /* \"#utility.yul\":663:665   */\n  0x1f\n    /* \"#utility.yul\":656:661   */\n  dup4\n    /* \"#utility.yul\":652:666   */\n  add\n    /* \"#utility.yul\":648:676   */\n  and\n    /* \"#utility.yul\":638:676   */\n  swap1\n  pop\n    /* \"#utility.yul\":580:682   */\n  swap2\n  swap1\n  pop\n  jump\t// out\n    /* \"#utility.yul\":688:868   */\ntag_19:\n    /* \"#utility.yul\":736:813   */\n  0x4e487b7100000000000000000000000000000000000000000000000000000000\n    /* \"#utility.yul\":733:734   */\n  0x00\n    /* \"#utility.yul\":726:814   */\n  mstore\n    /* \"#utility.yul\":833:837   */\n  0x41\n    /* \"#utility.yul\":830:831   */\n  0x04\n    /* \"#utility.yul\":823:838   */\n  mstore\n    /* \"#utility.yul\":857:861   */\n  0x24\n    /* \"#utility.yul\":854:855   */\n  0x00\n    /* \"#utility.yul\":847:862   */\n  revert\n    /* \"#utility.yul\":874:1155   */\ntag_20:\n    /* \"#utility.yul\":957:984   */\n  tag_57\n    /* \"#utility.yul\":979:983   */\n  dup3\n    /* \"#utility.yul\":957:984   */\n  tag_18\n  jump\t// in\ntag_57:\n    /* \"#utility.yul\":949:955   */\n  dup2\n    /* \"#utility.yul\":945:985   */\n  add\n    /* \"#utility.yul\":1087:1093   */\n  dup2\n    /* \"#utility.yul\":1075:1085   */\n  dup2\n    /* \"#utility.yul\":1072:1094   */\n  lt\n    /* \"#utility.yul\":1051:1069   */\n  0xffffffffffffffff\n    /* \"#utility.yul\":1039:1049   */\n  dup3\n    /* \"#utility.yul\":1036:1070   */\n  gt\n    /* \"#utility.yul\":1033:1095   */\n  or\n    /* \"#utility.yul\":1030:1118   */\n  iszero\n  tag_58\n  jumpi\n    /* \"#utility.yul\":1098:1116   */\n  tag_59\n  tag_19\n  jump\t// in\ntag_59:\n    /* \"#utility.yul\":1030:1118   */\ntag_58:\n    /* \"#utility.yul\":1138:1148   */\n  dup1\n    /* \"#utility.yul\":1134:1136   */\n  0x40\n    /* \"#utility.yul\":1127:1149   */\n  mstore\n    /* \"#utility.yul\":917:1155   */\n  pop\n    /* \"#utility.yul\":874:1155   */\n  pop\n  pop\n  jump\t// out\n    /* \"#utility.yul\":1161:1290   */\ntag_21:\n    /* \"#utility.yul\":1195:1201   */\n  0x00\n    /* \"#utility.yul\":1222:1242   */\n  tag_61\n  tag_13\n  jump\t// in\ntag_61:\n    /* \"#utility.yul\":1212:1242   */\n  swap1\n  pop\n    /* \"#utility.yul\":1251:1284   */\n  tag_62\n    /* \"#utility.yul\":1279:1283   */\n  dup3\n    /* \"#utility.yul\":1271:1277   */\n  dup3\n    /* \"#utility.yul\":1251:1284   */\n  tag_20\n  jump\t// in\ntag_62:\n    /* \"#utility.yul\":1161:1290   */\n  swap2\n  swap1\n  pop\n  jump\t// out\n    /* \"#utility.yul\":1296:1604   */\ntag_22:\n    /* \"#utility.yul\":1358:1362   */\n  0x00\n    /* \"#utility.yul\":1448:1466   */\n  0xffffffffffffffff\n    /* \"#utility.yul\":1440:1446   */\n  dup3\n    /* \"#utility.yul\":1437:1467   */\n  gt\n    /* \"#utility.yul\":1434:1490   */\n  iszero\n  tag_64\n  jumpi\n    /* \"#utility.yul\":1470:1488   */\n  tag_65\n  tag_19\n  jump\t// in\ntag_65:\n    /* \"#utility.yul\":1434:1490   */\ntag_64:\n    /* \"#utility.yul\":1508:1537   */\n  tag_66\n    /* \"#utility.yul\":1530:1536   */\n  dup3\n    /* \"#utility.yul\":1508:1537   */\n  tag_18\n  jump\t// in\ntag_66:\n    /* \"#utility.yul\":1500:1537   */\n  swap1\n  pop\n    /* \"#utility.yul\":1592:1596   */\n  0x20\n    /* \"#utility.yul\":1586:1590   */\n  dup2\n    /* \"#utility.yul\":1582:1597   */\n  add\n    /* \"#utility.yul\":1574:1597   */\n  swap1\n  pop\n    /* \"#utility.yul\":1296:1604   */\n  swap2\n  swap1\n  pop\n  jump\t// out\n    /* \"#utility.yul\":1610:1749   */\ntag_23:\n    /* \"#utility.yul\":1699:1705   */\n  dup3\n    /* \"#utility.yul\":1694:1697   */\n  dup2\n    /* \"#utility.yul\":1689:1692   */\n  dup4\n    /* \"#utility.yul\":1683:1706   */\n  mcopy\n    /* \"#utility.yul\":1740:1741   */\n  0x00\n    /* \"#utility.yul\":1731:1737   */\n  dup4\n    /* \"#utility.yul\":1726:1729   */\n  dup4\n    /* \"#utility.yul\":1722:1738   */\n  add\n    /* \"#utility.yul\":1715:1742   */\n  mstore\n    /* \"#utility.yul\":1610:1749   */\n  pop\n  pop\n  pop\n  jump\t// out\n    /* \"#utility.yul\":1755:2189   */\ntag_24:\n    /* \"#utility.yul\":1844:1849   */\n  0x00\n    /* \"#utility.yul\":1869:1935   */\n  tag_69\n    /* \"#utility.yul\":1885:1934   */\n  tag_70\n    /* \"#utility.yul\":1927:1933   */\n  dup5\n    /* \"#utility.yul\":1885:1934   */\n  tag_22\n  jump\t// in\ntag_70:\n    /* \"#utility.yul\":1869:1935   */\n  tag_21\n  jump\t// in\ntag_69:\n    /* \"#utility.yul\":1860:1935   */\n  swap1\n  pop\n    /* \"#utility.yul\":1958:1964   */\n  dup3\n    /* \"#utility.yul\":1951:1956   */\n  dup2\n    /* \"#utility.yul\":1944:1965   */\n  mstore\n    /* \"#utility.yul\":1996:2000   */\n  0x20\n    /* \"#utility.yul\":1989:1994   */\n  dup2\n    /* \"#utility.yul\":1985:2001   */\n  add\n    /* \"#utility.yul\":2034:2037   */\n  dup5\n    /* \"#utility.yul\":2025:2031   */\n  dup5\n    /* \"#utility.yul\":2020:2023   */\n  dup5\n    /* \"#utility.yul\":2016:2032   */\n  add\n    /* \"#utility.yul\":2013:2038   */\n  gt\n    /* \"#utility.yul\":2010:2122   */\n  iszero\n  tag_71\n  jumpi\n    /* \"#utility.yul\":2041:2120   */\n  tag_72\n  tag_17\n  jump\t// in\ntag_72:\n    /* \"#utility.yul\":2010:2122   */\ntag_71:\n    /* \"#utility.yul\":2131:2183   */\n  tag_73\n    /* \"#utility.yul\":2176:2182   */\n  dup5\n    /* \"#utility.yul\":2171:2174   */\n  dup3\n    /* \"#utility.yul\":2166:2169   */\n  dup6\n    /* \"#utility.yul\":2131:2183   */\n  tag_23\n  jump\t// in\ntag_73:\n    /* \"#utility.yul\":1850:2189   */\n  pop\n    /* \"#utility.yul\":1755:2189   */\n  swap4\n  swap3\n  pop\n  pop\n  pop\n  jump\t// out\n    /* \"#utility.yul\":2209:2564   */\ntag_25:\n    /* \"#utility.yul\":2276:2281   */\n  0x00\n    /* \"#utility.yul\":2325:2328   */\n  dup3\n    /* \"#utility.yul\":2318:2322   */\n  0x1f\n    /* \"#utility.yul\":2310:2316   */\n  dup4\n    /* \"#utility.yul\":2306:2323   */\n  add\n    /* \"#utility.yul\":2302:2329   */\n  slt\n    /* \"#utility.yul\":2292:2414   */\n  tag_75\n  jumpi\n    /* \"#utility.yul\":2333:2412   */\n  tag_76\n  tag_16\n  jump\t// in\ntag_76:\n    /* \"#utility.yul\":2292:2414   */\ntag_75:\n    /* \"#utility.yul\":2443:2449   */\n  dup2\n    /* \"#utility.yul\":2437:2450   */\n  mload\n    /* \"#utility.yul\":2468:2558   */\n  tag_77\n    /* \"#utility.yul\":2554:2557   */\n  dup5\n    /* \"#utility.yul\":2546:2552   */\n  dup3\n    /* \"#utility.yul\":2539:2543   */\n  0x20\n    /* \"#utility.yul\":2531:2537   */\n  dup7\n    /* \"#utility.yul\":2527:2544   */\n  add\n    /* \"#utility.yul\":2468:2558   */\n  tag_24\n  jump\t// in\ntag_77:\n    /* \"#utility.yul\":2459:2558   */\n  swap2\n  pop\n    /* \"#utility.yul\":2282:2564   */\n  pop\n    /* \"#utility.yul\":2209:2564   */\n  swap3\n  swap2\n  pop\n  pop\n  jump\t// out\n    /* \"#utility.yul\":2570:3094   */\ntag_3:\n    /* \"#utility.yul\":2650:2656   */\n  0x00\n    /* \"#utility.yul\":2699:2701   */\n  0x20\n    /* \"#utility.yul\":2687:2696   */\n  dup3\n    /* \"#utility.yul\":2678:2685   */\n  dup5\n    /* \"#utility.yul\":2674:2697   */\n  sub\n    /* \"#utility.yul\":2670:2702   */\n  slt\n    /* \"#utility.yul\":2667:2786   */\n  iszero\n  tag_79\n  jumpi\n    /* \"#utility.yul\":2705:2784   */\n  tag_80\n  tag_14\n  jump\t// in\ntag_80:\n    /* \"#utility.yul\":2667:2786   */\ntag_79:\n    /* \"#utility.yul\":2846:2847   */\n  0x00\n    /* \"#utility.yul\":2835:2844   */\n  dup3\n    /* \"#utility.yul\":2831:2848   */\n  add\n    /* \"#utility.yul\":2825:2849   */\n  mload\n    /* \"#utility.yul\":2876:2894   */\n  0xffffffffffffffff\n    /* \"#utility.yul\":2868:2874   */\n  dup2\n    /* \"#utility.yul\":2865:2895   */\n  gt\n    /* \"#utility.yul\":2862:2979   */\n  iszero\n  tag_81\n  jumpi\n    /* \"#utility.yul\":2898:2977   */\n  tag_82\n  tag_15\n  jump\t// in\ntag_82:\n    /* \"#utility.yul\":2862:2979   */\ntag_81:\n    /* \"#utility.yul\":3003:3077   */\n  tag_83\n    /* \"#utility.yul\":3069:3076   */\n  dup5\n    /* \"#utility.yul\":3060:3066   */\n  dup3\n    /* \"#utility.yul\":3049:3058   */\n  dup6\n    /* \"#utility.yul\":3045:3067   */\n  add\n    /* \"#utility.yul\":3003:3077   */\n  tag_25\n  jump\t// in\ntag_83:\n    /* \"#utility.yul\":2993:3077   */\n  swap2\n  pop\n    /* \"#utility.yul\":2796:3087   */\n  pop\n    /* \"#utility.yul\":2570:3094   */\n  swap3\n  swap2\n  pop\n  pop\n  jump\t// out\n    /* \"#utility.yul\":3100:3199   */\ntag_26:\n    /* \"#utility.yul\":3152:3158   */\n  0x00\n    /* \"#utility.yul\":3186:3191   */\n  dup2\n    /* \"#utility.yul\":3180:3192   */\n  mload\n    /* \"#utility.yul\":3170:3192   */\n  swap1\n  pop\n    /* \"#utility.yul\":3100:3199   */\n  swap2\n  swap1\n  pop\n  jump\t// out\n    /* \"#utility.yul\":3205:3385   */\ntag_27:\n    /* \"#utility.yul\":3253:3330   */\n  0x4e487b7100000000000000000000000000000000000000000000000000000000\n    /* \"#utility.yul\":3250:3251   */\n  0x00\n    /* \"#utility.yul\":3243:3331   */\n  mstore\n    /* \"#utility.yul\":3350:3354   */\n  0x22\n    /* \"#utility.yul\":3347:3348   */\n  0x04\n    /* \"#utility.yul\":3340:3355   */\n  mstore\n    /* \"#utility.yul\":3374:3378   */\n  0x24\n    /* \"#utility.yul\":3371:3372   */\n  0x00\n    /* \"#utility.yul\":3364:3379   */\n  revert\n    /* \"#utility.yul\":3391:3711   */\ntag_28:\n    /* \"#utility.yul\":3435:3441   */\n  0x00\n    /* \"#utility.yul\":3472:3473   */\n  0x02\n    /* \"#utility.yul\":3466:3470   */\n  dup3\n    /* \"#utility.yul\":3462:3474   */\n  div\n    /* \"#utility.yul\":3452:3474   */\n  swap1\n  pop\n    /* \"#utility.yul\":3519:3520   */\n  0x01\n    /* \"#utility.yul\":3513:3517   */\n  dup3\n    /* \"#utility.yul\":3509:3521   */\n  and\n    /* \"#utility.yul\":3540:3558   */\n  dup1\n    /* \"#utility.yul\":3530:3611   */\n  tag_87\n  jumpi\n    /* \"#utility.yul\":3596:3600   */\n  0x7f\n    /* \"#utility.yul\":3588:3594   */\n  dup3\n    /* \"#utility.yul\":3584:3601   */\n  and\n    /* \"#utility.yul\":3574:3601   */\n  swap2\n  pop\n    /* \"#utility.yul\":3530:3611   */\ntag_87:\n    /* \"#utility.yul\":3658:3660   */\n  0x20\n    /* \"#utility.yul\":3650:3656   */\n  dup3\n    /* \"#utility.yul\":3647:3661   */\n  lt\n    /* \"#utility.yul\":3627:3645   */\n  dup2\n    /* \"#utility.yul\":3624:3662   */\n  sub\n    /* \"#utility.yul\":3621:3705   */\n  tag_88\n  jumpi\n    /* \"#utility.yul\":3677:3695   */\n  tag_89\n  tag_27\n  jump\t// in\ntag_89:\n    /* \"#utility.yul\":3621:3705   */\ntag_88:\n    /* \"#utility.yul\":3442:3711   */\n  pop\n    /* \"#utility.yul\":3391:3711   */\n  swap2\n  swap1\n  pop\n  jump\t// out\n    /* \"#utility.yul\":3717:3858   */\ntag_29:\n    /* \"#utility.yul\":3766:3770   */\n  0x00\n    /* \"#utility.yul\":3789:3792   */\n  dup2\n    /* \"#utility.yul\":3781:3792   */\n  swap1\n  pop\n    /* \"#utility.yul\":3812:3815   */\n  dup2\n    /* \"#utility.yul\":3809:3810   */\n  0x00\n    /* \"#utility.yul\":3802:3816   */\n  mstore\n    /* \"#utility.yul\":3846:3850   */\n  0x20\n    /* \"#utility.yul\":3843:3844   */\n  0x00\n    /* \"#utility.yul\":3833:3851   */\n  keccak256\n    /* \"#utility.yul\":3825:3851   */\n  swap1\n  pop\n    /* \"#utility.yul\":3717:3858   */\n  swap2\n  swap1\n  pop\n  jump\t// out\n    /* \"#utility.yul\":3864:3957   */\ntag_30:\n    /* \"#utility.yul\":3901:3907   */\n  0x00\n    /* \"#utility.yul\":3948:3950   */\n  0x20\n    /* \"#utility.yul\":3943:3945   */\n  0x1f\n    /* \"#utility.yul\":3936:3941   */\n  dup4\n    /* \"#utility.yul\":3932:3946   */\n  add\n    /* \"#utility.yul\":3928:3951   */\n  div\n    /* \"#utility.yul\":3918:3951   */\n  swap1\n  pop\n    /* \"#utility.yul\":3864:3957   */\n  swap2\n  swap1\n  pop\n  jump\t// out\n    /* \"#utility.yul\":3963:4070   */\ntag_31:\n    /* \"#utility.yul\":4007:4015   */\n  0x00\n    /* \"#utility.yul\":4057:4062   */\n  dup3\n    /* \"#utility.yul\":4051:4055   */\n  dup3\n    /* \"#utility.yul\":4047:4063   */\n  shl\n    /* \"#utility.yul\":4026:4063   */\n  swap1\n  pop\n    /* \"#utility.yul\":3963:4070   */\n  swap3\n  swap2\n  pop\n  pop\n  jump\t// out\n    /* \"#utility.yul\":4076:4469   */\ntag_32:\n    /* \"#utility.yul\":4145:4151   */\n  0x00\n    /* \"#utility.yul\":4195:4196   */\n  0x08\n    /* \"#utility.yul\":4183:4193   */\n  dup4\n    /* \"#utility.yul\":4179:4197   */\n  mul\n    /* \"#utility.yul\":4218:4315   */\n  tag_94\n    /* \"#utility.yul\":4248:4314   */\n  0xffffffffffffffffffffffffffffffffffffffffffffffffffffffffffffffff\n    /* \"#utility.yul\":4237:4246   */\n  dup3\n    /* \"#utility.yul\":4218:4315   */\n  tag_31\n  jump\t// in\ntag_94:\n    /* \"#utility.yul\":4336:4375   */\n  tag_95\n    /* \"#utility.yul\":4366:4374   */\n  dup7\n    /* \"#utility.yul\":4355:4364   */\n  dup4\n    /* \"#utility.yul\":4336:4375   */\n  tag_31\n  jump\t// in\ntag_95:\n    /* \"#utility.yul\":4324:4375   */\n  swap6\n  pop\n    /* \"#utility.yul\":4408:4412   */\n  dup1\n    /* \"#utility.yul\":4404:4413   */\n  not\n    /* \"#utility.yul\":4397:4402   */\n  dup5\n    /* \"#utility.yul\":4393:4414   */\n  and\n    /* \"#utility.yul\":4384:4414   */\n  swap4\n  pop\n    /* \"#utility.yul\":4457:4461   */\n  dup1\n    /* \"#utility.yul\":4447:4455   */\n  dup7\n    /* \"#utility.yul\":4443:4462   */\n  and\n    /* \"#utility.yul\":4436:4441   */\n  dup5\n    /* \"#utility.yul\":4433:4463   */\n  or\n    /* \"#utility.yul\":4423:4463   */\n  swap3\n  pop\n    /* \"#utility.yul\":4152:4469   */\n  pop\n  pop\n    /* \"#utility.yul\":4076:4469   */\n  swap4\n  swap3\n  pop\n  pop\n  pop\n  jump\t// out\n    /* \"#utility.yul\":4475:4552   */\ntag_33:\n    /* \"#utility.yul\":4512:4519   */\n  0x00\n    /* \"#utility.yul\":4541:4546   */\n  dup2\n    /* \"#utility.yul\":4530:4546   */\n  swap1\n  pop\n    /* \"#utility.yul\":4475:4552   */\n  swap2\n  swap1\n  pop\n  jump\t// out\n    /* \"#utility.yul\":4558:4618   */\ntag_34:\n    /* \"#utility.yul\":4586:4589   */\n  0x00\n    /* \"#utility.yul\":4607:4612   */\n  dup2\n    /* \"#utility.yul\":4600:4612   */\n  swap1\n  pop\n    /* \"#utility.yul\":4558:4618   */\n  swap2\n  swap1\n  pop\n  jump\t// out\n    /* \"#utility.yul\":4624:4766   */\ntag_35:\n    /* \"#utility.yul\":4674:4683   */\n  0x00\n    /* \"#utility.yul\":4707:4760   */\n  tag_99\n    /* \"#utility.yul\":4725:4759   */\n  tag_100\n    /* \"#utility.yul\":4734:4758   */\n  tag_101\n    /* \"#utility.yul\":4752:4757   */\n  dup5\n    /* \"#utility.yul\":4734:4758   */\n  tag_33\n  jump\t// in\ntag_101:\n    /* \"#utility.yul\":4725:4759   */\n  tag_34\n  jump\t// in\ntag_100:\n    /* \"#utility.yul\":4707:4760   */\n  tag_33\n  jump\t// in\ntag_99:\n    /* \"#utility.yul\":4694:4760   */\n  swap1\n  pop\n    /* \"#utility.yul\":4624:4766   */\n  swap2\n  swap1\n  pop\n  jump\t// out\n    /* \"#utility.yul\":4772:4847   */\ntag_36:\n    /* \"#utility.yul\":4815:4818   */\n  0x00\n    /* \"#utility.yul\":4836:4841   */\n  dup2\n    /* \"#utility.yul\":4829:4841   */\n  swap1\n  pop\n    /* \"#utility.yul\":4772:4847   */\n  swap2\n  swap1\n  pop\n  jump\t// out\n    /* \"#utility.yul\":4853:5122   */\ntag_37:\n    /* \"#utility.yul\":4963:5002   */\n  tag_104\n    /* \"#utility.yul\":4994:5001   */\n  dup4\n    /* \"#utility.yul\":4963:5002   */\n  tag_35\n  jump\t// in\ntag_104:\n    /* \"#utility.yul\":5024:5115   */\n  tag_105\n    /* \"#utility.yul\":5073:5114   */\n  tag_106\n    /* \"#utility.yul\":5097:5113   */\n  dup3\n    /* \"#utility.yul\":5073:5114   */\n  tag_36\n  jump\t// in\ntag_106:\n    /* \"#utility.yul\":5065:5071   */\n  dup5\n    /* \"#utility.yul\":5058:5062   */\n  dup5\n    /* \"#utility.yul\":5052:5063   */\n  sload\n    /* \"#utility.yul\":5024:5115   */\n  tag_32\n  jump\t// in\ntag_105:\n    /* \"#utility.yul\":5018:5022   */\n  dup3\n    /* \"#utility.yul\":5011:5116   */\n  sstore\n    /* \"#utility.yul\":4929:5122   */\n  pop\n    /* \"#utility.yul\":4853:5122   */\n  pop\n  pop\n  pop\n  jump\t// out\n    /* \"#utility.yul\":5128:5201   */\ntag_38:\n    /* \"#utility.yul\":5173:5176   */\n  0x00\n    /* \"#utility.yul\":5128:5201   */\n  swap1\n  jump\t// out\n    /* \"#utility.yul\":5207:5396   */\ntag_39:\n    /* \"#utility.yul\":5284:5316   */\n  tag_109\n  tag_38\n  jump\t// in\ntag_109:\n    /* \"#utility.yul\":5325:5390   */\n  tag_110\n    /* \"#utility.yul\":5383:5389   */\n  dup2\n    /* \"#utility.yul\":5375:5381   */\n  dup5\n    /* \"#utility.yul\":5369:5373   */\n  dup5\n    /* \"#utility.yul\":5325:5390   */\n  tag_37\n  jump\t// in\ntag_110:\n    /* \"#utility.yul\":5260:5396   */\n  pop\n    /* \"#utility.yul\":5207:5396   */\n  pop\n  pop\n  jump\t// out\n    /* \"#utility.yul\":5402:5588   */\ntag_40:\n    /* \"#utility.yul\":5462:5582   */\ntag_112:\n    /* \"#utility.yul\":5479:5482   */\n  dup2\n    /* \"#utility.yul\":5472:5477   */\n  dup2\n    /* \"#utility.yul\":5469:5483   */\n  lt\n    /* \"#utility.yul\":5462:5582   */\n  iszero\n  tag_114\n  jumpi\n    /* \"#utility.yul\":5533:5572   */\n  tag_115\n    /* \"#utility.yul\":5570:5571   */\n  0x00\n    /* \"#utility.yul\":5563:5568   */\n  dup3\n    /* \"#utility.yul\":5533:5572   */\n  tag_39\n  jump\t// in\ntag_115:\n    /* \"#utility.yul\":5506:5507   */\n  0x01\n    /* \"#utility.yul\":5499:5504   */\n  dup2\n    /* \"#utility.yul\":5495:5508   */\n  add\n    /* \"#utility.yul\":5486:5508   */\n  swap1\n  pop\n    /* \"#utility.yul\":5462:5582   */\n  jump(tag_112)\ntag_114:\n    /* \"#utility.yul\":5402:5588   */\n  pop\n  pop\n  jump\t// out\n    /* \"#utility.yul\":5594:6137   */\ntag_41:\n    /* \"#utility.yul\":5695:5697   */\n  0x1f\n    /* \"#utility.yul\":5690:5693   */\n  dup3\n    /* \"#utility.yul\":5687:5698   */\n  gt\n    /* \"#utility.yul\":5684:6130   */\n  iszero\n  tag_117\n  jumpi\n    /* \"#utility.yul\":5729:5767   */\n  tag_118\n    /* \"#utility.yul\":5761:5766   */\n  dup2\n    /* \"#utility.yul\":5729:5767   */\n  tag_29\n  jump\t// in\ntag_118:\n    /* \"#utility.yul\":5813:5842   */\n  tag_119\n    /* \"#utility.yul\":5831:5841   */\n  dup5\n    /* \"#utility.yul\":5813:5842   */\n  tag_30\n  jump\t// in\ntag_119:\n    /* \"#utility.yul\":5803:5811   */\n  dup2\n    /* \"#utility.yul\":5799:5843   */\n  add\n    /* \"#utility.yul\":5996:5998   */\n  0x20\n    /* \"#utility.yul\":5984:5994   */\n  dup6\n    /* \"#utility.yul\":5981:5999   */\n  lt\n    /* \"#utility.yul\":5978:6027   */\n  iszero\n  tag_120\n  jumpi\n    /* \"#utility.yul\":6017:6025   */\n  dup2\n    /* \"#utility.yul\":6002:6025   */\n  swap1\n  pop\n    /* \"#utility.yul\":5978:6027   */\ntag_120:\n    /* \"#utility.yul\":6040:6120   */\n  tag_121\n    /* \"#utility.yul\":6096:6118   */\n  tag_122\n    /* \"#utility.yul\":6114:6117   */\n  dup6\n    /* \"#utility.yul\":6096:6118   */\n  tag_30\n  jump\t// in\ntag_122:\n    /* \"#utility.yul\":6086:6094   */\n  dup4\n    /* \"#utility.yul\":6082:6119   */\n  add\n    /* \"#utility.yul\":6069:6080   */\n  dup3\n    /* \"#utility.yul\":6040:6120   */\n  tag_40\n  jump\t// in\ntag_121:\n    /* \"#utility.yul\":5699:6130   */\n  pop\n  pop\n    /* \"#utility.yul\":5684:6130   */\ntag_117:\n    /* \"#utility.yul\":5594:6137   */\n  pop\n  pop\n  pop\n  jump\t// out\n    /* \"#utility.yul\":6143:6260   */\ntag_42:\n    /* \"#utility.yul\":6197:6205   */\n  0x00\n    /* \"#utility.yul\":6247:6252   */\n  dup3\n    /* \"#utility.yul\":6241:6245   */\n  dup3\n    /* \"#utility.yul\":6237:6253   */\n  shr\n    /* \"#utility.yul\":6216:6253   */\n  swap1\n  pop\n    /* \"#utility.yul\":6143:6260   */\n  swap3\n  swap2\n  pop\n  pop\n  jump\t// out\n    /* \"#utility.yul\":6266:6435   */\ntag_43:\n    /* \"#utility.yul\":6310:6316   */\n  0x00\n    /* \"#utility.yul\":6343:6394   */\n  tag_125\n    /* \"#utility.yul\":6391:6392   */\n  0x00\n    /* \"#utility.yul\":6387:6393   */\n  not\n    /* \"#utility.yul\":6379:6384   */\n  dup5\n    /* \"#utility.yul\":6376:6377   */\n  0x08\n    /* \"#utility.yul\":6372:6385   */\n  mul\n    /* \"#utility.yul\":6343:6394   */\n  tag_42\n  jump\t// in\ntag_125:\n    /* \"#utility.yul\":6339:6395   */\n  not\n    /* \"#utility.yul\":6424:6428   */\n  dup1\n    /* \"#utility.yul\":6418:6422   */\n  dup4\n    /* \"#utility.yul\":6414:6429   */\n  and\n    /* \"#utility.yul\":6404:6429   */\n  swap2\n  pop\n    /* \"#utility.yul\":6317:6435   */\n  pop\n    /* \"#utility.yul\":6266:6435   */\n  swap3\n  swap2\n  pop\n  pop\n  jump\t// out\n    /* \"#utility.yul\":6440:6735   */\ntag_44:\n    /* \"#utility.yul\":6516:6520   */\n  0x00\n    /* \"#utility.yul\":6662:6691   */\n  tag_127\n    /* \"#utility.yul\":6687:6690   */\n  dup4\n    /* \"#utility.yul\":6681:6685   */\n  dup4\n    /* \"#utility.yul\":6662:6691   */\n  tag_43\n  jump\t// in\ntag_127:\n    /* \"#utility.yul\":6654:6691   */\n  swap2\n  pop\n    /* \"#utility.yul\":6724:6727   */\n  dup3\n    /* \"#utility.yul\":6721:6722   */\n  0x02\n    /* \"#utility.yul\":6717:6728   */\n  mul\n    /* \"#utility.yul\":6711:6715   */\n  dup3\n    /* \"#utility.yul\":6708:6729   */\n  or\n    /* \"#utility.yul\":6700:6729   */\n  swap1\n  pop\n    /* \"#utility.yul\":6440:6735   */\n  swap3\n  swap2\n  pop\n  pop\n  jump\t// out\n    /* \"#utility.yul\":6740:8135   */\ntag_7:\n    /* \"#utility.yul\":6857:6894   */\n  tag_129\n    /* \"#utility.yul\":6890:6893   */\n  dup3\n    /* \"#utility.yul\":6857:6894   */\n  tag_26\n  jump\t// in\ntag_129:\n    /* \"#utility.yul\":6959:6977   */\n  0xffffffffffffffff\n    /* \"#utility.yul\":6951:6957   */\n  dup2\n    /* \"#utility.yul\":6948:6978   */\n  gt\n    /* \"#utility.yul\":6945:7001   */\n  iszero\n  tag_130\n  jumpi\n    /* \"#utility.yul\":6981:6999   */\n  tag_131\n  tag_19\n  jump\t// in\ntag_131:\n    /* \"#utility.yul\":6945:7001   */\ntag_130:\n    /* \"#utility.yul\":7025:7063   */\n  tag_132\n    /* \"#utility.yul\":7057:7061   */\n  dup3\n    /* \"#utility.yul\":7051:7062   */\n  sload\n    /* \"#utility.yul\":7025:7063   */\n  tag_28\n  jump\t// in\ntag_132:\n    /* \"#utility.yul\":7110:7177   */\n  tag_133\n    /* \"#utility.yul\":7170:7176   */\n  dup3\n    /* \"#utility.yul\":7162:7168   */\n  dup3\n    /* \"#utility.yul\":7156:7160   */\n  dup6\n    /* \"#utility.yul\":7110:7177   */\n  tag_41\n  jump\t// in\ntag_133:\n    /* \"#utility.yul\":7204:7205   */\n  0x00\n    /* \"#utility.yul\":7228:7232   */\n  0x20\n    /* \"#utility.yul\":7215:7232   */\n  swap1\n  pop\n    /* \"#utility.yul\":7260:7262   */\n  0x1f\n    /* \"#utility.yul\":7252:7258   */\n  dup4\n    /* \"#utility.yul\":7249:7263   */\n  gt\n    /* \"#utility.yul\":7277:7278   */\n  0x01\n    /* \"#utility.yul\":7272:7890   */\n  dup2\n  eq\n  tag_135\n  jumpi\n    /* \"#utility.yul\":7934:7935   */\n  0x00\n    /* \"#utility.yul\":7951:7957   */\n  dup5\n    /* \"#utility.yul\":7948:8025   */\n  iszero\n  tag_136\n  jumpi\n    /* \"#utility.yul\":8000:8009   */\n  dup3\n    /* \"#utility.yul\":7995:7998   */\n  dup8\n    /* \"#utility.yul\":7991:8010   */\n  add\n    /* \"#utility.yul\":7985:8011   */\n  mload\n    /* \"#utility.yul\":7976:8011   */\n  swap1\n  pop\n    /* \"#utility.yul\":7948:8025   */\ntag_136:\n    /* \"#utility.yul\":8051:8118   */\n  tag_137\n    /* \"#utility.yul\":8111:8117   */\n  dup6\n    /* \"#utility.yul\":8104:8109   */\n  dup3\n    /* \"#utility.yul\":8051:8118   */\n  tag_44\n  jump\t// in\ntag_137:\n    /* \"#utility.yul\":8045:8049   */\n  dup7\n    /* \"#utility.yul\":8038:8119   */\n  sstore\n    /* \"#utility.yul\":7907:8129   */\n  pop\n    /* \"#utility.yul\":7242:8129   */\n  jump(tag_134)\n    /* \"#utility.yul\":7272:7890   */\ntag_135:\n    /* \"#utility.yul\":7324:7328   */\n  0x1f\n    /* \"#utility.yul\":7320:7329   */\n  not\n    /* \"#utility.yul\":7312:7318   */\n  dup5\n    /* \"#utility.yul\":7308:7330   */\n  and\n    /* \"#utility.yul\":7358:7395   */\n  tag_138\n    /* \"#utility.yul\":7390:7394   */\n  dup7\n    /* \"#utility.yul\":7358:7395   */\n  tag_29\n  jump\t// in\ntag_138:\n    /* \"#utility.yul\":7417:7418   */\n  0x00\n    /* \"#utility.yul\":7431:7639   */\ntag_139:\n    /* \"#utility.yul\":7445:7452   */\n  dup3\n    /* \"#utility.yul\":7442:7443   */\n  dup2\n    /* \"#utility.yul\":7439:7453   */\n  lt\n    /* \"#utility.yul\":7431:7639   */\n  iszero\n  tag_141\n  jumpi\n    /* \"#utility.yul\":7524:7533   */\n  dup5\n    /* \"#utility.yul\":7519:7522   */\n  dup10\n    /* \"#utility.yul\":7515:7534   */\n  add\n    /* \"#utility.yul\":7509:7535   */\n  mload\n    /* \"#utility.yul\":7501:7507   */\n  dup3\n    /* \"#utility.yul\":7494:7536   */\n  sstore\n    /* \"#utility.yul\":7575:7576   */\n  0x01\n    /* \"#utility.yul\":7567:7573   */\n  dup3\n    /* \"#utility.yul\":7563:7577   */\n  add\n    /* \"#utility.yul\":7553:7577   */\n  swap2\n  pop\n    /* \"#utility.yul\":7622:7624   */\n  0x20\n    /* \"#utility.yul\":7611:7620   */\n  dup6\n    /* \"#utility.yul\":7607:7625   */\n  add\n    /* \"#utility.yul\":7594:7625   */\n  swap5\n  pop\n    /* \"#utility.yul\":7468:7472   */\n  0x20\n    /* \"#utility.yul\":7465:7466   */\n  dup2\n    /* \"#utility.yul\":7461:7473   */\n  add\n    /* \"#utility.yul\":7456:7473   */\n  swap1\n  pop\n    /* \"#utility.yul\":7431:7639   */\n  jump(tag_139)\ntag_141:\n    /* \"#utility.yul\":7667:7673   */\n  dup7\n    /* \"#utility.yul\":7658:7665   */\n  dup4\n    /* \"#utility.yul\":7655:7674   */\n  lt\n    /* \"#utility.yul\":7652:7831   */\n  iszero\n  tag_142\n  jumpi\n    /* \"#utility.yul\":7725:7734   */\n  dup5\n    /* \"#utility.yul\":7720:7723   */\n  dup10\n    /* \"#utility.yul\":7716:7735   */\n  add\n    /* \"#utility.yul\":7710:7736   */\n  mload\n    /* \"#utility.yul\":7768:7816   */\n  tag_143\n    /* \"#utility.yul\":7810:7814   */\n  0x1f\n    /* \"#utility.yul\":7802:7808   */\n  dup10\n    /* \"#utility.yul\":7798:7815   */\n  and\n    /* \"#utility.yul\":7787:7796   */\n  dup3\n    /* \"#utility.yul\":7768:7816   */\n  tag_43\n  jump\t// in\ntag_143:\n    /* \"#utility.yul\":7760:7766   */\n  dup4\n    /* \"#utility.yul\":7753:7817   */\n  sstore\n    /* \"#utility.yul\":7675:7831   */\n  pop\n    /* \"#utility.yul\":7652:7831   */\ntag_142:\n    /* \"#utility.yul\":7877:7878   */\n  0x01\n    /* \"#utility.yul\":7873:7874   */\n  0x02\n    /* \"#utility.yul\":7865:7871   */\n  dup9\n    /* \"#utility.yul\":7861:7875   */\n  mul\n    /* \"#utility.yul\":7857:7879   */\n  add\n    /* \"#utility.yul\":7851:7855   */\n  dup9\n    /* \"#utility.yul\":7844:7880   */\n  sstore\n    /* \"#utility.yul\":7279:7890   */\n  pop\n  pop\n  pop\n    /* \"#utility.yul\":7242:8129   */\ntag_134:\n  pop\n    /* \"#utility.yul\":6832:8135   */\n  pop\n  pop\n  pop\n    /* \"#utility.yul\":6740:8135   */\n  pop\n  pop\n  jump\t// out\n    /* \"#utility.yul\":8141:8290   */\ntag_45:\n    /* \"#utility.yul\":8190:8196   */\n  0x00\n    /* \"#utility.yul\":8224:8229   */\n  dup2\n    /* \"#utility.yul\":8218:8230   */\n  sload\n    /* \"#utility.yul\":8208:8230   */\n  swap1\n  pop\n    /* \"#utility.yul\":8250:8283   */\n  tag_145\n    /* \"#utility.yul\":8276:8282   */\n  dup2\n    /* \"#utility.yul\":8250:8283   */\n  tag_28\n  jump\t// in\ntag_145:\n    /* \"#utility.yul\":8240:8283   */\n  swap1\n  pop\n    /* \"#utility.yul\":8141:8290   */\n  swap2\n  swap1\n  pop\n  jump\t// out\n    /* \"#utility.yul\":8296:9747   */\ntag_9:\n    /* \"#utility.yul\":8407:8410   */\n  dup2\n    /* \"#utility.yul\":8401:8405   */\n  dup2\n    /* \"#utility.yul\":8398:8411   */\n  sub\n    /* \"#utility.yul\":8395:8421   */\n  tag_147\n  jumpi\n    /* \"#utility.yul\":8414:8419   */\n  pop\n  pop\n  jump(tag_146)\n    /* \"#utility.yul\":8395:8421   */\ntag_147:\n    /* \"#utility.yul\":8445:8479   */\n  tag_148\n    /* \"#utility.yul\":8475:8478   */\n  dup3\n    /* \"#utility.yul\":8445:8479   */\n  tag_45\n  jump\t// in\ntag_148:\n    /* \"#utility.yul\":8544:8562   */\n  0xffffffffffffffff\n    /* \"#utility.yul\":8536:8542   */\n  dup2\n    /* \"#utility.yul\":8533:8563   */\n  gt\n    /* \"#utility.yul\":8530:8586   */\n  iszero\n  tag_149\n  jumpi\n    /* \"#utility.yul\":8566:8584   */\n  tag_150\n  tag_19\n  jump\t// in\ntag_150:\n    /* \"#utility.yul\":8530:8586   */\ntag_149:\n    /* \"#utility.yul\":8610:8648   */\n  tag_151\n    /* \"#utility.yul\":8642:8646   */\n  dup3\n    /* \"#utility.yul\":8636:8647   */\n  sload\n    /* \"#utility.yul\":8610:8648   */\n  tag_28\n  jump\t// in\ntag_151:\n    /* \"#utility.yul\":8695:8762   */\n  tag_152\n    /* \"#utility.yul\":8755:8761   */\n  dup3\n    /* \"#utility.yul\":8747:8753   */\n  dup3\n    /* \"#utility.yul\":8741:8745   */\n  dup6\n    /* \"#utility.yul\":8695:8762   */\n  tag_41\n  jump\t// in\ntag_152:\n    /* \"#utility.yul\":8789:8790   */\n  0x00\n    /* \"#utility.yul\":8818:8820   */\n  0x1f\n    /* \"#utility.yul\":8810:8816   */\n  dup4\n    /* \"#utility.yul\":8807:8821   */\n  gt\n    /* \"#utility.yul\":8835:8836   */\n  0x01\n    /* \"#utility.yul\":8830:9502   */\n  dup2\n  eq\n  tag_154\n  jumpi\n    /* \"#utility.yul\":9546:9547   */\n  0x00\n    /* \"#utility.yul\":9563:9569   */\n  dup5\n    /* \"#utility.yul\":9560:9637   */\n  iszero\n  tag_155\n  jumpi\n    /* \"#utility.yul\":9612:9621   */\n  dup3\n    /* \"#utility.yul\":9607:9610   */\n  dup8\n    /* \"#utility.yul\":9603:9622   */\n  add\n    /* \"#utility.yul\":9597:9623   */\n  sload\n    /* \"#utility.yul\":9588:9623   */\n  swap1\n  pop\n    /* \"#utility.yul\":9560:9637   */\ntag_155:\n    /* \"#utility.yul\":9663:9730   */\n  tag_156\n    /* \"#utility.yul\":9723:9729   */\n  dup6\n    /* \"#utility.yul\":9716:9721   */\n  dup3\n    /* \"#utility.yul\":9663:9730   */\n  tag_44\n  jump\t// in\ntag_156:\n    /* \"#utility.yul\":9657:9661   */\n  dup7\n    /* \"#utility.yul\":9650:9731   */\n  sstore\n    /* \"#utility.yul\":9519:9741   */\n  pop\n    /* \"#utility.yul\":8800:9741   */\n  jump(tag_153)\n    /* \"#utility.yul\":8830:9502   */\ntag_154:\n    /* \"#utility.yul\":8882:8886   */\n  0x1f\n    /* \"#utility.yul\":8878:8887   */\n  not\n    /* \"#utility.yul\":8870:8876   */\n  dup5\n    /* \"#utility.yul\":8866:8888   */\n  and\n    /* \"#utility.yul\":8908:8944   */\n  tag_157\n    /* \"#utility.yul\":8940:8943   */\n  dup8\n    /* \"#utility.yul\":8908:8944   */\n  tag_29\n  jump\t// in\ntag_157:\n    /* \"#utility.yul\":8901:8944   */\n  swap7\n  pop\n    /* \"#utility.yul\":8971:9008   */\n  tag_158\n    /* \"#utility.yul\":9003:9007   */\n  dup7\n    /* \"#utility.yul\":8971:9008   */\n  tag_29\n  jump\t// in\ntag_158:\n    /* \"#utility.yul\":9030:9031   */\n  0x00\n    /* \"#utility.yul\":9044:9251   */\ntag_159:\n    /* \"#utility.yul\":9058:9065   */\n  dup3\n    /* \"#utility.yul\":9055:9056   */\n  dup2\n    /* \"#utility.yul\":9052:9066   */\n  lt\n    /* \"#utility.yul\":9044:9251   */\n  iszero\n  tag_161\n  jumpi\n    /* \"#utility.yul\":9137:9146   */\n  dup5\n    /* \"#utility.yul\":9132:9135   */\n  dup10\n    /* \"#utility.yul\":9128:9147   */\n  add\n    /* \"#utility.yul\":9122:9148   */\n  sload\n    /* \"#utility.yul\":9114:9120   */\n  dup3\n    /* \"#utility.yul\":9107:9149   */\n  sstore\n    /* \"#utility.yul\":9188:9189   */\n  0x01\n    /* \"#utility.yul\":9180:9186   */\n  dup3\n    /* \"#utility.yul\":9176:9190   */\n  add\n    /* \"#utility.yul\":9166:9190   */\n  swap2\n  pop\n    /* \"#utility.yul\":9235:9236   */\n  0x01\n    /* \"#utility.yul\":9224:9233   */\n  dup6\n    /* \"#utility.yul\":9220:9237   */\n  add\n    /* \"#utility.yul\":9207:9237   */\n  swap5\n  pop\n    /* \"#utility.yul\":9081:9085   */\n  0x20\n    /* \"#utility.yul\":9078:9079   */\n  dup2\n    /* \"#utility.yul\":9074:9086   */\n  add\n    /* \"#utility.yul\":9069:9086   */\n  swap1\n  pop\n    /* \"#utility.yul\":9044:9251   */\n  jump(tag_159)\ntag_161:\n    /* \"#utility.yul\":9279:9285   */\n  dup7\n    /* \"#utility.yul\":9270:9277   */\n  dup4\n    /* \"#utility.yul\":9267:9286   */\n  lt\n    /* \"#utility.yul\":9264:9443   */\n  iszero\n  tag_162\n  jumpi\n    /* \"#utility.yul\":9337:9346   */\n  dup5\n    /* \"#utility.yul\":9332:9335   */\n  dup10\n    /* \"#utility.yul\":9328:9347   */\n  add\n    /* \"#utility.yul\":9322:9348   */\n  sload\n    /* \"#utility.yul\":9380:9428   */\n  tag_163\n    /* \"#utility.yul\":9422:9426   */\n  0x1f\n    /* \"#utility.yul\":9414:9420   */\n  dup10\n    /* \"#utility.yul\":9410:9427   */\n  and\n    /* \"#utility.yul\":9399:9408   */\n  dup3\n    /* \"#utility.yul\":9380:9428   */\n  tag_43\n  jump\t// in\ntag_163:\n    /* \"#utility.yul\":9372:9378   */\n  dup4\n    /* \"#utility.yul\":9365:9429   */\n  sstore\n    /* \"#utility.yul\":9287:9443   */\n  pop\n    /* \"#utility.yul\":9264:9443   */\ntag_162:\n    /* \"#utility.yul\":9489:9490   */\n  0x01\n    /* \"#utility.yul\":9485:9486   */\n  0x02\n    /* \"#utility.yul\":9477:9483   */\n  dup9\n    /* \"#utility.yul\":9473:9487   */\n  mul\n    /* \"#utility.yul\":9469:9491   */\n  add\n    /* \"#utility.yul\":9463:9467   */\n  dup9\n    /* \"#utility.yul\":9456:9492   */\n  sstore\n    /* \"#utility.yul\":8837:9502   */\n  pop\n  pop\n  pop\n    /* \"#utility.yul\":8800:9741   */\ntag_153:\n  pop\n    /* \"#utility.yul\":8385:9747   */\n  pop\n  pop\n  pop\n    /* \"#utility.yul\":8296:9747   */\n  pop\n  pop\ntag_146:\n  jump\t// out\n    /* \"#utility.yul\":9753:9901   */\ntag_46:\n    /* \"#utility.yul\":9855:9866   */\n  0x00\n    /* \"#utility.yul\":9892:9895   */\n  dup2\n    /* \"#utility.yul\":9877:9895   */\n  swap1\n  pop\n    /* \"#utility.yul\":9753:9901   */\n  swap3\n  swap2\n  pop\n  pop\n  jump\t// out\n    /* \"#utility.yul\":9931:10805   */\ntag_47:\n    /* \"#utility.yul\":10034:10037   */\n  0x00\n    /* \"#utility.yul\":10071:10076   */\n  dup2\n    /* \"#utility.yul\":10065:10077   */\n  sload\n    /* \"#utility.yul\":10100:10136   */\n  tag_166\n    /* \"#utility.yul\":10126:10135   */\n  dup2\n    /* \"#utility.yul\":10100:10136   */\n  tag_28\n  jump\t// in\ntag_166:\n    /* \"#utility.yul\":10152:10241   */\n  tag_167\n    /* \"#utility.yul\":10234:10240   */\n  dup2\n    /* \"#utility.yul\":10229:10232   */\n  dup7\n    /* \"#utility.yul\":10152:10241   */\n  tag_46\n  jump\t// in\ntag_167:\n    /* \"#utility.yul\":10145:10241   */\n  swap5\n  pop\n    /* \"#utility.yul\":10272:10273   */\n  0x01\n    /* \"#utility.yul\":10261:10270   */\n  dup3\n    /* \"#utility.yul\":10257:10274   */\n  and\n    /* \"#utility.yul\":10288:10289   */\n  0x00\n    /* \"#utility.yul\":10283:10449   */\n  dup2\n  eq\n  tag_169\n  jumpi\n    /* \"#utility.yul\":10463:10464   */\n  0x01\n    /* \"#utility.yul\":10458:10799   */\n  dup2\n  eq\n  tag_170\n  jumpi\n    /* \"#utility.yul\":10250:10799   */\n  jump(tag_168)\n    /* \"#utility.yul\":10283:10449   */\ntag_169:\n    /* \"#utility.yul\":10367:10371   */\n  0xff\n    /* \"#utility.yul\":10363:10372   */\n  not\n    /* \"#utility.yul\":10352:10361   */\n  dup4\n    /* \"#utility.yul\":10348:10373   */\n  and\n    /* \"#utility.yul\":10343:10346   */\n  dup7\n    /* \"#utility.yul\":10336:10374   */\n  mstore\n    /* \"#utility.yul\":10429:10435   */\n  dup2\n    /* \"#utility.yul\":10422:10436   */\n  iszero\n    /* \"#utility.yul\":10415:10437   */\n  iszero\n    /* \"#utility.yul\":10407:10413   */\n  dup3\n    /* \"#utility.yul\":10403:10438   */\n  mul\n    /* \"#utility.yul\":10398:10401   */\n  dup7\n    /* \"#utility.yul\":10394:10439   */\n  add\n    /* \"#utility.yul\":10387:10439   */\n  swap4\n  pop\n    /* \"#utility.yul\":10283:10449   */\n  jump(tag_168)\n    /* \"#utility.yul\":10458:10799   */\ntag_170:\n    /* \"#utility.yul\":10525:10563   */\n  tag_171\n    /* \"#utility.yul\":10557:10562   */\n  dup6\n    /* \"#utility.yul\":10525:10563   */\n  tag_29\n  jump\t// in\ntag_171:\n    /* \"#utility.yul\":10585:10586   */\n  0x00\n    /* \"#utility.yul\":10599:10753   */\ntag_172:\n    /* \"#utility.yul\":10613:10619   */\n  dup4\n    /* \"#utility.yul\":10610:10611   */\n  dup2\n    /* \"#utility.yul\":10607:10620   */\n  lt\n    /* \"#utility.yul\":10599:10753   */\n  iszero\n  tag_174\n  jumpi\n    /* \"#utility.yul\":10687:10694   */\n  dup2\n    /* \"#utility.yul\":10681:10695   */\n  sload\n    /* \"#utility.yul\":10677:10678   */\n  dup2\n    /* \"#utility.yul\":10672:10675   */\n  dup10\n    /* \"#utility.yul\":10668:10679   */\n  add\n    /* \"#utility.yul\":10661:10696   */\n  mstore\n    /* \"#utility.yul\":10737:10738   */\n  0x01\n    /* \"#utility.yul\":10728:10735   */\n  dup3\n    /* \"#utility.yul\":10724:10739   */\n  add\n    /* \"#utility.yul\":10713:10739   */\n  swap2\n  pop\n    /* \"#utility.yul\":10635:10639   */\n  0x20\n    /* \"#utility.yul\":10632:10633   */\n  dup2\n    /* \"#utility.yul\":10628:10640   */\n  add\n    /* \"#utility.yul\":10623:10640   */\n  swap1\n  pop\n    /* \"#utility.yul\":10599:10753   */\n  jump(tag_172)\ntag_174:\n    /* \"#utility.yul\":10782:10788   */\n  dup4\n    /* \"#utility.yul\":10777:10780   */\n  dup9\n    /* \"#utility.yul\":10773:10789   */\n  add\n    /* \"#utility.yul\":10766:10789   */\n  swap6\n  pop\n    /* \"#utility.yul\":10465:10799   */\n  pop\n  pop\n    /* \"#utility.yul\":10250:10799   */\ntag_168:\n  pop\n    /* \"#utility.yul\":10038:10805   */\n  pop\n  pop\n    /* \"#utility.yul\":9931:10805   */\n  swap3\n  swap2\n  pop\n  pop\n  jump\t// out\n    /* \"#utility.yul\":10811:11080   */\ntag_11:\n    /* \"#utility.yul\":10940:10943   */\n  0x00\n    /* \"#utility.yul\":10962:11054   */\n  tag_176\n    /* \"#utility.yul\":11050:11053   */\n  dup3\n    /* \"#utility.yul\":11041:11047   */\n  dup5\n    /* \"#utility.yul\":10962:11054   */\n  tag_47\n  jump\t// in\ntag_176:\n    /* \"#utility.yul\":10955:11054   */\n  swap2\n  pop\n    /* \"#utility.yul\":11071:11074   */\n  dup2\n    /* \"#utility.yul\":11064:11074   */\n  swap1\n  pop\n    /* \"#utility.yul\":10811:11080   */\n  swap3\n  swap2\n  pop\n  pop\n  jump\t// out\n    /* \"contracts/Whitelist.sol\":127:2464  contract Whitelist {... */\ntag_12:\n  dataSize(sub_0)\n  dup1\n  dataOffset(sub_0)\n  0x00\n  codecopy\n  0x00\n  return\nstop\n\nsub_0: assembly {\n        /* \"contracts/Whitelist.sol\":127:2464  contract Whitelist {... */\n      mstore(0x40, 0x80)\n      callvalue\n      dup1\n      iszero\n      tag_1\n      jumpi\n      0x00\n      dup1\n      revert\n    tag_1:\n      pop\n      jumpi(tag_2, lt(calldatasize, 0x04))\n      shr(0xe0, calldataload(0x00))\n      dup1\n      0x3561c688\n      eq\n      tag_3\n      jumpi\n      dup1\n      0xa3e5b0b2\n      eq\n      tag_4\n      jumpi\n      dup1\n      0xa83439f8\n      eq\n      tag_5\n      jumpi\n      dup1\n      0xb65e8519\n      eq\n      tag_6\n      jumpi\n      dup1\n      0xbe8743f9\n      eq\n      tag_7\n      jumpi\n      dup1\n      0xe349cb12\n      eq\n      tag_8\n      jumpi\n    tag_2:\n      0x00\n      dup1\n      revert\n        /* \"contracts/Whitelist.sol\":1866:1956  function check_owner() external view returns(address) {... */\n    tag_3:\n      tag_9\n      tag_10\n      jump\t// in\n    tag_9:\n      mload(0x40)\n      tag_11\n      swap2\n      swap1\n      tag_12\n      jump\t// in\n    tag_11:\n      mload(0x40)\n      dup1\n      swap2\n      sub\n      swap1\n      return\n        /* \"contracts/Whitelist.sol\":1964:2272  function check_whitelist() external view returns(address[] memory) {... */\n    tag_4:\n      tag_13\n      tag_14\n      jump\t// in\n    tag_13:\n      mload(0x40)\n      tag_15\n      swap2\n      swap1\n      tag_16\n      jump\t// in\n    tag_15:\n      mload(0x40)\n      dup1\n      swap2\n      sub\n      swap1\n      return\n        /* \"contracts/Whitelist.sol\":937:1573  function whitelist_user(address _addr) external {... */\n    tag_5:\n      tag_17\n      0x04\n      dup1\n      calldatasize\n      sub\n      dup2\n      add\n      swap1\n      tag_18\n      swap2\n      swap1\n      tag_19\n      jump\t// in\n    tag_18:\n      tag_20\n      jump\t// in\n    tag_17:\n      stop\n        /* \"contracts/Whitelist.sol\":449:473  uint public num_of_users */\n    tag_6:\n      tag_21\n      tag_22\n      jump\t// in\n    tag_21:\n      mload(0x40)\n      tag_23\n      swap2\n      swap1\n      tag_24\n      jump\t// in\n    tag_23:\n      mload(0x40)\n      dup1\n      swap2\n      sub\n      swap1\n      return\n        /* \"contracts/Whitelist.sol\":2280:2459  function check_name(address _addr) external view returns(string  memory) {... */\n    tag_7:\n      tag_25\n      0x04\n      dup1\n      calldatasize\n      sub\n      dup2\n      add\n      swap1\n      tag_26\n      swap2\n      swap1\n      tag_19\n      jump\t// in\n    tag_26:\n      tag_27\n      jump\t// in\n    tag_25:\n      mload(0x40)\n      tag_28\n      swap2\n      swap1\n      tag_29\n      jump\t// in\n    tag_28:\n      mload(0x40)\n      dup1\n      swap2\n      sub\n      swap1\n      return\n        /* \"contracts/Whitelist.sol\":1581:1858  function change_name(string memory _name) external {... */\n    tag_8:\n      tag_30\n      0x04\n      dup1\n      calldatasize\n      sub\n      dup2\n      add\n      swap1\n      tag_31\n      swap2\n      swap1\n      tag_32\n      jump\t// in\n    tag_31:\n      tag_33\n      jump\t// in\n    tag_30:\n      stop\n        /* \"contracts/Whitelist.sol\":1866:1956  function check_owner() external view returns(address) {... */\n    tag_10:\n        /* \"contracts/Whitelist.sol\":1911:1918  address */\n      0x00\n        /* \"contracts/Whitelist.sol\":1938:1943  owner */\n      dup1\n        /* \"contracts/Whitelist.sol\":1938:1948  owner.addr */\n      0x00\n      add\n      0x00\n      swap1\n      sload\n      swap1\n      0x0100\n      exp\n      swap1\n      div\n      0xffffffffffffffffffffffffffffffffffffffff\n      and\n        /* \"contracts/Whitelist.sol\":1931:1948  return owner.addr */\n      swap1\n      pop\n        /* \"contracts/Whitelist.sol\":1866:1956  function check_owner() external view returns(address) {... */\n      swap1\n      jump\t// out\n        /* \"contracts/Whitelist.sol\":1964:2272  function check_whitelist() external view returns(address[] memory) {... */\n    tag_14:\n        /* \"contracts/Whitelist.sol\":2013:2029  address[] memory */\n      0x60\n        /* \"contracts/Whitelist.sol\":2042:2065  address[] memory result */\n      0x00\n        /* \"contracts/Whitelist.sol\":2082:2094  num_of_users */\n      sload(0x08)\n        /* \"contracts/Whitelist.sol\":2068:2095  new address[](num_of_users) */\n      0xffffffffffffffff\n      dup2\n      gt\n      iszero\n      tag_36\n      jumpi\n      tag_37\n      tag_38\n      jump\t// in\n    tag_37:\n    tag_36:\n      mload(0x40)\n      swap1\n      dup1\n      dup3\n      mstore\n      dup1\n      0x20\n      mul\n      0x20\n      add\n      dup3\n      add\n      0x40\n      mstore\n      dup1\n      iszero\n      tag_39\n      jumpi\n      dup2\n      0x20\n      add\n      0x20\n      dup3\n      mul\n      dup1\n      calldatasize\n      dup4\n      calldatacopy\n      dup1\n      dup3\n      add\n      swap2\n      pop\n      pop\n      swap1\n      pop\n    tag_39:\n      pop\n        /* \"contracts/Whitelist.sol\":2042:2095  address[] memory result = new address[](num_of_users) */\n      swap1\n      pop\n        /* \"contracts/Whitelist.sol\":2118:2123  owner */\n      0x00\n        /* \"contracts/Whitelist.sol\":2118:2128  owner.addr */\n      dup1\n      add\n      0x00\n      swap1\n      sload\n      swap1\n      0x0100\n      exp\n      swap1\n      div\n      0xffffffffffffffffffffffffffffffffffffffff\n      and\n        /* \"contracts/Whitelist.sol\":2106:2112  result */\n      dup2\n        /* \"contracts/Whitelist.sol\":2113:2114  0 */\n      0x00\n        /* \"contracts/Whitelist.sol\":2106:2115  result[0] */\n      dup2\n      mload\n      dup2\n      lt\n      tag_40\n      jumpi\n      tag_41\n      tag_42\n      jump\t// in\n    tag_41:\n    tag_40:\n      0x20\n      mul\n      0x20\n      add\n      add\n        /* \"contracts/Whitelist.sol\":2106:2128  result[0] = owner.addr */\n      swap1\n      0xffffffffffffffffffffffffffffffffffffffff\n      and\n      swap1\n      dup2\n      0xffffffffffffffffffffffffffffffffffffffff\n      and\n      dup2\n      mstore\n      pop\n      pop\n        /* \"contracts/Whitelist.sol\":2144:2150  uint i */\n      0x00\n        /* \"contracts/Whitelist.sol\":2153:2154  1 */\n      0x01\n        /* \"contracts/Whitelist.sol\":2144:2154  uint i = 1 */\n      swap1\n      pop\n        /* \"contracts/Whitelist.sol\":2139:2241  for (uint i = 1; i < num_of_users; i++) {... */\n    tag_43:\n        /* \"contracts/Whitelist.sol\":2160:2172  num_of_users */\n      sload(0x08)\n        /* \"contracts/Whitelist.sol\":2156:2157  i */\n      dup2\n        /* \"contracts/Whitelist.sol\":2156:2172  i < num_of_users */\n      lt\n        /* \"contracts/Whitelist.sol\":2139:2241  for (uint i = 1; i < num_of_users; i++) {... */\n      iszero\n      tag_44\n      jumpi\n        /* \"contracts/Whitelist.sol\":2206:2214  get_user */\n      0x04\n        /* \"contracts/Whitelist.sol\":2206:2224  get_user[by_id[i]] */\n      0x00\n        /* \"contracts/Whitelist.sol\":2215:2220  by_id */\n      0x06\n        /* \"contracts/Whitelist.sol\":2215:2223  by_id[i] */\n      0x00\n        /* \"contracts/Whitelist.sol\":2221:2222  i */\n      dup5\n        /* \"contracts/Whitelist.sol\":2215:2223  by_id[i] */\n      dup2\n      mstore\n      0x20\n      add\n      swap1\n      dup2\n      mstore\n      0x20\n      add\n      0x00\n      keccak256\n      0x00\n      swap1\n      sload\n      swap1\n      0x0100\n      exp\n      swap1\n      div\n      0xffffffffffffffffffffffffffffffffffffffff\n      and\n        /* \"contracts/Whitelist.sol\":2206:2224  get_user[by_id[i]] */\n      0xffffffffffffffffffffffffffffffffffffffff\n      and\n      0xffffffffffffffffffffffffffffffffffffffff\n      and\n      dup2\n      mstore\n      0x20\n      add\n      swap1\n      dup2\n      mstore\n      0x20\n      add\n      0x00\n      keccak256\n        /* \"contracts/Whitelist.sol\":2206:2229  get_user[by_id[i]].addr */\n      0x00\n      add\n      0x00\n      swap1\n      sload\n      swap1\n      0x0100\n      exp\n      swap1\n      div\n      0xffffffffffffffffffffffffffffffffffffffff\n      and\n        /* \"contracts/Whitelist.sol\":2194:2200  result */\n      dup3\n        /* \"contracts/Whitelist.sol\":2201:2202  i */\n      dup3\n        /* \"contracts/Whitelist.sol\":2194:2203  result[i] */\n      dup2\n      mload\n      dup2\n      lt\n      tag_46\n      jumpi\n      tag_47\n      tag_42\n      jump\t// in\n    tag_47:\n    tag_46:\n      0x20\n      mul\n      0x20\n      add\n      add\n        /* \"contracts/Whitelist.sol\":2194:2229  result[i] = get_user[by_id[i]].addr */\n      swap1\n      0xffffffffffffffffffffffffffffffffffffffff\n      and\n      swap1\n      dup2\n      0xffffffffffffffffffffffffffffffffffffffff\n      and\n      dup2\n      mstore\n      pop\n      pop\n        /* \"contracts/Whitelist.sol\":2174:2177  i++ */\n      dup1\n      dup1\n      0x01\n      add\n      swap2\n      pop\n      pop\n        /* \"contracts/Whitelist.sol\":2139:2241  for (uint i = 1; i < num_of_users; i++) {... */\n      jump(tag_43)\n    tag_44:\n      pop\n        /* \"contracts/Whitelist.sol\":2258:2264  result */\n      dup1\n        /* \"contracts/Whitelist.sol\":2251:2264  return result */\n      swap2\n      pop\n      pop\n        /* \"contracts/Whitelist.sol\":1964:2272  function check_whitelist() external view returns(address[] memory) {... */\n      swap1\n      jump\t// out\n        /* \"contracts/Whitelist.sol\":937:1573  function whitelist_user(address _addr) external {... */\n    tag_20:\n        /* \"contracts/Whitelist.sol\":1018:1023  owner */\n      0x00\n        /* \"contracts/Whitelist.sol\":1018:1028  owner.addr */\n      dup1\n      add\n      0x00\n      swap1\n      sload\n      swap1\n      0x0100\n      exp\n      swap1\n      div\n      0xffffffffffffffffffffffffffffffffffffffff\n      and\n        /* \"contracts/Whitelist.sol\":1004:1028  msg.sender == owner.addr */\n      0xffffffffffffffffffffffffffffffffffffffff\n      and\n        /* \"contracts/Whitelist.sol\":1004:1014  msg.sender */\n      caller\n        /* \"contracts/Whitelist.sol\":1004:1028  msg.sender == owner.addr */\n      0xffffffffffffffffffffffffffffffffffffffff\n      and\n      eq\n        /* \"contracts/Whitelist.sol\":996:1066  require(msg.sender == owner.addr, \"Only owner can whitelist the user\") */\n      tag_49\n      jumpi\n      mload(0x40)\n      0x08c379a000000000000000000000000000000000000000000000000000000000\n      dup2\n      mstore\n      0x04\n      add\n      tag_50\n      swap1\n      tag_51\n      jump\t// in\n    tag_50:\n      mload(0x40)\n      dup1\n      swap2\n      sub\n      swap1\n      revert\n    tag_49:\n        /* \"contracts/Whitelist.sol\":1086:1095  whitelist */\n      0x05\n        /* \"contracts/Whitelist.sol\":1086:1102  whitelist[_addr] */\n      0x00\n        /* \"contracts/Whitelist.sol\":1096:1101  _addr */\n      dup3\n        /* \"contracts/Whitelist.sol\":1086:1102  whitelist[_addr] */\n      0xffffffffffffffffffffffffffffffffffffffff\n      and\n      0xffffffffffffffffffffffffffffffffffffffff\n      and\n      dup2\n      mstore\n      0x20\n      add\n      swap1\n      dup2\n      mstore\n      0x20\n      add\n      0x00\n      keccak256\n      0x00\n      swap1\n      sload\n      swap1\n      0x0100\n      exp\n      swap1\n      div\n      0xff\n      and\n        /* \"contracts/Whitelist.sol\":1085:1102  !whitelist[_addr] */\n      iszero\n        /* \"contracts/Whitelist.sol\":1077:1147  require(!whitelist[_addr], \"The address has already been whitelisted\") */\n      tag_52\n      jumpi\n      mload(0x40)\n      0x08c379a000000000000000000000000000000000000000000000000000000000\n      dup2\n      mstore\n      0x04\n      add\n      tag_53\n      swap1\n      tag_54\n      jump\t// in\n    tag_53:\n      mload(0x40)\n      dup1\n      swap2\n      sub\n      swap1\n      revert\n    tag_52:\n        /* \"contracts/Whitelist.sol\":1214:1231  User storage user */\n      0x00\n        /* \"contracts/Whitelist.sol\":1234:1242  get_user */\n      0x04\n        /* \"contracts/Whitelist.sol\":1234:1249  get_user[_addr] */\n      0x00\n        /* \"contracts/Whitelist.sol\":1243:1248  _addr */\n      dup4\n        /* \"contracts/Whitelist.sol\":1234:1249  get_user[_addr] */\n      0xffffffffffffffffffffffffffffffffffffffff\n      and\n      0xffffffffffffffffffffffffffffffffffffffff\n      and\n      dup2\n      mstore\n      0x20\n      add\n      swap1\n      dup2\n      mstore\n      0x20\n      add\n      0x00\n      keccak256\n        /* \"contracts/Whitelist.sol\":1214:1249  User storage user = get_user[_addr] */\n      swap1\n      pop\n        /* \"contracts/Whitelist.sol\":1272:1277  _addr */\n      dup2\n        /* \"contracts/Whitelist.sol\":1260:1264  user */\n      dup2\n        /* \"contracts/Whitelist.sol\":1260:1269  user.addr */\n      0x00\n      add\n      0x00\n        /* \"contracts/Whitelist.sol\":1260:1277  user.addr = _addr */\n      0x0100\n      exp\n      dup2\n      sload\n      dup2\n      0xffffffffffffffffffffffffffffffffffffffff\n      mul\n      not\n      and\n      swap1\n      dup4\n      0xffffffffffffffffffffffffffffffffffffffff\n      and\n      mul\n      or\n      swap1\n      sstore\n      pop\n        /* \"contracts/Whitelist.sol\":1298:1310  num_of_users */\n      sload(0x08)\n        /* \"contracts/Whitelist.sol\":1288:1292  user */\n      dup2\n        /* \"contracts/Whitelist.sol\":1288:1295  user.id */\n      0x01\n      add\n        /* \"contracts/Whitelist.sol\":1288:1310  user.id = num_of_users */\n      dup2\n      swap1\n      sstore\n      pop\n        /* \"contracts/Whitelist.sol\":1356:1381  Strings.toString(user.id) */\n      tag_55\n        /* \"contracts/Whitelist.sol\":1373:1377  user */\n      dup2\n        /* \"contracts/Whitelist.sol\":1373:1380  user.id */\n      0x01\n      add\n      sload\n        /* \"contracts/Whitelist.sol\":1356:1372  Strings.toString */\n      tag_56\n        /* \"contracts/Whitelist.sol\":1356:1381  Strings.toString(user.id) */\n      jump\t// in\n    tag_55:\n        /* \"contracts/Whitelist.sol\":1333:1382  string.concat(\"User \", Strings.toString(user.id)) */\n      add(0x20, mload(0x40))\n      tag_57\n      swap2\n      swap1\n      tag_58\n      jump\t// in\n    tag_57:\n      mload(0x40)\n      0x20\n      dup2\n      dup4\n      sub\n      sub\n      dup2\n      mstore\n      swap1\n      0x40\n      mstore\n        /* \"contracts/Whitelist.sol\":1321:1325  user */\n      dup2\n        /* \"contracts/Whitelist.sol\":1321:1330  user.name */\n      0x02\n      add\n        /* \"contracts/Whitelist.sol\":1321:1382  user.name = string.concat(\"User \", Strings.toString(user.id)) */\n      swap1\n      dup2\n      tag_59\n      swap2\n      swap1\n      tag_60\n      jump\t// in\n    tag_59:\n      pop\n        /* \"contracts/Whitelist.sol\":1414:1418  true */\n      0x01\n        /* \"contracts/Whitelist.sol\":1395:1404  whitelist */\n      0x05\n        /* \"contracts/Whitelist.sol\":1395:1411  whitelist[_addr] */\n      0x00\n        /* \"contracts/Whitelist.sol\":1405:1410  _addr */\n      dup5\n        /* \"contracts/Whitelist.sol\":1395:1411  whitelist[_addr] */\n      0xffffffffffffffffffffffffffffffffffffffff\n      and\n      0xffffffffffffffffffffffffffffffffffffffff\n      and\n      dup2\n      mstore\n      0x20\n      add\n      swap1\n      dup2\n      mstore\n      0x20\n      add\n      0x00\n      keccak256\n      0x00\n        /* \"contracts/Whitelist.sol\":1395:1418  whitelist[_addr] = true */\n      0x0100\n      exp\n      dup2\n      sload\n      dup2\n      0xff\n      mul\n      not\n      and\n      swap1\n      dup4\n      iszero\n      iszero\n      mul\n      or\n      swap1\n      sstore\n      pop\n        /* \"contracts/Whitelist.sol\":1446:1450  user */\n      dup1\n        /* \"contracts/Whitelist.sol\":1446:1455  user.addr */\n      0x00\n      add\n      0x00\n      swap1\n      sload\n      swap1\n      0x0100\n      exp\n      swap1\n      div\n      0xffffffffffffffffffffffffffffffffffffffff\n      and\n        /* \"contracts/Whitelist.sol\":1429:1434  by_id */\n      0x06\n        /* \"contracts/Whitelist.sol\":1429:1443  by_id[user.id] */\n      0x00\n        /* \"contracts/Whitelist.sol\":1435:1439  user */\n      dup4\n        /* \"contracts/Whitelist.sol\":1435:1442  user.id */\n      0x01\n      add\n      sload\n        /* \"contracts/Whitelist.sol\":1429:1443  by_id[user.id] */\n      dup2\n      mstore\n      0x20\n      add\n      swap1\n      dup2\n      mstore\n      0x20\n      add\n      0x00\n      keccak256\n      0x00\n        /* \"contracts/Whitelist.sol\":1429:1455  by_id[user.id] = user.addr */\n      0x0100\n      exp\n      dup2\n      sload\n      dup2\n      0xffffffffffffffffffffffffffffffffffffffff\n      mul\n      not\n      and\n      swap1\n      dup4\n      0xffffffffffffffffffffffffffffffffffffffff\n      and\n      mul\n      or\n      swap1\n      sstore\n      pop\n        /* \"contracts/Whitelist.sol\":1487:1491  user */\n      dup1\n        /* \"contracts/Whitelist.sol\":1487:1496  user.addr */\n      0x00\n      add\n      0x00\n      swap1\n      sload\n      swap1\n      0x0100\n      exp\n      swap1\n      div\n      0xffffffffffffffffffffffffffffffffffffffff\n      and\n        /* \"contracts/Whitelist.sol\":1466:1473  by_name */\n      0x07\n        /* \"contracts/Whitelist.sol\":1474:1478  user */\n      dup3\n        /* \"contracts/Whitelist.sol\":1474:1483  user.name */\n      0x02\n      add\n        /* \"contracts/Whitelist.sol\":1466:1484  by_name[user.name] */\n      mload(0x40)\n      tag_61\n      swap2\n      swap1\n      tag_62\n      jump\t// in\n    tag_61:\n      swap1\n      dup2\n      mstore\n      0x20\n      add\n      mload(0x40)\n      dup1\n      swap2\n      sub\n      swap1\n      keccak256\n      0x00\n        /* \"contracts/Whitelist.sol\":1466:1496  by_name[user.name] = user.addr */\n      0x0100\n      exp\n      dup2\n      sload\n      dup2\n      0xffffffffffffffffffffffffffffffffffffffff\n      mul\n      not\n      and\n      swap1\n      dup4\n      0xffffffffffffffffffffffffffffffffffffffff\n      and\n      mul\n      or\n      swap1\n      sstore\n      pop\n        /* \"contracts/Whitelist.sol\":1523:1524  1 */\n      0x01\n        /* \"contracts/Whitelist.sol\":1507:1519  num_of_users */\n      0x08\n      0x00\n        /* \"contracts/Whitelist.sol\":1507:1524  num_of_users += 1 */\n      dup3\n      dup3\n      sload\n      tag_63\n      swap2\n      swap1\n      tag_64\n      jump\t// in\n    tag_63:\n      swap3\n      pop\n      pop\n      dup2\n      swap1\n      sstore\n      pop\n        /* \"contracts/Whitelist.sol\":1559:1564  _addr */\n      dup2\n        /* \"contracts/Whitelist.sol\":1542:1565  User_whitelisted(_addr) */\n      0xffffffffffffffffffffffffffffffffffffffff\n      and\n      0xa5b2fe64d20495a2e0d6041ec2ddc2c9e4ca72b8222327284d33bd40e8786731\n      mload(0x40)\n      mload(0x40)\n      dup1\n      swap2\n      sub\n      swap1\n      log2\n        /* \"contracts/Whitelist.sol\":985:1573  {... */\n      pop\n        /* \"contracts/Whitelist.sol\":937:1573  function whitelist_user(address _addr) external {... */\n      pop\n      jump\t// out\n        /* \"contracts/Whitelist.sol\":449:473  uint public num_of_users */\n    tag_22:\n      sload(0x08)\n      dup2\n      jump\t// out\n        /* \"contracts/Whitelist.sol\":2280:2459  function check_name(address _addr) external view returns(string  memory) {... */\n    tag_27:\n        /* \"contracts/Whitelist.sol\":2337:2351  string  memory */\n      0x60\n        /* \"contracts/Whitelist.sol\":2372:2381  whitelist */\n      0x05\n        /* \"contracts/Whitelist.sol\":2372:2388  whitelist[_addr] */\n      0x00\n        /* \"contracts/Whitelist.sol\":2382:2387  _addr */\n      dup4\n        /* \"contracts/Whitelist.sol\":2372:2388  whitelist[_addr] */\n      0xffffffffffffffffffffffffffffffffffffffff\n      and\n      0xffffffffffffffffffffffffffffffffffffffff\n      and\n      dup2\n      mstore\n      0x20\n      add\n      swap1\n      dup2\n      mstore\n      0x20\n      add\n      0x00\n      keccak256\n      0x00\n      swap1\n      sload\n      swap1\n      0x0100\n      exp\n      swap1\n      div\n      0xff\n      and\n        /* \"contracts/Whitelist.sol\":2364:2413  require(whitelist[_addr], \"User not whitelisted\") */\n      tag_66\n      jumpi\n      mload(0x40)\n      0x08c379a000000000000000000000000000000000000000000000000000000000\n      dup2\n      mstore\n      0x04\n      add\n      tag_67\n      swap1\n      tag_68\n      jump\t// in\n    tag_67:\n      mload(0x40)\n      dup1\n      swap2\n      sub\n      swap1\n      revert\n    tag_66:\n        /* \"contracts/Whitelist.sol\":2431:2439  get_user */\n      0x04\n        /* \"contracts/Whitelist.sol\":2431:2446  get_user[_addr] */\n      0x00\n        /* \"contracts/Whitelist.sol\":2440:2445  _addr */\n      dup4\n        /* \"contracts/Whitelist.sol\":2431:2446  get_user[_addr] */\n      0xffffffffffffffffffffffffffffffffffffffff\n      and\n      0xffffffffffffffffffffffffffffffffffffffff\n      and\n      dup2\n      mstore\n      0x20\n      add\n      swap1\n      dup2\n      mstore\n      0x20\n      add\n      0x00\n      keccak256\n        /* \"contracts/Whitelist.sol\":2431:2451  get_user[_addr].name */\n      0x02\n      add\n        /* \"contracts/Whitelist.sol\":2424:2451  return get_user[_addr].name */\n      dup1\n      sload\n      tag_69\n      swap1\n      tag_70\n      jump\t// in\n    tag_69:\n      dup1\n      0x1f\n      add\n      0x20\n      dup1\n      swap2\n      div\n      mul\n      0x20\n      add\n      mload(0x40)\n      swap1\n      dup2\n      add\n      0x40\n      mstore\n      dup1\n      swap3\n      swap2\n      swap1\n      dup2\n      dup2\n      mstore\n      0x20\n      add\n      dup3\n      dup1\n      sload\n      tag_71\n      swap1\n      tag_70\n      jump\t// in\n    tag_71:\n      dup1\n      iszero\n      tag_72\n      jumpi\n      dup1\n      0x1f\n      lt\n      tag_73\n      jumpi\n      0x0100\n      dup1\n      dup4\n      sload\n      div\n      mul\n      dup4\n      mstore\n      swap2\n      0x20\n      add\n      swap2\n      jump(tag_72)\n    tag_73:\n      dup3\n      add\n      swap2\n      swap1\n      0x00\n      mstore\n      keccak256(0x00, 0x20)\n      swap1\n    tag_74:\n      dup2\n      sload\n      dup2\n      mstore\n      swap1\n      0x01\n      add\n      swap1\n      0x20\n      add\n      dup1\n      dup4\n      gt\n      tag_74\n      jumpi\n      dup3\n      swap1\n      sub\n      0x1f\n      and\n      dup3\n      add\n      swap2\n    tag_72:\n      pop\n      pop\n      pop\n      pop\n      pop\n      swap1\n      pop\n        /* \"contracts/Whitelist.sol\":2280:2459  function check_name(address _addr) external view returns(string  memory) {... */\n      swap2\n      swap1\n      pop\n      jump\t// out\n        /* \"contracts/Whitelist.sol\":1581:1858  function change_name(string memory _name) external {... */\n    tag_33:\n        /* \"contracts/Whitelist.sol\":1677:1678  0 */\n      0x00\n        /* \"contracts/Whitelist.sol\":1651:1679  by_name[_name] == address(0) */\n      0xffffffffffffffffffffffffffffffffffffffff\n      and\n        /* \"contracts/Whitelist.sol\":1651:1658  by_name */\n      0x07\n        /* \"contracts/Whitelist.sol\":1659:1664  _name */\n      dup3\n        /* \"contracts/Whitelist.sol\":1651:1665  by_name[_name] */\n      mload(0x40)\n      tag_76\n      swap2\n      swap1\n      tag_77\n      jump\t// in\n    tag_76:\n      swap1\n      dup2\n      mstore\n      0x20\n      add\n      mload(0x40)\n      dup1\n      swap2\n      sub\n      swap1\n      keccak256\n      0x00\n      swap1\n      sload\n      swap1\n      0x0100\n      exp\n      swap1\n      div\n      0xffffffffffffffffffffffffffffffffffffffff\n      and\n        /* \"contracts/Whitelist.sol\":1651:1679  by_name[_name] == address(0) */\n      0xffffffffffffffffffffffffffffffffffffffff\n      and\n      eq\n        /* \"contracts/Whitelist.sol\":1643:1702  require(by_name[_name] == address(0), \"Name not available\") */\n      tag_78\n      jumpi\n      mload(0x40)\n      0x08c379a000000000000000000000000000000000000000000000000000000000\n      dup2\n      mstore\n      0x04\n      add\n      tag_79\n      swap1\n      tag_80\n      jump\t// in\n    tag_79:\n      mload(0x40)\n      dup1\n      swap2\n      sub\n      swap1\n      revert\n    tag_78:\n        /* \"contracts/Whitelist.sol\":1721:1730  whitelist */\n      0x05\n        /* \"contracts/Whitelist.sol\":1721:1742  whitelist[msg.sender] */\n      0x00\n        /* \"contracts/Whitelist.sol\":1731:1741  msg.sender */\n      caller\n        /* \"contracts/Whitelist.sol\":1721:1742  whitelist[msg.sender] */\n      0xffffffffffffffffffffffffffffffffffffffff\n      and\n      0xffffffffffffffffffffffffffffffffffffffff\n      and\n      dup2\n      mstore\n      0x20\n      add\n      swap1\n      dup2\n      mstore\n      0x20\n      add\n      0x00\n      keccak256\n      0x00\n      swap1\n      sload\n      swap1\n      0x0100\n      exp\n      swap1\n      div\n      0xff\n      and\n        /* \"contracts/Whitelist.sol\":1713:1767  require(whitelist[msg.sender], \"User not whitelisted\") */\n      tag_81\n      jumpi\n      mload(0x40)\n      0x08c379a000000000000000000000000000000000000000000000000000000000\n      dup2\n      mstore\n      0x04\n      add\n      tag_82\n      swap1\n      tag_68\n      jump\t// in\n    tag_82:\n      mload(0x40)\n      dup1\n      swap2\n      sub\n      swap1\n      revert\n    tag_81:\n        /* \"contracts/Whitelist.sol\":1778:1797  User storage target */\n      0x00\n        /* \"contracts/Whitelist.sol\":1800:1808  get_user */\n      0x04\n        /* \"contracts/Whitelist.sol\":1800:1820  get_user[msg.sender] */\n      0x00\n        /* \"contracts/Whitelist.sol\":1809:1819  msg.sender */\n      caller\n        /* \"contracts/Whitelist.sol\":1800:1820  get_user[msg.sender] */\n      0xffffffffffffffffffffffffffffffffffffffff\n      and\n      0xffffffffffffffffffffffffffffffffffffffff\n      and\n      dup2\n      mstore\n      0x20\n      add\n      swap1\n      dup2\n      mstore\n      0x20\n      add\n      0x00\n      keccak256\n        /* \"contracts/Whitelist.sol\":1778:1820  User storage target = get_user[msg.sender] */\n      swap1\n      pop\n        /* \"contracts/Whitelist.sol\":1845:1850  _name */\n      dup2\n        /* \"contracts/Whitelist.sol\":1831:1837  target */\n      dup2\n        /* \"contracts/Whitelist.sol\":1831:1842  target.name */\n      0x02\n      add\n        /* \"contracts/Whitelist.sol\":1831:1850  target.name = _name */\n      swap1\n      dup2\n      tag_83\n      swap2\n      swap1\n      tag_60\n      jump\t// in\n    tag_83:\n      pop\n        /* \"contracts/Whitelist.sol\":1632:1858  {... */\n      pop\n        /* \"contracts/Whitelist.sol\":1581:1858  function change_name(string memory _name) external {... */\n      pop\n      jump\t// out\n        /* \"@openzeppelin/contracts/utils/Strings.sol\":637:1269  function toString(uint256 value) internal pure returns (string memory) {... */\n    tag_56:\n        /* \"@openzeppelin/contracts/utils/Strings.sol\":693:706  string memory */\n      0x60\n        /* \"@openzeppelin/contracts/utils/Strings.sol\":742:756  uint256 length */\n      0x00\n        /* \"@openzeppelin/contracts/utils/Strings.sol\":779:780  1 */\n      0x01\n        /* \"@openzeppelin/contracts/utils/Strings.sol\":759:776  Math.log10(value) */\n      tag_85\n        /* \"@openzeppelin/contracts/utils/Strings.sol\":770:775  value */\n      dup5\n        /* \"@openzeppelin/contracts/utils/Strings.sol\":759:769  Math.log10 */\n      tag_86\n        /* \"@openzeppelin/contracts/utils/Strings.sol\":759:776  Math.log10(value) */\n      jump\t// in\n    tag_85:\n        /* \"@openzeppelin/contracts/utils/Strings.sol\":759:780  Math.log10(value) + 1 */\n      add\n        /* \"@openzeppelin/contracts/utils/Strings.sol\":742:780  uint256 length = Math.log10(value) + 1 */\n      swap1\n      pop\n        /* \"@openzeppelin/contracts/utils/Strings.sol\":794:814  string memory buffer */\n      0x00\n        /* \"@openzeppelin/contracts/utils/Strings.sol\":828:834  length */\n      dup2\n        /* \"@openzeppelin/contracts/utils/Strings.sol\":817:835  new string(length) */\n      0xffffffffffffffff\n      dup2\n      gt\n      iszero\n      tag_87\n      jumpi\n      tag_88\n      tag_38\n      jump\t// in\n    tag_88:\n    tag_87:\n      mload(0x40)\n      swap1\n      dup1\n      dup3\n      mstore\n      dup1\n      0x1f\n      add\n      not(0x1f)\n      and\n      0x20\n      add\n      dup3\n      add\n      0x40\n      mstore\n      dup1\n      iszero\n      tag_89\n      jumpi\n      dup2\n      0x20\n      add\n      0x01\n      dup3\n      mul\n      dup1\n      calldatasize\n      dup4\n      calldatacopy\n      dup1\n      dup3\n      add\n      swap2\n      pop\n      pop\n      swap1\n      pop\n    tag_89:\n      pop\n        /* \"@openzeppelin/contracts/utils/Strings.sol\":794:835  string memory buffer = new string(length) */\n      swap1\n      pop\n        /* \"@openzeppelin/contracts/utils/Strings.sol\":849:860  uint256 ptr */\n      0x00\n        /* \"@openzeppelin/contracts/utils/Strings.sol\":944:950  length */\n      dup3\n        /* \"@openzeppelin/contracts/utils/Strings.sol\":940:942  32 */\n      0x20\n        /* \"@openzeppelin/contracts/utils/Strings.sol\":936:951  add(32, length) */\n      add\n        /* \"@openzeppelin/contracts/utils/Strings.sol\":928:934  buffer */\n      dup3\n        /* \"@openzeppelin/contracts/utils/Strings.sol\":924:952  add(buffer, add(32, length)) */\n      add\n        /* \"@openzeppelin/contracts/utils/Strings.sol\":917:952  ptr := add(buffer, add(32, length)) */\n      swap1\n      pop\n        /* \"@openzeppelin/contracts/utils/Strings.sol\":979:1226  while (true) {... */\n    tag_90:\n        /* \"@openzeppelin/contracts/utils/Strings.sol\":986:990  true */\n      0x01\n        /* \"@openzeppelin/contracts/utils/Strings.sol\":979:1226  while (true) {... */\n      iszero\n      tag_91\n      jumpi\n        /* \"@openzeppelin/contracts/utils/Strings.sol\":1010:1015  ptr-- */\n      dup1\n      dup1\n      0x01\n      swap1\n      sub\n      swap2\n      pop\n      pop\n        /* \"@openzeppelin/contracts/utils/Strings.sol\":1114:1124  HEX_DIGITS */\n      0x3031323334353637383961626364656600000000000000000000000000000000\n        /* \"@openzeppelin/contracts/utils/Strings.sol\":1109:1111  10 */\n      0x0a\n        /* \"@openzeppelin/contracts/utils/Strings.sol\":1102:1107  value */\n      dup7\n        /* \"@openzeppelin/contracts/utils/Strings.sol\":1098:1112  mod(value, 10) */\n      mod\n        /* \"@openzeppelin/contracts/utils/Strings.sol\":1093:1125  byte(mod(value, 10), HEX_DIGITS) */\n      byte\n        /* \"@openzeppelin/contracts/utils/Strings.sol\":1088:1091  ptr */\n      dup2\n        /* \"@openzeppelin/contracts/utils/Strings.sol\":1080:1126  mstore8(ptr, byte(mod(value, 10), HEX_DIGITS)) */\n      mstore8\n        /* \"@openzeppelin/contracts/utils/Strings.sol\":1170:1172  10 */\n      0x0a\n        /* \"@openzeppelin/contracts/utils/Strings.sol\":1161:1172  value /= 10 */\n      dup6\n      dup2\n      tag_92\n      jumpi\n      tag_93\n      tag_94\n      jump\t// in\n    tag_93:\n    tag_92:\n      div\n      swap5\n      pop\n        /* \"@openzeppelin/contracts/utils/Strings.sol\":1203:1204  0 */\n      0x00\n        /* \"@openzeppelin/contracts/utils/Strings.sol\":1194:1199  value */\n      dup6\n        /* \"@openzeppelin/contracts/utils/Strings.sol\":1194:1204  value == 0 */\n      sub\n        /* \"@openzeppelin/contracts/utils/Strings.sol\":979:1226  while (true) {... */\n      tag_90\n        /* \"@openzeppelin/contracts/utils/Strings.sol\":1190:1211  if (value == 0) break */\n      jumpi\n        /* \"@openzeppelin/contracts/utils/Strings.sol\":979:1226  while (true) {... */\n    tag_91:\n        /* \"@openzeppelin/contracts/utils/Strings.sol\":1246:1252  buffer */\n      dup2\n        /* \"@openzeppelin/contracts/utils/Strings.sol\":1239:1252  return buffer */\n      swap4\n      pop\n      pop\n      pop\n      pop\n        /* \"@openzeppelin/contracts/utils/Strings.sol\":637:1269  function toString(uint256 value) internal pure returns (string memory) {... */\n      swap2\n      swap1\n      pop\n      jump\t// out\n        /* \"@openzeppelin/contracts/utils/math/Math.sol\":25316:26232  function log10(uint256 value) internal pure returns (uint256) {... */\n    tag_86:\n        /* \"@openzeppelin/contracts/utils/math/Math.sol\":25369:25376  uint256 */\n      0x00\n        /* \"@openzeppelin/contracts/utils/math/Math.sol\":25388:25402  uint256 result */\n      dup1\n        /* \"@openzeppelin/contracts/utils/math/Math.sol\":25405:25406  0 */\n      0x00\n        /* \"@openzeppelin/contracts/utils/math/Math.sol\":25388:25406  uint256 result = 0 */\n      swap1\n      pop\n        /* \"@openzeppelin/contracts/utils/math/Math.sol\":25453:25461  10 ** 64 */\n      0x184f03e93ff9f4daa797ed6e38ed64bf6a1f010000000000000000\n        /* \"@openzeppelin/contracts/utils/math/Math.sol\":25444:25449  value */\n      dup4\n        /* \"@openzeppelin/contracts/utils/math/Math.sol\":25444:25461  value >= 10 ** 64 */\n      lt\n        /* \"@openzeppelin/contracts/utils/math/Math.sol\":25440:25543  if (value >= 10 ** 64) {... */\n      tag_97\n      jumpi\n        /* \"@openzeppelin/contracts/utils/math/Math.sol\":25490:25498  10 ** 64 */\n      0x184f03e93ff9f4daa797ed6e38ed64bf6a1f010000000000000000\n        /* \"@openzeppelin/contracts/utils/math/Math.sol\":25481:25498  value /= 10 ** 64 */\n      dup4\n      dup2\n      tag_98\n      jumpi\n      tag_99\n      tag_94\n      jump\t// in\n    tag_99:\n    tag_98:\n      div\n      swap3\n      pop\n        /* \"@openzeppelin/contracts/utils/math/Math.sol\":25526:25528  64 */\n      0x40\n        /* \"@openzeppelin/contracts/utils/math/Math.sol\":25516:25528  result += 64 */\n      dup2\n      add\n      swap1\n      pop\n        /* \"@openzeppelin/contracts/utils/math/Math.sol\":25440:25543  if (value >= 10 ** 64) {... */\n    tag_97:\n        /* \"@openzeppelin/contracts/utils/math/Math.sol\":25569:25577  10 ** 32 */\n      0x04ee2d6d415b85acef8100000000\n        /* \"@openzeppelin/contracts/utils/math/Math.sol\":25560:25565  value */\n      dup4\n        /* \"@openzeppelin/contracts/utils/math/Math.sol\":25560:25577  value >= 10 ** 32 */\n      lt\n        /* \"@openzeppelin/contracts/utils/math/Math.sol\":25556:25659  if (value >= 10 ** 32) {... */\n      tag_100\n      jumpi\n        /* \"@openzeppelin/contracts/utils/math/Math.sol\":25606:25614  10 ** 32 */\n      0x04ee2d6d415b85acef8100000000\n        /* \"@openzeppelin/contracts/utils/math/Math.sol\":25597:25614  value /= 10 ** 32 */\n      dup4\n      dup2\n      tag_101\n      jumpi\n      tag_102\n      tag_94\n      jump\t// in\n    tag_102:\n    tag_101:\n      div\n      swap3\n      pop\n        /* \"@openzeppelin/contracts/utils/math/Math.sol\":25642:25644  32 */\n      0x20\n        /* \"@openzeppelin/contracts/utils/math/Math.sol\":25632:25644  result += 32 */\n      dup2\n      add\n      swap1\n      pop\n        /* \"@openzeppelin/contracts/utils/math/Math.sol\":25556:25659  if (value >= 10 ** 32) {... */\n    tag_100:\n        /* \"@openzeppelin/contracts/utils/math/Math.sol\":25685:25693  10 ** 16 */\n      0x2386f26fc10000\n        /* \"@openzeppelin/contracts/utils/math/Math.sol\":25676:25681  value */\n      dup4\n        /* \"@openzeppelin/contracts/utils/math/Math.sol\":25676:25693  value >= 10 ** 16 */\n      lt\n        /* \"@openzeppelin/contracts/utils/math/Math.sol\":25672:25775  if (value >= 10 ** 16) {... */\n      tag_103\n      jumpi\n        /* \"@openzeppelin/contracts/utils/math/Math.sol\":25722:25730  10 ** 16 */\n      0x2386f26fc10000\n        /* \"@openzeppelin/contracts/utils/math/Math.sol\":25713:25730  value /= 10 ** 16 */\n      dup4\n      dup2\n      tag_104\n      jumpi\n      tag_105\n      tag_94\n      jump\t// in\n    tag_105:\n    tag_104:\n      div\n      swap3\n      pop\n        /* \"@openzeppelin/contracts/utils/math/Math.sol\":25758:25760  16 */\n      0x10\n        /* \"@openzeppelin/contracts/utils/math/Math.sol\":25748:25760  result += 16 */\n      dup2\n      add\n      swap1\n      pop\n        /* \"@openzeppelin/contracts/utils/math/Math.sol\":25672:25775  if (value >= 10 ** 16) {... */\n    tag_103:\n        /* \"@openzeppelin/contracts/utils/math/Math.sol\":25801:25808  10 ** 8 */\n      0x05f5e100\n        /* \"@openzeppelin/contracts/utils/math/Math.sol\":25792:25797  value */\n      dup4\n        /* \"@openzeppelin/contracts/utils/math/Math.sol\":25792:25808  value >= 10 ** 8 */\n      lt\n        /* \"@openzeppelin/contracts/utils/math/Math.sol\":25788:25888  if (value >= 10 ** 8) {... */\n      tag_106\n      jumpi\n        /* \"@openzeppelin/contracts/utils/math/Math.sol\":25837:25844  10 ** 8 */\n      0x05f5e100\n        /* \"@openzeppelin/contracts/utils/math/Math.sol\":25828:25844  value /= 10 ** 8 */\n      dup4\n      dup2\n      tag_107\n      jumpi\n      tag_108\n      tag_94\n      jump\t// in\n    tag_108:\n    tag_107:\n      div\n      swap3\n      pop\n        /* \"@openzeppelin/contracts/utils/math/Math.sol\":25872:25873  8 */\n      0x08\n        /* \"@openzeppelin/contracts/utils/math/Math.sol\":25862:25873  result += 8 */\n      dup2\n      add\n      swap1\n      pop\n        /* \"@openzeppelin/contracts/utils/math/Math.sol\":25788:25888  if (value >= 10 ** 8) {... */\n    tag_106:\n        /* \"@openzeppelin/contracts/utils/math/Math.sol\":25914:25921  10 ** 4 */\n      0x2710\n        /* \"@openzeppelin/contracts/utils/math/Math.sol\":25905:25910  value */\n      dup4\n        /* \"@openzeppelin/contracts/utils/math/Math.sol\":25905:25921  value >= 10 ** 4 */\n      lt\n        /* \"@openzeppelin/contracts/utils/math/Math.sol\":25901:26001  if (value >= 10 ** 4) {... */\n      tag_109\n      jumpi\n        /* \"@openzeppelin/contracts/utils/math/Math.sol\":25950:25957  10 ** 4 */\n      0x2710\n        /* \"@openzeppelin/contracts/utils/math/Math.sol\":25941:25957  value /= 10 ** 4 */\n      dup4\n      dup2\n      tag_110\n      jumpi\n      tag_111\n      tag_94\n      jump\t// in\n    tag_111:\n    tag_110:\n      div\n      swap3\n      pop\n        /* \"@openzeppelin/contracts/utils/math/Math.sol\":25985:25986  4 */\n      0x04\n        /* \"@openzeppelin/contracts/utils/math/Math.sol\":25975:25986  result += 4 */\n      dup2\n      add\n      swap1\n      pop\n        /* \"@openzeppelin/contracts/utils/math/Math.sol\":25901:26001  if (value >= 10 ** 4) {... */\n    tag_109:\n        /* \"@openzeppelin/contracts/utils/math/Math.sol\":26027:26034  10 ** 2 */\n      0x64\n        /* \"@openzeppelin/contracts/utils/math/Math.sol\":26018:26023  value */\n      dup4\n        /* \"@openzeppelin/contracts/utils/math/Math.sol\":26018:26034  value >= 10 ** 2 */\n      lt\n        /* \"@openzeppelin/contracts/utils/math/Math.sol\":26014:26114  if (value >= 10 ** 2) {... */\n      tag_112\n      jumpi\n        /* \"@openzeppelin/contracts/utils/math/Math.sol\":26063:26070  10 ** 2 */\n      0x64\n        /* \"@openzeppelin/contracts/utils/math/Math.sol\":26054:26070  value /= 10 ** 2 */\n      dup4\n      dup2\n      tag_113\n      jumpi\n      tag_114\n      tag_94\n      jump\t// in\n    tag_114:\n    tag_113:\n      div\n      swap3\n      pop\n        /* \"@openzeppelin/contracts/utils/math/Math.sol\":26098:26099  2 */\n      0x02\n        /* \"@openzeppelin/contracts/utils/math/Math.sol\":26088:26099  result += 2 */\n      dup2\n      add\n      swap1\n      pop\n        /* \"@openzeppelin/contracts/utils/math/Math.sol\":26014:26114  if (value >= 10 ** 2) {... */\n    tag_112:\n        /* \"@openzeppelin/contracts/utils/math/Math.sol\":26140:26147  10 ** 1 */\n      0x0a\n        /* \"@openzeppelin/contracts/utils/math/Math.sol\":26131:26136  value */\n      dup4\n        /* \"@openzeppelin/contracts/utils/math/Math.sol\":26131:26147  value >= 10 ** 1 */\n      lt\n        /* \"@openzeppelin/contracts/utils/math/Math.sol\":26127:26193  if (value >= 10 ** 1) {... */\n      tag_115\n      jumpi\n        /* \"@openzeppelin/contracts/utils/math/Math.sol\":26177:26178  1 */\n      0x01\n        /* \"@openzeppelin/contracts/utils/math/Math.sol\":26167:26178  result += 1 */\n      dup2\n      add\n      swap1\n      pop\n        /* \"@openzeppelin/contracts/utils/math/Math.sol\":26127:26193  if (value >= 10 ** 1) {... */\n    tag_115:\n        /* \"@openzeppelin/contracts/utils/math/Math.sol\":26219:26225  result */\n      dup1\n        /* \"@openzeppelin/contracts/utils/math/Math.sol\":26212:26225  return result */\n      swap2\n      pop\n      pop\n        /* \"@openzeppelin/contracts/utils/math/Math.sol\":25316:26232  function log10(uint256 value) internal pure returns (uint256) {... */\n      swap2\n      swap1\n      pop\n      jump\t// out\n        /* \"#utility.yul\":7:133   */\n    tag_116:\n        /* \"#utility.yul\":44:51   */\n      0x00\n        /* \"#utility.yul\":84:126   */\n      0xffffffffffffffffffffffffffffffffffffffff\n        /* \"#utility.yul\":77:82   */\n      dup3\n        /* \"#utility.yul\":73:127   */\n      and\n        /* \"#utility.yul\":62:127   */\n      swap1\n      pop\n        /* \"#utility.yul\":7:133   */\n      swap2\n      swap1\n      pop\n      jump\t// out\n        /* \"#utility.yul\":139:235   */\n    tag_117:\n        /* \"#utility.yul\":176:183   */\n      0x00\n        /* \"#utility.yul\":205:229   */\n      tag_178\n        /* \"#utility.yul\":223:228   */\n      dup3\n        /* \"#utility.yul\":205:229   */\n      tag_116\n      jump\t// in\n    tag_178:\n        /* \"#utility.yul\":194:229   */\n      swap1\n      pop\n        /* \"#utility.yul\":139:235   */\n      swap2\n      swap1\n      pop\n      jump\t// out\n        /* \"#utility.yul\":241:359   */\n    tag_118:\n        /* \"#utility.yul\":328:352   */\n      tag_180\n        /* \"#utility.yul\":346:351   */\n      dup2\n        /* \"#utility.yul\":328:352   */\n      tag_117\n      jump\t// in\n    tag_180:\n        /* \"#utility.yul\":323:326   */\n      dup3\n        /* \"#utility.yul\":316:353   */\n      mstore\n        /* \"#utility.yul\":241:359   */\n      pop\n      pop\n      jump\t// out\n        /* \"#utility.yul\":365:587   */\n    tag_12:\n        /* \"#utility.yul\":458:462   */\n      0x00\n        /* \"#utility.yul\":496:498   */\n      0x20\n        /* \"#utility.yul\":485:494   */\n      dup3\n        /* \"#utility.yul\":481:499   */\n      add\n        /* \"#utility.yul\":473:499   */\n      swap1\n      pop\n        /* \"#utility.yul\":509:580   */\n      tag_182\n        /* \"#utility.yul\":577:578   */\n      0x00\n        /* \"#utility.yul\":566:575   */\n      dup4\n        /* \"#utility.yul\":562:579   */\n      add\n        /* \"#utility.yul\":553:559   */\n      dup5\n        /* \"#utility.yul\":509:580   */\n      tag_118\n      jump\t// in\n    tag_182:\n        /* \"#utility.yul\":365:587   */\n      swap3\n      swap2\n      pop\n      pop\n      jump\t// out\n        /* \"#utility.yul\":593:707   */\n    tag_119:\n        /* \"#utility.yul\":660:666   */\n      0x00\n        /* \"#utility.yul\":694:699   */\n      dup2\n        /* \"#utility.yul\":688:700   */\n      mload\n        /* \"#utility.yul\":678:700   */\n      swap1\n      pop\n        /* \"#utility.yul\":593:707   */\n      swap2\n      swap1\n      pop\n      jump\t// out\n        /* \"#utility.yul\":713:897   */\n    tag_120:\n        /* \"#utility.yul\":812:823   */\n      0x00\n        /* \"#utility.yul\":846:852   */\n      dup3\n        /* \"#utility.yul\":841:844   */\n      dup3\n        /* \"#utility.yul\":834:853   */\n      mstore\n        /* \"#utility.yul\":886:890   */\n      0x20\n        /* \"#utility.yul\":881:884   */\n      dup3\n        /* \"#utility.yul\":877:891   */\n      add\n        /* \"#utility.yul\":862:891   */\n      swap1\n      pop\n        /* \"#utility.yul\":713:897   */\n      swap3\n      swap2\n      pop\n      pop\n      jump\t// out\n        /* \"#utility.yul\":903:1035   */\n    tag_121:\n        /* \"#utility.yul\":970:974   */\n      0x00\n        /* \"#utility.yul\":993:996   */\n      dup2\n        /* \"#utility.yul\":985:996   */\n      swap1\n      pop\n        /* \"#utility.yul\":1023:1027   */\n      0x20\n        /* \"#utility.yul\":1018:1021   */\n      dup3\n        /* \"#utility.yul\":1014:1028   */\n      add\n        /* \"#utility.yul\":1006:1028   */\n      swap1\n      pop\n        /* \"#utility.yul\":903:1035   */\n      swap2\n      swap1\n      pop\n      jump\t// out\n        /* \"#utility.yul\":1041:1149   */\n    tag_122:\n        /* \"#utility.yul\":1118:1142   */\n      tag_187\n        /* \"#utility.yul\":1136:1141   */\n      dup2\n        /* \"#utility.yul\":1118:1142   */\n      tag_117\n      jump\t// in\n    tag_187:\n        /* \"#utility.yul\":1113:1116   */\n      dup3\n        /* \"#utility.yul\":1106:1143   */\n      mstore\n        /* \"#utility.yul\":1041:1149   */\n      pop\n      pop\n      jump\t// out\n        /* \"#utility.yul\":1155:1334   */\n    tag_123:\n        /* \"#utility.yul\":1224:1234   */\n      0x00\n        /* \"#utility.yul\":1245:1291   */\n      tag_189\n        /* \"#utility.yul\":1287:1290   */\n      dup4\n        /* \"#utility.yul\":1279:1285   */\n      dup4\n        /* \"#utility.yul\":1245:1291   */\n      tag_122\n      jump\t// in\n    tag_189:\n        /* \"#utility.yul\":1323:1327   */\n      0x20\n        /* \"#utility.yul\":1318:1321   */\n      dup4\n        /* \"#utility.yul\":1314:1328   */\n      add\n        /* \"#utility.yul\":1300:1328   */\n      swap1\n      pop\n        /* \"#utility.yul\":1155:1334   */\n      swap3\n      swap2\n      pop\n      pop\n      jump\t// out\n        /* \"#utility.yul\":1340:1453   */\n    tag_124:\n        /* \"#utility.yul\":1410:1414   */\n      0x00\n        /* \"#utility.yul\":1442:1446   */\n      0x20\n        /* \"#utility.yul\":1437:1440   */\n      dup3\n        /* \"#utility.yul\":1433:1447   */\n      add\n        /* \"#utility.yul\":1425:1447   */\n      swap1\n      pop\n        /* \"#utility.yul\":1340:1453   */\n      swap2\n      swap1\n      pop\n      jump\t// out\n        /* \"#utility.yul\":1489:2221   */\n    tag_125:\n        /* \"#utility.yul\":1608:1611   */\n      0x00\n        /* \"#utility.yul\":1637:1691   */\n      tag_192\n        /* \"#utility.yul\":1685:1690   */\n      dup3\n        /* \"#utility.yul\":1637:1691   */\n      tag_119\n      jump\t// in\n    tag_192:\n        /* \"#utility.yul\":1707:1793   */\n      tag_193\n        /* \"#utility.yul\":1786:1792   */\n      dup2\n        /* \"#utility.yul\":1781:1784   */\n      dup6\n        /* \"#utility.yul\":1707:1793   */\n      tag_120\n      jump\t// in\n    tag_193:\n        /* \"#utility.yul\":1700:1793   */\n      swap4\n      pop\n        /* \"#utility.yul\":1817:1873   */\n      tag_194\n        /* \"#utility.yul\":1867:1872   */\n      dup4\n        /* \"#utility.yul\":1817:1873   */\n      tag_121\n      jump\t// in\n    tag_194:\n        /* \"#utility.yul\":1896:1903   */\n      dup1\n        /* \"#utility.yul\":1927:1928   */\n      0x00\n        /* \"#utility.yul\":1912:2196   */\n    tag_195:\n        /* \"#utility.yul\":1937:1943   */\n      dup4\n        /* \"#utility.yul\":1934:1935   */\n      dup2\n        /* \"#utility.yul\":1931:1944   */\n      lt\n        /* \"#utility.yul\":1912:2196   */\n      iszero\n      tag_197\n      jumpi\n        /* \"#utility.yul\":2013:2019   */\n      dup2\n        /* \"#utility.yul\":2007:2020   */\n      mload\n        /* \"#utility.yul\":2040:2103   */\n      tag_198\n        /* \"#utility.yul\":2099:2102   */\n      dup9\n        /* \"#utility.yul\":2084:2097   */\n      dup3\n        /* \"#utility.yul\":2040:2103   */\n      tag_123\n      jump\t// in\n    tag_198:\n        /* \"#utility.yul\":2033:2103   */\n      swap8\n      pop\n        /* \"#utility.yul\":2126:2186   */\n      tag_199\n        /* \"#utility.yul\":2179:2185   */\n      dup4\n        /* \"#utility.yul\":2126:2186   */\n      tag_124\n      jump\t// in\n    tag_199:\n        /* \"#utility.yul\":2116:2186   */\n      swap3\n      pop\n        /* \"#utility.yul\":1972:2196   */\n      pop\n        /* \"#utility.yul\":1959:1960   */\n      0x01\n        /* \"#utility.yul\":1956:1957   */\n      dup2\n        /* \"#utility.yul\":1952:1961   */\n      add\n        /* \"#utility.yul\":1947:1961   */\n      swap1\n      pop\n        /* \"#utility.yul\":1912:2196   */\n      jump(tag_195)\n    tag_197:\n        /* \"#utility.yul\":1916:1930   */\n      pop\n        /* \"#utility.yul\":2212:2215   */\n      dup6\n        /* \"#utility.yul\":2205:2215   */\n      swap4\n      pop\n        /* \"#utility.yul\":1613:2221   */\n      pop\n      pop\n      pop\n        /* \"#utility.yul\":1489:2221   */\n      swap3\n      swap2\n      pop\n      pop\n      jump\t// out\n        /* \"#utility.yul\":2227:2600   */\n    tag_16:\n        /* \"#utility.yul\":2370:2374   */\n      0x00\n        /* \"#utility.yul\":2408:2410   */\n      0x20\n        /* \"#utility.yul\":2397:2406   */\n      dup3\n        /* \"#utility.yul\":2393:2411   */\n      add\n        /* \"#utility.yul\":2385:2411   */\n      swap1\n      pop\n        /* \"#utility.yul\":2457:2466   */\n      dup2\n        /* \"#utility.yul\":2451:2455   */\n      dup2\n        /* \"#utility.yul\":2447:2467   */\n      sub\n        /* \"#utility.yul\":2443:2444   */\n      0x00\n        /* \"#utility.yul\":2432:2441   */\n      dup4\n        /* \"#utility.yul\":2428:2445   */\n      add\n        /* \"#utility.yul\":2421:2468   */\n      mstore\n        /* \"#utility.yul\":2485:2593   */\n      tag_201\n        /* \"#utility.yul\":2588:2592   */\n      dup2\n        /* \"#utility.yul\":2579:2585   */\n      dup5\n        /* \"#utility.yul\":2485:2593   */\n      tag_125\n      jump\t// in\n    tag_201:\n        /* \"#utility.yul\":2477:2593   */\n      swap1\n      pop\n        /* \"#utility.yul\":2227:2600   */\n      swap3\n      swap2\n      pop\n      pop\n      jump\t// out\n        /* \"#utility.yul\":2606:2681   */\n    tag_126:\n        /* \"#utility.yul\":2639:2645   */\n      0x00\n        /* \"#utility.yul\":2672:2674   */\n      0x40\n        /* \"#utility.yul\":2666:2675   */\n      mload\n        /* \"#utility.yul\":2656:2675   */\n      swap1\n      pop\n        /* \"#utility.yul\":2606:2681   */\n      swap1\n      jump\t// out\n        /* \"#utility.yul\":2687:2804   */\n    tag_127:\n        /* \"#utility.yul\":2796:2797   */\n      0x00\n        /* \"#utility.yul\":2793:2794   */\n      dup1\n        /* \"#utility.yul\":2786:2798   */\n      revert\n        /* \"#utility.yul\":2810:2927   */\n    tag_128:\n        /* \"#utility.yul\":2919:2920   */\n      0x00\n        /* \"#utility.yul\":2916:2917   */\n      dup1\n        /* \"#utility.yul\":2909:2921   */\n      revert\n        /* \"#utility.yul\":2933:3055   */\n    tag_129:\n        /* \"#utility.yul\":3006:3030   */\n      tag_206\n        /* \"#utility.yul\":3024:3029   */\n      dup2\n        /* \"#utility.yul\":3006:3030   */\n      tag_117\n      jump\t// in\n    tag_206:\n        /* \"#utility.yul\":2999:3004   */\n      dup2\n        /* \"#utility.yul\":2996:3031   */\n      eq\n        /* \"#utility.yul\":2986:3049   */\n      tag_207\n      jumpi\n        /* \"#utility.yul\":3045:3046   */\n      0x00\n        /* \"#utility.yul\":3042:3043   */\n      dup1\n        /* \"#utility.yul\":3035:3047   */\n      revert\n        /* \"#utility.yul\":2986:3049   */\n    tag_207:\n        /* \"#utility.yul\":2933:3055   */\n      pop\n      jump\t// out\n        /* \"#utility.yul\":3061:3200   */\n    tag_130:\n        /* \"#utility.yul\":3107:3112   */\n      0x00\n        /* \"#utility.yul\":3145:3151   */\n      dup2\n        /* \"#utility.yul\":3132:3152   */\n      calldataload\n        /* \"#utility.yul\":3123:3152   */\n      swap1\n      pop\n        /* \"#utility.yul\":3161:3194   */\n      tag_209\n        /* \"#utility.yul\":3188:3193   */\n      dup2\n        /* \"#utility.yul\":3161:3194   */\n      tag_129\n      jump\t// in\n    tag_209:\n        /* \"#utility.yul\":3061:3200   */\n      swap3\n      swap2\n      pop\n      pop\n      jump\t// out\n        /* \"#utility.yul\":3206:3535   */\n    tag_19:\n        /* \"#utility.yul\":3265:3271   */\n      0x00\n        /* \"#utility.yul\":3314:3316   */\n      0x20\n        /* \"#utility.yul\":3302:3311   */\n      dup3\n        /* \"#utility.yul\":3293:3300   */\n      dup5\n        /* \"#utility.yul\":3289:3312   */\n      sub\n        /* \"#utility.yul\":3285:3317   */\n      slt\n        /* \"#utility.yul\":3282:3401   */\n      iszero\n      tag_211\n      jumpi\n        /* \"#utility.yul\":3320:3399   */\n      tag_212\n      tag_127\n      jump\t// in\n    tag_212:\n        /* \"#utility.yul\":3282:3401   */\n    tag_211:\n        /* \"#utility.yul\":3440:3441   */\n      0x00\n        /* \"#utility.yul\":3465:3518   */\n      tag_213\n        /* \"#utility.yul\":3510:3517   */\n      dup5\n        /* \"#utility.yul\":3501:3507   */\n      dup3\n        /* \"#utility.yul\":3490:3499   */\n      dup6\n        /* \"#utility.yul\":3486:3508   */\n      add\n        /* \"#utility.yul\":3465:3518   */\n      tag_130\n      jump\t// in\n    tag_213:\n        /* \"#utility.yul\":3455:3518   */\n      swap2\n      pop\n        /* \"#utility.yul\":3411:3528   */\n      pop\n        /* \"#utility.yul\":3206:3535   */\n      swap3\n      swap2\n      pop\n      pop\n      jump\t// out\n        /* \"#utility.yul\":3541:3618   */\n    tag_131:\n        /* \"#utility.yul\":3578:3585   */\n      0x00\n        /* \"#utility.yul\":3607:3612   */\n      dup2\n        /* \"#utility.yul\":3596:3612   */\n      swap1\n      pop\n        /* \"#utility.yul\":3541:3618   */\n      swap2\n      swap1\n      pop\n      jump\t// out\n        /* \"#utility.yul\":3624:3742   */\n    tag_132:\n        /* \"#utility.yul\":3711:3735   */\n      tag_216\n        /* \"#utility.yul\":3729:3734   */\n      dup2\n        /* \"#utility.yul\":3711:3735   */\n      tag_131\n      jump\t// in\n    tag_216:\n        /* \"#utility.yul\":3706:3709   */\n      dup3\n        /* \"#utility.yul\":3699:3736   */\n      mstore\n        /* \"#utility.yul\":3624:3742   */\n      pop\n      pop\n      jump\t// out\n        /* \"#utility.yul\":3748:3970   */\n    tag_24:\n        /* \"#utility.yul\":3841:3845   */\n      0x00\n        /* \"#utility.yul\":3879:3881   */\n      0x20\n        /* \"#utility.yul\":3868:3877   */\n      dup3\n        /* \"#utility.yul\":3864:3882   */\n      add\n        /* \"#utility.yul\":3856:3882   */\n      swap1\n      pop\n        /* \"#utility.yul\":3892:3963   */\n      tag_218\n        /* \"#utility.yul\":3960:3961   */\n      0x00\n        /* \"#utility.yul\":3949:3958   */\n      dup4\n        /* \"#utility.yul\":3945:3962   */\n      add\n        /* \"#utility.yul\":3936:3942   */\n      dup5\n        /* \"#utility.yul\":3892:3963   */\n      tag_132\n      jump\t// in\n    tag_218:\n        /* \"#utility.yul\":3748:3970   */\n      swap3\n      swap2\n      pop\n      pop\n      jump\t// out\n        /* \"#utility.yul\":3976:4075   */\n    tag_133:\n        /* \"#utility.yul\":4028:4034   */\n      0x00\n        /* \"#utility.yul\":4062:4067   */\n      dup2\n        /* \"#utility.yul\":4056:4068   */\n      mload\n        /* \"#utility.yul\":4046:4068   */\n      swap1\n      pop\n        /* \"#utility.yul\":3976:4075   */\n      swap2\n      swap1\n      pop\n      jump\t// out\n        /* \"#utility.yul\":4081:4250   */\n    tag_134:\n        /* \"#utility.yul\":4165:4176   */\n      0x00\n        /* \"#utility.yul\":4199:4205   */\n      dup3\n        /* \"#utility.yul\":4194:4197   */\n      dup3\n        /* \"#utility.yul\":4187:4206   */\n      mstore\n        /* \"#utility.yul\":4239:4243   */\n      0x20\n        /* \"#utility.yul\":4234:4237   */\n      dup3\n        /* \"#utility.yul\":4230:4244   */\n      add\n        /* \"#utility.yul\":4215:4244   */\n      swap1\n      pop\n        /* \"#utility.yul\":4081:4250   */\n      swap3\n      swap2\n      pop\n      pop\n      jump\t// out\n        /* \"#utility.yul\":4256:4395   */\n    tag_135:\n        /* \"#utility.yul\":4345:4351   */\n      dup3\n        /* \"#utility.yul\":4340:4343   */\n      dup2\n        /* \"#utility.yul\":4335:4338   */\n      dup4\n        /* \"#utility.yul\":4329:4352   */\n      mcopy\n        /* \"#utility.yul\":4386:4387   */\n      0x00\n        /* \"#utility.yul\":4377:4383   */\n      dup4\n        /* \"#utility.yul\":4372:4375   */\n      dup4\n        /* \"#utility.yul\":4368:4384   */\n      add\n        /* \"#utility.yul\":4361:4388   */\n      mstore\n        /* \"#utility.yul\":4256:4395   */\n      pop\n      pop\n      pop\n      jump\t// out\n        /* \"#utility.yul\":4401:4503   */\n    tag_136:\n        /* \"#utility.yul\":4442:4448   */\n      0x00\n        /* \"#utility.yul\":4493:4495   */\n      0x1f\n        /* \"#utility.yul\":4489:4496   */\n      not\n        /* \"#utility.yul\":4484:4486   */\n      0x1f\n        /* \"#utility.yul\":4477:4482   */\n      dup4\n        /* \"#utility.yul\":4473:4487   */\n      add\n        /* \"#utility.yul\":4469:4497   */\n      and\n        /* \"#utility.yul\":4459:4497   */\n      swap1\n      pop\n        /* \"#utility.yul\":4401:4503   */\n      swap2\n      swap1\n      pop\n      jump\t// out\n        /* \"#utility.yul\":4509:4886   */\n    tag_137:\n        /* \"#utility.yul\":4597:4600   */\n      0x00\n        /* \"#utility.yul\":4625:4664   */\n      tag_224\n        /* \"#utility.yul\":4658:4663   */\n      dup3\n        /* \"#utility.yul\":4625:4664   */\n      tag_133\n      jump\t// in\n    tag_224:\n        /* \"#utility.yul\":4680:4751   */\n      tag_225\n        /* \"#utility.yul\":4744:4750   */\n      dup2\n        /* \"#utility.yul\":4739:4742   */\n      dup6\n        /* \"#utility.yul\":4680:4751   */\n      tag_134\n      jump\t// in\n    tag_225:\n        /* \"#utility.yul\":4673:4751   */\n      swap4\n      pop\n        /* \"#utility.yul\":4760:4825   */\n      tag_226\n        /* \"#utility.yul\":4818:4824   */\n      dup2\n        /* \"#utility.yul\":4813:4816   */\n      dup6\n        /* \"#utility.yul\":4806:4810   */\n      0x20\n        /* \"#utility.yul\":4799:4804   */\n      dup7\n        /* \"#utility.yul\":4795:4811   */\n      add\n        /* \"#utility.yul\":4760:4825   */\n      tag_135\n      jump\t// in\n    tag_226:\n        /* \"#utility.yul\":4850:4879   */\n      tag_227\n        /* \"#utility.yul\":4872:4878   */\n      dup2\n        /* \"#utility.yul\":4850:4879   */\n      tag_136\n      jump\t// in\n    tag_227:\n        /* \"#utility.yul\":4845:4848   */\n      dup5\n        /* \"#utility.yul\":4841:4880   */\n      add\n        /* \"#utility.yul\":4834:4880   */\n      swap2\n      pop\n        /* \"#utility.yul\":4601:4886   */\n      pop\n        /* \"#utility.yul\":4509:4886   */\n      swap3\n      swap2\n      pop\n      pop\n      jump\t// out\n        /* \"#utility.yul\":4892:5205   */\n    tag_29:\n        /* \"#utility.yul\":5005:5009   */\n      0x00\n        /* \"#utility.yul\":5043:5045   */\n      0x20\n        /* \"#utility.yul\":5032:5041   */\n      dup3\n        /* \"#utility.yul\":5028:5046   */\n      add\n        /* \"#utility.yul\":5020:5046   */\n      swap1\n      pop\n        /* \"#utility.yul\":5092:5101   */\n      dup2\n        /* \"#utility.yul\":5086:5090   */\n      dup2\n        /* \"#utility.yul\":5082:5102   */\n      sub\n        /* \"#utility.yul\":5078:5079   */\n      0x00\n        /* \"#utility.yul\":5067:5076   */\n      dup4\n        /* \"#utility.yul\":5063:5080   */\n      add\n        /* \"#utility.yul\":5056:5103   */\n      mstore\n        /* \"#utility.yul\":5120:5198   */\n      tag_229\n        /* \"#utility.yul\":5193:5197   */\n      dup2\n        /* \"#utility.yul\":5184:5190   */\n      dup5\n        /* \"#utility.yul\":5120:5198   */\n      tag_137\n      jump\t// in\n    tag_229:\n        /* \"#utility.yul\":5112:5198   */\n      swap1\n      pop\n        /* \"#utility.yul\":4892:5205   */\n      swap3\n      swap2\n      pop\n      pop\n      jump\t// out\n        /* \"#utility.yul\":5211:5328   */\n    tag_138:\n        /* \"#utility.yul\":5320:5321   */\n      0x00\n        /* \"#utility.yul\":5317:5318   */\n      dup1\n        /* \"#utility.yul\":5310:5322   */\n      revert\n        /* \"#utility.yul\":5334:5451   */\n    tag_139:\n        /* \"#utility.yul\":5443:5444   */\n      0x00\n        /* \"#utility.yul\":5440:5441   */\n      dup1\n        /* \"#utility.yul\":5433:5445   */\n      revert\n        /* \"#utility.yul\":5457:5637   */\n    tag_38:\n        /* \"#utility.yul\":5505:5582   */\n      0x4e487b7100000000000000000000000000000000000000000000000000000000\n        /* \"#utility.yul\":5502:5503   */\n      0x00\n        /* \"#utility.yul\":5495:5583   */\n      mstore\n        /* \"#utility.yul\":5602:5606   */\n      0x41\n        /* \"#utility.yul\":5599:5600   */\n      0x04\n        /* \"#utility.yul\":5592:5607   */\n      mstore\n        /* \"#utility.yul\":5626:5630   */\n      0x24\n        /* \"#utility.yul\":5623:5624   */\n      0x00\n        /* \"#utility.yul\":5616:5631   */\n      revert\n        /* \"#utility.yul\":5643:5924   */\n    tag_140:\n        /* \"#utility.yul\":5726:5753   */\n      tag_234\n        /* \"#utility.yul\":5748:5752   */\n      dup3\n        /* \"#utility.yul\":5726:5753   */\n      tag_136\n      jump\t// in\n    tag_234:\n        /* \"#utility.yul\":5718:5724   */\n      dup2\n        /* \"#utility.yul\":5714:5754   */\n      add\n        /* \"#utility.yul\":5856:5862   */\n      dup2\n        /* \"#utility.yul\":5844:5854   */\n      dup2\n        /* \"#utility.yul\":5841:5863   */\n      lt\n        /* \"#utility.yul\":5820:5838   */\n      0xffffffffffffffff\n        /* \"#utility.yul\":5808:5818   */\n      dup3\n        /* \"#utility.yul\":5805:5839   */\n      gt\n        /* \"#utility.yul\":5802:5864   */\n      or\n        /* \"#utility.yul\":5799:5887   */\n      iszero\n      tag_235\n      jumpi\n        /* \"#utility.yul\":5867:5885   */\n      tag_236\n      tag_38\n      jump\t// in\n    tag_236:\n        /* \"#utility.yul\":5799:5887   */\n    tag_235:\n        /* \"#utility.yul\":5907:5917   */\n      dup1\n        /* \"#utility.yul\":5903:5905   */\n      0x40\n        /* \"#utility.yul\":5896:5918   */\n      mstore\n        /* \"#utility.yul\":5686:5924   */\n      pop\n        /* \"#utility.yul\":5643:5924   */\n      pop\n      pop\n      jump\t// out\n        /* \"#utility.yul\":5930:6059   */\n    tag_141:\n        /* \"#utility.yul\":5964:5970   */\n      0x00\n        /* \"#utility.yul\":5991:6011   */\n      tag_238\n      tag_126\n      jump\t// in\n    tag_238:\n        /* \"#utility.yul\":5981:6011   */\n      swap1\n      pop\n        /* \"#utility.yul\":6020:6053   */\n      tag_239\n        /* \"#utility.yul\":6048:6052   */\n      dup3\n        /* \"#utility.yul\":6040:6046   */\n      dup3\n        /* \"#utility.yul\":6020:6053   */\n      tag_140\n      jump\t// in\n    tag_239:\n        /* \"#utility.yul\":5930:6059   */\n      swap2\n      swap1\n      pop\n      jump\t// out\n        /* \"#utility.yul\":6065:6373   */\n    tag_142:\n        /* \"#utility.yul\":6127:6131   */\n      0x00\n        /* \"#utility.yul\":6217:6235   */\n      0xffffffffffffffff\n        /* \"#utility.yul\":6209:6215   */\n      dup3\n        /* \"#utility.yul\":6206:6236   */\n      gt\n        /* \"#utility.yul\":6203:6259   */\n      iszero\n      tag_241\n      jumpi\n        /* \"#utility.yul\":6239:6257   */\n      tag_242\n      tag_38\n      jump\t// in\n    tag_242:\n        /* \"#utility.yul\":6203:6259   */\n    tag_241:\n        /* \"#utility.yul\":6277:6306   */\n      tag_243\n        /* \"#utility.yul\":6299:6305   */\n      dup3\n        /* \"#utility.yul\":6277:6306   */\n      tag_136\n      jump\t// in\n    tag_243:\n        /* \"#utility.yul\":6269:6306   */\n      swap1\n      pop\n        /* \"#utility.yul\":6361:6365   */\n      0x20\n        /* \"#utility.yul\":6355:6359   */\n      dup2\n        /* \"#utility.yul\":6351:6366   */\n      add\n        /* \"#utility.yul\":6343:6366   */\n      swap1\n      pop\n        /* \"#utility.yul\":6065:6373   */\n      swap2\n      swap1\n      pop\n      jump\t// out\n        /* \"#utility.yul\":6379:6527   */\n    tag_143:\n        /* \"#utility.yul\":6477:6483   */\n      dup3\n        /* \"#utility.yul\":6472:6475   */\n      dup2\n        /* \"#utility.yul\":6467:6470   */\n      dup4\n        /* \"#utility.yul\":6454:6484   */\n      calldatacopy\n        /* \"#utility.yul\":6518:6519   */\n      0x00\n        /* \"#utility.yul\":6509:6515   */\n      dup4\n        /* \"#utility.yul\":6504:6507   */\n      dup4\n        /* \"#utility.yul\":6500:6516   */\n      add\n        /* \"#utility.yul\":6493:6520   */\n      mstore\n        /* \"#utility.yul\":6379:6527   */\n      pop\n      pop\n      pop\n      jump\t// out\n        /* \"#utility.yul\":6533:6958   */\n    tag_144:\n        /* \"#utility.yul\":6611:6616   */\n      0x00\n        /* \"#utility.yul\":6636:6702   */\n      tag_246\n        /* \"#utility.yul\":6652:6701   */\n      tag_247\n        /* \"#utility.yul\":6694:6700   */\n      dup5\n        /* \"#utility.yul\":6652:6701   */\n      tag_142\n      jump\t// in\n    tag_247:\n        /* \"#utility.yul\":6636:6702   */\n      tag_141\n      jump\t// in\n    tag_246:\n        /* \"#utility.yul\":6627:6702   */\n      swap1\n      pop\n        /* \"#utility.yul\":6725:6731   */\n      dup3\n        /* \"#utility.yul\":6718:6723   */\n      dup2\n        /* \"#utility.yul\":6711:6732   */\n      mstore\n        /* \"#utility.yul\":6763:6767   */\n      0x20\n        /* \"#utility.yul\":6756:6761   */\n      dup2\n        /* \"#utility.yul\":6752:6768   */\n      add\n        /* \"#utility.yul\":6801:6804   */\n      dup5\n        /* \"#utility.yul\":6792:6798   */\n      dup5\n        /* \"#utility.yul\":6787:6790   */\n      dup5\n        /* \"#utility.yul\":6783:6799   */\n      add\n        /* \"#utility.yul\":6780:6805   */\n      gt\n        /* \"#utility.yul\":6777:6889   */\n      iszero\n      tag_248\n      jumpi\n        /* \"#utility.yul\":6808:6887   */\n      tag_249\n      tag_139\n      jump\t// in\n    tag_249:\n        /* \"#utility.yul\":6777:6889   */\n    tag_248:\n        /* \"#utility.yul\":6898:6952   */\n      tag_250\n        /* \"#utility.yul\":6945:6951   */\n      dup5\n        /* \"#utility.yul\":6940:6943   */\n      dup3\n        /* \"#utility.yul\":6935:6938   */\n      dup6\n        /* \"#utility.yul\":6898:6952   */\n      tag_143\n      jump\t// in\n    tag_250:\n        /* \"#utility.yul\":6617:6958   */\n      pop\n        /* \"#utility.yul\":6533:6958   */\n      swap4\n      swap3\n      pop\n      pop\n      pop\n      jump\t// out\n        /* \"#utility.yul\":6978:7318   */\n    tag_145:\n        /* \"#utility.yul\":7034:7039   */\n      0x00\n        /* \"#utility.yul\":7083:7086   */\n      dup3\n        /* \"#utility.yul\":7076:7080   */\n      0x1f\n        /* \"#utility.yul\":7068:7074   */\n      dup4\n        /* \"#utility.yul\":7064:7081   */\n      add\n        /* \"#utility.yul\":7060:7087   */\n      slt\n        /* \"#utility.yul\":7050:7172   */\n      tag_252\n      jumpi\n        /* \"#utility.yul\":7091:7170   */\n      tag_253\n      tag_138\n      jump\t// in\n    tag_253:\n        /* \"#utility.yul\":7050:7172   */\n    tag_252:\n        /* \"#utility.yul\":7208:7214   */\n      dup2\n        /* \"#utility.yul\":7195:7215   */\n      calldataload\n        /* \"#utility.yul\":7233:7312   */\n      tag_254\n        /* \"#utility.yul\":7308:7311   */\n      dup5\n        /* \"#utility.yul\":7300:7306   */\n      dup3\n        /* \"#utility.yul\":7293:7297   */\n      0x20\n        /* \"#utility.yul\":7285:7291   */\n      dup7\n        /* \"#utility.yul\":7281:7298   */\n      add\n        /* \"#utility.yul\":7233:7312   */\n      tag_144\n      jump\t// in\n    tag_254:\n        /* \"#utility.yul\":7224:7312   */\n      swap2\n      pop\n        /* \"#utility.yul\":7040:7318   */\n      pop\n        /* \"#utility.yul\":6978:7318   */\n      swap3\n      swap2\n      pop\n      pop\n      jump\t// out\n        /* \"#utility.yul\":7324:7833   */\n    tag_32:\n        /* \"#utility.yul\":7393:7399   */\n      0x00\n        /* \"#utility.yul\":7442:7444   */\n      0x20\n        /* \"#utility.yul\":7430:7439   */\n      dup3\n        /* \"#utility.yul\":7421:7428   */\n      dup5\n        /* \"#utility.yul\":7417:7440   */\n      sub\n        /* \"#utility.yul\":7413:7445   */\n      slt\n        /* \"#utility.yul\":7410:7529   */\n      iszero\n      tag_256\n      jumpi\n        /* \"#utility.yul\":7448:7527   */\n      tag_257\n      tag_127\n      jump\t// in\n    tag_257:\n        /* \"#utility.yul\":7410:7529   */\n    tag_256:\n        /* \"#utility.yul\":7596:7597   */\n      0x00\n        /* \"#utility.yul\":7585:7594   */\n      dup3\n        /* \"#utility.yul\":7581:7598   */\n      add\n        /* \"#utility.yul\":7568:7599   */\n      calldataload\n        /* \"#utility.yul\":7626:7644   */\n      0xffffffffffffffff\n        /* \"#utility.yul\":7618:7624   */\n      dup2\n        /* \"#utility.yul\":7615:7645   */\n      gt\n        /* \"#utility.yul\":7612:7729   */\n      iszero\n      tag_258\n      jumpi\n        /* \"#utility.yul\":7648:7727   */\n      tag_259\n      tag_128\n      jump\t// in\n    tag_259:\n        /* \"#utility.yul\":7612:7729   */\n    tag_258:\n        /* \"#utility.yul\":7753:7816   */\n      tag_260\n        /* \"#utility.yul\":7808:7815   */\n      dup5\n        /* \"#utility.yul\":7799:7805   */\n      dup3\n        /* \"#utility.yul\":7788:7797   */\n      dup6\n        /* \"#utility.yul\":7784:7806   */\n      add\n        /* \"#utility.yul\":7753:7816   */\n      tag_145\n      jump\t// in\n    tag_260:\n        /* \"#utility.yul\":7743:7816   */\n      swap2\n      pop\n        /* \"#utility.yul\":7539:7826   */\n      pop\n        /* \"#utility.yul\":7324:7833   */\n      swap3\n      swap2\n      pop\n      pop\n      jump\t// out\n        /* \"#utility.yul\":7839:8019   */\n    tag_42:\n        /* \"#utility.yul\":7887:7964   */\n      0x4e487b7100000000000000000000000000000000000000000000000000000000\n        /* \"#utility.yul\":7884:7885   */\n      0x00\n        /* \"#utility.yul\":7877:7965   */\n      mstore\n        /* \"#utility.yul\":7984:7988   */\n      0x32\n        /* \"#utility.yul\":7981:7982   */\n      0x04\n        /* \"#utility.yul\":7974:7989   */\n      mstore\n        /* \"#utility.yul\":8008:8012   */\n      0x24\n        /* \"#utility.yul\":8005:8006   */\n      0x00\n        /* \"#utility.yul\":7998:8013   */\n      revert\n        /* \"#utility.yul\":8025:8245   */\n    tag_146:\n        /* \"#utility.yul\":8165:8199   */\n      0x4f6e6c79206f776e65722063616e2077686974656c6973742074686520757365\n        /* \"#utility.yul\":8161:8162   */\n      0x00\n        /* \"#utility.yul\":8153:8159   */\n      dup3\n        /* \"#utility.yul\":8149:8163   */\n      add\n        /* \"#utility.yul\":8142:8200   */\n      mstore\n        /* \"#utility.yul\":8234:8237   */\n      0x7200000000000000000000000000000000000000000000000000000000000000\n        /* \"#utility.yul\":8229:8231   */\n      0x20\n        /* \"#utility.yul\":8221:8227   */\n      dup3\n        /* \"#utility.yul\":8217:8232   */\n      add\n        /* \"#utility.yul\":8210:8238   */\n      mstore\n        /* \"#utility.yul\":8025:8245   */\n      pop\n      jump\t// out\n        /* \"#utility.yul\":8251:8617   */\n    tag_147:\n        /* \"#utility.yul\":8393:8396   */\n      0x00\n        /* \"#utility.yul\":8414:8481   */\n      tag_264\n        /* \"#utility.yul\":8478:8480   */\n      0x21\n        /* \"#utility.yul\":8473:8476   */\n      dup4\n        /* \"#utility.yul\":8414:8481   */\n      tag_134\n      jump\t// in\n    tag_264:\n        /* \"#utility.yul\":8407:8481   */\n      swap2\n      pop\n        /* \"#utility.yul\":8490:8583   */\n      tag_265\n        /* \"#utility.yul\":8579:8582   */\n      dup3\n        /* \"#utility.yul\":8490:8583   */\n      tag_146\n      jump\t// in\n    tag_265:\n        /* \"#utility.yul\":8608:8610   */\n      0x40\n        /* \"#utility.yul\":8603:8606   */\n      dup3\n        /* \"#utility.yul\":8599:8611   */\n      add\n        /* \"#utility.yul\":8592:8611   */\n      swap1\n      pop\n        /* \"#utility.yul\":8251:8617   */\n      swap2\n      swap1\n      pop\n      jump\t// out\n        /* \"#utility.yul\":8623:9042   */\n    tag_51:\n        /* \"#utility.yul\":8789:8793   */\n      0x00\n        /* \"#utility.yul\":8827:8829   */\n      0x20\n        /* \"#utility.yul\":8816:8825   */\n      dup3\n        /* \"#utility.yul\":8812:8830   */\n      add\n        /* \"#utility.yul\":8804:8830   */\n      swap1\n      pop\n        /* \"#utility.yul\":8876:8885   */\n      dup2\n        /* \"#utility.yul\":8870:8874   */\n      dup2\n        /* \"#utility.yul\":8866:8886   */\n      sub\n        /* \"#utility.yul\":8862:8863   */\n      0x00\n        /* \"#utility.yul\":8851:8860   */\n      dup4\n        /* \"#utility.yul\":8847:8864   */\n      add\n        /* \"#utility.yul\":8840:8887   */\n      mstore\n        /* \"#utility.yul\":8904:9035   */\n      tag_267\n        /* \"#utility.yul\":9030:9034   */\n      dup2\n        /* \"#utility.yul\":8904:9035   */\n      tag_147\n      jump\t// in\n    tag_267:\n        /* \"#utility.yul\":8896:9035   */\n      swap1\n      pop\n        /* \"#utility.yul\":8623:9042   */\n      swap2\n      swap1\n      pop\n      jump\t// out\n        /* \"#utility.yul\":9048:9275   */\n    tag_148:\n        /* \"#utility.yul\":9188:9222   */\n      0x54686520616464726573732068617320616c7265616479206265656e20776869\n        /* \"#utility.yul\":9184:9185   */\n      0x00\n        /* \"#utility.yul\":9176:9182   */\n      dup3\n        /* \"#utility.yul\":9172:9186   */\n      add\n        /* \"#utility.yul\":9165:9223   */\n      mstore\n        /* \"#utility.yul\":9257:9267   */\n      0x74656c6973746564000000000000000000000000000000000000000000000000\n        /* \"#utility.yul\":9252:9254   */\n      0x20\n        /* \"#utility.yul\":9244:9250   */\n      dup3\n        /* \"#utility.yul\":9240:9255   */\n      add\n        /* \"#utility.yul\":9233:9268   */\n      mstore\n        /* \"#utility.yul\":9048:9275   */\n      pop\n      jump\t// out\n        /* \"#utility.yul\":9281:9647   */\n    tag_149:\n        /* \"#utility.yul\":9423:9426   */\n      0x00\n        /* \"#utility.yul\":9444:9511   */\n      tag_270\n        /* \"#utility.yul\":9508:9510   */\n      0x28\n        /* \"#utility.yul\":9503:9506   */\n      dup4\n        /* \"#utility.yul\":9444:9511   */\n      tag_134\n      jump\t// in\n    tag_270:\n        /* \"#utility.yul\":9437:9511   */\n      swap2\n      pop\n        /* \"#utility.yul\":9520:9613   */\n      tag_271\n        /* \"#utility.yul\":9609:9612   */\n      dup3\n        /* \"#utility.yul\":9520:9613   */\n      tag_148\n      jump\t// in\n    tag_271:\n        /* \"#utility.yul\":9638:9640   */\n      0x40\n        /* \"#utility.yul\":9633:9636   */\n      dup3\n        /* \"#utility.yul\":9629:9641   */\n      add\n        /* \"#utility.yul\":9622:9641   */\n      swap1\n      pop\n        /* \"#utility.yul\":9281:9647   */\n      swap2\n      swap1\n      pop\n      jump\t// out\n        /* \"#utility.yul\":9653:10072   */\n    tag_54:\n        /* \"#utility.yul\":9819:9823   */\n      0x00\n        /* \"#utility.yul\":9857:9859   */\n      0x20\n        /* \"#utility.yul\":9846:9855   */\n      dup3\n        /* \"#utility.yul\":9842:9860   */\n      add\n        /* \"#utility.yul\":9834:9860   */\n      swap1\n      pop\n        /* \"#utility.yul\":9906:9915   */\n      dup2\n        /* \"#utility.yul\":9900:9904   */\n      dup2\n        /* \"#utility.yul\":9896:9916   */\n      sub\n        /* \"#utility.yul\":9892:9893   */\n      0x00\n        /* \"#utility.yul\":9881:9890   */\n      dup4\n        /* \"#utility.yul\":9877:9894   */\n      add\n        /* \"#utility.yul\":9870:9917   */\n      mstore\n        /* \"#utility.yul\":9934:10065   */\n      tag_273\n        /* \"#utility.yul\":10060:10064   */\n      dup2\n        /* \"#utility.yul\":9934:10065   */\n      tag_149\n      jump\t// in\n    tag_273:\n        /* \"#utility.yul\":9926:10065   */\n      swap1\n      pop\n        /* \"#utility.yul\":9653:10072   */\n      swap2\n      swap1\n      pop\n      jump\t// out\n        /* \"#utility.yul\":10078:10260   */\n    tag_150:\n        /* \"#utility.yul\":10246:10253   */\n      0x5573657220000000000000000000000000000000000000000000000000000000\n        /* \"#utility.yul\":10241:10244   */\n      dup2\n        /* \"#utility.yul\":10234:10254   */\n      mstore\n        /* \"#utility.yul\":10078:10260   */\n      pop\n      jump\t// out\n        /* \"#utility.yul\":10266:10414   */\n    tag_151:\n        /* \"#utility.yul\":10368:10379   */\n      0x00\n        /* \"#utility.yul\":10405:10408   */\n      dup2\n        /* \"#utility.yul\":10390:10408   */\n      swap1\n      pop\n        /* \"#utility.yul\":10266:10414   */\n      swap3\n      swap2\n      pop\n      pop\n      jump\t// out\n        /* \"#utility.yul\":10420:10810   */\n    tag_152:\n        /* \"#utility.yul\":10526:10529   */\n      0x00\n        /* \"#utility.yul\":10554:10593   */\n      tag_277\n        /* \"#utility.yul\":10587:10592   */\n      dup3\n        /* \"#utility.yul\":10554:10593   */\n      tag_133\n      jump\t// in\n    tag_277:\n        /* \"#utility.yul\":10609:10698   */\n      tag_278\n        /* \"#utility.yul\":10691:10697   */\n      dup2\n        /* \"#utility.yul\":10686:10689   */\n      dup6\n        /* \"#utility.yul\":10609:10698   */\n      tag_151\n      jump\t// in\n    tag_278:\n        /* \"#utility.yul\":10602:10698   */\n      swap4\n      pop\n        /* \"#utility.yul\":10707:10772   */\n      tag_279\n        /* \"#utility.yul\":10765:10771   */\n      dup2\n        /* \"#utility.yul\":10760:10763   */\n      dup6\n        /* \"#utility.yul\":10753:10757   */\n      0x20\n        /* \"#utility.yul\":10746:10751   */\n      dup7\n        /* \"#utility.yul\":10742:10758   */\n      add\n        /* \"#utility.yul\":10707:10772   */\n      tag_135\n      jump\t// in\n    tag_279:\n        /* \"#utility.yul\":10797:10803   */\n      dup1\n        /* \"#utility.yul\":10792:10795   */\n      dup5\n        /* \"#utility.yul\":10788:10804   */\n      add\n        /* \"#utility.yul\":10781:10804   */\n      swap2\n      pop\n        /* \"#utility.yul\":10530:10810   */\n      pop\n        /* \"#utility.yul\":10420:10810   */\n      swap3\n      swap2\n      pop\n      pop\n      jump\t// out\n        /* \"#utility.yul\":10816:11355   */\n    tag_58:\n        /* \"#utility.yul\":11038:11041   */\n      0x00\n        /* \"#utility.yul\":11053:11190   */\n      tag_281\n        /* \"#utility.yul\":11186:11189   */\n      dup3\n        /* \"#utility.yul\":11053:11190   */\n      tag_150\n      jump\t// in\n    tag_281:\n        /* \"#utility.yul\":11215:11216   */\n      0x05\n        /* \"#utility.yul\":11210:11213   */\n      dup3\n        /* \"#utility.yul\":11206:11217   */\n      add\n        /* \"#utility.yul\":11199:11217   */\n      swap2\n      pop\n        /* \"#utility.yul\":11234:11329   */\n      tag_282\n        /* \"#utility.yul\":11325:11328   */\n      dup3\n        /* \"#utility.yul\":11316:11322   */\n      dup5\n        /* \"#utility.yul\":11234:11329   */\n      tag_152\n      jump\t// in\n    tag_282:\n        /* \"#utility.yul\":11227:11329   */\n      swap2\n      pop\n        /* \"#utility.yul\":11346:11349   */\n      dup2\n        /* \"#utility.yul\":11339:11349   */\n      swap1\n      pop\n        /* \"#utility.yul\":10816:11355   */\n      swap3\n      swap2\n      pop\n      pop\n      jump\t// out\n        /* \"#utility.yul\":11361:11541   */\n    tag_153:\n        /* \"#utility.yul\":11409:11486   */\n      0x4e487b7100000000000000000000000000000000000000000000000000000000\n        /* \"#utility.yul\":11406:11407   */\n      0x00\n        /* \"#utility.yul\":11399:11487   */\n      mstore\n        /* \"#utility.yul\":11506:11510   */\n      0x22\n        /* \"#utility.yul\":11503:11504   */\n      0x04\n        /* \"#utility.yul\":11496:11511   */\n      mstore\n        /* \"#utility.yul\":11530:11534   */\n      0x24\n        /* \"#utility.yul\":11527:11528   */\n      0x00\n        /* \"#utility.yul\":11520:11535   */\n      revert\n        /* \"#utility.yul\":11547:11867   */\n    tag_70:\n        /* \"#utility.yul\":11591:11597   */\n      0x00\n        /* \"#utility.yul\":11628:11629   */\n      0x02\n        /* \"#utility.yul\":11622:11626   */\n      dup3\n        /* \"#utility.yul\":11618:11630   */\n      div\n        /* \"#utility.yul\":11608:11630   */\n      swap1\n      pop\n        /* \"#utility.yul\":11675:11676   */\n      0x01\n        /* \"#utility.yul\":11669:11673   */\n      dup3\n        /* \"#utility.yul\":11665:11677   */\n      and\n        /* \"#utility.yul\":11696:11714   */\n      dup1\n        /* \"#utility.yul\":11686:11767   */\n      tag_285\n      jumpi\n        /* \"#utility.yul\":11752:11756   */\n      0x7f\n        /* \"#utility.yul\":11744:11750   */\n      dup3\n        /* \"#utility.yul\":11740:11757   */\n      and\n        /* \"#utility.yul\":11730:11757   */\n      swap2\n      pop\n        /* \"#utility.yul\":11686:11767   */\n    tag_285:\n        /* \"#utility.yul\":11814:11816   */\n      0x20\n        /* \"#utility.yul\":11806:11812   */\n      dup3\n        /* \"#utility.yul\":11803:11817   */\n      lt\n        /* \"#utility.yul\":11783:11801   */\n      dup2\n        /* \"#utility.yul\":11780:11818   */\n      sub\n        /* \"#utility.yul\":11777:11861   */\n      tag_286\n      jumpi\n        /* \"#utility.yul\":11833:11851   */\n      tag_287\n      tag_153\n      jump\t// in\n    tag_287:\n        /* \"#utility.yul\":11777:11861   */\n    tag_286:\n        /* \"#utility.yul\":11598:11867   */\n      pop\n        /* \"#utility.yul\":11547:11867   */\n      swap2\n      swap1\n      pop\n      jump\t// out\n        /* \"#utility.yul\":11873:12014   */\n    tag_154:\n        /* \"#utility.yul\":11922:11926   */\n      0x00\n        /* \"#utility.yul\":11945:11948   */\n      dup2\n        /* \"#utility.yul\":11937:11948   */\n      swap1\n      pop\n        /* \"#utility.yul\":11968:11971   */\n      dup2\n        /* \"#utility.yul\":11965:11966   */\n      0x00\n        /* \"#utility.yul\":11958:11972   */\n      mstore\n        /* \"#utility.yul\":12002:12006   */\n      0x20\n        /* \"#utility.yul\":11999:12000   */\n      0x00\n        /* \"#utility.yul\":11989:12007   */\n      keccak256\n        /* \"#utility.yul\":11981:12007   */\n      swap1\n      pop\n        /* \"#utility.yul\":11873:12014   */\n      swap2\n      swap1\n      pop\n      jump\t// out\n        /* \"#utility.yul\":12020:12113   */\n    tag_155:\n        /* \"#utility.yul\":12057:12063   */\n      0x00\n        /* \"#utility.yul\":12104:12106   */\n      0x20\n        /* \"#utility.yul\":12099:12101   */\n      0x1f\n        /* \"#utility.yul\":12092:12097   */\n      dup4\n        /* \"#utility.yul\":12088:12102   */\n      add\n        /* \"#utility.yul\":12084:12107   */\n      div\n        /* \"#utility.yul\":12074:12107   */\n      swap1\n      pop\n        /* \"#utility.yul\":12020:12113   */\n      swap2\n      swap1\n      pop\n      jump\t// out\n        /* \"#utility.yul\":12119:12226   */\n    tag_156:\n        /* \"#utility.yul\":12163:12171   */\n      0x00\n        /* \"#utility.yul\":12213:12218   */\n      dup3\n        /* \"#utility.yul\":12207:12211   */\n      dup3\n        /* \"#utility.yul\":12203:12219   */\n      shl\n        /* \"#utility.yul\":12182:12219   */\n      swap1\n      pop\n        /* \"#utility.yul\":12119:12226   */\n      swap3\n      swap2\n      pop\n      pop\n      jump\t// out\n        /* \"#utility.yul\":12232:12625   */\n    tag_157:\n        /* \"#utility.yul\":12301:12307   */\n      0x00\n        /* \"#utility.yul\":12351:12352   */\n      0x08\n        /* \"#utility.yul\":12339:12349   */\n      dup4\n        /* \"#utility.yul\":12335:12353   */\n      mul\n        /* \"#utility.yul\":12374:12471   */\n      tag_292\n        /* \"#utility.yul\":12404:12470   */\n      0xffffffffffffffffffffffffffffffffffffffffffffffffffffffffffffffff\n        /* \"#utility.yul\":12393:12402   */\n      dup3\n        /* \"#utility.yul\":12374:12471   */\n      tag_156\n      jump\t// in\n    tag_292:\n        /* \"#utility.yul\":12492:12531   */\n      tag_293\n        /* \"#utility.yul\":12522:12530   */\n      dup7\n        /* \"#utility.yul\":12511:12520   */\n      dup4\n        /* \"#utility.yul\":12492:12531   */\n      tag_156\n      jump\t// in\n    tag_293:\n        /* \"#utility.yul\":12480:12531   */\n      swap6\n      pop\n        /* \"#utility.yul\":12564:12568   */\n      dup1\n        /* \"#utility.yul\":12560:12569   */\n      not\n        /* \"#utility.yul\":12553:12558   */\n      dup5\n        /* \"#utility.yul\":12549:12570   */\n      and\n        /* \"#utility.yul\":12540:12570   */\n      swap4\n      pop\n        /* \"#utility.yul\":12613:12617   */\n      dup1\n        /* \"#utility.yul\":12603:12611   */\n      dup7\n        /* \"#utility.yul\":12599:12618   */\n      and\n        /* \"#utility.yul\":12592:12597   */\n      dup5\n        /* \"#utility.yul\":12589:12619   */\n      or\n        /* \"#utility.yul\":12579:12619   */\n      swap3\n      pop\n        /* \"#utility.yul\":12308:12625   */\n      pop\n      pop\n        /* \"#utility.yul\":12232:12625   */\n      swap4\n      swap3\n      pop\n      pop\n      pop\n      jump\t// out\n        /* \"#utility.yul\":12631:12691   */\n    tag_158:\n        /* \"#utility.yul\":12659:12662   */\n      0x00\n        /* \"#utility.yul\":12680:12685   */\n      dup2\n        /* \"#utility.yul\":12673:12685   */\n      swap1\n      pop\n        /* \"#utility.yul\":12631:12691   */\n      swap2\n      swap1\n      pop\n      jump\t// out\n        /* \"#utility.yul\":12697:12839   */\n    tag_159:\n        /* \"#utility.yul\":12747:12756   */\n      0x00\n        /* \"#utility.yul\":12780:12833   */\n      tag_296\n        /* \"#utility.yul\":12798:12832   */\n      tag_297\n        /* \"#utility.yul\":12807:12831   */\n      tag_298\n        /* \"#utility.yul\":12825:12830   */\n      dup5\n        /* \"#utility.yul\":12807:12831   */\n      tag_131\n      jump\t// in\n    tag_298:\n        /* \"#utility.yul\":12798:12832   */\n      tag_158\n      jump\t// in\n    tag_297:\n        /* \"#utility.yul\":12780:12833   */\n      tag_131\n      jump\t// in\n    tag_296:\n        /* \"#utility.yul\":12767:12833   */\n      swap1\n      pop\n        /* \"#utility.yul\":12697:12839   */\n      swap2\n      swap1\n      pop\n      jump\t// out\n        /* \"#utility.yul\":12845:12920   */\n    tag_160:\n        /* \"#utility.yul\":12888:12891   */\n      0x00\n        /* \"#utility.yul\":12909:12914   */\n      dup2\n        /* \"#utility.yul\":12902:12914   */\n      swap1\n      pop\n        /* \"#utility.yul\":12845:12920   */\n      swap2\n      swap1\n      pop\n      jump\t// out\n        /* \"#utility.yul\":12926:13195   */\n    tag_161:\n        /* \"#utility.yul\":13036:13075   */\n      tag_301\n        /* \"#utility.yul\":13067:13074   */\n      dup4\n        /* \"#utility.yul\":13036:13075   */\n      tag_159\n      jump\t// in\n    tag_301:\n        /* \"#utility.yul\":13097:13188   */\n      tag_302\n        /* \"#utility.yul\":13146:13187   */\n      tag_303\n        /* \"#utility.yul\":13170:13186   */\n      dup3\n        /* \"#utility.yul\":13146:13187   */\n      tag_160\n      jump\t// in\n    tag_303:\n        /* \"#utility.yul\":13138:13144   */\n      dup5\n        /* \"#utility.yul\":13131:13135   */\n      dup5\n        /* \"#utility.yul\":13125:13136   */\n      sload\n        /* \"#utility.yul\":13097:13188   */\n      tag_157\n      jump\t// in\n    tag_302:\n        /* \"#utility.yul\":13091:13095   */\n      dup3\n        /* \"#utility.yul\":13084:13189   */\n      sstore\n        /* \"#utility.yul\":13002:13195   */\n      pop\n        /* \"#utility.yul\":12926:13195   */\n      pop\n      pop\n      pop\n      jump\t// out\n        /* \"#utility.yul\":13201:13274   */\n    tag_162:\n        /* \"#utility.yul\":13246:13249   */\n      0x00\n        /* \"#utility.yul\":13201:13274   */\n      swap1\n      jump\t// out\n        /* \"#utility.yul\":13280:13469   */\n    tag_163:\n        /* \"#utility.yul\":13357:13389   */\n      tag_306\n      tag_162\n      jump\t// in\n    tag_306:\n        /* \"#utility.yul\":13398:13463   */\n      tag_307\n        /* \"#utility.yul\":13456:13462   */\n      dup2\n        /* \"#utility.yul\":13448:13454   */\n      dup5\n        /* \"#utility.yul\":13442:13446   */\n      dup5\n        /* \"#utility.yul\":13398:13463   */\n      tag_161\n      jump\t// in\n    tag_307:\n        /* \"#utility.yul\":13333:13469   */\n      pop\n        /* \"#utility.yul\":13280:13469   */\n      pop\n      pop\n      jump\t// out\n        /* \"#utility.yul\":13475:13661   */\n    tag_164:\n        /* \"#utility.yul\":13535:13655   */\n    tag_309:\n        /* \"#utility.yul\":13552:13555   */\n      dup2\n        /* \"#utility.yul\":13545:13550   */\n      dup2\n        /* \"#utility.yul\":13542:13556   */\n      lt\n        /* \"#utility.yul\":13535:13655   */\n      iszero\n      tag_311\n      jumpi\n        /* \"#utility.yul\":13606:13645   */\n      tag_312\n        /* \"#utility.yul\":13643:13644   */\n      0x00\n        /* \"#utility.yul\":13636:13641   */\n      dup3\n        /* \"#utility.yul\":13606:13645   */\n      tag_163\n      jump\t// in\n    tag_312:\n        /* \"#utility.yul\":13579:13580   */\n      0x01\n        /* \"#utility.yul\":13572:13577   */\n      dup2\n        /* \"#utility.yul\":13568:13581   */\n      add\n        /* \"#utility.yul\":13559:13581   */\n      swap1\n      pop\n        /* \"#utility.yul\":13535:13655   */\n      jump(tag_309)\n    tag_311:\n        /* \"#utility.yul\":13475:13661   */\n      pop\n      pop\n      jump\t// out\n        /* \"#utility.yul\":13667:14210   */\n    tag_165:\n        /* \"#utility.yul\":13768:13770   */\n      0x1f\n        /* \"#utility.yul\":13763:13766   */\n      dup3\n        /* \"#utility.yul\":13760:13771   */\n      gt\n        /* \"#utility.yul\":13757:14203   */\n      iszero\n      tag_314\n      jumpi\n        /* \"#utility.yul\":13802:13840   */\n      tag_315\n        /* \"#utility.yul\":13834:13839   */\n      dup2\n        /* \"#utility.yul\":13802:13840   */\n      tag_154\n      jump\t// in\n    tag_315:\n        /* \"#utility.yul\":13886:13915   */\n      tag_316\n        /* \"#utility.yul\":13904:13914   */\n      dup5\n        /* \"#utility.yul\":13886:13915   */\n      tag_155\n      jump\t// in\n    tag_316:\n        /* \"#utility.yul\":13876:13884   */\n      dup2\n        /* \"#utility.yul\":13872:13916   */\n      add\n        /* \"#utility.yul\":14069:14071   */\n      0x20\n        /* \"#utility.yul\":14057:14067   */\n      dup6\n        /* \"#utility.yul\":14054:14072   */\n      lt\n        /* \"#utility.yul\":14051:14100   */\n      iszero\n      tag_317\n      jumpi\n        /* \"#utility.yul\":14090:14098   */\n      dup2\n        /* \"#utility.yul\":14075:14098   */\n      swap1\n      pop\n        /* \"#utility.yul\":14051:14100   */\n    tag_317:\n        /* \"#utility.yul\":14113:14193   */\n      tag_318\n        /* \"#utility.yul\":14169:14191   */\n      tag_319\n        /* \"#utility.yul\":14187:14190   */\n      dup6\n        /* \"#utility.yul\":14169:14191   */\n      tag_155\n      jump\t// in\n    tag_319:\n        /* \"#utility.yul\":14159:14167   */\n      dup4\n        /* \"#utility.yul\":14155:14192   */\n      add\n        /* \"#utility.yul\":14142:14153   */\n      dup3\n        /* \"#utility.yul\":14113:14193   */\n      tag_164\n      jump\t// in\n    tag_318:\n        /* \"#utility.yul\":13772:14203   */\n      pop\n      pop\n        /* \"#utility.yul\":13757:14203   */\n    tag_314:\n        /* \"#utility.yul\":13667:14210   */\n      pop\n      pop\n      pop\n      jump\t// out\n        /* \"#utility.yul\":14216:14333   */\n    tag_166:\n        /* \"#utility.yul\":14270:14278   */\n      0x00\n        /* \"#utility.yul\":14320:14325   */\n      dup3\n        /* \"#utility.yul\":14314:14318   */\n      dup3\n        /* \"#utility.yul\":14310:14326   */\n      shr\n        /* \"#utility.yul\":14289:14326   */\n      swap1\n      pop\n        /* \"#utility.yul\":14216:14333   */\n      swap3\n      swap2\n      pop\n      pop\n      jump\t// out\n        /* \"#utility.yul\":14339:14508   */\n    tag_167:\n        /* \"#utility.yul\":14383:14389   */\n      0x00\n        /* \"#utility.yul\":14416:14467   */\n      tag_322\n        /* \"#utility.yul\":14464:14465   */\n      0x00\n        /* \"#utility.yul\":14460:14466   */\n      not\n        /* \"#utility.yul\":14452:14457   */\n      dup5\n        /* \"#utility.yul\":14449:14450   */\n      0x08\n        /* \"#utility.yul\":14445:14458   */\n      mul\n        /* \"#utility.yul\":14416:14467   */\n      tag_166\n      jump\t// in\n    tag_322:\n        /* \"#utility.yul\":14412:14468   */\n      not\n        /* \"#utility.yul\":14497:14501   */\n      dup1\n        /* \"#utility.yul\":14491:14495   */\n      dup4\n        /* \"#utility.yul\":14487:14502   */\n      and\n        /* \"#utility.yul\":14477:14502   */\n      swap2\n      pop\n        /* \"#utility.yul\":14390:14508   */\n      pop\n        /* \"#utility.yul\":14339:14508   */\n      swap3\n      swap2\n      pop\n      pop\n      jump\t// out\n        /* \"#utility.yul\":14513:14808   */\n    tag_168:\n        /* \"#utility.yul\":14589:14593   */\n      0x00\n        /* \"#utility.yul\":14735:14764   */\n      tag_324\n        /* \"#utility.yul\":14760:14763   */\n      dup4\n        /* \"#utility.yul\":14754:14758   */\n      dup4\n        /* \"#utility.yul\":14735:14764   */\n      tag_167\n      jump\t// in\n    tag_324:\n        /* \"#utility.yul\":14727:14764   */\n      swap2\n      pop\n        /* \"#utility.yul\":14797:14800   */\n      dup3\n        /* \"#utility.yul\":14794:14795   */\n      0x02\n        /* \"#utility.yul\":14790:14801   */\n      mul\n        /* \"#utility.yul\":14784:14788   */\n      dup3\n        /* \"#utility.yul\":14781:14802   */\n      or\n        /* \"#utility.yul\":14773:14802   */\n      swap1\n      pop\n        /* \"#utility.yul\":14513:14808   */\n      swap3\n      swap2\n      pop\n      pop\n      jump\t// out\n        /* \"#utility.yul\":14813:16208   */\n    tag_60:\n        /* \"#utility.yul\":14930:14967   */\n      tag_326\n        /* \"#utility.yul\":14963:14966   */\n      dup3\n        /* \"#utility.yul\":14930:14967   */\n      tag_133\n      jump\t// in\n    tag_326:\n        /* \"#utility.yul\":15032:15050   */\n      0xffffffffffffffff\n        /* \"#utility.yul\":15024:15030   */\n      dup2\n        /* \"#utility.yul\":15021:15051   */\n      gt\n        /* \"#utility.yul\":15018:15074   */\n      iszero\n      tag_327\n      jumpi\n        /* \"#utility.yul\":15054:15072   */\n      tag_328\n      tag_38\n      jump\t// in\n    tag_328:\n        /* \"#utility.yul\":15018:15074   */\n    tag_327:\n        /* \"#utility.yul\":15098:15136   */\n      tag_329\n        /* \"#utility.yul\":15130:15134   */\n      dup3\n        /* \"#utility.yul\":15124:15135   */\n      sload\n        /* \"#utility.yul\":15098:15136   */\n      tag_70\n      jump\t// in\n    tag_329:\n        /* \"#utility.yul\":15183:15250   */\n      tag_330\n        /* \"#utility.yul\":15243:15249   */\n      dup3\n        /* \"#utility.yul\":15235:15241   */\n      dup3\n        /* \"#utility.yul\":15229:15233   */\n      dup6\n        /* \"#utility.yul\":15183:15250   */\n      tag_165\n      jump\t// in\n    tag_330:\n        /* \"#utility.yul\":15277:15278   */\n      0x00\n        /* \"#utility.yul\":15301:15305   */\n      0x20\n        /* \"#utility.yul\":15288:15305   */\n      swap1\n      pop\n        /* \"#utility.yul\":15333:15335   */\n      0x1f\n        /* \"#utility.yul\":15325:15331   */\n      dup4\n        /* \"#utility.yul\":15322:15336   */\n      gt\n        /* \"#utility.yul\":15350:15351   */\n      0x01\n        /* \"#utility.yul\":15345:15963   */\n      dup2\n      eq\n      tag_332\n      jumpi\n        /* \"#utility.yul\":16007:16008   */\n      0x00\n        /* \"#utility.yul\":16024:16030   */\n      dup5\n        /* \"#utility.yul\":16021:16098   */\n      iszero\n      tag_333\n      jumpi\n        /* \"#utility.yul\":16073:16082   */\n      dup3\n        /* \"#utility.yul\":16068:16071   */\n      dup8\n        /* \"#utility.yul\":16064:16083   */\n      add\n        /* \"#utility.yul\":16058:16084   */\n      mload\n        /* \"#utility.yul\":16049:16084   */\n      swap1\n      pop\n        /* \"#utility.yul\":16021:16098   */\n    tag_333:\n        /* \"#utility.yul\":16124:16191   */\n      tag_334\n        /* \"#utility.yul\":16184:16190   */\n      dup6\n        /* \"#utility.yul\":16177:16182   */\n      dup3\n        /* \"#utility.yul\":16124:16191   */\n      tag_168\n      jump\t// in\n    tag_334:\n        /* \"#utility.yul\":16118:16122   */\n      dup7\n        /* \"#utility.yul\":16111:16192   */\n      sstore\n        /* \"#utility.yul\":15980:16202   */\n      pop\n        /* \"#utility.yul\":15315:16202   */\n      jump(tag_331)\n        /* \"#utility.yul\":15345:15963   */\n    tag_332:\n        /* \"#utility.yul\":15397:15401   */\n      0x1f\n        /* \"#utility.yul\":15393:15402   */\n      not\n        /* \"#utility.yul\":15385:15391   */\n      dup5\n        /* \"#utility.yul\":15381:15403   */\n      and\n        /* \"#utility.yul\":15431:15468   */\n      tag_335\n        /* \"#utility.yul\":15463:15467   */\n      dup7\n        /* \"#utility.yul\":15431:15468   */\n      tag_154\n      jump\t// in\n    tag_335:\n        /* \"#utility.yul\":15490:15491   */\n      0x00\n        /* \"#utility.yul\":15504:15712   */\n    tag_336:\n        /* \"#utility.yul\":15518:15525   */\n      dup3\n        /* \"#utility.yul\":15515:15516   */\n      dup2\n        /* \"#utility.yul\":15512:15526   */\n      lt\n        /* \"#utility.yul\":15504:15712   */\n      iszero\n      tag_338\n      jumpi\n        /* \"#utility.yul\":15597:15606   */\n      dup5\n        /* \"#utility.yul\":15592:15595   */\n      dup10\n        /* \"#utility.yul\":15588:15607   */\n      add\n        /* \"#utility.yul\":15582:15608   */\n      mload\n        /* \"#utility.yul\":15574:15580   */\n      dup3\n        /* \"#utility.yul\":15567:15609   */\n      sstore\n        /* \"#utility.yul\":15648:15649   */\n      0x01\n        /* \"#utility.yul\":15640:15646   */\n      dup3\n        /* \"#utility.yul\":15636:15650   */\n      add\n        /* \"#utility.yul\":15626:15650   */\n      swap2\n      pop\n        /* \"#utility.yul\":15695:15697   */\n      0x20\n        /* \"#utility.yul\":15684:15693   */\n      dup6\n        /* \"#utility.yul\":15680:15698   */\n      add\n        /* \"#utility.yul\":15667:15698   */\n      swap5\n      pop\n        /* \"#utility.yul\":15541:15545   */\n      0x20\n        /* \"#utility.yul\":15538:15539   */\n      dup2\n        /* \"#utility.yul\":15534:15546   */\n      add\n        /* \"#utility.yul\":15529:15546   */\n      swap1\n      pop\n        /* \"#utility.yul\":15504:15712   */\n      jump(tag_336)\n    tag_338:\n        /* \"#utility.yul\":15740:15746   */\n      dup7\n        /* \"#utility.yul\":15731:15738   */\n      dup4\n        /* \"#utility.yul\":15728:15747   */\n      lt\n        /* \"#utility.yul\":15725:15904   */\n      iszero\n      tag_339\n      jumpi\n        /* \"#utility.yul\":15798:15807   */\n      dup5\n        /* \"#utility.yul\":15793:15796   */\n      dup10\n        /* \"#utility.yul\":15789:15808   */\n      add\n        /* \"#utility.yul\":15783:15809   */\n      mload\n        /* \"#utility.yul\":15841:15889   */\n      tag_340\n        /* \"#utility.yul\":15883:15887   */\n      0x1f\n        /* \"#utility.yul\":15875:15881   */\n      dup10\n        /* \"#utility.yul\":15871:15888   */\n      and\n        /* \"#utility.yul\":15860:15869   */\n      dup3\n        /* \"#utility.yul\":15841:15889   */\n      tag_167\n      jump\t// in\n    tag_340:\n        /* \"#utility.yul\":15833:15839   */\n      dup4\n        /* \"#utility.yul\":15826:15890   */\n      sstore\n        /* \"#utility.yul\":15748:15904   */\n      pop\n        /* \"#utility.yul\":15725:15904   */\n    tag_339:\n        /* \"#utility.yul\":15950:15951   */\n      0x01\n        /* \"#utility.yul\":15946:15947   */\n      0x02\n        /* \"#utility.yul\":15938:15944   */\n      dup9\n        /* \"#utility.yul\":15934:15948   */\n      mul\n        /* \"#utility.yul\":15930:15952   */\n      add\n        /* \"#utility.yul\":15924:15928   */\n      dup9\n        /* \"#utility.yul\":15917:15953   */\n      sstore\n        /* \"#utility.yul\":15352:15963   */\n      pop\n      pop\n      pop\n        /* \"#utility.yul\":15315:16202   */\n    tag_331:\n      pop\n        /* \"#utility.yul\":14905:16208   */\n      pop\n      pop\n      pop\n        /* \"#utility.yul\":14813:16208   */\n      pop\n      pop\n      jump\t// out\n        /* \"#utility.yul\":16238:17112   */\n    tag_169:\n        /* \"#utility.yul\":16341:16344   */\n      0x00\n        /* \"#utility.yul\":16378:16383   */\n      dup2\n        /* \"#utility.yul\":16372:16384   */\n      sload\n        /* \"#utility.yul\":16407:16443   */\n      tag_342\n        /* \"#utility.yul\":16433:16442   */\n      dup2\n        /* \"#utility.yul\":16407:16443   */\n      tag_70\n      jump\t// in\n    tag_342:\n        /* \"#utility.yul\":16459:16548   */\n      tag_343\n        /* \"#utility.yul\":16541:16547   */\n      dup2\n        /* \"#utility.yul\":16536:16539   */\n      dup7\n        /* \"#utility.yul\":16459:16548   */\n      tag_151\n      jump\t// in\n    tag_343:\n        /* \"#utility.yul\":16452:16548   */\n      swap5\n      pop\n        /* \"#utility.yul\":16579:16580   */\n      0x01\n        /* \"#utility.yul\":16568:16577   */\n      dup3\n        /* \"#utility.yul\":16564:16581   */\n      and\n        /* \"#utility.yul\":16595:16596   */\n      0x00\n        /* \"#utility.yul\":16590:16756   */\n      dup2\n      eq\n      tag_345\n      jumpi\n        /* \"#utility.yul\":16770:16771   */\n      0x01\n        /* \"#utility.yul\":16765:17106   */\n      dup2\n      eq\n      tag_346\n      jumpi\n        /* \"#utility.yul\":16557:17106   */\n      jump(tag_344)\n        /* \"#utility.yul\":16590:16756   */\n    tag_345:\n        /* \"#utility.yul\":16674:16678   */\n      0xff\n        /* \"#utility.yul\":16670:16679   */\n      not\n        /* \"#utility.yul\":16659:16668   */\n      dup4\n        /* \"#utility.yul\":16655:16680   */\n      and\n        /* \"#utility.yul\":16650:16653   */\n      dup7\n        /* \"#utility.yul\":16643:16681   */\n      mstore\n        /* \"#utility.yul\":16736:16742   */\n      dup2\n        /* \"#utility.yul\":16729:16743   */\n      iszero\n        /* \"#utility.yul\":16722:16744   */\n      iszero\n        /* \"#utility.yul\":16714:16720   */\n      dup3\n        /* \"#utility.yul\":16710:16745   */\n      mul\n        /* \"#utility.yul\":16705:16708   */\n      dup7\n        /* \"#utility.yul\":16701:16746   */\n      add\n        /* \"#utility.yul\":16694:16746   */\n      swap4\n      pop\n        /* \"#utility.yul\":16590:16756   */\n      jump(tag_344)\n        /* \"#utility.yul\":16765:17106   */\n    tag_346:\n        /* \"#utility.yul\":16832:16870   */\n      tag_347\n        /* \"#utility.yul\":16864:16869   */\n      dup6\n        /* \"#utility.yul\":16832:16870   */\n      tag_154\n      jump\t// in\n    tag_347:\n        /* \"#utility.yul\":16892:16893   */\n      0x00\n        /* \"#utility.yul\":16906:17060   */\n    tag_348:\n        /* \"#utility.yul\":16920:16926   */\n      dup4\n        /* \"#utility.yul\":16917:16918   */\n      dup2\n        /* \"#utility.yul\":16914:16927   */\n      lt\n        /* \"#utility.yul\":16906:17060   */\n      iszero\n      tag_350\n      jumpi\n        /* \"#utility.yul\":16994:17001   */\n      dup2\n        /* \"#utility.yul\":16988:17002   */\n      sload\n        /* \"#utility.yul\":16984:16985   */\n      dup2\n        /* \"#utility.yul\":16979:16982   */\n      dup10\n        /* \"#utility.yul\":16975:16986   */\n      add\n        /* \"#utility.yul\":16968:17003   */\n      mstore\n        /* \"#utility.yul\":17044:17045   */\n      0x01\n        /* \"#utility.yul\":17035:17042   */\n      dup3\n        /* \"#utility.yul\":17031:17046   */\n      add\n        /* \"#utility.yul\":17020:17046   */\n      swap2\n      pop\n        /* \"#utility.yul\":16942:16946   */\n      0x20\n        /* \"#utility.yul\":16939:16940   */\n      dup2\n        /* \"#utility.yul\":16935:16947   */\n      add\n        /* \"#utility.yul\":16930:16947   */\n      swap1\n      pop\n        /* \"#utility.yul\":16906:17060   */\n      jump(tag_348)\n    tag_350:\n        /* \"#utility.yul\":17089:17095   */\n      dup4\n        /* \"#utility.yul\":17084:17087   */\n      dup9\n        /* \"#utility.yul\":17080:17096   */\n      add\n        /* \"#utility.yul\":17073:17096   */\n      swap6\n      pop\n        /* \"#utility.yul\":16772:17106   */\n      pop\n      pop\n        /* \"#utility.yul\":16557:17106   */\n    tag_344:\n      pop\n        /* \"#utility.yul\":16345:17112   */\n      pop\n      pop\n        /* \"#utility.yul\":16238:17112   */\n      swap3\n      swap2\n      pop\n      pop\n      jump\t// out\n        /* \"#utility.yul\":17118:17387   */\n    tag_62:\n        /* \"#utility.yul\":17247:17250   */\n      0x00\n        /* \"#utility.yul\":17269:17361   */\n      tag_352\n        /* \"#utility.yul\":17357:17360   */\n      dup3\n        /* \"#utility.yul\":17348:17354   */\n      dup5\n        /* \"#utility.yul\":17269:17361   */\n      tag_169\n      jump\t// in\n    tag_352:\n        /* \"#utility.yul\":17262:17361   */\n      swap2\n      pop\n        /* \"#utility.yul\":17378:17381   */\n      dup2\n        /* \"#utility.yul\":17371:17381   */\n      swap1\n      pop\n        /* \"#utility.yul\":17118:17387   */\n      swap3\n      swap2\n      pop\n      pop\n      jump\t// out\n        /* \"#utility.yul\":17393:17573   */\n    tag_170:\n        /* \"#utility.yul\":17441:17518   */\n      0x4e487b7100000000000000000000000000000000000000000000000000000000\n        /* \"#utility.yul\":17438:17439   */\n      0x00\n        /* \"#utility.yul\":17431:17519   */\n      mstore\n        /* \"#utility.yul\":17538:17542   */\n      0x11\n        /* \"#utility.yul\":17535:17536   */\n      0x04\n        /* \"#utility.yul\":17528:17543   */\n      mstore\n        /* \"#utility.yul\":17562:17566   */\n      0x24\n        /* \"#utility.yul\":17559:17560   */\n      0x00\n        /* \"#utility.yul\":17552:17567   */\n      revert\n        /* \"#utility.yul\":17579:17770   */\n    tag_64:\n        /* \"#utility.yul\":17619:17622   */\n      0x00\n        /* \"#utility.yul\":17638:17658   */\n      tag_355\n        /* \"#utility.yul\":17656:17657   */\n      dup3\n        /* \"#utility.yul\":17638:17658   */\n      tag_131\n      jump\t// in\n    tag_355:\n        /* \"#utility.yul\":17633:17658   */\n      swap2\n      pop\n        /* \"#utility.yul\":17672:17692   */\n      tag_356\n        /* \"#utility.yul\":17690:17691   */\n      dup4\n        /* \"#utility.yul\":17672:17692   */\n      tag_131\n      jump\t// in\n    tag_356:\n        /* \"#utility.yul\":17667:17692   */\n      swap3\n      pop\n        /* \"#utility.yul\":17715:17716   */\n      dup3\n        /* \"#utility.yul\":17712:17713   */\n      dup3\n        /* \"#utility.yul\":17708:17717   */\n      add\n        /* \"#utility.yul\":17701:17717   */\n      swap1\n      pop\n        /* \"#utility.yul\":17736:17739   */\n      dup1\n        /* \"#utility.yul\":17733:17734   */\n      dup3\n        /* \"#utility.yul\":17730:17740   */\n      gt\n        /* \"#utility.yul\":17727:17763   */\n      iszero\n      tag_357\n      jumpi\n        /* \"#utility.yul\":17743:17761   */\n      tag_358\n      tag_170\n      jump\t// in\n    tag_358:\n        /* \"#utility.yul\":17727:17763   */\n    tag_357:\n        /* \"#utility.yul\":17579:17770   */\n      swap3\n      swap2\n      pop\n      pop\n      jump\t// out\n        /* \"#utility.yul\":17776:17946   */\n    tag_171:\n        /* \"#utility.yul\":17916:17938   */\n      0x55736572206e6f742077686974656c6973746564000000000000000000000000\n        /* \"#utility.yul\":17912:17913   */\n      0x00\n        /* \"#utility.yul\":17904:17910   */\n      dup3\n        /* \"#utility.yul\":17900:17914   */\n      add\n        /* \"#utility.yul\":17893:17939   */\n      mstore\n        /* \"#utility.yul\":17776:17946   */\n      pop\n      jump\t// out\n        /* \"#utility.yul\":17952:18318   */\n    tag_172:\n        /* \"#utility.yul\":18094:18097   */\n      0x00\n        /* \"#utility.yul\":18115:18182   */\n      tag_361\n        /* \"#utility.yul\":18179:18181   */\n      0x14\n        /* \"#utility.yul\":18174:18177   */\n      dup4\n        /* \"#utility.yul\":18115:18182   */\n      tag_134\n      jump\t// in\n    tag_361:\n        /* \"#utility.yul\":18108:18182   */\n      swap2\n      pop\n        /* \"#utility.yul\":18191:18284   */\n      tag_362\n        /* \"#utility.yul\":18280:18283   */\n      dup3\n        /* \"#utility.yul\":18191:18284   */\n      tag_171\n      jump\t// in\n    tag_362:\n        /* \"#utility.yul\":18309:18311   */\n      0x20\n        /* \"#utility.yul\":18304:18307   */\n      dup3\n        /* \"#utility.yul\":18300:18312   */\n      add\n        /* \"#utility.yul\":18293:18312   */\n      swap1\n      pop\n        /* \"#utility.yul\":17952:18318   */\n      swap2\n      swap1\n      pop\n      jump\t// out\n        /* \"#utility.yul\":18324:18743   */\n    tag_68:\n        /* \"#utility.yul\":18490:18494   */\n      0x00\n        /* \"#utility.yul\":18528:18530   */\n      0x20\n        /* \"#utility.yul\":18517:18526   */\n      dup3\n        /* \"#utility.yul\":18513:18531   */\n      add\n        /* \"#utility.yul\":18505:18531   */\n      swap1\n      pop\n        /* \"#utility.yul\":18577:18586   */\n      dup2\n        /* \"#utility.yul\":18571:18575   */\n      dup2\n        /* \"#utility.yul\":18567:18587   */\n      sub\n        /* \"#utility.yul\":18563:18564   */\n      0x00\n        /* \"#utility.yul\":18552:18561   */\n      dup4\n        /* \"#utility.yul\":18548:18565   */\n      add\n        /* \"#utility.yul\":18541:18588   */\n      mstore\n        /* \"#utility.yul\":18605:18736   */\n      tag_364\n        /* \"#utility.yul\":18731:18735   */\n      dup2\n        /* \"#utility.yul\":18605:18736   */\n      tag_172\n      jump\t// in\n    tag_364:\n        /* \"#utility.yul\":18597:18736   */\n      swap1\n      pop\n        /* \"#utility.yul\":18324:18743   */\n      swap2\n      swap1\n      pop\n      jump\t// out\n        /* \"#utility.yul\":18749:19024   */\n    tag_77:\n        /* \"#utility.yul\":18881:18884   */\n      0x00\n        /* \"#utility.yul\":18903:18998   */\n      tag_366\n        /* \"#utility.yul\":18994:18997   */\n      dup3\n        /* \"#utility.yul\":18985:18991   */\n      dup5\n        /* \"#utility.yul\":18903:18998   */\n      tag_152\n      jump\t// in\n    tag_366:\n        /* \"#utility.yul\":18896:18998   */\n      swap2\n      pop\n        /* \"#utility.yul\":19015:19018   */\n      dup2\n        /* \"#utility.yul\":19008:19018   */\n      swap1\n      pop\n        /* \"#utility.yul\":18749:19024   */\n      swap3\n      swap2\n      pop\n      pop\n      jump\t// out\n        /* \"#utility.yul\":19030:19198   */\n    tag_173:\n        /* \"#utility.yul\":19170:19190   */\n      0x4e616d65206e6f7420617661696c61626c650000000000000000000000000000\n        /* \"#utility.yul\":19166:19167   */\n      0x00\n        /* \"#utility.yul\":19158:19164   */\n      dup3\n        /* \"#utility.yul\":19154:19168   */\n      add\n        /* \"#utility.yul\":19147:19191   */\n      mstore\n        /* \"#utility.yul\":19030:19198   */\n      pop\n      jump\t// out\n        /* \"#utility.yul\":19204:19570   */\n    tag_174:\n        /* \"#utility.yul\":19346:19349   */\n      0x00\n        /* \"#utility.yul\":19367:19434   */\n      tag_369\n        /* \"#utility.yul\":19431:19433   */\n      0x12\n        /* \"#utility.yul\":19426:19429   */\n      dup4\n        /* \"#utility.yul\":19367:19434   */\n      tag_134\n      jump\t// in\n    tag_369:\n        /* \"#utility.yul\":19360:19434   */\n      swap2\n      pop\n        /* \"#utility.yul\":19443:19536   */\n      tag_370\n        /* \"#utility.yul\":19532:19535   */\n      dup3\n        /* \"#utility.yul\":19443:19536   */\n      tag_173\n      jump\t// in\n    tag_370:\n        /* \"#utility.yul\":19561:19563   */\n      0x20\n        /* \"#utility.yul\":19556:19559   */\n      dup3\n        /* \"#utility.yul\":19552:19564   */\n      add\n        /* \"#utility.yul\":19545:19564   */\n      swap1\n      pop\n        /* \"#utility.yul\":19204:19570   */\n      swap2\n      swap1\n      pop\n      jump\t// out\n        /* \"#utility.yul\":19576:19995   */\n    tag_80:\n        /* \"#utility.yul\":19742:19746   */\n      0x00\n        /* \"#utility.yul\":19780:19782   */\n      0x20\n        /* \"#utility.yul\":19769:19778   */\n      dup3\n        /* \"#utility.yul\":19765:19783   */\n      add\n        /* \"#utility.yul\":19757:19783   */\n      swap1\n      pop\n        /* \"#utility.yul\":19829:19838   */\n      dup2\n        /* \"#utility.yul\":19823:19827   */\n      dup2\n        /* \"#utility.yul\":19819:19839   */\n      sub\n        /* \"#utility.yul\":19815:19816   */\n      0x00\n        /* \"#utility.yul\":19804:19813   */\n      dup4\n        /* \"#utility.yul\":19800:19817   */\n      add\n        /* \"#utility.yul\":19793:19840   */\n      mstore\n        /* \"#utility.yul\":19857:19988   */\n      tag_372\n        /* \"#utility.yul\":19983:19987   */\n      dup2\n        /* \"#utility.yul\":19857:19988   */\n      tag_174\n      jump\t// in\n    tag_372:\n        /* \"#utility.yul\":19849:19988   */\n      swap1\n      pop\n        /* \"#utility.yul\":19576:19995   */\n      swap2\n      swap1\n      pop\n      jump\t// out\n        /* \"#utility.yul\":20001:20181   */\n    tag_94:\n        /* \"#utility.yul\":20049:20126   */\n      0x4e487b7100000000000000000000000000000000000000000000000000000000\n        /* \"#utility.yul\":20046:20047   */\n      0x00\n        /* \"#utility.yul\":20039:20127   */\n      mstore\n        /* \"#utility.yul\":20146:20150   */\n      0x12\n        /* \"#utility.yul\":20143:20144   */\n      0x04\n        /* \"#utility.yul\":20136:20151   */\n      mstore\n        /* \"#utility.yul\":20170:20174   */\n      0x24\n        /* \"#utility.yul\":20167:20168   */\n      0x00\n        /* \"#utility.yul\":20160:20175   */\n      revert\n\n    auxdata: 0xa264697066735822122004be819fb86d07f1dabf744040f71e70e3d70a1f7442a488ed31091191b56e5a64736f6c634300081a0033\n}\n",
				"bytecode": {
					"linkReferences": {},
					"object": "608060405234801561000f575f80fd5b50604051611f23380380611f2383398181016040528101906100319190610418565b335f80015f6101000a81548173ffffffffffffffffffffffffffffffffffffffff021916908373ffffffffffffffffffffffffffffffffffffffff1602179055505f8060010181905550805f600201908161008c919061066c565b505f60045f3373ffffffffffffffffffffffffffffffffffffffff1673ffffffffffffffffffffffffffffffffffffffff1681526020019081526020015f205f82015f9054906101000a900473ffffffffffffffffffffffffffffffffffffffff16815f015f6101000a81548173ffffffffffffffffffffffffffffffffffffffff021916908373ffffffffffffffffffffffffffffffffffffffff160217905550600182015481600101556002820181600201908161014c9190610750565b50905050600160055f805f015f9054906101000a900473ffffffffffffffffffffffffffffffffffffffff1673ffffffffffffffffffffffffffffffffffffffff1673ffffffffffffffffffffffffffffffffffffffff1681526020019081526020015f205f6101000a81548160ff0219169083151502179055505f80015f9054906101000a900473ffffffffffffffffffffffffffffffffffffffff1660065f806001015481526020019081526020015f205f6101000a81548173ffffffffffffffffffffffffffffffffffffffff021916908373ffffffffffffffffffffffffffffffffffffffff1602179055505f80015f9054906101000a900473ffffffffffffffffffffffffffffffffffffffff1660075f60020160405161027291906108bf565b90815260200160405180910390205f6101000a81548173ffffffffffffffffffffffffffffffffffffffff021916908373ffffffffffffffffffffffffffffffffffffffff1602179055506001600881905550506108d5565b5f604051905090565b5f80fd5b5f80fd5b5f80fd5b5f80fd5b5f601f19601f8301169050919050565b7f4e487b71000000000000000000000000000000000000000000000000000000005f52604160045260245ffd5b61032a826102e4565b810181811067ffffffffffffffff82111715610349576103486102f4565b5b80604052505050565b5f61035b6102cb565b90506103678282610321565b919050565b5f67ffffffffffffffff821115610386576103856102f4565b5b61038f826102e4565b9050602081019050919050565b8281835e5f83830152505050565b5f6103bc6103b78461036c565b610352565b9050828152602081018484840111156103d8576103d76102e0565b5b6103e384828561039c565b509392505050565b5f82601f8301126103ff576103fe6102dc565b5b815161040f8482602086016103aa565b91505092915050565b5f6020828403121561042d5761042c6102d4565b5b5f82015167ffffffffffffffff81111561044a576104496102d8565b5b610456848285016103eb565b91505092915050565b5f81519050919050565b7f4e487b71000000000000000000000000000000000000000000000000000000005f52602260045260245ffd5b5f60028204905060018216806104ad57607f821691505b6020821081036104c0576104bf610469565b5b50919050565b5f819050815f5260205f209050919050565b5f6020601f8301049050919050565b5f82821b905092915050565b5f600883026105227fffffffffffffffffffffffffffffffffffffffffffffffffffffffffffffffff826104e7565b61052c86836104e7565b95508019841693508086168417925050509392505050565b5f819050919050565b5f819050919050565b5f61057061056b61056684610544565b61054d565b610544565b9050919050565b5f819050919050565b61058983610556565b61059d61059582610577565b8484546104f3565b825550505050565b5f90565b6105b16105a5565b6105bc818484610580565b505050565b5b818110156105df576105d45f826105a9565b6001810190506105c2565b5050565b601f821115610624576105f5816104c6565b6105fe846104d8565b8101602085101561060d578190505b610621610619856104d8565b8301826105c1565b50505b505050565b5f82821c905092915050565b5f6106445f1984600802610629565b1980831691505092915050565b5f61065c8383610635565b9150826002028217905092915050565b6106758261045f565b67ffffffffffffffff81111561068e5761068d6102f4565b5b6106988254610496565b6106a38282856105e3565b5f60209050601f8311600181146106d4575f84156106c2578287015190505b6106cc8582610651565b865550610733565b601f1984166106e2866104c6565b5f5b82811015610709578489015182556001820191506020850194506020810190506106e4565b868310156107265784890151610722601f891682610635565b8355505b6001600288020188555050505b505050505050565b5f8154905061074981610496565b9050919050565b81810361075e575050610833565b6107678261073b565b67ffffffffffffffff8111156107805761077f6102f4565b5b61078a8254610496565b6107958282856105e3565b5f601f8311600181146107c2575f84156107b0578287015490505b6107ba8582610651565b86555061082c565b601f1984166107d0876104c6565b96506107db866104c6565b5f5b82811015610802578489015482556001820191506001850194506020810190506107dd565b8683101561081f578489015461081b601f891682610635565b8355505b6001600288020188555050505b5050505050505b565b5f81905092915050565b5f815461084b81610496565b6108558186610835565b9450600182165f811461086f5760018114610884576108b6565b60ff19831686528115158202860193506108b6565b61088d856104c6565b5f5b838110156108ae5781548189015260018201915060208101905061088f565b838801955050505b50505092915050565b5f6108ca828461083f565b915081905092915050565b611641806108e25f395ff3fe608060405234801561000f575f80fd5b5060043610610060575f3560e01c80633561c68814610064578063a3e5b0b214610082578063a83439f8146100a0578063b65e8519146100bc578063be8743f9146100da578063e349cb121461010a575b5f80fd5b61006c610126565b6040516100799190610be1565b60405180910390f35b61008a61014f565b6040516100979190610cb1565b60405180910390f35b6100ba60048036038101906100b59190610d0c565b610310565b005b6100c461069e565b6040516100d19190610d4f565b60405180910390f35b6100f460048036038101906100ef9190610d0c565b6106a4565b6040516101019190610dd8565b60405180910390f35b610124600480360381019061011f9190610f24565b6107fd565b005b5f805f015f9054906101000a900473ffffffffffffffffffffffffffffffffffffffff16905090565b60605f60085467ffffffffffffffff81111561016e5761016d610e00565b5b60405190808252806020026020018201604052801561019c5781602001602082028036833780820191505090505b5090505f80015f9054906101000a900473ffffffffffffffffffffffffffffffffffffffff16815f815181106101d5576101d4610f6b565b5b602002602001019073ffffffffffffffffffffffffffffffffffffffff16908173ffffffffffffffffffffffffffffffffffffffff16815250505f600190505b6008548110156103085760045f60065f8481526020019081526020015f205f9054906101000a900473ffffffffffffffffffffffffffffffffffffffff1673ffffffffffffffffffffffffffffffffffffffff1673ffffffffffffffffffffffffffffffffffffffff1681526020019081526020015f205f015f9054906101000a900473ffffffffffffffffffffffffffffffffffffffff168282815181106102c1576102c0610f6b565b5b602002602001019073ffffffffffffffffffffffffffffffffffffffff16908173ffffffffffffffffffffffffffffffffffffffff16815250508080600101915050610215565b508091505090565b5f80015f9054906101000a900473ffffffffffffffffffffffffffffffffffffffff1673ffffffffffffffffffffffffffffffffffffffff163373ffffffffffffffffffffffffffffffffffffffff16146103a0576040517f08c379a000000000000000000000000000000000000000000000000000000000815260040161039790611008565b60405180910390fd5b60055f8273ffffffffffffffffffffffffffffffffffffffff1673ffffffffffffffffffffffffffffffffffffffff1681526020019081526020015f205f9054906101000a900460ff161561042a576040517f08c379a000000000000000000000000000000000000000000000000000000000815260040161042190611096565b60405180910390fd5b5f60045f8373ffffffffffffffffffffffffffffffffffffffff1673ffffffffffffffffffffffffffffffffffffffff1681526020019081526020015f20905081815f015f6101000a81548173ffffffffffffffffffffffffffffffffffffffff021916908373ffffffffffffffffffffffffffffffffffffffff16021790555060085481600101819055506104c38160010154610987565b6040516020016104d39190611114565b6040516020818303038152906040528160020190816104f29190611333565b50600160055f8473ffffffffffffffffffffffffffffffffffffffff1673ffffffffffffffffffffffffffffffffffffffff1681526020019081526020015f205f6101000a81548160ff021916908315150217905550805f015f9054906101000a900473ffffffffffffffffffffffffffffffffffffffff1660065f836001015481526020019081526020015f205f6101000a81548173ffffffffffffffffffffffffffffffffffffffff021916908373ffffffffffffffffffffffffffffffffffffffff160217905550805f015f9054906101000a900473ffffffffffffffffffffffffffffffffffffffff166007826002016040516105f39190611482565b90815260200160405180910390205f6101000a81548173ffffffffffffffffffffffffffffffffffffffff021916908373ffffffffffffffffffffffffffffffffffffffff160217905550600160085f82825461065091906114c5565b925050819055508173ffffffffffffffffffffffffffffffffffffffff167fa5b2fe64d20495a2e0d6041ec2ddc2c9e4ca72b8222327284d33bd40e878673160405160405180910390a25050565b60085481565b606060055f8373ffffffffffffffffffffffffffffffffffffffff1673ffffffffffffffffffffffffffffffffffffffff1681526020019081526020015f205f9054906101000a900460ff1661072f576040517f08c379a000000000000000000000000000000000000000000000000000000000815260040161072690611542565b60405180910390fd5b60045f8373ffffffffffffffffffffffffffffffffffffffff1673ffffffffffffffffffffffffffffffffffffffff1681526020019081526020015f20600201805461077a90611166565b80601f01602080910402602001604051908101604052809291908181526020018280546107a690611166565b80156107f15780601f106107c8576101008083540402835291602001916107f1565b820191905f5260205f20905b8154815290600101906020018083116107d457829003601f168201915b50505050509050919050565b5f73ffffffffffffffffffffffffffffffffffffffff166007826040516108249190611560565b90815260200160405180910390205f9054906101000a900473ffffffffffffffffffffffffffffffffffffffff1673ffffffffffffffffffffffffffffffffffffffff16146108a8576040517f08c379a000000000000000000000000000000000000000000000000000000000815260040161089f906115c0565b60405180910390fd5b60055f3373ffffffffffffffffffffffffffffffffffffffff1673ffffffffffffffffffffffffffffffffffffffff1681526020019081526020015f205f9054906101000a900460ff16610931576040517f08c379a000000000000000000000000000000000000000000000000000000000815260040161092890611542565b60405180910390fd5b5f60045f3373ffffffffffffffffffffffffffffffffffffffff1673ffffffffffffffffffffffffffffffffffffffff1681526020019081526020015f209050818160020190816109829190611333565b505050565b60605f600161099584610a51565b0190505f8167ffffffffffffffff8111156109b3576109b2610e00565b5b6040519080825280601f01601f1916602001820160405280156109e55781602001600182028036833780820191505090505b5090505f82602001820190505b600115610a46578080600190039150507f3031323334353637383961626364656600000000000000000000000000000000600a86061a8153600a8581610a3b57610a3a6115de565b5b0494505f85036109f2575b819350505050919050565b5f805f90507a184f03e93ff9f4daa797ed6e38ed64bf6a1f0100000000000000008310610aad577a184f03e93ff9f4daa797ed6e38ed64bf6a1f0100000000000000008381610aa357610aa26115de565b5b0492506040810190505b6d04ee2d6d415b85acef81000000008310610aea576d04ee2d6d415b85acef81000000008381610ae057610adf6115de565b5b0492506020810190505b662386f26fc100008310610b1957662386f26fc100008381610b0f57610b0e6115de565b5b0492506010810190505b6305f5e1008310610b42576305f5e1008381610b3857610b376115de565b5b0492506008810190505b6127108310610b67576127108381610b5d57610b5c6115de565b5b0492506004810190505b60648310610b8a5760648381610b8057610b7f6115de565b5b0492506002810190505b600a8310610b99576001810190505b80915050919050565b5f73ffffffffffffffffffffffffffffffffffffffff82169050919050565b5f610bcb82610ba2565b9050919050565b610bdb81610bc1565b82525050565b5f602082019050610bf45f830184610bd2565b92915050565b5f81519050919050565b5f82825260208201905092915050565b5f819050602082019050919050565b610c2c81610bc1565b82525050565b5f610c3d8383610c23565b60208301905092915050565b5f602082019050919050565b5f610c5f82610bfa565b610c698185610c04565b9350610c7483610c14565b805f5b83811015610ca4578151610c8b8882610c32565b9750610c9683610c49565b925050600181019050610c77565b5085935050505092915050565b5f6020820190508181035f830152610cc98184610c55565b905092915050565b5f604051905090565b5f80fd5b5f80fd5b610ceb81610bc1565b8114610cf5575f80fd5b50565b5f81359050610d0681610ce2565b92915050565b5f60208284031215610d2157610d20610cda565b5b5f610d2e84828501610cf8565b91505092915050565b5f819050919050565b610d4981610d37565b82525050565b5f602082019050610d625f830184610d40565b92915050565b5f81519050919050565b5f82825260208201905092915050565b8281835e5f83830152505050565b5f601f19601f8301169050919050565b5f610daa82610d68565b610db48185610d72565b9350610dc4818560208601610d82565b610dcd81610d90565b840191505092915050565b5f6020820190508181035f830152610df08184610da0565b905092915050565b5f80fd5b5f80fd5b7f4e487b71000000000000000000000000000000000000000000000000000000005f52604160045260245ffd5b610e3682610d90565b810181811067ffffffffffffffff82111715610e5557610e54610e00565b5b80604052505050565b5f610e67610cd1565b9050610e738282610e2d565b919050565b5f67ffffffffffffffff821115610e9257610e91610e00565b5b610e9b82610d90565b9050602081019050919050565b828183375f83830152505050565b5f610ec8610ec384610e78565b610e5e565b905082815260208101848484011115610ee457610ee3610dfc565b5b610eef848285610ea8565b509392505050565b5f82601f830112610f0b57610f0a610df8565b5b8135610f1b848260208601610eb6565b91505092915050565b5f60208284031215610f3957610f38610cda565b5b5f82013567ffffffffffffffff811115610f5657610f55610cde565b5b610f6284828501610ef7565b91505092915050565b7f4e487b71000000000000000000000000000000000000000000000000000000005f52603260045260245ffd5b7f4f6e6c79206f776e65722063616e2077686974656c69737420746865207573655f8201527f7200000000000000000000000000000000000000000000000000000000000000602082015250565b5f610ff2602183610d72565b9150610ffd82610f98565b604082019050919050565b5f6020820190508181035f83015261101f81610fe6565b9050919050565b7f54686520616464726573732068617320616c7265616479206265656e207768695f8201527f74656c6973746564000000000000000000000000000000000000000000000000602082015250565b5f611080602883610d72565b915061108b82611026565b604082019050919050565b5f6020820190508181035f8301526110ad81611074565b9050919050565b7f5573657220000000000000000000000000000000000000000000000000000000815250565b5f81905092915050565b5f6110ee82610d68565b6110f881856110da565b9350611108818560208601610d82565b80840191505092915050565b5f61111e826110b4565b60058201915061112e82846110e4565b915081905092915050565b7f4e487b71000000000000000000000000000000000000000000000000000000005f52602260045260245ffd5b5f600282049050600182168061117d57607f821691505b6020821081036111905761118f611139565b5b50919050565b5f819050815f5260205f209050919050565b5f6020601f8301049050919050565b5f82821b905092915050565b5f600883026111f27fffffffffffffffffffffffffffffffffffffffffffffffffffffffffffffffff826111b7565b6111fc86836111b7565b95508019841693508086168417925050509392505050565b5f819050919050565b5f61123761123261122d84610d37565b611214565b610d37565b9050919050565b5f819050919050565b6112508361121d565b61126461125c8261123e565b8484546111c3565b825550505050565b5f90565b61127861126c565b611283818484611247565b505050565b5b818110156112a65761129b5f82611270565b600181019050611289565b5050565b601f8211156112eb576112bc81611196565b6112c5846111a8565b810160208510156112d4578190505b6112e86112e0856111a8565b830182611288565b50505b505050565b5f82821c905092915050565b5f61130b5f19846008026112f0565b1980831691505092915050565b5f61132383836112fc565b9150826002028217905092915050565b61133c82610d68565b67ffffffffffffffff81111561135557611354610e00565b5b61135f8254611166565b61136a8282856112aa565b5f60209050601f83116001811461139b575f8415611389578287015190505b6113938582611318565b8655506113fa565b601f1984166113a986611196565b5f5b828110156113d0578489015182556001820191506020850194506020810190506113ab565b868310156113ed57848901516113e9601f8916826112fc565b8355505b6001600288020188555050505b505050505050565b5f815461140e81611166565b61141881866110da565b9450600182165f8114611432576001811461144757611479565b60ff1983168652811515820286019350611479565b61145085611196565b5f5b8381101561147157815481890152600182019150602081019050611452565b838801955050505b50505092915050565b5f61148d8284611402565b915081905092915050565b7f4e487b71000000000000000000000000000000000000000000000000000000005f52601160045260245ffd5b5f6114cf82610d37565b91506114da83610d37565b92508282019050808211156114f2576114f1611498565b5b92915050565b7f55736572206e6f742077686974656c69737465640000000000000000000000005f82015250565b5f61152c601483610d72565b9150611537826114f8565b602082019050919050565b5f6020820190508181035f83015261155981611520565b9050919050565b5f61156b82846110e4565b915081905092915050565b7f4e616d65206e6f7420617661696c61626c6500000000000000000000000000005f82015250565b5f6115aa601283610d72565b91506115b582611576565b602082019050919050565b5f6020820190508181035f8301526115d78161159e565b9050919050565b7f4e487b71000000000000000000000000000000000000000000000000000000005f52601260045260245ffdfea264697066735822122004be819fb86d07f1dabf744040f71e70e3d70a1f7442a488ed31091191b56e5a64736f6c634300081a0033",
					"opcodes": "PUSH1 0x80 PUSH1 0x40 MSTORE CALLVALUE DUP1 ISZERO PUSH2 0xF JUMPI PUSH0 DUP1 REVERT JUMPDEST POP PUSH1 0x40 MLOAD PUSH2 0x1F23 CODESIZE SUB DUP1 PUSH2 0x1F23 DUP4 CODECOPY DUP2 DUP2 ADD PUSH1 0x40 MSTORE DUP2 ADD SWAP1 PUSH2 0x31 SWAP2 SWAP1 PUSH2 0x418 JUMP JUMPDEST CALLER PUSH0 DUP1 ADD PUSH0 PUSH2 0x100 EXP DUP2 SLOAD DUP2 PUSH20 0xFFFFFFFFFFFFFFFFFFFFFFFFFFFFFFFFFFFFFFFF MUL NOT AND SWAP1 DUP4 PUSH20 0xFFFFFFFFFFFFFFFFFFFFFFFFFFFFFFFFFFFFFFFF AND MUL OR SWAP1 SSTORE POP PUSH0 DUP1 PUSH1 0x1 ADD DUP2 SWAP1 SSTORE POP DUP1 PUSH0 PUSH1 0x2 ADD SWAP1 DUP2 PUSH2 0x8C SWAP2 SWAP1 PUSH2 0x66C JUMP JUMPDEST POP PUSH0 PUSH1 0x4 PUSH0 CALLER PUSH20 0xFFFFFFFFFFFFFFFFFFFFFFFFFFFFFFFFFFFFFFFF AND PUSH20 0xFFFFFFFFFFFFFFFFFFFFFFFFFFFFFFFFFFFFFFFF AND DUP2 MSTORE PUSH1 0x20 ADD SWAP1 DUP2 MSTORE PUSH1 0x20 ADD PUSH0 KECCAK256 PUSH0 DUP3 ADD PUSH0 SWAP1 SLOAD SWAP1 PUSH2 0x100 EXP SWAP1 DIV PUSH20 0xFFFFFFFFFFFFFFFFFFFFFFFFFFFFFFFFFFFFFFFF AND DUP2 PUSH0 ADD PUSH0 PUSH2 0x100 EXP DUP2 SLOAD DUP2 PUSH20 0xFFFFFFFFFFFFFFFFFFFFFFFFFFFFFFFFFFFFFFFF MUL NOT AND SWAP1 DUP4 PUSH20 0xFFFFFFFFFFFFFFFFFFFFFFFFFFFFFFFFFFFFFFFF AND MUL OR SWAP1 SSTORE POP PUSH1 0x1 DUP3 ADD SLOAD DUP2 PUSH1 0x1 ADD SSTORE PUSH1 0x2 DUP3 ADD DUP2 PUSH1 0x2 ADD SWAP1 DUP2 PUSH2 0x14C SWAP2 SWAP1 PUSH2 0x750 JUMP JUMPDEST POP SWAP1 POP POP PUSH1 0x1 PUSH1 0x5 PUSH0 DUP1 PUSH0 ADD PUSH0 SWAP1 SLOAD SWAP1 PUSH2 0x100 EXP SWAP1 DIV PUSH20 0xFFFFFFFFFFFFFFFFFFFFFFFFFFFFFFFFFFFFFFFF AND PUSH20 0xFFFFFFFFFFFFFFFFFFFFFFFFFFFFFFFFFFFFFFFF AND PUSH20 0xFFFFFFFFFFFFFFFFFFFFFFFFFFFFFFFFFFFFFFFF AND DUP2 MSTORE PUSH1 0x20 ADD SWAP1 DUP2 MSTORE PUSH1 0x20 ADD PUSH0 KECCAK256 PUSH0 PUSH2 0x100 EXP DUP2 SLOAD DUP2 PUSH1 0xFF MUL NOT AND SWAP1 DUP4 ISZERO ISZERO MUL OR SWAP1 SSTORE POP PUSH0 DUP1 ADD PUSH0 SWAP1 SLOAD SWAP1 PUSH2 0x100 EXP SWAP1 DIV PUSH20 0xFFFFFFFFFFFFFFFFFFFFFFFFFFFFFFFFFFFFFFFF AND PUSH1 0x6 PUSH0 DUP1 PUSH1 0x1 ADD SLOAD DUP2 MSTORE PUSH1 0x20 ADD SWAP1 DUP2 MSTORE PUSH1 0x20 ADD PUSH0 KECCAK256 PUSH0 PUSH2 0x100 EXP DUP2 SLOAD DUP2 PUSH20 0xFFFFFFFFFFFFFFFFFFFFFFFFFFFFFFFFFFFFFFFF MUL NOT AND SWAP1 DUP4 PUSH20 0xFFFFFFFFFFFFFFFFFFFFFFFFFFFFFFFFFFFFFFFF AND MUL OR SWAP1 SSTORE POP PUSH0 DUP1 ADD PUSH0 SWAP1 SLOAD SWAP1 PUSH2 0x100 EXP SWAP1 DIV PUSH20 0xFFFFFFFFFFFFFFFFFFFFFFFFFFFFFFFFFFFFFFFF AND PUSH1 0x7 PUSH0 PUSH1 0x2 ADD PUSH1 0x40 MLOAD PUSH2 0x272 SWAP2 SWAP1 PUSH2 0x8BF JUMP JUMPDEST SWAP1 DUP2 MSTORE PUSH1 0x20 ADD PUSH1 0x40 MLOAD DUP1 SWAP2 SUB SWAP1 KECCAK256 PUSH0 PUSH2 0x100 EXP DUP2 SLOAD DUP2 PUSH20 0xFFFFFFFFFFFFFFFFFFFFFFFFFFFFFFFFFFFFFFFF MUL NOT AND SWAP1 DUP4 PUSH20 0xFFFFFFFFFFFFFFFFFFFFFFFFFFFFFFFFFFFFFFFF AND MUL OR SWAP1 SSTORE POP PUSH1 0x1 PUSH1 0x8 DUP2 SWAP1 SSTORE POP POP PUSH2 0x8D5 JUMP JUMPDEST PUSH0 PUSH1 0x40 MLOAD SWAP1 POP SWAP1 JUMP JUMPDEST PUSH0 DUP1 REVERT JUMPDEST PUSH0 DUP1 REVERT JUMPDEST PUSH0 DUP1 REVERT JUMPDEST PUSH0 DUP1 REVERT JUMPDEST PUSH0 PUSH1 0x1F NOT PUSH1 0x1F DUP4 ADD AND SWAP1 POP SWAP2 SWAP1 POP JUMP JUMPDEST PUSH32 0x4E487B7100000000000000000000000000000000000000000000000000000000 PUSH0 MSTORE PUSH1 0x41 PUSH1 0x4 MSTORE PUSH1 0x24 PUSH0 REVERT JUMPDEST PUSH2 0x32A DUP3 PUSH2 0x2E4 JUMP JUMPDEST DUP2 ADD DUP2 DUP2 LT PUSH8 0xFFFFFFFFFFFFFFFF DUP3 GT OR ISZERO PUSH2 0x349 JUMPI PUSH2 0x348 PUSH2 0x2F4 JUMP JUMPDEST JUMPDEST DUP1 PUSH1 0x40 MSTORE POP POP POP JUMP JUMPDEST PUSH0 PUSH2 0x35B PUSH2 0x2CB JUMP JUMPDEST SWAP1 POP PUSH2 0x367 DUP3 DUP3 PUSH2 0x321 JUMP JUMPDEST SWAP2 SWAP1 POP JUMP JUMPDEST PUSH0 PUSH8 0xFFFFFFFFFFFFFFFF DUP3 GT ISZERO PUSH2 0x386 JUMPI PUSH2 0x385 PUSH2 0x2F4 JUMP JUMPDEST JUMPDEST PUSH2 0x38F DUP3 PUSH2 0x2E4 JUMP JUMPDEST SWAP1 POP PUSH1 0x20 DUP2 ADD SWAP1 POP SWAP2 SWAP1 POP JUMP JUMPDEST DUP3 DUP2 DUP4 MCOPY PUSH0 DUP4 DUP4 ADD MSTORE POP POP POP JUMP JUMPDEST PUSH0 PUSH2 0x3BC PUSH2 0x3B7 DUP5 PUSH2 0x36C JUMP JUMPDEST PUSH2 0x352 JUMP JUMPDEST SWAP1 POP DUP3 DUP2 MSTORE PUSH1 0x20 DUP2 ADD DUP5 DUP5 DUP5 ADD GT ISZERO PUSH2 0x3D8 JUMPI PUSH2 0x3D7 PUSH2 0x2E0 JUMP JUMPDEST JUMPDEST PUSH2 0x3E3 DUP5 DUP3 DUP6 PUSH2 0x39C JUMP JUMPDEST POP SWAP4 SWAP3 POP POP POP JUMP JUMPDEST PUSH0 DUP3 PUSH1 0x1F DUP4 ADD SLT PUSH2 0x3FF JUMPI PUSH2 0x3FE PUSH2 0x2DC JUMP JUMPDEST JUMPDEST DUP2 MLOAD PUSH2 0x40F DUP5 DUP3 PUSH1 0x20 DUP7 ADD PUSH2 0x3AA JUMP JUMPDEST SWAP2 POP POP SWAP3 SWAP2 POP POP JUMP JUMPDEST PUSH0 PUSH1 0x20 DUP3 DUP5 SUB SLT ISZERO PUSH2 0x42D JUMPI PUSH2 0x42C PUSH2 0x2D4 JUMP JUMPDEST JUMPDEST PUSH0 DUP3 ADD MLOAD PUSH8 0xFFFFFFFFFFFFFFFF DUP2 GT ISZERO PUSH2 0x44A JUMPI PUSH2 0x449 PUSH2 0x2D8 JUMP JUMPDEST JUMPDEST PUSH2 0x456 DUP5 DUP3 DUP6 ADD PUSH2 0x3EB JUMP JUMPDEST SWAP2 POP POP SWAP3 SWAP2 POP POP JUMP JUMPDEST PUSH0 DUP2 MLOAD SWAP1 POP SWAP2 SWAP1 POP JUMP JUMPDEST PUSH32 0x4E487B7100000000000000000000000000000000000000000000000000000000 PUSH0 MSTORE PUSH1 0x22 PUSH1 0x4 MSTORE PUSH1 0x24 PUSH0 REVERT JUMPDEST PUSH0 PUSH1 0x2 DUP3 DIV SWAP1 POP PUSH1 0x1 DUP3 AND DUP1 PUSH2 0x4AD JUMPI PUSH1 0x7F DUP3 AND SWAP2 POP JUMPDEST PUSH1 0x20 DUP3 LT DUP2 SUB PUSH2 0x4C0 JUMPI PUSH2 0x4BF PUSH2 0x469 JUMP JUMPDEST JUMPDEST POP SWAP2 SWAP1 POP JUMP JUMPDEST PUSH0 DUP2 SWAP1 POP DUP2 PUSH0 MSTORE PUSH1 0x20 PUSH0 KECCAK256 SWAP1 POP SWAP2 SWAP1 POP JUMP JUMPDEST PUSH0 PUSH1 0x20 PUSH1 0x1F DUP4 ADD DIV SWAP1 POP SWAP2 SWAP1 POP JUMP JUMPDEST PUSH0 DUP3 DUP3 SHL SWAP1 POP SWAP3 SWAP2 POP POP JUMP JUMPDEST PUSH0 PUSH1 0x8 DUP4 MUL PUSH2 0x522 PUSH32 0xFFFFFFFFFFFFFFFFFFFFFFFFFFFFFFFFFFFFFFFFFFFFFFFFFFFFFFFFFFFFFFFF DUP3 PUSH2 0x4E7 JUMP JUMPDEST PUSH2 0x52C DUP7 DUP4 PUSH2 0x4E7 JUMP JUMPDEST SWAP6 POP DUP1 NOT DUP5 AND SWAP4 POP DUP1 DUP7 AND DUP5 OR SWAP3 POP POP POP SWAP4 SWAP3 POP POP POP JUMP JUMPDEST PUSH0 DUP2 SWAP1 POP SWAP2 SWAP1 POP JUMP JUMPDEST PUSH0 DUP2 SWAP1 POP SWAP2 SWAP1 POP JUMP JUMPDEST PUSH0 PUSH2 0x570 PUSH2 0x56B PUSH2 0x566 DUP5 PUSH2 0x544 JUMP JUMPDEST PUSH2 0x54D JUMP JUMPDEST PUSH2 0x544 JUMP JUMPDEST SWAP1 POP SWAP2 SWAP1 POP JUMP JUMPDEST PUSH0 DUP2 SWAP1 POP SWAP2 SWAP1 POP JUMP JUMPDEST PUSH2 0x589 DUP4 PUSH2 0x556 JUMP JUMPDEST PUSH2 0x59D PUSH2 0x595 DUP3 PUSH2 0x577 JUMP JUMPDEST DUP5 DUP5 SLOAD PUSH2 0x4F3 JUMP JUMPDEST DUP3 SSTORE POP POP POP POP JUMP JUMPDEST PUSH0 SWAP1 JUMP JUMPDEST PUSH2 0x5B1 PUSH2 0x5A5 JUMP JUMPDEST PUSH2 0x5BC DUP2 DUP5 DUP5 PUSH2 0x580 JUMP JUMPDEST POP POP POP JUMP JUMPDEST JUMPDEST DUP2 DUP2 LT ISZERO PUSH2 0x5DF JUMPI PUSH2 0x5D4 PUSH0 DUP3 PUSH2 0x5A9 JUMP JUMPDEST PUSH1 0x1 DUP2 ADD SWAP1 POP PUSH2 0x5C2 JUMP JUMPDEST POP POP JUMP JUMPDEST PUSH1 0x1F DUP3 GT ISZERO PUSH2 0x624 JUMPI PUSH2 0x5F5 DUP2 PUSH2 0x4C6 JUMP JUMPDEST PUSH2 0x5FE DUP5 PUSH2 0x4D8 JUMP JUMPDEST DUP2 ADD PUSH1 0x20 DUP6 LT ISZERO PUSH2 0x60D JUMPI DUP2 SWAP1 POP JUMPDEST PUSH2 0x621 PUSH2 0x619 DUP6 PUSH2 0x4D8 JUMP JUMPDEST DUP4 ADD DUP3 PUSH2 0x5C1 JUMP JUMPDEST POP POP JUMPDEST POP POP POP JUMP JUMPDEST PUSH0 DUP3 DUP3 SHR SWAP1 POP SWAP3 SWAP2 POP POP JUMP JUMPDEST PUSH0 PUSH2 0x644 PUSH0 NOT DUP5 PUSH1 0x8 MUL PUSH2 0x629 JUMP JUMPDEST NOT DUP1 DUP4 AND SWAP2 POP POP SWAP3 SWAP2 POP POP JUMP JUMPDEST PUSH0 PUSH2 0x65C DUP4 DUP4 PUSH2 0x635 JUMP JUMPDEST SWAP2 POP DUP3 PUSH1 0x2 MUL DUP3 OR SWAP1 POP SWAP3 SWAP2 POP POP JUMP JUMPDEST PUSH2 0x675 DUP3 PUSH2 0x45F JUMP JUMPDEST PUSH8 0xFFFFFFFFFFFFFFFF DUP2 GT ISZERO PUSH2 0x68E JUMPI PUSH2 0x68D PUSH2 0x2F4 JUMP JUMPDEST JUMPDEST PUSH2 0x698 DUP3 SLOAD PUSH2 0x496 JUMP JUMPDEST PUSH2 0x6A3 DUP3 DUP3 DUP6 PUSH2 0x5E3 JUMP JUMPDEST PUSH0 PUSH1 0x20 SWAP1 POP PUSH1 0x1F DUP4 GT PUSH1 0x1 DUP2 EQ PUSH2 0x6D4 JUMPI PUSH0 DUP5 ISZERO PUSH2 0x6C2 JUMPI DUP3 DUP8 ADD MLOAD SWAP1 POP JUMPDEST PUSH2 0x6CC DUP6 DUP3 PUSH2 0x651 JUMP JUMPDEST DUP7 SSTORE POP PUSH2 0x733 JUMP JUMPDEST PUSH1 0x1F NOT DUP5 AND PUSH2 0x6E2 DUP7 PUSH2 0x4C6 JUMP JUMPDEST PUSH0 JUMPDEST DUP3 DUP2 LT ISZERO PUSH2 0x709 JUMPI DUP5 DUP10 ADD MLOAD DUP3 SSTORE PUSH1 0x1 DUP3 ADD SWAP2 POP PUSH1 0x20 DUP6 ADD SWAP5 POP PUSH1 0x20 DUP2 ADD SWAP1 POP PUSH2 0x6E4 JUMP JUMPDEST DUP7 DUP4 LT ISZERO PUSH2 0x726 JUMPI DUP5 DUP10 ADD MLOAD PUSH2 0x722 PUSH1 0x1F DUP10 AND DUP3 PUSH2 0x635 JUMP JUMPDEST DUP4 SSTORE POP JUMPDEST PUSH1 0x1 PUSH1 0x2 DUP9 MUL ADD DUP9 SSTORE POP POP POP JUMPDEST POP POP POP POP POP POP JUMP JUMPDEST PUSH0 DUP2 SLOAD SWAP1 POP PUSH2 0x749 DUP2 PUSH2 0x496 JUMP JUMPDEST SWAP1 POP SWAP2 SWAP1 POP JUMP JUMPDEST DUP2 DUP2 SUB PUSH2 0x75E JUMPI POP POP PUSH2 0x833 JUMP JUMPDEST PUSH2 0x767 DUP3 PUSH2 0x73B JUMP JUMPDEST PUSH8 0xFFFFFFFFFFFFFFFF DUP2 GT ISZERO PUSH2 0x780 JUMPI PUSH2 0x77F PUSH2 0x2F4 JUMP JUMPDEST JUMPDEST PUSH2 0x78A DUP3 SLOAD PUSH2 0x496 JUMP JUMPDEST PUSH2 0x795 DUP3 DUP3 DUP6 PUSH2 0x5E3 JUMP JUMPDEST PUSH0 PUSH1 0x1F DUP4 GT PUSH1 0x1 DUP2 EQ PUSH2 0x7C2 JUMPI PUSH0 DUP5 ISZERO PUSH2 0x7B0 JUMPI DUP3 DUP8 ADD SLOAD SWAP1 POP JUMPDEST PUSH2 0x7BA DUP6 DUP3 PUSH2 0x651 JUMP JUMPDEST DUP7 SSTORE POP PUSH2 0x82C JUMP JUMPDEST PUSH1 0x1F NOT DUP5 AND PUSH2 0x7D0 DUP8 PUSH2 0x4C6 JUMP JUMPDEST SWAP7 POP PUSH2 0x7DB DUP7 PUSH2 0x4C6 JUMP JUMPDEST PUSH0 JUMPDEST DUP3 DUP2 LT ISZERO PUSH2 0x802 JUMPI DUP5 DUP10 ADD SLOAD DUP3 SSTORE PUSH1 0x1 DUP3 ADD SWAP2 POP PUSH1 0x1 DUP6 ADD SWAP5 POP PUSH1 0x20 DUP2 ADD SWAP1 POP PUSH2 0x7DD JUMP JUMPDEST DUP7 DUP4 LT ISZERO PUSH2 0x81F JUMPI DUP5 DUP10 ADD SLOAD PUSH2 0x81B PUSH1 0x1F DUP10 AND DUP3 PUSH2 0x635 JUMP JUMPDEST DUP4 SSTORE POP JUMPDEST PUSH1 0x1 PUSH1 0x2 DUP9 MUL ADD DUP9 SSTORE POP POP POP JUMPDEST POP POP POP POP POP POP JUMPDEST JUMP JUMPDEST PUSH0 DUP2 SWAP1 POP SWAP3 SWAP2 POP POP JUMP JUMPDEST PUSH0 DUP2 SLOAD PUSH2 0x84B DUP2 PUSH2 0x496 JUMP JUMPDEST PUSH2 0x855 DUP2 DUP7 PUSH2 0x835 JUMP JUMPDEST SWAP5 POP PUSH1 0x1 DUP3 AND PUSH0 DUP2 EQ PUSH2 0x86F JUMPI PUSH1 0x1 DUP2 EQ PUSH2 0x884 JUMPI PUSH2 0x8B6 JUMP JUMPDEST PUSH1 0xFF NOT DUP4 AND DUP7 MSTORE DUP2 ISZERO ISZERO DUP3 MUL DUP7 ADD SWAP4 POP PUSH2 0x8B6 JUMP JUMPDEST PUSH2 0x88D DUP6 PUSH2 0x4C6 JUMP JUMPDEST PUSH0 JUMPDEST DUP4 DUP2 LT ISZERO PUSH2 0x8AE JUMPI DUP2 SLOAD DUP2 DUP10 ADD MSTORE PUSH1 0x1 DUP3 ADD SWAP2 POP PUSH1 0x20 DUP2 ADD SWAP1 POP PUSH2 0x88F JUMP JUMPDEST DUP4 DUP9 ADD SWAP6 POP POP POP JUMPDEST POP POP POP SWAP3 SWAP2 POP POP JUMP JUMPDEST PUSH0 PUSH2 0x8CA DUP3 DUP5 PUSH2 0x83F JUMP JUMPDEST SWAP2 POP DUP2 SWAP1 POP SWAP3 SWAP2 POP POP JUMP JUMPDEST PUSH2 0x1641 DUP1 PUSH2 0x8E2 PUSH0 CODECOPY PUSH0 RETURN INVALID PUSH1 0x80 PUSH1 0x40 MSTORE CALLVALUE DUP1 ISZERO PUSH2 0xF JUMPI PUSH0 DUP1 REVERT JUMPDEST POP PUSH1 0x4 CALLDATASIZE LT PUSH2 0x60 JUMPI PUSH0 CALLDATALOAD PUSH1 0xE0 SHR DUP1 PUSH4 0x3561C688 EQ PUSH2 0x64 JUMPI DUP1 PUSH4 0xA3E5B0B2 EQ PUSH2 0x82 JUMPI DUP1 PUSH4 0xA83439F8 EQ PUSH2 0xA0 JUMPI DUP1 PUSH4 0xB65E8519 EQ PUSH2 0xBC JUMPI DUP1 PUSH4 0xBE8743F9 EQ PUSH2 0xDA JUMPI DUP1 PUSH4 0xE349CB12 EQ PUSH2 0x10A JUMPI JUMPDEST PUSH0 DUP1 REVERT JUMPDEST PUSH2 0x6C PUSH2 0x126 JUMP JUMPDEST PUSH1 0x40 MLOAD PUSH2 0x79 SWAP2 SWAP1 PUSH2 0xBE1 JUMP JUMPDEST PUSH1 0x40 MLOAD DUP1 SWAP2 SUB SWAP1 RETURN JUMPDEST PUSH2 0x8A PUSH2 0x14F JUMP JUMPDEST PUSH1 0x40 MLOAD PUSH2 0x97 SWAP2 SWAP1 PUSH2 0xCB1 JUMP JUMPDEST PUSH1 0x40 MLOAD DUP1 SWAP2 SUB SWAP1 RETURN JUMPDEST PUSH2 0xBA PUSH1 0x4 DUP1 CALLDATASIZE SUB DUP2 ADD SWAP1 PUSH2 0xB5 SWAP2 SWAP1 PUSH2 0xD0C JUMP JUMPDEST PUSH2 0x310 JUMP JUMPDEST STOP JUMPDEST PUSH2 0xC4 PUSH2 0x69E JUMP JUMPDEST PUSH1 0x40 MLOAD PUSH2 0xD1 SWAP2 SWAP1 PUSH2 0xD4F JUMP JUMPDEST PUSH1 0x40 MLOAD DUP1 SWAP2 SUB SWAP1 RETURN JUMPDEST PUSH2 0xF4 PUSH1 0x4 DUP1 CALLDATASIZE SUB DUP2 ADD SWAP1 PUSH2 0xEF SWAP2 SWAP1 PUSH2 0xD0C JUMP JUMPDEST PUSH2 0x6A4 JUMP JUMPDEST PUSH1 0x40 MLOAD PUSH2 0x101 SWAP2 SWAP1 PUSH2 0xDD8 JUMP JUMPDEST PUSH1 0x40 MLOAD DUP1 SWAP2 SUB SWAP1 RETURN JUMPDEST PUSH2 0x124 PUSH1 0x4 DUP1 CALLDATASIZE SUB DUP2 ADD SWAP1 PUSH2 0x11F SWAP2 SWAP1 PUSH2 0xF24 JUMP JUMPDEST PUSH2 0x7FD JUMP JUMPDEST STOP JUMPDEST PUSH0 DUP1 PUSH0 ADD PUSH0 SWAP1 SLOAD SWAP1 PUSH2 0x100 EXP SWAP1 DIV PUSH20 0xFFFFFFFFFFFFFFFFFFFFFFFFFFFFFFFFFFFFFFFF AND SWAP1 POP SWAP1 JUMP JUMPDEST PUSH1 0x60 PUSH0 PUSH1 0x8 SLOAD PUSH8 0xFFFFFFFFFFFFFFFF DUP2 GT ISZERO PUSH2 0x16E JUMPI PUSH2 0x16D PUSH2 0xE00 JUMP JUMPDEST JUMPDEST PUSH1 0x40 MLOAD SWAP1 DUP1 DUP3 MSTORE DUP1 PUSH1 0x20 MUL PUSH1 0x20 ADD DUP3 ADD PUSH1 0x40 MSTORE DUP1 ISZERO PUSH2 0x19C JUMPI DUP2 PUSH1 0x20 ADD PUSH1 0x20 DUP3 MUL DUP1 CALLDATASIZE DUP4 CALLDATACOPY DUP1 DUP3 ADD SWAP2 POP POP SWAP1 POP JUMPDEST POP SWAP1 POP PUSH0 DUP1 ADD PUSH0 SWAP1 SLOAD SWAP1 PUSH2 0x100 EXP SWAP1 DIV PUSH20 0xFFFFFFFFFFFFFFFFFFFFFFFFFFFFFFFFFFFFFFFF AND DUP2 PUSH0 DUP2 MLOAD DUP2 LT PUSH2 0x1D5 JUMPI PUSH2 0x1D4 PUSH2 0xF6B JUMP JUMPDEST JUMPDEST PUSH1 0x20 MUL PUSH1 0x20 ADD ADD SWAP1 PUSH20 0xFFFFFFFFFFFFFFFFFFFFFFFFFFFFFFFFFFFFFFFF AND SWAP1 DUP2 PUSH20 0xFFFFFFFFFFFFFFFFFFFFFFFFFFFFFFFFFFFFFFFF AND DUP2 MSTORE POP POP PUSH0 PUSH1 0x1 SWAP1 POP JUMPDEST PUSH1 0x8 SLOAD DUP2 LT ISZERO PUSH2 0x308 JUMPI PUSH1 0x4 PUSH0 PUSH1 0x6 PUSH0 DUP5 DUP2 MSTORE PUSH1 0x20 ADD SWAP1 DUP2 MSTORE PUSH1 0x20 ADD PUSH0 KECCAK256 PUSH0 SWAP1 SLOAD SWAP1 PUSH2 0x100 EXP SWAP1 DIV PUSH20 0xFFFFFFFFFFFFFFFFFFFFFFFFFFFFFFFFFFFFFFFF AND PUSH20 0xFFFFFFFFFFFFFFFFFFFFFFFFFFFFFFFFFFFFFFFF AND PUSH20 0xFFFFFFFFFFFFFFFFFFFFFFFFFFFFFFFFFFFFFFFF AND DUP2 MSTORE PUSH1 0x20 ADD SWAP1 DUP2 MSTORE PUSH1 0x20 ADD PUSH0 KECCAK256 PUSH0 ADD PUSH0 SWAP1 SLOAD SWAP1 PUSH2 0x100 EXP SWAP1 DIV PUSH20 0xFFFFFFFFFFFFFFFFFFFFFFFFFFFFFFFFFFFFFFFF AND DUP3 DUP3 DUP2 MLOAD DUP2 LT PUSH2 0x2C1 JUMPI PUSH2 0x2C0 PUSH2 0xF6B JUMP JUMPDEST JUMPDEST PUSH1 0x20 MUL PUSH1 0x20 ADD ADD SWAP1 PUSH20 0xFFFFFFFFFFFFFFFFFFFFFFFFFFFFFFFFFFFFFFFF AND SWAP1 DUP2 PUSH20 0xFFFFFFFFFFFFFFFFFFFFFFFFFFFFFFFFFFFFFFFF AND DUP2 MSTORE POP POP DUP1 DUP1 PUSH1 0x1 ADD SWAP2 POP POP PUSH2 0x215 JUMP JUMPDEST POP DUP1 SWAP2 POP POP SWAP1 JUMP JUMPDEST PUSH0 DUP1 ADD PUSH0 SWAP1 SLOAD SWAP1 PUSH2 0x100 EXP SWAP1 DIV PUSH20 0xFFFFFFFFFFFFFFFFFFFFFFFFFFFFFFFFFFFFFFFF AND PUSH20 0xFFFFFFFFFFFFFFFFFFFFFFFFFFFFFFFFFFFFFFFF AND CALLER PUSH20 0xFFFFFFFFFFFFFFFFFFFFFFFFFFFFFFFFFFFFFFFF AND EQ PUSH2 0x3A0 JUMPI PUSH1 0x40 MLOAD PUSH32 0x8C379A000000000000000000000000000000000000000000000000000000000 DUP2 MSTORE PUSH1 0x4 ADD PUSH2 0x397 SWAP1 PUSH2 0x1008 JUMP JUMPDEST PUSH1 0x40 MLOAD DUP1 SWAP2 SUB SWAP1 REVERT JUMPDEST PUSH1 0x5 PUSH0 DUP3 PUSH20 0xFFFFFFFFFFFFFFFFFFFFFFFFFFFFFFFFFFFFFFFF AND PUSH20 0xFFFFFFFFFFFFFFFFFFFFFFFFFFFFFFFFFFFFFFFF AND DUP2 MSTORE PUSH1 0x20 ADD SWAP1 DUP2 MSTORE PUSH1 0x20 ADD PUSH0 KECCAK256 PUSH0 SWAP1 SLOAD SWAP1 PUSH2 0x100 EXP SWAP1 DIV PUSH1 0xFF AND ISZERO PUSH2 0x42A JUMPI PUSH1 0x40 MLOAD PUSH32 0x8C379A000000000000000000000000000000000000000000000000000000000 DUP2 MSTORE PUSH1 0x4 ADD PUSH2 0x421 SWAP1 PUSH2 0x1096 JUMP JUMPDEST PUSH1 0x40 MLOAD DUP1 SWAP2 SUB SWAP1 REVERT JUMPDEST PUSH0 PUSH1 0x4 PUSH0 DUP4 PUSH20 0xFFFFFFFFFFFFFFFFFFFFFFFFFFFFFFFFFFFFFFFF AND PUSH20 0xFFFFFFFFFFFFFFFFFFFFFFFFFFFFFFFFFFFFFFFF AND DUP2 MSTORE PUSH1 0x20 ADD SWAP1 DUP2 MSTORE PUSH1 0x20 ADD PUSH0 KECCAK256 SWAP1 POP DUP2 DUP2 PUSH0 ADD PUSH0 PUSH2 0x100 EXP DUP2 SLOAD DUP2 PUSH20 0xFFFFFFFFFFFFFFFFFFFFFFFFFFFFFFFFFFFFFFFF MUL NOT AND SWAP1 DUP4 PUSH20 0xFFFFFFFFFFFFFFFFFFFFFFFFFFFFFFFFFFFFFFFF AND MUL OR SWAP1 SSTORE POP PUSH1 0x8 SLOAD DUP2 PUSH1 0x1 ADD DUP2 SWAP1 SSTORE POP PUSH2 0x4C3 DUP2 PUSH1 0x1 ADD SLOAD PUSH2 0x987 JUMP JUMPDEST PUSH1 0x40 MLOAD PUSH1 0x20 ADD PUSH2 0x4D3 SWAP2 SWAP1 PUSH2 0x1114 JUMP JUMPDEST PUSH1 0x40 MLOAD PUSH1 0x20 DUP2 DUP4 SUB SUB DUP2 MSTORE SWAP1 PUSH1 0x40 MSTORE DUP2 PUSH1 0x2 ADD SWAP1 DUP2 PUSH2 0x4F2 SWAP2 SWAP1 PUSH2 0x1333 JUMP JUMPDEST POP PUSH1 0x1 PUSH1 0x5 PUSH0 DUP5 PUSH20 0xFFFFFFFFFFFFFFFFFFFFFFFFFFFFFFFFFFFFFFFF AND PUSH20 0xFFFFFFFFFFFFFFFFFFFFFFFFFFFFFFFFFFFFFFFF AND DUP2 MSTORE PUSH1 0x20 ADD SWAP1 DUP2 MSTORE PUSH1 0x20 ADD PUSH0 KECCAK256 PUSH0 PUSH2 0x100 EXP DUP2 SLOAD DUP2 PUSH1 0xFF MUL NOT AND SWAP1 DUP4 ISZERO ISZERO MUL OR SWAP1 SSTORE POP DUP1 PUSH0 ADD PUSH0 SWAP1 SLOAD SWAP1 PUSH2 0x100 EXP SWAP1 DIV PUSH20 0xFFFFFFFFFFFFFFFFFFFFFFFFFFFFFFFFFFFFFFFF AND PUSH1 0x6 PUSH0 DUP4 PUSH1 0x1 ADD SLOAD DUP2 MSTORE PUSH1 0x20 ADD SWAP1 DUP2 MSTORE PUSH1 0x20 ADD PUSH0 KECCAK256 PUSH0 PUSH2 0x100 EXP DUP2 SLOAD DUP2 PUSH20 0xFFFFFFFFFFFFFFFFFFFFFFFFFFFFFFFFFFFFFFFF MUL NOT AND SWAP1 DUP4 PUSH20 0xFFFFFFFFFFFFFFFFFFFFFFFFFFFFFFFFFFFFFFFF AND MUL OR SWAP1 SSTORE POP DUP1 PUSH0 ADD PUSH0 SWAP1 SLOAD SWAP1 PUSH2 0x100 EXP SWAP1 DIV PUSH20 0xFFFFFFFFFFFFFFFFFFFFFFFFFFFFFFFFFFFFFFFF AND PUSH1 0x7 DUP3 PUSH1 0x2 ADD PUSH1 0x40 MLOAD PUSH2 0x5F3 SWAP2 SWAP1 PUSH2 0x1482 JUMP JUMPDEST SWAP1 DUP2 MSTORE PUSH1 0x20 ADD PUSH1 0x40 MLOAD DUP1 SWAP2 SUB SWAP1 KECCAK256 PUSH0 PUSH2 0x100 EXP DUP2 SLOAD DUP2 PUSH20 0xFFFFFFFFFFFFFFFFFFFFFFFFFFFFFFFFFFFFFFFF MUL NOT AND SWAP1 DUP4 PUSH20 0xFFFFFFFFFFFFFFFFFFFFFFFFFFFFFFFFFFFFFFFF AND MUL OR SWAP1 SSTORE POP PUSH1 0x1 PUSH1 0x8 PUSH0 DUP3 DUP3 SLOAD PUSH2 0x650 SWAP2 SWAP1 PUSH2 0x14C5 JUMP JUMPDEST SWAP3 POP POP DUP2 SWAP1 SSTORE POP DUP2 PUSH20 0xFFFFFFFFFFFFFFFFFFFFFFFFFFFFFFFFFFFFFFFF AND PUSH32 0xA5B2FE64D20495A2E0D6041EC2DDC2C9E4CA72B8222327284D33BD40E8786731 PUSH1 0x40 MLOAD PUSH1 0x40 MLOAD DUP1 SWAP2 SUB SWAP1 LOG2 POP POP JUMP JUMPDEST PUSH1 0x8 SLOAD DUP2 JUMP JUMPDEST PUSH1 0x60 PUSH1 0x5 PUSH0 DUP4 PUSH20 0xFFFFFFFFFFFFFFFFFFFFFFFFFFFFFFFFFFFFFFFF AND PUSH20 0xFFFFFFFFFFFFFFFFFFFFFFFFFFFFFFFFFFFFFFFF AND DUP2 MSTORE PUSH1 0x20 ADD SWAP1 DUP2 MSTORE PUSH1 0x20 ADD PUSH0 KECCAK256 PUSH0 SWAP1 SLOAD SWAP1 PUSH2 0x100 EXP SWAP1 DIV PUSH1 0xFF AND PUSH2 0x72F JUMPI PUSH1 0x40 MLOAD PUSH32 0x8C379A000000000000000000000000000000000000000000000000000000000 DUP2 MSTORE PUSH1 0x4 ADD PUSH2 0x726 SWAP1 PUSH2 0x1542 JUMP JUMPDEST PUSH1 0x40 MLOAD DUP1 SWAP2 SUB SWAP1 REVERT JUMPDEST PUSH1 0x4 PUSH0 DUP4 PUSH20 0xFFFFFFFFFFFFFFFFFFFFFFFFFFFFFFFFFFFFFFFF AND PUSH20 0xFFFFFFFFFFFFFFFFFFFFFFFFFFFFFFFFFFFFFFFF AND DUP2 MSTORE PUSH1 0x20 ADD SWAP1 DUP2 MSTORE PUSH1 0x20 ADD PUSH0 KECCAK256 PUSH1 0x2 ADD DUP1 SLOAD PUSH2 0x77A SWAP1 PUSH2 0x1166 JUMP JUMPDEST DUP1 PUSH1 0x1F ADD PUSH1 0x20 DUP1 SWAP2 DIV MUL PUSH1 0x20 ADD PUSH1 0x40 MLOAD SWAP1 DUP2 ADD PUSH1 0x40 MSTORE DUP1 SWAP3 SWAP2 SWAP1 DUP2 DUP2 MSTORE PUSH1 0x20 ADD DUP3 DUP1 SLOAD PUSH2 0x7A6 SWAP1 PUSH2 0x1166 JUMP JUMPDEST DUP1 ISZERO PUSH2 0x7F1 JUMPI DUP1 PUSH1 0x1F LT PUSH2 0x7C8 JUMPI PUSH2 0x100 DUP1 DUP4 SLOAD DIV MUL DUP4 MSTORE SWAP2 PUSH1 0x20 ADD SWAP2 PUSH2 0x7F1 JUMP JUMPDEST DUP3 ADD SWAP2 SWAP1 PUSH0 MSTORE PUSH1 0x20 PUSH0 KECCAK256 SWAP1 JUMPDEST DUP2 SLOAD DUP2 MSTORE SWAP1 PUSH1 0x1 ADD SWAP1 PUSH1 0x20 ADD DUP1 DUP4 GT PUSH2 0x7D4 JUMPI DUP3 SWAP1 SUB PUSH1 0x1F AND DUP3 ADD SWAP2 JUMPDEST POP POP POP POP POP SWAP1 POP SWAP2 SWAP1 POP JUMP JUMPDEST PUSH0 PUSH20 0xFFFFFFFFFFFFFFFFFFFFFFFFFFFFFFFFFFFFFFFF AND PUSH1 0x7 DUP3 PUSH1 0x40 MLOAD PUSH2 0x824 SWAP2 SWAP1 PUSH2 0x1560 JUMP JUMPDEST SWAP1 DUP2 MSTORE PUSH1 0x20 ADD PUSH1 0x40 MLOAD DUP1 SWAP2 SUB SWAP1 KECCAK256 PUSH0 SWAP1 SLOAD SWAP1 PUSH2 0x100 EXP SWAP1 DIV PUSH20 0xFFFFFFFFFFFFFFFFFFFFFFFFFFFFFFFFFFFFFFFF AND PUSH20 0xFFFFFFFFFFFFFFFFFFFFFFFFFFFFFFFFFFFFFFFF AND EQ PUSH2 0x8A8 JUMPI PUSH1 0x40 MLOAD PUSH32 0x8C379A000000000000000000000000000000000000000000000000000000000 DUP2 MSTORE PUSH1 0x4 ADD PUSH2 0x89F SWAP1 PUSH2 0x15C0 JUMP JUMPDEST PUSH1 0x40 MLOAD DUP1 SWAP2 SUB SWAP1 REVERT JUMPDEST PUSH1 0x5 PUSH0 CALLER PUSH20 0xFFFFFFFFFFFFFFFFFFFFFFFFFFFFFFFFFFFFFFFF AND PUSH20 0xFFFFFFFFFFFFFFFFFFFFFFFFFFFFFFFFFFFFFFFF AND DUP2 MSTORE PUSH1 0x20 ADD SWAP1 DUP2 MSTORE PUSH1 0x20 ADD PUSH0 KECCAK256 PUSH0 SWAP1 SLOAD SWAP1 PUSH2 0x100 EXP SWAP1 DIV PUSH1 0xFF AND PUSH2 0x931 JUMPI PUSH1 0x40 MLOAD PUSH32 0x8C379A000000000000000000000000000000000000000000000000000000000 DUP2 MSTORE PUSH1 0x4 ADD PUSH2 0x928 SWAP1 PUSH2 0x1542 JUMP JUMPDEST PUSH1 0x40 MLOAD DUP1 SWAP2 SUB SWAP1 REVERT JUMPDEST PUSH0 PUSH1 0x4 PUSH0 CALLER PUSH20 0xFFFFFFFFFFFFFFFFFFFFFFFFFFFFFFFFFFFFFFFF AND PUSH20 0xFFFFFFFFFFFFFFFFFFFFFFFFFFFFFFFFFFFFFFFF AND DUP2 MSTORE PUSH1 0x20 ADD SWAP1 DUP2 MSTORE PUSH1 0x20 ADD PUSH0 KECCAK256 SWAP1 POP DUP2 DUP2 PUSH1 0x2 ADD SWAP1 DUP2 PUSH2 0x982 SWAP2 SWAP1 PUSH2 0x1333 JUMP JUMPDEST POP POP POP JUMP JUMPDEST PUSH1 0x60 PUSH0 PUSH1 0x1 PUSH2 0x995 DUP5 PUSH2 0xA51 JUMP JUMPDEST ADD SWAP1 POP PUSH0 DUP2 PUSH8 0xFFFFFFFFFFFFFFFF DUP2 GT ISZERO PUSH2 0x9B3 JUMPI PUSH2 0x9B2 PUSH2 0xE00 JUMP JUMPDEST JUMPDEST PUSH1 0x40 MLOAD SWAP1 DUP1 DUP3 MSTORE DUP1 PUSH1 0x1F ADD PUSH1 0x1F NOT AND PUSH1 0x20 ADD DUP3 ADD PUSH1 0x40 MSTORE DUP1 ISZERO PUSH2 0x9E5 JUMPI DUP2 PUSH1 0x20 ADD PUSH1 0x1 DUP3 MUL DUP1 CALLDATASIZE DUP4 CALLDATACOPY DUP1 DUP3 ADD SWAP2 POP POP SWAP1 POP JUMPDEST POP SWAP1 POP PUSH0 DUP3 PUSH1 0x20 ADD DUP3 ADD SWAP1 POP JUMPDEST PUSH1 0x1 ISZERO PUSH2 0xA46 JUMPI DUP1 DUP1 PUSH1 0x1 SWAP1 SUB SWAP2 POP POP PUSH32 0x3031323334353637383961626364656600000000000000000000000000000000 PUSH1 0xA DUP7 MOD BYTE DUP2 MSTORE8 PUSH1 0xA DUP6 DUP2 PUSH2 0xA3B JUMPI PUSH2 0xA3A PUSH2 0x15DE JUMP JUMPDEST JUMPDEST DIV SWAP5 POP PUSH0 DUP6 SUB PUSH2 0x9F2 JUMPI JUMPDEST DUP2 SWAP4 POP POP POP POP SWAP2 SWAP1 POP JUMP JUMPDEST PUSH0 DUP1 PUSH0 SWAP1 POP PUSH27 0x184F03E93FF9F4DAA797ED6E38ED64BF6A1F010000000000000000 DUP4 LT PUSH2 0xAAD JUMPI PUSH27 0x184F03E93FF9F4DAA797ED6E38ED64BF6A1F010000000000000000 DUP4 DUP2 PUSH2 0xAA3 JUMPI PUSH2 0xAA2 PUSH2 0x15DE JUMP JUMPDEST JUMPDEST DIV SWAP3 POP PUSH1 0x40 DUP2 ADD SWAP1 POP JUMPDEST PUSH14 0x4EE2D6D415B85ACEF8100000000 DUP4 LT PUSH2 0xAEA JUMPI PUSH14 0x4EE2D6D415B85ACEF8100000000 DUP4 DUP2 PUSH2 0xAE0 JUMPI PUSH2 0xADF PUSH2 0x15DE JUMP JUMPDEST JUMPDEST DIV SWAP3 POP PUSH1 0x20 DUP2 ADD SWAP1 POP JUMPDEST PUSH7 0x2386F26FC10000 DUP4 LT PUSH2 0xB19 JUMPI PUSH7 0x2386F26FC10000 DUP4 DUP2 PUSH2 0xB0F JUMPI PUSH2 0xB0E PUSH2 0x15DE JUMP JUMPDEST JUMPDEST DIV SWAP3 POP PUSH1 0x10 DUP2 ADD SWAP1 POP JUMPDEST PUSH4 0x5F5E100 DUP4 LT PUSH2 0xB42 JUMPI PUSH4 0x5F5E100 DUP4 DUP2 PUSH2 0xB38 JUMPI PUSH2 0xB37 PUSH2 0x15DE JUMP JUMPDEST JUMPDEST DIV SWAP3 POP PUSH1 0x8 DUP2 ADD SWAP1 POP JUMPDEST PUSH2 0x2710 DUP4 LT PUSH2 0xB67 JUMPI PUSH2 0x2710 DUP4 DUP2 PUSH2 0xB5D JUMPI PUSH2 0xB5C PUSH2 0x15DE JUMP JUMPDEST JUMPDEST DIV SWAP3 POP PUSH1 0x4 DUP2 ADD SWAP1 POP JUMPDEST PUSH1 0x64 DUP4 LT PUSH2 0xB8A JUMPI PUSH1 0x64 DUP4 DUP2 PUSH2 0xB80 JUMPI PUSH2 0xB7F PUSH2 0x15DE JUMP JUMPDEST JUMPDEST DIV SWAP3 POP PUSH1 0x2 DUP2 ADD SWAP1 POP JUMPDEST PUSH1 0xA DUP4 LT PUSH2 0xB99 JUMPI PUSH1 0x1 DUP2 ADD SWAP1 POP JUMPDEST DUP1 SWAP2 POP POP SWAP2 SWAP1 POP JUMP JUMPDEST PUSH0 PUSH20 0xFFFFFFFFFFFFFFFFFFFFFFFFFFFFFFFFFFFFFFFF DUP3 AND SWAP1 POP SWAP2 SWAP1 POP JUMP JUMPDEST PUSH0 PUSH2 0xBCB DUP3 PUSH2 0xBA2 JUMP JUMPDEST SWAP1 POP SWAP2 SWAP1 POP JUMP JUMPDEST PUSH2 0xBDB DUP2 PUSH2 0xBC1 JUMP JUMPDEST DUP3 MSTORE POP POP JUMP JUMPDEST PUSH0 PUSH1 0x20 DUP3 ADD SWAP1 POP PUSH2 0xBF4 PUSH0 DUP4 ADD DUP5 PUSH2 0xBD2 JUMP JUMPDEST SWAP3 SWAP2 POP POP JUMP JUMPDEST PUSH0 DUP2 MLOAD SWAP1 POP SWAP2 SWAP1 POP JUMP JUMPDEST PUSH0 DUP3 DUP3 MSTORE PUSH1 0x20 DUP3 ADD SWAP1 POP SWAP3 SWAP2 POP POP JUMP JUMPDEST PUSH0 DUP2 SWAP1 POP PUSH1 0x20 DUP3 ADD SWAP1 POP SWAP2 SWAP1 POP JUMP JUMPDEST PUSH2 0xC2C DUP2 PUSH2 0xBC1 JUMP JUMPDEST DUP3 MSTORE POP POP JUMP JUMPDEST PUSH0 PUSH2 0xC3D DUP4 DUP4 PUSH2 0xC23 JUMP JUMPDEST PUSH1 0x20 DUP4 ADD SWAP1 POP SWAP3 SWAP2 POP POP JUMP JUMPDEST PUSH0 PUSH1 0x20 DUP3 ADD SWAP1 POP SWAP2 SWAP1 POP JUMP JUMPDEST PUSH0 PUSH2 0xC5F DUP3 PUSH2 0xBFA JUMP JUMPDEST PUSH2 0xC69 DUP2 DUP6 PUSH2 0xC04 JUMP JUMPDEST SWAP4 POP PUSH2 0xC74 DUP4 PUSH2 0xC14 JUMP JUMPDEST DUP1 PUSH0 JUMPDEST DUP4 DUP2 LT ISZERO PUSH2 0xCA4 JUMPI DUP2 MLOAD PUSH2 0xC8B DUP9 DUP3 PUSH2 0xC32 JUMP JUMPDEST SWAP8 POP PUSH2 0xC96 DUP4 PUSH2 0xC49 JUMP JUMPDEST SWAP3 POP POP PUSH1 0x1 DUP2 ADD SWAP1 POP PUSH2 0xC77 JUMP JUMPDEST POP DUP6 SWAP4 POP POP POP POP SWAP3 SWAP2 POP POP JUMP JUMPDEST PUSH0 PUSH1 0x20 DUP3 ADD SWAP1 POP DUP2 DUP2 SUB PUSH0 DUP4 ADD MSTORE PUSH2 0xCC9 DUP2 DUP5 PUSH2 0xC55 JUMP JUMPDEST SWAP1 POP SWAP3 SWAP2 POP POP JUMP JUMPDEST PUSH0 PUSH1 0x40 MLOAD SWAP1 POP SWAP1 JUMP JUMPDEST PUSH0 DUP1 REVERT JUMPDEST PUSH0 DUP1 REVERT JUMPDEST PUSH2 0xCEB DUP2 PUSH2 0xBC1 JUMP JUMPDEST DUP2 EQ PUSH2 0xCF5 JUMPI PUSH0 DUP1 REVERT JUMPDEST POP JUMP JUMPDEST PUSH0 DUP2 CALLDATALOAD SWAP1 POP PUSH2 0xD06 DUP2 PUSH2 0xCE2 JUMP JUMPDEST SWAP3 SWAP2 POP POP JUMP JUMPDEST PUSH0 PUSH1 0x20 DUP3 DUP5 SUB SLT ISZERO PUSH2 0xD21 JUMPI PUSH2 0xD20 PUSH2 0xCDA JUMP JUMPDEST JUMPDEST PUSH0 PUSH2 0xD2E DUP5 DUP3 DUP6 ADD PUSH2 0xCF8 JUMP JUMPDEST SWAP2 POP POP SWAP3 SWAP2 POP POP JUMP JUMPDEST PUSH0 DUP2 SWAP1 POP SWAP2 SWAP1 POP JUMP JUMPDEST PUSH2 0xD49 DUP2 PUSH2 0xD37 JUMP JUMPDEST DUP3 MSTORE POP POP JUMP JUMPDEST PUSH0 PUSH1 0x20 DUP3 ADD SWAP1 POP PUSH2 0xD62 PUSH0 DUP4 ADD DUP5 PUSH2 0xD40 JUMP JUMPDEST SWAP3 SWAP2 POP POP JUMP JUMPDEST PUSH0 DUP2 MLOAD SWAP1 POP SWAP2 SWAP1 POP JUMP JUMPDEST PUSH0 DUP3 DUP3 MSTORE PUSH1 0x20 DUP3 ADD SWAP1 POP SWAP3 SWAP2 POP POP JUMP JUMPDEST DUP3 DUP2 DUP4 MCOPY PUSH0 DUP4 DUP4 ADD MSTORE POP POP POP JUMP JUMPDEST PUSH0 PUSH1 0x1F NOT PUSH1 0x1F DUP4 ADD AND SWAP1 POP SWAP2 SWAP1 POP JUMP JUMPDEST PUSH0 PUSH2 0xDAA DUP3 PUSH2 0xD68 JUMP JUMPDEST PUSH2 0xDB4 DUP2 DUP6 PUSH2 0xD72 JUMP JUMPDEST SWAP4 POP PUSH2 0xDC4 DUP2 DUP6 PUSH1 0x20 DUP7 ADD PUSH2 0xD82 JUMP JUMPDEST PUSH2 0xDCD DUP2 PUSH2 0xD90 JUMP JUMPDEST DUP5 ADD SWAP2 POP POP SWAP3 SWAP2 POP POP JUMP JUMPDEST PUSH0 PUSH1 0x20 DUP3 ADD SWAP1 POP DUP2 DUP2 SUB PUSH0 DUP4 ADD MSTORE PUSH2 0xDF0 DUP2 DUP5 PUSH2 0xDA0 JUMP JUMPDEST SWAP1 POP SWAP3 SWAP2 POP POP JUMP JUMPDEST PUSH0 DUP1 REVERT JUMPDEST PUSH0 DUP1 REVERT JUMPDEST PUSH32 0x4E487B7100000000000000000000000000000000000000000000000000000000 PUSH0 MSTORE PUSH1 0x41 PUSH1 0x4 MSTORE PUSH1 0x24 PUSH0 REVERT JUMPDEST PUSH2 0xE36 DUP3 PUSH2 0xD90 JUMP JUMPDEST DUP2 ADD DUP2 DUP2 LT PUSH8 0xFFFFFFFFFFFFFFFF DUP3 GT OR ISZERO PUSH2 0xE55 JUMPI PUSH2 0xE54 PUSH2 0xE00 JUMP JUMPDEST JUMPDEST DUP1 PUSH1 0x40 MSTORE POP POP POP JUMP JUMPDEST PUSH0 PUSH2 0xE67 PUSH2 0xCD1 JUMP JUMPDEST SWAP1 POP PUSH2 0xE73 DUP3 DUP3 PUSH2 0xE2D JUMP JUMPDEST SWAP2 SWAP1 POP JUMP JUMPDEST PUSH0 PUSH8 0xFFFFFFFFFFFFFFFF DUP3 GT ISZERO PUSH2 0xE92 JUMPI PUSH2 0xE91 PUSH2 0xE00 JUMP JUMPDEST JUMPDEST PUSH2 0xE9B DUP3 PUSH2 0xD90 JUMP JUMPDEST SWAP1 POP PUSH1 0x20 DUP2 ADD SWAP1 POP SWAP2 SWAP1 POP JUMP JUMPDEST DUP3 DUP2 DUP4 CALLDATACOPY PUSH0 DUP4 DUP4 ADD MSTORE POP POP POP JUMP JUMPDEST PUSH0 PUSH2 0xEC8 PUSH2 0xEC3 DUP5 PUSH2 0xE78 JUMP JUMPDEST PUSH2 0xE5E JUMP JUMPDEST SWAP1 POP DUP3 DUP2 MSTORE PUSH1 0x20 DUP2 ADD DUP5 DUP5 DUP5 ADD GT ISZERO PUSH2 0xEE4 JUMPI PUSH2 0xEE3 PUSH2 0xDFC JUMP JUMPDEST JUMPDEST PUSH2 0xEEF DUP5 DUP3 DUP6 PUSH2 0xEA8 JUMP JUMPDEST POP SWAP4 SWAP3 POP POP POP JUMP JUMPDEST PUSH0 DUP3 PUSH1 0x1F DUP4 ADD SLT PUSH2 0xF0B JUMPI PUSH2 0xF0A PUSH2 0xDF8 JUMP JUMPDEST JUMPDEST DUP2 CALLDATALOAD PUSH2 0xF1B DUP5 DUP3 PUSH1 0x20 DUP7 ADD PUSH2 0xEB6 JUMP JUMPDEST SWAP2 POP POP SWAP3 SWAP2 POP POP JUMP JUMPDEST PUSH0 PUSH1 0x20 DUP3 DUP5 SUB SLT ISZERO PUSH2 0xF39 JUMPI PUSH2 0xF38 PUSH2 0xCDA JUMP JUMPDEST JUMPDEST PUSH0 DUP3 ADD CALLDATALOAD PUSH8 0xFFFFFFFFFFFFFFFF DUP2 GT ISZERO PUSH2 0xF56 JUMPI PUSH2 0xF55 PUSH2 0xCDE JUMP JUMPDEST JUMPDEST PUSH2 0xF62 DUP5 DUP3 DUP6 ADD PUSH2 0xEF7 JUMP JUMPDEST SWAP2 POP POP SWAP3 SWAP2 POP POP JUMP JUMPDEST PUSH32 0x4E487B7100000000000000000000000000000000000000000000000000000000 PUSH0 MSTORE PUSH1 0x32 PUSH1 0x4 MSTORE PUSH1 0x24 PUSH0 REVERT JUMPDEST PUSH32 0x4F6E6C79206F776E65722063616E2077686974656C6973742074686520757365 PUSH0 DUP3 ADD MSTORE PUSH32 0x7200000000000000000000000000000000000000000000000000000000000000 PUSH1 0x20 DUP3 ADD MSTORE POP JUMP JUMPDEST PUSH0 PUSH2 0xFF2 PUSH1 0x21 DUP4 PUSH2 0xD72 JUMP JUMPDEST SWAP2 POP PUSH2 0xFFD DUP3 PUSH2 0xF98 JUMP JUMPDEST PUSH1 0x40 DUP3 ADD SWAP1 POP SWAP2 SWAP1 POP JUMP JUMPDEST PUSH0 PUSH1 0x20 DUP3 ADD SWAP1 POP DUP2 DUP2 SUB PUSH0 DUP4 ADD MSTORE PUSH2 0x101F DUP2 PUSH2 0xFE6 JUMP JUMPDEST SWAP1 POP SWAP2 SWAP1 POP JUMP JUMPDEST PUSH32 0x54686520616464726573732068617320616C7265616479206265656E20776869 PUSH0 DUP3 ADD MSTORE PUSH32 0x74656C6973746564000000000000000000000000000000000000000000000000 PUSH1 0x20 DUP3 ADD MSTORE POP JUMP JUMPDEST PUSH0 PUSH2 0x1080 PUSH1 0x28 DUP4 PUSH2 0xD72 JUMP JUMPDEST SWAP2 POP PUSH2 0x108B DUP3 PUSH2 0x1026 JUMP JUMPDEST PUSH1 0x40 DUP3 ADD SWAP1 POP SWAP2 SWAP1 POP JUMP JUMPDEST PUSH0 PUSH1 0x20 DUP3 ADD SWAP1 POP DUP2 DUP2 SUB PUSH0 DUP4 ADD MSTORE PUSH2 0x10AD DUP2 PUSH2 0x1074 JUMP JUMPDEST SWAP1 POP SWAP2 SWAP1 POP JUMP JUMPDEST PUSH32 0x5573657220000000000000000000000000000000000000000000000000000000 DUP2 MSTORE POP JUMP JUMPDEST PUSH0 DUP2 SWAP1 POP SWAP3 SWAP2 POP POP JUMP JUMPDEST PUSH0 PUSH2 0x10EE DUP3 PUSH2 0xD68 JUMP JUMPDEST PUSH2 0x10F8 DUP2 DUP6 PUSH2 0x10DA JUMP JUMPDEST SWAP4 POP PUSH2 0x1108 DUP2 DUP6 PUSH1 0x20 DUP7 ADD PUSH2 0xD82 JUMP JUMPDEST DUP1 DUP5 ADD SWAP2 POP POP SWAP3 SWAP2 POP POP JUMP JUMPDEST PUSH0 PUSH2 0x111E DUP3 PUSH2 0x10B4 JUMP JUMPDEST PUSH1 0x5 DUP3 ADD SWAP2 POP PUSH2 0x112E DUP3 DUP5 PUSH2 0x10E4 JUMP JUMPDEST SWAP2 POP DUP2 SWAP1 POP SWAP3 SWAP2 POP POP JUMP JUMPDEST PUSH32 0x4E487B7100000000000000000000000000000000000000000000000000000000 PUSH0 MSTORE PUSH1 0x22 PUSH1 0x4 MSTORE PUSH1 0x24 PUSH0 REVERT JUMPDEST PUSH0 PUSH1 0x2 DUP3 DIV SWAP1 POP PUSH1 0x1 DUP3 AND DUP1 PUSH2 0x117D JUMPI PUSH1 0x7F DUP3 AND SWAP2 POP JUMPDEST PUSH1 0x20 DUP3 LT DUP2 SUB PUSH2 0x1190 JUMPI PUSH2 0x118F PUSH2 0x1139 JUMP JUMPDEST JUMPDEST POP SWAP2 SWAP1 POP JUMP JUMPDEST PUSH0 DUP2 SWAP1 POP DUP2 PUSH0 MSTORE PUSH1 0x20 PUSH0 KECCAK256 SWAP1 POP SWAP2 SWAP1 POP JUMP JUMPDEST PUSH0 PUSH1 0x20 PUSH1 0x1F DUP4 ADD DIV SWAP1 POP SWAP2 SWAP1 POP JUMP JUMPDEST PUSH0 DUP3 DUP3 SHL SWAP1 POP SWAP3 SWAP2 POP POP JUMP JUMPDEST PUSH0 PUSH1 0x8 DUP4 MUL PUSH2 0x11F2 PUSH32 0xFFFFFFFFFFFFFFFFFFFFFFFFFFFFFFFFFFFFFFFFFFFFFFFFFFFFFFFFFFFFFFFF DUP3 PUSH2 0x11B7 JUMP JUMPDEST PUSH2 0x11FC DUP7 DUP4 PUSH2 0x11B7 JUMP JUMPDEST SWAP6 POP DUP1 NOT DUP5 AND SWAP4 POP DUP1 DUP7 AND DUP5 OR SWAP3 POP POP POP SWAP4 SWAP3 POP POP POP JUMP JUMPDEST PUSH0 DUP2 SWAP1 POP SWAP2 SWAP1 POP JUMP JUMPDEST PUSH0 PUSH2 0x1237 PUSH2 0x1232 PUSH2 0x122D DUP5 PUSH2 0xD37 JUMP JUMPDEST PUSH2 0x1214 JUMP JUMPDEST PUSH2 0xD37 JUMP JUMPDEST SWAP1 POP SWAP2 SWAP1 POP JUMP JUMPDEST PUSH0 DUP2 SWAP1 POP SWAP2 SWAP1 POP JUMP JUMPDEST PUSH2 0x1250 DUP4 PUSH2 0x121D JUMP JUMPDEST PUSH2 0x1264 PUSH2 0x125C DUP3 PUSH2 0x123E JUMP JUMPDEST DUP5 DUP5 SLOAD PUSH2 0x11C3 JUMP JUMPDEST DUP3 SSTORE POP POP POP POP JUMP JUMPDEST PUSH0 SWAP1 JUMP JUMPDEST PUSH2 0x1278 PUSH2 0x126C JUMP JUMPDEST PUSH2 0x1283 DUP2 DUP5 DUP5 PUSH2 0x1247 JUMP JUMPDEST POP POP POP JUMP JUMPDEST JUMPDEST DUP2 DUP2 LT ISZERO PUSH2 0x12A6 JUMPI PUSH2 0x129B PUSH0 DUP3 PUSH2 0x1270 JUMP JUMPDEST PUSH1 0x1 DUP2 ADD SWAP1 POP PUSH2 0x1289 JUMP JUMPDEST POP POP JUMP JUMPDEST PUSH1 0x1F DUP3 GT ISZERO PUSH2 0x12EB JUMPI PUSH2 0x12BC DUP2 PUSH2 0x1196 JUMP JUMPDEST PUSH2 0x12C5 DUP5 PUSH2 0x11A8 JUMP JUMPDEST DUP2 ADD PUSH1 0x20 DUP6 LT ISZERO PUSH2 0x12D4 JUMPI DUP2 SWAP1 POP JUMPDEST PUSH2 0x12E8 PUSH2 0x12E0 DUP6 PUSH2 0x11A8 JUMP JUMPDEST DUP4 ADD DUP3 PUSH2 0x1288 JUMP JUMPDEST POP POP JUMPDEST POP POP POP JUMP JUMPDEST PUSH0 DUP3 DUP3 SHR SWAP1 POP SWAP3 SWAP2 POP POP JUMP JUMPDEST PUSH0 PUSH2 0x130B PUSH0 NOT DUP5 PUSH1 0x8 MUL PUSH2 0x12F0 JUMP JUMPDEST NOT DUP1 DUP4 AND SWAP2 POP POP SWAP3 SWAP2 POP POP JUMP JUMPDEST PUSH0 PUSH2 0x1323 DUP4 DUP4 PUSH2 0x12FC JUMP JUMPDEST SWAP2 POP DUP3 PUSH1 0x2 MUL DUP3 OR SWAP1 POP SWAP3 SWAP2 POP POP JUMP JUMPDEST PUSH2 0x133C DUP3 PUSH2 0xD68 JUMP JUMPDEST PUSH8 0xFFFFFFFFFFFFFFFF DUP2 GT ISZERO PUSH2 0x1355 JUMPI PUSH2 0x1354 PUSH2 0xE00 JUMP JUMPDEST JUMPDEST PUSH2 0x135F DUP3 SLOAD PUSH2 0x1166 JUMP JUMPDEST PUSH2 0x136A DUP3 DUP3 DUP6 PUSH2 0x12AA JUMP JUMPDEST PUSH0 PUSH1 0x20 SWAP1 POP PUSH1 0x1F DUP4 GT PUSH1 0x1 DUP2 EQ PUSH2 0x139B JUMPI PUSH0 DUP5 ISZERO PUSH2 0x1389 JUMPI DUP3 DUP8 ADD MLOAD SWAP1 POP JUMPDEST PUSH2 0x1393 DUP6 DUP3 PUSH2 0x1318 JUMP JUMPDEST DUP7 SSTORE POP PUSH2 0x13FA JUMP JUMPDEST PUSH1 0x1F NOT DUP5 AND PUSH2 0x13A9 DUP7 PUSH2 0x1196 JUMP JUMPDEST PUSH0 JUMPDEST DUP3 DUP2 LT ISZERO PUSH2 0x13D0 JUMPI DUP5 DUP10 ADD MLOAD DUP3 SSTORE PUSH1 0x1 DUP3 ADD SWAP2 POP PUSH1 0x20 DUP6 ADD SWAP5 POP PUSH1 0x20 DUP2 ADD SWAP1 POP PUSH2 0x13AB JUMP JUMPDEST DUP7 DUP4 LT ISZERO PUSH2 0x13ED JUMPI DUP5 DUP10 ADD MLOAD PUSH2 0x13E9 PUSH1 0x1F DUP10 AND DUP3 PUSH2 0x12FC JUMP JUMPDEST DUP4 SSTORE POP JUMPDEST PUSH1 0x1 PUSH1 0x2 DUP9 MUL ADD DUP9 SSTORE POP POP POP JUMPDEST POP POP POP POP POP POP JUMP JUMPDEST PUSH0 DUP2 SLOAD PUSH2 0x140E DUP2 PUSH2 0x1166 JUMP JUMPDEST PUSH2 0x1418 DUP2 DUP7 PUSH2 0x10DA JUMP JUMPDEST SWAP5 POP PUSH1 0x1 DUP3 AND PUSH0 DUP2 EQ PUSH2 0x1432 JUMPI PUSH1 0x1 DUP2 EQ PUSH2 0x1447 JUMPI PUSH2 0x1479 JUMP JUMPDEST PUSH1 0xFF NOT DUP4 AND DUP7 MSTORE DUP2 ISZERO ISZERO DUP3 MUL DUP7 ADD SWAP4 POP PUSH2 0x1479 JUMP JUMPDEST PUSH2 0x1450 DUP6 PUSH2 0x1196 JUMP JUMPDEST PUSH0 JUMPDEST DUP4 DUP2 LT ISZERO PUSH2 0x1471 JUMPI DUP2 SLOAD DUP2 DUP10 ADD MSTORE PUSH1 0x1 DUP3 ADD SWAP2 POP PUSH1 0x20 DUP2 ADD SWAP1 POP PUSH2 0x1452 JUMP JUMPDEST DUP4 DUP9 ADD SWAP6 POP POP POP JUMPDEST POP POP POP SWAP3 SWAP2 POP POP JUMP JUMPDEST PUSH0 PUSH2 0x148D DUP3 DUP5 PUSH2 0x1402 JUMP JUMPDEST SWAP2 POP DUP2 SWAP1 POP SWAP3 SWAP2 POP POP JUMP JUMPDEST PUSH32 0x4E487B7100000000000000000000000000000000000000000000000000000000 PUSH0 MSTORE PUSH1 0x11 PUSH1 0x4 MSTORE PUSH1 0x24 PUSH0 REVERT JUMPDEST PUSH0 PUSH2 0x14CF DUP3 PUSH2 0xD37 JUMP JUMPDEST SWAP2 POP PUSH2 0x14DA DUP4 PUSH2 0xD37 JUMP JUMPDEST SWAP3 POP DUP3 DUP3 ADD SWAP1 POP DUP1 DUP3 GT ISZERO PUSH2 0x14F2 JUMPI PUSH2 0x14F1 PUSH2 0x1498 JUMP JUMPDEST JUMPDEST SWAP3 SWAP2 POP POP JUMP JUMPDEST PUSH32 0x55736572206E6F742077686974656C6973746564000000000000000000000000 PUSH0 DUP3 ADD MSTORE POP JUMP JUMPDEST PUSH0 PUSH2 0x152C PUSH1 0x14 DUP4 PUSH2 0xD72 JUMP JUMPDEST SWAP2 POP PUSH2 0x1537 DUP3 PUSH2 0x14F8 JUMP JUMPDEST PUSH1 0x20 DUP3 ADD SWAP1 POP SWAP2 SWAP1 POP JUMP JUMPDEST PUSH0 PUSH1 0x20 DUP3 ADD SWAP1 POP DUP2 DUP2 SUB PUSH0 DUP4 ADD MSTORE PUSH2 0x1559 DUP2 PUSH2 0x1520 JUMP JUMPDEST SWAP1 POP SWAP2 SWAP1 POP JUMP JUMPDEST PUSH0 PUSH2 0x156B DUP3 DUP5 PUSH2 0x10E4 JUMP JUMPDEST SWAP2 POP DUP2 SWAP1 POP SWAP3 SWAP2 POP POP JUMP JUMPDEST PUSH32 0x4E616D65206E6F7420617661696C61626C650000000000000000000000000000 PUSH0 DUP3 ADD MSTORE POP JUMP JUMPDEST PUSH0 PUSH2 0x15AA PUSH1 0x12 DUP4 PUSH2 0xD72 JUMP JUMPDEST SWAP2 POP PUSH2 0x15B5 DUP3 PUSH2 0x1576 JUMP JUMPDEST PUSH1 0x20 DUP3 ADD SWAP1 POP SWAP2 SWAP1 POP JUMP JUMPDEST PUSH0 PUSH1 0x20 DUP3 ADD SWAP1 POP DUP2 DUP2 SUB PUSH0 DUP4 ADD MSTORE PUSH2 0x15D7 DUP2 PUSH2 0x159E JUMP JUMPDEST SWAP1 POP SWAP2 SWAP1 POP JUMP JUMPDEST PUSH32 0x4E487B7100000000000000000000000000000000000000000000000000000000 PUSH0 MSTORE PUSH1 0x12 PUSH1 0x4 MSTORE PUSH1 0x24 PUSH0 REVERT INVALID LOG2 PUSH5 0x6970667358 0x22 SLT KECCAK256 DIV 0xBE DUP2 SWAP16 0xB8 PUSH14 0x7F1DABF744040F71E70E3D70A1F PUSH21 0x42A488ED31091191B56E5A64736F6C634300081A00 CALLER "
				},
				"gasEstimates": {
					"creation": {
						"codeDepositCost": "1139400",
						"executionCost": "infinite",
						"totalCost": "infinite"
					},
					"external": {
						"change_name(string)": "infinite",
						"check_name(address)": "infinite",
						"check_owner()": "2498",
						"check_whitelist()": "infinite",
						"num_of_users()": "2469",
						"whitelist_user(address)": "infinite"
					}
				},
				"methodIdentifiers": {
					"change_name(string)": "e349cb12",
					"check_name(address)": "be8743f9",
					"check_owner()": "3561c688",
					"check_whitelist()": "a3e5b0b2",
					"num_of_users()": "b65e8519",
					"whitelist_user(address)": "a83439f8"
				}
			},
			"storageLayout": {
				"storage": [
					{
						"astId": 3899,
						"contract": "contracts/Whitelist.sol:Whitelist",
						"label": "owner",
						"offset": 0,
						"slot": "0",
						"type": "t_struct(User)3896_storage"
					},
					{
						"astId": 3903,
						"contract": "contracts/Whitelist.sol:Whitelist",
						"label": "users",
						"offset": 0,
						"slot": "3",
						"type": "t_array(t_struct(User)3896_storage)dyn_storage"
					},
					{
						"astId": 3908,
						"contract": "contracts/Whitelist.sol:Whitelist",
						"label": "get_user",
						"offset": 0,
						"slot": "4",
						"type": "t_mapping(t_address,t_struct(User)3896_storage)"
					},
					{
						"astId": 3912,
						"contract": "contracts/Whitelist.sol:Whitelist",
						"label": "whitelist",
						"offset": 0,
						"slot": "5",
						"type": "t_mapping(t_address,t_bool)"
					},
					{
						"astId": 3916,
						"contract": "contracts/Whitelist.sol:Whitelist",
						"label": "by_id",
						"offset": 0,
						"slot": "6",
						"type": "t_mapping(t_uint256,t_address)"
					},
					{
						"astId": 3920,
						"contract": "contracts/Whitelist.sol:Whitelist",
						"label": "by_name",
						"offset": 0,
						"slot": "7",
						"type": "t_mapping(t_string_memory_ptr,t_address)"
					},
					{
						"astId": 3922,
						"contract": "contracts/Whitelist.sol:Whitelist",
						"label": "num_of_users",
						"offset": 0,
						"slot": "8",
						"type": "t_uint256"
					}
				],
				"types": {
					"t_address": {
						"encoding": "inplace",
						"label": "address",
						"numberOfBytes": "20"
					},
					"t_array(t_struct(User)3896_storage)dyn_storage": {
						"base": "t_struct(User)3896_storage",
						"encoding": "dynamic_array",
						"label": "struct Whitelist.User[]",
						"numberOfBytes": "32"
					},
					"t_bool": {
						"encoding": "inplace",
						"label": "bool",
						"numberOfBytes": "1"
					},
					"t_mapping(t_address,t_bool)": {
						"encoding": "mapping",
						"key": "t_address",
						"label": "mapping(address => bool)",
						"numberOfBytes": "32",
						"value": "t_bool"
					},
					"t_mapping(t_address,t_struct(User)3896_storage)": {
						"encoding": "mapping",
						"key": "t_address",
						"label": "mapping(address => struct Whitelist.User)",
						"numberOfBytes": "32",
						"value": "t_struct(User)3896_storage"
					},
					"t_mapping(t_string_memory_ptr,t_address)": {
						"encoding": "mapping",
						"key": "t_string_memory_ptr",
						"label": "mapping(string => address)",
						"numberOfBytes": "32",
						"value": "t_address"
					},
					"t_mapping(t_uint256,t_address)": {
						"encoding": "mapping",
						"key": "t_uint256",
						"label": "mapping(uint256 => address)",
						"numberOfBytes": "32",
						"value": "t_address"
					},
					"t_string_memory_ptr": {
						"encoding": "bytes",
						"label": "string",
						"numberOfBytes": "32"
					},
					"t_string_storage": {
						"encoding": "bytes",
						"label": "string",
						"numberOfBytes": "32"
					},
					"t_struct(User)3896_storage": {
						"encoding": "inplace",
						"label": "struct Whitelist.User",
						"members": [
							{
								"astId": 3891,
								"contract": "contracts/Whitelist.sol:Whitelist",
								"label": "addr",
								"offset": 0,
								"slot": "0",
								"type": "t_address"
							},
							{
								"astId": 3893,
								"contract": "contracts/Whitelist.sol:Whitelist",
								"label": "id",
								"offset": 0,
								"slot": "1",
								"type": "t_uint256"
							},
							{
								"astId": 3895,
								"contract": "contracts/Whitelist.sol:Whitelist",
								"label": "name",
								"offset": 0,
								"slot": "2",
								"type": "t_string_storage"
							}
						],
						"numberOfBytes": "96"
					},
					"t_uint256": {
						"encoding": "inplace",
						"label": "uint256",
						"numberOfBytes": "32"
					}
				}
			},
			"userdoc": {
				"kind": "user",
				"methods": {},
				"version": 1
			}
		}
	}
}