{
	"contracts/users.sol": {
		"Whitelist": {
			"abi": [
				{
					"inputs": [],
					"stateMutability": "nonpayable",
					"type": "constructor"
				},
				{
					"inputs": [
						{
							"internalType": "address",
							"name": "_user",
							"type": "address"
						}
					],
					"name": "whitelist_user",
					"outputs": [],
					"stateMutability": "nonpayable",
					"type": "function"
				}
			],
			"devdoc": {
				"kind": "dev",
				"methods": {},
				"version": 1
			},
			"evm": {
				"assembly": "    /* \"contracts/users.sol\":74:917  contract Whitelist {... */\n  mstore(0x40, 0x80)\n    /* \"contracts/users.sol\":250:328  constructor() {... */\n  callvalue\n  dup1\n  iszero\n  tag_1\n  jumpi\n  0x00\n  dup1\n  revert\ntag_1:\n  pop\n    /* \"contracts/users.sol\":283:293  msg.sender */\n  caller\n    /* \"contracts/users.sol\":275:280  owner */\n  0x00\n  dup1\n    /* \"contracts/users.sol\":275:293  owner = msg.sender */\n  0x0100\n  exp\n  dup2\n  sload\n  dup2\n  0xffffffffffffffffffffffffffffffffffffffff\n  mul\n  not\n  and\n  swap1\n  dup4\n  0xffffffffffffffffffffffffffffffffffffffff\n  and\n  mul\n  or\n  swap1\n  sstore\n  pop\n    /* \"contracts/users.sol\":319:320  0 */\n  0x00\n    /* \"contracts/users.sol\":304:316  num_of_users */\n  0x01\n    /* \"contracts/users.sol\":304:320  num_of_users = 0 */\n  dup2\n  swap1\n  sstore\n  pop\n    /* \"contracts/users.sol\":74:917  contract Whitelist {... */\n  dataSize(sub_0)\n  dup1\n  dataOffset(sub_0)\n  0x00\n  codecopy\n  0x00\n  return\nstop\n\nsub_0: assembly {\n        /* \"contracts/users.sol\":74:917  contract Whitelist {... */\n      mstore(0x40, 0x80)\n      callvalue\n      dup1\n      iszero\n      tag_1\n      jumpi\n      0x00\n      dup1\n      revert\n    tag_1:\n      pop\n      jumpi(tag_2, lt(calldatasize, 0x04))\n      shr(0xe0, calldataload(0x00))\n      dup1\n      0xa83439f8\n      eq\n      tag_3\n      jumpi\n    tag_2:\n      0x00\n      dup1\n      revert\n        /* \"contracts/users.sol\":454:912  function whitelist_user(address _user) external {... */\n    tag_3:\n      tag_4\n      0x04\n      dup1\n      calldatasize\n      sub\n      dup2\n      add\n      swap1\n      tag_5\n      swap2\n      swap1\n      tag_6\n      jump\t// in\n    tag_5:\n      tag_7\n      jump\t// in\n    tag_4:\n      stop\n    tag_7:\n        /* \"contracts/users.sol\":535:540  owner */\n      0x00\n      dup1\n      sload\n      swap1\n      0x0100\n      exp\n      swap1\n      div\n      0xffffffffffffffffffffffffffffffffffffffff\n      and\n        /* \"contracts/users.sol\":521:540  msg.sender == owner */\n      0xffffffffffffffffffffffffffffffffffffffff\n      and\n        /* \"contracts/users.sol\":521:531  msg.sender */\n      caller\n        /* \"contracts/users.sol\":521:540  msg.sender == owner */\n      0xffffffffffffffffffffffffffffffffffffffff\n      and\n      eq\n        /* \"contracts/users.sol\":513:578  require(msg.sender == owner, \"Only owner can whitelist the user\") */\n      tag_9\n      jumpi\n      mload(0x40)\n      0x08c379a000000000000000000000000000000000000000000000000000000000\n      dup2\n      mstore\n      0x04\n      add\n      tag_10\n      swap1\n      tag_11\n      jump\t// in\n    tag_10:\n      mload(0x40)\n      dup1\n      swap2\n      sub\n      swap1\n      revert\n    tag_9:\n        /* \"contracts/users.sol\":615:616  0 */\n      0x00\n        /* \"contracts/users.sol\":597:604  user_id */\n      0x03\n        /* \"contracts/users.sol\":597:611  user_id[_user] */\n      0x00\n        /* \"contracts/users.sol\":605:610  _user */\n      dup4\n        /* \"contracts/users.sol\":597:611  user_id[_user] */\n      0xffffffffffffffffffffffffffffffffffffffff\n      and\n      0xffffffffffffffffffffffffffffffffffffffff\n      and\n      dup2\n      mstore\n      0x20\n      add\n      swap1\n      dup2\n      mstore\n      0x20\n      add\n      0x00\n      keccak256\n      sload\n        /* \"contracts/users.sol\":597:616  user_id[_user] != 0 */\n      sub\n        /* \"contracts/users.sol\":589:661  require(user_id[_user] != 0, \"The address has already been whitelisted\") */\n      tag_12\n      jumpi\n      mload(0x40)\n      0x08c379a000000000000000000000000000000000000000000000000000000000\n      dup2\n      mstore\n      0x04\n      add\n      tag_13\n      swap1\n      tag_14\n      jump\t// in\n    tag_13:\n      mload(0x40)\n      dup1\n      swap2\n      sub\n      swap1\n      revert\n    tag_12:\n        /* \"contracts/users.sol\":709:710  0 */\n      0x00\n        /* \"contracts/users.sol\":691:698  user_id */\n      0x03\n        /* \"contracts/users.sol\":691:705  user_id[_user] */\n      0x00\n        /* \"contracts/users.sol\":699:704  _user */\n      dup4\n        /* \"contracts/users.sol\":691:705  user_id[_user] */\n      0xffffffffffffffffffffffffffffffffffffffff\n      and\n      0xffffffffffffffffffffffffffffffffffffffff\n      and\n      dup2\n      mstore\n      0x20\n      add\n      swap1\n      dup2\n      mstore\n      0x20\n      add\n      0x00\n      keccak256\n      sload\n        /* \"contracts/users.sol\":691:710  user_id[_user] == 0 */\n      sub\n        /* \"contracts/users.sol\":687:903  if (user_id[_user] == 0) {... */\n      tag_15\n      jumpi\n        /* \"contracts/users.sol\":772:777  users */\n      0x02\n        /* \"contracts/users.sol\":783:800  User(_user, true) */\n      mload(0x40)\n      dup1\n      0x40\n      add\n      0x40\n      mstore\n      dup1\n        /* \"contracts/users.sol\":788:793  _user */\n      dup4\n        /* \"contracts/users.sol\":783:800  User(_user, true) */\n      0xffffffffffffffffffffffffffffffffffffffff\n      and\n      dup2\n      mstore\n      0x20\n      add\n        /* \"contracts/users.sol\":795:799  true */\n      0x01\n        /* \"contracts/users.sol\":783:800  User(_user, true) */\n      iszero\n      iszero\n      dup2\n      mstore\n      pop\n        /* \"contracts/users.sol\":772:801  users.push(User(_user, true)) */\n      swap1\n      dup1\n      0x01\n      dup2\n      sload\n      add\n      dup1\n      dup3\n      sstore\n      dup1\n      swap2\n      pop\n      pop\n      0x01\n      swap1\n      sub\n      swap1\n      0x00\n      mstore\n      keccak256(0x00, 0x20)\n      add\n      0x00\n      swap1\n      swap2\n      swap1\n      swap2\n      swap1\n      swap2\n      pop\n      0x00\n      dup3\n      add\n      mload\n      dup2\n      0x00\n      add\n      exp(0x0100, 0x00)\n      dup2\n      sload\n      dup2\n      0xffffffffffffffffffffffffffffffffffffffff\n      mul\n      not\n      and\n      swap1\n      dup4\n      0xffffffffffffffffffffffffffffffffffffffff\n      and\n      mul\n      or\n      swap1\n      sstore\n      pop\n      0x20\n      dup3\n      add\n      mload\n      dup2\n      0x00\n      add\n      exp(0x0100, 0x14)\n      dup2\n      sload\n      dup2\n      0xff\n      mul\n      not\n      and\n      swap1\n      dup4\n      iszero\n      iszero\n      mul\n      or\n      swap1\n      sstore\n      pop\n      pop\n      pop\n        /* \"contracts/users.sol\":832:833  1 */\n      0x01\n        /* \"contracts/users.sol\":816:828  num_of_users */\n      dup1\n      0x00\n        /* \"contracts/users.sol\":816:833  num_of_users += 1 */\n      dup3\n      dup3\n      sload\n      tag_17\n      swap2\n      swap1\n      tag_18\n      jump\t// in\n    tag_17:\n      swap3\n      pop\n      pop\n      dup2\n      swap1\n      sstore\n      pop\n        /* \"contracts/users.sol\":865:877  num_of_users */\n      sload(0x01)\n        /* \"contracts/users.sol\":848:855  user_id */\n      0x03\n        /* \"contracts/users.sol\":848:862  user_id[_user] */\n      0x00\n        /* \"contracts/users.sol\":856:861  _user */\n      dup4\n        /* \"contracts/users.sol\":848:862  user_id[_user] */\n      0xffffffffffffffffffffffffffffffffffffffff\n      and\n      0xffffffffffffffffffffffffffffffffffffffff\n      and\n      dup2\n      mstore\n      0x20\n      add\n      swap1\n      dup2\n      mstore\n      0x20\n      add\n      0x00\n      keccak256\n        /* \"contracts/users.sol\":848:877  user_id[_user] = num_of_users */\n      dup2\n      swap1\n      sstore\n      pop\n        /* \"contracts/users.sol\":687:903  if (user_id[_user] == 0) {... */\n    tag_15:\n        /* \"contracts/users.sol\":454:912  function whitelist_user(address _user) external {... */\n      pop\n      jump\t// out\n        /* \"#utility.yul\":88:205   */\n    tag_20:\n        /* \"#utility.yul\":197:198   */\n      0x00\n        /* \"#utility.yul\":194:195   */\n      dup1\n        /* \"#utility.yul\":187:199   */\n      revert\n        /* \"#utility.yul\":334:460   */\n    tag_22:\n        /* \"#utility.yul\":371:378   */\n      0x00\n        /* \"#utility.yul\":411:453   */\n      0xffffffffffffffffffffffffffffffffffffffff\n        /* \"#utility.yul\":404:409   */\n      dup3\n        /* \"#utility.yul\":400:454   */\n      and\n        /* \"#utility.yul\":389:454   */\n      swap1\n      pop\n        /* \"#utility.yul\":334:460   */\n      swap2\n      swap1\n      pop\n      jump\t// out\n        /* \"#utility.yul\":466:562   */\n    tag_23:\n        /* \"#utility.yul\":503:510   */\n      0x00\n        /* \"#utility.yul\":532:556   */\n      tag_39\n        /* \"#utility.yul\":550:555   */\n      dup3\n        /* \"#utility.yul\":532:556   */\n      tag_22\n      jump\t// in\n    tag_39:\n        /* \"#utility.yul\":521:556   */\n      swap1\n      pop\n        /* \"#utility.yul\":466:562   */\n      swap2\n      swap1\n      pop\n      jump\t// out\n        /* \"#utility.yul\":568:690   */\n    tag_24:\n        /* \"#utility.yul\":641:665   */\n      tag_41\n        /* \"#utility.yul\":659:664   */\n      dup2\n        /* \"#utility.yul\":641:665   */\n      tag_23\n      jump\t// in\n    tag_41:\n        /* \"#utility.yul\":634:639   */\n      dup2\n        /* \"#utility.yul\":631:666   */\n      eq\n        /* \"#utility.yul\":621:684   */\n      tag_42\n      jumpi\n        /* \"#utility.yul\":680:681   */\n      0x00\n        /* \"#utility.yul\":677:678   */\n      dup1\n        /* \"#utility.yul\":670:682   */\n      revert\n        /* \"#utility.yul\":621:684   */\n    tag_42:\n        /* \"#utility.yul\":568:690   */\n      pop\n      jump\t// out\n        /* \"#utility.yul\":696:835   */\n    tag_25:\n        /* \"#utility.yul\":742:747   */\n      0x00\n        /* \"#utility.yul\":780:786   */\n      dup2\n        /* \"#utility.yul\":767:787   */\n      calldataload\n        /* \"#utility.yul\":758:787   */\n      swap1\n      pop\n        /* \"#utility.yul\":796:829   */\n      tag_44\n        /* \"#utility.yul\":823:828   */\n      dup2\n        /* \"#utility.yul\":796:829   */\n      tag_24\n      jump\t// in\n    tag_44:\n        /* \"#utility.yul\":696:835   */\n      swap3\n      swap2\n      pop\n      pop\n      jump\t// out\n        /* \"#utility.yul\":841:1170   */\n    tag_6:\n        /* \"#utility.yul\":900:906   */\n      0x00\n        /* \"#utility.yul\":949:951   */\n      0x20\n        /* \"#utility.yul\":937:946   */\n      dup3\n        /* \"#utility.yul\":928:935   */\n      dup5\n        /* \"#utility.yul\":924:947   */\n      sub\n        /* \"#utility.yul\":920:952   */\n      slt\n        /* \"#utility.yul\":917:1036   */\n      iszero\n      tag_46\n      jumpi\n        /* \"#utility.yul\":955:1034   */\n      tag_47\n      tag_20\n      jump\t// in\n    tag_47:\n        /* \"#utility.yul\":917:1036   */\n    tag_46:\n        /* \"#utility.yul\":1075:1076   */\n      0x00\n        /* \"#utility.yul\":1100:1153   */\n      tag_48\n        /* \"#utility.yul\":1145:1152   */\n      dup5\n        /* \"#utility.yul\":1136:1142   */\n      dup3\n        /* \"#utility.yul\":1125:1134   */\n      dup6\n        /* \"#utility.yul\":1121:1143   */\n      add\n        /* \"#utility.yul\":1100:1153   */\n      tag_25\n      jump\t// in\n    tag_48:\n        /* \"#utility.yul\":1090:1153   */\n      swap2\n      pop\n        /* \"#utility.yul\":1046:1163   */\n      pop\n        /* \"#utility.yul\":841:1170   */\n      swap3\n      swap2\n      pop\n      pop\n      jump\t// out\n        /* \"#utility.yul\":1176:1345   */\n    tag_26:\n        /* \"#utility.yul\":1260:1271   */\n      0x00\n        /* \"#utility.yul\":1294:1300   */\n      dup3\n        /* \"#utility.yul\":1289:1292   */\n      dup3\n        /* \"#utility.yul\":1282:1301   */\n      mstore\n        /* \"#utility.yul\":1334:1338   */\n      0x20\n        /* \"#utility.yul\":1329:1332   */\n      dup3\n        /* \"#utility.yul\":1325:1339   */\n      add\n        /* \"#utility.yul\":1310:1339   */\n      swap1\n      pop\n        /* \"#utility.yul\":1176:1345   */\n      swap3\n      swap2\n      pop\n      pop\n      jump\t// out\n        /* \"#utility.yul\":1351:1571   */\n    tag_27:\n        /* \"#utility.yul\":1491:1525   */\n      0x4f6e6c79206f776e65722063616e2077686974656c6973742074686520757365\n        /* \"#utility.yul\":1487:1488   */\n      0x00\n        /* \"#utility.yul\":1479:1485   */\n      dup3\n        /* \"#utility.yul\":1475:1489   */\n      add\n        /* \"#utility.yul\":1468:1526   */\n      mstore\n        /* \"#utility.yul\":1560:1563   */\n      0x7200000000000000000000000000000000000000000000000000000000000000\n        /* \"#utility.yul\":1555:1557   */\n      0x20\n        /* \"#utility.yul\":1547:1553   */\n      dup3\n        /* \"#utility.yul\":1543:1558   */\n      add\n        /* \"#utility.yul\":1536:1564   */\n      mstore\n        /* \"#utility.yul\":1351:1571   */\n      pop\n      jump\t// out\n        /* \"#utility.yul\":1577:1943   */\n    tag_28:\n        /* \"#utility.yul\":1719:1722   */\n      0x00\n        /* \"#utility.yul\":1740:1807   */\n      tag_52\n        /* \"#utility.yul\":1804:1806   */\n      0x21\n        /* \"#utility.yul\":1799:1802   */\n      dup4\n        /* \"#utility.yul\":1740:1807   */\n      tag_26\n      jump\t// in\n    tag_52:\n        /* \"#utility.yul\":1733:1807   */\n      swap2\n      pop\n        /* \"#utility.yul\":1816:1909   */\n      tag_53\n        /* \"#utility.yul\":1905:1908   */\n      dup3\n        /* \"#utility.yul\":1816:1909   */\n      tag_27\n      jump\t// in\n    tag_53:\n        /* \"#utility.yul\":1934:1936   */\n      0x40\n        /* \"#utility.yul\":1929:1932   */\n      dup3\n        /* \"#utility.yul\":1925:1937   */\n      add\n        /* \"#utility.yul\":1918:1937   */\n      swap1\n      pop\n        /* \"#utility.yul\":1577:1943   */\n      swap2\n      swap1\n      pop\n      jump\t// out\n        /* \"#utility.yul\":1949:2368   */\n    tag_11:\n        /* \"#utility.yul\":2115:2119   */\n      0x00\n        /* \"#utility.yul\":2153:2155   */\n      0x20\n        /* \"#utility.yul\":2142:2151   */\n      dup3\n        /* \"#utility.yul\":2138:2156   */\n      add\n        /* \"#utility.yul\":2130:2156   */\n      swap1\n      pop\n        /* \"#utility.yul\":2202:2211   */\n      dup2\n        /* \"#utility.yul\":2196:2200   */\n      dup2\n        /* \"#utility.yul\":2192:2212   */\n      sub\n        /* \"#utility.yul\":2188:2189   */\n      0x00\n        /* \"#utility.yul\":2177:2186   */\n      dup4\n        /* \"#utility.yul\":2173:2190   */\n      add\n        /* \"#utility.yul\":2166:2213   */\n      mstore\n        /* \"#utility.yul\":2230:2361   */\n      tag_55\n        /* \"#utility.yul\":2356:2360   */\n      dup2\n        /* \"#utility.yul\":2230:2361   */\n      tag_28\n      jump\t// in\n    tag_55:\n        /* \"#utility.yul\":2222:2361   */\n      swap1\n      pop\n        /* \"#utility.yul\":1949:2368   */\n      swap2\n      swap1\n      pop\n      jump\t// out\n        /* \"#utility.yul\":2374:2601   */\n    tag_29:\n        /* \"#utility.yul\":2514:2548   */\n      0x54686520616464726573732068617320616c7265616479206265656e20776869\n        /* \"#utility.yul\":2510:2511   */\n      0x00\n        /* \"#utility.yul\":2502:2508   */\n      dup3\n        /* \"#utility.yul\":2498:2512   */\n      add\n        /* \"#utility.yul\":2491:2549   */\n      mstore\n        /* \"#utility.yul\":2583:2593   */\n      0x74656c6973746564000000000000000000000000000000000000000000000000\n        /* \"#utility.yul\":2578:2580   */\n      0x20\n        /* \"#utility.yul\":2570:2576   */\n      dup3\n        /* \"#utility.yul\":2566:2581   */\n      add\n        /* \"#utility.yul\":2559:2594   */\n      mstore\n        /* \"#utility.yul\":2374:2601   */\n      pop\n      jump\t// out\n        /* \"#utility.yul\":2607:2973   */\n    tag_30:\n        /* \"#utility.yul\":2749:2752   */\n      0x00\n        /* \"#utility.yul\":2770:2837   */\n      tag_58\n        /* \"#utility.yul\":2834:2836   */\n      0x28\n        /* \"#utility.yul\":2829:2832   */\n      dup4\n        /* \"#utility.yul\":2770:2837   */\n      tag_26\n      jump\t// in\n    tag_58:\n        /* \"#utility.yul\":2763:2837   */\n      swap2\n      pop\n        /* \"#utility.yul\":2846:2939   */\n      tag_59\n        /* \"#utility.yul\":2935:2938   */\n      dup3\n        /* \"#utility.yul\":2846:2939   */\n      tag_29\n      jump\t// in\n    tag_59:\n        /* \"#utility.yul\":2964:2966   */\n      0x40\n        /* \"#utility.yul\":2959:2962   */\n      dup3\n        /* \"#utility.yul\":2955:2967   */\n      add\n        /* \"#utility.yul\":2948:2967   */\n      swap1\n      pop\n        /* \"#utility.yul\":2607:2973   */\n      swap2\n      swap1\n      pop\n      jump\t// out\n        /* \"#utility.yul\":2979:3398   */\n    tag_14:\n        /* \"#utility.yul\":3145:3149   */\n      0x00\n        /* \"#utility.yul\":3183:3185   */\n      0x20\n        /* \"#utility.yul\":3172:3181   */\n      dup3\n        /* \"#utility.yul\":3168:3186   */\n      add\n        /* \"#utility.yul\":3160:3186   */\n      swap1\n      pop\n        /* \"#utility.yul\":3232:3241   */\n      dup2\n        /* \"#utility.yul\":3226:3230   */\n      dup2\n        /* \"#utility.yul\":3222:3242   */\n      sub\n        /* \"#utility.yul\":3218:3219   */\n      0x00\n        /* \"#utility.yul\":3207:3216   */\n      dup4\n        /* \"#utility.yul\":3203:3220   */\n      add\n        /* \"#utility.yul\":3196:3243   */\n      mstore\n        /* \"#utility.yul\":3260:3391   */\n      tag_61\n        /* \"#utility.yul\":3386:3390   */\n      dup2\n        /* \"#utility.yul\":3260:3391   */\n      tag_30\n      jump\t// in\n    tag_61:\n        /* \"#utility.yul\":3252:3391   */\n      swap1\n      pop\n        /* \"#utility.yul\":2979:3398   */\n      swap2\n      swap1\n      pop\n      jump\t// out\n        /* \"#utility.yul\":3404:3481   */\n    tag_31:\n        /* \"#utility.yul\":3441:3448   */\n      0x00\n        /* \"#utility.yul\":3470:3475   */\n      dup2\n        /* \"#utility.yul\":3459:3475   */\n      swap1\n      pop\n        /* \"#utility.yul\":3404:3481   */\n      swap2\n      swap1\n      pop\n      jump\t// out\n        /* \"#utility.yul\":3487:3667   */\n    tag_32:\n        /* \"#utility.yul\":3535:3612   */\n      0x4e487b7100000000000000000000000000000000000000000000000000000000\n        /* \"#utility.yul\":3532:3533   */\n      0x00\n        /* \"#utility.yul\":3525:3613   */\n      mstore\n        /* \"#utility.yul\":3632:3636   */\n      0x11\n        /* \"#utility.yul\":3629:3630   */\n      0x04\n        /* \"#utility.yul\":3622:3637   */\n      mstore\n        /* \"#utility.yul\":3656:3660   */\n      0x24\n        /* \"#utility.yul\":3653:3654   */\n      0x00\n        /* \"#utility.yul\":3646:3661   */\n      revert\n        /* \"#utility.yul\":3673:3864   */\n    tag_18:\n        /* \"#utility.yul\":3713:3716   */\n      0x00\n        /* \"#utility.yul\":3732:3752   */\n      tag_65\n        /* \"#utility.yul\":3750:3751   */\n      dup3\n        /* \"#utility.yul\":3732:3752   */\n      tag_31\n      jump\t// in\n    tag_65:\n        /* \"#utility.yul\":3727:3752   */\n      swap2\n      pop\n        /* \"#utility.yul\":3766:3786   */\n      tag_66\n        /* \"#utility.yul\":3784:3785   */\n      dup4\n        /* \"#utility.yul\":3766:3786   */\n      tag_31\n      jump\t// in\n    tag_66:\n        /* \"#utility.yul\":3761:3786   */\n      swap3\n      pop\n        /* \"#utility.yul\":3809:3810   */\n      dup3\n        /* \"#utility.yul\":3806:3807   */\n      dup3\n        /* \"#utility.yul\":3802:3811   */\n      add\n        /* \"#utility.yul\":3795:3811   */\n      swap1\n      pop\n        /* \"#utility.yul\":3830:3833   */\n      dup1\n        /* \"#utility.yul\":3827:3828   */\n      dup3\n        /* \"#utility.yul\":3824:3834   */\n      gt\n        /* \"#utility.yul\":3821:3857   */\n      iszero\n      tag_67\n      jumpi\n        /* \"#utility.yul\":3837:3855   */\n      tag_68\n      tag_32\n      jump\t// in\n    tag_68:\n        /* \"#utility.yul\":3821:3857   */\n    tag_67:\n        /* \"#utility.yul\":3673:3864   */\n      swap3\n      swap2\n      pop\n      pop\n      jump\t// out\n\n    auxdata: 0xa2646970667358221220133289c78054e8048611e8bb69ea7edfb729f920816c7411f916c81ad520693d64736f6c634300081a0033\n}\n",
				"bytecode": {
					"linkReferences": {},
					"object": "6080604052348015600e575f80fd5b50335f806101000a81548173ffffffffffffffffffffffffffffffffffffffff021916908373ffffffffffffffffffffffffffffffffffffffff1602179055505f600181905550610504806100625f395ff3fe608060405234801561000f575f80fd5b5060043610610029575f3560e01c8063a83439f81461002d575b5f80fd5b6100476004803603810190610042919061030e565b610049565b005b5f8054906101000a900473ffffffffffffffffffffffffffffffffffffffff1673ffffffffffffffffffffffffffffffffffffffff163373ffffffffffffffffffffffffffffffffffffffff16146100d6576040517f08c379a00000000000000000000000000000000000000000000000000000000081526004016100cd906103b9565b60405180910390fd5b5f60035f8373ffffffffffffffffffffffffffffffffffffffff1673ffffffffffffffffffffffffffffffffffffffff1681526020019081526020015f205403610155576040517f08c379a000000000000000000000000000000000000000000000000000000000815260040161014c90610447565b60405180910390fd5b5f60035f8373ffffffffffffffffffffffffffffffffffffffff1673ffffffffffffffffffffffffffffffffffffffff1681526020019081526020015f2054036102ad57600260405180604001604052808373ffffffffffffffffffffffffffffffffffffffff16815260200160011515815250908060018154018082558091505060019003905f5260205f20015f909190919091505f820151815f015f6101000a81548173ffffffffffffffffffffffffffffffffffffffff021916908373ffffffffffffffffffffffffffffffffffffffff1602179055506020820151815f0160146101000a81548160ff02191690831515021790555050506001805f828254610261919061049b565b9250508190555060015460035f8373ffffffffffffffffffffffffffffffffffffffff1673ffffffffffffffffffffffffffffffffffffffff1681526020019081526020015f20819055505b50565b5f80fd5b5f73ffffffffffffffffffffffffffffffffffffffff82169050919050565b5f6102dd826102b4565b9050919050565b6102ed816102d3565b81146102f7575f80fd5b50565b5f81359050610308816102e4565b92915050565b5f60208284031215610323576103226102b0565b5b5f610330848285016102fa565b91505092915050565b5f82825260208201905092915050565b7f4f6e6c79206f776e65722063616e2077686974656c69737420746865207573655f8201527f7200000000000000000000000000000000000000000000000000000000000000602082015250565b5f6103a3602183610339565b91506103ae82610349565b604082019050919050565b5f6020820190508181035f8301526103d081610397565b9050919050565b7f54686520616464726573732068617320616c7265616479206265656e207768695f8201527f74656c6973746564000000000000000000000000000000000000000000000000602082015250565b5f610431602883610339565b915061043c826103d7565b604082019050919050565b5f6020820190508181035f83015261045e81610425565b9050919050565b5f819050919050565b7f4e487b71000000000000000000000000000000000000000000000000000000005f52601160045260245ffd5b5f6104a582610465565b91506104b083610465565b92508282019050808211156104c8576104c761046e565b5b9291505056fea2646970667358221220133289c78054e8048611e8bb69ea7edfb729f920816c7411f916c81ad520693d64736f6c634300081a0033",
					"opcodes": "PUSH1 0x80 PUSH1 0x40 MSTORE CALLVALUE DUP1 ISZERO PUSH1 0xE JUMPI PUSH0 DUP1 REVERT JUMPDEST POP CALLER PUSH0 DUP1 PUSH2 0x100 EXP DUP2 SLOAD DUP2 PUSH20 0xFFFFFFFFFFFFFFFFFFFFFFFFFFFFFFFFFFFFFFFF MUL NOT AND SWAP1 DUP4 PUSH20 0xFFFFFFFFFFFFFFFFFFFFFFFFFFFFFFFFFFFFFFFF AND MUL OR SWAP1 SSTORE POP PUSH0 PUSH1 0x1 DUP2 SWAP1 SSTORE POP PUSH2 0x504 DUP1 PUSH2 0x62 PUSH0 CODECOPY PUSH0 RETURN INVALID PUSH1 0x80 PUSH1 0x40 MSTORE CALLVALUE DUP1 ISZERO PUSH2 0xF JUMPI PUSH0 DUP1 REVERT JUMPDEST POP PUSH1 0x4 CALLDATASIZE LT PUSH2 0x29 JUMPI PUSH0 CALLDATALOAD PUSH1 0xE0 SHR DUP1 PUSH4 0xA83439F8 EQ PUSH2 0x2D JUMPI JUMPDEST PUSH0 DUP1 REVERT JUMPDEST PUSH2 0x47 PUSH1 0x4 DUP1 CALLDATASIZE SUB DUP2 ADD SWAP1 PUSH2 0x42 SWAP2 SWAP1 PUSH2 0x30E JUMP JUMPDEST PUSH2 0x49 JUMP JUMPDEST STOP JUMPDEST PUSH0 DUP1 SLOAD SWAP1 PUSH2 0x100 EXP SWAP1 DIV PUSH20 0xFFFFFFFFFFFFFFFFFFFFFFFFFFFFFFFFFFFFFFFF AND PUSH20 0xFFFFFFFFFFFFFFFFFFFFFFFFFFFFFFFFFFFFFFFF AND CALLER PUSH20 0xFFFFFFFFFFFFFFFFFFFFFFFFFFFFFFFFFFFFFFFF AND EQ PUSH2 0xD6 JUMPI PUSH1 0x40 MLOAD PUSH32 0x8C379A000000000000000000000000000000000000000000000000000000000 DUP2 MSTORE PUSH1 0x4 ADD PUSH2 0xCD SWAP1 PUSH2 0x3B9 JUMP JUMPDEST PUSH1 0x40 MLOAD DUP1 SWAP2 SUB SWAP1 REVERT JUMPDEST PUSH0 PUSH1 0x3 PUSH0 DUP4 PUSH20 0xFFFFFFFFFFFFFFFFFFFFFFFFFFFFFFFFFFFFFFFF AND PUSH20 0xFFFFFFFFFFFFFFFFFFFFFFFFFFFFFFFFFFFFFFFF AND DUP2 MSTORE PUSH1 0x20 ADD SWAP1 DUP2 MSTORE PUSH1 0x20 ADD PUSH0 KECCAK256 SLOAD SUB PUSH2 0x155 JUMPI PUSH1 0x40 MLOAD PUSH32 0x8C379A000000000000000000000000000000000000000000000000000000000 DUP2 MSTORE PUSH1 0x4 ADD PUSH2 0x14C SWAP1 PUSH2 0x447 JUMP JUMPDEST PUSH1 0x40 MLOAD DUP1 SWAP2 SUB SWAP1 REVERT JUMPDEST PUSH0 PUSH1 0x3 PUSH0 DUP4 PUSH20 0xFFFFFFFFFFFFFFFFFFFFFFFFFFFFFFFFFFFFFFFF AND PUSH20 0xFFFFFFFFFFFFFFFFFFFFFFFFFFFFFFFFFFFFFFFF AND DUP2 MSTORE PUSH1 0x20 ADD SWAP1 DUP2 MSTORE PUSH1 0x20 ADD PUSH0 KECCAK256 SLOAD SUB PUSH2 0x2AD JUMPI PUSH1 0x2 PUSH1 0x40 MLOAD DUP1 PUSH1 0x40 ADD PUSH1 0x40 MSTORE DUP1 DUP4 PUSH20 0xFFFFFFFFFFFFFFFFFFFFFFFFFFFFFFFFFFFFFFFF AND DUP2 MSTORE PUSH1 0x20 ADD PUSH1 0x1 ISZERO ISZERO DUP2 MSTORE POP SWAP1 DUP1 PUSH1 0x1 DUP2 SLOAD ADD DUP1 DUP3 SSTORE DUP1 SWAP2 POP POP PUSH1 0x1 SWAP1 SUB SWAP1 PUSH0 MSTORE PUSH1 0x20 PUSH0 KECCAK256 ADD PUSH0 SWAP1 SWAP2 SWAP1 SWAP2 SWAP1 SWAP2 POP PUSH0 DUP3 ADD MLOAD DUP2 PUSH0 ADD PUSH0 PUSH2 0x100 EXP DUP2 SLOAD DUP2 PUSH20 0xFFFFFFFFFFFFFFFFFFFFFFFFFFFFFFFFFFFFFFFF MUL NOT AND SWAP1 DUP4 PUSH20 0xFFFFFFFFFFFFFFFFFFFFFFFFFFFFFFFFFFFFFFFF AND MUL OR SWAP1 SSTORE POP PUSH1 0x20 DUP3 ADD MLOAD DUP2 PUSH0 ADD PUSH1 0x14 PUSH2 0x100 EXP DUP2 SLOAD DUP2 PUSH1 0xFF MUL NOT AND SWAP1 DUP4 ISZERO ISZERO MUL OR SWAP1 SSTORE POP POP POP PUSH1 0x1 DUP1 PUSH0 DUP3 DUP3 SLOAD PUSH2 0x261 SWAP2 SWAP1 PUSH2 0x49B JUMP JUMPDEST SWAP3 POP POP DUP2 SWAP1 SSTORE POP PUSH1 0x1 SLOAD PUSH1 0x3 PUSH0 DUP4 PUSH20 0xFFFFFFFFFFFFFFFFFFFFFFFFFFFFFFFFFFFFFFFF AND PUSH20 0xFFFFFFFFFFFFFFFFFFFFFFFFFFFFFFFFFFFFFFFF AND DUP2 MSTORE PUSH1 0x20 ADD SWAP1 DUP2 MSTORE PUSH1 0x20 ADD PUSH0 KECCAK256 DUP2 SWAP1 SSTORE POP JUMPDEST POP JUMP JUMPDEST PUSH0 DUP1 REVERT JUMPDEST PUSH0 PUSH20 0xFFFFFFFFFFFFFFFFFFFFFFFFFFFFFFFFFFFFFFFF DUP3 AND SWAP1 POP SWAP2 SWAP1 POP JUMP JUMPDEST PUSH0 PUSH2 0x2DD DUP3 PUSH2 0x2B4 JUMP JUMPDEST SWAP1 POP SWAP2 SWAP1 POP JUMP JUMPDEST PUSH2 0x2ED DUP2 PUSH2 0x2D3 JUMP JUMPDEST DUP2 EQ PUSH2 0x2F7 JUMPI PUSH0 DUP1 REVERT JUMPDEST POP JUMP JUMPDEST PUSH0 DUP2 CALLDATALOAD SWAP1 POP PUSH2 0x308 DUP2 PUSH2 0x2E4 JUMP JUMPDEST SWAP3 SWAP2 POP POP JUMP JUMPDEST PUSH0 PUSH1 0x20 DUP3 DUP5 SUB SLT ISZERO PUSH2 0x323 JUMPI PUSH2 0x322 PUSH2 0x2B0 JUMP JUMPDEST JUMPDEST PUSH0 PUSH2 0x330 DUP5 DUP3 DUP6 ADD PUSH2 0x2FA JUMP JUMPDEST SWAP2 POP POP SWAP3 SWAP2 POP POP JUMP JUMPDEST PUSH0 DUP3 DUP3 MSTORE PUSH1 0x20 DUP3 ADD SWAP1 POP SWAP3 SWAP2 POP POP JUMP JUMPDEST PUSH32 0x4F6E6C79206F776E65722063616E2077686974656C6973742074686520757365 PUSH0 DUP3 ADD MSTORE PUSH32 0x7200000000000000000000000000000000000000000000000000000000000000 PUSH1 0x20 DUP3 ADD MSTORE POP JUMP JUMPDEST PUSH0 PUSH2 0x3A3 PUSH1 0x21 DUP4 PUSH2 0x339 JUMP JUMPDEST SWAP2 POP PUSH2 0x3AE DUP3 PUSH2 0x349 JUMP JUMPDEST PUSH1 0x40 DUP3 ADD SWAP1 POP SWAP2 SWAP1 POP JUMP JUMPDEST PUSH0 PUSH1 0x20 DUP3 ADD SWAP1 POP DUP2 DUP2 SUB PUSH0 DUP4 ADD MSTORE PUSH2 0x3D0 DUP2 PUSH2 0x397 JUMP JUMPDEST SWAP1 POP SWAP2 SWAP1 POP JUMP JUMPDEST PUSH32 0x54686520616464726573732068617320616C7265616479206265656E20776869 PUSH0 DUP3 ADD MSTORE PUSH32 0x74656C6973746564000000000000000000000000000000000000000000000000 PUSH1 0x20 DUP3 ADD MSTORE POP JUMP JUMPDEST PUSH0 PUSH2 0x431 PUSH1 0x28 DUP4 PUSH2 0x339 JUMP JUMPDEST SWAP2 POP PUSH2 0x43C DUP3 PUSH2 0x3D7 JUMP JUMPDEST PUSH1 0x40 DUP3 ADD SWAP1 POP SWAP2 SWAP1 POP JUMP JUMPDEST PUSH0 PUSH1 0x20 DUP3 ADD SWAP1 POP DUP2 DUP2 SUB PUSH0 DUP4 ADD MSTORE PUSH2 0x45E DUP2 PUSH2 0x425 JUMP JUMPDEST SWAP1 POP SWAP2 SWAP1 POP JUMP JUMPDEST PUSH0 DUP2 SWAP1 POP SWAP2 SWAP1 POP JUMP JUMPDEST PUSH32 0x4E487B7100000000000000000000000000000000000000000000000000000000 PUSH0 MSTORE PUSH1 0x11 PUSH1 0x4 MSTORE PUSH1 0x24 PUSH0 REVERT JUMPDEST PUSH0 PUSH2 0x4A5 DUP3 PUSH2 0x465 JUMP JUMPDEST SWAP2 POP PUSH2 0x4B0 DUP4 PUSH2 0x465 JUMP JUMPDEST SWAP3 POP DUP3 DUP3 ADD SWAP1 POP DUP1 DUP3 GT ISZERO PUSH2 0x4C8 JUMPI PUSH2 0x4C7 PUSH2 0x46E JUMP JUMPDEST JUMPDEST SWAP3 SWAP2 POP POP JUMP INVALID LOG2 PUSH5 0x6970667358 0x22 SLT KECCAK256 SGT ORIGIN DUP10 0xC7 DUP1 SLOAD 0xE8 DIV DUP7 GT 0xE8 0xBB PUSH10 0xEA7EDFB729F920816C74 GT 0xF9 AND 0xC8 BYTE 0xD5 KECCAK256 PUSH10 0x3D64736F6C634300081A STOP CALLER "
				},
				"gasEstimates": {
					"creation": {
						"codeDepositCost": "256800",
						"executionCost": "29576",
						"totalCost": "286376"
					},
					"external": {
						"whitelist_user(address)": "infinite"
					}
				},
				"methodIdentifiers": {
					"whitelist_user(address)": "a83439f8"
				}
			},
			"storageLayout": {
				"storage": [
					{
						"astId": 8,
						"contract": "contracts/users.sol:Whitelist",
						"label": "owner",
						"offset": 0,
						"slot": "0",
						"type": "t_address"
					},
					{
						"astId": 10,
						"contract": "contracts/users.sol:Whitelist",
						"label": "num_of_users",
						"offset": 0,
						"slot": "1",
						"type": "t_uint256"
					},
					{
						"astId": 14,
						"contract": "contracts/users.sol:Whitelist",
						"label": "users",
						"offset": 0,
						"slot": "2",
						"type": "t_array(t_struct(User)6_storage)dyn_storage"
					},
					{
						"astId": 31,
						"contract": "contracts/users.sol:Whitelist",
						"label": "user_id",
						"offset": 0,
						"slot": "3",
						"type": "t_mapping(t_address,t_uint256)"
					}
				],
				"types": {
					"t_address": {
						"encoding": "inplace",
						"label": "address",
						"numberOfBytes": "20"
					},
					"t_array(t_struct(User)6_storage)dyn_storage": {
						"base": "t_struct(User)6_storage",
						"encoding": "dynamic_array",
						"label": "struct Whitelist.User[]",
						"numberOfBytes": "32"
					},
					"t_bool": {
						"encoding": "inplace",
						"label": "bool",
						"numberOfBytes": "1"
					},
					"t_mapping(t_address,t_uint256)": {
						"encoding": "mapping",
						"key": "t_address",
						"label": "mapping(address => uint256)",
						"numberOfBytes": "32",
						"value": "t_uint256"
					},
					"t_struct(User)6_storage": {
						"encoding": "inplace",
						"label": "struct Whitelist.User",
						"members": [
							{
								"astId": 3,
								"contract": "contracts/users.sol:Whitelist",
								"label": "_user",
								"offset": 0,
								"slot": "0",
								"type": "t_address"
							},
							{
								"astId": 5,
								"contract": "contracts/users.sol:Whitelist",
								"label": "whitelisted",
								"offset": 20,
								"slot": "0",
								"type": "t_bool"
							}
						],
						"numberOfBytes": "32"
					},
					"t_uint256": {
						"encoding": "inplace",
						"label": "uint256",
						"numberOfBytes": "32"
					}
				}
			},
			"userdoc": {
				"kind": "user",
				"methods": {},
				"version": 1
			}
		}
	}
}