{
	"contracts/UserSystem.sol": {
		"UserSystem": {
			"abi": [
				{
					"inputs": [],
					"stateMutability": "nonpayable",
					"type": "constructor"
				},
				{
					"anonymous": false,
					"inputs": [
						{
							"indexed": true,
							"internalType": "address",
							"name": "addr",
							"type": "address"
						}
					],
					"name": "UserAdded",
					"type": "event"
				},
				{
					"anonymous": false,
					"inputs": [
						{
							"indexed": true,
							"internalType": "address",
							"name": "addr",
							"type": "address"
						}
					],
					"name": "UserRemoved",
					"type": "event"
				},
				{
					"anonymous": false,
					"inputs": [
						{
							"indexed": true,
							"internalType": "address",
							"name": "addr",
							"type": "address"
						},
						{
							"indexed": false,
							"internalType": "string",
							"name": "newName",
							"type": "string"
						}
					],
					"name": "UserRenamed",
					"type": "event"
				},
				{
					"inputs": [
						{
							"internalType": "address",
							"name": "_addr",
							"type": "address"
						}
					],
					"name": "addUser",
					"outputs": [],
					"stateMutability": "nonpayable",
					"type": "function"
				},
				{
					"inputs": [],
					"name": "driveOwner",
					"outputs": [
						{
							"internalType": "address",
							"name": "addr",
							"type": "address"
						},
						{
							"internalType": "uint256",
							"name": "id",
							"type": "uint256"
						},
						{
							"internalType": "string",
							"name": "username",
							"type": "string"
						},
						{
							"internalType": "bool",
							"name": "exists",
							"type": "bool"
						}
					],
					"stateMutability": "view",
					"type": "function"
				},
				{
					"inputs": [
						{
							"internalType": "address",
							"name": "_addr",
							"type": "address"
						}
					],
					"name": "removeUser",
					"outputs": [],
					"stateMutability": "nonpayable",
					"type": "function"
				},
				{
					"inputs": [
						{
							"internalType": "string",
							"name": "_newName",
							"type": "string"
						}
					],
					"name": "renameSelf",
					"outputs": [],
					"stateMutability": "nonpayable",
					"type": "function"
				},
				{
					"inputs": [],
					"name": "userCount",
					"outputs": [
						{
							"internalType": "uint256",
							"name": "",
							"type": "uint256"
						}
					],
					"stateMutability": "view",
					"type": "function"
				},
				{
					"inputs": [],
					"name": "viewUserList",
					"outputs": [
						{
							"components": [
								{
									"internalType": "address",
									"name": "addr",
									"type": "address"
								},
								{
									"internalType": "uint256",
									"name": "id",
									"type": "uint256"
								},
								{
									"internalType": "string",
									"name": "username",
									"type": "string"
								},
								{
									"internalType": "bool",
									"name": "exists",
									"type": "bool"
								}
							],
							"internalType": "struct UserSystem.User[]",
							"name": "",
							"type": "tuple[]"
						}
					],
					"stateMutability": "view",
					"type": "function"
				},
				{
					"inputs": [],
					"name": "whoami",
					"outputs": [
						{
							"internalType": "string",
							"name": "",
							"type": "string"
						}
					],
					"stateMutability": "view",
					"type": "function"
				}
			],
			"devdoc": {
				"kind": "dev",
				"methods": {},
				"version": 1
			},
			"evm": {
				"assembly": "    /* \"contracts/UserSystem.sol\":127:3037  contract UserSystem {... */\n  mstore(0x40, 0x80)\n    /* \"contracts/UserSystem.sol\":948:1320  constructor() {... */\n  callvalue\n  dup1\n  iszero\n  tag_1\n  jumpi\n  0x00\n  dup1\n  revert\ntag_1:\n  pop\n    /* \"contracts/UserSystem.sol\":986:1113  User({... */\n  0x40\n  dup1\n  mload\n  0x80\n  dup2\n  add\n  dup3\n  mstore\n    /* \"contracts/UserSystem.sol\":1012:1022  msg.sender */\n  caller\n    /* \"contracts/UserSystem.sol\":986:1113  User({... */\n  dup2\n  mstore\n  0x00\n  0x20\n  dup1\n  dup4\n  add\n  dup3\n  dup2\n  mstore\n  dup5\n  mload\n  dup1\n  dup7\n  add\n  dup7\n  mstore\n  0x05\n  dup2\n  mstore\n  shl(0xd9, 0x27bbb732b9)\n  swap3\n  dup2\n  add\n  swap3\n  swap1\n  swap3\n  mstore\n  swap4\n  dup4\n  add\n  dup2\n  swap1\n  mstore\n    /* \"contracts/UserSystem.sol\":1097:1101  true */\n  0x01\n    /* \"contracts/UserSystem.sol\":986:1113  User({... */\n  0x60\n  dup5\n  add\n  dup2\n  swap1\n  mstore\n    /* \"contracts/UserSystem.sol\":973:1113  driveOwner = User({... */\n  dup4\n  mload\n  dup4\n  sload\n  not(sub(shl(0xa0, 0x01), 0x01))\n  and\n  sub(shl(0xa0, 0x01), 0x01)\n  swap1\n  swap2\n  and\n  or\n  dup4\n  sstore\n  swap4\n  mload\n  swap1\n  swap4\n  sstore\n    /* \"contracts/UserSystem.sol\":986:1113  User({... */\n  swap1\n  swap2\n    /* \"contracts/UserSystem.sol\":973:1113  driveOwner = User({... */\n  0x02\n  swap1\n  tag_4\n  swap1\n  dup3\n  tag_5\n  jump\t// in\ntag_4:\n  pop\n  0x60\n  swap2\n  swap1\n  swap2\n  add\n  mload\n  0x03\n  swap1\n  swap2\n  add\n  dup1\n  sload\n  not(0xff)\n  and\n  swap2\n  iszero\n  iszero\n  swap2\n  swap1\n  swap2\n  or\n  swap1\n  sstore\n    /* \"contracts/UserSystem.sol\":1130:1140  msg.sender */\n  caller\n  0x00\n    /* \"contracts/UserSystem.sol\":1124:1141  users[msg.sender] */\n  swap1\n  dup2\n  mstore\n    /* \"contracts/UserSystem.sol\":1124:1129  users */\n  0x06\n    /* \"contracts/UserSystem.sol\":1124:1141  users[msg.sender] */\n  0x20\n  mstore\n  0x40\n  dup2\n  keccak256\n    /* \"contracts/UserSystem.sol\":1124:1154  users[msg.sender] = driveOwner */\n  dup2\n  sload\n  dup2\n  sload\n  sub(shl(0xa0, 0x01), 0x01)\n  swap1\n  swap2\n  and\n  not(sub(shl(0xa0, 0x01), 0x01))\n  swap1\n  swap2\n  and\n  or\n  dup2\n  sstore\n  0x01\n  dup1\n  sload\n  swap1\n  dup3\n  add\n  sstore\n  0x02\n  dup1\n  dup3\n  add\n  swap1\n  tag_6\n  swap1\n  dup3\n  tag_7\n  jump\t// in\ntag_6:\n  pop\n  0x03\n  swap2\n  dup3\n  add\n  sload\n  swap2\n  add\n  dup1\n  sload\n  0xff\n  swap1\n  swap3\n  and\n  iszero\n  iszero\n  not(0xff)\n  swap1\n  swap3\n  and\n  swap2\n  swap1\n  swap2\n  or\n  swap1\n  sstore\n  0x00\n    /* \"contracts/UserSystem.sol\":1191:1206  driveOwner.addr */\n  dup1\n  sload\n    /* \"contracts/UserSystem.sol\":1124:1154  users[msg.sender] = driveOwner */\n  0x01\n    /* \"contracts/UserSystem.sol\":1174:1187  driveOwner.id */\n  sload\n    /* \"contracts/UserSystem.sol\":1165:1188  userById[driveOwner.id] */\n  dup3\n  mstore\n    /* \"contracts/UserSystem.sol\":1165:1173  userById */\n  0x07\n    /* \"contracts/UserSystem.sol\":1165:1188  userById[driveOwner.id] */\n  0x20\n  mstore\n  0x40\n  dup1\n  dup4\n  keccak256\n    /* \"contracts/UserSystem.sol\":1165:1206  userById[driveOwner.id] = driveOwner.addr */\n  dup1\n  sload\n  not(sub(shl(0xa0, 0x01), 0x01))\n  and\n  sub(shl(0xa0, 0x01), 0x01)\n    /* \"contracts/UserSystem.sol\":1191:1206  driveOwner.addr */\n  swap4\n  dup5\n  and\n    /* \"contracts/UserSystem.sol\":1165:1206  userById[driveOwner.id] = driveOwner.addr */\n  or\n  swap1\n  sstore\n    /* \"contracts/UserSystem.sol\":1251:1266  driveOwner.addr */\n  swap2\n  sload\n    /* \"contracts/UserSystem.sol\":1217:1248  userByName[driveOwner.username] */\n  swap2\n  mload\n    /* \"contracts/UserSystem.sol\":1251:1266  driveOwner.addr */\n  swap2\n  and\n  swap1\n    /* \"contracts/UserSystem.sol\":1217:1227  userByName */\n  0x08\n  swap1\n    /* \"contracts/UserSystem.sol\":1217:1248  userByName[driveOwner.username] */\n  tag_8\n  swap1\n    /* \"contracts/UserSystem.sol\":1228:1247  driveOwner.username */\n  0x02\n  swap1\n    /* \"contracts/UserSystem.sol\":1217:1248  userByName[driveOwner.username] */\n  tag_9\n  jump\t// in\ntag_8:\n  swap1\n  dup2\n  mstore\n  mload(0x40)\n  swap1\n  dup2\n  swap1\n  sub\n  0x20\n  add\n  swap1\n  keccak256\n    /* \"contracts/UserSystem.sol\":1217:1266  userByName[driveOwner.username] = driveOwner.addr */\n  dup1\n  sload\n  sub(shl(0xa0, 0x01), 0x01)\n  swap3\n  swap1\n  swap3\n  and\n  not(sub(shl(0xa0, 0x01), 0x01))\n  swap1\n  swap3\n  and\n  swap2\n  swap1\n  swap2\n  or\n  swap1\n  sstore\n  0x01\n    /* \"contracts/UserSystem.sol\":1277:1286  userCount */\n  0x04\n    /* \"contracts/UserSystem.sol\":1277:1290  userCount = 1 */\n  dup2\n  swap1\n  sstore\n    /* \"contracts/UserSystem.sol\":1301:1308  idCount */\n  0x05\n    /* \"contracts/UserSystem.sol\":1301:1312  idCount = 1 */\n  sstore\n    /* \"contracts/UserSystem.sol\":127:3037  contract UserSystem {... */\n  jump(tag_16)\n    /* \"#utility.yul\":14:141   */\ntag_11:\n    /* \"#utility.yul\":75:85   */\n  0x4e487b71\n    /* \"#utility.yul\":70:73   */\n  0xe0\n    /* \"#utility.yul\":66:86   */\n  shl\n    /* \"#utility.yul\":63:64   */\n  0x00\n    /* \"#utility.yul\":56:87   */\n  mstore\n    /* \"#utility.yul\":106:110   */\n  0x41\n    /* \"#utility.yul\":103:104   */\n  0x04\n    /* \"#utility.yul\":96:111   */\n  mstore\n    /* \"#utility.yul\":130:134   */\n  0x24\n    /* \"#utility.yul\":127:128   */\n  0x00\n    /* \"#utility.yul\":120:135   */\n  revert\n    /* \"#utility.yul\":146:526   */\ntag_12:\n    /* \"#utility.yul\":225:226   */\n  0x01\n    /* \"#utility.yul\":221:233   */\n  dup2\n  dup2\n  shr\n  swap1\n    /* \"#utility.yul\":268:280   */\n  dup3\n  and\n  dup1\n    /* \"#utility.yul\":289:350   */\n  tag_19\n  jumpi\n    /* \"#utility.yul\":343:347   */\n  0x7f\n    /* \"#utility.yul\":335:341   */\n  dup3\n    /* \"#utility.yul\":331:348   */\n  and\n    /* \"#utility.yul\":321:348   */\n  swap2\n  pop\n    /* \"#utility.yul\":289:350   */\ntag_19:\n    /* \"#utility.yul\":396:398   */\n  0x20\n    /* \"#utility.yul\":388:394   */\n  dup3\n    /* \"#utility.yul\":385:399   */\n  lt\n    /* \"#utility.yul\":365:383   */\n  dup2\n    /* \"#utility.yul\":362:400   */\n  sub\n    /* \"#utility.yul\":359:520   */\n  tag_20\n  jumpi\n    /* \"#utility.yul\":442:452   */\n  0x4e487b71\n    /* \"#utility.yul\":437:440   */\n  0xe0\n    /* \"#utility.yul\":433:453   */\n  shl\n    /* \"#utility.yul\":430:431   */\n  0x00\n    /* \"#utility.yul\":423:454   */\n  mstore\n    /* \"#utility.yul\":477:481   */\n  0x22\n    /* \"#utility.yul\":474:475   */\n  0x04\n    /* \"#utility.yul\":467:482   */\n  mstore\n    /* \"#utility.yul\":505:509   */\n  0x24\n    /* \"#utility.yul\":502:503   */\n  0x00\n    /* \"#utility.yul\":495:510   */\n  revert\n    /* \"#utility.yul\":359:520   */\ntag_20:\n  pop\n    /* \"#utility.yul\":146:526   */\n  swap2\n  swap1\n  pop\n  jump\t// out\n    /* \"#utility.yul\":657:1175   */\ntag_14:\n    /* \"#utility.yul\":759:761   */\n  0x1f\n    /* \"#utility.yul\":754:757   */\n  dup3\n    /* \"#utility.yul\":751:762   */\n  gt\n    /* \"#utility.yul\":748:1169   */\n  iszero\n  tag_23\n  jumpi\n    /* \"#utility.yul\":795:800   */\n  dup1\n    /* \"#utility.yul\":792:793   */\n  0x00\n    /* \"#utility.yul\":785:801   */\n  mstore\n    /* \"#utility.yul\":839:843   */\n  0x20\n    /* \"#utility.yul\":836:837   */\n  0x00\n    /* \"#utility.yul\":826:844   */\n  keccak256\n    /* \"#utility.yul\":909:911   */\n  0x1f\n    /* \"#utility.yul\":897:907   */\n  dup5\n    /* \"#utility.yul\":893:912   */\n  add\n    /* \"#utility.yul\":890:891   */\n  0x05\n    /* \"#utility.yul\":886:913   */\n  shr\n    /* \"#utility.yul\":880:884   */\n  dup2\n    /* \"#utility.yul\":876:914   */\n  add\n    /* \"#utility.yul\":945:949   */\n  0x20\n    /* \"#utility.yul\":933:943   */\n  dup6\n    /* \"#utility.yul\":930:950   */\n  lt\n    /* \"#utility.yul\":927:974   */\n  iszero\n  tag_24\n  jumpi\n  pop\n    /* \"#utility.yul\":968:972   */\n  dup1\n    /* \"#utility.yul\":927:974   */\ntag_24:\n    /* \"#utility.yul\":1023:1025   */\n  0x1f\n    /* \"#utility.yul\":1018:1021   */\n  dup5\n    /* \"#utility.yul\":1014:1026   */\n  add\n    /* \"#utility.yul\":1011:1012   */\n  0x05\n    /* \"#utility.yul\":1007:1027   */\n  shr\n    /* \"#utility.yul\":1001:1005   */\n  dup3\n    /* \"#utility.yul\":997:1028   */\n  add\n    /* \"#utility.yul\":987:1028   */\n  swap2\n  pop\n    /* \"#utility.yul\":1078:1159   */\ntag_25:\n    /* \"#utility.yul\":1096:1098   */\n  dup2\n    /* \"#utility.yul\":1089:1094   */\n  dup2\n    /* \"#utility.yul\":1086:1099   */\n  lt\n    /* \"#utility.yul\":1078:1159   */\n  iszero\n  tag_27\n  jumpi\n    /* \"#utility.yul\":1155:1156   */\n  0x00\n    /* \"#utility.yul\":1141:1157   */\n  dup2\n  sstore\n    /* \"#utility.yul\":1122:1123   */\n  0x01\n    /* \"#utility.yul\":1111:1124   */\n  add\n    /* \"#utility.yul\":1078:1159   */\n  jump(tag_25)\ntag_27:\n    /* \"#utility.yul\":1082:1085   */\n  pop\n  pop\n    /* \"#utility.yul\":748:1169   */\ntag_23:\n    /* \"#utility.yul\":657:1175   */\n  pop\n  pop\n  pop\n  jump\t// out\n    /* \"#utility.yul\":1351:2650   */\ntag_5:\n    /* \"#utility.yul\":1471:1481   */\n  dup2\n  mload\n  sub(shl(0x40, 0x01), 0x01)\n    /* \"#utility.yul\":1493:1523   */\n  dup2\n  gt\n    /* \"#utility.yul\":1490:1546   */\n  iszero\n  tag_31\n  jumpi\n    /* \"#utility.yul\":1526:1544   */\n  tag_31\n  tag_11\n  jump\t// in\ntag_31:\n    /* \"#utility.yul\":1555:1652   */\n  tag_32\n    /* \"#utility.yul\":1645:1651   */\n  dup2\n    /* \"#utility.yul\":1605:1643   */\n  tag_33\n    /* \"#utility.yul\":1637:1641   */\n  dup5\n    /* \"#utility.yul\":1631:1642   */\n  sload\n    /* \"#utility.yul\":1605:1643   */\n  tag_12\n  jump\t// in\ntag_33:\n    /* \"#utility.yul\":1599:1603   */\n  dup5\n    /* \"#utility.yul\":1555:1652   */\n  tag_14\n  jump\t// in\ntag_32:\n    /* \"#utility.yul\":1701:1705   */\n  0x20\n    /* \"#utility.yul\":1732:1734   */\n  0x1f\n    /* \"#utility.yul\":1721:1735   */\n  dup3\n  gt\n    /* \"#utility.yul\":1749:1750   */\n  0x01\n    /* \"#utility.yul\":1744:2393   */\n  dup2\n  eq\n  tag_35\n  jumpi\n    /* \"#utility.yul\":2437:2438   */\n  0x00\n    /* \"#utility.yul\":2454:2460   */\n  dup4\n    /* \"#utility.yul\":2451:2540   */\n  iszero\n  tag_36\n  jumpi\n  pop\n    /* \"#utility.yul\":2506:2525   */\n  dup5\n  dup3\n  add\n    /* \"#utility.yul\":2500:2526   */\n  mload\n    /* \"#utility.yul\":2451:2540   */\ntag_36:\n    /* \"#utility.yul\":1332:1333   */\n  0x01\n    /* \"#utility.yul\":1328:1339   */\n  dup5\n  swap1\n  shl\n  not(0x00)\n    /* \"#utility.yul\":1308:1309   */\n  0x03\n    /* \"#utility.yul\":1304:1315   */\n  dup7\n  swap1\n  shl\n    /* \"#utility.yul\":1300:1324   */\n  shr\n    /* \"#utility.yul\":1296:1325   */\n  not\n    /* \"#utility.yul\":1286:1326   */\n  dup3\n  and\n    /* \"#utility.yul\":1283:1340   */\n  or\n    /* \"#utility.yul\":2566:2633   */\ntag_37:\n    /* \"#utility.yul\":2560:2564   */\n  dup6\n    /* \"#utility.yul\":2553:2634   */\n  sstore\n  pop\n    /* \"#utility.yul\":1714:2644   */\n  jump(tag_27)\n    /* \"#utility.yul\":1744:2393   */\ntag_35:\n    /* \"#utility.yul\":604:605   */\n  0x00\n    /* \"#utility.yul\":597:611   */\n  dup5\n  dup2\n  mstore\n    /* \"#utility.yul\":641:645   */\n  0x20\n    /* \"#utility.yul\":628:646   */\n  dup2\n  keccak256\n  not(0x1f)\n    /* \"#utility.yul\":1780:1800   */\n  dup6\n  and\n  swap2\n    /* \"#utility.yul\":1898:2120   */\ntag_39:\n    /* \"#utility.yul\":1912:1919   */\n  dup3\n    /* \"#utility.yul\":1909:1910   */\n  dup2\n    /* \"#utility.yul\":1906:1920   */\n  lt\n    /* \"#utility.yul\":1898:2120   */\n  iszero\n  tag_41\n  jumpi\n    /* \"#utility.yul\":1994:2013   */\n  dup8\n  dup6\n  add\n    /* \"#utility.yul\":1988:2014   */\n  mload\n    /* \"#utility.yul\":1973:2015   */\n  dup3\n  sstore\n    /* \"#utility.yul\":2101:2105   */\n  0x20\n    /* \"#utility.yul\":2086:2106   */\n  swap5\n  dup6\n  add\n  swap5\n    /* \"#utility.yul\":2054:2055   */\n  0x01\n    /* \"#utility.yul\":2042:2056   */\n  swap1\n  swap3\n  add\n  swap2\n    /* \"#utility.yul\":1928:1940   */\n  add\n    /* \"#utility.yul\":1898:2120   */\n  jump(tag_39)\ntag_41:\n    /* \"#utility.yul\":1902:1905   */\n  pop\n    /* \"#utility.yul\":2148:2154   */\n  dup5\n    /* \"#utility.yul\":2139:2146   */\n  dup3\n    /* \"#utility.yul\":2136:2155   */\n  lt\n    /* \"#utility.yul\":2133:2334   */\n  iszero\n  tag_42\n  jumpi\n    /* \"#utility.yul\":2209:2228   */\n  dup7\n  dup5\n  add\n    /* \"#utility.yul\":2203:2229   */\n  mload\n  not(0x00)\n    /* \"#utility.yul\":2292:2293   */\n  0x03\n    /* \"#utility.yul\":2288:2302   */\n  dup8\n  swap1\n  shl\n    /* \"#utility.yul\":2304:2307   */\n  0xf8\n    /* \"#utility.yul\":2284:2308   */\n  and\n    /* \"#utility.yul\":2280:2317   */\n  shr\n    /* \"#utility.yul\":2276:2318   */\n  not\n    /* \"#utility.yul\":2261:2319   */\n  and\n    /* \"#utility.yul\":2246:2320   */\n  dup2\n  sstore\n    /* \"#utility.yul\":2133:2334   */\ntag_42:\n  pop\n  pop\n  pop\n  pop\n    /* \"#utility.yul\":2380:2381   */\n  0x01\n    /* \"#utility.yul\":2364:2378   */\n  swap1\n  dup2\n  shl\n    /* \"#utility.yul\":2360:2382   */\n  add\n    /* \"#utility.yul\":2347:2383   */\n  swap1\n  sstore\n  pop\n    /* \"#utility.yul\":1351:2650   */\n  jump\t// out\n    /* \"#utility.yul\":2655:4048   */\ntag_7:\n    /* \"#utility.yul\":2770:2773   */\n  dup2\n    /* \"#utility.yul\":2764:2768   */\n  dup2\n    /* \"#utility.yul\":2761:2774   */\n  sub\n    /* \"#utility.yul\":2758:2784   */\n  tag_44\n  jumpi\n    /* \"#utility.yul\":2777:2782   */\n  pop\n  pop\n    /* \"#utility.yul\":2655:4048   */\n  jump\t// out\n    /* \"#utility.yul\":2758:2784   */\ntag_44:\n    /* \"#utility.yul\":2807:2844   */\n  tag_45\n    /* \"#utility.yul\":2839:2842   */\n  dup3\n    /* \"#utility.yul\":2833:2843   */\n  sload\n    /* \"#utility.yul\":2807:2844   */\n  tag_12\n  jump\t// in\ntag_45:\n  sub(shl(0x40, 0x01), 0x01)\n    /* \"#utility.yul\":2856:2886   */\n  dup2\n  gt\n    /* \"#utility.yul\":2853:2909   */\n  iszero\n  tag_47\n  jumpi\n    /* \"#utility.yul\":2889:2907   */\n  tag_47\n  tag_11\n  jump\t// in\ntag_47:\n    /* \"#utility.yul\":2918:3015   */\n  tag_48\n    /* \"#utility.yul\":3008:3014   */\n  dup2\n    /* \"#utility.yul\":2968:3006   */\n  tag_33\n    /* \"#utility.yul\":3000:3004   */\n  dup5\n    /* \"#utility.yul\":2994:3005   */\n  sload\n    /* \"#utility.yul\":2968:3006   */\n  tag_12\n  jump\t// in\n    /* \"#utility.yul\":2918:3015   */\ntag_48:\n    /* \"#utility.yul\":3041:3042   */\n  0x00\n    /* \"#utility.yul\":3069:3071   */\n  0x1f\n    /* \"#utility.yul\":3061:3067   */\n  dup3\n    /* \"#utility.yul\":3058:3072   */\n  gt\n    /* \"#utility.yul\":3086:3087   */\n  0x01\n    /* \"#utility.yul\":3081:3791   */\n  dup2\n  eq\n  tag_51\n  jumpi\n    /* \"#utility.yul\":3835:3836   */\n  0x00\n    /* \"#utility.yul\":3852:3858   */\n  dup4\n    /* \"#utility.yul\":3849:3938   */\n  iszero\n  tag_36\n  jumpi\n  pop\n    /* \"#utility.yul\":3904:3923   */\n  dup2\n  dup6\n  add\n    /* \"#utility.yul\":3898:3924   */\n  sload\n    /* \"#utility.yul\":1332:1333   */\n  0x01\n    /* \"#utility.yul\":1328:1339   */\n  dup5\n  swap1\n  shl\n  not(0x00)\n    /* \"#utility.yul\":1308:1309   */\n  0x03\n    /* \"#utility.yul\":1304:1315   */\n  dup7\n  swap1\n  shl\n    /* \"#utility.yul\":1300:1324   */\n  shr\n    /* \"#utility.yul\":1296:1325   */\n  not\n    /* \"#utility.yul\":1286:1326   */\n  dup3\n  and\n    /* \"#utility.yul\":1283:1340   */\n  or\n    /* \"#utility.yul\":3964:4031   */\n  tag_37\n    /* \"#utility.yul\":1180:1346   */\n  jump\n    /* \"#utility.yul\":3081:3791   */\ntag_51:\n    /* \"#utility.yul\":604:605   */\n  0x00\n    /* \"#utility.yul\":597:611   */\n  dup6\n  dup2\n  mstore\n    /* \"#utility.yul\":641:645   */\n  0x20\n    /* \"#utility.yul\":628:646   */\n  dup1\n  dup3\n  keccak256\n    /* \"#utility.yul\":597:611   */\n  dup7\n  dup4\n  mstore\n    /* \"#utility.yul\":628:646   */\n  swap1\n  dup3\n  keccak256\n  not(0x1f)\n    /* \"#utility.yul\":3117:3137   */\n  dup7\n  and\n  swap3\n    /* \"#utility.yul\":3295:3516   */\ntag_56:\n    /* \"#utility.yul\":3309:3316   */\n  dup4\n    /* \"#utility.yul\":3306:3307   */\n  dup2\n    /* \"#utility.yul\":3303:3317   */\n  lt\n    /* \"#utility.yul\":3295:3516   */\n  iszero\n  tag_58\n  jumpi\n    /* \"#utility.yul\":3391:3412   */\n  dup3\n  dup7\n  add\n    /* \"#utility.yul\":3385:3413   */\n  sload\n    /* \"#utility.yul\":3370:3414   */\n  dup3\n  sstore\n    /* \"#utility.yul\":3453:3454   */\n  0x01\n    /* \"#utility.yul\":3485:3502   */\n  swap6\n  dup7\n  add\n  swap6\n    /* \"#utility.yul\":3441:3455   */\n  swap1\n  swap2\n  add\n  swap1\n    /* \"#utility.yul\":3332:3336   */\n  0x20\n    /* \"#utility.yul\":3325:3337   */\n  add\n    /* \"#utility.yul\":3295:3516   */\n  jump(tag_56)\ntag_58:\n    /* \"#utility.yul\":3299:3302   */\n  pop\n    /* \"#utility.yul\":3544:3550   */\n  dup6\n    /* \"#utility.yul\":3535:3542   */\n  dup4\n    /* \"#utility.yul\":3532:3551   */\n  lt\n    /* \"#utility.yul\":3529:3732   */\n  iszero\n  tag_59\n  jumpi\n    /* \"#utility.yul\":3605:3626   */\n  dup2\n  dup6\n  add\n    /* \"#utility.yul\":3599:3627   */\n  sload\n  not(0x00)\n    /* \"#utility.yul\":3690:3691   */\n  0x03\n    /* \"#utility.yul\":3686:3700   */\n  dup9\n  swap1\n  shl\n    /* \"#utility.yul\":3702:3705   */\n  0xf8\n    /* \"#utility.yul\":3682:3706   */\n  and\n    /* \"#utility.yul\":3678:3715   */\n  shr\n    /* \"#utility.yul\":3674:3716   */\n  not\n    /* \"#utility.yul\":3659:3717   */\n  and\n    /* \"#utility.yul\":3644:3718   */\n  dup2\n  sstore\n    /* \"#utility.yul\":3529:3732   */\ntag_59:\n  pop\n  pop\n  pop\n  pop\n  pop\n    /* \"#utility.yul\":3778:3779   */\n  0x01\n    /* \"#utility.yul\":3762:3776   */\n  swap1\n  dup2\n  shl\n    /* \"#utility.yul\":3758:3780   */\n  add\n    /* \"#utility.yul\":3745:3781   */\n  swap1\n  sstore\n  pop\n    /* \"#utility.yul\":2655:4048   */\n  jump\t// out\n    /* \"#utility.yul\":4053:4850   */\ntag_9:\n    /* \"#utility.yul\":4181:4184   */\n  0x00\n    /* \"#utility.yul\":4210:4211   */\n  dup1\n    /* \"#utility.yul\":4243:4249   */\n  dup4\n    /* \"#utility.yul\":4237:4250   */\n  sload\n    /* \"#utility.yul\":4273:4309   */\n  tag_61\n    /* \"#utility.yul\":4299:4308   */\n  dup2\n    /* \"#utility.yul\":4273:4309   */\n  tag_12\n  jump\t// in\ntag_61:\n    /* \"#utility.yul\":4340:4341   */\n  0x01\n    /* \"#utility.yul\":4325:4342   */\n  dup3\n  and\n    /* \"#utility.yul\":4351:4484   */\n  dup1\n  iszero\n  tag_63\n  jumpi\n    /* \"#utility.yul\":4498:4499   */\n  0x01\n    /* \"#utility.yul\":4493:4825   */\n  dup2\n  eq\n  tag_64\n  jumpi\n    /* \"#utility.yul\":4318:4825   */\n  jump(tag_62)\n    /* \"#utility.yul\":4351:4484   */\ntag_63:\n  not(0xff)\n    /* \"#utility.yul\":4384:4408   */\n  dup4\n  and\n    /* \"#utility.yul\":4372:4409   */\n  dup7\n  mstore\n    /* \"#utility.yul\":4457:4471   */\n  dup2\n  iszero\n    /* \"#utility.yul\":4450:4472   */\n  iszero\n    /* \"#utility.yul\":4438:4473   */\n  dup3\n  mul\n    /* \"#utility.yul\":4429:4474   */\n  dup7\n  add\n  swap4\n  pop\n    /* \"#utility.yul\":4351:4484   */\n  jump(tag_62)\n    /* \"#utility.yul\":4493:4825   */\ntag_64:\n    /* \"#utility.yul\":4524:4530   */\n  dup7\n    /* \"#utility.yul\":4521:4522   */\n  0x00\n    /* \"#utility.yul\":4514:4531   */\n  mstore\n    /* \"#utility.yul\":4572:4576   */\n  0x20\n    /* \"#utility.yul\":4569:4570   */\n  0x00\n    /* \"#utility.yul\":4559:4577   */\n  keccak256\n    /* \"#utility.yul\":4599:4600   */\n  0x00\n    /* \"#utility.yul\":4613:4779   */\ntag_65:\n    /* \"#utility.yul\":4627:4633   */\n  dup4\n    /* \"#utility.yul\":4624:4625   */\n  dup2\n    /* \"#utility.yul\":4621:4634   */\n  lt\n    /* \"#utility.yul\":4613:4779   */\n  iszero\n  tag_67\n  jumpi\n    /* \"#utility.yul\":4707:4721   */\n  dup2\n  sload\n    /* \"#utility.yul\":4694:4705   */\n  dup9\n  dup3\n  add\n    /* \"#utility.yul\":4687:4722   */\n  mstore\n    /* \"#utility.yul\":4763:4764   */\n  0x01\n    /* \"#utility.yul\":4750:4765   */\n  swap1\n  swap2\n  add\n  swap1\n    /* \"#utility.yul\":4649:4653   */\n  0x20\n    /* \"#utility.yul\":4642:4654   */\n  add\n    /* \"#utility.yul\":4613:4779   */\n  jump(tag_65)\ntag_67:\n    /* \"#utility.yul\":4617:4620   */\n  pop\n  pop\n    /* \"#utility.yul\":4808:4814   */\n  dup2\n    /* \"#utility.yul\":4803:4806   */\n  dup7\n    /* \"#utility.yul\":4799:4815   */\n  add\n    /* \"#utility.yul\":4792:4815   */\n  swap4\n  pop\n    /* \"#utility.yul\":4318:4825   */\ntag_62:\n  pop\n    /* \"#utility.yul\":4841:4844   */\n  swap2\n  swap6\n    /* \"#utility.yul\":4053:4850   */\n  swap5\n  pop\n  pop\n  pop\n  pop\n  pop\n  jump\t// out\ntag_16:\n    /* \"contracts/UserSystem.sol\":127:3037  contract UserSystem {... */\n  dataSize(sub_0)\n  dup1\n  dataOffset(sub_0)\n  0x00\n  codecopy\n  0x00\n  return\nstop\n\nsub_0: assembly {\n        /* \"contracts/UserSystem.sol\":127:3037  contract UserSystem {... */\n      mstore(0x40, 0x80)\n      callvalue\n      dup1\n      iszero\n      tag_1\n      jumpi\n      0x00\n      dup1\n      revert\n    tag_1:\n      pop\n      jumpi(tag_2, lt(calldatasize, 0x04))\n      shr(0xe0, calldataload(0x00))\n      dup1\n      0x421b2d8b\n      gt\n      tag_10\n      jumpi\n      dup1\n      0x421b2d8b\n      eq\n      tag_6\n      jumpi\n      dup1\n      0x98575188\n      eq\n      tag_7\n      jumpi\n      dup1\n      0xa47b6cf6\n      eq\n      tag_8\n      jumpi\n      dup1\n      0xb3b36bb3\n      eq\n      tag_9\n      jumpi\n      0x00\n      dup1\n      revert\n    tag_10:\n      dup1\n      0x07973ccf\n      eq\n      tag_3\n      jumpi\n      dup1\n      0x0fc715c3\n      eq\n      tag_4\n      jumpi\n      dup1\n      0x0fe579c0\n      eq\n      tag_5\n      jumpi\n    tag_2:\n      0x00\n      dup1\n      revert\n        /* \"contracts/UserSystem.sol\":338:359  uint public userCount */\n    tag_3:\n      tag_11\n      sload(0x04)\n      dup2\n      jump\n    tag_11:\n      mload(0x40)\n        /* \"#utility.yul\":160:185   */\n      swap1\n      dup2\n      mstore\n        /* \"#utility.yul\":148:150   */\n      0x20\n        /* \"#utility.yul\":133:151   */\n      add\n        /* \"contracts/UserSystem.sol\":338:359  uint public userCount */\n    tag_13:\n      mload(0x40)\n      dup1\n      swap2\n      sub\n      swap1\n      return\n        /* \"contracts/UserSystem.sol\":277:299  User public driveOwner */\n    tag_4:\n      tag_15\n      tag_16\n      jump\t// in\n    tag_15:\n      mload(0x40)\n      tag_13\n      swap5\n      swap4\n      swap3\n      swap2\n      swap1\n      tag_18\n      jump\t// in\n        /* \"contracts/UserSystem.sol\":2664:2916  function viewUserList() external view returns(User[] memory) {... */\n    tag_5:\n      tag_19\n      tag_20\n      jump\t// in\n    tag_19:\n      mload(0x40)\n      tag_13\n      swap2\n      swap1\n      tag_22\n      jump\t// in\n        /* \"contracts/UserSystem.sol\":1385:1974  function addUser(address _addr) external {... */\n    tag_6:\n      tag_23\n      tag_24\n      calldatasize\n      0x04\n      tag_25\n      jump\t// in\n    tag_24:\n      tag_26\n      jump\t// in\n    tag_23:\n      stop\n        /* \"contracts/UserSystem.sol\":2324:2656  function removeUser(address _addr) external onlyDriveOwner() userExists(_addr) {... */\n    tag_7:\n      tag_23\n      tag_28\n      calldatasize\n      0x04\n      tag_25\n      jump\t// in\n    tag_28:\n      tag_29\n      jump\t// in\n        /* \"contracts/UserSystem.sol\":1982:2316  function renameSelf(string memory _newName) external {... */\n    tag_8:\n      tag_23\n      tag_31\n      calldatasize\n      0x04\n      tag_32\n      jump\t// in\n    tag_31:\n      tag_33\n      jump\t// in\n        /* \"contracts/UserSystem.sol\":2924:3032  function whoami() external view returns (string memory) {... */\n    tag_9:\n      tag_34\n      tag_35\n      jump\t// in\n    tag_34:\n      mload(0x40)\n      tag_13\n      swap2\n      swap1\n      tag_37\n      jump\t// in\n        /* \"contracts/UserSystem.sol\":277:299  User public driveOwner */\n    tag_16:\n      0x00\n      dup1\n      sload\n      sload(0x01)\n      0x02\n      dup1\n      sload\n      sub(shl(0xa0, 0x01), 0x01)\n      swap1\n      swap4\n      and\n      swap4\n      swap2\n      swap3\n      tag_38\n      swap1\n      tag_39\n      jump\t// in\n    tag_38:\n      dup1\n      0x1f\n      add\n      0x20\n      dup1\n      swap2\n      div\n      mul\n      0x20\n      add\n      mload(0x40)\n      swap1\n      dup2\n      add\n      0x40\n      mstore\n      dup1\n      swap3\n      swap2\n      swap1\n      dup2\n      dup2\n      mstore\n      0x20\n      add\n      dup3\n      dup1\n      sload\n      tag_40\n      swap1\n      tag_39\n      jump\t// in\n    tag_40:\n      dup1\n      iszero\n      tag_41\n      jumpi\n      dup1\n      0x1f\n      lt\n      tag_42\n      jumpi\n      0x0100\n      dup1\n      dup4\n      sload\n      div\n      mul\n      dup4\n      mstore\n      swap2\n      0x20\n      add\n      swap2\n      jump(tag_41)\n    tag_42:\n      dup3\n      add\n      swap2\n      swap1\n      0x00\n      mstore\n      keccak256(0x00, 0x20)\n      swap1\n    tag_43:\n      dup2\n      sload\n      dup2\n      mstore\n      swap1\n      0x01\n      add\n      swap1\n      0x20\n      add\n      dup1\n      dup4\n      gt\n      tag_43\n      jumpi\n      dup3\n      swap1\n      sub\n      0x1f\n      and\n      dup3\n      add\n      swap2\n    tag_41:\n      pop\n      pop\n      pop\n      0x03\n      swap1\n      swap4\n      add\n      sload\n      swap2\n      swap3\n      pop\n      pop\n      0xff\n      and\n      dup5\n      jump\t// out\n        /* \"contracts/UserSystem.sol\":2664:2916  function viewUserList() external view returns(User[] memory) {... */\n    tag_20:\n        /* \"contracts/UserSystem.sol\":2710:2723  User[] memory */\n      0x60\n        /* \"contracts/UserSystem.sol\":2736:2756  User[] memory result */\n      0x00\n        /* \"contracts/UserSystem.sol\":2770:2779  userCount */\n      sload(0x04)\n        /* \"contracts/UserSystem.sol\":2759:2780  new User[](userCount) */\n      0xffffffffffffffff\n      dup2\n      gt\n      iszero\n      tag_46\n      jumpi\n      tag_46\n      tag_47\n      jump\t// in\n    tag_46:\n      mload(0x40)\n      swap1\n      dup1\n      dup3\n      mstore\n      dup1\n      0x20\n      mul\n      0x20\n      add\n      dup3\n      add\n      0x40\n      mstore\n      dup1\n      iszero\n      tag_48\n      jumpi\n      dup2\n      0x20\n      add\n    tag_49:\n      tag_50\n      mload(0x40)\n      dup1\n      0x80\n      add\n      0x40\n      mstore\n      dup1\n      and(sub(shl(0xa0, 0x01), 0x01), 0x00)\n      dup2\n      mstore\n      0x20\n      add\n      0x00\n      dup2\n      mstore\n      0x20\n      add\n      0x60\n      dup2\n      mstore\n      0x20\n      add\n      iszero(iszero(0x00))\n      dup2\n      mstore\n      pop\n      swap1\n      jump\n    tag_50:\n      dup2\n      mstore\n      0x20\n      add\n      swap1\n      0x01\n      swap1\n      sub\n      swap1\n      dup2\n      tag_49\n      jumpi\n      swap1\n      pop\n    tag_48:\n      pop\n        /* \"contracts/UserSystem.sol\":2736:2780  User[] memory result = new User[](userCount) */\n      swap1\n      pop\n        /* \"contracts/UserSystem.sol\":2796:2802  uint i */\n      0x00\n        /* \"contracts/UserSystem.sol\":2791:2885  for (uint i = 0; i < userCount; i++) {... */\n    tag_52:\n        /* \"contracts/UserSystem.sol\":2812:2821  userCount */\n      sload(0x04)\n        /* \"contracts/UserSystem.sol\":2808:2809  i */\n      dup2\n        /* \"contracts/UserSystem.sol\":2808:2821  i < userCount */\n      lt\n        /* \"contracts/UserSystem.sol\":2791:2885  for (uint i = 0; i < userCount; i++) {... */\n      iszero\n      tag_53\n      jumpi\n        /* \"contracts/UserSystem.sol\":2855:2873  users[userById[i]] */\n      0x00\n        /* \"contracts/UserSystem.sol\":2861:2872  userById[i] */\n      dup2\n      dup2\n      mstore\n        /* \"contracts/UserSystem.sol\":2861:2869  userById */\n      0x07\n        /* \"contracts/UserSystem.sol\":2861:2872  userById[i] */\n      0x20\n      swap1\n      dup2\n      mstore\n      0x40\n      dup1\n      dup4\n      keccak256\n      sload\n      sub(shl(0xa0, 0x01), 0x01)\n      swap1\n      dup2\n      and\n        /* \"contracts/UserSystem.sol\":2855:2873  users[userById[i]] */\n      dup5\n      mstore\n        /* \"contracts/UserSystem.sol\":2855:2860  users */\n      0x06\n        /* \"contracts/UserSystem.sol\":2855:2873  users[userById[i]] */\n      dup4\n      mstore\n      swap3\n      dup2\n      swap1\n      keccak256\n        /* \"contracts/UserSystem.sol\":2843:2873  result[i] = users[userById[i]] */\n      dup2\n      mload\n      0x80\n      dup2\n      add\n      dup4\n      mstore\n      dup2\n      sload\n      swap1\n      swap5\n      and\n      dup5\n      mstore\n        /* \"contracts/UserSystem.sol\":2861:2872  userById[i] */\n      0x01\n        /* \"contracts/UserSystem.sol\":2843:2873  result[i] = users[userById[i]] */\n      dup2\n      add\n      sload\n      swap3\n      dup5\n      add\n      swap3\n      swap1\n      swap3\n      mstore\n      0x02\n      dup3\n      add\n      dup1\n      sload\n      swap2\n      dup5\n      add\n      swap2\n      tag_55\n      swap1\n      tag_39\n      jump\t// in\n    tag_55:\n      dup1\n      0x1f\n      add\n      0x20\n      dup1\n      swap2\n      div\n      mul\n      0x20\n      add\n      mload(0x40)\n      swap1\n      dup2\n      add\n      0x40\n      mstore\n      dup1\n      swap3\n      swap2\n      swap1\n      dup2\n      dup2\n      mstore\n      0x20\n      add\n      dup3\n      dup1\n      sload\n      tag_56\n      swap1\n      tag_39\n      jump\t// in\n    tag_56:\n      dup1\n      iszero\n      tag_57\n      jumpi\n      dup1\n      0x1f\n      lt\n      tag_58\n      jumpi\n      0x0100\n      dup1\n      dup4\n      sload\n      div\n      mul\n      dup4\n      mstore\n      swap2\n      0x20\n      add\n      swap2\n      jump(tag_57)\n    tag_58:\n      dup3\n      add\n      swap2\n      swap1\n      0x00\n      mstore\n      keccak256(0x00, 0x20)\n      swap1\n    tag_59:\n      dup2\n      sload\n      dup2\n      mstore\n      swap1\n      0x01\n      add\n      swap1\n      0x20\n      add\n      dup1\n      dup4\n      gt\n      tag_59\n      jumpi\n      dup3\n      swap1\n      sub\n      0x1f\n      and\n      dup3\n      add\n      swap2\n    tag_57:\n      pop\n      pop\n      pop\n      swap2\n      dup4\n      mstore\n      pop\n      pop\n      0x03\n      swap2\n      swap1\n      swap2\n      add\n      sload\n      0xff\n      and\n      iszero\n      iszero\n      0x20\n      swap1\n      swap2\n      add\n      mstore\n        /* \"contracts/UserSystem.sol\":2843:2852  result[i] */\n      dup3\n      mload\n        /* \"contracts/UserSystem.sol\":2843:2849  result */\n      dup4\n      swap1\n        /* \"contracts/UserSystem.sol\":2850:2851  i */\n      dup4\n      swap1\n        /* \"contracts/UserSystem.sol\":2843:2852  result[i] */\n      dup2\n      lt\n      tag_61\n      jumpi\n      tag_61\n      tag_62\n      jump\t// in\n    tag_61:\n      0x20\n      swap1\n      dup2\n      mul\n      swap2\n      swap1\n      swap2\n      add\n      add\n        /* \"contracts/UserSystem.sol\":2843:2873  result[i] = users[userById[i]] */\n      mstore\n        /* \"contracts/UserSystem.sol\":2823:2826  i++ */\n      0x01\n      add\n        /* \"contracts/UserSystem.sol\":2791:2885  for (uint i = 0; i < userCount; i++) {... */\n      jump(tag_52)\n    tag_53:\n      pop\n        /* \"contracts/UserSystem.sol\":2902:2908  result */\n      swap2\n        /* \"contracts/UserSystem.sol\":2664:2916  function viewUserList() external view returns(User[] memory) {... */\n      swap1\n      pop\n      jump\t// out\n        /* \"contracts/UserSystem.sol\":1385:1974  function addUser(address _addr) external {... */\n    tag_26:\n      sub(shl(0xa0, 0x01), 0x01)\n        /* \"contracts/UserSystem.sol\":1446:1458  users[_addr] */\n      dup2\n      and\n      0x00\n      swap1\n      dup2\n      mstore\n        /* \"contracts/UserSystem.sol\":1446:1451  users */\n      0x06\n        /* \"contracts/UserSystem.sol\":1446:1458  users[_addr] */\n      0x20\n      mstore\n      0x40\n      swap1\n      keccak256\n        /* \"contracts/UserSystem.sol\":1446:1465  users[_addr].exists */\n      0x03\n      add\n      sload\n      0xff\n      and\n        /* \"contracts/UserSystem.sol\":1445:1465  !users[_addr].exists */\n      iszero\n        /* \"contracts/UserSystem.sol\":1437:1489  require(!users[_addr].exists, \"User already exists\") */\n      tag_64\n      jumpi\n      mload(0x40)\n      shl(0xe5, 0x461bcd)\n      dup2\n      mstore\n        /* \"#utility.yul\":4506:4508   */\n      0x20\n        /* \"contracts/UserSystem.sol\":1437:1489  require(!users[_addr].exists, \"User already exists\") */\n      0x04\n      dup3\n      add\n        /* \"#utility.yul\":4488:4509   */\n      mstore\n        /* \"#utility.yul\":4545:4547   */\n      0x13\n        /* \"#utility.yul\":4525:4543   */\n      0x24\n      dup3\n      add\n        /* \"#utility.yul\":4518:4548   */\n      mstore\n      shl(0x68, 0x5573657220616c726561647920657869737473)\n        /* \"#utility.yul\":4564:4582   */\n      0x44\n      dup3\n      add\n        /* \"#utility.yul\":4557:4606   */\n      mstore\n        /* \"#utility.yul\":4623:4641   */\n      0x64\n      add\n        /* \"contracts/UserSystem.sol\":1437:1489  require(!users[_addr].exists, \"User already exists\") */\n    tag_65:\n      mload(0x40)\n      dup1\n      swap2\n      sub\n      swap1\n      revert\n    tag_64:\n        /* \"contracts/UserSystem.sol\":1559:1578  User memory newUser */\n      0x00\n        /* \"contracts/UserSystem.sol\":1581:1753  User({... */\n      mload(0x40)\n      dup1\n      0x80\n      add\n      0x40\n      mstore\n      dup1\n        /* \"contracts/UserSystem.sol\":1607:1612  _addr */\n      dup4\n      sub(shl(0xa0, 0x01), 0x01)\n        /* \"contracts/UserSystem.sol\":1581:1753  User({... */\n      and\n      dup2\n      mstore\n      0x20\n      add\n        /* \"contracts/UserSystem.sol\":1631:1638  idCount */\n      sload(0x05)\n        /* \"contracts/UserSystem.sol\":1581:1753  User({... */\n      dup2\n      mstore\n      0x20\n      add\n        /* \"contracts/UserSystem.sol\":1686:1713  Strings.toString(userCount) */\n      tag_67\n        /* \"contracts/UserSystem.sol\":1703:1712  userCount */\n      sload(0x04)\n        /* \"contracts/UserSystem.sol\":1686:1702  Strings.toString */\n      tag_68\n        /* \"contracts/UserSystem.sol\":1686:1713  Strings.toString(userCount) */\n      jump\t// in\n    tag_67:\n        /* \"contracts/UserSystem.sol\":1663:1714  string.concat(\"User \", Strings.toString(userCount)) */\n      add(0x20, mload(0x40))\n      tag_69\n      swap2\n      swap1\n      tag_70\n      jump\t// in\n    tag_69:\n      0x40\n      dup1\n      mload\n      dup1\n      dup4\n      sub\n      not(0x1f)\n      add\n      dup2\n      mstore\n      swap2\n      dup2\n      mstore\n        /* \"contracts/UserSystem.sol\":1581:1753  User({... */\n      swap1\n      dup3\n      mstore\n        /* \"contracts/UserSystem.sol\":1737:1741  true */\n      0x01\n        /* \"contracts/UserSystem.sol\":1663:1714  string.concat(\"User \", Strings.toString(userCount)) */\n      0x20\n        /* \"contracts/UserSystem.sol\":1581:1753  User({... */\n      swap3\n      dup4\n      add\n      dup2\n      swap1\n      mstore\n      sub(shl(0xa0, 0x01), 0x01)\n        /* \"contracts/UserSystem.sol\":1764:1776  users[_addr] */\n      dup7\n      dup2\n      and\n      0x00\n      swap1\n      dup2\n      mstore\n        /* \"contracts/UserSystem.sol\":1764:1769  users */\n      0x06\n        /* \"contracts/UserSystem.sol\":1764:1776  users[_addr] */\n      dup6\n      mstore\n      dup4\n      swap1\n      keccak256\n        /* \"contracts/UserSystem.sol\":1764:1786  users[_addr] = newUser */\n      dup6\n      mload\n      dup2\n      sload\n      not(sub(shl(0xa0, 0x01), 0x01))\n      and\n      swap3\n      and\n      swap2\n      swap1\n      swap2\n      or\n      dup2\n      sstore\n      swap3\n      dup5\n      add\n      mload\n      swap1\n      dup4\n      add\n      sstore\n      dup3\n      add\n      mload\n      swap2\n      swap3\n      pop\n      dup3\n      swap2\n      0x02\n      dup3\n      add\n      swap1\n      tag_71\n      swap1\n      dup3\n      tag_72\n      jump\t// in\n    tag_71:\n      pop\n      0x60\n      swap2\n      swap1\n      swap2\n      add\n      mload\n      0x03\n      swap1\n      swap2\n      add\n      dup1\n      sload\n      not(0xff)\n      and\n      swap2\n      iszero\n      iszero\n      swap2\n      swap1\n      swap2\n      or\n      swap1\n      sstore\n        /* \"contracts/UserSystem.sol\":1820:1832  newUser.addr */\n      dup1\n      mload\n        /* \"contracts/UserSystem.sol\":1806:1816  newUser.id */\n      0x20\n      dup1\n      dup4\n      add\n      mload\n      0x00\n        /* \"contracts/UserSystem.sol\":1797:1817  userById[newUser.id] */\n      swap1\n      dup2\n      mstore\n        /* \"contracts/UserSystem.sol\":1797:1805  userById */\n      0x07\n        /* \"contracts/UserSystem.sol\":1797:1817  userById[newUser.id] */\n      swap1\n      swap2\n      mstore\n      0x40\n      swap1\n      dup2\n      swap1\n      keccak256\n        /* \"contracts/UserSystem.sol\":1797:1832  userById[newUser.id] = newUser.addr */\n      dup1\n      sload\n      not(sub(shl(0xa0, 0x01), 0x01))\n      and\n      sub(shl(0xa0, 0x01), 0x01)\n      swap1\n      swap4\n      and\n      swap3\n      swap1\n      swap3\n      or\n      swap1\n      swap2\n      sstore\n        /* \"contracts/UserSystem.sol\":1874:1886  newUser.addr */\n      dup2\n      mload\n        /* \"contracts/UserSystem.sol\":1854:1870  newUser.username */\n      dup2\n      dup4\n      add\n      mload\n        /* \"contracts/UserSystem.sol\":1843:1871  userByName[newUser.username] */\n      swap2\n      mload\n        /* \"contracts/UserSystem.sol\":1874:1886  newUser.addr */\n      swap1\n      swap2\n        /* \"contracts/UserSystem.sol\":1843:1853  userByName */\n      0x08\n      swap2\n        /* \"contracts/UserSystem.sol\":1843:1871  userByName[newUser.username] */\n      tag_73\n      swap2\n        /* \"contracts/UserSystem.sol\":1854:1870  newUser.username */\n      swap1\n        /* \"contracts/UserSystem.sol\":1843:1871  userByName[newUser.username] */\n      tag_74\n      jump\t// in\n    tag_73:\n      swap1\n      dup2\n      mstore\n      0x20\n      add\n      mload(0x40)\n      dup1\n      swap2\n      sub\n      swap1\n      keccak256\n      0x00\n        /* \"contracts/UserSystem.sol\":1843:1886  userByName[newUser.username] = newUser.addr */\n      0x0100\n      exp\n      dup2\n      sload\n      dup2\n      sub(shl(0xa0, 0x01), 0x01)\n      mul\n      not\n      and\n      swap1\n      dup4\n      sub(shl(0xa0, 0x01), 0x01)\n      and\n      mul\n      or\n      swap1\n      sstore\n      pop\n        /* \"contracts/UserSystem.sol\":1910:1911  1 */\n      0x01\n        /* \"contracts/UserSystem.sol\":1897:1906  userCount */\n      0x04\n      0x00\n        /* \"contracts/UserSystem.sol\":1897:1911  userCount += 1 */\n      dup3\n      dup3\n      sload\n      tag_75\n      swap2\n      swap1\n      tag_76\n      jump\t// in\n    tag_75:\n      swap3\n      pop\n      pop\n      dup2\n      swap1\n      sstore\n      pop\n        /* \"contracts/UserSystem.sol\":1933:1934  1 */\n      0x01\n        /* \"contracts/UserSystem.sol\":1922:1929  idCount */\n      0x05\n      0x00\n        /* \"contracts/UserSystem.sol\":1922:1934  idCount += 1 */\n      dup3\n      dup3\n      sload\n      tag_77\n      swap2\n      swap1\n      tag_76\n      jump\t// in\n    tag_77:\n      swap1\n      swap2\n      sstore\n      pop\n      pop\n        /* \"contracts/UserSystem.sol\":1950:1966  UserAdded(_addr) */\n      mload(0x40)\n      sub(shl(0xa0, 0x01), 0x01)\n      dup4\n      and\n      swap1\n      0x19ef9a4877199f89440a26acb26895ec02ed86f2df1aeaa90dc18041b892f71f\n      swap1\n      0x00\n      swap1\n      log2\n        /* \"contracts/UserSystem.sol\":1426:1974  {... */\n      pop\n        /* \"contracts/UserSystem.sol\":1385:1974  function addUser(address _addr) external {... */\n      pop\n      jump\t// out\n        /* \"contracts/UserSystem.sol\":2324:2656  function removeUser(address _addr) external onlyDriveOwner() userExists(_addr) {... */\n    tag_29:\n        /* \"contracts/UserSystem.sol\":748:758  driveOwner */\n      0x00\n        /* \"contracts/UserSystem.sol\":748:763  driveOwner.addr */\n      sload\n      sub(shl(0xa0, 0x01), 0x01)\n      and\n        /* \"contracts/UserSystem.sol\":734:744  msg.sender */\n      caller\n        /* \"contracts/UserSystem.sol\":734:763  msg.sender == driveOwner.addr */\n      eq\n        /* \"contracts/UserSystem.sol\":726:795  require(msg.sender == driveOwner.addr, \"You are not the drive owner\") */\n      tag_79\n      jumpi\n      mload(0x40)\n      shl(0xe5, 0x461bcd)\n      dup2\n      mstore\n        /* \"#utility.yul\":7978:7980   */\n      0x20\n        /* \"contracts/UserSystem.sol\":726:795  require(msg.sender == driveOwner.addr, \"You are not the drive owner\") */\n      0x04\n      dup3\n      add\n        /* \"#utility.yul\":7960:7981   */\n      mstore\n        /* \"#utility.yul\":8017:8019   */\n      0x1b\n        /* \"#utility.yul\":7997:8015   */\n      0x24\n      dup3\n      add\n        /* \"#utility.yul\":7990:8020   */\n      mstore\n        /* \"#utility.yul\":8056:8085   */\n      0x596f7520617265206e6f7420746865206472697665206f776e65720000000000\n        /* \"#utility.yul\":8036:8054   */\n      0x44\n      dup3\n      add\n        /* \"#utility.yul\":8029:8086   */\n      mstore\n        /* \"#utility.yul\":8103:8121   */\n      0x64\n      add\n        /* \"contracts/UserSystem.sol\":726:795  require(msg.sender == driveOwner.addr, \"You are not the drive owner\") */\n      tag_65\n        /* \"#utility.yul\":7776:8127   */\n      jump\n        /* \"contracts/UserSystem.sol\":726:795  require(msg.sender == driveOwner.addr, \"You are not the drive owner\") */\n    tag_79:\n      sub(shl(0xa0, 0x01), 0x01)\n        /* \"contracts/UserSystem.sol\":877:889  users[_addr] */\n      dup2\n      and\n      0x00\n      swap1\n      dup2\n      mstore\n        /* \"contracts/UserSystem.sol\":877:882  users */\n      0x06\n        /* \"contracts/UserSystem.sol\":877:889  users[_addr] */\n      0x20\n      mstore\n      0x40\n      swap1\n      keccak256\n        /* \"contracts/UserSystem.sol\":877:896  users[_addr].exists */\n      0x03\n      add\n      sload\n        /* \"contracts/UserSystem.sol\":2396:2401  _addr */\n      dup2\n      swap1\n        /* \"contracts/UserSystem.sol\":877:896  users[_addr].exists */\n      0xff\n      and\n        /* \"contracts/UserSystem.sol\":869:920  require(users[_addr].exists, \"User does not exist\") */\n      tag_83\n      jumpi\n      mload(0x40)\n      shl(0xe5, 0x461bcd)\n      dup2\n      mstore\n        /* \"#utility.yul\":8334:8336   */\n      0x20\n        /* \"contracts/UserSystem.sol\":869:920  require(users[_addr].exists, \"User does not exist\") */\n      0x04\n      dup3\n      add\n        /* \"#utility.yul\":8316:8337   */\n      mstore\n        /* \"#utility.yul\":8373:8375   */\n      0x13\n        /* \"#utility.yul\":8353:8371   */\n      0x24\n      dup3\n      add\n        /* \"#utility.yul\":8346:8376   */\n      mstore\n      shl(0x6a, 0x155cd95c88191bd95cc81b9bdd08195e1a5cdd)\n        /* \"#utility.yul\":8392:8410   */\n      0x44\n      dup3\n      add\n        /* \"#utility.yul\":8385:8434   */\n      mstore\n        /* \"#utility.yul\":8451:8469   */\n      0x64\n      add\n        /* \"contracts/UserSystem.sol\":869:920  require(users[_addr].exists, \"User does not exist\") */\n      tag_65\n        /* \"#utility.yul\":8132:8475   */\n      jump\n        /* \"contracts/UserSystem.sol\":869:920  require(users[_addr].exists, \"User does not exist\") */\n    tag_83:\n        /* \"contracts/UserSystem.sol\":2431:2441  msg.sender */\n      caller\n      sub(shl(0xa0, 0x01), 0x01)\n        /* \"contracts/UserSystem.sol\":2422:2441  _addr != msg.sender */\n      dup4\n      and\n      sub\n        /* \"contracts/UserSystem.sol\":2414:2465  require(_addr != msg.sender, \"Cannot remove owner\") */\n      tag_87\n      jumpi\n      mload(0x40)\n      shl(0xe5, 0x461bcd)\n      dup2\n      mstore\n        /* \"#utility.yul\":8682:8684   */\n      0x20\n        /* \"contracts/UserSystem.sol\":2414:2465  require(_addr != msg.sender, \"Cannot remove owner\") */\n      0x04\n      dup3\n      add\n        /* \"#utility.yul\":8664:8685   */\n      mstore\n        /* \"#utility.yul\":8721:8723   */\n      0x13\n        /* \"#utility.yul\":8701:8719   */\n      0x24\n      dup3\n      add\n        /* \"#utility.yul\":8694:8724   */\n      mstore\n      shl(0x69, 0x21b0b73737ba103932b6b7bb329037bbb732b9)\n        /* \"#utility.yul\":8740:8758   */\n      0x44\n      dup3\n      add\n        /* \"#utility.yul\":8733:8782   */\n      mstore\n        /* \"#utility.yul\":8799:8817   */\n      0x64\n      add\n        /* \"contracts/UserSystem.sol\":2414:2465  require(_addr != msg.sender, \"Cannot remove owner\") */\n      tag_65\n        /* \"#utility.yul\":8480:8823   */\n      jump\n        /* \"contracts/UserSystem.sol\":2414:2465  require(_addr != msg.sender, \"Cannot remove owner\") */\n    tag_87:\n      sub(shl(0xa0, 0x01), 0x01)\n        /* \"contracts/UserSystem.sol\":2492:2504  users[_addr] */\n      dup3\n      and\n        /* \"contracts/UserSystem.sol\":2483:2508  userById[users[_addr].id] */\n      0x00\n        /* \"contracts/UserSystem.sol\":2492:2504  users[_addr] */\n      dup2\n      dup2\n      mstore\n        /* \"contracts/UserSystem.sol\":2492:2497  users */\n      0x06\n        /* \"contracts/UserSystem.sol\":2492:2504  users[_addr] */\n      0x20\n      dup2\n      dup2\n      mstore\n      0x40\n      dup1\n      dup5\n      keccak256\n        /* \"contracts/UserSystem.sol\":2492:2507  users[_addr].id */\n      0x01\n      dup2\n      add\n      sload\n        /* \"contracts/UserSystem.sol\":2483:2508  userById[users[_addr].id] */\n      dup6\n      mstore\n        /* \"contracts/UserSystem.sol\":2483:2491  userById */\n      0x07\n        /* \"contracts/UserSystem.sol\":2483:2508  userById[users[_addr].id] */\n      dup4\n      mstore\n      dup2\n      dup6\n      keccak256\n        /* \"contracts/UserSystem.sol\":2476:2508  delete userById[users[_addr].id] */\n      dup1\n      sload\n      not(sub(shl(0xa0, 0x01), 0x01))\n      and\n      swap1\n      sstore\n        /* \"contracts/UserSystem.sol\":2537:2549  users[_addr] */\n      swap5\n      swap1\n      swap4\n      mstore\n      mstore\n        /* \"contracts/UserSystem.sol\":2526:2559  userByName[users[_addr].username] */\n      mload\n        /* \"contracts/UserSystem.sol\":2526:2536  userByName */\n      0x08\n      swap2\n        /* \"contracts/UserSystem.sol\":2526:2559  userByName[users[_addr].username] */\n      tag_90\n      swap2\n        /* \"contracts/UserSystem.sol\":2537:2558  users[_addr].username */\n      0x02\n      swap1\n      swap2\n      add\n      swap1\n        /* \"contracts/UserSystem.sol\":2526:2559  userByName[users[_addr].username] */\n      tag_91\n      jump\t// in\n    tag_90:\n      swap1\n      dup2\n      mstore\n      0x40\n      dup1\n      mload\n      0x20\n      swap3\n      dup2\n      swap1\n      sub\n      dup4\n      add\n      swap1\n      keccak256\n        /* \"contracts/UserSystem.sol\":2519:2559  delete userByName[users[_addr].username] */\n      dup1\n      sload\n      not(sub(shl(0xa0, 0x01), 0x01))\n      swap1\n      dup2\n      and\n      swap1\n      swap2\n      sstore\n      sub(shl(0xa0, 0x01), 0x01)\n        /* \"contracts/UserSystem.sol\":2577:2589  users[_addr] */\n      dup6\n      and\n      0x00\n      swap1\n      dup2\n      mstore\n        /* \"contracts/UserSystem.sol\":2577:2582  users */\n      0x06\n        /* \"contracts/UserSystem.sol\":2577:2589  users[_addr] */\n      swap1\n      swap4\n      mstore\n      swap1\n      dup3\n      keccak256\n        /* \"contracts/UserSystem.sol\":2570:2589  delete users[_addr] */\n      dup1\n      sload\n      swap1\n      swap2\n      and\n      dup2\n      sstore\n      0x01\n      dup2\n      add\n      dup3\n      swap1\n      sstore\n        /* \"contracts/UserSystem.sol\":2577:2589  users[_addr] */\n      swap1\n        /* \"contracts/UserSystem.sol\":2570:2589  delete users[_addr] */\n      tag_92\n      0x02\n      dup4\n      add\n      dup3\n      tag_93\n      jump\t// in\n    tag_92:\n      pop\n      0x03\n      add\n      dup1\n      sload\n      not(0xff)\n      and\n      swap1\n      sstore\n        /* \"contracts/UserSystem.sol\":2600:2609  userCount */\n      0x04\n        /* \"contracts/UserSystem.sol\":2600:2614  userCount -= 1 */\n      dup1\n      sload\n        /* \"contracts/UserSystem.sol\":2570:2589  delete users[_addr] */\n      0x01\n      swap2\n        /* \"contracts/UserSystem.sol\":2600:2609  userCount */\n      swap1\n        /* \"contracts/UserSystem.sol\":2570:2589  delete users[_addr] */\n      0x00\n      swap1\n        /* \"contracts/UserSystem.sol\":2600:2614  userCount -= 1 */\n      tag_94\n      swap1\n        /* \"contracts/UserSystem.sol\":2570:2589  delete users[_addr] */\n      dup5\n      swap1\n        /* \"contracts/UserSystem.sol\":2600:2614  userCount -= 1 */\n      tag_95\n      jump\t// in\n    tag_94:\n      swap1\n      swap2\n      sstore\n      pop\n      pop\n        /* \"contracts/UserSystem.sol\":2630:2648  UserRemoved(_addr) */\n      mload(0x40)\n      sub(shl(0xa0, 0x01), 0x01)\n      dup4\n      and\n      swap1\n      0xe9dce8c992623ce791725b21e857e33248d1f190a25b5168313420eebdaae99d\n      swap1\n      0x00\n      swap1\n      log2\n        /* \"contracts/UserSystem.sol\":806:807  _ */\n      pop\n        /* \"contracts/UserSystem.sol\":2324:2656  function removeUser(address _addr) external onlyDriveOwner() userExists(_addr) {... */\n      pop\n      jump\t// out\n        /* \"contracts/UserSystem.sol\":1982:2316  function renameSelf(string memory _newName) external {... */\n    tag_33:\n        /* \"contracts/UserSystem.sol\":2086:2087  0 */\n      0x00\n      sub(shl(0xa0, 0x01), 0x01)\n        /* \"contracts/UserSystem.sol\":2054:2088  userByName[_newName] == address(0) */\n      and\n        /* \"contracts/UserSystem.sol\":2054:2064  userByName */\n      0x08\n        /* \"contracts/UserSystem.sol\":2065:2073  _newName */\n      dup3\n        /* \"contracts/UserSystem.sol\":2054:2074  userByName[_newName] */\n      mload(0x40)\n      tag_97\n      swap2\n      swap1\n      tag_74\n      jump\t// in\n    tag_97:\n      swap1\n      dup2\n      mstore\n      mload(0x40)\n      swap1\n      dup2\n      swap1\n      sub\n      0x20\n      add\n      swap1\n      keccak256\n      sload\n      sub(shl(0xa0, 0x01), 0x01)\n      and\n        /* \"contracts/UserSystem.sol\":2054:2088  userByName[_newName] == address(0) */\n      eq\n        /* \"contracts/UserSystem.sol\":2046:2111  require(userByName[_newName] == address(0), \"Name not available\") */\n      tag_98\n      jumpi\n      mload(0x40)\n      shl(0xe5, 0x461bcd)\n      dup2\n      mstore\n        /* \"#utility.yul\":9965:9967   */\n      0x20\n        /* \"contracts/UserSystem.sol\":2046:2111  require(userByName[_newName] == address(0), \"Name not available\") */\n      0x04\n      dup3\n      add\n        /* \"#utility.yul\":9947:9968   */\n      mstore\n        /* \"#utility.yul\":10004:10006   */\n      0x12\n        /* \"#utility.yul\":9984:10002   */\n      0x24\n      dup3\n      add\n        /* \"#utility.yul\":9977:10007   */\n      mstore\n      shl(0x70, 0x4e616d65206e6f7420617661696c61626c65)\n        /* \"#utility.yul\":10023:10041   */\n      0x44\n      dup3\n      add\n        /* \"#utility.yul\":10016:10064   */\n      mstore\n        /* \"#utility.yul\":10081:10099   */\n      0x64\n      add\n        /* \"contracts/UserSystem.sol\":2046:2111  require(userByName[_newName] == address(0), \"Name not available\") */\n      tag_65\n        /* \"#utility.yul\":9763:10105   */\n      jump\n        /* \"contracts/UserSystem.sol\":2046:2111  require(userByName[_newName] == address(0), \"Name not available\") */\n    tag_98:\n        /* \"contracts/UserSystem.sol\":2153:2163  msg.sender */\n      caller\n        /* \"contracts/UserSystem.sol\":2122:2144  string memory _oldName */\n      0x00\n        /* \"contracts/UserSystem.sol\":2147:2164  users[msg.sender] */\n      swap1\n      dup2\n      mstore\n        /* \"contracts/UserSystem.sol\":2147:2152  users */\n      0x06\n        /* \"contracts/UserSystem.sol\":2147:2164  users[msg.sender] */\n      0x20\n      mstore\n      0x40\n      dup2\n      keccak256\n        /* \"contracts/UserSystem.sol\":2147:2173  users[msg.sender].username */\n      0x02\n      add\n        /* \"contracts/UserSystem.sol\":2122:2173  string memory _oldName = users[msg.sender].username */\n      dup1\n      sload\n      tag_101\n      swap1\n      tag_39\n      jump\t// in\n    tag_101:\n      dup1\n      0x1f\n      add\n      0x20\n      dup1\n      swap2\n      div\n      mul\n      0x20\n      add\n      mload(0x40)\n      swap1\n      dup2\n      add\n      0x40\n      mstore\n      dup1\n      swap3\n      swap2\n      swap1\n      dup2\n      dup2\n      mstore\n      0x20\n      add\n      dup3\n      dup1\n      sload\n      tag_102\n      swap1\n      tag_39\n      jump\t// in\n    tag_102:\n      dup1\n      iszero\n      tag_103\n      jumpi\n      dup1\n      0x1f\n      lt\n      tag_104\n      jumpi\n      0x0100\n      dup1\n      dup4\n      sload\n      div\n      mul\n      dup4\n      mstore\n      swap2\n      0x20\n      add\n      swap2\n      jump(tag_103)\n    tag_104:\n      dup3\n      add\n      swap2\n      swap1\n      0x00\n      mstore\n      keccak256(0x00, 0x20)\n      swap1\n    tag_105:\n      dup2\n      sload\n      dup2\n      mstore\n      swap1\n      0x01\n      add\n      swap1\n      0x20\n      add\n      dup1\n      dup4\n      gt\n      tag_105\n      jumpi\n      dup3\n      swap1\n      sub\n      0x1f\n      and\n      dup3\n      add\n      swap2\n    tag_103:\n      pop\n      pop\n        /* \"contracts/UserSystem.sol\":2190:2200  msg.sender */\n      caller\n        /* \"contracts/UserSystem.sol\":2184:2201  users[msg.sender] */\n      0x00\n      swap1\n      dup2\n      mstore\n        /* \"contracts/UserSystem.sol\":2184:2189  users */\n      0x06\n        /* \"contracts/UserSystem.sol\":2184:2201  users[msg.sender] */\n      0x20\n      mstore\n      0x40\n      swap1\n      keccak256\n        /* \"contracts/UserSystem.sol\":2122:2173  string memory _oldName = users[msg.sender].username */\n      swap4\n      swap5\n      pop\n      pop\n        /* \"contracts/UserSystem.sol\":2184:2210  users[msg.sender].username */\n      0x02\n      swap1\n      swap3\n      add\n      swap2\n      pop\n        /* \"contracts/UserSystem.sol\":2184:2221  users[msg.sender].username = _newName */\n      tag_106\n      swap1\n      pop\n        /* \"contracts/UserSystem.sol\":2213:2221  _newName */\n      dup4\n        /* \"contracts/UserSystem.sol\":2184:2210  users[msg.sender].username */\n      dup3\n        /* \"contracts/UserSystem.sol\":2184:2221  users[msg.sender].username = _newName */\n      tag_72\n      jump\t// in\n    tag_106:\n      pop\n        /* \"contracts/UserSystem.sol\":2239:2249  userByName */\n      0x08\n        /* \"contracts/UserSystem.sol\":2250:2258  _oldName */\n      dup2\n        /* \"contracts/UserSystem.sol\":2239:2259  userByName[_oldName] */\n      mload(0x40)\n      tag_107\n      swap2\n      swap1\n      tag_74\n      jump\t// in\n    tag_107:\n      swap1\n      dup2\n      mstore\n      mload(0x40)\n      swap1\n      dup2\n      swap1\n      sub\n      0x20\n      add\n      dup2\n      keccak256\n        /* \"contracts/UserSystem.sol\":2232:2259  delete userByName[_oldName] */\n      dup1\n      sload\n      not(sub(shl(0xa0, 0x01), 0x01))\n      and\n      swap1\n      sstore\n        /* \"contracts/UserSystem.sol\":2287:2297  msg.sender */\n      caller\n      swap1\n        /* \"contracts/UserSystem.sol\":2275:2308  UserRenamed(msg.sender, _newName) */\n      0x45052326573ed191a212eeed8881bde4dca0c84b19407ecbb4ffc724ace1f105\n      swap1\n      tag_108\n      swap1\n        /* \"contracts/UserSystem.sol\":2299:2307  _newName */\n      dup6\n      swap1\n        /* \"contracts/UserSystem.sol\":2275:2308  UserRenamed(msg.sender, _newName) */\n      tag_37\n      jump\t// in\n    tag_108:\n      mload(0x40)\n      dup1\n      swap2\n      sub\n      swap1\n      log2\n        /* \"contracts/UserSystem.sol\":2035:2316  {... */\n      pop\n        /* \"contracts/UserSystem.sol\":1982:2316  function renameSelf(string memory _newName) external {... */\n      pop\n      jump\t// out\n        /* \"contracts/UserSystem.sol\":2924:3032  function whoami() external view returns (string memory) {... */\n    tag_35:\n        /* \"contracts/UserSystem.sol\":3004:3014  msg.sender */\n      caller\n        /* \"contracts/UserSystem.sol\":2998:3015  users[msg.sender] */\n      0x00\n      swap1\n      dup2\n      mstore\n        /* \"contracts/UserSystem.sol\":2998:3003  users */\n      0x06\n        /* \"contracts/UserSystem.sol\":2998:3015  users[msg.sender] */\n      0x20\n      mstore\n      0x40\n      swap1\n      keccak256\n        /* \"contracts/UserSystem.sol\":2998:3024  users[msg.sender].username */\n      0x02\n      add\n        /* \"contracts/UserSystem.sol\":2991:3024  return users[msg.sender].username */\n      dup1\n      sload\n        /* \"contracts/UserSystem.sol\":2965:2978  string memory */\n      0x60\n      swap2\n        /* \"contracts/UserSystem.sol\":2998:3024  users[msg.sender].username */\n      swap1\n        /* \"contracts/UserSystem.sol\":2991:3024  return users[msg.sender].username */\n      tag_110\n      swap1\n      tag_39\n      jump\t// in\n    tag_110:\n      dup1\n      0x1f\n      add\n      0x20\n      dup1\n      swap2\n      div\n      mul\n      0x20\n      add\n      mload(0x40)\n      swap1\n      dup2\n      add\n      0x40\n      mstore\n      dup1\n      swap3\n      swap2\n      swap1\n      dup2\n      dup2\n      mstore\n      0x20\n      add\n      dup3\n      dup1\n      sload\n      tag_111\n      swap1\n      tag_39\n      jump\t// in\n    tag_111:\n      dup1\n      iszero\n      tag_112\n      jumpi\n      dup1\n      0x1f\n      lt\n      tag_113\n      jumpi\n      0x0100\n      dup1\n      dup4\n      sload\n      div\n      mul\n      dup4\n      mstore\n      swap2\n      0x20\n      add\n      swap2\n      jump(tag_112)\n    tag_113:\n      dup3\n      add\n      swap2\n      swap1\n      0x00\n      mstore\n      keccak256(0x00, 0x20)\n      swap1\n    tag_114:\n      dup2\n      sload\n      dup2\n      mstore\n      swap1\n      0x01\n      add\n      swap1\n      0x20\n      add\n      dup1\n      dup4\n      gt\n      tag_114\n      jumpi\n      dup3\n      swap1\n      sub\n      0x1f\n      and\n      dup3\n      add\n      swap2\n    tag_112:\n      pop\n      pop\n      pop\n      pop\n      pop\n      swap1\n      pop\n        /* \"contracts/UserSystem.sol\":2924:3032  function whoami() external view returns (string memory) {... */\n      swap1\n      jump\t// out\n        /* \"@openzeppelin/contracts/utils/Strings.sol\":637:1269  function toString(uint256 value) internal pure returns (string memory) {... */\n    tag_68:\n        /* \"@openzeppelin/contracts/utils/Strings.sol\":693:706  string memory */\n      0x60\n        /* \"@openzeppelin/contracts/utils/Strings.sol\":742:756  uint256 length */\n      0x00\n        /* \"@openzeppelin/contracts/utils/Strings.sol\":759:776  Math.log10(value) */\n      tag_116\n        /* \"@openzeppelin/contracts/utils/Strings.sol\":770:775  value */\n      dup4\n        /* \"@openzeppelin/contracts/utils/Strings.sol\":759:769  Math.log10 */\n      tag_117\n        /* \"@openzeppelin/contracts/utils/Strings.sol\":759:776  Math.log10(value) */\n      jump\t// in\n    tag_116:\n        /* \"@openzeppelin/contracts/utils/Strings.sol\":779:780  1 */\n      0x01\n        /* \"@openzeppelin/contracts/utils/Strings.sol\":759:780  Math.log10(value) + 1 */\n      add\n        /* \"@openzeppelin/contracts/utils/Strings.sol\":742:780  uint256 length = Math.log10(value) + 1 */\n      swap1\n      pop\n        /* \"@openzeppelin/contracts/utils/Strings.sol\":794:814  string memory buffer */\n      0x00\n        /* \"@openzeppelin/contracts/utils/Strings.sol\":828:834  length */\n      dup2\n        /* \"@openzeppelin/contracts/utils/Strings.sol\":817:835  new string(length) */\n      0xffffffffffffffff\n      dup2\n      gt\n      iszero\n      tag_119\n      jumpi\n      tag_119\n      tag_47\n      jump\t// in\n    tag_119:\n      mload(0x40)\n      swap1\n      dup1\n      dup3\n      mstore\n      dup1\n      0x1f\n      add\n      not(0x1f)\n      and\n      0x20\n      add\n      dup3\n      add\n      0x40\n      mstore\n      dup1\n      iszero\n      tag_120\n      jumpi\n      0x20\n      dup3\n      add\n      dup2\n      dup1\n      calldatasize\n      dup4\n      calldatacopy\n      add\n      swap1\n      pop\n    tag_120:\n      pop\n        /* \"@openzeppelin/contracts/utils/Strings.sol\":794:835  string memory buffer = new string(length) */\n      swap1\n      pop\n        /* \"@openzeppelin/contracts/utils/Strings.sol\":924:952  add(buffer, add(32, length)) */\n      dup2\n      dup2\n      add\n        /* \"@openzeppelin/contracts/utils/Strings.sol\":940:942  32 */\n      0x20\n        /* \"@openzeppelin/contracts/utils/Strings.sol\":924:952  add(buffer, add(32, length)) */\n      add\n        /* \"@openzeppelin/contracts/utils/Strings.sol\":979:1226  while (true) {... */\n    tag_121:\n      not(0x00)\n        /* \"@openzeppelin/contracts/utils/Strings.sol\":1010:1015  ptr-- */\n      add\n      shl(0x81, 0x181899199a1a9b1b9c1cb0b131b232b3)\n        /* \"@openzeppelin/contracts/utils/Strings.sol\":1109:1111  10 */\n      0x0a\n        /* \"@openzeppelin/contracts/utils/Strings.sol\":1098:1112  mod(value, 10) */\n      dup7\n      mod\n        /* \"@openzeppelin/contracts/utils/Strings.sol\":1093:1125  byte(mod(value, 10), HEX_DIGITS) */\n      byte\n        /* \"@openzeppelin/contracts/utils/Strings.sol\":1010:1015  ptr-- */\n      dup2\n        /* \"@openzeppelin/contracts/utils/Strings.sol\":1080:1126  mstore8(ptr, byte(mod(value, 10), HEX_DIGITS)) */\n      mstore8\n        /* \"@openzeppelin/contracts/utils/Strings.sol\":1170:1172  10 */\n      0x0a\n        /* \"@openzeppelin/contracts/utils/Strings.sol\":1161:1172  value /= 10 */\n      dup6\n      div\n      swap5\n      pop\n        /* \"@openzeppelin/contracts/utils/Strings.sol\":1190:1211  if (value == 0) break */\n      dup5\n        /* \"@openzeppelin/contracts/utils/Strings.sol\":979:1226  while (true) {... */\n      tag_121\n        /* \"@openzeppelin/contracts/utils/Strings.sol\":1190:1211  if (value == 0) break */\n      jumpi\n      pop\n        /* \"@openzeppelin/contracts/utils/Strings.sol\":1246:1252  buffer */\n      swap4\n        /* \"@openzeppelin/contracts/utils/Strings.sol\":637:1269  function toString(uint256 value) internal pure returns (string memory) {... */\n      swap3\n      pop\n      pop\n      pop\n      jump\t// out\n        /* \"@openzeppelin/contracts/utils/math/Math.sol\":25316:26232  function log10(uint256 value) internal pure returns (uint256) {... */\n    tag_117:\n        /* \"@openzeppelin/contracts/utils/math/Math.sol\":25369:25376  uint256 */\n      0x00\n      dup1\n      shl(0x40, 0x184f03e93ff9f4daa797ed6e38ed64bf6a1f01)\n        /* \"@openzeppelin/contracts/utils/math/Math.sol\":25444:25461  value >= 10 ** 64 */\n      dup4\n      lt\n        /* \"@openzeppelin/contracts/utils/math/Math.sol\":25440:25543  if (value >= 10 ** 64) {... */\n      tag_128\n      jumpi\n      shl(0x40, 0x184f03e93ff9f4daa797ed6e38ed64bf6a1f01)\n        /* \"@openzeppelin/contracts/utils/math/Math.sol\":25481:25498  value /= 10 ** 64 */\n      dup4\n      div\n      swap3\n      pop\n        /* \"@openzeppelin/contracts/utils/math/Math.sol\":25526:25528  64 */\n      0x40\n        /* \"@openzeppelin/contracts/utils/math/Math.sol\":25516:25528  result += 64 */\n      add\n        /* \"@openzeppelin/contracts/utils/math/Math.sol\":25440:25543  if (value >= 10 ** 64) {... */\n    tag_128:\n        /* \"@openzeppelin/contracts/utils/math/Math.sol\":25569:25577  10 ** 32 */\n      0x04ee2d6d415b85acef8100000000\n        /* \"@openzeppelin/contracts/utils/math/Math.sol\":25560:25565  value */\n      dup4\n        /* \"@openzeppelin/contracts/utils/math/Math.sol\":25560:25577  value >= 10 ** 32 */\n      lt\n        /* \"@openzeppelin/contracts/utils/math/Math.sol\":25556:25659  if (value >= 10 ** 32) {... */\n      tag_131\n      jumpi\n        /* \"@openzeppelin/contracts/utils/math/Math.sol\":25606:25614  10 ** 32 */\n      0x04ee2d6d415b85acef8100000000\n        /* \"@openzeppelin/contracts/utils/math/Math.sol\":25597:25614  value /= 10 ** 32 */\n      dup4\n      div\n      swap3\n      pop\n        /* \"@openzeppelin/contracts/utils/math/Math.sol\":25642:25644  32 */\n      0x20\n        /* \"@openzeppelin/contracts/utils/math/Math.sol\":25632:25644  result += 32 */\n      add\n        /* \"@openzeppelin/contracts/utils/math/Math.sol\":25556:25659  if (value >= 10 ** 32) {... */\n    tag_131:\n        /* \"@openzeppelin/contracts/utils/math/Math.sol\":25685:25693  10 ** 16 */\n      0x2386f26fc10000\n        /* \"@openzeppelin/contracts/utils/math/Math.sol\":25676:25681  value */\n      dup4\n        /* \"@openzeppelin/contracts/utils/math/Math.sol\":25676:25693  value >= 10 ** 16 */\n      lt\n        /* \"@openzeppelin/contracts/utils/math/Math.sol\":25672:25775  if (value >= 10 ** 16) {... */\n      tag_134\n      jumpi\n        /* \"@openzeppelin/contracts/utils/math/Math.sol\":25722:25730  10 ** 16 */\n      0x2386f26fc10000\n        /* \"@openzeppelin/contracts/utils/math/Math.sol\":25713:25730  value /= 10 ** 16 */\n      dup4\n      div\n      swap3\n      pop\n        /* \"@openzeppelin/contracts/utils/math/Math.sol\":25758:25760  16 */\n      0x10\n        /* \"@openzeppelin/contracts/utils/math/Math.sol\":25748:25760  result += 16 */\n      add\n        /* \"@openzeppelin/contracts/utils/math/Math.sol\":25672:25775  if (value >= 10 ** 16) {... */\n    tag_134:\n        /* \"@openzeppelin/contracts/utils/math/Math.sol\":25801:25808  10 ** 8 */\n      0x05f5e100\n        /* \"@openzeppelin/contracts/utils/math/Math.sol\":25792:25797  value */\n      dup4\n        /* \"@openzeppelin/contracts/utils/math/Math.sol\":25792:25808  value >= 10 ** 8 */\n      lt\n        /* \"@openzeppelin/contracts/utils/math/Math.sol\":25788:25888  if (value >= 10 ** 8) {... */\n      tag_137\n      jumpi\n        /* \"@openzeppelin/contracts/utils/math/Math.sol\":25837:25844  10 ** 8 */\n      0x05f5e100\n        /* \"@openzeppelin/contracts/utils/math/Math.sol\":25828:25844  value /= 10 ** 8 */\n      dup4\n      div\n      swap3\n      pop\n        /* \"@openzeppelin/contracts/utils/math/Math.sol\":25872:25873  8 */\n      0x08\n        /* \"@openzeppelin/contracts/utils/math/Math.sol\":25862:25873  result += 8 */\n      add\n        /* \"@openzeppelin/contracts/utils/math/Math.sol\":25788:25888  if (value >= 10 ** 8) {... */\n    tag_137:\n        /* \"@openzeppelin/contracts/utils/math/Math.sol\":25914:25921  10 ** 4 */\n      0x2710\n        /* \"@openzeppelin/contracts/utils/math/Math.sol\":25905:25910  value */\n      dup4\n        /* \"@openzeppelin/contracts/utils/math/Math.sol\":25905:25921  value >= 10 ** 4 */\n      lt\n        /* \"@openzeppelin/contracts/utils/math/Math.sol\":25901:26001  if (value >= 10 ** 4) {... */\n      tag_140\n      jumpi\n        /* \"@openzeppelin/contracts/utils/math/Math.sol\":25950:25957  10 ** 4 */\n      0x2710\n        /* \"@openzeppelin/contracts/utils/math/Math.sol\":25941:25957  value /= 10 ** 4 */\n      dup4\n      div\n      swap3\n      pop\n        /* \"@openzeppelin/contracts/utils/math/Math.sol\":25985:25986  4 */\n      0x04\n        /* \"@openzeppelin/contracts/utils/math/Math.sol\":25975:25986  result += 4 */\n      add\n        /* \"@openzeppelin/contracts/utils/math/Math.sol\":25901:26001  if (value >= 10 ** 4) {... */\n    tag_140:\n        /* \"@openzeppelin/contracts/utils/math/Math.sol\":26027:26034  10 ** 2 */\n      0x64\n        /* \"@openzeppelin/contracts/utils/math/Math.sol\":26018:26023  value */\n      dup4\n        /* \"@openzeppelin/contracts/utils/math/Math.sol\":26018:26034  value >= 10 ** 2 */\n      lt\n        /* \"@openzeppelin/contracts/utils/math/Math.sol\":26014:26114  if (value >= 10 ** 2) {... */\n      tag_143\n      jumpi\n        /* \"@openzeppelin/contracts/utils/math/Math.sol\":26063:26070  10 ** 2 */\n      0x64\n        /* \"@openzeppelin/contracts/utils/math/Math.sol\":26054:26070  value /= 10 ** 2 */\n      dup4\n      div\n      swap3\n      pop\n        /* \"@openzeppelin/contracts/utils/math/Math.sol\":26098:26099  2 */\n      0x02\n        /* \"@openzeppelin/contracts/utils/math/Math.sol\":26088:26099  result += 2 */\n      add\n        /* \"@openzeppelin/contracts/utils/math/Math.sol\":26014:26114  if (value >= 10 ** 2) {... */\n    tag_143:\n        /* \"@openzeppelin/contracts/utils/math/Math.sol\":26140:26147  10 ** 1 */\n      0x0a\n        /* \"@openzeppelin/contracts/utils/math/Math.sol\":26131:26136  value */\n      dup4\n        /* \"@openzeppelin/contracts/utils/math/Math.sol\":26131:26147  value >= 10 ** 1 */\n      lt\n        /* \"@openzeppelin/contracts/utils/math/Math.sol\":26127:26193  if (value >= 10 ** 1) {... */\n      tag_146\n      jumpi\n        /* \"@openzeppelin/contracts/utils/math/Math.sol\":26177:26178  1 */\n      0x01\n        /* \"@openzeppelin/contracts/utils/math/Math.sol\":26167:26178  result += 1 */\n      add\n        /* \"@openzeppelin/contracts/utils/math/Math.sol\":26127:26193  if (value >= 10 ** 1) {... */\n    tag_146:\n        /* \"@openzeppelin/contracts/utils/math/Math.sol\":26219:26225  result */\n      swap3\n        /* \"@openzeppelin/contracts/utils/math/Math.sol\":25316:26232  function log10(uint256 value) internal pure returns (uint256) {... */\n      swap2\n      pop\n      pop\n      jump\t// out\n    tag_93:\n      pop\n      dup1\n      sload\n      tag_147\n      swap1\n      tag_39\n      jump\t// in\n    tag_147:\n      0x00\n      dup3\n      sstore\n      dup1\n      0x1f\n      lt\n      tag_149\n      jumpi\n      pop\n      pop\n      jump\t// out\n    tag_149:\n      0x1f\n      add\n      0x20\n      swap1\n      div\n      swap1\n      0x00\n      mstore\n      keccak256(0x00, 0x20)\n      swap1\n      dup2\n      add\n      swap1\n      tag_150\n      swap2\n      swap1\n      tag_151\n      jump\t// in\n    tag_150:\n      pop\n      jump\t// out\n    tag_151:\n    tag_152:\n      dup1\n      dup3\n      gt\n      iszero\n      tag_153\n      jumpi\n      0x00\n      dup2\n      sstore\n      0x01\n      add\n      jump(tag_152)\n    tag_153:\n      pop\n      swap1\n      jump\t// out\n        /* \"#utility.yul\":196:496   */\n    tag_154:\n        /* \"#utility.yul\":249:252   */\n      0x00\n        /* \"#utility.yul\":287:292   */\n      dup2\n        /* \"#utility.yul\":281:293   */\n      mload\n        /* \"#utility.yul\":314:320   */\n      dup1\n        /* \"#utility.yul\":309:312   */\n      dup5\n        /* \"#utility.yul\":302:321   */\n      mstore\n        /* \"#utility.yul\":370:376   */\n      dup1\n        /* \"#utility.yul\":363:367   */\n      0x20\n        /* \"#utility.yul\":356:361   */\n      dup5\n        /* \"#utility.yul\":352:368   */\n      add\n        /* \"#utility.yul\":345:349   */\n      0x20\n        /* \"#utility.yul\":340:343   */\n      dup7\n        /* \"#utility.yul\":336:350   */\n      add\n        /* \"#utility.yul\":330:377   */\n      mcopy\n        /* \"#utility.yul\":422:423   */\n      0x00\n        /* \"#utility.yul\":415:419   */\n      0x20\n        /* \"#utility.yul\":406:412   */\n      dup3\n        /* \"#utility.yul\":401:404   */\n      dup7\n        /* \"#utility.yul\":397:413   */\n      add\n        /* \"#utility.yul\":393:420   */\n      add\n        /* \"#utility.yul\":386:424   */\n      mstore\n        /* \"#utility.yul\":485:489   */\n      0x20\n        /* \"#utility.yul\":478:480   */\n      0x1f\n        /* \"#utility.yul\":474:481   */\n      not\n        /* \"#utility.yul\":469:471   */\n      0x1f\n        /* \"#utility.yul\":461:467   */\n      dup4\n        /* \"#utility.yul\":457:472   */\n      add\n        /* \"#utility.yul\":453:482   */\n      and\n        /* \"#utility.yul\":448:451   */\n      dup6\n        /* \"#utility.yul\":444:483   */\n      add\n        /* \"#utility.yul\":440:490   */\n      add\n        /* \"#utility.yul\":433:490   */\n      swap2\n      pop\n      pop\n        /* \"#utility.yul\":196:496   */\n      swap3\n      swap2\n      pop\n      pop\n      jump\t// out\n        /* \"#utility.yul\":501:983   */\n    tag_18:\n        /* \"#utility.yul\":757:758   */\n      0x01\n        /* \"#utility.yul\":753:754   */\n      dup1\n        /* \"#utility.yul\":748:751   */\n      0xa0\n        /* \"#utility.yul\":744:755   */\n      shl\n        /* \"#utility.yul\":740:759   */\n      sub\n        /* \"#utility.yul\":732:738   */\n      dup6\n        /* \"#utility.yul\":728:760   */\n      and\n        /* \"#utility.yul\":717:726   */\n      dup2\n        /* \"#utility.yul\":710:761   */\n      mstore\n        /* \"#utility.yul\":797:803   */\n      dup4\n        /* \"#utility.yul\":792:794   */\n      0x20\n        /* \"#utility.yul\":781:790   */\n      dup3\n        /* \"#utility.yul\":777:795   */\n      add\n        /* \"#utility.yul\":770:804   */\n      mstore\n        /* \"#utility.yul\":840:843   */\n      0x80\n        /* \"#utility.yul\":835:837   */\n      0x40\n        /* \"#utility.yul\":824:833   */\n      dup3\n        /* \"#utility.yul\":820:838   */\n      add\n        /* \"#utility.yul\":813:844   */\n      mstore\n        /* \"#utility.yul\":691:695   */\n      0x00\n        /* \"#utility.yul\":861:918   */\n      tag_164\n        /* \"#utility.yul\":913:916   */\n      0x80\n        /* \"#utility.yul\":902:911   */\n      dup4\n        /* \"#utility.yul\":898:917   */\n      add\n        /* \"#utility.yul\":890:896   */\n      dup6\n        /* \"#utility.yul\":861:918   */\n      tag_154\n      jump\t// in\n    tag_164:\n        /* \"#utility.yul\":853:918   */\n      swap1\n      pop\n        /* \"#utility.yul\":968:974   */\n      dup3\n        /* \"#utility.yul\":961:975   */\n      iszero\n        /* \"#utility.yul\":954:976   */\n      iszero\n        /* \"#utility.yul\":949:951   */\n      0x60\n        /* \"#utility.yul\":938:947   */\n      dup4\n        /* \"#utility.yul\":934:952   */\n      add\n        /* \"#utility.yul\":927:977   */\n      mstore\n        /* \"#utility.yul\":501:983   */\n      swap6\n      swap5\n      pop\n      pop\n      pop\n      pop\n      pop\n      jump\t// out\n        /* \"#utility.yul\":988:2173   */\n    tag_22:\n        /* \"#utility.yul\":1174:1178   */\n      0x00\n        /* \"#utility.yul\":1222:1224   */\n      0x20\n        /* \"#utility.yul\":1211:1220   */\n      dup3\n        /* \"#utility.yul\":1207:1225   */\n      add\n        /* \"#utility.yul\":1252:1254   */\n      0x20\n        /* \"#utility.yul\":1241:1250   */\n      dup4\n        /* \"#utility.yul\":1234:1255   */\n      mstore\n        /* \"#utility.yul\":1275:1281   */\n      dup1\n        /* \"#utility.yul\":1310:1316   */\n      dup5\n        /* \"#utility.yul\":1304:1317   */\n      mload\n        /* \"#utility.yul\":1341:1347   */\n      dup1\n        /* \"#utility.yul\":1333:1339   */\n      dup4\n        /* \"#utility.yul\":1326:1348   */\n      mstore\n        /* \"#utility.yul\":1379:1381   */\n      0x40\n        /* \"#utility.yul\":1368:1377   */\n      dup6\n        /* \"#utility.yul\":1364:1382   */\n      add\n        /* \"#utility.yul\":1357:1382   */\n      swap2\n      pop\n        /* \"#utility.yul\":1441:1443   */\n      0x40\n        /* \"#utility.yul\":1431:1437   */\n      dup2\n        /* \"#utility.yul\":1428:1429   */\n      0x05\n        /* \"#utility.yul\":1424:1438   */\n      shl\n        /* \"#utility.yul\":1413:1422   */\n      dup7\n        /* \"#utility.yul\":1409:1439   */\n      add\n        /* \"#utility.yul\":1405:1444   */\n      add\n        /* \"#utility.yul\":1391:1444   */\n      swap3\n      pop\n        /* \"#utility.yul\":1479:1481   */\n      0x20\n        /* \"#utility.yul\":1471:1477   */\n      dup7\n        /* \"#utility.yul\":1467:1482   */\n      add\n        /* \"#utility.yul\":1500:1501   */\n      0x00\n        /* \"#utility.yul\":1510:2144   */\n    tag_166:\n        /* \"#utility.yul\":1524:1530   */\n      dup3\n        /* \"#utility.yul\":1521:1522   */\n      dup2\n        /* \"#utility.yul\":1518:1531   */\n      lt\n        /* \"#utility.yul\":1510:2144   */\n      iszero\n      tag_168\n      jumpi\n        /* \"#utility.yul\":1617:1619   */\n      0x3f\n        /* \"#utility.yul\":1613:1620   */\n      not\n        /* \"#utility.yul\":1601:1610   */\n      dup8\n        /* \"#utility.yul\":1593:1599   */\n      dup7\n        /* \"#utility.yul\":1589:1611   */\n      sub\n        /* \"#utility.yul\":1585:1621   */\n      add\n        /* \"#utility.yul\":1580:1583   */\n      dup5\n        /* \"#utility.yul\":1573:1622   */\n      mstore\n        /* \"#utility.yul\":1651:1657   */\n      dup2\n        /* \"#utility.yul\":1645:1658   */\n      mload\n        /* \"#utility.yul\":1718:1719   */\n      0x01\n        /* \"#utility.yul\":1714:1715   */\n      dup1\n        /* \"#utility.yul\":1709:1712   */\n      0xa0\n        /* \"#utility.yul\":1705:1716   */\n      shl\n        /* \"#utility.yul\":1701:1720   */\n      sub\n        /* \"#utility.yul\":1696:1698   */\n      dup2\n        /* \"#utility.yul\":1690:1699   */\n      mload\n        /* \"#utility.yul\":1686:1721   */\n      and\n        /* \"#utility.yul\":1678:1684   */\n      dup7\n        /* \"#utility.yul\":1671:1722   */\n      mstore\n        /* \"#utility.yul\":1773:1775   */\n      0x20\n        /* \"#utility.yul\":1769:1771   */\n      dup2\n        /* \"#utility.yul\":1765:1776   */\n      add\n        /* \"#utility.yul\":1759:1777   */\n      mload\n        /* \"#utility.yul\":1754:1756   */\n      0x20\n        /* \"#utility.yul\":1746:1752   */\n      dup8\n        /* \"#utility.yul\":1742:1757   */\n      add\n        /* \"#utility.yul\":1735:1778   */\n      mstore\n        /* \"#utility.yul\":1825:1827   */\n      0x40\n        /* \"#utility.yul\":1821:1823   */\n      dup2\n        /* \"#utility.yul\":1817:1828   */\n      add\n        /* \"#utility.yul\":1811:1829   */\n      mload\n        /* \"#utility.yul\":1866:1870   */\n      0x80\n        /* \"#utility.yul\":1861:1863   */\n      0x40\n        /* \"#utility.yul\":1853:1859   */\n      dup9\n        /* \"#utility.yul\":1849:1864   */\n      add\n        /* \"#utility.yul\":1842:1871   */\n      mstore\n        /* \"#utility.yul\":1898:1959   */\n      tag_169\n        /* \"#utility.yul\":1953:1957   */\n      0x80\n        /* \"#utility.yul\":1945:1951   */\n      dup9\n        /* \"#utility.yul\":1941:1958   */\n      add\n        /* \"#utility.yul\":1927:1939   */\n      dup3\n        /* \"#utility.yul\":1898:1959   */\n      tag_154\n      jump\t// in\n    tag_169:\n        /* \"#utility.yul\":2026:2030   */\n      0x60\n        /* \"#utility.yul\":2018:2031   */\n      swap3\n      dup4\n      add\n        /* \"#utility.yul\":2012:2032   */\n      mload\n        /* \"#utility.yul\":2005:2033   */\n      iszero\n        /* \"#utility.yul\":1998:2034   */\n      iszero\n        /* \"#utility.yul\":1979:1996   */\n      swap8\n      swap1\n      swap3\n      add\n        /* \"#utility.yul\":1972:2035   */\n      swap7\n      swap1\n      swap7\n      mstore\n        /* \"#utility.yul\":1884:1959   */\n      swap5\n      pop\n        /* \"#utility.yul\":2099:2101   */\n      0x20\n        /* \"#utility.yul\":2122:2134   */\n      swap4\n      dup5\n      add\n      swap4\n        /* \"#utility.yul\":2087:2102   */\n      swap2\n      swap1\n      swap2\n      add\n      swap1\n        /* \"#utility.yul\":1546:1547   */\n      0x01\n        /* \"#utility.yul\":1539:1548   */\n      add\n        /* \"#utility.yul\":1510:2144   */\n      jump(tag_166)\n    tag_168:\n      pop\n        /* \"#utility.yul\":2161:2167   */\n      swap3\n      swap7\n        /* \"#utility.yul\":988:2173   */\n      swap6\n      pop\n      pop\n      pop\n      pop\n      pop\n      pop\n      jump\t// out\n        /* \"#utility.yul\":2178:2464   */\n    tag_25:\n        /* \"#utility.yul\":2237:2243   */\n      0x00\n        /* \"#utility.yul\":2290:2292   */\n      0x20\n        /* \"#utility.yul\":2278:2287   */\n      dup3\n        /* \"#utility.yul\":2269:2276   */\n      dup5\n        /* \"#utility.yul\":2265:2288   */\n      sub\n        /* \"#utility.yul\":2261:2293   */\n      slt\n        /* \"#utility.yul\":2258:2310   */\n      iszero\n      tag_171\n      jumpi\n        /* \"#utility.yul\":2306:2307   */\n      0x00\n        /* \"#utility.yul\":2303:2304   */\n      dup1\n        /* \"#utility.yul\":2296:2308   */\n      revert\n        /* \"#utility.yul\":2258:2310   */\n    tag_171:\n        /* \"#utility.yul\":2332:2355   */\n      dup2\n      calldataload\n      sub(shl(0xa0, 0x01), 0x01)\n        /* \"#utility.yul\":2384:2415   */\n      dup2\n      and\n        /* \"#utility.yul\":2374:2416   */\n      dup2\n      eq\n        /* \"#utility.yul\":2364:2434   */\n      tag_172\n      jumpi\n        /* \"#utility.yul\":2430:2431   */\n      0x00\n        /* \"#utility.yul\":2427:2428   */\n      dup1\n        /* \"#utility.yul\":2420:2432   */\n      revert\n        /* \"#utility.yul\":2364:2434   */\n    tag_172:\n        /* \"#utility.yul\":2453:2458   */\n      swap4\n        /* \"#utility.yul\":2178:2464   */\n      swap3\n      pop\n      pop\n      pop\n      jump\t// out\n        /* \"#utility.yul\":2469:2596   */\n    tag_47:\n        /* \"#utility.yul\":2530:2540   */\n      0x4e487b71\n        /* \"#utility.yul\":2525:2528   */\n      0xe0\n        /* \"#utility.yul\":2521:2541   */\n      shl\n        /* \"#utility.yul\":2518:2519   */\n      0x00\n        /* \"#utility.yul\":2511:2542   */\n      mstore\n        /* \"#utility.yul\":2561:2565   */\n      0x41\n        /* \"#utility.yul\":2558:2559   */\n      0x04\n        /* \"#utility.yul\":2551:2566   */\n      mstore\n        /* \"#utility.yul\":2585:2589   */\n      0x24\n        /* \"#utility.yul\":2582:2583   */\n      0x00\n        /* \"#utility.yul\":2575:2590   */\n      revert\n        /* \"#utility.yul\":2601:3546   */\n    tag_32:\n        /* \"#utility.yul\":2670:2676   */\n      0x00\n        /* \"#utility.yul\":2723:2725   */\n      0x20\n        /* \"#utility.yul\":2711:2720   */\n      dup3\n        /* \"#utility.yul\":2702:2709   */\n      dup5\n        /* \"#utility.yul\":2698:2721   */\n      sub\n        /* \"#utility.yul\":2694:2726   */\n      slt\n        /* \"#utility.yul\":2691:2743   */\n      iszero\n      tag_175\n      jumpi\n        /* \"#utility.yul\":2739:2740   */\n      0x00\n        /* \"#utility.yul\":2736:2737   */\n      dup1\n        /* \"#utility.yul\":2729:2741   */\n      revert\n        /* \"#utility.yul\":2691:2743   */\n    tag_175:\n        /* \"#utility.yul\":2779:2788   */\n      dup2\n        /* \"#utility.yul\":2766:2789   */\n      calldataload\n        /* \"#utility.yul\":2812:2830   */\n      0xffffffffffffffff\n        /* \"#utility.yul\":2804:2810   */\n      dup2\n        /* \"#utility.yul\":2801:2831   */\n      gt\n        /* \"#utility.yul\":2798:2848   */\n      iszero\n      tag_176\n      jumpi\n        /* \"#utility.yul\":2844:2845   */\n      0x00\n        /* \"#utility.yul\":2841:2842   */\n      dup1\n        /* \"#utility.yul\":2834:2846   */\n      revert\n        /* \"#utility.yul\":2798:2848   */\n    tag_176:\n        /* \"#utility.yul\":2867:2889   */\n      dup3\n      add\n        /* \"#utility.yul\":2920:2924   */\n      0x1f\n        /* \"#utility.yul\":2912:2925   */\n      dup2\n      add\n        /* \"#utility.yul\":2908:2935   */\n      dup5\n      sgt\n        /* \"#utility.yul\":2898:2953   */\n      tag_177\n      jumpi\n        /* \"#utility.yul\":2949:2950   */\n      0x00\n        /* \"#utility.yul\":2946:2947   */\n      dup1\n        /* \"#utility.yul\":2939:2951   */\n      revert\n        /* \"#utility.yul\":2898:2953   */\n    tag_177:\n        /* \"#utility.yul\":2989:2991   */\n      dup1\n        /* \"#utility.yul\":2976:2992   */\n      calldataload\n        /* \"#utility.yul\":3015:3033   */\n      0xffffffffffffffff\n        /* \"#utility.yul\":3007:3013   */\n      dup2\n        /* \"#utility.yul\":3004:3034   */\n      gt\n        /* \"#utility.yul\":3001:3057   */\n      iszero\n      tag_179\n      jumpi\n        /* \"#utility.yul\":3037:3055   */\n      tag_179\n      tag_47\n      jump\t// in\n    tag_179:\n        /* \"#utility.yul\":3086:3088   */\n      0x40\n        /* \"#utility.yul\":3080:3089   */\n      mload\n        /* \"#utility.yul\":3178:3180   */\n      0x1f\n        /* \"#utility.yul\":3140:3157   */\n      dup3\n      add\n      not(0x1f)\n        /* \"#utility.yul\":3136:3167   */\n      swap1\n      dup2\n      and\n        /* \"#utility.yul\":3169:3171   */\n      0x3f\n        /* \"#utility.yul\":3132:3172   */\n      add\n        /* \"#utility.yul\":3128:3182   */\n      and\n        /* \"#utility.yul\":3116:3183   */\n      dup2\n      add\n        /* \"#utility.yul\":3213:3231   */\n      0xffffffffffffffff\n        /* \"#utility.yul\":3198:3232   */\n      dup2\n      gt\n        /* \"#utility.yul\":3234:3256   */\n      dup3\n      dup3\n      lt\n        /* \"#utility.yul\":3195:3257   */\n      or\n        /* \"#utility.yul\":3192:3280   */\n      iszero\n      tag_181\n      jumpi\n        /* \"#utility.yul\":3260:3278   */\n      tag_181\n      tag_47\n      jump\t// in\n    tag_181:\n        /* \"#utility.yul\":3296:3298   */\n      0x40\n        /* \"#utility.yul\":3289:3311   */\n      mstore\n        /* \"#utility.yul\":3320:3342   */\n      dup2\n      dup2\n      mstore\n        /* \"#utility.yul\":3361:3376   */\n      dup3\n      dup3\n      add\n        /* \"#utility.yul\":3378:3380   */\n      0x20\n        /* \"#utility.yul\":3357:3381   */\n      add\n        /* \"#utility.yul\":3354:3391   */\n      dup7\n      lt\n        /* \"#utility.yul\":3351:3408   */\n      iszero\n      tag_182\n      jumpi\n        /* \"#utility.yul\":3404:3405   */\n      0x00\n        /* \"#utility.yul\":3401:3402   */\n      dup1\n        /* \"#utility.yul\":3394:3406   */\n      revert\n        /* \"#utility.yul\":3351:3408   */\n    tag_182:\n        /* \"#utility.yul\":3460:3466   */\n      dup2\n        /* \"#utility.yul\":3455:3457   */\n      0x20\n        /* \"#utility.yul\":3451:3453   */\n      dup5\n        /* \"#utility.yul\":3447:3458   */\n      add\n        /* \"#utility.yul\":3442:3444   */\n      0x20\n        /* \"#utility.yul\":3434:3440   */\n      dup4\n        /* \"#utility.yul\":3430:3445   */\n      add\n        /* \"#utility.yul\":3417:3467   */\n      calldatacopy\n        /* \"#utility.yul\":3513:3514   */\n      0x00\n        /* \"#utility.yul\":3487:3506   */\n      swap2\n      dup2\n      add\n        /* \"#utility.yul\":3508:3510   */\n      0x20\n        /* \"#utility.yul\":3483:3511   */\n      add\n        /* \"#utility.yul\":3476:3515   */\n      swap2\n      swap1\n      swap2\n      mstore\n        /* \"#utility.yul\":3491:3497   */\n      swap5\n        /* \"#utility.yul\":2601:3546   */\n      swap4\n      pop\n      pop\n      pop\n      pop\n      jump\t// out\n        /* \"#utility.yul\":3551:3782   */\n    tag_37:\n        /* \"#utility.yul\":3700:3702   */\n      0x20\n        /* \"#utility.yul\":3689:3698   */\n      dup2\n        /* \"#utility.yul\":3682:3703   */\n      mstore\n        /* \"#utility.yul\":3663:3667   */\n      0x00\n        /* \"#utility.yul\":3720:3776   */\n      tag_172\n        /* \"#utility.yul\":3772:3774   */\n      0x20\n        /* \"#utility.yul\":3761:3770   */\n      dup4\n        /* \"#utility.yul\":3757:3775   */\n      add\n        /* \"#utility.yul\":3749:3755   */\n      dup5\n        /* \"#utility.yul\":3720:3776   */\n      tag_154\n      jump\t// in\n        /* \"#utility.yul\":3787:4167   */\n    tag_39:\n        /* \"#utility.yul\":3866:3867   */\n      0x01\n        /* \"#utility.yul\":3862:3874   */\n      dup2\n      dup2\n      shr\n      swap1\n        /* \"#utility.yul\":3909:3921   */\n      dup3\n      and\n      dup1\n        /* \"#utility.yul\":3930:3991   */\n      tag_186\n      jumpi\n        /* \"#utility.yul\":3984:3988   */\n      0x7f\n        /* \"#utility.yul\":3976:3982   */\n      dup3\n        /* \"#utility.yul\":3972:3989   */\n      and\n        /* \"#utility.yul\":3962:3989   */\n      swap2\n      pop\n        /* \"#utility.yul\":3930:3991   */\n    tag_186:\n        /* \"#utility.yul\":4037:4039   */\n      0x20\n        /* \"#utility.yul\":4029:4035   */\n      dup3\n        /* \"#utility.yul\":4026:4040   */\n      lt\n        /* \"#utility.yul\":4006:4024   */\n      dup2\n        /* \"#utility.yul\":4003:4041   */\n      sub\n        /* \"#utility.yul\":4000:4161   */\n      tag_53\n      jumpi\n        /* \"#utility.yul\":4083:4093   */\n      0x4e487b71\n        /* \"#utility.yul\":4078:4081   */\n      0xe0\n        /* \"#utility.yul\":4074:4094   */\n      shl\n        /* \"#utility.yul\":4071:4072   */\n      0x00\n        /* \"#utility.yul\":4064:4095   */\n      mstore\n        /* \"#utility.yul\":4118:4122   */\n      0x22\n        /* \"#utility.yul\":4115:4116   */\n      0x04\n        /* \"#utility.yul\":4108:4123   */\n      mstore\n        /* \"#utility.yul\":4146:4150   */\n      0x24\n        /* \"#utility.yul\":4143:4144   */\n      0x00\n        /* \"#utility.yul\":4136:4151   */\n      revert\n        /* \"#utility.yul\":4172:4299   */\n    tag_62:\n        /* \"#utility.yul\":4233:4243   */\n      0x4e487b71\n        /* \"#utility.yul\":4228:4231   */\n      0xe0\n        /* \"#utility.yul\":4224:4244   */\n      shl\n        /* \"#utility.yul\":4221:4222   */\n      0x00\n        /* \"#utility.yul\":4214:4245   */\n      mstore\n        /* \"#utility.yul\":4264:4268   */\n      0x32\n        /* \"#utility.yul\":4261:4262   */\n      0x04\n        /* \"#utility.yul\":4254:4269   */\n      mstore\n        /* \"#utility.yul\":4288:4292   */\n      0x24\n        /* \"#utility.yul\":4285:4286   */\n      0x00\n        /* \"#utility.yul\":4278:4293   */\n      revert\n        /* \"#utility.yul\":4652:4864   */\n    tag_155:\n        /* \"#utility.yul\":4694:4697   */\n      0x00\n        /* \"#utility.yul\":4732:4737   */\n      dup2\n        /* \"#utility.yul\":4726:4738   */\n      mload\n        /* \"#utility.yul\":4776:4782   */\n      dup1\n        /* \"#utility.yul\":4769:4773   */\n      0x20\n        /* \"#utility.yul\":4762:4767   */\n      dup5\n        /* \"#utility.yul\":4758:4774   */\n      add\n        /* \"#utility.yul\":4753:4756   */\n      dup6\n        /* \"#utility.yul\":4747:4783   */\n      mcopy\n        /* \"#utility.yul\":4838:4839   */\n      0x00\n        /* \"#utility.yul\":4802:4818   */\n      swap4\n      add\n        /* \"#utility.yul\":4827:4840   */\n      swap3\n      dup4\n      mstore\n      pop\n        /* \"#utility.yul\":4802:4818   */\n      swap1\n      swap2\n        /* \"#utility.yul\":4652:4864   */\n      swap1\n      pop\n      jump\t// out\n        /* \"#utility.yul\":4869:5188   */\n    tag_70:\n      shl(0xdd, 0x02ab9b2b91)\n        /* \"#utility.yul\":5115:5118   */\n      dup2\n        /* \"#utility.yul\":5108:5128   */\n      mstore\n        /* \"#utility.yul\":5090:5093   */\n      0x00\n        /* \"#utility.yul\":5144:5182   */\n      tag_172\n        /* \"#utility.yul\":5179:5180   */\n      0x05\n        /* \"#utility.yul\":5174:5177   */\n      dup4\n        /* \"#utility.yul\":5170:5181   */\n      add\n        /* \"#utility.yul\":5162:5168   */\n      dup5\n        /* \"#utility.yul\":5144:5182   */\n      tag_155\n      jump\t// in\n        /* \"#utility.yul\":5319:5837   */\n    tag_157:\n        /* \"#utility.yul\":5421:5423   */\n      0x1f\n        /* \"#utility.yul\":5416:5419   */\n      dup3\n        /* \"#utility.yul\":5413:5424   */\n      gt\n        /* \"#utility.yul\":5410:5831   */\n      iszero\n      tag_195\n      jumpi\n        /* \"#utility.yul\":5457:5462   */\n      dup1\n        /* \"#utility.yul\":5454:5455   */\n      0x00\n        /* \"#utility.yul\":5447:5463   */\n      mstore\n        /* \"#utility.yul\":5501:5505   */\n      0x20\n        /* \"#utility.yul\":5498:5499   */\n      0x00\n        /* \"#utility.yul\":5488:5506   */\n      keccak256\n        /* \"#utility.yul\":5571:5573   */\n      0x1f\n        /* \"#utility.yul\":5559:5569   */\n      dup5\n        /* \"#utility.yul\":5555:5574   */\n      add\n        /* \"#utility.yul\":5552:5553   */\n      0x05\n        /* \"#utility.yul\":5548:5575   */\n      shr\n        /* \"#utility.yul\":5542:5546   */\n      dup2\n        /* \"#utility.yul\":5538:5576   */\n      add\n        /* \"#utility.yul\":5607:5611   */\n      0x20\n        /* \"#utility.yul\":5595:5605   */\n      dup6\n        /* \"#utility.yul\":5592:5612   */\n      lt\n        /* \"#utility.yul\":5589:5636   */\n      iszero\n      tag_196\n      jumpi\n      pop\n        /* \"#utility.yul\":5630:5634   */\n      dup1\n        /* \"#utility.yul\":5589:5636   */\n    tag_196:\n        /* \"#utility.yul\":5685:5687   */\n      0x1f\n        /* \"#utility.yul\":5680:5683   */\n      dup5\n        /* \"#utility.yul\":5676:5688   */\n      add\n        /* \"#utility.yul\":5673:5674   */\n      0x05\n        /* \"#utility.yul\":5669:5689   */\n      shr\n        /* \"#utility.yul\":5663:5667   */\n      dup3\n        /* \"#utility.yul\":5659:5690   */\n      add\n        /* \"#utility.yul\":5649:5690   */\n      swap2\n      pop\n        /* \"#utility.yul\":5740:5821   */\n    tag_197:\n        /* \"#utility.yul\":5758:5760   */\n      dup2\n        /* \"#utility.yul\":5751:5756   */\n      dup2\n        /* \"#utility.yul\":5748:5761   */\n      lt\n        /* \"#utility.yul\":5740:5821   */\n      iszero\n      tag_199\n      jumpi\n        /* \"#utility.yul\":5817:5818   */\n      0x00\n        /* \"#utility.yul\":5803:5819   */\n      dup2\n      sstore\n        /* \"#utility.yul\":5784:5785   */\n      0x01\n        /* \"#utility.yul\":5773:5786   */\n      add\n        /* \"#utility.yul\":5740:5821   */\n      jump(tag_197)\n    tag_199:\n        /* \"#utility.yul\":5744:5747   */\n      pop\n      pop\n        /* \"#utility.yul\":5410:5831   */\n    tag_195:\n        /* \"#utility.yul\":5319:5837   */\n      pop\n      pop\n      pop\n      jump\t// out\n        /* \"#utility.yul\":6013:7312   */\n    tag_72:\n        /* \"#utility.yul\":6139:6142   */\n      dup2\n        /* \"#utility.yul\":6133:6143   */\n      mload\n        /* \"#utility.yul\":6166:6184   */\n      0xffffffffffffffff\n        /* \"#utility.yul\":6158:6164   */\n      dup2\n        /* \"#utility.yul\":6155:6185   */\n      gt\n        /* \"#utility.yul\":6152:6208   */\n      iszero\n      tag_203\n      jumpi\n        /* \"#utility.yul\":6188:6206   */\n      tag_203\n      tag_47\n      jump\t// in\n    tag_203:\n        /* \"#utility.yul\":6217:6314   */\n      tag_204\n        /* \"#utility.yul\":6307:6313   */\n      dup2\n        /* \"#utility.yul\":6267:6305   */\n      tag_205\n        /* \"#utility.yul\":6299:6303   */\n      dup5\n        /* \"#utility.yul\":6293:6304   */\n      sload\n        /* \"#utility.yul\":6267:6305   */\n      tag_39\n      jump\t// in\n    tag_205:\n        /* \"#utility.yul\":6261:6265   */\n      dup5\n        /* \"#utility.yul\":6217:6314   */\n      tag_157\n      jump\t// in\n    tag_204:\n        /* \"#utility.yul\":6363:6367   */\n      0x20\n        /* \"#utility.yul\":6394:6396   */\n      0x1f\n        /* \"#utility.yul\":6383:6397   */\n      dup3\n      gt\n        /* \"#utility.yul\":6411:6412   */\n      0x01\n        /* \"#utility.yul\":6406:7055   */\n      dup2\n      eq\n      tag_207\n      jumpi\n        /* \"#utility.yul\":7099:7100   */\n      0x00\n        /* \"#utility.yul\":7116:7122   */\n      dup4\n        /* \"#utility.yul\":7113:7202   */\n      iszero\n      tag_208\n      jumpi\n      pop\n        /* \"#utility.yul\":7168:7187   */\n      dup5\n      dup3\n      add\n        /* \"#utility.yul\":7162:7188   */\n      mload\n        /* \"#utility.yul\":7113:7202   */\n    tag_208:\n      not(0x00)\n        /* \"#utility.yul\":5970:5971   */\n      0x03\n        /* \"#utility.yul\":5966:5977   */\n      dup6\n      swap1\n      shl\n        /* \"#utility.yul\":5962:5986   */\n      shr\n        /* \"#utility.yul\":5958:5987   */\n      not\n        /* \"#utility.yul\":5948:5988   */\n      and\n        /* \"#utility.yul\":5994:5995   */\n      0x01\n        /* \"#utility.yul\":5990:6001   */\n      dup5\n      swap1\n      shl\n        /* \"#utility.yul\":5945:6002   */\n      or\n        /* \"#utility.yul\":7215:7296   */\n      dup5\n      sstore\n        /* \"#utility.yul\":6376:7306   */\n      jump(tag_199)\n        /* \"#utility.yul\":6406:7055   */\n    tag_207:\n        /* \"#utility.yul\":5266:5267   */\n      0x00\n        /* \"#utility.yul\":5259:5273   */\n      dup5\n      dup2\n      mstore\n        /* \"#utility.yul\":5303:5307   */\n      0x20\n        /* \"#utility.yul\":5290:5308   */\n      dup2\n      keccak256\n      not(0x1f)\n        /* \"#utility.yul\":6442:6462   */\n      dup6\n      and\n      swap2\n        /* \"#utility.yul\":6560:6782   */\n    tag_211:\n        /* \"#utility.yul\":6574:6581   */\n      dup3\n        /* \"#utility.yul\":6571:6572   */\n      dup2\n        /* \"#utility.yul\":6568:6582   */\n      lt\n        /* \"#utility.yul\":6560:6782   */\n      iszero\n      tag_213\n      jumpi\n        /* \"#utility.yul\":6656:6675   */\n      dup8\n      dup6\n      add\n        /* \"#utility.yul\":6650:6676   */\n      mload\n        /* \"#utility.yul\":6635:6677   */\n      dup3\n      sstore\n        /* \"#utility.yul\":6763:6767   */\n      0x20\n        /* \"#utility.yul\":6748:6768   */\n      swap5\n      dup6\n      add\n      swap5\n        /* \"#utility.yul\":6716:6717   */\n      0x01\n        /* \"#utility.yul\":6704:6718   */\n      swap1\n      swap3\n      add\n      swap2\n        /* \"#utility.yul\":6590:6602   */\n      add\n        /* \"#utility.yul\":6560:6782   */\n      jump(tag_211)\n    tag_213:\n        /* \"#utility.yul\":6564:6567   */\n      pop\n        /* \"#utility.yul\":6810:6816   */\n      dup5\n        /* \"#utility.yul\":6801:6808   */\n      dup3\n        /* \"#utility.yul\":6798:6817   */\n      lt\n        /* \"#utility.yul\":6795:6996   */\n      iszero\n      tag_214\n      jumpi\n        /* \"#utility.yul\":6871:6890   */\n      dup7\n      dup5\n      add\n        /* \"#utility.yul\":6865:6891   */\n      mload\n      not(0x00)\n        /* \"#utility.yul\":6954:6955   */\n      0x03\n        /* \"#utility.yul\":6950:6964   */\n      dup8\n      swap1\n      shl\n        /* \"#utility.yul\":6966:6969   */\n      0xf8\n        /* \"#utility.yul\":6946:6970   */\n      and\n        /* \"#utility.yul\":6942:6979   */\n      shr\n        /* \"#utility.yul\":6938:6980   */\n      not\n        /* \"#utility.yul\":6923:6981   */\n      and\n        /* \"#utility.yul\":6908:6982   */\n      dup2\n      sstore\n        /* \"#utility.yul\":6795:6996   */\n    tag_214:\n      pop\n      pop\n      pop\n      pop\n        /* \"#utility.yul\":7042:7043   */\n      0x01\n        /* \"#utility.yul\":7026:7040   */\n      swap1\n      dup2\n      shl\n        /* \"#utility.yul\":7022:7044   */\n      add\n        /* \"#utility.yul\":7009:7045   */\n      swap1\n      sstore\n      pop\n        /* \"#utility.yul\":6013:7312   */\n      jump\t// out\n        /* \"#utility.yul\":7317:7509   */\n    tag_74:\n        /* \"#utility.yul\":7448:7451   */\n      0x00\n        /* \"#utility.yul\":7473:7503   */\n      tag_172\n        /* \"#utility.yul\":7499:7502   */\n      dup3\n        /* \"#utility.yul\":7491:7497   */\n      dup5\n        /* \"#utility.yul\":7473:7503   */\n      tag_155\n      jump\t// in\n        /* \"#utility.yul\":7514:7641   */\n    tag_159:\n        /* \"#utility.yul\":7575:7585   */\n      0x4e487b71\n        /* \"#utility.yul\":7570:7573   */\n      0xe0\n        /* \"#utility.yul\":7566:7586   */\n      shl\n        /* \"#utility.yul\":7563:7564   */\n      0x00\n        /* \"#utility.yul\":7556:7587   */\n      mstore\n        /* \"#utility.yul\":7606:7610   */\n      0x11\n        /* \"#utility.yul\":7603:7604   */\n      0x04\n        /* \"#utility.yul\":7596:7611   */\n      mstore\n        /* \"#utility.yul\":7630:7634   */\n      0x24\n        /* \"#utility.yul\":7627:7628   */\n      0x00\n        /* \"#utility.yul\":7620:7635   */\n      revert\n        /* \"#utility.yul\":7646:7771   */\n    tag_76:\n        /* \"#utility.yul\":7711:7720   */\n      dup1\n      dup3\n      add\n        /* \"#utility.yul\":7732:7742   */\n      dup1\n      dup3\n      gt\n        /* \"#utility.yul\":7729:7765   */\n      iszero\n      tag_146\n      jumpi\n        /* \"#utility.yul\":7745:7763   */\n      tag_146\n      tag_159\n      jump\t// in\n        /* \"#utility.yul\":8828:9625   */\n    tag_91:\n        /* \"#utility.yul\":8956:8959   */\n      0x00\n        /* \"#utility.yul\":8985:8986   */\n      dup1\n        /* \"#utility.yul\":9018:9024   */\n      dup4\n        /* \"#utility.yul\":9012:9025   */\n      sload\n        /* \"#utility.yul\":9048:9084   */\n      tag_225\n        /* \"#utility.yul\":9074:9083   */\n      dup2\n        /* \"#utility.yul\":9048:9084   */\n      tag_39\n      jump\t// in\n    tag_225:\n        /* \"#utility.yul\":9115:9116   */\n      0x01\n        /* \"#utility.yul\":9100:9117   */\n      dup3\n      and\n        /* \"#utility.yul\":9126:9259   */\n      dup1\n      iszero\n      tag_227\n      jumpi\n        /* \"#utility.yul\":9273:9274   */\n      0x01\n        /* \"#utility.yul\":9268:9600   */\n      dup2\n      eq\n      tag_228\n      jumpi\n        /* \"#utility.yul\":9093:9600   */\n      jump(tag_226)\n        /* \"#utility.yul\":9126:9259   */\n    tag_227:\n      not(0xff)\n        /* \"#utility.yul\":9159:9183   */\n      dup4\n      and\n        /* \"#utility.yul\":9147:9184   */\n      dup7\n      mstore\n        /* \"#utility.yul\":9232:9246   */\n      dup2\n      iszero\n        /* \"#utility.yul\":9225:9247   */\n      iszero\n        /* \"#utility.yul\":9213:9248   */\n      dup3\n      mul\n        /* \"#utility.yul\":9204:9249   */\n      dup7\n      add\n      swap4\n      pop\n        /* \"#utility.yul\":9126:9259   */\n      jump(tag_226)\n        /* \"#utility.yul\":9268:9600   */\n    tag_228:\n        /* \"#utility.yul\":9299:9305   */\n      dup7\n        /* \"#utility.yul\":9296:9297   */\n      0x00\n        /* \"#utility.yul\":9289:9306   */\n      mstore\n        /* \"#utility.yul\":9347:9351   */\n      0x20\n        /* \"#utility.yul\":9344:9345   */\n      0x00\n        /* \"#utility.yul\":9334:9352   */\n      keccak256\n        /* \"#utility.yul\":9374:9375   */\n      0x00\n        /* \"#utility.yul\":9388:9554   */\n    tag_229:\n        /* \"#utility.yul\":9402:9408   */\n      dup4\n        /* \"#utility.yul\":9399:9400   */\n      dup2\n        /* \"#utility.yul\":9396:9409   */\n      lt\n        /* \"#utility.yul\":9388:9554   */\n      iszero\n      tag_231\n      jumpi\n        /* \"#utility.yul\":9482:9496   */\n      dup2\n      sload\n        /* \"#utility.yul\":9469:9480   */\n      dup9\n      dup3\n      add\n        /* \"#utility.yul\":9462:9497   */\n      mstore\n        /* \"#utility.yul\":9538:9539   */\n      0x01\n        /* \"#utility.yul\":9525:9540   */\n      swap1\n      swap2\n      add\n      swap1\n        /* \"#utility.yul\":9424:9428   */\n      0x20\n        /* \"#utility.yul\":9417:9429   */\n      add\n        /* \"#utility.yul\":9388:9554   */\n      jump(tag_229)\n    tag_231:\n        /* \"#utility.yul\":9392:9395   */\n      pop\n      pop\n        /* \"#utility.yul\":9583:9589   */\n      dup2\n        /* \"#utility.yul\":9578:9581   */\n      dup7\n        /* \"#utility.yul\":9574:9590   */\n      add\n        /* \"#utility.yul\":9567:9590   */\n      swap4\n      pop\n        /* \"#utility.yul\":9093:9600   */\n    tag_226:\n      pop\n        /* \"#utility.yul\":9616:9619   */\n      swap2\n      swap6\n        /* \"#utility.yul\":8828:9625   */\n      swap5\n      pop\n      pop\n      pop\n      pop\n      pop\n      jump\t// out\n        /* \"#utility.yul\":9630:9758   */\n    tag_95:\n        /* \"#utility.yul\":9697:9706   */\n      dup2\n      dup2\n      sub\n        /* \"#utility.yul\":9718:9729   */\n      dup2\n      dup2\n      gt\n        /* \"#utility.yul\":9715:9752   */\n      iszero\n      tag_146\n      jumpi\n        /* \"#utility.yul\":9732:9750   */\n      tag_146\n      tag_159\n      jump\t// in\n\n    auxdata: 0xa2646970667358221220bae184153c9520676373a5c27877057182e05802a3524c016d4b6d07e2321cf964736f6c634300081a0033\n}\n",
				"bytecode": {
					"linkReferences": {},
					"object": "608060405234801561000f575f80fd5b50604080516080810182523381525f602080830182815284518086018652600581526427bbb732b960d91b92810192909252938301819052600160608401819052835183546001600160a01b0319166001600160a01b03909116178355935190935590916002906100809082610216565b50606091909101516003909101805460ff1916911515919091179055335f908152600660205260408120815481546001600160a01b039091166001600160a01b031990911617815560018054908201556002808201906100e090826102d3565b506003918201549101805460ff909216151560ff199092169190911790555f805460015482526007602052604080832080546001600160a01b0319166001600160a01b03938416179055915491519116906008906101409060029061039f565b90815260405190819003602001902080546001600160a01b03929092166001600160a01b031990921691909117905560016004819055600555610410565b634e487b7160e01b5f52604160045260245ffd5b600181811c908216806101a657607f821691505b6020821081036101c457634e487b7160e01b5f52602260045260245ffd5b50919050565b601f82111561021157805f5260205f20601f840160051c810160208510156101ef5750805b601f840160051c820191505b8181101561020e575f81556001016101fb565b50505b505050565b81516001600160401b0381111561022f5761022f61017e565b6102438161023d8454610192565b846101ca565b6020601f821160018114610278575f831561025e5750848201515b600184901b5f19600386901b1c198216175b85555061020e565b5f84815260208120601f198516915b828110156102a75787850151825560209485019460019092019101610287565b50848210156102c457868401515f19600387901b60f8161c191681555b50505050600190811b01905550565b8181036102de575050565b6102e88254610192565b6001600160401b038111156102ff576102ff61017e565b61030d8161023d8454610192565b5f601f82116001811461033c575f831561025e575081850154600184901b5f19600386901b1c19821617610270565b5f8581526020808220868352908220601f198616925b838110156103725782860154825560019586019590910190602001610352565b508583101561038f57818501545f19600388901b60f8161c191681555b5050505050600190811b01905550565b5f8083546103ac81610192565b6001821680156103c357600181146103d857610405565b60ff1983168652811515820286019350610405565b865f5260205f205f5b838110156103fd578154888201526001909101906020016103e1565b505081860193505b509195945050505050565b610fdb8061041d5f395ff3fe608060405234801561000f575f80fd5b506004361061007a575f3560e01c8063421b2d8b11610058578063421b2d8b146100c757806398575188146100dc578063a47b6cf6146100ef578063b3b36bb314610102575f80fd5b806307973ccf1461007e5780630fc715c31461009a5780630fe579c0146100b2575b5f80fd5b61008760045481565b6040519081526020015b60405180910390f35b6100a2610117565b6040516100919493929190610b9a565b6100ba6101c2565b6040516100919190610bd3565b6100da6100d5366004610c6c565b610365565b005b6100da6100ea366004610c6c565b610571565b6100da6100fd366004610cad565b610779565b61010a610911565b6040516100919190610d60565b5f8054600154600280546001600160a01b0390931693919261013890610d72565b80601f016020809104026020016040519081016040528092919081815260200182805461016490610d72565b80156101af5780601f10610186576101008083540402835291602001916101af565b820191905f5260205f20905b81548152906001019060200180831161019257829003601f168201915b5050506003909301549192505060ff1684565b60605f60045467ffffffffffffffff8111156101e0576101e0610c99565b60405190808252806020026020018201604052801561024457816020015b61023160405180608001604052805f6001600160a01b031681526020015f8152602001606081526020015f151581525090565b8152602001906001900390816101fe5790505b5090505f5b60045481101561035f575f818152600760209081526040808320546001600160a01b0390811684526006835292819020815160808101835281549094168452600181015492840192909252600282018054918401916102a790610d72565b80601f01602080910402602001604051908101604052809291908181526020018280546102d390610d72565b801561031e5780601f106102f55761010080835404028352916020019161031e565b820191905f5260205f20905b81548152906001019060200180831161030157829003601f168201915b50505091835250506003919091015460ff161515602090910152825183908390811061034c5761034c610da4565b6020908102919091010152600101610249565b50919050565b6001600160a01b0381165f9081526006602052604090206003015460ff16156103cb5760405162461bcd60e51b81526020600482015260136024820152725573657220616c72656164792065786973747360681b60448201526064015b60405180910390fd5b5f6040518060800160405280836001600160a01b0316815260200160055481526020016103f96004546109b2565b6040516020016104099190610dcf565b60408051808303601f19018152918152908252600160209283018190526001600160a01b038681165f90815260068552839020855181546001600160a01b03191692169190911781559284015190830155820151919250829160028201906104719082610e34565b50606091909101516003909101805460ff191691151591909117905580516020808301515f908152600790915260409081902080546001600160a01b0319166001600160a01b0390931692909217909155815181830151915190916008916104d99190610eef565b90815260200160405180910390205f6101000a8154816001600160a01b0302191690836001600160a01b03160217905550600160045f82825461051c9190610f0e565b92505081905550600160055f8282546105359190610f0e565b90915550506040516001600160a01b038316907f19ef9a4877199f89440a26acb26895ec02ed86f2df1aeaa90dc18041b892f71f905f90a25050565b5f546001600160a01b031633146105ca5760405162461bcd60e51b815260206004820152601b60248201527f596f7520617265206e6f7420746865206472697665206f776e6572000000000060448201526064016103c2565b6001600160a01b0381165f90815260066020526040902060030154819060ff1661062c5760405162461bcd60e51b8152602060048201526013602482015272155cd95c88191bd95cc81b9bdd08195e1a5cdd606a1b60448201526064016103c2565b336001600160a01b0383160361067a5760405162461bcd60e51b815260206004820152601360248201527221b0b73737ba103932b6b7bb329037bbb732b960691b60448201526064016103c2565b6001600160a01b0382165f818152600660208181526040808420600181015485526007835281852080546001600160a01b03191690559490935252516008916106c891600290910190610f21565b908152604080516020928190038301902080546001600160a01b03199081169091556001600160a01b0385165f908152600690935290822080549091168155600181018290559061071c6002830182610b1a565b50600301805460ff1916905560048054600191905f9061073d908490610f92565b90915550506040516001600160a01b038316907fe9dce8c992623ce791725b21e857e33248d1f190a25b5168313420eebdaae99d905f90a25050565b5f6001600160a01b03166008826040516107939190610eef565b908152604051908190036020019020546001600160a01b0316146107ee5760405162461bcd60e51b81526020600482015260126024820152714e616d65206e6f7420617661696c61626c6560701b60448201526064016103c2565b335f908152600660205260408120600201805461080a90610d72565b80601f016020809104026020016040519081016040528092919081815260200182805461083690610d72565b80156108815780601f1061085857610100808354040283529160200191610881565b820191905f5260205f20905b81548152906001019060200180831161086457829003601f168201915b5050335f90815260066020526040902093945050600290920191506108a890508382610e34565b506008816040516108b99190610eef565b90815260405190819003602001812080546001600160a01b031916905533907f45052326573ed191a212eeed8881bde4dca0c84b19407ecbb4ffc724ace1f10590610905908590610d60565b60405180910390a25050565b335f90815260066020526040902060020180546060919061093190610d72565b80601f016020809104026020016040519081016040528092919081815260200182805461095d90610d72565b80156109a85780601f1061097f576101008083540402835291602001916109a8565b820191905f5260205f20905b81548152906001019060200180831161098b57829003601f168201915b5050505050905090565b60605f6109be83610a42565b60010190505f8167ffffffffffffffff8111156109dd576109dd610c99565b6040519080825280601f01601f191660200182016040528015610a07576020820181803683370190505b5090508181016020015b5f19016f181899199a1a9b1b9c1cb0b131b232b360811b600a86061a8153600a8504945084610a1157509392505050565b5f8072184f03e93ff9f4daa797ed6e38ed64bf6a1f0160401b8310610a805772184f03e93ff9f4daa797ed6e38ed64bf6a1f0160401b830492506040015b6d04ee2d6d415b85acef81000000008310610aac576d04ee2d6d415b85acef8100000000830492506020015b662386f26fc100008310610aca57662386f26fc10000830492506010015b6305f5e1008310610ae2576305f5e100830492506008015b6127108310610af657612710830492506004015b60648310610b08576064830492506002015b600a8310610b14576001015b92915050565b508054610b2690610d72565b5f825580601f10610b35575050565b601f0160209004905f5260205f2090810190610b519190610b54565b50565b5b80821115610b68575f8155600101610b55565b5090565b5f81518084528060208401602086015e5f602082860101526020601f19601f83011685010191505092915050565b60018060a01b0385168152836020820152608060408201525f610bc06080830185610b6c565b9050821515606083015295945050505050565b5f602082016020835280845180835260408501915060408160051b8601019250602086015f5b82811015610c6057603f19878603018452815160018060a01b03815116865260208101516020870152604081015160806040880152610c3b6080880182610b6c565b6060928301511515979092019690965294506020938401939190910190600101610bf9565b50929695505050505050565b5f60208284031215610c7c575f80fd5b81356001600160a01b0381168114610c92575f80fd5b9392505050565b634e487b7160e01b5f52604160045260245ffd5b5f60208284031215610cbd575f80fd5b813567ffffffffffffffff811115610cd3575f80fd5b8201601f81018413610ce3575f80fd5b803567ffffffffffffffff811115610cfd57610cfd610c99565b604051601f8201601f19908116603f0116810167ffffffffffffffff81118282101715610d2c57610d2c610c99565b604052818152828201602001861015610d43575f80fd5b816020840160208301375f91810160200191909152949350505050565b602081525f610c926020830184610b6c565b600181811c90821680610d8657607f821691505b60208210810361035f57634e487b7160e01b5f52602260045260245ffd5b634e487b7160e01b5f52603260045260245ffd5b5f81518060208401855e5f93019283525090919050565b6402ab9b2b9160dd1b81525f610c926005830184610db8565b601f821115610e2f57805f5260205f20601f840160051c81016020851015610e0d5750805b601f840160051c820191505b81811015610e2c575f8155600101610e19565b50505b505050565b815167ffffffffffffffff811115610e4e57610e4e610c99565b610e6281610e5c8454610d72565b84610de8565b6020601f821160018114610e94575f8315610e7d5750848201515b5f19600385901b1c1916600184901b178455610e2c565b5f84815260208120601f198516915b82811015610ec35787850151825560209485019460019092019101610ea3565b5084821015610ee057868401515f19600387901b60f8161c191681555b50505050600190811b01905550565b5f610c928284610db8565b634e487b7160e01b5f52601160045260245ffd5b80820180821115610b1457610b14610efa565b5f808354610f2e81610d72565b600182168015610f455760018114610f5a57610f87565b60ff1983168652811515820286019350610f87565b865f5260205f205f5b83811015610f7f57815488820152600190910190602001610f63565b505081860193505b509195945050505050565b81810381811115610b1457610b14610efa56fea2646970667358221220bae184153c9520676373a5c27877057182e05802a3524c016d4b6d07e2321cf964736f6c634300081a0033",
					"opcodes": "PUSH1 0x80 PUSH1 0x40 MSTORE CALLVALUE DUP1 ISZERO PUSH2 0xF JUMPI PUSH0 DUP1 REVERT JUMPDEST POP PUSH1 0x40 DUP1 MLOAD PUSH1 0x80 DUP2 ADD DUP3 MSTORE CALLER DUP2 MSTORE PUSH0 PUSH1 0x20 DUP1 DUP4 ADD DUP3 DUP2 MSTORE DUP5 MLOAD DUP1 DUP7 ADD DUP7 MSTORE PUSH1 0x5 DUP2 MSTORE PUSH5 0x27BBB732B9 PUSH1 0xD9 SHL SWAP3 DUP2 ADD SWAP3 SWAP1 SWAP3 MSTORE SWAP4 DUP4 ADD DUP2 SWAP1 MSTORE PUSH1 0x1 PUSH1 0x60 DUP5 ADD DUP2 SWAP1 MSTORE DUP4 MLOAD DUP4 SLOAD PUSH1 0x1 PUSH1 0x1 PUSH1 0xA0 SHL SUB NOT AND PUSH1 0x1 PUSH1 0x1 PUSH1 0xA0 SHL SUB SWAP1 SWAP2 AND OR DUP4 SSTORE SWAP4 MLOAD SWAP1 SWAP4 SSTORE SWAP1 SWAP2 PUSH1 0x2 SWAP1 PUSH2 0x80 SWAP1 DUP3 PUSH2 0x216 JUMP JUMPDEST POP PUSH1 0x60 SWAP2 SWAP1 SWAP2 ADD MLOAD PUSH1 0x3 SWAP1 SWAP2 ADD DUP1 SLOAD PUSH1 0xFF NOT AND SWAP2 ISZERO ISZERO SWAP2 SWAP1 SWAP2 OR SWAP1 SSTORE CALLER PUSH0 SWAP1 DUP2 MSTORE PUSH1 0x6 PUSH1 0x20 MSTORE PUSH1 0x40 DUP2 KECCAK256 DUP2 SLOAD DUP2 SLOAD PUSH1 0x1 PUSH1 0x1 PUSH1 0xA0 SHL SUB SWAP1 SWAP2 AND PUSH1 0x1 PUSH1 0x1 PUSH1 0xA0 SHL SUB NOT SWAP1 SWAP2 AND OR DUP2 SSTORE PUSH1 0x1 DUP1 SLOAD SWAP1 DUP3 ADD SSTORE PUSH1 0x2 DUP1 DUP3 ADD SWAP1 PUSH2 0xE0 SWAP1 DUP3 PUSH2 0x2D3 JUMP JUMPDEST POP PUSH1 0x3 SWAP2 DUP3 ADD SLOAD SWAP2 ADD DUP1 SLOAD PUSH1 0xFF SWAP1 SWAP3 AND ISZERO ISZERO PUSH1 0xFF NOT SWAP1 SWAP3 AND SWAP2 SWAP1 SWAP2 OR SWAP1 SSTORE PUSH0 DUP1 SLOAD PUSH1 0x1 SLOAD DUP3 MSTORE PUSH1 0x7 PUSH1 0x20 MSTORE PUSH1 0x40 DUP1 DUP4 KECCAK256 DUP1 SLOAD PUSH1 0x1 PUSH1 0x1 PUSH1 0xA0 SHL SUB NOT AND PUSH1 0x1 PUSH1 0x1 PUSH1 0xA0 SHL SUB SWAP4 DUP5 AND OR SWAP1 SSTORE SWAP2 SLOAD SWAP2 MLOAD SWAP2 AND SWAP1 PUSH1 0x8 SWAP1 PUSH2 0x140 SWAP1 PUSH1 0x2 SWAP1 PUSH2 0x39F JUMP JUMPDEST SWAP1 DUP2 MSTORE PUSH1 0x40 MLOAD SWAP1 DUP2 SWAP1 SUB PUSH1 0x20 ADD SWAP1 KECCAK256 DUP1 SLOAD PUSH1 0x1 PUSH1 0x1 PUSH1 0xA0 SHL SUB SWAP3 SWAP1 SWAP3 AND PUSH1 0x1 PUSH1 0x1 PUSH1 0xA0 SHL SUB NOT SWAP1 SWAP3 AND SWAP2 SWAP1 SWAP2 OR SWAP1 SSTORE PUSH1 0x1 PUSH1 0x4 DUP2 SWAP1 SSTORE PUSH1 0x5 SSTORE PUSH2 0x410 JUMP JUMPDEST PUSH4 0x4E487B71 PUSH1 0xE0 SHL PUSH0 MSTORE PUSH1 0x41 PUSH1 0x4 MSTORE PUSH1 0x24 PUSH0 REVERT JUMPDEST PUSH1 0x1 DUP2 DUP2 SHR SWAP1 DUP3 AND DUP1 PUSH2 0x1A6 JUMPI PUSH1 0x7F DUP3 AND SWAP2 POP JUMPDEST PUSH1 0x20 DUP3 LT DUP2 SUB PUSH2 0x1C4 JUMPI PUSH4 0x4E487B71 PUSH1 0xE0 SHL PUSH0 MSTORE PUSH1 0x22 PUSH1 0x4 MSTORE PUSH1 0x24 PUSH0 REVERT JUMPDEST POP SWAP2 SWAP1 POP JUMP JUMPDEST PUSH1 0x1F DUP3 GT ISZERO PUSH2 0x211 JUMPI DUP1 PUSH0 MSTORE PUSH1 0x20 PUSH0 KECCAK256 PUSH1 0x1F DUP5 ADD PUSH1 0x5 SHR DUP2 ADD PUSH1 0x20 DUP6 LT ISZERO PUSH2 0x1EF JUMPI POP DUP1 JUMPDEST PUSH1 0x1F DUP5 ADD PUSH1 0x5 SHR DUP3 ADD SWAP2 POP JUMPDEST DUP2 DUP2 LT ISZERO PUSH2 0x20E JUMPI PUSH0 DUP2 SSTORE PUSH1 0x1 ADD PUSH2 0x1FB JUMP JUMPDEST POP POP JUMPDEST POP POP POP JUMP JUMPDEST DUP2 MLOAD PUSH1 0x1 PUSH1 0x1 PUSH1 0x40 SHL SUB DUP2 GT ISZERO PUSH2 0x22F JUMPI PUSH2 0x22F PUSH2 0x17E JUMP JUMPDEST PUSH2 0x243 DUP2 PUSH2 0x23D DUP5 SLOAD PUSH2 0x192 JUMP JUMPDEST DUP5 PUSH2 0x1CA JUMP JUMPDEST PUSH1 0x20 PUSH1 0x1F DUP3 GT PUSH1 0x1 DUP2 EQ PUSH2 0x278 JUMPI PUSH0 DUP4 ISZERO PUSH2 0x25E JUMPI POP DUP5 DUP3 ADD MLOAD JUMPDEST PUSH1 0x1 DUP5 SWAP1 SHL PUSH0 NOT PUSH1 0x3 DUP7 SWAP1 SHL SHR NOT DUP3 AND OR JUMPDEST DUP6 SSTORE POP PUSH2 0x20E JUMP JUMPDEST PUSH0 DUP5 DUP2 MSTORE PUSH1 0x20 DUP2 KECCAK256 PUSH1 0x1F NOT DUP6 AND SWAP2 JUMPDEST DUP3 DUP2 LT ISZERO PUSH2 0x2A7 JUMPI DUP8 DUP6 ADD MLOAD DUP3 SSTORE PUSH1 0x20 SWAP5 DUP6 ADD SWAP5 PUSH1 0x1 SWAP1 SWAP3 ADD SWAP2 ADD PUSH2 0x287 JUMP JUMPDEST POP DUP5 DUP3 LT ISZERO PUSH2 0x2C4 JUMPI DUP7 DUP5 ADD MLOAD PUSH0 NOT PUSH1 0x3 DUP8 SWAP1 SHL PUSH1 0xF8 AND SHR NOT AND DUP2 SSTORE JUMPDEST POP POP POP POP PUSH1 0x1 SWAP1 DUP2 SHL ADD SWAP1 SSTORE POP JUMP JUMPDEST DUP2 DUP2 SUB PUSH2 0x2DE JUMPI POP POP JUMP JUMPDEST PUSH2 0x2E8 DUP3 SLOAD PUSH2 0x192 JUMP JUMPDEST PUSH1 0x1 PUSH1 0x1 PUSH1 0x40 SHL SUB DUP2 GT ISZERO PUSH2 0x2FF JUMPI PUSH2 0x2FF PUSH2 0x17E JUMP JUMPDEST PUSH2 0x30D DUP2 PUSH2 0x23D DUP5 SLOAD PUSH2 0x192 JUMP JUMPDEST PUSH0 PUSH1 0x1F DUP3 GT PUSH1 0x1 DUP2 EQ PUSH2 0x33C JUMPI PUSH0 DUP4 ISZERO PUSH2 0x25E JUMPI POP DUP2 DUP6 ADD SLOAD PUSH1 0x1 DUP5 SWAP1 SHL PUSH0 NOT PUSH1 0x3 DUP7 SWAP1 SHL SHR NOT DUP3 AND OR PUSH2 0x270 JUMP JUMPDEST PUSH0 DUP6 DUP2 MSTORE PUSH1 0x20 DUP1 DUP3 KECCAK256 DUP7 DUP4 MSTORE SWAP1 DUP3 KECCAK256 PUSH1 0x1F NOT DUP7 AND SWAP3 JUMPDEST DUP4 DUP2 LT ISZERO PUSH2 0x372 JUMPI DUP3 DUP7 ADD SLOAD DUP3 SSTORE PUSH1 0x1 SWAP6 DUP7 ADD SWAP6 SWAP1 SWAP2 ADD SWAP1 PUSH1 0x20 ADD PUSH2 0x352 JUMP JUMPDEST POP DUP6 DUP4 LT ISZERO PUSH2 0x38F JUMPI DUP2 DUP6 ADD SLOAD PUSH0 NOT PUSH1 0x3 DUP9 SWAP1 SHL PUSH1 0xF8 AND SHR NOT AND DUP2 SSTORE JUMPDEST POP POP POP POP POP PUSH1 0x1 SWAP1 DUP2 SHL ADD SWAP1 SSTORE POP JUMP JUMPDEST PUSH0 DUP1 DUP4 SLOAD PUSH2 0x3AC DUP2 PUSH2 0x192 JUMP JUMPDEST PUSH1 0x1 DUP3 AND DUP1 ISZERO PUSH2 0x3C3 JUMPI PUSH1 0x1 DUP2 EQ PUSH2 0x3D8 JUMPI PUSH2 0x405 JUMP JUMPDEST PUSH1 0xFF NOT DUP4 AND DUP7 MSTORE DUP2 ISZERO ISZERO DUP3 MUL DUP7 ADD SWAP4 POP PUSH2 0x405 JUMP JUMPDEST DUP7 PUSH0 MSTORE PUSH1 0x20 PUSH0 KECCAK256 PUSH0 JUMPDEST DUP4 DUP2 LT ISZERO PUSH2 0x3FD JUMPI DUP2 SLOAD DUP9 DUP3 ADD MSTORE PUSH1 0x1 SWAP1 SWAP2 ADD SWAP1 PUSH1 0x20 ADD PUSH2 0x3E1 JUMP JUMPDEST POP POP DUP2 DUP7 ADD SWAP4 POP JUMPDEST POP SWAP2 SWAP6 SWAP5 POP POP POP POP POP JUMP JUMPDEST PUSH2 0xFDB DUP1 PUSH2 0x41D PUSH0 CODECOPY PUSH0 RETURN INVALID PUSH1 0x80 PUSH1 0x40 MSTORE CALLVALUE DUP1 ISZERO PUSH2 0xF JUMPI PUSH0 DUP1 REVERT JUMPDEST POP PUSH1 0x4 CALLDATASIZE LT PUSH2 0x7A JUMPI PUSH0 CALLDATALOAD PUSH1 0xE0 SHR DUP1 PUSH4 0x421B2D8B GT PUSH2 0x58 JUMPI DUP1 PUSH4 0x421B2D8B EQ PUSH2 0xC7 JUMPI DUP1 PUSH4 0x98575188 EQ PUSH2 0xDC JUMPI DUP1 PUSH4 0xA47B6CF6 EQ PUSH2 0xEF JUMPI DUP1 PUSH4 0xB3B36BB3 EQ PUSH2 0x102 JUMPI PUSH0 DUP1 REVERT JUMPDEST DUP1 PUSH4 0x7973CCF EQ PUSH2 0x7E JUMPI DUP1 PUSH4 0xFC715C3 EQ PUSH2 0x9A JUMPI DUP1 PUSH4 0xFE579C0 EQ PUSH2 0xB2 JUMPI JUMPDEST PUSH0 DUP1 REVERT JUMPDEST PUSH2 0x87 PUSH1 0x4 SLOAD DUP2 JUMP JUMPDEST PUSH1 0x40 MLOAD SWAP1 DUP2 MSTORE PUSH1 0x20 ADD JUMPDEST PUSH1 0x40 MLOAD DUP1 SWAP2 SUB SWAP1 RETURN JUMPDEST PUSH2 0xA2 PUSH2 0x117 JUMP JUMPDEST PUSH1 0x40 MLOAD PUSH2 0x91 SWAP5 SWAP4 SWAP3 SWAP2 SWAP1 PUSH2 0xB9A JUMP JUMPDEST PUSH2 0xBA PUSH2 0x1C2 JUMP JUMPDEST PUSH1 0x40 MLOAD PUSH2 0x91 SWAP2 SWAP1 PUSH2 0xBD3 JUMP JUMPDEST PUSH2 0xDA PUSH2 0xD5 CALLDATASIZE PUSH1 0x4 PUSH2 0xC6C JUMP JUMPDEST PUSH2 0x365 JUMP JUMPDEST STOP JUMPDEST PUSH2 0xDA PUSH2 0xEA CALLDATASIZE PUSH1 0x4 PUSH2 0xC6C JUMP JUMPDEST PUSH2 0x571 JUMP JUMPDEST PUSH2 0xDA PUSH2 0xFD CALLDATASIZE PUSH1 0x4 PUSH2 0xCAD JUMP JUMPDEST PUSH2 0x779 JUMP JUMPDEST PUSH2 0x10A PUSH2 0x911 JUMP JUMPDEST PUSH1 0x40 MLOAD PUSH2 0x91 SWAP2 SWAP1 PUSH2 0xD60 JUMP JUMPDEST PUSH0 DUP1 SLOAD PUSH1 0x1 SLOAD PUSH1 0x2 DUP1 SLOAD PUSH1 0x1 PUSH1 0x1 PUSH1 0xA0 SHL SUB SWAP1 SWAP4 AND SWAP4 SWAP2 SWAP3 PUSH2 0x138 SWAP1 PUSH2 0xD72 JUMP JUMPDEST DUP1 PUSH1 0x1F ADD PUSH1 0x20 DUP1 SWAP2 DIV MUL PUSH1 0x20 ADD PUSH1 0x40 MLOAD SWAP1 DUP2 ADD PUSH1 0x40 MSTORE DUP1 SWAP3 SWAP2 SWAP1 DUP2 DUP2 MSTORE PUSH1 0x20 ADD DUP3 DUP1 SLOAD PUSH2 0x164 SWAP1 PUSH2 0xD72 JUMP JUMPDEST DUP1 ISZERO PUSH2 0x1AF JUMPI DUP1 PUSH1 0x1F LT PUSH2 0x186 JUMPI PUSH2 0x100 DUP1 DUP4 SLOAD DIV MUL DUP4 MSTORE SWAP2 PUSH1 0x20 ADD SWAP2 PUSH2 0x1AF JUMP JUMPDEST DUP3 ADD SWAP2 SWAP1 PUSH0 MSTORE PUSH1 0x20 PUSH0 KECCAK256 SWAP1 JUMPDEST DUP2 SLOAD DUP2 MSTORE SWAP1 PUSH1 0x1 ADD SWAP1 PUSH1 0x20 ADD DUP1 DUP4 GT PUSH2 0x192 JUMPI DUP3 SWAP1 SUB PUSH1 0x1F AND DUP3 ADD SWAP2 JUMPDEST POP POP POP PUSH1 0x3 SWAP1 SWAP4 ADD SLOAD SWAP2 SWAP3 POP POP PUSH1 0xFF AND DUP5 JUMP JUMPDEST PUSH1 0x60 PUSH0 PUSH1 0x4 SLOAD PUSH8 0xFFFFFFFFFFFFFFFF DUP2 GT ISZERO PUSH2 0x1E0 JUMPI PUSH2 0x1E0 PUSH2 0xC99 JUMP JUMPDEST PUSH1 0x40 MLOAD SWAP1 DUP1 DUP3 MSTORE DUP1 PUSH1 0x20 MUL PUSH1 0x20 ADD DUP3 ADD PUSH1 0x40 MSTORE DUP1 ISZERO PUSH2 0x244 JUMPI DUP2 PUSH1 0x20 ADD JUMPDEST PUSH2 0x231 PUSH1 0x40 MLOAD DUP1 PUSH1 0x80 ADD PUSH1 0x40 MSTORE DUP1 PUSH0 PUSH1 0x1 PUSH1 0x1 PUSH1 0xA0 SHL SUB AND DUP2 MSTORE PUSH1 0x20 ADD PUSH0 DUP2 MSTORE PUSH1 0x20 ADD PUSH1 0x60 DUP2 MSTORE PUSH1 0x20 ADD PUSH0 ISZERO ISZERO DUP2 MSTORE POP SWAP1 JUMP JUMPDEST DUP2 MSTORE PUSH1 0x20 ADD SWAP1 PUSH1 0x1 SWAP1 SUB SWAP1 DUP2 PUSH2 0x1FE JUMPI SWAP1 POP JUMPDEST POP SWAP1 POP PUSH0 JUMPDEST PUSH1 0x4 SLOAD DUP2 LT ISZERO PUSH2 0x35F JUMPI PUSH0 DUP2 DUP2 MSTORE PUSH1 0x7 PUSH1 0x20 SWAP1 DUP2 MSTORE PUSH1 0x40 DUP1 DUP4 KECCAK256 SLOAD PUSH1 0x1 PUSH1 0x1 PUSH1 0xA0 SHL SUB SWAP1 DUP2 AND DUP5 MSTORE PUSH1 0x6 DUP4 MSTORE SWAP3 DUP2 SWAP1 KECCAK256 DUP2 MLOAD PUSH1 0x80 DUP2 ADD DUP4 MSTORE DUP2 SLOAD SWAP1 SWAP5 AND DUP5 MSTORE PUSH1 0x1 DUP2 ADD SLOAD SWAP3 DUP5 ADD SWAP3 SWAP1 SWAP3 MSTORE PUSH1 0x2 DUP3 ADD DUP1 SLOAD SWAP2 DUP5 ADD SWAP2 PUSH2 0x2A7 SWAP1 PUSH2 0xD72 JUMP JUMPDEST DUP1 PUSH1 0x1F ADD PUSH1 0x20 DUP1 SWAP2 DIV MUL PUSH1 0x20 ADD PUSH1 0x40 MLOAD SWAP1 DUP2 ADD PUSH1 0x40 MSTORE DUP1 SWAP3 SWAP2 SWAP1 DUP2 DUP2 MSTORE PUSH1 0x20 ADD DUP3 DUP1 SLOAD PUSH2 0x2D3 SWAP1 PUSH2 0xD72 JUMP JUMPDEST DUP1 ISZERO PUSH2 0x31E JUMPI DUP1 PUSH1 0x1F LT PUSH2 0x2F5 JUMPI PUSH2 0x100 DUP1 DUP4 SLOAD DIV MUL DUP4 MSTORE SWAP2 PUSH1 0x20 ADD SWAP2 PUSH2 0x31E JUMP JUMPDEST DUP3 ADD SWAP2 SWAP1 PUSH0 MSTORE PUSH1 0x20 PUSH0 KECCAK256 SWAP1 JUMPDEST DUP2 SLOAD DUP2 MSTORE SWAP1 PUSH1 0x1 ADD SWAP1 PUSH1 0x20 ADD DUP1 DUP4 GT PUSH2 0x301 JUMPI DUP3 SWAP1 SUB PUSH1 0x1F AND DUP3 ADD SWAP2 JUMPDEST POP POP POP SWAP2 DUP4 MSTORE POP POP PUSH1 0x3 SWAP2 SWAP1 SWAP2 ADD SLOAD PUSH1 0xFF AND ISZERO ISZERO PUSH1 0x20 SWAP1 SWAP2 ADD MSTORE DUP3 MLOAD DUP4 SWAP1 DUP4 SWAP1 DUP2 LT PUSH2 0x34C JUMPI PUSH2 0x34C PUSH2 0xDA4 JUMP JUMPDEST PUSH1 0x20 SWAP1 DUP2 MUL SWAP2 SWAP1 SWAP2 ADD ADD MSTORE PUSH1 0x1 ADD PUSH2 0x249 JUMP JUMPDEST POP SWAP2 SWAP1 POP JUMP JUMPDEST PUSH1 0x1 PUSH1 0x1 PUSH1 0xA0 SHL SUB DUP2 AND PUSH0 SWAP1 DUP2 MSTORE PUSH1 0x6 PUSH1 0x20 MSTORE PUSH1 0x40 SWAP1 KECCAK256 PUSH1 0x3 ADD SLOAD PUSH1 0xFF AND ISZERO PUSH2 0x3CB JUMPI PUSH1 0x40 MLOAD PUSH3 0x461BCD PUSH1 0xE5 SHL DUP2 MSTORE PUSH1 0x20 PUSH1 0x4 DUP3 ADD MSTORE PUSH1 0x13 PUSH1 0x24 DUP3 ADD MSTORE PUSH19 0x5573657220616C726561647920657869737473 PUSH1 0x68 SHL PUSH1 0x44 DUP3 ADD MSTORE PUSH1 0x64 ADD JUMPDEST PUSH1 0x40 MLOAD DUP1 SWAP2 SUB SWAP1 REVERT JUMPDEST PUSH0 PUSH1 0x40 MLOAD DUP1 PUSH1 0x80 ADD PUSH1 0x40 MSTORE DUP1 DUP4 PUSH1 0x1 PUSH1 0x1 PUSH1 0xA0 SHL SUB AND DUP2 MSTORE PUSH1 0x20 ADD PUSH1 0x5 SLOAD DUP2 MSTORE PUSH1 0x20 ADD PUSH2 0x3F9 PUSH1 0x4 SLOAD PUSH2 0x9B2 JUMP JUMPDEST PUSH1 0x40 MLOAD PUSH1 0x20 ADD PUSH2 0x409 SWAP2 SWAP1 PUSH2 0xDCF JUMP JUMPDEST PUSH1 0x40 DUP1 MLOAD DUP1 DUP4 SUB PUSH1 0x1F NOT ADD DUP2 MSTORE SWAP2 DUP2 MSTORE SWAP1 DUP3 MSTORE PUSH1 0x1 PUSH1 0x20 SWAP3 DUP4 ADD DUP2 SWAP1 MSTORE PUSH1 0x1 PUSH1 0x1 PUSH1 0xA0 SHL SUB DUP7 DUP2 AND PUSH0 SWAP1 DUP2 MSTORE PUSH1 0x6 DUP6 MSTORE DUP4 SWAP1 KECCAK256 DUP6 MLOAD DUP2 SLOAD PUSH1 0x1 PUSH1 0x1 PUSH1 0xA0 SHL SUB NOT AND SWAP3 AND SWAP2 SWAP1 SWAP2 OR DUP2 SSTORE SWAP3 DUP5 ADD MLOAD SWAP1 DUP4 ADD SSTORE DUP3 ADD MLOAD SWAP2 SWAP3 POP DUP3 SWAP2 PUSH1 0x2 DUP3 ADD SWAP1 PUSH2 0x471 SWAP1 DUP3 PUSH2 0xE34 JUMP JUMPDEST POP PUSH1 0x60 SWAP2 SWAP1 SWAP2 ADD MLOAD PUSH1 0x3 SWAP1 SWAP2 ADD DUP1 SLOAD PUSH1 0xFF NOT AND SWAP2 ISZERO ISZERO SWAP2 SWAP1 SWAP2 OR SWAP1 SSTORE DUP1 MLOAD PUSH1 0x20 DUP1 DUP4 ADD MLOAD PUSH0 SWAP1 DUP2 MSTORE PUSH1 0x7 SWAP1 SWAP2 MSTORE PUSH1 0x40 SWAP1 DUP2 SWAP1 KECCAK256 DUP1 SLOAD PUSH1 0x1 PUSH1 0x1 PUSH1 0xA0 SHL SUB NOT AND PUSH1 0x1 PUSH1 0x1 PUSH1 0xA0 SHL SUB SWAP1 SWAP4 AND SWAP3 SWAP1 SWAP3 OR SWAP1 SWAP2 SSTORE DUP2 MLOAD DUP2 DUP4 ADD MLOAD SWAP2 MLOAD SWAP1 SWAP2 PUSH1 0x8 SWAP2 PUSH2 0x4D9 SWAP2 SWAP1 PUSH2 0xEEF JUMP JUMPDEST SWAP1 DUP2 MSTORE PUSH1 0x20 ADD PUSH1 0x40 MLOAD DUP1 SWAP2 SUB SWAP1 KECCAK256 PUSH0 PUSH2 0x100 EXP DUP2 SLOAD DUP2 PUSH1 0x1 PUSH1 0x1 PUSH1 0xA0 SHL SUB MUL NOT AND SWAP1 DUP4 PUSH1 0x1 PUSH1 0x1 PUSH1 0xA0 SHL SUB AND MUL OR SWAP1 SSTORE POP PUSH1 0x1 PUSH1 0x4 PUSH0 DUP3 DUP3 SLOAD PUSH2 0x51C SWAP2 SWAP1 PUSH2 0xF0E JUMP JUMPDEST SWAP3 POP POP DUP2 SWAP1 SSTORE POP PUSH1 0x1 PUSH1 0x5 PUSH0 DUP3 DUP3 SLOAD PUSH2 0x535 SWAP2 SWAP1 PUSH2 0xF0E JUMP JUMPDEST SWAP1 SWAP2 SSTORE POP POP PUSH1 0x40 MLOAD PUSH1 0x1 PUSH1 0x1 PUSH1 0xA0 SHL SUB DUP4 AND SWAP1 PUSH32 0x19EF9A4877199F89440A26ACB26895EC02ED86F2DF1AEAA90DC18041B892F71F SWAP1 PUSH0 SWAP1 LOG2 POP POP JUMP JUMPDEST PUSH0 SLOAD PUSH1 0x1 PUSH1 0x1 PUSH1 0xA0 SHL SUB AND CALLER EQ PUSH2 0x5CA JUMPI PUSH1 0x40 MLOAD PUSH3 0x461BCD PUSH1 0xE5 SHL DUP2 MSTORE PUSH1 0x20 PUSH1 0x4 DUP3 ADD MSTORE PUSH1 0x1B PUSH1 0x24 DUP3 ADD MSTORE PUSH32 0x596F7520617265206E6F7420746865206472697665206F776E65720000000000 PUSH1 0x44 DUP3 ADD MSTORE PUSH1 0x64 ADD PUSH2 0x3C2 JUMP JUMPDEST PUSH1 0x1 PUSH1 0x1 PUSH1 0xA0 SHL SUB DUP2 AND PUSH0 SWAP1 DUP2 MSTORE PUSH1 0x6 PUSH1 0x20 MSTORE PUSH1 0x40 SWAP1 KECCAK256 PUSH1 0x3 ADD SLOAD DUP2 SWAP1 PUSH1 0xFF AND PUSH2 0x62C JUMPI PUSH1 0x40 MLOAD PUSH3 0x461BCD PUSH1 0xE5 SHL DUP2 MSTORE PUSH1 0x20 PUSH1 0x4 DUP3 ADD MSTORE PUSH1 0x13 PUSH1 0x24 DUP3 ADD MSTORE PUSH19 0x155CD95C88191BD95CC81B9BDD08195E1A5CDD PUSH1 0x6A SHL PUSH1 0x44 DUP3 ADD MSTORE PUSH1 0x64 ADD PUSH2 0x3C2 JUMP JUMPDEST CALLER PUSH1 0x1 PUSH1 0x1 PUSH1 0xA0 SHL SUB DUP4 AND SUB PUSH2 0x67A JUMPI PUSH1 0x40 MLOAD PUSH3 0x461BCD PUSH1 0xE5 SHL DUP2 MSTORE PUSH1 0x20 PUSH1 0x4 DUP3 ADD MSTORE PUSH1 0x13 PUSH1 0x24 DUP3 ADD MSTORE PUSH19 0x21B0B73737BA103932B6B7BB329037BBB732B9 PUSH1 0x69 SHL PUSH1 0x44 DUP3 ADD MSTORE PUSH1 0x64 ADD PUSH2 0x3C2 JUMP JUMPDEST PUSH1 0x1 PUSH1 0x1 PUSH1 0xA0 SHL SUB DUP3 AND PUSH0 DUP2 DUP2 MSTORE PUSH1 0x6 PUSH1 0x20 DUP2 DUP2 MSTORE PUSH1 0x40 DUP1 DUP5 KECCAK256 PUSH1 0x1 DUP2 ADD SLOAD DUP6 MSTORE PUSH1 0x7 DUP4 MSTORE DUP2 DUP6 KECCAK256 DUP1 SLOAD PUSH1 0x1 PUSH1 0x1 PUSH1 0xA0 SHL SUB NOT AND SWAP1 SSTORE SWAP5 SWAP1 SWAP4 MSTORE MSTORE MLOAD PUSH1 0x8 SWAP2 PUSH2 0x6C8 SWAP2 PUSH1 0x2 SWAP1 SWAP2 ADD SWAP1 PUSH2 0xF21 JUMP JUMPDEST SWAP1 DUP2 MSTORE PUSH1 0x40 DUP1 MLOAD PUSH1 0x20 SWAP3 DUP2 SWAP1 SUB DUP4 ADD SWAP1 KECCAK256 DUP1 SLOAD PUSH1 0x1 PUSH1 0x1 PUSH1 0xA0 SHL SUB NOT SWAP1 DUP2 AND SWAP1 SWAP2 SSTORE PUSH1 0x1 PUSH1 0x1 PUSH1 0xA0 SHL SUB DUP6 AND PUSH0 SWAP1 DUP2 MSTORE PUSH1 0x6 SWAP1 SWAP4 MSTORE SWAP1 DUP3 KECCAK256 DUP1 SLOAD SWAP1 SWAP2 AND DUP2 SSTORE PUSH1 0x1 DUP2 ADD DUP3 SWAP1 SSTORE SWAP1 PUSH2 0x71C PUSH1 0x2 DUP4 ADD DUP3 PUSH2 0xB1A JUMP JUMPDEST POP PUSH1 0x3 ADD DUP1 SLOAD PUSH1 0xFF NOT AND SWAP1 SSTORE PUSH1 0x4 DUP1 SLOAD PUSH1 0x1 SWAP2 SWAP1 PUSH0 SWAP1 PUSH2 0x73D SWAP1 DUP5 SWAP1 PUSH2 0xF92 JUMP JUMPDEST SWAP1 SWAP2 SSTORE POP POP PUSH1 0x40 MLOAD PUSH1 0x1 PUSH1 0x1 PUSH1 0xA0 SHL SUB DUP4 AND SWAP1 PUSH32 0xE9DCE8C992623CE791725B21E857E33248D1F190A25B5168313420EEBDAAE99D SWAP1 PUSH0 SWAP1 LOG2 POP POP JUMP JUMPDEST PUSH0 PUSH1 0x1 PUSH1 0x1 PUSH1 0xA0 SHL SUB AND PUSH1 0x8 DUP3 PUSH1 0x40 MLOAD PUSH2 0x793 SWAP2 SWAP1 PUSH2 0xEEF JUMP JUMPDEST SWAP1 DUP2 MSTORE PUSH1 0x40 MLOAD SWAP1 DUP2 SWAP1 SUB PUSH1 0x20 ADD SWAP1 KECCAK256 SLOAD PUSH1 0x1 PUSH1 0x1 PUSH1 0xA0 SHL SUB AND EQ PUSH2 0x7EE JUMPI PUSH1 0x40 MLOAD PUSH3 0x461BCD PUSH1 0xE5 SHL DUP2 MSTORE PUSH1 0x20 PUSH1 0x4 DUP3 ADD MSTORE PUSH1 0x12 PUSH1 0x24 DUP3 ADD MSTORE PUSH18 0x4E616D65206E6F7420617661696C61626C65 PUSH1 0x70 SHL PUSH1 0x44 DUP3 ADD MSTORE PUSH1 0x64 ADD PUSH2 0x3C2 JUMP JUMPDEST CALLER PUSH0 SWAP1 DUP2 MSTORE PUSH1 0x6 PUSH1 0x20 MSTORE PUSH1 0x40 DUP2 KECCAK256 PUSH1 0x2 ADD DUP1 SLOAD PUSH2 0x80A SWAP1 PUSH2 0xD72 JUMP JUMPDEST DUP1 PUSH1 0x1F ADD PUSH1 0x20 DUP1 SWAP2 DIV MUL PUSH1 0x20 ADD PUSH1 0x40 MLOAD SWAP1 DUP2 ADD PUSH1 0x40 MSTORE DUP1 SWAP3 SWAP2 SWAP1 DUP2 DUP2 MSTORE PUSH1 0x20 ADD DUP3 DUP1 SLOAD PUSH2 0x836 SWAP1 PUSH2 0xD72 JUMP JUMPDEST DUP1 ISZERO PUSH2 0x881 JUMPI DUP1 PUSH1 0x1F LT PUSH2 0x858 JUMPI PUSH2 0x100 DUP1 DUP4 SLOAD DIV MUL DUP4 MSTORE SWAP2 PUSH1 0x20 ADD SWAP2 PUSH2 0x881 JUMP JUMPDEST DUP3 ADD SWAP2 SWAP1 PUSH0 MSTORE PUSH1 0x20 PUSH0 KECCAK256 SWAP1 JUMPDEST DUP2 SLOAD DUP2 MSTORE SWAP1 PUSH1 0x1 ADD SWAP1 PUSH1 0x20 ADD DUP1 DUP4 GT PUSH2 0x864 JUMPI DUP3 SWAP1 SUB PUSH1 0x1F AND DUP3 ADD SWAP2 JUMPDEST POP POP CALLER PUSH0 SWAP1 DUP2 MSTORE PUSH1 0x6 PUSH1 0x20 MSTORE PUSH1 0x40 SWAP1 KECCAK256 SWAP4 SWAP5 POP POP PUSH1 0x2 SWAP1 SWAP3 ADD SWAP2 POP PUSH2 0x8A8 SWAP1 POP DUP4 DUP3 PUSH2 0xE34 JUMP JUMPDEST POP PUSH1 0x8 DUP2 PUSH1 0x40 MLOAD PUSH2 0x8B9 SWAP2 SWAP1 PUSH2 0xEEF JUMP JUMPDEST SWAP1 DUP2 MSTORE PUSH1 0x40 MLOAD SWAP1 DUP2 SWAP1 SUB PUSH1 0x20 ADD DUP2 KECCAK256 DUP1 SLOAD PUSH1 0x1 PUSH1 0x1 PUSH1 0xA0 SHL SUB NOT AND SWAP1 SSTORE CALLER SWAP1 PUSH32 0x45052326573ED191A212EEED8881BDE4DCA0C84B19407ECBB4FFC724ACE1F105 SWAP1 PUSH2 0x905 SWAP1 DUP6 SWAP1 PUSH2 0xD60 JUMP JUMPDEST PUSH1 0x40 MLOAD DUP1 SWAP2 SUB SWAP1 LOG2 POP POP JUMP JUMPDEST CALLER PUSH0 SWAP1 DUP2 MSTORE PUSH1 0x6 PUSH1 0x20 MSTORE PUSH1 0x40 SWAP1 KECCAK256 PUSH1 0x2 ADD DUP1 SLOAD PUSH1 0x60 SWAP2 SWAP1 PUSH2 0x931 SWAP1 PUSH2 0xD72 JUMP JUMPDEST DUP1 PUSH1 0x1F ADD PUSH1 0x20 DUP1 SWAP2 DIV MUL PUSH1 0x20 ADD PUSH1 0x40 MLOAD SWAP1 DUP2 ADD PUSH1 0x40 MSTORE DUP1 SWAP3 SWAP2 SWAP1 DUP2 DUP2 MSTORE PUSH1 0x20 ADD DUP3 DUP1 SLOAD PUSH2 0x95D SWAP1 PUSH2 0xD72 JUMP JUMPDEST DUP1 ISZERO PUSH2 0x9A8 JUMPI DUP1 PUSH1 0x1F LT PUSH2 0x97F JUMPI PUSH2 0x100 DUP1 DUP4 SLOAD DIV MUL DUP4 MSTORE SWAP2 PUSH1 0x20 ADD SWAP2 PUSH2 0x9A8 JUMP JUMPDEST DUP3 ADD SWAP2 SWAP1 PUSH0 MSTORE PUSH1 0x20 PUSH0 KECCAK256 SWAP1 JUMPDEST DUP2 SLOAD DUP2 MSTORE SWAP1 PUSH1 0x1 ADD SWAP1 PUSH1 0x20 ADD DUP1 DUP4 GT PUSH2 0x98B JUMPI DUP3 SWAP1 SUB PUSH1 0x1F AND DUP3 ADD SWAP2 JUMPDEST POP POP POP POP POP SWAP1 POP SWAP1 JUMP JUMPDEST PUSH1 0x60 PUSH0 PUSH2 0x9BE DUP4 PUSH2 0xA42 JUMP JUMPDEST PUSH1 0x1 ADD SWAP1 POP PUSH0 DUP2 PUSH8 0xFFFFFFFFFFFFFFFF DUP2 GT ISZERO PUSH2 0x9DD JUMPI PUSH2 0x9DD PUSH2 0xC99 JUMP JUMPDEST PUSH1 0x40 MLOAD SWAP1 DUP1 DUP3 MSTORE DUP1 PUSH1 0x1F ADD PUSH1 0x1F NOT AND PUSH1 0x20 ADD DUP3 ADD PUSH1 0x40 MSTORE DUP1 ISZERO PUSH2 0xA07 JUMPI PUSH1 0x20 DUP3 ADD DUP2 DUP1 CALLDATASIZE DUP4 CALLDATACOPY ADD SWAP1 POP JUMPDEST POP SWAP1 POP DUP2 DUP2 ADD PUSH1 0x20 ADD JUMPDEST PUSH0 NOT ADD PUSH16 0x181899199A1A9B1B9C1CB0B131B232B3 PUSH1 0x81 SHL PUSH1 0xA DUP7 MOD BYTE DUP2 MSTORE8 PUSH1 0xA DUP6 DIV SWAP5 POP DUP5 PUSH2 0xA11 JUMPI POP SWAP4 SWAP3 POP POP POP JUMP JUMPDEST PUSH0 DUP1 PUSH19 0x184F03E93FF9F4DAA797ED6E38ED64BF6A1F01 PUSH1 0x40 SHL DUP4 LT PUSH2 0xA80 JUMPI PUSH19 0x184F03E93FF9F4DAA797ED6E38ED64BF6A1F01 PUSH1 0x40 SHL DUP4 DIV SWAP3 POP PUSH1 0x40 ADD JUMPDEST PUSH14 0x4EE2D6D415B85ACEF8100000000 DUP4 LT PUSH2 0xAAC JUMPI PUSH14 0x4EE2D6D415B85ACEF8100000000 DUP4 DIV SWAP3 POP PUSH1 0x20 ADD JUMPDEST PUSH7 0x2386F26FC10000 DUP4 LT PUSH2 0xACA JUMPI PUSH7 0x2386F26FC10000 DUP4 DIV SWAP3 POP PUSH1 0x10 ADD JUMPDEST PUSH4 0x5F5E100 DUP4 LT PUSH2 0xAE2 JUMPI PUSH4 0x5F5E100 DUP4 DIV SWAP3 POP PUSH1 0x8 ADD JUMPDEST PUSH2 0x2710 DUP4 LT PUSH2 0xAF6 JUMPI PUSH2 0x2710 DUP4 DIV SWAP3 POP PUSH1 0x4 ADD JUMPDEST PUSH1 0x64 DUP4 LT PUSH2 0xB08 JUMPI PUSH1 0x64 DUP4 DIV SWAP3 POP PUSH1 0x2 ADD JUMPDEST PUSH1 0xA DUP4 LT PUSH2 0xB14 JUMPI PUSH1 0x1 ADD JUMPDEST SWAP3 SWAP2 POP POP JUMP JUMPDEST POP DUP1 SLOAD PUSH2 0xB26 SWAP1 PUSH2 0xD72 JUMP JUMPDEST PUSH0 DUP3 SSTORE DUP1 PUSH1 0x1F LT PUSH2 0xB35 JUMPI POP POP JUMP JUMPDEST PUSH1 0x1F ADD PUSH1 0x20 SWAP1 DIV SWAP1 PUSH0 MSTORE PUSH1 0x20 PUSH0 KECCAK256 SWAP1 DUP2 ADD SWAP1 PUSH2 0xB51 SWAP2 SWAP1 PUSH2 0xB54 JUMP JUMPDEST POP JUMP JUMPDEST JUMPDEST DUP1 DUP3 GT ISZERO PUSH2 0xB68 JUMPI PUSH0 DUP2 SSTORE PUSH1 0x1 ADD PUSH2 0xB55 JUMP JUMPDEST POP SWAP1 JUMP JUMPDEST PUSH0 DUP2 MLOAD DUP1 DUP5 MSTORE DUP1 PUSH1 0x20 DUP5 ADD PUSH1 0x20 DUP7 ADD MCOPY PUSH0 PUSH1 0x20 DUP3 DUP7 ADD ADD MSTORE PUSH1 0x20 PUSH1 0x1F NOT PUSH1 0x1F DUP4 ADD AND DUP6 ADD ADD SWAP2 POP POP SWAP3 SWAP2 POP POP JUMP JUMPDEST PUSH1 0x1 DUP1 PUSH1 0xA0 SHL SUB DUP6 AND DUP2 MSTORE DUP4 PUSH1 0x20 DUP3 ADD MSTORE PUSH1 0x80 PUSH1 0x40 DUP3 ADD MSTORE PUSH0 PUSH2 0xBC0 PUSH1 0x80 DUP4 ADD DUP6 PUSH2 0xB6C JUMP JUMPDEST SWAP1 POP DUP3 ISZERO ISZERO PUSH1 0x60 DUP4 ADD MSTORE SWAP6 SWAP5 POP POP POP POP POP JUMP JUMPDEST PUSH0 PUSH1 0x20 DUP3 ADD PUSH1 0x20 DUP4 MSTORE DUP1 DUP5 MLOAD DUP1 DUP4 MSTORE PUSH1 0x40 DUP6 ADD SWAP2 POP PUSH1 0x40 DUP2 PUSH1 0x5 SHL DUP7 ADD ADD SWAP3 POP PUSH1 0x20 DUP7 ADD PUSH0 JUMPDEST DUP3 DUP2 LT ISZERO PUSH2 0xC60 JUMPI PUSH1 0x3F NOT DUP8 DUP7 SUB ADD DUP5 MSTORE DUP2 MLOAD PUSH1 0x1 DUP1 PUSH1 0xA0 SHL SUB DUP2 MLOAD AND DUP7 MSTORE PUSH1 0x20 DUP2 ADD MLOAD PUSH1 0x20 DUP8 ADD MSTORE PUSH1 0x40 DUP2 ADD MLOAD PUSH1 0x80 PUSH1 0x40 DUP9 ADD MSTORE PUSH2 0xC3B PUSH1 0x80 DUP9 ADD DUP3 PUSH2 0xB6C JUMP JUMPDEST PUSH1 0x60 SWAP3 DUP4 ADD MLOAD ISZERO ISZERO SWAP8 SWAP1 SWAP3 ADD SWAP7 SWAP1 SWAP7 MSTORE SWAP5 POP PUSH1 0x20 SWAP4 DUP5 ADD SWAP4 SWAP2 SWAP1 SWAP2 ADD SWAP1 PUSH1 0x1 ADD PUSH2 0xBF9 JUMP JUMPDEST POP SWAP3 SWAP7 SWAP6 POP POP POP POP POP POP JUMP JUMPDEST PUSH0 PUSH1 0x20 DUP3 DUP5 SUB SLT ISZERO PUSH2 0xC7C JUMPI PUSH0 DUP1 REVERT JUMPDEST DUP2 CALLDATALOAD PUSH1 0x1 PUSH1 0x1 PUSH1 0xA0 SHL SUB DUP2 AND DUP2 EQ PUSH2 0xC92 JUMPI PUSH0 DUP1 REVERT JUMPDEST SWAP4 SWAP3 POP POP POP JUMP JUMPDEST PUSH4 0x4E487B71 PUSH1 0xE0 SHL PUSH0 MSTORE PUSH1 0x41 PUSH1 0x4 MSTORE PUSH1 0x24 PUSH0 REVERT JUMPDEST PUSH0 PUSH1 0x20 DUP3 DUP5 SUB SLT ISZERO PUSH2 0xCBD JUMPI PUSH0 DUP1 REVERT JUMPDEST DUP2 CALLDATALOAD PUSH8 0xFFFFFFFFFFFFFFFF DUP2 GT ISZERO PUSH2 0xCD3 JUMPI PUSH0 DUP1 REVERT JUMPDEST DUP3 ADD PUSH1 0x1F DUP2 ADD DUP5 SGT PUSH2 0xCE3 JUMPI PUSH0 DUP1 REVERT JUMPDEST DUP1 CALLDATALOAD PUSH8 0xFFFFFFFFFFFFFFFF DUP2 GT ISZERO PUSH2 0xCFD JUMPI PUSH2 0xCFD PUSH2 0xC99 JUMP JUMPDEST PUSH1 0x40 MLOAD PUSH1 0x1F DUP3 ADD PUSH1 0x1F NOT SWAP1 DUP2 AND PUSH1 0x3F ADD AND DUP2 ADD PUSH8 0xFFFFFFFFFFFFFFFF DUP2 GT DUP3 DUP3 LT OR ISZERO PUSH2 0xD2C JUMPI PUSH2 0xD2C PUSH2 0xC99 JUMP JUMPDEST PUSH1 0x40 MSTORE DUP2 DUP2 MSTORE DUP3 DUP3 ADD PUSH1 0x20 ADD DUP7 LT ISZERO PUSH2 0xD43 JUMPI PUSH0 DUP1 REVERT JUMPDEST DUP2 PUSH1 0x20 DUP5 ADD PUSH1 0x20 DUP4 ADD CALLDATACOPY PUSH0 SWAP2 DUP2 ADD PUSH1 0x20 ADD SWAP2 SWAP1 SWAP2 MSTORE SWAP5 SWAP4 POP POP POP POP JUMP JUMPDEST PUSH1 0x20 DUP2 MSTORE PUSH0 PUSH2 0xC92 PUSH1 0x20 DUP4 ADD DUP5 PUSH2 0xB6C JUMP JUMPDEST PUSH1 0x1 DUP2 DUP2 SHR SWAP1 DUP3 AND DUP1 PUSH2 0xD86 JUMPI PUSH1 0x7F DUP3 AND SWAP2 POP JUMPDEST PUSH1 0x20 DUP3 LT DUP2 SUB PUSH2 0x35F JUMPI PUSH4 0x4E487B71 PUSH1 0xE0 SHL PUSH0 MSTORE PUSH1 0x22 PUSH1 0x4 MSTORE PUSH1 0x24 PUSH0 REVERT JUMPDEST PUSH4 0x4E487B71 PUSH1 0xE0 SHL PUSH0 MSTORE PUSH1 0x32 PUSH1 0x4 MSTORE PUSH1 0x24 PUSH0 REVERT JUMPDEST PUSH0 DUP2 MLOAD DUP1 PUSH1 0x20 DUP5 ADD DUP6 MCOPY PUSH0 SWAP4 ADD SWAP3 DUP4 MSTORE POP SWAP1 SWAP2 SWAP1 POP JUMP JUMPDEST PUSH5 0x2AB9B2B91 PUSH1 0xDD SHL DUP2 MSTORE PUSH0 PUSH2 0xC92 PUSH1 0x5 DUP4 ADD DUP5 PUSH2 0xDB8 JUMP JUMPDEST PUSH1 0x1F DUP3 GT ISZERO PUSH2 0xE2F JUMPI DUP1 PUSH0 MSTORE PUSH1 0x20 PUSH0 KECCAK256 PUSH1 0x1F DUP5 ADD PUSH1 0x5 SHR DUP2 ADD PUSH1 0x20 DUP6 LT ISZERO PUSH2 0xE0D JUMPI POP DUP1 JUMPDEST PUSH1 0x1F DUP5 ADD PUSH1 0x5 SHR DUP3 ADD SWAP2 POP JUMPDEST DUP2 DUP2 LT ISZERO PUSH2 0xE2C JUMPI PUSH0 DUP2 SSTORE PUSH1 0x1 ADD PUSH2 0xE19 JUMP JUMPDEST POP POP JUMPDEST POP POP POP JUMP JUMPDEST DUP2 MLOAD PUSH8 0xFFFFFFFFFFFFFFFF DUP2 GT ISZERO PUSH2 0xE4E JUMPI PUSH2 0xE4E PUSH2 0xC99 JUMP JUMPDEST PUSH2 0xE62 DUP2 PUSH2 0xE5C DUP5 SLOAD PUSH2 0xD72 JUMP JUMPDEST DUP5 PUSH2 0xDE8 JUMP JUMPDEST PUSH1 0x20 PUSH1 0x1F DUP3 GT PUSH1 0x1 DUP2 EQ PUSH2 0xE94 JUMPI PUSH0 DUP4 ISZERO PUSH2 0xE7D JUMPI POP DUP5 DUP3 ADD MLOAD JUMPDEST PUSH0 NOT PUSH1 0x3 DUP6 SWAP1 SHL SHR NOT AND PUSH1 0x1 DUP5 SWAP1 SHL OR DUP5 SSTORE PUSH2 0xE2C JUMP JUMPDEST PUSH0 DUP5 DUP2 MSTORE PUSH1 0x20 DUP2 KECCAK256 PUSH1 0x1F NOT DUP6 AND SWAP2 JUMPDEST DUP3 DUP2 LT ISZERO PUSH2 0xEC3 JUMPI DUP8 DUP6 ADD MLOAD DUP3 SSTORE PUSH1 0x20 SWAP5 DUP6 ADD SWAP5 PUSH1 0x1 SWAP1 SWAP3 ADD SWAP2 ADD PUSH2 0xEA3 JUMP JUMPDEST POP DUP5 DUP3 LT ISZERO PUSH2 0xEE0 JUMPI DUP7 DUP5 ADD MLOAD PUSH0 NOT PUSH1 0x3 DUP8 SWAP1 SHL PUSH1 0xF8 AND SHR NOT AND DUP2 SSTORE JUMPDEST POP POP POP POP PUSH1 0x1 SWAP1 DUP2 SHL ADD SWAP1 SSTORE POP JUMP JUMPDEST PUSH0 PUSH2 0xC92 DUP3 DUP5 PUSH2 0xDB8 JUMP JUMPDEST PUSH4 0x4E487B71 PUSH1 0xE0 SHL PUSH0 MSTORE PUSH1 0x11 PUSH1 0x4 MSTORE PUSH1 0x24 PUSH0 REVERT JUMPDEST DUP1 DUP3 ADD DUP1 DUP3 GT ISZERO PUSH2 0xB14 JUMPI PUSH2 0xB14 PUSH2 0xEFA JUMP JUMPDEST PUSH0 DUP1 DUP4 SLOAD PUSH2 0xF2E DUP2 PUSH2 0xD72 JUMP JUMPDEST PUSH1 0x1 DUP3 AND DUP1 ISZERO PUSH2 0xF45 JUMPI PUSH1 0x1 DUP2 EQ PUSH2 0xF5A JUMPI PUSH2 0xF87 JUMP JUMPDEST PUSH1 0xFF NOT DUP4 AND DUP7 MSTORE DUP2 ISZERO ISZERO DUP3 MUL DUP7 ADD SWAP4 POP PUSH2 0xF87 JUMP JUMPDEST DUP7 PUSH0 MSTORE PUSH1 0x20 PUSH0 KECCAK256 PUSH0 JUMPDEST DUP4 DUP2 LT ISZERO PUSH2 0xF7F JUMPI DUP2 SLOAD DUP9 DUP3 ADD MSTORE PUSH1 0x1 SWAP1 SWAP2 ADD SWAP1 PUSH1 0x20 ADD PUSH2 0xF63 JUMP JUMPDEST POP POP DUP2 DUP7 ADD SWAP4 POP JUMPDEST POP SWAP2 SWAP6 SWAP5 POP POP POP POP POP JUMP JUMPDEST DUP2 DUP2 SUB DUP2 DUP2 GT ISZERO PUSH2 0xB14 JUMPI PUSH2 0xB14 PUSH2 0xEFA JUMP INVALID LOG2 PUSH5 0x6970667358 0x22 SLT KECCAK256 0xBA 0xE1 DUP5 ISZERO EXTCODECOPY SWAP6 KECCAK256 PUSH8 0x6373A5C278770571 DUP3 0xE0 PC MUL LOG3 MSTORE 0x4C ADD PUSH14 0x4B6D07E2321CF964736F6C634300 ADDMOD BYTE STOP CALLER "
				},
				"gasEstimates": {
					"creation": {
						"codeDepositCost": "811800",
						"executionCost": "infinite",
						"totalCost": "infinite"
					},
					"external": {
						"addUser(address)": "infinite",
						"driveOwner()": "infinite",
						"removeUser(address)": "infinite",
						"renameSelf(string)": "infinite",
						"userCount()": "2284",
						"viewUserList()": "infinite",
						"whoami()": "infinite"
					}
				},
				"methodIdentifiers": {
					"addUser(address)": "421b2d8b",
					"driveOwner()": "0fc715c3",
					"removeUser(address)": "98575188",
					"renameSelf(string)": "a47b6cf6",
					"userCount()": "07973ccf",
					"viewUserList()": "0fe579c0",
					"whoami()": "b3b36bb3"
				}
			},
			"storageLayout": {
				"storage": [
					{
						"astId": 3901,
						"contract": "contracts/UserSystem.sol:UserSystem",
						"label": "driveOwner",
						"offset": 0,
						"slot": "0",
						"type": "t_struct(User)3898_storage"
					},
					{
						"astId": 3903,
						"contract": "contracts/UserSystem.sol:UserSystem",
						"label": "userCount",
						"offset": 0,
						"slot": "4",
						"type": "t_uint256"
					},
					{
						"astId": 3905,
						"contract": "contracts/UserSystem.sol:UserSystem",
						"label": "idCount",
						"offset": 0,
						"slot": "5",
						"type": "t_uint256"
					},
					{
						"astId": 3910,
						"contract": "contracts/UserSystem.sol:UserSystem",
						"label": "users",
						"offset": 0,
						"slot": "6",
						"type": "t_mapping(t_address,t_struct(User)3898_storage)"
					},
					{
						"astId": 3914,
						"contract": "contracts/UserSystem.sol:UserSystem",
						"label": "userById",
						"offset": 0,
						"slot": "7",
						"type": "t_mapping(t_uint256,t_address)"
					},
					{
						"astId": 3918,
						"contract": "contracts/UserSystem.sol:UserSystem",
						"label": "userByName",
						"offset": 0,
						"slot": "8",
						"type": "t_mapping(t_string_memory_ptr,t_address)"
					}
				],
				"types": {
					"t_address": {
						"encoding": "inplace",
						"label": "address",
						"numberOfBytes": "20"
					},
					"t_bool": {
						"encoding": "inplace",
						"label": "bool",
						"numberOfBytes": "1"
					},
					"t_mapping(t_address,t_struct(User)3898_storage)": {
						"encoding": "mapping",
						"key": "t_address",
						"label": "mapping(address => struct UserSystem.User)",
						"numberOfBytes": "32",
						"value": "t_struct(User)3898_storage"
					},
					"t_mapping(t_string_memory_ptr,t_address)": {
						"encoding": "mapping",
						"key": "t_string_memory_ptr",
						"label": "mapping(string => address)",
						"numberOfBytes": "32",
						"value": "t_address"
					},
					"t_mapping(t_uint256,t_address)": {
						"encoding": "mapping",
						"key": "t_uint256",
						"label": "mapping(uint256 => address)",
						"numberOfBytes": "32",
						"value": "t_address"
					},
					"t_string_memory_ptr": {
						"encoding": "bytes",
						"label": "string",
						"numberOfBytes": "32"
					},
					"t_string_storage": {
						"encoding": "bytes",
						"label": "string",
						"numberOfBytes": "32"
					},
					"t_struct(User)3898_storage": {
						"encoding": "inplace",
						"label": "struct UserSystem.User",
						"members": [
							{
								"astId": 3891,
								"contract": "contracts/UserSystem.sol:UserSystem",
								"label": "addr",
								"offset": 0,
								"slot": "0",
								"type": "t_address"
							},
							{
								"astId": 3893,
								"contract": "contracts/UserSystem.sol:UserSystem",
								"label": "id",
								"offset": 0,
								"slot": "1",
								"type": "t_uint256"
							},
							{
								"astId": 3895,
								"contract": "contracts/UserSystem.sol:UserSystem",
								"label": "username",
								"offset": 0,
								"slot": "2",
								"type": "t_string_storage"
							},
							{
								"astId": 3897,
								"contract": "contracts/UserSystem.sol:UserSystem",
								"label": "exists",
								"offset": 0,
								"slot": "3",
								"type": "t_bool"
							}
						],
						"numberOfBytes": "128"
					},
					"t_uint256": {
						"encoding": "inplace",
						"label": "uint256",
						"numberOfBytes": "32"
					}
				}
			},
			"userdoc": {
				"kind": "user",
				"methods": {},
				"version": 1
			}
		}
	}
}