{
	"contracts/FileStorage.sol": {
		"FileStorage": {
			"abi": [
				{
					"anonymous": false,
					"inputs": [
						{
							"indexed": false,
							"internalType": "string",
							"name": "filename",
							"type": "string"
						},
						{
							"indexed": false,
							"internalType": "string",
							"name": "newContent",
							"type": "string"
						}
					],
					"name": "AppendedToFile",
					"type": "event"
				},
				{
					"anonymous": false,
					"inputs": [
						{
							"indexed": false,
							"internalType": "string",
							"name": "filename",
							"type": "string"
						},
						{
							"indexed": false,
							"internalType": "string",
							"name": "content",
							"type": "string"
						}
					],
					"name": "FileCreated",
					"type": "event"
				},
				{
					"anonymous": false,
					"inputs": [
						{
							"indexed": false,
							"internalType": "string",
							"name": "filename",
							"type": "string"
						}
					],
					"name": "FileDeleted",
					"type": "event"
				},
				{
					"anonymous": false,
					"inputs": [
						{
							"indexed": false,
							"internalType": "string",
							"name": "filename",
							"type": "string"
						},
						{
							"indexed": false,
							"internalType": "string",
							"name": "newContent",
							"type": "string"
						}
					],
					"name": "FileWritten",
					"type": "event"
				},
				{
					"anonymous": false,
					"inputs": [
						{
							"indexed": false,
							"internalType": "string",
							"name": "filename",
							"type": "string"
						},
						{
							"indexed": false,
							"internalType": "string",
							"name": "newName",
							"type": "string"
						}
					],
					"name": "FilenameChanged",
					"type": "event"
				},
				{
					"inputs": [
						{
							"internalType": "string",
							"name": "_filename",
							"type": "string"
						},
						{
							"internalType": "string",
							"name": "_newContent",
							"type": "string"
						}
					],
					"name": "appendToFile",
					"outputs": [],
					"stateMutability": "nonpayable",
					"type": "function"
				},
				{
					"inputs": [
						{
							"internalType": "string",
							"name": "_filename",
							"type": "string"
						},
						{
							"internalType": "address",
							"name": "_addr",
							"type": "address"
						},
						{
							"internalType": "uint8",
							"name": "_mode",
							"type": "uint8"
						}
					],
					"name": "changeFilePermission",
					"outputs": [],
					"stateMutability": "nonpayable",
					"type": "function"
				},
				{
					"inputs": [
						{
							"internalType": "string",
							"name": "_filename",
							"type": "string"
						},
						{
							"internalType": "string",
							"name": "_content",
							"type": "string"
						}
					],
					"name": "createFile",
					"outputs": [],
					"stateMutability": "nonpayable",
					"type": "function"
				},
				{
					"inputs": [
						{
							"internalType": "string",
							"name": "_filename",
							"type": "string"
						}
					],
					"name": "deleteFile",
					"outputs": [],
					"stateMutability": "nonpayable",
					"type": "function"
				},
				{
					"inputs": [
						{
							"internalType": "string",
							"name": "",
							"type": "string"
						}
					],
					"name": "files",
					"outputs": [
						{
							"internalType": "string",
							"name": "filename",
							"type": "string"
						},
						{
							"internalType": "string",
							"name": "content",
							"type": "string"
						},
						{
							"internalType": "bool",
							"name": "exists",
							"type": "bool"
						},
						{
							"internalType": "address",
							"name": "fileOwner",
							"type": "address"
						}
					],
					"stateMutability": "view",
					"type": "function"
				},
				{
					"inputs": [],
					"name": "listFiles",
					"outputs": [
						{
							"internalType": "string[]",
							"name": "",
							"type": "string[]"
						}
					],
					"stateMutability": "view",
					"type": "function"
				},
				{
					"inputs": [
						{
							"internalType": "string",
							"name": "_filename",
							"type": "string"
						}
					],
					"name": "readFile",
					"outputs": [
						{
							"internalType": "string",
							"name": "",
							"type": "string"
						}
					],
					"stateMutability": "view",
					"type": "function"
				},
				{
					"inputs": [
						{
							"internalType": "string",
							"name": "_oldName",
							"type": "string"
						},
						{
							"internalType": "string",
							"name": "_newName",
							"type": "string"
						}
					],
					"name": "renameFile",
					"outputs": [],
					"stateMutability": "nonpayable",
					"type": "function"
				},
				{
					"inputs": [
						{
							"internalType": "string",
							"name": "_filename",
							"type": "string"
						},
						{
							"internalType": "address",
							"name": "_addr",
							"type": "address"
						}
					],
					"name": "viewFilePermission",
					"outputs": [
						{
							"internalType": "string",
							"name": "",
							"type": "string"
						}
					],
					"stateMutability": "view",
					"type": "function"
				},
				{
					"inputs": [
						{
							"internalType": "string",
							"name": "_filename",
							"type": "string"
						},
						{
							"internalType": "string",
							"name": "_newContent",
							"type": "string"
						}
					],
					"name": "writeFile",
					"outputs": [],
					"stateMutability": "nonpayable",
					"type": "function"
				}
			],
			"devdoc": {
				"kind": "dev",
				"methods": {},
				"version": 1
			},
			"evm": {
				"assembly": "    /* \"contracts/FileStorage.sol\":74:4645  contract FileStorage {... */\n  mstore(0x40, 0x80)\n    /* \"contracts/FileStorage.sol\":481:482  0 */\n  0x00\n    /* \"contracts/FileStorage.sol\":462:482  uint16 fileCount = 0 */\n  dup1\n  exp(0x0100, 0x00)\n  dup2\n  sload\n  dup2\n  0xffff\n  mul\n  not\n  and\n  swap1\n  dup4\n  0xffff\n  and\n  mul\n  or\n  swap1\n  sstore\n  pop\n    /* \"contracts/FileStorage.sol\":74:4645  contract FileStorage {... */\n  callvalue\n  dup1\n  iszero\n  tag_1\n  jumpi\n  0x00\n  dup1\n  revert\ntag_1:\n  pop\n  dataSize(sub_0)\n  dup1\n  dataOffset(sub_0)\n  0x00\n  codecopy\n  0x00\n  return\nstop\n\nsub_0: assembly {\n        /* \"contracts/FileStorage.sol\":74:4645  contract FileStorage {... */\n      mstore(0x40, 0x80)\n      callvalue\n      dup1\n      iszero\n      tag_1\n      jumpi\n      0x00\n      dup1\n      revert\n    tag_1:\n      pop\n      jumpi(tag_2, lt(calldatasize, 0x04))\n      shr(0xe0, calldataload(0x00))\n      dup1\n      0xa9910054\n      gt\n      tag_13\n      jumpi\n      dup1\n      0xa9910054\n      eq\n      tag_8\n      jumpi\n      dup1\n      0xb033d8fa\n      eq\n      tag_9\n      jumpi\n      dup1\n      0xb6b13caa\n      eq\n      tag_10\n      jumpi\n      dup1\n      0xe7755761\n      eq\n      tag_11\n      jumpi\n      dup1\n      0xeceed653\n      eq\n      tag_12\n      jumpi\n      jump(tag_2)\n    tag_13:\n      dup1\n      0x13d4a044\n      eq\n      tag_3\n      jumpi\n      dup1\n      0x60f9bb11\n      eq\n      tag_4\n      jumpi\n      dup1\n      0x7d41216d\n      eq\n      tag_5\n      jumpi\n      dup1\n      0x81ad193a\n      eq\n      tag_6\n      jumpi\n      dup1\n      0x897e0a97\n      eq\n      tag_7\n      jumpi\n    tag_2:\n      0x00\n      dup1\n      revert\n        /* \"contracts/FileStorage.sol\":1956:2324  function renameFile(string memory _oldName, string memory _newName) external onlyFileOwner(_oldName) fileExists(_oldName) {... */\n    tag_3:\n      tag_14\n      0x04\n      dup1\n      calldatasize\n      sub\n      dup2\n      add\n      swap1\n      tag_15\n      swap2\n      swap1\n      tag_16\n      jump\t// in\n    tag_15:\n      tag_17\n      jump\t// in\n    tag_14:\n      stop\n        /* \"contracts/FileStorage.sol\":3954:4183  function readFile(string memory _filename) external view fileExists(_filename) returns (string memory) {... */\n    tag_4:\n      tag_18\n      0x04\n      dup1\n      calldatasize\n      sub\n      dup2\n      add\n      swap1\n      tag_19\n      swap2\n      swap1\n      tag_20\n      jump\t// in\n    tag_19:\n      tag_21\n      jump\t// in\n    tag_18:\n      mload(0x40)\n      tag_22\n      swap2\n      swap1\n      tag_23\n      jump\t// in\n    tag_22:\n      mload(0x40)\n      dup1\n      swap2\n      sub\n      swap1\n      return\n        /* \"contracts/FileStorage.sol\":4191:4505  function viewFilePermission(string memory _filename, address _addr) external view fileExists(_filename) returns (string memory) {... */\n    tag_5:\n      tag_24\n      0x04\n      dup1\n      calldatasize\n      sub\n      dup2\n      add\n      swap1\n      tag_25\n      swap2\n      swap1\n      tag_26\n      jump\t// in\n    tag_25:\n      tag_27\n      jump\t// in\n    tag_24:\n      mload(0x40)\n      tag_28\n      swap2\n      swap1\n      tag_23\n      jump\t// in\n    tag_28:\n      mload(0x40)\n      dup1\n      swap2\n      sub\n      swap1\n      return\n        /* \"contracts/FileStorage.sol\":1302:1926  function createFile(string memory _filename, string memory _content) notExceedFileLimit external {... */\n    tag_6:\n      tag_29\n      0x04\n      dup1\n      calldatasize\n      sub\n      dup2\n      add\n      swap1\n      tag_30\n      swap2\n      swap1\n      tag_16\n      jump\t// in\n    tag_30:\n      tag_31\n      jump\t// in\n    tag_29:\n      stop\n        /* \"contracts/FileStorage.sol\":2731:3018  function writeFile(string memory _filename, string memory _newContent) external fileExists(_filename) {... */\n    tag_7:\n      tag_32\n      0x04\n      dup1\n      calldatasize\n      sub\n      dup2\n      add\n      swap1\n      tag_33\n      swap2\n      swap1\n      tag_16\n      jump\t// in\n    tag_33:\n      tag_34\n      jump\t// in\n    tag_32:\n      stop\n        /* \"contracts/FileStorage.sol\":3048:3590  function deleteFile(string memory _filename) external onlyFileOwner(_filename) fileExists(_filename) {... */\n    tag_8:\n      tag_35\n      0x04\n      dup1\n      calldatasize\n      sub\n      dup2\n      add\n      swap1\n      tag_36\n      swap2\n      swap1\n      tag_20\n      jump\t// in\n    tag_36:\n      tag_37\n      jump\t// in\n    tag_35:\n      stop\n        /* \"contracts/FileStorage.sol\":4539:4634  function listFiles() external view returns (string[] memory) {... */\n    tag_9:\n      tag_38\n      tag_39\n      jump\t// in\n    tag_38:\n      mload(0x40)\n      tag_40\n      swap2\n      swap1\n      tag_41\n      jump\t// in\n    tag_40:\n      mload(0x40)\n      dup1\n      swap2\n      sub\n      swap1\n      return\n        /* \"contracts/FileStorage.sol\":2357:2698  function appendToFile(string memory _filename, string memory _newContent) external fileExists(_filename) {... */\n    tag_10:\n      tag_42\n      0x04\n      dup1\n      calldatasize\n      sub\n      dup2\n      add\n      swap1\n      tag_43\n      swap2\n      swap1\n      tag_16\n      jump\t// in\n    tag_43:\n      tag_44\n      jump\t// in\n    tag_42:\n      stop\n        /* \"contracts/FileStorage.sol\":489:525  mapping(string => File) public files */\n    tag_11:\n      tag_45\n      0x04\n      dup1\n      calldatasize\n      sub\n      dup2\n      add\n      swap1\n      tag_46\n      swap2\n      swap1\n      tag_20\n      jump\t// in\n    tag_46:\n      tag_47\n      jump\t// in\n    tag_45:\n      mload(0x40)\n      tag_48\n      swap5\n      swap4\n      swap3\n      swap2\n      swap1\n      tag_49\n      jump\t// in\n    tag_48:\n      mload(0x40)\n      dup1\n      swap2\n      sub\n      swap1\n      return\n        /* \"contracts/FileStorage.sol\":3649:3914  function changeFilePermission(string memory _filename, address _addr, uint8 _mode) external onlyFileOwner(_filename) fileExists(_filename) {... */\n    tag_12:\n      tag_50\n      0x04\n      dup1\n      calldatasize\n      sub\n      dup2\n      add\n      swap1\n      tag_51\n      swap2\n      swap1\n      tag_52\n      jump\t// in\n    tag_51:\n      tag_53\n      jump\t// in\n    tag_50:\n      stop\n        /* \"contracts/FileStorage.sol\":1956:2324  function renameFile(string memory _oldName, string memory _newName) external onlyFileOwner(_oldName) fileExists(_oldName) {... */\n    tag_17:\n        /* \"contracts/FileStorage.sol\":2047:2055  _oldName */\n      dup2\n        /* \"contracts/FileStorage.sol\":931:936  files */\n      0x01\n        /* \"contracts/FileStorage.sol\":937:946  _filename */\n      dup2\n        /* \"contracts/FileStorage.sol\":931:947  files[_filename] */\n      mload(0x40)\n      tag_55\n      swap2\n      swap1\n      tag_56\n      jump\t// in\n    tag_55:\n      swap1\n      dup2\n      mstore\n      0x20\n      add\n      mload(0x40)\n      dup1\n      swap2\n      sub\n      swap1\n      keccak256\n        /* \"contracts/FileStorage.sol\":931:957  files[_filename].fileOwner */\n      0x02\n      add\n      0x01\n      swap1\n      sload\n      swap1\n      0x0100\n      exp\n      swap1\n      div\n      0xffffffffffffffffffffffffffffffffffffffff\n      and\n        /* \"contracts/FileStorage.sol\":917:957  msg.sender == files[_filename].fileOwner */\n      0xffffffffffffffffffffffffffffffffffffffff\n      and\n        /* \"contracts/FileStorage.sol\":917:927  msg.sender */\n      caller\n        /* \"contracts/FileStorage.sol\":917:957  msg.sender == files[_filename].fileOwner */\n      0xffffffffffffffffffffffffffffffffffffffff\n      and\n      eq\n        /* \"contracts/FileStorage.sol\":909:993  require(msg.sender == files[_filename].fileOwner, \"Only the file owner can do this\") */\n      tag_57\n      jumpi\n      mload(0x40)\n      0x08c379a000000000000000000000000000000000000000000000000000000000\n      dup2\n      mstore\n      0x04\n      add\n      tag_58\n      swap1\n      tag_59\n      jump\t// in\n    tag_58:\n      mload(0x40)\n      dup1\n      swap2\n      sub\n      swap1\n      revert\n    tag_57:\n        /* \"contracts/FileStorage.sol\":2068:2076  _oldName */\n      dup3\n        /* \"contracts/FileStorage.sol\":1085:1090  files */\n      0x01\n        /* \"contracts/FileStorage.sol\":1091:1100  _filename */\n      dup2\n        /* \"contracts/FileStorage.sol\":1085:1101  files[_filename] */\n      mload(0x40)\n      tag_61\n      swap2\n      swap1\n      tag_56\n      jump\t// in\n    tag_61:\n      swap1\n      dup2\n      mstore\n      0x20\n      add\n      mload(0x40)\n      dup1\n      swap2\n      sub\n      swap1\n      keccak256\n        /* \"contracts/FileStorage.sol\":1085:1108  files[_filename].exists */\n      0x02\n      add\n      0x00\n      swap1\n      sload\n      swap1\n      0x0100\n      exp\n      swap1\n      div\n      0xff\n      and\n        /* \"contracts/FileStorage.sol\":1077:1132  require(files[_filename].exists, \"File does not exist\") */\n      tag_62\n      jumpi\n      mload(0x40)\n      0x08c379a000000000000000000000000000000000000000000000000000000000\n      dup2\n      mstore\n      0x04\n      add\n      tag_63\n      swap1\n      tag_64\n      jump\t// in\n    tag_63:\n      mload(0x40)\n      dup1\n      swap2\n      sub\n      swap1\n      revert\n    tag_62:\n        /* \"contracts/FileStorage.sol\":2098:2103  files */\n      0x01\n        /* \"contracts/FileStorage.sol\":2104:2112  _newName */\n      dup4\n        /* \"contracts/FileStorage.sol\":2098:2113  files[_newName] */\n      mload(0x40)\n      tag_66\n      swap2\n      swap1\n      tag_56\n      jump\t// in\n    tag_66:\n      swap1\n      dup2\n      mstore\n      0x20\n      add\n      mload(0x40)\n      dup1\n      swap2\n      sub\n      swap1\n      keccak256\n        /* \"contracts/FileStorage.sol\":2098:2120  files[_newName].exists */\n      0x02\n      add\n      0x00\n      swap1\n      sload\n      swap1\n      0x0100\n      exp\n      swap1\n      div\n      0xff\n      and\n        /* \"contracts/FileStorage.sol\":2097:2120  !files[_newName].exists */\n      iszero\n        /* \"contracts/FileStorage.sol\":2089:2143  require(!files[_newName].exists, \"Name not available\") */\n      tag_67\n      jumpi\n      mload(0x40)\n      0x08c379a000000000000000000000000000000000000000000000000000000000\n      dup2\n      mstore\n      0x04\n      add\n      tag_68\n      swap1\n      tag_69\n      jump\t// in\n    tag_68:\n      mload(0x40)\n      dup1\n      swap2\n      sub\n      swap1\n      revert\n    tag_67:\n        /* \"contracts/FileStorage.sol\":2154:2174  File storage newFile */\n      0x00\n        /* \"contracts/FileStorage.sol\":2177:2182  files */\n      0x01\n        /* \"contracts/FileStorage.sol\":2183:2191  _oldName */\n      dup6\n        /* \"contracts/FileStorage.sol\":2177:2192  files[_oldName] */\n      mload(0x40)\n      tag_70\n      swap2\n      swap1\n      tag_56\n      jump\t// in\n    tag_70:\n      swap1\n      dup2\n      mstore\n      0x20\n      add\n      mload(0x40)\n      dup1\n      swap2\n      sub\n      swap1\n      keccak256\n        /* \"contracts/FileStorage.sol\":2154:2192  File storage newFile = files[_oldName] */\n      swap1\n      pop\n        /* \"contracts/FileStorage.sol\":2210:2215  files */\n      0x01\n        /* \"contracts/FileStorage.sol\":2216:2224  _oldName */\n      dup6\n        /* \"contracts/FileStorage.sol\":2210:2225  files[_oldName] */\n      mload(0x40)\n      tag_71\n      swap2\n      swap1\n      tag_56\n      jump\t// in\n    tag_71:\n      swap1\n      dup2\n      mstore\n      0x20\n      add\n      mload(0x40)\n      dup1\n      swap2\n      sub\n      swap1\n      keccak256\n      0x00\n        /* \"contracts/FileStorage.sol\":2203:2225  delete files[_oldName] */\n      dup1\n      dup3\n      add\n      0x00\n      tag_72\n      swap2\n      swap1\n      tag_73\n      jump\t// in\n    tag_72:\n      0x01\n      dup3\n      add\n      0x00\n      tag_74\n      swap2\n      swap1\n      tag_73\n      jump\t// in\n    tag_74:\n      0x02\n      dup3\n      add\n      exp(0x0100, 0x00)\n      dup2\n      sload\n      swap1\n      0xff\n      mul\n      not\n      and\n      swap1\n      sstore\n      0x02\n      dup3\n      add\n      exp(0x0100, 0x01)\n      dup2\n      sload\n      swap1\n      0xffffffffffffffffffffffffffffffffffffffff\n      mul\n      not\n      and\n      swap1\n      sstore\n      pop\n      pop\n        /* \"contracts/FileStorage.sol\":2255:2263  _newName */\n      dup4\n        /* \"contracts/FileStorage.sol\":2236:2243  newFile */\n      dup2\n        /* \"contracts/FileStorage.sol\":2236:2252  newFile.filename */\n      0x00\n      add\n        /* \"contracts/FileStorage.sol\":2236:2263  newFile.filename = _newName */\n      swap1\n      dup2\n      tag_75\n      swap2\n      swap1\n      tag_76\n      jump\t// in\n    tag_75:\n      pop\n        /* \"contracts/FileStorage.sol\":2281:2316  FilenameChanged(_oldName, _newName) */\n      0x5ee3c6b0406f0b0a35ef95dff519848690b3aeb906a836f5ce685fa0b3467483\n        /* \"contracts/FileStorage.sol\":2297:2305  _oldName */\n      dup6\n        /* \"contracts/FileStorage.sol\":2307:2315  _newName */\n      dup6\n        /* \"contracts/FileStorage.sol\":2281:2316  FilenameChanged(_oldName, _newName) */\n      mload(0x40)\n      tag_77\n      swap3\n      swap2\n      swap1\n      tag_78\n      jump\t// in\n    tag_77:\n      mload(0x40)\n      dup1\n      swap2\n      sub\n      swap1\n      log1\n        /* \"contracts/FileStorage.sol\":2078:2324  {... */\n      pop\n        /* \"contracts/FileStorage.sol\":1004:1005  _ */\n      pop\n        /* \"contracts/FileStorage.sol\":1956:2324  function renameFile(string memory _oldName, string memory _newName) external onlyFileOwner(_oldName) fileExists(_oldName) {... */\n      pop\n      pop\n      pop\n      jump\t// out\n        /* \"contracts/FileStorage.sol\":3954:4183  function readFile(string memory _filename) external view fileExists(_filename) returns (string memory) {... */\n    tag_21:\n        /* \"contracts/FileStorage.sol\":4042:4055  string memory */\n      0x60\n        /* \"contracts/FileStorage.sol\":4022:4031  _filename */\n      dup2\n        /* \"contracts/FileStorage.sol\":1085:1090  files */\n      0x01\n        /* \"contracts/FileStorage.sol\":1091:1100  _filename */\n      dup2\n        /* \"contracts/FileStorage.sol\":1085:1101  files[_filename] */\n      mload(0x40)\n      tag_80\n      swap2\n      swap1\n      tag_56\n      jump\t// in\n    tag_80:\n      swap1\n      dup2\n      mstore\n      0x20\n      add\n      mload(0x40)\n      dup1\n      swap2\n      sub\n      swap1\n      keccak256\n        /* \"contracts/FileStorage.sol\":1085:1108  files[_filename].exists */\n      0x02\n      add\n      0x00\n      swap1\n      sload\n      swap1\n      0x0100\n      exp\n      swap1\n      div\n      0xff\n      and\n        /* \"contracts/FileStorage.sol\":1077:1132  require(files[_filename].exists, \"File does not exist\") */\n      tag_81\n      jumpi\n      mload(0x40)\n      0x08c379a000000000000000000000000000000000000000000000000000000000\n      dup2\n      mstore\n      0x04\n      add\n      tag_82\n      swap1\n      tag_64\n      jump\t// in\n    tag_82:\n      mload(0x40)\n      dup1\n      swap2\n      sub\n      swap1\n      revert\n    tag_81:\n        /* \"contracts/FileStorage.sol\":4113:4114  1 */\n      0x01\n        /* \"contracts/FileStorage.sol\":4076:4081  files */\n      dup1\n        /* \"contracts/FileStorage.sol\":4082:4091  _filename */\n      dup5\n        /* \"contracts/FileStorage.sol\":4076:4092  files[_filename] */\n      mload(0x40)\n      tag_84\n      swap2\n      swap1\n      tag_56\n      jump\t// in\n    tag_84:\n      swap1\n      dup2\n      mstore\n      0x20\n      add\n      mload(0x40)\n      dup1\n      swap2\n      sub\n      swap1\n      keccak256\n        /* \"contracts/FileStorage.sol\":4076:4097  files[_filename].mode */\n      0x03\n      add\n        /* \"contracts/FileStorage.sol\":4076:4109  files[_filename].mode[msg.sender] */\n      0x00\n        /* \"contracts/FileStorage.sol\":4098:4108  msg.sender */\n      caller\n        /* \"contracts/FileStorage.sol\":4076:4109  files[_filename].mode[msg.sender] */\n      0xffffffffffffffffffffffffffffffffffffffff\n      and\n      0xffffffffffffffffffffffffffffffffffffffff\n      and\n      dup2\n      mstore\n      0x20\n      add\n      swap1\n      dup2\n      mstore\n      0x20\n      add\n      0x00\n      keccak256\n      0x00\n      swap1\n      sload\n      swap1\n      0x0100\n      exp\n      swap1\n      div\n      0xff\n      and\n        /* \"contracts/FileStorage.sol\":4076:4114  files[_filename].mode[msg.sender] >= 1 */\n      0xff\n      and\n      lt\n      iszero\n        /* \"contracts/FileStorage.sol\":4068:4133  require(files[_filename].mode[msg.sender] >= 1, \"No Read access\") */\n      tag_85\n      jumpi\n      mload(0x40)\n      0x08c379a000000000000000000000000000000000000000000000000000000000\n      dup2\n      mstore\n      0x04\n      add\n      tag_86\n      swap1\n      tag_87\n      jump\t// in\n    tag_86:\n      mload(0x40)\n      dup1\n      swap2\n      sub\n      swap1\n      revert\n    tag_85:\n        /* \"contracts/FileStorage.sol\":4151:4156  files */\n      0x01\n        /* \"contracts/FileStorage.sol\":4157:4166  _filename */\n      dup4\n        /* \"contracts/FileStorage.sol\":4151:4167  files[_filename] */\n      mload(0x40)\n      tag_88\n      swap2\n      swap1\n      tag_56\n      jump\t// in\n    tag_88:\n      swap1\n      dup2\n      mstore\n      0x20\n      add\n      mload(0x40)\n      dup1\n      swap2\n      sub\n      swap1\n      keccak256\n        /* \"contracts/FileStorage.sol\":4151:4175  files[_filename].content */\n      0x01\n      add\n        /* \"contracts/FileStorage.sol\":4144:4175  return files[_filename].content */\n      dup1\n      sload\n      tag_89\n      swap1\n      tag_90\n      jump\t// in\n    tag_89:\n      dup1\n      0x1f\n      add\n      0x20\n      dup1\n      swap2\n      div\n      mul\n      0x20\n      add\n      mload(0x40)\n      swap1\n      dup2\n      add\n      0x40\n      mstore\n      dup1\n      swap3\n      swap2\n      swap1\n      dup2\n      dup2\n      mstore\n      0x20\n      add\n      dup3\n      dup1\n      sload\n      tag_91\n      swap1\n      tag_90\n      jump\t// in\n    tag_91:\n      dup1\n      iszero\n      tag_92\n      jumpi\n      dup1\n      0x1f\n      lt\n      tag_93\n      jumpi\n      0x0100\n      dup1\n      dup4\n      sload\n      div\n      mul\n      dup4\n      mstore\n      swap2\n      0x20\n      add\n      swap2\n      jump(tag_92)\n    tag_93:\n      dup3\n      add\n      swap2\n      swap1\n      0x00\n      mstore\n      keccak256(0x00, 0x20)\n      swap1\n    tag_94:\n      dup2\n      sload\n      dup2\n      mstore\n      swap1\n      0x01\n      add\n      swap1\n      0x20\n      add\n      dup1\n      dup4\n      gt\n      tag_94\n      jumpi\n      dup3\n      swap1\n      sub\n      0x1f\n      and\n      dup3\n      add\n      swap2\n    tag_92:\n      pop\n      pop\n      pop\n      pop\n      pop\n      swap2\n      pop\n        /* \"contracts/FileStorage.sol\":3954:4183  function readFile(string memory _filename) external view fileExists(_filename) returns (string memory) {... */\n      pop\n      swap2\n      swap1\n      pop\n      jump\t// out\n        /* \"contracts/FileStorage.sol\":4191:4505  function viewFilePermission(string memory _filename, address _addr) external view fileExists(_filename) returns (string memory) {... */\n    tag_27:\n        /* \"contracts/FileStorage.sol\":4304:4317  string memory */\n      0x60\n        /* \"contracts/FileStorage.sol\":4284:4293  _filename */\n      dup3\n        /* \"contracts/FileStorage.sol\":1085:1090  files */\n      0x01\n        /* \"contracts/FileStorage.sol\":1091:1100  _filename */\n      dup2\n        /* \"contracts/FileStorage.sol\":1085:1101  files[_filename] */\n      mload(0x40)\n      tag_96\n      swap2\n      swap1\n      tag_56\n      jump\t// in\n    tag_96:\n      swap1\n      dup2\n      mstore\n      0x20\n      add\n      mload(0x40)\n      dup1\n      swap2\n      sub\n      swap1\n      keccak256\n        /* \"contracts/FileStorage.sol\":1085:1108  files[_filename].exists */\n      0x02\n      add\n      0x00\n      swap1\n      sload\n      swap1\n      0x0100\n      exp\n      swap1\n      div\n      0xff\n      and\n        /* \"contracts/FileStorage.sol\":1077:1132  require(files[_filename].exists, \"File does not exist\") */\n      tag_97\n      jumpi\n      mload(0x40)\n      0x08c379a000000000000000000000000000000000000000000000000000000000\n      dup2\n      mstore\n      0x04\n      add\n      tag_98\n      swap1\n      tag_64\n      jump\t// in\n    tag_98:\n      mload(0x40)\n      dup1\n      swap2\n      sub\n      swap1\n      revert\n    tag_97:\n        /* \"contracts/FileStorage.sol\":4330:4363  string[4] memory mode_description */\n      0x00\n        /* \"contracts/FileStorage.sol\":4330:4433  string[4] memory mode_description = [\"No access\", \"Read only\", \"Read & append\", \"Read, append & write\"] */\n      mload(0x40)\n      dup1\n      0x80\n      add\n      0x40\n      mstore\n      dup1\n      mload(0x40)\n      dup1\n      0x40\n      add\n      0x40\n      mstore\n      dup1\n      0x09\n      dup2\n      mstore\n      0x20\n      add\n      0x4e6f206163636573730000000000000000000000000000000000000000000000\n      dup2\n      mstore\n      pop\n      dup2\n      mstore\n      0x20\n      add\n      mload(0x40)\n      dup1\n      0x40\n      add\n      0x40\n      mstore\n      dup1\n      0x09\n      dup2\n      mstore\n      0x20\n      add\n      0x52656164206f6e6c790000000000000000000000000000000000000000000000\n      dup2\n      mstore\n      pop\n      dup2\n      mstore\n      0x20\n      add\n      mload(0x40)\n      dup1\n      0x40\n      add\n      0x40\n      mstore\n      dup1\n      0x0d\n      dup2\n      mstore\n      0x20\n      add\n      0x52656164202620617070656e6400000000000000000000000000000000000000\n      dup2\n      mstore\n      pop\n      dup2\n      mstore\n      0x20\n      add\n      mload(0x40)\n      dup1\n      0x40\n      add\n      0x40\n      mstore\n      dup1\n      0x14\n      dup2\n      mstore\n      0x20\n      add\n      0x526561642c20617070656e642026207772697465000000000000000000000000\n      dup2\n      mstore\n      pop\n      dup2\n      mstore\n      pop\n      swap1\n      pop\n        /* \"contracts/FileStorage.sol\":4451:4467  mode_description */\n      dup1\n        /* \"contracts/FileStorage.sol\":4468:4473  files */\n      0x01\n        /* \"contracts/FileStorage.sol\":4474:4483  _filename */\n      dup7\n        /* \"contracts/FileStorage.sol\":4468:4484  files[_filename] */\n      mload(0x40)\n      tag_100\n      swap2\n      swap1\n      tag_56\n      jump\t// in\n    tag_100:\n      swap1\n      dup2\n      mstore\n      0x20\n      add\n      mload(0x40)\n      dup1\n      swap2\n      sub\n      swap1\n      keccak256\n        /* \"contracts/FileStorage.sol\":4468:4489  files[_filename].mode */\n      0x03\n      add\n        /* \"contracts/FileStorage.sol\":4468:4496  files[_filename].mode[_addr] */\n      0x00\n        /* \"contracts/FileStorage.sol\":4490:4495  _addr */\n      dup7\n        /* \"contracts/FileStorage.sol\":4468:4496  files[_filename].mode[_addr] */\n      0xffffffffffffffffffffffffffffffffffffffff\n      and\n      0xffffffffffffffffffffffffffffffffffffffff\n      and\n      dup2\n      mstore\n      0x20\n      add\n      swap1\n      dup2\n      mstore\n      0x20\n      add\n      0x00\n      keccak256\n      0x00\n      swap1\n      sload\n      swap1\n      0x0100\n      exp\n      swap1\n      div\n      0xff\n      and\n        /* \"contracts/FileStorage.sol\":4451:4497  mode_description[files[_filename].mode[_addr]] */\n      0xff\n      and\n      0x04\n      dup2\n      lt\n      tag_101\n      jumpi\n      tag_102\n      tag_103\n      jump\t// in\n    tag_102:\n    tag_101:\n      0x20\n      mul\n      add\n      mload\n        /* \"contracts/FileStorage.sol\":4444:4497  return mode_description[files[_filename].mode[_addr]] */\n      swap3\n      pop\n      pop\n        /* \"contracts/FileStorage.sol\":4191:4505  function viewFilePermission(string memory _filename, address _addr) external view fileExists(_filename) returns (string memory) {... */\n      pop\n      swap3\n      swap2\n      pop\n      pop\n      jump\t// out\n        /* \"contracts/FileStorage.sol\":1302:1926  function createFile(string memory _filename, string memory _content) notExceedFileLimit external {... */\n    tag_31:\n        /* \"contracts/FileStorage.sol\":140:142  50 */\n      0x32\n        /* \"contracts/FileStorage.sol\":1207:1228  fileCount < MAX_FILES */\n      0xffff\n      and\n        /* \"contracts/FileStorage.sol\":1207:1216  fileCount */\n      0x00\n      dup1\n      sload\n      swap1\n      0x0100\n      exp\n      swap1\n      div\n      0xffff\n      and\n        /* \"contracts/FileStorage.sol\":1207:1228  fileCount < MAX_FILES */\n      0xffff\n      and\n      lt\n        /* \"contracts/FileStorage.sol\":1199:1252  require(fileCount < MAX_FILES, \"Exceeded file limit\") */\n      tag_105\n      jumpi\n      mload(0x40)\n      0x08c379a000000000000000000000000000000000000000000000000000000000\n      dup2\n      mstore\n      0x04\n      add\n      tag_106\n      swap1\n      tag_107\n      jump\t// in\n    tag_106:\n      mload(0x40)\n      dup1\n      swap2\n      sub\n      swap1\n      revert\n    tag_105:\n        /* \"contracts/FileStorage.sol\":1444:1445  0 */\n      0x00\n        /* \"contracts/FileStorage.sol\":1424:1433  _filename */\n      dup3\n        /* \"contracts/FileStorage.sol\":1418:1441  bytes(_filename).length */\n      mload\n        /* \"contracts/FileStorage.sol\":1418:1445  bytes(_filename).length > 0 */\n      gt\n        /* \"contracts/FileStorage.sol\":1410:1474  require(bytes(_filename).length > 0, \"Filename cannot be empty\") */\n      tag_109\n      jumpi\n      mload(0x40)\n      0x08c379a000000000000000000000000000000000000000000000000000000000\n      dup2\n      mstore\n      0x04\n      add\n      tag_110\n      swap1\n      tag_111\n      jump\t// in\n    tag_110:\n      mload(0x40)\n      dup1\n      swap2\n      sub\n      swap1\n      revert\n    tag_109:\n        /* \"contracts/FileStorage.sol\":1494:1499  files */\n      0x01\n        /* \"contracts/FileStorage.sol\":1500:1509  _filename */\n      dup3\n        /* \"contracts/FileStorage.sol\":1494:1510  files[_filename] */\n      mload(0x40)\n      tag_112\n      swap2\n      swap1\n      tag_56\n      jump\t// in\n    tag_112:\n      swap1\n      dup2\n      mstore\n      0x20\n      add\n      mload(0x40)\n      dup1\n      swap2\n      sub\n      swap1\n      keccak256\n        /* \"contracts/FileStorage.sol\":1494:1517  files[_filename].exists */\n      0x02\n      add\n      0x00\n      swap1\n      sload\n      swap1\n      0x0100\n      exp\n      swap1\n      div\n      0xff\n      and\n        /* \"contracts/FileStorage.sol\":1493:1517  !files[_filename].exists */\n      iszero\n        /* \"contracts/FileStorage.sol\":1485:1541  require(!files[_filename].exists, \"File already exists\") */\n      tag_113\n      jumpi\n      mload(0x40)\n      0x08c379a000000000000000000000000000000000000000000000000000000000\n      dup2\n      mstore\n      0x04\n      add\n      tag_114\n      swap1\n      tag_115\n      jump\t// in\n    tag_114:\n      mload(0x40)\n      dup1\n      swap2\n      sub\n      swap1\n      revert\n    tag_113:\n        /* \"contracts/FileStorage.sol\":1554:1574  File storage newFile */\n      0x00\n        /* \"contracts/FileStorage.sol\":1577:1582  files */\n      0x01\n        /* \"contracts/FileStorage.sol\":1583:1592  _filename */\n      dup4\n        /* \"contracts/FileStorage.sol\":1577:1593  files[_filename] */\n      mload(0x40)\n      tag_116\n      swap2\n      swap1\n      tag_56\n      jump\t// in\n    tag_116:\n      swap1\n      dup2\n      mstore\n      0x20\n      add\n      mload(0x40)\n      dup1\n      swap2\n      sub\n      swap1\n      keccak256\n        /* \"contracts/FileStorage.sol\":1554:1593  File storage newFile = files[_filename] */\n      swap1\n      pop\n        /* \"contracts/FileStorage.sol\":1623:1632  _filename */\n      dup3\n        /* \"contracts/FileStorage.sol\":1604:1611  newFile */\n      dup2\n        /* \"contracts/FileStorage.sol\":1604:1620  newFile.filename */\n      0x00\n      add\n        /* \"contracts/FileStorage.sol\":1604:1632  newFile.filename = _filename */\n      swap1\n      dup2\n      tag_117\n      swap2\n      swap1\n      tag_76\n      jump\t// in\n    tag_117:\n      pop\n        /* \"contracts/FileStorage.sol\":1661:1669  _content */\n      dup2\n        /* \"contracts/FileStorage.sol\":1643:1650  newFile */\n      dup2\n        /* \"contracts/FileStorage.sol\":1643:1658  newFile.content */\n      0x01\n      add\n        /* \"contracts/FileStorage.sol\":1643:1669  newFile.content = _content */\n      swap1\n      dup2\n      tag_118\n      swap2\n      swap1\n      tag_76\n      jump\t// in\n    tag_118:\n      pop\n        /* \"contracts/FileStorage.sol\":1697:1701  true */\n      0x01\n        /* \"contracts/FileStorage.sol\":1680:1687  newFile */\n      dup2\n        /* \"contracts/FileStorage.sol\":1680:1694  newFile.exists */\n      0x02\n      add\n      0x00\n        /* \"contracts/FileStorage.sol\":1680:1701  newFile.exists = true */\n      0x0100\n      exp\n      dup2\n      sload\n      dup2\n      0xff\n      mul\n      not\n      and\n      swap1\n      dup4\n      iszero\n      iszero\n      mul\n      or\n      swap1\n      sstore\n      pop\n        /* \"contracts/FileStorage.sol\":1732:1742  msg.sender */\n      caller\n        /* \"contracts/FileStorage.sol\":1712:1719  newFile */\n      dup2\n        /* \"contracts/FileStorage.sol\":1712:1729  newFile.fileOwner */\n      0x02\n      add\n      0x01\n        /* \"contracts/FileStorage.sol\":1712:1742  newFile.fileOwner = msg.sender */\n      0x0100\n      exp\n      dup2\n      sload\n      dup2\n      0xffffffffffffffffffffffffffffffffffffffff\n      mul\n      not\n      and\n      swap1\n      dup4\n      0xffffffffffffffffffffffffffffffffffffffff\n      and\n      mul\n      or\n      swap1\n      sstore\n      pop\n        /* \"contracts/FileStorage.sol\":1780:1781  3 */\n      0x03\n        /* \"contracts/FileStorage.sol\":1753:1760  newFile */\n      dup2\n        /* \"contracts/FileStorage.sol\":1753:1765  newFile.mode */\n      0x03\n      add\n        /* \"contracts/FileStorage.sol\":1753:1777  newFile.mode[msg.sender] */\n      0x00\n        /* \"contracts/FileStorage.sol\":1766:1776  msg.sender */\n      caller\n        /* \"contracts/FileStorage.sol\":1753:1777  newFile.mode[msg.sender] */\n      0xffffffffffffffffffffffffffffffffffffffff\n      and\n      0xffffffffffffffffffffffffffffffffffffffff\n      and\n      dup2\n      mstore\n      0x20\n      add\n      swap1\n      dup2\n      mstore\n      0x20\n      add\n      0x00\n      keccak256\n      0x00\n        /* \"contracts/FileStorage.sol\":1753:1781  newFile.mode[msg.sender] = 3 */\n      0x0100\n      exp\n      dup2\n      sload\n      dup2\n      0xff\n      mul\n      not\n      and\n      swap1\n      dup4\n      0xff\n      and\n      mul\n      or\n      swap1\n      sstore\n      pop\n        /* \"contracts/FileStorage.sol\":1823:1832  fileCount */\n      0x00\n      dup1\n        /* \"contracts/FileStorage.sol\":1823:1834  fileCount++ */\n      dup2\n      dup2\n      swap1\n      sload\n      swap1\n      0x0100\n      exp\n      swap1\n      div\n      0xffff\n      and\n      dup1\n      swap3\n      swap2\n      swap1\n      tag_119\n      swap1\n      tag_120\n      jump\t// in\n    tag_119:\n      swap2\n      swap1\n      0x0100\n      exp\n      dup2\n      sload\n      dup2\n      0xffff\n      mul\n      not\n      and\n      swap1\n      dup4\n      0xffff\n      and\n      mul\n      or\n      swap1\n      sstore\n      pop\n      pop\n        /* \"contracts/FileStorage.sol\":1846:1854  fileList */\n      0x02\n        /* \"contracts/FileStorage.sol\":1860:1869  _filename */\n      dup4\n        /* \"contracts/FileStorage.sol\":1846:1870  fileList.push(_filename) */\n      swap1\n      dup1\n      0x01\n      dup2\n      sload\n      add\n      dup1\n      dup3\n      sstore\n      dup1\n      swap2\n      pop\n      pop\n      0x01\n      swap1\n      sub\n      swap1\n      0x00\n      mstore\n      keccak256(0x00, 0x20)\n      add\n      0x00\n      swap1\n      swap2\n      swap1\n      swap2\n      swap1\n      swap2\n      pop\n      swap1\n      dup2\n      tag_122\n      swap2\n      swap1\n      tag_76\n      jump\t// in\n    tag_122:\n      pop\n        /* \"contracts/FileStorage.sol\":1886:1918  FileCreated(_filename, _content) */\n      0x74fdeb27b6331df438c50b6327d3b7d950c83000ca1fafb3bc9834e3ec2c7ef3\n        /* \"contracts/FileStorage.sol\":1898:1907  _filename */\n      dup4\n        /* \"contracts/FileStorage.sol\":1909:1917  _content */\n      dup4\n        /* \"contracts/FileStorage.sol\":1886:1918  FileCreated(_filename, _content) */\n      mload(0x40)\n      tag_123\n      swap3\n      swap2\n      swap1\n      tag_78\n      jump\t// in\n    tag_123:\n      mload(0x40)\n      dup1\n      swap2\n      sub\n      swap1\n      log1\n        /* \"contracts/FileStorage.sol\":1399:1926  {... */\n      pop\n        /* \"contracts/FileStorage.sol\":1302:1926  function createFile(string memory _filename, string memory _content) notExceedFileLimit external {... */\n      pop\n      pop\n      jump\t// out\n        /* \"contracts/FileStorage.sol\":2731:3018  function writeFile(string memory _filename, string memory _newContent) external fileExists(_filename) {... */\n    tag_34:\n        /* \"contracts/FileStorage.sol\":2822:2831  _filename */\n      dup2\n        /* \"contracts/FileStorage.sol\":1085:1090  files */\n      0x01\n        /* \"contracts/FileStorage.sol\":1091:1100  _filename */\n      dup2\n        /* \"contracts/FileStorage.sol\":1085:1101  files[_filename] */\n      mload(0x40)\n      tag_125\n      swap2\n      swap1\n      tag_56\n      jump\t// in\n    tag_125:\n      swap1\n      dup2\n      mstore\n      0x20\n      add\n      mload(0x40)\n      dup1\n      swap2\n      sub\n      swap1\n      keccak256\n        /* \"contracts/FileStorage.sol\":1085:1108  files[_filename].exists */\n      0x02\n      add\n      0x00\n      swap1\n      sload\n      swap1\n      0x0100\n      exp\n      swap1\n      div\n      0xff\n      and\n        /* \"contracts/FileStorage.sol\":1077:1132  require(files[_filename].exists, \"File does not exist\") */\n      tag_126\n      jumpi\n      mload(0x40)\n      0x08c379a000000000000000000000000000000000000000000000000000000000\n      dup2\n      mstore\n      0x04\n      add\n      tag_127\n      swap1\n      tag_64\n      jump\t// in\n    tag_127:\n      mload(0x40)\n      dup1\n      swap2\n      sub\n      swap1\n      revert\n    tag_126:\n        /* \"contracts/FileStorage.sol\":2889:2890  3 */\n      0x03\n        /* \"contracts/FileStorage.sol\":2852:2857  files */\n      0x01\n        /* \"contracts/FileStorage.sol\":2858:2867  _filename */\n      dup5\n        /* \"contracts/FileStorage.sol\":2852:2868  files[_filename] */\n      mload(0x40)\n      tag_129\n      swap2\n      swap1\n      tag_56\n      jump\t// in\n    tag_129:\n      swap1\n      dup2\n      mstore\n      0x20\n      add\n      mload(0x40)\n      dup1\n      swap2\n      sub\n      swap1\n      keccak256\n        /* \"contracts/FileStorage.sol\":2852:2873  files[_filename].mode */\n      0x03\n      add\n        /* \"contracts/FileStorage.sol\":2852:2885  files[_filename].mode[msg.sender] */\n      0x00\n        /* \"contracts/FileStorage.sol\":2874:2884  msg.sender */\n      caller\n        /* \"contracts/FileStorage.sol\":2852:2885  files[_filename].mode[msg.sender] */\n      0xffffffffffffffffffffffffffffffffffffffff\n      and\n      0xffffffffffffffffffffffffffffffffffffffff\n      and\n      dup2\n      mstore\n      0x20\n      add\n      swap1\n      dup2\n      mstore\n      0x20\n      add\n      0x00\n      keccak256\n      0x00\n      swap1\n      sload\n      swap1\n      0x0100\n      exp\n      swap1\n      div\n      0xff\n      and\n        /* \"contracts/FileStorage.sol\":2852:2890  files[_filename].mode[msg.sender] == 3 */\n      0xff\n      and\n      eq\n        /* \"contracts/FileStorage.sol\":2844:2910  require(files[_filename].mode[msg.sender] == 3, \"No write access\") */\n      tag_130\n      jumpi\n      mload(0x40)\n      0x08c379a000000000000000000000000000000000000000000000000000000000\n      dup2\n      mstore\n      0x04\n      add\n      tag_131\n      swap1\n      tag_132\n      jump\t// in\n    tag_131:\n      mload(0x40)\n      dup1\n      swap2\n      sub\n      swap1\n      revert\n    tag_130:\n        /* \"contracts/FileStorage.sol\":2948:2959  _newContent */\n      dup2\n        /* \"contracts/FileStorage.sol\":2921:2926  files */\n      0x01\n        /* \"contracts/FileStorage.sol\":2927:2936  _filename */\n      dup5\n        /* \"contracts/FileStorage.sol\":2921:2937  files[_filename] */\n      mload(0x40)\n      tag_133\n      swap2\n      swap1\n      tag_56\n      jump\t// in\n    tag_133:\n      swap1\n      dup2\n      mstore\n      0x20\n      add\n      mload(0x40)\n      dup1\n      swap2\n      sub\n      swap1\n      keccak256\n        /* \"contracts/FileStorage.sol\":2921:2945  files[_filename].content */\n      0x01\n      add\n        /* \"contracts/FileStorage.sol\":2921:2959  files[_filename].content = _newContent */\n      swap1\n      dup2\n      tag_134\n      swap2\n      swap1\n      tag_76\n      jump\t// in\n    tag_134:\n      pop\n        /* \"contracts/FileStorage.sol\":2975:3010  FileWritten(_filename, _newContent) */\n      0x4441a3ec3579b92d8e6c91b65ae7da842056291f1be1cd5d64c2681da07a7cc3\n        /* \"contracts/FileStorage.sol\":2987:2996  _filename */\n      dup4\n        /* \"contracts/FileStorage.sol\":2998:3009  _newContent */\n      dup4\n        /* \"contracts/FileStorage.sol\":2975:3010  FileWritten(_filename, _newContent) */\n      mload(0x40)\n      tag_135\n      swap3\n      swap2\n      swap1\n      tag_78\n      jump\t// in\n    tag_135:\n      mload(0x40)\n      dup1\n      swap2\n      sub\n      swap1\n      log1\n        /* \"contracts/FileStorage.sol\":2731:3018  function writeFile(string memory _filename, string memory _newContent) external fileExists(_filename) {... */\n      pop\n      pop\n      pop\n      jump\t// out\n        /* \"contracts/FileStorage.sol\":3048:3590  function deleteFile(string memory _filename) external onlyFileOwner(_filename) fileExists(_filename) {... */\n    tag_37:\n        /* \"contracts/FileStorage.sol\":3116:3125  _filename */\n      dup1\n        /* \"contracts/FileStorage.sol\":931:936  files */\n      0x01\n        /* \"contracts/FileStorage.sol\":937:946  _filename */\n      dup2\n        /* \"contracts/FileStorage.sol\":931:947  files[_filename] */\n      mload(0x40)\n      tag_137\n      swap2\n      swap1\n      tag_56\n      jump\t// in\n    tag_137:\n      swap1\n      dup2\n      mstore\n      0x20\n      add\n      mload(0x40)\n      dup1\n      swap2\n      sub\n      swap1\n      keccak256\n        /* \"contracts/FileStorage.sol\":931:957  files[_filename].fileOwner */\n      0x02\n      add\n      0x01\n      swap1\n      sload\n      swap1\n      0x0100\n      exp\n      swap1\n      div\n      0xffffffffffffffffffffffffffffffffffffffff\n      and\n        /* \"contracts/FileStorage.sol\":917:957  msg.sender == files[_filename].fileOwner */\n      0xffffffffffffffffffffffffffffffffffffffff\n      and\n        /* \"contracts/FileStorage.sol\":917:927  msg.sender */\n      caller\n        /* \"contracts/FileStorage.sol\":917:957  msg.sender == files[_filename].fileOwner */\n      0xffffffffffffffffffffffffffffffffffffffff\n      and\n      eq\n        /* \"contracts/FileStorage.sol\":909:993  require(msg.sender == files[_filename].fileOwner, \"Only the file owner can do this\") */\n      tag_138\n      jumpi\n      mload(0x40)\n      0x08c379a000000000000000000000000000000000000000000000000000000000\n      dup2\n      mstore\n      0x04\n      add\n      tag_139\n      swap1\n      tag_59\n      jump\t// in\n    tag_139:\n      mload(0x40)\n      dup1\n      swap2\n      sub\n      swap1\n      revert\n    tag_138:\n        /* \"contracts/FileStorage.sol\":3138:3147  _filename */\n      dup2\n        /* \"contracts/FileStorage.sol\":1085:1090  files */\n      0x01\n        /* \"contracts/FileStorage.sol\":1091:1100  _filename */\n      dup2\n        /* \"contracts/FileStorage.sol\":1085:1101  files[_filename] */\n      mload(0x40)\n      tag_141\n      swap2\n      swap1\n      tag_56\n      jump\t// in\n    tag_141:\n      swap1\n      dup2\n      mstore\n      0x20\n      add\n      mload(0x40)\n      dup1\n      swap2\n      sub\n      swap1\n      keccak256\n        /* \"contracts/FileStorage.sol\":1085:1108  files[_filename].exists */\n      0x02\n      add\n      0x00\n      swap1\n      sload\n      swap1\n      0x0100\n      exp\n      swap1\n      div\n      0xff\n      and\n        /* \"contracts/FileStorage.sol\":1077:1132  require(files[_filename].exists, \"File does not exist\") */\n      tag_142\n      jumpi\n      mload(0x40)\n      0x08c379a000000000000000000000000000000000000000000000000000000000\n      dup2\n      mstore\n      0x04\n      add\n      tag_143\n      swap1\n      tag_64\n      jump\t// in\n    tag_143:\n      mload(0x40)\n      dup1\n      swap2\n      sub\n      swap1\n      revert\n    tag_142:\n        /* \"contracts/FileStorage.sol\":3167:3172  files */\n      0x01\n        /* \"contracts/FileStorage.sol\":3173:3182  _filename */\n      dup4\n        /* \"contracts/FileStorage.sol\":3167:3183  files[_filename] */\n      mload(0x40)\n      tag_145\n      swap2\n      swap1\n      tag_56\n      jump\t// in\n    tag_145:\n      swap1\n      dup2\n      mstore\n      0x20\n      add\n      mload(0x40)\n      dup1\n      swap2\n      sub\n      swap1\n      keccak256\n      0x00\n        /* \"contracts/FileStorage.sol\":3160:3183  delete files[_filename] */\n      dup1\n      dup3\n      add\n      0x00\n      tag_146\n      swap2\n      swap1\n      tag_73\n      jump\t// in\n    tag_146:\n      0x01\n      dup3\n      add\n      0x00\n      tag_147\n      swap2\n      swap1\n      tag_73\n      jump\t// in\n    tag_147:\n      0x02\n      dup3\n      add\n      exp(0x0100, 0x00)\n      dup2\n      sload\n      swap1\n      0xff\n      mul\n      not\n      and\n      swap1\n      sstore\n      0x02\n      dup3\n      add\n      exp(0x0100, 0x01)\n      dup2\n      sload\n      swap1\n      0xffffffffffffffffffffffffffffffffffffffff\n      mul\n      not\n      and\n      swap1\n      sstore\n      pop\n      pop\n        /* \"contracts/FileStorage.sol\":3235:3241  uint i */\n      0x00\n        /* \"contracts/FileStorage.sol\":3230:3523  for (uint i = 0; i < fileList.length; i++) {... */\n    tag_148:\n        /* \"contracts/FileStorage.sol\":3251:3259  fileList */\n      0x02\n        /* \"contracts/FileStorage.sol\":3251:3266  fileList.length */\n      dup1\n      sload\n      swap1\n      pop\n        /* \"contracts/FileStorage.sol\":3247:3248  i */\n      dup2\n        /* \"contracts/FileStorage.sol\":3247:3266  i < fileList.length */\n      lt\n        /* \"contracts/FileStorage.sol\":3230:3523  for (uint i = 0; i < fileList.length; i++) {... */\n      iszero\n      tag_149\n      jumpi\n        /* \"contracts/FileStorage.sol\":3363:3372  _filename */\n      dup4\n        /* \"contracts/FileStorage.sol\":3346:3373  abi.encodePacked(_filename) */\n      add(0x20, mload(0x40))\n      tag_151\n      swap2\n      swap1\n      tag_56\n      jump\t// in\n    tag_151:\n      mload(0x40)\n      0x20\n      dup2\n      dup4\n      sub\n      sub\n      dup2\n      mstore\n      swap1\n      0x40\n      mstore\n        /* \"contracts/FileStorage.sol\":3336:3374  keccak256(abi.encodePacked(_filename)) */\n      dup1\n      mload\n      swap1\n      0x20\n      add\n      keccak256\n        /* \"contracts/FileStorage.sol\":3319:3327  fileList */\n      0x02\n        /* \"contracts/FileStorage.sol\":3328:3329  i */\n      dup3\n        /* \"contracts/FileStorage.sol\":3319:3330  fileList[i] */\n      dup2\n      sload\n      dup2\n      lt\n      tag_152\n      jumpi\n      tag_153\n      tag_103\n      jump\t// in\n    tag_153:\n    tag_152:\n      swap1\n      0x00\n      mstore\n      keccak256(0x00, 0x20)\n      add\n        /* \"contracts/FileStorage.sol\":3302:3331  abi.encodePacked(fileList[i]) */\n      add(0x20, mload(0x40))\n      tag_155\n      swap2\n      swap1\n      tag_156\n      jump\t// in\n    tag_155:\n      mload(0x40)\n      0x20\n      dup2\n      dup4\n      sub\n      sub\n      dup2\n      mstore\n      swap1\n      0x40\n      mstore\n        /* \"contracts/FileStorage.sol\":3292:3332  keccak256(abi.encodePacked(fileList[i])) */\n      dup1\n      mload\n      swap1\n      0x20\n      add\n      keccak256\n        /* \"contracts/FileStorage.sol\":3292:3374  keccak256(abi.encodePacked(fileList[i])) == keccak256(abi.encodePacked(_filename)) */\n      sub\n        /* \"contracts/FileStorage.sol\":3288:3512  if (keccak256(abi.encodePacked(fileList[i])) == keccak256(abi.encodePacked(_filename))) {... */\n      tag_157\n      jumpi\n        /* \"contracts/FileStorage.sol\":3409:3417  fileList */\n      0x02\n        /* \"contracts/FileStorage.sol\":3436:3437  1 */\n      0x01\n        /* \"contracts/FileStorage.sol\":3418:3426  fileList */\n      0x02\n        /* \"contracts/FileStorage.sol\":3418:3433  fileList.length */\n      dup1\n      sload\n      swap1\n      pop\n        /* \"contracts/FileStorage.sol\":3418:3437  fileList.length - 1 */\n      tag_158\n      swap2\n      swap1\n      tag_159\n      jump\t// in\n    tag_158:\n        /* \"contracts/FileStorage.sol\":3409:3438  fileList[fileList.length - 1] */\n      dup2\n      sload\n      dup2\n      lt\n      tag_160\n      jumpi\n      tag_161\n      tag_103\n      jump\t// in\n    tag_161:\n    tag_160:\n      swap1\n      0x00\n      mstore\n      keccak256(0x00, 0x20)\n      add\n        /* \"contracts/FileStorage.sol\":3395:3403  fileList */\n      0x02\n        /* \"contracts/FileStorage.sol\":3404:3405  i */\n      dup3\n        /* \"contracts/FileStorage.sol\":3395:3406  fileList[i] */\n      dup2\n      sload\n      dup2\n      lt\n      tag_163\n      jumpi\n      tag_164\n      tag_103\n      jump\t// in\n    tag_164:\n    tag_163:\n      swap1\n      0x00\n      mstore\n      keccak256(0x00, 0x20)\n      add\n        /* \"contracts/FileStorage.sol\":3395:3438  fileList[i] = fileList[fileList.length - 1] */\n      swap1\n      dup2\n      tag_166\n      swap2\n      swap1\n      tag_167\n      jump\t// in\n    tag_166:\n      pop\n        /* \"contracts/FileStorage.sol\":3458:3466  fileList */\n      0x02\n        /* \"contracts/FileStorage.sol\":3458:3472  fileList.pop() */\n      dup1\n      sload\n      dup1\n      tag_168\n      jumpi\n      tag_169\n      tag_170\n      jump\t// in\n    tag_169:\n    tag_168:\n      0x01\n      swap1\n      sub\n      dup2\n      dup2\n      swap1\n      0x00\n      mstore\n      keccak256(0x00, 0x20)\n      add\n      0x00\n      tag_172\n      swap2\n      swap1\n      tag_73\n      jump\t// in\n    tag_172:\n      swap1\n      sstore\n        /* \"contracts/FileStorage.sol\":3491:3496  break */\n      jump(tag_149)\n        /* \"contracts/FileStorage.sol\":3288:3512  if (keccak256(abi.encodePacked(fileList[i])) == keccak256(abi.encodePacked(_filename))) {... */\n    tag_157:\n        /* \"contracts/FileStorage.sol\":3268:3271  i++ */\n      dup1\n      dup1\n      0x01\n      add\n      swap2\n      pop\n      pop\n        /* \"contracts/FileStorage.sol\":3230:3523  for (uint i = 0; i < fileList.length; i++) {... */\n      jump(tag_148)\n    tag_149:\n      pop\n        /* \"contracts/FileStorage.sol\":3533:3542  fileCount */\n      0x00\n      dup1\n        /* \"contracts/FileStorage.sol\":3533:3544  fileCount-- */\n      dup2\n      dup2\n      swap1\n      sload\n      swap1\n      0x0100\n      exp\n      swap1\n      div\n      0xffff\n      and\n      dup1\n      swap3\n      swap2\n      swap1\n      tag_173\n      swap1\n      tag_174\n      jump\t// in\n    tag_173:\n      swap2\n      swap1\n      0x0100\n      exp\n      dup2\n      sload\n      dup2\n      0xffff\n      mul\n      not\n      and\n      swap1\n      dup4\n      0xffff\n      and\n      mul\n      or\n      swap1\n      sstore\n      pop\n      pop\n        /* \"contracts/FileStorage.sol\":3560:3582  FileDeleted(_filename) */\n      0x584fb2b00bcb43e608b5efabffaa6c6037e3f5fd1a3ec96ea172ada6056d6174\n        /* \"contracts/FileStorage.sol\":3572:3581  _filename */\n      dup4\n        /* \"contracts/FileStorage.sol\":3560:3582  FileDeleted(_filename) */\n      mload(0x40)\n      tag_175\n      swap2\n      swap1\n      tag_23\n      jump\t// in\n    tag_175:\n      mload(0x40)\n      dup1\n      swap2\n      sub\n      swap1\n      log1\n        /* \"contracts/FileStorage.sol\":1004:1005  _ */\n      pop\n        /* \"contracts/FileStorage.sol\":3048:3590  function deleteFile(string memory _filename) external onlyFileOwner(_filename) fileExists(_filename) {... */\n      pop\n      pop\n      jump\t// out\n        /* \"contracts/FileStorage.sol\":4539:4634  function listFiles() external view returns (string[] memory) {... */\n    tag_39:\n        /* \"contracts/FileStorage.sol\":4583:4598  string[] memory */\n      0x60\n        /* \"contracts/FileStorage.sol\":4618:4626  fileList */\n      0x02\n        /* \"contracts/FileStorage.sol\":4611:4626  return fileList */\n      dup1\n      sload\n      dup1\n      0x20\n      mul\n      0x20\n      add\n      mload(0x40)\n      swap1\n      dup2\n      add\n      0x40\n      mstore\n      dup1\n      swap3\n      swap2\n      swap1\n      dup2\n      dup2\n      mstore\n      0x20\n      add\n      0x00\n      swap1\n    tag_177:\n      dup3\n      dup3\n      lt\n      iszero\n      tag_178\n      jumpi\n      dup4\n      dup3\n      swap1\n      0x00\n      mstore\n      keccak256(0x00, 0x20)\n      add\n      dup1\n      sload\n      tag_180\n      swap1\n      tag_90\n      jump\t// in\n    tag_180:\n      dup1\n      0x1f\n      add\n      0x20\n      dup1\n      swap2\n      div\n      mul\n      0x20\n      add\n      mload(0x40)\n      swap1\n      dup2\n      add\n      0x40\n      mstore\n      dup1\n      swap3\n      swap2\n      swap1\n      dup2\n      dup2\n      mstore\n      0x20\n      add\n      dup3\n      dup1\n      sload\n      tag_181\n      swap1\n      tag_90\n      jump\t// in\n    tag_181:\n      dup1\n      iszero\n      tag_182\n      jumpi\n      dup1\n      0x1f\n      lt\n      tag_183\n      jumpi\n      0x0100\n      dup1\n      dup4\n      sload\n      div\n      mul\n      dup4\n      mstore\n      swap2\n      0x20\n      add\n      swap2\n      jump(tag_182)\n    tag_183:\n      dup3\n      add\n      swap2\n      swap1\n      0x00\n      mstore\n      keccak256(0x00, 0x20)\n      swap1\n    tag_184:\n      dup2\n      sload\n      dup2\n      mstore\n      swap1\n      0x01\n      add\n      swap1\n      0x20\n      add\n      dup1\n      dup4\n      gt\n      tag_184\n      jumpi\n      dup3\n      swap1\n      sub\n      0x1f\n      and\n      dup3\n      add\n      swap2\n    tag_182:\n      pop\n      pop\n      pop\n      pop\n      pop\n      dup2\n      mstore\n      0x20\n      add\n      swap1\n      0x01\n      add\n      swap1\n      jump(tag_177)\n    tag_178:\n      pop\n      pop\n      pop\n      pop\n      swap1\n      pop\n        /* \"contracts/FileStorage.sol\":4539:4634  function listFiles() external view returns (string[] memory) {... */\n      swap1\n      jump\t// out\n        /* \"contracts/FileStorage.sol\":2357:2698  function appendToFile(string memory _filename, string memory _newContent) external fileExists(_filename) {... */\n    tag_44:\n        /* \"contracts/FileStorage.sol\":2451:2460  _filename */\n      dup2\n        /* \"contracts/FileStorage.sol\":1085:1090  files */\n      0x01\n        /* \"contracts/FileStorage.sol\":1091:1100  _filename */\n      dup2\n        /* \"contracts/FileStorage.sol\":1085:1101  files[_filename] */\n      mload(0x40)\n      tag_186\n      swap2\n      swap1\n      tag_56\n      jump\t// in\n    tag_186:\n      swap1\n      dup2\n      mstore\n      0x20\n      add\n      mload(0x40)\n      dup1\n      swap2\n      sub\n      swap1\n      keccak256\n        /* \"contracts/FileStorage.sol\":1085:1108  files[_filename].exists */\n      0x02\n      add\n      0x00\n      swap1\n      sload\n      swap1\n      0x0100\n      exp\n      swap1\n      div\n      0xff\n      and\n        /* \"contracts/FileStorage.sol\":1077:1132  require(files[_filename].exists, \"File does not exist\") */\n      tag_187\n      jumpi\n      mload(0x40)\n      0x08c379a000000000000000000000000000000000000000000000000000000000\n      dup2\n      mstore\n      0x04\n      add\n      tag_188\n      swap1\n      tag_64\n      jump\t// in\n    tag_188:\n      mload(0x40)\n      dup1\n      swap2\n      sub\n      swap1\n      revert\n    tag_187:\n        /* \"contracts/FileStorage.sol\":2518:2519  2 */\n      0x02\n        /* \"contracts/FileStorage.sol\":2481:2486  files */\n      0x01\n        /* \"contracts/FileStorage.sol\":2487:2496  _filename */\n      dup5\n        /* \"contracts/FileStorage.sol\":2481:2497  files[_filename] */\n      mload(0x40)\n      tag_190\n      swap2\n      swap1\n      tag_56\n      jump\t// in\n    tag_190:\n      swap1\n      dup2\n      mstore\n      0x20\n      add\n      mload(0x40)\n      dup1\n      swap2\n      sub\n      swap1\n      keccak256\n        /* \"contracts/FileStorage.sol\":2481:2502  files[_filename].mode */\n      0x03\n      add\n        /* \"contracts/FileStorage.sol\":2481:2514  files[_filename].mode[msg.sender] */\n      0x00\n        /* \"contracts/FileStorage.sol\":2503:2513  msg.sender */\n      caller\n        /* \"contracts/FileStorage.sol\":2481:2514  files[_filename].mode[msg.sender] */\n      0xffffffffffffffffffffffffffffffffffffffff\n      and\n      0xffffffffffffffffffffffffffffffffffffffff\n      and\n      dup2\n      mstore\n      0x20\n      add\n      swap1\n      dup2\n      mstore\n      0x20\n      add\n      0x00\n      keccak256\n      0x00\n      swap1\n      sload\n      swap1\n      0x0100\n      exp\n      swap1\n      div\n      0xff\n      and\n        /* \"contracts/FileStorage.sol\":2481:2519  files[_filename].mode[msg.sender] >= 2 */\n      0xff\n      and\n      lt\n      iszero\n        /* \"contracts/FileStorage.sol\":2473:2540  require(files[_filename].mode[msg.sender] >= 2, \"No append access\") */\n      tag_191\n      jumpi\n      mload(0x40)\n      0x08c379a000000000000000000000000000000000000000000000000000000000\n      dup2\n      mstore\n      0x04\n      add\n      tag_192\n      swap1\n      tag_193\n      jump\t// in\n    tag_192:\n      mload(0x40)\n      dup1\n      swap2\n      sub\n      swap1\n      revert\n    tag_191:\n        /* \"contracts/FileStorage.sol\":2592:2597  files */\n      0x01\n        /* \"contracts/FileStorage.sol\":2598:2607  _filename */\n      dup4\n        /* \"contracts/FileStorage.sol\":2592:2608  files[_filename] */\n      mload(0x40)\n      tag_194\n      swap2\n      swap1\n      tag_56\n      jump\t// in\n    tag_194:\n      swap1\n      dup2\n      mstore\n      0x20\n      add\n      mload(0x40)\n      dup1\n      swap2\n      sub\n      swap1\n      keccak256\n        /* \"contracts/FileStorage.sol\":2592:2616  files[_filename].content */\n      0x01\n      add\n        /* \"contracts/FileStorage.sol\":2624:2635  _newContent */\n      dup3\n        /* \"contracts/FileStorage.sol\":2578:2636  string.concat(files[_filename].content, \"\\n\", _newContent) */\n      add(0x20, mload(0x40))\n      tag_195\n      swap3\n      swap2\n      swap1\n      tag_196\n      jump\t// in\n    tag_195:\n      mload(0x40)\n      0x20\n      dup2\n      dup4\n      sub\n      sub\n      dup2\n      mstore\n      swap1\n      0x40\n      mstore\n        /* \"contracts/FileStorage.sol\":2551:2556  files */\n      0x01\n        /* \"contracts/FileStorage.sol\":2557:2566  _filename */\n      dup5\n        /* \"contracts/FileStorage.sol\":2551:2567  files[_filename] */\n      mload(0x40)\n      tag_197\n      swap2\n      swap1\n      tag_56\n      jump\t// in\n    tag_197:\n      swap1\n      dup2\n      mstore\n      0x20\n      add\n      mload(0x40)\n      dup1\n      swap2\n      sub\n      swap1\n      keccak256\n        /* \"contracts/FileStorage.sol\":2551:2575  files[_filename].content */\n      0x01\n      add\n        /* \"contracts/FileStorage.sol\":2551:2636  files[_filename].content = string.concat(files[_filename].content, \"\\n\", _newContent) */\n      swap1\n      dup2\n      tag_198\n      swap2\n      swap1\n      tag_76\n      jump\t// in\n    tag_198:\n      pop\n        /* \"contracts/FileStorage.sol\":2652:2690  AppendedToFile(_filename, _newContent) */\n      0xcee34ecf9262a89dc00b9660881b6f33b9679b279edf9369fb194621179b3ea1\n        /* \"contracts/FileStorage.sol\":2667:2676  _filename */\n      dup4\n        /* \"contracts/FileStorage.sol\":2678:2689  _newContent */\n      dup4\n        /* \"contracts/FileStorage.sol\":2652:2690  AppendedToFile(_filename, _newContent) */\n      mload(0x40)\n      tag_199\n      swap3\n      swap2\n      swap1\n      tag_78\n      jump\t// in\n    tag_199:\n      mload(0x40)\n      dup1\n      swap2\n      sub\n      swap1\n      log1\n        /* \"contracts/FileStorage.sol\":2357:2698  function appendToFile(string memory _filename, string memory _newContent) external fileExists(_filename) {... */\n      pop\n      pop\n      pop\n      jump\t// out\n        /* \"contracts/FileStorage.sol\":489:525  mapping(string => File) public files */\n    tag_47:\n      0x01\n      dup2\n      dup1\n      mload\n      0x20\n      dup2\n      add\n      dup3\n      add\n      dup1\n      mload\n      dup5\n      dup3\n      mstore\n      0x20\n      dup4\n      add\n      0x20\n      dup6\n      add\n      keccak256\n      dup2\n      dup4\n      mstore\n      dup1\n      swap6\n      pop\n      pop\n      pop\n      pop\n      pop\n      pop\n      0x00\n      swap2\n      pop\n      swap1\n      pop\n      dup1\n      0x00\n      add\n      dup1\n      sload\n      tag_200\n      swap1\n      tag_90\n      jump\t// in\n    tag_200:\n      dup1\n      0x1f\n      add\n      0x20\n      dup1\n      swap2\n      div\n      mul\n      0x20\n      add\n      mload(0x40)\n      swap1\n      dup2\n      add\n      0x40\n      mstore\n      dup1\n      swap3\n      swap2\n      swap1\n      dup2\n      dup2\n      mstore\n      0x20\n      add\n      dup3\n      dup1\n      sload\n      tag_201\n      swap1\n      tag_90\n      jump\t// in\n    tag_201:\n      dup1\n      iszero\n      tag_202\n      jumpi\n      dup1\n      0x1f\n      lt\n      tag_203\n      jumpi\n      0x0100\n      dup1\n      dup4\n      sload\n      div\n      mul\n      dup4\n      mstore\n      swap2\n      0x20\n      add\n      swap2\n      jump(tag_202)\n    tag_203:\n      dup3\n      add\n      swap2\n      swap1\n      0x00\n      mstore\n      keccak256(0x00, 0x20)\n      swap1\n    tag_204:\n      dup2\n      sload\n      dup2\n      mstore\n      swap1\n      0x01\n      add\n      swap1\n      0x20\n      add\n      dup1\n      dup4\n      gt\n      tag_204\n      jumpi\n      dup3\n      swap1\n      sub\n      0x1f\n      and\n      dup3\n      add\n      swap2\n    tag_202:\n      pop\n      pop\n      pop\n      pop\n      pop\n      swap1\n      dup1\n      0x01\n      add\n      dup1\n      sload\n      tag_205\n      swap1\n      tag_90\n      jump\t// in\n    tag_205:\n      dup1\n      0x1f\n      add\n      0x20\n      dup1\n      swap2\n      div\n      mul\n      0x20\n      add\n      mload(0x40)\n      swap1\n      dup2\n      add\n      0x40\n      mstore\n      dup1\n      swap3\n      swap2\n      swap1\n      dup2\n      dup2\n      mstore\n      0x20\n      add\n      dup3\n      dup1\n      sload\n      tag_206\n      swap1\n      tag_90\n      jump\t// in\n    tag_206:\n      dup1\n      iszero\n      tag_207\n      jumpi\n      dup1\n      0x1f\n      lt\n      tag_208\n      jumpi\n      0x0100\n      dup1\n      dup4\n      sload\n      div\n      mul\n      dup4\n      mstore\n      swap2\n      0x20\n      add\n      swap2\n      jump(tag_207)\n    tag_208:\n      dup3\n      add\n      swap2\n      swap1\n      0x00\n      mstore\n      keccak256(0x00, 0x20)\n      swap1\n    tag_209:\n      dup2\n      sload\n      dup2\n      mstore\n      swap1\n      0x01\n      add\n      swap1\n      0x20\n      add\n      dup1\n      dup4\n      gt\n      tag_209\n      jumpi\n      dup3\n      swap1\n      sub\n      0x1f\n      and\n      dup3\n      add\n      swap2\n    tag_207:\n      pop\n      pop\n      pop\n      pop\n      pop\n      swap1\n      dup1\n      0x02\n      add\n      0x00\n      swap1\n      sload\n      swap1\n      0x0100\n      exp\n      swap1\n      div\n      0xff\n      and\n      swap1\n      dup1\n      0x02\n      add\n      0x01\n      swap1\n      sload\n      swap1\n      0x0100\n      exp\n      swap1\n      div\n      0xffffffffffffffffffffffffffffffffffffffff\n      and\n      swap1\n      pop\n      dup5\n      jump\t// out\n        /* \"contracts/FileStorage.sol\":3649:3914  function changeFilePermission(string memory _filename, address _addr, uint8 _mode) external onlyFileOwner(_filename) fileExists(_filename) {... */\n    tag_53:\n        /* \"contracts/FileStorage.sol\":3755:3764  _filename */\n      dup3\n        /* \"contracts/FileStorage.sol\":931:936  files */\n      0x01\n        /* \"contracts/FileStorage.sol\":937:946  _filename */\n      dup2\n        /* \"contracts/FileStorage.sol\":931:947  files[_filename] */\n      mload(0x40)\n      tag_211\n      swap2\n      swap1\n      tag_56\n      jump\t// in\n    tag_211:\n      swap1\n      dup2\n      mstore\n      0x20\n      add\n      mload(0x40)\n      dup1\n      swap2\n      sub\n      swap1\n      keccak256\n        /* \"contracts/FileStorage.sol\":931:957  files[_filename].fileOwner */\n      0x02\n      add\n      0x01\n      swap1\n      sload\n      swap1\n      0x0100\n      exp\n      swap1\n      div\n      0xffffffffffffffffffffffffffffffffffffffff\n      and\n        /* \"contracts/FileStorage.sol\":917:957  msg.sender == files[_filename].fileOwner */\n      0xffffffffffffffffffffffffffffffffffffffff\n      and\n        /* \"contracts/FileStorage.sol\":917:927  msg.sender */\n      caller\n        /* \"contracts/FileStorage.sol\":917:957  msg.sender == files[_filename].fileOwner */\n      0xffffffffffffffffffffffffffffffffffffffff\n      and\n      eq\n        /* \"contracts/FileStorage.sol\":909:993  require(msg.sender == files[_filename].fileOwner, \"Only the file owner can do this\") */\n      tag_212\n      jumpi\n      mload(0x40)\n      0x08c379a000000000000000000000000000000000000000000000000000000000\n      dup2\n      mstore\n      0x04\n      add\n      tag_213\n      swap1\n      tag_59\n      jump\t// in\n    tag_213:\n      mload(0x40)\n      dup1\n      swap2\n      sub\n      swap1\n      revert\n    tag_212:\n        /* \"contracts/FileStorage.sol\":3777:3786  _filename */\n      dup4\n        /* \"contracts/FileStorage.sol\":1085:1090  files */\n      0x01\n        /* \"contracts/FileStorage.sol\":1091:1100  _filename */\n      dup2\n        /* \"contracts/FileStorage.sol\":1085:1101  files[_filename] */\n      mload(0x40)\n      tag_215\n      swap2\n      swap1\n      tag_56\n      jump\t// in\n    tag_215:\n      swap1\n      dup2\n      mstore\n      0x20\n      add\n      mload(0x40)\n      dup1\n      swap2\n      sub\n      swap1\n      keccak256\n        /* \"contracts/FileStorage.sol\":1085:1108  files[_filename].exists */\n      0x02\n      add\n      0x00\n      swap1\n      sload\n      swap1\n      0x0100\n      exp\n      swap1\n      div\n      0xff\n      and\n        /* \"contracts/FileStorage.sol\":1077:1132  require(files[_filename].exists, \"File does not exist\") */\n      tag_216\n      jumpi\n      mload(0x40)\n      0x08c379a000000000000000000000000000000000000000000000000000000000\n      dup2\n      mstore\n      0x04\n      add\n      tag_217\n      swap1\n      tag_64\n      jump\t// in\n    tag_217:\n      mload(0x40)\n      dup1\n      swap2\n      sub\n      swap1\n      revert\n    tag_216:\n        /* \"contracts/FileStorage.sol\":3816:3817  0 */\n      0x00\n        /* \"contracts/FileStorage.sol\":3807:3812  _mode */\n      dup4\n        /* \"contracts/FileStorage.sol\":3807:3817  _mode >= 0 */\n      0xff\n      and\n      lt\n      iszero\n        /* \"contracts/FileStorage.sol\":3807:3831  _mode >= 0 && _mode <= 3 */\n      dup1\n      iszero\n      tag_219\n      jumpi\n      pop\n        /* \"contracts/FileStorage.sol\":3830:3831  3 */\n      0x03\n        /* \"contracts/FileStorage.sol\":3821:3826  _mode */\n      dup4\n        /* \"contracts/FileStorage.sol\":3821:3831  _mode <= 3 */\n      0xff\n      and\n      gt\n      iszero\n        /* \"contracts/FileStorage.sol\":3807:3831  _mode >= 0 && _mode <= 3 */\n    tag_219:\n        /* \"contracts/FileStorage.sol\":3799:3859  require(_mode >= 0 && _mode <= 3, \"Invalid permission mode\") */\n      tag_220\n      jumpi\n      mload(0x40)\n      0x08c379a000000000000000000000000000000000000000000000000000000000\n      dup2\n      mstore\n      0x04\n      add\n      tag_221\n      swap1\n      tag_222\n      jump\t// in\n    tag_221:\n      mload(0x40)\n      dup1\n      swap2\n      sub\n      swap1\n      revert\n    tag_220:\n        /* \"contracts/FileStorage.sol\":3901:3906  _mode */\n      dup3\n        /* \"contracts/FileStorage.sol\":3870:3875  files */\n      0x01\n        /* \"contracts/FileStorage.sol\":3876:3885  _filename */\n      dup7\n        /* \"contracts/FileStorage.sol\":3870:3886  files[_filename] */\n      mload(0x40)\n      tag_223\n      swap2\n      swap1\n      tag_56\n      jump\t// in\n    tag_223:\n      swap1\n      dup2\n      mstore\n      0x20\n      add\n      mload(0x40)\n      dup1\n      swap2\n      sub\n      swap1\n      keccak256\n        /* \"contracts/FileStorage.sol\":3870:3891  files[_filename].mode */\n      0x03\n      add\n        /* \"contracts/FileStorage.sol\":3870:3898  files[_filename].mode[_addr] */\n      0x00\n        /* \"contracts/FileStorage.sol\":3892:3897  _addr */\n      dup7\n        /* \"contracts/FileStorage.sol\":3870:3898  files[_filename].mode[_addr] */\n      0xffffffffffffffffffffffffffffffffffffffff\n      and\n      0xffffffffffffffffffffffffffffffffffffffff\n      and\n      dup2\n      mstore\n      0x20\n      add\n      swap1\n      dup2\n      mstore\n      0x20\n      add\n      0x00\n      keccak256\n      0x00\n        /* \"contracts/FileStorage.sol\":3870:3906  files[_filename].mode[_addr] = _mode */\n      0x0100\n      exp\n      dup2\n      sload\n      dup2\n      0xff\n      mul\n      not\n      and\n      swap1\n      dup4\n      0xff\n      and\n      mul\n      or\n      swap1\n      sstore\n      pop\n        /* \"contracts/FileStorage.sol\":1004:1005  _ */\n      pop\n        /* \"contracts/FileStorage.sol\":3649:3914  function changeFilePermission(string memory _filename, address _addr, uint8 _mode) external onlyFileOwner(_filename) fileExists(_filename) {... */\n      pop\n      pop\n      pop\n      pop\n      jump\t// out\n    tag_73:\n      pop\n      dup1\n      sload\n      tag_224\n      swap1\n      tag_90\n      jump\t// in\n    tag_224:\n      0x00\n      dup3\n      sstore\n      dup1\n      0x1f\n      lt\n      tag_226\n      jumpi\n      pop\n      jump(tag_225)\n    tag_226:\n      0x1f\n      add\n      0x20\n      swap1\n      div\n      swap1\n      0x00\n      mstore\n      keccak256(0x00, 0x20)\n      swap1\n      dup2\n      add\n      swap1\n      tag_227\n      swap2\n      swap1\n      tag_228\n      jump\t// in\n    tag_227:\n    tag_225:\n      pop\n      jump\t// out\n    tag_228:\n    tag_229:\n      dup1\n      dup3\n      gt\n      iszero\n      tag_230\n      jumpi\n      0x00\n      dup2\n      0x00\n      swap1\n      sstore\n      pop\n      0x01\n      add\n      jump(tag_229)\n    tag_230:\n      pop\n      swap1\n      jump\t// out\n        /* \"#utility.yul\":7:82   */\n    tag_231:\n        /* \"#utility.yul\":40:46   */\n      0x00\n        /* \"#utility.yul\":73:75   */\n      0x40\n        /* \"#utility.yul\":67:76   */\n      mload\n        /* \"#utility.yul\":57:76   */\n      swap1\n      pop\n        /* \"#utility.yul\":7:82   */\n      swap1\n      jump\t// out\n        /* \"#utility.yul\":88:205   */\n    tag_232:\n        /* \"#utility.yul\":197:198   */\n      0x00\n        /* \"#utility.yul\":194:195   */\n      dup1\n        /* \"#utility.yul\":187:199   */\n      revert\n        /* \"#utility.yul\":211:328   */\n    tag_233:\n        /* \"#utility.yul\":320:321   */\n      0x00\n        /* \"#utility.yul\":317:318   */\n      dup1\n        /* \"#utility.yul\":310:322   */\n      revert\n        /* \"#utility.yul\":334:451   */\n    tag_234:\n        /* \"#utility.yul\":443:444   */\n      0x00\n        /* \"#utility.yul\":440:441   */\n      dup1\n        /* \"#utility.yul\":433:445   */\n      revert\n        /* \"#utility.yul\":457:574   */\n    tag_235:\n        /* \"#utility.yul\":566:567   */\n      0x00\n        /* \"#utility.yul\":563:564   */\n      dup1\n        /* \"#utility.yul\":556:568   */\n      revert\n        /* \"#utility.yul\":580:682   */\n    tag_236:\n        /* \"#utility.yul\":621:627   */\n      0x00\n        /* \"#utility.yul\":672:674   */\n      0x1f\n        /* \"#utility.yul\":668:675   */\n      not\n        /* \"#utility.yul\":663:665   */\n      0x1f\n        /* \"#utility.yul\":656:661   */\n      dup4\n        /* \"#utility.yul\":652:666   */\n      add\n        /* \"#utility.yul\":648:676   */\n      and\n        /* \"#utility.yul\":638:676   */\n      swap1\n      pop\n        /* \"#utility.yul\":580:682   */\n      swap2\n      swap1\n      pop\n      jump\t// out\n        /* \"#utility.yul\":688:868   */\n    tag_237:\n        /* \"#utility.yul\":736:813   */\n      0x4e487b7100000000000000000000000000000000000000000000000000000000\n        /* \"#utility.yul\":733:734   */\n      0x00\n        /* \"#utility.yul\":726:814   */\n      mstore\n        /* \"#utility.yul\":833:837   */\n      0x41\n        /* \"#utility.yul\":830:831   */\n      0x04\n        /* \"#utility.yul\":823:838   */\n      mstore\n        /* \"#utility.yul\":857:861   */\n      0x24\n        /* \"#utility.yul\":854:855   */\n      0x00\n        /* \"#utility.yul\":847:862   */\n      revert\n        /* \"#utility.yul\":874:1155   */\n    tag_238:\n        /* \"#utility.yul\":957:984   */\n      tag_320\n        /* \"#utility.yul\":979:983   */\n      dup3\n        /* \"#utility.yul\":957:984   */\n      tag_236\n      jump\t// in\n    tag_320:\n        /* \"#utility.yul\":949:955   */\n      dup2\n        /* \"#utility.yul\":945:985   */\n      add\n        /* \"#utility.yul\":1087:1093   */\n      dup2\n        /* \"#utility.yul\":1075:1085   */\n      dup2\n        /* \"#utility.yul\":1072:1094   */\n      lt\n        /* \"#utility.yul\":1051:1069   */\n      0xffffffffffffffff\n        /* \"#utility.yul\":1039:1049   */\n      dup3\n        /* \"#utility.yul\":1036:1070   */\n      gt\n        /* \"#utility.yul\":1033:1095   */\n      or\n        /* \"#utility.yul\":1030:1118   */\n      iszero\n      tag_321\n      jumpi\n        /* \"#utility.yul\":1098:1116   */\n      tag_322\n      tag_237\n      jump\t// in\n    tag_322:\n        /* \"#utility.yul\":1030:1118   */\n    tag_321:\n        /* \"#utility.yul\":1138:1148   */\n      dup1\n        /* \"#utility.yul\":1134:1136   */\n      0x40\n        /* \"#utility.yul\":1127:1149   */\n      mstore\n        /* \"#utility.yul\":917:1155   */\n      pop\n        /* \"#utility.yul\":874:1155   */\n      pop\n      pop\n      jump\t// out\n        /* \"#utility.yul\":1161:1290   */\n    tag_239:\n        /* \"#utility.yul\":1195:1201   */\n      0x00\n        /* \"#utility.yul\":1222:1242   */\n      tag_324\n      tag_231\n      jump\t// in\n    tag_324:\n        /* \"#utility.yul\":1212:1242   */\n      swap1\n      pop\n        /* \"#utility.yul\":1251:1284   */\n      tag_325\n        /* \"#utility.yul\":1279:1283   */\n      dup3\n        /* \"#utility.yul\":1271:1277   */\n      dup3\n        /* \"#utility.yul\":1251:1284   */\n      tag_238\n      jump\t// in\n    tag_325:\n        /* \"#utility.yul\":1161:1290   */\n      swap2\n      swap1\n      pop\n      jump\t// out\n        /* \"#utility.yul\":1296:1604   */\n    tag_240:\n        /* \"#utility.yul\":1358:1362   */\n      0x00\n        /* \"#utility.yul\":1448:1466   */\n      0xffffffffffffffff\n        /* \"#utility.yul\":1440:1446   */\n      dup3\n        /* \"#utility.yul\":1437:1467   */\n      gt\n        /* \"#utility.yul\":1434:1490   */\n      iszero\n      tag_327\n      jumpi\n        /* \"#utility.yul\":1470:1488   */\n      tag_328\n      tag_237\n      jump\t// in\n    tag_328:\n        /* \"#utility.yul\":1434:1490   */\n    tag_327:\n        /* \"#utility.yul\":1508:1537   */\n      tag_329\n        /* \"#utility.yul\":1530:1536   */\n      dup3\n        /* \"#utility.yul\":1508:1537   */\n      tag_236\n      jump\t// in\n    tag_329:\n        /* \"#utility.yul\":1500:1537   */\n      swap1\n      pop\n        /* \"#utility.yul\":1592:1596   */\n      0x20\n        /* \"#utility.yul\":1586:1590   */\n      dup2\n        /* \"#utility.yul\":1582:1597   */\n      add\n        /* \"#utility.yul\":1574:1597   */\n      swap1\n      pop\n        /* \"#utility.yul\":1296:1604   */\n      swap2\n      swap1\n      pop\n      jump\t// out\n        /* \"#utility.yul\":1610:1758   */\n    tag_241:\n        /* \"#utility.yul\":1708:1714   */\n      dup3\n        /* \"#utility.yul\":1703:1706   */\n      dup2\n        /* \"#utility.yul\":1698:1701   */\n      dup4\n        /* \"#utility.yul\":1685:1715   */\n      calldatacopy\n        /* \"#utility.yul\":1749:1750   */\n      0x00\n        /* \"#utility.yul\":1740:1746   */\n      dup4\n        /* \"#utility.yul\":1735:1738   */\n      dup4\n        /* \"#utility.yul\":1731:1747   */\n      add\n        /* \"#utility.yul\":1724:1751   */\n      mstore\n        /* \"#utility.yul\":1610:1758   */\n      pop\n      pop\n      pop\n      jump\t// out\n        /* \"#utility.yul\":1764:2189   */\n    tag_242:\n        /* \"#utility.yul\":1842:1847   */\n      0x00\n        /* \"#utility.yul\":1867:1933   */\n      tag_332\n        /* \"#utility.yul\":1883:1932   */\n      tag_333\n        /* \"#utility.yul\":1925:1931   */\n      dup5\n        /* \"#utility.yul\":1883:1932   */\n      tag_240\n      jump\t// in\n    tag_333:\n        /* \"#utility.yul\":1867:1933   */\n      tag_239\n      jump\t// in\n    tag_332:\n        /* \"#utility.yul\":1858:1933   */\n      swap1\n      pop\n        /* \"#utility.yul\":1956:1962   */\n      dup3\n        /* \"#utility.yul\":1949:1954   */\n      dup2\n        /* \"#utility.yul\":1942:1963   */\n      mstore\n        /* \"#utility.yul\":1994:1998   */\n      0x20\n        /* \"#utility.yul\":1987:1992   */\n      dup2\n        /* \"#utility.yul\":1983:1999   */\n      add\n        /* \"#utility.yul\":2032:2035   */\n      dup5\n        /* \"#utility.yul\":2023:2029   */\n      dup5\n        /* \"#utility.yul\":2018:2021   */\n      dup5\n        /* \"#utility.yul\":2014:2030   */\n      add\n        /* \"#utility.yul\":2011:2036   */\n      gt\n        /* \"#utility.yul\":2008:2120   */\n      iszero\n      tag_334\n      jumpi\n        /* \"#utility.yul\":2039:2118   */\n      tag_335\n      tag_235\n      jump\t// in\n    tag_335:\n        /* \"#utility.yul\":2008:2120   */\n    tag_334:\n        /* \"#utility.yul\":2129:2183   */\n      tag_336\n        /* \"#utility.yul\":2176:2182   */\n      dup5\n        /* \"#utility.yul\":2171:2174   */\n      dup3\n        /* \"#utility.yul\":2166:2169   */\n      dup6\n        /* \"#utility.yul\":2129:2183   */\n      tag_241\n      jump\t// in\n    tag_336:\n        /* \"#utility.yul\":1848:2189   */\n      pop\n        /* \"#utility.yul\":1764:2189   */\n      swap4\n      swap3\n      pop\n      pop\n      pop\n      jump\t// out\n        /* \"#utility.yul\":2209:2549   */\n    tag_243:\n        /* \"#utility.yul\":2265:2270   */\n      0x00\n        /* \"#utility.yul\":2314:2317   */\n      dup3\n        /* \"#utility.yul\":2307:2311   */\n      0x1f\n        /* \"#utility.yul\":2299:2305   */\n      dup4\n        /* \"#utility.yul\":2295:2312   */\n      add\n        /* \"#utility.yul\":2291:2318   */\n      slt\n        /* \"#utility.yul\":2281:2403   */\n      tag_338\n      jumpi\n        /* \"#utility.yul\":2322:2401   */\n      tag_339\n      tag_234\n      jump\t// in\n    tag_339:\n        /* \"#utility.yul\":2281:2403   */\n    tag_338:\n        /* \"#utility.yul\":2439:2445   */\n      dup2\n        /* \"#utility.yul\":2426:2446   */\n      calldataload\n        /* \"#utility.yul\":2464:2543   */\n      tag_340\n        /* \"#utility.yul\":2539:2542   */\n      dup5\n        /* \"#utility.yul\":2531:2537   */\n      dup3\n        /* \"#utility.yul\":2524:2528   */\n      0x20\n        /* \"#utility.yul\":2516:2522   */\n      dup7\n        /* \"#utility.yul\":2512:2529   */\n      add\n        /* \"#utility.yul\":2464:2543   */\n      tag_242\n      jump\t// in\n    tag_340:\n        /* \"#utility.yul\":2455:2543   */\n      swap2\n      pop\n        /* \"#utility.yul\":2271:2549   */\n      pop\n        /* \"#utility.yul\":2209:2549   */\n      swap3\n      swap2\n      pop\n      pop\n      jump\t// out\n        /* \"#utility.yul\":2555:3389   */\n    tag_16:\n        /* \"#utility.yul\":2643:2649   */\n      0x00\n        /* \"#utility.yul\":2651:2657   */\n      dup1\n        /* \"#utility.yul\":2700:2702   */\n      0x40\n        /* \"#utility.yul\":2688:2697   */\n      dup4\n        /* \"#utility.yul\":2679:2686   */\n      dup6\n        /* \"#utility.yul\":2675:2698   */\n      sub\n        /* \"#utility.yul\":2671:2703   */\n      slt\n        /* \"#utility.yul\":2668:2787   */\n      iszero\n      tag_342\n      jumpi\n        /* \"#utility.yul\":2706:2785   */\n      tag_343\n      tag_232\n      jump\t// in\n    tag_343:\n        /* \"#utility.yul\":2668:2787   */\n    tag_342:\n        /* \"#utility.yul\":2854:2855   */\n      0x00\n        /* \"#utility.yul\":2843:2852   */\n      dup4\n        /* \"#utility.yul\":2839:2856   */\n      add\n        /* \"#utility.yul\":2826:2857   */\n      calldataload\n        /* \"#utility.yul\":2884:2902   */\n      0xffffffffffffffff\n        /* \"#utility.yul\":2876:2882   */\n      dup2\n        /* \"#utility.yul\":2873:2903   */\n      gt\n        /* \"#utility.yul\":2870:2987   */\n      iszero\n      tag_344\n      jumpi\n        /* \"#utility.yul\":2906:2985   */\n      tag_345\n      tag_233\n      jump\t// in\n    tag_345:\n        /* \"#utility.yul\":2870:2987   */\n    tag_344:\n        /* \"#utility.yul\":3011:3074   */\n      tag_346\n        /* \"#utility.yul\":3066:3073   */\n      dup6\n        /* \"#utility.yul\":3057:3063   */\n      dup3\n        /* \"#utility.yul\":3046:3055   */\n      dup7\n        /* \"#utility.yul\":3042:3064   */\n      add\n        /* \"#utility.yul\":3011:3074   */\n      tag_243\n      jump\t// in\n    tag_346:\n        /* \"#utility.yul\":3001:3074   */\n      swap3\n      pop\n        /* \"#utility.yul\":2797:3084   */\n      pop\n        /* \"#utility.yul\":3151:3153   */\n      0x20\n        /* \"#utility.yul\":3140:3149   */\n      dup4\n        /* \"#utility.yul\":3136:3154   */\n      add\n        /* \"#utility.yul\":3123:3155   */\n      calldataload\n        /* \"#utility.yul\":3182:3200   */\n      0xffffffffffffffff\n        /* \"#utility.yul\":3174:3180   */\n      dup2\n        /* \"#utility.yul\":3171:3201   */\n      gt\n        /* \"#utility.yul\":3168:3285   */\n      iszero\n      tag_347\n      jumpi\n        /* \"#utility.yul\":3204:3283   */\n      tag_348\n      tag_233\n      jump\t// in\n    tag_348:\n        /* \"#utility.yul\":3168:3285   */\n    tag_347:\n        /* \"#utility.yul\":3309:3372   */\n      tag_349\n        /* \"#utility.yul\":3364:3371   */\n      dup6\n        /* \"#utility.yul\":3355:3361   */\n      dup3\n        /* \"#utility.yul\":3344:3353   */\n      dup7\n        /* \"#utility.yul\":3340:3362   */\n      add\n        /* \"#utility.yul\":3309:3372   */\n      tag_243\n      jump\t// in\n    tag_349:\n        /* \"#utility.yul\":3299:3372   */\n      swap2\n      pop\n        /* \"#utility.yul\":3094:3382   */\n      pop\n        /* \"#utility.yul\":2555:3389   */\n      swap3\n      pop\n      swap3\n      swap1\n      pop\n      jump\t// out\n        /* \"#utility.yul\":3395:3904   */\n    tag_20:\n        /* \"#utility.yul\":3464:3470   */\n      0x00\n        /* \"#utility.yul\":3513:3515   */\n      0x20\n        /* \"#utility.yul\":3501:3510   */\n      dup3\n        /* \"#utility.yul\":3492:3499   */\n      dup5\n        /* \"#utility.yul\":3488:3511   */\n      sub\n        /* \"#utility.yul\":3484:3516   */\n      slt\n        /* \"#utility.yul\":3481:3600   */\n      iszero\n      tag_351\n      jumpi\n        /* \"#utility.yul\":3519:3598   */\n      tag_352\n      tag_232\n      jump\t// in\n    tag_352:\n        /* \"#utility.yul\":3481:3600   */\n    tag_351:\n        /* \"#utility.yul\":3667:3668   */\n      0x00\n        /* \"#utility.yul\":3656:3665   */\n      dup3\n        /* \"#utility.yul\":3652:3669   */\n      add\n        /* \"#utility.yul\":3639:3670   */\n      calldataload\n        /* \"#utility.yul\":3697:3715   */\n      0xffffffffffffffff\n        /* \"#utility.yul\":3689:3695   */\n      dup2\n        /* \"#utility.yul\":3686:3716   */\n      gt\n        /* \"#utility.yul\":3683:3800   */\n      iszero\n      tag_353\n      jumpi\n        /* \"#utility.yul\":3719:3798   */\n      tag_354\n      tag_233\n      jump\t// in\n    tag_354:\n        /* \"#utility.yul\":3683:3800   */\n    tag_353:\n        /* \"#utility.yul\":3824:3887   */\n      tag_355\n        /* \"#utility.yul\":3879:3886   */\n      dup5\n        /* \"#utility.yul\":3870:3876   */\n      dup3\n        /* \"#utility.yul\":3859:3868   */\n      dup6\n        /* \"#utility.yul\":3855:3877   */\n      add\n        /* \"#utility.yul\":3824:3887   */\n      tag_243\n      jump\t// in\n    tag_355:\n        /* \"#utility.yul\":3814:3887   */\n      swap2\n      pop\n        /* \"#utility.yul\":3610:3897   */\n      pop\n        /* \"#utility.yul\":3395:3904   */\n      swap3\n      swap2\n      pop\n      pop\n      jump\t// out\n        /* \"#utility.yul\":3910:4009   */\n    tag_244:\n        /* \"#utility.yul\":3962:3968   */\n      0x00\n        /* \"#utility.yul\":3996:4001   */\n      dup2\n        /* \"#utility.yul\":3990:4002   */\n      mload\n        /* \"#utility.yul\":3980:4002   */\n      swap1\n      pop\n        /* \"#utility.yul\":3910:4009   */\n      swap2\n      swap1\n      pop\n      jump\t// out\n        /* \"#utility.yul\":4015:4184   */\n    tag_245:\n        /* \"#utility.yul\":4099:4110   */\n      0x00\n        /* \"#utility.yul\":4133:4139   */\n      dup3\n        /* \"#utility.yul\":4128:4131   */\n      dup3\n        /* \"#utility.yul\":4121:4140   */\n      mstore\n        /* \"#utility.yul\":4173:4177   */\n      0x20\n        /* \"#utility.yul\":4168:4171   */\n      dup3\n        /* \"#utility.yul\":4164:4178   */\n      add\n        /* \"#utility.yul\":4149:4178   */\n      swap1\n      pop\n        /* \"#utility.yul\":4015:4184   */\n      swap3\n      swap2\n      pop\n      pop\n      jump\t// out\n        /* \"#utility.yul\":4190:4329   */\n    tag_246:\n        /* \"#utility.yul\":4279:4285   */\n      dup3\n        /* \"#utility.yul\":4274:4277   */\n      dup2\n        /* \"#utility.yul\":4269:4272   */\n      dup4\n        /* \"#utility.yul\":4263:4286   */\n      mcopy\n        /* \"#utility.yul\":4320:4321   */\n      0x00\n        /* \"#utility.yul\":4311:4317   */\n      dup4\n        /* \"#utility.yul\":4306:4309   */\n      dup4\n        /* \"#utility.yul\":4302:4318   */\n      add\n        /* \"#utility.yul\":4295:4322   */\n      mstore\n        /* \"#utility.yul\":4190:4329   */\n      pop\n      pop\n      pop\n      jump\t// out\n        /* \"#utility.yul\":4335:4712   */\n    tag_247:\n        /* \"#utility.yul\":4423:4426   */\n      0x00\n        /* \"#utility.yul\":4451:4490   */\n      tag_360\n        /* \"#utility.yul\":4484:4489   */\n      dup3\n        /* \"#utility.yul\":4451:4490   */\n      tag_244\n      jump\t// in\n    tag_360:\n        /* \"#utility.yul\":4506:4577   */\n      tag_361\n        /* \"#utility.yul\":4570:4576   */\n      dup2\n        /* \"#utility.yul\":4565:4568   */\n      dup6\n        /* \"#utility.yul\":4506:4577   */\n      tag_245\n      jump\t// in\n    tag_361:\n        /* \"#utility.yul\":4499:4577   */\n      swap4\n      pop\n        /* \"#utility.yul\":4586:4651   */\n      tag_362\n        /* \"#utility.yul\":4644:4650   */\n      dup2\n        /* \"#utility.yul\":4639:4642   */\n      dup6\n        /* \"#utility.yul\":4632:4636   */\n      0x20\n        /* \"#utility.yul\":4625:4630   */\n      dup7\n        /* \"#utility.yul\":4621:4637   */\n      add\n        /* \"#utility.yul\":4586:4651   */\n      tag_246\n      jump\t// in\n    tag_362:\n        /* \"#utility.yul\":4676:4705   */\n      tag_363\n        /* \"#utility.yul\":4698:4704   */\n      dup2\n        /* \"#utility.yul\":4676:4705   */\n      tag_236\n      jump\t// in\n    tag_363:\n        /* \"#utility.yul\":4671:4674   */\n      dup5\n        /* \"#utility.yul\":4667:4706   */\n      add\n        /* \"#utility.yul\":4660:4706   */\n      swap2\n      pop\n        /* \"#utility.yul\":4427:4712   */\n      pop\n        /* \"#utility.yul\":4335:4712   */\n      swap3\n      swap2\n      pop\n      pop\n      jump\t// out\n        /* \"#utility.yul\":4718:5031   */\n    tag_23:\n        /* \"#utility.yul\":4831:4835   */\n      0x00\n        /* \"#utility.yul\":4869:4871   */\n      0x20\n        /* \"#utility.yul\":4858:4867   */\n      dup3\n        /* \"#utility.yul\":4854:4872   */\n      add\n        /* \"#utility.yul\":4846:4872   */\n      swap1\n      pop\n        /* \"#utility.yul\":4918:4927   */\n      dup2\n        /* \"#utility.yul\":4912:4916   */\n      dup2\n        /* \"#utility.yul\":4908:4928   */\n      sub\n        /* \"#utility.yul\":4904:4905   */\n      0x00\n        /* \"#utility.yul\":4893:4902   */\n      dup4\n        /* \"#utility.yul\":4889:4906   */\n      add\n        /* \"#utility.yul\":4882:4929   */\n      mstore\n        /* \"#utility.yul\":4946:5024   */\n      tag_365\n        /* \"#utility.yul\":5019:5023   */\n      dup2\n        /* \"#utility.yul\":5010:5016   */\n      dup5\n        /* \"#utility.yul\":4946:5024   */\n      tag_247\n      jump\t// in\n    tag_365:\n        /* \"#utility.yul\":4938:5024   */\n      swap1\n      pop\n        /* \"#utility.yul\":4718:5031   */\n      swap3\n      swap2\n      pop\n      pop\n      jump\t// out\n        /* \"#utility.yul\":5037:5163   */\n    tag_248:\n        /* \"#utility.yul\":5074:5081   */\n      0x00\n        /* \"#utility.yul\":5114:5156   */\n      0xffffffffffffffffffffffffffffffffffffffff\n        /* \"#utility.yul\":5107:5112   */\n      dup3\n        /* \"#utility.yul\":5103:5157   */\n      and\n        /* \"#utility.yul\":5092:5157   */\n      swap1\n      pop\n        /* \"#utility.yul\":5037:5163   */\n      swap2\n      swap1\n      pop\n      jump\t// out\n        /* \"#utility.yul\":5169:5265   */\n    tag_249:\n        /* \"#utility.yul\":5206:5213   */\n      0x00\n        /* \"#utility.yul\":5235:5259   */\n      tag_368\n        /* \"#utility.yul\":5253:5258   */\n      dup3\n        /* \"#utility.yul\":5235:5259   */\n      tag_248\n      jump\t// in\n    tag_368:\n        /* \"#utility.yul\":5224:5259   */\n      swap1\n      pop\n        /* \"#utility.yul\":5169:5265   */\n      swap2\n      swap1\n      pop\n      jump\t// out\n        /* \"#utility.yul\":5271:5393   */\n    tag_250:\n        /* \"#utility.yul\":5344:5368   */\n      tag_370\n        /* \"#utility.yul\":5362:5367   */\n      dup2\n        /* \"#utility.yul\":5344:5368   */\n      tag_249\n      jump\t// in\n    tag_370:\n        /* \"#utility.yul\":5337:5342   */\n      dup2\n        /* \"#utility.yul\":5334:5369   */\n      eq\n        /* \"#utility.yul\":5324:5387   */\n      tag_371\n      jumpi\n        /* \"#utility.yul\":5383:5384   */\n      0x00\n        /* \"#utility.yul\":5380:5381   */\n      dup1\n        /* \"#utility.yul\":5373:5385   */\n      revert\n        /* \"#utility.yul\":5324:5387   */\n    tag_371:\n        /* \"#utility.yul\":5271:5393   */\n      pop\n      jump\t// out\n        /* \"#utility.yul\":5399:5538   */\n    tag_251:\n        /* \"#utility.yul\":5445:5450   */\n      0x00\n        /* \"#utility.yul\":5483:5489   */\n      dup2\n        /* \"#utility.yul\":5470:5490   */\n      calldataload\n        /* \"#utility.yul\":5461:5490   */\n      swap1\n      pop\n        /* \"#utility.yul\":5499:5532   */\n      tag_373\n        /* \"#utility.yul\":5526:5531   */\n      dup2\n        /* \"#utility.yul\":5499:5532   */\n      tag_250\n      jump\t// in\n    tag_373:\n        /* \"#utility.yul\":5399:5538   */\n      swap3\n      swap2\n      pop\n      pop\n      jump\t// out\n        /* \"#utility.yul\":5544:6198   */\n    tag_26:\n        /* \"#utility.yul\":5622:5628   */\n      0x00\n        /* \"#utility.yul\":5630:5636   */\n      dup1\n        /* \"#utility.yul\":5679:5681   */\n      0x40\n        /* \"#utility.yul\":5667:5676   */\n      dup4\n        /* \"#utility.yul\":5658:5665   */\n      dup6\n        /* \"#utility.yul\":5654:5677   */\n      sub\n        /* \"#utility.yul\":5650:5682   */\n      slt\n        /* \"#utility.yul\":5647:5766   */\n      iszero\n      tag_375\n      jumpi\n        /* \"#utility.yul\":5685:5764   */\n      tag_376\n      tag_232\n      jump\t// in\n    tag_376:\n        /* \"#utility.yul\":5647:5766   */\n    tag_375:\n        /* \"#utility.yul\":5833:5834   */\n      0x00\n        /* \"#utility.yul\":5822:5831   */\n      dup4\n        /* \"#utility.yul\":5818:5835   */\n      add\n        /* \"#utility.yul\":5805:5836   */\n      calldataload\n        /* \"#utility.yul\":5863:5881   */\n      0xffffffffffffffff\n        /* \"#utility.yul\":5855:5861   */\n      dup2\n        /* \"#utility.yul\":5852:5882   */\n      gt\n        /* \"#utility.yul\":5849:5966   */\n      iszero\n      tag_377\n      jumpi\n        /* \"#utility.yul\":5885:5964   */\n      tag_378\n      tag_233\n      jump\t// in\n    tag_378:\n        /* \"#utility.yul\":5849:5966   */\n    tag_377:\n        /* \"#utility.yul\":5990:6053   */\n      tag_379\n        /* \"#utility.yul\":6045:6052   */\n      dup6\n        /* \"#utility.yul\":6036:6042   */\n      dup3\n        /* \"#utility.yul\":6025:6034   */\n      dup7\n        /* \"#utility.yul\":6021:6043   */\n      add\n        /* \"#utility.yul\":5990:6053   */\n      tag_243\n      jump\t// in\n    tag_379:\n        /* \"#utility.yul\":5980:6053   */\n      swap3\n      pop\n        /* \"#utility.yul\":5776:6063   */\n      pop\n        /* \"#utility.yul\":6102:6104   */\n      0x20\n        /* \"#utility.yul\":6128:6181   */\n      tag_380\n        /* \"#utility.yul\":6173:6180   */\n      dup6\n        /* \"#utility.yul\":6164:6170   */\n      dup3\n        /* \"#utility.yul\":6153:6162   */\n      dup7\n        /* \"#utility.yul\":6149:6171   */\n      add\n        /* \"#utility.yul\":6128:6181   */\n      tag_251\n      jump\t// in\n    tag_380:\n        /* \"#utility.yul\":6118:6181   */\n      swap2\n      pop\n        /* \"#utility.yul\":6073:6191   */\n      pop\n        /* \"#utility.yul\":5544:6198   */\n      swap3\n      pop\n      swap3\n      swap1\n      pop\n      jump\t// out\n        /* \"#utility.yul\":6204:6328   */\n    tag_252:\n        /* \"#utility.yul\":6281:6287   */\n      0x00\n        /* \"#utility.yul\":6315:6320   */\n      dup2\n        /* \"#utility.yul\":6309:6321   */\n      mload\n        /* \"#utility.yul\":6299:6321   */\n      swap1\n      pop\n        /* \"#utility.yul\":6204:6328   */\n      swap2\n      swap1\n      pop\n      jump\t// out\n        /* \"#utility.yul\":6334:6528   */\n    tag_253:\n        /* \"#utility.yul\":6443:6454   */\n      0x00\n        /* \"#utility.yul\":6477:6483   */\n      dup3\n        /* \"#utility.yul\":6472:6475   */\n      dup3\n        /* \"#utility.yul\":6465:6484   */\n      mstore\n        /* \"#utility.yul\":6517:6521   */\n      0x20\n        /* \"#utility.yul\":6512:6515   */\n      dup3\n        /* \"#utility.yul\":6508:6522   */\n      add\n        /* \"#utility.yul\":6493:6522   */\n      swap1\n      pop\n        /* \"#utility.yul\":6334:6528   */\n      swap3\n      swap2\n      pop\n      pop\n      jump\t// out\n        /* \"#utility.yul\":6534:6676   */\n    tag_254:\n        /* \"#utility.yul\":6611:6615   */\n      0x00\n        /* \"#utility.yul\":6634:6637   */\n      dup2\n        /* \"#utility.yul\":6626:6637   */\n      swap1\n      pop\n        /* \"#utility.yul\":6664:6668   */\n      0x20\n        /* \"#utility.yul\":6659:6662   */\n      dup3\n        /* \"#utility.yul\":6655:6669   */\n      add\n        /* \"#utility.yul\":6647:6669   */\n      swap1\n      pop\n        /* \"#utility.yul\":6534:6676   */\n      swap2\n      swap1\n      pop\n      jump\t// out\n        /* \"#utility.yul\":6682:6841   */\n    tag_255:\n        /* \"#utility.yul\":6756:6767   */\n      0x00\n        /* \"#utility.yul\":6790:6796   */\n      dup3\n        /* \"#utility.yul\":6785:6788   */\n      dup3\n        /* \"#utility.yul\":6778:6797   */\n      mstore\n        /* \"#utility.yul\":6830:6834   */\n      0x20\n        /* \"#utility.yul\":6825:6828   */\n      dup3\n        /* \"#utility.yul\":6821:6835   */\n      add\n        /* \"#utility.yul\":6806:6835   */\n      swap1\n      pop\n        /* \"#utility.yul\":6682:6841   */\n      swap3\n      swap2\n      pop\n      pop\n      jump\t// out\n        /* \"#utility.yul\":6847:7204   */\n    tag_256:\n        /* \"#utility.yul\":6925:6928   */\n      0x00\n        /* \"#utility.yul\":6953:6992   */\n      tag_386\n        /* \"#utility.yul\":6986:6991   */\n      dup3\n        /* \"#utility.yul\":6953:6992   */\n      tag_244\n      jump\t// in\n    tag_386:\n        /* \"#utility.yul\":7008:7069   */\n      tag_387\n        /* \"#utility.yul\":7062:7068   */\n      dup2\n        /* \"#utility.yul\":7057:7060   */\n      dup6\n        /* \"#utility.yul\":7008:7069   */\n      tag_255\n      jump\t// in\n    tag_387:\n        /* \"#utility.yul\":7001:7069   */\n      swap4\n      pop\n        /* \"#utility.yul\":7078:7143   */\n      tag_388\n        /* \"#utility.yul\":7136:7142   */\n      dup2\n        /* \"#utility.yul\":7131:7134   */\n      dup6\n        /* \"#utility.yul\":7124:7128   */\n      0x20\n        /* \"#utility.yul\":7117:7122   */\n      dup7\n        /* \"#utility.yul\":7113:7129   */\n      add\n        /* \"#utility.yul\":7078:7143   */\n      tag_246\n      jump\t// in\n    tag_388:\n        /* \"#utility.yul\":7168:7197   */\n      tag_389\n        /* \"#utility.yul\":7190:7196   */\n      dup2\n        /* \"#utility.yul\":7168:7197   */\n      tag_236\n      jump\t// in\n    tag_389:\n        /* \"#utility.yul\":7163:7166   */\n      dup5\n        /* \"#utility.yul\":7159:7198   */\n      add\n        /* \"#utility.yul\":7152:7198   */\n      swap2\n      pop\n        /* \"#utility.yul\":6929:7204   */\n      pop\n        /* \"#utility.yul\":6847:7204   */\n      swap3\n      swap2\n      pop\n      pop\n      jump\t// out\n        /* \"#utility.yul\":7210:7406   */\n    tag_257:\n        /* \"#utility.yul\":7299:7309   */\n      0x00\n        /* \"#utility.yul\":7334:7400   */\n      tag_391\n        /* \"#utility.yul\":7396:7399   */\n      dup4\n        /* \"#utility.yul\":7388:7394   */\n      dup4\n        /* \"#utility.yul\":7334:7400   */\n      tag_256\n      jump\t// in\n    tag_391:\n        /* \"#utility.yul\":7320:7400   */\n      swap1\n      pop\n        /* \"#utility.yul\":7210:7406   */\n      swap3\n      swap2\n      pop\n      pop\n      jump\t// out\n        /* \"#utility.yul\":7412:7535   */\n    tag_258:\n        /* \"#utility.yul\":7492:7496   */\n      0x00\n        /* \"#utility.yul\":7524:7528   */\n      0x20\n        /* \"#utility.yul\":7519:7522   */\n      dup3\n        /* \"#utility.yul\":7515:7529   */\n      add\n        /* \"#utility.yul\":7507:7529   */\n      swap1\n      pop\n        /* \"#utility.yul\":7412:7535   */\n      swap2\n      swap1\n      pop\n      jump\t// out\n        /* \"#utility.yul\":7569:8560   */\n    tag_259:\n        /* \"#utility.yul\":7708:7711   */\n      0x00\n        /* \"#utility.yul\":7737:7801   */\n      tag_394\n        /* \"#utility.yul\":7795:7800   */\n      dup3\n        /* \"#utility.yul\":7737:7801   */\n      tag_252\n      jump\t// in\n    tag_394:\n        /* \"#utility.yul\":7817:7913   */\n      tag_395\n        /* \"#utility.yul\":7906:7912   */\n      dup2\n        /* \"#utility.yul\":7901:7904   */\n      dup6\n        /* \"#utility.yul\":7817:7913   */\n      tag_253\n      jump\t// in\n    tag_395:\n        /* \"#utility.yul\":7810:7913   */\n      swap4\n      pop\n        /* \"#utility.yul\":7939:7942   */\n      dup4\n        /* \"#utility.yul\":7984:7988   */\n      0x20\n        /* \"#utility.yul\":7976:7982   */\n      dup3\n        /* \"#utility.yul\":7972:7989   */\n      mul\n        /* \"#utility.yul\":7967:7970   */\n      dup6\n        /* \"#utility.yul\":7963:7990   */\n      add\n        /* \"#utility.yul\":8014:8080   */\n      tag_396\n        /* \"#utility.yul\":8074:8079   */\n      dup6\n        /* \"#utility.yul\":8014:8080   */\n      tag_254\n      jump\t// in\n    tag_396:\n        /* \"#utility.yul\":8103:8110   */\n      dup1\n        /* \"#utility.yul\":8134:8135   */\n      0x00\n        /* \"#utility.yul\":8119:8515   */\n    tag_397:\n        /* \"#utility.yul\":8144:8150   */\n      dup6\n        /* \"#utility.yul\":8141:8142   */\n      dup2\n        /* \"#utility.yul\":8138:8151   */\n      lt\n        /* \"#utility.yul\":8119:8515   */\n      iszero\n      tag_399\n      jumpi\n        /* \"#utility.yul\":8215:8224   */\n      dup5\n        /* \"#utility.yul\":8209:8213   */\n      dup5\n        /* \"#utility.yul\":8205:8225   */\n      sub\n        /* \"#utility.yul\":8200:8203   */\n      dup10\n        /* \"#utility.yul\":8193:8226   */\n      mstore\n        /* \"#utility.yul\":8266:8272   */\n      dup2\n        /* \"#utility.yul\":8260:8273   */\n      mload\n        /* \"#utility.yul\":8294:8378   */\n      tag_400\n        /* \"#utility.yul\":8373:8377   */\n      dup6\n        /* \"#utility.yul\":8358:8371   */\n      dup3\n        /* \"#utility.yul\":8294:8378   */\n      tag_257\n      jump\t// in\n    tag_400:\n        /* \"#utility.yul\":8286:8378   */\n      swap5\n      pop\n        /* \"#utility.yul\":8401:8471   */\n      tag_401\n        /* \"#utility.yul\":8464:8470   */\n      dup4\n        /* \"#utility.yul\":8401:8471   */\n      tag_258\n      jump\t// in\n    tag_401:\n        /* \"#utility.yul\":8391:8471   */\n      swap3\n      pop\n        /* \"#utility.yul\":8500:8504   */\n      0x20\n        /* \"#utility.yul\":8495:8498   */\n      dup11\n        /* \"#utility.yul\":8491:8505   */\n      add\n        /* \"#utility.yul\":8484:8505   */\n      swap10\n      pop\n        /* \"#utility.yul\":8179:8515   */\n      pop\n        /* \"#utility.yul\":8166:8167   */\n      0x01\n        /* \"#utility.yul\":8163:8164   */\n      dup2\n        /* \"#utility.yul\":8159:8168   */\n      add\n        /* \"#utility.yul\":8154:8168   */\n      swap1\n      pop\n        /* \"#utility.yul\":8119:8515   */\n      jump(tag_397)\n    tag_399:\n        /* \"#utility.yul\":8123:8137   */\n      pop\n        /* \"#utility.yul\":8531:8535   */\n      dup3\n        /* \"#utility.yul\":8524:8535   */\n      swap8\n      pop\n        /* \"#utility.yul\":8551:8554   */\n      dup8\n        /* \"#utility.yul\":8544:8554   */\n      swap6\n      pop\n        /* \"#utility.yul\":7713:8560   */\n      pop\n      pop\n      pop\n      pop\n      pop\n        /* \"#utility.yul\":7569:8560   */\n      swap3\n      swap2\n      pop\n      pop\n      jump\t// out\n        /* \"#utility.yul\":8566:8979   */\n    tag_41:\n        /* \"#utility.yul\":8729:8733   */\n      0x00\n        /* \"#utility.yul\":8767:8769   */\n      0x20\n        /* \"#utility.yul\":8756:8765   */\n      dup3\n        /* \"#utility.yul\":8752:8770   */\n      add\n        /* \"#utility.yul\":8744:8770   */\n      swap1\n      pop\n        /* \"#utility.yul\":8816:8825   */\n      dup2\n        /* \"#utility.yul\":8810:8814   */\n      dup2\n        /* \"#utility.yul\":8806:8826   */\n      sub\n        /* \"#utility.yul\":8802:8803   */\n      0x00\n        /* \"#utility.yul\":8791:8800   */\n      dup4\n        /* \"#utility.yul\":8787:8804   */\n      add\n        /* \"#utility.yul\":8780:8827   */\n      mstore\n        /* \"#utility.yul\":8844:8972   */\n      tag_403\n        /* \"#utility.yul\":8967:8971   */\n      dup2\n        /* \"#utility.yul\":8958:8964   */\n      dup5\n        /* \"#utility.yul\":8844:8972   */\n      tag_259\n      jump\t// in\n    tag_403:\n        /* \"#utility.yul\":8836:8972   */\n      swap1\n      pop\n        /* \"#utility.yul\":8566:8979   */\n      swap3\n      swap2\n      pop\n      pop\n      jump\t// out\n        /* \"#utility.yul\":8985:9075   */\n    tag_260:\n        /* \"#utility.yul\":9019:9026   */\n      0x00\n        /* \"#utility.yul\":9062:9067   */\n      dup2\n        /* \"#utility.yul\":9055:9068   */\n      iszero\n        /* \"#utility.yul\":9048:9069   */\n      iszero\n        /* \"#utility.yul\":9037:9069   */\n      swap1\n      pop\n        /* \"#utility.yul\":8985:9075   */\n      swap2\n      swap1\n      pop\n      jump\t// out\n        /* \"#utility.yul\":9081:9190   */\n    tag_261:\n        /* \"#utility.yul\":9162:9183   */\n      tag_406\n        /* \"#utility.yul\":9177:9182   */\n      dup2\n        /* \"#utility.yul\":9162:9183   */\n      tag_260\n      jump\t// in\n    tag_406:\n        /* \"#utility.yul\":9157:9160   */\n      dup3\n        /* \"#utility.yul\":9150:9184   */\n      mstore\n        /* \"#utility.yul\":9081:9190   */\n      pop\n      pop\n      jump\t// out\n        /* \"#utility.yul\":9196:9314   */\n    tag_262:\n        /* \"#utility.yul\":9283:9307   */\n      tag_408\n        /* \"#utility.yul\":9301:9306   */\n      dup2\n        /* \"#utility.yul\":9283:9307   */\n      tag_249\n      jump\t// in\n    tag_408:\n        /* \"#utility.yul\":9278:9281   */\n      dup3\n        /* \"#utility.yul\":9271:9308   */\n      mstore\n        /* \"#utility.yul\":9196:9314   */\n      pop\n      pop\n      jump\t// out\n        /* \"#utility.yul\":9320:10043   */\n    tag_49:\n        /* \"#utility.yul\":9531:9535   */\n      0x00\n        /* \"#utility.yul\":9569:9572   */\n      0x80\n        /* \"#utility.yul\":9558:9567   */\n      dup3\n        /* \"#utility.yul\":9554:9573   */\n      add\n        /* \"#utility.yul\":9546:9573   */\n      swap1\n      pop\n        /* \"#utility.yul\":9619:9628   */\n      dup2\n        /* \"#utility.yul\":9613:9617   */\n      dup2\n        /* \"#utility.yul\":9609:9629   */\n      sub\n        /* \"#utility.yul\":9605:9606   */\n      0x00\n        /* \"#utility.yul\":9594:9603   */\n      dup4\n        /* \"#utility.yul\":9590:9607   */\n      add\n        /* \"#utility.yul\":9583:9630   */\n      mstore\n        /* \"#utility.yul\":9647:9725   */\n      tag_410\n        /* \"#utility.yul\":9720:9724   */\n      dup2\n        /* \"#utility.yul\":9711:9717   */\n      dup8\n        /* \"#utility.yul\":9647:9725   */\n      tag_247\n      jump\t// in\n    tag_410:\n        /* \"#utility.yul\":9639:9725   */\n      swap1\n      pop\n        /* \"#utility.yul\":9772:9781   */\n      dup2\n        /* \"#utility.yul\":9766:9770   */\n      dup2\n        /* \"#utility.yul\":9762:9782   */\n      sub\n        /* \"#utility.yul\":9757:9759   */\n      0x20\n        /* \"#utility.yul\":9746:9755   */\n      dup4\n        /* \"#utility.yul\":9742:9760   */\n      add\n        /* \"#utility.yul\":9735:9783   */\n      mstore\n        /* \"#utility.yul\":9800:9878   */\n      tag_411\n        /* \"#utility.yul\":9873:9877   */\n      dup2\n        /* \"#utility.yul\":9864:9870   */\n      dup7\n        /* \"#utility.yul\":9800:9878   */\n      tag_247\n      jump\t// in\n    tag_411:\n        /* \"#utility.yul\":9792:9878   */\n      swap1\n      pop\n        /* \"#utility.yul\":9888:9954   */\n      tag_412\n        /* \"#utility.yul\":9950:9952   */\n      0x40\n        /* \"#utility.yul\":9939:9948   */\n      dup4\n        /* \"#utility.yul\":9935:9953   */\n      add\n        /* \"#utility.yul\":9926:9932   */\n      dup6\n        /* \"#utility.yul\":9888:9954   */\n      tag_261\n      jump\t// in\n    tag_412:\n        /* \"#utility.yul\":9964:10036   */\n      tag_413\n        /* \"#utility.yul\":10032:10034   */\n      0x60\n        /* \"#utility.yul\":10021:10030   */\n      dup4\n        /* \"#utility.yul\":10017:10035   */\n      add\n        /* \"#utility.yul\":10008:10014   */\n      dup5\n        /* \"#utility.yul\":9964:10036   */\n      tag_262\n      jump\t// in\n    tag_413:\n        /* \"#utility.yul\":9320:10043   */\n      swap6\n      swap5\n      pop\n      pop\n      pop\n      pop\n      pop\n      jump\t// out\n        /* \"#utility.yul\":10049:10135   */\n    tag_263:\n        /* \"#utility.yul\":10084:10091   */\n      0x00\n        /* \"#utility.yul\":10124:10128   */\n      0xff\n        /* \"#utility.yul\":10117:10122   */\n      dup3\n        /* \"#utility.yul\":10113:10129   */\n      and\n        /* \"#utility.yul\":10102:10129   */\n      swap1\n      pop\n        /* \"#utility.yul\":10049:10135   */\n      swap2\n      swap1\n      pop\n      jump\t// out\n        /* \"#utility.yul\":10141:10259   */\n    tag_264:\n        /* \"#utility.yul\":10212:10234   */\n      tag_416\n        /* \"#utility.yul\":10228:10233   */\n      dup2\n        /* \"#utility.yul\":10212:10234   */\n      tag_263\n      jump\t// in\n    tag_416:\n        /* \"#utility.yul\":10205:10210   */\n      dup2\n        /* \"#utility.yul\":10202:10235   */\n      eq\n        /* \"#utility.yul\":10192:10253   */\n      tag_417\n      jumpi\n        /* \"#utility.yul\":10249:10250   */\n      0x00\n        /* \"#utility.yul\":10246:10247   */\n      dup1\n        /* \"#utility.yul\":10239:10251   */\n      revert\n        /* \"#utility.yul\":10192:10253   */\n    tag_417:\n        /* \"#utility.yul\":10141:10259   */\n      pop\n      jump\t// out\n        /* \"#utility.yul\":10265:10400   */\n    tag_265:\n        /* \"#utility.yul\":10309:10314   */\n      0x00\n        /* \"#utility.yul\":10347:10353   */\n      dup2\n        /* \"#utility.yul\":10334:10354   */\n      calldataload\n        /* \"#utility.yul\":10325:10354   */\n      swap1\n      pop\n        /* \"#utility.yul\":10363:10394   */\n      tag_419\n        /* \"#utility.yul\":10388:10393   */\n      dup2\n        /* \"#utility.yul\":10363:10394   */\n      tag_264\n      jump\t// in\n    tag_419:\n        /* \"#utility.yul\":10265:10400   */\n      swap3\n      swap2\n      pop\n      pop\n      jump\t// out\n        /* \"#utility.yul\":10406:11201   */\n    tag_52:\n        /* \"#utility.yul\":10491:10497   */\n      0x00\n        /* \"#utility.yul\":10499:10505   */\n      dup1\n        /* \"#utility.yul\":10507:10513   */\n      0x00\n        /* \"#utility.yul\":10556:10558   */\n      0x60\n        /* \"#utility.yul\":10544:10553   */\n      dup5\n        /* \"#utility.yul\":10535:10542   */\n      dup7\n        /* \"#utility.yul\":10531:10554   */\n      sub\n        /* \"#utility.yul\":10527:10559   */\n      slt\n        /* \"#utility.yul\":10524:10643   */\n      iszero\n      tag_421\n      jumpi\n        /* \"#utility.yul\":10562:10641   */\n      tag_422\n      tag_232\n      jump\t// in\n    tag_422:\n        /* \"#utility.yul\":10524:10643   */\n    tag_421:\n        /* \"#utility.yul\":10710:10711   */\n      0x00\n        /* \"#utility.yul\":10699:10708   */\n      dup5\n        /* \"#utility.yul\":10695:10712   */\n      add\n        /* \"#utility.yul\":10682:10713   */\n      calldataload\n        /* \"#utility.yul\":10740:10758   */\n      0xffffffffffffffff\n        /* \"#utility.yul\":10732:10738   */\n      dup2\n        /* \"#utility.yul\":10729:10759   */\n      gt\n        /* \"#utility.yul\":10726:10843   */\n      iszero\n      tag_423\n      jumpi\n        /* \"#utility.yul\":10762:10841   */\n      tag_424\n      tag_233\n      jump\t// in\n    tag_424:\n        /* \"#utility.yul\":10726:10843   */\n    tag_423:\n        /* \"#utility.yul\":10867:10930   */\n      tag_425\n        /* \"#utility.yul\":10922:10929   */\n      dup7\n        /* \"#utility.yul\":10913:10919   */\n      dup3\n        /* \"#utility.yul\":10902:10911   */\n      dup8\n        /* \"#utility.yul\":10898:10920   */\n      add\n        /* \"#utility.yul\":10867:10930   */\n      tag_243\n      jump\t// in\n    tag_425:\n        /* \"#utility.yul\":10857:10930   */\n      swap4\n      pop\n        /* \"#utility.yul\":10653:10940   */\n      pop\n        /* \"#utility.yul\":10979:10981   */\n      0x20\n        /* \"#utility.yul\":11005:11058   */\n      tag_426\n        /* \"#utility.yul\":11050:11057   */\n      dup7\n        /* \"#utility.yul\":11041:11047   */\n      dup3\n        /* \"#utility.yul\":11030:11039   */\n      dup8\n        /* \"#utility.yul\":11026:11048   */\n      add\n        /* \"#utility.yul\":11005:11058   */\n      tag_251\n      jump\t// in\n    tag_426:\n        /* \"#utility.yul\":10995:11058   */\n      swap3\n      pop\n        /* \"#utility.yul\":10950:11068   */\n      pop\n        /* \"#utility.yul\":11107:11109   */\n      0x40\n        /* \"#utility.yul\":11133:11184   */\n      tag_427\n        /* \"#utility.yul\":11176:11183   */\n      dup7\n        /* \"#utility.yul\":11167:11173   */\n      dup3\n        /* \"#utility.yul\":11156:11165   */\n      dup8\n        /* \"#utility.yul\":11152:11174   */\n      add\n        /* \"#utility.yul\":11133:11184   */\n      tag_265\n      jump\t// in\n    tag_427:\n        /* \"#utility.yul\":11123:11184   */\n      swap2\n      pop\n        /* \"#utility.yul\":11078:11194   */\n      pop\n        /* \"#utility.yul\":10406:11201   */\n      swap3\n      pop\n      swap3\n      pop\n      swap3\n      jump\t// out\n        /* \"#utility.yul\":11207:11355   */\n    tag_266:\n        /* \"#utility.yul\":11309:11320   */\n      0x00\n        /* \"#utility.yul\":11346:11349   */\n      dup2\n        /* \"#utility.yul\":11331:11349   */\n      swap1\n      pop\n        /* \"#utility.yul\":11207:11355   */\n      swap3\n      swap2\n      pop\n      pop\n      jump\t// out\n        /* \"#utility.yul\":11361:11751   */\n    tag_267:\n        /* \"#utility.yul\":11467:11470   */\n      0x00\n        /* \"#utility.yul\":11495:11534   */\n      tag_430\n        /* \"#utility.yul\":11528:11533   */\n      dup3\n        /* \"#utility.yul\":11495:11534   */\n      tag_244\n      jump\t// in\n    tag_430:\n        /* \"#utility.yul\":11550:11639   */\n      tag_431\n        /* \"#utility.yul\":11632:11638   */\n      dup2\n        /* \"#utility.yul\":11627:11630   */\n      dup6\n        /* \"#utility.yul\":11550:11639   */\n      tag_266\n      jump\t// in\n    tag_431:\n        /* \"#utility.yul\":11543:11639   */\n      swap4\n      pop\n        /* \"#utility.yul\":11648:11713   */\n      tag_432\n        /* \"#utility.yul\":11706:11712   */\n      dup2\n        /* \"#utility.yul\":11701:11704   */\n      dup6\n        /* \"#utility.yul\":11694:11698   */\n      0x20\n        /* \"#utility.yul\":11687:11692   */\n      dup7\n        /* \"#utility.yul\":11683:11699   */\n      add\n        /* \"#utility.yul\":11648:11713   */\n      tag_246\n      jump\t// in\n    tag_432:\n        /* \"#utility.yul\":11738:11744   */\n      dup1\n        /* \"#utility.yul\":11733:11736   */\n      dup5\n        /* \"#utility.yul\":11729:11745   */\n      add\n        /* \"#utility.yul\":11722:11745   */\n      swap2\n      pop\n        /* \"#utility.yul\":11471:11751   */\n      pop\n        /* \"#utility.yul\":11361:11751   */\n      swap3\n      swap2\n      pop\n      pop\n      jump\t// out\n        /* \"#utility.yul\":11757:12032   */\n    tag_56:\n        /* \"#utility.yul\":11889:11892   */\n      0x00\n        /* \"#utility.yul\":11911:12006   */\n      tag_434\n        /* \"#utility.yul\":12002:12005   */\n      dup3\n        /* \"#utility.yul\":11993:11999   */\n      dup5\n        /* \"#utility.yul\":11911:12006   */\n      tag_267\n      jump\t// in\n    tag_434:\n        /* \"#utility.yul\":11904:12006   */\n      swap2\n      pop\n        /* \"#utility.yul\":12023:12026   */\n      dup2\n        /* \"#utility.yul\":12016:12026   */\n      swap1\n      pop\n        /* \"#utility.yul\":11757:12032   */\n      swap3\n      swap2\n      pop\n      pop\n      jump\t// out\n        /* \"#utility.yul\":12038:12219   */\n    tag_268:\n        /* \"#utility.yul\":12178:12211   */\n      0x4f6e6c79207468652066696c65206f776e65722063616e20646f207468697300\n        /* \"#utility.yul\":12174:12175   */\n      0x00\n        /* \"#utility.yul\":12166:12172   */\n      dup3\n        /* \"#utility.yul\":12162:12176   */\n      add\n        /* \"#utility.yul\":12155:12212   */\n      mstore\n        /* \"#utility.yul\":12038:12219   */\n      pop\n      jump\t// out\n        /* \"#utility.yul\":12225:12591   */\n    tag_269:\n        /* \"#utility.yul\":12367:12370   */\n      0x00\n        /* \"#utility.yul\":12388:12455   */\n      tag_437\n        /* \"#utility.yul\":12452:12454   */\n      0x1f\n        /* \"#utility.yul\":12447:12450   */\n      dup4\n        /* \"#utility.yul\":12388:12455   */\n      tag_245\n      jump\t// in\n    tag_437:\n        /* \"#utility.yul\":12381:12455   */\n      swap2\n      pop\n        /* \"#utility.yul\":12464:12557   */\n      tag_438\n        /* \"#utility.yul\":12553:12556   */\n      dup3\n        /* \"#utility.yul\":12464:12557   */\n      tag_268\n      jump\t// in\n    tag_438:\n        /* \"#utility.yul\":12582:12584   */\n      0x20\n        /* \"#utility.yul\":12577:12580   */\n      dup3\n        /* \"#utility.yul\":12573:12585   */\n      add\n        /* \"#utility.yul\":12566:12585   */\n      swap1\n      pop\n        /* \"#utility.yul\":12225:12591   */\n      swap2\n      swap1\n      pop\n      jump\t// out\n        /* \"#utility.yul\":12597:13016   */\n    tag_59:\n        /* \"#utility.yul\":12763:12767   */\n      0x00\n        /* \"#utility.yul\":12801:12803   */\n      0x20\n        /* \"#utility.yul\":12790:12799   */\n      dup3\n        /* \"#utility.yul\":12786:12804   */\n      add\n        /* \"#utility.yul\":12778:12804   */\n      swap1\n      pop\n        /* \"#utility.yul\":12850:12859   */\n      dup2\n        /* \"#utility.yul\":12844:12848   */\n      dup2\n        /* \"#utility.yul\":12840:12860   */\n      sub\n        /* \"#utility.yul\":12836:12837   */\n      0x00\n        /* \"#utility.yul\":12825:12834   */\n      dup4\n        /* \"#utility.yul\":12821:12838   */\n      add\n        /* \"#utility.yul\":12814:12861   */\n      mstore\n        /* \"#utility.yul\":12878:13009   */\n      tag_440\n        /* \"#utility.yul\":13004:13008   */\n      dup2\n        /* \"#utility.yul\":12878:13009   */\n      tag_269\n      jump\t// in\n    tag_440:\n        /* \"#utility.yul\":12870:13009   */\n      swap1\n      pop\n        /* \"#utility.yul\":12597:13016   */\n      swap2\n      swap1\n      pop\n      jump\t// out\n        /* \"#utility.yul\":13022:13191   */\n    tag_270:\n        /* \"#utility.yul\":13162:13183   */\n      0x46696c6520646f6573206e6f7420657869737400000000000000000000000000\n        /* \"#utility.yul\":13158:13159   */\n      0x00\n        /* \"#utility.yul\":13150:13156   */\n      dup3\n        /* \"#utility.yul\":13146:13160   */\n      add\n        /* \"#utility.yul\":13139:13184   */\n      mstore\n        /* \"#utility.yul\":13022:13191   */\n      pop\n      jump\t// out\n        /* \"#utility.yul\":13197:13563   */\n    tag_271:\n        /* \"#utility.yul\":13339:13342   */\n      0x00\n        /* \"#utility.yul\":13360:13427   */\n      tag_443\n        /* \"#utility.yul\":13424:13426   */\n      0x13\n        /* \"#utility.yul\":13419:13422   */\n      dup4\n        /* \"#utility.yul\":13360:13427   */\n      tag_245\n      jump\t// in\n    tag_443:\n        /* \"#utility.yul\":13353:13427   */\n      swap2\n      pop\n        /* \"#utility.yul\":13436:13529   */\n      tag_444\n        /* \"#utility.yul\":13525:13528   */\n      dup3\n        /* \"#utility.yul\":13436:13529   */\n      tag_270\n      jump\t// in\n    tag_444:\n        /* \"#utility.yul\":13554:13556   */\n      0x20\n        /* \"#utility.yul\":13549:13552   */\n      dup3\n        /* \"#utility.yul\":13545:13557   */\n      add\n        /* \"#utility.yul\":13538:13557   */\n      swap1\n      pop\n        /* \"#utility.yul\":13197:13563   */\n      swap2\n      swap1\n      pop\n      jump\t// out\n        /* \"#utility.yul\":13569:13988   */\n    tag_64:\n        /* \"#utility.yul\":13735:13739   */\n      0x00\n        /* \"#utility.yul\":13773:13775   */\n      0x20\n        /* \"#utility.yul\":13762:13771   */\n      dup3\n        /* \"#utility.yul\":13758:13776   */\n      add\n        /* \"#utility.yul\":13750:13776   */\n      swap1\n      pop\n        /* \"#utility.yul\":13822:13831   */\n      dup2\n        /* \"#utility.yul\":13816:13820   */\n      dup2\n        /* \"#utility.yul\":13812:13832   */\n      sub\n        /* \"#utility.yul\":13808:13809   */\n      0x00\n        /* \"#utility.yul\":13797:13806   */\n      dup4\n        /* \"#utility.yul\":13793:13810   */\n      add\n        /* \"#utility.yul\":13786:13833   */\n      mstore\n        /* \"#utility.yul\":13850:13981   */\n      tag_446\n        /* \"#utility.yul\":13976:13980   */\n      dup2\n        /* \"#utility.yul\":13850:13981   */\n      tag_271\n      jump\t// in\n    tag_446:\n        /* \"#utility.yul\":13842:13981   */\n      swap1\n      pop\n        /* \"#utility.yul\":13569:13988   */\n      swap2\n      swap1\n      pop\n      jump\t// out\n        /* \"#utility.yul\":13994:14162   */\n    tag_272:\n        /* \"#utility.yul\":14134:14154   */\n      0x4e616d65206e6f7420617661696c61626c650000000000000000000000000000\n        /* \"#utility.yul\":14130:14131   */\n      0x00\n        /* \"#utility.yul\":14122:14128   */\n      dup3\n        /* \"#utility.yul\":14118:14132   */\n      add\n        /* \"#utility.yul\":14111:14155   */\n      mstore\n        /* \"#utility.yul\":13994:14162   */\n      pop\n      jump\t// out\n        /* \"#utility.yul\":14168:14534   */\n    tag_273:\n        /* \"#utility.yul\":14310:14313   */\n      0x00\n        /* \"#utility.yul\":14331:14398   */\n      tag_449\n        /* \"#utility.yul\":14395:14397   */\n      0x12\n        /* \"#utility.yul\":14390:14393   */\n      dup4\n        /* \"#utility.yul\":14331:14398   */\n      tag_245\n      jump\t// in\n    tag_449:\n        /* \"#utility.yul\":14324:14398   */\n      swap2\n      pop\n        /* \"#utility.yul\":14407:14500   */\n      tag_450\n        /* \"#utility.yul\":14496:14499   */\n      dup3\n        /* \"#utility.yul\":14407:14500   */\n      tag_272\n      jump\t// in\n    tag_450:\n        /* \"#utility.yul\":14525:14527   */\n      0x20\n        /* \"#utility.yul\":14520:14523   */\n      dup3\n        /* \"#utility.yul\":14516:14528   */\n      add\n        /* \"#utility.yul\":14509:14528   */\n      swap1\n      pop\n        /* \"#utility.yul\":14168:14534   */\n      swap2\n      swap1\n      pop\n      jump\t// out\n        /* \"#utility.yul\":14540:14959   */\n    tag_69:\n        /* \"#utility.yul\":14706:14710   */\n      0x00\n        /* \"#utility.yul\":14744:14746   */\n      0x20\n        /* \"#utility.yul\":14733:14742   */\n      dup3\n        /* \"#utility.yul\":14729:14747   */\n      add\n        /* \"#utility.yul\":14721:14747   */\n      swap1\n      pop\n        /* \"#utility.yul\":14793:14802   */\n      dup2\n        /* \"#utility.yul\":14787:14791   */\n      dup2\n        /* \"#utility.yul\":14783:14803   */\n      sub\n        /* \"#utility.yul\":14779:14780   */\n      0x00\n        /* \"#utility.yul\":14768:14777   */\n      dup4\n        /* \"#utility.yul\":14764:14781   */\n      add\n        /* \"#utility.yul\":14757:14804   */\n      mstore\n        /* \"#utility.yul\":14821:14952   */\n      tag_452\n        /* \"#utility.yul\":14947:14951   */\n      dup2\n        /* \"#utility.yul\":14821:14952   */\n      tag_273\n      jump\t// in\n    tag_452:\n        /* \"#utility.yul\":14813:14952   */\n      swap1\n      pop\n        /* \"#utility.yul\":14540:14959   */\n      swap2\n      swap1\n      pop\n      jump\t// out\n        /* \"#utility.yul\":14965:15145   */\n    tag_274:\n        /* \"#utility.yul\":15013:15090   */\n      0x4e487b7100000000000000000000000000000000000000000000000000000000\n        /* \"#utility.yul\":15010:15011   */\n      0x00\n        /* \"#utility.yul\":15003:15091   */\n      mstore\n        /* \"#utility.yul\":15110:15114   */\n      0x22\n        /* \"#utility.yul\":15107:15108   */\n      0x04\n        /* \"#utility.yul\":15100:15115   */\n      mstore\n        /* \"#utility.yul\":15134:15138   */\n      0x24\n        /* \"#utility.yul\":15131:15132   */\n      0x00\n        /* \"#utility.yul\":15124:15139   */\n      revert\n        /* \"#utility.yul\":15151:15471   */\n    tag_90:\n        /* \"#utility.yul\":15195:15201   */\n      0x00\n        /* \"#utility.yul\":15232:15233   */\n      0x02\n        /* \"#utility.yul\":15226:15230   */\n      dup3\n        /* \"#utility.yul\":15222:15234   */\n      div\n        /* \"#utility.yul\":15212:15234   */\n      swap1\n      pop\n        /* \"#utility.yul\":15279:15280   */\n      0x01\n        /* \"#utility.yul\":15273:15277   */\n      dup3\n        /* \"#utility.yul\":15269:15281   */\n      and\n        /* \"#utility.yul\":15300:15318   */\n      dup1\n        /* \"#utility.yul\":15290:15371   */\n      tag_455\n      jumpi\n        /* \"#utility.yul\":15356:15360   */\n      0x7f\n        /* \"#utility.yul\":15348:15354   */\n      dup3\n        /* \"#utility.yul\":15344:15361   */\n      and\n        /* \"#utility.yul\":15334:15361   */\n      swap2\n      pop\n        /* \"#utility.yul\":15290:15371   */\n    tag_455:\n        /* \"#utility.yul\":15418:15420   */\n      0x20\n        /* \"#utility.yul\":15410:15416   */\n      dup3\n        /* \"#utility.yul\":15407:15421   */\n      lt\n        /* \"#utility.yul\":15387:15405   */\n      dup2\n        /* \"#utility.yul\":15384:15422   */\n      sub\n        /* \"#utility.yul\":15381:15465   */\n      tag_456\n      jumpi\n        /* \"#utility.yul\":15437:15455   */\n      tag_457\n      tag_274\n      jump\t// in\n    tag_457:\n        /* \"#utility.yul\":15381:15465   */\n    tag_456:\n        /* \"#utility.yul\":15202:15471   */\n      pop\n        /* \"#utility.yul\":15151:15471   */\n      swap2\n      swap1\n      pop\n      jump\t// out\n        /* \"#utility.yul\":15477:15618   */\n    tag_275:\n        /* \"#utility.yul\":15526:15530   */\n      0x00\n        /* \"#utility.yul\":15549:15552   */\n      dup2\n        /* \"#utility.yul\":15541:15552   */\n      swap1\n      pop\n        /* \"#utility.yul\":15572:15575   */\n      dup2\n        /* \"#utility.yul\":15569:15570   */\n      0x00\n        /* \"#utility.yul\":15562:15576   */\n      mstore\n        /* \"#utility.yul\":15606:15610   */\n      0x20\n        /* \"#utility.yul\":15603:15604   */\n      0x00\n        /* \"#utility.yul\":15593:15611   */\n      keccak256\n        /* \"#utility.yul\":15585:15611   */\n      swap1\n      pop\n        /* \"#utility.yul\":15477:15618   */\n      swap2\n      swap1\n      pop\n      jump\t// out\n        /* \"#utility.yul\":15624:15717   */\n    tag_276:\n        /* \"#utility.yul\":15661:15667   */\n      0x00\n        /* \"#utility.yul\":15708:15710   */\n      0x20\n        /* \"#utility.yul\":15703:15705   */\n      0x1f\n        /* \"#utility.yul\":15696:15701   */\n      dup4\n        /* \"#utility.yul\":15692:15706   */\n      add\n        /* \"#utility.yul\":15688:15711   */\n      div\n        /* \"#utility.yul\":15678:15711   */\n      swap1\n      pop\n        /* \"#utility.yul\":15624:15717   */\n      swap2\n      swap1\n      pop\n      jump\t// out\n        /* \"#utility.yul\":15723:15830   */\n    tag_277:\n        /* \"#utility.yul\":15767:15775   */\n      0x00\n        /* \"#utility.yul\":15817:15822   */\n      dup3\n        /* \"#utility.yul\":15811:15815   */\n      dup3\n        /* \"#utility.yul\":15807:15823   */\n      shl\n        /* \"#utility.yul\":15786:15823   */\n      swap1\n      pop\n        /* \"#utility.yul\":15723:15830   */\n      swap3\n      swap2\n      pop\n      pop\n      jump\t// out\n        /* \"#utility.yul\":15836:16229   */\n    tag_278:\n        /* \"#utility.yul\":15905:15911   */\n      0x00\n        /* \"#utility.yul\":15955:15956   */\n      0x08\n        /* \"#utility.yul\":15943:15953   */\n      dup4\n        /* \"#utility.yul\":15939:15957   */\n      mul\n        /* \"#utility.yul\":15978:16075   */\n      tag_462\n        /* \"#utility.yul\":16008:16074   */\n      0xffffffffffffffffffffffffffffffffffffffffffffffffffffffffffffffff\n        /* \"#utility.yul\":15997:16006   */\n      dup3\n        /* \"#utility.yul\":15978:16075   */\n      tag_277\n      jump\t// in\n    tag_462:\n        /* \"#utility.yul\":16096:16135   */\n      tag_463\n        /* \"#utility.yul\":16126:16134   */\n      dup7\n        /* \"#utility.yul\":16115:16124   */\n      dup4\n        /* \"#utility.yul\":16096:16135   */\n      tag_277\n      jump\t// in\n    tag_463:\n        /* \"#utility.yul\":16084:16135   */\n      swap6\n      pop\n        /* \"#utility.yul\":16168:16172   */\n      dup1\n        /* \"#utility.yul\":16164:16173   */\n      not\n        /* \"#utility.yul\":16157:16162   */\n      dup5\n        /* \"#utility.yul\":16153:16174   */\n      and\n        /* \"#utility.yul\":16144:16174   */\n      swap4\n      pop\n        /* \"#utility.yul\":16217:16221   */\n      dup1\n        /* \"#utility.yul\":16207:16215   */\n      dup7\n        /* \"#utility.yul\":16203:16222   */\n      and\n        /* \"#utility.yul\":16196:16201   */\n      dup5\n        /* \"#utility.yul\":16193:16223   */\n      or\n        /* \"#utility.yul\":16183:16223   */\n      swap3\n      pop\n        /* \"#utility.yul\":15912:16229   */\n      pop\n      pop\n        /* \"#utility.yul\":15836:16229   */\n      swap4\n      swap3\n      pop\n      pop\n      pop\n      jump\t// out\n        /* \"#utility.yul\":16235:16312   */\n    tag_279:\n        /* \"#utility.yul\":16272:16279   */\n      0x00\n        /* \"#utility.yul\":16301:16306   */\n      dup2\n        /* \"#utility.yul\":16290:16306   */\n      swap1\n      pop\n        /* \"#utility.yul\":16235:16312   */\n      swap2\n      swap1\n      pop\n      jump\t// out\n        /* \"#utility.yul\":16318:16378   */\n    tag_280:\n        /* \"#utility.yul\":16346:16349   */\n      0x00\n        /* \"#utility.yul\":16367:16372   */\n      dup2\n        /* \"#utility.yul\":16360:16372   */\n      swap1\n      pop\n        /* \"#utility.yul\":16318:16378   */\n      swap2\n      swap1\n      pop\n      jump\t// out\n        /* \"#utility.yul\":16384:16526   */\n    tag_281:\n        /* \"#utility.yul\":16434:16443   */\n      0x00\n        /* \"#utility.yul\":16467:16520   */\n      tag_467\n        /* \"#utility.yul\":16485:16519   */\n      tag_468\n        /* \"#utility.yul\":16494:16518   */\n      tag_469\n        /* \"#utility.yul\":16512:16517   */\n      dup5\n        /* \"#utility.yul\":16494:16518   */\n      tag_279\n      jump\t// in\n    tag_469:\n        /* \"#utility.yul\":16485:16519   */\n      tag_280\n      jump\t// in\n    tag_468:\n        /* \"#utility.yul\":16467:16520   */\n      tag_279\n      jump\t// in\n    tag_467:\n        /* \"#utility.yul\":16454:16520   */\n      swap1\n      pop\n        /* \"#utility.yul\":16384:16526   */\n      swap2\n      swap1\n      pop\n      jump\t// out\n        /* \"#utility.yul\":16532:16607   */\n    tag_282:\n        /* \"#utility.yul\":16575:16578   */\n      0x00\n        /* \"#utility.yul\":16596:16601   */\n      dup2\n        /* \"#utility.yul\":16589:16601   */\n      swap1\n      pop\n        /* \"#utility.yul\":16532:16607   */\n      swap2\n      swap1\n      pop\n      jump\t// out\n        /* \"#utility.yul\":16613:16882   */\n    tag_283:\n        /* \"#utility.yul\":16723:16762   */\n      tag_472\n        /* \"#utility.yul\":16754:16761   */\n      dup4\n        /* \"#utility.yul\":16723:16762   */\n      tag_281\n      jump\t// in\n    tag_472:\n        /* \"#utility.yul\":16784:16875   */\n      tag_473\n        /* \"#utility.yul\":16833:16874   */\n      tag_474\n        /* \"#utility.yul\":16857:16873   */\n      dup3\n        /* \"#utility.yul\":16833:16874   */\n      tag_282\n      jump\t// in\n    tag_474:\n        /* \"#utility.yul\":16825:16831   */\n      dup5\n        /* \"#utility.yul\":16818:16822   */\n      dup5\n        /* \"#utility.yul\":16812:16823   */\n      sload\n        /* \"#utility.yul\":16784:16875   */\n      tag_278\n      jump\t// in\n    tag_473:\n        /* \"#utility.yul\":16778:16782   */\n      dup3\n        /* \"#utility.yul\":16771:16876   */\n      sstore\n        /* \"#utility.yul\":16689:16882   */\n      pop\n        /* \"#utility.yul\":16613:16882   */\n      pop\n      pop\n      pop\n      jump\t// out\n        /* \"#utility.yul\":16888:16961   */\n    tag_284:\n        /* \"#utility.yul\":16933:16936   */\n      0x00\n        /* \"#utility.yul\":16888:16961   */\n      swap1\n      jump\t// out\n        /* \"#utility.yul\":16967:17156   */\n    tag_285:\n        /* \"#utility.yul\":17044:17076   */\n      tag_477\n      tag_284\n      jump\t// in\n    tag_477:\n        /* \"#utility.yul\":17085:17150   */\n      tag_478\n        /* \"#utility.yul\":17143:17149   */\n      dup2\n        /* \"#utility.yul\":17135:17141   */\n      dup5\n        /* \"#utility.yul\":17129:17133   */\n      dup5\n        /* \"#utility.yul\":17085:17150   */\n      tag_283\n      jump\t// in\n    tag_478:\n        /* \"#utility.yul\":17020:17156   */\n      pop\n        /* \"#utility.yul\":16967:17156   */\n      pop\n      pop\n      jump\t// out\n        /* \"#utility.yul\":17162:17348   */\n    tag_286:\n        /* \"#utility.yul\":17222:17342   */\n    tag_480:\n        /* \"#utility.yul\":17239:17242   */\n      dup2\n        /* \"#utility.yul\":17232:17237   */\n      dup2\n        /* \"#utility.yul\":17229:17243   */\n      lt\n        /* \"#utility.yul\":17222:17342   */\n      iszero\n      tag_482\n      jumpi\n        /* \"#utility.yul\":17293:17332   */\n      tag_483\n        /* \"#utility.yul\":17330:17331   */\n      0x00\n        /* \"#utility.yul\":17323:17328   */\n      dup3\n        /* \"#utility.yul\":17293:17332   */\n      tag_285\n      jump\t// in\n    tag_483:\n        /* \"#utility.yul\":17266:17267   */\n      0x01\n        /* \"#utility.yul\":17259:17264   */\n      dup2\n        /* \"#utility.yul\":17255:17268   */\n      add\n        /* \"#utility.yul\":17246:17268   */\n      swap1\n      pop\n        /* \"#utility.yul\":17222:17342   */\n      jump(tag_480)\n    tag_482:\n        /* \"#utility.yul\":17162:17348   */\n      pop\n      pop\n      jump\t// out\n        /* \"#utility.yul\":17354:17897   */\n    tag_287:\n        /* \"#utility.yul\":17455:17457   */\n      0x1f\n        /* \"#utility.yul\":17450:17453   */\n      dup3\n        /* \"#utility.yul\":17447:17458   */\n      gt\n        /* \"#utility.yul\":17444:17890   */\n      iszero\n      tag_485\n      jumpi\n        /* \"#utility.yul\":17489:17527   */\n      tag_486\n        /* \"#utility.yul\":17521:17526   */\n      dup2\n        /* \"#utility.yul\":17489:17527   */\n      tag_275\n      jump\t// in\n    tag_486:\n        /* \"#utility.yul\":17573:17602   */\n      tag_487\n        /* \"#utility.yul\":17591:17601   */\n      dup5\n        /* \"#utility.yul\":17573:17602   */\n      tag_276\n      jump\t// in\n    tag_487:\n        /* \"#utility.yul\":17563:17571   */\n      dup2\n        /* \"#utility.yul\":17559:17603   */\n      add\n        /* \"#utility.yul\":17756:17758   */\n      0x20\n        /* \"#utility.yul\":17744:17754   */\n      dup6\n        /* \"#utility.yul\":17741:17759   */\n      lt\n        /* \"#utility.yul\":17738:17787   */\n      iszero\n      tag_488\n      jumpi\n        /* \"#utility.yul\":17777:17785   */\n      dup2\n        /* \"#utility.yul\":17762:17785   */\n      swap1\n      pop\n        /* \"#utility.yul\":17738:17787   */\n    tag_488:\n        /* \"#utility.yul\":17800:17880   */\n      tag_489\n        /* \"#utility.yul\":17856:17878   */\n      tag_490\n        /* \"#utility.yul\":17874:17877   */\n      dup6\n        /* \"#utility.yul\":17856:17878   */\n      tag_276\n      jump\t// in\n    tag_490:\n        /* \"#utility.yul\":17846:17854   */\n      dup4\n        /* \"#utility.yul\":17842:17879   */\n      add\n        /* \"#utility.yul\":17829:17840   */\n      dup3\n        /* \"#utility.yul\":17800:17880   */\n      tag_286\n      jump\t// in\n    tag_489:\n        /* \"#utility.yul\":17459:17890   */\n      pop\n      pop\n        /* \"#utility.yul\":17444:17890   */\n    tag_485:\n        /* \"#utility.yul\":17354:17897   */\n      pop\n      pop\n      pop\n      jump\t// out\n        /* \"#utility.yul\":17903:18020   */\n    tag_288:\n        /* \"#utility.yul\":17957:17965   */\n      0x00\n        /* \"#utility.yul\":18007:18012   */\n      dup3\n        /* \"#utility.yul\":18001:18005   */\n      dup3\n        /* \"#utility.yul\":17997:18013   */\n      shr\n        /* \"#utility.yul\":17976:18013   */\n      swap1\n      pop\n        /* \"#utility.yul\":17903:18020   */\n      swap3\n      swap2\n      pop\n      pop\n      jump\t// out\n        /* \"#utility.yul\":18026:18195   */\n    tag_289:\n        /* \"#utility.yul\":18070:18076   */\n      0x00\n        /* \"#utility.yul\":18103:18154   */\n      tag_493\n        /* \"#utility.yul\":18151:18152   */\n      0x00\n        /* \"#utility.yul\":18147:18153   */\n      not\n        /* \"#utility.yul\":18139:18144   */\n      dup5\n        /* \"#utility.yul\":18136:18137   */\n      0x08\n        /* \"#utility.yul\":18132:18145   */\n      mul\n        /* \"#utility.yul\":18103:18154   */\n      tag_288\n      jump\t// in\n    tag_493:\n        /* \"#utility.yul\":18099:18155   */\n      not\n        /* \"#utility.yul\":18184:18188   */\n      dup1\n        /* \"#utility.yul\":18178:18182   */\n      dup4\n        /* \"#utility.yul\":18174:18189   */\n      and\n        /* \"#utility.yul\":18164:18189   */\n      swap2\n      pop\n        /* \"#utility.yul\":18077:18195   */\n      pop\n        /* \"#utility.yul\":18026:18195   */\n      swap3\n      swap2\n      pop\n      pop\n      jump\t// out\n        /* \"#utility.yul\":18200:18495   */\n    tag_290:\n        /* \"#utility.yul\":18276:18280   */\n      0x00\n        /* \"#utility.yul\":18422:18451   */\n      tag_495\n        /* \"#utility.yul\":18447:18450   */\n      dup4\n        /* \"#utility.yul\":18441:18445   */\n      dup4\n        /* \"#utility.yul\":18422:18451   */\n      tag_289\n      jump\t// in\n    tag_495:\n        /* \"#utility.yul\":18414:18451   */\n      swap2\n      pop\n        /* \"#utility.yul\":18484:18487   */\n      dup3\n        /* \"#utility.yul\":18481:18482   */\n      0x02\n        /* \"#utility.yul\":18477:18488   */\n      mul\n        /* \"#utility.yul\":18471:18475   */\n      dup3\n        /* \"#utility.yul\":18468:18489   */\n      or\n        /* \"#utility.yul\":18460:18489   */\n      swap1\n      pop\n        /* \"#utility.yul\":18200:18495   */\n      swap3\n      swap2\n      pop\n      pop\n      jump\t// out\n        /* \"#utility.yul\":18500:19895   */\n    tag_76:\n        /* \"#utility.yul\":18617:18654   */\n      tag_497\n        /* \"#utility.yul\":18650:18653   */\n      dup3\n        /* \"#utility.yul\":18617:18654   */\n      tag_244\n      jump\t// in\n    tag_497:\n        /* \"#utility.yul\":18719:18737   */\n      0xffffffffffffffff\n        /* \"#utility.yul\":18711:18717   */\n      dup2\n        /* \"#utility.yul\":18708:18738   */\n      gt\n        /* \"#utility.yul\":18705:18761   */\n      iszero\n      tag_498\n      jumpi\n        /* \"#utility.yul\":18741:18759   */\n      tag_499\n      tag_237\n      jump\t// in\n    tag_499:\n        /* \"#utility.yul\":18705:18761   */\n    tag_498:\n        /* \"#utility.yul\":18785:18823   */\n      tag_500\n        /* \"#utility.yul\":18817:18821   */\n      dup3\n        /* \"#utility.yul\":18811:18822   */\n      sload\n        /* \"#utility.yul\":18785:18823   */\n      tag_90\n      jump\t// in\n    tag_500:\n        /* \"#utility.yul\":18870:18937   */\n      tag_501\n        /* \"#utility.yul\":18930:18936   */\n      dup3\n        /* \"#utility.yul\":18922:18928   */\n      dup3\n        /* \"#utility.yul\":18916:18920   */\n      dup6\n        /* \"#utility.yul\":18870:18937   */\n      tag_287\n      jump\t// in\n    tag_501:\n        /* \"#utility.yul\":18964:18965   */\n      0x00\n        /* \"#utility.yul\":18988:18992   */\n      0x20\n        /* \"#utility.yul\":18975:18992   */\n      swap1\n      pop\n        /* \"#utility.yul\":19020:19022   */\n      0x1f\n        /* \"#utility.yul\":19012:19018   */\n      dup4\n        /* \"#utility.yul\":19009:19023   */\n      gt\n        /* \"#utility.yul\":19037:19038   */\n      0x01\n        /* \"#utility.yul\":19032:19650   */\n      dup2\n      eq\n      tag_503\n      jumpi\n        /* \"#utility.yul\":19694:19695   */\n      0x00\n        /* \"#utility.yul\":19711:19717   */\n      dup5\n        /* \"#utility.yul\":19708:19785   */\n      iszero\n      tag_504\n      jumpi\n        /* \"#utility.yul\":19760:19769   */\n      dup3\n        /* \"#utility.yul\":19755:19758   */\n      dup8\n        /* \"#utility.yul\":19751:19770   */\n      add\n        /* \"#utility.yul\":19745:19771   */\n      mload\n        /* \"#utility.yul\":19736:19771   */\n      swap1\n      pop\n        /* \"#utility.yul\":19708:19785   */\n    tag_504:\n        /* \"#utility.yul\":19811:19878   */\n      tag_505\n        /* \"#utility.yul\":19871:19877   */\n      dup6\n        /* \"#utility.yul\":19864:19869   */\n      dup3\n        /* \"#utility.yul\":19811:19878   */\n      tag_290\n      jump\t// in\n    tag_505:\n        /* \"#utility.yul\":19805:19809   */\n      dup7\n        /* \"#utility.yul\":19798:19879   */\n      sstore\n        /* \"#utility.yul\":19667:19889   */\n      pop\n        /* \"#utility.yul\":19002:19889   */\n      jump(tag_502)\n        /* \"#utility.yul\":19032:19650   */\n    tag_503:\n        /* \"#utility.yul\":19084:19088   */\n      0x1f\n        /* \"#utility.yul\":19080:19089   */\n      not\n        /* \"#utility.yul\":19072:19078   */\n      dup5\n        /* \"#utility.yul\":19068:19090   */\n      and\n        /* \"#utility.yul\":19118:19155   */\n      tag_506\n        /* \"#utility.yul\":19150:19154   */\n      dup7\n        /* \"#utility.yul\":19118:19155   */\n      tag_275\n      jump\t// in\n    tag_506:\n        /* \"#utility.yul\":19177:19178   */\n      0x00\n        /* \"#utility.yul\":19191:19399   */\n    tag_507:\n        /* \"#utility.yul\":19205:19212   */\n      dup3\n        /* \"#utility.yul\":19202:19203   */\n      dup2\n        /* \"#utility.yul\":19199:19213   */\n      lt\n        /* \"#utility.yul\":19191:19399   */\n      iszero\n      tag_509\n      jumpi\n        /* \"#utility.yul\":19284:19293   */\n      dup5\n        /* \"#utility.yul\":19279:19282   */\n      dup10\n        /* \"#utility.yul\":19275:19294   */\n      add\n        /* \"#utility.yul\":19269:19295   */\n      mload\n        /* \"#utility.yul\":19261:19267   */\n      dup3\n        /* \"#utility.yul\":19254:19296   */\n      sstore\n        /* \"#utility.yul\":19335:19336   */\n      0x01\n        /* \"#utility.yul\":19327:19333   */\n      dup3\n        /* \"#utility.yul\":19323:19337   */\n      add\n        /* \"#utility.yul\":19313:19337   */\n      swap2\n      pop\n        /* \"#utility.yul\":19382:19384   */\n      0x20\n        /* \"#utility.yul\":19371:19380   */\n      dup6\n        /* \"#utility.yul\":19367:19385   */\n      add\n        /* \"#utility.yul\":19354:19385   */\n      swap5\n      pop\n        /* \"#utility.yul\":19228:19232   */\n      0x20\n        /* \"#utility.yul\":19225:19226   */\n      dup2\n        /* \"#utility.yul\":19221:19233   */\n      add\n        /* \"#utility.yul\":19216:19233   */\n      swap1\n      pop\n        /* \"#utility.yul\":19191:19399   */\n      jump(tag_507)\n    tag_509:\n        /* \"#utility.yul\":19427:19433   */\n      dup7\n        /* \"#utility.yul\":19418:19425   */\n      dup4\n        /* \"#utility.yul\":19415:19434   */\n      lt\n        /* \"#utility.yul\":19412:19591   */\n      iszero\n      tag_510\n      jumpi\n        /* \"#utility.yul\":19485:19494   */\n      dup5\n        /* \"#utility.yul\":19480:19483   */\n      dup10\n        /* \"#utility.yul\":19476:19495   */\n      add\n        /* \"#utility.yul\":19470:19496   */\n      mload\n        /* \"#utility.yul\":19528:19576   */\n      tag_511\n        /* \"#utility.yul\":19570:19574   */\n      0x1f\n        /* \"#utility.yul\":19562:19568   */\n      dup10\n        /* \"#utility.yul\":19558:19575   */\n      and\n        /* \"#utility.yul\":19547:19556   */\n      dup3\n        /* \"#utility.yul\":19528:19576   */\n      tag_289\n      jump\t// in\n    tag_511:\n        /* \"#utility.yul\":19520:19526   */\n      dup4\n        /* \"#utility.yul\":19513:19577   */\n      sstore\n        /* \"#utility.yul\":19435:19591   */\n      pop\n        /* \"#utility.yul\":19412:19591   */\n    tag_510:\n        /* \"#utility.yul\":19637:19638   */\n      0x01\n        /* \"#utility.yul\":19633:19634   */\n      0x02\n        /* \"#utility.yul\":19625:19631   */\n      dup9\n        /* \"#utility.yul\":19621:19635   */\n      mul\n        /* \"#utility.yul\":19617:19639   */\n      add\n        /* \"#utility.yul\":19611:19615   */\n      dup9\n        /* \"#utility.yul\":19604:19640   */\n      sstore\n        /* \"#utility.yul\":19039:19650   */\n      pop\n      pop\n      pop\n        /* \"#utility.yul\":19002:19889   */\n    tag_502:\n      pop\n        /* \"#utility.yul\":18592:19895   */\n      pop\n      pop\n      pop\n        /* \"#utility.yul\":18500:19895   */\n      pop\n      pop\n      jump\t// out\n        /* \"#utility.yul\":19901:20415   */\n    tag_78:\n        /* \"#utility.yul\":20062:20066   */\n      0x00\n        /* \"#utility.yul\":20100:20102   */\n      0x40\n        /* \"#utility.yul\":20089:20098   */\n      dup3\n        /* \"#utility.yul\":20085:20103   */\n      add\n        /* \"#utility.yul\":20077:20103   */\n      swap1\n      pop\n        /* \"#utility.yul\":20149:20158   */\n      dup2\n        /* \"#utility.yul\":20143:20147   */\n      dup2\n        /* \"#utility.yul\":20139:20159   */\n      sub\n        /* \"#utility.yul\":20135:20136   */\n      0x00\n        /* \"#utility.yul\":20124:20133   */\n      dup4\n        /* \"#utility.yul\":20120:20137   */\n      add\n        /* \"#utility.yul\":20113:20160   */\n      mstore\n        /* \"#utility.yul\":20177:20255   */\n      tag_513\n        /* \"#utility.yul\":20250:20254   */\n      dup2\n        /* \"#utility.yul\":20241:20247   */\n      dup6\n        /* \"#utility.yul\":20177:20255   */\n      tag_247\n      jump\t// in\n    tag_513:\n        /* \"#utility.yul\":20169:20255   */\n      swap1\n      pop\n        /* \"#utility.yul\":20302:20311   */\n      dup2\n        /* \"#utility.yul\":20296:20300   */\n      dup2\n        /* \"#utility.yul\":20292:20312   */\n      sub\n        /* \"#utility.yul\":20287:20289   */\n      0x20\n        /* \"#utility.yul\":20276:20285   */\n      dup4\n        /* \"#utility.yul\":20272:20290   */\n      add\n        /* \"#utility.yul\":20265:20313   */\n      mstore\n        /* \"#utility.yul\":20330:20408   */\n      tag_514\n        /* \"#utility.yul\":20403:20407   */\n      dup2\n        /* \"#utility.yul\":20394:20400   */\n      dup5\n        /* \"#utility.yul\":20330:20408   */\n      tag_247\n      jump\t// in\n    tag_514:\n        /* \"#utility.yul\":20322:20408   */\n      swap1\n      pop\n        /* \"#utility.yul\":19901:20415   */\n      swap4\n      swap3\n      pop\n      pop\n      pop\n      jump\t// out\n        /* \"#utility.yul\":20421:20585   */\n    tag_291:\n        /* \"#utility.yul\":20561:20577   */\n      0x4e6f205265616420616363657373000000000000000000000000000000000000\n        /* \"#utility.yul\":20557:20558   */\n      0x00\n        /* \"#utility.yul\":20549:20555   */\n      dup3\n        /* \"#utility.yul\":20545:20559   */\n      add\n        /* \"#utility.yul\":20538:20578   */\n      mstore\n        /* \"#utility.yul\":20421:20585   */\n      pop\n      jump\t// out\n        /* \"#utility.yul\":20591:20957   */\n    tag_292:\n        /* \"#utility.yul\":20733:20736   */\n      0x00\n        /* \"#utility.yul\":20754:20821   */\n      tag_517\n        /* \"#utility.yul\":20818:20820   */\n      0x0e\n        /* \"#utility.yul\":20813:20816   */\n      dup4\n        /* \"#utility.yul\":20754:20821   */\n      tag_245\n      jump\t// in\n    tag_517:\n        /* \"#utility.yul\":20747:20821   */\n      swap2\n      pop\n        /* \"#utility.yul\":20830:20923   */\n      tag_518\n        /* \"#utility.yul\":20919:20922   */\n      dup3\n        /* \"#utility.yul\":20830:20923   */\n      tag_291\n      jump\t// in\n    tag_518:\n        /* \"#utility.yul\":20948:20950   */\n      0x20\n        /* \"#utility.yul\":20943:20946   */\n      dup3\n        /* \"#utility.yul\":20939:20951   */\n      add\n        /* \"#utility.yul\":20932:20951   */\n      swap1\n      pop\n        /* \"#utility.yul\":20591:20957   */\n      swap2\n      swap1\n      pop\n      jump\t// out\n        /* \"#utility.yul\":20963:21382   */\n    tag_87:\n        /* \"#utility.yul\":21129:21133   */\n      0x00\n        /* \"#utility.yul\":21167:21169   */\n      0x20\n        /* \"#utility.yul\":21156:21165   */\n      dup3\n        /* \"#utility.yul\":21152:21170   */\n      add\n        /* \"#utility.yul\":21144:21170   */\n      swap1\n      pop\n        /* \"#utility.yul\":21216:21225   */\n      dup2\n        /* \"#utility.yul\":21210:21214   */\n      dup2\n        /* \"#utility.yul\":21206:21226   */\n      sub\n        /* \"#utility.yul\":21202:21203   */\n      0x00\n        /* \"#utility.yul\":21191:21200   */\n      dup4\n        /* \"#utility.yul\":21187:21204   */\n      add\n        /* \"#utility.yul\":21180:21227   */\n      mstore\n        /* \"#utility.yul\":21244:21375   */\n      tag_520\n        /* \"#utility.yul\":21370:21374   */\n      dup2\n        /* \"#utility.yul\":21244:21375   */\n      tag_292\n      jump\t// in\n    tag_520:\n        /* \"#utility.yul\":21236:21375   */\n      swap1\n      pop\n        /* \"#utility.yul\":20963:21382   */\n      swap2\n      swap1\n      pop\n      jump\t// out\n        /* \"#utility.yul\":21388:21568   */\n    tag_103:\n        /* \"#utility.yul\":21436:21513   */\n      0x4e487b7100000000000000000000000000000000000000000000000000000000\n        /* \"#utility.yul\":21433:21434   */\n      0x00\n        /* \"#utility.yul\":21426:21514   */\n      mstore\n        /* \"#utility.yul\":21533:21537   */\n      0x32\n        /* \"#utility.yul\":21530:21531   */\n      0x04\n        /* \"#utility.yul\":21523:21538   */\n      mstore\n        /* \"#utility.yul\":21557:21561   */\n      0x24\n        /* \"#utility.yul\":21554:21555   */\n      0x00\n        /* \"#utility.yul\":21547:21562   */\n      revert\n        /* \"#utility.yul\":21574:21743   */\n    tag_293:\n        /* \"#utility.yul\":21714:21735   */\n      0x45786365656465642066696c65206c696d697400000000000000000000000000\n        /* \"#utility.yul\":21710:21711   */\n      0x00\n        /* \"#utility.yul\":21702:21708   */\n      dup3\n        /* \"#utility.yul\":21698:21712   */\n      add\n        /* \"#utility.yul\":21691:21736   */\n      mstore\n        /* \"#utility.yul\":21574:21743   */\n      pop\n      jump\t// out\n        /* \"#utility.yul\":21749:22115   */\n    tag_294:\n        /* \"#utility.yul\":21891:21894   */\n      0x00\n        /* \"#utility.yul\":21912:21979   */\n      tag_524\n        /* \"#utility.yul\":21976:21978   */\n      0x13\n        /* \"#utility.yul\":21971:21974   */\n      dup4\n        /* \"#utility.yul\":21912:21979   */\n      tag_245\n      jump\t// in\n    tag_524:\n        /* \"#utility.yul\":21905:21979   */\n      swap2\n      pop\n        /* \"#utility.yul\":21988:22081   */\n      tag_525\n        /* \"#utility.yul\":22077:22080   */\n      dup3\n        /* \"#utility.yul\":21988:22081   */\n      tag_293\n      jump\t// in\n    tag_525:\n        /* \"#utility.yul\":22106:22108   */\n      0x20\n        /* \"#utility.yul\":22101:22104   */\n      dup3\n        /* \"#utility.yul\":22097:22109   */\n      add\n        /* \"#utility.yul\":22090:22109   */\n      swap1\n      pop\n        /* \"#utility.yul\":21749:22115   */\n      swap2\n      swap1\n      pop\n      jump\t// out\n        /* \"#utility.yul\":22121:22540   */\n    tag_107:\n        /* \"#utility.yul\":22287:22291   */\n      0x00\n        /* \"#utility.yul\":22325:22327   */\n      0x20\n        /* \"#utility.yul\":22314:22323   */\n      dup3\n        /* \"#utility.yul\":22310:22328   */\n      add\n        /* \"#utility.yul\":22302:22328   */\n      swap1\n      pop\n        /* \"#utility.yul\":22374:22383   */\n      dup2\n        /* \"#utility.yul\":22368:22372   */\n      dup2\n        /* \"#utility.yul\":22364:22384   */\n      sub\n        /* \"#utility.yul\":22360:22361   */\n      0x00\n        /* \"#utility.yul\":22349:22358   */\n      dup4\n        /* \"#utility.yul\":22345:22362   */\n      add\n        /* \"#utility.yul\":22338:22385   */\n      mstore\n        /* \"#utility.yul\":22402:22533   */\n      tag_527\n        /* \"#utility.yul\":22528:22532   */\n      dup2\n        /* \"#utility.yul\":22402:22533   */\n      tag_294\n      jump\t// in\n    tag_527:\n        /* \"#utility.yul\":22394:22533   */\n      swap1\n      pop\n        /* \"#utility.yul\":22121:22540   */\n      swap2\n      swap1\n      pop\n      jump\t// out\n        /* \"#utility.yul\":22546:22720   */\n    tag_295:\n        /* \"#utility.yul\":22686:22712   */\n      0x46696c656e616d652063616e6e6f7420626520656d7074790000000000000000\n        /* \"#utility.yul\":22682:22683   */\n      0x00\n        /* \"#utility.yul\":22674:22680   */\n      dup3\n        /* \"#utility.yul\":22670:22684   */\n      add\n        /* \"#utility.yul\":22663:22713   */\n      mstore\n        /* \"#utility.yul\":22546:22720   */\n      pop\n      jump\t// out\n        /* \"#utility.yul\":22726:23092   */\n    tag_296:\n        /* \"#utility.yul\":22868:22871   */\n      0x00\n        /* \"#utility.yul\":22889:22956   */\n      tag_530\n        /* \"#utility.yul\":22953:22955   */\n      0x18\n        /* \"#utility.yul\":22948:22951   */\n      dup4\n        /* \"#utility.yul\":22889:22956   */\n      tag_245\n      jump\t// in\n    tag_530:\n        /* \"#utility.yul\":22882:22956   */\n      swap2\n      pop\n        /* \"#utility.yul\":22965:23058   */\n      tag_531\n        /* \"#utility.yul\":23054:23057   */\n      dup3\n        /* \"#utility.yul\":22965:23058   */\n      tag_295\n      jump\t// in\n    tag_531:\n        /* \"#utility.yul\":23083:23085   */\n      0x20\n        /* \"#utility.yul\":23078:23081   */\n      dup3\n        /* \"#utility.yul\":23074:23086   */\n      add\n        /* \"#utility.yul\":23067:23086   */\n      swap1\n      pop\n        /* \"#utility.yul\":22726:23092   */\n      swap2\n      swap1\n      pop\n      jump\t// out\n        /* \"#utility.yul\":23098:23517   */\n    tag_111:\n        /* \"#utility.yul\":23264:23268   */\n      0x00\n        /* \"#utility.yul\":23302:23304   */\n      0x20\n        /* \"#utility.yul\":23291:23300   */\n      dup3\n        /* \"#utility.yul\":23287:23305   */\n      add\n        /* \"#utility.yul\":23279:23305   */\n      swap1\n      pop\n        /* \"#utility.yul\":23351:23360   */\n      dup2\n        /* \"#utility.yul\":23345:23349   */\n      dup2\n        /* \"#utility.yul\":23341:23361   */\n      sub\n        /* \"#utility.yul\":23337:23338   */\n      0x00\n        /* \"#utility.yul\":23326:23335   */\n      dup4\n        /* \"#utility.yul\":23322:23339   */\n      add\n        /* \"#utility.yul\":23315:23362   */\n      mstore\n        /* \"#utility.yul\":23379:23510   */\n      tag_533\n        /* \"#utility.yul\":23505:23509   */\n      dup2\n        /* \"#utility.yul\":23379:23510   */\n      tag_296\n      jump\t// in\n    tag_533:\n        /* \"#utility.yul\":23371:23510   */\n      swap1\n      pop\n        /* \"#utility.yul\":23098:23517   */\n      swap2\n      swap1\n      pop\n      jump\t// out\n        /* \"#utility.yul\":23523:23692   */\n    tag_297:\n        /* \"#utility.yul\":23663:23684   */\n      0x46696c6520616c72656164792065786973747300000000000000000000000000\n        /* \"#utility.yul\":23659:23660   */\n      0x00\n        /* \"#utility.yul\":23651:23657   */\n      dup3\n        /* \"#utility.yul\":23647:23661   */\n      add\n        /* \"#utility.yul\":23640:23685   */\n      mstore\n        /* \"#utility.yul\":23523:23692   */\n      pop\n      jump\t// out\n        /* \"#utility.yul\":23698:24064   */\n    tag_298:\n        /* \"#utility.yul\":23840:23843   */\n      0x00\n        /* \"#utility.yul\":23861:23928   */\n      tag_536\n        /* \"#utility.yul\":23925:23927   */\n      0x13\n        /* \"#utility.yul\":23920:23923   */\n      dup4\n        /* \"#utility.yul\":23861:23928   */\n      tag_245\n      jump\t// in\n    tag_536:\n        /* \"#utility.yul\":23854:23928   */\n      swap2\n      pop\n        /* \"#utility.yul\":23937:24030   */\n      tag_537\n        /* \"#utility.yul\":24026:24029   */\n      dup3\n        /* \"#utility.yul\":23937:24030   */\n      tag_297\n      jump\t// in\n    tag_537:\n        /* \"#utility.yul\":24055:24057   */\n      0x20\n        /* \"#utility.yul\":24050:24053   */\n      dup3\n        /* \"#utility.yul\":24046:24058   */\n      add\n        /* \"#utility.yul\":24039:24058   */\n      swap1\n      pop\n        /* \"#utility.yul\":23698:24064   */\n      swap2\n      swap1\n      pop\n      jump\t// out\n        /* \"#utility.yul\":24070:24489   */\n    tag_115:\n        /* \"#utility.yul\":24236:24240   */\n      0x00\n        /* \"#utility.yul\":24274:24276   */\n      0x20\n        /* \"#utility.yul\":24263:24272   */\n      dup3\n        /* \"#utility.yul\":24259:24277   */\n      add\n        /* \"#utility.yul\":24251:24277   */\n      swap1\n      pop\n        /* \"#utility.yul\":24323:24332   */\n      dup2\n        /* \"#utility.yul\":24317:24321   */\n      dup2\n        /* \"#utility.yul\":24313:24333   */\n      sub\n        /* \"#utility.yul\":24309:24310   */\n      0x00\n        /* \"#utility.yul\":24298:24307   */\n      dup4\n        /* \"#utility.yul\":24294:24311   */\n      add\n        /* \"#utility.yul\":24287:24334   */\n      mstore\n        /* \"#utility.yul\":24351:24482   */\n      tag_539\n        /* \"#utility.yul\":24477:24481   */\n      dup2\n        /* \"#utility.yul\":24351:24482   */\n      tag_298\n      jump\t// in\n    tag_539:\n        /* \"#utility.yul\":24343:24482   */\n      swap1\n      pop\n        /* \"#utility.yul\":24070:24489   */\n      swap2\n      swap1\n      pop\n      jump\t// out\n        /* \"#utility.yul\":24495:24675   */\n    tag_299:\n        /* \"#utility.yul\":24543:24620   */\n      0x4e487b7100000000000000000000000000000000000000000000000000000000\n        /* \"#utility.yul\":24540:24541   */\n      0x00\n        /* \"#utility.yul\":24533:24621   */\n      mstore\n        /* \"#utility.yul\":24640:24644   */\n      0x11\n        /* \"#utility.yul\":24637:24638   */\n      0x04\n        /* \"#utility.yul\":24630:24645   */\n      mstore\n        /* \"#utility.yul\":24664:24668   */\n      0x24\n        /* \"#utility.yul\":24661:24662   */\n      0x00\n        /* \"#utility.yul\":24654:24669   */\n      revert\n        /* \"#utility.yul\":24681:24770   */\n    tag_300:\n        /* \"#utility.yul\":24717:24724   */\n      0x00\n        /* \"#utility.yul\":24757:24763   */\n      0xffff\n        /* \"#utility.yul\":24750:24755   */\n      dup3\n        /* \"#utility.yul\":24746:24764   */\n      and\n        /* \"#utility.yul\":24735:24764   */\n      swap1\n      pop\n        /* \"#utility.yul\":24681:24770   */\n      swap2\n      swap1\n      pop\n      jump\t// out\n        /* \"#utility.yul\":24776:24947   */\n    tag_120:\n        /* \"#utility.yul\":24814:24817   */\n      0x00\n        /* \"#utility.yul\":24837:24860   */\n      tag_543\n        /* \"#utility.yul\":24854:24859   */\n      dup3\n        /* \"#utility.yul\":24837:24860   */\n      tag_300\n      jump\t// in\n    tag_543:\n        /* \"#utility.yul\":24828:24860   */\n      swap2\n      pop\n        /* \"#utility.yul\":24882:24888   */\n      0xffff\n        /* \"#utility.yul\":24875:24880   */\n      dup3\n        /* \"#utility.yul\":24872:24889   */\n      sub\n        /* \"#utility.yul\":24869:24912   */\n      tag_544\n      jumpi\n        /* \"#utility.yul\":24892:24910   */\n      tag_545\n      tag_299\n      jump\t// in\n    tag_545:\n        /* \"#utility.yul\":24869:24912   */\n    tag_544:\n        /* \"#utility.yul\":24939:24940   */\n      0x01\n        /* \"#utility.yul\":24932:24937   */\n      dup3\n        /* \"#utility.yul\":24928:24941   */\n      add\n        /* \"#utility.yul\":24921:24941   */\n      swap1\n      pop\n        /* \"#utility.yul\":24776:24947   */\n      swap2\n      swap1\n      pop\n      jump\t// out\n        /* \"#utility.yul\":24953:25118   */\n    tag_301:\n        /* \"#utility.yul\":25093:25110   */\n      0x4e6f207772697465206163636573730000000000000000000000000000000000\n        /* \"#utility.yul\":25089:25090   */\n      0x00\n        /* \"#utility.yul\":25081:25087   */\n      dup3\n        /* \"#utility.yul\":25077:25091   */\n      add\n        /* \"#utility.yul\":25070:25111   */\n      mstore\n        /* \"#utility.yul\":24953:25118   */\n      pop\n      jump\t// out\n        /* \"#utility.yul\":25124:25490   */\n    tag_302:\n        /* \"#utility.yul\":25266:25269   */\n      0x00\n        /* \"#utility.yul\":25287:25354   */\n      tag_548\n        /* \"#utility.yul\":25351:25353   */\n      0x0f\n        /* \"#utility.yul\":25346:25349   */\n      dup4\n        /* \"#utility.yul\":25287:25354   */\n      tag_245\n      jump\t// in\n    tag_548:\n        /* \"#utility.yul\":25280:25354   */\n      swap2\n      pop\n        /* \"#utility.yul\":25363:25456   */\n      tag_549\n        /* \"#utility.yul\":25452:25455   */\n      dup3\n        /* \"#utility.yul\":25363:25456   */\n      tag_301\n      jump\t// in\n    tag_549:\n        /* \"#utility.yul\":25481:25483   */\n      0x20\n        /* \"#utility.yul\":25476:25479   */\n      dup3\n        /* \"#utility.yul\":25472:25484   */\n      add\n        /* \"#utility.yul\":25465:25484   */\n      swap1\n      pop\n        /* \"#utility.yul\":25124:25490   */\n      swap2\n      swap1\n      pop\n      jump\t// out\n        /* \"#utility.yul\":25496:25915   */\n    tag_132:\n        /* \"#utility.yul\":25662:25666   */\n      0x00\n        /* \"#utility.yul\":25700:25702   */\n      0x20\n        /* \"#utility.yul\":25689:25698   */\n      dup3\n        /* \"#utility.yul\":25685:25703   */\n      add\n        /* \"#utility.yul\":25677:25703   */\n      swap1\n      pop\n        /* \"#utility.yul\":25749:25758   */\n      dup2\n        /* \"#utility.yul\":25743:25747   */\n      dup2\n        /* \"#utility.yul\":25739:25759   */\n      sub\n        /* \"#utility.yul\":25735:25736   */\n      0x00\n        /* \"#utility.yul\":25724:25733   */\n      dup4\n        /* \"#utility.yul\":25720:25737   */\n      add\n        /* \"#utility.yul\":25713:25760   */\n      mstore\n        /* \"#utility.yul\":25777:25908   */\n      tag_551\n        /* \"#utility.yul\":25903:25907   */\n      dup2\n        /* \"#utility.yul\":25777:25908   */\n      tag_302\n      jump\t// in\n    tag_551:\n        /* \"#utility.yul\":25769:25908   */\n      swap1\n      pop\n        /* \"#utility.yul\":25496:25915   */\n      swap2\n      swap1\n      pop\n      jump\t// out\n        /* \"#utility.yul\":25945:26819   */\n    tag_303:\n        /* \"#utility.yul\":26048:26051   */\n      0x00\n        /* \"#utility.yul\":26085:26090   */\n      dup2\n        /* \"#utility.yul\":26079:26091   */\n      sload\n        /* \"#utility.yul\":26114:26150   */\n      tag_553\n        /* \"#utility.yul\":26140:26149   */\n      dup2\n        /* \"#utility.yul\":26114:26150   */\n      tag_90\n      jump\t// in\n    tag_553:\n        /* \"#utility.yul\":26166:26255   */\n      tag_554\n        /* \"#utility.yul\":26248:26254   */\n      dup2\n        /* \"#utility.yul\":26243:26246   */\n      dup7\n        /* \"#utility.yul\":26166:26255   */\n      tag_266\n      jump\t// in\n    tag_554:\n        /* \"#utility.yul\":26159:26255   */\n      swap5\n      pop\n        /* \"#utility.yul\":26286:26287   */\n      0x01\n        /* \"#utility.yul\":26275:26284   */\n      dup3\n        /* \"#utility.yul\":26271:26288   */\n      and\n        /* \"#utility.yul\":26302:26303   */\n      0x00\n        /* \"#utility.yul\":26297:26463   */\n      dup2\n      eq\n      tag_556\n      jumpi\n        /* \"#utility.yul\":26477:26478   */\n      0x01\n        /* \"#utility.yul\":26472:26813   */\n      dup2\n      eq\n      tag_557\n      jumpi\n        /* \"#utility.yul\":26264:26813   */\n      jump(tag_555)\n        /* \"#utility.yul\":26297:26463   */\n    tag_556:\n        /* \"#utility.yul\":26381:26385   */\n      0xff\n        /* \"#utility.yul\":26377:26386   */\n      not\n        /* \"#utility.yul\":26366:26375   */\n      dup4\n        /* \"#utility.yul\":26362:26387   */\n      and\n        /* \"#utility.yul\":26357:26360   */\n      dup7\n        /* \"#utility.yul\":26350:26388   */\n      mstore\n        /* \"#utility.yul\":26443:26449   */\n      dup2\n        /* \"#utility.yul\":26436:26450   */\n      iszero\n        /* \"#utility.yul\":26429:26451   */\n      iszero\n        /* \"#utility.yul\":26421:26427   */\n      dup3\n        /* \"#utility.yul\":26417:26452   */\n      mul\n        /* \"#utility.yul\":26412:26415   */\n      dup7\n        /* \"#utility.yul\":26408:26453   */\n      add\n        /* \"#utility.yul\":26401:26453   */\n      swap4\n      pop\n        /* \"#utility.yul\":26297:26463   */\n      jump(tag_555)\n        /* \"#utility.yul\":26472:26813   */\n    tag_557:\n        /* \"#utility.yul\":26539:26577   */\n      tag_558\n        /* \"#utility.yul\":26571:26576   */\n      dup6\n        /* \"#utility.yul\":26539:26577   */\n      tag_275\n      jump\t// in\n    tag_558:\n        /* \"#utility.yul\":26599:26600   */\n      0x00\n        /* \"#utility.yul\":26613:26767   */\n    tag_559:\n        /* \"#utility.yul\":26627:26633   */\n      dup4\n        /* \"#utility.yul\":26624:26625   */\n      dup2\n        /* \"#utility.yul\":26621:26634   */\n      lt\n        /* \"#utility.yul\":26613:26767   */\n      iszero\n      tag_561\n      jumpi\n        /* \"#utility.yul\":26701:26708   */\n      dup2\n        /* \"#utility.yul\":26695:26709   */\n      sload\n        /* \"#utility.yul\":26691:26692   */\n      dup2\n        /* \"#utility.yul\":26686:26689   */\n      dup10\n        /* \"#utility.yul\":26682:26693   */\n      add\n        /* \"#utility.yul\":26675:26710   */\n      mstore\n        /* \"#utility.yul\":26751:26752   */\n      0x01\n        /* \"#utility.yul\":26742:26749   */\n      dup3\n        /* \"#utility.yul\":26738:26753   */\n      add\n        /* \"#utility.yul\":26727:26753   */\n      swap2\n      pop\n        /* \"#utility.yul\":26649:26653   */\n      0x20\n        /* \"#utility.yul\":26646:26647   */\n      dup2\n        /* \"#utility.yul\":26642:26654   */\n      add\n        /* \"#utility.yul\":26637:26654   */\n      swap1\n      pop\n        /* \"#utility.yul\":26613:26767   */\n      jump(tag_559)\n    tag_561:\n        /* \"#utility.yul\":26796:26802   */\n      dup4\n        /* \"#utility.yul\":26791:26794   */\n      dup9\n        /* \"#utility.yul\":26787:26803   */\n      add\n        /* \"#utility.yul\":26780:26803   */\n      swap6\n      pop\n        /* \"#utility.yul\":26479:26813   */\n      pop\n      pop\n        /* \"#utility.yul\":26264:26813   */\n    tag_555:\n      pop\n        /* \"#utility.yul\":26052:26819   */\n      pop\n      pop\n        /* \"#utility.yul\":25945:26819   */\n      swap3\n      swap2\n      pop\n      pop\n      jump\t// out\n        /* \"#utility.yul\":26825:27094   */\n    tag_156:\n        /* \"#utility.yul\":26954:26957   */\n      0x00\n        /* \"#utility.yul\":26976:27068   */\n      tag_563\n        /* \"#utility.yul\":27064:27067   */\n      dup3\n        /* \"#utility.yul\":27055:27061   */\n      dup5\n        /* \"#utility.yul\":26976:27068   */\n      tag_303\n      jump\t// in\n    tag_563:\n        /* \"#utility.yul\":26969:27068   */\n      swap2\n      pop\n        /* \"#utility.yul\":27085:27088   */\n      dup2\n        /* \"#utility.yul\":27078:27088   */\n      swap1\n      pop\n        /* \"#utility.yul\":26825:27094   */\n      swap3\n      swap2\n      pop\n      pop\n      jump\t// out\n        /* \"#utility.yul\":27100:27294   */\n    tag_159:\n        /* \"#utility.yul\":27140:27144   */\n      0x00\n        /* \"#utility.yul\":27160:27180   */\n      tag_565\n        /* \"#utility.yul\":27178:27179   */\n      dup3\n        /* \"#utility.yul\":27160:27180   */\n      tag_279\n      jump\t// in\n    tag_565:\n        /* \"#utility.yul\":27155:27180   */\n      swap2\n      pop\n        /* \"#utility.yul\":27194:27214   */\n      tag_566\n        /* \"#utility.yul\":27212:27213   */\n      dup4\n        /* \"#utility.yul\":27194:27214   */\n      tag_279\n      jump\t// in\n    tag_566:\n        /* \"#utility.yul\":27189:27214   */\n      swap3\n      pop\n        /* \"#utility.yul\":27238:27239   */\n      dup3\n        /* \"#utility.yul\":27235:27236   */\n      dup3\n        /* \"#utility.yul\":27231:27240   */\n      sub\n        /* \"#utility.yul\":27223:27240   */\n      swap1\n      pop\n        /* \"#utility.yul\":27262:27263   */\n      dup2\n        /* \"#utility.yul\":27256:27260   */\n      dup2\n        /* \"#utility.yul\":27253:27264   */\n      gt\n        /* \"#utility.yul\":27250:27287   */\n      iszero\n      tag_567\n      jumpi\n        /* \"#utility.yul\":27267:27285   */\n      tag_568\n      tag_299\n      jump\t// in\n    tag_568:\n        /* \"#utility.yul\":27250:27287   */\n    tag_567:\n        /* \"#utility.yul\":27100:27294   */\n      swap3\n      swap2\n      pop\n      pop\n      jump\t// out\n        /* \"#utility.yul\":27300:27453   */\n    tag_304:\n        /* \"#utility.yul\":27353:27359   */\n      0x00\n        /* \"#utility.yul\":27387:27392   */\n      dup2\n        /* \"#utility.yul\":27381:27393   */\n      sload\n        /* \"#utility.yul\":27371:27393   */\n      swap1\n      pop\n        /* \"#utility.yul\":27413:27446   */\n      tag_570\n        /* \"#utility.yul\":27439:27445   */\n      dup2\n        /* \"#utility.yul\":27413:27446   */\n      tag_90\n      jump\t// in\n    tag_570:\n        /* \"#utility.yul\":27403:27446   */\n      swap1\n      pop\n        /* \"#utility.yul\":27300:27453   */\n      swap2\n      swap1\n      pop\n      jump\t// out\n        /* \"#utility.yul\":27459:27604   */\n    tag_305:\n        /* \"#utility.yul\":27512:27516   */\n      0x00\n        /* \"#utility.yul\":27535:27538   */\n      dup2\n        /* \"#utility.yul\":27527:27538   */\n      swap1\n      pop\n        /* \"#utility.yul\":27558:27561   */\n      dup2\n        /* \"#utility.yul\":27555:27556   */\n      0x00\n        /* \"#utility.yul\":27548:27562   */\n      mstore\n        /* \"#utility.yul\":27592:27596   */\n      0x20\n        /* \"#utility.yul\":27589:27590   */\n      0x00\n        /* \"#utility.yul\":27579:27597   */\n      keccak256\n        /* \"#utility.yul\":27571:27597   */\n      swap1\n      pop\n        /* \"#utility.yul\":27459:27604   */\n      swap2\n      swap1\n      pop\n      jump\t// out\n        /* \"#utility.yul\":27610:29073   */\n    tag_167:\n        /* \"#utility.yul\":27725:27728   */\n      dup2\n        /* \"#utility.yul\":27719:27723   */\n      dup2\n        /* \"#utility.yul\":27716:27729   */\n      sub\n        /* \"#utility.yul\":27713:27739   */\n      tag_573\n      jumpi\n        /* \"#utility.yul\":27732:27737   */\n      pop\n      pop\n      jump(tag_572)\n        /* \"#utility.yul\":27713:27739   */\n    tag_573:\n        /* \"#utility.yul\":27763:27801   */\n      tag_574\n        /* \"#utility.yul\":27797:27800   */\n      dup3\n        /* \"#utility.yul\":27763:27801   */\n      tag_304\n      jump\t// in\n    tag_574:\n        /* \"#utility.yul\":27866:27884   */\n      0xffffffffffffffff\n        /* \"#utility.yul\":27858:27864   */\n      dup2\n        /* \"#utility.yul\":27855:27885   */\n      gt\n        /* \"#utility.yul\":27852:27908   */\n      iszero\n      tag_575\n      jumpi\n        /* \"#utility.yul\":27888:27906   */\n      tag_576\n      tag_237\n      jump\t// in\n    tag_576:\n        /* \"#utility.yul\":27852:27908   */\n    tag_575:\n        /* \"#utility.yul\":27932:27970   */\n      tag_577\n        /* \"#utility.yul\":27964:27968   */\n      dup3\n        /* \"#utility.yul\":27958:27969   */\n      sload\n        /* \"#utility.yul\":27932:27970   */\n      tag_90\n      jump\t// in\n    tag_577:\n        /* \"#utility.yul\":28017:28084   */\n      tag_578\n        /* \"#utility.yul\":28077:28083   */\n      dup3\n        /* \"#utility.yul\":28069:28075   */\n      dup3\n        /* \"#utility.yul\":28063:28067   */\n      dup6\n        /* \"#utility.yul\":28017:28084   */\n      tag_287\n      jump\t// in\n    tag_578:\n        /* \"#utility.yul\":28111:28112   */\n      0x00\n        /* \"#utility.yul\":28140:28142   */\n      0x1f\n        /* \"#utility.yul\":28132:28138   */\n      dup4\n        /* \"#utility.yul\":28129:28143   */\n      gt\n        /* \"#utility.yul\":28157:28158   */\n      0x01\n        /* \"#utility.yul\":28152:28828   */\n      dup2\n      eq\n      tag_580\n      jumpi\n        /* \"#utility.yul\":28872:28873   */\n      0x00\n        /* \"#utility.yul\":28889:28895   */\n      dup5\n        /* \"#utility.yul\":28886:28963   */\n      iszero\n      tag_581\n      jumpi\n        /* \"#utility.yul\":28938:28947   */\n      dup3\n        /* \"#utility.yul\":28933:28936   */\n      dup8\n        /* \"#utility.yul\":28929:28948   */\n      add\n        /* \"#utility.yul\":28923:28949   */\n      sload\n        /* \"#utility.yul\":28914:28949   */\n      swap1\n      pop\n        /* \"#utility.yul\":28886:28963   */\n    tag_581:\n        /* \"#utility.yul\":28989:29056   */\n      tag_582\n        /* \"#utility.yul\":29049:29055   */\n      dup6\n        /* \"#utility.yul\":29042:29047   */\n      dup3\n        /* \"#utility.yul\":28989:29056   */\n      tag_290\n      jump\t// in\n    tag_582:\n        /* \"#utility.yul\":28983:28987   */\n      dup7\n        /* \"#utility.yul\":28976:29057   */\n      sstore\n        /* \"#utility.yul\":28845:29067   */\n      pop\n        /* \"#utility.yul\":28122:29067   */\n      jump(tag_579)\n        /* \"#utility.yul\":28152:28828   */\n    tag_580:\n        /* \"#utility.yul\":28204:28208   */\n      0x1f\n        /* \"#utility.yul\":28200:28209   */\n      not\n        /* \"#utility.yul\":28192:28198   */\n      dup5\n        /* \"#utility.yul\":28188:28210   */\n      and\n        /* \"#utility.yul\":28230:28270   */\n      tag_583\n        /* \"#utility.yul\":28266:28269   */\n      dup8\n        /* \"#utility.yul\":28230:28270   */\n      tag_305\n      jump\t// in\n    tag_583:\n        /* \"#utility.yul\":28223:28270   */\n      swap7\n      pop\n        /* \"#utility.yul\":28297:28334   */\n      tag_584\n        /* \"#utility.yul\":28329:28333   */\n      dup7\n        /* \"#utility.yul\":28297:28334   */\n      tag_275\n      jump\t// in\n    tag_584:\n        /* \"#utility.yul\":28356:28357   */\n      0x00\n        /* \"#utility.yul\":28370:28577   */\n    tag_585:\n        /* \"#utility.yul\":28384:28391   */\n      dup3\n        /* \"#utility.yul\":28381:28382   */\n      dup2\n        /* \"#utility.yul\":28378:28392   */\n      lt\n        /* \"#utility.yul\":28370:28577   */\n      iszero\n      tag_587\n      jumpi\n        /* \"#utility.yul\":28463:28472   */\n      dup5\n        /* \"#utility.yul\":28458:28461   */\n      dup10\n        /* \"#utility.yul\":28454:28473   */\n      add\n        /* \"#utility.yul\":28448:28474   */\n      sload\n        /* \"#utility.yul\":28440:28446   */\n      dup3\n        /* \"#utility.yul\":28433:28475   */\n      sstore\n        /* \"#utility.yul\":28514:28515   */\n      0x01\n        /* \"#utility.yul\":28506:28512   */\n      dup3\n        /* \"#utility.yul\":28502:28516   */\n      add\n        /* \"#utility.yul\":28492:28516   */\n      swap2\n      pop\n        /* \"#utility.yul\":28561:28562   */\n      0x01\n        /* \"#utility.yul\":28550:28559   */\n      dup6\n        /* \"#utility.yul\":28546:28563   */\n      add\n        /* \"#utility.yul\":28533:28563   */\n      swap5\n      pop\n        /* \"#utility.yul\":28407:28411   */\n      0x20\n        /* \"#utility.yul\":28404:28405   */\n      dup2\n        /* \"#utility.yul\":28400:28412   */\n      add\n        /* \"#utility.yul\":28395:28412   */\n      swap1\n      pop\n        /* \"#utility.yul\":28370:28577   */\n      jump(tag_585)\n    tag_587:\n        /* \"#utility.yul\":28605:28611   */\n      dup7\n        /* \"#utility.yul\":28596:28603   */\n      dup4\n        /* \"#utility.yul\":28593:28612   */\n      lt\n        /* \"#utility.yul\":28590:28769   */\n      iszero\n      tag_588\n      jumpi\n        /* \"#utility.yul\":28663:28672   */\n      dup5\n        /* \"#utility.yul\":28658:28661   */\n      dup10\n        /* \"#utility.yul\":28654:28673   */\n      add\n        /* \"#utility.yul\":28648:28674   */\n      sload\n        /* \"#utility.yul\":28706:28754   */\n      tag_589\n        /* \"#utility.yul\":28748:28752   */\n      0x1f\n        /* \"#utility.yul\":28740:28746   */\n      dup10\n        /* \"#utility.yul\":28736:28753   */\n      and\n        /* \"#utility.yul\":28725:28734   */\n      dup3\n        /* \"#utility.yul\":28706:28754   */\n      tag_289\n      jump\t// in\n    tag_589:\n        /* \"#utility.yul\":28698:28704   */\n      dup4\n        /* \"#utility.yul\":28691:28755   */\n      sstore\n        /* \"#utility.yul\":28613:28769   */\n      pop\n        /* \"#utility.yul\":28590:28769   */\n    tag_588:\n        /* \"#utility.yul\":28815:28816   */\n      0x01\n        /* \"#utility.yul\":28811:28812   */\n      0x02\n        /* \"#utility.yul\":28803:28809   */\n      dup9\n        /* \"#utility.yul\":28799:28813   */\n      mul\n        /* \"#utility.yul\":28795:28817   */\n      add\n        /* \"#utility.yul\":28789:28793   */\n      dup9\n        /* \"#utility.yul\":28782:28818   */\n      sstore\n        /* \"#utility.yul\":28159:28828   */\n      pop\n      pop\n      pop\n        /* \"#utility.yul\":28122:29067   */\n    tag_579:\n      pop\n        /* \"#utility.yul\":27703:29073   */\n      pop\n      pop\n      pop\n        /* \"#utility.yul\":27610:29073   */\n      pop\n      pop\n    tag_572:\n      jump\t// out\n        /* \"#utility.yul\":29079:29259   */\n    tag_170:\n        /* \"#utility.yul\":29127:29204   */\n      0x4e487b7100000000000000000000000000000000000000000000000000000000\n        /* \"#utility.yul\":29124:29125   */\n      0x00\n        /* \"#utility.yul\":29117:29205   */\n      mstore\n        /* \"#utility.yul\":29224:29228   */\n      0x31\n        /* \"#utility.yul\":29221:29222   */\n      0x04\n        /* \"#utility.yul\":29214:29229   */\n      mstore\n        /* \"#utility.yul\":29248:29252   */\n      0x24\n        /* \"#utility.yul\":29245:29246   */\n      0x00\n        /* \"#utility.yul\":29238:29253   */\n      revert\n        /* \"#utility.yul\":29265:29434   */\n    tag_174:\n        /* \"#utility.yul\":29303:29306   */\n      0x00\n        /* \"#utility.yul\":29326:29349   */\n      tag_592\n        /* \"#utility.yul\":29343:29348   */\n      dup3\n        /* \"#utility.yul\":29326:29349   */\n      tag_300\n      jump\t// in\n    tag_592:\n        /* \"#utility.yul\":29317:29349   */\n      swap2\n      pop\n        /* \"#utility.yul\":29371:29375   */\n      0x00\n        /* \"#utility.yul\":29364:29369   */\n      dup3\n        /* \"#utility.yul\":29361:29376   */\n      sub\n        /* \"#utility.yul\":29358:29399   */\n      tag_593\n      jumpi\n        /* \"#utility.yul\":29379:29397   */\n      tag_594\n      tag_299\n      jump\t// in\n    tag_594:\n        /* \"#utility.yul\":29358:29399   */\n    tag_593:\n        /* \"#utility.yul\":29426:29427   */\n      0x01\n        /* \"#utility.yul\":29419:29424   */\n      dup3\n        /* \"#utility.yul\":29415:29428   */\n      sub\n        /* \"#utility.yul\":29408:29428   */\n      swap1\n      pop\n        /* \"#utility.yul\":29265:29434   */\n      swap2\n      swap1\n      pop\n      jump\t// out\n        /* \"#utility.yul\":29440:29606   */\n    tag_306:\n        /* \"#utility.yul\":29580:29598   */\n      0x4e6f20617070656e642061636365737300000000000000000000000000000000\n        /* \"#utility.yul\":29576:29577   */\n      0x00\n        /* \"#utility.yul\":29568:29574   */\n      dup3\n        /* \"#utility.yul\":29564:29578   */\n      add\n        /* \"#utility.yul\":29557:29599   */\n      mstore\n        /* \"#utility.yul\":29440:29606   */\n      pop\n      jump\t// out\n        /* \"#utility.yul\":29612:29978   */\n    tag_307:\n        /* \"#utility.yul\":29754:29757   */\n      0x00\n        /* \"#utility.yul\":29775:29842   */\n      tag_597\n        /* \"#utility.yul\":29839:29841   */\n      0x10\n        /* \"#utility.yul\":29834:29837   */\n      dup4\n        /* \"#utility.yul\":29775:29842   */\n      tag_245\n      jump\t// in\n    tag_597:\n        /* \"#utility.yul\":29768:29842   */\n      swap2\n      pop\n        /* \"#utility.yul\":29851:29944   */\n      tag_598\n        /* \"#utility.yul\":29940:29943   */\n      dup3\n        /* \"#utility.yul\":29851:29944   */\n      tag_306\n      jump\t// in\n    tag_598:\n        /* \"#utility.yul\":29969:29971   */\n      0x20\n        /* \"#utility.yul\":29964:29967   */\n      dup3\n        /* \"#utility.yul\":29960:29972   */\n      add\n        /* \"#utility.yul\":29953:29972   */\n      swap1\n      pop\n        /* \"#utility.yul\":29612:29978   */\n      swap2\n      swap1\n      pop\n      jump\t// out\n        /* \"#utility.yul\":29984:30403   */\n    tag_193:\n        /* \"#utility.yul\":30150:30154   */\n      0x00\n        /* \"#utility.yul\":30188:30190   */\n      0x20\n        /* \"#utility.yul\":30177:30186   */\n      dup3\n        /* \"#utility.yul\":30173:30191   */\n      add\n        /* \"#utility.yul\":30165:30191   */\n      swap1\n      pop\n        /* \"#utility.yul\":30237:30246   */\n      dup2\n        /* \"#utility.yul\":30231:30235   */\n      dup2\n        /* \"#utility.yul\":30227:30247   */\n      sub\n        /* \"#utility.yul\":30223:30224   */\n      0x00\n        /* \"#utility.yul\":30212:30221   */\n      dup4\n        /* \"#utility.yul\":30208:30225   */\n      add\n        /* \"#utility.yul\":30201:30248   */\n      mstore\n        /* \"#utility.yul\":30265:30396   */\n      tag_600\n        /* \"#utility.yul\":30391:30395   */\n      dup2\n        /* \"#utility.yul\":30265:30396   */\n      tag_307\n      jump\t// in\n    tag_600:\n        /* \"#utility.yul\":30257:30396   */\n      swap1\n      pop\n        /* \"#utility.yul\":29984:30403   */\n      swap2\n      swap1\n      pop\n      jump\t// out\n        /* \"#utility.yul\":30409:30650   */\n    tag_308:\n        /* \"#utility.yul\":30577:30643   */\n      0x0a00000000000000000000000000000000000000000000000000000000000000\n        /* \"#utility.yul\":30572:30575   */\n      dup2\n        /* \"#utility.yul\":30565:30644   */\n      mstore\n        /* \"#utility.yul\":30409:30650   */\n      pop\n      jump\t// out\n        /* \"#utility.yul\":30656:31349   */\n    tag_196:\n        /* \"#utility.yul\":30923:30926   */\n      0x00\n        /* \"#utility.yul\":30945:31037   */\n      tag_603\n        /* \"#utility.yul\":31033:31036   */\n      dup3\n        /* \"#utility.yul\":31024:31030   */\n      dup6\n        /* \"#utility.yul\":30945:31037   */\n      tag_303\n      jump\t// in\n    tag_603:\n        /* \"#utility.yul\":30938:31037   */\n      swap2\n      pop\n        /* \"#utility.yul\":31047:31184   */\n      tag_604\n        /* \"#utility.yul\":31180:31183   */\n      dup3\n        /* \"#utility.yul\":31047:31184   */\n      tag_308\n      jump\t// in\n    tag_604:\n        /* \"#utility.yul\":31209:31210   */\n      0x01\n        /* \"#utility.yul\":31204:31207   */\n      dup3\n        /* \"#utility.yul\":31200:31211   */\n      add\n        /* \"#utility.yul\":31193:31211   */\n      swap2\n      pop\n        /* \"#utility.yul\":31228:31323   */\n      tag_605\n        /* \"#utility.yul\":31319:31322   */\n      dup3\n        /* \"#utility.yul\":31310:31316   */\n      dup5\n        /* \"#utility.yul\":31228:31323   */\n      tag_267\n      jump\t// in\n    tag_605:\n        /* \"#utility.yul\":31221:31323   */\n      swap2\n      pop\n        /* \"#utility.yul\":31340:31343   */\n      dup2\n        /* \"#utility.yul\":31333:31343   */\n      swap1\n      pop\n        /* \"#utility.yul\":30656:31349   */\n      swap4\n      swap3\n      pop\n      pop\n      pop\n      jump\t// out\n        /* \"#utility.yul\":31355:31528   */\n    tag_309:\n        /* \"#utility.yul\":31495:31520   */\n      0x496e76616c6964207065726d697373696f6e206d6f6465000000000000000000\n        /* \"#utility.yul\":31491:31492   */\n      0x00\n        /* \"#utility.yul\":31483:31489   */\n      dup3\n        /* \"#utility.yul\":31479:31493   */\n      add\n        /* \"#utility.yul\":31472:31521   */\n      mstore\n        /* \"#utility.yul\":31355:31528   */\n      pop\n      jump\t// out\n        /* \"#utility.yul\":31534:31900   */\n    tag_310:\n        /* \"#utility.yul\":31676:31679   */\n      0x00\n        /* \"#utility.yul\":31697:31764   */\n      tag_608\n        /* \"#utility.yul\":31761:31763   */\n      0x17\n        /* \"#utility.yul\":31756:31759   */\n      dup4\n        /* \"#utility.yul\":31697:31764   */\n      tag_245\n      jump\t// in\n    tag_608:\n        /* \"#utility.yul\":31690:31764   */\n      swap2\n      pop\n        /* \"#utility.yul\":31773:31866   */\n      tag_609\n        /* \"#utility.yul\":31862:31865   */\n      dup3\n        /* \"#utility.yul\":31773:31866   */\n      tag_309\n      jump\t// in\n    tag_609:\n        /* \"#utility.yul\":31891:31893   */\n      0x20\n        /* \"#utility.yul\":31886:31889   */\n      dup3\n        /* \"#utility.yul\":31882:31894   */\n      add\n        /* \"#utility.yul\":31875:31894   */\n      swap1\n      pop\n        /* \"#utility.yul\":31534:31900   */\n      swap2\n      swap1\n      pop\n      jump\t// out\n        /* \"#utility.yul\":31906:32325   */\n    tag_222:\n        /* \"#utility.yul\":32072:32076   */\n      0x00\n        /* \"#utility.yul\":32110:32112   */\n      0x20\n        /* \"#utility.yul\":32099:32108   */\n      dup3\n        /* \"#utility.yul\":32095:32113   */\n      add\n        /* \"#utility.yul\":32087:32113   */\n      swap1\n      pop\n        /* \"#utility.yul\":32159:32168   */\n      dup2\n        /* \"#utility.yul\":32153:32157   */\n      dup2\n        /* \"#utility.yul\":32149:32169   */\n      sub\n        /* \"#utility.yul\":32145:32146   */\n      0x00\n        /* \"#utility.yul\":32134:32143   */\n      dup4\n        /* \"#utility.yul\":32130:32147   */\n      add\n        /* \"#utility.yul\":32123:32170   */\n      mstore\n        /* \"#utility.yul\":32187:32318   */\n      tag_611\n        /* \"#utility.yul\":32313:32317   */\n      dup2\n        /* \"#utility.yul\":32187:32318   */\n      tag_310\n      jump\t// in\n    tag_611:\n        /* \"#utility.yul\":32179:32318   */\n      swap1\n      pop\n        /* \"#utility.yul\":31906:32325   */\n      swap2\n      swap1\n      pop\n      jump\t// out\n\n    auxdata: 0xa2646970667358221220dfdccbbe857ba99dff9701ba3b573d5250237881a8926e808a7147530a8e692b64736f6c634300081a0033\n}\n",
				"bytecode": {
					"linkReferences": {},
					"object": "60806040525f805f6101000a81548161ffff021916908361ffff1602179055503480156029575f80fd5b50612613806100375f395ff3fe608060405234801561000f575f80fd5b506004361061009c575f3560e01c8063a991005411610064578063a991005414610154578063b033d8fa14610170578063b6b13caa1461018e578063e7755761146101aa578063eceed653146101dd5761009c565b806313d4a044146100a057806360f9bb11146100bc5780637d41216d146100ec57806381ad193a1461011c578063897e0a9714610138575b5f80fd5b6100ba60048036038101906100b59190611735565b6101f9565b005b6100d660048036038101906100d191906117ab565b61046f565b6040516100e39190611852565b60405180910390f35b610106600480360381019061010191906118cc565b61063d565b6040516101139190611852565b60405180910390f35b61013660048036038101906101319190611735565b610832565b005b610152600480360381019061014d9190611735565b610adf565b005b61016e600480360381019061016991906117ab565b610c68565b005b610178610f86565b6040516101859190611a29565b60405180910390f35b6101a860048036038101906101a39190611735565b61105a565b005b6101c460048036038101906101bf91906117ab565b611225565b6040516101d49493929190611a72565b60405180910390f35b6101f760048036038101906101f29190611af9565b6113a1565b005b8160018160405161020a9190611b9f565b908152602001604051809103902060020160019054906101000a900473ffffffffffffffffffffffffffffffffffffffff1673ffffffffffffffffffffffffffffffffffffffff163373ffffffffffffffffffffffffffffffffffffffff16146102a9576040517f08c379a00000000000000000000000000000000000000000000000000000000081526004016102a090611bff565b60405180910390fd5b826001816040516102ba9190611b9f565b90815260200160405180910390206002015f9054906101000a900460ff16610317576040517f08c379a000000000000000000000000000000000000000000000000000000000815260040161030e90611c67565b60405180910390fd5b6001836040516103279190611b9f565b90815260200160405180910390206002015f9054906101000a900460ff1615610385576040517f08c379a000000000000000000000000000000000000000000000000000000000815260040161037c90611ccf565b60405180910390fd5b5f6001856040516103969190611b9f565b908152602001604051809103902090506001856040516103b69190611b9f565b90815260200160405180910390205f8082015f6103d39190611590565b600182015f6103e29190611590565b600282015f6101000a81549060ff02191690556002820160016101000a81549073ffffffffffffffffffffffffffffffffffffffff0219169055505083815f01908161042e9190611ef0565b507f5ee3c6b0406f0b0a35ef95dff519848690b3aeb906a836f5ce685fa0b34674838585604051610460929190611fbf565b60405180910390a15050505050565b6060816001816040516104829190611b9f565b90815260200160405180910390206002015f9054906101000a900460ff166104df576040517f08c379a00000000000000000000000000000000000000000000000000000000081526004016104d690611c67565b60405180910390fd5b600180846040516104f09190611b9f565b90815260200160405180910390206003015f3373ffffffffffffffffffffffffffffffffffffffff1673ffffffffffffffffffffffffffffffffffffffff1681526020019081526020015f205f9054906101000a900460ff1660ff16101561058d576040517f08c379a00000000000000000000000000000000000000000000000000000000081526004016105849061203e565b60405180910390fd5b60018360405161059d9190611b9f565b908152602001604051809103902060010180546105b990611d1a565b80601f01602080910402602001604051908101604052809291908181526020018280546105e590611d1a565b80156106305780601f1061060757610100808354040283529160200191610630565b820191905f5260205f20905b81548152906001019060200180831161061357829003601f168201915b5050505050915050919050565b6060826001816040516106509190611b9f565b90815260200160405180910390206002015f9054906101000a900460ff166106ad576040517f08c379a00000000000000000000000000000000000000000000000000000000081526004016106a490611c67565b60405180910390fd5b5f60405180608001604052806040518060400160405280600981526020017f4e6f20616363657373000000000000000000000000000000000000000000000081525081526020016040518060400160405280600981526020017f52656164206f6e6c79000000000000000000000000000000000000000000000081525081526020016040518060400160405280600d81526020017f52656164202620617070656e640000000000000000000000000000000000000081525081526020016040518060400160405280601481526020017f526561642c20617070656e6420262077726974650000000000000000000000008152508152509050806001866040516107b69190611b9f565b90815260200160405180910390206003015f8673ffffffffffffffffffffffffffffffffffffffff1673ffffffffffffffffffffffffffffffffffffffff1681526020019081526020015f205f9054906101000a900460ff1660ff16600481106108235761082261205c565b5b60200201519250505092915050565b603261ffff165f8054906101000a900461ffff1661ffff161061088a576040517f08c379a0000000000000000000000000000000000000000000000000000000008152600401610881906120d3565b60405180910390fd5b5f8251116108cd576040517f08c379a00000000000000000000000000000000000000000000000000000000081526004016108c49061213b565b60405180910390fd5b6001826040516108dd9190611b9f565b90815260200160405180910390206002015f9054906101000a900460ff161561093b576040517f08c379a0000000000000000000000000000000000000000000000000000000008152600401610932906121a3565b60405180910390fd5b5f60018360405161094c9190611b9f565b9081526020016040518091039020905082815f01908161096c9190611ef0565b508181600101908161097e9190611ef0565b506001816002015f6101000a81548160ff021916908315150217905550338160020160016101000a81548173ffffffffffffffffffffffffffffffffffffffff021916908373ffffffffffffffffffffffffffffffffffffffff1602179055506003816003015f3373ffffffffffffffffffffffffffffffffffffffff1673ffffffffffffffffffffffffffffffffffffffff1681526020019081526020015f205f6101000a81548160ff021916908360ff1602179055505f8081819054906101000a900461ffff1680929190610a54906121fb565b91906101000a81548161ffff021916908361ffff16021790555050600283908060018154018082558091505060019003905f5260205f20015f909190919091509081610aa09190611ef0565b507f74fdeb27b6331df438c50b6327d3b7d950c83000ca1fafb3bc9834e3ec2c7ef38383604051610ad2929190611fbf565b60405180910390a1505050565b81600181604051610af09190611b9f565b90815260200160405180910390206002015f9054906101000a900460ff16610b4d576040517f08c379a0000000000000000000000000000000000000000000000000000000008152600401610b4490611c67565b60405180910390fd5b6003600184604051610b5f9190611b9f565b90815260200160405180910390206003015f3373ffffffffffffffffffffffffffffffffffffffff1673ffffffffffffffffffffffffffffffffffffffff1681526020019081526020015f205f9054906101000a900460ff1660ff1614610bfb576040517f08c379a0000000000000000000000000000000000000000000000000000000008152600401610bf29061226e565b60405180910390fd5b81600184604051610c0c9190611b9f565b90815260200160405180910390206001019081610c299190611ef0565b507f4441a3ec3579b92d8e6c91b65ae7da842056291f1be1cd5d64c2681da07a7cc38383604051610c5b929190611fbf565b60405180910390a1505050565b80600181604051610c799190611b9f565b908152602001604051809103902060020160019054906101000a900473ffffffffffffffffffffffffffffffffffffffff1673ffffffffffffffffffffffffffffffffffffffff163373ffffffffffffffffffffffffffffffffffffffff1614610d18576040517f08c379a0000000000000000000000000000000000000000000000000000000008152600401610d0f90611bff565b60405180910390fd5b81600181604051610d299190611b9f565b90815260200160405180910390206002015f9054906101000a900460ff16610d86576040517f08c379a0000000000000000000000000000000000000000000000000000000008152600401610d7d90611c67565b60405180910390fd5b600183604051610d969190611b9f565b90815260200160405180910390205f8082015f610db39190611590565b600182015f610dc29190611590565b600282015f6101000a81549060ff02191690556002820160016101000a81549073ffffffffffffffffffffffffffffffffffffffff021916905550505f5b600280549050811015610f105783604051602001610e1e9190611b9f565b6040516020818303038152906040528051906020012060028281548110610e4857610e4761205c565b5b905f5260205f2001604051602001610e60919061230c565b6040516020818303038152906040528051906020012003610f035760026001600280549050610e8f9190612322565b81548110610ea057610e9f61205c565b5b905f5260205f200160028281548110610ebc57610ebb61205c565b5b905f5260205f20019081610ed0919061237c565b506002805480610ee357610ee2612461565b5b600190038181905f5260205f20015f610efc9190611590565b9055610f10565b8080600101915050610e00565b505f8081819054906101000a900461ffff1680929190610f2f9061248e565b91906101000a81548161ffff021916908361ffff160217905550507f584fb2b00bcb43e608b5efabffaa6c6037e3f5fd1a3ec96ea172ada6056d617483604051610f799190611852565b60405180910390a1505050565b60606002805480602002602001604051908101604052809291908181526020015f905b82821015611051578382905f5260205f20018054610fc690611d1a565b80601f0160208091040260200160405190810160405280929190818152602001828054610ff290611d1a565b801561103d5780601f106110145761010080835404028352916020019161103d565b820191905f5260205f20905b81548152906001019060200180831161102057829003601f168201915b505050505081526020019060010190610fa9565b50505050905090565b8160018160405161106b9190611b9f565b90815260200160405180910390206002015f9054906101000a900460ff166110c8576040517f08c379a00000000000000000000000000000000000000000000000000000000081526004016110bf90611c67565b60405180910390fd5b60026001846040516110da9190611b9f565b90815260200160405180910390206003015f3373ffffffffffffffffffffffffffffffffffffffff1673ffffffffffffffffffffffffffffffffffffffff1681526020019081526020015f205f9054906101000a900460ff1660ff161015611177576040517f08c379a000000000000000000000000000000000000000000000000000000000815260040161116e906124ff565b60405180910390fd5b6001836040516111879190611b9f565b9081526020016040518091039020600101826040516020016111aa929190612543565b6040516020818303038152906040526001846040516111c99190611b9f565b908152602001604051809103902060010190816111e69190611ef0565b507fcee34ecf9262a89dc00b9660881b6f33b9679b279edf9369fb194621179b3ea18383604051611218929190611fbf565b60405180910390a1505050565b6001818051602081018201805184825260208301602085012081835280955050505050505f91509050805f01805461125c90611d1a565b80601f016020809104026020016040519081016040528092919081815260200182805461128890611d1a565b80156112d35780601f106112aa576101008083540402835291602001916112d3565b820191905f5260205f20905b8154815290600101906020018083116112b657829003601f168201915b5050505050908060010180546112e890611d1a565b80601f016020809104026020016040519081016040528092919081815260200182805461131490611d1a565b801561135f5780601f106113365761010080835404028352916020019161135f565b820191905f5260205f20905b81548152906001019060200180831161134257829003601f168201915b505050505090806002015f9054906101000a900460ff16908060020160019054906101000a900473ffffffffffffffffffffffffffffffffffffffff16905084565b826001816040516113b29190611b9f565b908152602001604051809103902060020160019054906101000a900473ffffffffffffffffffffffffffffffffffffffff1673ffffffffffffffffffffffffffffffffffffffff163373ffffffffffffffffffffffffffffffffffffffff1614611451576040517f08c379a000000000000000000000000000000000000000000000000000000000815260040161144890611bff565b60405180910390fd5b836001816040516114629190611b9f565b90815260200160405180910390206002015f9054906101000a900460ff166114bf576040517f08c379a00000000000000000000000000000000000000000000000000000000081526004016114b690611c67565b60405180910390fd5b5f8360ff16101580156114d6575060038360ff1611155b611515576040517f08c379a000000000000000000000000000000000000000000000000000000000815260040161150c906125bf565b60405180910390fd5b826001866040516115269190611b9f565b90815260200160405180910390206003015f8673ffffffffffffffffffffffffffffffffffffffff1673ffffffffffffffffffffffffffffffffffffffff1681526020019081526020015f205f6101000a81548160ff021916908360ff1602179055505050505050565b50805461159c90611d1a565b5f825580601f106115ad57506115ca565b601f0160209004905f5260205f20908101906115c991906115cd565b5b50565b5b808211156115e4575f815f9055506001016115ce565b5090565b5f604051905090565b5f80fd5b5f80fd5b5f80fd5b5f80fd5b5f601f19601f8301169050919050565b7f4e487b71000000000000000000000000000000000000000000000000000000005f52604160045260245ffd5b61164782611601565b810181811067ffffffffffffffff8211171561166657611665611611565b5b80604052505050565b5f6116786115e8565b9050611684828261163e565b919050565b5f67ffffffffffffffff8211156116a3576116a2611611565b5b6116ac82611601565b9050602081019050919050565b828183375f83830152505050565b5f6116d96116d484611689565b61166f565b9050828152602081018484840111156116f5576116f46115fd565b5b6117008482856116b9565b509392505050565b5f82601f83011261171c5761171b6115f9565b5b813561172c8482602086016116c7565b91505092915050565b5f806040838503121561174b5761174a6115f1565b5b5f83013567ffffffffffffffff811115611768576117676115f5565b5b61177485828601611708565b925050602083013567ffffffffffffffff811115611795576117946115f5565b5b6117a185828601611708565b9150509250929050565b5f602082840312156117c0576117bf6115f1565b5b5f82013567ffffffffffffffff8111156117dd576117dc6115f5565b5b6117e984828501611708565b91505092915050565b5f81519050919050565b5f82825260208201905092915050565b8281835e5f83830152505050565b5f611824826117f2565b61182e81856117fc565b935061183e81856020860161180c565b61184781611601565b840191505092915050565b5f6020820190508181035f83015261186a818461181a565b905092915050565b5f73ffffffffffffffffffffffffffffffffffffffff82169050919050565b5f61189b82611872565b9050919050565b6118ab81611891565b81146118b5575f80fd5b50565b5f813590506118c6816118a2565b92915050565b5f80604083850312156118e2576118e16115f1565b5b5f83013567ffffffffffffffff8111156118ff576118fe6115f5565b5b61190b85828601611708565b925050602061191c858286016118b8565b9150509250929050565b5f81519050919050565b5f82825260208201905092915050565b5f819050602082019050919050565b5f82825260208201905092915050565b5f611969826117f2565b611973818561194f565b935061198381856020860161180c565b61198c81611601565b840191505092915050565b5f6119a2838361195f565b905092915050565b5f602082019050919050565b5f6119c082611926565b6119ca8185611930565b9350836020820285016119dc85611940565b805f5b85811015611a1757848403895281516119f88582611997565b9450611a03836119aa565b925060208a019950506001810190506119df565b50829750879550505050505092915050565b5f6020820190508181035f830152611a4181846119b6565b905092915050565b5f8115159050919050565b611a5d81611a49565b82525050565b611a6c81611891565b82525050565b5f6080820190508181035f830152611a8a818761181a565b90508181036020830152611a9e818661181a565b9050611aad6040830185611a54565b611aba6060830184611a63565b95945050505050565b5f60ff82169050919050565b611ad881611ac3565b8114611ae2575f80fd5b50565b5f81359050611af381611acf565b92915050565b5f805f60608486031215611b1057611b0f6115f1565b5b5f84013567ffffffffffffffff811115611b2d57611b2c6115f5565b5b611b3986828701611708565b9350506020611b4a868287016118b8565b9250506040611b5b86828701611ae5565b9150509250925092565b5f81905092915050565b5f611b79826117f2565b611b838185611b65565b9350611b9381856020860161180c565b80840191505092915050565b5f611baa8284611b6f565b915081905092915050565b7f4f6e6c79207468652066696c65206f776e65722063616e20646f2074686973005f82015250565b5f611be9601f836117fc565b9150611bf482611bb5565b602082019050919050565b5f6020820190508181035f830152611c1681611bdd565b9050919050565b7f46696c6520646f6573206e6f74206578697374000000000000000000000000005f82015250565b5f611c516013836117fc565b9150611c5c82611c1d565b602082019050919050565b5f6020820190508181035f830152611c7e81611c45565b9050919050565b7f4e616d65206e6f7420617661696c61626c6500000000000000000000000000005f82015250565b5f611cb96012836117fc565b9150611cc482611c85565b602082019050919050565b5f6020820190508181035f830152611ce681611cad565b9050919050565b7f4e487b71000000000000000000000000000000000000000000000000000000005f52602260045260245ffd5b5f6002820490506001821680611d3157607f821691505b602082108103611d4457611d43611ced565b5b50919050565b5f819050815f5260205f209050919050565b5f6020601f8301049050919050565b5f82821b905092915050565b5f60088302611da67fffffffffffffffffffffffffffffffffffffffffffffffffffffffffffffffff82611d6b565b611db08683611d6b565b95508019841693508086168417925050509392505050565b5f819050919050565b5f819050919050565b5f611df4611def611dea84611dc8565b611dd1565b611dc8565b9050919050565b5f819050919050565b611e0d83611dda565b611e21611e1982611dfb565b848454611d77565b825550505050565b5f90565b611e35611e29565b611e40818484611e04565b505050565b5b81811015611e6357611e585f82611e2d565b600181019050611e46565b5050565b601f821115611ea857611e7981611d4a565b611e8284611d5c565b81016020851015611e91578190505b611ea5611e9d85611d5c565b830182611e45565b50505b505050565b5f82821c905092915050565b5f611ec85f1984600802611ead565b1980831691505092915050565b5f611ee08383611eb9565b9150826002028217905092915050565b611ef9826117f2565b67ffffffffffffffff811115611f1257611f11611611565b5b611f1c8254611d1a565b611f27828285611e67565b5f60209050601f831160018114611f58575f8415611f46578287015190505b611f508582611ed5565b865550611fb7565b601f198416611f6686611d4a565b5f5b82811015611f8d57848901518255600182019150602085019450602081019050611f68565b86831015611faa5784890151611fa6601f891682611eb9565b8355505b6001600288020188555050505b505050505050565b5f6040820190508181035f830152611fd7818561181a565b90508181036020830152611feb818461181a565b90509392505050565b7f4e6f2052656164206163636573730000000000000000000000000000000000005f82015250565b5f612028600e836117fc565b915061203382611ff4565b602082019050919050565b5f6020820190508181035f8301526120558161201c565b9050919050565b7f4e487b71000000000000000000000000000000000000000000000000000000005f52603260045260245ffd5b7f45786365656465642066696c65206c696d6974000000000000000000000000005f82015250565b5f6120bd6013836117fc565b91506120c882612089565b602082019050919050565b5f6020820190508181035f8301526120ea816120b1565b9050919050565b7f46696c656e616d652063616e6e6f7420626520656d70747900000000000000005f82015250565b5f6121256018836117fc565b9150612130826120f1565b602082019050919050565b5f6020820190508181035f83015261215281612119565b9050919050565b7f46696c6520616c726561647920657869737473000000000000000000000000005f82015250565b5f61218d6013836117fc565b915061219882612159565b602082019050919050565b5f6020820190508181035f8301526121ba81612181565b9050919050565b7f4e487b71000000000000000000000000000000000000000000000000000000005f52601160045260245ffd5b5f61ffff82169050919050565b5f612205826121ee565b915061ffff8203612219576122186121c1565b5b600182019050919050565b7f4e6f2077726974652061636365737300000000000000000000000000000000005f82015250565b5f612258600f836117fc565b915061226382612224565b602082019050919050565b5f6020820190508181035f8301526122858161224c565b9050919050565b5f815461229881611d1a565b6122a28186611b65565b9450600182165f81146122bc57600181146122d157612303565b60ff1983168652811515820286019350612303565b6122da85611d4a565b5f5b838110156122fb578154818901526001820191506020810190506122dc565b838801955050505b50505092915050565b5f612317828461228c565b915081905092915050565b5f61232c82611dc8565b915061233783611dc8565b925082820390508181111561234f5761234e6121c1565b5b92915050565b5f8154905061236381611d1a565b9050919050565b5f819050815f5260205f209050919050565b81810361238a57505061245f565b61239382612355565b67ffffffffffffffff8111156123ac576123ab611611565b5b6123b68254611d1a565b6123c1828285611e67565b5f601f8311600181146123ee575f84156123dc578287015490505b6123e68582611ed5565b865550612458565b601f1984166123fc8761236a565b965061240786611d4a565b5f5b8281101561242e57848901548255600182019150600185019450602081019050612409565b8683101561244b5784890154612447601f891682611eb9565b8355505b6001600288020188555050505b5050505050505b565b7f4e487b71000000000000000000000000000000000000000000000000000000005f52603160045260245ffd5b5f612498826121ee565b91505f82036124aa576124a96121c1565b5b600182039050919050565b7f4e6f20617070656e6420616363657373000000000000000000000000000000005f82015250565b5f6124e96010836117fc565b91506124f4826124b5565b602082019050919050565b5f6020820190508181035f830152612516816124dd565b9050919050565b7f0a00000000000000000000000000000000000000000000000000000000000000815250565b5f61254e828561228c565b91506125598261251d565b6001820191506125698284611b6f565b91508190509392505050565b7f496e76616c6964207065726d697373696f6e206d6f64650000000000000000005f82015250565b5f6125a96017836117fc565b91506125b482612575565b602082019050919050565b5f6020820190508181035f8301526125d68161259d565b905091905056fea2646970667358221220dfdccbbe857ba99dff9701ba3b573d5250237881a8926e808a7147530a8e692b64736f6c634300081a0033",
					"opcodes": "PUSH1 0x80 PUSH1 0x40 MSTORE PUSH0 DUP1 PUSH0 PUSH2 0x100 EXP DUP2 SLOAD DUP2 PUSH2 0xFFFF MUL NOT AND SWAP1 DUP4 PUSH2 0xFFFF AND MUL OR SWAP1 SSTORE POP CALLVALUE DUP1 ISZERO PUSH1 0x29 JUMPI PUSH0 DUP1 REVERT JUMPDEST POP PUSH2 0x2613 DUP1 PUSH2 0x37 PUSH0 CODECOPY PUSH0 RETURN INVALID PUSH1 0x80 PUSH1 0x40 MSTORE CALLVALUE DUP1 ISZERO PUSH2 0xF JUMPI PUSH0 DUP1 REVERT JUMPDEST POP PUSH1 0x4 CALLDATASIZE LT PUSH2 0x9C JUMPI PUSH0 CALLDATALOAD PUSH1 0xE0 SHR DUP1 PUSH4 0xA9910054 GT PUSH2 0x64 JUMPI DUP1 PUSH4 0xA9910054 EQ PUSH2 0x154 JUMPI DUP1 PUSH4 0xB033D8FA EQ PUSH2 0x170 JUMPI DUP1 PUSH4 0xB6B13CAA EQ PUSH2 0x18E JUMPI DUP1 PUSH4 0xE7755761 EQ PUSH2 0x1AA JUMPI DUP1 PUSH4 0xECEED653 EQ PUSH2 0x1DD JUMPI PUSH2 0x9C JUMP JUMPDEST DUP1 PUSH4 0x13D4A044 EQ PUSH2 0xA0 JUMPI DUP1 PUSH4 0x60F9BB11 EQ PUSH2 0xBC JUMPI DUP1 PUSH4 0x7D41216D EQ PUSH2 0xEC JUMPI DUP1 PUSH4 0x81AD193A EQ PUSH2 0x11C JUMPI DUP1 PUSH4 0x897E0A97 EQ PUSH2 0x138 JUMPI JUMPDEST PUSH0 DUP1 REVERT JUMPDEST PUSH2 0xBA PUSH1 0x4 DUP1 CALLDATASIZE SUB DUP2 ADD SWAP1 PUSH2 0xB5 SWAP2 SWAP1 PUSH2 0x1735 JUMP JUMPDEST PUSH2 0x1F9 JUMP JUMPDEST STOP JUMPDEST PUSH2 0xD6 PUSH1 0x4 DUP1 CALLDATASIZE SUB DUP2 ADD SWAP1 PUSH2 0xD1 SWAP2 SWAP1 PUSH2 0x17AB JUMP JUMPDEST PUSH2 0x46F JUMP JUMPDEST PUSH1 0x40 MLOAD PUSH2 0xE3 SWAP2 SWAP1 PUSH2 0x1852 JUMP JUMPDEST PUSH1 0x40 MLOAD DUP1 SWAP2 SUB SWAP1 RETURN JUMPDEST PUSH2 0x106 PUSH1 0x4 DUP1 CALLDATASIZE SUB DUP2 ADD SWAP1 PUSH2 0x101 SWAP2 SWAP1 PUSH2 0x18CC JUMP JUMPDEST PUSH2 0x63D JUMP JUMPDEST PUSH1 0x40 MLOAD PUSH2 0x113 SWAP2 SWAP1 PUSH2 0x1852 JUMP JUMPDEST PUSH1 0x40 MLOAD DUP1 SWAP2 SUB SWAP1 RETURN JUMPDEST PUSH2 0x136 PUSH1 0x4 DUP1 CALLDATASIZE SUB DUP2 ADD SWAP1 PUSH2 0x131 SWAP2 SWAP1 PUSH2 0x1735 JUMP JUMPDEST PUSH2 0x832 JUMP JUMPDEST STOP JUMPDEST PUSH2 0x152 PUSH1 0x4 DUP1 CALLDATASIZE SUB DUP2 ADD SWAP1 PUSH2 0x14D SWAP2 SWAP1 PUSH2 0x1735 JUMP JUMPDEST PUSH2 0xADF JUMP JUMPDEST STOP JUMPDEST PUSH2 0x16E PUSH1 0x4 DUP1 CALLDATASIZE SUB DUP2 ADD SWAP1 PUSH2 0x169 SWAP2 SWAP1 PUSH2 0x17AB JUMP JUMPDEST PUSH2 0xC68 JUMP JUMPDEST STOP JUMPDEST PUSH2 0x178 PUSH2 0xF86 JUMP JUMPDEST PUSH1 0x40 MLOAD PUSH2 0x185 SWAP2 SWAP1 PUSH2 0x1A29 JUMP JUMPDEST PUSH1 0x40 MLOAD DUP1 SWAP2 SUB SWAP1 RETURN JUMPDEST PUSH2 0x1A8 PUSH1 0x4 DUP1 CALLDATASIZE SUB DUP2 ADD SWAP1 PUSH2 0x1A3 SWAP2 SWAP1 PUSH2 0x1735 JUMP JUMPDEST PUSH2 0x105A JUMP JUMPDEST STOP JUMPDEST PUSH2 0x1C4 PUSH1 0x4 DUP1 CALLDATASIZE SUB DUP2 ADD SWAP1 PUSH2 0x1BF SWAP2 SWAP1 PUSH2 0x17AB JUMP JUMPDEST PUSH2 0x1225 JUMP JUMPDEST PUSH1 0x40 MLOAD PUSH2 0x1D4 SWAP5 SWAP4 SWAP3 SWAP2 SWAP1 PUSH2 0x1A72 JUMP JUMPDEST PUSH1 0x40 MLOAD DUP1 SWAP2 SUB SWAP1 RETURN JUMPDEST PUSH2 0x1F7 PUSH1 0x4 DUP1 CALLDATASIZE SUB DUP2 ADD SWAP1 PUSH2 0x1F2 SWAP2 SWAP1 PUSH2 0x1AF9 JUMP JUMPDEST PUSH2 0x13A1 JUMP JUMPDEST STOP JUMPDEST DUP2 PUSH1 0x1 DUP2 PUSH1 0x40 MLOAD PUSH2 0x20A SWAP2 SWAP1 PUSH2 0x1B9F JUMP JUMPDEST SWAP1 DUP2 MSTORE PUSH1 0x20 ADD PUSH1 0x40 MLOAD DUP1 SWAP2 SUB SWAP1 KECCAK256 PUSH1 0x2 ADD PUSH1 0x1 SWAP1 SLOAD SWAP1 PUSH2 0x100 EXP SWAP1 DIV PUSH20 0xFFFFFFFFFFFFFFFFFFFFFFFFFFFFFFFFFFFFFFFF AND PUSH20 0xFFFFFFFFFFFFFFFFFFFFFFFFFFFFFFFFFFFFFFFF AND CALLER PUSH20 0xFFFFFFFFFFFFFFFFFFFFFFFFFFFFFFFFFFFFFFFF AND EQ PUSH2 0x2A9 JUMPI PUSH1 0x40 MLOAD PUSH32 0x8C379A000000000000000000000000000000000000000000000000000000000 DUP2 MSTORE PUSH1 0x4 ADD PUSH2 0x2A0 SWAP1 PUSH2 0x1BFF JUMP JUMPDEST PUSH1 0x40 MLOAD DUP1 SWAP2 SUB SWAP1 REVERT JUMPDEST DUP3 PUSH1 0x1 DUP2 PUSH1 0x40 MLOAD PUSH2 0x2BA SWAP2 SWAP1 PUSH2 0x1B9F JUMP JUMPDEST SWAP1 DUP2 MSTORE PUSH1 0x20 ADD PUSH1 0x40 MLOAD DUP1 SWAP2 SUB SWAP1 KECCAK256 PUSH1 0x2 ADD PUSH0 SWAP1 SLOAD SWAP1 PUSH2 0x100 EXP SWAP1 DIV PUSH1 0xFF AND PUSH2 0x317 JUMPI PUSH1 0x40 MLOAD PUSH32 0x8C379A000000000000000000000000000000000000000000000000000000000 DUP2 MSTORE PUSH1 0x4 ADD PUSH2 0x30E SWAP1 PUSH2 0x1C67 JUMP JUMPDEST PUSH1 0x40 MLOAD DUP1 SWAP2 SUB SWAP1 REVERT JUMPDEST PUSH1 0x1 DUP4 PUSH1 0x40 MLOAD PUSH2 0x327 SWAP2 SWAP1 PUSH2 0x1B9F JUMP JUMPDEST SWAP1 DUP2 MSTORE PUSH1 0x20 ADD PUSH1 0x40 MLOAD DUP1 SWAP2 SUB SWAP1 KECCAK256 PUSH1 0x2 ADD PUSH0 SWAP1 SLOAD SWAP1 PUSH2 0x100 EXP SWAP1 DIV PUSH1 0xFF AND ISZERO PUSH2 0x385 JUMPI PUSH1 0x40 MLOAD PUSH32 0x8C379A000000000000000000000000000000000000000000000000000000000 DUP2 MSTORE PUSH1 0x4 ADD PUSH2 0x37C SWAP1 PUSH2 0x1CCF JUMP JUMPDEST PUSH1 0x40 MLOAD DUP1 SWAP2 SUB SWAP1 REVERT JUMPDEST PUSH0 PUSH1 0x1 DUP6 PUSH1 0x40 MLOAD PUSH2 0x396 SWAP2 SWAP1 PUSH2 0x1B9F JUMP JUMPDEST SWAP1 DUP2 MSTORE PUSH1 0x20 ADD PUSH1 0x40 MLOAD DUP1 SWAP2 SUB SWAP1 KECCAK256 SWAP1 POP PUSH1 0x1 DUP6 PUSH1 0x40 MLOAD PUSH2 0x3B6 SWAP2 SWAP1 PUSH2 0x1B9F JUMP JUMPDEST SWAP1 DUP2 MSTORE PUSH1 0x20 ADD PUSH1 0x40 MLOAD DUP1 SWAP2 SUB SWAP1 KECCAK256 PUSH0 DUP1 DUP3 ADD PUSH0 PUSH2 0x3D3 SWAP2 SWAP1 PUSH2 0x1590 JUMP JUMPDEST PUSH1 0x1 DUP3 ADD PUSH0 PUSH2 0x3E2 SWAP2 SWAP1 PUSH2 0x1590 JUMP JUMPDEST PUSH1 0x2 DUP3 ADD PUSH0 PUSH2 0x100 EXP DUP2 SLOAD SWAP1 PUSH1 0xFF MUL NOT AND SWAP1 SSTORE PUSH1 0x2 DUP3 ADD PUSH1 0x1 PUSH2 0x100 EXP DUP2 SLOAD SWAP1 PUSH20 0xFFFFFFFFFFFFFFFFFFFFFFFFFFFFFFFFFFFFFFFF MUL NOT AND SWAP1 SSTORE POP POP DUP4 DUP2 PUSH0 ADD SWAP1 DUP2 PUSH2 0x42E SWAP2 SWAP1 PUSH2 0x1EF0 JUMP JUMPDEST POP PUSH32 0x5EE3C6B0406F0B0A35EF95DFF519848690B3AEB906A836F5CE685FA0B3467483 DUP6 DUP6 PUSH1 0x40 MLOAD PUSH2 0x460 SWAP3 SWAP2 SWAP1 PUSH2 0x1FBF JUMP JUMPDEST PUSH1 0x40 MLOAD DUP1 SWAP2 SUB SWAP1 LOG1 POP POP POP POP POP JUMP JUMPDEST PUSH1 0x60 DUP2 PUSH1 0x1 DUP2 PUSH1 0x40 MLOAD PUSH2 0x482 SWAP2 SWAP1 PUSH2 0x1B9F JUMP JUMPDEST SWAP1 DUP2 MSTORE PUSH1 0x20 ADD PUSH1 0x40 MLOAD DUP1 SWAP2 SUB SWAP1 KECCAK256 PUSH1 0x2 ADD PUSH0 SWAP1 SLOAD SWAP1 PUSH2 0x100 EXP SWAP1 DIV PUSH1 0xFF AND PUSH2 0x4DF JUMPI PUSH1 0x40 MLOAD PUSH32 0x8C379A000000000000000000000000000000000000000000000000000000000 DUP2 MSTORE PUSH1 0x4 ADD PUSH2 0x4D6 SWAP1 PUSH2 0x1C67 JUMP JUMPDEST PUSH1 0x40 MLOAD DUP1 SWAP2 SUB SWAP1 REVERT JUMPDEST PUSH1 0x1 DUP1 DUP5 PUSH1 0x40 MLOAD PUSH2 0x4F0 SWAP2 SWAP1 PUSH2 0x1B9F JUMP JUMPDEST SWAP1 DUP2 MSTORE PUSH1 0x20 ADD PUSH1 0x40 MLOAD DUP1 SWAP2 SUB SWAP1 KECCAK256 PUSH1 0x3 ADD PUSH0 CALLER PUSH20 0xFFFFFFFFFFFFFFFFFFFFFFFFFFFFFFFFFFFFFFFF AND PUSH20 0xFFFFFFFFFFFFFFFFFFFFFFFFFFFFFFFFFFFFFFFF AND DUP2 MSTORE PUSH1 0x20 ADD SWAP1 DUP2 MSTORE PUSH1 0x20 ADD PUSH0 KECCAK256 PUSH0 SWAP1 SLOAD SWAP1 PUSH2 0x100 EXP SWAP1 DIV PUSH1 0xFF AND PUSH1 0xFF AND LT ISZERO PUSH2 0x58D JUMPI PUSH1 0x40 MLOAD PUSH32 0x8C379A000000000000000000000000000000000000000000000000000000000 DUP2 MSTORE PUSH1 0x4 ADD PUSH2 0x584 SWAP1 PUSH2 0x203E JUMP JUMPDEST PUSH1 0x40 MLOAD DUP1 SWAP2 SUB SWAP1 REVERT JUMPDEST PUSH1 0x1 DUP4 PUSH1 0x40 MLOAD PUSH2 0x59D SWAP2 SWAP1 PUSH2 0x1B9F JUMP JUMPDEST SWAP1 DUP2 MSTORE PUSH1 0x20 ADD PUSH1 0x40 MLOAD DUP1 SWAP2 SUB SWAP1 KECCAK256 PUSH1 0x1 ADD DUP1 SLOAD PUSH2 0x5B9 SWAP1 PUSH2 0x1D1A JUMP JUMPDEST DUP1 PUSH1 0x1F ADD PUSH1 0x20 DUP1 SWAP2 DIV MUL PUSH1 0x20 ADD PUSH1 0x40 MLOAD SWAP1 DUP2 ADD PUSH1 0x40 MSTORE DUP1 SWAP3 SWAP2 SWAP1 DUP2 DUP2 MSTORE PUSH1 0x20 ADD DUP3 DUP1 SLOAD PUSH2 0x5E5 SWAP1 PUSH2 0x1D1A JUMP JUMPDEST DUP1 ISZERO PUSH2 0x630 JUMPI DUP1 PUSH1 0x1F LT PUSH2 0x607 JUMPI PUSH2 0x100 DUP1 DUP4 SLOAD DIV MUL DUP4 MSTORE SWAP2 PUSH1 0x20 ADD SWAP2 PUSH2 0x630 JUMP JUMPDEST DUP3 ADD SWAP2 SWAP1 PUSH0 MSTORE PUSH1 0x20 PUSH0 KECCAK256 SWAP1 JUMPDEST DUP2 SLOAD DUP2 MSTORE SWAP1 PUSH1 0x1 ADD SWAP1 PUSH1 0x20 ADD DUP1 DUP4 GT PUSH2 0x613 JUMPI DUP3 SWAP1 SUB PUSH1 0x1F AND DUP3 ADD SWAP2 JUMPDEST POP POP POP POP POP SWAP2 POP POP SWAP2 SWAP1 POP JUMP JUMPDEST PUSH1 0x60 DUP3 PUSH1 0x1 DUP2 PUSH1 0x40 MLOAD PUSH2 0x650 SWAP2 SWAP1 PUSH2 0x1B9F JUMP JUMPDEST SWAP1 DUP2 MSTORE PUSH1 0x20 ADD PUSH1 0x40 MLOAD DUP1 SWAP2 SUB SWAP1 KECCAK256 PUSH1 0x2 ADD PUSH0 SWAP1 SLOAD SWAP1 PUSH2 0x100 EXP SWAP1 DIV PUSH1 0xFF AND PUSH2 0x6AD JUMPI PUSH1 0x40 MLOAD PUSH32 0x8C379A000000000000000000000000000000000000000000000000000000000 DUP2 MSTORE PUSH1 0x4 ADD PUSH2 0x6A4 SWAP1 PUSH2 0x1C67 JUMP JUMPDEST PUSH1 0x40 MLOAD DUP1 SWAP2 SUB SWAP1 REVERT JUMPDEST PUSH0 PUSH1 0x40 MLOAD DUP1 PUSH1 0x80 ADD PUSH1 0x40 MSTORE DUP1 PUSH1 0x40 MLOAD DUP1 PUSH1 0x40 ADD PUSH1 0x40 MSTORE DUP1 PUSH1 0x9 DUP2 MSTORE PUSH1 0x20 ADD PUSH32 0x4E6F206163636573730000000000000000000000000000000000000000000000 DUP2 MSTORE POP DUP2 MSTORE PUSH1 0x20 ADD PUSH1 0x40 MLOAD DUP1 PUSH1 0x40 ADD PUSH1 0x40 MSTORE DUP1 PUSH1 0x9 DUP2 MSTORE PUSH1 0x20 ADD PUSH32 0x52656164206F6E6C790000000000000000000000000000000000000000000000 DUP2 MSTORE POP DUP2 MSTORE PUSH1 0x20 ADD PUSH1 0x40 MLOAD DUP1 PUSH1 0x40 ADD PUSH1 0x40 MSTORE DUP1 PUSH1 0xD DUP2 MSTORE PUSH1 0x20 ADD PUSH32 0x52656164202620617070656E6400000000000000000000000000000000000000 DUP2 MSTORE POP DUP2 MSTORE PUSH1 0x20 ADD PUSH1 0x40 MLOAD DUP1 PUSH1 0x40 ADD PUSH1 0x40 MSTORE DUP1 PUSH1 0x14 DUP2 MSTORE PUSH1 0x20 ADD PUSH32 0x526561642C20617070656E642026207772697465000000000000000000000000 DUP2 MSTORE POP DUP2 MSTORE POP SWAP1 POP DUP1 PUSH1 0x1 DUP7 PUSH1 0x40 MLOAD PUSH2 0x7B6 SWAP2 SWAP1 PUSH2 0x1B9F JUMP JUMPDEST SWAP1 DUP2 MSTORE PUSH1 0x20 ADD PUSH1 0x40 MLOAD DUP1 SWAP2 SUB SWAP1 KECCAK256 PUSH1 0x3 ADD PUSH0 DUP7 PUSH20 0xFFFFFFFFFFFFFFFFFFFFFFFFFFFFFFFFFFFFFFFF AND PUSH20 0xFFFFFFFFFFFFFFFFFFFFFFFFFFFFFFFFFFFFFFFF AND DUP2 MSTORE PUSH1 0x20 ADD SWAP1 DUP2 MSTORE PUSH1 0x20 ADD PUSH0 KECCAK256 PUSH0 SWAP1 SLOAD SWAP1 PUSH2 0x100 EXP SWAP1 DIV PUSH1 0xFF AND PUSH1 0xFF AND PUSH1 0x4 DUP2 LT PUSH2 0x823 JUMPI PUSH2 0x822 PUSH2 0x205C JUMP JUMPDEST JUMPDEST PUSH1 0x20 MUL ADD MLOAD SWAP3 POP POP POP SWAP3 SWAP2 POP POP JUMP JUMPDEST PUSH1 0x32 PUSH2 0xFFFF AND PUSH0 DUP1 SLOAD SWAP1 PUSH2 0x100 EXP SWAP1 DIV PUSH2 0xFFFF AND PUSH2 0xFFFF AND LT PUSH2 0x88A JUMPI PUSH1 0x40 MLOAD PUSH32 0x8C379A000000000000000000000000000000000000000000000000000000000 DUP2 MSTORE PUSH1 0x4 ADD PUSH2 0x881 SWAP1 PUSH2 0x20D3 JUMP JUMPDEST PUSH1 0x40 MLOAD DUP1 SWAP2 SUB SWAP1 REVERT JUMPDEST PUSH0 DUP3 MLOAD GT PUSH2 0x8CD JUMPI PUSH1 0x40 MLOAD PUSH32 0x8C379A000000000000000000000000000000000000000000000000000000000 DUP2 MSTORE PUSH1 0x4 ADD PUSH2 0x8C4 SWAP1 PUSH2 0x213B JUMP JUMPDEST PUSH1 0x40 MLOAD DUP1 SWAP2 SUB SWAP1 REVERT JUMPDEST PUSH1 0x1 DUP3 PUSH1 0x40 MLOAD PUSH2 0x8DD SWAP2 SWAP1 PUSH2 0x1B9F JUMP JUMPDEST SWAP1 DUP2 MSTORE PUSH1 0x20 ADD PUSH1 0x40 MLOAD DUP1 SWAP2 SUB SWAP1 KECCAK256 PUSH1 0x2 ADD PUSH0 SWAP1 SLOAD SWAP1 PUSH2 0x100 EXP SWAP1 DIV PUSH1 0xFF AND ISZERO PUSH2 0x93B JUMPI PUSH1 0x40 MLOAD PUSH32 0x8C379A000000000000000000000000000000000000000000000000000000000 DUP2 MSTORE PUSH1 0x4 ADD PUSH2 0x932 SWAP1 PUSH2 0x21A3 JUMP JUMPDEST PUSH1 0x40 MLOAD DUP1 SWAP2 SUB SWAP1 REVERT JUMPDEST PUSH0 PUSH1 0x1 DUP4 PUSH1 0x40 MLOAD PUSH2 0x94C SWAP2 SWAP1 PUSH2 0x1B9F JUMP JUMPDEST SWAP1 DUP2 MSTORE PUSH1 0x20 ADD PUSH1 0x40 MLOAD DUP1 SWAP2 SUB SWAP1 KECCAK256 SWAP1 POP DUP3 DUP2 PUSH0 ADD SWAP1 DUP2 PUSH2 0x96C SWAP2 SWAP1 PUSH2 0x1EF0 JUMP JUMPDEST POP DUP2 DUP2 PUSH1 0x1 ADD SWAP1 DUP2 PUSH2 0x97E SWAP2 SWAP1 PUSH2 0x1EF0 JUMP JUMPDEST POP PUSH1 0x1 DUP2 PUSH1 0x2 ADD PUSH0 PUSH2 0x100 EXP DUP2 SLOAD DUP2 PUSH1 0xFF MUL NOT AND SWAP1 DUP4 ISZERO ISZERO MUL OR SWAP1 SSTORE POP CALLER DUP2 PUSH1 0x2 ADD PUSH1 0x1 PUSH2 0x100 EXP DUP2 SLOAD DUP2 PUSH20 0xFFFFFFFFFFFFFFFFFFFFFFFFFFFFFFFFFFFFFFFF MUL NOT AND SWAP1 DUP4 PUSH20 0xFFFFFFFFFFFFFFFFFFFFFFFFFFFFFFFFFFFFFFFF AND MUL OR SWAP1 SSTORE POP PUSH1 0x3 DUP2 PUSH1 0x3 ADD PUSH0 CALLER PUSH20 0xFFFFFFFFFFFFFFFFFFFFFFFFFFFFFFFFFFFFFFFF AND PUSH20 0xFFFFFFFFFFFFFFFFFFFFFFFFFFFFFFFFFFFFFFFF AND DUP2 MSTORE PUSH1 0x20 ADD SWAP1 DUP2 MSTORE PUSH1 0x20 ADD PUSH0 KECCAK256 PUSH0 PUSH2 0x100 EXP DUP2 SLOAD DUP2 PUSH1 0xFF MUL NOT AND SWAP1 DUP4 PUSH1 0xFF AND MUL OR SWAP1 SSTORE POP PUSH0 DUP1 DUP2 DUP2 SWAP1 SLOAD SWAP1 PUSH2 0x100 EXP SWAP1 DIV PUSH2 0xFFFF AND DUP1 SWAP3 SWAP2 SWAP1 PUSH2 0xA54 SWAP1 PUSH2 0x21FB JUMP JUMPDEST SWAP2 SWAP1 PUSH2 0x100 EXP DUP2 SLOAD DUP2 PUSH2 0xFFFF MUL NOT AND SWAP1 DUP4 PUSH2 0xFFFF AND MUL OR SWAP1 SSTORE POP POP PUSH1 0x2 DUP4 SWAP1 DUP1 PUSH1 0x1 DUP2 SLOAD ADD DUP1 DUP3 SSTORE DUP1 SWAP2 POP POP PUSH1 0x1 SWAP1 SUB SWAP1 PUSH0 MSTORE PUSH1 0x20 PUSH0 KECCAK256 ADD PUSH0 SWAP1 SWAP2 SWAP1 SWAP2 SWAP1 SWAP2 POP SWAP1 DUP2 PUSH2 0xAA0 SWAP2 SWAP1 PUSH2 0x1EF0 JUMP JUMPDEST POP PUSH32 0x74FDEB27B6331DF438C50B6327D3B7D950C83000CA1FAFB3BC9834E3EC2C7EF3 DUP4 DUP4 PUSH1 0x40 MLOAD PUSH2 0xAD2 SWAP3 SWAP2 SWAP1 PUSH2 0x1FBF JUMP JUMPDEST PUSH1 0x40 MLOAD DUP1 SWAP2 SUB SWAP1 LOG1 POP POP POP JUMP JUMPDEST DUP2 PUSH1 0x1 DUP2 PUSH1 0x40 MLOAD PUSH2 0xAF0 SWAP2 SWAP1 PUSH2 0x1B9F JUMP JUMPDEST SWAP1 DUP2 MSTORE PUSH1 0x20 ADD PUSH1 0x40 MLOAD DUP1 SWAP2 SUB SWAP1 KECCAK256 PUSH1 0x2 ADD PUSH0 SWAP1 SLOAD SWAP1 PUSH2 0x100 EXP SWAP1 DIV PUSH1 0xFF AND PUSH2 0xB4D JUMPI PUSH1 0x40 MLOAD PUSH32 0x8C379A000000000000000000000000000000000000000000000000000000000 DUP2 MSTORE PUSH1 0x4 ADD PUSH2 0xB44 SWAP1 PUSH2 0x1C67 JUMP JUMPDEST PUSH1 0x40 MLOAD DUP1 SWAP2 SUB SWAP1 REVERT JUMPDEST PUSH1 0x3 PUSH1 0x1 DUP5 PUSH1 0x40 MLOAD PUSH2 0xB5F SWAP2 SWAP1 PUSH2 0x1B9F JUMP JUMPDEST SWAP1 DUP2 MSTORE PUSH1 0x20 ADD PUSH1 0x40 MLOAD DUP1 SWAP2 SUB SWAP1 KECCAK256 PUSH1 0x3 ADD PUSH0 CALLER PUSH20 0xFFFFFFFFFFFFFFFFFFFFFFFFFFFFFFFFFFFFFFFF AND PUSH20 0xFFFFFFFFFFFFFFFFFFFFFFFFFFFFFFFFFFFFFFFF AND DUP2 MSTORE PUSH1 0x20 ADD SWAP1 DUP2 MSTORE PUSH1 0x20 ADD PUSH0 KECCAK256 PUSH0 SWAP1 SLOAD SWAP1 PUSH2 0x100 EXP SWAP1 DIV PUSH1 0xFF AND PUSH1 0xFF AND EQ PUSH2 0xBFB JUMPI PUSH1 0x40 MLOAD PUSH32 0x8C379A000000000000000000000000000000000000000000000000000000000 DUP2 MSTORE PUSH1 0x4 ADD PUSH2 0xBF2 SWAP1 PUSH2 0x226E JUMP JUMPDEST PUSH1 0x40 MLOAD DUP1 SWAP2 SUB SWAP1 REVERT JUMPDEST DUP2 PUSH1 0x1 DUP5 PUSH1 0x40 MLOAD PUSH2 0xC0C SWAP2 SWAP1 PUSH2 0x1B9F JUMP JUMPDEST SWAP1 DUP2 MSTORE PUSH1 0x20 ADD PUSH1 0x40 MLOAD DUP1 SWAP2 SUB SWAP1 KECCAK256 PUSH1 0x1 ADD SWAP1 DUP2 PUSH2 0xC29 SWAP2 SWAP1 PUSH2 0x1EF0 JUMP JUMPDEST POP PUSH32 0x4441A3EC3579B92D8E6C91B65AE7DA842056291F1BE1CD5D64C2681DA07A7CC3 DUP4 DUP4 PUSH1 0x40 MLOAD PUSH2 0xC5B SWAP3 SWAP2 SWAP1 PUSH2 0x1FBF JUMP JUMPDEST PUSH1 0x40 MLOAD DUP1 SWAP2 SUB SWAP1 LOG1 POP POP POP JUMP JUMPDEST DUP1 PUSH1 0x1 DUP2 PUSH1 0x40 MLOAD PUSH2 0xC79 SWAP2 SWAP1 PUSH2 0x1B9F JUMP JUMPDEST SWAP1 DUP2 MSTORE PUSH1 0x20 ADD PUSH1 0x40 MLOAD DUP1 SWAP2 SUB SWAP1 KECCAK256 PUSH1 0x2 ADD PUSH1 0x1 SWAP1 SLOAD SWAP1 PUSH2 0x100 EXP SWAP1 DIV PUSH20 0xFFFFFFFFFFFFFFFFFFFFFFFFFFFFFFFFFFFFFFFF AND PUSH20 0xFFFFFFFFFFFFFFFFFFFFFFFFFFFFFFFFFFFFFFFF AND CALLER PUSH20 0xFFFFFFFFFFFFFFFFFFFFFFFFFFFFFFFFFFFFFFFF AND EQ PUSH2 0xD18 JUMPI PUSH1 0x40 MLOAD PUSH32 0x8C379A000000000000000000000000000000000000000000000000000000000 DUP2 MSTORE PUSH1 0x4 ADD PUSH2 0xD0F SWAP1 PUSH2 0x1BFF JUMP JUMPDEST PUSH1 0x40 MLOAD DUP1 SWAP2 SUB SWAP1 REVERT JUMPDEST DUP2 PUSH1 0x1 DUP2 PUSH1 0x40 MLOAD PUSH2 0xD29 SWAP2 SWAP1 PUSH2 0x1B9F JUMP JUMPDEST SWAP1 DUP2 MSTORE PUSH1 0x20 ADD PUSH1 0x40 MLOAD DUP1 SWAP2 SUB SWAP1 KECCAK256 PUSH1 0x2 ADD PUSH0 SWAP1 SLOAD SWAP1 PUSH2 0x100 EXP SWAP1 DIV PUSH1 0xFF AND PUSH2 0xD86 JUMPI PUSH1 0x40 MLOAD PUSH32 0x8C379A000000000000000000000000000000000000000000000000000000000 DUP2 MSTORE PUSH1 0x4 ADD PUSH2 0xD7D SWAP1 PUSH2 0x1C67 JUMP JUMPDEST PUSH1 0x40 MLOAD DUP1 SWAP2 SUB SWAP1 REVERT JUMPDEST PUSH1 0x1 DUP4 PUSH1 0x40 MLOAD PUSH2 0xD96 SWAP2 SWAP1 PUSH2 0x1B9F JUMP JUMPDEST SWAP1 DUP2 MSTORE PUSH1 0x20 ADD PUSH1 0x40 MLOAD DUP1 SWAP2 SUB SWAP1 KECCAK256 PUSH0 DUP1 DUP3 ADD PUSH0 PUSH2 0xDB3 SWAP2 SWAP1 PUSH2 0x1590 JUMP JUMPDEST PUSH1 0x1 DUP3 ADD PUSH0 PUSH2 0xDC2 SWAP2 SWAP1 PUSH2 0x1590 JUMP JUMPDEST PUSH1 0x2 DUP3 ADD PUSH0 PUSH2 0x100 EXP DUP2 SLOAD SWAP1 PUSH1 0xFF MUL NOT AND SWAP1 SSTORE PUSH1 0x2 DUP3 ADD PUSH1 0x1 PUSH2 0x100 EXP DUP2 SLOAD SWAP1 PUSH20 0xFFFFFFFFFFFFFFFFFFFFFFFFFFFFFFFFFFFFFFFF MUL NOT AND SWAP1 SSTORE POP POP PUSH0 JUMPDEST PUSH1 0x2 DUP1 SLOAD SWAP1 POP DUP2 LT ISZERO PUSH2 0xF10 JUMPI DUP4 PUSH1 0x40 MLOAD PUSH1 0x20 ADD PUSH2 0xE1E SWAP2 SWAP1 PUSH2 0x1B9F JUMP JUMPDEST PUSH1 0x40 MLOAD PUSH1 0x20 DUP2 DUP4 SUB SUB DUP2 MSTORE SWAP1 PUSH1 0x40 MSTORE DUP1 MLOAD SWAP1 PUSH1 0x20 ADD KECCAK256 PUSH1 0x2 DUP3 DUP2 SLOAD DUP2 LT PUSH2 0xE48 JUMPI PUSH2 0xE47 PUSH2 0x205C JUMP JUMPDEST JUMPDEST SWAP1 PUSH0 MSTORE PUSH1 0x20 PUSH0 KECCAK256 ADD PUSH1 0x40 MLOAD PUSH1 0x20 ADD PUSH2 0xE60 SWAP2 SWAP1 PUSH2 0x230C JUMP JUMPDEST PUSH1 0x40 MLOAD PUSH1 0x20 DUP2 DUP4 SUB SUB DUP2 MSTORE SWAP1 PUSH1 0x40 MSTORE DUP1 MLOAD SWAP1 PUSH1 0x20 ADD KECCAK256 SUB PUSH2 0xF03 JUMPI PUSH1 0x2 PUSH1 0x1 PUSH1 0x2 DUP1 SLOAD SWAP1 POP PUSH2 0xE8F SWAP2 SWAP1 PUSH2 0x2322 JUMP JUMPDEST DUP2 SLOAD DUP2 LT PUSH2 0xEA0 JUMPI PUSH2 0xE9F PUSH2 0x205C JUMP JUMPDEST JUMPDEST SWAP1 PUSH0 MSTORE PUSH1 0x20 PUSH0 KECCAK256 ADD PUSH1 0x2 DUP3 DUP2 SLOAD DUP2 LT PUSH2 0xEBC JUMPI PUSH2 0xEBB PUSH2 0x205C JUMP JUMPDEST JUMPDEST SWAP1 PUSH0 MSTORE PUSH1 0x20 PUSH0 KECCAK256 ADD SWAP1 DUP2 PUSH2 0xED0 SWAP2 SWAP1 PUSH2 0x237C JUMP JUMPDEST POP PUSH1 0x2 DUP1 SLOAD DUP1 PUSH2 0xEE3 JUMPI PUSH2 0xEE2 PUSH2 0x2461 JUMP JUMPDEST JUMPDEST PUSH1 0x1 SWAP1 SUB DUP2 DUP2 SWAP1 PUSH0 MSTORE PUSH1 0x20 PUSH0 KECCAK256 ADD PUSH0 PUSH2 0xEFC SWAP2 SWAP1 PUSH2 0x1590 JUMP JUMPDEST SWAP1 SSTORE PUSH2 0xF10 JUMP JUMPDEST DUP1 DUP1 PUSH1 0x1 ADD SWAP2 POP POP PUSH2 0xE00 JUMP JUMPDEST POP PUSH0 DUP1 DUP2 DUP2 SWAP1 SLOAD SWAP1 PUSH2 0x100 EXP SWAP1 DIV PUSH2 0xFFFF AND DUP1 SWAP3 SWAP2 SWAP1 PUSH2 0xF2F SWAP1 PUSH2 0x248E JUMP JUMPDEST SWAP2 SWAP1 PUSH2 0x100 EXP DUP2 SLOAD DUP2 PUSH2 0xFFFF MUL NOT AND SWAP1 DUP4 PUSH2 0xFFFF AND MUL OR SWAP1 SSTORE POP POP PUSH32 0x584FB2B00BCB43E608B5EFABFFAA6C6037E3F5FD1A3EC96EA172ADA6056D6174 DUP4 PUSH1 0x40 MLOAD PUSH2 0xF79 SWAP2 SWAP1 PUSH2 0x1852 JUMP JUMPDEST PUSH1 0x40 MLOAD DUP1 SWAP2 SUB SWAP1 LOG1 POP POP POP JUMP JUMPDEST PUSH1 0x60 PUSH1 0x2 DUP1 SLOAD DUP1 PUSH1 0x20 MUL PUSH1 0x20 ADD PUSH1 0x40 MLOAD SWAP1 DUP2 ADD PUSH1 0x40 MSTORE DUP1 SWAP3 SWAP2 SWAP1 DUP2 DUP2 MSTORE PUSH1 0x20 ADD PUSH0 SWAP1 JUMPDEST DUP3 DUP3 LT ISZERO PUSH2 0x1051 JUMPI DUP4 DUP3 SWAP1 PUSH0 MSTORE PUSH1 0x20 PUSH0 KECCAK256 ADD DUP1 SLOAD PUSH2 0xFC6 SWAP1 PUSH2 0x1D1A JUMP JUMPDEST DUP1 PUSH1 0x1F ADD PUSH1 0x20 DUP1 SWAP2 DIV MUL PUSH1 0x20 ADD PUSH1 0x40 MLOAD SWAP1 DUP2 ADD PUSH1 0x40 MSTORE DUP1 SWAP3 SWAP2 SWAP1 DUP2 DUP2 MSTORE PUSH1 0x20 ADD DUP3 DUP1 SLOAD PUSH2 0xFF2 SWAP1 PUSH2 0x1D1A JUMP JUMPDEST DUP1 ISZERO PUSH2 0x103D JUMPI DUP1 PUSH1 0x1F LT PUSH2 0x1014 JUMPI PUSH2 0x100 DUP1 DUP4 SLOAD DIV MUL DUP4 MSTORE SWAP2 PUSH1 0x20 ADD SWAP2 PUSH2 0x103D JUMP JUMPDEST DUP3 ADD SWAP2 SWAP1 PUSH0 MSTORE PUSH1 0x20 PUSH0 KECCAK256 SWAP1 JUMPDEST DUP2 SLOAD DUP2 MSTORE SWAP1 PUSH1 0x1 ADD SWAP1 PUSH1 0x20 ADD DUP1 DUP4 GT PUSH2 0x1020 JUMPI DUP3 SWAP1 SUB PUSH1 0x1F AND DUP3 ADD SWAP2 JUMPDEST POP POP POP POP POP DUP2 MSTORE PUSH1 0x20 ADD SWAP1 PUSH1 0x1 ADD SWAP1 PUSH2 0xFA9 JUMP JUMPDEST POP POP POP POP SWAP1 POP SWAP1 JUMP JUMPDEST DUP2 PUSH1 0x1 DUP2 PUSH1 0x40 MLOAD PUSH2 0x106B SWAP2 SWAP1 PUSH2 0x1B9F JUMP JUMPDEST SWAP1 DUP2 MSTORE PUSH1 0x20 ADD PUSH1 0x40 MLOAD DUP1 SWAP2 SUB SWAP1 KECCAK256 PUSH1 0x2 ADD PUSH0 SWAP1 SLOAD SWAP1 PUSH2 0x100 EXP SWAP1 DIV PUSH1 0xFF AND PUSH2 0x10C8 JUMPI PUSH1 0x40 MLOAD PUSH32 0x8C379A000000000000000000000000000000000000000000000000000000000 DUP2 MSTORE PUSH1 0x4 ADD PUSH2 0x10BF SWAP1 PUSH2 0x1C67 JUMP JUMPDEST PUSH1 0x40 MLOAD DUP1 SWAP2 SUB SWAP1 REVERT JUMPDEST PUSH1 0x2 PUSH1 0x1 DUP5 PUSH1 0x40 MLOAD PUSH2 0x10DA SWAP2 SWAP1 PUSH2 0x1B9F JUMP JUMPDEST SWAP1 DUP2 MSTORE PUSH1 0x20 ADD PUSH1 0x40 MLOAD DUP1 SWAP2 SUB SWAP1 KECCAK256 PUSH1 0x3 ADD PUSH0 CALLER PUSH20 0xFFFFFFFFFFFFFFFFFFFFFFFFFFFFFFFFFFFFFFFF AND PUSH20 0xFFFFFFFFFFFFFFFFFFFFFFFFFFFFFFFFFFFFFFFF AND DUP2 MSTORE PUSH1 0x20 ADD SWAP1 DUP2 MSTORE PUSH1 0x20 ADD PUSH0 KECCAK256 PUSH0 SWAP1 SLOAD SWAP1 PUSH2 0x100 EXP SWAP1 DIV PUSH1 0xFF AND PUSH1 0xFF AND LT ISZERO PUSH2 0x1177 JUMPI PUSH1 0x40 MLOAD PUSH32 0x8C379A000000000000000000000000000000000000000000000000000000000 DUP2 MSTORE PUSH1 0x4 ADD PUSH2 0x116E SWAP1 PUSH2 0x24FF JUMP JUMPDEST PUSH1 0x40 MLOAD DUP1 SWAP2 SUB SWAP1 REVERT JUMPDEST PUSH1 0x1 DUP4 PUSH1 0x40 MLOAD PUSH2 0x1187 SWAP2 SWAP1 PUSH2 0x1B9F JUMP JUMPDEST SWAP1 DUP2 MSTORE PUSH1 0x20 ADD PUSH1 0x40 MLOAD DUP1 SWAP2 SUB SWAP1 KECCAK256 PUSH1 0x1 ADD DUP3 PUSH1 0x40 MLOAD PUSH1 0x20 ADD PUSH2 0x11AA SWAP3 SWAP2 SWAP1 PUSH2 0x2543 JUMP JUMPDEST PUSH1 0x40 MLOAD PUSH1 0x20 DUP2 DUP4 SUB SUB DUP2 MSTORE SWAP1 PUSH1 0x40 MSTORE PUSH1 0x1 DUP5 PUSH1 0x40 MLOAD PUSH2 0x11C9 SWAP2 SWAP1 PUSH2 0x1B9F JUMP JUMPDEST SWAP1 DUP2 MSTORE PUSH1 0x20 ADD PUSH1 0x40 MLOAD DUP1 SWAP2 SUB SWAP1 KECCAK256 PUSH1 0x1 ADD SWAP1 DUP2 PUSH2 0x11E6 SWAP2 SWAP1 PUSH2 0x1EF0 JUMP JUMPDEST POP PUSH32 0xCEE34ECF9262A89DC00B9660881B6F33B9679B279EDF9369FB194621179B3EA1 DUP4 DUP4 PUSH1 0x40 MLOAD PUSH2 0x1218 SWAP3 SWAP2 SWAP1 PUSH2 0x1FBF JUMP JUMPDEST PUSH1 0x40 MLOAD DUP1 SWAP2 SUB SWAP1 LOG1 POP POP POP JUMP JUMPDEST PUSH1 0x1 DUP2 DUP1 MLOAD PUSH1 0x20 DUP2 ADD DUP3 ADD DUP1 MLOAD DUP5 DUP3 MSTORE PUSH1 0x20 DUP4 ADD PUSH1 0x20 DUP6 ADD KECCAK256 DUP2 DUP4 MSTORE DUP1 SWAP6 POP POP POP POP POP POP PUSH0 SWAP2 POP SWAP1 POP DUP1 PUSH0 ADD DUP1 SLOAD PUSH2 0x125C SWAP1 PUSH2 0x1D1A JUMP JUMPDEST DUP1 PUSH1 0x1F ADD PUSH1 0x20 DUP1 SWAP2 DIV MUL PUSH1 0x20 ADD PUSH1 0x40 MLOAD SWAP1 DUP2 ADD PUSH1 0x40 MSTORE DUP1 SWAP3 SWAP2 SWAP1 DUP2 DUP2 MSTORE PUSH1 0x20 ADD DUP3 DUP1 SLOAD PUSH2 0x1288 SWAP1 PUSH2 0x1D1A JUMP JUMPDEST DUP1 ISZERO PUSH2 0x12D3 JUMPI DUP1 PUSH1 0x1F LT PUSH2 0x12AA JUMPI PUSH2 0x100 DUP1 DUP4 SLOAD DIV MUL DUP4 MSTORE SWAP2 PUSH1 0x20 ADD SWAP2 PUSH2 0x12D3 JUMP JUMPDEST DUP3 ADD SWAP2 SWAP1 PUSH0 MSTORE PUSH1 0x20 PUSH0 KECCAK256 SWAP1 JUMPDEST DUP2 SLOAD DUP2 MSTORE SWAP1 PUSH1 0x1 ADD SWAP1 PUSH1 0x20 ADD DUP1 DUP4 GT PUSH2 0x12B6 JUMPI DUP3 SWAP1 SUB PUSH1 0x1F AND DUP3 ADD SWAP2 JUMPDEST POP POP POP POP POP SWAP1 DUP1 PUSH1 0x1 ADD DUP1 SLOAD PUSH2 0x12E8 SWAP1 PUSH2 0x1D1A JUMP JUMPDEST DUP1 PUSH1 0x1F ADD PUSH1 0x20 DUP1 SWAP2 DIV MUL PUSH1 0x20 ADD PUSH1 0x40 MLOAD SWAP1 DUP2 ADD PUSH1 0x40 MSTORE DUP1 SWAP3 SWAP2 SWAP1 DUP2 DUP2 MSTORE PUSH1 0x20 ADD DUP3 DUP1 SLOAD PUSH2 0x1314 SWAP1 PUSH2 0x1D1A JUMP JUMPDEST DUP1 ISZERO PUSH2 0x135F JUMPI DUP1 PUSH1 0x1F LT PUSH2 0x1336 JUMPI PUSH2 0x100 DUP1 DUP4 SLOAD DIV MUL DUP4 MSTORE SWAP2 PUSH1 0x20 ADD SWAP2 PUSH2 0x135F JUMP JUMPDEST DUP3 ADD SWAP2 SWAP1 PUSH0 MSTORE PUSH1 0x20 PUSH0 KECCAK256 SWAP1 JUMPDEST DUP2 SLOAD DUP2 MSTORE SWAP1 PUSH1 0x1 ADD SWAP1 PUSH1 0x20 ADD DUP1 DUP4 GT PUSH2 0x1342 JUMPI DUP3 SWAP1 SUB PUSH1 0x1F AND DUP3 ADD SWAP2 JUMPDEST POP POP POP POP POP SWAP1 DUP1 PUSH1 0x2 ADD PUSH0 SWAP1 SLOAD SWAP1 PUSH2 0x100 EXP SWAP1 DIV PUSH1 0xFF AND SWAP1 DUP1 PUSH1 0x2 ADD PUSH1 0x1 SWAP1 SLOAD SWAP1 PUSH2 0x100 EXP SWAP1 DIV PUSH20 0xFFFFFFFFFFFFFFFFFFFFFFFFFFFFFFFFFFFFFFFF AND SWAP1 POP DUP5 JUMP JUMPDEST DUP3 PUSH1 0x1 DUP2 PUSH1 0x40 MLOAD PUSH2 0x13B2 SWAP2 SWAP1 PUSH2 0x1B9F JUMP JUMPDEST SWAP1 DUP2 MSTORE PUSH1 0x20 ADD PUSH1 0x40 MLOAD DUP1 SWAP2 SUB SWAP1 KECCAK256 PUSH1 0x2 ADD PUSH1 0x1 SWAP1 SLOAD SWAP1 PUSH2 0x100 EXP SWAP1 DIV PUSH20 0xFFFFFFFFFFFFFFFFFFFFFFFFFFFFFFFFFFFFFFFF AND PUSH20 0xFFFFFFFFFFFFFFFFFFFFFFFFFFFFFFFFFFFFFFFF AND CALLER PUSH20 0xFFFFFFFFFFFFFFFFFFFFFFFFFFFFFFFFFFFFFFFF AND EQ PUSH2 0x1451 JUMPI PUSH1 0x40 MLOAD PUSH32 0x8C379A000000000000000000000000000000000000000000000000000000000 DUP2 MSTORE PUSH1 0x4 ADD PUSH2 0x1448 SWAP1 PUSH2 0x1BFF JUMP JUMPDEST PUSH1 0x40 MLOAD DUP1 SWAP2 SUB SWAP1 REVERT JUMPDEST DUP4 PUSH1 0x1 DUP2 PUSH1 0x40 MLOAD PUSH2 0x1462 SWAP2 SWAP1 PUSH2 0x1B9F JUMP JUMPDEST SWAP1 DUP2 MSTORE PUSH1 0x20 ADD PUSH1 0x40 MLOAD DUP1 SWAP2 SUB SWAP1 KECCAK256 PUSH1 0x2 ADD PUSH0 SWAP1 SLOAD SWAP1 PUSH2 0x100 EXP SWAP1 DIV PUSH1 0xFF AND PUSH2 0x14BF JUMPI PUSH1 0x40 MLOAD PUSH32 0x8C379A000000000000000000000000000000000000000000000000000000000 DUP2 MSTORE PUSH1 0x4 ADD PUSH2 0x14B6 SWAP1 PUSH2 0x1C67 JUMP JUMPDEST PUSH1 0x40 MLOAD DUP1 SWAP2 SUB SWAP1 REVERT JUMPDEST PUSH0 DUP4 PUSH1 0xFF AND LT ISZERO DUP1 ISZERO PUSH2 0x14D6 JUMPI POP PUSH1 0x3 DUP4 PUSH1 0xFF AND GT ISZERO JUMPDEST PUSH2 0x1515 JUMPI PUSH1 0x40 MLOAD PUSH32 0x8C379A000000000000000000000000000000000000000000000000000000000 DUP2 MSTORE PUSH1 0x4 ADD PUSH2 0x150C SWAP1 PUSH2 0x25BF JUMP JUMPDEST PUSH1 0x40 MLOAD DUP1 SWAP2 SUB SWAP1 REVERT JUMPDEST DUP3 PUSH1 0x1 DUP7 PUSH1 0x40 MLOAD PUSH2 0x1526 SWAP2 SWAP1 PUSH2 0x1B9F JUMP JUMPDEST SWAP1 DUP2 MSTORE PUSH1 0x20 ADD PUSH1 0x40 MLOAD DUP1 SWAP2 SUB SWAP1 KECCAK256 PUSH1 0x3 ADD PUSH0 DUP7 PUSH20 0xFFFFFFFFFFFFFFFFFFFFFFFFFFFFFFFFFFFFFFFF AND PUSH20 0xFFFFFFFFFFFFFFFFFFFFFFFFFFFFFFFFFFFFFFFF AND DUP2 MSTORE PUSH1 0x20 ADD SWAP1 DUP2 MSTORE PUSH1 0x20 ADD PUSH0 KECCAK256 PUSH0 PUSH2 0x100 EXP DUP2 SLOAD DUP2 PUSH1 0xFF MUL NOT AND SWAP1 DUP4 PUSH1 0xFF AND MUL OR SWAP1 SSTORE POP POP POP POP POP POP JUMP JUMPDEST POP DUP1 SLOAD PUSH2 0x159C SWAP1 PUSH2 0x1D1A JUMP JUMPDEST PUSH0 DUP3 SSTORE DUP1 PUSH1 0x1F LT PUSH2 0x15AD JUMPI POP PUSH2 0x15CA JUMP JUMPDEST PUSH1 0x1F ADD PUSH1 0x20 SWAP1 DIV SWAP1 PUSH0 MSTORE PUSH1 0x20 PUSH0 KECCAK256 SWAP1 DUP2 ADD SWAP1 PUSH2 0x15C9 SWAP2 SWAP1 PUSH2 0x15CD JUMP JUMPDEST JUMPDEST POP JUMP JUMPDEST JUMPDEST DUP1 DUP3 GT ISZERO PUSH2 0x15E4 JUMPI PUSH0 DUP2 PUSH0 SWAP1 SSTORE POP PUSH1 0x1 ADD PUSH2 0x15CE JUMP JUMPDEST POP SWAP1 JUMP JUMPDEST PUSH0 PUSH1 0x40 MLOAD SWAP1 POP SWAP1 JUMP JUMPDEST PUSH0 DUP1 REVERT JUMPDEST PUSH0 DUP1 REVERT JUMPDEST PUSH0 DUP1 REVERT JUMPDEST PUSH0 DUP1 REVERT JUMPDEST PUSH0 PUSH1 0x1F NOT PUSH1 0x1F DUP4 ADD AND SWAP1 POP SWAP2 SWAP1 POP JUMP JUMPDEST PUSH32 0x4E487B7100000000000000000000000000000000000000000000000000000000 PUSH0 MSTORE PUSH1 0x41 PUSH1 0x4 MSTORE PUSH1 0x24 PUSH0 REVERT JUMPDEST PUSH2 0x1647 DUP3 PUSH2 0x1601 JUMP JUMPDEST DUP2 ADD DUP2 DUP2 LT PUSH8 0xFFFFFFFFFFFFFFFF DUP3 GT OR ISZERO PUSH2 0x1666 JUMPI PUSH2 0x1665 PUSH2 0x1611 JUMP JUMPDEST JUMPDEST DUP1 PUSH1 0x40 MSTORE POP POP POP JUMP JUMPDEST PUSH0 PUSH2 0x1678 PUSH2 0x15E8 JUMP JUMPDEST SWAP1 POP PUSH2 0x1684 DUP3 DUP3 PUSH2 0x163E JUMP JUMPDEST SWAP2 SWAP1 POP JUMP JUMPDEST PUSH0 PUSH8 0xFFFFFFFFFFFFFFFF DUP3 GT ISZERO PUSH2 0x16A3 JUMPI PUSH2 0x16A2 PUSH2 0x1611 JUMP JUMPDEST JUMPDEST PUSH2 0x16AC DUP3 PUSH2 0x1601 JUMP JUMPDEST SWAP1 POP PUSH1 0x20 DUP2 ADD SWAP1 POP SWAP2 SWAP1 POP JUMP JUMPDEST DUP3 DUP2 DUP4 CALLDATACOPY PUSH0 DUP4 DUP4 ADD MSTORE POP POP POP JUMP JUMPDEST PUSH0 PUSH2 0x16D9 PUSH2 0x16D4 DUP5 PUSH2 0x1689 JUMP JUMPDEST PUSH2 0x166F JUMP JUMPDEST SWAP1 POP DUP3 DUP2 MSTORE PUSH1 0x20 DUP2 ADD DUP5 DUP5 DUP5 ADD GT ISZERO PUSH2 0x16F5 JUMPI PUSH2 0x16F4 PUSH2 0x15FD JUMP JUMPDEST JUMPDEST PUSH2 0x1700 DUP5 DUP3 DUP6 PUSH2 0x16B9 JUMP JUMPDEST POP SWAP4 SWAP3 POP POP POP JUMP JUMPDEST PUSH0 DUP3 PUSH1 0x1F DUP4 ADD SLT PUSH2 0x171C JUMPI PUSH2 0x171B PUSH2 0x15F9 JUMP JUMPDEST JUMPDEST DUP2 CALLDATALOAD PUSH2 0x172C DUP5 DUP3 PUSH1 0x20 DUP7 ADD PUSH2 0x16C7 JUMP JUMPDEST SWAP2 POP POP SWAP3 SWAP2 POP POP JUMP JUMPDEST PUSH0 DUP1 PUSH1 0x40 DUP4 DUP6 SUB SLT ISZERO PUSH2 0x174B JUMPI PUSH2 0x174A PUSH2 0x15F1 JUMP JUMPDEST JUMPDEST PUSH0 DUP4 ADD CALLDATALOAD PUSH8 0xFFFFFFFFFFFFFFFF DUP2 GT ISZERO PUSH2 0x1768 JUMPI PUSH2 0x1767 PUSH2 0x15F5 JUMP JUMPDEST JUMPDEST PUSH2 0x1774 DUP6 DUP3 DUP7 ADD PUSH2 0x1708 JUMP JUMPDEST SWAP3 POP POP PUSH1 0x20 DUP4 ADD CALLDATALOAD PUSH8 0xFFFFFFFFFFFFFFFF DUP2 GT ISZERO PUSH2 0x1795 JUMPI PUSH2 0x1794 PUSH2 0x15F5 JUMP JUMPDEST JUMPDEST PUSH2 0x17A1 DUP6 DUP3 DUP7 ADD PUSH2 0x1708 JUMP JUMPDEST SWAP2 POP POP SWAP3 POP SWAP3 SWAP1 POP JUMP JUMPDEST PUSH0 PUSH1 0x20 DUP3 DUP5 SUB SLT ISZERO PUSH2 0x17C0 JUMPI PUSH2 0x17BF PUSH2 0x15F1 JUMP JUMPDEST JUMPDEST PUSH0 DUP3 ADD CALLDATALOAD PUSH8 0xFFFFFFFFFFFFFFFF DUP2 GT ISZERO PUSH2 0x17DD JUMPI PUSH2 0x17DC PUSH2 0x15F5 JUMP JUMPDEST JUMPDEST PUSH2 0x17E9 DUP5 DUP3 DUP6 ADD PUSH2 0x1708 JUMP JUMPDEST SWAP2 POP POP SWAP3 SWAP2 POP POP JUMP JUMPDEST PUSH0 DUP2 MLOAD SWAP1 POP SWAP2 SWAP1 POP JUMP JUMPDEST PUSH0 DUP3 DUP3 MSTORE PUSH1 0x20 DUP3 ADD SWAP1 POP SWAP3 SWAP2 POP POP JUMP JUMPDEST DUP3 DUP2 DUP4 MCOPY PUSH0 DUP4 DUP4 ADD MSTORE POP POP POP JUMP JUMPDEST PUSH0 PUSH2 0x1824 DUP3 PUSH2 0x17F2 JUMP JUMPDEST PUSH2 0x182E DUP2 DUP6 PUSH2 0x17FC JUMP JUMPDEST SWAP4 POP PUSH2 0x183E DUP2 DUP6 PUSH1 0x20 DUP7 ADD PUSH2 0x180C JUMP JUMPDEST PUSH2 0x1847 DUP2 PUSH2 0x1601 JUMP JUMPDEST DUP5 ADD SWAP2 POP POP SWAP3 SWAP2 POP POP JUMP JUMPDEST PUSH0 PUSH1 0x20 DUP3 ADD SWAP1 POP DUP2 DUP2 SUB PUSH0 DUP4 ADD MSTORE PUSH2 0x186A DUP2 DUP5 PUSH2 0x181A JUMP JUMPDEST SWAP1 POP SWAP3 SWAP2 POP POP JUMP JUMPDEST PUSH0 PUSH20 0xFFFFFFFFFFFFFFFFFFFFFFFFFFFFFFFFFFFFFFFF DUP3 AND SWAP1 POP SWAP2 SWAP1 POP JUMP JUMPDEST PUSH0 PUSH2 0x189B DUP3 PUSH2 0x1872 JUMP JUMPDEST SWAP1 POP SWAP2 SWAP1 POP JUMP JUMPDEST PUSH2 0x18AB DUP2 PUSH2 0x1891 JUMP JUMPDEST DUP2 EQ PUSH2 0x18B5 JUMPI PUSH0 DUP1 REVERT JUMPDEST POP JUMP JUMPDEST PUSH0 DUP2 CALLDATALOAD SWAP1 POP PUSH2 0x18C6 DUP2 PUSH2 0x18A2 JUMP JUMPDEST SWAP3 SWAP2 POP POP JUMP JUMPDEST PUSH0 DUP1 PUSH1 0x40 DUP4 DUP6 SUB SLT ISZERO PUSH2 0x18E2 JUMPI PUSH2 0x18E1 PUSH2 0x15F1 JUMP JUMPDEST JUMPDEST PUSH0 DUP4 ADD CALLDATALOAD PUSH8 0xFFFFFFFFFFFFFFFF DUP2 GT ISZERO PUSH2 0x18FF JUMPI PUSH2 0x18FE PUSH2 0x15F5 JUMP JUMPDEST JUMPDEST PUSH2 0x190B DUP6 DUP3 DUP7 ADD PUSH2 0x1708 JUMP JUMPDEST SWAP3 POP POP PUSH1 0x20 PUSH2 0x191C DUP6 DUP3 DUP7 ADD PUSH2 0x18B8 JUMP JUMPDEST SWAP2 POP POP SWAP3 POP SWAP3 SWAP1 POP JUMP JUMPDEST PUSH0 DUP2 MLOAD SWAP1 POP SWAP2 SWAP1 POP JUMP JUMPDEST PUSH0 DUP3 DUP3 MSTORE PUSH1 0x20 DUP3 ADD SWAP1 POP SWAP3 SWAP2 POP POP JUMP JUMPDEST PUSH0 DUP2 SWAP1 POP PUSH1 0x20 DUP3 ADD SWAP1 POP SWAP2 SWAP1 POP JUMP JUMPDEST PUSH0 DUP3 DUP3 MSTORE PUSH1 0x20 DUP3 ADD SWAP1 POP SWAP3 SWAP2 POP POP JUMP JUMPDEST PUSH0 PUSH2 0x1969 DUP3 PUSH2 0x17F2 JUMP JUMPDEST PUSH2 0x1973 DUP2 DUP6 PUSH2 0x194F JUMP JUMPDEST SWAP4 POP PUSH2 0x1983 DUP2 DUP6 PUSH1 0x20 DUP7 ADD PUSH2 0x180C JUMP JUMPDEST PUSH2 0x198C DUP2 PUSH2 0x1601 JUMP JUMPDEST DUP5 ADD SWAP2 POP POP SWAP3 SWAP2 POP POP JUMP JUMPDEST PUSH0 PUSH2 0x19A2 DUP4 DUP4 PUSH2 0x195F JUMP JUMPDEST SWAP1 POP SWAP3 SWAP2 POP POP JUMP JUMPDEST PUSH0 PUSH1 0x20 DUP3 ADD SWAP1 POP SWAP2 SWAP1 POP JUMP JUMPDEST PUSH0 PUSH2 0x19C0 DUP3 PUSH2 0x1926 JUMP JUMPDEST PUSH2 0x19CA DUP2 DUP6 PUSH2 0x1930 JUMP JUMPDEST SWAP4 POP DUP4 PUSH1 0x20 DUP3 MUL DUP6 ADD PUSH2 0x19DC DUP6 PUSH2 0x1940 JUMP JUMPDEST DUP1 PUSH0 JUMPDEST DUP6 DUP2 LT ISZERO PUSH2 0x1A17 JUMPI DUP5 DUP5 SUB DUP10 MSTORE DUP2 MLOAD PUSH2 0x19F8 DUP6 DUP3 PUSH2 0x1997 JUMP JUMPDEST SWAP5 POP PUSH2 0x1A03 DUP4 PUSH2 0x19AA JUMP JUMPDEST SWAP3 POP PUSH1 0x20 DUP11 ADD SWAP10 POP POP PUSH1 0x1 DUP2 ADD SWAP1 POP PUSH2 0x19DF JUMP JUMPDEST POP DUP3 SWAP8 POP DUP8 SWAP6 POP POP POP POP POP POP SWAP3 SWAP2 POP POP JUMP JUMPDEST PUSH0 PUSH1 0x20 DUP3 ADD SWAP1 POP DUP2 DUP2 SUB PUSH0 DUP4 ADD MSTORE PUSH2 0x1A41 DUP2 DUP5 PUSH2 0x19B6 JUMP JUMPDEST SWAP1 POP SWAP3 SWAP2 POP POP JUMP JUMPDEST PUSH0 DUP2 ISZERO ISZERO SWAP1 POP SWAP2 SWAP1 POP JUMP JUMPDEST PUSH2 0x1A5D DUP2 PUSH2 0x1A49 JUMP JUMPDEST DUP3 MSTORE POP POP JUMP JUMPDEST PUSH2 0x1A6C DUP2 PUSH2 0x1891 JUMP JUMPDEST DUP3 MSTORE POP POP JUMP JUMPDEST PUSH0 PUSH1 0x80 DUP3 ADD SWAP1 POP DUP2 DUP2 SUB PUSH0 DUP4 ADD MSTORE PUSH2 0x1A8A DUP2 DUP8 PUSH2 0x181A JUMP JUMPDEST SWAP1 POP DUP2 DUP2 SUB PUSH1 0x20 DUP4 ADD MSTORE PUSH2 0x1A9E DUP2 DUP7 PUSH2 0x181A JUMP JUMPDEST SWAP1 POP PUSH2 0x1AAD PUSH1 0x40 DUP4 ADD DUP6 PUSH2 0x1A54 JUMP JUMPDEST PUSH2 0x1ABA PUSH1 0x60 DUP4 ADD DUP5 PUSH2 0x1A63 JUMP JUMPDEST SWAP6 SWAP5 POP POP POP POP POP JUMP JUMPDEST PUSH0 PUSH1 0xFF DUP3 AND SWAP1 POP SWAP2 SWAP1 POP JUMP JUMPDEST PUSH2 0x1AD8 DUP2 PUSH2 0x1AC3 JUMP JUMPDEST DUP2 EQ PUSH2 0x1AE2 JUMPI PUSH0 DUP1 REVERT JUMPDEST POP JUMP JUMPDEST PUSH0 DUP2 CALLDATALOAD SWAP1 POP PUSH2 0x1AF3 DUP2 PUSH2 0x1ACF JUMP JUMPDEST SWAP3 SWAP2 POP POP JUMP JUMPDEST PUSH0 DUP1 PUSH0 PUSH1 0x60 DUP5 DUP7 SUB SLT ISZERO PUSH2 0x1B10 JUMPI PUSH2 0x1B0F PUSH2 0x15F1 JUMP JUMPDEST JUMPDEST PUSH0 DUP5 ADD CALLDATALOAD PUSH8 0xFFFFFFFFFFFFFFFF DUP2 GT ISZERO PUSH2 0x1B2D JUMPI PUSH2 0x1B2C PUSH2 0x15F5 JUMP JUMPDEST JUMPDEST PUSH2 0x1B39 DUP7 DUP3 DUP8 ADD PUSH2 0x1708 JUMP JUMPDEST SWAP4 POP POP PUSH1 0x20 PUSH2 0x1B4A DUP7 DUP3 DUP8 ADD PUSH2 0x18B8 JUMP JUMPDEST SWAP3 POP POP PUSH1 0x40 PUSH2 0x1B5B DUP7 DUP3 DUP8 ADD PUSH2 0x1AE5 JUMP JUMPDEST SWAP2 POP POP SWAP3 POP SWAP3 POP SWAP3 JUMP JUMPDEST PUSH0 DUP2 SWAP1 POP SWAP3 SWAP2 POP POP JUMP JUMPDEST PUSH0 PUSH2 0x1B79 DUP3 PUSH2 0x17F2 JUMP JUMPDEST PUSH2 0x1B83 DUP2 DUP6 PUSH2 0x1B65 JUMP JUMPDEST SWAP4 POP PUSH2 0x1B93 DUP2 DUP6 PUSH1 0x20 DUP7 ADD PUSH2 0x180C JUMP JUMPDEST DUP1 DUP5 ADD SWAP2 POP POP SWAP3 SWAP2 POP POP JUMP JUMPDEST PUSH0 PUSH2 0x1BAA DUP3 DUP5 PUSH2 0x1B6F JUMP JUMPDEST SWAP2 POP DUP2 SWAP1 POP SWAP3 SWAP2 POP POP JUMP JUMPDEST PUSH32 0x4F6E6C79207468652066696C65206F776E65722063616E20646F207468697300 PUSH0 DUP3 ADD MSTORE POP JUMP JUMPDEST PUSH0 PUSH2 0x1BE9 PUSH1 0x1F DUP4 PUSH2 0x17FC JUMP JUMPDEST SWAP2 POP PUSH2 0x1BF4 DUP3 PUSH2 0x1BB5 JUMP JUMPDEST PUSH1 0x20 DUP3 ADD SWAP1 POP SWAP2 SWAP1 POP JUMP JUMPDEST PUSH0 PUSH1 0x20 DUP3 ADD SWAP1 POP DUP2 DUP2 SUB PUSH0 DUP4 ADD MSTORE PUSH2 0x1C16 DUP2 PUSH2 0x1BDD JUMP JUMPDEST SWAP1 POP SWAP2 SWAP1 POP JUMP JUMPDEST PUSH32 0x46696C6520646F6573206E6F7420657869737400000000000000000000000000 PUSH0 DUP3 ADD MSTORE POP JUMP JUMPDEST PUSH0 PUSH2 0x1C51 PUSH1 0x13 DUP4 PUSH2 0x17FC JUMP JUMPDEST SWAP2 POP PUSH2 0x1C5C DUP3 PUSH2 0x1C1D JUMP JUMPDEST PUSH1 0x20 DUP3 ADD SWAP1 POP SWAP2 SWAP1 POP JUMP JUMPDEST PUSH0 PUSH1 0x20 DUP3 ADD SWAP1 POP DUP2 DUP2 SUB PUSH0 DUP4 ADD MSTORE PUSH2 0x1C7E DUP2 PUSH2 0x1C45 JUMP JUMPDEST SWAP1 POP SWAP2 SWAP1 POP JUMP JUMPDEST PUSH32 0x4E616D65206E6F7420617661696C61626C650000000000000000000000000000 PUSH0 DUP3 ADD MSTORE POP JUMP JUMPDEST PUSH0 PUSH2 0x1CB9 PUSH1 0x12 DUP4 PUSH2 0x17FC JUMP JUMPDEST SWAP2 POP PUSH2 0x1CC4 DUP3 PUSH2 0x1C85 JUMP JUMPDEST PUSH1 0x20 DUP3 ADD SWAP1 POP SWAP2 SWAP1 POP JUMP JUMPDEST PUSH0 PUSH1 0x20 DUP3 ADD SWAP1 POP DUP2 DUP2 SUB PUSH0 DUP4 ADD MSTORE PUSH2 0x1CE6 DUP2 PUSH2 0x1CAD JUMP JUMPDEST SWAP1 POP SWAP2 SWAP1 POP JUMP JUMPDEST PUSH32 0x4E487B7100000000000000000000000000000000000000000000000000000000 PUSH0 MSTORE PUSH1 0x22 PUSH1 0x4 MSTORE PUSH1 0x24 PUSH0 REVERT JUMPDEST PUSH0 PUSH1 0x2 DUP3 DIV SWAP1 POP PUSH1 0x1 DUP3 AND DUP1 PUSH2 0x1D31 JUMPI PUSH1 0x7F DUP3 AND SWAP2 POP JUMPDEST PUSH1 0x20 DUP3 LT DUP2 SUB PUSH2 0x1D44 JUMPI PUSH2 0x1D43 PUSH2 0x1CED JUMP JUMPDEST JUMPDEST POP SWAP2 SWAP1 POP JUMP JUMPDEST PUSH0 DUP2 SWAP1 POP DUP2 PUSH0 MSTORE PUSH1 0x20 PUSH0 KECCAK256 SWAP1 POP SWAP2 SWAP1 POP JUMP JUMPDEST PUSH0 PUSH1 0x20 PUSH1 0x1F DUP4 ADD DIV SWAP1 POP SWAP2 SWAP1 POP JUMP JUMPDEST PUSH0 DUP3 DUP3 SHL SWAP1 POP SWAP3 SWAP2 POP POP JUMP JUMPDEST PUSH0 PUSH1 0x8 DUP4 MUL PUSH2 0x1DA6 PUSH32 0xFFFFFFFFFFFFFFFFFFFFFFFFFFFFFFFFFFFFFFFFFFFFFFFFFFFFFFFFFFFFFFFF DUP3 PUSH2 0x1D6B JUMP JUMPDEST PUSH2 0x1DB0 DUP7 DUP4 PUSH2 0x1D6B JUMP JUMPDEST SWAP6 POP DUP1 NOT DUP5 AND SWAP4 POP DUP1 DUP7 AND DUP5 OR SWAP3 POP POP POP SWAP4 SWAP3 POP POP POP JUMP JUMPDEST PUSH0 DUP2 SWAP1 POP SWAP2 SWAP1 POP JUMP JUMPDEST PUSH0 DUP2 SWAP1 POP SWAP2 SWAP1 POP JUMP JUMPDEST PUSH0 PUSH2 0x1DF4 PUSH2 0x1DEF PUSH2 0x1DEA DUP5 PUSH2 0x1DC8 JUMP JUMPDEST PUSH2 0x1DD1 JUMP JUMPDEST PUSH2 0x1DC8 JUMP JUMPDEST SWAP1 POP SWAP2 SWAP1 POP JUMP JUMPDEST PUSH0 DUP2 SWAP1 POP SWAP2 SWAP1 POP JUMP JUMPDEST PUSH2 0x1E0D DUP4 PUSH2 0x1DDA JUMP JUMPDEST PUSH2 0x1E21 PUSH2 0x1E19 DUP3 PUSH2 0x1DFB JUMP JUMPDEST DUP5 DUP5 SLOAD PUSH2 0x1D77 JUMP JUMPDEST DUP3 SSTORE POP POP POP POP JUMP JUMPDEST PUSH0 SWAP1 JUMP JUMPDEST PUSH2 0x1E35 PUSH2 0x1E29 JUMP JUMPDEST PUSH2 0x1E40 DUP2 DUP5 DUP5 PUSH2 0x1E04 JUMP JUMPDEST POP POP POP JUMP JUMPDEST JUMPDEST DUP2 DUP2 LT ISZERO PUSH2 0x1E63 JUMPI PUSH2 0x1E58 PUSH0 DUP3 PUSH2 0x1E2D JUMP JUMPDEST PUSH1 0x1 DUP2 ADD SWAP1 POP PUSH2 0x1E46 JUMP JUMPDEST POP POP JUMP JUMPDEST PUSH1 0x1F DUP3 GT ISZERO PUSH2 0x1EA8 JUMPI PUSH2 0x1E79 DUP2 PUSH2 0x1D4A JUMP JUMPDEST PUSH2 0x1E82 DUP5 PUSH2 0x1D5C JUMP JUMPDEST DUP2 ADD PUSH1 0x20 DUP6 LT ISZERO PUSH2 0x1E91 JUMPI DUP2 SWAP1 POP JUMPDEST PUSH2 0x1EA5 PUSH2 0x1E9D DUP6 PUSH2 0x1D5C JUMP JUMPDEST DUP4 ADD DUP3 PUSH2 0x1E45 JUMP JUMPDEST POP POP JUMPDEST POP POP POP JUMP JUMPDEST PUSH0 DUP3 DUP3 SHR SWAP1 POP SWAP3 SWAP2 POP POP JUMP JUMPDEST PUSH0 PUSH2 0x1EC8 PUSH0 NOT DUP5 PUSH1 0x8 MUL PUSH2 0x1EAD JUMP JUMPDEST NOT DUP1 DUP4 AND SWAP2 POP POP SWAP3 SWAP2 POP POP JUMP JUMPDEST PUSH0 PUSH2 0x1EE0 DUP4 DUP4 PUSH2 0x1EB9 JUMP JUMPDEST SWAP2 POP DUP3 PUSH1 0x2 MUL DUP3 OR SWAP1 POP SWAP3 SWAP2 POP POP JUMP JUMPDEST PUSH2 0x1EF9 DUP3 PUSH2 0x17F2 JUMP JUMPDEST PUSH8 0xFFFFFFFFFFFFFFFF DUP2 GT ISZERO PUSH2 0x1F12 JUMPI PUSH2 0x1F11 PUSH2 0x1611 JUMP JUMPDEST JUMPDEST PUSH2 0x1F1C DUP3 SLOAD PUSH2 0x1D1A JUMP JUMPDEST PUSH2 0x1F27 DUP3 DUP3 DUP6 PUSH2 0x1E67 JUMP JUMPDEST PUSH0 PUSH1 0x20 SWAP1 POP PUSH1 0x1F DUP4 GT PUSH1 0x1 DUP2 EQ PUSH2 0x1F58 JUMPI PUSH0 DUP5 ISZERO PUSH2 0x1F46 JUMPI DUP3 DUP8 ADD MLOAD SWAP1 POP JUMPDEST PUSH2 0x1F50 DUP6 DUP3 PUSH2 0x1ED5 JUMP JUMPDEST DUP7 SSTORE POP PUSH2 0x1FB7 JUMP JUMPDEST PUSH1 0x1F NOT DUP5 AND PUSH2 0x1F66 DUP7 PUSH2 0x1D4A JUMP JUMPDEST PUSH0 JUMPDEST DUP3 DUP2 LT ISZERO PUSH2 0x1F8D JUMPI DUP5 DUP10 ADD MLOAD DUP3 SSTORE PUSH1 0x1 DUP3 ADD SWAP2 POP PUSH1 0x20 DUP6 ADD SWAP5 POP PUSH1 0x20 DUP2 ADD SWAP1 POP PUSH2 0x1F68 JUMP JUMPDEST DUP7 DUP4 LT ISZERO PUSH2 0x1FAA JUMPI DUP5 DUP10 ADD MLOAD PUSH2 0x1FA6 PUSH1 0x1F DUP10 AND DUP3 PUSH2 0x1EB9 JUMP JUMPDEST DUP4 SSTORE POP JUMPDEST PUSH1 0x1 PUSH1 0x2 DUP9 MUL ADD DUP9 SSTORE POP POP POP JUMPDEST POP POP POP POP POP POP JUMP JUMPDEST PUSH0 PUSH1 0x40 DUP3 ADD SWAP1 POP DUP2 DUP2 SUB PUSH0 DUP4 ADD MSTORE PUSH2 0x1FD7 DUP2 DUP6 PUSH2 0x181A JUMP JUMPDEST SWAP1 POP DUP2 DUP2 SUB PUSH1 0x20 DUP4 ADD MSTORE PUSH2 0x1FEB DUP2 DUP5 PUSH2 0x181A JUMP JUMPDEST SWAP1 POP SWAP4 SWAP3 POP POP POP JUMP JUMPDEST PUSH32 0x4E6F205265616420616363657373000000000000000000000000000000000000 PUSH0 DUP3 ADD MSTORE POP JUMP JUMPDEST PUSH0 PUSH2 0x2028 PUSH1 0xE DUP4 PUSH2 0x17FC JUMP JUMPDEST SWAP2 POP PUSH2 0x2033 DUP3 PUSH2 0x1FF4 JUMP JUMPDEST PUSH1 0x20 DUP3 ADD SWAP1 POP SWAP2 SWAP1 POP JUMP JUMPDEST PUSH0 PUSH1 0x20 DUP3 ADD SWAP1 POP DUP2 DUP2 SUB PUSH0 DUP4 ADD MSTORE PUSH2 0x2055 DUP2 PUSH2 0x201C JUMP JUMPDEST SWAP1 POP SWAP2 SWAP1 POP JUMP JUMPDEST PUSH32 0x4E487B7100000000000000000000000000000000000000000000000000000000 PUSH0 MSTORE PUSH1 0x32 PUSH1 0x4 MSTORE PUSH1 0x24 PUSH0 REVERT JUMPDEST PUSH32 0x45786365656465642066696C65206C696D697400000000000000000000000000 PUSH0 DUP3 ADD MSTORE POP JUMP JUMPDEST PUSH0 PUSH2 0x20BD PUSH1 0x13 DUP4 PUSH2 0x17FC JUMP JUMPDEST SWAP2 POP PUSH2 0x20C8 DUP3 PUSH2 0x2089 JUMP JUMPDEST PUSH1 0x20 DUP3 ADD SWAP1 POP SWAP2 SWAP1 POP JUMP JUMPDEST PUSH0 PUSH1 0x20 DUP3 ADD SWAP1 POP DUP2 DUP2 SUB PUSH0 DUP4 ADD MSTORE PUSH2 0x20EA DUP2 PUSH2 0x20B1 JUMP JUMPDEST SWAP1 POP SWAP2 SWAP1 POP JUMP JUMPDEST PUSH32 0x46696C656E616D652063616E6E6F7420626520656D7074790000000000000000 PUSH0 DUP3 ADD MSTORE POP JUMP JUMPDEST PUSH0 PUSH2 0x2125 PUSH1 0x18 DUP4 PUSH2 0x17FC JUMP JUMPDEST SWAP2 POP PUSH2 0x2130 DUP3 PUSH2 0x20F1 JUMP JUMPDEST PUSH1 0x20 DUP3 ADD SWAP1 POP SWAP2 SWAP1 POP JUMP JUMPDEST PUSH0 PUSH1 0x20 DUP3 ADD SWAP1 POP DUP2 DUP2 SUB PUSH0 DUP4 ADD MSTORE PUSH2 0x2152 DUP2 PUSH2 0x2119 JUMP JUMPDEST SWAP1 POP SWAP2 SWAP1 POP JUMP JUMPDEST PUSH32 0x46696C6520616C72656164792065786973747300000000000000000000000000 PUSH0 DUP3 ADD MSTORE POP JUMP JUMPDEST PUSH0 PUSH2 0x218D PUSH1 0x13 DUP4 PUSH2 0x17FC JUMP JUMPDEST SWAP2 POP PUSH2 0x2198 DUP3 PUSH2 0x2159 JUMP JUMPDEST PUSH1 0x20 DUP3 ADD SWAP1 POP SWAP2 SWAP1 POP JUMP JUMPDEST PUSH0 PUSH1 0x20 DUP3 ADD SWAP1 POP DUP2 DUP2 SUB PUSH0 DUP4 ADD MSTORE PUSH2 0x21BA DUP2 PUSH2 0x2181 JUMP JUMPDEST SWAP1 POP SWAP2 SWAP1 POP JUMP JUMPDEST PUSH32 0x4E487B7100000000000000000000000000000000000000000000000000000000 PUSH0 MSTORE PUSH1 0x11 PUSH1 0x4 MSTORE PUSH1 0x24 PUSH0 REVERT JUMPDEST PUSH0 PUSH2 0xFFFF DUP3 AND SWAP1 POP SWAP2 SWAP1 POP JUMP JUMPDEST PUSH0 PUSH2 0x2205 DUP3 PUSH2 0x21EE JUMP JUMPDEST SWAP2 POP PUSH2 0xFFFF DUP3 SUB PUSH2 0x2219 JUMPI PUSH2 0x2218 PUSH2 0x21C1 JUMP JUMPDEST JUMPDEST PUSH1 0x1 DUP3 ADD SWAP1 POP SWAP2 SWAP1 POP JUMP JUMPDEST PUSH32 0x4E6F207772697465206163636573730000000000000000000000000000000000 PUSH0 DUP3 ADD MSTORE POP JUMP JUMPDEST PUSH0 PUSH2 0x2258 PUSH1 0xF DUP4 PUSH2 0x17FC JUMP JUMPDEST SWAP2 POP PUSH2 0x2263 DUP3 PUSH2 0x2224 JUMP JUMPDEST PUSH1 0x20 DUP3 ADD SWAP1 POP SWAP2 SWAP1 POP JUMP JUMPDEST PUSH0 PUSH1 0x20 DUP3 ADD SWAP1 POP DUP2 DUP2 SUB PUSH0 DUP4 ADD MSTORE PUSH2 0x2285 DUP2 PUSH2 0x224C JUMP JUMPDEST SWAP1 POP SWAP2 SWAP1 POP JUMP JUMPDEST PUSH0 DUP2 SLOAD PUSH2 0x2298 DUP2 PUSH2 0x1D1A JUMP JUMPDEST PUSH2 0x22A2 DUP2 DUP7 PUSH2 0x1B65 JUMP JUMPDEST SWAP5 POP PUSH1 0x1 DUP3 AND PUSH0 DUP2 EQ PUSH2 0x22BC JUMPI PUSH1 0x1 DUP2 EQ PUSH2 0x22D1 JUMPI PUSH2 0x2303 JUMP JUMPDEST PUSH1 0xFF NOT DUP4 AND DUP7 MSTORE DUP2 ISZERO ISZERO DUP3 MUL DUP7 ADD SWAP4 POP PUSH2 0x2303 JUMP JUMPDEST PUSH2 0x22DA DUP6 PUSH2 0x1D4A JUMP JUMPDEST PUSH0 JUMPDEST DUP4 DUP2 LT ISZERO PUSH2 0x22FB JUMPI DUP2 SLOAD DUP2 DUP10 ADD MSTORE PUSH1 0x1 DUP3 ADD SWAP2 POP PUSH1 0x20 DUP2 ADD SWAP1 POP PUSH2 0x22DC JUMP JUMPDEST DUP4 DUP9 ADD SWAP6 POP POP POP JUMPDEST POP POP POP SWAP3 SWAP2 POP POP JUMP JUMPDEST PUSH0 PUSH2 0x2317 DUP3 DUP5 PUSH2 0x228C JUMP JUMPDEST SWAP2 POP DUP2 SWAP1 POP SWAP3 SWAP2 POP POP JUMP JUMPDEST PUSH0 PUSH2 0x232C DUP3 PUSH2 0x1DC8 JUMP JUMPDEST SWAP2 POP PUSH2 0x2337 DUP4 PUSH2 0x1DC8 JUMP JUMPDEST SWAP3 POP DUP3 DUP3 SUB SWAP1 POP DUP2 DUP2 GT ISZERO PUSH2 0x234F JUMPI PUSH2 0x234E PUSH2 0x21C1 JUMP JUMPDEST JUMPDEST SWAP3 SWAP2 POP POP JUMP JUMPDEST PUSH0 DUP2 SLOAD SWAP1 POP PUSH2 0x2363 DUP2 PUSH2 0x1D1A JUMP JUMPDEST SWAP1 POP SWAP2 SWAP1 POP JUMP JUMPDEST PUSH0 DUP2 SWAP1 POP DUP2 PUSH0 MSTORE PUSH1 0x20 PUSH0 KECCAK256 SWAP1 POP SWAP2 SWAP1 POP JUMP JUMPDEST DUP2 DUP2 SUB PUSH2 0x238A JUMPI POP POP PUSH2 0x245F JUMP JUMPDEST PUSH2 0x2393 DUP3 PUSH2 0x2355 JUMP JUMPDEST PUSH8 0xFFFFFFFFFFFFFFFF DUP2 GT ISZERO PUSH2 0x23AC JUMPI PUSH2 0x23AB PUSH2 0x1611 JUMP JUMPDEST JUMPDEST PUSH2 0x23B6 DUP3 SLOAD PUSH2 0x1D1A JUMP JUMPDEST PUSH2 0x23C1 DUP3 DUP3 DUP6 PUSH2 0x1E67 JUMP JUMPDEST PUSH0 PUSH1 0x1F DUP4 GT PUSH1 0x1 DUP2 EQ PUSH2 0x23EE JUMPI PUSH0 DUP5 ISZERO PUSH2 0x23DC JUMPI DUP3 DUP8 ADD SLOAD SWAP1 POP JUMPDEST PUSH2 0x23E6 DUP6 DUP3 PUSH2 0x1ED5 JUMP JUMPDEST DUP7 SSTORE POP PUSH2 0x2458 JUMP JUMPDEST PUSH1 0x1F NOT DUP5 AND PUSH2 0x23FC DUP8 PUSH2 0x236A JUMP JUMPDEST SWAP7 POP PUSH2 0x2407 DUP7 PUSH2 0x1D4A JUMP JUMPDEST PUSH0 JUMPDEST DUP3 DUP2 LT ISZERO PUSH2 0x242E JUMPI DUP5 DUP10 ADD SLOAD DUP3 SSTORE PUSH1 0x1 DUP3 ADD SWAP2 POP PUSH1 0x1 DUP6 ADD SWAP5 POP PUSH1 0x20 DUP2 ADD SWAP1 POP PUSH2 0x2409 JUMP JUMPDEST DUP7 DUP4 LT ISZERO PUSH2 0x244B JUMPI DUP5 DUP10 ADD SLOAD PUSH2 0x2447 PUSH1 0x1F DUP10 AND DUP3 PUSH2 0x1EB9 JUMP JUMPDEST DUP4 SSTORE POP JUMPDEST PUSH1 0x1 PUSH1 0x2 DUP9 MUL ADD DUP9 SSTORE POP POP POP JUMPDEST POP POP POP POP POP POP JUMPDEST JUMP JUMPDEST PUSH32 0x4E487B7100000000000000000000000000000000000000000000000000000000 PUSH0 MSTORE PUSH1 0x31 PUSH1 0x4 MSTORE PUSH1 0x24 PUSH0 REVERT JUMPDEST PUSH0 PUSH2 0x2498 DUP3 PUSH2 0x21EE JUMP JUMPDEST SWAP2 POP PUSH0 DUP3 SUB PUSH2 0x24AA JUMPI PUSH2 0x24A9 PUSH2 0x21C1 JUMP JUMPDEST JUMPDEST PUSH1 0x1 DUP3 SUB SWAP1 POP SWAP2 SWAP1 POP JUMP JUMPDEST PUSH32 0x4E6F20617070656E642061636365737300000000000000000000000000000000 PUSH0 DUP3 ADD MSTORE POP JUMP JUMPDEST PUSH0 PUSH2 0x24E9 PUSH1 0x10 DUP4 PUSH2 0x17FC JUMP JUMPDEST SWAP2 POP PUSH2 0x24F4 DUP3 PUSH2 0x24B5 JUMP JUMPDEST PUSH1 0x20 DUP3 ADD SWAP1 POP SWAP2 SWAP1 POP JUMP JUMPDEST PUSH0 PUSH1 0x20 DUP3 ADD SWAP1 POP DUP2 DUP2 SUB PUSH0 DUP4 ADD MSTORE PUSH2 0x2516 DUP2 PUSH2 0x24DD JUMP JUMPDEST SWAP1 POP SWAP2 SWAP1 POP JUMP JUMPDEST PUSH32 0xA00000000000000000000000000000000000000000000000000000000000000 DUP2 MSTORE POP JUMP JUMPDEST PUSH0 PUSH2 0x254E DUP3 DUP6 PUSH2 0x228C JUMP JUMPDEST SWAP2 POP PUSH2 0x2559 DUP3 PUSH2 0x251D JUMP JUMPDEST PUSH1 0x1 DUP3 ADD SWAP2 POP PUSH2 0x2569 DUP3 DUP5 PUSH2 0x1B6F JUMP JUMPDEST SWAP2 POP DUP2 SWAP1 POP SWAP4 SWAP3 POP POP POP JUMP JUMPDEST PUSH32 0x496E76616C6964207065726D697373696F6E206D6F6465000000000000000000 PUSH0 DUP3 ADD MSTORE POP JUMP JUMPDEST PUSH0 PUSH2 0x25A9 PUSH1 0x17 DUP4 PUSH2 0x17FC JUMP JUMPDEST SWAP2 POP PUSH2 0x25B4 DUP3 PUSH2 0x2575 JUMP JUMPDEST PUSH1 0x20 DUP3 ADD SWAP1 POP SWAP2 SWAP1 POP JUMP JUMPDEST PUSH0 PUSH1 0x20 DUP3 ADD SWAP1 POP DUP2 DUP2 SUB PUSH0 DUP4 ADD MSTORE PUSH2 0x25D6 DUP2 PUSH2 0x259D JUMP JUMPDEST SWAP1 POP SWAP2 SWAP1 POP JUMP INVALID LOG2 PUSH5 0x6970667358 0x22 SLT KECCAK256 0xDF 0xDC 0xCB 0xBE DUP6 PUSH28 0xA99DFF9701BA3B573D5250237881A8926E808A7147530A8E692B6473 PUSH16 0x6C634300081A00330000000000000000 "
				},
				"gasEstimates": {
					"creation": {
						"codeDepositCost": "1949400",
						"executionCost": "26325",
						"totalCost": "1975725"
					},
					"external": {
						"appendToFile(string,string)": "infinite",
						"changeFilePermission(string,address,uint8)": "infinite",
						"createFile(string,string)": "infinite",
						"deleteFile(string)": "infinite",
						"files(string)": "infinite",
						"listFiles()": "infinite",
						"readFile(string)": "infinite",
						"renameFile(string,string)": "infinite",
						"viewFilePermission(string,address)": "infinite",
						"writeFile(string,string)": "infinite"
					}
				},
				"methodIdentifiers": {
					"appendToFile(string,string)": "b6b13caa",
					"changeFilePermission(string,address,uint8)": "eceed653",
					"createFile(string,string)": "81ad193a",
					"deleteFile(string)": "a9910054",
					"files(string)": "e7755761",
					"listFiles()": "b033d8fa",
					"readFile(string)": "60f9bb11",
					"renameFile(string,string)": "13d4a044",
					"viewFilePermission(string,address)": "7d41216d",
					"writeFile(string,string)": "897e0a97"
				}
			},
			"storageLayout": {
				"storage": [
					{
						"astId": 20,
						"contract": "contracts/FileStorage.sol:FileStorage",
						"label": "fileCount",
						"offset": 0,
						"slot": "0",
						"type": "t_uint16"
					},
					{
						"astId": 25,
						"contract": "contracts/FileStorage.sol:FileStorage",
						"label": "files",
						"offset": 0,
						"slot": "1",
						"type": "t_mapping(t_string_memory_ptr,t_struct(File)17_storage)"
					},
					{
						"astId": 28,
						"contract": "contracts/FileStorage.sol:FileStorage",
						"label": "fileList",
						"offset": 0,
						"slot": "2",
						"type": "t_array(t_string_storage)dyn_storage"
					}
				],
				"types": {
					"t_address": {
						"encoding": "inplace",
						"label": "address",
						"numberOfBytes": "20"
					},
					"t_array(t_string_storage)dyn_storage": {
						"base": "t_string_storage",
						"encoding": "dynamic_array",
						"label": "string[]",
						"numberOfBytes": "32"
					},
					"t_bool": {
						"encoding": "inplace",
						"label": "bool",
						"numberOfBytes": "1"
					},
					"t_mapping(t_address,t_uint8)": {
						"encoding": "mapping",
						"key": "t_address",
						"label": "mapping(address => uint8)",
						"numberOfBytes": "32",
						"value": "t_uint8"
					},
					"t_mapping(t_string_memory_ptr,t_struct(File)17_storage)": {
						"encoding": "mapping",
						"key": "t_string_memory_ptr",
						"label": "mapping(string => struct FileStorage.File)",
						"numberOfBytes": "32",
						"value": "t_struct(File)17_storage"
					},
					"t_string_memory_ptr": {
						"encoding": "bytes",
						"label": "string",
						"numberOfBytes": "32"
					},
					"t_string_storage": {
						"encoding": "bytes",
						"label": "string",
						"numberOfBytes": "32"
					},
					"t_struct(File)17_storage": {
						"encoding": "inplace",
						"label": "struct FileStorage.File",
						"members": [
							{
								"astId": 6,
								"contract": "contracts/FileStorage.sol:FileStorage",
								"label": "filename",
								"offset": 0,
								"slot": "0",
								"type": "t_string_storage"
							},
							{
								"astId": 8,
								"contract": "contracts/FileStorage.sol:FileStorage",
								"label": "content",
								"offset": 0,
								"slot": "1",
								"type": "t_string_storage"
							},
							{
								"astId": 10,
								"contract": "contracts/FileStorage.sol:FileStorage",
								"label": "exists",
								"offset": 0,
								"slot": "2",
								"type": "t_bool"
							},
							{
								"astId": 12,
								"contract": "contracts/FileStorage.sol:FileStorage",
								"label": "fileOwner",
								"offset": 1,
								"slot": "2",
								"type": "t_address"
							},
							{
								"astId": 16,
								"contract": "contracts/FileStorage.sol:FileStorage",
								"label": "mode",
								"offset": 0,
								"slot": "3",
								"type": "t_mapping(t_address,t_uint8)"
							}
						],
						"numberOfBytes": "128"
					},
					"t_uint16": {
						"encoding": "inplace",
						"label": "uint16",
						"numberOfBytes": "2"
					},
					"t_uint8": {
						"encoding": "inplace",
						"label": "uint8",
						"numberOfBytes": "1"
					}
				}
			},
			"userdoc": {
				"kind": "user",
				"methods": {},
				"version": 1
			}
		}
	}
}