{
	"contracts/UserSystem.sol": {
		"UserSystem": {
			"abi": [
				{
					"inputs": [
						{
							"internalType": "string",
							"name": "_ownerName",
							"type": "string"
						}
					],
					"stateMutability": "nonpayable",
					"type": "constructor"
				},
				{
					"anonymous": false,
					"inputs": [
						{
							"indexed": true,
							"internalType": "address",
							"name": "_addr",
							"type": "address"
						}
					],
					"name": "UserAdded",
					"type": "event"
				},
				{
					"inputs": [
						{
							"internalType": "string",
							"name": "_name",
							"type": "string"
						}
					],
					"name": "changeSelfUsername",
					"outputs": [],
					"stateMutability": "nonpayable",
					"type": "function"
				},
				{
					"inputs": [],
					"name": "numOfUsers",
					"outputs": [
						{
							"internalType": "uint256",
							"name": "",
							"type": "uint256"
						}
					],
					"stateMutability": "view",
					"type": "function"
				},
				{
					"inputs": [],
					"name": "viewDriveOwner",
					"outputs": [
						{
							"internalType": "address",
							"name": "",
							"type": "address"
						}
					],
					"stateMutability": "view",
					"type": "function"
				},
				{
					"inputs": [
						{
							"internalType": "address",
							"name": "_addr",
							"type": "address"
						}
					],
					"name": "viewUsername",
					"outputs": [
						{
							"internalType": "string",
							"name": "",
							"type": "string"
						}
					],
					"stateMutability": "view",
					"type": "function"
				},
				{
					"inputs": [],
					"name": "viewWhitelist",
					"outputs": [
						{
							"internalType": "address[]",
							"name": "",
							"type": "address[]"
						}
					],
					"stateMutability": "view",
					"type": "function"
				},
				{
					"inputs": [
						{
							"internalType": "address",
							"name": "_addr",
							"type": "address"
						}
					],
					"name": "whitelistUser",
					"outputs": [],
					"stateMutability": "nonpayable",
					"type": "function"
				}
			],
			"devdoc": {
				"kind": "dev",
				"methods": {},
				"version": 1
			},
			"evm": {
				"assembly": "    /* \"contracts/UserSystem.sol\":129:2595  contract UserSystem {... */\n  mstore(0x40, 0x80)\n    /* \"contracts/UserSystem.sol\":571:937  constructor(string memory _ownerName) {... */\n  callvalue\n  dup1\n  iszero\n  tag_1\n  jumpi\n  0x00\n  dup1\n  revert\ntag_1:\n  pop\n  mload(0x40)\n  sub(codesize, bytecodeSize)\n  dup1\n  bytecodeSize\n  dup4\n  codecopy\n  dup2\n  dup2\n  add\n  0x40\n  mstore\n  dup2\n  add\n  swap1\n  tag_2\n  swap2\n  swap1\n  tag_3\n  jump\t// in\ntag_2:\n    /* \"contracts/UserSystem.sol\":638:648  msg.sender */\n  caller\n    /* \"contracts/UserSystem.sol\":620:630  driveOwner */\n  0x00\n    /* \"contracts/UserSystem.sol\":620:635  driveOwner.addr */\n  dup1\n  add\n  0x00\n    /* \"contracts/UserSystem.sol\":620:648  driveOwner.addr = msg.sender */\n  0x0100\n  exp\n  dup2\n  sload\n  dup2\n  0xffffffffffffffffffffffffffffffffffffffff\n  mul\n  not\n  and\n  swap1\n  dup4\n  0xffffffffffffffffffffffffffffffffffffffff\n  and\n  mul\n  or\n  swap1\n  sstore\n  pop\n    /* \"contracts/UserSystem.sol\":675:676  0 */\n  0x00\n    /* \"contracts/UserSystem.sol\":659:669  driveOwner */\n  dup1\n    /* \"contracts/UserSystem.sol\":659:672  driveOwner.id */\n  0x01\n  add\n    /* \"contracts/UserSystem.sol\":659:676  driveOwner.id = 0 */\n  dup2\n  swap1\n  sstore\n  pop\n    /* \"contracts/UserSystem.sol\":705:715  _ownerName */\n  dup1\n    /* \"contracts/UserSystem.sol\":687:697  driveOwner */\n  0x00\n    /* \"contracts/UserSystem.sol\":687:702  driveOwner.name */\n  0x02\n  add\n    /* \"contracts/UserSystem.sol\":687:715  driveOwner.name = _ownerName */\n  swap1\n  dup2\n  tag_6\n  swap2\n  swap1\n  tag_7\n  jump\t// in\ntag_6:\n  pop\n    /* \"contracts/UserSystem.sol\":748:758  driveOwner */\n  0x00\n    /* \"contracts/UserSystem.sol\":728:733  users */\n  0x04\n    /* \"contracts/UserSystem.sol\":728:745  users[msg.sender] */\n  0x00\n    /* \"contracts/UserSystem.sol\":734:744  msg.sender */\n  caller\n    /* \"contracts/UserSystem.sol\":728:745  users[msg.sender] */\n  0xffffffffffffffffffffffffffffffffffffffff\n  and\n  0xffffffffffffffffffffffffffffffffffffffff\n  and\n  dup2\n  mstore\n  0x20\n  add\n  swap1\n  dup2\n  mstore\n  0x20\n  add\n  0x00\n  keccak256\n    /* \"contracts/UserSystem.sol\":728:758  users[msg.sender] = driveOwner */\n  0x00\n  dup3\n  add\n  0x00\n  swap1\n  sload\n  swap1\n  0x0100\n  exp\n  swap1\n  div\n  0xffffffffffffffffffffffffffffffffffffffff\n  and\n  dup2\n  0x00\n  add\n  exp(0x0100, 0x00)\n  dup2\n  sload\n  dup2\n  0xffffffffffffffffffffffffffffffffffffffff\n  mul\n  not\n  and\n  swap1\n  dup4\n  0xffffffffffffffffffffffffffffffffffffffff\n  and\n  mul\n  or\n  swap1\n  sstore\n  pop\n  0x01\n  dup3\n  add\n  sload\n  dup2\n  0x01\n  add\n  sstore\n  0x02\n  dup3\n  add\n  dup2\n  0x02\n  add\n  swap1\n  dup2\n  tag_8\n  swap2\n  swap1\n  tag_9\n  jump\t// in\ntag_8:\n  pop\n  swap1\n  pop\n  pop\n    /* \"contracts/UserSystem.sol\":798:802  true */\n  0x01\n    /* \"contracts/UserSystem.sol\":769:778  whitelist */\n  0x05\n    /* \"contracts/UserSystem.sol\":769:795  whitelist[driveOwner.addr] */\n  0x00\n    /* \"contracts/UserSystem.sol\":779:789  driveOwner */\n  dup1\n    /* \"contracts/UserSystem.sol\":779:794  driveOwner.addr */\n  0x00\n  add\n  0x00\n  swap1\n  sload\n  swap1\n  0x0100\n  exp\n  swap1\n  div\n  0xffffffffffffffffffffffffffffffffffffffff\n  and\n    /* \"contracts/UserSystem.sol\":769:795  whitelist[driveOwner.addr] */\n  0xffffffffffffffffffffffffffffffffffffffff\n  and\n  0xffffffffffffffffffffffffffffffffffffffff\n  and\n  dup2\n  mstore\n  0x20\n  add\n  swap1\n  dup2\n  mstore\n  0x20\n  add\n  0x00\n  keccak256\n  0x00\n    /* \"contracts/UserSystem.sol\":769:802  whitelist[driveOwner.addr] = true */\n  0x0100\n  exp\n  dup2\n  sload\n  dup2\n  0xff\n  mul\n  not\n  and\n  swap1\n  dup4\n  iszero\n  iszero\n  mul\n  or\n  swap1\n  sstore\n  pop\n    /* \"contracts/UserSystem.sol\":836:846  driveOwner */\n  0x00\n    /* \"contracts/UserSystem.sol\":836:851  driveOwner.addr */\n  dup1\n  add\n  0x00\n  swap1\n  sload\n  swap1\n  0x0100\n  exp\n  swap1\n  div\n  0xffffffffffffffffffffffffffffffffffffffff\n  and\n    /* \"contracts/UserSystem.sol\":813:818  by_id */\n  0x06\n    /* \"contracts/UserSystem.sol\":813:833  by_id[driveOwner.id] */\n  0x00\n    /* \"contracts/UserSystem.sol\":819:829  driveOwner */\n  dup1\n    /* \"contracts/UserSystem.sol\":819:832  driveOwner.id */\n  0x01\n  add\n  sload\n    /* \"contracts/UserSystem.sol\":813:833  by_id[driveOwner.id] */\n  dup2\n  mstore\n  0x20\n  add\n  swap1\n  dup2\n  mstore\n  0x20\n  add\n  0x00\n  keccak256\n  0x00\n    /* \"contracts/UserSystem.sol\":813:851  by_id[driveOwner.id] = driveOwner.addr */\n  0x0100\n  exp\n  dup2\n  sload\n  dup2\n  0xffffffffffffffffffffffffffffffffffffffff\n  mul\n  not\n  and\n  swap1\n  dup4\n  0xffffffffffffffffffffffffffffffffffffffff\n  and\n  mul\n  or\n  swap1\n  sstore\n  pop\n    /* \"contracts/UserSystem.sol\":889:899  driveOwner */\n  0x00\n    /* \"contracts/UserSystem.sol\":889:904  driveOwner.addr */\n  dup1\n  add\n  0x00\n  swap1\n  sload\n  swap1\n  0x0100\n  exp\n  swap1\n  div\n  0xffffffffffffffffffffffffffffffffffffffff\n  and\n    /* \"contracts/UserSystem.sol\":862:869  by_name */\n  0x07\n    /* \"contracts/UserSystem.sol\":870:880  driveOwner */\n  0x00\n    /* \"contracts/UserSystem.sol\":870:885  driveOwner.name */\n  0x02\n  add\n    /* \"contracts/UserSystem.sol\":862:886  by_name[driveOwner.name] */\n  mload(0x40)\n  tag_10\n  swap2\n  swap1\n  tag_11\n  jump\t// in\ntag_10:\n  swap1\n  dup2\n  mstore\n  0x20\n  add\n  mload(0x40)\n  dup1\n  swap2\n  sub\n  swap1\n  keccak256\n  0x00\n    /* \"contracts/UserSystem.sol\":862:904  by_name[driveOwner.name] = driveOwner.addr */\n  0x0100\n  exp\n  dup2\n  sload\n  dup2\n  0xffffffffffffffffffffffffffffffffffffffff\n  mul\n  not\n  and\n  swap1\n  dup4\n  0xffffffffffffffffffffffffffffffffffffffff\n  and\n  mul\n  or\n  swap1\n  sstore\n  pop\n    /* \"contracts/UserSystem.sol\":928:929  1 */\n  0x01\n    /* \"contracts/UserSystem.sol\":915:925  numOfUsers */\n  0x08\n    /* \"contracts/UserSystem.sol\":915:929  numOfUsers = 1 */\n  dup2\n  swap1\n  sstore\n  pop\n    /* \"contracts/UserSystem.sol\":571:937  constructor(string memory _ownerName) {... */\n  pop\n    /* \"contracts/UserSystem.sol\":129:2595  contract UserSystem {... */\n  jump(tag_12)\n    /* \"#utility.yul\":7:82   */\ntag_13:\n    /* \"#utility.yul\":40:46   */\n  0x00\n    /* \"#utility.yul\":73:75   */\n  0x40\n    /* \"#utility.yul\":67:76   */\n  mload\n    /* \"#utility.yul\":57:76   */\n  swap1\n  pop\n    /* \"#utility.yul\":7:82   */\n  swap1\n  jump\t// out\n    /* \"#utility.yul\":88:205   */\ntag_14:\n    /* \"#utility.yul\":197:198   */\n  0x00\n    /* \"#utility.yul\":194:195   */\n  dup1\n    /* \"#utility.yul\":187:199   */\n  revert\n    /* \"#utility.yul\":211:328   */\ntag_15:\n    /* \"#utility.yul\":320:321   */\n  0x00\n    /* \"#utility.yul\":317:318   */\n  dup1\n    /* \"#utility.yul\":310:322   */\n  revert\n    /* \"#utility.yul\":334:451   */\ntag_16:\n    /* \"#utility.yul\":443:444   */\n  0x00\n    /* \"#utility.yul\":440:441   */\n  dup1\n    /* \"#utility.yul\":433:445   */\n  revert\n    /* \"#utility.yul\":457:574   */\ntag_17:\n    /* \"#utility.yul\":566:567   */\n  0x00\n    /* \"#utility.yul\":563:564   */\n  dup1\n    /* \"#utility.yul\":556:568   */\n  revert\n    /* \"#utility.yul\":580:682   */\ntag_18:\n    /* \"#utility.yul\":621:627   */\n  0x00\n    /* \"#utility.yul\":672:674   */\n  0x1f\n    /* \"#utility.yul\":668:675   */\n  not\n    /* \"#utility.yul\":663:665   */\n  0x1f\n    /* \"#utility.yul\":656:661   */\n  dup4\n    /* \"#utility.yul\":652:666   */\n  add\n    /* \"#utility.yul\":648:676   */\n  and\n    /* \"#utility.yul\":638:676   */\n  swap1\n  pop\n    /* \"#utility.yul\":580:682   */\n  swap2\n  swap1\n  pop\n  jump\t// out\n    /* \"#utility.yul\":688:868   */\ntag_19:\n    /* \"#utility.yul\":736:813   */\n  0x4e487b7100000000000000000000000000000000000000000000000000000000\n    /* \"#utility.yul\":733:734   */\n  0x00\n    /* \"#utility.yul\":726:814   */\n  mstore\n    /* \"#utility.yul\":833:837   */\n  0x41\n    /* \"#utility.yul\":830:831   */\n  0x04\n    /* \"#utility.yul\":823:838   */\n  mstore\n    /* \"#utility.yul\":857:861   */\n  0x24\n    /* \"#utility.yul\":854:855   */\n  0x00\n    /* \"#utility.yul\":847:862   */\n  revert\n    /* \"#utility.yul\":874:1155   */\ntag_20:\n    /* \"#utility.yul\":957:984   */\n  tag_57\n    /* \"#utility.yul\":979:983   */\n  dup3\n    /* \"#utility.yul\":957:984   */\n  tag_18\n  jump\t// in\ntag_57:\n    /* \"#utility.yul\":949:955   */\n  dup2\n    /* \"#utility.yul\":945:985   */\n  add\n    /* \"#utility.yul\":1087:1093   */\n  dup2\n    /* \"#utility.yul\":1075:1085   */\n  dup2\n    /* \"#utility.yul\":1072:1094   */\n  lt\n    /* \"#utility.yul\":1051:1069   */\n  0xffffffffffffffff\n    /* \"#utility.yul\":1039:1049   */\n  dup3\n    /* \"#utility.yul\":1036:1070   */\n  gt\n    /* \"#utility.yul\":1033:1095   */\n  or\n    /* \"#utility.yul\":1030:1118   */\n  iszero\n  tag_58\n  jumpi\n    /* \"#utility.yul\":1098:1116   */\n  tag_59\n  tag_19\n  jump\t// in\ntag_59:\n    /* \"#utility.yul\":1030:1118   */\ntag_58:\n    /* \"#utility.yul\":1138:1148   */\n  dup1\n    /* \"#utility.yul\":1134:1136   */\n  0x40\n    /* \"#utility.yul\":1127:1149   */\n  mstore\n    /* \"#utility.yul\":917:1155   */\n  pop\n    /* \"#utility.yul\":874:1155   */\n  pop\n  pop\n  jump\t// out\n    /* \"#utility.yul\":1161:1290   */\ntag_21:\n    /* \"#utility.yul\":1195:1201   */\n  0x00\n    /* \"#utility.yul\":1222:1242   */\n  tag_61\n  tag_13\n  jump\t// in\ntag_61:\n    /* \"#utility.yul\":1212:1242   */\n  swap1\n  pop\n    /* \"#utility.yul\":1251:1284   */\n  tag_62\n    /* \"#utility.yul\":1279:1283   */\n  dup3\n    /* \"#utility.yul\":1271:1277   */\n  dup3\n    /* \"#utility.yul\":1251:1284   */\n  tag_20\n  jump\t// in\ntag_62:\n    /* \"#utility.yul\":1161:1290   */\n  swap2\n  swap1\n  pop\n  jump\t// out\n    /* \"#utility.yul\":1296:1604   */\ntag_22:\n    /* \"#utility.yul\":1358:1362   */\n  0x00\n    /* \"#utility.yul\":1448:1466   */\n  0xffffffffffffffff\n    /* \"#utility.yul\":1440:1446   */\n  dup3\n    /* \"#utility.yul\":1437:1467   */\n  gt\n    /* \"#utility.yul\":1434:1490   */\n  iszero\n  tag_64\n  jumpi\n    /* \"#utility.yul\":1470:1488   */\n  tag_65\n  tag_19\n  jump\t// in\ntag_65:\n    /* \"#utility.yul\":1434:1490   */\ntag_64:\n    /* \"#utility.yul\":1508:1537   */\n  tag_66\n    /* \"#utility.yul\":1530:1536   */\n  dup3\n    /* \"#utility.yul\":1508:1537   */\n  tag_18\n  jump\t// in\ntag_66:\n    /* \"#utility.yul\":1500:1537   */\n  swap1\n  pop\n    /* \"#utility.yul\":1592:1596   */\n  0x20\n    /* \"#utility.yul\":1586:1590   */\n  dup2\n    /* \"#utility.yul\":1582:1597   */\n  add\n    /* \"#utility.yul\":1574:1597   */\n  swap1\n  pop\n    /* \"#utility.yul\":1296:1604   */\n  swap2\n  swap1\n  pop\n  jump\t// out\n    /* \"#utility.yul\":1610:1749   */\ntag_23:\n    /* \"#utility.yul\":1699:1705   */\n  dup3\n    /* \"#utility.yul\":1694:1697   */\n  dup2\n    /* \"#utility.yul\":1689:1692   */\n  dup4\n    /* \"#utility.yul\":1683:1706   */\n  mcopy\n    /* \"#utility.yul\":1740:1741   */\n  0x00\n    /* \"#utility.yul\":1731:1737   */\n  dup4\n    /* \"#utility.yul\":1726:1729   */\n  dup4\n    /* \"#utility.yul\":1722:1738   */\n  add\n    /* \"#utility.yul\":1715:1742   */\n  mstore\n    /* \"#utility.yul\":1610:1749   */\n  pop\n  pop\n  pop\n  jump\t// out\n    /* \"#utility.yul\":1755:2189   */\ntag_24:\n    /* \"#utility.yul\":1844:1849   */\n  0x00\n    /* \"#utility.yul\":1869:1935   */\n  tag_69\n    /* \"#utility.yul\":1885:1934   */\n  tag_70\n    /* \"#utility.yul\":1927:1933   */\n  dup5\n    /* \"#utility.yul\":1885:1934   */\n  tag_22\n  jump\t// in\ntag_70:\n    /* \"#utility.yul\":1869:1935   */\n  tag_21\n  jump\t// in\ntag_69:\n    /* \"#utility.yul\":1860:1935   */\n  swap1\n  pop\n    /* \"#utility.yul\":1958:1964   */\n  dup3\n    /* \"#utility.yul\":1951:1956   */\n  dup2\n    /* \"#utility.yul\":1944:1965   */\n  mstore\n    /* \"#utility.yul\":1996:2000   */\n  0x20\n    /* \"#utility.yul\":1989:1994   */\n  dup2\n    /* \"#utility.yul\":1985:2001   */\n  add\n    /* \"#utility.yul\":2034:2037   */\n  dup5\n    /* \"#utility.yul\":2025:2031   */\n  dup5\n    /* \"#utility.yul\":2020:2023   */\n  dup5\n    /* \"#utility.yul\":2016:2032   */\n  add\n    /* \"#utility.yul\":2013:2038   */\n  gt\n    /* \"#utility.yul\":2010:2122   */\n  iszero\n  tag_71\n  jumpi\n    /* \"#utility.yul\":2041:2120   */\n  tag_72\n  tag_17\n  jump\t// in\ntag_72:\n    /* \"#utility.yul\":2010:2122   */\ntag_71:\n    /* \"#utility.yul\":2131:2183   */\n  tag_73\n    /* \"#utility.yul\":2176:2182   */\n  dup5\n    /* \"#utility.yul\":2171:2174   */\n  dup3\n    /* \"#utility.yul\":2166:2169   */\n  dup6\n    /* \"#utility.yul\":2131:2183   */\n  tag_23\n  jump\t// in\ntag_73:\n    /* \"#utility.yul\":1850:2189   */\n  pop\n    /* \"#utility.yul\":1755:2189   */\n  swap4\n  swap3\n  pop\n  pop\n  pop\n  jump\t// out\n    /* \"#utility.yul\":2209:2564   */\ntag_25:\n    /* \"#utility.yul\":2276:2281   */\n  0x00\n    /* \"#utility.yul\":2325:2328   */\n  dup3\n    /* \"#utility.yul\":2318:2322   */\n  0x1f\n    /* \"#utility.yul\":2310:2316   */\n  dup4\n    /* \"#utility.yul\":2306:2323   */\n  add\n    /* \"#utility.yul\":2302:2329   */\n  slt\n    /* \"#utility.yul\":2292:2414   */\n  tag_75\n  jumpi\n    /* \"#utility.yul\":2333:2412   */\n  tag_76\n  tag_16\n  jump\t// in\ntag_76:\n    /* \"#utility.yul\":2292:2414   */\ntag_75:\n    /* \"#utility.yul\":2443:2449   */\n  dup2\n    /* \"#utility.yul\":2437:2450   */\n  mload\n    /* \"#utility.yul\":2468:2558   */\n  tag_77\n    /* \"#utility.yul\":2554:2557   */\n  dup5\n    /* \"#utility.yul\":2546:2552   */\n  dup3\n    /* \"#utility.yul\":2539:2543   */\n  0x20\n    /* \"#utility.yul\":2531:2537   */\n  dup7\n    /* \"#utility.yul\":2527:2544   */\n  add\n    /* \"#utility.yul\":2468:2558   */\n  tag_24\n  jump\t// in\ntag_77:\n    /* \"#utility.yul\":2459:2558   */\n  swap2\n  pop\n    /* \"#utility.yul\":2282:2564   */\n  pop\n    /* \"#utility.yul\":2209:2564   */\n  swap3\n  swap2\n  pop\n  pop\n  jump\t// out\n    /* \"#utility.yul\":2570:3094   */\ntag_3:\n    /* \"#utility.yul\":2650:2656   */\n  0x00\n    /* \"#utility.yul\":2699:2701   */\n  0x20\n    /* \"#utility.yul\":2687:2696   */\n  dup3\n    /* \"#utility.yul\":2678:2685   */\n  dup5\n    /* \"#utility.yul\":2674:2697   */\n  sub\n    /* \"#utility.yul\":2670:2702   */\n  slt\n    /* \"#utility.yul\":2667:2786   */\n  iszero\n  tag_79\n  jumpi\n    /* \"#utility.yul\":2705:2784   */\n  tag_80\n  tag_14\n  jump\t// in\ntag_80:\n    /* \"#utility.yul\":2667:2786   */\ntag_79:\n    /* \"#utility.yul\":2846:2847   */\n  0x00\n    /* \"#utility.yul\":2835:2844   */\n  dup3\n    /* \"#utility.yul\":2831:2848   */\n  add\n    /* \"#utility.yul\":2825:2849   */\n  mload\n    /* \"#utility.yul\":2876:2894   */\n  0xffffffffffffffff\n    /* \"#utility.yul\":2868:2874   */\n  dup2\n    /* \"#utility.yul\":2865:2895   */\n  gt\n    /* \"#utility.yul\":2862:2979   */\n  iszero\n  tag_81\n  jumpi\n    /* \"#utility.yul\":2898:2977   */\n  tag_82\n  tag_15\n  jump\t// in\ntag_82:\n    /* \"#utility.yul\":2862:2979   */\ntag_81:\n    /* \"#utility.yul\":3003:3077   */\n  tag_83\n    /* \"#utility.yul\":3069:3076   */\n  dup5\n    /* \"#utility.yul\":3060:3066   */\n  dup3\n    /* \"#utility.yul\":3049:3058   */\n  dup6\n    /* \"#utility.yul\":3045:3067   */\n  add\n    /* \"#utility.yul\":3003:3077   */\n  tag_25\n  jump\t// in\ntag_83:\n    /* \"#utility.yul\":2993:3077   */\n  swap2\n  pop\n    /* \"#utility.yul\":2796:3087   */\n  pop\n    /* \"#utility.yul\":2570:3094   */\n  swap3\n  swap2\n  pop\n  pop\n  jump\t// out\n    /* \"#utility.yul\":3100:3199   */\ntag_26:\n    /* \"#utility.yul\":3152:3158   */\n  0x00\n    /* \"#utility.yul\":3186:3191   */\n  dup2\n    /* \"#utility.yul\":3180:3192   */\n  mload\n    /* \"#utility.yul\":3170:3192   */\n  swap1\n  pop\n    /* \"#utility.yul\":3100:3199   */\n  swap2\n  swap1\n  pop\n  jump\t// out\n    /* \"#utility.yul\":3205:3385   */\ntag_27:\n    /* \"#utility.yul\":3253:3330   */\n  0x4e487b7100000000000000000000000000000000000000000000000000000000\n    /* \"#utility.yul\":3250:3251   */\n  0x00\n    /* \"#utility.yul\":3243:3331   */\n  mstore\n    /* \"#utility.yul\":3350:3354   */\n  0x22\n    /* \"#utility.yul\":3347:3348   */\n  0x04\n    /* \"#utility.yul\":3340:3355   */\n  mstore\n    /* \"#utility.yul\":3374:3378   */\n  0x24\n    /* \"#utility.yul\":3371:3372   */\n  0x00\n    /* \"#utility.yul\":3364:3379   */\n  revert\n    /* \"#utility.yul\":3391:3711   */\ntag_28:\n    /* \"#utility.yul\":3435:3441   */\n  0x00\n    /* \"#utility.yul\":3472:3473   */\n  0x02\n    /* \"#utility.yul\":3466:3470   */\n  dup3\n    /* \"#utility.yul\":3462:3474   */\n  div\n    /* \"#utility.yul\":3452:3474   */\n  swap1\n  pop\n    /* \"#utility.yul\":3519:3520   */\n  0x01\n    /* \"#utility.yul\":3513:3517   */\n  dup3\n    /* \"#utility.yul\":3509:3521   */\n  and\n    /* \"#utility.yul\":3540:3558   */\n  dup1\n    /* \"#utility.yul\":3530:3611   */\n  tag_87\n  jumpi\n    /* \"#utility.yul\":3596:3600   */\n  0x7f\n    /* \"#utility.yul\":3588:3594   */\n  dup3\n    /* \"#utility.yul\":3584:3601   */\n  and\n    /* \"#utility.yul\":3574:3601   */\n  swap2\n  pop\n    /* \"#utility.yul\":3530:3611   */\ntag_87:\n    /* \"#utility.yul\":3658:3660   */\n  0x20\n    /* \"#utility.yul\":3650:3656   */\n  dup3\n    /* \"#utility.yul\":3647:3661   */\n  lt\n    /* \"#utility.yul\":3627:3645   */\n  dup2\n    /* \"#utility.yul\":3624:3662   */\n  sub\n    /* \"#utility.yul\":3621:3705   */\n  tag_88\n  jumpi\n    /* \"#utility.yul\":3677:3695   */\n  tag_89\n  tag_27\n  jump\t// in\ntag_89:\n    /* \"#utility.yul\":3621:3705   */\ntag_88:\n    /* \"#utility.yul\":3442:3711   */\n  pop\n    /* \"#utility.yul\":3391:3711   */\n  swap2\n  swap1\n  pop\n  jump\t// out\n    /* \"#utility.yul\":3717:3858   */\ntag_29:\n    /* \"#utility.yul\":3766:3770   */\n  0x00\n    /* \"#utility.yul\":3789:3792   */\n  dup2\n    /* \"#utility.yul\":3781:3792   */\n  swap1\n  pop\n    /* \"#utility.yul\":3812:3815   */\n  dup2\n    /* \"#utility.yul\":3809:3810   */\n  0x00\n    /* \"#utility.yul\":3802:3816   */\n  mstore\n    /* \"#utility.yul\":3846:3850   */\n  0x20\n    /* \"#utility.yul\":3843:3844   */\n  0x00\n    /* \"#utility.yul\":3833:3851   */\n  keccak256\n    /* \"#utility.yul\":3825:3851   */\n  swap1\n  pop\n    /* \"#utility.yul\":3717:3858   */\n  swap2\n  swap1\n  pop\n  jump\t// out\n    /* \"#utility.yul\":3864:3957   */\ntag_30:\n    /* \"#utility.yul\":3901:3907   */\n  0x00\n    /* \"#utility.yul\":3948:3950   */\n  0x20\n    /* \"#utility.yul\":3943:3945   */\n  0x1f\n    /* \"#utility.yul\":3936:3941   */\n  dup4\n    /* \"#utility.yul\":3932:3946   */\n  add\n    /* \"#utility.yul\":3928:3951   */\n  div\n    /* \"#utility.yul\":3918:3951   */\n  swap1\n  pop\n    /* \"#utility.yul\":3864:3957   */\n  swap2\n  swap1\n  pop\n  jump\t// out\n    /* \"#utility.yul\":3963:4070   */\ntag_31:\n    /* \"#utility.yul\":4007:4015   */\n  0x00\n    /* \"#utility.yul\":4057:4062   */\n  dup3\n    /* \"#utility.yul\":4051:4055   */\n  dup3\n    /* \"#utility.yul\":4047:4063   */\n  shl\n    /* \"#utility.yul\":4026:4063   */\n  swap1\n  pop\n    /* \"#utility.yul\":3963:4070   */\n  swap3\n  swap2\n  pop\n  pop\n  jump\t// out\n    /* \"#utility.yul\":4076:4469   */\ntag_32:\n    /* \"#utility.yul\":4145:4151   */\n  0x00\n    /* \"#utility.yul\":4195:4196   */\n  0x08\n    /* \"#utility.yul\":4183:4193   */\n  dup4\n    /* \"#utility.yul\":4179:4197   */\n  mul\n    /* \"#utility.yul\":4218:4315   */\n  tag_94\n    /* \"#utility.yul\":4248:4314   */\n  0xffffffffffffffffffffffffffffffffffffffffffffffffffffffffffffffff\n    /* \"#utility.yul\":4237:4246   */\n  dup3\n    /* \"#utility.yul\":4218:4315   */\n  tag_31\n  jump\t// in\ntag_94:\n    /* \"#utility.yul\":4336:4375   */\n  tag_95\n    /* \"#utility.yul\":4366:4374   */\n  dup7\n    /* \"#utility.yul\":4355:4364   */\n  dup4\n    /* \"#utility.yul\":4336:4375   */\n  tag_31\n  jump\t// in\ntag_95:\n    /* \"#utility.yul\":4324:4375   */\n  swap6\n  pop\n    /* \"#utility.yul\":4408:4412   */\n  dup1\n    /* \"#utility.yul\":4404:4413   */\n  not\n    /* \"#utility.yul\":4397:4402   */\n  dup5\n    /* \"#utility.yul\":4393:4414   */\n  and\n    /* \"#utility.yul\":4384:4414   */\n  swap4\n  pop\n    /* \"#utility.yul\":4457:4461   */\n  dup1\n    /* \"#utility.yul\":4447:4455   */\n  dup7\n    /* \"#utility.yul\":4443:4462   */\n  and\n    /* \"#utility.yul\":4436:4441   */\n  dup5\n    /* \"#utility.yul\":4433:4463   */\n  or\n    /* \"#utility.yul\":4423:4463   */\n  swap3\n  pop\n    /* \"#utility.yul\":4152:4469   */\n  pop\n  pop\n    /* \"#utility.yul\":4076:4469   */\n  swap4\n  swap3\n  pop\n  pop\n  pop\n  jump\t// out\n    /* \"#utility.yul\":4475:4552   */\ntag_33:\n    /* \"#utility.yul\":4512:4519   */\n  0x00\n    /* \"#utility.yul\":4541:4546   */\n  dup2\n    /* \"#utility.yul\":4530:4546   */\n  swap1\n  pop\n    /* \"#utility.yul\":4475:4552   */\n  swap2\n  swap1\n  pop\n  jump\t// out\n    /* \"#utility.yul\":4558:4618   */\ntag_34:\n    /* \"#utility.yul\":4586:4589   */\n  0x00\n    /* \"#utility.yul\":4607:4612   */\n  dup2\n    /* \"#utility.yul\":4600:4612   */\n  swap1\n  pop\n    /* \"#utility.yul\":4558:4618   */\n  swap2\n  swap1\n  pop\n  jump\t// out\n    /* \"#utility.yul\":4624:4766   */\ntag_35:\n    /* \"#utility.yul\":4674:4683   */\n  0x00\n    /* \"#utility.yul\":4707:4760   */\n  tag_99\n    /* \"#utility.yul\":4725:4759   */\n  tag_100\n    /* \"#utility.yul\":4734:4758   */\n  tag_101\n    /* \"#utility.yul\":4752:4757   */\n  dup5\n    /* \"#utility.yul\":4734:4758   */\n  tag_33\n  jump\t// in\ntag_101:\n    /* \"#utility.yul\":4725:4759   */\n  tag_34\n  jump\t// in\ntag_100:\n    /* \"#utility.yul\":4707:4760   */\n  tag_33\n  jump\t// in\ntag_99:\n    /* \"#utility.yul\":4694:4760   */\n  swap1\n  pop\n    /* \"#utility.yul\":4624:4766   */\n  swap2\n  swap1\n  pop\n  jump\t// out\n    /* \"#utility.yul\":4772:4847   */\ntag_36:\n    /* \"#utility.yul\":4815:4818   */\n  0x00\n    /* \"#utility.yul\":4836:4841   */\n  dup2\n    /* \"#utility.yul\":4829:4841   */\n  swap1\n  pop\n    /* \"#utility.yul\":4772:4847   */\n  swap2\n  swap1\n  pop\n  jump\t// out\n    /* \"#utility.yul\":4853:5122   */\ntag_37:\n    /* \"#utility.yul\":4963:5002   */\n  tag_104\n    /* \"#utility.yul\":4994:5001   */\n  dup4\n    /* \"#utility.yul\":4963:5002   */\n  tag_35\n  jump\t// in\ntag_104:\n    /* \"#utility.yul\":5024:5115   */\n  tag_105\n    /* \"#utility.yul\":5073:5114   */\n  tag_106\n    /* \"#utility.yul\":5097:5113   */\n  dup3\n    /* \"#utility.yul\":5073:5114   */\n  tag_36\n  jump\t// in\ntag_106:\n    /* \"#utility.yul\":5065:5071   */\n  dup5\n    /* \"#utility.yul\":5058:5062   */\n  dup5\n    /* \"#utility.yul\":5052:5063   */\n  sload\n    /* \"#utility.yul\":5024:5115   */\n  tag_32\n  jump\t// in\ntag_105:\n    /* \"#utility.yul\":5018:5022   */\n  dup3\n    /* \"#utility.yul\":5011:5116   */\n  sstore\n    /* \"#utility.yul\":4929:5122   */\n  pop\n    /* \"#utility.yul\":4853:5122   */\n  pop\n  pop\n  pop\n  jump\t// out\n    /* \"#utility.yul\":5128:5201   */\ntag_38:\n    /* \"#utility.yul\":5173:5176   */\n  0x00\n    /* \"#utility.yul\":5128:5201   */\n  swap1\n  jump\t// out\n    /* \"#utility.yul\":5207:5396   */\ntag_39:\n    /* \"#utility.yul\":5284:5316   */\n  tag_109\n  tag_38\n  jump\t// in\ntag_109:\n    /* \"#utility.yul\":5325:5390   */\n  tag_110\n    /* \"#utility.yul\":5383:5389   */\n  dup2\n    /* \"#utility.yul\":5375:5381   */\n  dup5\n    /* \"#utility.yul\":5369:5373   */\n  dup5\n    /* \"#utility.yul\":5325:5390   */\n  tag_37\n  jump\t// in\ntag_110:\n    /* \"#utility.yul\":5260:5396   */\n  pop\n    /* \"#utility.yul\":5207:5396   */\n  pop\n  pop\n  jump\t// out\n    /* \"#utility.yul\":5402:5588   */\ntag_40:\n    /* \"#utility.yul\":5462:5582   */\ntag_112:\n    /* \"#utility.yul\":5479:5482   */\n  dup2\n    /* \"#utility.yul\":5472:5477   */\n  dup2\n    /* \"#utility.yul\":5469:5483   */\n  lt\n    /* \"#utility.yul\":5462:5582   */\n  iszero\n  tag_114\n  jumpi\n    /* \"#utility.yul\":5533:5572   */\n  tag_115\n    /* \"#utility.yul\":5570:5571   */\n  0x00\n    /* \"#utility.yul\":5563:5568   */\n  dup3\n    /* \"#utility.yul\":5533:5572   */\n  tag_39\n  jump\t// in\ntag_115:\n    /* \"#utility.yul\":5506:5507   */\n  0x01\n    /* \"#utility.yul\":5499:5504   */\n  dup2\n    /* \"#utility.yul\":5495:5508   */\n  add\n    /* \"#utility.yul\":5486:5508   */\n  swap1\n  pop\n    /* \"#utility.yul\":5462:5582   */\n  jump(tag_112)\ntag_114:\n    /* \"#utility.yul\":5402:5588   */\n  pop\n  pop\n  jump\t// out\n    /* \"#utility.yul\":5594:6137   */\ntag_41:\n    /* \"#utility.yul\":5695:5697   */\n  0x1f\n    /* \"#utility.yul\":5690:5693   */\n  dup3\n    /* \"#utility.yul\":5687:5698   */\n  gt\n    /* \"#utility.yul\":5684:6130   */\n  iszero\n  tag_117\n  jumpi\n    /* \"#utility.yul\":5729:5767   */\n  tag_118\n    /* \"#utility.yul\":5761:5766   */\n  dup2\n    /* \"#utility.yul\":5729:5767   */\n  tag_29\n  jump\t// in\ntag_118:\n    /* \"#utility.yul\":5813:5842   */\n  tag_119\n    /* \"#utility.yul\":5831:5841   */\n  dup5\n    /* \"#utility.yul\":5813:5842   */\n  tag_30\n  jump\t// in\ntag_119:\n    /* \"#utility.yul\":5803:5811   */\n  dup2\n    /* \"#utility.yul\":5799:5843   */\n  add\n    /* \"#utility.yul\":5996:5998   */\n  0x20\n    /* \"#utility.yul\":5984:5994   */\n  dup6\n    /* \"#utility.yul\":5981:5999   */\n  lt\n    /* \"#utility.yul\":5978:6027   */\n  iszero\n  tag_120\n  jumpi\n    /* \"#utility.yul\":6017:6025   */\n  dup2\n    /* \"#utility.yul\":6002:6025   */\n  swap1\n  pop\n    /* \"#utility.yul\":5978:6027   */\ntag_120:\n    /* \"#utility.yul\":6040:6120   */\n  tag_121\n    /* \"#utility.yul\":6096:6118   */\n  tag_122\n    /* \"#utility.yul\":6114:6117   */\n  dup6\n    /* \"#utility.yul\":6096:6118   */\n  tag_30\n  jump\t// in\ntag_122:\n    /* \"#utility.yul\":6086:6094   */\n  dup4\n    /* \"#utility.yul\":6082:6119   */\n  add\n    /* \"#utility.yul\":6069:6080   */\n  dup3\n    /* \"#utility.yul\":6040:6120   */\n  tag_40\n  jump\t// in\ntag_121:\n    /* \"#utility.yul\":5699:6130   */\n  pop\n  pop\n    /* \"#utility.yul\":5684:6130   */\ntag_117:\n    /* \"#utility.yul\":5594:6137   */\n  pop\n  pop\n  pop\n  jump\t// out\n    /* \"#utility.yul\":6143:6260   */\ntag_42:\n    /* \"#utility.yul\":6197:6205   */\n  0x00\n    /* \"#utility.yul\":6247:6252   */\n  dup3\n    /* \"#utility.yul\":6241:6245   */\n  dup3\n    /* \"#utility.yul\":6237:6253   */\n  shr\n    /* \"#utility.yul\":6216:6253   */\n  swap1\n  pop\n    /* \"#utility.yul\":6143:6260   */\n  swap3\n  swap2\n  pop\n  pop\n  jump\t// out\n    /* \"#utility.yul\":6266:6435   */\ntag_43:\n    /* \"#utility.yul\":6310:6316   */\n  0x00\n    /* \"#utility.yul\":6343:6394   */\n  tag_125\n    /* \"#utility.yul\":6391:6392   */\n  0x00\n    /* \"#utility.yul\":6387:6393   */\n  not\n    /* \"#utility.yul\":6379:6384   */\n  dup5\n    /* \"#utility.yul\":6376:6377   */\n  0x08\n    /* \"#utility.yul\":6372:6385   */\n  mul\n    /* \"#utility.yul\":6343:6394   */\n  tag_42\n  jump\t// in\ntag_125:\n    /* \"#utility.yul\":6339:6395   */\n  not\n    /* \"#utility.yul\":6424:6428   */\n  dup1\n    /* \"#utility.yul\":6418:6422   */\n  dup4\n    /* \"#utility.yul\":6414:6429   */\n  and\n    /* \"#utility.yul\":6404:6429   */\n  swap2\n  pop\n    /* \"#utility.yul\":6317:6435   */\n  pop\n    /* \"#utility.yul\":6266:6435   */\n  swap3\n  swap2\n  pop\n  pop\n  jump\t// out\n    /* \"#utility.yul\":6440:6735   */\ntag_44:\n    /* \"#utility.yul\":6516:6520   */\n  0x00\n    /* \"#utility.yul\":6662:6691   */\n  tag_127\n    /* \"#utility.yul\":6687:6690   */\n  dup4\n    /* \"#utility.yul\":6681:6685   */\n  dup4\n    /* \"#utility.yul\":6662:6691   */\n  tag_43\n  jump\t// in\ntag_127:\n    /* \"#utility.yul\":6654:6691   */\n  swap2\n  pop\n    /* \"#utility.yul\":6724:6727   */\n  dup3\n    /* \"#utility.yul\":6721:6722   */\n  0x02\n    /* \"#utility.yul\":6717:6728   */\n  mul\n    /* \"#utility.yul\":6711:6715   */\n  dup3\n    /* \"#utility.yul\":6708:6729   */\n  or\n    /* \"#utility.yul\":6700:6729   */\n  swap1\n  pop\n    /* \"#utility.yul\":6440:6735   */\n  swap3\n  swap2\n  pop\n  pop\n  jump\t// out\n    /* \"#utility.yul\":6740:8135   */\ntag_7:\n    /* \"#utility.yul\":6857:6894   */\n  tag_129\n    /* \"#utility.yul\":6890:6893   */\n  dup3\n    /* \"#utility.yul\":6857:6894   */\n  tag_26\n  jump\t// in\ntag_129:\n    /* \"#utility.yul\":6959:6977   */\n  0xffffffffffffffff\n    /* \"#utility.yul\":6951:6957   */\n  dup2\n    /* \"#utility.yul\":6948:6978   */\n  gt\n    /* \"#utility.yul\":6945:7001   */\n  iszero\n  tag_130\n  jumpi\n    /* \"#utility.yul\":6981:6999   */\n  tag_131\n  tag_19\n  jump\t// in\ntag_131:\n    /* \"#utility.yul\":6945:7001   */\ntag_130:\n    /* \"#utility.yul\":7025:7063   */\n  tag_132\n    /* \"#utility.yul\":7057:7061   */\n  dup3\n    /* \"#utility.yul\":7051:7062   */\n  sload\n    /* \"#utility.yul\":7025:7063   */\n  tag_28\n  jump\t// in\ntag_132:\n    /* \"#utility.yul\":7110:7177   */\n  tag_133\n    /* \"#utility.yul\":7170:7176   */\n  dup3\n    /* \"#utility.yul\":7162:7168   */\n  dup3\n    /* \"#utility.yul\":7156:7160   */\n  dup6\n    /* \"#utility.yul\":7110:7177   */\n  tag_41\n  jump\t// in\ntag_133:\n    /* \"#utility.yul\":7204:7205   */\n  0x00\n    /* \"#utility.yul\":7228:7232   */\n  0x20\n    /* \"#utility.yul\":7215:7232   */\n  swap1\n  pop\n    /* \"#utility.yul\":7260:7262   */\n  0x1f\n    /* \"#utility.yul\":7252:7258   */\n  dup4\n    /* \"#utility.yul\":7249:7263   */\n  gt\n    /* \"#utility.yul\":7277:7278   */\n  0x01\n    /* \"#utility.yul\":7272:7890   */\n  dup2\n  eq\n  tag_135\n  jumpi\n    /* \"#utility.yul\":7934:7935   */\n  0x00\n    /* \"#utility.yul\":7951:7957   */\n  dup5\n    /* \"#utility.yul\":7948:8025   */\n  iszero\n  tag_136\n  jumpi\n    /* \"#utility.yul\":8000:8009   */\n  dup3\n    /* \"#utility.yul\":7995:7998   */\n  dup8\n    /* \"#utility.yul\":7991:8010   */\n  add\n    /* \"#utility.yul\":7985:8011   */\n  mload\n    /* \"#utility.yul\":7976:8011   */\n  swap1\n  pop\n    /* \"#utility.yul\":7948:8025   */\ntag_136:\n    /* \"#utility.yul\":8051:8118   */\n  tag_137\n    /* \"#utility.yul\":8111:8117   */\n  dup6\n    /* \"#utility.yul\":8104:8109   */\n  dup3\n    /* \"#utility.yul\":8051:8118   */\n  tag_44\n  jump\t// in\ntag_137:\n    /* \"#utility.yul\":8045:8049   */\n  dup7\n    /* \"#utility.yul\":8038:8119   */\n  sstore\n    /* \"#utility.yul\":7907:8129   */\n  pop\n    /* \"#utility.yul\":7242:8129   */\n  jump(tag_134)\n    /* \"#utility.yul\":7272:7890   */\ntag_135:\n    /* \"#utility.yul\":7324:7328   */\n  0x1f\n    /* \"#utility.yul\":7320:7329   */\n  not\n    /* \"#utility.yul\":7312:7318   */\n  dup5\n    /* \"#utility.yul\":7308:7330   */\n  and\n    /* \"#utility.yul\":7358:7395   */\n  tag_138\n    /* \"#utility.yul\":7390:7394   */\n  dup7\n    /* \"#utility.yul\":7358:7395   */\n  tag_29\n  jump\t// in\ntag_138:\n    /* \"#utility.yul\":7417:7418   */\n  0x00\n    /* \"#utility.yul\":7431:7639   */\ntag_139:\n    /* \"#utility.yul\":7445:7452   */\n  dup3\n    /* \"#utility.yul\":7442:7443   */\n  dup2\n    /* \"#utility.yul\":7439:7453   */\n  lt\n    /* \"#utility.yul\":7431:7639   */\n  iszero\n  tag_141\n  jumpi\n    /* \"#utility.yul\":7524:7533   */\n  dup5\n    /* \"#utility.yul\":7519:7522   */\n  dup10\n    /* \"#utility.yul\":7515:7534   */\n  add\n    /* \"#utility.yul\":7509:7535   */\n  mload\n    /* \"#utility.yul\":7501:7507   */\n  dup3\n    /* \"#utility.yul\":7494:7536   */\n  sstore\n    /* \"#utility.yul\":7575:7576   */\n  0x01\n    /* \"#utility.yul\":7567:7573   */\n  dup3\n    /* \"#utility.yul\":7563:7577   */\n  add\n    /* \"#utility.yul\":7553:7577   */\n  swap2\n  pop\n    /* \"#utility.yul\":7622:7624   */\n  0x20\n    /* \"#utility.yul\":7611:7620   */\n  dup6\n    /* \"#utility.yul\":7607:7625   */\n  add\n    /* \"#utility.yul\":7594:7625   */\n  swap5\n  pop\n    /* \"#utility.yul\":7468:7472   */\n  0x20\n    /* \"#utility.yul\":7465:7466   */\n  dup2\n    /* \"#utility.yul\":7461:7473   */\n  add\n    /* \"#utility.yul\":7456:7473   */\n  swap1\n  pop\n    /* \"#utility.yul\":7431:7639   */\n  jump(tag_139)\ntag_141:\n    /* \"#utility.yul\":7667:7673   */\n  dup7\n    /* \"#utility.yul\":7658:7665   */\n  dup4\n    /* \"#utility.yul\":7655:7674   */\n  lt\n    /* \"#utility.yul\":7652:7831   */\n  iszero\n  tag_142\n  jumpi\n    /* \"#utility.yul\":7725:7734   */\n  dup5\n    /* \"#utility.yul\":7720:7723   */\n  dup10\n    /* \"#utility.yul\":7716:7735   */\n  add\n    /* \"#utility.yul\":7710:7736   */\n  mload\n    /* \"#utility.yul\":7768:7816   */\n  tag_143\n    /* \"#utility.yul\":7810:7814   */\n  0x1f\n    /* \"#utility.yul\":7802:7808   */\n  dup10\n    /* \"#utility.yul\":7798:7815   */\n  and\n    /* \"#utility.yul\":7787:7796   */\n  dup3\n    /* \"#utility.yul\":7768:7816   */\n  tag_43\n  jump\t// in\ntag_143:\n    /* \"#utility.yul\":7760:7766   */\n  dup4\n    /* \"#utility.yul\":7753:7817   */\n  sstore\n    /* \"#utility.yul\":7675:7831   */\n  pop\n    /* \"#utility.yul\":7652:7831   */\ntag_142:\n    /* \"#utility.yul\":7877:7878   */\n  0x01\n    /* \"#utility.yul\":7873:7874   */\n  0x02\n    /* \"#utility.yul\":7865:7871   */\n  dup9\n    /* \"#utility.yul\":7861:7875   */\n  mul\n    /* \"#utility.yul\":7857:7879   */\n  add\n    /* \"#utility.yul\":7851:7855   */\n  dup9\n    /* \"#utility.yul\":7844:7880   */\n  sstore\n    /* \"#utility.yul\":7279:7890   */\n  pop\n  pop\n  pop\n    /* \"#utility.yul\":7242:8129   */\ntag_134:\n  pop\n    /* \"#utility.yul\":6832:8135   */\n  pop\n  pop\n  pop\n    /* \"#utility.yul\":6740:8135   */\n  pop\n  pop\n  jump\t// out\n    /* \"#utility.yul\":8141:8290   */\ntag_45:\n    /* \"#utility.yul\":8190:8196   */\n  0x00\n    /* \"#utility.yul\":8224:8229   */\n  dup2\n    /* \"#utility.yul\":8218:8230   */\n  sload\n    /* \"#utility.yul\":8208:8230   */\n  swap1\n  pop\n    /* \"#utility.yul\":8250:8283   */\n  tag_145\n    /* \"#utility.yul\":8276:8282   */\n  dup2\n    /* \"#utility.yul\":8250:8283   */\n  tag_28\n  jump\t// in\ntag_145:\n    /* \"#utility.yul\":8240:8283   */\n  swap1\n  pop\n    /* \"#utility.yul\":8141:8290   */\n  swap2\n  swap1\n  pop\n  jump\t// out\n    /* \"#utility.yul\":8296:9747   */\ntag_9:\n    /* \"#utility.yul\":8407:8410   */\n  dup2\n    /* \"#utility.yul\":8401:8405   */\n  dup2\n    /* \"#utility.yul\":8398:8411   */\n  sub\n    /* \"#utility.yul\":8395:8421   */\n  tag_147\n  jumpi\n    /* \"#utility.yul\":8414:8419   */\n  pop\n  pop\n  jump(tag_146)\n    /* \"#utility.yul\":8395:8421   */\ntag_147:\n    /* \"#utility.yul\":8445:8479   */\n  tag_148\n    /* \"#utility.yul\":8475:8478   */\n  dup3\n    /* \"#utility.yul\":8445:8479   */\n  tag_45\n  jump\t// in\ntag_148:\n    /* \"#utility.yul\":8544:8562   */\n  0xffffffffffffffff\n    /* \"#utility.yul\":8536:8542   */\n  dup2\n    /* \"#utility.yul\":8533:8563   */\n  gt\n    /* \"#utility.yul\":8530:8586   */\n  iszero\n  tag_149\n  jumpi\n    /* \"#utility.yul\":8566:8584   */\n  tag_150\n  tag_19\n  jump\t// in\ntag_150:\n    /* \"#utility.yul\":8530:8586   */\ntag_149:\n    /* \"#utility.yul\":8610:8648   */\n  tag_151\n    /* \"#utility.yul\":8642:8646   */\n  dup3\n    /* \"#utility.yul\":8636:8647   */\n  sload\n    /* \"#utility.yul\":8610:8648   */\n  tag_28\n  jump\t// in\ntag_151:\n    /* \"#utility.yul\":8695:8762   */\n  tag_152\n    /* \"#utility.yul\":8755:8761   */\n  dup3\n    /* \"#utility.yul\":8747:8753   */\n  dup3\n    /* \"#utility.yul\":8741:8745   */\n  dup6\n    /* \"#utility.yul\":8695:8762   */\n  tag_41\n  jump\t// in\ntag_152:\n    /* \"#utility.yul\":8789:8790   */\n  0x00\n    /* \"#utility.yul\":8818:8820   */\n  0x1f\n    /* \"#utility.yul\":8810:8816   */\n  dup4\n    /* \"#utility.yul\":8807:8821   */\n  gt\n    /* \"#utility.yul\":8835:8836   */\n  0x01\n    /* \"#utility.yul\":8830:9502   */\n  dup2\n  eq\n  tag_154\n  jumpi\n    /* \"#utility.yul\":9546:9547   */\n  0x00\n    /* \"#utility.yul\":9563:9569   */\n  dup5\n    /* \"#utility.yul\":9560:9637   */\n  iszero\n  tag_155\n  jumpi\n    /* \"#utility.yul\":9612:9621   */\n  dup3\n    /* \"#utility.yul\":9607:9610   */\n  dup8\n    /* \"#utility.yul\":9603:9622   */\n  add\n    /* \"#utility.yul\":9597:9623   */\n  sload\n    /* \"#utility.yul\":9588:9623   */\n  swap1\n  pop\n    /* \"#utility.yul\":9560:9637   */\ntag_155:\n    /* \"#utility.yul\":9663:9730   */\n  tag_156\n    /* \"#utility.yul\":9723:9729   */\n  dup6\n    /* \"#utility.yul\":9716:9721   */\n  dup3\n    /* \"#utility.yul\":9663:9730   */\n  tag_44\n  jump\t// in\ntag_156:\n    /* \"#utility.yul\":9657:9661   */\n  dup7\n    /* \"#utility.yul\":9650:9731   */\n  sstore\n    /* \"#utility.yul\":9519:9741   */\n  pop\n    /* \"#utility.yul\":8800:9741   */\n  jump(tag_153)\n    /* \"#utility.yul\":8830:9502   */\ntag_154:\n    /* \"#utility.yul\":8882:8886   */\n  0x1f\n    /* \"#utility.yul\":8878:8887   */\n  not\n    /* \"#utility.yul\":8870:8876   */\n  dup5\n    /* \"#utility.yul\":8866:8888   */\n  and\n    /* \"#utility.yul\":8908:8944   */\n  tag_157\n    /* \"#utility.yul\":8940:8943   */\n  dup8\n    /* \"#utility.yul\":8908:8944   */\n  tag_29\n  jump\t// in\ntag_157:\n    /* \"#utility.yul\":8901:8944   */\n  swap7\n  pop\n    /* \"#utility.yul\":8971:9008   */\n  tag_158\n    /* \"#utility.yul\":9003:9007   */\n  dup7\n    /* \"#utility.yul\":8971:9008   */\n  tag_29\n  jump\t// in\ntag_158:\n    /* \"#utility.yul\":9030:9031   */\n  0x00\n    /* \"#utility.yul\":9044:9251   */\ntag_159:\n    /* \"#utility.yul\":9058:9065   */\n  dup3\n    /* \"#utility.yul\":9055:9056   */\n  dup2\n    /* \"#utility.yul\":9052:9066   */\n  lt\n    /* \"#utility.yul\":9044:9251   */\n  iszero\n  tag_161\n  jumpi\n    /* \"#utility.yul\":9137:9146   */\n  dup5\n    /* \"#utility.yul\":9132:9135   */\n  dup10\n    /* \"#utility.yul\":9128:9147   */\n  add\n    /* \"#utility.yul\":9122:9148   */\n  sload\n    /* \"#utility.yul\":9114:9120   */\n  dup3\n    /* \"#utility.yul\":9107:9149   */\n  sstore\n    /* \"#utility.yul\":9188:9189   */\n  0x01\n    /* \"#utility.yul\":9180:9186   */\n  dup3\n    /* \"#utility.yul\":9176:9190   */\n  add\n    /* \"#utility.yul\":9166:9190   */\n  swap2\n  pop\n    /* \"#utility.yul\":9235:9236   */\n  0x01\n    /* \"#utility.yul\":9224:9233   */\n  dup6\n    /* \"#utility.yul\":9220:9237   */\n  add\n    /* \"#utility.yul\":9207:9237   */\n  swap5\n  pop\n    /* \"#utility.yul\":9081:9085   */\n  0x20\n    /* \"#utility.yul\":9078:9079   */\n  dup2\n    /* \"#utility.yul\":9074:9086   */\n  add\n    /* \"#utility.yul\":9069:9086   */\n  swap1\n  pop\n    /* \"#utility.yul\":9044:9251   */\n  jump(tag_159)\ntag_161:\n    /* \"#utility.yul\":9279:9285   */\n  dup7\n    /* \"#utility.yul\":9270:9277   */\n  dup4\n    /* \"#utility.yul\":9267:9286   */\n  lt\n    /* \"#utility.yul\":9264:9443   */\n  iszero\n  tag_162\n  jumpi\n    /* \"#utility.yul\":9337:9346   */\n  dup5\n    /* \"#utility.yul\":9332:9335   */\n  dup10\n    /* \"#utility.yul\":9328:9347   */\n  add\n    /* \"#utility.yul\":9322:9348   */\n  sload\n    /* \"#utility.yul\":9380:9428   */\n  tag_163\n    /* \"#utility.yul\":9422:9426   */\n  0x1f\n    /* \"#utility.yul\":9414:9420   */\n  dup10\n    /* \"#utility.yul\":9410:9427   */\n  and\n    /* \"#utility.yul\":9399:9408   */\n  dup3\n    /* \"#utility.yul\":9380:9428   */\n  tag_43\n  jump\t// in\ntag_163:\n    /* \"#utility.yul\":9372:9378   */\n  dup4\n    /* \"#utility.yul\":9365:9429   */\n  sstore\n    /* \"#utility.yul\":9287:9443   */\n  pop\n    /* \"#utility.yul\":9264:9443   */\ntag_162:\n    /* \"#utility.yul\":9489:9490   */\n  0x01\n    /* \"#utility.yul\":9485:9486   */\n  0x02\n    /* \"#utility.yul\":9477:9483   */\n  dup9\n    /* \"#utility.yul\":9473:9487   */\n  mul\n    /* \"#utility.yul\":9469:9491   */\n  add\n    /* \"#utility.yul\":9463:9467   */\n  dup9\n    /* \"#utility.yul\":9456:9492   */\n  sstore\n    /* \"#utility.yul\":8837:9502   */\n  pop\n  pop\n  pop\n    /* \"#utility.yul\":8800:9741   */\ntag_153:\n  pop\n    /* \"#utility.yul\":8385:9747   */\n  pop\n  pop\n  pop\n    /* \"#utility.yul\":8296:9747   */\n  pop\n  pop\ntag_146:\n  jump\t// out\n    /* \"#utility.yul\":9753:9901   */\ntag_46:\n    /* \"#utility.yul\":9855:9866   */\n  0x00\n    /* \"#utility.yul\":9892:9895   */\n  dup2\n    /* \"#utility.yul\":9877:9895   */\n  swap1\n  pop\n    /* \"#utility.yul\":9753:9901   */\n  swap3\n  swap2\n  pop\n  pop\n  jump\t// out\n    /* \"#utility.yul\":9931:10805   */\ntag_47:\n    /* \"#utility.yul\":10034:10037   */\n  0x00\n    /* \"#utility.yul\":10071:10076   */\n  dup2\n    /* \"#utility.yul\":10065:10077   */\n  sload\n    /* \"#utility.yul\":10100:10136   */\n  tag_166\n    /* \"#utility.yul\":10126:10135   */\n  dup2\n    /* \"#utility.yul\":10100:10136   */\n  tag_28\n  jump\t// in\ntag_166:\n    /* \"#utility.yul\":10152:10241   */\n  tag_167\n    /* \"#utility.yul\":10234:10240   */\n  dup2\n    /* \"#utility.yul\":10229:10232   */\n  dup7\n    /* \"#utility.yul\":10152:10241   */\n  tag_46\n  jump\t// in\ntag_167:\n    /* \"#utility.yul\":10145:10241   */\n  swap5\n  pop\n    /* \"#utility.yul\":10272:10273   */\n  0x01\n    /* \"#utility.yul\":10261:10270   */\n  dup3\n    /* \"#utility.yul\":10257:10274   */\n  and\n    /* \"#utility.yul\":10288:10289   */\n  0x00\n    /* \"#utility.yul\":10283:10449   */\n  dup2\n  eq\n  tag_169\n  jumpi\n    /* \"#utility.yul\":10463:10464   */\n  0x01\n    /* \"#utility.yul\":10458:10799   */\n  dup2\n  eq\n  tag_170\n  jumpi\n    /* \"#utility.yul\":10250:10799   */\n  jump(tag_168)\n    /* \"#utility.yul\":10283:10449   */\ntag_169:\n    /* \"#utility.yul\":10367:10371   */\n  0xff\n    /* \"#utility.yul\":10363:10372   */\n  not\n    /* \"#utility.yul\":10352:10361   */\n  dup4\n    /* \"#utility.yul\":10348:10373   */\n  and\n    /* \"#utility.yul\":10343:10346   */\n  dup7\n    /* \"#utility.yul\":10336:10374   */\n  mstore\n    /* \"#utility.yul\":10429:10435   */\n  dup2\n    /* \"#utility.yul\":10422:10436   */\n  iszero\n    /* \"#utility.yul\":10415:10437   */\n  iszero\n    /* \"#utility.yul\":10407:10413   */\n  dup3\n    /* \"#utility.yul\":10403:10438   */\n  mul\n    /* \"#utility.yul\":10398:10401   */\n  dup7\n    /* \"#utility.yul\":10394:10439   */\n  add\n    /* \"#utility.yul\":10387:10439   */\n  swap4\n  pop\n    /* \"#utility.yul\":10283:10449   */\n  jump(tag_168)\n    /* \"#utility.yul\":10458:10799   */\ntag_170:\n    /* \"#utility.yul\":10525:10563   */\n  tag_171\n    /* \"#utility.yul\":10557:10562   */\n  dup6\n    /* \"#utility.yul\":10525:10563   */\n  tag_29\n  jump\t// in\ntag_171:\n    /* \"#utility.yul\":10585:10586   */\n  0x00\n    /* \"#utility.yul\":10599:10753   */\ntag_172:\n    /* \"#utility.yul\":10613:10619   */\n  dup4\n    /* \"#utility.yul\":10610:10611   */\n  dup2\n    /* \"#utility.yul\":10607:10620   */\n  lt\n    /* \"#utility.yul\":10599:10753   */\n  iszero\n  tag_174\n  jumpi\n    /* \"#utility.yul\":10687:10694   */\n  dup2\n    /* \"#utility.yul\":10681:10695   */\n  sload\n    /* \"#utility.yul\":10677:10678   */\n  dup2\n    /* \"#utility.yul\":10672:10675   */\n  dup10\n    /* \"#utility.yul\":10668:10679   */\n  add\n    /* \"#utility.yul\":10661:10696   */\n  mstore\n    /* \"#utility.yul\":10737:10738   */\n  0x01\n    /* \"#utility.yul\":10728:10735   */\n  dup3\n    /* \"#utility.yul\":10724:10739   */\n  add\n    /* \"#utility.yul\":10713:10739   */\n  swap2\n  pop\n    /* \"#utility.yul\":10635:10639   */\n  0x20\n    /* \"#utility.yul\":10632:10633   */\n  dup2\n    /* \"#utility.yul\":10628:10640   */\n  add\n    /* \"#utility.yul\":10623:10640   */\n  swap1\n  pop\n    /* \"#utility.yul\":10599:10753   */\n  jump(tag_172)\ntag_174:\n    /* \"#utility.yul\":10782:10788   */\n  dup4\n    /* \"#utility.yul\":10777:10780   */\n  dup9\n    /* \"#utility.yul\":10773:10789   */\n  add\n    /* \"#utility.yul\":10766:10789   */\n  swap6\n  pop\n    /* \"#utility.yul\":10465:10799   */\n  pop\n  pop\n    /* \"#utility.yul\":10250:10799   */\ntag_168:\n  pop\n    /* \"#utility.yul\":10038:10805   */\n  pop\n  pop\n    /* \"#utility.yul\":9931:10805   */\n  swap3\n  swap2\n  pop\n  pop\n  jump\t// out\n    /* \"#utility.yul\":10811:11080   */\ntag_11:\n    /* \"#utility.yul\":10940:10943   */\n  0x00\n    /* \"#utility.yul\":10962:11054   */\n  tag_176\n    /* \"#utility.yul\":11050:11053   */\n  dup3\n    /* \"#utility.yul\":11041:11047   */\n  dup5\n    /* \"#utility.yul\":10962:11054   */\n  tag_47\n  jump\t// in\ntag_176:\n    /* \"#utility.yul\":10955:11054   */\n  swap2\n  pop\n    /* \"#utility.yul\":11071:11074   */\n  dup2\n    /* \"#utility.yul\":11064:11074   */\n  swap1\n  pop\n    /* \"#utility.yul\":10811:11080   */\n  swap3\n  swap2\n  pop\n  pop\n  jump\t// out\n    /* \"contracts/UserSystem.sol\":129:2595  contract UserSystem {... */\ntag_12:\n  dataSize(sub_0)\n  dup1\n  dataOffset(sub_0)\n  0x00\n  codecopy\n  0x00\n  return\nstop\n\nsub_0: assembly {\n        /* \"contracts/UserSystem.sol\":129:2595  contract UserSystem {... */\n      mstore(0x40, 0x80)\n      callvalue\n      dup1\n      iszero\n      tag_1\n      jumpi\n      0x00\n      dup1\n      revert\n    tag_1:\n      pop\n      jumpi(tag_2, lt(calldatasize, 0x04))\n      shr(0xe0, calldataload(0x00))\n      dup1\n      0x0e1a1ea8\n      eq\n      tag_3\n      jumpi\n      dup1\n      0x43f7bde5\n      eq\n      tag_4\n      jumpi\n      dup1\n      0x4a4c560d\n      eq\n      tag_5\n      jumpi\n      dup1\n      0x4bcab57d\n      eq\n      tag_6\n      jumpi\n      dup1\n      0x96dbc141\n      eq\n      tag_7\n      jumpi\n      dup1\n      0xc63676ac\n      eq\n      tag_8\n      jumpi\n    tag_2:\n      0x00\n      dup1\n      revert\n        /* \"contracts/UserSystem.sol\":2100:2404  function viewWhitelist() external view returns(address[] memory) {... */\n    tag_3:\n      tag_9\n      tag_10\n      jump\t// in\n    tag_9:\n      mload(0x40)\n      tag_11\n      swap2\n      swap1\n      tag_12\n      jump\t// in\n    tag_11:\n      mload(0x40)\n      dup1\n      swap2\n      sub\n      swap1\n      return\n        /* \"contracts/UserSystem.sol\":489:511  uint public numOfUsers */\n    tag_4:\n      tag_13\n      tag_14\n      jump\t// in\n    tag_13:\n      mload(0x40)\n      tag_15\n      swap2\n      swap1\n      tag_16\n      jump\t// in\n    tag_15:\n      mload(0x40)\n      dup1\n      swap2\n      sub\n      swap1\n      return\n        /* \"contracts/UserSystem.sol\":1002:1698  function whitelistUser(address _addr) external {... */\n    tag_5:\n      tag_17\n      0x04\n      dup1\n      calldatasize\n      sub\n      dup2\n      add\n      swap1\n      tag_18\n      swap2\n      swap1\n      tag_19\n      jump\t// in\n    tag_18:\n      tag_20\n      jump\t// in\n    tag_17:\n      stop\n        /* \"contracts/UserSystem.sol\":1706:1986  function changeSelfUsername(string memory _name) external {... */\n    tag_6:\n      tag_21\n      0x04\n      dup1\n      calldatasize\n      sub\n      dup2\n      add\n      swap1\n      tag_22\n      swap2\n      swap1\n      tag_23\n      jump\t// in\n    tag_22:\n      tag_24\n      jump\t// in\n    tag_21:\n      stop\n        /* \"contracts/UserSystem.sol\":1994:2092  function viewDriveOwner() external view returns(address) {... */\n    tag_7:\n      tag_25\n      tag_26\n      jump\t// in\n    tag_25:\n      mload(0x40)\n      tag_27\n      swap2\n      swap1\n      tag_28\n      jump\t// in\n    tag_27:\n      mload(0x40)\n      dup1\n      swap2\n      sub\n      swap1\n      return\n        /* \"contracts/UserSystem.sol\":2412:2590  function viewUsername(address _addr) external view returns(string  memory) {... */\n    tag_8:\n      tag_29\n      0x04\n      dup1\n      calldatasize\n      sub\n      dup2\n      add\n      swap1\n      tag_30\n      swap2\n      swap1\n      tag_19\n      jump\t// in\n    tag_30:\n      tag_31\n      jump\t// in\n    tag_29:\n      mload(0x40)\n      tag_32\n      swap2\n      swap1\n      tag_33\n      jump\t// in\n    tag_32:\n      mload(0x40)\n      dup1\n      swap2\n      sub\n      swap1\n      return\n        /* \"contracts/UserSystem.sol\":2100:2404  function viewWhitelist() external view returns(address[] memory) {... */\n    tag_10:\n        /* \"contracts/UserSystem.sol\":2147:2163  address[] memory */\n      0x60\n        /* \"contracts/UserSystem.sol\":2176:2199  address[] memory result */\n      0x00\n        /* \"contracts/UserSystem.sol\":2216:2226  numOfUsers */\n      sload(0x08)\n        /* \"contracts/UserSystem.sol\":2202:2227  new address[](numOfUsers) */\n      0xffffffffffffffff\n      dup2\n      gt\n      iszero\n      tag_35\n      jumpi\n      tag_36\n      tag_37\n      jump\t// in\n    tag_36:\n    tag_35:\n      mload(0x40)\n      swap1\n      dup1\n      dup3\n      mstore\n      dup1\n      0x20\n      mul\n      0x20\n      add\n      dup3\n      add\n      0x40\n      mstore\n      dup1\n      iszero\n      tag_38\n      jumpi\n      dup2\n      0x20\n      add\n      0x20\n      dup3\n      mul\n      dup1\n      calldatasize\n      dup4\n      calldatacopy\n      dup1\n      dup3\n      add\n      swap2\n      pop\n      pop\n      swap1\n      pop\n    tag_38:\n      pop\n        /* \"contracts/UserSystem.sol\":2176:2227  address[] memory result = new address[](numOfUsers) */\n      swap1\n      pop\n        /* \"contracts/UserSystem.sol\":2250:2260  driveOwner */\n      0x00\n        /* \"contracts/UserSystem.sol\":2250:2265  driveOwner.addr */\n      dup1\n      add\n      0x00\n      swap1\n      sload\n      swap1\n      0x0100\n      exp\n      swap1\n      div\n      0xffffffffffffffffffffffffffffffffffffffff\n      and\n        /* \"contracts/UserSystem.sol\":2238:2244  result */\n      dup2\n        /* \"contracts/UserSystem.sol\":2245:2246  0 */\n      0x00\n        /* \"contracts/UserSystem.sol\":2238:2247  result[0] */\n      dup2\n      mload\n      dup2\n      lt\n      tag_39\n      jumpi\n      tag_40\n      tag_41\n      jump\t// in\n    tag_40:\n    tag_39:\n      0x20\n      mul\n      0x20\n      add\n      add\n        /* \"contracts/UserSystem.sol\":2238:2265  result[0] = driveOwner.addr */\n      swap1\n      0xffffffffffffffffffffffffffffffffffffffff\n      and\n      swap1\n      dup2\n      0xffffffffffffffffffffffffffffffffffffffff\n      and\n      dup2\n      mstore\n      pop\n      pop\n        /* \"contracts/UserSystem.sol\":2281:2287  uint i */\n      0x00\n        /* \"contracts/UserSystem.sol\":2290:2291  1 */\n      0x01\n        /* \"contracts/UserSystem.sol\":2281:2291  uint i = 1 */\n      swap1\n      pop\n        /* \"contracts/UserSystem.sol\":2276:2373  for (uint i = 1; i < numOfUsers; i++) {... */\n    tag_42:\n        /* \"contracts/UserSystem.sol\":2297:2307  numOfUsers */\n      sload(0x08)\n        /* \"contracts/UserSystem.sol\":2293:2294  i */\n      dup2\n        /* \"contracts/UserSystem.sol\":2293:2307  i < numOfUsers */\n      lt\n        /* \"contracts/UserSystem.sol\":2276:2373  for (uint i = 1; i < numOfUsers; i++) {... */\n      iszero\n      tag_43\n      jumpi\n        /* \"contracts/UserSystem.sol\":2341:2346  users */\n      0x04\n        /* \"contracts/UserSystem.sol\":2341:2356  users[by_id[i]] */\n      0x00\n        /* \"contracts/UserSystem.sol\":2347:2352  by_id */\n      0x06\n        /* \"contracts/UserSystem.sol\":2347:2355  by_id[i] */\n      0x00\n        /* \"contracts/UserSystem.sol\":2353:2354  i */\n      dup5\n        /* \"contracts/UserSystem.sol\":2347:2355  by_id[i] */\n      dup2\n      mstore\n      0x20\n      add\n      swap1\n      dup2\n      mstore\n      0x20\n      add\n      0x00\n      keccak256\n      0x00\n      swap1\n      sload\n      swap1\n      0x0100\n      exp\n      swap1\n      div\n      0xffffffffffffffffffffffffffffffffffffffff\n      and\n        /* \"contracts/UserSystem.sol\":2341:2356  users[by_id[i]] */\n      0xffffffffffffffffffffffffffffffffffffffff\n      and\n      0xffffffffffffffffffffffffffffffffffffffff\n      and\n      dup2\n      mstore\n      0x20\n      add\n      swap1\n      dup2\n      mstore\n      0x20\n      add\n      0x00\n      keccak256\n        /* \"contracts/UserSystem.sol\":2341:2361  users[by_id[i]].addr */\n      0x00\n      add\n      0x00\n      swap1\n      sload\n      swap1\n      0x0100\n      exp\n      swap1\n      div\n      0xffffffffffffffffffffffffffffffffffffffff\n      and\n        /* \"contracts/UserSystem.sol\":2329:2335  result */\n      dup3\n        /* \"contracts/UserSystem.sol\":2336:2337  i */\n      dup3\n        /* \"contracts/UserSystem.sol\":2329:2338  result[i] */\n      dup2\n      mload\n      dup2\n      lt\n      tag_45\n      jumpi\n      tag_46\n      tag_41\n      jump\t// in\n    tag_46:\n    tag_45:\n      0x20\n      mul\n      0x20\n      add\n      add\n        /* \"contracts/UserSystem.sol\":2329:2361  result[i] = users[by_id[i]].addr */\n      swap1\n      0xffffffffffffffffffffffffffffffffffffffff\n      and\n      swap1\n      dup2\n      0xffffffffffffffffffffffffffffffffffffffff\n      and\n      dup2\n      mstore\n      pop\n      pop\n        /* \"contracts/UserSystem.sol\":2309:2312  i++ */\n      dup1\n      dup1\n      0x01\n      add\n      swap2\n      pop\n      pop\n        /* \"contracts/UserSystem.sol\":2276:2373  for (uint i = 1; i < numOfUsers; i++) {... */\n      jump(tag_42)\n    tag_43:\n      pop\n        /* \"contracts/UserSystem.sol\":2390:2396  result */\n      dup1\n        /* \"contracts/UserSystem.sol\":2383:2396  return result */\n      swap2\n      pop\n      pop\n        /* \"contracts/UserSystem.sol\":2100:2404  function viewWhitelist() external view returns(address[] memory) {... */\n      swap1\n      jump\t// out\n        /* \"contracts/UserSystem.sol\":489:511  uint public numOfUsers */\n    tag_14:\n      sload(0x08)\n      dup2\n      jump\t// out\n        /* \"contracts/UserSystem.sol\":1002:1698  function whitelistUser(address _addr) external {... */\n    tag_20:\n        /* \"contracts/UserSystem.sol\":1082:1092  driveOwner */\n      0x00\n        /* \"contracts/UserSystem.sol\":1082:1097  driveOwner.addr */\n      dup1\n      add\n      0x00\n      swap1\n      sload\n      swap1\n      0x0100\n      exp\n      swap1\n      div\n      0xffffffffffffffffffffffffffffffffffffffff\n      and\n        /* \"contracts/UserSystem.sol\":1068:1097  msg.sender == driveOwner.addr */\n      0xffffffffffffffffffffffffffffffffffffffff\n      and\n        /* \"contracts/UserSystem.sol\":1068:1078  msg.sender */\n      caller\n        /* \"contracts/UserSystem.sol\":1068:1097  msg.sender == driveOwner.addr */\n      0xffffffffffffffffffffffffffffffffffffffff\n      and\n      eq\n        /* \"contracts/UserSystem.sol\":1060:1140  require(msg.sender == driveOwner.addr, \"Only driveOwner can whitelist the user\") */\n      tag_48\n      jumpi\n      mload(0x40)\n      0x08c379a000000000000000000000000000000000000000000000000000000000\n      dup2\n      mstore\n      0x04\n      add\n      tag_49\n      swap1\n      tag_50\n      jump\t// in\n    tag_49:\n      mload(0x40)\n      dup1\n      swap2\n      sub\n      swap1\n      revert\n    tag_48:\n        /* \"contracts/UserSystem.sol\":1160:1169  whitelist */\n      0x05\n        /* \"contracts/UserSystem.sol\":1160:1176  whitelist[_addr] */\n      0x00\n        /* \"contracts/UserSystem.sol\":1170:1175  _addr */\n      dup3\n        /* \"contracts/UserSystem.sol\":1160:1176  whitelist[_addr] */\n      0xffffffffffffffffffffffffffffffffffffffff\n      and\n      0xffffffffffffffffffffffffffffffffffffffff\n      and\n      dup2\n      mstore\n      0x20\n      add\n      swap1\n      dup2\n      mstore\n      0x20\n      add\n      0x00\n      keccak256\n      0x00\n      swap1\n      sload\n      swap1\n      0x0100\n      exp\n      swap1\n      div\n      0xff\n      and\n        /* \"contracts/UserSystem.sol\":1159:1176  !whitelist[_addr] */\n      iszero\n        /* \"contracts/UserSystem.sol\":1151:1221  require(!whitelist[_addr], \"The address has already been whitelisted\") */\n      tag_51\n      jumpi\n      mload(0x40)\n      0x08c379a000000000000000000000000000000000000000000000000000000000\n      dup2\n      mstore\n      0x04\n      add\n      tag_52\n      swap1\n      tag_53\n      jump\t// in\n    tag_52:\n      mload(0x40)\n      dup1\n      swap2\n      sub\n      swap1\n      revert\n    tag_51:\n        /* \"contracts/UserSystem.sol\":1306:1451  User({... */\n      mload(0x40)\n      dup1\n      0x60\n      add\n      0x40\n      mstore\n      dup1\n        /* \"contracts/UserSystem.sol\":1332:1337  _addr */\n      dup3\n        /* \"contracts/UserSystem.sol\":1306:1451  User({... */\n      0xffffffffffffffffffffffffffffffffffffffff\n      and\n      dup2\n      mstore\n      0x20\n      add\n        /* \"contracts/UserSystem.sol\":1356:1366  numOfUsers */\n      sload(0x08)\n        /* \"contracts/UserSystem.sol\":1306:1451  User({... */\n      dup2\n      mstore\n      0x20\n      add\n        /* \"contracts/UserSystem.sol\":1410:1438  Strings.toString(numOfUsers) */\n      tag_54\n        /* \"contracts/UserSystem.sol\":1427:1437  numOfUsers */\n      sload(0x08)\n        /* \"contracts/UserSystem.sol\":1410:1426  Strings.toString */\n      tag_55\n        /* \"contracts/UserSystem.sol\":1410:1438  Strings.toString(numOfUsers) */\n      jump\t// in\n    tag_54:\n        /* \"contracts/UserSystem.sol\":1387:1439  string.concat(\"User \", Strings.toString(numOfUsers)) */\n      add(0x20, mload(0x40))\n      tag_56\n      swap2\n      swap1\n      tag_57\n      jump\t// in\n    tag_56:\n      mload(0x40)\n      0x20\n      dup2\n      dup4\n      sub\n      sub\n      dup2\n      mstore\n      swap1\n      0x40\n      mstore\n        /* \"contracts/UserSystem.sol\":1306:1451  User({... */\n      dup2\n      mstore\n      pop\n        /* \"contracts/UserSystem.sol\":1291:1296  users */\n      0x04\n        /* \"contracts/UserSystem.sol\":1291:1303  users[_addr] */\n      0x00\n        /* \"contracts/UserSystem.sol\":1297:1302  _addr */\n      dup4\n        /* \"contracts/UserSystem.sol\":1291:1303  users[_addr] */\n      0xffffffffffffffffffffffffffffffffffffffff\n      and\n      0xffffffffffffffffffffffffffffffffffffffff\n      and\n      dup2\n      mstore\n      0x20\n      add\n      swap1\n      dup2\n      mstore\n      0x20\n      add\n      0x00\n      keccak256\n        /* \"contracts/UserSystem.sol\":1291:1451  users[_addr] = User({... */\n      0x00\n      dup3\n      add\n      mload\n      dup2\n      0x00\n      add\n      exp(0x0100, 0x00)\n      dup2\n      sload\n      dup2\n      0xffffffffffffffffffffffffffffffffffffffff\n      mul\n      not\n      and\n      swap1\n      dup4\n      0xffffffffffffffffffffffffffffffffffffffff\n      and\n      mul\n      or\n      swap1\n      sstore\n      pop\n      0x20\n      dup3\n      add\n      mload\n      dup2\n      0x01\n      add\n      sstore\n      0x40\n      dup3\n      add\n      mload\n      dup2\n      0x02\n      add\n      swap1\n      dup2\n      tag_58\n      swap2\n      swap1\n      tag_59\n      jump\t// in\n    tag_58:\n      pop\n      swap1\n      pop\n      pop\n        /* \"contracts/UserSystem.sol\":1472:1491  User memory newUser */\n      0x00\n        /* \"contracts/UserSystem.sol\":1494:1499  users */\n      0x04\n        /* \"contracts/UserSystem.sol\":1494:1506  users[_addr] */\n      0x00\n        /* \"contracts/UserSystem.sol\":1500:1505  _addr */\n      dup4\n        /* \"contracts/UserSystem.sol\":1494:1506  users[_addr] */\n      0xffffffffffffffffffffffffffffffffffffffff\n      and\n      0xffffffffffffffffffffffffffffffffffffffff\n      and\n      dup2\n      mstore\n      0x20\n      add\n      swap1\n      dup2\n      mstore\n      0x20\n      add\n      0x00\n      keccak256\n        /* \"contracts/UserSystem.sol\":1472:1506  User memory newUser = users[_addr] */\n      mload(0x40)\n      dup1\n      0x60\n      add\n      0x40\n      mstore\n      swap1\n      dup2\n      0x00\n      dup3\n      add\n      0x00\n      swap1\n      sload\n      swap1\n      0x0100\n      exp\n      swap1\n      div\n      0xffffffffffffffffffffffffffffffffffffffff\n      and\n      0xffffffffffffffffffffffffffffffffffffffff\n      and\n      0xffffffffffffffffffffffffffffffffffffffff\n      and\n      dup2\n      mstore\n      0x20\n      add\n      0x01\n      dup3\n      add\n      sload\n      dup2\n      mstore\n      0x20\n      add\n      0x02\n      dup3\n      add\n      dup1\n      sload\n      tag_60\n      swap1\n      tag_61\n      jump\t// in\n    tag_60:\n      dup1\n      0x1f\n      add\n      0x20\n      dup1\n      swap2\n      div\n      mul\n      0x20\n      add\n      mload(0x40)\n      swap1\n      dup2\n      add\n      0x40\n      mstore\n      dup1\n      swap3\n      swap2\n      swap1\n      dup2\n      dup2\n      mstore\n      0x20\n      add\n      dup3\n      dup1\n      sload\n      tag_62\n      swap1\n      tag_61\n      jump\t// in\n    tag_62:\n      dup1\n      iszero\n      tag_63\n      jumpi\n      dup1\n      0x1f\n      lt\n      tag_64\n      jumpi\n      0x0100\n      dup1\n      dup4\n      sload\n      div\n      mul\n      dup4\n      mstore\n      swap2\n      0x20\n      add\n      swap2\n      jump(tag_63)\n    tag_64:\n      dup3\n      add\n      swap2\n      swap1\n      0x00\n      mstore\n      keccak256(0x00, 0x20)\n      swap1\n    tag_65:\n      dup2\n      sload\n      dup2\n      mstore\n      swap1\n      0x01\n      add\n      swap1\n      0x20\n      add\n      dup1\n      dup4\n      gt\n      tag_65\n      jumpi\n      dup3\n      swap1\n      sub\n      0x1f\n      and\n      dup3\n      add\n      swap2\n    tag_63:\n      pop\n      pop\n      pop\n      pop\n      pop\n      dup2\n      mstore\n      pop\n      pop\n      swap1\n      pop\n        /* \"contracts/UserSystem.sol\":1536:1540  true */\n      0x01\n        /* \"contracts/UserSystem.sol\":1517:1526  whitelist */\n      0x05\n        /* \"contracts/UserSystem.sol\":1517:1533  whitelist[_addr] */\n      0x00\n        /* \"contracts/UserSystem.sol\":1527:1532  _addr */\n      dup5\n        /* \"contracts/UserSystem.sol\":1517:1533  whitelist[_addr] */\n      0xffffffffffffffffffffffffffffffffffffffff\n      and\n      0xffffffffffffffffffffffffffffffffffffffff\n      and\n      dup2\n      mstore\n      0x20\n      add\n      swap1\n      dup2\n      mstore\n      0x20\n      add\n      0x00\n      keccak256\n      0x00\n        /* \"contracts/UserSystem.sol\":1517:1540  whitelist[_addr] = true */\n      0x0100\n      exp\n      dup2\n      sload\n      dup2\n      0xff\n      mul\n      not\n      and\n      swap1\n      dup4\n      iszero\n      iszero\n      mul\n      or\n      swap1\n      sstore\n      pop\n        /* \"contracts/UserSystem.sol\":1571:1578  newUser */\n      dup1\n        /* \"contracts/UserSystem.sol\":1571:1583  newUser.addr */\n      0x00\n      add\n      mload\n        /* \"contracts/UserSystem.sol\":1551:1556  by_id */\n      0x06\n        /* \"contracts/UserSystem.sol\":1551:1568  by_id[newUser.id] */\n      0x00\n        /* \"contracts/UserSystem.sol\":1557:1564  newUser */\n      dup4\n        /* \"contracts/UserSystem.sol\":1557:1567  newUser.id */\n      0x20\n      add\n      mload\n        /* \"contracts/UserSystem.sol\":1551:1568  by_id[newUser.id] */\n      dup2\n      mstore\n      0x20\n      add\n      swap1\n      dup2\n      mstore\n      0x20\n      add\n      0x00\n      keccak256\n      0x00\n        /* \"contracts/UserSystem.sol\":1551:1583  by_id[newUser.id] = newUser.addr */\n      0x0100\n      exp\n      dup2\n      sload\n      dup2\n      0xffffffffffffffffffffffffffffffffffffffff\n      mul\n      not\n      and\n      swap1\n      dup4\n      0xffffffffffffffffffffffffffffffffffffffff\n      and\n      mul\n      or\n      swap1\n      sstore\n      pop\n        /* \"contracts/UserSystem.sol\":1618:1625  newUser */\n      dup1\n        /* \"contracts/UserSystem.sol\":1618:1630  newUser.addr */\n      0x00\n      add\n      mload\n        /* \"contracts/UserSystem.sol\":1594:1601  by_name */\n      0x07\n        /* \"contracts/UserSystem.sol\":1602:1609  newUser */\n      dup3\n        /* \"contracts/UserSystem.sol\":1602:1614  newUser.name */\n      0x40\n      add\n      mload\n        /* \"contracts/UserSystem.sol\":1594:1615  by_name[newUser.name] */\n      mload(0x40)\n      tag_66\n      swap2\n      swap1\n      tag_67\n      jump\t// in\n    tag_66:\n      swap1\n      dup2\n      mstore\n      0x20\n      add\n      mload(0x40)\n      dup1\n      swap2\n      sub\n      swap1\n      keccak256\n      0x00\n        /* \"contracts/UserSystem.sol\":1594:1630  by_name[newUser.name] = newUser.addr */\n      0x0100\n      exp\n      dup2\n      sload\n      dup2\n      0xffffffffffffffffffffffffffffffffffffffff\n      mul\n      not\n      and\n      swap1\n      dup4\n      0xffffffffffffffffffffffffffffffffffffffff\n      and\n      mul\n      or\n      swap1\n      sstore\n      pop\n        /* \"contracts/UserSystem.sol\":1655:1656  1 */\n      0x01\n        /* \"contracts/UserSystem.sol\":1641:1651  numOfUsers */\n      0x08\n      0x00\n        /* \"contracts/UserSystem.sol\":1641:1656  numOfUsers += 1 */\n      dup3\n      dup3\n      sload\n      tag_68\n      swap2\n      swap1\n      tag_69\n      jump\t// in\n    tag_68:\n      swap3\n      pop\n      pop\n      dup2\n      swap1\n      sstore\n      pop\n        /* \"contracts/UserSystem.sol\":1684:1689  _addr */\n      dup2\n        /* \"contracts/UserSystem.sol\":1674:1690  UserAdded(_addr) */\n      0xffffffffffffffffffffffffffffffffffffffff\n      and\n      0x19ef9a4877199f89440a26acb26895ec02ed86f2df1aeaa90dc18041b892f71f\n      mload(0x40)\n      mload(0x40)\n      dup1\n      swap2\n      sub\n      swap1\n      log2\n        /* \"contracts/UserSystem.sol\":1049:1698  {... */\n      pop\n        /* \"contracts/UserSystem.sol\":1002:1698  function whitelistUser(address _addr) external {... */\n      pop\n      jump\t// out\n        /* \"contracts/UserSystem.sol\":1706:1986  function changeSelfUsername(string memory _name) external {... */\n    tag_24:\n        /* \"contracts/UserSystem.sol\":1809:1810  0 */\n      0x00\n        /* \"contracts/UserSystem.sol\":1783:1811  by_name[_name] == address(0) */\n      0xffffffffffffffffffffffffffffffffffffffff\n      and\n        /* \"contracts/UserSystem.sol\":1783:1790  by_name */\n      0x07\n        /* \"contracts/UserSystem.sol\":1791:1796  _name */\n      dup3\n        /* \"contracts/UserSystem.sol\":1783:1797  by_name[_name] */\n      mload(0x40)\n      tag_71\n      swap2\n      swap1\n      tag_67\n      jump\t// in\n    tag_71:\n      swap1\n      dup2\n      mstore\n      0x20\n      add\n      mload(0x40)\n      dup1\n      swap2\n      sub\n      swap1\n      keccak256\n      0x00\n      swap1\n      sload\n      swap1\n      0x0100\n      exp\n      swap1\n      div\n      0xffffffffffffffffffffffffffffffffffffffff\n      and\n        /* \"contracts/UserSystem.sol\":1783:1811  by_name[_name] == address(0) */\n      0xffffffffffffffffffffffffffffffffffffffff\n      and\n      eq\n        /* \"contracts/UserSystem.sol\":1775:1834  require(by_name[_name] == address(0), \"Name not available\") */\n      tag_72\n      jumpi\n      mload(0x40)\n      0x08c379a000000000000000000000000000000000000000000000000000000000\n      dup2\n      mstore\n      0x04\n      add\n      tag_73\n      swap1\n      tag_74\n      jump\t// in\n    tag_73:\n      mload(0x40)\n      dup1\n      swap2\n      sub\n      swap1\n      revert\n    tag_72:\n        /* \"contracts/UserSystem.sol\":1853:1862  whitelist */\n      0x05\n        /* \"contracts/UserSystem.sol\":1853:1874  whitelist[msg.sender] */\n      0x00\n        /* \"contracts/UserSystem.sol\":1863:1873  msg.sender */\n      caller\n        /* \"contracts/UserSystem.sol\":1853:1874  whitelist[msg.sender] */\n      0xffffffffffffffffffffffffffffffffffffffff\n      and\n      0xffffffffffffffffffffffffffffffffffffffff\n      and\n      dup2\n      mstore\n      0x20\n      add\n      swap1\n      dup2\n      mstore\n      0x20\n      add\n      0x00\n      keccak256\n      0x00\n      swap1\n      sload\n      swap1\n      0x0100\n      exp\n      swap1\n      div\n      0xff\n      and\n        /* \"contracts/UserSystem.sol\":1845:1898  require(whitelist[msg.sender], \"User does not exist\") */\n      tag_75\n      jumpi\n      mload(0x40)\n      0x08c379a000000000000000000000000000000000000000000000000000000000\n      dup2\n      mstore\n      0x04\n      add\n      tag_76\n      swap1\n      tag_77\n      jump\t// in\n    tag_76:\n      mload(0x40)\n      dup1\n      swap2\n      sub\n      swap1\n      revert\n    tag_75:\n        /* \"contracts/UserSystem.sol\":1909:1928  User storage target */\n      0x00\n        /* \"contracts/UserSystem.sol\":1931:1936  users */\n      0x04\n        /* \"contracts/UserSystem.sol\":1931:1948  users[msg.sender] */\n      0x00\n        /* \"contracts/UserSystem.sol\":1937:1947  msg.sender */\n      caller\n        /* \"contracts/UserSystem.sol\":1931:1948  users[msg.sender] */\n      0xffffffffffffffffffffffffffffffffffffffff\n      and\n      0xffffffffffffffffffffffffffffffffffffffff\n      and\n      dup2\n      mstore\n      0x20\n      add\n      swap1\n      dup2\n      mstore\n      0x20\n      add\n      0x00\n      keccak256\n        /* \"contracts/UserSystem.sol\":1909:1948  User storage target = users[msg.sender] */\n      swap1\n      pop\n        /* \"contracts/UserSystem.sol\":1973:1978  _name */\n      dup2\n        /* \"contracts/UserSystem.sol\":1959:1965  target */\n      dup2\n        /* \"contracts/UserSystem.sol\":1959:1970  target.name */\n      0x02\n      add\n        /* \"contracts/UserSystem.sol\":1959:1978  target.name = _name */\n      swap1\n      dup2\n      tag_78\n      swap2\n      swap1\n      tag_59\n      jump\t// in\n    tag_78:\n      pop\n        /* \"contracts/UserSystem.sol\":1764:1986  {... */\n      pop\n        /* \"contracts/UserSystem.sol\":1706:1986  function changeSelfUsername(string memory _name) external {... */\n      pop\n      jump\t// out\n        /* \"contracts/UserSystem.sol\":1994:2092  function viewDriveOwner() external view returns(address) {... */\n    tag_26:\n        /* \"contracts/UserSystem.sol\":2042:2049  address */\n      0x00\n        /* \"contracts/UserSystem.sol\":2069:2079  driveOwner */\n      dup1\n        /* \"contracts/UserSystem.sol\":2069:2084  driveOwner.addr */\n      0x00\n      add\n      0x00\n      swap1\n      sload\n      swap1\n      0x0100\n      exp\n      swap1\n      div\n      0xffffffffffffffffffffffffffffffffffffffff\n      and\n        /* \"contracts/UserSystem.sol\":2062:2084  return driveOwner.addr */\n      swap1\n      pop\n        /* \"contracts/UserSystem.sol\":1994:2092  function viewDriveOwner() external view returns(address) {... */\n      swap1\n      jump\t// out\n        /* \"contracts/UserSystem.sol\":2412:2590  function viewUsername(address _addr) external view returns(string  memory) {... */\n    tag_31:\n        /* \"contracts/UserSystem.sol\":2471:2485  string  memory */\n      0x60\n        /* \"contracts/UserSystem.sol\":2506:2515  whitelist */\n      0x05\n        /* \"contracts/UserSystem.sol\":2506:2522  whitelist[_addr] */\n      0x00\n        /* \"contracts/UserSystem.sol\":2516:2521  _addr */\n      dup4\n        /* \"contracts/UserSystem.sol\":2506:2522  whitelist[_addr] */\n      0xffffffffffffffffffffffffffffffffffffffff\n      and\n      0xffffffffffffffffffffffffffffffffffffffff\n      and\n      dup2\n      mstore\n      0x20\n      add\n      swap1\n      dup2\n      mstore\n      0x20\n      add\n      0x00\n      keccak256\n      0x00\n      swap1\n      sload\n      swap1\n      0x0100\n      exp\n      swap1\n      div\n      0xff\n      and\n        /* \"contracts/UserSystem.sol\":2498:2547  require(whitelist[_addr], \"User not whitelisted\") */\n      tag_81\n      jumpi\n      mload(0x40)\n      0x08c379a000000000000000000000000000000000000000000000000000000000\n      dup2\n      mstore\n      0x04\n      add\n      tag_82\n      swap1\n      tag_83\n      jump\t// in\n    tag_82:\n      mload(0x40)\n      dup1\n      swap2\n      sub\n      swap1\n      revert\n    tag_81:\n        /* \"contracts/UserSystem.sol\":2565:2570  users */\n      0x04\n        /* \"contracts/UserSystem.sol\":2565:2577  users[_addr] */\n      0x00\n        /* \"contracts/UserSystem.sol\":2571:2576  _addr */\n      dup4\n        /* \"contracts/UserSystem.sol\":2565:2577  users[_addr] */\n      0xffffffffffffffffffffffffffffffffffffffff\n      and\n      0xffffffffffffffffffffffffffffffffffffffff\n      and\n      dup2\n      mstore\n      0x20\n      add\n      swap1\n      dup2\n      mstore\n      0x20\n      add\n      0x00\n      keccak256\n        /* \"contracts/UserSystem.sol\":2565:2582  users[_addr].name */\n      0x02\n      add\n        /* \"contracts/UserSystem.sol\":2558:2582  return users[_addr].name */\n      dup1\n      sload\n      tag_84\n      swap1\n      tag_61\n      jump\t// in\n    tag_84:\n      dup1\n      0x1f\n      add\n      0x20\n      dup1\n      swap2\n      div\n      mul\n      0x20\n      add\n      mload(0x40)\n      swap1\n      dup2\n      add\n      0x40\n      mstore\n      dup1\n      swap3\n      swap2\n      swap1\n      dup2\n      dup2\n      mstore\n      0x20\n      add\n      dup3\n      dup1\n      sload\n      tag_85\n      swap1\n      tag_61\n      jump\t// in\n    tag_85:\n      dup1\n      iszero\n      tag_86\n      jumpi\n      dup1\n      0x1f\n      lt\n      tag_87\n      jumpi\n      0x0100\n      dup1\n      dup4\n      sload\n      div\n      mul\n      dup4\n      mstore\n      swap2\n      0x20\n      add\n      swap2\n      jump(tag_86)\n    tag_87:\n      dup3\n      add\n      swap2\n      swap1\n      0x00\n      mstore\n      keccak256(0x00, 0x20)\n      swap1\n    tag_88:\n      dup2\n      sload\n      dup2\n      mstore\n      swap1\n      0x01\n      add\n      swap1\n      0x20\n      add\n      dup1\n      dup4\n      gt\n      tag_88\n      jumpi\n      dup3\n      swap1\n      sub\n      0x1f\n      and\n      dup3\n      add\n      swap2\n    tag_86:\n      pop\n      pop\n      pop\n      pop\n      pop\n      swap1\n      pop\n        /* \"contracts/UserSystem.sol\":2412:2590  function viewUsername(address _addr) external view returns(string  memory) {... */\n      swap2\n      swap1\n      pop\n      jump\t// out\n        /* \"@openzeppelin/contracts/utils/Strings.sol\":637:1269  function toString(uint256 value) internal pure returns (string memory) {... */\n    tag_55:\n        /* \"@openzeppelin/contracts/utils/Strings.sol\":693:706  string memory */\n      0x60\n        /* \"@openzeppelin/contracts/utils/Strings.sol\":742:756  uint256 length */\n      0x00\n        /* \"@openzeppelin/contracts/utils/Strings.sol\":779:780  1 */\n      0x01\n        /* \"@openzeppelin/contracts/utils/Strings.sol\":759:776  Math.log10(value) */\n      tag_90\n        /* \"@openzeppelin/contracts/utils/Strings.sol\":770:775  value */\n      dup5\n        /* \"@openzeppelin/contracts/utils/Strings.sol\":759:769  Math.log10 */\n      tag_91\n        /* \"@openzeppelin/contracts/utils/Strings.sol\":759:776  Math.log10(value) */\n      jump\t// in\n    tag_90:\n        /* \"@openzeppelin/contracts/utils/Strings.sol\":759:780  Math.log10(value) + 1 */\n      add\n        /* \"@openzeppelin/contracts/utils/Strings.sol\":742:780  uint256 length = Math.log10(value) + 1 */\n      swap1\n      pop\n        /* \"@openzeppelin/contracts/utils/Strings.sol\":794:814  string memory buffer */\n      0x00\n        /* \"@openzeppelin/contracts/utils/Strings.sol\":828:834  length */\n      dup2\n        /* \"@openzeppelin/contracts/utils/Strings.sol\":817:835  new string(length) */\n      0xffffffffffffffff\n      dup2\n      gt\n      iszero\n      tag_92\n      jumpi\n      tag_93\n      tag_37\n      jump\t// in\n    tag_93:\n    tag_92:\n      mload(0x40)\n      swap1\n      dup1\n      dup3\n      mstore\n      dup1\n      0x1f\n      add\n      not(0x1f)\n      and\n      0x20\n      add\n      dup3\n      add\n      0x40\n      mstore\n      dup1\n      iszero\n      tag_94\n      jumpi\n      dup2\n      0x20\n      add\n      0x01\n      dup3\n      mul\n      dup1\n      calldatasize\n      dup4\n      calldatacopy\n      dup1\n      dup3\n      add\n      swap2\n      pop\n      pop\n      swap1\n      pop\n    tag_94:\n      pop\n        /* \"@openzeppelin/contracts/utils/Strings.sol\":794:835  string memory buffer = new string(length) */\n      swap1\n      pop\n        /* \"@openzeppelin/contracts/utils/Strings.sol\":849:860  uint256 ptr */\n      0x00\n        /* \"@openzeppelin/contracts/utils/Strings.sol\":944:950  length */\n      dup3\n        /* \"@openzeppelin/contracts/utils/Strings.sol\":940:942  32 */\n      0x20\n        /* \"@openzeppelin/contracts/utils/Strings.sol\":936:951  add(32, length) */\n      add\n        /* \"@openzeppelin/contracts/utils/Strings.sol\":928:934  buffer */\n      dup3\n        /* \"@openzeppelin/contracts/utils/Strings.sol\":924:952  add(buffer, add(32, length)) */\n      add\n        /* \"@openzeppelin/contracts/utils/Strings.sol\":917:952  ptr := add(buffer, add(32, length)) */\n      swap1\n      pop\n        /* \"@openzeppelin/contracts/utils/Strings.sol\":979:1226  while (true) {... */\n    tag_95:\n        /* \"@openzeppelin/contracts/utils/Strings.sol\":986:990  true */\n      0x01\n        /* \"@openzeppelin/contracts/utils/Strings.sol\":979:1226  while (true) {... */\n      iszero\n      tag_96\n      jumpi\n        /* \"@openzeppelin/contracts/utils/Strings.sol\":1010:1015  ptr-- */\n      dup1\n      dup1\n      0x01\n      swap1\n      sub\n      swap2\n      pop\n      pop\n        /* \"@openzeppelin/contracts/utils/Strings.sol\":1114:1124  HEX_DIGITS */\n      0x3031323334353637383961626364656600000000000000000000000000000000\n        /* \"@openzeppelin/contracts/utils/Strings.sol\":1109:1111  10 */\n      0x0a\n        /* \"@openzeppelin/contracts/utils/Strings.sol\":1102:1107  value */\n      dup7\n        /* \"@openzeppelin/contracts/utils/Strings.sol\":1098:1112  mod(value, 10) */\n      mod\n        /* \"@openzeppelin/contracts/utils/Strings.sol\":1093:1125  byte(mod(value, 10), HEX_DIGITS) */\n      byte\n        /* \"@openzeppelin/contracts/utils/Strings.sol\":1088:1091  ptr */\n      dup2\n        /* \"@openzeppelin/contracts/utils/Strings.sol\":1080:1126  mstore8(ptr, byte(mod(value, 10), HEX_DIGITS)) */\n      mstore8\n        /* \"@openzeppelin/contracts/utils/Strings.sol\":1170:1172  10 */\n      0x0a\n        /* \"@openzeppelin/contracts/utils/Strings.sol\":1161:1172  value /= 10 */\n      dup6\n      dup2\n      tag_97\n      jumpi\n      tag_98\n      tag_99\n      jump\t// in\n    tag_98:\n    tag_97:\n      div\n      swap5\n      pop\n        /* \"@openzeppelin/contracts/utils/Strings.sol\":1203:1204  0 */\n      0x00\n        /* \"@openzeppelin/contracts/utils/Strings.sol\":1194:1199  value */\n      dup6\n        /* \"@openzeppelin/contracts/utils/Strings.sol\":1194:1204  value == 0 */\n      sub\n        /* \"@openzeppelin/contracts/utils/Strings.sol\":979:1226  while (true) {... */\n      tag_95\n        /* \"@openzeppelin/contracts/utils/Strings.sol\":1190:1211  if (value == 0) break */\n      jumpi\n        /* \"@openzeppelin/contracts/utils/Strings.sol\":979:1226  while (true) {... */\n    tag_96:\n        /* \"@openzeppelin/contracts/utils/Strings.sol\":1246:1252  buffer */\n      dup2\n        /* \"@openzeppelin/contracts/utils/Strings.sol\":1239:1252  return buffer */\n      swap4\n      pop\n      pop\n      pop\n      pop\n        /* \"@openzeppelin/contracts/utils/Strings.sol\":637:1269  function toString(uint256 value) internal pure returns (string memory) {... */\n      swap2\n      swap1\n      pop\n      jump\t// out\n        /* \"@openzeppelin/contracts/utils/math/Math.sol\":25316:26232  function log10(uint256 value) internal pure returns (uint256) {... */\n    tag_91:\n        /* \"@openzeppelin/contracts/utils/math/Math.sol\":25369:25376  uint256 */\n      0x00\n        /* \"@openzeppelin/contracts/utils/math/Math.sol\":25388:25402  uint256 result */\n      dup1\n        /* \"@openzeppelin/contracts/utils/math/Math.sol\":25405:25406  0 */\n      0x00\n        /* \"@openzeppelin/contracts/utils/math/Math.sol\":25388:25406  uint256 result = 0 */\n      swap1\n      pop\n        /* \"@openzeppelin/contracts/utils/math/Math.sol\":25453:25461  10 ** 64 */\n      0x184f03e93ff9f4daa797ed6e38ed64bf6a1f010000000000000000\n        /* \"@openzeppelin/contracts/utils/math/Math.sol\":25444:25449  value */\n      dup4\n        /* \"@openzeppelin/contracts/utils/math/Math.sol\":25444:25461  value >= 10 ** 64 */\n      lt\n        /* \"@openzeppelin/contracts/utils/math/Math.sol\":25440:25543  if (value >= 10 ** 64) {... */\n      tag_102\n      jumpi\n        /* \"@openzeppelin/contracts/utils/math/Math.sol\":25490:25498  10 ** 64 */\n      0x184f03e93ff9f4daa797ed6e38ed64bf6a1f010000000000000000\n        /* \"@openzeppelin/contracts/utils/math/Math.sol\":25481:25498  value /= 10 ** 64 */\n      dup4\n      dup2\n      tag_103\n      jumpi\n      tag_104\n      tag_99\n      jump\t// in\n    tag_104:\n    tag_103:\n      div\n      swap3\n      pop\n        /* \"@openzeppelin/contracts/utils/math/Math.sol\":25526:25528  64 */\n      0x40\n        /* \"@openzeppelin/contracts/utils/math/Math.sol\":25516:25528  result += 64 */\n      dup2\n      add\n      swap1\n      pop\n        /* \"@openzeppelin/contracts/utils/math/Math.sol\":25440:25543  if (value >= 10 ** 64) {... */\n    tag_102:\n        /* \"@openzeppelin/contracts/utils/math/Math.sol\":25569:25577  10 ** 32 */\n      0x04ee2d6d415b85acef8100000000\n        /* \"@openzeppelin/contracts/utils/math/Math.sol\":25560:25565  value */\n      dup4\n        /* \"@openzeppelin/contracts/utils/math/Math.sol\":25560:25577  value >= 10 ** 32 */\n      lt\n        /* \"@openzeppelin/contracts/utils/math/Math.sol\":25556:25659  if (value >= 10 ** 32) {... */\n      tag_105\n      jumpi\n        /* \"@openzeppelin/contracts/utils/math/Math.sol\":25606:25614  10 ** 32 */\n      0x04ee2d6d415b85acef8100000000\n        /* \"@openzeppelin/contracts/utils/math/Math.sol\":25597:25614  value /= 10 ** 32 */\n      dup4\n      dup2\n      tag_106\n      jumpi\n      tag_107\n      tag_99\n      jump\t// in\n    tag_107:\n    tag_106:\n      div\n      swap3\n      pop\n        /* \"@openzeppelin/contracts/utils/math/Math.sol\":25642:25644  32 */\n      0x20\n        /* \"@openzeppelin/contracts/utils/math/Math.sol\":25632:25644  result += 32 */\n      dup2\n      add\n      swap1\n      pop\n        /* \"@openzeppelin/contracts/utils/math/Math.sol\":25556:25659  if (value >= 10 ** 32) {... */\n    tag_105:\n        /* \"@openzeppelin/contracts/utils/math/Math.sol\":25685:25693  10 ** 16 */\n      0x2386f26fc10000\n        /* \"@openzeppelin/contracts/utils/math/Math.sol\":25676:25681  value */\n      dup4\n        /* \"@openzeppelin/contracts/utils/math/Math.sol\":25676:25693  value >= 10 ** 16 */\n      lt\n        /* \"@openzeppelin/contracts/utils/math/Math.sol\":25672:25775  if (value >= 10 ** 16) {... */\n      tag_108\n      jumpi\n        /* \"@openzeppelin/contracts/utils/math/Math.sol\":25722:25730  10 ** 16 */\n      0x2386f26fc10000\n        /* \"@openzeppelin/contracts/utils/math/Math.sol\":25713:25730  value /= 10 ** 16 */\n      dup4\n      dup2\n      tag_109\n      jumpi\n      tag_110\n      tag_99\n      jump\t// in\n    tag_110:\n    tag_109:\n      div\n      swap3\n      pop\n        /* \"@openzeppelin/contracts/utils/math/Math.sol\":25758:25760  16 */\n      0x10\n        /* \"@openzeppelin/contracts/utils/math/Math.sol\":25748:25760  result += 16 */\n      dup2\n      add\n      swap1\n      pop\n        /* \"@openzeppelin/contracts/utils/math/Math.sol\":25672:25775  if (value >= 10 ** 16) {... */\n    tag_108:\n        /* \"@openzeppelin/contracts/utils/math/Math.sol\":25801:25808  10 ** 8 */\n      0x05f5e100\n        /* \"@openzeppelin/contracts/utils/math/Math.sol\":25792:25797  value */\n      dup4\n        /* \"@openzeppelin/contracts/utils/math/Math.sol\":25792:25808  value >= 10 ** 8 */\n      lt\n        /* \"@openzeppelin/contracts/utils/math/Math.sol\":25788:25888  if (value >= 10 ** 8) {... */\n      tag_111\n      jumpi\n        /* \"@openzeppelin/contracts/utils/math/Math.sol\":25837:25844  10 ** 8 */\n      0x05f5e100\n        /* \"@openzeppelin/contracts/utils/math/Math.sol\":25828:25844  value /= 10 ** 8 */\n      dup4\n      dup2\n      tag_112\n      jumpi\n      tag_113\n      tag_99\n      jump\t// in\n    tag_113:\n    tag_112:\n      div\n      swap3\n      pop\n        /* \"@openzeppelin/contracts/utils/math/Math.sol\":25872:25873  8 */\n      0x08\n        /* \"@openzeppelin/contracts/utils/math/Math.sol\":25862:25873  result += 8 */\n      dup2\n      add\n      swap1\n      pop\n        /* \"@openzeppelin/contracts/utils/math/Math.sol\":25788:25888  if (value >= 10 ** 8) {... */\n    tag_111:\n        /* \"@openzeppelin/contracts/utils/math/Math.sol\":25914:25921  10 ** 4 */\n      0x2710\n        /* \"@openzeppelin/contracts/utils/math/Math.sol\":25905:25910  value */\n      dup4\n        /* \"@openzeppelin/contracts/utils/math/Math.sol\":25905:25921  value >= 10 ** 4 */\n      lt\n        /* \"@openzeppelin/contracts/utils/math/Math.sol\":25901:26001  if (value >= 10 ** 4) {... */\n      tag_114\n      jumpi\n        /* \"@openzeppelin/contracts/utils/math/Math.sol\":25950:25957  10 ** 4 */\n      0x2710\n        /* \"@openzeppelin/contracts/utils/math/Math.sol\":25941:25957  value /= 10 ** 4 */\n      dup4\n      dup2\n      tag_115\n      jumpi\n      tag_116\n      tag_99\n      jump\t// in\n    tag_116:\n    tag_115:\n      div\n      swap3\n      pop\n        /* \"@openzeppelin/contracts/utils/math/Math.sol\":25985:25986  4 */\n      0x04\n        /* \"@openzeppelin/contracts/utils/math/Math.sol\":25975:25986  result += 4 */\n      dup2\n      add\n      swap1\n      pop\n        /* \"@openzeppelin/contracts/utils/math/Math.sol\":25901:26001  if (value >= 10 ** 4) {... */\n    tag_114:\n        /* \"@openzeppelin/contracts/utils/math/Math.sol\":26027:26034  10 ** 2 */\n      0x64\n        /* \"@openzeppelin/contracts/utils/math/Math.sol\":26018:26023  value */\n      dup4\n        /* \"@openzeppelin/contracts/utils/math/Math.sol\":26018:26034  value >= 10 ** 2 */\n      lt\n        /* \"@openzeppelin/contracts/utils/math/Math.sol\":26014:26114  if (value >= 10 ** 2) {... */\n      tag_117\n      jumpi\n        /* \"@openzeppelin/contracts/utils/math/Math.sol\":26063:26070  10 ** 2 */\n      0x64\n        /* \"@openzeppelin/contracts/utils/math/Math.sol\":26054:26070  value /= 10 ** 2 */\n      dup4\n      dup2\n      tag_118\n      jumpi\n      tag_119\n      tag_99\n      jump\t// in\n    tag_119:\n    tag_118:\n      div\n      swap3\n      pop\n        /* \"@openzeppelin/contracts/utils/math/Math.sol\":26098:26099  2 */\n      0x02\n        /* \"@openzeppelin/contracts/utils/math/Math.sol\":26088:26099  result += 2 */\n      dup2\n      add\n      swap1\n      pop\n        /* \"@openzeppelin/contracts/utils/math/Math.sol\":26014:26114  if (value >= 10 ** 2) {... */\n    tag_117:\n        /* \"@openzeppelin/contracts/utils/math/Math.sol\":26140:26147  10 ** 1 */\n      0x0a\n        /* \"@openzeppelin/contracts/utils/math/Math.sol\":26131:26136  value */\n      dup4\n        /* \"@openzeppelin/contracts/utils/math/Math.sol\":26131:26147  value >= 10 ** 1 */\n      lt\n        /* \"@openzeppelin/contracts/utils/math/Math.sol\":26127:26193  if (value >= 10 ** 1) {... */\n      tag_120\n      jumpi\n        /* \"@openzeppelin/contracts/utils/math/Math.sol\":26177:26178  1 */\n      0x01\n        /* \"@openzeppelin/contracts/utils/math/Math.sol\":26167:26178  result += 1 */\n      dup2\n      add\n      swap1\n      pop\n        /* \"@openzeppelin/contracts/utils/math/Math.sol\":26127:26193  if (value >= 10 ** 1) {... */\n    tag_120:\n        /* \"@openzeppelin/contracts/utils/math/Math.sol\":26219:26225  result */\n      dup1\n        /* \"@openzeppelin/contracts/utils/math/Math.sol\":26212:26225  return result */\n      swap2\n      pop\n      pop\n        /* \"@openzeppelin/contracts/utils/math/Math.sol\":25316:26232  function log10(uint256 value) internal pure returns (uint256) {... */\n      swap2\n      swap1\n      pop\n      jump\t// out\n        /* \"#utility.yul\":7:121   */\n    tag_121:\n        /* \"#utility.yul\":74:80   */\n      0x00\n        /* \"#utility.yul\":108:113   */\n      dup2\n        /* \"#utility.yul\":102:114   */\n      mload\n        /* \"#utility.yul\":92:114   */\n      swap1\n      pop\n        /* \"#utility.yul\":7:121   */\n      swap2\n      swap1\n      pop\n      jump\t// out\n        /* \"#utility.yul\":127:311   */\n    tag_122:\n        /* \"#utility.yul\":226:237   */\n      0x00\n        /* \"#utility.yul\":260:266   */\n      dup3\n        /* \"#utility.yul\":255:258   */\n      dup3\n        /* \"#utility.yul\":248:267   */\n      mstore\n        /* \"#utility.yul\":300:304   */\n      0x20\n        /* \"#utility.yul\":295:298   */\n      dup3\n        /* \"#utility.yul\":291:305   */\n      add\n        /* \"#utility.yul\":276:305   */\n      swap1\n      pop\n        /* \"#utility.yul\":127:311   */\n      swap3\n      swap2\n      pop\n      pop\n      jump\t// out\n        /* \"#utility.yul\":317:449   */\n    tag_123:\n        /* \"#utility.yul\":384:388   */\n      0x00\n        /* \"#utility.yul\":407:410   */\n      dup2\n        /* \"#utility.yul\":399:410   */\n      swap1\n      pop\n        /* \"#utility.yul\":437:441   */\n      0x20\n        /* \"#utility.yul\":432:435   */\n      dup3\n        /* \"#utility.yul\":428:442   */\n      add\n        /* \"#utility.yul\":420:442   */\n      swap1\n      pop\n        /* \"#utility.yul\":317:449   */\n      swap2\n      swap1\n      pop\n      jump\t// out\n        /* \"#utility.yul\":455:581   */\n    tag_124:\n        /* \"#utility.yul\":492:499   */\n      0x00\n        /* \"#utility.yul\":532:574   */\n      0xffffffffffffffffffffffffffffffffffffffff\n        /* \"#utility.yul\":525:530   */\n      dup3\n        /* \"#utility.yul\":521:575   */\n      and\n        /* \"#utility.yul\":510:575   */\n      swap1\n      pop\n        /* \"#utility.yul\":455:581   */\n      swap2\n      swap1\n      pop\n      jump\t// out\n        /* \"#utility.yul\":587:683   */\n    tag_125:\n        /* \"#utility.yul\":624:631   */\n      0x00\n        /* \"#utility.yul\":653:677   */\n      tag_187\n        /* \"#utility.yul\":671:676   */\n      dup3\n        /* \"#utility.yul\":653:677   */\n      tag_124\n      jump\t// in\n    tag_187:\n        /* \"#utility.yul\":642:677   */\n      swap1\n      pop\n        /* \"#utility.yul\":587:683   */\n      swap2\n      swap1\n      pop\n      jump\t// out\n        /* \"#utility.yul\":689:797   */\n    tag_126:\n        /* \"#utility.yul\":766:790   */\n      tag_189\n        /* \"#utility.yul\":784:789   */\n      dup2\n        /* \"#utility.yul\":766:790   */\n      tag_125\n      jump\t// in\n    tag_189:\n        /* \"#utility.yul\":761:764   */\n      dup3\n        /* \"#utility.yul\":754:791   */\n      mstore\n        /* \"#utility.yul\":689:797   */\n      pop\n      pop\n      jump\t// out\n        /* \"#utility.yul\":803:982   */\n    tag_127:\n        /* \"#utility.yul\":872:882   */\n      0x00\n        /* \"#utility.yul\":893:939   */\n      tag_191\n        /* \"#utility.yul\":935:938   */\n      dup4\n        /* \"#utility.yul\":927:933   */\n      dup4\n        /* \"#utility.yul\":893:939   */\n      tag_126\n      jump\t// in\n    tag_191:\n        /* \"#utility.yul\":971:975   */\n      0x20\n        /* \"#utility.yul\":966:969   */\n      dup4\n        /* \"#utility.yul\":962:976   */\n      add\n        /* \"#utility.yul\":948:976   */\n      swap1\n      pop\n        /* \"#utility.yul\":803:982   */\n      swap3\n      swap2\n      pop\n      pop\n      jump\t// out\n        /* \"#utility.yul\":988:1101   */\n    tag_128:\n        /* \"#utility.yul\":1058:1062   */\n      0x00\n        /* \"#utility.yul\":1090:1094   */\n      0x20\n        /* \"#utility.yul\":1085:1088   */\n      dup3\n        /* \"#utility.yul\":1081:1095   */\n      add\n        /* \"#utility.yul\":1073:1095   */\n      swap1\n      pop\n        /* \"#utility.yul\":988:1101   */\n      swap2\n      swap1\n      pop\n      jump\t// out\n        /* \"#utility.yul\":1137:1869   */\n    tag_129:\n        /* \"#utility.yul\":1256:1259   */\n      0x00\n        /* \"#utility.yul\":1285:1339   */\n      tag_194\n        /* \"#utility.yul\":1333:1338   */\n      dup3\n        /* \"#utility.yul\":1285:1339   */\n      tag_121\n      jump\t// in\n    tag_194:\n        /* \"#utility.yul\":1355:1441   */\n      tag_195\n        /* \"#utility.yul\":1434:1440   */\n      dup2\n        /* \"#utility.yul\":1429:1432   */\n      dup6\n        /* \"#utility.yul\":1355:1441   */\n      tag_122\n      jump\t// in\n    tag_195:\n        /* \"#utility.yul\":1348:1441   */\n      swap4\n      pop\n        /* \"#utility.yul\":1465:1521   */\n      tag_196\n        /* \"#utility.yul\":1515:1520   */\n      dup4\n        /* \"#utility.yul\":1465:1521   */\n      tag_123\n      jump\t// in\n    tag_196:\n        /* \"#utility.yul\":1544:1551   */\n      dup1\n        /* \"#utility.yul\":1575:1576   */\n      0x00\n        /* \"#utility.yul\":1560:1844   */\n    tag_197:\n        /* \"#utility.yul\":1585:1591   */\n      dup4\n        /* \"#utility.yul\":1582:1583   */\n      dup2\n        /* \"#utility.yul\":1579:1592   */\n      lt\n        /* \"#utility.yul\":1560:1844   */\n      iszero\n      tag_199\n      jumpi\n        /* \"#utility.yul\":1661:1667   */\n      dup2\n        /* \"#utility.yul\":1655:1668   */\n      mload\n        /* \"#utility.yul\":1688:1751   */\n      tag_200\n        /* \"#utility.yul\":1747:1750   */\n      dup9\n        /* \"#utility.yul\":1732:1745   */\n      dup3\n        /* \"#utility.yul\":1688:1751   */\n      tag_127\n      jump\t// in\n    tag_200:\n        /* \"#utility.yul\":1681:1751   */\n      swap8\n      pop\n        /* \"#utility.yul\":1774:1834   */\n      tag_201\n        /* \"#utility.yul\":1827:1833   */\n      dup4\n        /* \"#utility.yul\":1774:1834   */\n      tag_128\n      jump\t// in\n    tag_201:\n        /* \"#utility.yul\":1764:1834   */\n      swap3\n      pop\n        /* \"#utility.yul\":1620:1844   */\n      pop\n        /* \"#utility.yul\":1607:1608   */\n      0x01\n        /* \"#utility.yul\":1604:1605   */\n      dup2\n        /* \"#utility.yul\":1600:1609   */\n      add\n        /* \"#utility.yul\":1595:1609   */\n      swap1\n      pop\n        /* \"#utility.yul\":1560:1844   */\n      jump(tag_197)\n    tag_199:\n        /* \"#utility.yul\":1564:1578   */\n      pop\n        /* \"#utility.yul\":1860:1863   */\n      dup6\n        /* \"#utility.yul\":1853:1863   */\n      swap4\n      pop\n        /* \"#utility.yul\":1261:1869   */\n      pop\n      pop\n      pop\n        /* \"#utility.yul\":1137:1869   */\n      swap3\n      swap2\n      pop\n      pop\n      jump\t// out\n        /* \"#utility.yul\":1875:2248   */\n    tag_12:\n        /* \"#utility.yul\":2018:2022   */\n      0x00\n        /* \"#utility.yul\":2056:2058   */\n      0x20\n        /* \"#utility.yul\":2045:2054   */\n      dup3\n        /* \"#utility.yul\":2041:2059   */\n      add\n        /* \"#utility.yul\":2033:2059   */\n      swap1\n      pop\n        /* \"#utility.yul\":2105:2114   */\n      dup2\n        /* \"#utility.yul\":2099:2103   */\n      dup2\n        /* \"#utility.yul\":2095:2115   */\n      sub\n        /* \"#utility.yul\":2091:2092   */\n      0x00\n        /* \"#utility.yul\":2080:2089   */\n      dup4\n        /* \"#utility.yul\":2076:2093   */\n      add\n        /* \"#utility.yul\":2069:2116   */\n      mstore\n        /* \"#utility.yul\":2133:2241   */\n      tag_203\n        /* \"#utility.yul\":2236:2240   */\n      dup2\n        /* \"#utility.yul\":2227:2233   */\n      dup5\n        /* \"#utility.yul\":2133:2241   */\n      tag_129\n      jump\t// in\n    tag_203:\n        /* \"#utility.yul\":2125:2241   */\n      swap1\n      pop\n        /* \"#utility.yul\":1875:2248   */\n      swap3\n      swap2\n      pop\n      pop\n      jump\t// out\n        /* \"#utility.yul\":2254:2331   */\n    tag_130:\n        /* \"#utility.yul\":2291:2298   */\n      0x00\n        /* \"#utility.yul\":2320:2325   */\n      dup2\n        /* \"#utility.yul\":2309:2325   */\n      swap1\n      pop\n        /* \"#utility.yul\":2254:2331   */\n      swap2\n      swap1\n      pop\n      jump\t// out\n        /* \"#utility.yul\":2337:2455   */\n    tag_131:\n        /* \"#utility.yul\":2424:2448   */\n      tag_206\n        /* \"#utility.yul\":2442:2447   */\n      dup2\n        /* \"#utility.yul\":2424:2448   */\n      tag_130\n      jump\t// in\n    tag_206:\n        /* \"#utility.yul\":2419:2422   */\n      dup3\n        /* \"#utility.yul\":2412:2449   */\n      mstore\n        /* \"#utility.yul\":2337:2455   */\n      pop\n      pop\n      jump\t// out\n        /* \"#utility.yul\":2461:2683   */\n    tag_16:\n        /* \"#utility.yul\":2554:2558   */\n      0x00\n        /* \"#utility.yul\":2592:2594   */\n      0x20\n        /* \"#utility.yul\":2581:2590   */\n      dup3\n        /* \"#utility.yul\":2577:2595   */\n      add\n        /* \"#utility.yul\":2569:2595   */\n      swap1\n      pop\n        /* \"#utility.yul\":2605:2676   */\n      tag_208\n        /* \"#utility.yul\":2673:2674   */\n      0x00\n        /* \"#utility.yul\":2662:2671   */\n      dup4\n        /* \"#utility.yul\":2658:2675   */\n      add\n        /* \"#utility.yul\":2649:2655   */\n      dup5\n        /* \"#utility.yul\":2605:2676   */\n      tag_131\n      jump\t// in\n    tag_208:\n        /* \"#utility.yul\":2461:2683   */\n      swap3\n      swap2\n      pop\n      pop\n      jump\t// out\n        /* \"#utility.yul\":2689:2764   */\n    tag_132:\n        /* \"#utility.yul\":2722:2728   */\n      0x00\n        /* \"#utility.yul\":2755:2757   */\n      0x40\n        /* \"#utility.yul\":2749:2758   */\n      mload\n        /* \"#utility.yul\":2739:2758   */\n      swap1\n      pop\n        /* \"#utility.yul\":2689:2764   */\n      swap1\n      jump\t// out\n        /* \"#utility.yul\":2770:2887   */\n    tag_133:\n        /* \"#utility.yul\":2879:2880   */\n      0x00\n        /* \"#utility.yul\":2876:2877   */\n      dup1\n        /* \"#utility.yul\":2869:2881   */\n      revert\n        /* \"#utility.yul\":2893:3010   */\n    tag_134:\n        /* \"#utility.yul\":3002:3003   */\n      0x00\n        /* \"#utility.yul\":2999:3000   */\n      dup1\n        /* \"#utility.yul\":2992:3004   */\n      revert\n        /* \"#utility.yul\":3016:3138   */\n    tag_135:\n        /* \"#utility.yul\":3089:3113   */\n      tag_213\n        /* \"#utility.yul\":3107:3112   */\n      dup2\n        /* \"#utility.yul\":3089:3113   */\n      tag_125\n      jump\t// in\n    tag_213:\n        /* \"#utility.yul\":3082:3087   */\n      dup2\n        /* \"#utility.yul\":3079:3114   */\n      eq\n        /* \"#utility.yul\":3069:3132   */\n      tag_214\n      jumpi\n        /* \"#utility.yul\":3128:3129   */\n      0x00\n        /* \"#utility.yul\":3125:3126   */\n      dup1\n        /* \"#utility.yul\":3118:3130   */\n      revert\n        /* \"#utility.yul\":3069:3132   */\n    tag_214:\n        /* \"#utility.yul\":3016:3138   */\n      pop\n      jump\t// out\n        /* \"#utility.yul\":3144:3283   */\n    tag_136:\n        /* \"#utility.yul\":3190:3195   */\n      0x00\n        /* \"#utility.yul\":3228:3234   */\n      dup2\n        /* \"#utility.yul\":3215:3235   */\n      calldataload\n        /* \"#utility.yul\":3206:3235   */\n      swap1\n      pop\n        /* \"#utility.yul\":3244:3277   */\n      tag_216\n        /* \"#utility.yul\":3271:3276   */\n      dup2\n        /* \"#utility.yul\":3244:3277   */\n      tag_135\n      jump\t// in\n    tag_216:\n        /* \"#utility.yul\":3144:3283   */\n      swap3\n      swap2\n      pop\n      pop\n      jump\t// out\n        /* \"#utility.yul\":3289:3618   */\n    tag_19:\n        /* \"#utility.yul\":3348:3354   */\n      0x00\n        /* \"#utility.yul\":3397:3399   */\n      0x20\n        /* \"#utility.yul\":3385:3394   */\n      dup3\n        /* \"#utility.yul\":3376:3383   */\n      dup5\n        /* \"#utility.yul\":3372:3395   */\n      sub\n        /* \"#utility.yul\":3368:3400   */\n      slt\n        /* \"#utility.yul\":3365:3484   */\n      iszero\n      tag_218\n      jumpi\n        /* \"#utility.yul\":3403:3482   */\n      tag_219\n      tag_133\n      jump\t// in\n    tag_219:\n        /* \"#utility.yul\":3365:3484   */\n    tag_218:\n        /* \"#utility.yul\":3523:3524   */\n      0x00\n        /* \"#utility.yul\":3548:3601   */\n      tag_220\n        /* \"#utility.yul\":3593:3600   */\n      dup5\n        /* \"#utility.yul\":3584:3590   */\n      dup3\n        /* \"#utility.yul\":3573:3582   */\n      dup6\n        /* \"#utility.yul\":3569:3591   */\n      add\n        /* \"#utility.yul\":3548:3601   */\n      tag_136\n      jump\t// in\n    tag_220:\n        /* \"#utility.yul\":3538:3601   */\n      swap2\n      pop\n        /* \"#utility.yul\":3494:3611   */\n      pop\n        /* \"#utility.yul\":3289:3618   */\n      swap3\n      swap2\n      pop\n      pop\n      jump\t// out\n        /* \"#utility.yul\":3624:3741   */\n    tag_137:\n        /* \"#utility.yul\":3733:3734   */\n      0x00\n        /* \"#utility.yul\":3730:3731   */\n      dup1\n        /* \"#utility.yul\":3723:3735   */\n      revert\n        /* \"#utility.yul\":3747:3864   */\n    tag_138:\n        /* \"#utility.yul\":3856:3857   */\n      0x00\n        /* \"#utility.yul\":3853:3854   */\n      dup1\n        /* \"#utility.yul\":3846:3858   */\n      revert\n        /* \"#utility.yul\":3870:3972   */\n    tag_139:\n        /* \"#utility.yul\":3911:3917   */\n      0x00\n        /* \"#utility.yul\":3962:3964   */\n      0x1f\n        /* \"#utility.yul\":3958:3965   */\n      not\n        /* \"#utility.yul\":3953:3955   */\n      0x1f\n        /* \"#utility.yul\":3946:3951   */\n      dup4\n        /* \"#utility.yul\":3942:3956   */\n      add\n        /* \"#utility.yul\":3938:3966   */\n      and\n        /* \"#utility.yul\":3928:3966   */\n      swap1\n      pop\n        /* \"#utility.yul\":3870:3972   */\n      swap2\n      swap1\n      pop\n      jump\t// out\n        /* \"#utility.yul\":3978:4158   */\n    tag_37:\n        /* \"#utility.yul\":4026:4103   */\n      0x4e487b7100000000000000000000000000000000000000000000000000000000\n        /* \"#utility.yul\":4023:4024   */\n      0x00\n        /* \"#utility.yul\":4016:4104   */\n      mstore\n        /* \"#utility.yul\":4123:4127   */\n      0x41\n        /* \"#utility.yul\":4120:4121   */\n      0x04\n        /* \"#utility.yul\":4113:4128   */\n      mstore\n        /* \"#utility.yul\":4147:4151   */\n      0x24\n        /* \"#utility.yul\":4144:4145   */\n      0x00\n        /* \"#utility.yul\":4137:4152   */\n      revert\n        /* \"#utility.yul\":4164:4445   */\n    tag_140:\n        /* \"#utility.yul\":4247:4274   */\n      tag_226\n        /* \"#utility.yul\":4269:4273   */\n      dup3\n        /* \"#utility.yul\":4247:4274   */\n      tag_139\n      jump\t// in\n    tag_226:\n        /* \"#utility.yul\":4239:4245   */\n      dup2\n        /* \"#utility.yul\":4235:4275   */\n      add\n        /* \"#utility.yul\":4377:4383   */\n      dup2\n        /* \"#utility.yul\":4365:4375   */\n      dup2\n        /* \"#utility.yul\":4362:4384   */\n      lt\n        /* \"#utility.yul\":4341:4359   */\n      0xffffffffffffffff\n        /* \"#utility.yul\":4329:4339   */\n      dup3\n        /* \"#utility.yul\":4326:4360   */\n      gt\n        /* \"#utility.yul\":4323:4385   */\n      or\n        /* \"#utility.yul\":4320:4408   */\n      iszero\n      tag_227\n      jumpi\n        /* \"#utility.yul\":4388:4406   */\n      tag_228\n      tag_37\n      jump\t// in\n    tag_228:\n        /* \"#utility.yul\":4320:4408   */\n    tag_227:\n        /* \"#utility.yul\":4428:4438   */\n      dup1\n        /* \"#utility.yul\":4424:4426   */\n      0x40\n        /* \"#utility.yul\":4417:4439   */\n      mstore\n        /* \"#utility.yul\":4207:4445   */\n      pop\n        /* \"#utility.yul\":4164:4445   */\n      pop\n      pop\n      jump\t// out\n        /* \"#utility.yul\":4451:4580   */\n    tag_141:\n        /* \"#utility.yul\":4485:4491   */\n      0x00\n        /* \"#utility.yul\":4512:4532   */\n      tag_230\n      tag_132\n      jump\t// in\n    tag_230:\n        /* \"#utility.yul\":4502:4532   */\n      swap1\n      pop\n        /* \"#utility.yul\":4541:4574   */\n      tag_231\n        /* \"#utility.yul\":4569:4573   */\n      dup3\n        /* \"#utility.yul\":4561:4567   */\n      dup3\n        /* \"#utility.yul\":4541:4574   */\n      tag_140\n      jump\t// in\n    tag_231:\n        /* \"#utility.yul\":4451:4580   */\n      swap2\n      swap1\n      pop\n      jump\t// out\n        /* \"#utility.yul\":4586:4894   */\n    tag_142:\n        /* \"#utility.yul\":4648:4652   */\n      0x00\n        /* \"#utility.yul\":4738:4756   */\n      0xffffffffffffffff\n        /* \"#utility.yul\":4730:4736   */\n      dup3\n        /* \"#utility.yul\":4727:4757   */\n      gt\n        /* \"#utility.yul\":4724:4780   */\n      iszero\n      tag_233\n      jumpi\n        /* \"#utility.yul\":4760:4778   */\n      tag_234\n      tag_37\n      jump\t// in\n    tag_234:\n        /* \"#utility.yul\":4724:4780   */\n    tag_233:\n        /* \"#utility.yul\":4798:4827   */\n      tag_235\n        /* \"#utility.yul\":4820:4826   */\n      dup3\n        /* \"#utility.yul\":4798:4827   */\n      tag_139\n      jump\t// in\n    tag_235:\n        /* \"#utility.yul\":4790:4827   */\n      swap1\n      pop\n        /* \"#utility.yul\":4882:4886   */\n      0x20\n        /* \"#utility.yul\":4876:4880   */\n      dup2\n        /* \"#utility.yul\":4872:4887   */\n      add\n        /* \"#utility.yul\":4864:4887   */\n      swap1\n      pop\n        /* \"#utility.yul\":4586:4894   */\n      swap2\n      swap1\n      pop\n      jump\t// out\n        /* \"#utility.yul\":4900:5048   */\n    tag_143:\n        /* \"#utility.yul\":4998:5004   */\n      dup3\n        /* \"#utility.yul\":4993:4996   */\n      dup2\n        /* \"#utility.yul\":4988:4991   */\n      dup4\n        /* \"#utility.yul\":4975:5005   */\n      calldatacopy\n        /* \"#utility.yul\":5039:5040   */\n      0x00\n        /* \"#utility.yul\":5030:5036   */\n      dup4\n        /* \"#utility.yul\":5025:5028   */\n      dup4\n        /* \"#utility.yul\":5021:5037   */\n      add\n        /* \"#utility.yul\":5014:5041   */\n      mstore\n        /* \"#utility.yul\":4900:5048   */\n      pop\n      pop\n      pop\n      jump\t// out\n        /* \"#utility.yul\":5054:5479   */\n    tag_144:\n        /* \"#utility.yul\":5132:5137   */\n      0x00\n        /* \"#utility.yul\":5157:5223   */\n      tag_238\n        /* \"#utility.yul\":5173:5222   */\n      tag_239\n        /* \"#utility.yul\":5215:5221   */\n      dup5\n        /* \"#utility.yul\":5173:5222   */\n      tag_142\n      jump\t// in\n    tag_239:\n        /* \"#utility.yul\":5157:5223   */\n      tag_141\n      jump\t// in\n    tag_238:\n        /* \"#utility.yul\":5148:5223   */\n      swap1\n      pop\n        /* \"#utility.yul\":5246:5252   */\n      dup3\n        /* \"#utility.yul\":5239:5244   */\n      dup2\n        /* \"#utility.yul\":5232:5253   */\n      mstore\n        /* \"#utility.yul\":5284:5288   */\n      0x20\n        /* \"#utility.yul\":5277:5282   */\n      dup2\n        /* \"#utility.yul\":5273:5289   */\n      add\n        /* \"#utility.yul\":5322:5325   */\n      dup5\n        /* \"#utility.yul\":5313:5319   */\n      dup5\n        /* \"#utility.yul\":5308:5311   */\n      dup5\n        /* \"#utility.yul\":5304:5320   */\n      add\n        /* \"#utility.yul\":5301:5326   */\n      gt\n        /* \"#utility.yul\":5298:5410   */\n      iszero\n      tag_240\n      jumpi\n        /* \"#utility.yul\":5329:5408   */\n      tag_241\n      tag_138\n      jump\t// in\n    tag_241:\n        /* \"#utility.yul\":5298:5410   */\n    tag_240:\n        /* \"#utility.yul\":5419:5473   */\n      tag_242\n        /* \"#utility.yul\":5466:5472   */\n      dup5\n        /* \"#utility.yul\":5461:5464   */\n      dup3\n        /* \"#utility.yul\":5456:5459   */\n      dup6\n        /* \"#utility.yul\":5419:5473   */\n      tag_143\n      jump\t// in\n    tag_242:\n        /* \"#utility.yul\":5138:5479   */\n      pop\n        /* \"#utility.yul\":5054:5479   */\n      swap4\n      swap3\n      pop\n      pop\n      pop\n      jump\t// out\n        /* \"#utility.yul\":5499:5839   */\n    tag_145:\n        /* \"#utility.yul\":5555:5560   */\n      0x00\n        /* \"#utility.yul\":5604:5607   */\n      dup3\n        /* \"#utility.yul\":5597:5601   */\n      0x1f\n        /* \"#utility.yul\":5589:5595   */\n      dup4\n        /* \"#utility.yul\":5585:5602   */\n      add\n        /* \"#utility.yul\":5581:5608   */\n      slt\n        /* \"#utility.yul\":5571:5693   */\n      tag_244\n      jumpi\n        /* \"#utility.yul\":5612:5691   */\n      tag_245\n      tag_137\n      jump\t// in\n    tag_245:\n        /* \"#utility.yul\":5571:5693   */\n    tag_244:\n        /* \"#utility.yul\":5729:5735   */\n      dup2\n        /* \"#utility.yul\":5716:5736   */\n      calldataload\n        /* \"#utility.yul\":5754:5833   */\n      tag_246\n        /* \"#utility.yul\":5829:5832   */\n      dup5\n        /* \"#utility.yul\":5821:5827   */\n      dup3\n        /* \"#utility.yul\":5814:5818   */\n      0x20\n        /* \"#utility.yul\":5806:5812   */\n      dup7\n        /* \"#utility.yul\":5802:5819   */\n      add\n        /* \"#utility.yul\":5754:5833   */\n      tag_144\n      jump\t// in\n    tag_246:\n        /* \"#utility.yul\":5745:5833   */\n      swap2\n      pop\n        /* \"#utility.yul\":5561:5839   */\n      pop\n        /* \"#utility.yul\":5499:5839   */\n      swap3\n      swap2\n      pop\n      pop\n      jump\t// out\n        /* \"#utility.yul\":5845:6354   */\n    tag_23:\n        /* \"#utility.yul\":5914:5920   */\n      0x00\n        /* \"#utility.yul\":5963:5965   */\n      0x20\n        /* \"#utility.yul\":5951:5960   */\n      dup3\n        /* \"#utility.yul\":5942:5949   */\n      dup5\n        /* \"#utility.yul\":5938:5961   */\n      sub\n        /* \"#utility.yul\":5934:5966   */\n      slt\n        /* \"#utility.yul\":5931:6050   */\n      iszero\n      tag_248\n      jumpi\n        /* \"#utility.yul\":5969:6048   */\n      tag_249\n      tag_133\n      jump\t// in\n    tag_249:\n        /* \"#utility.yul\":5931:6050   */\n    tag_248:\n        /* \"#utility.yul\":6117:6118   */\n      0x00\n        /* \"#utility.yul\":6106:6115   */\n      dup3\n        /* \"#utility.yul\":6102:6119   */\n      add\n        /* \"#utility.yul\":6089:6120   */\n      calldataload\n        /* \"#utility.yul\":6147:6165   */\n      0xffffffffffffffff\n        /* \"#utility.yul\":6139:6145   */\n      dup2\n        /* \"#utility.yul\":6136:6166   */\n      gt\n        /* \"#utility.yul\":6133:6250   */\n      iszero\n      tag_250\n      jumpi\n        /* \"#utility.yul\":6169:6248   */\n      tag_251\n      tag_134\n      jump\t// in\n    tag_251:\n        /* \"#utility.yul\":6133:6250   */\n    tag_250:\n        /* \"#utility.yul\":6274:6337   */\n      tag_252\n        /* \"#utility.yul\":6329:6336   */\n      dup5\n        /* \"#utility.yul\":6320:6326   */\n      dup3\n        /* \"#utility.yul\":6309:6318   */\n      dup6\n        /* \"#utility.yul\":6305:6327   */\n      add\n        /* \"#utility.yul\":6274:6337   */\n      tag_145\n      jump\t// in\n    tag_252:\n        /* \"#utility.yul\":6264:6337   */\n      swap2\n      pop\n        /* \"#utility.yul\":6060:6347   */\n      pop\n        /* \"#utility.yul\":5845:6354   */\n      swap3\n      swap2\n      pop\n      pop\n      jump\t// out\n        /* \"#utility.yul\":6360:6478   */\n    tag_146:\n        /* \"#utility.yul\":6447:6471   */\n      tag_254\n        /* \"#utility.yul\":6465:6470   */\n      dup2\n        /* \"#utility.yul\":6447:6471   */\n      tag_125\n      jump\t// in\n    tag_254:\n        /* \"#utility.yul\":6442:6445   */\n      dup3\n        /* \"#utility.yul\":6435:6472   */\n      mstore\n        /* \"#utility.yul\":6360:6478   */\n      pop\n      pop\n      jump\t// out\n        /* \"#utility.yul\":6484:6706   */\n    tag_28:\n        /* \"#utility.yul\":6577:6581   */\n      0x00\n        /* \"#utility.yul\":6615:6617   */\n      0x20\n        /* \"#utility.yul\":6604:6613   */\n      dup3\n        /* \"#utility.yul\":6600:6618   */\n      add\n        /* \"#utility.yul\":6592:6618   */\n      swap1\n      pop\n        /* \"#utility.yul\":6628:6699   */\n      tag_256\n        /* \"#utility.yul\":6696:6697   */\n      0x00\n        /* \"#utility.yul\":6685:6694   */\n      dup4\n        /* \"#utility.yul\":6681:6698   */\n      add\n        /* \"#utility.yul\":6672:6678   */\n      dup5\n        /* \"#utility.yul\":6628:6699   */\n      tag_146\n      jump\t// in\n    tag_256:\n        /* \"#utility.yul\":6484:6706   */\n      swap3\n      swap2\n      pop\n      pop\n      jump\t// out\n        /* \"#utility.yul\":6712:6811   */\n    tag_147:\n        /* \"#utility.yul\":6764:6770   */\n      0x00\n        /* \"#utility.yul\":6798:6803   */\n      dup2\n        /* \"#utility.yul\":6792:6804   */\n      mload\n        /* \"#utility.yul\":6782:6804   */\n      swap1\n      pop\n        /* \"#utility.yul\":6712:6811   */\n      swap2\n      swap1\n      pop\n      jump\t// out\n        /* \"#utility.yul\":6817:6986   */\n    tag_148:\n        /* \"#utility.yul\":6901:6912   */\n      0x00\n        /* \"#utility.yul\":6935:6941   */\n      dup3\n        /* \"#utility.yul\":6930:6933   */\n      dup3\n        /* \"#utility.yul\":6923:6942   */\n      mstore\n        /* \"#utility.yul\":6975:6979   */\n      0x20\n        /* \"#utility.yul\":6970:6973   */\n      dup3\n        /* \"#utility.yul\":6966:6980   */\n      add\n        /* \"#utility.yul\":6951:6980   */\n      swap1\n      pop\n        /* \"#utility.yul\":6817:6986   */\n      swap3\n      swap2\n      pop\n      pop\n      jump\t// out\n        /* \"#utility.yul\":6992:7131   */\n    tag_149:\n        /* \"#utility.yul\":7081:7087   */\n      dup3\n        /* \"#utility.yul\":7076:7079   */\n      dup2\n        /* \"#utility.yul\":7071:7074   */\n      dup4\n        /* \"#utility.yul\":7065:7088   */\n      mcopy\n        /* \"#utility.yul\":7122:7123   */\n      0x00\n        /* \"#utility.yul\":7113:7119   */\n      dup4\n        /* \"#utility.yul\":7108:7111   */\n      dup4\n        /* \"#utility.yul\":7104:7120   */\n      add\n        /* \"#utility.yul\":7097:7124   */\n      mstore\n        /* \"#utility.yul\":6992:7131   */\n      pop\n      pop\n      pop\n      jump\t// out\n        /* \"#utility.yul\":7137:7514   */\n    tag_150:\n        /* \"#utility.yul\":7225:7228   */\n      0x00\n        /* \"#utility.yul\":7253:7292   */\n      tag_261\n        /* \"#utility.yul\":7286:7291   */\n      dup3\n        /* \"#utility.yul\":7253:7292   */\n      tag_147\n      jump\t// in\n    tag_261:\n        /* \"#utility.yul\":7308:7379   */\n      tag_262\n        /* \"#utility.yul\":7372:7378   */\n      dup2\n        /* \"#utility.yul\":7367:7370   */\n      dup6\n        /* \"#utility.yul\":7308:7379   */\n      tag_148\n      jump\t// in\n    tag_262:\n        /* \"#utility.yul\":7301:7379   */\n      swap4\n      pop\n        /* \"#utility.yul\":7388:7453   */\n      tag_263\n        /* \"#utility.yul\":7446:7452   */\n      dup2\n        /* \"#utility.yul\":7441:7444   */\n      dup6\n        /* \"#utility.yul\":7434:7438   */\n      0x20\n        /* \"#utility.yul\":7427:7432   */\n      dup7\n        /* \"#utility.yul\":7423:7439   */\n      add\n        /* \"#utility.yul\":7388:7453   */\n      tag_149\n      jump\t// in\n    tag_263:\n        /* \"#utility.yul\":7478:7507   */\n      tag_264\n        /* \"#utility.yul\":7500:7506   */\n      dup2\n        /* \"#utility.yul\":7478:7507   */\n      tag_139\n      jump\t// in\n    tag_264:\n        /* \"#utility.yul\":7473:7476   */\n      dup5\n        /* \"#utility.yul\":7469:7508   */\n      add\n        /* \"#utility.yul\":7462:7508   */\n      swap2\n      pop\n        /* \"#utility.yul\":7229:7514   */\n      pop\n        /* \"#utility.yul\":7137:7514   */\n      swap3\n      swap2\n      pop\n      pop\n      jump\t// out\n        /* \"#utility.yul\":7520:7833   */\n    tag_33:\n        /* \"#utility.yul\":7633:7637   */\n      0x00\n        /* \"#utility.yul\":7671:7673   */\n      0x20\n        /* \"#utility.yul\":7660:7669   */\n      dup3\n        /* \"#utility.yul\":7656:7674   */\n      add\n        /* \"#utility.yul\":7648:7674   */\n      swap1\n      pop\n        /* \"#utility.yul\":7720:7729   */\n      dup2\n        /* \"#utility.yul\":7714:7718   */\n      dup2\n        /* \"#utility.yul\":7710:7730   */\n      sub\n        /* \"#utility.yul\":7706:7707   */\n      0x00\n        /* \"#utility.yul\":7695:7704   */\n      dup4\n        /* \"#utility.yul\":7691:7708   */\n      add\n        /* \"#utility.yul\":7684:7731   */\n      mstore\n        /* \"#utility.yul\":7748:7826   */\n      tag_266\n        /* \"#utility.yul\":7821:7825   */\n      dup2\n        /* \"#utility.yul\":7812:7818   */\n      dup5\n        /* \"#utility.yul\":7748:7826   */\n      tag_150\n      jump\t// in\n    tag_266:\n        /* \"#utility.yul\":7740:7826   */\n      swap1\n      pop\n        /* \"#utility.yul\":7520:7833   */\n      swap3\n      swap2\n      pop\n      pop\n      jump\t// out\n        /* \"#utility.yul\":7839:8019   */\n    tag_41:\n        /* \"#utility.yul\":7887:7964   */\n      0x4e487b7100000000000000000000000000000000000000000000000000000000\n        /* \"#utility.yul\":7884:7885   */\n      0x00\n        /* \"#utility.yul\":7877:7965   */\n      mstore\n        /* \"#utility.yul\":7984:7988   */\n      0x32\n        /* \"#utility.yul\":7981:7982   */\n      0x04\n        /* \"#utility.yul\":7974:7989   */\n      mstore\n        /* \"#utility.yul\":8008:8012   */\n      0x24\n        /* \"#utility.yul\":8005:8006   */\n      0x00\n        /* \"#utility.yul\":7998:8013   */\n      revert\n        /* \"#utility.yul\":8025:8250   */\n    tag_151:\n        /* \"#utility.yul\":8165:8199   */\n      0x4f6e6c792064726976654f776e65722063616e2077686974656c697374207468\n        /* \"#utility.yul\":8161:8162   */\n      0x00\n        /* \"#utility.yul\":8153:8159   */\n      dup3\n        /* \"#utility.yul\":8149:8163   */\n      add\n        /* \"#utility.yul\":8142:8200   */\n      mstore\n        /* \"#utility.yul\":8234:8242   */\n      0x6520757365720000000000000000000000000000000000000000000000000000\n        /* \"#utility.yul\":8229:8231   */\n      0x20\n        /* \"#utility.yul\":8221:8227   */\n      dup3\n        /* \"#utility.yul\":8217:8232   */\n      add\n        /* \"#utility.yul\":8210:8243   */\n      mstore\n        /* \"#utility.yul\":8025:8250   */\n      pop\n      jump\t// out\n        /* \"#utility.yul\":8256:8622   */\n    tag_152:\n        /* \"#utility.yul\":8398:8401   */\n      0x00\n        /* \"#utility.yul\":8419:8486   */\n      tag_270\n        /* \"#utility.yul\":8483:8485   */\n      0x26\n        /* \"#utility.yul\":8478:8481   */\n      dup4\n        /* \"#utility.yul\":8419:8486   */\n      tag_148\n      jump\t// in\n    tag_270:\n        /* \"#utility.yul\":8412:8486   */\n      swap2\n      pop\n        /* \"#utility.yul\":8495:8588   */\n      tag_271\n        /* \"#utility.yul\":8584:8587   */\n      dup3\n        /* \"#utility.yul\":8495:8588   */\n      tag_151\n      jump\t// in\n    tag_271:\n        /* \"#utility.yul\":8613:8615   */\n      0x40\n        /* \"#utility.yul\":8608:8611   */\n      dup3\n        /* \"#utility.yul\":8604:8616   */\n      add\n        /* \"#utility.yul\":8597:8616   */\n      swap1\n      pop\n        /* \"#utility.yul\":8256:8622   */\n      swap2\n      swap1\n      pop\n      jump\t// out\n        /* \"#utility.yul\":8628:9047   */\n    tag_50:\n        /* \"#utility.yul\":8794:8798   */\n      0x00\n        /* \"#utility.yul\":8832:8834   */\n      0x20\n        /* \"#utility.yul\":8821:8830   */\n      dup3\n        /* \"#utility.yul\":8817:8835   */\n      add\n        /* \"#utility.yul\":8809:8835   */\n      swap1\n      pop\n        /* \"#utility.yul\":8881:8890   */\n      dup2\n        /* \"#utility.yul\":8875:8879   */\n      dup2\n        /* \"#utility.yul\":8871:8891   */\n      sub\n        /* \"#utility.yul\":8867:8868   */\n      0x00\n        /* \"#utility.yul\":8856:8865   */\n      dup4\n        /* \"#utility.yul\":8852:8869   */\n      add\n        /* \"#utility.yul\":8845:8892   */\n      mstore\n        /* \"#utility.yul\":8909:9040   */\n      tag_273\n        /* \"#utility.yul\":9035:9039   */\n      dup2\n        /* \"#utility.yul\":8909:9040   */\n      tag_152\n      jump\t// in\n    tag_273:\n        /* \"#utility.yul\":8901:9040   */\n      swap1\n      pop\n        /* \"#utility.yul\":8628:9047   */\n      swap2\n      swap1\n      pop\n      jump\t// out\n        /* \"#utility.yul\":9053:9280   */\n    tag_153:\n        /* \"#utility.yul\":9193:9227   */\n      0x54686520616464726573732068617320616c7265616479206265656e20776869\n        /* \"#utility.yul\":9189:9190   */\n      0x00\n        /* \"#utility.yul\":9181:9187   */\n      dup3\n        /* \"#utility.yul\":9177:9191   */\n      add\n        /* \"#utility.yul\":9170:9228   */\n      mstore\n        /* \"#utility.yul\":9262:9272   */\n      0x74656c6973746564000000000000000000000000000000000000000000000000\n        /* \"#utility.yul\":9257:9259   */\n      0x20\n        /* \"#utility.yul\":9249:9255   */\n      dup3\n        /* \"#utility.yul\":9245:9260   */\n      add\n        /* \"#utility.yul\":9238:9273   */\n      mstore\n        /* \"#utility.yul\":9053:9280   */\n      pop\n      jump\t// out\n        /* \"#utility.yul\":9286:9652   */\n    tag_154:\n        /* \"#utility.yul\":9428:9431   */\n      0x00\n        /* \"#utility.yul\":9449:9516   */\n      tag_276\n        /* \"#utility.yul\":9513:9515   */\n      0x28\n        /* \"#utility.yul\":9508:9511   */\n      dup4\n        /* \"#utility.yul\":9449:9516   */\n      tag_148\n      jump\t// in\n    tag_276:\n        /* \"#utility.yul\":9442:9516   */\n      swap2\n      pop\n        /* \"#utility.yul\":9525:9618   */\n      tag_277\n        /* \"#utility.yul\":9614:9617   */\n      dup3\n        /* \"#utility.yul\":9525:9618   */\n      tag_153\n      jump\t// in\n    tag_277:\n        /* \"#utility.yul\":9643:9645   */\n      0x40\n        /* \"#utility.yul\":9638:9641   */\n      dup3\n        /* \"#utility.yul\":9634:9646   */\n      add\n        /* \"#utility.yul\":9627:9646   */\n      swap1\n      pop\n        /* \"#utility.yul\":9286:9652   */\n      swap2\n      swap1\n      pop\n      jump\t// out\n        /* \"#utility.yul\":9658:10077   */\n    tag_53:\n        /* \"#utility.yul\":9824:9828   */\n      0x00\n        /* \"#utility.yul\":9862:9864   */\n      0x20\n        /* \"#utility.yul\":9851:9860   */\n      dup3\n        /* \"#utility.yul\":9847:9865   */\n      add\n        /* \"#utility.yul\":9839:9865   */\n      swap1\n      pop\n        /* \"#utility.yul\":9911:9920   */\n      dup2\n        /* \"#utility.yul\":9905:9909   */\n      dup2\n        /* \"#utility.yul\":9901:9921   */\n      sub\n        /* \"#utility.yul\":9897:9898   */\n      0x00\n        /* \"#utility.yul\":9886:9895   */\n      dup4\n        /* \"#utility.yul\":9882:9899   */\n      add\n        /* \"#utility.yul\":9875:9922   */\n      mstore\n        /* \"#utility.yul\":9939:10070   */\n      tag_279\n        /* \"#utility.yul\":10065:10069   */\n      dup2\n        /* \"#utility.yul\":9939:10070   */\n      tag_154\n      jump\t// in\n    tag_279:\n        /* \"#utility.yul\":9931:10070   */\n      swap1\n      pop\n        /* \"#utility.yul\":9658:10077   */\n      swap2\n      swap1\n      pop\n      jump\t// out\n        /* \"#utility.yul\":10083:10265   */\n    tag_155:\n        /* \"#utility.yul\":10251:10258   */\n      0x5573657220000000000000000000000000000000000000000000000000000000\n        /* \"#utility.yul\":10246:10249   */\n      dup2\n        /* \"#utility.yul\":10239:10259   */\n      mstore\n        /* \"#utility.yul\":10083:10265   */\n      pop\n      jump\t// out\n        /* \"#utility.yul\":10271:10419   */\n    tag_156:\n        /* \"#utility.yul\":10373:10384   */\n      0x00\n        /* \"#utility.yul\":10410:10413   */\n      dup2\n        /* \"#utility.yul\":10395:10413   */\n      swap1\n      pop\n        /* \"#utility.yul\":10271:10419   */\n      swap3\n      swap2\n      pop\n      pop\n      jump\t// out\n        /* \"#utility.yul\":10425:10815   */\n    tag_157:\n        /* \"#utility.yul\":10531:10534   */\n      0x00\n        /* \"#utility.yul\":10559:10598   */\n      tag_283\n        /* \"#utility.yul\":10592:10597   */\n      dup3\n        /* \"#utility.yul\":10559:10598   */\n      tag_147\n      jump\t// in\n    tag_283:\n        /* \"#utility.yul\":10614:10703   */\n      tag_284\n        /* \"#utility.yul\":10696:10702   */\n      dup2\n        /* \"#utility.yul\":10691:10694   */\n      dup6\n        /* \"#utility.yul\":10614:10703   */\n      tag_156\n      jump\t// in\n    tag_284:\n        /* \"#utility.yul\":10607:10703   */\n      swap4\n      pop\n        /* \"#utility.yul\":10712:10777   */\n      tag_285\n        /* \"#utility.yul\":10770:10776   */\n      dup2\n        /* \"#utility.yul\":10765:10768   */\n      dup6\n        /* \"#utility.yul\":10758:10762   */\n      0x20\n        /* \"#utility.yul\":10751:10756   */\n      dup7\n        /* \"#utility.yul\":10747:10763   */\n      add\n        /* \"#utility.yul\":10712:10777   */\n      tag_149\n      jump\t// in\n    tag_285:\n        /* \"#utility.yul\":10802:10808   */\n      dup1\n        /* \"#utility.yul\":10797:10800   */\n      dup5\n        /* \"#utility.yul\":10793:10809   */\n      add\n        /* \"#utility.yul\":10786:10809   */\n      swap2\n      pop\n        /* \"#utility.yul\":10535:10815   */\n      pop\n        /* \"#utility.yul\":10425:10815   */\n      swap3\n      swap2\n      pop\n      pop\n      jump\t// out\n        /* \"#utility.yul\":10821:11360   */\n    tag_57:\n        /* \"#utility.yul\":11043:11046   */\n      0x00\n        /* \"#utility.yul\":11058:11195   */\n      tag_287\n        /* \"#utility.yul\":11191:11194   */\n      dup3\n        /* \"#utility.yul\":11058:11195   */\n      tag_155\n      jump\t// in\n    tag_287:\n        /* \"#utility.yul\":11220:11221   */\n      0x05\n        /* \"#utility.yul\":11215:11218   */\n      dup3\n        /* \"#utility.yul\":11211:11222   */\n      add\n        /* \"#utility.yul\":11204:11222   */\n      swap2\n      pop\n        /* \"#utility.yul\":11239:11334   */\n      tag_288\n        /* \"#utility.yul\":11330:11333   */\n      dup3\n        /* \"#utility.yul\":11321:11327   */\n      dup5\n        /* \"#utility.yul\":11239:11334   */\n      tag_157\n      jump\t// in\n    tag_288:\n        /* \"#utility.yul\":11232:11334   */\n      swap2\n      pop\n        /* \"#utility.yul\":11351:11354   */\n      dup2\n        /* \"#utility.yul\":11344:11354   */\n      swap1\n      pop\n        /* \"#utility.yul\":10821:11360   */\n      swap3\n      swap2\n      pop\n      pop\n      jump\t// out\n        /* \"#utility.yul\":11366:11546   */\n    tag_158:\n        /* \"#utility.yul\":11414:11491   */\n      0x4e487b7100000000000000000000000000000000000000000000000000000000\n        /* \"#utility.yul\":11411:11412   */\n      0x00\n        /* \"#utility.yul\":11404:11492   */\n      mstore\n        /* \"#utility.yul\":11511:11515   */\n      0x22\n        /* \"#utility.yul\":11508:11509   */\n      0x04\n        /* \"#utility.yul\":11501:11516   */\n      mstore\n        /* \"#utility.yul\":11535:11539   */\n      0x24\n        /* \"#utility.yul\":11532:11533   */\n      0x00\n        /* \"#utility.yul\":11525:11540   */\n      revert\n        /* \"#utility.yul\":11552:11872   */\n    tag_61:\n        /* \"#utility.yul\":11596:11602   */\n      0x00\n        /* \"#utility.yul\":11633:11634   */\n      0x02\n        /* \"#utility.yul\":11627:11631   */\n      dup3\n        /* \"#utility.yul\":11623:11635   */\n      div\n        /* \"#utility.yul\":11613:11635   */\n      swap1\n      pop\n        /* \"#utility.yul\":11680:11681   */\n      0x01\n        /* \"#utility.yul\":11674:11678   */\n      dup3\n        /* \"#utility.yul\":11670:11682   */\n      and\n        /* \"#utility.yul\":11701:11719   */\n      dup1\n        /* \"#utility.yul\":11691:11772   */\n      tag_291\n      jumpi\n        /* \"#utility.yul\":11757:11761   */\n      0x7f\n        /* \"#utility.yul\":11749:11755   */\n      dup3\n        /* \"#utility.yul\":11745:11762   */\n      and\n        /* \"#utility.yul\":11735:11762   */\n      swap2\n      pop\n        /* \"#utility.yul\":11691:11772   */\n    tag_291:\n        /* \"#utility.yul\":11819:11821   */\n      0x20\n        /* \"#utility.yul\":11811:11817   */\n      dup3\n        /* \"#utility.yul\":11808:11822   */\n      lt\n        /* \"#utility.yul\":11788:11806   */\n      dup2\n        /* \"#utility.yul\":11785:11823   */\n      sub\n        /* \"#utility.yul\":11782:11866   */\n      tag_292\n      jumpi\n        /* \"#utility.yul\":11838:11856   */\n      tag_293\n      tag_158\n      jump\t// in\n    tag_293:\n        /* \"#utility.yul\":11782:11866   */\n    tag_292:\n        /* \"#utility.yul\":11603:11872   */\n      pop\n        /* \"#utility.yul\":11552:11872   */\n      swap2\n      swap1\n      pop\n      jump\t// out\n        /* \"#utility.yul\":11878:12019   */\n    tag_159:\n        /* \"#utility.yul\":11927:11931   */\n      0x00\n        /* \"#utility.yul\":11950:11953   */\n      dup2\n        /* \"#utility.yul\":11942:11953   */\n      swap1\n      pop\n        /* \"#utility.yul\":11973:11976   */\n      dup2\n        /* \"#utility.yul\":11970:11971   */\n      0x00\n        /* \"#utility.yul\":11963:11977   */\n      mstore\n        /* \"#utility.yul\":12007:12011   */\n      0x20\n        /* \"#utility.yul\":12004:12005   */\n      0x00\n        /* \"#utility.yul\":11994:12012   */\n      keccak256\n        /* \"#utility.yul\":11986:12012   */\n      swap1\n      pop\n        /* \"#utility.yul\":11878:12019   */\n      swap2\n      swap1\n      pop\n      jump\t// out\n        /* \"#utility.yul\":12025:12118   */\n    tag_160:\n        /* \"#utility.yul\":12062:12068   */\n      0x00\n        /* \"#utility.yul\":12109:12111   */\n      0x20\n        /* \"#utility.yul\":12104:12106   */\n      0x1f\n        /* \"#utility.yul\":12097:12102   */\n      dup4\n        /* \"#utility.yul\":12093:12107   */\n      add\n        /* \"#utility.yul\":12089:12112   */\n      div\n        /* \"#utility.yul\":12079:12112   */\n      swap1\n      pop\n        /* \"#utility.yul\":12025:12118   */\n      swap2\n      swap1\n      pop\n      jump\t// out\n        /* \"#utility.yul\":12124:12231   */\n    tag_161:\n        /* \"#utility.yul\":12168:12176   */\n      0x00\n        /* \"#utility.yul\":12218:12223   */\n      dup3\n        /* \"#utility.yul\":12212:12216   */\n      dup3\n        /* \"#utility.yul\":12208:12224   */\n      shl\n        /* \"#utility.yul\":12187:12224   */\n      swap1\n      pop\n        /* \"#utility.yul\":12124:12231   */\n      swap3\n      swap2\n      pop\n      pop\n      jump\t// out\n        /* \"#utility.yul\":12237:12630   */\n    tag_162:\n        /* \"#utility.yul\":12306:12312   */\n      0x00\n        /* \"#utility.yul\":12356:12357   */\n      0x08\n        /* \"#utility.yul\":12344:12354   */\n      dup4\n        /* \"#utility.yul\":12340:12358   */\n      mul\n        /* \"#utility.yul\":12379:12476   */\n      tag_298\n        /* \"#utility.yul\":12409:12475   */\n      0xffffffffffffffffffffffffffffffffffffffffffffffffffffffffffffffff\n        /* \"#utility.yul\":12398:12407   */\n      dup3\n        /* \"#utility.yul\":12379:12476   */\n      tag_161\n      jump\t// in\n    tag_298:\n        /* \"#utility.yul\":12497:12536   */\n      tag_299\n        /* \"#utility.yul\":12527:12535   */\n      dup7\n        /* \"#utility.yul\":12516:12525   */\n      dup4\n        /* \"#utility.yul\":12497:12536   */\n      tag_161\n      jump\t// in\n    tag_299:\n        /* \"#utility.yul\":12485:12536   */\n      swap6\n      pop\n        /* \"#utility.yul\":12569:12573   */\n      dup1\n        /* \"#utility.yul\":12565:12574   */\n      not\n        /* \"#utility.yul\":12558:12563   */\n      dup5\n        /* \"#utility.yul\":12554:12575   */\n      and\n        /* \"#utility.yul\":12545:12575   */\n      swap4\n      pop\n        /* \"#utility.yul\":12618:12622   */\n      dup1\n        /* \"#utility.yul\":12608:12616   */\n      dup7\n        /* \"#utility.yul\":12604:12623   */\n      and\n        /* \"#utility.yul\":12597:12602   */\n      dup5\n        /* \"#utility.yul\":12594:12624   */\n      or\n        /* \"#utility.yul\":12584:12624   */\n      swap3\n      pop\n        /* \"#utility.yul\":12313:12630   */\n      pop\n      pop\n        /* \"#utility.yul\":12237:12630   */\n      swap4\n      swap3\n      pop\n      pop\n      pop\n      jump\t// out\n        /* \"#utility.yul\":12636:12696   */\n    tag_163:\n        /* \"#utility.yul\":12664:12667   */\n      0x00\n        /* \"#utility.yul\":12685:12690   */\n      dup2\n        /* \"#utility.yul\":12678:12690   */\n      swap1\n      pop\n        /* \"#utility.yul\":12636:12696   */\n      swap2\n      swap1\n      pop\n      jump\t// out\n        /* \"#utility.yul\":12702:12844   */\n    tag_164:\n        /* \"#utility.yul\":12752:12761   */\n      0x00\n        /* \"#utility.yul\":12785:12838   */\n      tag_302\n        /* \"#utility.yul\":12803:12837   */\n      tag_303\n        /* \"#utility.yul\":12812:12836   */\n      tag_304\n        /* \"#utility.yul\":12830:12835   */\n      dup5\n        /* \"#utility.yul\":12812:12836   */\n      tag_130\n      jump\t// in\n    tag_304:\n        /* \"#utility.yul\":12803:12837   */\n      tag_163\n      jump\t// in\n    tag_303:\n        /* \"#utility.yul\":12785:12838   */\n      tag_130\n      jump\t// in\n    tag_302:\n        /* \"#utility.yul\":12772:12838   */\n      swap1\n      pop\n        /* \"#utility.yul\":12702:12844   */\n      swap2\n      swap1\n      pop\n      jump\t// out\n        /* \"#utility.yul\":12850:12925   */\n    tag_165:\n        /* \"#utility.yul\":12893:12896   */\n      0x00\n        /* \"#utility.yul\":12914:12919   */\n      dup2\n        /* \"#utility.yul\":12907:12919   */\n      swap1\n      pop\n        /* \"#utility.yul\":12850:12925   */\n      swap2\n      swap1\n      pop\n      jump\t// out\n        /* \"#utility.yul\":12931:13200   */\n    tag_166:\n        /* \"#utility.yul\":13041:13080   */\n      tag_307\n        /* \"#utility.yul\":13072:13079   */\n      dup4\n        /* \"#utility.yul\":13041:13080   */\n      tag_164\n      jump\t// in\n    tag_307:\n        /* \"#utility.yul\":13102:13193   */\n      tag_308\n        /* \"#utility.yul\":13151:13192   */\n      tag_309\n        /* \"#utility.yul\":13175:13191   */\n      dup3\n        /* \"#utility.yul\":13151:13192   */\n      tag_165\n      jump\t// in\n    tag_309:\n        /* \"#utility.yul\":13143:13149   */\n      dup5\n        /* \"#utility.yul\":13136:13140   */\n      dup5\n        /* \"#utility.yul\":13130:13141   */\n      sload\n        /* \"#utility.yul\":13102:13193   */\n      tag_162\n      jump\t// in\n    tag_308:\n        /* \"#utility.yul\":13096:13100   */\n      dup3\n        /* \"#utility.yul\":13089:13194   */\n      sstore\n        /* \"#utility.yul\":13007:13200   */\n      pop\n        /* \"#utility.yul\":12931:13200   */\n      pop\n      pop\n      pop\n      jump\t// out\n        /* \"#utility.yul\":13206:13279   */\n    tag_167:\n        /* \"#utility.yul\":13251:13254   */\n      0x00\n        /* \"#utility.yul\":13206:13279   */\n      swap1\n      jump\t// out\n        /* \"#utility.yul\":13285:13474   */\n    tag_168:\n        /* \"#utility.yul\":13362:13394   */\n      tag_312\n      tag_167\n      jump\t// in\n    tag_312:\n        /* \"#utility.yul\":13403:13468   */\n      tag_313\n        /* \"#utility.yul\":13461:13467   */\n      dup2\n        /* \"#utility.yul\":13453:13459   */\n      dup5\n        /* \"#utility.yul\":13447:13451   */\n      dup5\n        /* \"#utility.yul\":13403:13468   */\n      tag_166\n      jump\t// in\n    tag_313:\n        /* \"#utility.yul\":13338:13474   */\n      pop\n        /* \"#utility.yul\":13285:13474   */\n      pop\n      pop\n      jump\t// out\n        /* \"#utility.yul\":13480:13666   */\n    tag_169:\n        /* \"#utility.yul\":13540:13660   */\n    tag_315:\n        /* \"#utility.yul\":13557:13560   */\n      dup2\n        /* \"#utility.yul\":13550:13555   */\n      dup2\n        /* \"#utility.yul\":13547:13561   */\n      lt\n        /* \"#utility.yul\":13540:13660   */\n      iszero\n      tag_317\n      jumpi\n        /* \"#utility.yul\":13611:13650   */\n      tag_318\n        /* \"#utility.yul\":13648:13649   */\n      0x00\n        /* \"#utility.yul\":13641:13646   */\n      dup3\n        /* \"#utility.yul\":13611:13650   */\n      tag_168\n      jump\t// in\n    tag_318:\n        /* \"#utility.yul\":13584:13585   */\n      0x01\n        /* \"#utility.yul\":13577:13582   */\n      dup2\n        /* \"#utility.yul\":13573:13586   */\n      add\n        /* \"#utility.yul\":13564:13586   */\n      swap1\n      pop\n        /* \"#utility.yul\":13540:13660   */\n      jump(tag_315)\n    tag_317:\n        /* \"#utility.yul\":13480:13666   */\n      pop\n      pop\n      jump\t// out\n        /* \"#utility.yul\":13672:14215   */\n    tag_170:\n        /* \"#utility.yul\":13773:13775   */\n      0x1f\n        /* \"#utility.yul\":13768:13771   */\n      dup3\n        /* \"#utility.yul\":13765:13776   */\n      gt\n        /* \"#utility.yul\":13762:14208   */\n      iszero\n      tag_320\n      jumpi\n        /* \"#utility.yul\":13807:13845   */\n      tag_321\n        /* \"#utility.yul\":13839:13844   */\n      dup2\n        /* \"#utility.yul\":13807:13845   */\n      tag_159\n      jump\t// in\n    tag_321:\n        /* \"#utility.yul\":13891:13920   */\n      tag_322\n        /* \"#utility.yul\":13909:13919   */\n      dup5\n        /* \"#utility.yul\":13891:13920   */\n      tag_160\n      jump\t// in\n    tag_322:\n        /* \"#utility.yul\":13881:13889   */\n      dup2\n        /* \"#utility.yul\":13877:13921   */\n      add\n        /* \"#utility.yul\":14074:14076   */\n      0x20\n        /* \"#utility.yul\":14062:14072   */\n      dup6\n        /* \"#utility.yul\":14059:14077   */\n      lt\n        /* \"#utility.yul\":14056:14105   */\n      iszero\n      tag_323\n      jumpi\n        /* \"#utility.yul\":14095:14103   */\n      dup2\n        /* \"#utility.yul\":14080:14103   */\n      swap1\n      pop\n        /* \"#utility.yul\":14056:14105   */\n    tag_323:\n        /* \"#utility.yul\":14118:14198   */\n      tag_324\n        /* \"#utility.yul\":14174:14196   */\n      tag_325\n        /* \"#utility.yul\":14192:14195   */\n      dup6\n        /* \"#utility.yul\":14174:14196   */\n      tag_160\n      jump\t// in\n    tag_325:\n        /* \"#utility.yul\":14164:14172   */\n      dup4\n        /* \"#utility.yul\":14160:14197   */\n      add\n        /* \"#utility.yul\":14147:14158   */\n      dup3\n        /* \"#utility.yul\":14118:14198   */\n      tag_169\n      jump\t// in\n    tag_324:\n        /* \"#utility.yul\":13777:14208   */\n      pop\n      pop\n        /* \"#utility.yul\":13762:14208   */\n    tag_320:\n        /* \"#utility.yul\":13672:14215   */\n      pop\n      pop\n      pop\n      jump\t// out\n        /* \"#utility.yul\":14221:14338   */\n    tag_171:\n        /* \"#utility.yul\":14275:14283   */\n      0x00\n        /* \"#utility.yul\":14325:14330   */\n      dup3\n        /* \"#utility.yul\":14319:14323   */\n      dup3\n        /* \"#utility.yul\":14315:14331   */\n      shr\n        /* \"#utility.yul\":14294:14331   */\n      swap1\n      pop\n        /* \"#utility.yul\":14221:14338   */\n      swap3\n      swap2\n      pop\n      pop\n      jump\t// out\n        /* \"#utility.yul\":14344:14513   */\n    tag_172:\n        /* \"#utility.yul\":14388:14394   */\n      0x00\n        /* \"#utility.yul\":14421:14472   */\n      tag_328\n        /* \"#utility.yul\":14469:14470   */\n      0x00\n        /* \"#utility.yul\":14465:14471   */\n      not\n        /* \"#utility.yul\":14457:14462   */\n      dup5\n        /* \"#utility.yul\":14454:14455   */\n      0x08\n        /* \"#utility.yul\":14450:14463   */\n      mul\n        /* \"#utility.yul\":14421:14472   */\n      tag_171\n      jump\t// in\n    tag_328:\n        /* \"#utility.yul\":14417:14473   */\n      not\n        /* \"#utility.yul\":14502:14506   */\n      dup1\n        /* \"#utility.yul\":14496:14500   */\n      dup4\n        /* \"#utility.yul\":14492:14507   */\n      and\n        /* \"#utility.yul\":14482:14507   */\n      swap2\n      pop\n        /* \"#utility.yul\":14395:14513   */\n      pop\n        /* \"#utility.yul\":14344:14513   */\n      swap3\n      swap2\n      pop\n      pop\n      jump\t// out\n        /* \"#utility.yul\":14518:14813   */\n    tag_173:\n        /* \"#utility.yul\":14594:14598   */\n      0x00\n        /* \"#utility.yul\":14740:14769   */\n      tag_330\n        /* \"#utility.yul\":14765:14768   */\n      dup4\n        /* \"#utility.yul\":14759:14763   */\n      dup4\n        /* \"#utility.yul\":14740:14769   */\n      tag_172\n      jump\t// in\n    tag_330:\n        /* \"#utility.yul\":14732:14769   */\n      swap2\n      pop\n        /* \"#utility.yul\":14802:14805   */\n      dup3\n        /* \"#utility.yul\":14799:14800   */\n      0x02\n        /* \"#utility.yul\":14795:14806   */\n      mul\n        /* \"#utility.yul\":14789:14793   */\n      dup3\n        /* \"#utility.yul\":14786:14807   */\n      or\n        /* \"#utility.yul\":14778:14807   */\n      swap1\n      pop\n        /* \"#utility.yul\":14518:14813   */\n      swap3\n      swap2\n      pop\n      pop\n      jump\t// out\n        /* \"#utility.yul\":14818:16213   */\n    tag_59:\n        /* \"#utility.yul\":14935:14972   */\n      tag_332\n        /* \"#utility.yul\":14968:14971   */\n      dup3\n        /* \"#utility.yul\":14935:14972   */\n      tag_147\n      jump\t// in\n    tag_332:\n        /* \"#utility.yul\":15037:15055   */\n      0xffffffffffffffff\n        /* \"#utility.yul\":15029:15035   */\n      dup2\n        /* \"#utility.yul\":15026:15056   */\n      gt\n        /* \"#utility.yul\":15023:15079   */\n      iszero\n      tag_333\n      jumpi\n        /* \"#utility.yul\":15059:15077   */\n      tag_334\n      tag_37\n      jump\t// in\n    tag_334:\n        /* \"#utility.yul\":15023:15079   */\n    tag_333:\n        /* \"#utility.yul\":15103:15141   */\n      tag_335\n        /* \"#utility.yul\":15135:15139   */\n      dup3\n        /* \"#utility.yul\":15129:15140   */\n      sload\n        /* \"#utility.yul\":15103:15141   */\n      tag_61\n      jump\t// in\n    tag_335:\n        /* \"#utility.yul\":15188:15255   */\n      tag_336\n        /* \"#utility.yul\":15248:15254   */\n      dup3\n        /* \"#utility.yul\":15240:15246   */\n      dup3\n        /* \"#utility.yul\":15234:15238   */\n      dup6\n        /* \"#utility.yul\":15188:15255   */\n      tag_170\n      jump\t// in\n    tag_336:\n        /* \"#utility.yul\":15282:15283   */\n      0x00\n        /* \"#utility.yul\":15306:15310   */\n      0x20\n        /* \"#utility.yul\":15293:15310   */\n      swap1\n      pop\n        /* \"#utility.yul\":15338:15340   */\n      0x1f\n        /* \"#utility.yul\":15330:15336   */\n      dup4\n        /* \"#utility.yul\":15327:15341   */\n      gt\n        /* \"#utility.yul\":15355:15356   */\n      0x01\n        /* \"#utility.yul\":15350:15968   */\n      dup2\n      eq\n      tag_338\n      jumpi\n        /* \"#utility.yul\":16012:16013   */\n      0x00\n        /* \"#utility.yul\":16029:16035   */\n      dup5\n        /* \"#utility.yul\":16026:16103   */\n      iszero\n      tag_339\n      jumpi\n        /* \"#utility.yul\":16078:16087   */\n      dup3\n        /* \"#utility.yul\":16073:16076   */\n      dup8\n        /* \"#utility.yul\":16069:16088   */\n      add\n        /* \"#utility.yul\":16063:16089   */\n      mload\n        /* \"#utility.yul\":16054:16089   */\n      swap1\n      pop\n        /* \"#utility.yul\":16026:16103   */\n    tag_339:\n        /* \"#utility.yul\":16129:16196   */\n      tag_340\n        /* \"#utility.yul\":16189:16195   */\n      dup6\n        /* \"#utility.yul\":16182:16187   */\n      dup3\n        /* \"#utility.yul\":16129:16196   */\n      tag_173\n      jump\t// in\n    tag_340:\n        /* \"#utility.yul\":16123:16127   */\n      dup7\n        /* \"#utility.yul\":16116:16197   */\n      sstore\n        /* \"#utility.yul\":15985:16207   */\n      pop\n        /* \"#utility.yul\":15320:16207   */\n      jump(tag_337)\n        /* \"#utility.yul\":15350:15968   */\n    tag_338:\n        /* \"#utility.yul\":15402:15406   */\n      0x1f\n        /* \"#utility.yul\":15398:15407   */\n      not\n        /* \"#utility.yul\":15390:15396   */\n      dup5\n        /* \"#utility.yul\":15386:15408   */\n      and\n        /* \"#utility.yul\":15436:15473   */\n      tag_341\n        /* \"#utility.yul\":15468:15472   */\n      dup7\n        /* \"#utility.yul\":15436:15473   */\n      tag_159\n      jump\t// in\n    tag_341:\n        /* \"#utility.yul\":15495:15496   */\n      0x00\n        /* \"#utility.yul\":15509:15717   */\n    tag_342:\n        /* \"#utility.yul\":15523:15530   */\n      dup3\n        /* \"#utility.yul\":15520:15521   */\n      dup2\n        /* \"#utility.yul\":15517:15531   */\n      lt\n        /* \"#utility.yul\":15509:15717   */\n      iszero\n      tag_344\n      jumpi\n        /* \"#utility.yul\":15602:15611   */\n      dup5\n        /* \"#utility.yul\":15597:15600   */\n      dup10\n        /* \"#utility.yul\":15593:15612   */\n      add\n        /* \"#utility.yul\":15587:15613   */\n      mload\n        /* \"#utility.yul\":15579:15585   */\n      dup3\n        /* \"#utility.yul\":15572:15614   */\n      sstore\n        /* \"#utility.yul\":15653:15654   */\n      0x01\n        /* \"#utility.yul\":15645:15651   */\n      dup3\n        /* \"#utility.yul\":15641:15655   */\n      add\n        /* \"#utility.yul\":15631:15655   */\n      swap2\n      pop\n        /* \"#utility.yul\":15700:15702   */\n      0x20\n        /* \"#utility.yul\":15689:15698   */\n      dup6\n        /* \"#utility.yul\":15685:15703   */\n      add\n        /* \"#utility.yul\":15672:15703   */\n      swap5\n      pop\n        /* \"#utility.yul\":15546:15550   */\n      0x20\n        /* \"#utility.yul\":15543:15544   */\n      dup2\n        /* \"#utility.yul\":15539:15551   */\n      add\n        /* \"#utility.yul\":15534:15551   */\n      swap1\n      pop\n        /* \"#utility.yul\":15509:15717   */\n      jump(tag_342)\n    tag_344:\n        /* \"#utility.yul\":15745:15751   */\n      dup7\n        /* \"#utility.yul\":15736:15743   */\n      dup4\n        /* \"#utility.yul\":15733:15752   */\n      lt\n        /* \"#utility.yul\":15730:15909   */\n      iszero\n      tag_345\n      jumpi\n        /* \"#utility.yul\":15803:15812   */\n      dup5\n        /* \"#utility.yul\":15798:15801   */\n      dup10\n        /* \"#utility.yul\":15794:15813   */\n      add\n        /* \"#utility.yul\":15788:15814   */\n      mload\n        /* \"#utility.yul\":15846:15894   */\n      tag_346\n        /* \"#utility.yul\":15888:15892   */\n      0x1f\n        /* \"#utility.yul\":15880:15886   */\n      dup10\n        /* \"#utility.yul\":15876:15893   */\n      and\n        /* \"#utility.yul\":15865:15874   */\n      dup3\n        /* \"#utility.yul\":15846:15894   */\n      tag_172\n      jump\t// in\n    tag_346:\n        /* \"#utility.yul\":15838:15844   */\n      dup4\n        /* \"#utility.yul\":15831:15895   */\n      sstore\n        /* \"#utility.yul\":15753:15909   */\n      pop\n        /* \"#utility.yul\":15730:15909   */\n    tag_345:\n        /* \"#utility.yul\":15955:15956   */\n      0x01\n        /* \"#utility.yul\":15951:15952   */\n      0x02\n        /* \"#utility.yul\":15943:15949   */\n      dup9\n        /* \"#utility.yul\":15939:15953   */\n      mul\n        /* \"#utility.yul\":15935:15957   */\n      add\n        /* \"#utility.yul\":15929:15933   */\n      dup9\n        /* \"#utility.yul\":15922:15958   */\n      sstore\n        /* \"#utility.yul\":15357:15968   */\n      pop\n      pop\n      pop\n        /* \"#utility.yul\":15320:16207   */\n    tag_337:\n      pop\n        /* \"#utility.yul\":14910:16213   */\n      pop\n      pop\n      pop\n        /* \"#utility.yul\":14818:16213   */\n      pop\n      pop\n      jump\t// out\n        /* \"#utility.yul\":16219:16494   */\n    tag_67:\n        /* \"#utility.yul\":16351:16354   */\n      0x00\n        /* \"#utility.yul\":16373:16468   */\n      tag_348\n        /* \"#utility.yul\":16464:16467   */\n      dup3\n        /* \"#utility.yul\":16455:16461   */\n      dup5\n        /* \"#utility.yul\":16373:16468   */\n      tag_157\n      jump\t// in\n    tag_348:\n        /* \"#utility.yul\":16366:16468   */\n      swap2\n      pop\n        /* \"#utility.yul\":16485:16488   */\n      dup2\n        /* \"#utility.yul\":16478:16488   */\n      swap1\n      pop\n        /* \"#utility.yul\":16219:16494   */\n      swap3\n      swap2\n      pop\n      pop\n      jump\t// out\n        /* \"#utility.yul\":16500:16680   */\n    tag_174:\n        /* \"#utility.yul\":16548:16625   */\n      0x4e487b7100000000000000000000000000000000000000000000000000000000\n        /* \"#utility.yul\":16545:16546   */\n      0x00\n        /* \"#utility.yul\":16538:16626   */\n      mstore\n        /* \"#utility.yul\":16645:16649   */\n      0x11\n        /* \"#utility.yul\":16642:16643   */\n      0x04\n        /* \"#utility.yul\":16635:16650   */\n      mstore\n        /* \"#utility.yul\":16669:16673   */\n      0x24\n        /* \"#utility.yul\":16666:16667   */\n      0x00\n        /* \"#utility.yul\":16659:16674   */\n      revert\n        /* \"#utility.yul\":16686:16877   */\n    tag_69:\n        /* \"#utility.yul\":16726:16729   */\n      0x00\n        /* \"#utility.yul\":16745:16765   */\n      tag_351\n        /* \"#utility.yul\":16763:16764   */\n      dup3\n        /* \"#utility.yul\":16745:16765   */\n      tag_130\n      jump\t// in\n    tag_351:\n        /* \"#utility.yul\":16740:16765   */\n      swap2\n      pop\n        /* \"#utility.yul\":16779:16799   */\n      tag_352\n        /* \"#utility.yul\":16797:16798   */\n      dup4\n        /* \"#utility.yul\":16779:16799   */\n      tag_130\n      jump\t// in\n    tag_352:\n        /* \"#utility.yul\":16774:16799   */\n      swap3\n      pop\n        /* \"#utility.yul\":16822:16823   */\n      dup3\n        /* \"#utility.yul\":16819:16820   */\n      dup3\n        /* \"#utility.yul\":16815:16824   */\n      add\n        /* \"#utility.yul\":16808:16824   */\n      swap1\n      pop\n        /* \"#utility.yul\":16843:16846   */\n      dup1\n        /* \"#utility.yul\":16840:16841   */\n      dup3\n        /* \"#utility.yul\":16837:16847   */\n      gt\n        /* \"#utility.yul\":16834:16870   */\n      iszero\n      tag_353\n      jumpi\n        /* \"#utility.yul\":16850:16868   */\n      tag_354\n      tag_174\n      jump\t// in\n    tag_354:\n        /* \"#utility.yul\":16834:16870   */\n    tag_353:\n        /* \"#utility.yul\":16686:16877   */\n      swap3\n      swap2\n      pop\n      pop\n      jump\t// out\n        /* \"#utility.yul\":16883:17051   */\n    tag_175:\n        /* \"#utility.yul\":17023:17043   */\n      0x4e616d65206e6f7420617661696c61626c650000000000000000000000000000\n        /* \"#utility.yul\":17019:17020   */\n      0x00\n        /* \"#utility.yul\":17011:17017   */\n      dup3\n        /* \"#utility.yul\":17007:17021   */\n      add\n        /* \"#utility.yul\":17000:17044   */\n      mstore\n        /* \"#utility.yul\":16883:17051   */\n      pop\n      jump\t// out\n        /* \"#utility.yul\":17057:17423   */\n    tag_176:\n        /* \"#utility.yul\":17199:17202   */\n      0x00\n        /* \"#utility.yul\":17220:17287   */\n      tag_357\n        /* \"#utility.yul\":17284:17286   */\n      0x12\n        /* \"#utility.yul\":17279:17282   */\n      dup4\n        /* \"#utility.yul\":17220:17287   */\n      tag_148\n      jump\t// in\n    tag_357:\n        /* \"#utility.yul\":17213:17287   */\n      swap2\n      pop\n        /* \"#utility.yul\":17296:17389   */\n      tag_358\n        /* \"#utility.yul\":17385:17388   */\n      dup3\n        /* \"#utility.yul\":17296:17389   */\n      tag_175\n      jump\t// in\n    tag_358:\n        /* \"#utility.yul\":17414:17416   */\n      0x20\n        /* \"#utility.yul\":17409:17412   */\n      dup3\n        /* \"#utility.yul\":17405:17417   */\n      add\n        /* \"#utility.yul\":17398:17417   */\n      swap1\n      pop\n        /* \"#utility.yul\":17057:17423   */\n      swap2\n      swap1\n      pop\n      jump\t// out\n        /* \"#utility.yul\":17429:17848   */\n    tag_74:\n        /* \"#utility.yul\":17595:17599   */\n      0x00\n        /* \"#utility.yul\":17633:17635   */\n      0x20\n        /* \"#utility.yul\":17622:17631   */\n      dup3\n        /* \"#utility.yul\":17618:17636   */\n      add\n        /* \"#utility.yul\":17610:17636   */\n      swap1\n      pop\n        /* \"#utility.yul\":17682:17691   */\n      dup2\n        /* \"#utility.yul\":17676:17680   */\n      dup2\n        /* \"#utility.yul\":17672:17692   */\n      sub\n        /* \"#utility.yul\":17668:17669   */\n      0x00\n        /* \"#utility.yul\":17657:17666   */\n      dup4\n        /* \"#utility.yul\":17653:17670   */\n      add\n        /* \"#utility.yul\":17646:17693   */\n      mstore\n        /* \"#utility.yul\":17710:17841   */\n      tag_360\n        /* \"#utility.yul\":17836:17840   */\n      dup2\n        /* \"#utility.yul\":17710:17841   */\n      tag_176\n      jump\t// in\n    tag_360:\n        /* \"#utility.yul\":17702:17841   */\n      swap1\n      pop\n        /* \"#utility.yul\":17429:17848   */\n      swap2\n      swap1\n      pop\n      jump\t// out\n        /* \"#utility.yul\":17854:18023   */\n    tag_177:\n        /* \"#utility.yul\":17994:18015   */\n      0x5573657220646f6573206e6f7420657869737400000000000000000000000000\n        /* \"#utility.yul\":17990:17991   */\n      0x00\n        /* \"#utility.yul\":17982:17988   */\n      dup3\n        /* \"#utility.yul\":17978:17992   */\n      add\n        /* \"#utility.yul\":17971:18016   */\n      mstore\n        /* \"#utility.yul\":17854:18023   */\n      pop\n      jump\t// out\n        /* \"#utility.yul\":18029:18395   */\n    tag_178:\n        /* \"#utility.yul\":18171:18174   */\n      0x00\n        /* \"#utility.yul\":18192:18259   */\n      tag_363\n        /* \"#utility.yul\":18256:18258   */\n      0x13\n        /* \"#utility.yul\":18251:18254   */\n      dup4\n        /* \"#utility.yul\":18192:18259   */\n      tag_148\n      jump\t// in\n    tag_363:\n        /* \"#utility.yul\":18185:18259   */\n      swap2\n      pop\n        /* \"#utility.yul\":18268:18361   */\n      tag_364\n        /* \"#utility.yul\":18357:18360   */\n      dup3\n        /* \"#utility.yul\":18268:18361   */\n      tag_177\n      jump\t// in\n    tag_364:\n        /* \"#utility.yul\":18386:18388   */\n      0x20\n        /* \"#utility.yul\":18381:18384   */\n      dup3\n        /* \"#utility.yul\":18377:18389   */\n      add\n        /* \"#utility.yul\":18370:18389   */\n      swap1\n      pop\n        /* \"#utility.yul\":18029:18395   */\n      swap2\n      swap1\n      pop\n      jump\t// out\n        /* \"#utility.yul\":18401:18820   */\n    tag_77:\n        /* \"#utility.yul\":18567:18571   */\n      0x00\n        /* \"#utility.yul\":18605:18607   */\n      0x20\n        /* \"#utility.yul\":18594:18603   */\n      dup3\n        /* \"#utility.yul\":18590:18608   */\n      add\n        /* \"#utility.yul\":18582:18608   */\n      swap1\n      pop\n        /* \"#utility.yul\":18654:18663   */\n      dup2\n        /* \"#utility.yul\":18648:18652   */\n      dup2\n        /* \"#utility.yul\":18644:18664   */\n      sub\n        /* \"#utility.yul\":18640:18641   */\n      0x00\n        /* \"#utility.yul\":18629:18638   */\n      dup4\n        /* \"#utility.yul\":18625:18642   */\n      add\n        /* \"#utility.yul\":18618:18665   */\n      mstore\n        /* \"#utility.yul\":18682:18813   */\n      tag_366\n        /* \"#utility.yul\":18808:18812   */\n      dup2\n        /* \"#utility.yul\":18682:18813   */\n      tag_178\n      jump\t// in\n    tag_366:\n        /* \"#utility.yul\":18674:18813   */\n      swap1\n      pop\n        /* \"#utility.yul\":18401:18820   */\n      swap2\n      swap1\n      pop\n      jump\t// out\n        /* \"#utility.yul\":18826:18996   */\n    tag_179:\n        /* \"#utility.yul\":18966:18988   */\n      0x55736572206e6f742077686974656c6973746564000000000000000000000000\n        /* \"#utility.yul\":18962:18963   */\n      0x00\n        /* \"#utility.yul\":18954:18960   */\n      dup3\n        /* \"#utility.yul\":18950:18964   */\n      add\n        /* \"#utility.yul\":18943:18989   */\n      mstore\n        /* \"#utility.yul\":18826:18996   */\n      pop\n      jump\t// out\n        /* \"#utility.yul\":19002:19368   */\n    tag_180:\n        /* \"#utility.yul\":19144:19147   */\n      0x00\n        /* \"#utility.yul\":19165:19232   */\n      tag_369\n        /* \"#utility.yul\":19229:19231   */\n      0x14\n        /* \"#utility.yul\":19224:19227   */\n      dup4\n        /* \"#utility.yul\":19165:19232   */\n      tag_148\n      jump\t// in\n    tag_369:\n        /* \"#utility.yul\":19158:19232   */\n      swap2\n      pop\n        /* \"#utility.yul\":19241:19334   */\n      tag_370\n        /* \"#utility.yul\":19330:19333   */\n      dup3\n        /* \"#utility.yul\":19241:19334   */\n      tag_179\n      jump\t// in\n    tag_370:\n        /* \"#utility.yul\":19359:19361   */\n      0x20\n        /* \"#utility.yul\":19354:19357   */\n      dup3\n        /* \"#utility.yul\":19350:19362   */\n      add\n        /* \"#utility.yul\":19343:19362   */\n      swap1\n      pop\n        /* \"#utility.yul\":19002:19368   */\n      swap2\n      swap1\n      pop\n      jump\t// out\n        /* \"#utility.yul\":19374:19793   */\n    tag_83:\n        /* \"#utility.yul\":19540:19544   */\n      0x00\n        /* \"#utility.yul\":19578:19580   */\n      0x20\n        /* \"#utility.yul\":19567:19576   */\n      dup3\n        /* \"#utility.yul\":19563:19581   */\n      add\n        /* \"#utility.yul\":19555:19581   */\n      swap1\n      pop\n        /* \"#utility.yul\":19627:19636   */\n      dup2\n        /* \"#utility.yul\":19621:19625   */\n      dup2\n        /* \"#utility.yul\":19617:19637   */\n      sub\n        /* \"#utility.yul\":19613:19614   */\n      0x00\n        /* \"#utility.yul\":19602:19611   */\n      dup4\n        /* \"#utility.yul\":19598:19615   */\n      add\n        /* \"#utility.yul\":19591:19638   */\n      mstore\n        /* \"#utility.yul\":19655:19786   */\n      tag_372\n        /* \"#utility.yul\":19781:19785   */\n      dup2\n        /* \"#utility.yul\":19655:19786   */\n      tag_180\n      jump\t// in\n    tag_372:\n        /* \"#utility.yul\":19647:19786   */\n      swap1\n      pop\n        /* \"#utility.yul\":19374:19793   */\n      swap2\n      swap1\n      pop\n      jump\t// out\n        /* \"#utility.yul\":19799:19979   */\n    tag_99:\n        /* \"#utility.yul\":19847:19924   */\n      0x4e487b7100000000000000000000000000000000000000000000000000000000\n        /* \"#utility.yul\":19844:19845   */\n      0x00\n        /* \"#utility.yul\":19837:19925   */\n      mstore\n        /* \"#utility.yul\":19944:19948   */\n      0x12\n        /* \"#utility.yul\":19941:19942   */\n      0x04\n        /* \"#utility.yul\":19934:19949   */\n      mstore\n        /* \"#utility.yul\":19968:19972   */\n      0x24\n        /* \"#utility.yul\":19965:19966   */\n      0x00\n        /* \"#utility.yul\":19958:19973   */\n      revert\n\n    auxdata: 0xa2646970667358221220583fb8c10a9cce192958a3cc69b464db93bd77ee1fe9d3c7569e4a32723b539e64736f6c634300081a0033\n}\n",
				"bytecode": {
					"linkReferences": {},
					"object": "608060405234801561000f575f80fd5b5060405161202838038061202883398181016040528101906100319190610418565b335f80015f6101000a81548173ffffffffffffffffffffffffffffffffffffffff021916908373ffffffffffffffffffffffffffffffffffffffff1602179055505f8060010181905550805f600201908161008c919061066c565b505f60045f3373ffffffffffffffffffffffffffffffffffffffff1673ffffffffffffffffffffffffffffffffffffffff1681526020019081526020015f205f82015f9054906101000a900473ffffffffffffffffffffffffffffffffffffffff16815f015f6101000a81548173ffffffffffffffffffffffffffffffffffffffff021916908373ffffffffffffffffffffffffffffffffffffffff160217905550600182015481600101556002820181600201908161014c9190610750565b50905050600160055f805f015f9054906101000a900473ffffffffffffffffffffffffffffffffffffffff1673ffffffffffffffffffffffffffffffffffffffff1673ffffffffffffffffffffffffffffffffffffffff1681526020019081526020015f205f6101000a81548160ff0219169083151502179055505f80015f9054906101000a900473ffffffffffffffffffffffffffffffffffffffff1660065f806001015481526020019081526020015f205f6101000a81548173ffffffffffffffffffffffffffffffffffffffff021916908373ffffffffffffffffffffffffffffffffffffffff1602179055505f80015f9054906101000a900473ffffffffffffffffffffffffffffffffffffffff1660075f60020160405161027291906108bf565b90815260200160405180910390205f6101000a81548173ffffffffffffffffffffffffffffffffffffffff021916908373ffffffffffffffffffffffffffffffffffffffff1602179055506001600881905550506108d5565b5f604051905090565b5f80fd5b5f80fd5b5f80fd5b5f80fd5b5f601f19601f8301169050919050565b7f4e487b71000000000000000000000000000000000000000000000000000000005f52604160045260245ffd5b61032a826102e4565b810181811067ffffffffffffffff82111715610349576103486102f4565b5b80604052505050565b5f61035b6102cb565b90506103678282610321565b919050565b5f67ffffffffffffffff821115610386576103856102f4565b5b61038f826102e4565b9050602081019050919050565b8281835e5f83830152505050565b5f6103bc6103b78461036c565b610352565b9050828152602081018484840111156103d8576103d76102e0565b5b6103e384828561039c565b509392505050565b5f82601f8301126103ff576103fe6102dc565b5b815161040f8482602086016103aa565b91505092915050565b5f6020828403121561042d5761042c6102d4565b5b5f82015167ffffffffffffffff81111561044a576104496102d8565b5b610456848285016103eb565b91505092915050565b5f81519050919050565b7f4e487b71000000000000000000000000000000000000000000000000000000005f52602260045260245ffd5b5f60028204905060018216806104ad57607f821691505b6020821081036104c0576104bf610469565b5b50919050565b5f819050815f5260205f209050919050565b5f6020601f8301049050919050565b5f82821b905092915050565b5f600883026105227fffffffffffffffffffffffffffffffffffffffffffffffffffffffffffffffff826104e7565b61052c86836104e7565b95508019841693508086168417925050509392505050565b5f819050919050565b5f819050919050565b5f61057061056b61056684610544565b61054d565b610544565b9050919050565b5f819050919050565b61058983610556565b61059d61059582610577565b8484546104f3565b825550505050565b5f90565b6105b16105a5565b6105bc818484610580565b505050565b5b818110156105df576105d45f826105a9565b6001810190506105c2565b5050565b601f821115610624576105f5816104c6565b6105fe846104d8565b8101602085101561060d578190505b610621610619856104d8565b8301826105c1565b50505b505050565b5f82821c905092915050565b5f6106445f1984600802610629565b1980831691505092915050565b5f61065c8383610635565b9150826002028217905092915050565b6106758261045f565b67ffffffffffffffff81111561068e5761068d6102f4565b5b6106988254610496565b6106a38282856105e3565b5f60209050601f8311600181146106d4575f84156106c2578287015190505b6106cc8582610651565b865550610733565b601f1984166106e2866104c6565b5f5b82811015610709578489015182556001820191506020850194506020810190506106e4565b868310156107265784890151610722601f891682610635565b8355505b6001600288020188555050505b505050505050565b5f8154905061074981610496565b9050919050565b81810361075e575050610833565b6107678261073b565b67ffffffffffffffff8111156107805761077f6102f4565b5b61078a8254610496565b6107958282856105e3565b5f601f8311600181146107c2575f84156107b0578287015490505b6107ba8582610651565b86555061082c565b601f1984166107d0876104c6565b96506107db866104c6565b5f5b82811015610802578489015482556001820191506001850194506020810190506107dd565b8683101561081f578489015461081b601f891682610635565b8355505b6001600288020188555050505b5050505050505b565b5f81905092915050565b5f815461084b81610496565b6108558186610835565b9450600182165f811461086f5760018114610884576108b6565b60ff19831686528115158202860193506108b6565b61088d856104c6565b5f5b838110156108ae5781548189015260018201915060208101905061088f565b838801955050505b50505092915050565b5f6108ca828461083f565b915081905092915050565b611746806108e25f395ff3fe608060405234801561000f575f80fd5b5060043610610060575f3560e01c80630e1a1ea81461006457806343f7bde5146100825780634a4c560d146100a05780634bcab57d146100bc57806396dbc141146100d8578063c63676ac146100f6575b5f80fd5b61006c610126565b6040516100799190610dbc565b60405180910390f35b61008a6102e7565b6040516100979190610df4565b60405180910390f35b6100ba60048036038101906100b59190610e48565b6102ed565b005b6100d660048036038101906100d19190610faf565b6107ae565b005b6100e0610938565b6040516100ed9190611005565b60405180910390f35b610110600480360381019061010b9190610e48565b610961565b60405161011d919061107e565b60405180910390f35b60605f60085467ffffffffffffffff81111561014557610144610e8b565b5b6040519080825280602002602001820160405280156101735781602001602082028036833780820191505090505b5090505f80015f9054906101000a900473ffffffffffffffffffffffffffffffffffffffff16815f815181106101ac576101ab61109e565b5b602002602001019073ffffffffffffffffffffffffffffffffffffffff16908173ffffffffffffffffffffffffffffffffffffffff16815250505f600190505b6008548110156102df5760045f60065f8481526020019081526020015f205f9054906101000a900473ffffffffffffffffffffffffffffffffffffffff1673ffffffffffffffffffffffffffffffffffffffff1673ffffffffffffffffffffffffffffffffffffffff1681526020019081526020015f205f015f9054906101000a900473ffffffffffffffffffffffffffffffffffffffff168282815181106102985761029761109e565b5b602002602001019073ffffffffffffffffffffffffffffffffffffffff16908173ffffffffffffffffffffffffffffffffffffffff168152505080806001019150506101ec565b508091505090565b60085481565b5f80015f9054906101000a900473ffffffffffffffffffffffffffffffffffffffff1673ffffffffffffffffffffffffffffffffffffffff163373ffffffffffffffffffffffffffffffffffffffff161461037d576040517f08c379a00000000000000000000000000000000000000000000000000000000081526004016103749061113b565b60405180910390fd5b60055f8273ffffffffffffffffffffffffffffffffffffffff1673ffffffffffffffffffffffffffffffffffffffff1681526020019081526020015f205f9054906101000a900460ff1615610407576040517f08c379a00000000000000000000000000000000000000000000000000000000081526004016103fe906111c9565b60405180910390fd5b60405180606001604052808273ffffffffffffffffffffffffffffffffffffffff1681526020016008548152602001610441600854610aba565b6040516020016104519190611247565b60405160208183030381529060405281525060045f8373ffffffffffffffffffffffffffffffffffffffff1673ffffffffffffffffffffffffffffffffffffffff1681526020019081526020015f205f820151815f015f6101000a81548173ffffffffffffffffffffffffffffffffffffffff021916908373ffffffffffffffffffffffffffffffffffffffff1602179055506020820151816001015560408201518160020190816105039190611466565b509050505f60045f8373ffffffffffffffffffffffffffffffffffffffff1673ffffffffffffffffffffffffffffffffffffffff1681526020019081526020015f206040518060600160405290815f82015f9054906101000a900473ffffffffffffffffffffffffffffffffffffffff1673ffffffffffffffffffffffffffffffffffffffff1673ffffffffffffffffffffffffffffffffffffffff168152602001600182015481526020016002820180546105be90611299565b80601f01602080910402602001604051908101604052809291908181526020018280546105ea90611299565b80156106355780601f1061060c57610100808354040283529160200191610635565b820191905f5260205f20905b81548152906001019060200180831161061857829003601f168201915b5050505050815250509050600160055f8473ffffffffffffffffffffffffffffffffffffffff1673ffffffffffffffffffffffffffffffffffffffff1681526020019081526020015f205f6101000a81548160ff021916908315150217905550805f015160065f836020015181526020019081526020015f205f6101000a81548173ffffffffffffffffffffffffffffffffffffffff021916908373ffffffffffffffffffffffffffffffffffffffff160217905550805f0151600782604001516040516107039190611535565b90815260200160405180910390205f6101000a81548173ffffffffffffffffffffffffffffffffffffffff021916908373ffffffffffffffffffffffffffffffffffffffff160217905550600160085f8282546107609190611578565b925050819055508173ffffffffffffffffffffffffffffffffffffffff167f19ef9a4877199f89440a26acb26895ec02ed86f2df1aeaa90dc18041b892f71f60405160405180910390a25050565b5f73ffffffffffffffffffffffffffffffffffffffff166007826040516107d59190611535565b90815260200160405180910390205f9054906101000a900473ffffffffffffffffffffffffffffffffffffffff1673ffffffffffffffffffffffffffffffffffffffff1614610859576040517f08c379a0000000000000000000000000000000000000000000000000000000008152600401610850906115f5565b60405180910390fd5b60055f3373ffffffffffffffffffffffffffffffffffffffff1673ffffffffffffffffffffffffffffffffffffffff1681526020019081526020015f205f9054906101000a900460ff166108e2576040517f08c379a00000000000000000000000000000000000000000000000000000000081526004016108d99061165d565b60405180910390fd5b5f60045f3373ffffffffffffffffffffffffffffffffffffffff1673ffffffffffffffffffffffffffffffffffffffff1681526020019081526020015f209050818160020190816109339190611466565b505050565b5f805f015f9054906101000a900473ffffffffffffffffffffffffffffffffffffffff16905090565b606060055f8373ffffffffffffffffffffffffffffffffffffffff1673ffffffffffffffffffffffffffffffffffffffff1681526020019081526020015f205f9054906101000a900460ff166109ec576040517f08c379a00000000000000000000000000000000000000000000000000000000081526004016109e3906116c5565b60405180910390fd5b60045f8373ffffffffffffffffffffffffffffffffffffffff1673ffffffffffffffffffffffffffffffffffffffff1681526020019081526020015f206002018054610a3790611299565b80601f0160208091040260200160405190810160405280929190818152602001828054610a6390611299565b8015610aae5780601f10610a8557610100808354040283529160200191610aae565b820191905f5260205f20905b815481529060010190602001808311610a9157829003601f168201915b50505050509050919050565b60605f6001610ac884610b84565b0190505f8167ffffffffffffffff811115610ae657610ae5610e8b565b5b6040519080825280601f01601f191660200182016040528015610b185781602001600182028036833780820191505090505b5090505f82602001820190505b600115610b79578080600190039150507f3031323334353637383961626364656600000000000000000000000000000000600a86061a8153600a8581610b6e57610b6d6116e3565b5b0494505f8503610b25575b819350505050919050565b5f805f90507a184f03e93ff9f4daa797ed6e38ed64bf6a1f0100000000000000008310610be0577a184f03e93ff9f4daa797ed6e38ed64bf6a1f0100000000000000008381610bd657610bd56116e3565b5b0492506040810190505b6d04ee2d6d415b85acef81000000008310610c1d576d04ee2d6d415b85acef81000000008381610c1357610c126116e3565b5b0492506020810190505b662386f26fc100008310610c4c57662386f26fc100008381610c4257610c416116e3565b5b0492506010810190505b6305f5e1008310610c75576305f5e1008381610c6b57610c6a6116e3565b5b0492506008810190505b6127108310610c9a576127108381610c9057610c8f6116e3565b5b0492506004810190505b60648310610cbd5760648381610cb357610cb26116e3565b5b0492506002810190505b600a8310610ccc576001810190505b80915050919050565b5f81519050919050565b5f82825260208201905092915050565b5f819050602082019050919050565b5f73ffffffffffffffffffffffffffffffffffffffff82169050919050565b5f610d2782610cfe565b9050919050565b610d3781610d1d565b82525050565b5f610d488383610d2e565b60208301905092915050565b5f602082019050919050565b5f610d6a82610cd5565b610d748185610cdf565b9350610d7f83610cef565b805f5b83811015610daf578151610d968882610d3d565b9750610da183610d54565b925050600181019050610d82565b5085935050505092915050565b5f6020820190508181035f830152610dd48184610d60565b905092915050565b5f819050919050565b610dee81610ddc565b82525050565b5f602082019050610e075f830184610de5565b92915050565b5f604051905090565b5f80fd5b5f80fd5b610e2781610d1d565b8114610e31575f80fd5b50565b5f81359050610e4281610e1e565b92915050565b5f60208284031215610e5d57610e5c610e16565b5b5f610e6a84828501610e34565b91505092915050565b5f80fd5b5f80fd5b5f601f19601f8301169050919050565b7f4e487b71000000000000000000000000000000000000000000000000000000005f52604160045260245ffd5b610ec182610e7b565b810181811067ffffffffffffffff82111715610ee057610edf610e8b565b5b80604052505050565b5f610ef2610e0d565b9050610efe8282610eb8565b919050565b5f67ffffffffffffffff821115610f1d57610f1c610e8b565b5b610f2682610e7b565b9050602081019050919050565b828183375f83830152505050565b5f610f53610f4e84610f03565b610ee9565b905082815260208101848484011115610f6f57610f6e610e77565b5b610f7a848285610f33565b509392505050565b5f82601f830112610f9657610f95610e73565b5b8135610fa6848260208601610f41565b91505092915050565b5f60208284031215610fc457610fc3610e16565b5b5f82013567ffffffffffffffff811115610fe157610fe0610e1a565b5b610fed84828501610f82565b91505092915050565b610fff81610d1d565b82525050565b5f6020820190506110185f830184610ff6565b92915050565b5f81519050919050565b5f82825260208201905092915050565b8281835e5f83830152505050565b5f6110508261101e565b61105a8185611028565b935061106a818560208601611038565b61107381610e7b565b840191505092915050565b5f6020820190508181035f8301526110968184611046565b905092915050565b7f4e487b71000000000000000000000000000000000000000000000000000000005f52603260045260245ffd5b7f4f6e6c792064726976654f776e65722063616e2077686974656c6973742074685f8201527f6520757365720000000000000000000000000000000000000000000000000000602082015250565b5f611125602683611028565b9150611130826110cb565b604082019050919050565b5f6020820190508181035f83015261115281611119565b9050919050565b7f54686520616464726573732068617320616c7265616479206265656e207768695f8201527f74656c6973746564000000000000000000000000000000000000000000000000602082015250565b5f6111b3602883611028565b91506111be82611159565b604082019050919050565b5f6020820190508181035f8301526111e0816111a7565b9050919050565b7f5573657220000000000000000000000000000000000000000000000000000000815250565b5f81905092915050565b5f6112218261101e565b61122b818561120d565b935061123b818560208601611038565b80840191505092915050565b5f611251826111e7565b6005820191506112618284611217565b915081905092915050565b7f4e487b71000000000000000000000000000000000000000000000000000000005f52602260045260245ffd5b5f60028204905060018216806112b057607f821691505b6020821081036112c3576112c261126c565b5b50919050565b5f819050815f5260205f209050919050565b5f6020601f8301049050919050565b5f82821b905092915050565b5f600883026113257fffffffffffffffffffffffffffffffffffffffffffffffffffffffffffffffff826112ea565b61132f86836112ea565b95508019841693508086168417925050509392505050565b5f819050919050565b5f61136a61136561136084610ddc565b611347565b610ddc565b9050919050565b5f819050919050565b61138383611350565b61139761138f82611371565b8484546112f6565b825550505050565b5f90565b6113ab61139f565b6113b681848461137a565b505050565b5b818110156113d9576113ce5f826113a3565b6001810190506113bc565b5050565b601f82111561141e576113ef816112c9565b6113f8846112db565b81016020851015611407578190505b61141b611413856112db565b8301826113bb565b50505b505050565b5f82821c905092915050565b5f61143e5f1984600802611423565b1980831691505092915050565b5f611456838361142f565b9150826002028217905092915050565b61146f8261101e565b67ffffffffffffffff81111561148857611487610e8b565b5b6114928254611299565b61149d8282856113dd565b5f60209050601f8311600181146114ce575f84156114bc578287015190505b6114c6858261144b565b86555061152d565b601f1984166114dc866112c9565b5f5b82811015611503578489015182556001820191506020850194506020810190506114de565b86831015611520578489015161151c601f89168261142f565b8355505b6001600288020188555050505b505050505050565b5f6115408284611217565b915081905092915050565b7f4e487b71000000000000000000000000000000000000000000000000000000005f52601160045260245ffd5b5f61158282610ddc565b915061158d83610ddc565b92508282019050808211156115a5576115a461154b565b5b92915050565b7f4e616d65206e6f7420617661696c61626c6500000000000000000000000000005f82015250565b5f6115df601283611028565b91506115ea826115ab565b602082019050919050565b5f6020820190508181035f83015261160c816115d3565b9050919050565b7f5573657220646f6573206e6f74206578697374000000000000000000000000005f82015250565b5f611647601383611028565b915061165282611613565b602082019050919050565b5f6020820190508181035f8301526116748161163b565b9050919050565b7f55736572206e6f742077686974656c69737465640000000000000000000000005f82015250565b5f6116af601483611028565b91506116ba8261167b565b602082019050919050565b5f6020820190508181035f8301526116dc816116a3565b9050919050565b7f4e487b71000000000000000000000000000000000000000000000000000000005f52601260045260245ffdfea2646970667358221220583fb8c10a9cce192958a3cc69b464db93bd77ee1fe9d3c7569e4a32723b539e64736f6c634300081a0033",
					"opcodes": "PUSH1 0x80 PUSH1 0x40 MSTORE CALLVALUE DUP1 ISZERO PUSH2 0xF JUMPI PUSH0 DUP1 REVERT JUMPDEST POP PUSH1 0x40 MLOAD PUSH2 0x2028 CODESIZE SUB DUP1 PUSH2 0x2028 DUP4 CODECOPY DUP2 DUP2 ADD PUSH1 0x40 MSTORE DUP2 ADD SWAP1 PUSH2 0x31 SWAP2 SWAP1 PUSH2 0x418 JUMP JUMPDEST CALLER PUSH0 DUP1 ADD PUSH0 PUSH2 0x100 EXP DUP2 SLOAD DUP2 PUSH20 0xFFFFFFFFFFFFFFFFFFFFFFFFFFFFFFFFFFFFFFFF MUL NOT AND SWAP1 DUP4 PUSH20 0xFFFFFFFFFFFFFFFFFFFFFFFFFFFFFFFFFFFFFFFF AND MUL OR SWAP1 SSTORE POP PUSH0 DUP1 PUSH1 0x1 ADD DUP2 SWAP1 SSTORE POP DUP1 PUSH0 PUSH1 0x2 ADD SWAP1 DUP2 PUSH2 0x8C SWAP2 SWAP1 PUSH2 0x66C JUMP JUMPDEST POP PUSH0 PUSH1 0x4 PUSH0 CALLER PUSH20 0xFFFFFFFFFFFFFFFFFFFFFFFFFFFFFFFFFFFFFFFF AND PUSH20 0xFFFFFFFFFFFFFFFFFFFFFFFFFFFFFFFFFFFFFFFF AND DUP2 MSTORE PUSH1 0x20 ADD SWAP1 DUP2 MSTORE PUSH1 0x20 ADD PUSH0 KECCAK256 PUSH0 DUP3 ADD PUSH0 SWAP1 SLOAD SWAP1 PUSH2 0x100 EXP SWAP1 DIV PUSH20 0xFFFFFFFFFFFFFFFFFFFFFFFFFFFFFFFFFFFFFFFF AND DUP2 PUSH0 ADD PUSH0 PUSH2 0x100 EXP DUP2 SLOAD DUP2 PUSH20 0xFFFFFFFFFFFFFFFFFFFFFFFFFFFFFFFFFFFFFFFF MUL NOT AND SWAP1 DUP4 PUSH20 0xFFFFFFFFFFFFFFFFFFFFFFFFFFFFFFFFFFFFFFFF AND MUL OR SWAP1 SSTORE POP PUSH1 0x1 DUP3 ADD SLOAD DUP2 PUSH1 0x1 ADD SSTORE PUSH1 0x2 DUP3 ADD DUP2 PUSH1 0x2 ADD SWAP1 DUP2 PUSH2 0x14C SWAP2 SWAP1 PUSH2 0x750 JUMP JUMPDEST POP SWAP1 POP POP PUSH1 0x1 PUSH1 0x5 PUSH0 DUP1 PUSH0 ADD PUSH0 SWAP1 SLOAD SWAP1 PUSH2 0x100 EXP SWAP1 DIV PUSH20 0xFFFFFFFFFFFFFFFFFFFFFFFFFFFFFFFFFFFFFFFF AND PUSH20 0xFFFFFFFFFFFFFFFFFFFFFFFFFFFFFFFFFFFFFFFF AND PUSH20 0xFFFFFFFFFFFFFFFFFFFFFFFFFFFFFFFFFFFFFFFF AND DUP2 MSTORE PUSH1 0x20 ADD SWAP1 DUP2 MSTORE PUSH1 0x20 ADD PUSH0 KECCAK256 PUSH0 PUSH2 0x100 EXP DUP2 SLOAD DUP2 PUSH1 0xFF MUL NOT AND SWAP1 DUP4 ISZERO ISZERO MUL OR SWAP1 SSTORE POP PUSH0 DUP1 ADD PUSH0 SWAP1 SLOAD SWAP1 PUSH2 0x100 EXP SWAP1 DIV PUSH20 0xFFFFFFFFFFFFFFFFFFFFFFFFFFFFFFFFFFFFFFFF AND PUSH1 0x6 PUSH0 DUP1 PUSH1 0x1 ADD SLOAD DUP2 MSTORE PUSH1 0x20 ADD SWAP1 DUP2 MSTORE PUSH1 0x20 ADD PUSH0 KECCAK256 PUSH0 PUSH2 0x100 EXP DUP2 SLOAD DUP2 PUSH20 0xFFFFFFFFFFFFFFFFFFFFFFFFFFFFFFFFFFFFFFFF MUL NOT AND SWAP1 DUP4 PUSH20 0xFFFFFFFFFFFFFFFFFFFFFFFFFFFFFFFFFFFFFFFF AND MUL OR SWAP1 SSTORE POP PUSH0 DUP1 ADD PUSH0 SWAP1 SLOAD SWAP1 PUSH2 0x100 EXP SWAP1 DIV PUSH20 0xFFFFFFFFFFFFFFFFFFFFFFFFFFFFFFFFFFFFFFFF AND PUSH1 0x7 PUSH0 PUSH1 0x2 ADD PUSH1 0x40 MLOAD PUSH2 0x272 SWAP2 SWAP1 PUSH2 0x8BF JUMP JUMPDEST SWAP1 DUP2 MSTORE PUSH1 0x20 ADD PUSH1 0x40 MLOAD DUP1 SWAP2 SUB SWAP1 KECCAK256 PUSH0 PUSH2 0x100 EXP DUP2 SLOAD DUP2 PUSH20 0xFFFFFFFFFFFFFFFFFFFFFFFFFFFFFFFFFFFFFFFF MUL NOT AND SWAP1 DUP4 PUSH20 0xFFFFFFFFFFFFFFFFFFFFFFFFFFFFFFFFFFFFFFFF AND MUL OR SWAP1 SSTORE POP PUSH1 0x1 PUSH1 0x8 DUP2 SWAP1 SSTORE POP POP PUSH2 0x8D5 JUMP JUMPDEST PUSH0 PUSH1 0x40 MLOAD SWAP1 POP SWAP1 JUMP JUMPDEST PUSH0 DUP1 REVERT JUMPDEST PUSH0 DUP1 REVERT JUMPDEST PUSH0 DUP1 REVERT JUMPDEST PUSH0 DUP1 REVERT JUMPDEST PUSH0 PUSH1 0x1F NOT PUSH1 0x1F DUP4 ADD AND SWAP1 POP SWAP2 SWAP1 POP JUMP JUMPDEST PUSH32 0x4E487B7100000000000000000000000000000000000000000000000000000000 PUSH0 MSTORE PUSH1 0x41 PUSH1 0x4 MSTORE PUSH1 0x24 PUSH0 REVERT JUMPDEST PUSH2 0x32A DUP3 PUSH2 0x2E4 JUMP JUMPDEST DUP2 ADD DUP2 DUP2 LT PUSH8 0xFFFFFFFFFFFFFFFF DUP3 GT OR ISZERO PUSH2 0x349 JUMPI PUSH2 0x348 PUSH2 0x2F4 JUMP JUMPDEST JUMPDEST DUP1 PUSH1 0x40 MSTORE POP POP POP JUMP JUMPDEST PUSH0 PUSH2 0x35B PUSH2 0x2CB JUMP JUMPDEST SWAP1 POP PUSH2 0x367 DUP3 DUP3 PUSH2 0x321 JUMP JUMPDEST SWAP2 SWAP1 POP JUMP JUMPDEST PUSH0 PUSH8 0xFFFFFFFFFFFFFFFF DUP3 GT ISZERO PUSH2 0x386 JUMPI PUSH2 0x385 PUSH2 0x2F4 JUMP JUMPDEST JUMPDEST PUSH2 0x38F DUP3 PUSH2 0x2E4 JUMP JUMPDEST SWAP1 POP PUSH1 0x20 DUP2 ADD SWAP1 POP SWAP2 SWAP1 POP JUMP JUMPDEST DUP3 DUP2 DUP4 MCOPY PUSH0 DUP4 DUP4 ADD MSTORE POP POP POP JUMP JUMPDEST PUSH0 PUSH2 0x3BC PUSH2 0x3B7 DUP5 PUSH2 0x36C JUMP JUMPDEST PUSH2 0x352 JUMP JUMPDEST SWAP1 POP DUP3 DUP2 MSTORE PUSH1 0x20 DUP2 ADD DUP5 DUP5 DUP5 ADD GT ISZERO PUSH2 0x3D8 JUMPI PUSH2 0x3D7 PUSH2 0x2E0 JUMP JUMPDEST JUMPDEST PUSH2 0x3E3 DUP5 DUP3 DUP6 PUSH2 0x39C JUMP JUMPDEST POP SWAP4 SWAP3 POP POP POP JUMP JUMPDEST PUSH0 DUP3 PUSH1 0x1F DUP4 ADD SLT PUSH2 0x3FF JUMPI PUSH2 0x3FE PUSH2 0x2DC JUMP JUMPDEST JUMPDEST DUP2 MLOAD PUSH2 0x40F DUP5 DUP3 PUSH1 0x20 DUP7 ADD PUSH2 0x3AA JUMP JUMPDEST SWAP2 POP POP SWAP3 SWAP2 POP POP JUMP JUMPDEST PUSH0 PUSH1 0x20 DUP3 DUP5 SUB SLT ISZERO PUSH2 0x42D JUMPI PUSH2 0x42C PUSH2 0x2D4 JUMP JUMPDEST JUMPDEST PUSH0 DUP3 ADD MLOAD PUSH8 0xFFFFFFFFFFFFFFFF DUP2 GT ISZERO PUSH2 0x44A JUMPI PUSH2 0x449 PUSH2 0x2D8 JUMP JUMPDEST JUMPDEST PUSH2 0x456 DUP5 DUP3 DUP6 ADD PUSH2 0x3EB JUMP JUMPDEST SWAP2 POP POP SWAP3 SWAP2 POP POP JUMP JUMPDEST PUSH0 DUP2 MLOAD SWAP1 POP SWAP2 SWAP1 POP JUMP JUMPDEST PUSH32 0x4E487B7100000000000000000000000000000000000000000000000000000000 PUSH0 MSTORE PUSH1 0x22 PUSH1 0x4 MSTORE PUSH1 0x24 PUSH0 REVERT JUMPDEST PUSH0 PUSH1 0x2 DUP3 DIV SWAP1 POP PUSH1 0x1 DUP3 AND DUP1 PUSH2 0x4AD JUMPI PUSH1 0x7F DUP3 AND SWAP2 POP JUMPDEST PUSH1 0x20 DUP3 LT DUP2 SUB PUSH2 0x4C0 JUMPI PUSH2 0x4BF PUSH2 0x469 JUMP JUMPDEST JUMPDEST POP SWAP2 SWAP1 POP JUMP JUMPDEST PUSH0 DUP2 SWAP1 POP DUP2 PUSH0 MSTORE PUSH1 0x20 PUSH0 KECCAK256 SWAP1 POP SWAP2 SWAP1 POP JUMP JUMPDEST PUSH0 PUSH1 0x20 PUSH1 0x1F DUP4 ADD DIV SWAP1 POP SWAP2 SWAP1 POP JUMP JUMPDEST PUSH0 DUP3 DUP3 SHL SWAP1 POP SWAP3 SWAP2 POP POP JUMP JUMPDEST PUSH0 PUSH1 0x8 DUP4 MUL PUSH2 0x522 PUSH32 0xFFFFFFFFFFFFFFFFFFFFFFFFFFFFFFFFFFFFFFFFFFFFFFFFFFFFFFFFFFFFFFFF DUP3 PUSH2 0x4E7 JUMP JUMPDEST PUSH2 0x52C DUP7 DUP4 PUSH2 0x4E7 JUMP JUMPDEST SWAP6 POP DUP1 NOT DUP5 AND SWAP4 POP DUP1 DUP7 AND DUP5 OR SWAP3 POP POP POP SWAP4 SWAP3 POP POP POP JUMP JUMPDEST PUSH0 DUP2 SWAP1 POP SWAP2 SWAP1 POP JUMP JUMPDEST PUSH0 DUP2 SWAP1 POP SWAP2 SWAP1 POP JUMP JUMPDEST PUSH0 PUSH2 0x570 PUSH2 0x56B PUSH2 0x566 DUP5 PUSH2 0x544 JUMP JUMPDEST PUSH2 0x54D JUMP JUMPDEST PUSH2 0x544 JUMP JUMPDEST SWAP1 POP SWAP2 SWAP1 POP JUMP JUMPDEST PUSH0 DUP2 SWAP1 POP SWAP2 SWAP1 POP JUMP JUMPDEST PUSH2 0x589 DUP4 PUSH2 0x556 JUMP JUMPDEST PUSH2 0x59D PUSH2 0x595 DUP3 PUSH2 0x577 JUMP JUMPDEST DUP5 DUP5 SLOAD PUSH2 0x4F3 JUMP JUMPDEST DUP3 SSTORE POP POP POP POP JUMP JUMPDEST PUSH0 SWAP1 JUMP JUMPDEST PUSH2 0x5B1 PUSH2 0x5A5 JUMP JUMPDEST PUSH2 0x5BC DUP2 DUP5 DUP5 PUSH2 0x580 JUMP JUMPDEST POP POP POP JUMP JUMPDEST JUMPDEST DUP2 DUP2 LT ISZERO PUSH2 0x5DF JUMPI PUSH2 0x5D4 PUSH0 DUP3 PUSH2 0x5A9 JUMP JUMPDEST PUSH1 0x1 DUP2 ADD SWAP1 POP PUSH2 0x5C2 JUMP JUMPDEST POP POP JUMP JUMPDEST PUSH1 0x1F DUP3 GT ISZERO PUSH2 0x624 JUMPI PUSH2 0x5F5 DUP2 PUSH2 0x4C6 JUMP JUMPDEST PUSH2 0x5FE DUP5 PUSH2 0x4D8 JUMP JUMPDEST DUP2 ADD PUSH1 0x20 DUP6 LT ISZERO PUSH2 0x60D JUMPI DUP2 SWAP1 POP JUMPDEST PUSH2 0x621 PUSH2 0x619 DUP6 PUSH2 0x4D8 JUMP JUMPDEST DUP4 ADD DUP3 PUSH2 0x5C1 JUMP JUMPDEST POP POP JUMPDEST POP POP POP JUMP JUMPDEST PUSH0 DUP3 DUP3 SHR SWAP1 POP SWAP3 SWAP2 POP POP JUMP JUMPDEST PUSH0 PUSH2 0x644 PUSH0 NOT DUP5 PUSH1 0x8 MUL PUSH2 0x629 JUMP JUMPDEST NOT DUP1 DUP4 AND SWAP2 POP POP SWAP3 SWAP2 POP POP JUMP JUMPDEST PUSH0 PUSH2 0x65C DUP4 DUP4 PUSH2 0x635 JUMP JUMPDEST SWAP2 POP DUP3 PUSH1 0x2 MUL DUP3 OR SWAP1 POP SWAP3 SWAP2 POP POP JUMP JUMPDEST PUSH2 0x675 DUP3 PUSH2 0x45F JUMP JUMPDEST PUSH8 0xFFFFFFFFFFFFFFFF DUP2 GT ISZERO PUSH2 0x68E JUMPI PUSH2 0x68D PUSH2 0x2F4 JUMP JUMPDEST JUMPDEST PUSH2 0x698 DUP3 SLOAD PUSH2 0x496 JUMP JUMPDEST PUSH2 0x6A3 DUP3 DUP3 DUP6 PUSH2 0x5E3 JUMP JUMPDEST PUSH0 PUSH1 0x20 SWAP1 POP PUSH1 0x1F DUP4 GT PUSH1 0x1 DUP2 EQ PUSH2 0x6D4 JUMPI PUSH0 DUP5 ISZERO PUSH2 0x6C2 JUMPI DUP3 DUP8 ADD MLOAD SWAP1 POP JUMPDEST PUSH2 0x6CC DUP6 DUP3 PUSH2 0x651 JUMP JUMPDEST DUP7 SSTORE POP PUSH2 0x733 JUMP JUMPDEST PUSH1 0x1F NOT DUP5 AND PUSH2 0x6E2 DUP7 PUSH2 0x4C6 JUMP JUMPDEST PUSH0 JUMPDEST DUP3 DUP2 LT ISZERO PUSH2 0x709 JUMPI DUP5 DUP10 ADD MLOAD DUP3 SSTORE PUSH1 0x1 DUP3 ADD SWAP2 POP PUSH1 0x20 DUP6 ADD SWAP5 POP PUSH1 0x20 DUP2 ADD SWAP1 POP PUSH2 0x6E4 JUMP JUMPDEST DUP7 DUP4 LT ISZERO PUSH2 0x726 JUMPI DUP5 DUP10 ADD MLOAD PUSH2 0x722 PUSH1 0x1F DUP10 AND DUP3 PUSH2 0x635 JUMP JUMPDEST DUP4 SSTORE POP JUMPDEST PUSH1 0x1 PUSH1 0x2 DUP9 MUL ADD DUP9 SSTORE POP POP POP JUMPDEST POP POP POP POP POP POP JUMP JUMPDEST PUSH0 DUP2 SLOAD SWAP1 POP PUSH2 0x749 DUP2 PUSH2 0x496 JUMP JUMPDEST SWAP1 POP SWAP2 SWAP1 POP JUMP JUMPDEST DUP2 DUP2 SUB PUSH2 0x75E JUMPI POP POP PUSH2 0x833 JUMP JUMPDEST PUSH2 0x767 DUP3 PUSH2 0x73B JUMP JUMPDEST PUSH8 0xFFFFFFFFFFFFFFFF DUP2 GT ISZERO PUSH2 0x780 JUMPI PUSH2 0x77F PUSH2 0x2F4 JUMP JUMPDEST JUMPDEST PUSH2 0x78A DUP3 SLOAD PUSH2 0x496 JUMP JUMPDEST PUSH2 0x795 DUP3 DUP3 DUP6 PUSH2 0x5E3 JUMP JUMPDEST PUSH0 PUSH1 0x1F DUP4 GT PUSH1 0x1 DUP2 EQ PUSH2 0x7C2 JUMPI PUSH0 DUP5 ISZERO PUSH2 0x7B0 JUMPI DUP3 DUP8 ADD SLOAD SWAP1 POP JUMPDEST PUSH2 0x7BA DUP6 DUP3 PUSH2 0x651 JUMP JUMPDEST DUP7 SSTORE POP PUSH2 0x82C JUMP JUMPDEST PUSH1 0x1F NOT DUP5 AND PUSH2 0x7D0 DUP8 PUSH2 0x4C6 JUMP JUMPDEST SWAP7 POP PUSH2 0x7DB DUP7 PUSH2 0x4C6 JUMP JUMPDEST PUSH0 JUMPDEST DUP3 DUP2 LT ISZERO PUSH2 0x802 JUMPI DUP5 DUP10 ADD SLOAD DUP3 SSTORE PUSH1 0x1 DUP3 ADD SWAP2 POP PUSH1 0x1 DUP6 ADD SWAP5 POP PUSH1 0x20 DUP2 ADD SWAP1 POP PUSH2 0x7DD JUMP JUMPDEST DUP7 DUP4 LT ISZERO PUSH2 0x81F JUMPI DUP5 DUP10 ADD SLOAD PUSH2 0x81B PUSH1 0x1F DUP10 AND DUP3 PUSH2 0x635 JUMP JUMPDEST DUP4 SSTORE POP JUMPDEST PUSH1 0x1 PUSH1 0x2 DUP9 MUL ADD DUP9 SSTORE POP POP POP JUMPDEST POP POP POP POP POP POP JUMPDEST JUMP JUMPDEST PUSH0 DUP2 SWAP1 POP SWAP3 SWAP2 POP POP JUMP JUMPDEST PUSH0 DUP2 SLOAD PUSH2 0x84B DUP2 PUSH2 0x496 JUMP JUMPDEST PUSH2 0x855 DUP2 DUP7 PUSH2 0x835 JUMP JUMPDEST SWAP5 POP PUSH1 0x1 DUP3 AND PUSH0 DUP2 EQ PUSH2 0x86F JUMPI PUSH1 0x1 DUP2 EQ PUSH2 0x884 JUMPI PUSH2 0x8B6 JUMP JUMPDEST PUSH1 0xFF NOT DUP4 AND DUP7 MSTORE DUP2 ISZERO ISZERO DUP3 MUL DUP7 ADD SWAP4 POP PUSH2 0x8B6 JUMP JUMPDEST PUSH2 0x88D DUP6 PUSH2 0x4C6 JUMP JUMPDEST PUSH0 JUMPDEST DUP4 DUP2 LT ISZERO PUSH2 0x8AE JUMPI DUP2 SLOAD DUP2 DUP10 ADD MSTORE PUSH1 0x1 DUP3 ADD SWAP2 POP PUSH1 0x20 DUP2 ADD SWAP1 POP PUSH2 0x88F JUMP JUMPDEST DUP4 DUP9 ADD SWAP6 POP POP POP JUMPDEST POP POP POP SWAP3 SWAP2 POP POP JUMP JUMPDEST PUSH0 PUSH2 0x8CA DUP3 DUP5 PUSH2 0x83F JUMP JUMPDEST SWAP2 POP DUP2 SWAP1 POP SWAP3 SWAP2 POP POP JUMP JUMPDEST PUSH2 0x1746 DUP1 PUSH2 0x8E2 PUSH0 CODECOPY PUSH0 RETURN INVALID PUSH1 0x80 PUSH1 0x40 MSTORE CALLVALUE DUP1 ISZERO PUSH2 0xF JUMPI PUSH0 DUP1 REVERT JUMPDEST POP PUSH1 0x4 CALLDATASIZE LT PUSH2 0x60 JUMPI PUSH0 CALLDATALOAD PUSH1 0xE0 SHR DUP1 PUSH4 0xE1A1EA8 EQ PUSH2 0x64 JUMPI DUP1 PUSH4 0x43F7BDE5 EQ PUSH2 0x82 JUMPI DUP1 PUSH4 0x4A4C560D EQ PUSH2 0xA0 JUMPI DUP1 PUSH4 0x4BCAB57D EQ PUSH2 0xBC JUMPI DUP1 PUSH4 0x96DBC141 EQ PUSH2 0xD8 JUMPI DUP1 PUSH4 0xC63676AC EQ PUSH2 0xF6 JUMPI JUMPDEST PUSH0 DUP1 REVERT JUMPDEST PUSH2 0x6C PUSH2 0x126 JUMP JUMPDEST PUSH1 0x40 MLOAD PUSH2 0x79 SWAP2 SWAP1 PUSH2 0xDBC JUMP JUMPDEST PUSH1 0x40 MLOAD DUP1 SWAP2 SUB SWAP1 RETURN JUMPDEST PUSH2 0x8A PUSH2 0x2E7 JUMP JUMPDEST PUSH1 0x40 MLOAD PUSH2 0x97 SWAP2 SWAP1 PUSH2 0xDF4 JUMP JUMPDEST PUSH1 0x40 MLOAD DUP1 SWAP2 SUB SWAP1 RETURN JUMPDEST PUSH2 0xBA PUSH1 0x4 DUP1 CALLDATASIZE SUB DUP2 ADD SWAP1 PUSH2 0xB5 SWAP2 SWAP1 PUSH2 0xE48 JUMP JUMPDEST PUSH2 0x2ED JUMP JUMPDEST STOP JUMPDEST PUSH2 0xD6 PUSH1 0x4 DUP1 CALLDATASIZE SUB DUP2 ADD SWAP1 PUSH2 0xD1 SWAP2 SWAP1 PUSH2 0xFAF JUMP JUMPDEST PUSH2 0x7AE JUMP JUMPDEST STOP JUMPDEST PUSH2 0xE0 PUSH2 0x938 JUMP JUMPDEST PUSH1 0x40 MLOAD PUSH2 0xED SWAP2 SWAP1 PUSH2 0x1005 JUMP JUMPDEST PUSH1 0x40 MLOAD DUP1 SWAP2 SUB SWAP1 RETURN JUMPDEST PUSH2 0x110 PUSH1 0x4 DUP1 CALLDATASIZE SUB DUP2 ADD SWAP1 PUSH2 0x10B SWAP2 SWAP1 PUSH2 0xE48 JUMP JUMPDEST PUSH2 0x961 JUMP JUMPDEST PUSH1 0x40 MLOAD PUSH2 0x11D SWAP2 SWAP1 PUSH2 0x107E JUMP JUMPDEST PUSH1 0x40 MLOAD DUP1 SWAP2 SUB SWAP1 RETURN JUMPDEST PUSH1 0x60 PUSH0 PUSH1 0x8 SLOAD PUSH8 0xFFFFFFFFFFFFFFFF DUP2 GT ISZERO PUSH2 0x145 JUMPI PUSH2 0x144 PUSH2 0xE8B JUMP JUMPDEST JUMPDEST PUSH1 0x40 MLOAD SWAP1 DUP1 DUP3 MSTORE DUP1 PUSH1 0x20 MUL PUSH1 0x20 ADD DUP3 ADD PUSH1 0x40 MSTORE DUP1 ISZERO PUSH2 0x173 JUMPI DUP2 PUSH1 0x20 ADD PUSH1 0x20 DUP3 MUL DUP1 CALLDATASIZE DUP4 CALLDATACOPY DUP1 DUP3 ADD SWAP2 POP POP SWAP1 POP JUMPDEST POP SWAP1 POP PUSH0 DUP1 ADD PUSH0 SWAP1 SLOAD SWAP1 PUSH2 0x100 EXP SWAP1 DIV PUSH20 0xFFFFFFFFFFFFFFFFFFFFFFFFFFFFFFFFFFFFFFFF AND DUP2 PUSH0 DUP2 MLOAD DUP2 LT PUSH2 0x1AC JUMPI PUSH2 0x1AB PUSH2 0x109E JUMP JUMPDEST JUMPDEST PUSH1 0x20 MUL PUSH1 0x20 ADD ADD SWAP1 PUSH20 0xFFFFFFFFFFFFFFFFFFFFFFFFFFFFFFFFFFFFFFFF AND SWAP1 DUP2 PUSH20 0xFFFFFFFFFFFFFFFFFFFFFFFFFFFFFFFFFFFFFFFF AND DUP2 MSTORE POP POP PUSH0 PUSH1 0x1 SWAP1 POP JUMPDEST PUSH1 0x8 SLOAD DUP2 LT ISZERO PUSH2 0x2DF JUMPI PUSH1 0x4 PUSH0 PUSH1 0x6 PUSH0 DUP5 DUP2 MSTORE PUSH1 0x20 ADD SWAP1 DUP2 MSTORE PUSH1 0x20 ADD PUSH0 KECCAK256 PUSH0 SWAP1 SLOAD SWAP1 PUSH2 0x100 EXP SWAP1 DIV PUSH20 0xFFFFFFFFFFFFFFFFFFFFFFFFFFFFFFFFFFFFFFFF AND PUSH20 0xFFFFFFFFFFFFFFFFFFFFFFFFFFFFFFFFFFFFFFFF AND PUSH20 0xFFFFFFFFFFFFFFFFFFFFFFFFFFFFFFFFFFFFFFFF AND DUP2 MSTORE PUSH1 0x20 ADD SWAP1 DUP2 MSTORE PUSH1 0x20 ADD PUSH0 KECCAK256 PUSH0 ADD PUSH0 SWAP1 SLOAD SWAP1 PUSH2 0x100 EXP SWAP1 DIV PUSH20 0xFFFFFFFFFFFFFFFFFFFFFFFFFFFFFFFFFFFFFFFF AND DUP3 DUP3 DUP2 MLOAD DUP2 LT PUSH2 0x298 JUMPI PUSH2 0x297 PUSH2 0x109E JUMP JUMPDEST JUMPDEST PUSH1 0x20 MUL PUSH1 0x20 ADD ADD SWAP1 PUSH20 0xFFFFFFFFFFFFFFFFFFFFFFFFFFFFFFFFFFFFFFFF AND SWAP1 DUP2 PUSH20 0xFFFFFFFFFFFFFFFFFFFFFFFFFFFFFFFFFFFFFFFF AND DUP2 MSTORE POP POP DUP1 DUP1 PUSH1 0x1 ADD SWAP2 POP POP PUSH2 0x1EC JUMP JUMPDEST POP DUP1 SWAP2 POP POP SWAP1 JUMP JUMPDEST PUSH1 0x8 SLOAD DUP2 JUMP JUMPDEST PUSH0 DUP1 ADD PUSH0 SWAP1 SLOAD SWAP1 PUSH2 0x100 EXP SWAP1 DIV PUSH20 0xFFFFFFFFFFFFFFFFFFFFFFFFFFFFFFFFFFFFFFFF AND PUSH20 0xFFFFFFFFFFFFFFFFFFFFFFFFFFFFFFFFFFFFFFFF AND CALLER PUSH20 0xFFFFFFFFFFFFFFFFFFFFFFFFFFFFFFFFFFFFFFFF AND EQ PUSH2 0x37D JUMPI PUSH1 0x40 MLOAD PUSH32 0x8C379A000000000000000000000000000000000000000000000000000000000 DUP2 MSTORE PUSH1 0x4 ADD PUSH2 0x374 SWAP1 PUSH2 0x113B JUMP JUMPDEST PUSH1 0x40 MLOAD DUP1 SWAP2 SUB SWAP1 REVERT JUMPDEST PUSH1 0x5 PUSH0 DUP3 PUSH20 0xFFFFFFFFFFFFFFFFFFFFFFFFFFFFFFFFFFFFFFFF AND PUSH20 0xFFFFFFFFFFFFFFFFFFFFFFFFFFFFFFFFFFFFFFFF AND DUP2 MSTORE PUSH1 0x20 ADD SWAP1 DUP2 MSTORE PUSH1 0x20 ADD PUSH0 KECCAK256 PUSH0 SWAP1 SLOAD SWAP1 PUSH2 0x100 EXP SWAP1 DIV PUSH1 0xFF AND ISZERO PUSH2 0x407 JUMPI PUSH1 0x40 MLOAD PUSH32 0x8C379A000000000000000000000000000000000000000000000000000000000 DUP2 MSTORE PUSH1 0x4 ADD PUSH2 0x3FE SWAP1 PUSH2 0x11C9 JUMP JUMPDEST PUSH1 0x40 MLOAD DUP1 SWAP2 SUB SWAP1 REVERT JUMPDEST PUSH1 0x40 MLOAD DUP1 PUSH1 0x60 ADD PUSH1 0x40 MSTORE DUP1 DUP3 PUSH20 0xFFFFFFFFFFFFFFFFFFFFFFFFFFFFFFFFFFFFFFFF AND DUP2 MSTORE PUSH1 0x20 ADD PUSH1 0x8 SLOAD DUP2 MSTORE PUSH1 0x20 ADD PUSH2 0x441 PUSH1 0x8 SLOAD PUSH2 0xABA JUMP JUMPDEST PUSH1 0x40 MLOAD PUSH1 0x20 ADD PUSH2 0x451 SWAP2 SWAP1 PUSH2 0x1247 JUMP JUMPDEST PUSH1 0x40 MLOAD PUSH1 0x20 DUP2 DUP4 SUB SUB DUP2 MSTORE SWAP1 PUSH1 0x40 MSTORE DUP2 MSTORE POP PUSH1 0x4 PUSH0 DUP4 PUSH20 0xFFFFFFFFFFFFFFFFFFFFFFFFFFFFFFFFFFFFFFFF AND PUSH20 0xFFFFFFFFFFFFFFFFFFFFFFFFFFFFFFFFFFFFFFFF AND DUP2 MSTORE PUSH1 0x20 ADD SWAP1 DUP2 MSTORE PUSH1 0x20 ADD PUSH0 KECCAK256 PUSH0 DUP3 ADD MLOAD DUP2 PUSH0 ADD PUSH0 PUSH2 0x100 EXP DUP2 SLOAD DUP2 PUSH20 0xFFFFFFFFFFFFFFFFFFFFFFFFFFFFFFFFFFFFFFFF MUL NOT AND SWAP1 DUP4 PUSH20 0xFFFFFFFFFFFFFFFFFFFFFFFFFFFFFFFFFFFFFFFF AND MUL OR SWAP1 SSTORE POP PUSH1 0x20 DUP3 ADD MLOAD DUP2 PUSH1 0x1 ADD SSTORE PUSH1 0x40 DUP3 ADD MLOAD DUP2 PUSH1 0x2 ADD SWAP1 DUP2 PUSH2 0x503 SWAP2 SWAP1 PUSH2 0x1466 JUMP JUMPDEST POP SWAP1 POP POP PUSH0 PUSH1 0x4 PUSH0 DUP4 PUSH20 0xFFFFFFFFFFFFFFFFFFFFFFFFFFFFFFFFFFFFFFFF AND PUSH20 0xFFFFFFFFFFFFFFFFFFFFFFFFFFFFFFFFFFFFFFFF AND DUP2 MSTORE PUSH1 0x20 ADD SWAP1 DUP2 MSTORE PUSH1 0x20 ADD PUSH0 KECCAK256 PUSH1 0x40 MLOAD DUP1 PUSH1 0x60 ADD PUSH1 0x40 MSTORE SWAP1 DUP2 PUSH0 DUP3 ADD PUSH0 SWAP1 SLOAD SWAP1 PUSH2 0x100 EXP SWAP1 DIV PUSH20 0xFFFFFFFFFFFFFFFFFFFFFFFFFFFFFFFFFFFFFFFF AND PUSH20 0xFFFFFFFFFFFFFFFFFFFFFFFFFFFFFFFFFFFFFFFF AND PUSH20 0xFFFFFFFFFFFFFFFFFFFFFFFFFFFFFFFFFFFFFFFF AND DUP2 MSTORE PUSH1 0x20 ADD PUSH1 0x1 DUP3 ADD SLOAD DUP2 MSTORE PUSH1 0x20 ADD PUSH1 0x2 DUP3 ADD DUP1 SLOAD PUSH2 0x5BE SWAP1 PUSH2 0x1299 JUMP JUMPDEST DUP1 PUSH1 0x1F ADD PUSH1 0x20 DUP1 SWAP2 DIV MUL PUSH1 0x20 ADD PUSH1 0x40 MLOAD SWAP1 DUP2 ADD PUSH1 0x40 MSTORE DUP1 SWAP3 SWAP2 SWAP1 DUP2 DUP2 MSTORE PUSH1 0x20 ADD DUP3 DUP1 SLOAD PUSH2 0x5EA SWAP1 PUSH2 0x1299 JUMP JUMPDEST DUP1 ISZERO PUSH2 0x635 JUMPI DUP1 PUSH1 0x1F LT PUSH2 0x60C JUMPI PUSH2 0x100 DUP1 DUP4 SLOAD DIV MUL DUP4 MSTORE SWAP2 PUSH1 0x20 ADD SWAP2 PUSH2 0x635 JUMP JUMPDEST DUP3 ADD SWAP2 SWAP1 PUSH0 MSTORE PUSH1 0x20 PUSH0 KECCAK256 SWAP1 JUMPDEST DUP2 SLOAD DUP2 MSTORE SWAP1 PUSH1 0x1 ADD SWAP1 PUSH1 0x20 ADD DUP1 DUP4 GT PUSH2 0x618 JUMPI DUP3 SWAP1 SUB PUSH1 0x1F AND DUP3 ADD SWAP2 JUMPDEST POP POP POP POP POP DUP2 MSTORE POP POP SWAP1 POP PUSH1 0x1 PUSH1 0x5 PUSH0 DUP5 PUSH20 0xFFFFFFFFFFFFFFFFFFFFFFFFFFFFFFFFFFFFFFFF AND PUSH20 0xFFFFFFFFFFFFFFFFFFFFFFFFFFFFFFFFFFFFFFFF AND DUP2 MSTORE PUSH1 0x20 ADD SWAP1 DUP2 MSTORE PUSH1 0x20 ADD PUSH0 KECCAK256 PUSH0 PUSH2 0x100 EXP DUP2 SLOAD DUP2 PUSH1 0xFF MUL NOT AND SWAP1 DUP4 ISZERO ISZERO MUL OR SWAP1 SSTORE POP DUP1 PUSH0 ADD MLOAD PUSH1 0x6 PUSH0 DUP4 PUSH1 0x20 ADD MLOAD DUP2 MSTORE PUSH1 0x20 ADD SWAP1 DUP2 MSTORE PUSH1 0x20 ADD PUSH0 KECCAK256 PUSH0 PUSH2 0x100 EXP DUP2 SLOAD DUP2 PUSH20 0xFFFFFFFFFFFFFFFFFFFFFFFFFFFFFFFFFFFFFFFF MUL NOT AND SWAP1 DUP4 PUSH20 0xFFFFFFFFFFFFFFFFFFFFFFFFFFFFFFFFFFFFFFFF AND MUL OR SWAP1 SSTORE POP DUP1 PUSH0 ADD MLOAD PUSH1 0x7 DUP3 PUSH1 0x40 ADD MLOAD PUSH1 0x40 MLOAD PUSH2 0x703 SWAP2 SWAP1 PUSH2 0x1535 JUMP JUMPDEST SWAP1 DUP2 MSTORE PUSH1 0x20 ADD PUSH1 0x40 MLOAD DUP1 SWAP2 SUB SWAP1 KECCAK256 PUSH0 PUSH2 0x100 EXP DUP2 SLOAD DUP2 PUSH20 0xFFFFFFFFFFFFFFFFFFFFFFFFFFFFFFFFFFFFFFFF MUL NOT AND SWAP1 DUP4 PUSH20 0xFFFFFFFFFFFFFFFFFFFFFFFFFFFFFFFFFFFFFFFF AND MUL OR SWAP1 SSTORE POP PUSH1 0x1 PUSH1 0x8 PUSH0 DUP3 DUP3 SLOAD PUSH2 0x760 SWAP2 SWAP1 PUSH2 0x1578 JUMP JUMPDEST SWAP3 POP POP DUP2 SWAP1 SSTORE POP DUP2 PUSH20 0xFFFFFFFFFFFFFFFFFFFFFFFFFFFFFFFFFFFFFFFF AND PUSH32 0x19EF9A4877199F89440A26ACB26895EC02ED86F2DF1AEAA90DC18041B892F71F PUSH1 0x40 MLOAD PUSH1 0x40 MLOAD DUP1 SWAP2 SUB SWAP1 LOG2 POP POP JUMP JUMPDEST PUSH0 PUSH20 0xFFFFFFFFFFFFFFFFFFFFFFFFFFFFFFFFFFFFFFFF AND PUSH1 0x7 DUP3 PUSH1 0x40 MLOAD PUSH2 0x7D5 SWAP2 SWAP1 PUSH2 0x1535 JUMP JUMPDEST SWAP1 DUP2 MSTORE PUSH1 0x20 ADD PUSH1 0x40 MLOAD DUP1 SWAP2 SUB SWAP1 KECCAK256 PUSH0 SWAP1 SLOAD SWAP1 PUSH2 0x100 EXP SWAP1 DIV PUSH20 0xFFFFFFFFFFFFFFFFFFFFFFFFFFFFFFFFFFFFFFFF AND PUSH20 0xFFFFFFFFFFFFFFFFFFFFFFFFFFFFFFFFFFFFFFFF AND EQ PUSH2 0x859 JUMPI PUSH1 0x40 MLOAD PUSH32 0x8C379A000000000000000000000000000000000000000000000000000000000 DUP2 MSTORE PUSH1 0x4 ADD PUSH2 0x850 SWAP1 PUSH2 0x15F5 JUMP JUMPDEST PUSH1 0x40 MLOAD DUP1 SWAP2 SUB SWAP1 REVERT JUMPDEST PUSH1 0x5 PUSH0 CALLER PUSH20 0xFFFFFFFFFFFFFFFFFFFFFFFFFFFFFFFFFFFFFFFF AND PUSH20 0xFFFFFFFFFFFFFFFFFFFFFFFFFFFFFFFFFFFFFFFF AND DUP2 MSTORE PUSH1 0x20 ADD SWAP1 DUP2 MSTORE PUSH1 0x20 ADD PUSH0 KECCAK256 PUSH0 SWAP1 SLOAD SWAP1 PUSH2 0x100 EXP SWAP1 DIV PUSH1 0xFF AND PUSH2 0x8E2 JUMPI PUSH1 0x40 MLOAD PUSH32 0x8C379A000000000000000000000000000000000000000000000000000000000 DUP2 MSTORE PUSH1 0x4 ADD PUSH2 0x8D9 SWAP1 PUSH2 0x165D JUMP JUMPDEST PUSH1 0x40 MLOAD DUP1 SWAP2 SUB SWAP1 REVERT JUMPDEST PUSH0 PUSH1 0x4 PUSH0 CALLER PUSH20 0xFFFFFFFFFFFFFFFFFFFFFFFFFFFFFFFFFFFFFFFF AND PUSH20 0xFFFFFFFFFFFFFFFFFFFFFFFFFFFFFFFFFFFFFFFF AND DUP2 MSTORE PUSH1 0x20 ADD SWAP1 DUP2 MSTORE PUSH1 0x20 ADD PUSH0 KECCAK256 SWAP1 POP DUP2 DUP2 PUSH1 0x2 ADD SWAP1 DUP2 PUSH2 0x933 SWAP2 SWAP1 PUSH2 0x1466 JUMP JUMPDEST POP POP POP JUMP JUMPDEST PUSH0 DUP1 PUSH0 ADD PUSH0 SWAP1 SLOAD SWAP1 PUSH2 0x100 EXP SWAP1 DIV PUSH20 0xFFFFFFFFFFFFFFFFFFFFFFFFFFFFFFFFFFFFFFFF AND SWAP1 POP SWAP1 JUMP JUMPDEST PUSH1 0x60 PUSH1 0x5 PUSH0 DUP4 PUSH20 0xFFFFFFFFFFFFFFFFFFFFFFFFFFFFFFFFFFFFFFFF AND PUSH20 0xFFFFFFFFFFFFFFFFFFFFFFFFFFFFFFFFFFFFFFFF AND DUP2 MSTORE PUSH1 0x20 ADD SWAP1 DUP2 MSTORE PUSH1 0x20 ADD PUSH0 KECCAK256 PUSH0 SWAP1 SLOAD SWAP1 PUSH2 0x100 EXP SWAP1 DIV PUSH1 0xFF AND PUSH2 0x9EC JUMPI PUSH1 0x40 MLOAD PUSH32 0x8C379A000000000000000000000000000000000000000000000000000000000 DUP2 MSTORE PUSH1 0x4 ADD PUSH2 0x9E3 SWAP1 PUSH2 0x16C5 JUMP JUMPDEST PUSH1 0x40 MLOAD DUP1 SWAP2 SUB SWAP1 REVERT JUMPDEST PUSH1 0x4 PUSH0 DUP4 PUSH20 0xFFFFFFFFFFFFFFFFFFFFFFFFFFFFFFFFFFFFFFFF AND PUSH20 0xFFFFFFFFFFFFFFFFFFFFFFFFFFFFFFFFFFFFFFFF AND DUP2 MSTORE PUSH1 0x20 ADD SWAP1 DUP2 MSTORE PUSH1 0x20 ADD PUSH0 KECCAK256 PUSH1 0x2 ADD DUP1 SLOAD PUSH2 0xA37 SWAP1 PUSH2 0x1299 JUMP JUMPDEST DUP1 PUSH1 0x1F ADD PUSH1 0x20 DUP1 SWAP2 DIV MUL PUSH1 0x20 ADD PUSH1 0x40 MLOAD SWAP1 DUP2 ADD PUSH1 0x40 MSTORE DUP1 SWAP3 SWAP2 SWAP1 DUP2 DUP2 MSTORE PUSH1 0x20 ADD DUP3 DUP1 SLOAD PUSH2 0xA63 SWAP1 PUSH2 0x1299 JUMP JUMPDEST DUP1 ISZERO PUSH2 0xAAE JUMPI DUP1 PUSH1 0x1F LT PUSH2 0xA85 JUMPI PUSH2 0x100 DUP1 DUP4 SLOAD DIV MUL DUP4 MSTORE SWAP2 PUSH1 0x20 ADD SWAP2 PUSH2 0xAAE JUMP JUMPDEST DUP3 ADD SWAP2 SWAP1 PUSH0 MSTORE PUSH1 0x20 PUSH0 KECCAK256 SWAP1 JUMPDEST DUP2 SLOAD DUP2 MSTORE SWAP1 PUSH1 0x1 ADD SWAP1 PUSH1 0x20 ADD DUP1 DUP4 GT PUSH2 0xA91 JUMPI DUP3 SWAP1 SUB PUSH1 0x1F AND DUP3 ADD SWAP2 JUMPDEST POP POP POP POP POP SWAP1 POP SWAP2 SWAP1 POP JUMP JUMPDEST PUSH1 0x60 PUSH0 PUSH1 0x1 PUSH2 0xAC8 DUP5 PUSH2 0xB84 JUMP JUMPDEST ADD SWAP1 POP PUSH0 DUP2 PUSH8 0xFFFFFFFFFFFFFFFF DUP2 GT ISZERO PUSH2 0xAE6 JUMPI PUSH2 0xAE5 PUSH2 0xE8B JUMP JUMPDEST JUMPDEST PUSH1 0x40 MLOAD SWAP1 DUP1 DUP3 MSTORE DUP1 PUSH1 0x1F ADD PUSH1 0x1F NOT AND PUSH1 0x20 ADD DUP3 ADD PUSH1 0x40 MSTORE DUP1 ISZERO PUSH2 0xB18 JUMPI DUP2 PUSH1 0x20 ADD PUSH1 0x1 DUP3 MUL DUP1 CALLDATASIZE DUP4 CALLDATACOPY DUP1 DUP3 ADD SWAP2 POP POP SWAP1 POP JUMPDEST POP SWAP1 POP PUSH0 DUP3 PUSH1 0x20 ADD DUP3 ADD SWAP1 POP JUMPDEST PUSH1 0x1 ISZERO PUSH2 0xB79 JUMPI DUP1 DUP1 PUSH1 0x1 SWAP1 SUB SWAP2 POP POP PUSH32 0x3031323334353637383961626364656600000000000000000000000000000000 PUSH1 0xA DUP7 MOD BYTE DUP2 MSTORE8 PUSH1 0xA DUP6 DUP2 PUSH2 0xB6E JUMPI PUSH2 0xB6D PUSH2 0x16E3 JUMP JUMPDEST JUMPDEST DIV SWAP5 POP PUSH0 DUP6 SUB PUSH2 0xB25 JUMPI JUMPDEST DUP2 SWAP4 POP POP POP POP SWAP2 SWAP1 POP JUMP JUMPDEST PUSH0 DUP1 PUSH0 SWAP1 POP PUSH27 0x184F03E93FF9F4DAA797ED6E38ED64BF6A1F010000000000000000 DUP4 LT PUSH2 0xBE0 JUMPI PUSH27 0x184F03E93FF9F4DAA797ED6E38ED64BF6A1F010000000000000000 DUP4 DUP2 PUSH2 0xBD6 JUMPI PUSH2 0xBD5 PUSH2 0x16E3 JUMP JUMPDEST JUMPDEST DIV SWAP3 POP PUSH1 0x40 DUP2 ADD SWAP1 POP JUMPDEST PUSH14 0x4EE2D6D415B85ACEF8100000000 DUP4 LT PUSH2 0xC1D JUMPI PUSH14 0x4EE2D6D415B85ACEF8100000000 DUP4 DUP2 PUSH2 0xC13 JUMPI PUSH2 0xC12 PUSH2 0x16E3 JUMP JUMPDEST JUMPDEST DIV SWAP3 POP PUSH1 0x20 DUP2 ADD SWAP1 POP JUMPDEST PUSH7 0x2386F26FC10000 DUP4 LT PUSH2 0xC4C JUMPI PUSH7 0x2386F26FC10000 DUP4 DUP2 PUSH2 0xC42 JUMPI PUSH2 0xC41 PUSH2 0x16E3 JUMP JUMPDEST JUMPDEST DIV SWAP3 POP PUSH1 0x10 DUP2 ADD SWAP1 POP JUMPDEST PUSH4 0x5F5E100 DUP4 LT PUSH2 0xC75 JUMPI PUSH4 0x5F5E100 DUP4 DUP2 PUSH2 0xC6B JUMPI PUSH2 0xC6A PUSH2 0x16E3 JUMP JUMPDEST JUMPDEST DIV SWAP3 POP PUSH1 0x8 DUP2 ADD SWAP1 POP JUMPDEST PUSH2 0x2710 DUP4 LT PUSH2 0xC9A JUMPI PUSH2 0x2710 DUP4 DUP2 PUSH2 0xC90 JUMPI PUSH2 0xC8F PUSH2 0x16E3 JUMP JUMPDEST JUMPDEST DIV SWAP3 POP PUSH1 0x4 DUP2 ADD SWAP1 POP JUMPDEST PUSH1 0x64 DUP4 LT PUSH2 0xCBD JUMPI PUSH1 0x64 DUP4 DUP2 PUSH2 0xCB3 JUMPI PUSH2 0xCB2 PUSH2 0x16E3 JUMP JUMPDEST JUMPDEST DIV SWAP3 POP PUSH1 0x2 DUP2 ADD SWAP1 POP JUMPDEST PUSH1 0xA DUP4 LT PUSH2 0xCCC JUMPI PUSH1 0x1 DUP2 ADD SWAP1 POP JUMPDEST DUP1 SWAP2 POP POP SWAP2 SWAP1 POP JUMP JUMPDEST PUSH0 DUP2 MLOAD SWAP1 POP SWAP2 SWAP1 POP JUMP JUMPDEST PUSH0 DUP3 DUP3 MSTORE PUSH1 0x20 DUP3 ADD SWAP1 POP SWAP3 SWAP2 POP POP JUMP JUMPDEST PUSH0 DUP2 SWAP1 POP PUSH1 0x20 DUP3 ADD SWAP1 POP SWAP2 SWAP1 POP JUMP JUMPDEST PUSH0 PUSH20 0xFFFFFFFFFFFFFFFFFFFFFFFFFFFFFFFFFFFFFFFF DUP3 AND SWAP1 POP SWAP2 SWAP1 POP JUMP JUMPDEST PUSH0 PUSH2 0xD27 DUP3 PUSH2 0xCFE JUMP JUMPDEST SWAP1 POP SWAP2 SWAP1 POP JUMP JUMPDEST PUSH2 0xD37 DUP2 PUSH2 0xD1D JUMP JUMPDEST DUP3 MSTORE POP POP JUMP JUMPDEST PUSH0 PUSH2 0xD48 DUP4 DUP4 PUSH2 0xD2E JUMP JUMPDEST PUSH1 0x20 DUP4 ADD SWAP1 POP SWAP3 SWAP2 POP POP JUMP JUMPDEST PUSH0 PUSH1 0x20 DUP3 ADD SWAP1 POP SWAP2 SWAP1 POP JUMP JUMPDEST PUSH0 PUSH2 0xD6A DUP3 PUSH2 0xCD5 JUMP JUMPDEST PUSH2 0xD74 DUP2 DUP6 PUSH2 0xCDF JUMP JUMPDEST SWAP4 POP PUSH2 0xD7F DUP4 PUSH2 0xCEF JUMP JUMPDEST DUP1 PUSH0 JUMPDEST DUP4 DUP2 LT ISZERO PUSH2 0xDAF JUMPI DUP2 MLOAD PUSH2 0xD96 DUP9 DUP3 PUSH2 0xD3D JUMP JUMPDEST SWAP8 POP PUSH2 0xDA1 DUP4 PUSH2 0xD54 JUMP JUMPDEST SWAP3 POP POP PUSH1 0x1 DUP2 ADD SWAP1 POP PUSH2 0xD82 JUMP JUMPDEST POP DUP6 SWAP4 POP POP POP POP SWAP3 SWAP2 POP POP JUMP JUMPDEST PUSH0 PUSH1 0x20 DUP3 ADD SWAP1 POP DUP2 DUP2 SUB PUSH0 DUP4 ADD MSTORE PUSH2 0xDD4 DUP2 DUP5 PUSH2 0xD60 JUMP JUMPDEST SWAP1 POP SWAP3 SWAP2 POP POP JUMP JUMPDEST PUSH0 DUP2 SWAP1 POP SWAP2 SWAP1 POP JUMP JUMPDEST PUSH2 0xDEE DUP2 PUSH2 0xDDC JUMP JUMPDEST DUP3 MSTORE POP POP JUMP JUMPDEST PUSH0 PUSH1 0x20 DUP3 ADD SWAP1 POP PUSH2 0xE07 PUSH0 DUP4 ADD DUP5 PUSH2 0xDE5 JUMP JUMPDEST SWAP3 SWAP2 POP POP JUMP JUMPDEST PUSH0 PUSH1 0x40 MLOAD SWAP1 POP SWAP1 JUMP JUMPDEST PUSH0 DUP1 REVERT JUMPDEST PUSH0 DUP1 REVERT JUMPDEST PUSH2 0xE27 DUP2 PUSH2 0xD1D JUMP JUMPDEST DUP2 EQ PUSH2 0xE31 JUMPI PUSH0 DUP1 REVERT JUMPDEST POP JUMP JUMPDEST PUSH0 DUP2 CALLDATALOAD SWAP1 POP PUSH2 0xE42 DUP2 PUSH2 0xE1E JUMP JUMPDEST SWAP3 SWAP2 POP POP JUMP JUMPDEST PUSH0 PUSH1 0x20 DUP3 DUP5 SUB SLT ISZERO PUSH2 0xE5D JUMPI PUSH2 0xE5C PUSH2 0xE16 JUMP JUMPDEST JUMPDEST PUSH0 PUSH2 0xE6A DUP5 DUP3 DUP6 ADD PUSH2 0xE34 JUMP JUMPDEST SWAP2 POP POP SWAP3 SWAP2 POP POP JUMP JUMPDEST PUSH0 DUP1 REVERT JUMPDEST PUSH0 DUP1 REVERT JUMPDEST PUSH0 PUSH1 0x1F NOT PUSH1 0x1F DUP4 ADD AND SWAP1 POP SWAP2 SWAP1 POP JUMP JUMPDEST PUSH32 0x4E487B7100000000000000000000000000000000000000000000000000000000 PUSH0 MSTORE PUSH1 0x41 PUSH1 0x4 MSTORE PUSH1 0x24 PUSH0 REVERT JUMPDEST PUSH2 0xEC1 DUP3 PUSH2 0xE7B JUMP JUMPDEST DUP2 ADD DUP2 DUP2 LT PUSH8 0xFFFFFFFFFFFFFFFF DUP3 GT OR ISZERO PUSH2 0xEE0 JUMPI PUSH2 0xEDF PUSH2 0xE8B JUMP JUMPDEST JUMPDEST DUP1 PUSH1 0x40 MSTORE POP POP POP JUMP JUMPDEST PUSH0 PUSH2 0xEF2 PUSH2 0xE0D JUMP JUMPDEST SWAP1 POP PUSH2 0xEFE DUP3 DUP3 PUSH2 0xEB8 JUMP JUMPDEST SWAP2 SWAP1 POP JUMP JUMPDEST PUSH0 PUSH8 0xFFFFFFFFFFFFFFFF DUP3 GT ISZERO PUSH2 0xF1D JUMPI PUSH2 0xF1C PUSH2 0xE8B JUMP JUMPDEST JUMPDEST PUSH2 0xF26 DUP3 PUSH2 0xE7B JUMP JUMPDEST SWAP1 POP PUSH1 0x20 DUP2 ADD SWAP1 POP SWAP2 SWAP1 POP JUMP JUMPDEST DUP3 DUP2 DUP4 CALLDATACOPY PUSH0 DUP4 DUP4 ADD MSTORE POP POP POP JUMP JUMPDEST PUSH0 PUSH2 0xF53 PUSH2 0xF4E DUP5 PUSH2 0xF03 JUMP JUMPDEST PUSH2 0xEE9 JUMP JUMPDEST SWAP1 POP DUP3 DUP2 MSTORE PUSH1 0x20 DUP2 ADD DUP5 DUP5 DUP5 ADD GT ISZERO PUSH2 0xF6F JUMPI PUSH2 0xF6E PUSH2 0xE77 JUMP JUMPDEST JUMPDEST PUSH2 0xF7A DUP5 DUP3 DUP6 PUSH2 0xF33 JUMP JUMPDEST POP SWAP4 SWAP3 POP POP POP JUMP JUMPDEST PUSH0 DUP3 PUSH1 0x1F DUP4 ADD SLT PUSH2 0xF96 JUMPI PUSH2 0xF95 PUSH2 0xE73 JUMP JUMPDEST JUMPDEST DUP2 CALLDATALOAD PUSH2 0xFA6 DUP5 DUP3 PUSH1 0x20 DUP7 ADD PUSH2 0xF41 JUMP JUMPDEST SWAP2 POP POP SWAP3 SWAP2 POP POP JUMP JUMPDEST PUSH0 PUSH1 0x20 DUP3 DUP5 SUB SLT ISZERO PUSH2 0xFC4 JUMPI PUSH2 0xFC3 PUSH2 0xE16 JUMP JUMPDEST JUMPDEST PUSH0 DUP3 ADD CALLDATALOAD PUSH8 0xFFFFFFFFFFFFFFFF DUP2 GT ISZERO PUSH2 0xFE1 JUMPI PUSH2 0xFE0 PUSH2 0xE1A JUMP JUMPDEST JUMPDEST PUSH2 0xFED DUP5 DUP3 DUP6 ADD PUSH2 0xF82 JUMP JUMPDEST SWAP2 POP POP SWAP3 SWAP2 POP POP JUMP JUMPDEST PUSH2 0xFFF DUP2 PUSH2 0xD1D JUMP JUMPDEST DUP3 MSTORE POP POP JUMP JUMPDEST PUSH0 PUSH1 0x20 DUP3 ADD SWAP1 POP PUSH2 0x1018 PUSH0 DUP4 ADD DUP5 PUSH2 0xFF6 JUMP JUMPDEST SWAP3 SWAP2 POP POP JUMP JUMPDEST PUSH0 DUP2 MLOAD SWAP1 POP SWAP2 SWAP1 POP JUMP JUMPDEST PUSH0 DUP3 DUP3 MSTORE PUSH1 0x20 DUP3 ADD SWAP1 POP SWAP3 SWAP2 POP POP JUMP JUMPDEST DUP3 DUP2 DUP4 MCOPY PUSH0 DUP4 DUP4 ADD MSTORE POP POP POP JUMP JUMPDEST PUSH0 PUSH2 0x1050 DUP3 PUSH2 0x101E JUMP JUMPDEST PUSH2 0x105A DUP2 DUP6 PUSH2 0x1028 JUMP JUMPDEST SWAP4 POP PUSH2 0x106A DUP2 DUP6 PUSH1 0x20 DUP7 ADD PUSH2 0x1038 JUMP JUMPDEST PUSH2 0x1073 DUP2 PUSH2 0xE7B JUMP JUMPDEST DUP5 ADD SWAP2 POP POP SWAP3 SWAP2 POP POP JUMP JUMPDEST PUSH0 PUSH1 0x20 DUP3 ADD SWAP1 POP DUP2 DUP2 SUB PUSH0 DUP4 ADD MSTORE PUSH2 0x1096 DUP2 DUP5 PUSH2 0x1046 JUMP JUMPDEST SWAP1 POP SWAP3 SWAP2 POP POP JUMP JUMPDEST PUSH32 0x4E487B7100000000000000000000000000000000000000000000000000000000 PUSH0 MSTORE PUSH1 0x32 PUSH1 0x4 MSTORE PUSH1 0x24 PUSH0 REVERT JUMPDEST PUSH32 0x4F6E6C792064726976654F776E65722063616E2077686974656C697374207468 PUSH0 DUP3 ADD MSTORE PUSH32 0x6520757365720000000000000000000000000000000000000000000000000000 PUSH1 0x20 DUP3 ADD MSTORE POP JUMP JUMPDEST PUSH0 PUSH2 0x1125 PUSH1 0x26 DUP4 PUSH2 0x1028 JUMP JUMPDEST SWAP2 POP PUSH2 0x1130 DUP3 PUSH2 0x10CB JUMP JUMPDEST PUSH1 0x40 DUP3 ADD SWAP1 POP SWAP2 SWAP1 POP JUMP JUMPDEST PUSH0 PUSH1 0x20 DUP3 ADD SWAP1 POP DUP2 DUP2 SUB PUSH0 DUP4 ADD MSTORE PUSH2 0x1152 DUP2 PUSH2 0x1119 JUMP JUMPDEST SWAP1 POP SWAP2 SWAP1 POP JUMP JUMPDEST PUSH32 0x54686520616464726573732068617320616C7265616479206265656E20776869 PUSH0 DUP3 ADD MSTORE PUSH32 0x74656C6973746564000000000000000000000000000000000000000000000000 PUSH1 0x20 DUP3 ADD MSTORE POP JUMP JUMPDEST PUSH0 PUSH2 0x11B3 PUSH1 0x28 DUP4 PUSH2 0x1028 JUMP JUMPDEST SWAP2 POP PUSH2 0x11BE DUP3 PUSH2 0x1159 JUMP JUMPDEST PUSH1 0x40 DUP3 ADD SWAP1 POP SWAP2 SWAP1 POP JUMP JUMPDEST PUSH0 PUSH1 0x20 DUP3 ADD SWAP1 POP DUP2 DUP2 SUB PUSH0 DUP4 ADD MSTORE PUSH2 0x11E0 DUP2 PUSH2 0x11A7 JUMP JUMPDEST SWAP1 POP SWAP2 SWAP1 POP JUMP JUMPDEST PUSH32 0x5573657220000000000000000000000000000000000000000000000000000000 DUP2 MSTORE POP JUMP JUMPDEST PUSH0 DUP2 SWAP1 POP SWAP3 SWAP2 POP POP JUMP JUMPDEST PUSH0 PUSH2 0x1221 DUP3 PUSH2 0x101E JUMP JUMPDEST PUSH2 0x122B DUP2 DUP6 PUSH2 0x120D JUMP JUMPDEST SWAP4 POP PUSH2 0x123B DUP2 DUP6 PUSH1 0x20 DUP7 ADD PUSH2 0x1038 JUMP JUMPDEST DUP1 DUP5 ADD SWAP2 POP POP SWAP3 SWAP2 POP POP JUMP JUMPDEST PUSH0 PUSH2 0x1251 DUP3 PUSH2 0x11E7 JUMP JUMPDEST PUSH1 0x5 DUP3 ADD SWAP2 POP PUSH2 0x1261 DUP3 DUP5 PUSH2 0x1217 JUMP JUMPDEST SWAP2 POP DUP2 SWAP1 POP SWAP3 SWAP2 POP POP JUMP JUMPDEST PUSH32 0x4E487B7100000000000000000000000000000000000000000000000000000000 PUSH0 MSTORE PUSH1 0x22 PUSH1 0x4 MSTORE PUSH1 0x24 PUSH0 REVERT JUMPDEST PUSH0 PUSH1 0x2 DUP3 DIV SWAP1 POP PUSH1 0x1 DUP3 AND DUP1 PUSH2 0x12B0 JUMPI PUSH1 0x7F DUP3 AND SWAP2 POP JUMPDEST PUSH1 0x20 DUP3 LT DUP2 SUB PUSH2 0x12C3 JUMPI PUSH2 0x12C2 PUSH2 0x126C JUMP JUMPDEST JUMPDEST POP SWAP2 SWAP1 POP JUMP JUMPDEST PUSH0 DUP2 SWAP1 POP DUP2 PUSH0 MSTORE PUSH1 0x20 PUSH0 KECCAK256 SWAP1 POP SWAP2 SWAP1 POP JUMP JUMPDEST PUSH0 PUSH1 0x20 PUSH1 0x1F DUP4 ADD DIV SWAP1 POP SWAP2 SWAP1 POP JUMP JUMPDEST PUSH0 DUP3 DUP3 SHL SWAP1 POP SWAP3 SWAP2 POP POP JUMP JUMPDEST PUSH0 PUSH1 0x8 DUP4 MUL PUSH2 0x1325 PUSH32 0xFFFFFFFFFFFFFFFFFFFFFFFFFFFFFFFFFFFFFFFFFFFFFFFFFFFFFFFFFFFFFFFF DUP3 PUSH2 0x12EA JUMP JUMPDEST PUSH2 0x132F DUP7 DUP4 PUSH2 0x12EA JUMP JUMPDEST SWAP6 POP DUP1 NOT DUP5 AND SWAP4 POP DUP1 DUP7 AND DUP5 OR SWAP3 POP POP POP SWAP4 SWAP3 POP POP POP JUMP JUMPDEST PUSH0 DUP2 SWAP1 POP SWAP2 SWAP1 POP JUMP JUMPDEST PUSH0 PUSH2 0x136A PUSH2 0x1365 PUSH2 0x1360 DUP5 PUSH2 0xDDC JUMP JUMPDEST PUSH2 0x1347 JUMP JUMPDEST PUSH2 0xDDC JUMP JUMPDEST SWAP1 POP SWAP2 SWAP1 POP JUMP JUMPDEST PUSH0 DUP2 SWAP1 POP SWAP2 SWAP1 POP JUMP JUMPDEST PUSH2 0x1383 DUP4 PUSH2 0x1350 JUMP JUMPDEST PUSH2 0x1397 PUSH2 0x138F DUP3 PUSH2 0x1371 JUMP JUMPDEST DUP5 DUP5 SLOAD PUSH2 0x12F6 JUMP JUMPDEST DUP3 SSTORE POP POP POP POP JUMP JUMPDEST PUSH0 SWAP1 JUMP JUMPDEST PUSH2 0x13AB PUSH2 0x139F JUMP JUMPDEST PUSH2 0x13B6 DUP2 DUP5 DUP5 PUSH2 0x137A JUMP JUMPDEST POP POP POP JUMP JUMPDEST JUMPDEST DUP2 DUP2 LT ISZERO PUSH2 0x13D9 JUMPI PUSH2 0x13CE PUSH0 DUP3 PUSH2 0x13A3 JUMP JUMPDEST PUSH1 0x1 DUP2 ADD SWAP1 POP PUSH2 0x13BC JUMP JUMPDEST POP POP JUMP JUMPDEST PUSH1 0x1F DUP3 GT ISZERO PUSH2 0x141E JUMPI PUSH2 0x13EF DUP2 PUSH2 0x12C9 JUMP JUMPDEST PUSH2 0x13F8 DUP5 PUSH2 0x12DB JUMP JUMPDEST DUP2 ADD PUSH1 0x20 DUP6 LT ISZERO PUSH2 0x1407 JUMPI DUP2 SWAP1 POP JUMPDEST PUSH2 0x141B PUSH2 0x1413 DUP6 PUSH2 0x12DB JUMP JUMPDEST DUP4 ADD DUP3 PUSH2 0x13BB JUMP JUMPDEST POP POP JUMPDEST POP POP POP JUMP JUMPDEST PUSH0 DUP3 DUP3 SHR SWAP1 POP SWAP3 SWAP2 POP POP JUMP JUMPDEST PUSH0 PUSH2 0x143E PUSH0 NOT DUP5 PUSH1 0x8 MUL PUSH2 0x1423 JUMP JUMPDEST NOT DUP1 DUP4 AND SWAP2 POP POP SWAP3 SWAP2 POP POP JUMP JUMPDEST PUSH0 PUSH2 0x1456 DUP4 DUP4 PUSH2 0x142F JUMP JUMPDEST SWAP2 POP DUP3 PUSH1 0x2 MUL DUP3 OR SWAP1 POP SWAP3 SWAP2 POP POP JUMP JUMPDEST PUSH2 0x146F DUP3 PUSH2 0x101E JUMP JUMPDEST PUSH8 0xFFFFFFFFFFFFFFFF DUP2 GT ISZERO PUSH2 0x1488 JUMPI PUSH2 0x1487 PUSH2 0xE8B JUMP JUMPDEST JUMPDEST PUSH2 0x1492 DUP3 SLOAD PUSH2 0x1299 JUMP JUMPDEST PUSH2 0x149D DUP3 DUP3 DUP6 PUSH2 0x13DD JUMP JUMPDEST PUSH0 PUSH1 0x20 SWAP1 POP PUSH1 0x1F DUP4 GT PUSH1 0x1 DUP2 EQ PUSH2 0x14CE JUMPI PUSH0 DUP5 ISZERO PUSH2 0x14BC JUMPI DUP3 DUP8 ADD MLOAD SWAP1 POP JUMPDEST PUSH2 0x14C6 DUP6 DUP3 PUSH2 0x144B JUMP JUMPDEST DUP7 SSTORE POP PUSH2 0x152D JUMP JUMPDEST PUSH1 0x1F NOT DUP5 AND PUSH2 0x14DC DUP7 PUSH2 0x12C9 JUMP JUMPDEST PUSH0 JUMPDEST DUP3 DUP2 LT ISZERO PUSH2 0x1503 JUMPI DUP5 DUP10 ADD MLOAD DUP3 SSTORE PUSH1 0x1 DUP3 ADD SWAP2 POP PUSH1 0x20 DUP6 ADD SWAP5 POP PUSH1 0x20 DUP2 ADD SWAP1 POP PUSH2 0x14DE JUMP JUMPDEST DUP7 DUP4 LT ISZERO PUSH2 0x1520 JUMPI DUP5 DUP10 ADD MLOAD PUSH2 0x151C PUSH1 0x1F DUP10 AND DUP3 PUSH2 0x142F JUMP JUMPDEST DUP4 SSTORE POP JUMPDEST PUSH1 0x1 PUSH1 0x2 DUP9 MUL ADD DUP9 SSTORE POP POP POP JUMPDEST POP POP POP POP POP POP JUMP JUMPDEST PUSH0 PUSH2 0x1540 DUP3 DUP5 PUSH2 0x1217 JUMP JUMPDEST SWAP2 POP DUP2 SWAP1 POP SWAP3 SWAP2 POP POP JUMP JUMPDEST PUSH32 0x4E487B7100000000000000000000000000000000000000000000000000000000 PUSH0 MSTORE PUSH1 0x11 PUSH1 0x4 MSTORE PUSH1 0x24 PUSH0 REVERT JUMPDEST PUSH0 PUSH2 0x1582 DUP3 PUSH2 0xDDC JUMP JUMPDEST SWAP2 POP PUSH2 0x158D DUP4 PUSH2 0xDDC JUMP JUMPDEST SWAP3 POP DUP3 DUP3 ADD SWAP1 POP DUP1 DUP3 GT ISZERO PUSH2 0x15A5 JUMPI PUSH2 0x15A4 PUSH2 0x154B JUMP JUMPDEST JUMPDEST SWAP3 SWAP2 POP POP JUMP JUMPDEST PUSH32 0x4E616D65206E6F7420617661696C61626C650000000000000000000000000000 PUSH0 DUP3 ADD MSTORE POP JUMP JUMPDEST PUSH0 PUSH2 0x15DF PUSH1 0x12 DUP4 PUSH2 0x1028 JUMP JUMPDEST SWAP2 POP PUSH2 0x15EA DUP3 PUSH2 0x15AB JUMP JUMPDEST PUSH1 0x20 DUP3 ADD SWAP1 POP SWAP2 SWAP1 POP JUMP JUMPDEST PUSH0 PUSH1 0x20 DUP3 ADD SWAP1 POP DUP2 DUP2 SUB PUSH0 DUP4 ADD MSTORE PUSH2 0x160C DUP2 PUSH2 0x15D3 JUMP JUMPDEST SWAP1 POP SWAP2 SWAP1 POP JUMP JUMPDEST PUSH32 0x5573657220646F6573206E6F7420657869737400000000000000000000000000 PUSH0 DUP3 ADD MSTORE POP JUMP JUMPDEST PUSH0 PUSH2 0x1647 PUSH1 0x13 DUP4 PUSH2 0x1028 JUMP JUMPDEST SWAP2 POP PUSH2 0x1652 DUP3 PUSH2 0x1613 JUMP JUMPDEST PUSH1 0x20 DUP3 ADD SWAP1 POP SWAP2 SWAP1 POP JUMP JUMPDEST PUSH0 PUSH1 0x20 DUP3 ADD SWAP1 POP DUP2 DUP2 SUB PUSH0 DUP4 ADD MSTORE PUSH2 0x1674 DUP2 PUSH2 0x163B JUMP JUMPDEST SWAP1 POP SWAP2 SWAP1 POP JUMP JUMPDEST PUSH32 0x55736572206E6F742077686974656C6973746564000000000000000000000000 PUSH0 DUP3 ADD MSTORE POP JUMP JUMPDEST PUSH0 PUSH2 0x16AF PUSH1 0x14 DUP4 PUSH2 0x1028 JUMP JUMPDEST SWAP2 POP PUSH2 0x16BA DUP3 PUSH2 0x167B JUMP JUMPDEST PUSH1 0x20 DUP3 ADD SWAP1 POP SWAP2 SWAP1 POP JUMP JUMPDEST PUSH0 PUSH1 0x20 DUP3 ADD SWAP1 POP DUP2 DUP2 SUB PUSH0 DUP4 ADD MSTORE PUSH2 0x16DC DUP2 PUSH2 0x16A3 JUMP JUMPDEST SWAP1 POP SWAP2 SWAP1 POP JUMP JUMPDEST PUSH32 0x4E487B7100000000000000000000000000000000000000000000000000000000 PUSH0 MSTORE PUSH1 0x12 PUSH1 0x4 MSTORE PUSH1 0x24 PUSH0 REVERT INVALID LOG2 PUSH5 0x6970667358 0x22 SLT KECCAK256 PC EXTCODEHASH 0xB8 0xC1 EXP SWAP13 0xCE NOT 0x29 PC LOG3 0xCC PUSH10 0xB464DB93BD77EE1FE9D3 0xC7 JUMP SWAP15 BLOBBASEFEE ORIGIN PUSH19 0x3B539E64736F6C634300081A00330000000000 "
				},
				"gasEstimates": {
					"creation": {
						"codeDepositCost": "1191600",
						"executionCost": "infinite",
						"totalCost": "infinite"
					},
					"external": {
						"changeSelfUsername(string)": "infinite",
						"numOfUsers()": "2425",
						"viewDriveOwner()": "2586",
						"viewUsername(address)": "infinite",
						"viewWhitelist()": "infinite",
						"whitelistUser(address)": "infinite"
					}
				},
				"methodIdentifiers": {
					"changeSelfUsername(string)": "4bcab57d",
					"numOfUsers()": "43f7bde5",
					"viewDriveOwner()": "96dbc141",
					"viewUsername(address)": "c63676ac",
					"viewWhitelist()": "0e1a1ea8",
					"whitelistUser(address)": "4a4c560d"
				}
			},
			"storageLayout": {
				"storage": [
					{
						"astId": 3899,
						"contract": "contracts/UserSystem.sol:UserSystem",
						"label": "driveOwner",
						"offset": 0,
						"slot": "0",
						"type": "t_struct(User)3896_storage"
					},
					{
						"astId": 3903,
						"contract": "contracts/UserSystem.sol:UserSystem",
						"label": "userList",
						"offset": 0,
						"slot": "3",
						"type": "t_array(t_struct(User)3896_storage)dyn_storage"
					},
					{
						"astId": 3908,
						"contract": "contracts/UserSystem.sol:UserSystem",
						"label": "users",
						"offset": 0,
						"slot": "4",
						"type": "t_mapping(t_address,t_struct(User)3896_storage)"
					},
					{
						"astId": 3912,
						"contract": "contracts/UserSystem.sol:UserSystem",
						"label": "whitelist",
						"offset": 0,
						"slot": "5",
						"type": "t_mapping(t_address,t_bool)"
					},
					{
						"astId": 3916,
						"contract": "contracts/UserSystem.sol:UserSystem",
						"label": "by_id",
						"offset": 0,
						"slot": "6",
						"type": "t_mapping(t_uint256,t_address)"
					},
					{
						"astId": 3920,
						"contract": "contracts/UserSystem.sol:UserSystem",
						"label": "by_name",
						"offset": 0,
						"slot": "7",
						"type": "t_mapping(t_string_memory_ptr,t_address)"
					},
					{
						"astId": 3922,
						"contract": "contracts/UserSystem.sol:UserSystem",
						"label": "numOfUsers",
						"offset": 0,
						"slot": "8",
						"type": "t_uint256"
					}
				],
				"types": {
					"t_address": {
						"encoding": "inplace",
						"label": "address",
						"numberOfBytes": "20"
					},
					"t_array(t_struct(User)3896_storage)dyn_storage": {
						"base": "t_struct(User)3896_storage",
						"encoding": "dynamic_array",
						"label": "struct UserSystem.User[]",
						"numberOfBytes": "32"
					},
					"t_bool": {
						"encoding": "inplace",
						"label": "bool",
						"numberOfBytes": "1"
					},
					"t_mapping(t_address,t_bool)": {
						"encoding": "mapping",
						"key": "t_address",
						"label": "mapping(address => bool)",
						"numberOfBytes": "32",
						"value": "t_bool"
					},
					"t_mapping(t_address,t_struct(User)3896_storage)": {
						"encoding": "mapping",
						"key": "t_address",
						"label": "mapping(address => struct UserSystem.User)",
						"numberOfBytes": "32",
						"value": "t_struct(User)3896_storage"
					},
					"t_mapping(t_string_memory_ptr,t_address)": {
						"encoding": "mapping",
						"key": "t_string_memory_ptr",
						"label": "mapping(string => address)",
						"numberOfBytes": "32",
						"value": "t_address"
					},
					"t_mapping(t_uint256,t_address)": {
						"encoding": "mapping",
						"key": "t_uint256",
						"label": "mapping(uint256 => address)",
						"numberOfBytes": "32",
						"value": "t_address"
					},
					"t_string_memory_ptr": {
						"encoding": "bytes",
						"label": "string",
						"numberOfBytes": "32"
					},
					"t_string_storage": {
						"encoding": "bytes",
						"label": "string",
						"numberOfBytes": "32"
					},
					"t_struct(User)3896_storage": {
						"encoding": "inplace",
						"label": "struct UserSystem.User",
						"members": [
							{
								"astId": 3891,
								"contract": "contracts/UserSystem.sol:UserSystem",
								"label": "addr",
								"offset": 0,
								"slot": "0",
								"type": "t_address"
							},
							{
								"astId": 3893,
								"contract": "contracts/UserSystem.sol:UserSystem",
								"label": "id",
								"offset": 0,
								"slot": "1",
								"type": "t_uint256"
							},
							{
								"astId": 3895,
								"contract": "contracts/UserSystem.sol:UserSystem",
								"label": "name",
								"offset": 0,
								"slot": "2",
								"type": "t_string_storage"
							}
						],
						"numberOfBytes": "96"
					},
					"t_uint256": {
						"encoding": "inplace",
						"label": "uint256",
						"numberOfBytes": "32"
					}
				}
			},
			"userdoc": {
				"kind": "user",
				"methods": {},
				"version": 1
			}
		}
	}
}