{
	"contracts/FileStorage.sol": {
		"FileStorage": {
			"abi": [
				{
					"inputs": [],
					"stateMutability": "nonpayable",
					"type": "constructor"
				},
				{
					"anonymous": false,
					"inputs": [
						{
							"indexed": false,
							"internalType": "string",
							"name": "filename",
							"type": "string"
						},
						{
							"indexed": false,
							"internalType": "string",
							"name": "content",
							"type": "string"
						}
					],
					"name": "FileCreated",
					"type": "event"
				},
				{
					"anonymous": false,
					"inputs": [
						{
							"indexed": false,
							"internalType": "string",
							"name": "filename",
							"type": "string"
						}
					],
					"name": "FileDeleted",
					"type": "event"
				},
				{
					"anonymous": false,
					"inputs": [
						{
							"indexed": false,
							"internalType": "string",
							"name": "filename",
							"type": "string"
						},
						{
							"indexed": false,
							"internalType": "string",
							"name": "content",
							"type": "string"
						}
					],
					"name": "FileEdited",
					"type": "event"
				},
				{
					"inputs": [
						{
							"internalType": "string",
							"name": "_filename",
							"type": "string"
						},
						{
							"internalType": "address",
							"name": "_addr",
							"type": "address"
						},
						{
							"internalType": "bool",
							"name": "read",
							"type": "bool"
						},
						{
							"internalType": "bool",
							"name": "write",
							"type": "bool"
						}
					],
					"name": "changeFilePermission",
					"outputs": [],
					"stateMutability": "nonpayable",
					"type": "function"
				},
				{
					"inputs": [
						{
							"internalType": "string",
							"name": "_filename",
							"type": "string"
						},
						{
							"internalType": "string",
							"name": "_content",
							"type": "string"
						}
					],
					"name": "createFile",
					"outputs": [],
					"stateMutability": "nonpayable",
					"type": "function"
				},
				{
					"inputs": [
						{
							"internalType": "string",
							"name": "_filename",
							"type": "string"
						}
					],
					"name": "deleteFile",
					"outputs": [],
					"stateMutability": "nonpayable",
					"type": "function"
				},
				{
					"inputs": [],
					"name": "driveOwner",
					"outputs": [
						{
							"internalType": "address",
							"name": "",
							"type": "address"
						}
					],
					"stateMutability": "view",
					"type": "function"
				},
				{
					"inputs": [
						{
							"internalType": "string",
							"name": "_filename",
							"type": "string"
						},
						{
							"internalType": "string",
							"name": "_newContent",
							"type": "string"
						}
					],
					"name": "editFile",
					"outputs": [],
					"stateMutability": "nonpayable",
					"type": "function"
				},
				{
					"inputs": [
						{
							"internalType": "string",
							"name": "_filename",
							"type": "string"
						}
					],
					"name": "readFile",
					"outputs": [
						{
							"internalType": "string",
							"name": "",
							"type": "string"
						}
					],
					"stateMutability": "view",
					"type": "function"
				},
				{
					"inputs": [],
					"name": "viewFileList",
					"outputs": [
						{
							"internalType": "string[]",
							"name": "",
							"type": "string[]"
						}
					],
					"stateMutability": "view",
					"type": "function"
				},
				{
					"inputs": [
						{
							"internalType": "string",
							"name": "_filename",
							"type": "string"
						},
						{
							"internalType": "address",
							"name": "_addr",
							"type": "address"
						}
					],
					"name": "viewFilePermission",
					"outputs": [
						{
							"internalType": "bool[2]",
							"name": "",
							"type": "bool[2]"
						}
					],
					"stateMutability": "view",
					"type": "function"
				}
			],
			"devdoc": {
				"kind": "dev",
				"methods": {},
				"version": 1
			},
			"evm": {
				"assembly": "    /* \"contracts/FileStorage.sol\":76:3505  contract FileStorage {... */\n  mstore(0x40, 0x80)\n    /* \"contracts/FileStorage.sol\":947:1003  constructor() {... */\n  callvalue\n  dup1\n  iszero\n  tag_1\n  jumpi\n  0x00\n  dup1\n  revert\ntag_1:\n  pop\n    /* \"contracts/FileStorage.sol\":985:995  msg.sender */\n  caller\n    /* \"contracts/FileStorage.sol\":972:982  driveOwner */\n  0x00\n  dup1\n    /* \"contracts/FileStorage.sol\":972:995  driveOwner = msg.sender */\n  0x0100\n  exp\n  dup2\n  sload\n  dup2\n  0xffffffffffffffffffffffffffffffffffffffff\n  mul\n  not\n  and\n  swap1\n  dup4\n  0xffffffffffffffffffffffffffffffffffffffff\n  and\n  mul\n  or\n  swap1\n  sstore\n  pop\n    /* \"contracts/FileStorage.sol\":76:3505  contract FileStorage {... */\n  dataSize(sub_0)\n  dup1\n  dataOffset(sub_0)\n  0x00\n  codecopy\n  0x00\n  return\nstop\n\nsub_0: assembly {\n        /* \"contracts/FileStorage.sol\":76:3505  contract FileStorage {... */\n      mstore(0x40, 0x80)\n      callvalue\n      dup1\n      iszero\n      tag_1\n      jumpi\n      0x00\n      dup1\n      revert\n    tag_1:\n      pop\n      jumpi(tag_2, lt(calldatasize, 0x04))\n      shr(0xe0, calldataload(0x00))\n      dup1\n      0x7d41216d\n      gt\n      tag_11\n      jumpi\n      dup1\n      0x7d41216d\n      eq\n      tag_7\n      jumpi\n      dup1\n      0x81ad193a\n      eq\n      tag_8\n      jumpi\n      dup1\n      0xa9910054\n      eq\n      tag_9\n      jumpi\n      dup1\n      0xbac87fe0\n      eq\n      tag_10\n      jumpi\n      jump(tag_2)\n    tag_11:\n      dup1\n      0x0fc715c3\n      eq\n      tag_3\n      jumpi\n      dup1\n      0x5a5cbc85\n      eq\n      tag_4\n      jumpi\n      dup1\n      0x60f9bb11\n      eq\n      tag_5\n      jumpi\n      dup1\n      0x67e51090\n      eq\n      tag_6\n      jumpi\n    tag_2:\n      0x00\n      dup1\n      revert\n        /* \"contracts/FileStorage.sol\":353:378  address public driveOwner */\n    tag_3:\n      tag_12\n      tag_13\n      jump\t// in\n    tag_12:\n      mload(0x40)\n      tag_14\n      swap2\n      swap1\n      tag_15\n      jump\t// in\n    tag_14:\n      mload(0x40)\n      dup1\n      swap2\n      sub\n      swap1\n      return\n        /* \"contracts/FileStorage.sol\":2817:3078  function changeFilePermission(string memory _filename, address _addr, bool read, bool write) public onlyFileOwner(_filename) fileExists(_filename) {... */\n    tag_4:\n      tag_16\n      0x04\n      dup1\n      calldatasize\n      sub\n      dup2\n      add\n      swap1\n      tag_17\n      swap2\n      swap1\n      tag_18\n      jump\t// in\n    tag_17:\n      tag_19\n      jump\t// in\n    tag_16:\n      stop\n        /* \"contracts/FileStorage.sol\":1722:1950  function readFile(string memory _filename) public view fileExists(_filename) returns (string memory) {... */\n    tag_5:\n      tag_20\n      0x04\n      dup1\n      calldatasize\n      sub\n      dup2\n      add\n      swap1\n      tag_21\n      swap2\n      swap1\n      tag_22\n      jump\t// in\n    tag_21:\n      tag_23\n      jump\t// in\n    tag_20:\n      mload(0x40)\n      tag_24\n      swap2\n      swap1\n      tag_25\n      jump\t// in\n    tag_24:\n      mload(0x40)\n      dup1\n      swap2\n      sub\n      swap1\n      return\n        /* \"contracts/FileStorage.sol\":1977:2262  function editFile(string memory _filename, string memory _newContent) public fileExists(_filename) {... */\n    tag_6:\n      tag_26\n      0x04\n      dup1\n      calldatasize\n      sub\n      dup2\n      add\n      swap1\n      tag_27\n      swap2\n      swap1\n      tag_28\n      jump\t// in\n    tag_27:\n      tag_29\n      jump\t// in\n    tag_26:\n      stop\n        /* \"contracts/FileStorage.sol\":3086:3370  function viewFilePermission(string memory _filename, address _addr) external view fileExists(_filename) returns (bool[2] memory) {... */\n    tag_7:\n      tag_30\n      0x04\n      dup1\n      calldatasize\n      sub\n      dup2\n      add\n      swap1\n      tag_31\n      swap2\n      swap1\n      tag_32\n      jump\t// in\n    tag_31:\n      tag_33\n      jump\t// in\n    tag_30:\n      mload(0x40)\n      tag_34\n      swap2\n      swap1\n      tag_35\n      jump\t// in\n    tag_34:\n      mload(0x40)\n      dup1\n      swap2\n      sub\n      swap1\n      return\n        /* \"contracts/FileStorage.sol\":1033:1678  function createFile(string memory _filename, string memory _content) public {... */\n    tag_8:\n      tag_36\n      0x04\n      dup1\n      calldatasize\n      sub\n      dup2\n      add\n      swap1\n      tag_37\n      swap2\n      swap1\n      tag_28\n      jump\t// in\n    tag_37:\n      tag_38\n      jump\t// in\n    tag_36:\n      stop\n        /* \"contracts/FileStorage.sol\":2291:2809  function deleteFile(string memory _filename) public onlyFileOwner(_filename) fileExists(_filename) {... */\n    tag_9:\n      tag_39\n      0x04\n      dup1\n      calldatasize\n      sub\n      dup2\n      add\n      swap1\n      tag_40\n      swap2\n      swap1\n      tag_22\n      jump\t// in\n    tag_40:\n      tag_41\n      jump\t// in\n    tag_39:\n      stop\n        /* \"contracts/FileStorage.sol\":3404:3502  function viewFileList() external view returns (string[] memory) {... */\n    tag_10:\n      tag_42\n      tag_43\n      jump\t// in\n    tag_42:\n      mload(0x40)\n      tag_44\n      swap2\n      swap1\n      tag_45\n      jump\t// in\n    tag_44:\n      mload(0x40)\n      dup1\n      swap2\n      sub\n      swap1\n      return\n        /* \"contracts/FileStorage.sol\":353:378  address public driveOwner */\n    tag_13:\n      0x00\n      dup1\n      sload\n      swap1\n      0x0100\n      exp\n      swap1\n      div\n      0xffffffffffffffffffffffffffffffffffffffff\n      and\n      dup2\n      jump\t// out\n        /* \"contracts/FileStorage.sol\":2817:3078  function changeFilePermission(string memory _filename, address _addr, bool read, bool write) public onlyFileOwner(_filename) fileExists(_filename) {... */\n    tag_19:\n        /* \"contracts/FileStorage.sol\":2931:2940  _filename */\n      dup4\n        /* \"contracts/FileStorage.sol\":702:707  files */\n      0x01\n        /* \"contracts/FileStorage.sol\":708:717  _filename */\n      dup2\n        /* \"contracts/FileStorage.sol\":702:718  files[_filename] */\n      mload(0x40)\n      tag_47\n      swap2\n      swap1\n      tag_48\n      jump\t// in\n    tag_47:\n      swap1\n      dup2\n      mstore\n      0x20\n      add\n      mload(0x40)\n      dup1\n      swap2\n      sub\n      swap1\n      keccak256\n        /* \"contracts/FileStorage.sol\":702:728  files[_filename].fileOwner */\n      0x02\n      add\n      0x01\n      swap1\n      sload\n      swap1\n      0x0100\n      exp\n      swap1\n      div\n      0xffffffffffffffffffffffffffffffffffffffff\n      and\n        /* \"contracts/FileStorage.sol\":688:728  msg.sender == files[_filename].fileOwner */\n      0xffffffffffffffffffffffffffffffffffffffff\n      and\n        /* \"contracts/FileStorage.sol\":688:698  msg.sender */\n      caller\n        /* \"contracts/FileStorage.sol\":688:728  msg.sender == files[_filename].fileOwner */\n      0xffffffffffffffffffffffffffffffffffffffff\n      and\n      eq\n        /* \"contracts/FileStorage.sol\":680:755  require(msg.sender == files[_filename].fileOwner, \"Not the file fileOwner\") */\n      tag_49\n      jumpi\n      mload(0x40)\n      0x08c379a000000000000000000000000000000000000000000000000000000000\n      dup2\n      mstore\n      0x04\n      add\n      tag_50\n      swap1\n      tag_51\n      jump\t// in\n    tag_50:\n      mload(0x40)\n      dup1\n      swap2\n      sub\n      swap1\n      revert\n    tag_49:\n        /* \"contracts/FileStorage.sol\":2953:2962  _filename */\n      dup5\n        /* \"contracts/FileStorage.sol\":847:852  files */\n      0x01\n        /* \"contracts/FileStorage.sol\":853:862  _filename */\n      dup2\n        /* \"contracts/FileStorage.sol\":847:863  files[_filename] */\n      mload(0x40)\n      tag_53\n      swap2\n      swap1\n      tag_48\n      jump\t// in\n    tag_53:\n      swap1\n      dup2\n      mstore\n      0x20\n      add\n      mload(0x40)\n      dup1\n      swap2\n      sub\n      swap1\n      keccak256\n        /* \"contracts/FileStorage.sol\":847:870  files[_filename].exists */\n      0x02\n      add\n      0x00\n      swap1\n      sload\n      swap1\n      0x0100\n      exp\n      swap1\n      div\n      0xff\n      and\n        /* \"contracts/FileStorage.sol\":839:894  require(files[_filename].exists, \"File does not exist\") */\n      tag_54\n      jumpi\n      mload(0x40)\n      0x08c379a000000000000000000000000000000000000000000000000000000000\n      dup2\n      mstore\n      0x04\n      add\n      tag_55\n      swap1\n      tag_56\n      jump\t// in\n    tag_55:\n      mload(0x40)\n      dup1\n      swap2\n      sub\n      swap1\n      revert\n    tag_54:\n        /* \"contracts/FileStorage.sol\":3012:3016  read */\n      dup4\n        /* \"contracts/FileStorage.sol\":2975:2980  files */\n      0x01\n        /* \"contracts/FileStorage.sol\":2981:2990  _filename */\n      dup8\n        /* \"contracts/FileStorage.sol\":2975:2991  files[_filename] */\n      mload(0x40)\n      tag_58\n      swap2\n      swap1\n      tag_48\n      jump\t// in\n    tag_58:\n      swap1\n      dup2\n      mstore\n      0x20\n      add\n      mload(0x40)\n      dup1\n      swap2\n      sub\n      swap1\n      keccak256\n        /* \"contracts/FileStorage.sol\":2975:3002  files[_filename].readAccess */\n      0x03\n      add\n        /* \"contracts/FileStorage.sol\":2975:3009  files[_filename].readAccess[_addr] */\n      0x00\n        /* \"contracts/FileStorage.sol\":3003:3008  _addr */\n      dup8\n        /* \"contracts/FileStorage.sol\":2975:3009  files[_filename].readAccess[_addr] */\n      0xffffffffffffffffffffffffffffffffffffffff\n      and\n      0xffffffffffffffffffffffffffffffffffffffff\n      and\n      dup2\n      mstore\n      0x20\n      add\n      swap1\n      dup2\n      mstore\n      0x20\n      add\n      0x00\n      keccak256\n      0x00\n        /* \"contracts/FileStorage.sol\":2975:3016  files[_filename].readAccess[_addr] = read */\n      0x0100\n      exp\n      dup2\n      sload\n      dup2\n      0xff\n      mul\n      not\n      and\n      swap1\n      dup4\n      iszero\n      iszero\n      mul\n      or\n      swap1\n      sstore\n      pop\n        /* \"contracts/FileStorage.sol\":3065:3070  write */\n      dup3\n        /* \"contracts/FileStorage.sol\":3027:3032  files */\n      0x01\n        /* \"contracts/FileStorage.sol\":3033:3042  _filename */\n      dup8\n        /* \"contracts/FileStorage.sol\":3027:3043  files[_filename] */\n      mload(0x40)\n      tag_59\n      swap2\n      swap1\n      tag_48\n      jump\t// in\n    tag_59:\n      swap1\n      dup2\n      mstore\n      0x20\n      add\n      mload(0x40)\n      dup1\n      swap2\n      sub\n      swap1\n      keccak256\n        /* \"contracts/FileStorage.sol\":3027:3055  files[_filename].writeAccess */\n      0x04\n      add\n        /* \"contracts/FileStorage.sol\":3027:3062  files[_filename].writeAccess[_addr] */\n      0x00\n        /* \"contracts/FileStorage.sol\":3056:3061  _addr */\n      dup8\n        /* \"contracts/FileStorage.sol\":3027:3062  files[_filename].writeAccess[_addr] */\n      0xffffffffffffffffffffffffffffffffffffffff\n      and\n      0xffffffffffffffffffffffffffffffffffffffff\n      and\n      dup2\n      mstore\n      0x20\n      add\n      swap1\n      dup2\n      mstore\n      0x20\n      add\n      0x00\n      keccak256\n      0x00\n        /* \"contracts/FileStorage.sol\":3027:3070  files[_filename].writeAccess[_addr] = write */\n      0x0100\n      exp\n      dup2\n      sload\n      dup2\n      0xff\n      mul\n      not\n      and\n      swap1\n      dup4\n      iszero\n      iszero\n      mul\n      or\n      swap1\n      sstore\n      pop\n        /* \"contracts/FileStorage.sol\":766:767  _ */\n      pop\n        /* \"contracts/FileStorage.sol\":2817:3078  function changeFilePermission(string memory _filename, address _addr, bool read, bool write) public onlyFileOwner(_filename) fileExists(_filename) {... */\n      pop\n      pop\n      pop\n      pop\n      pop\n      jump\t// out\n        /* \"contracts/FileStorage.sol\":1722:1950  function readFile(string memory _filename) public view fileExists(_filename) returns (string memory) {... */\n    tag_23:\n        /* \"contracts/FileStorage.sol\":1808:1821  string memory */\n      0x60\n        /* \"contracts/FileStorage.sol\":1788:1797  _filename */\n      dup2\n        /* \"contracts/FileStorage.sol\":847:852  files */\n      0x01\n        /* \"contracts/FileStorage.sol\":853:862  _filename */\n      dup2\n        /* \"contracts/FileStorage.sol\":847:863  files[_filename] */\n      mload(0x40)\n      tag_61\n      swap2\n      swap1\n      tag_48\n      jump\t// in\n    tag_61:\n      swap1\n      dup2\n      mstore\n      0x20\n      add\n      mload(0x40)\n      dup1\n      swap2\n      sub\n      swap1\n      keccak256\n        /* \"contracts/FileStorage.sol\":847:870  files[_filename].exists */\n      0x02\n      add\n      0x00\n      swap1\n      sload\n      swap1\n      0x0100\n      exp\n      swap1\n      div\n      0xff\n      and\n        /* \"contracts/FileStorage.sol\":839:894  require(files[_filename].exists, \"File does not exist\") */\n      tag_62\n      jumpi\n      mload(0x40)\n      0x08c379a000000000000000000000000000000000000000000000000000000000\n      dup2\n      mstore\n      0x04\n      add\n      tag_63\n      swap1\n      tag_56\n      jump\t// in\n    tag_63:\n      mload(0x40)\n      dup1\n      swap2\n      sub\n      swap1\n      revert\n    tag_62:\n        /* \"contracts/FileStorage.sol\":1842:1847  files */\n      0x01\n        /* \"contracts/FileStorage.sol\":1848:1857  _filename */\n      dup4\n        /* \"contracts/FileStorage.sol\":1842:1858  files[_filename] */\n      mload(0x40)\n      tag_65\n      swap2\n      swap1\n      tag_48\n      jump\t// in\n    tag_65:\n      swap1\n      dup2\n      mstore\n      0x20\n      add\n      mload(0x40)\n      dup1\n      swap2\n      sub\n      swap1\n      keccak256\n        /* \"contracts/FileStorage.sol\":1842:1869  files[_filename].readAccess */\n      0x03\n      add\n        /* \"contracts/FileStorage.sol\":1842:1881  files[_filename].readAccess[msg.sender] */\n      0x00\n        /* \"contracts/FileStorage.sol\":1870:1880  msg.sender */\n      caller\n        /* \"contracts/FileStorage.sol\":1842:1881  files[_filename].readAccess[msg.sender] */\n      0xffffffffffffffffffffffffffffffffffffffff\n      and\n      0xffffffffffffffffffffffffffffffffffffffff\n      and\n      dup2\n      mstore\n      0x20\n      add\n      swap1\n      dup2\n      mstore\n      0x20\n      add\n      0x00\n      keccak256\n      0x00\n      swap1\n      sload\n      swap1\n      0x0100\n      exp\n      swap1\n      div\n      0xff\n      and\n        /* \"contracts/FileStorage.sol\":1834:1900  require(files[_filename].readAccess[msg.sender], \"No read access\") */\n      tag_66\n      jumpi\n      mload(0x40)\n      0x08c379a000000000000000000000000000000000000000000000000000000000\n      dup2\n      mstore\n      0x04\n      add\n      tag_67\n      swap1\n      tag_68\n      jump\t// in\n    tag_67:\n      mload(0x40)\n      dup1\n      swap2\n      sub\n      swap1\n      revert\n    tag_66:\n        /* \"contracts/FileStorage.sol\":1918:1923  files */\n      0x01\n        /* \"contracts/FileStorage.sol\":1924:1933  _filename */\n      dup4\n        /* \"contracts/FileStorage.sol\":1918:1934  files[_filename] */\n      mload(0x40)\n      tag_69\n      swap2\n      swap1\n      tag_48\n      jump\t// in\n    tag_69:\n      swap1\n      dup2\n      mstore\n      0x20\n      add\n      mload(0x40)\n      dup1\n      swap2\n      sub\n      swap1\n      keccak256\n        /* \"contracts/FileStorage.sol\":1918:1942  files[_filename].content */\n      0x01\n      add\n        /* \"contracts/FileStorage.sol\":1911:1942  return files[_filename].content */\n      dup1\n      sload\n      tag_70\n      swap1\n      tag_71\n      jump\t// in\n    tag_70:\n      dup1\n      0x1f\n      add\n      0x20\n      dup1\n      swap2\n      div\n      mul\n      0x20\n      add\n      mload(0x40)\n      swap1\n      dup2\n      add\n      0x40\n      mstore\n      dup1\n      swap3\n      swap2\n      swap1\n      dup2\n      dup2\n      mstore\n      0x20\n      add\n      dup3\n      dup1\n      sload\n      tag_72\n      swap1\n      tag_71\n      jump\t// in\n    tag_72:\n      dup1\n      iszero\n      tag_73\n      jumpi\n      dup1\n      0x1f\n      lt\n      tag_74\n      jumpi\n      0x0100\n      dup1\n      dup4\n      sload\n      div\n      mul\n      dup4\n      mstore\n      swap2\n      0x20\n      add\n      swap2\n      jump(tag_73)\n    tag_74:\n      dup3\n      add\n      swap2\n      swap1\n      0x00\n      mstore\n      keccak256(0x00, 0x20)\n      swap1\n    tag_75:\n      dup2\n      sload\n      dup2\n      mstore\n      swap1\n      0x01\n      add\n      swap1\n      0x20\n      add\n      dup1\n      dup4\n      gt\n      tag_75\n      jumpi\n      dup3\n      swap1\n      sub\n      0x1f\n      and\n      dup3\n      add\n      swap2\n    tag_73:\n      pop\n      pop\n      pop\n      pop\n      pop\n      swap2\n      pop\n        /* \"contracts/FileStorage.sol\":1722:1950  function readFile(string memory _filename) public view fileExists(_filename) returns (string memory) {... */\n      pop\n      swap2\n      swap1\n      pop\n      jump\t// out\n        /* \"contracts/FileStorage.sol\":1977:2262  function editFile(string memory _filename, string memory _newContent) public fileExists(_filename) {... */\n    tag_29:\n        /* \"contracts/FileStorage.sol\":2065:2074  _filename */\n      dup2\n        /* \"contracts/FileStorage.sol\":847:852  files */\n      0x01\n        /* \"contracts/FileStorage.sol\":853:862  _filename */\n      dup2\n        /* \"contracts/FileStorage.sol\":847:863  files[_filename] */\n      mload(0x40)\n      tag_77\n      swap2\n      swap1\n      tag_48\n      jump\t// in\n    tag_77:\n      swap1\n      dup2\n      mstore\n      0x20\n      add\n      mload(0x40)\n      dup1\n      swap2\n      sub\n      swap1\n      keccak256\n        /* \"contracts/FileStorage.sol\":847:870  files[_filename].exists */\n      0x02\n      add\n      0x00\n      swap1\n      sload\n      swap1\n      0x0100\n      exp\n      swap1\n      div\n      0xff\n      and\n        /* \"contracts/FileStorage.sol\":839:894  require(files[_filename].exists, \"File does not exist\") */\n      tag_78\n      jumpi\n      mload(0x40)\n      0x08c379a000000000000000000000000000000000000000000000000000000000\n      dup2\n      mstore\n      0x04\n      add\n      tag_79\n      swap1\n      tag_56\n      jump\t// in\n    tag_79:\n      mload(0x40)\n      dup1\n      swap2\n      sub\n      swap1\n      revert\n    tag_78:\n        /* \"contracts/FileStorage.sol\":2095:2100  files */\n      0x01\n        /* \"contracts/FileStorage.sol\":2101:2110  _filename */\n      dup4\n        /* \"contracts/FileStorage.sol\":2095:2111  files[_filename] */\n      mload(0x40)\n      tag_81\n      swap2\n      swap1\n      tag_48\n      jump\t// in\n    tag_81:\n      swap1\n      dup2\n      mstore\n      0x20\n      add\n      mload(0x40)\n      dup1\n      swap2\n      sub\n      swap1\n      keccak256\n        /* \"contracts/FileStorage.sol\":2095:2123  files[_filename].writeAccess */\n      0x04\n      add\n        /* \"contracts/FileStorage.sol\":2095:2135  files[_filename].writeAccess[msg.sender] */\n      0x00\n        /* \"contracts/FileStorage.sol\":2124:2134  msg.sender */\n      caller\n        /* \"contracts/FileStorage.sol\":2095:2135  files[_filename].writeAccess[msg.sender] */\n      0xffffffffffffffffffffffffffffffffffffffff\n      and\n      0xffffffffffffffffffffffffffffffffffffffff\n      and\n      dup2\n      mstore\n      0x20\n      add\n      swap1\n      dup2\n      mstore\n      0x20\n      add\n      0x00\n      keccak256\n      0x00\n      swap1\n      sload\n      swap1\n      0x0100\n      exp\n      swap1\n      div\n      0xff\n      and\n        /* \"contracts/FileStorage.sol\":2087:2155  require(files[_filename].writeAccess[msg.sender], \"No write access\") */\n      tag_82\n      jumpi\n      mload(0x40)\n      0x08c379a000000000000000000000000000000000000000000000000000000000\n      dup2\n      mstore\n      0x04\n      add\n      tag_83\n      swap1\n      tag_84\n      jump\t// in\n    tag_83:\n      mload(0x40)\n      dup1\n      swap2\n      sub\n      swap1\n      revert\n    tag_82:\n        /* \"contracts/FileStorage.sol\":2193:2204  _newContent */\n      dup2\n        /* \"contracts/FileStorage.sol\":2166:2171  files */\n      0x01\n        /* \"contracts/FileStorage.sol\":2172:2181  _filename */\n      dup5\n        /* \"contracts/FileStorage.sol\":2166:2182  files[_filename] */\n      mload(0x40)\n      tag_85\n      swap2\n      swap1\n      tag_48\n      jump\t// in\n    tag_85:\n      swap1\n      dup2\n      mstore\n      0x20\n      add\n      mload(0x40)\n      dup1\n      swap2\n      sub\n      swap1\n      keccak256\n        /* \"contracts/FileStorage.sol\":2166:2190  files[_filename].content */\n      0x01\n      add\n        /* \"contracts/FileStorage.sol\":2166:2204  files[_filename].content = _newContent */\n      swap1\n      dup2\n      tag_86\n      swap2\n      swap1\n      tag_87\n      jump\t// in\n    tag_86:\n      pop\n        /* \"contracts/FileStorage.sol\":2220:2254  FileEdited(_filename, _newContent) */\n      0x68cdb7bab964c149fbef46e8e67fee59fdd6c0ba1a2229d362d8ab5ab3705f97\n        /* \"contracts/FileStorage.sol\":2231:2240  _filename */\n      dup4\n        /* \"contracts/FileStorage.sol\":2242:2253  _newContent */\n      dup4\n        /* \"contracts/FileStorage.sol\":2220:2254  FileEdited(_filename, _newContent) */\n      mload(0x40)\n      tag_88\n      swap3\n      swap2\n      swap1\n      tag_89\n      jump\t// in\n    tag_88:\n      mload(0x40)\n      dup1\n      swap2\n      sub\n      swap1\n      log1\n        /* \"contracts/FileStorage.sol\":1977:2262  function editFile(string memory _filename, string memory _newContent) public fileExists(_filename) {... */\n      pop\n      pop\n      pop\n      jump\t// out\n        /* \"contracts/FileStorage.sol\":3086:3370  function viewFilePermission(string memory _filename, address _addr) external view fileExists(_filename) returns (bool[2] memory) {... */\n    tag_33:\n        /* \"contracts/FileStorage.sol\":3199:3213  bool[2] memory */\n      tag_90\n      tag_91\n      jump\t// in\n    tag_90:\n        /* \"contracts/FileStorage.sol\":3179:3188  _filename */\n      dup3\n        /* \"contracts/FileStorage.sol\":847:852  files */\n      0x01\n        /* \"contracts/FileStorage.sol\":853:862  _filename */\n      dup2\n        /* \"contracts/FileStorage.sol\":847:863  files[_filename] */\n      mload(0x40)\n      tag_93\n      swap2\n      swap1\n      tag_48\n      jump\t// in\n    tag_93:\n      swap1\n      dup2\n      mstore\n      0x20\n      add\n      mload(0x40)\n      dup1\n      swap2\n      sub\n      swap1\n      keccak256\n        /* \"contracts/FileStorage.sol\":847:870  files[_filename].exists */\n      0x02\n      add\n      0x00\n      swap1\n      sload\n      swap1\n      0x0100\n      exp\n      swap1\n      div\n      0xff\n      and\n        /* \"contracts/FileStorage.sol\":839:894  require(files[_filename].exists, \"File does not exist\") */\n      tag_94\n      jumpi\n      mload(0x40)\n      0x08c379a000000000000000000000000000000000000000000000000000000000\n      dup2\n      mstore\n      0x04\n      add\n      tag_95\n      swap1\n      tag_56\n      jump\t// in\n    tag_95:\n      mload(0x40)\n      dup1\n      swap2\n      sub\n      swap1\n      revert\n    tag_94:\n        /* \"contracts/FileStorage.sol\":3226:3235  bool read */\n      0x00\n        /* \"contracts/FileStorage.sol\":3238:3243  files */\n      0x01\n        /* \"contracts/FileStorage.sol\":3244:3253  _filename */\n      dup6\n        /* \"contracts/FileStorage.sol\":3238:3254  files[_filename] */\n      mload(0x40)\n      tag_97\n      swap2\n      swap1\n      tag_48\n      jump\t// in\n    tag_97:\n      swap1\n      dup2\n      mstore\n      0x20\n      add\n      mload(0x40)\n      dup1\n      swap2\n      sub\n      swap1\n      keccak256\n        /* \"contracts/FileStorage.sol\":3238:3265  files[_filename].readAccess */\n      0x03\n      add\n        /* \"contracts/FileStorage.sol\":3238:3272  files[_filename].readAccess[_addr] */\n      0x00\n        /* \"contracts/FileStorage.sol\":3266:3271  _addr */\n      dup6\n        /* \"contracts/FileStorage.sol\":3238:3272  files[_filename].readAccess[_addr] */\n      0xffffffffffffffffffffffffffffffffffffffff\n      and\n      0xffffffffffffffffffffffffffffffffffffffff\n      and\n      dup2\n      mstore\n      0x20\n      add\n      swap1\n      dup2\n      mstore\n      0x20\n      add\n      0x00\n      keccak256\n      0x00\n      swap1\n      sload\n      swap1\n      0x0100\n      exp\n      swap1\n      div\n      0xff\n      and\n        /* \"contracts/FileStorage.sol\":3226:3272  bool read = files[_filename].readAccess[_addr] */\n      swap1\n      pop\n        /* \"contracts/FileStorage.sol\":3283:3293  bool write */\n      0x00\n        /* \"contracts/FileStorage.sol\":3296:3301  files */\n      0x01\n        /* \"contracts/FileStorage.sol\":3302:3311  _filename */\n      dup7\n        /* \"contracts/FileStorage.sol\":3296:3312  files[_filename] */\n      mload(0x40)\n      tag_98\n      swap2\n      swap1\n      tag_48\n      jump\t// in\n    tag_98:\n      swap1\n      dup2\n      mstore\n      0x20\n      add\n      mload(0x40)\n      dup1\n      swap2\n      sub\n      swap1\n      keccak256\n        /* \"contracts/FileStorage.sol\":3296:3324  files[_filename].writeAccess */\n      0x04\n      add\n        /* \"contracts/FileStorage.sol\":3296:3331  files[_filename].writeAccess[_addr] */\n      0x00\n        /* \"contracts/FileStorage.sol\":3325:3330  _addr */\n      dup7\n        /* \"contracts/FileStorage.sol\":3296:3331  files[_filename].writeAccess[_addr] */\n      0xffffffffffffffffffffffffffffffffffffffff\n      and\n      0xffffffffffffffffffffffffffffffffffffffff\n      and\n      dup2\n      mstore\n      0x20\n      add\n      swap1\n      dup2\n      mstore\n      0x20\n      add\n      0x00\n      keccak256\n      0x00\n      swap1\n      sload\n      swap1\n      0x0100\n      exp\n      swap1\n      div\n      0xff\n      and\n        /* \"contracts/FileStorage.sol\":3283:3331  bool write = files[_filename].writeAccess[_addr] */\n      swap1\n      pop\n        /* \"contracts/FileStorage.sol\":3342:3362  return [read, write] */\n      mload(0x40)\n      dup1\n      0x40\n      add\n      0x40\n      mstore\n      dup1\n        /* \"contracts/FileStorage.sol\":3350:3354  read */\n      dup4\n        /* \"contracts/FileStorage.sol\":3342:3362  return [read, write] */\n      iszero\n      iszero\n      iszero\n      iszero\n      dup2\n      mstore\n      0x20\n      add\n        /* \"contracts/FileStorage.sol\":3356:3361  write */\n      dup3\n        /* \"contracts/FileStorage.sol\":3342:3362  return [read, write] */\n      iszero\n      iszero\n      iszero\n      iszero\n      dup2\n      mstore\n      pop\n      swap4\n      pop\n      pop\n      pop\n        /* \"contracts/FileStorage.sol\":3086:3370  function viewFilePermission(string memory _filename, address _addr) external view fileExists(_filename) returns (bool[2] memory) {... */\n      pop\n      swap3\n      swap2\n      pop\n      pop\n      jump\t// out\n        /* \"contracts/FileStorage.sol\":1033:1678  function createFile(string memory _filename, string memory _content) public {... */\n    tag_38:\n        /* \"contracts/FileStorage.sol\":1154:1155  0 */\n      0x00\n        /* \"contracts/FileStorage.sol\":1134:1143  _filename */\n      dup3\n        /* \"contracts/FileStorage.sol\":1128:1151  bytes(_filename).length */\n      mload\n        /* \"contracts/FileStorage.sol\":1128:1155  bytes(_filename).length > 0 */\n      gt\n        /* \"contracts/FileStorage.sol\":1120:1184  require(bytes(_filename).length > 0, \"Filename cannot be empty\") */\n      tag_100\n      jumpi\n      mload(0x40)\n      0x08c379a000000000000000000000000000000000000000000000000000000000\n      dup2\n      mstore\n      0x04\n      add\n      tag_101\n      swap1\n      tag_102\n      jump\t// in\n    tag_101:\n      mload(0x40)\n      dup1\n      swap2\n      sub\n      swap1\n      revert\n    tag_100:\n        /* \"contracts/FileStorage.sol\":1204:1209  files */\n      0x01\n        /* \"contracts/FileStorage.sol\":1210:1219  _filename */\n      dup3\n        /* \"contracts/FileStorage.sol\":1204:1220  files[_filename] */\n      mload(0x40)\n      tag_103\n      swap2\n      swap1\n      tag_48\n      jump\t// in\n    tag_103:\n      swap1\n      dup2\n      mstore\n      0x20\n      add\n      mload(0x40)\n      dup1\n      swap2\n      sub\n      swap1\n      keccak256\n        /* \"contracts/FileStorage.sol\":1204:1227  files[_filename].exists */\n      0x02\n      add\n      0x00\n      swap1\n      sload\n      swap1\n      0x0100\n      exp\n      swap1\n      div\n      0xff\n      and\n        /* \"contracts/FileStorage.sol\":1203:1227  !files[_filename].exists */\n      iszero\n        /* \"contracts/FileStorage.sol\":1195:1251  require(!files[_filename].exists, \"File already exists\") */\n      tag_104\n      jumpi\n      mload(0x40)\n      0x08c379a000000000000000000000000000000000000000000000000000000000\n      dup2\n      mstore\n      0x04\n      add\n      tag_105\n      swap1\n      tag_106\n      jump\t// in\n    tag_105:\n      mload(0x40)\n      dup1\n      swap2\n      sub\n      swap1\n      revert\n    tag_104:\n        /* \"contracts/FileStorage.sol\":1264:1285  File storage new_file */\n      0x00\n        /* \"contracts/FileStorage.sol\":1288:1293  files */\n      0x01\n        /* \"contracts/FileStorage.sol\":1294:1303  _filename */\n      dup4\n        /* \"contracts/FileStorage.sol\":1288:1304  files[_filename] */\n      mload(0x40)\n      tag_107\n      swap2\n      swap1\n      tag_48\n      jump\t// in\n    tag_107:\n      swap1\n      dup2\n      mstore\n      0x20\n      add\n      mload(0x40)\n      dup1\n      swap2\n      sub\n      swap1\n      keccak256\n        /* \"contracts/FileStorage.sol\":1264:1304  File storage new_file = files[_filename] */\n      swap1\n      pop\n        /* \"contracts/FileStorage.sol\":1335:1344  _filename */\n      dup3\n        /* \"contracts/FileStorage.sol\":1315:1323  new_file */\n      dup2\n        /* \"contracts/FileStorage.sol\":1315:1332  new_file.filename */\n      0x00\n      add\n        /* \"contracts/FileStorage.sol\":1315:1344  new_file.filename = _filename */\n      swap1\n      dup2\n      tag_108\n      swap2\n      swap1\n      tag_87\n      jump\t// in\n    tag_108:\n      pop\n        /* \"contracts/FileStorage.sol\":1374:1382  _content */\n      dup2\n        /* \"contracts/FileStorage.sol\":1355:1363  new_file */\n      dup2\n        /* \"contracts/FileStorage.sol\":1355:1371  new_file.content */\n      0x01\n      add\n        /* \"contracts/FileStorage.sol\":1355:1382  new_file.content = _content */\n      swap1\n      dup2\n      tag_109\n      swap2\n      swap1\n      tag_87\n      jump\t// in\n    tag_109:\n      pop\n        /* \"contracts/FileStorage.sol\":1411:1415  true */\n      0x01\n        /* \"contracts/FileStorage.sol\":1393:1401  new_file */\n      dup2\n        /* \"contracts/FileStorage.sol\":1393:1408  new_file.exists */\n      0x02\n      add\n      0x00\n        /* \"contracts/FileStorage.sol\":1393:1415  new_file.exists = true */\n      0x0100\n      exp\n      dup2\n      sload\n      dup2\n      0xff\n      mul\n      not\n      and\n      swap1\n      dup4\n      iszero\n      iszero\n      mul\n      or\n      swap1\n      sstore\n      pop\n        /* \"contracts/FileStorage.sol\":1447:1457  msg.sender */\n      caller\n        /* \"contracts/FileStorage.sol\":1426:1434  new_file */\n      dup2\n        /* \"contracts/FileStorage.sol\":1426:1444  new_file.fileOwner */\n      0x02\n      add\n      0x01\n        /* \"contracts/FileStorage.sol\":1426:1457  new_file.fileOwner = msg.sender */\n      0x0100\n      exp\n      dup2\n      sload\n      dup2\n      0xffffffffffffffffffffffffffffffffffffffff\n      mul\n      not\n      and\n      swap1\n      dup4\n      0xffffffffffffffffffffffffffffffffffffffff\n      and\n      mul\n      or\n      swap1\n      sstore\n      pop\n        /* \"contracts/FileStorage.sol\":1502:1506  true */\n      0x01\n        /* \"contracts/FileStorage.sol\":1468:1476  new_file */\n      dup2\n        /* \"contracts/FileStorage.sol\":1468:1487  new_file.readAccess */\n      0x03\n      add\n        /* \"contracts/FileStorage.sol\":1468:1499  new_file.readAccess[msg.sender] */\n      0x00\n        /* \"contracts/FileStorage.sol\":1488:1498  msg.sender */\n      caller\n        /* \"contracts/FileStorage.sol\":1468:1499  new_file.readAccess[msg.sender] */\n      0xffffffffffffffffffffffffffffffffffffffff\n      and\n      0xffffffffffffffffffffffffffffffffffffffff\n      and\n      dup2\n      mstore\n      0x20\n      add\n      swap1\n      dup2\n      mstore\n      0x20\n      add\n      0x00\n      keccak256\n      0x00\n        /* \"contracts/FileStorage.sol\":1468:1506  new_file.readAccess[msg.sender] = true */\n      0x0100\n      exp\n      dup2\n      sload\n      dup2\n      0xff\n      mul\n      not\n      and\n      swap1\n      dup4\n      iszero\n      iszero\n      mul\n      or\n      swap1\n      sstore\n      pop\n        /* \"contracts/FileStorage.sol\":1552:1556  true */\n      0x01\n        /* \"contracts/FileStorage.sol\":1517:1525  new_file */\n      dup2\n        /* \"contracts/FileStorage.sol\":1517:1537  new_file.writeAccess */\n      0x04\n      add\n        /* \"contracts/FileStorage.sol\":1517:1549  new_file.writeAccess[msg.sender] */\n      0x00\n        /* \"contracts/FileStorage.sol\":1538:1548  msg.sender */\n      caller\n        /* \"contracts/FileStorage.sol\":1517:1549  new_file.writeAccess[msg.sender] */\n      0xffffffffffffffffffffffffffffffffffffffff\n      and\n      0xffffffffffffffffffffffffffffffffffffffff\n      and\n      dup2\n      mstore\n      0x20\n      add\n      swap1\n      dup2\n      mstore\n      0x20\n      add\n      0x00\n      keccak256\n      0x00\n        /* \"contracts/FileStorage.sol\":1517:1556  new_file.writeAccess[msg.sender] = true */\n      0x0100\n      exp\n      dup2\n      sload\n      dup2\n      0xff\n      mul\n      not\n      and\n      swap1\n      dup4\n      iszero\n      iszero\n      mul\n      or\n      swap1\n      sstore\n      pop\n        /* \"contracts/FileStorage.sol\":1598:1606  fileList */\n      0x02\n        /* \"contracts/FileStorage.sol\":1612:1621  _filename */\n      dup4\n        /* \"contracts/FileStorage.sol\":1598:1622  fileList.push(_filename) */\n      swap1\n      dup1\n      0x01\n      dup2\n      sload\n      add\n      dup1\n      dup3\n      sstore\n      dup1\n      swap2\n      pop\n      pop\n      0x01\n      swap1\n      sub\n      swap1\n      0x00\n      mstore\n      keccak256(0x00, 0x20)\n      add\n      0x00\n      swap1\n      swap2\n      swap1\n      swap2\n      swap1\n      swap2\n      pop\n      swap1\n      dup2\n      tag_111\n      swap2\n      swap1\n      tag_87\n      jump\t// in\n    tag_111:\n      pop\n        /* \"contracts/FileStorage.sol\":1638:1670  FileCreated(_filename, _content) */\n      0x74fdeb27b6331df438c50b6327d3b7d950c83000ca1fafb3bc9834e3ec2c7ef3\n        /* \"contracts/FileStorage.sol\":1650:1659  _filename */\n      dup4\n        /* \"contracts/FileStorage.sol\":1661:1669  _content */\n      dup4\n        /* \"contracts/FileStorage.sol\":1638:1670  FileCreated(_filename, _content) */\n      mload(0x40)\n      tag_112\n      swap3\n      swap2\n      swap1\n      tag_89\n      jump\t// in\n    tag_112:\n      mload(0x40)\n      dup1\n      swap2\n      sub\n      swap1\n      log1\n        /* \"contracts/FileStorage.sol\":1109:1678  {... */\n      pop\n        /* \"contracts/FileStorage.sol\":1033:1678  function createFile(string memory _filename, string memory _content) public {... */\n      pop\n      pop\n      jump\t// out\n        /* \"contracts/FileStorage.sol\":2291:2809  function deleteFile(string memory _filename) public onlyFileOwner(_filename) fileExists(_filename) {... */\n    tag_41:\n        /* \"contracts/FileStorage.sol\":2357:2366  _filename */\n      dup1\n        /* \"contracts/FileStorage.sol\":702:707  files */\n      0x01\n        /* \"contracts/FileStorage.sol\":708:717  _filename */\n      dup2\n        /* \"contracts/FileStorage.sol\":702:718  files[_filename] */\n      mload(0x40)\n      tag_114\n      swap2\n      swap1\n      tag_48\n      jump\t// in\n    tag_114:\n      swap1\n      dup2\n      mstore\n      0x20\n      add\n      mload(0x40)\n      dup1\n      swap2\n      sub\n      swap1\n      keccak256\n        /* \"contracts/FileStorage.sol\":702:728  files[_filename].fileOwner */\n      0x02\n      add\n      0x01\n      swap1\n      sload\n      swap1\n      0x0100\n      exp\n      swap1\n      div\n      0xffffffffffffffffffffffffffffffffffffffff\n      and\n        /* \"contracts/FileStorage.sol\":688:728  msg.sender == files[_filename].fileOwner */\n      0xffffffffffffffffffffffffffffffffffffffff\n      and\n        /* \"contracts/FileStorage.sol\":688:698  msg.sender */\n      caller\n        /* \"contracts/FileStorage.sol\":688:728  msg.sender == files[_filename].fileOwner */\n      0xffffffffffffffffffffffffffffffffffffffff\n      and\n      eq\n        /* \"contracts/FileStorage.sol\":680:755  require(msg.sender == files[_filename].fileOwner, \"Not the file fileOwner\") */\n      tag_115\n      jumpi\n      mload(0x40)\n      0x08c379a000000000000000000000000000000000000000000000000000000000\n      dup2\n      mstore\n      0x04\n      add\n      tag_116\n      swap1\n      tag_51\n      jump\t// in\n    tag_116:\n      mload(0x40)\n      dup1\n      swap2\n      sub\n      swap1\n      revert\n    tag_115:\n        /* \"contracts/FileStorage.sol\":2379:2388  _filename */\n      dup2\n        /* \"contracts/FileStorage.sol\":847:852  files */\n      0x01\n        /* \"contracts/FileStorage.sol\":853:862  _filename */\n      dup2\n        /* \"contracts/FileStorage.sol\":847:863  files[_filename] */\n      mload(0x40)\n      tag_118\n      swap2\n      swap1\n      tag_48\n      jump\t// in\n    tag_118:\n      swap1\n      dup2\n      mstore\n      0x20\n      add\n      mload(0x40)\n      dup1\n      swap2\n      sub\n      swap1\n      keccak256\n        /* \"contracts/FileStorage.sol\":847:870  files[_filename].exists */\n      0x02\n      add\n      0x00\n      swap1\n      sload\n      swap1\n      0x0100\n      exp\n      swap1\n      div\n      0xff\n      and\n        /* \"contracts/FileStorage.sol\":839:894  require(files[_filename].exists, \"File does not exist\") */\n      tag_119\n      jumpi\n      mload(0x40)\n      0x08c379a000000000000000000000000000000000000000000000000000000000\n      dup2\n      mstore\n      0x04\n      add\n      tag_120\n      swap1\n      tag_56\n      jump\t// in\n    tag_120:\n      mload(0x40)\n      dup1\n      swap2\n      sub\n      swap1\n      revert\n    tag_119:\n        /* \"contracts/FileStorage.sol\":2408:2413  files */\n      0x01\n        /* \"contracts/FileStorage.sol\":2414:2423  _filename */\n      dup4\n        /* \"contracts/FileStorage.sol\":2408:2424  files[_filename] */\n      mload(0x40)\n      tag_122\n      swap2\n      swap1\n      tag_48\n      jump\t// in\n    tag_122:\n      swap1\n      dup2\n      mstore\n      0x20\n      add\n      mload(0x40)\n      dup1\n      swap2\n      sub\n      swap1\n      keccak256\n      0x00\n        /* \"contracts/FileStorage.sol\":2401:2424  delete files[_filename] */\n      dup1\n      dup3\n      add\n      0x00\n      tag_123\n      swap2\n      swap1\n      tag_124\n      jump\t// in\n    tag_123:\n      0x01\n      dup3\n      add\n      0x00\n      tag_125\n      swap2\n      swap1\n      tag_124\n      jump\t// in\n    tag_125:\n      0x02\n      dup3\n      add\n      exp(0x0100, 0x00)\n      dup2\n      sload\n      swap1\n      0xff\n      mul\n      not\n      and\n      swap1\n      sstore\n      0x02\n      dup3\n      add\n      exp(0x0100, 0x01)\n      dup2\n      sload\n      swap1\n      0xffffffffffffffffffffffffffffffffffffffff\n      mul\n      not\n      and\n      swap1\n      sstore\n      pop\n      pop\n        /* \"contracts/FileStorage.sol\":2476:2482  uint i */\n      0x00\n        /* \"contracts/FileStorage.sol\":2471:2764  for (uint i = 0; i < fileList.length; i++) {... */\n    tag_126:\n        /* \"contracts/FileStorage.sol\":2492:2500  fileList */\n      0x02\n        /* \"contracts/FileStorage.sol\":2492:2507  fileList.length */\n      dup1\n      sload\n      swap1\n      pop\n        /* \"contracts/FileStorage.sol\":2488:2489  i */\n      dup2\n        /* \"contracts/FileStorage.sol\":2488:2507  i < fileList.length */\n      lt\n        /* \"contracts/FileStorage.sol\":2471:2764  for (uint i = 0; i < fileList.length; i++) {... */\n      iszero\n      tag_127\n      jumpi\n        /* \"contracts/FileStorage.sol\":2604:2613  _filename */\n      dup4\n        /* \"contracts/FileStorage.sol\":2587:2614  abi.encodePacked(_filename) */\n      add(0x20, mload(0x40))\n      tag_129\n      swap2\n      swap1\n      tag_48\n      jump\t// in\n    tag_129:\n      mload(0x40)\n      0x20\n      dup2\n      dup4\n      sub\n      sub\n      dup2\n      mstore\n      swap1\n      0x40\n      mstore\n        /* \"contracts/FileStorage.sol\":2577:2615  keccak256(abi.encodePacked(_filename)) */\n      dup1\n      mload\n      swap1\n      0x20\n      add\n      keccak256\n        /* \"contracts/FileStorage.sol\":2560:2568  fileList */\n      0x02\n        /* \"contracts/FileStorage.sol\":2569:2570  i */\n      dup3\n        /* \"contracts/FileStorage.sol\":2560:2571  fileList[i] */\n      dup2\n      sload\n      dup2\n      lt\n      tag_130\n      jumpi\n      tag_131\n      tag_132\n      jump\t// in\n    tag_131:\n    tag_130:\n      swap1\n      0x00\n      mstore\n      keccak256(0x00, 0x20)\n      add\n        /* \"contracts/FileStorage.sol\":2543:2572  abi.encodePacked(fileList[i]) */\n      add(0x20, mload(0x40))\n      tag_134\n      swap2\n      swap1\n      tag_135\n      jump\t// in\n    tag_134:\n      mload(0x40)\n      0x20\n      dup2\n      dup4\n      sub\n      sub\n      dup2\n      mstore\n      swap1\n      0x40\n      mstore\n        /* \"contracts/FileStorage.sol\":2533:2573  keccak256(abi.encodePacked(fileList[i])) */\n      dup1\n      mload\n      swap1\n      0x20\n      add\n      keccak256\n        /* \"contracts/FileStorage.sol\":2533:2615  keccak256(abi.encodePacked(fileList[i])) == keccak256(abi.encodePacked(_filename)) */\n      sub\n        /* \"contracts/FileStorage.sol\":2529:2753  if (keccak256(abi.encodePacked(fileList[i])) == keccak256(abi.encodePacked(_filename))) {... */\n      tag_136\n      jumpi\n        /* \"contracts/FileStorage.sol\":2650:2658  fileList */\n      0x02\n        /* \"contracts/FileStorage.sol\":2677:2678  1 */\n      0x01\n        /* \"contracts/FileStorage.sol\":2659:2667  fileList */\n      0x02\n        /* \"contracts/FileStorage.sol\":2659:2674  fileList.length */\n      dup1\n      sload\n      swap1\n      pop\n        /* \"contracts/FileStorage.sol\":2659:2678  fileList.length - 1 */\n      tag_137\n      swap2\n      swap1\n      tag_138\n      jump\t// in\n    tag_137:\n        /* \"contracts/FileStorage.sol\":2650:2679  fileList[fileList.length - 1] */\n      dup2\n      sload\n      dup2\n      lt\n      tag_139\n      jumpi\n      tag_140\n      tag_132\n      jump\t// in\n    tag_140:\n    tag_139:\n      swap1\n      0x00\n      mstore\n      keccak256(0x00, 0x20)\n      add\n        /* \"contracts/FileStorage.sol\":2636:2644  fileList */\n      0x02\n        /* \"contracts/FileStorage.sol\":2645:2646  i */\n      dup3\n        /* \"contracts/FileStorage.sol\":2636:2647  fileList[i] */\n      dup2\n      sload\n      dup2\n      lt\n      tag_142\n      jumpi\n      tag_143\n      tag_132\n      jump\t// in\n    tag_143:\n    tag_142:\n      swap1\n      0x00\n      mstore\n      keccak256(0x00, 0x20)\n      add\n        /* \"contracts/FileStorage.sol\":2636:2679  fileList[i] = fileList[fileList.length - 1] */\n      swap1\n      dup2\n      tag_145\n      swap2\n      swap1\n      tag_146\n      jump\t// in\n    tag_145:\n      pop\n        /* \"contracts/FileStorage.sol\":2699:2707  fileList */\n      0x02\n        /* \"contracts/FileStorage.sol\":2699:2713  fileList.pop() */\n      dup1\n      sload\n      dup1\n      tag_147\n      jumpi\n      tag_148\n      tag_149\n      jump\t// in\n    tag_148:\n    tag_147:\n      0x01\n      swap1\n      sub\n      dup2\n      dup2\n      swap1\n      0x00\n      mstore\n      keccak256(0x00, 0x20)\n      add\n      0x00\n      tag_151\n      swap2\n      swap1\n      tag_124\n      jump\t// in\n    tag_151:\n      swap1\n      sstore\n        /* \"contracts/FileStorage.sol\":2732:2737  break */\n      jump(tag_127)\n        /* \"contracts/FileStorage.sol\":2529:2753  if (keccak256(abi.encodePacked(fileList[i])) == keccak256(abi.encodePacked(_filename))) {... */\n    tag_136:\n        /* \"contracts/FileStorage.sol\":2509:2512  i++ */\n      dup1\n      dup1\n      0x01\n      add\n      swap2\n      pop\n      pop\n        /* \"contracts/FileStorage.sol\":2471:2764  for (uint i = 0; i < fileList.length; i++) {... */\n      jump(tag_126)\n    tag_127:\n      pop\n        /* \"contracts/FileStorage.sol\":2779:2801  FileDeleted(_filename) */\n      0x584fb2b00bcb43e608b5efabffaa6c6037e3f5fd1a3ec96ea172ada6056d6174\n        /* \"contracts/FileStorage.sol\":2791:2800  _filename */\n      dup4\n        /* \"contracts/FileStorage.sol\":2779:2801  FileDeleted(_filename) */\n      mload(0x40)\n      tag_152\n      swap2\n      swap1\n      tag_25\n      jump\t// in\n    tag_152:\n      mload(0x40)\n      dup1\n      swap2\n      sub\n      swap1\n      log1\n        /* \"contracts/FileStorage.sol\":766:767  _ */\n      pop\n        /* \"contracts/FileStorage.sol\":2291:2809  function deleteFile(string memory _filename) public onlyFileOwner(_filename) fileExists(_filename) {... */\n      pop\n      pop\n      jump\t// out\n        /* \"contracts/FileStorage.sol\":3404:3502  function viewFileList() external view returns (string[] memory) {... */\n    tag_43:\n        /* \"contracts/FileStorage.sol\":3451:3466  string[] memory */\n      0x60\n        /* \"contracts/FileStorage.sol\":3486:3494  fileList */\n      0x02\n        /* \"contracts/FileStorage.sol\":3479:3494  return fileList */\n      dup1\n      sload\n      dup1\n      0x20\n      mul\n      0x20\n      add\n      mload(0x40)\n      swap1\n      dup2\n      add\n      0x40\n      mstore\n      dup1\n      swap3\n      swap2\n      swap1\n      dup2\n      dup2\n      mstore\n      0x20\n      add\n      0x00\n      swap1\n    tag_154:\n      dup3\n      dup3\n      lt\n      iszero\n      tag_155\n      jumpi\n      dup4\n      dup3\n      swap1\n      0x00\n      mstore\n      keccak256(0x00, 0x20)\n      add\n      dup1\n      sload\n      tag_157\n      swap1\n      tag_71\n      jump\t// in\n    tag_157:\n      dup1\n      0x1f\n      add\n      0x20\n      dup1\n      swap2\n      div\n      mul\n      0x20\n      add\n      mload(0x40)\n      swap1\n      dup2\n      add\n      0x40\n      mstore\n      dup1\n      swap3\n      swap2\n      swap1\n      dup2\n      dup2\n      mstore\n      0x20\n      add\n      dup3\n      dup1\n      sload\n      tag_158\n      swap1\n      tag_71\n      jump\t// in\n    tag_158:\n      dup1\n      iszero\n      tag_159\n      jumpi\n      dup1\n      0x1f\n      lt\n      tag_160\n      jumpi\n      0x0100\n      dup1\n      dup4\n      sload\n      div\n      mul\n      dup4\n      mstore\n      swap2\n      0x20\n      add\n      swap2\n      jump(tag_159)\n    tag_160:\n      dup3\n      add\n      swap2\n      swap1\n      0x00\n      mstore\n      keccak256(0x00, 0x20)\n      swap1\n    tag_161:\n      dup2\n      sload\n      dup2\n      mstore\n      swap1\n      0x01\n      add\n      swap1\n      0x20\n      add\n      dup1\n      dup4\n      gt\n      tag_161\n      jumpi\n      dup3\n      swap1\n      sub\n      0x1f\n      and\n      dup3\n      add\n      swap2\n    tag_159:\n      pop\n      pop\n      pop\n      pop\n      pop\n      dup2\n      mstore\n      0x20\n      add\n      swap1\n      0x01\n      add\n      swap1\n      jump(tag_154)\n    tag_155:\n      pop\n      pop\n      pop\n      pop\n      swap1\n      pop\n        /* \"contracts/FileStorage.sol\":3404:3502  function viewFileList() external view returns (string[] memory) {... */\n      swap1\n      jump\t// out\n    tag_91:\n      mload(0x40)\n      dup1\n      0x40\n      add\n      0x40\n      mstore\n      dup1\n      0x02\n      swap1\n      0x20\n      dup3\n      mul\n      dup1\n      calldatasize\n      dup4\n      calldatacopy\n      dup1\n      dup3\n      add\n      swap2\n      pop\n      pop\n      swap1\n      pop\n      pop\n      swap1\n      jump\t// out\n    tag_124:\n      pop\n      dup1\n      sload\n      tag_162\n      swap1\n      tag_71\n      jump\t// in\n    tag_162:\n      0x00\n      dup3\n      sstore\n      dup1\n      0x1f\n      lt\n      tag_164\n      jumpi\n      pop\n      jump(tag_163)\n    tag_164:\n      0x1f\n      add\n      0x20\n      swap1\n      div\n      swap1\n      0x00\n      mstore\n      keccak256(0x00, 0x20)\n      swap1\n      dup2\n      add\n      swap1\n      tag_165\n      swap2\n      swap1\n      tag_166\n      jump\t// in\n    tag_165:\n    tag_163:\n      pop\n      jump\t// out\n    tag_166:\n    tag_167:\n      dup1\n      dup3\n      gt\n      iszero\n      tag_168\n      jumpi\n      0x00\n      dup2\n      0x00\n      swap1\n      sstore\n      pop\n      0x01\n      add\n      jump(tag_167)\n    tag_168:\n      pop\n      swap1\n      jump\t// out\n        /* \"#utility.yul\":7:133   */\n    tag_169:\n        /* \"#utility.yul\":44:51   */\n      0x00\n        /* \"#utility.yul\":84:126   */\n      0xffffffffffffffffffffffffffffffffffffffff\n        /* \"#utility.yul\":77:82   */\n      dup3\n        /* \"#utility.yul\":73:127   */\n      and\n        /* \"#utility.yul\":62:127   */\n      swap1\n      pop\n        /* \"#utility.yul\":7:133   */\n      swap2\n      swap1\n      pop\n      jump\t// out\n        /* \"#utility.yul\":139:235   */\n    tag_170:\n        /* \"#utility.yul\":176:183   */\n      0x00\n        /* \"#utility.yul\":205:229   */\n      tag_247\n        /* \"#utility.yul\":223:228   */\n      dup3\n        /* \"#utility.yul\":205:229   */\n      tag_169\n      jump\t// in\n    tag_247:\n        /* \"#utility.yul\":194:229   */\n      swap1\n      pop\n        /* \"#utility.yul\":139:235   */\n      swap2\n      swap1\n      pop\n      jump\t// out\n        /* \"#utility.yul\":241:359   */\n    tag_171:\n        /* \"#utility.yul\":328:352   */\n      tag_249\n        /* \"#utility.yul\":346:351   */\n      dup2\n        /* \"#utility.yul\":328:352   */\n      tag_170\n      jump\t// in\n    tag_249:\n        /* \"#utility.yul\":323:326   */\n      dup3\n        /* \"#utility.yul\":316:353   */\n      mstore\n        /* \"#utility.yul\":241:359   */\n      pop\n      pop\n      jump\t// out\n        /* \"#utility.yul\":365:587   */\n    tag_15:\n        /* \"#utility.yul\":458:462   */\n      0x00\n        /* \"#utility.yul\":496:498   */\n      0x20\n        /* \"#utility.yul\":485:494   */\n      dup3\n        /* \"#utility.yul\":481:499   */\n      add\n        /* \"#utility.yul\":473:499   */\n      swap1\n      pop\n        /* \"#utility.yul\":509:580   */\n      tag_251\n        /* \"#utility.yul\":577:578   */\n      0x00\n        /* \"#utility.yul\":566:575   */\n      dup4\n        /* \"#utility.yul\":562:579   */\n      add\n        /* \"#utility.yul\":553:559   */\n      dup5\n        /* \"#utility.yul\":509:580   */\n      tag_171\n      jump\t// in\n    tag_251:\n        /* \"#utility.yul\":365:587   */\n      swap3\n      swap2\n      pop\n      pop\n      jump\t// out\n        /* \"#utility.yul\":593:668   */\n    tag_172:\n        /* \"#utility.yul\":626:632   */\n      0x00\n        /* \"#utility.yul\":659:661   */\n      0x40\n        /* \"#utility.yul\":653:662   */\n      mload\n        /* \"#utility.yul\":643:662   */\n      swap1\n      pop\n        /* \"#utility.yul\":593:668   */\n      swap1\n      jump\t// out\n        /* \"#utility.yul\":674:791   */\n    tag_173:\n        /* \"#utility.yul\":783:784   */\n      0x00\n        /* \"#utility.yul\":780:781   */\n      dup1\n        /* \"#utility.yul\":773:785   */\n      revert\n        /* \"#utility.yul\":797:914   */\n    tag_174:\n        /* \"#utility.yul\":906:907   */\n      0x00\n        /* \"#utility.yul\":903:904   */\n      dup1\n        /* \"#utility.yul\":896:908   */\n      revert\n        /* \"#utility.yul\":920:1037   */\n    tag_175:\n        /* \"#utility.yul\":1029:1030   */\n      0x00\n        /* \"#utility.yul\":1026:1027   */\n      dup1\n        /* \"#utility.yul\":1019:1031   */\n      revert\n        /* \"#utility.yul\":1043:1160   */\n    tag_176:\n        /* \"#utility.yul\":1152:1153   */\n      0x00\n        /* \"#utility.yul\":1149:1150   */\n      dup1\n        /* \"#utility.yul\":1142:1154   */\n      revert\n        /* \"#utility.yul\":1166:1268   */\n    tag_177:\n        /* \"#utility.yul\":1207:1213   */\n      0x00\n        /* \"#utility.yul\":1258:1260   */\n      0x1f\n        /* \"#utility.yul\":1254:1261   */\n      not\n        /* \"#utility.yul\":1249:1251   */\n      0x1f\n        /* \"#utility.yul\":1242:1247   */\n      dup4\n        /* \"#utility.yul\":1238:1252   */\n      add\n        /* \"#utility.yul\":1234:1262   */\n      and\n        /* \"#utility.yul\":1224:1262   */\n      swap1\n      pop\n        /* \"#utility.yul\":1166:1268   */\n      swap2\n      swap1\n      pop\n      jump\t// out\n        /* \"#utility.yul\":1274:1454   */\n    tag_178:\n        /* \"#utility.yul\":1322:1399   */\n      0x4e487b7100000000000000000000000000000000000000000000000000000000\n        /* \"#utility.yul\":1319:1320   */\n      0x00\n        /* \"#utility.yul\":1312:1400   */\n      mstore\n        /* \"#utility.yul\":1419:1423   */\n      0x41\n        /* \"#utility.yul\":1416:1417   */\n      0x04\n        /* \"#utility.yul\":1409:1424   */\n      mstore\n        /* \"#utility.yul\":1443:1447   */\n      0x24\n        /* \"#utility.yul\":1440:1441   */\n      0x00\n        /* \"#utility.yul\":1433:1448   */\n      revert\n        /* \"#utility.yul\":1460:1741   */\n    tag_179:\n        /* \"#utility.yul\":1543:1570   */\n      tag_260\n        /* \"#utility.yul\":1565:1569   */\n      dup3\n        /* \"#utility.yul\":1543:1570   */\n      tag_177\n      jump\t// in\n    tag_260:\n        /* \"#utility.yul\":1535:1541   */\n      dup2\n        /* \"#utility.yul\":1531:1571   */\n      add\n        /* \"#utility.yul\":1673:1679   */\n      dup2\n        /* \"#utility.yul\":1661:1671   */\n      dup2\n        /* \"#utility.yul\":1658:1680   */\n      lt\n        /* \"#utility.yul\":1637:1655   */\n      0xffffffffffffffff\n        /* \"#utility.yul\":1625:1635   */\n      dup3\n        /* \"#utility.yul\":1622:1656   */\n      gt\n        /* \"#utility.yul\":1619:1681   */\n      or\n        /* \"#utility.yul\":1616:1704   */\n      iszero\n      tag_261\n      jumpi\n        /* \"#utility.yul\":1684:1702   */\n      tag_262\n      tag_178\n      jump\t// in\n    tag_262:\n        /* \"#utility.yul\":1616:1704   */\n    tag_261:\n        /* \"#utility.yul\":1724:1734   */\n      dup1\n        /* \"#utility.yul\":1720:1722   */\n      0x40\n        /* \"#utility.yul\":1713:1735   */\n      mstore\n        /* \"#utility.yul\":1503:1741   */\n      pop\n        /* \"#utility.yul\":1460:1741   */\n      pop\n      pop\n      jump\t// out\n        /* \"#utility.yul\":1747:1876   */\n    tag_180:\n        /* \"#utility.yul\":1781:1787   */\n      0x00\n        /* \"#utility.yul\":1808:1828   */\n      tag_264\n      tag_172\n      jump\t// in\n    tag_264:\n        /* \"#utility.yul\":1798:1828   */\n      swap1\n      pop\n        /* \"#utility.yul\":1837:1870   */\n      tag_265\n        /* \"#utility.yul\":1865:1869   */\n      dup3\n        /* \"#utility.yul\":1857:1863   */\n      dup3\n        /* \"#utility.yul\":1837:1870   */\n      tag_179\n      jump\t// in\n    tag_265:\n        /* \"#utility.yul\":1747:1876   */\n      swap2\n      swap1\n      pop\n      jump\t// out\n        /* \"#utility.yul\":1882:2190   */\n    tag_181:\n        /* \"#utility.yul\":1944:1948   */\n      0x00\n        /* \"#utility.yul\":2034:2052   */\n      0xffffffffffffffff\n        /* \"#utility.yul\":2026:2032   */\n      dup3\n        /* \"#utility.yul\":2023:2053   */\n      gt\n        /* \"#utility.yul\":2020:2076   */\n      iszero\n      tag_267\n      jumpi\n        /* \"#utility.yul\":2056:2074   */\n      tag_268\n      tag_178\n      jump\t// in\n    tag_268:\n        /* \"#utility.yul\":2020:2076   */\n    tag_267:\n        /* \"#utility.yul\":2094:2123   */\n      tag_269\n        /* \"#utility.yul\":2116:2122   */\n      dup3\n        /* \"#utility.yul\":2094:2123   */\n      tag_177\n      jump\t// in\n    tag_269:\n        /* \"#utility.yul\":2086:2123   */\n      swap1\n      pop\n        /* \"#utility.yul\":2178:2182   */\n      0x20\n        /* \"#utility.yul\":2172:2176   */\n      dup2\n        /* \"#utility.yul\":2168:2183   */\n      add\n        /* \"#utility.yul\":2160:2183   */\n      swap1\n      pop\n        /* \"#utility.yul\":1882:2190   */\n      swap2\n      swap1\n      pop\n      jump\t// out\n        /* \"#utility.yul\":2196:2344   */\n    tag_182:\n        /* \"#utility.yul\":2294:2300   */\n      dup3\n        /* \"#utility.yul\":2289:2292   */\n      dup2\n        /* \"#utility.yul\":2284:2287   */\n      dup4\n        /* \"#utility.yul\":2271:2301   */\n      calldatacopy\n        /* \"#utility.yul\":2335:2336   */\n      0x00\n        /* \"#utility.yul\":2326:2332   */\n      dup4\n        /* \"#utility.yul\":2321:2324   */\n      dup4\n        /* \"#utility.yul\":2317:2333   */\n      add\n        /* \"#utility.yul\":2310:2337   */\n      mstore\n        /* \"#utility.yul\":2196:2344   */\n      pop\n      pop\n      pop\n      jump\t// out\n        /* \"#utility.yul\":2350:2775   */\n    tag_183:\n        /* \"#utility.yul\":2428:2433   */\n      0x00\n        /* \"#utility.yul\":2453:2519   */\n      tag_272\n        /* \"#utility.yul\":2469:2518   */\n      tag_273\n        /* \"#utility.yul\":2511:2517   */\n      dup5\n        /* \"#utility.yul\":2469:2518   */\n      tag_181\n      jump\t// in\n    tag_273:\n        /* \"#utility.yul\":2453:2519   */\n      tag_180\n      jump\t// in\n    tag_272:\n        /* \"#utility.yul\":2444:2519   */\n      swap1\n      pop\n        /* \"#utility.yul\":2542:2548   */\n      dup3\n        /* \"#utility.yul\":2535:2540   */\n      dup2\n        /* \"#utility.yul\":2528:2549   */\n      mstore\n        /* \"#utility.yul\":2580:2584   */\n      0x20\n        /* \"#utility.yul\":2573:2578   */\n      dup2\n        /* \"#utility.yul\":2569:2585   */\n      add\n        /* \"#utility.yul\":2618:2621   */\n      dup5\n        /* \"#utility.yul\":2609:2615   */\n      dup5\n        /* \"#utility.yul\":2604:2607   */\n      dup5\n        /* \"#utility.yul\":2600:2616   */\n      add\n        /* \"#utility.yul\":2597:2622   */\n      gt\n        /* \"#utility.yul\":2594:2706   */\n      iszero\n      tag_274\n      jumpi\n        /* \"#utility.yul\":2625:2704   */\n      tag_275\n      tag_176\n      jump\t// in\n    tag_275:\n        /* \"#utility.yul\":2594:2706   */\n    tag_274:\n        /* \"#utility.yul\":2715:2769   */\n      tag_276\n        /* \"#utility.yul\":2762:2768   */\n      dup5\n        /* \"#utility.yul\":2757:2760   */\n      dup3\n        /* \"#utility.yul\":2752:2755   */\n      dup6\n        /* \"#utility.yul\":2715:2769   */\n      tag_182\n      jump\t// in\n    tag_276:\n        /* \"#utility.yul\":2434:2775   */\n      pop\n        /* \"#utility.yul\":2350:2775   */\n      swap4\n      swap3\n      pop\n      pop\n      pop\n      jump\t// out\n        /* \"#utility.yul\":2795:3135   */\n    tag_184:\n        /* \"#utility.yul\":2851:2856   */\n      0x00\n        /* \"#utility.yul\":2900:2903   */\n      dup3\n        /* \"#utility.yul\":2893:2897   */\n      0x1f\n        /* \"#utility.yul\":2885:2891   */\n      dup4\n        /* \"#utility.yul\":2881:2898   */\n      add\n        /* \"#utility.yul\":2877:2904   */\n      slt\n        /* \"#utility.yul\":2867:2989   */\n      tag_278\n      jumpi\n        /* \"#utility.yul\":2908:2987   */\n      tag_279\n      tag_175\n      jump\t// in\n    tag_279:\n        /* \"#utility.yul\":2867:2989   */\n    tag_278:\n        /* \"#utility.yul\":3025:3031   */\n      dup2\n        /* \"#utility.yul\":3012:3032   */\n      calldataload\n        /* \"#utility.yul\":3050:3129   */\n      tag_280\n        /* \"#utility.yul\":3125:3128   */\n      dup5\n        /* \"#utility.yul\":3117:3123   */\n      dup3\n        /* \"#utility.yul\":3110:3114   */\n      0x20\n        /* \"#utility.yul\":3102:3108   */\n      dup7\n        /* \"#utility.yul\":3098:3115   */\n      add\n        /* \"#utility.yul\":3050:3129   */\n      tag_183\n      jump\t// in\n    tag_280:\n        /* \"#utility.yul\":3041:3129   */\n      swap2\n      pop\n        /* \"#utility.yul\":2857:3135   */\n      pop\n        /* \"#utility.yul\":2795:3135   */\n      swap3\n      swap2\n      pop\n      pop\n      jump\t// out\n        /* \"#utility.yul\":3141:3263   */\n    tag_185:\n        /* \"#utility.yul\":3214:3238   */\n      tag_282\n        /* \"#utility.yul\":3232:3237   */\n      dup2\n        /* \"#utility.yul\":3214:3238   */\n      tag_170\n      jump\t// in\n    tag_282:\n        /* \"#utility.yul\":3207:3212   */\n      dup2\n        /* \"#utility.yul\":3204:3239   */\n      eq\n        /* \"#utility.yul\":3194:3257   */\n      tag_283\n      jumpi\n        /* \"#utility.yul\":3253:3254   */\n      0x00\n        /* \"#utility.yul\":3250:3251   */\n      dup1\n        /* \"#utility.yul\":3243:3255   */\n      revert\n        /* \"#utility.yul\":3194:3257   */\n    tag_283:\n        /* \"#utility.yul\":3141:3263   */\n      pop\n      jump\t// out\n        /* \"#utility.yul\":3269:3408   */\n    tag_186:\n        /* \"#utility.yul\":3315:3320   */\n      0x00\n        /* \"#utility.yul\":3353:3359   */\n      dup2\n        /* \"#utility.yul\":3340:3360   */\n      calldataload\n        /* \"#utility.yul\":3331:3360   */\n      swap1\n      pop\n        /* \"#utility.yul\":3369:3402   */\n      tag_285\n        /* \"#utility.yul\":3396:3401   */\n      dup2\n        /* \"#utility.yul\":3369:3402   */\n      tag_185\n      jump\t// in\n    tag_285:\n        /* \"#utility.yul\":3269:3408   */\n      swap3\n      swap2\n      pop\n      pop\n      jump\t// out\n        /* \"#utility.yul\":3414:3504   */\n    tag_187:\n        /* \"#utility.yul\":3448:3455   */\n      0x00\n        /* \"#utility.yul\":3491:3496   */\n      dup2\n        /* \"#utility.yul\":3484:3497   */\n      iszero\n        /* \"#utility.yul\":3477:3498   */\n      iszero\n        /* \"#utility.yul\":3466:3498   */\n      swap1\n      pop\n        /* \"#utility.yul\":3414:3504   */\n      swap2\n      swap1\n      pop\n      jump\t// out\n        /* \"#utility.yul\":3510:3626   */\n    tag_188:\n        /* \"#utility.yul\":3580:3601   */\n      tag_288\n        /* \"#utility.yul\":3595:3600   */\n      dup2\n        /* \"#utility.yul\":3580:3601   */\n      tag_187\n      jump\t// in\n    tag_288:\n        /* \"#utility.yul\":3573:3578   */\n      dup2\n        /* \"#utility.yul\":3570:3602   */\n      eq\n        /* \"#utility.yul\":3560:3620   */\n      tag_289\n      jumpi\n        /* \"#utility.yul\":3616:3617   */\n      0x00\n        /* \"#utility.yul\":3613:3614   */\n      dup1\n        /* \"#utility.yul\":3606:3618   */\n      revert\n        /* \"#utility.yul\":3560:3620   */\n    tag_289:\n        /* \"#utility.yul\":3510:3626   */\n      pop\n      jump\t// out\n        /* \"#utility.yul\":3632:3765   */\n    tag_189:\n        /* \"#utility.yul\":3675:3680   */\n      0x00\n        /* \"#utility.yul\":3713:3719   */\n      dup2\n        /* \"#utility.yul\":3700:3720   */\n      calldataload\n        /* \"#utility.yul\":3691:3720   */\n      swap1\n      pop\n        /* \"#utility.yul\":3729:3759   */\n      tag_291\n        /* \"#utility.yul\":3753:3758   */\n      dup2\n        /* \"#utility.yul\":3729:3759   */\n      tag_188\n      jump\t// in\n    tag_291:\n        /* \"#utility.yul\":3632:3765   */\n      swap3\n      swap2\n      pop\n      pop\n      jump\t// out\n        /* \"#utility.yul\":3771:4704   */\n    tag_18:\n        /* \"#utility.yul\":3861:3867   */\n      0x00\n        /* \"#utility.yul\":3869:3875   */\n      dup1\n        /* \"#utility.yul\":3877:3883   */\n      0x00\n        /* \"#utility.yul\":3885:3891   */\n      dup1\n        /* \"#utility.yul\":3934:3937   */\n      0x80\n        /* \"#utility.yul\":3922:3931   */\n      dup6\n        /* \"#utility.yul\":3913:3920   */\n      dup8\n        /* \"#utility.yul\":3909:3932   */\n      sub\n        /* \"#utility.yul\":3905:3938   */\n      slt\n        /* \"#utility.yul\":3902:4022   */\n      iszero\n      tag_293\n      jumpi\n        /* \"#utility.yul\":3941:4020   */\n      tag_294\n      tag_173\n      jump\t// in\n    tag_294:\n        /* \"#utility.yul\":3902:4022   */\n    tag_293:\n        /* \"#utility.yul\":4089:4090   */\n      0x00\n        /* \"#utility.yul\":4078:4087   */\n      dup6\n        /* \"#utility.yul\":4074:4091   */\n      add\n        /* \"#utility.yul\":4061:4092   */\n      calldataload\n        /* \"#utility.yul\":4119:4137   */\n      0xffffffffffffffff\n        /* \"#utility.yul\":4111:4117   */\n      dup2\n        /* \"#utility.yul\":4108:4138   */\n      gt\n        /* \"#utility.yul\":4105:4222   */\n      iszero\n      tag_295\n      jumpi\n        /* \"#utility.yul\":4141:4220   */\n      tag_296\n      tag_174\n      jump\t// in\n    tag_296:\n        /* \"#utility.yul\":4105:4222   */\n    tag_295:\n        /* \"#utility.yul\":4246:4309   */\n      tag_297\n        /* \"#utility.yul\":4301:4308   */\n      dup8\n        /* \"#utility.yul\":4292:4298   */\n      dup3\n        /* \"#utility.yul\":4281:4290   */\n      dup9\n        /* \"#utility.yul\":4277:4299   */\n      add\n        /* \"#utility.yul\":4246:4309   */\n      tag_184\n      jump\t// in\n    tag_297:\n        /* \"#utility.yul\":4236:4309   */\n      swap5\n      pop\n        /* \"#utility.yul\":4032:4319   */\n      pop\n        /* \"#utility.yul\":4358:4360   */\n      0x20\n        /* \"#utility.yul\":4384:4437   */\n      tag_298\n        /* \"#utility.yul\":4429:4436   */\n      dup8\n        /* \"#utility.yul\":4420:4426   */\n      dup3\n        /* \"#utility.yul\":4409:4418   */\n      dup9\n        /* \"#utility.yul\":4405:4427   */\n      add\n        /* \"#utility.yul\":4384:4437   */\n      tag_186\n      jump\t// in\n    tag_298:\n        /* \"#utility.yul\":4374:4437   */\n      swap4\n      pop\n        /* \"#utility.yul\":4329:4447   */\n      pop\n        /* \"#utility.yul\":4486:4488   */\n      0x40\n        /* \"#utility.yul\":4512:4562   */\n      tag_299\n        /* \"#utility.yul\":4554:4561   */\n      dup8\n        /* \"#utility.yul\":4545:4551   */\n      dup3\n        /* \"#utility.yul\":4534:4543   */\n      dup9\n        /* \"#utility.yul\":4530:4552   */\n      add\n        /* \"#utility.yul\":4512:4562   */\n      tag_189\n      jump\t// in\n    tag_299:\n        /* \"#utility.yul\":4502:4562   */\n      swap3\n      pop\n        /* \"#utility.yul\":4457:4572   */\n      pop\n        /* \"#utility.yul\":4611:4613   */\n      0x60\n        /* \"#utility.yul\":4637:4687   */\n      tag_300\n        /* \"#utility.yul\":4679:4686   */\n      dup8\n        /* \"#utility.yul\":4670:4676   */\n      dup3\n        /* \"#utility.yul\":4659:4668   */\n      dup9\n        /* \"#utility.yul\":4655:4677   */\n      add\n        /* \"#utility.yul\":4637:4687   */\n      tag_189\n      jump\t// in\n    tag_300:\n        /* \"#utility.yul\":4627:4687   */\n      swap2\n      pop\n        /* \"#utility.yul\":4582:4697   */\n      pop\n        /* \"#utility.yul\":3771:4704   */\n      swap3\n      swap6\n      swap2\n      swap5\n      pop\n      swap3\n      pop\n      jump\t// out\n        /* \"#utility.yul\":4710:5219   */\n    tag_22:\n        /* \"#utility.yul\":4779:4785   */\n      0x00\n        /* \"#utility.yul\":4828:4830   */\n      0x20\n        /* \"#utility.yul\":4816:4825   */\n      dup3\n        /* \"#utility.yul\":4807:4814   */\n      dup5\n        /* \"#utility.yul\":4803:4826   */\n      sub\n        /* \"#utility.yul\":4799:4831   */\n      slt\n        /* \"#utility.yul\":4796:4915   */\n      iszero\n      tag_302\n      jumpi\n        /* \"#utility.yul\":4834:4913   */\n      tag_303\n      tag_173\n      jump\t// in\n    tag_303:\n        /* \"#utility.yul\":4796:4915   */\n    tag_302:\n        /* \"#utility.yul\":4982:4983   */\n      0x00\n        /* \"#utility.yul\":4971:4980   */\n      dup3\n        /* \"#utility.yul\":4967:4984   */\n      add\n        /* \"#utility.yul\":4954:4985   */\n      calldataload\n        /* \"#utility.yul\":5012:5030   */\n      0xffffffffffffffff\n        /* \"#utility.yul\":5004:5010   */\n      dup2\n        /* \"#utility.yul\":5001:5031   */\n      gt\n        /* \"#utility.yul\":4998:5115   */\n      iszero\n      tag_304\n      jumpi\n        /* \"#utility.yul\":5034:5113   */\n      tag_305\n      tag_174\n      jump\t// in\n    tag_305:\n        /* \"#utility.yul\":4998:5115   */\n    tag_304:\n        /* \"#utility.yul\":5139:5202   */\n      tag_306\n        /* \"#utility.yul\":5194:5201   */\n      dup5\n        /* \"#utility.yul\":5185:5191   */\n      dup3\n        /* \"#utility.yul\":5174:5183   */\n      dup6\n        /* \"#utility.yul\":5170:5192   */\n      add\n        /* \"#utility.yul\":5139:5202   */\n      tag_184\n      jump\t// in\n    tag_306:\n        /* \"#utility.yul\":5129:5202   */\n      swap2\n      pop\n        /* \"#utility.yul\":4925:5212   */\n      pop\n        /* \"#utility.yul\":4710:5219   */\n      swap3\n      swap2\n      pop\n      pop\n      jump\t// out\n        /* \"#utility.yul\":5225:5324   */\n    tag_190:\n        /* \"#utility.yul\":5277:5283   */\n      0x00\n        /* \"#utility.yul\":5311:5316   */\n      dup2\n        /* \"#utility.yul\":5305:5317   */\n      mload\n        /* \"#utility.yul\":5295:5317   */\n      swap1\n      pop\n        /* \"#utility.yul\":5225:5324   */\n      swap2\n      swap1\n      pop\n      jump\t// out\n        /* \"#utility.yul\":5330:5499   */\n    tag_191:\n        /* \"#utility.yul\":5414:5425   */\n      0x00\n        /* \"#utility.yul\":5448:5454   */\n      dup3\n        /* \"#utility.yul\":5443:5446   */\n      dup3\n        /* \"#utility.yul\":5436:5455   */\n      mstore\n        /* \"#utility.yul\":5488:5492   */\n      0x20\n        /* \"#utility.yul\":5483:5486   */\n      dup3\n        /* \"#utility.yul\":5479:5493   */\n      add\n        /* \"#utility.yul\":5464:5493   */\n      swap1\n      pop\n        /* \"#utility.yul\":5330:5499   */\n      swap3\n      swap2\n      pop\n      pop\n      jump\t// out\n        /* \"#utility.yul\":5505:5644   */\n    tag_192:\n        /* \"#utility.yul\":5594:5600   */\n      dup3\n        /* \"#utility.yul\":5589:5592   */\n      dup2\n        /* \"#utility.yul\":5584:5587   */\n      dup4\n        /* \"#utility.yul\":5578:5601   */\n      mcopy\n        /* \"#utility.yul\":5635:5636   */\n      0x00\n        /* \"#utility.yul\":5626:5632   */\n      dup4\n        /* \"#utility.yul\":5621:5624   */\n      dup4\n        /* \"#utility.yul\":5617:5633   */\n      add\n        /* \"#utility.yul\":5610:5637   */\n      mstore\n        /* \"#utility.yul\":5505:5644   */\n      pop\n      pop\n      pop\n      jump\t// out\n        /* \"#utility.yul\":5650:6027   */\n    tag_193:\n        /* \"#utility.yul\":5738:5741   */\n      0x00\n        /* \"#utility.yul\":5766:5805   */\n      tag_311\n        /* \"#utility.yul\":5799:5804   */\n      dup3\n        /* \"#utility.yul\":5766:5805   */\n      tag_190\n      jump\t// in\n    tag_311:\n        /* \"#utility.yul\":5821:5892   */\n      tag_312\n        /* \"#utility.yul\":5885:5891   */\n      dup2\n        /* \"#utility.yul\":5880:5883   */\n      dup6\n        /* \"#utility.yul\":5821:5892   */\n      tag_191\n      jump\t// in\n    tag_312:\n        /* \"#utility.yul\":5814:5892   */\n      swap4\n      pop\n        /* \"#utility.yul\":5901:5966   */\n      tag_313\n        /* \"#utility.yul\":5959:5965   */\n      dup2\n        /* \"#utility.yul\":5954:5957   */\n      dup6\n        /* \"#utility.yul\":5947:5951   */\n      0x20\n        /* \"#utility.yul\":5940:5945   */\n      dup7\n        /* \"#utility.yul\":5936:5952   */\n      add\n        /* \"#utility.yul\":5901:5966   */\n      tag_192\n      jump\t// in\n    tag_313:\n        /* \"#utility.yul\":5991:6020   */\n      tag_314\n        /* \"#utility.yul\":6013:6019   */\n      dup2\n        /* \"#utility.yul\":5991:6020   */\n      tag_177\n      jump\t// in\n    tag_314:\n        /* \"#utility.yul\":5986:5989   */\n      dup5\n        /* \"#utility.yul\":5982:6021   */\n      add\n        /* \"#utility.yul\":5975:6021   */\n      swap2\n      pop\n        /* \"#utility.yul\":5742:6027   */\n      pop\n        /* \"#utility.yul\":5650:6027   */\n      swap3\n      swap2\n      pop\n      pop\n      jump\t// out\n        /* \"#utility.yul\":6033:6346   */\n    tag_25:\n        /* \"#utility.yul\":6146:6150   */\n      0x00\n        /* \"#utility.yul\":6184:6186   */\n      0x20\n        /* \"#utility.yul\":6173:6182   */\n      dup3\n        /* \"#utility.yul\":6169:6187   */\n      add\n        /* \"#utility.yul\":6161:6187   */\n      swap1\n      pop\n        /* \"#utility.yul\":6233:6242   */\n      dup2\n        /* \"#utility.yul\":6227:6231   */\n      dup2\n        /* \"#utility.yul\":6223:6243   */\n      sub\n        /* \"#utility.yul\":6219:6220   */\n      0x00\n        /* \"#utility.yul\":6208:6217   */\n      dup4\n        /* \"#utility.yul\":6204:6221   */\n      add\n        /* \"#utility.yul\":6197:6244   */\n      mstore\n        /* \"#utility.yul\":6261:6339   */\n      tag_316\n        /* \"#utility.yul\":6334:6338   */\n      dup2\n        /* \"#utility.yul\":6325:6331   */\n      dup5\n        /* \"#utility.yul\":6261:6339   */\n      tag_193\n      jump\t// in\n    tag_316:\n        /* \"#utility.yul\":6253:6339   */\n      swap1\n      pop\n        /* \"#utility.yul\":6033:6346   */\n      swap3\n      swap2\n      pop\n      pop\n      jump\t// out\n        /* \"#utility.yul\":6352:7186   */\n    tag_28:\n        /* \"#utility.yul\":6440:6446   */\n      0x00\n        /* \"#utility.yul\":6448:6454   */\n      dup1\n        /* \"#utility.yul\":6497:6499   */\n      0x40\n        /* \"#utility.yul\":6485:6494   */\n      dup4\n        /* \"#utility.yul\":6476:6483   */\n      dup6\n        /* \"#utility.yul\":6472:6495   */\n      sub\n        /* \"#utility.yul\":6468:6500   */\n      slt\n        /* \"#utility.yul\":6465:6584   */\n      iszero\n      tag_318\n      jumpi\n        /* \"#utility.yul\":6503:6582   */\n      tag_319\n      tag_173\n      jump\t// in\n    tag_319:\n        /* \"#utility.yul\":6465:6584   */\n    tag_318:\n        /* \"#utility.yul\":6651:6652   */\n      0x00\n        /* \"#utility.yul\":6640:6649   */\n      dup4\n        /* \"#utility.yul\":6636:6653   */\n      add\n        /* \"#utility.yul\":6623:6654   */\n      calldataload\n        /* \"#utility.yul\":6681:6699   */\n      0xffffffffffffffff\n        /* \"#utility.yul\":6673:6679   */\n      dup2\n        /* \"#utility.yul\":6670:6700   */\n      gt\n        /* \"#utility.yul\":6667:6784   */\n      iszero\n      tag_320\n      jumpi\n        /* \"#utility.yul\":6703:6782   */\n      tag_321\n      tag_174\n      jump\t// in\n    tag_321:\n        /* \"#utility.yul\":6667:6784   */\n    tag_320:\n        /* \"#utility.yul\":6808:6871   */\n      tag_322\n        /* \"#utility.yul\":6863:6870   */\n      dup6\n        /* \"#utility.yul\":6854:6860   */\n      dup3\n        /* \"#utility.yul\":6843:6852   */\n      dup7\n        /* \"#utility.yul\":6839:6861   */\n      add\n        /* \"#utility.yul\":6808:6871   */\n      tag_184\n      jump\t// in\n    tag_322:\n        /* \"#utility.yul\":6798:6871   */\n      swap3\n      pop\n        /* \"#utility.yul\":6594:6881   */\n      pop\n        /* \"#utility.yul\":6948:6950   */\n      0x20\n        /* \"#utility.yul\":6937:6946   */\n      dup4\n        /* \"#utility.yul\":6933:6951   */\n      add\n        /* \"#utility.yul\":6920:6952   */\n      calldataload\n        /* \"#utility.yul\":6979:6997   */\n      0xffffffffffffffff\n        /* \"#utility.yul\":6971:6977   */\n      dup2\n        /* \"#utility.yul\":6968:6998   */\n      gt\n        /* \"#utility.yul\":6965:7082   */\n      iszero\n      tag_323\n      jumpi\n        /* \"#utility.yul\":7001:7080   */\n      tag_324\n      tag_174\n      jump\t// in\n    tag_324:\n        /* \"#utility.yul\":6965:7082   */\n    tag_323:\n        /* \"#utility.yul\":7106:7169   */\n      tag_325\n        /* \"#utility.yul\":7161:7168   */\n      dup6\n        /* \"#utility.yul\":7152:7158   */\n      dup3\n        /* \"#utility.yul\":7141:7150   */\n      dup7\n        /* \"#utility.yul\":7137:7159   */\n      add\n        /* \"#utility.yul\":7106:7169   */\n      tag_184\n      jump\t// in\n    tag_325:\n        /* \"#utility.yul\":7096:7169   */\n      swap2\n      pop\n        /* \"#utility.yul\":6891:7179   */\n      pop\n        /* \"#utility.yul\":6352:7186   */\n      swap3\n      pop\n      swap3\n      swap1\n      pop\n      jump\t// out\n        /* \"#utility.yul\":7192:7846   */\n    tag_32:\n        /* \"#utility.yul\":7270:7276   */\n      0x00\n        /* \"#utility.yul\":7278:7284   */\n      dup1\n        /* \"#utility.yul\":7327:7329   */\n      0x40\n        /* \"#utility.yul\":7315:7324   */\n      dup4\n        /* \"#utility.yul\":7306:7313   */\n      dup6\n        /* \"#utility.yul\":7302:7325   */\n      sub\n        /* \"#utility.yul\":7298:7330   */\n      slt\n        /* \"#utility.yul\":7295:7414   */\n      iszero\n      tag_327\n      jumpi\n        /* \"#utility.yul\":7333:7412   */\n      tag_328\n      tag_173\n      jump\t// in\n    tag_328:\n        /* \"#utility.yul\":7295:7414   */\n    tag_327:\n        /* \"#utility.yul\":7481:7482   */\n      0x00\n        /* \"#utility.yul\":7470:7479   */\n      dup4\n        /* \"#utility.yul\":7466:7483   */\n      add\n        /* \"#utility.yul\":7453:7484   */\n      calldataload\n        /* \"#utility.yul\":7511:7529   */\n      0xffffffffffffffff\n        /* \"#utility.yul\":7503:7509   */\n      dup2\n        /* \"#utility.yul\":7500:7530   */\n      gt\n        /* \"#utility.yul\":7497:7614   */\n      iszero\n      tag_329\n      jumpi\n        /* \"#utility.yul\":7533:7612   */\n      tag_330\n      tag_174\n      jump\t// in\n    tag_330:\n        /* \"#utility.yul\":7497:7614   */\n    tag_329:\n        /* \"#utility.yul\":7638:7701   */\n      tag_331\n        /* \"#utility.yul\":7693:7700   */\n      dup6\n        /* \"#utility.yul\":7684:7690   */\n      dup3\n        /* \"#utility.yul\":7673:7682   */\n      dup7\n        /* \"#utility.yul\":7669:7691   */\n      add\n        /* \"#utility.yul\":7638:7701   */\n      tag_184\n      jump\t// in\n    tag_331:\n        /* \"#utility.yul\":7628:7701   */\n      swap3\n      pop\n        /* \"#utility.yul\":7424:7711   */\n      pop\n        /* \"#utility.yul\":7750:7752   */\n      0x20\n        /* \"#utility.yul\":7776:7829   */\n      tag_332\n        /* \"#utility.yul\":7821:7828   */\n      dup6\n        /* \"#utility.yul\":7812:7818   */\n      dup3\n        /* \"#utility.yul\":7801:7810   */\n      dup7\n        /* \"#utility.yul\":7797:7819   */\n      add\n        /* \"#utility.yul\":7776:7829   */\n      tag_186\n      jump\t// in\n    tag_332:\n        /* \"#utility.yul\":7766:7829   */\n      swap2\n      pop\n        /* \"#utility.yul\":7721:7839   */\n      pop\n        /* \"#utility.yul\":7192:7846   */\n      swap3\n      pop\n      swap3\n      swap1\n      pop\n      jump\t// out\n        /* \"#utility.yul\":7852:7953   */\n    tag_194:\n        /* \"#utility.yul\":7914:7920   */\n      0x00\n        /* \"#utility.yul\":7942:7946   */\n      0x02\n        /* \"#utility.yul\":7932:7946   */\n      swap1\n      pop\n        /* \"#utility.yul\":7852:7953   */\n      swap2\n      swap1\n      pop\n      jump\t// out\n        /* \"#utility.yul\":7959:8099   */\n    tag_195:\n        /* \"#utility.yul\":8053:8064   */\n      0x00\n        /* \"#utility.yul\":8090:8093   */\n      dup2\n        /* \"#utility.yul\":8075:8093   */\n      swap1\n      pop\n        /* \"#utility.yul\":7959:8099   */\n      swap3\n      swap2\n      pop\n      pop\n      jump\t// out\n        /* \"#utility.yul\":8105:8200   */\n    tag_196:\n        /* \"#utility.yul\":8167:8171   */\n      0x00\n        /* \"#utility.yul\":8190:8193   */\n      dup2\n        /* \"#utility.yul\":8182:8193   */\n      swap1\n      pop\n        /* \"#utility.yul\":8105:8200   */\n      swap2\n      swap1\n      pop\n      jump\t// out\n        /* \"#utility.yul\":8206:8305   */\n    tag_197:\n        /* \"#utility.yul\":8277:8298   */\n      tag_337\n        /* \"#utility.yul\":8292:8297   */\n      dup2\n        /* \"#utility.yul\":8277:8298   */\n      tag_187\n      jump\t// in\n    tag_337:\n        /* \"#utility.yul\":8272:8275   */\n      dup3\n        /* \"#utility.yul\":8265:8299   */\n      mstore\n        /* \"#utility.yul\":8206:8305   */\n      pop\n      pop\n      jump\t// out\n        /* \"#utility.yul\":8311:8478   */\n    tag_198:\n        /* \"#utility.yul\":8374:8384   */\n      0x00\n        /* \"#utility.yul\":8395:8435   */\n      tag_339\n        /* \"#utility.yul\":8431:8434   */\n      dup4\n        /* \"#utility.yul\":8423:8429   */\n      dup4\n        /* \"#utility.yul\":8395:8435   */\n      tag_197\n      jump\t// in\n    tag_339:\n        /* \"#utility.yul\":8467:8471   */\n      0x20\n        /* \"#utility.yul\":8462:8465   */\n      dup4\n        /* \"#utility.yul\":8458:8472   */\n      add\n        /* \"#utility.yul\":8444:8472   */\n      swap1\n      pop\n        /* \"#utility.yul\":8311:8478   */\n      swap3\n      swap2\n      pop\n      pop\n      jump\t// out\n        /* \"#utility.yul\":8484:8592   */\n    tag_199:\n        /* \"#utility.yul\":8549:8553   */\n      0x00\n        /* \"#utility.yul\":8581:8585   */\n      0x20\n        /* \"#utility.yul\":8576:8579   */\n      dup3\n        /* \"#utility.yul\":8572:8586   */\n      add\n        /* \"#utility.yul\":8564:8586   */\n      swap1\n      pop\n        /* \"#utility.yul\":8484:8592   */\n      swap2\n      swap1\n      pop\n      jump\t// out\n        /* \"#utility.yul\":8624:9294   */\n    tag_200:\n        /* \"#utility.yul\":8754:8803   */\n      tag_342\n        /* \"#utility.yul\":8797:8802   */\n      dup2\n        /* \"#utility.yul\":8754:8803   */\n      tag_194\n      jump\t// in\n    tag_342:\n        /* \"#utility.yul\":8819:8900   */\n      tag_343\n        /* \"#utility.yul\":8893:8899   */\n      dup2\n        /* \"#utility.yul\":8888:8891   */\n      dup5\n        /* \"#utility.yul\":8819:8900   */\n      tag_195\n      jump\t// in\n    tag_343:\n        /* \"#utility.yul\":8812:8900   */\n      swap3\n      pop\n        /* \"#utility.yul\":8924:8975   */\n      tag_344\n        /* \"#utility.yul\":8969:8974   */\n      dup3\n        /* \"#utility.yul\":8924:8975   */\n      tag_196\n      jump\t// in\n    tag_344:\n        /* \"#utility.yul\":8998:9005   */\n      dup1\n        /* \"#utility.yul\":9029:9030   */\n      0x00\n        /* \"#utility.yul\":9014:9287   */\n    tag_345:\n        /* \"#utility.yul\":9039:9045   */\n      dup4\n        /* \"#utility.yul\":9036:9037   */\n      dup2\n        /* \"#utility.yul\":9033:9046   */\n      lt\n        /* \"#utility.yul\":9014:9287   */\n      iszero\n      tag_347\n      jumpi\n        /* \"#utility.yul\":9115:9121   */\n      dup2\n        /* \"#utility.yul\":9109:9122   */\n      mload\n        /* \"#utility.yul\":9142:9199   */\n      tag_348\n        /* \"#utility.yul\":9195:9198   */\n      dup8\n        /* \"#utility.yul\":9180:9193   */\n      dup3\n        /* \"#utility.yul\":9142:9199   */\n      tag_198\n      jump\t// in\n    tag_348:\n        /* \"#utility.yul\":9135:9199   */\n      swap7\n      pop\n        /* \"#utility.yul\":9222:9277   */\n      tag_349\n        /* \"#utility.yul\":9270:9276   */\n      dup4\n        /* \"#utility.yul\":9222:9277   */\n      tag_199\n      jump\t// in\n    tag_349:\n        /* \"#utility.yul\":9212:9277   */\n      swap3\n      pop\n        /* \"#utility.yul\":9074:9287   */\n      pop\n        /* \"#utility.yul\":9061:9062   */\n      0x01\n        /* \"#utility.yul\":9058:9059   */\n      dup2\n        /* \"#utility.yul\":9054:9063   */\n      add\n        /* \"#utility.yul\":9049:9063   */\n      swap1\n      pop\n        /* \"#utility.yul\":9014:9287   */\n      jump(tag_345)\n    tag_347:\n        /* \"#utility.yul\":9018:9032   */\n      pop\n        /* \"#utility.yul\":8730:9294   */\n      pop\n      pop\n      pop\n        /* \"#utility.yul\":8624:9294   */\n      pop\n      pop\n      jump\t// out\n        /* \"#utility.yul\":9300:9602   */\n    tag_35:\n        /* \"#utility.yul\":9433:9437   */\n      0x00\n        /* \"#utility.yul\":9471:9473   */\n      0x40\n        /* \"#utility.yul\":9460:9469   */\n      dup3\n        /* \"#utility.yul\":9456:9474   */\n      add\n        /* \"#utility.yul\":9448:9474   */\n      swap1\n      pop\n        /* \"#utility.yul\":9484:9595   */\n      tag_351\n        /* \"#utility.yul\":9592:9593   */\n      0x00\n        /* \"#utility.yul\":9581:9590   */\n      dup4\n        /* \"#utility.yul\":9577:9594   */\n      add\n        /* \"#utility.yul\":9568:9574   */\n      dup5\n        /* \"#utility.yul\":9484:9595   */\n      tag_200\n      jump\t// in\n    tag_351:\n        /* \"#utility.yul\":9300:9602   */\n      swap3\n      swap2\n      pop\n      pop\n      jump\t// out\n        /* \"#utility.yul\":9608:9732   */\n    tag_201:\n        /* \"#utility.yul\":9685:9691   */\n      0x00\n        /* \"#utility.yul\":9719:9724   */\n      dup2\n        /* \"#utility.yul\":9713:9725   */\n      mload\n        /* \"#utility.yul\":9703:9725   */\n      swap1\n      pop\n        /* \"#utility.yul\":9608:9732   */\n      swap2\n      swap1\n      pop\n      jump\t// out\n        /* \"#utility.yul\":9738:9932   */\n    tag_202:\n        /* \"#utility.yul\":9847:9858   */\n      0x00\n        /* \"#utility.yul\":9881:9887   */\n      dup3\n        /* \"#utility.yul\":9876:9879   */\n      dup3\n        /* \"#utility.yul\":9869:9888   */\n      mstore\n        /* \"#utility.yul\":9921:9925   */\n      0x20\n        /* \"#utility.yul\":9916:9919   */\n      dup3\n        /* \"#utility.yul\":9912:9926   */\n      add\n        /* \"#utility.yul\":9897:9926   */\n      swap1\n      pop\n        /* \"#utility.yul\":9738:9932   */\n      swap3\n      swap2\n      pop\n      pop\n      jump\t// out\n        /* \"#utility.yul\":9938:10080   */\n    tag_203:\n        /* \"#utility.yul\":10015:10019   */\n      0x00\n        /* \"#utility.yul\":10038:10041   */\n      dup2\n        /* \"#utility.yul\":10030:10041   */\n      swap1\n      pop\n        /* \"#utility.yul\":10068:10072   */\n      0x20\n        /* \"#utility.yul\":10063:10066   */\n      dup3\n        /* \"#utility.yul\":10059:10073   */\n      add\n        /* \"#utility.yul\":10051:10073   */\n      swap1\n      pop\n        /* \"#utility.yul\":9938:10080   */\n      swap2\n      swap1\n      pop\n      jump\t// out\n        /* \"#utility.yul\":10086:10245   */\n    tag_204:\n        /* \"#utility.yul\":10160:10171   */\n      0x00\n        /* \"#utility.yul\":10194:10200   */\n      dup3\n        /* \"#utility.yul\":10189:10192   */\n      dup3\n        /* \"#utility.yul\":10182:10201   */\n      mstore\n        /* \"#utility.yul\":10234:10238   */\n      0x20\n        /* \"#utility.yul\":10229:10232   */\n      dup3\n        /* \"#utility.yul\":10225:10239   */\n      add\n        /* \"#utility.yul\":10210:10239   */\n      swap1\n      pop\n        /* \"#utility.yul\":10086:10245   */\n      swap3\n      swap2\n      pop\n      pop\n      jump\t// out\n        /* \"#utility.yul\":10251:10608   */\n    tag_205:\n        /* \"#utility.yul\":10329:10332   */\n      0x00\n        /* \"#utility.yul\":10357:10396   */\n      tag_357\n        /* \"#utility.yul\":10390:10395   */\n      dup3\n        /* \"#utility.yul\":10357:10396   */\n      tag_190\n      jump\t// in\n    tag_357:\n        /* \"#utility.yul\":10412:10473   */\n      tag_358\n        /* \"#utility.yul\":10466:10472   */\n      dup2\n        /* \"#utility.yul\":10461:10464   */\n      dup6\n        /* \"#utility.yul\":10412:10473   */\n      tag_204\n      jump\t// in\n    tag_358:\n        /* \"#utility.yul\":10405:10473   */\n      swap4\n      pop\n        /* \"#utility.yul\":10482:10547   */\n      tag_359\n        /* \"#utility.yul\":10540:10546   */\n      dup2\n        /* \"#utility.yul\":10535:10538   */\n      dup6\n        /* \"#utility.yul\":10528:10532   */\n      0x20\n        /* \"#utility.yul\":10521:10526   */\n      dup7\n        /* \"#utility.yul\":10517:10533   */\n      add\n        /* \"#utility.yul\":10482:10547   */\n      tag_192\n      jump\t// in\n    tag_359:\n        /* \"#utility.yul\":10572:10601   */\n      tag_360\n        /* \"#utility.yul\":10594:10600   */\n      dup2\n        /* \"#utility.yul\":10572:10601   */\n      tag_177\n      jump\t// in\n    tag_360:\n        /* \"#utility.yul\":10567:10570   */\n      dup5\n        /* \"#utility.yul\":10563:10602   */\n      add\n        /* \"#utility.yul\":10556:10602   */\n      swap2\n      pop\n        /* \"#utility.yul\":10333:10608   */\n      pop\n        /* \"#utility.yul\":10251:10608   */\n      swap3\n      swap2\n      pop\n      pop\n      jump\t// out\n        /* \"#utility.yul\":10614:10810   */\n    tag_206:\n        /* \"#utility.yul\":10703:10713   */\n      0x00\n        /* \"#utility.yul\":10738:10804   */\n      tag_362\n        /* \"#utility.yul\":10800:10803   */\n      dup4\n        /* \"#utility.yul\":10792:10798   */\n      dup4\n        /* \"#utility.yul\":10738:10804   */\n      tag_205\n      jump\t// in\n    tag_362:\n        /* \"#utility.yul\":10724:10804   */\n      swap1\n      pop\n        /* \"#utility.yul\":10614:10810   */\n      swap3\n      swap2\n      pop\n      pop\n      jump\t// out\n        /* \"#utility.yul\":10816:10939   */\n    tag_207:\n        /* \"#utility.yul\":10896:10900   */\n      0x00\n        /* \"#utility.yul\":10928:10932   */\n      0x20\n        /* \"#utility.yul\":10923:10926   */\n      dup3\n        /* \"#utility.yul\":10919:10933   */\n      add\n        /* \"#utility.yul\":10911:10933   */\n      swap1\n      pop\n        /* \"#utility.yul\":10816:10939   */\n      swap2\n      swap1\n      pop\n      jump\t// out\n        /* \"#utility.yul\":10973:11964   */\n    tag_208:\n        /* \"#utility.yul\":11112:11115   */\n      0x00\n        /* \"#utility.yul\":11141:11205   */\n      tag_365\n        /* \"#utility.yul\":11199:11204   */\n      dup3\n        /* \"#utility.yul\":11141:11205   */\n      tag_201\n      jump\t// in\n    tag_365:\n        /* \"#utility.yul\":11221:11317   */\n      tag_366\n        /* \"#utility.yul\":11310:11316   */\n      dup2\n        /* \"#utility.yul\":11305:11308   */\n      dup6\n        /* \"#utility.yul\":11221:11317   */\n      tag_202\n      jump\t// in\n    tag_366:\n        /* \"#utility.yul\":11214:11317   */\n      swap4\n      pop\n        /* \"#utility.yul\":11343:11346   */\n      dup4\n        /* \"#utility.yul\":11388:11392   */\n      0x20\n        /* \"#utility.yul\":11380:11386   */\n      dup3\n        /* \"#utility.yul\":11376:11393   */\n      mul\n        /* \"#utility.yul\":11371:11374   */\n      dup6\n        /* \"#utility.yul\":11367:11394   */\n      add\n        /* \"#utility.yul\":11418:11484   */\n      tag_367\n        /* \"#utility.yul\":11478:11483   */\n      dup6\n        /* \"#utility.yul\":11418:11484   */\n      tag_203\n      jump\t// in\n    tag_367:\n        /* \"#utility.yul\":11507:11514   */\n      dup1\n        /* \"#utility.yul\":11538:11539   */\n      0x00\n        /* \"#utility.yul\":11523:11919   */\n    tag_368:\n        /* \"#utility.yul\":11548:11554   */\n      dup6\n        /* \"#utility.yul\":11545:11546   */\n      dup2\n        /* \"#utility.yul\":11542:11555   */\n      lt\n        /* \"#utility.yul\":11523:11919   */\n      iszero\n      tag_370\n      jumpi\n        /* \"#utility.yul\":11619:11628   */\n      dup5\n        /* \"#utility.yul\":11613:11617   */\n      dup5\n        /* \"#utility.yul\":11609:11629   */\n      sub\n        /* \"#utility.yul\":11604:11607   */\n      dup10\n        /* \"#utility.yul\":11597:11630   */\n      mstore\n        /* \"#utility.yul\":11670:11676   */\n      dup2\n        /* \"#utility.yul\":11664:11677   */\n      mload\n        /* \"#utility.yul\":11698:11782   */\n      tag_371\n        /* \"#utility.yul\":11777:11781   */\n      dup6\n        /* \"#utility.yul\":11762:11775   */\n      dup3\n        /* \"#utility.yul\":11698:11782   */\n      tag_206\n      jump\t// in\n    tag_371:\n        /* \"#utility.yul\":11690:11782   */\n      swap5\n      pop\n        /* \"#utility.yul\":11805:11875   */\n      tag_372\n        /* \"#utility.yul\":11868:11874   */\n      dup4\n        /* \"#utility.yul\":11805:11875   */\n      tag_207\n      jump\t// in\n    tag_372:\n        /* \"#utility.yul\":11795:11875   */\n      swap3\n      pop\n        /* \"#utility.yul\":11904:11908   */\n      0x20\n        /* \"#utility.yul\":11899:11902   */\n      dup11\n        /* \"#utility.yul\":11895:11909   */\n      add\n        /* \"#utility.yul\":11888:11909   */\n      swap10\n      pop\n        /* \"#utility.yul\":11583:11919   */\n      pop\n        /* \"#utility.yul\":11570:11571   */\n      0x01\n        /* \"#utility.yul\":11567:11568   */\n      dup2\n        /* \"#utility.yul\":11563:11572   */\n      add\n        /* \"#utility.yul\":11558:11572   */\n      swap1\n      pop\n        /* \"#utility.yul\":11523:11919   */\n      jump(tag_368)\n    tag_370:\n        /* \"#utility.yul\":11527:11541   */\n      pop\n        /* \"#utility.yul\":11935:11939   */\n      dup3\n        /* \"#utility.yul\":11928:11939   */\n      swap8\n      pop\n        /* \"#utility.yul\":11955:11958   */\n      dup8\n        /* \"#utility.yul\":11948:11958   */\n      swap6\n      pop\n        /* \"#utility.yul\":11117:11964   */\n      pop\n      pop\n      pop\n      pop\n      pop\n        /* \"#utility.yul\":10973:11964   */\n      swap3\n      swap2\n      pop\n      pop\n      jump\t// out\n        /* \"#utility.yul\":11970:12383   */\n    tag_45:\n        /* \"#utility.yul\":12133:12137   */\n      0x00\n        /* \"#utility.yul\":12171:12173   */\n      0x20\n        /* \"#utility.yul\":12160:12169   */\n      dup3\n        /* \"#utility.yul\":12156:12174   */\n      add\n        /* \"#utility.yul\":12148:12174   */\n      swap1\n      pop\n        /* \"#utility.yul\":12220:12229   */\n      dup2\n        /* \"#utility.yul\":12214:12218   */\n      dup2\n        /* \"#utility.yul\":12210:12230   */\n      sub\n        /* \"#utility.yul\":12206:12207   */\n      0x00\n        /* \"#utility.yul\":12195:12204   */\n      dup4\n        /* \"#utility.yul\":12191:12208   */\n      add\n        /* \"#utility.yul\":12184:12231   */\n      mstore\n        /* \"#utility.yul\":12248:12376   */\n      tag_374\n        /* \"#utility.yul\":12371:12375   */\n      dup2\n        /* \"#utility.yul\":12362:12368   */\n      dup5\n        /* \"#utility.yul\":12248:12376   */\n      tag_208\n      jump\t// in\n    tag_374:\n        /* \"#utility.yul\":12240:12376   */\n      swap1\n      pop\n        /* \"#utility.yul\":11970:12383   */\n      swap3\n      swap2\n      pop\n      pop\n      jump\t// out\n        /* \"#utility.yul\":12389:12537   */\n    tag_209:\n        /* \"#utility.yul\":12491:12502   */\n      0x00\n        /* \"#utility.yul\":12528:12531   */\n      dup2\n        /* \"#utility.yul\":12513:12531   */\n      swap1\n      pop\n        /* \"#utility.yul\":12389:12537   */\n      swap3\n      swap2\n      pop\n      pop\n      jump\t// out\n        /* \"#utility.yul\":12543:12933   */\n    tag_210:\n        /* \"#utility.yul\":12649:12652   */\n      0x00\n        /* \"#utility.yul\":12677:12716   */\n      tag_377\n        /* \"#utility.yul\":12710:12715   */\n      dup3\n        /* \"#utility.yul\":12677:12716   */\n      tag_190\n      jump\t// in\n    tag_377:\n        /* \"#utility.yul\":12732:12821   */\n      tag_378\n        /* \"#utility.yul\":12814:12820   */\n      dup2\n        /* \"#utility.yul\":12809:12812   */\n      dup6\n        /* \"#utility.yul\":12732:12821   */\n      tag_209\n      jump\t// in\n    tag_378:\n        /* \"#utility.yul\":12725:12821   */\n      swap4\n      pop\n        /* \"#utility.yul\":12830:12895   */\n      tag_379\n        /* \"#utility.yul\":12888:12894   */\n      dup2\n        /* \"#utility.yul\":12883:12886   */\n      dup6\n        /* \"#utility.yul\":12876:12880   */\n      0x20\n        /* \"#utility.yul\":12869:12874   */\n      dup7\n        /* \"#utility.yul\":12865:12881   */\n      add\n        /* \"#utility.yul\":12830:12895   */\n      tag_192\n      jump\t// in\n    tag_379:\n        /* \"#utility.yul\":12920:12926   */\n      dup1\n        /* \"#utility.yul\":12915:12918   */\n      dup5\n        /* \"#utility.yul\":12911:12927   */\n      add\n        /* \"#utility.yul\":12904:12927   */\n      swap2\n      pop\n        /* \"#utility.yul\":12653:12933   */\n      pop\n        /* \"#utility.yul\":12543:12933   */\n      swap3\n      swap2\n      pop\n      pop\n      jump\t// out\n        /* \"#utility.yul\":12939:13214   */\n    tag_48:\n        /* \"#utility.yul\":13071:13074   */\n      0x00\n        /* \"#utility.yul\":13093:13188   */\n      tag_381\n        /* \"#utility.yul\":13184:13187   */\n      dup3\n        /* \"#utility.yul\":13175:13181   */\n      dup5\n        /* \"#utility.yul\":13093:13188   */\n      tag_210\n      jump\t// in\n    tag_381:\n        /* \"#utility.yul\":13086:13188   */\n      swap2\n      pop\n        /* \"#utility.yul\":13205:13208   */\n      dup2\n        /* \"#utility.yul\":13198:13208   */\n      swap1\n      pop\n        /* \"#utility.yul\":12939:13214   */\n      swap3\n      swap2\n      pop\n      pop\n      jump\t// out\n        /* \"#utility.yul\":13220:13392   */\n    tag_211:\n        /* \"#utility.yul\":13360:13384   */\n      0x4e6f74207468652066696c652066696c654f776e657200000000000000000000\n        /* \"#utility.yul\":13356:13357   */\n      0x00\n        /* \"#utility.yul\":13348:13354   */\n      dup3\n        /* \"#utility.yul\":13344:13358   */\n      add\n        /* \"#utility.yul\":13337:13385   */\n      mstore\n        /* \"#utility.yul\":13220:13392   */\n      pop\n      jump\t// out\n        /* \"#utility.yul\":13398:13764   */\n    tag_212:\n        /* \"#utility.yul\":13540:13543   */\n      0x00\n        /* \"#utility.yul\":13561:13628   */\n      tag_384\n        /* \"#utility.yul\":13625:13627   */\n      0x16\n        /* \"#utility.yul\":13620:13623   */\n      dup4\n        /* \"#utility.yul\":13561:13628   */\n      tag_191\n      jump\t// in\n    tag_384:\n        /* \"#utility.yul\":13554:13628   */\n      swap2\n      pop\n        /* \"#utility.yul\":13637:13730   */\n      tag_385\n        /* \"#utility.yul\":13726:13729   */\n      dup3\n        /* \"#utility.yul\":13637:13730   */\n      tag_211\n      jump\t// in\n    tag_385:\n        /* \"#utility.yul\":13755:13757   */\n      0x20\n        /* \"#utility.yul\":13750:13753   */\n      dup3\n        /* \"#utility.yul\":13746:13758   */\n      add\n        /* \"#utility.yul\":13739:13758   */\n      swap1\n      pop\n        /* \"#utility.yul\":13398:13764   */\n      swap2\n      swap1\n      pop\n      jump\t// out\n        /* \"#utility.yul\":13770:14189   */\n    tag_51:\n        /* \"#utility.yul\":13936:13940   */\n      0x00\n        /* \"#utility.yul\":13974:13976   */\n      0x20\n        /* \"#utility.yul\":13963:13972   */\n      dup3\n        /* \"#utility.yul\":13959:13977   */\n      add\n        /* \"#utility.yul\":13951:13977   */\n      swap1\n      pop\n        /* \"#utility.yul\":14023:14032   */\n      dup2\n        /* \"#utility.yul\":14017:14021   */\n      dup2\n        /* \"#utility.yul\":14013:14033   */\n      sub\n        /* \"#utility.yul\":14009:14010   */\n      0x00\n        /* \"#utility.yul\":13998:14007   */\n      dup4\n        /* \"#utility.yul\":13994:14011   */\n      add\n        /* \"#utility.yul\":13987:14034   */\n      mstore\n        /* \"#utility.yul\":14051:14182   */\n      tag_387\n        /* \"#utility.yul\":14177:14181   */\n      dup2\n        /* \"#utility.yul\":14051:14182   */\n      tag_212\n      jump\t// in\n    tag_387:\n        /* \"#utility.yul\":14043:14182   */\n      swap1\n      pop\n        /* \"#utility.yul\":13770:14189   */\n      swap2\n      swap1\n      pop\n      jump\t// out\n        /* \"#utility.yul\":14195:14364   */\n    tag_213:\n        /* \"#utility.yul\":14335:14356   */\n      0x46696c6520646f6573206e6f7420657869737400000000000000000000000000\n        /* \"#utility.yul\":14331:14332   */\n      0x00\n        /* \"#utility.yul\":14323:14329   */\n      dup3\n        /* \"#utility.yul\":14319:14333   */\n      add\n        /* \"#utility.yul\":14312:14357   */\n      mstore\n        /* \"#utility.yul\":14195:14364   */\n      pop\n      jump\t// out\n        /* \"#utility.yul\":14370:14736   */\n    tag_214:\n        /* \"#utility.yul\":14512:14515   */\n      0x00\n        /* \"#utility.yul\":14533:14600   */\n      tag_390\n        /* \"#utility.yul\":14597:14599   */\n      0x13\n        /* \"#utility.yul\":14592:14595   */\n      dup4\n        /* \"#utility.yul\":14533:14600   */\n      tag_191\n      jump\t// in\n    tag_390:\n        /* \"#utility.yul\":14526:14600   */\n      swap2\n      pop\n        /* \"#utility.yul\":14609:14702   */\n      tag_391\n        /* \"#utility.yul\":14698:14701   */\n      dup3\n        /* \"#utility.yul\":14609:14702   */\n      tag_213\n      jump\t// in\n    tag_391:\n        /* \"#utility.yul\":14727:14729   */\n      0x20\n        /* \"#utility.yul\":14722:14725   */\n      dup3\n        /* \"#utility.yul\":14718:14730   */\n      add\n        /* \"#utility.yul\":14711:14730   */\n      swap1\n      pop\n        /* \"#utility.yul\":14370:14736   */\n      swap2\n      swap1\n      pop\n      jump\t// out\n        /* \"#utility.yul\":14742:15161   */\n    tag_56:\n        /* \"#utility.yul\":14908:14912   */\n      0x00\n        /* \"#utility.yul\":14946:14948   */\n      0x20\n        /* \"#utility.yul\":14935:14944   */\n      dup3\n        /* \"#utility.yul\":14931:14949   */\n      add\n        /* \"#utility.yul\":14923:14949   */\n      swap1\n      pop\n        /* \"#utility.yul\":14995:15004   */\n      dup2\n        /* \"#utility.yul\":14989:14993   */\n      dup2\n        /* \"#utility.yul\":14985:15005   */\n      sub\n        /* \"#utility.yul\":14981:14982   */\n      0x00\n        /* \"#utility.yul\":14970:14979   */\n      dup4\n        /* \"#utility.yul\":14966:14983   */\n      add\n        /* \"#utility.yul\":14959:15006   */\n      mstore\n        /* \"#utility.yul\":15023:15154   */\n      tag_393\n        /* \"#utility.yul\":15149:15153   */\n      dup2\n        /* \"#utility.yul\":15023:15154   */\n      tag_214\n      jump\t// in\n    tag_393:\n        /* \"#utility.yul\":15015:15154   */\n      swap1\n      pop\n        /* \"#utility.yul\":14742:15161   */\n      swap2\n      swap1\n      pop\n      jump\t// out\n        /* \"#utility.yul\":15167:15331   */\n    tag_215:\n        /* \"#utility.yul\":15307:15323   */\n      0x4e6f207265616420616363657373000000000000000000000000000000000000\n        /* \"#utility.yul\":15303:15304   */\n      0x00\n        /* \"#utility.yul\":15295:15301   */\n      dup3\n        /* \"#utility.yul\":15291:15305   */\n      add\n        /* \"#utility.yul\":15284:15324   */\n      mstore\n        /* \"#utility.yul\":15167:15331   */\n      pop\n      jump\t// out\n        /* \"#utility.yul\":15337:15703   */\n    tag_216:\n        /* \"#utility.yul\":15479:15482   */\n      0x00\n        /* \"#utility.yul\":15500:15567   */\n      tag_396\n        /* \"#utility.yul\":15564:15566   */\n      0x0e\n        /* \"#utility.yul\":15559:15562   */\n      dup4\n        /* \"#utility.yul\":15500:15567   */\n      tag_191\n      jump\t// in\n    tag_396:\n        /* \"#utility.yul\":15493:15567   */\n      swap2\n      pop\n        /* \"#utility.yul\":15576:15669   */\n      tag_397\n        /* \"#utility.yul\":15665:15668   */\n      dup3\n        /* \"#utility.yul\":15576:15669   */\n      tag_215\n      jump\t// in\n    tag_397:\n        /* \"#utility.yul\":15694:15696   */\n      0x20\n        /* \"#utility.yul\":15689:15692   */\n      dup3\n        /* \"#utility.yul\":15685:15697   */\n      add\n        /* \"#utility.yul\":15678:15697   */\n      swap1\n      pop\n        /* \"#utility.yul\":15337:15703   */\n      swap2\n      swap1\n      pop\n      jump\t// out\n        /* \"#utility.yul\":15709:16128   */\n    tag_68:\n        /* \"#utility.yul\":15875:15879   */\n      0x00\n        /* \"#utility.yul\":15913:15915   */\n      0x20\n        /* \"#utility.yul\":15902:15911   */\n      dup3\n        /* \"#utility.yul\":15898:15916   */\n      add\n        /* \"#utility.yul\":15890:15916   */\n      swap1\n      pop\n        /* \"#utility.yul\":15962:15971   */\n      dup2\n        /* \"#utility.yul\":15956:15960   */\n      dup2\n        /* \"#utility.yul\":15952:15972   */\n      sub\n        /* \"#utility.yul\":15948:15949   */\n      0x00\n        /* \"#utility.yul\":15937:15946   */\n      dup4\n        /* \"#utility.yul\":15933:15950   */\n      add\n        /* \"#utility.yul\":15926:15973   */\n      mstore\n        /* \"#utility.yul\":15990:16121   */\n      tag_399\n        /* \"#utility.yul\":16116:16120   */\n      dup2\n        /* \"#utility.yul\":15990:16121   */\n      tag_216\n      jump\t// in\n    tag_399:\n        /* \"#utility.yul\":15982:16121   */\n      swap1\n      pop\n        /* \"#utility.yul\":15709:16128   */\n      swap2\n      swap1\n      pop\n      jump\t// out\n        /* \"#utility.yul\":16134:16314   */\n    tag_217:\n        /* \"#utility.yul\":16182:16259   */\n      0x4e487b7100000000000000000000000000000000000000000000000000000000\n        /* \"#utility.yul\":16179:16180   */\n      0x00\n        /* \"#utility.yul\":16172:16260   */\n      mstore\n        /* \"#utility.yul\":16279:16283   */\n      0x22\n        /* \"#utility.yul\":16276:16277   */\n      0x04\n        /* \"#utility.yul\":16269:16284   */\n      mstore\n        /* \"#utility.yul\":16303:16307   */\n      0x24\n        /* \"#utility.yul\":16300:16301   */\n      0x00\n        /* \"#utility.yul\":16293:16308   */\n      revert\n        /* \"#utility.yul\":16320:16640   */\n    tag_71:\n        /* \"#utility.yul\":16364:16370   */\n      0x00\n        /* \"#utility.yul\":16401:16402   */\n      0x02\n        /* \"#utility.yul\":16395:16399   */\n      dup3\n        /* \"#utility.yul\":16391:16403   */\n      div\n        /* \"#utility.yul\":16381:16403   */\n      swap1\n      pop\n        /* \"#utility.yul\":16448:16449   */\n      0x01\n        /* \"#utility.yul\":16442:16446   */\n      dup3\n        /* \"#utility.yul\":16438:16450   */\n      and\n        /* \"#utility.yul\":16469:16487   */\n      dup1\n        /* \"#utility.yul\":16459:16540   */\n      tag_402\n      jumpi\n        /* \"#utility.yul\":16525:16529   */\n      0x7f\n        /* \"#utility.yul\":16517:16523   */\n      dup3\n        /* \"#utility.yul\":16513:16530   */\n      and\n        /* \"#utility.yul\":16503:16530   */\n      swap2\n      pop\n        /* \"#utility.yul\":16459:16540   */\n    tag_402:\n        /* \"#utility.yul\":16587:16589   */\n      0x20\n        /* \"#utility.yul\":16579:16585   */\n      dup3\n        /* \"#utility.yul\":16576:16590   */\n      lt\n        /* \"#utility.yul\":16556:16574   */\n      dup2\n        /* \"#utility.yul\":16553:16591   */\n      sub\n        /* \"#utility.yul\":16550:16634   */\n      tag_403\n      jumpi\n        /* \"#utility.yul\":16606:16624   */\n      tag_404\n      tag_217\n      jump\t// in\n    tag_404:\n        /* \"#utility.yul\":16550:16634   */\n    tag_403:\n        /* \"#utility.yul\":16371:16640   */\n      pop\n        /* \"#utility.yul\":16320:16640   */\n      swap2\n      swap1\n      pop\n      jump\t// out\n        /* \"#utility.yul\":16646:16811   */\n    tag_218:\n        /* \"#utility.yul\":16786:16803   */\n      0x4e6f207772697465206163636573730000000000000000000000000000000000\n        /* \"#utility.yul\":16782:16783   */\n      0x00\n        /* \"#utility.yul\":16774:16780   */\n      dup3\n        /* \"#utility.yul\":16770:16784   */\n      add\n        /* \"#utility.yul\":16763:16804   */\n      mstore\n        /* \"#utility.yul\":16646:16811   */\n      pop\n      jump\t// out\n        /* \"#utility.yul\":16817:17183   */\n    tag_219:\n        /* \"#utility.yul\":16959:16962   */\n      0x00\n        /* \"#utility.yul\":16980:17047   */\n      tag_407\n        /* \"#utility.yul\":17044:17046   */\n      0x0f\n        /* \"#utility.yul\":17039:17042   */\n      dup4\n        /* \"#utility.yul\":16980:17047   */\n      tag_191\n      jump\t// in\n    tag_407:\n        /* \"#utility.yul\":16973:17047   */\n      swap2\n      pop\n        /* \"#utility.yul\":17056:17149   */\n      tag_408\n        /* \"#utility.yul\":17145:17148   */\n      dup3\n        /* \"#utility.yul\":17056:17149   */\n      tag_218\n      jump\t// in\n    tag_408:\n        /* \"#utility.yul\":17174:17176   */\n      0x20\n        /* \"#utility.yul\":17169:17172   */\n      dup3\n        /* \"#utility.yul\":17165:17177   */\n      add\n        /* \"#utility.yul\":17158:17177   */\n      swap1\n      pop\n        /* \"#utility.yul\":16817:17183   */\n      swap2\n      swap1\n      pop\n      jump\t// out\n        /* \"#utility.yul\":17189:17608   */\n    tag_84:\n        /* \"#utility.yul\":17355:17359   */\n      0x00\n        /* \"#utility.yul\":17393:17395   */\n      0x20\n        /* \"#utility.yul\":17382:17391   */\n      dup3\n        /* \"#utility.yul\":17378:17396   */\n      add\n        /* \"#utility.yul\":17370:17396   */\n      swap1\n      pop\n        /* \"#utility.yul\":17442:17451   */\n      dup2\n        /* \"#utility.yul\":17436:17440   */\n      dup2\n        /* \"#utility.yul\":17432:17452   */\n      sub\n        /* \"#utility.yul\":17428:17429   */\n      0x00\n        /* \"#utility.yul\":17417:17426   */\n      dup4\n        /* \"#utility.yul\":17413:17430   */\n      add\n        /* \"#utility.yul\":17406:17453   */\n      mstore\n        /* \"#utility.yul\":17470:17601   */\n      tag_410\n        /* \"#utility.yul\":17596:17600   */\n      dup2\n        /* \"#utility.yul\":17470:17601   */\n      tag_219\n      jump\t// in\n    tag_410:\n        /* \"#utility.yul\":17462:17601   */\n      swap1\n      pop\n        /* \"#utility.yul\":17189:17608   */\n      swap2\n      swap1\n      pop\n      jump\t// out\n        /* \"#utility.yul\":17614:17755   */\n    tag_220:\n        /* \"#utility.yul\":17663:17667   */\n      0x00\n        /* \"#utility.yul\":17686:17689   */\n      dup2\n        /* \"#utility.yul\":17678:17689   */\n      swap1\n      pop\n        /* \"#utility.yul\":17709:17712   */\n      dup2\n        /* \"#utility.yul\":17706:17707   */\n      0x00\n        /* \"#utility.yul\":17699:17713   */\n      mstore\n        /* \"#utility.yul\":17743:17747   */\n      0x20\n        /* \"#utility.yul\":17740:17741   */\n      0x00\n        /* \"#utility.yul\":17730:17748   */\n      keccak256\n        /* \"#utility.yul\":17722:17748   */\n      swap1\n      pop\n        /* \"#utility.yul\":17614:17755   */\n      swap2\n      swap1\n      pop\n      jump\t// out\n        /* \"#utility.yul\":17761:17854   */\n    tag_221:\n        /* \"#utility.yul\":17798:17804   */\n      0x00\n        /* \"#utility.yul\":17845:17847   */\n      0x20\n        /* \"#utility.yul\":17840:17842   */\n      0x1f\n        /* \"#utility.yul\":17833:17838   */\n      dup4\n        /* \"#utility.yul\":17829:17843   */\n      add\n        /* \"#utility.yul\":17825:17848   */\n      div\n        /* \"#utility.yul\":17815:17848   */\n      swap1\n      pop\n        /* \"#utility.yul\":17761:17854   */\n      swap2\n      swap1\n      pop\n      jump\t// out\n        /* \"#utility.yul\":17860:17967   */\n    tag_222:\n        /* \"#utility.yul\":17904:17912   */\n      0x00\n        /* \"#utility.yul\":17954:17959   */\n      dup3\n        /* \"#utility.yul\":17948:17952   */\n      dup3\n        /* \"#utility.yul\":17944:17960   */\n      shl\n        /* \"#utility.yul\":17923:17960   */\n      swap1\n      pop\n        /* \"#utility.yul\":17860:17967   */\n      swap3\n      swap2\n      pop\n      pop\n      jump\t// out\n        /* \"#utility.yul\":17973:18366   */\n    tag_223:\n        /* \"#utility.yul\":18042:18048   */\n      0x00\n        /* \"#utility.yul\":18092:18093   */\n      0x08\n        /* \"#utility.yul\":18080:18090   */\n      dup4\n        /* \"#utility.yul\":18076:18094   */\n      mul\n        /* \"#utility.yul\":18115:18212   */\n      tag_415\n        /* \"#utility.yul\":18145:18211   */\n      0xffffffffffffffffffffffffffffffffffffffffffffffffffffffffffffffff\n        /* \"#utility.yul\":18134:18143   */\n      dup3\n        /* \"#utility.yul\":18115:18212   */\n      tag_222\n      jump\t// in\n    tag_415:\n        /* \"#utility.yul\":18233:18272   */\n      tag_416\n        /* \"#utility.yul\":18263:18271   */\n      dup7\n        /* \"#utility.yul\":18252:18261   */\n      dup4\n        /* \"#utility.yul\":18233:18272   */\n      tag_222\n      jump\t// in\n    tag_416:\n        /* \"#utility.yul\":18221:18272   */\n      swap6\n      pop\n        /* \"#utility.yul\":18305:18309   */\n      dup1\n        /* \"#utility.yul\":18301:18310   */\n      not\n        /* \"#utility.yul\":18294:18299   */\n      dup5\n        /* \"#utility.yul\":18290:18311   */\n      and\n        /* \"#utility.yul\":18281:18311   */\n      swap4\n      pop\n        /* \"#utility.yul\":18354:18358   */\n      dup1\n        /* \"#utility.yul\":18344:18352   */\n      dup7\n        /* \"#utility.yul\":18340:18359   */\n      and\n        /* \"#utility.yul\":18333:18338   */\n      dup5\n        /* \"#utility.yul\":18330:18360   */\n      or\n        /* \"#utility.yul\":18320:18360   */\n      swap3\n      pop\n        /* \"#utility.yul\":18049:18366   */\n      pop\n      pop\n        /* \"#utility.yul\":17973:18366   */\n      swap4\n      swap3\n      pop\n      pop\n      pop\n      jump\t// out\n        /* \"#utility.yul\":18372:18449   */\n    tag_224:\n        /* \"#utility.yul\":18409:18416   */\n      0x00\n        /* \"#utility.yul\":18438:18443   */\n      dup2\n        /* \"#utility.yul\":18427:18443   */\n      swap1\n      pop\n        /* \"#utility.yul\":18372:18449   */\n      swap2\n      swap1\n      pop\n      jump\t// out\n        /* \"#utility.yul\":18455:18515   */\n    tag_225:\n        /* \"#utility.yul\":18483:18486   */\n      0x00\n        /* \"#utility.yul\":18504:18509   */\n      dup2\n        /* \"#utility.yul\":18497:18509   */\n      swap1\n      pop\n        /* \"#utility.yul\":18455:18515   */\n      swap2\n      swap1\n      pop\n      jump\t// out\n        /* \"#utility.yul\":18521:18663   */\n    tag_226:\n        /* \"#utility.yul\":18571:18580   */\n      0x00\n        /* \"#utility.yul\":18604:18657   */\n      tag_420\n        /* \"#utility.yul\":18622:18656   */\n      tag_421\n        /* \"#utility.yul\":18631:18655   */\n      tag_422\n        /* \"#utility.yul\":18649:18654   */\n      dup5\n        /* \"#utility.yul\":18631:18655   */\n      tag_224\n      jump\t// in\n    tag_422:\n        /* \"#utility.yul\":18622:18656   */\n      tag_225\n      jump\t// in\n    tag_421:\n        /* \"#utility.yul\":18604:18657   */\n      tag_224\n      jump\t// in\n    tag_420:\n        /* \"#utility.yul\":18591:18657   */\n      swap1\n      pop\n        /* \"#utility.yul\":18521:18663   */\n      swap2\n      swap1\n      pop\n      jump\t// out\n        /* \"#utility.yul\":18669:18744   */\n    tag_227:\n        /* \"#utility.yul\":18712:18715   */\n      0x00\n        /* \"#utility.yul\":18733:18738   */\n      dup2\n        /* \"#utility.yul\":18726:18738   */\n      swap1\n      pop\n        /* \"#utility.yul\":18669:18744   */\n      swap2\n      swap1\n      pop\n      jump\t// out\n        /* \"#utility.yul\":18750:19019   */\n    tag_228:\n        /* \"#utility.yul\":18860:18899   */\n      tag_425\n        /* \"#utility.yul\":18891:18898   */\n      dup4\n        /* \"#utility.yul\":18860:18899   */\n      tag_226\n      jump\t// in\n    tag_425:\n        /* \"#utility.yul\":18921:19012   */\n      tag_426\n        /* \"#utility.yul\":18970:19011   */\n      tag_427\n        /* \"#utility.yul\":18994:19010   */\n      dup3\n        /* \"#utility.yul\":18970:19011   */\n      tag_227\n      jump\t// in\n    tag_427:\n        /* \"#utility.yul\":18962:18968   */\n      dup5\n        /* \"#utility.yul\":18955:18959   */\n      dup5\n        /* \"#utility.yul\":18949:18960   */\n      sload\n        /* \"#utility.yul\":18921:19012   */\n      tag_223\n      jump\t// in\n    tag_426:\n        /* \"#utility.yul\":18915:18919   */\n      dup3\n        /* \"#utility.yul\":18908:19013   */\n      sstore\n        /* \"#utility.yul\":18826:19019   */\n      pop\n        /* \"#utility.yul\":18750:19019   */\n      pop\n      pop\n      pop\n      jump\t// out\n        /* \"#utility.yul\":19025:19098   */\n    tag_229:\n        /* \"#utility.yul\":19070:19073   */\n      0x00\n        /* \"#utility.yul\":19025:19098   */\n      swap1\n      jump\t// out\n        /* \"#utility.yul\":19104:19293   */\n    tag_230:\n        /* \"#utility.yul\":19181:19213   */\n      tag_430\n      tag_229\n      jump\t// in\n    tag_430:\n        /* \"#utility.yul\":19222:19287   */\n      tag_431\n        /* \"#utility.yul\":19280:19286   */\n      dup2\n        /* \"#utility.yul\":19272:19278   */\n      dup5\n        /* \"#utility.yul\":19266:19270   */\n      dup5\n        /* \"#utility.yul\":19222:19287   */\n      tag_228\n      jump\t// in\n    tag_431:\n        /* \"#utility.yul\":19157:19293   */\n      pop\n        /* \"#utility.yul\":19104:19293   */\n      pop\n      pop\n      jump\t// out\n        /* \"#utility.yul\":19299:19485   */\n    tag_231:\n        /* \"#utility.yul\":19359:19479   */\n    tag_433:\n        /* \"#utility.yul\":19376:19379   */\n      dup2\n        /* \"#utility.yul\":19369:19374   */\n      dup2\n        /* \"#utility.yul\":19366:19380   */\n      lt\n        /* \"#utility.yul\":19359:19479   */\n      iszero\n      tag_435\n      jumpi\n        /* \"#utility.yul\":19430:19469   */\n      tag_436\n        /* \"#utility.yul\":19467:19468   */\n      0x00\n        /* \"#utility.yul\":19460:19465   */\n      dup3\n        /* \"#utility.yul\":19430:19469   */\n      tag_230\n      jump\t// in\n    tag_436:\n        /* \"#utility.yul\":19403:19404   */\n      0x01\n        /* \"#utility.yul\":19396:19401   */\n      dup2\n        /* \"#utility.yul\":19392:19405   */\n      add\n        /* \"#utility.yul\":19383:19405   */\n      swap1\n      pop\n        /* \"#utility.yul\":19359:19479   */\n      jump(tag_433)\n    tag_435:\n        /* \"#utility.yul\":19299:19485   */\n      pop\n      pop\n      jump\t// out\n        /* \"#utility.yul\":19491:20034   */\n    tag_232:\n        /* \"#utility.yul\":19592:19594   */\n      0x1f\n        /* \"#utility.yul\":19587:19590   */\n      dup3\n        /* \"#utility.yul\":19584:19595   */\n      gt\n        /* \"#utility.yul\":19581:20027   */\n      iszero\n      tag_438\n      jumpi\n        /* \"#utility.yul\":19626:19664   */\n      tag_439\n        /* \"#utility.yul\":19658:19663   */\n      dup2\n        /* \"#utility.yul\":19626:19664   */\n      tag_220\n      jump\t// in\n    tag_439:\n        /* \"#utility.yul\":19710:19739   */\n      tag_440\n        /* \"#utility.yul\":19728:19738   */\n      dup5\n        /* \"#utility.yul\":19710:19739   */\n      tag_221\n      jump\t// in\n    tag_440:\n        /* \"#utility.yul\":19700:19708   */\n      dup2\n        /* \"#utility.yul\":19696:19740   */\n      add\n        /* \"#utility.yul\":19893:19895   */\n      0x20\n        /* \"#utility.yul\":19881:19891   */\n      dup6\n        /* \"#utility.yul\":19878:19896   */\n      lt\n        /* \"#utility.yul\":19875:19924   */\n      iszero\n      tag_441\n      jumpi\n        /* \"#utility.yul\":19914:19922   */\n      dup2\n        /* \"#utility.yul\":19899:19922   */\n      swap1\n      pop\n        /* \"#utility.yul\":19875:19924   */\n    tag_441:\n        /* \"#utility.yul\":19937:20017   */\n      tag_442\n        /* \"#utility.yul\":19993:20015   */\n      tag_443\n        /* \"#utility.yul\":20011:20014   */\n      dup6\n        /* \"#utility.yul\":19993:20015   */\n      tag_221\n      jump\t// in\n    tag_443:\n        /* \"#utility.yul\":19983:19991   */\n      dup4\n        /* \"#utility.yul\":19979:20016   */\n      add\n        /* \"#utility.yul\":19966:19977   */\n      dup3\n        /* \"#utility.yul\":19937:20017   */\n      tag_231\n      jump\t// in\n    tag_442:\n        /* \"#utility.yul\":19596:20027   */\n      pop\n      pop\n        /* \"#utility.yul\":19581:20027   */\n    tag_438:\n        /* \"#utility.yul\":19491:20034   */\n      pop\n      pop\n      pop\n      jump\t// out\n        /* \"#utility.yul\":20040:20157   */\n    tag_233:\n        /* \"#utility.yul\":20094:20102   */\n      0x00\n        /* \"#utility.yul\":20144:20149   */\n      dup3\n        /* \"#utility.yul\":20138:20142   */\n      dup3\n        /* \"#utility.yul\":20134:20150   */\n      shr\n        /* \"#utility.yul\":20113:20150   */\n      swap1\n      pop\n        /* \"#utility.yul\":20040:20157   */\n      swap3\n      swap2\n      pop\n      pop\n      jump\t// out\n        /* \"#utility.yul\":20163:20332   */\n    tag_234:\n        /* \"#utility.yul\":20207:20213   */\n      0x00\n        /* \"#utility.yul\":20240:20291   */\n      tag_446\n        /* \"#utility.yul\":20288:20289   */\n      0x00\n        /* \"#utility.yul\":20284:20290   */\n      not\n        /* \"#utility.yul\":20276:20281   */\n      dup5\n        /* \"#utility.yul\":20273:20274   */\n      0x08\n        /* \"#utility.yul\":20269:20282   */\n      mul\n        /* \"#utility.yul\":20240:20291   */\n      tag_233\n      jump\t// in\n    tag_446:\n        /* \"#utility.yul\":20236:20292   */\n      not\n        /* \"#utility.yul\":20321:20325   */\n      dup1\n        /* \"#utility.yul\":20315:20319   */\n      dup4\n        /* \"#utility.yul\":20311:20326   */\n      and\n        /* \"#utility.yul\":20301:20326   */\n      swap2\n      pop\n        /* \"#utility.yul\":20214:20332   */\n      pop\n        /* \"#utility.yul\":20163:20332   */\n      swap3\n      swap2\n      pop\n      pop\n      jump\t// out\n        /* \"#utility.yul\":20337:20632   */\n    tag_235:\n        /* \"#utility.yul\":20413:20417   */\n      0x00\n        /* \"#utility.yul\":20559:20588   */\n      tag_448\n        /* \"#utility.yul\":20584:20587   */\n      dup4\n        /* \"#utility.yul\":20578:20582   */\n      dup4\n        /* \"#utility.yul\":20559:20588   */\n      tag_234\n      jump\t// in\n    tag_448:\n        /* \"#utility.yul\":20551:20588   */\n      swap2\n      pop\n        /* \"#utility.yul\":20621:20624   */\n      dup3\n        /* \"#utility.yul\":20618:20619   */\n      0x02\n        /* \"#utility.yul\":20614:20625   */\n      mul\n        /* \"#utility.yul\":20608:20612   */\n      dup3\n        /* \"#utility.yul\":20605:20626   */\n      or\n        /* \"#utility.yul\":20597:20626   */\n      swap1\n      pop\n        /* \"#utility.yul\":20337:20632   */\n      swap3\n      swap2\n      pop\n      pop\n      jump\t// out\n        /* \"#utility.yul\":20637:22032   */\n    tag_87:\n        /* \"#utility.yul\":20754:20791   */\n      tag_450\n        /* \"#utility.yul\":20787:20790   */\n      dup3\n        /* \"#utility.yul\":20754:20791   */\n      tag_190\n      jump\t// in\n    tag_450:\n        /* \"#utility.yul\":20856:20874   */\n      0xffffffffffffffff\n        /* \"#utility.yul\":20848:20854   */\n      dup2\n        /* \"#utility.yul\":20845:20875   */\n      gt\n        /* \"#utility.yul\":20842:20898   */\n      iszero\n      tag_451\n      jumpi\n        /* \"#utility.yul\":20878:20896   */\n      tag_452\n      tag_178\n      jump\t// in\n    tag_452:\n        /* \"#utility.yul\":20842:20898   */\n    tag_451:\n        /* \"#utility.yul\":20922:20960   */\n      tag_453\n        /* \"#utility.yul\":20954:20958   */\n      dup3\n        /* \"#utility.yul\":20948:20959   */\n      sload\n        /* \"#utility.yul\":20922:20960   */\n      tag_71\n      jump\t// in\n    tag_453:\n        /* \"#utility.yul\":21007:21074   */\n      tag_454\n        /* \"#utility.yul\":21067:21073   */\n      dup3\n        /* \"#utility.yul\":21059:21065   */\n      dup3\n        /* \"#utility.yul\":21053:21057   */\n      dup6\n        /* \"#utility.yul\":21007:21074   */\n      tag_232\n      jump\t// in\n    tag_454:\n        /* \"#utility.yul\":21101:21102   */\n      0x00\n        /* \"#utility.yul\":21125:21129   */\n      0x20\n        /* \"#utility.yul\":21112:21129   */\n      swap1\n      pop\n        /* \"#utility.yul\":21157:21159   */\n      0x1f\n        /* \"#utility.yul\":21149:21155   */\n      dup4\n        /* \"#utility.yul\":21146:21160   */\n      gt\n        /* \"#utility.yul\":21174:21175   */\n      0x01\n        /* \"#utility.yul\":21169:21787   */\n      dup2\n      eq\n      tag_456\n      jumpi\n        /* \"#utility.yul\":21831:21832   */\n      0x00\n        /* \"#utility.yul\":21848:21854   */\n      dup5\n        /* \"#utility.yul\":21845:21922   */\n      iszero\n      tag_457\n      jumpi\n        /* \"#utility.yul\":21897:21906   */\n      dup3\n        /* \"#utility.yul\":21892:21895   */\n      dup8\n        /* \"#utility.yul\":21888:21907   */\n      add\n        /* \"#utility.yul\":21882:21908   */\n      mload\n        /* \"#utility.yul\":21873:21908   */\n      swap1\n      pop\n        /* \"#utility.yul\":21845:21922   */\n    tag_457:\n        /* \"#utility.yul\":21948:22015   */\n      tag_458\n        /* \"#utility.yul\":22008:22014   */\n      dup6\n        /* \"#utility.yul\":22001:22006   */\n      dup3\n        /* \"#utility.yul\":21948:22015   */\n      tag_235\n      jump\t// in\n    tag_458:\n        /* \"#utility.yul\":21942:21946   */\n      dup7\n        /* \"#utility.yul\":21935:22016   */\n      sstore\n        /* \"#utility.yul\":21804:22026   */\n      pop\n        /* \"#utility.yul\":21139:22026   */\n      jump(tag_455)\n        /* \"#utility.yul\":21169:21787   */\n    tag_456:\n        /* \"#utility.yul\":21221:21225   */\n      0x1f\n        /* \"#utility.yul\":21217:21226   */\n      not\n        /* \"#utility.yul\":21209:21215   */\n      dup5\n        /* \"#utility.yul\":21205:21227   */\n      and\n        /* \"#utility.yul\":21255:21292   */\n      tag_459\n        /* \"#utility.yul\":21287:21291   */\n      dup7\n        /* \"#utility.yul\":21255:21292   */\n      tag_220\n      jump\t// in\n    tag_459:\n        /* \"#utility.yul\":21314:21315   */\n      0x00\n        /* \"#utility.yul\":21328:21536   */\n    tag_460:\n        /* \"#utility.yul\":21342:21349   */\n      dup3\n        /* \"#utility.yul\":21339:21340   */\n      dup2\n        /* \"#utility.yul\":21336:21350   */\n      lt\n        /* \"#utility.yul\":21328:21536   */\n      iszero\n      tag_462\n      jumpi\n        /* \"#utility.yul\":21421:21430   */\n      dup5\n        /* \"#utility.yul\":21416:21419   */\n      dup10\n        /* \"#utility.yul\":21412:21431   */\n      add\n        /* \"#utility.yul\":21406:21432   */\n      mload\n        /* \"#utility.yul\":21398:21404   */\n      dup3\n        /* \"#utility.yul\":21391:21433   */\n      sstore\n        /* \"#utility.yul\":21472:21473   */\n      0x01\n        /* \"#utility.yul\":21464:21470   */\n      dup3\n        /* \"#utility.yul\":21460:21474   */\n      add\n        /* \"#utility.yul\":21450:21474   */\n      swap2\n      pop\n        /* \"#utility.yul\":21519:21521   */\n      0x20\n        /* \"#utility.yul\":21508:21517   */\n      dup6\n        /* \"#utility.yul\":21504:21522   */\n      add\n        /* \"#utility.yul\":21491:21522   */\n      swap5\n      pop\n        /* \"#utility.yul\":21365:21369   */\n      0x20\n        /* \"#utility.yul\":21362:21363   */\n      dup2\n        /* \"#utility.yul\":21358:21370   */\n      add\n        /* \"#utility.yul\":21353:21370   */\n      swap1\n      pop\n        /* \"#utility.yul\":21328:21536   */\n      jump(tag_460)\n    tag_462:\n        /* \"#utility.yul\":21564:21570   */\n      dup7\n        /* \"#utility.yul\":21555:21562   */\n      dup4\n        /* \"#utility.yul\":21552:21571   */\n      lt\n        /* \"#utility.yul\":21549:21728   */\n      iszero\n      tag_463\n      jumpi\n        /* \"#utility.yul\":21622:21631   */\n      dup5\n        /* \"#utility.yul\":21617:21620   */\n      dup10\n        /* \"#utility.yul\":21613:21632   */\n      add\n        /* \"#utility.yul\":21607:21633   */\n      mload\n        /* \"#utility.yul\":21665:21713   */\n      tag_464\n        /* \"#utility.yul\":21707:21711   */\n      0x1f\n        /* \"#utility.yul\":21699:21705   */\n      dup10\n        /* \"#utility.yul\":21695:21712   */\n      and\n        /* \"#utility.yul\":21684:21693   */\n      dup3\n        /* \"#utility.yul\":21665:21713   */\n      tag_234\n      jump\t// in\n    tag_464:\n        /* \"#utility.yul\":21657:21663   */\n      dup4\n        /* \"#utility.yul\":21650:21714   */\n      sstore\n        /* \"#utility.yul\":21572:21728   */\n      pop\n        /* \"#utility.yul\":21549:21728   */\n    tag_463:\n        /* \"#utility.yul\":21774:21775   */\n      0x01\n        /* \"#utility.yul\":21770:21771   */\n      0x02\n        /* \"#utility.yul\":21762:21768   */\n      dup9\n        /* \"#utility.yul\":21758:21772   */\n      mul\n        /* \"#utility.yul\":21754:21776   */\n      add\n        /* \"#utility.yul\":21748:21752   */\n      dup9\n        /* \"#utility.yul\":21741:21777   */\n      sstore\n        /* \"#utility.yul\":21176:21787   */\n      pop\n      pop\n      pop\n        /* \"#utility.yul\":21139:22026   */\n    tag_455:\n      pop\n        /* \"#utility.yul\":20729:22032   */\n      pop\n      pop\n      pop\n        /* \"#utility.yul\":20637:22032   */\n      pop\n      pop\n      jump\t// out\n        /* \"#utility.yul\":22038:22552   */\n    tag_89:\n        /* \"#utility.yul\":22199:22203   */\n      0x00\n        /* \"#utility.yul\":22237:22239   */\n      0x40\n        /* \"#utility.yul\":22226:22235   */\n      dup3\n        /* \"#utility.yul\":22222:22240   */\n      add\n        /* \"#utility.yul\":22214:22240   */\n      swap1\n      pop\n        /* \"#utility.yul\":22286:22295   */\n      dup2\n        /* \"#utility.yul\":22280:22284   */\n      dup2\n        /* \"#utility.yul\":22276:22296   */\n      sub\n        /* \"#utility.yul\":22272:22273   */\n      0x00\n        /* \"#utility.yul\":22261:22270   */\n      dup4\n        /* \"#utility.yul\":22257:22274   */\n      add\n        /* \"#utility.yul\":22250:22297   */\n      mstore\n        /* \"#utility.yul\":22314:22392   */\n      tag_466\n        /* \"#utility.yul\":22387:22391   */\n      dup2\n        /* \"#utility.yul\":22378:22384   */\n      dup6\n        /* \"#utility.yul\":22314:22392   */\n      tag_193\n      jump\t// in\n    tag_466:\n        /* \"#utility.yul\":22306:22392   */\n      swap1\n      pop\n        /* \"#utility.yul\":22439:22448   */\n      dup2\n        /* \"#utility.yul\":22433:22437   */\n      dup2\n        /* \"#utility.yul\":22429:22449   */\n      sub\n        /* \"#utility.yul\":22424:22426   */\n      0x20\n        /* \"#utility.yul\":22413:22422   */\n      dup4\n        /* \"#utility.yul\":22409:22427   */\n      add\n        /* \"#utility.yul\":22402:22450   */\n      mstore\n        /* \"#utility.yul\":22467:22545   */\n      tag_467\n        /* \"#utility.yul\":22540:22544   */\n      dup2\n        /* \"#utility.yul\":22531:22537   */\n      dup5\n        /* \"#utility.yul\":22467:22545   */\n      tag_193\n      jump\t// in\n    tag_467:\n        /* \"#utility.yul\":22459:22545   */\n      swap1\n      pop\n        /* \"#utility.yul\":22038:22552   */\n      swap4\n      swap3\n      pop\n      pop\n      pop\n      jump\t// out\n        /* \"#utility.yul\":22558:22732   */\n    tag_236:\n        /* \"#utility.yul\":22698:22724   */\n      0x46696c656e616d652063616e6e6f7420626520656d7074790000000000000000\n        /* \"#utility.yul\":22694:22695   */\n      0x00\n        /* \"#utility.yul\":22686:22692   */\n      dup3\n        /* \"#utility.yul\":22682:22696   */\n      add\n        /* \"#utility.yul\":22675:22725   */\n      mstore\n        /* \"#utility.yul\":22558:22732   */\n      pop\n      jump\t// out\n        /* \"#utility.yul\":22738:23104   */\n    tag_237:\n        /* \"#utility.yul\":22880:22883   */\n      0x00\n        /* \"#utility.yul\":22901:22968   */\n      tag_470\n        /* \"#utility.yul\":22965:22967   */\n      0x18\n        /* \"#utility.yul\":22960:22963   */\n      dup4\n        /* \"#utility.yul\":22901:22968   */\n      tag_191\n      jump\t// in\n    tag_470:\n        /* \"#utility.yul\":22894:22968   */\n      swap2\n      pop\n        /* \"#utility.yul\":22977:23070   */\n      tag_471\n        /* \"#utility.yul\":23066:23069   */\n      dup3\n        /* \"#utility.yul\":22977:23070   */\n      tag_236\n      jump\t// in\n    tag_471:\n        /* \"#utility.yul\":23095:23097   */\n      0x20\n        /* \"#utility.yul\":23090:23093   */\n      dup3\n        /* \"#utility.yul\":23086:23098   */\n      add\n        /* \"#utility.yul\":23079:23098   */\n      swap1\n      pop\n        /* \"#utility.yul\":22738:23104   */\n      swap2\n      swap1\n      pop\n      jump\t// out\n        /* \"#utility.yul\":23110:23529   */\n    tag_102:\n        /* \"#utility.yul\":23276:23280   */\n      0x00\n        /* \"#utility.yul\":23314:23316   */\n      0x20\n        /* \"#utility.yul\":23303:23312   */\n      dup3\n        /* \"#utility.yul\":23299:23317   */\n      add\n        /* \"#utility.yul\":23291:23317   */\n      swap1\n      pop\n        /* \"#utility.yul\":23363:23372   */\n      dup2\n        /* \"#utility.yul\":23357:23361   */\n      dup2\n        /* \"#utility.yul\":23353:23373   */\n      sub\n        /* \"#utility.yul\":23349:23350   */\n      0x00\n        /* \"#utility.yul\":23338:23347   */\n      dup4\n        /* \"#utility.yul\":23334:23351   */\n      add\n        /* \"#utility.yul\":23327:23374   */\n      mstore\n        /* \"#utility.yul\":23391:23522   */\n      tag_473\n        /* \"#utility.yul\":23517:23521   */\n      dup2\n        /* \"#utility.yul\":23391:23522   */\n      tag_237\n      jump\t// in\n    tag_473:\n        /* \"#utility.yul\":23383:23522   */\n      swap1\n      pop\n        /* \"#utility.yul\":23110:23529   */\n      swap2\n      swap1\n      pop\n      jump\t// out\n        /* \"#utility.yul\":23535:23704   */\n    tag_238:\n        /* \"#utility.yul\":23675:23696   */\n      0x46696c6520616c72656164792065786973747300000000000000000000000000\n        /* \"#utility.yul\":23671:23672   */\n      0x00\n        /* \"#utility.yul\":23663:23669   */\n      dup3\n        /* \"#utility.yul\":23659:23673   */\n      add\n        /* \"#utility.yul\":23652:23697   */\n      mstore\n        /* \"#utility.yul\":23535:23704   */\n      pop\n      jump\t// out\n        /* \"#utility.yul\":23710:24076   */\n    tag_239:\n        /* \"#utility.yul\":23852:23855   */\n      0x00\n        /* \"#utility.yul\":23873:23940   */\n      tag_476\n        /* \"#utility.yul\":23937:23939   */\n      0x13\n        /* \"#utility.yul\":23932:23935   */\n      dup4\n        /* \"#utility.yul\":23873:23940   */\n      tag_191\n      jump\t// in\n    tag_476:\n        /* \"#utility.yul\":23866:23940   */\n      swap2\n      pop\n        /* \"#utility.yul\":23949:24042   */\n      tag_477\n        /* \"#utility.yul\":24038:24041   */\n      dup3\n        /* \"#utility.yul\":23949:24042   */\n      tag_238\n      jump\t// in\n    tag_477:\n        /* \"#utility.yul\":24067:24069   */\n      0x20\n        /* \"#utility.yul\":24062:24065   */\n      dup3\n        /* \"#utility.yul\":24058:24070   */\n      add\n        /* \"#utility.yul\":24051:24070   */\n      swap1\n      pop\n        /* \"#utility.yul\":23710:24076   */\n      swap2\n      swap1\n      pop\n      jump\t// out\n        /* \"#utility.yul\":24082:24501   */\n    tag_106:\n        /* \"#utility.yul\":24248:24252   */\n      0x00\n        /* \"#utility.yul\":24286:24288   */\n      0x20\n        /* \"#utility.yul\":24275:24284   */\n      dup3\n        /* \"#utility.yul\":24271:24289   */\n      add\n        /* \"#utility.yul\":24263:24289   */\n      swap1\n      pop\n        /* \"#utility.yul\":24335:24344   */\n      dup2\n        /* \"#utility.yul\":24329:24333   */\n      dup2\n        /* \"#utility.yul\":24325:24345   */\n      sub\n        /* \"#utility.yul\":24321:24322   */\n      0x00\n        /* \"#utility.yul\":24310:24319   */\n      dup4\n        /* \"#utility.yul\":24306:24323   */\n      add\n        /* \"#utility.yul\":24299:24346   */\n      mstore\n        /* \"#utility.yul\":24363:24494   */\n      tag_479\n        /* \"#utility.yul\":24489:24493   */\n      dup2\n        /* \"#utility.yul\":24363:24494   */\n      tag_239\n      jump\t// in\n    tag_479:\n        /* \"#utility.yul\":24355:24494   */\n      swap1\n      pop\n        /* \"#utility.yul\":24082:24501   */\n      swap2\n      swap1\n      pop\n      jump\t// out\n        /* \"#utility.yul\":24507:24687   */\n    tag_132:\n        /* \"#utility.yul\":24555:24632   */\n      0x4e487b7100000000000000000000000000000000000000000000000000000000\n        /* \"#utility.yul\":24552:24553   */\n      0x00\n        /* \"#utility.yul\":24545:24633   */\n      mstore\n        /* \"#utility.yul\":24652:24656   */\n      0x32\n        /* \"#utility.yul\":24649:24650   */\n      0x04\n        /* \"#utility.yul\":24642:24657   */\n      mstore\n        /* \"#utility.yul\":24676:24680   */\n      0x24\n        /* \"#utility.yul\":24673:24674   */\n      0x00\n        /* \"#utility.yul\":24666:24681   */\n      revert\n        /* \"#utility.yul\":24717:25591   */\n    tag_240:\n        /* \"#utility.yul\":24820:24823   */\n      0x00\n        /* \"#utility.yul\":24857:24862   */\n      dup2\n        /* \"#utility.yul\":24851:24863   */\n      sload\n        /* \"#utility.yul\":24886:24922   */\n      tag_482\n        /* \"#utility.yul\":24912:24921   */\n      dup2\n        /* \"#utility.yul\":24886:24922   */\n      tag_71\n      jump\t// in\n    tag_482:\n        /* \"#utility.yul\":24938:25027   */\n      tag_483\n        /* \"#utility.yul\":25020:25026   */\n      dup2\n        /* \"#utility.yul\":25015:25018   */\n      dup7\n        /* \"#utility.yul\":24938:25027   */\n      tag_209\n      jump\t// in\n    tag_483:\n        /* \"#utility.yul\":24931:25027   */\n      swap5\n      pop\n        /* \"#utility.yul\":25058:25059   */\n      0x01\n        /* \"#utility.yul\":25047:25056   */\n      dup3\n        /* \"#utility.yul\":25043:25060   */\n      and\n        /* \"#utility.yul\":25074:25075   */\n      0x00\n        /* \"#utility.yul\":25069:25235   */\n      dup2\n      eq\n      tag_485\n      jumpi\n        /* \"#utility.yul\":25249:25250   */\n      0x01\n        /* \"#utility.yul\":25244:25585   */\n      dup2\n      eq\n      tag_486\n      jumpi\n        /* \"#utility.yul\":25036:25585   */\n      jump(tag_484)\n        /* \"#utility.yul\":25069:25235   */\n    tag_485:\n        /* \"#utility.yul\":25153:25157   */\n      0xff\n        /* \"#utility.yul\":25149:25158   */\n      not\n        /* \"#utility.yul\":25138:25147   */\n      dup4\n        /* \"#utility.yul\":25134:25159   */\n      and\n        /* \"#utility.yul\":25129:25132   */\n      dup7\n        /* \"#utility.yul\":25122:25160   */\n      mstore\n        /* \"#utility.yul\":25215:25221   */\n      dup2\n        /* \"#utility.yul\":25208:25222   */\n      iszero\n        /* \"#utility.yul\":25201:25223   */\n      iszero\n        /* \"#utility.yul\":25193:25199   */\n      dup3\n        /* \"#utility.yul\":25189:25224   */\n      mul\n        /* \"#utility.yul\":25184:25187   */\n      dup7\n        /* \"#utility.yul\":25180:25225   */\n      add\n        /* \"#utility.yul\":25173:25225   */\n      swap4\n      pop\n        /* \"#utility.yul\":25069:25235   */\n      jump(tag_484)\n        /* \"#utility.yul\":25244:25585   */\n    tag_486:\n        /* \"#utility.yul\":25311:25349   */\n      tag_487\n        /* \"#utility.yul\":25343:25348   */\n      dup6\n        /* \"#utility.yul\":25311:25349   */\n      tag_220\n      jump\t// in\n    tag_487:\n        /* \"#utility.yul\":25371:25372   */\n      0x00\n        /* \"#utility.yul\":25385:25539   */\n    tag_488:\n        /* \"#utility.yul\":25399:25405   */\n      dup4\n        /* \"#utility.yul\":25396:25397   */\n      dup2\n        /* \"#utility.yul\":25393:25406   */\n      lt\n        /* \"#utility.yul\":25385:25539   */\n      iszero\n      tag_490\n      jumpi\n        /* \"#utility.yul\":25473:25480   */\n      dup2\n        /* \"#utility.yul\":25467:25481   */\n      sload\n        /* \"#utility.yul\":25463:25464   */\n      dup2\n        /* \"#utility.yul\":25458:25461   */\n      dup10\n        /* \"#utility.yul\":25454:25465   */\n      add\n        /* \"#utility.yul\":25447:25482   */\n      mstore\n        /* \"#utility.yul\":25523:25524   */\n      0x01\n        /* \"#utility.yul\":25514:25521   */\n      dup3\n        /* \"#utility.yul\":25510:25525   */\n      add\n        /* \"#utility.yul\":25499:25525   */\n      swap2\n      pop\n        /* \"#utility.yul\":25421:25425   */\n      0x20\n        /* \"#utility.yul\":25418:25419   */\n      dup2\n        /* \"#utility.yul\":25414:25426   */\n      add\n        /* \"#utility.yul\":25409:25426   */\n      swap1\n      pop\n        /* \"#utility.yul\":25385:25539   */\n      jump(tag_488)\n    tag_490:\n        /* \"#utility.yul\":25568:25574   */\n      dup4\n        /* \"#utility.yul\":25563:25566   */\n      dup9\n        /* \"#utility.yul\":25559:25575   */\n      add\n        /* \"#utility.yul\":25552:25575   */\n      swap6\n      pop\n        /* \"#utility.yul\":25251:25585   */\n      pop\n      pop\n        /* \"#utility.yul\":25036:25585   */\n    tag_484:\n      pop\n        /* \"#utility.yul\":24824:25591   */\n      pop\n      pop\n        /* \"#utility.yul\":24717:25591   */\n      swap3\n      swap2\n      pop\n      pop\n      jump\t// out\n        /* \"#utility.yul\":25597:25866   */\n    tag_135:\n        /* \"#utility.yul\":25726:25729   */\n      0x00\n        /* \"#utility.yul\":25748:25840   */\n      tag_492\n        /* \"#utility.yul\":25836:25839   */\n      dup3\n        /* \"#utility.yul\":25827:25833   */\n      dup5\n        /* \"#utility.yul\":25748:25840   */\n      tag_240\n      jump\t// in\n    tag_492:\n        /* \"#utility.yul\":25741:25840   */\n      swap2\n      pop\n        /* \"#utility.yul\":25857:25860   */\n      dup2\n        /* \"#utility.yul\":25850:25860   */\n      swap1\n      pop\n        /* \"#utility.yul\":25597:25866   */\n      swap3\n      swap2\n      pop\n      pop\n      jump\t// out\n        /* \"#utility.yul\":25872:26052   */\n    tag_241:\n        /* \"#utility.yul\":25920:25997   */\n      0x4e487b7100000000000000000000000000000000000000000000000000000000\n        /* \"#utility.yul\":25917:25918   */\n      0x00\n        /* \"#utility.yul\":25910:25998   */\n      mstore\n        /* \"#utility.yul\":26017:26021   */\n      0x11\n        /* \"#utility.yul\":26014:26015   */\n      0x04\n        /* \"#utility.yul\":26007:26022   */\n      mstore\n        /* \"#utility.yul\":26041:26045   */\n      0x24\n        /* \"#utility.yul\":26038:26039   */\n      0x00\n        /* \"#utility.yul\":26031:26046   */\n      revert\n        /* \"#utility.yul\":26058:26252   */\n    tag_138:\n        /* \"#utility.yul\":26098:26102   */\n      0x00\n        /* \"#utility.yul\":26118:26138   */\n      tag_495\n        /* \"#utility.yul\":26136:26137   */\n      dup3\n        /* \"#utility.yul\":26118:26138   */\n      tag_224\n      jump\t// in\n    tag_495:\n        /* \"#utility.yul\":26113:26138   */\n      swap2\n      pop\n        /* \"#utility.yul\":26152:26172   */\n      tag_496\n        /* \"#utility.yul\":26170:26171   */\n      dup4\n        /* \"#utility.yul\":26152:26172   */\n      tag_224\n      jump\t// in\n    tag_496:\n        /* \"#utility.yul\":26147:26172   */\n      swap3\n      pop\n        /* \"#utility.yul\":26196:26197   */\n      dup3\n        /* \"#utility.yul\":26193:26194   */\n      dup3\n        /* \"#utility.yul\":26189:26198   */\n      sub\n        /* \"#utility.yul\":26181:26198   */\n      swap1\n      pop\n        /* \"#utility.yul\":26220:26221   */\n      dup2\n        /* \"#utility.yul\":26214:26218   */\n      dup2\n        /* \"#utility.yul\":26211:26222   */\n      gt\n        /* \"#utility.yul\":26208:26245   */\n      iszero\n      tag_497\n      jumpi\n        /* \"#utility.yul\":26225:26243   */\n      tag_498\n      tag_241\n      jump\t// in\n    tag_498:\n        /* \"#utility.yul\":26208:26245   */\n    tag_497:\n        /* \"#utility.yul\":26058:26252   */\n      swap3\n      swap2\n      pop\n      pop\n      jump\t// out\n        /* \"#utility.yul\":26258:26411   */\n    tag_242:\n        /* \"#utility.yul\":26311:26317   */\n      0x00\n        /* \"#utility.yul\":26345:26350   */\n      dup2\n        /* \"#utility.yul\":26339:26351   */\n      sload\n        /* \"#utility.yul\":26329:26351   */\n      swap1\n      pop\n        /* \"#utility.yul\":26371:26404   */\n      tag_500\n        /* \"#utility.yul\":26397:26403   */\n      dup2\n        /* \"#utility.yul\":26371:26404   */\n      tag_71\n      jump\t// in\n    tag_500:\n        /* \"#utility.yul\":26361:26404   */\n      swap1\n      pop\n        /* \"#utility.yul\":26258:26411   */\n      swap2\n      swap1\n      pop\n      jump\t// out\n        /* \"#utility.yul\":26417:26562   */\n    tag_243:\n        /* \"#utility.yul\":26470:26474   */\n      0x00\n        /* \"#utility.yul\":26493:26496   */\n      dup2\n        /* \"#utility.yul\":26485:26496   */\n      swap1\n      pop\n        /* \"#utility.yul\":26516:26519   */\n      dup2\n        /* \"#utility.yul\":26513:26514   */\n      0x00\n        /* \"#utility.yul\":26506:26520   */\n      mstore\n        /* \"#utility.yul\":26550:26554   */\n      0x20\n        /* \"#utility.yul\":26547:26548   */\n      0x00\n        /* \"#utility.yul\":26537:26555   */\n      keccak256\n        /* \"#utility.yul\":26529:26555   */\n      swap1\n      pop\n        /* \"#utility.yul\":26417:26562   */\n      swap2\n      swap1\n      pop\n      jump\t// out\n        /* \"#utility.yul\":26568:28031   */\n    tag_146:\n        /* \"#utility.yul\":26683:26686   */\n      dup2\n        /* \"#utility.yul\":26677:26681   */\n      dup2\n        /* \"#utility.yul\":26674:26687   */\n      sub\n        /* \"#utility.yul\":26671:26697   */\n      tag_503\n      jumpi\n        /* \"#utility.yul\":26690:26695   */\n      pop\n      pop\n      jump(tag_502)\n        /* \"#utility.yul\":26671:26697   */\n    tag_503:\n        /* \"#utility.yul\":26721:26759   */\n      tag_504\n        /* \"#utility.yul\":26755:26758   */\n      dup3\n        /* \"#utility.yul\":26721:26759   */\n      tag_242\n      jump\t// in\n    tag_504:\n        /* \"#utility.yul\":26824:26842   */\n      0xffffffffffffffff\n        /* \"#utility.yul\":26816:26822   */\n      dup2\n        /* \"#utility.yul\":26813:26843   */\n      gt\n        /* \"#utility.yul\":26810:26866   */\n      iszero\n      tag_505\n      jumpi\n        /* \"#utility.yul\":26846:26864   */\n      tag_506\n      tag_178\n      jump\t// in\n    tag_506:\n        /* \"#utility.yul\":26810:26866   */\n    tag_505:\n        /* \"#utility.yul\":26890:26928   */\n      tag_507\n        /* \"#utility.yul\":26922:26926   */\n      dup3\n        /* \"#utility.yul\":26916:26927   */\n      sload\n        /* \"#utility.yul\":26890:26928   */\n      tag_71\n      jump\t// in\n    tag_507:\n        /* \"#utility.yul\":26975:27042   */\n      tag_508\n        /* \"#utility.yul\":27035:27041   */\n      dup3\n        /* \"#utility.yul\":27027:27033   */\n      dup3\n        /* \"#utility.yul\":27021:27025   */\n      dup6\n        /* \"#utility.yul\":26975:27042   */\n      tag_232\n      jump\t// in\n    tag_508:\n        /* \"#utility.yul\":27069:27070   */\n      0x00\n        /* \"#utility.yul\":27098:27100   */\n      0x1f\n        /* \"#utility.yul\":27090:27096   */\n      dup4\n        /* \"#utility.yul\":27087:27101   */\n      gt\n        /* \"#utility.yul\":27115:27116   */\n      0x01\n        /* \"#utility.yul\":27110:27786   */\n      dup2\n      eq\n      tag_510\n      jumpi\n        /* \"#utility.yul\":27830:27831   */\n      0x00\n        /* \"#utility.yul\":27847:27853   */\n      dup5\n        /* \"#utility.yul\":27844:27921   */\n      iszero\n      tag_511\n      jumpi\n        /* \"#utility.yul\":27896:27905   */\n      dup3\n        /* \"#utility.yul\":27891:27894   */\n      dup8\n        /* \"#utility.yul\":27887:27906   */\n      add\n        /* \"#utility.yul\":27881:27907   */\n      sload\n        /* \"#utility.yul\":27872:27907   */\n      swap1\n      pop\n        /* \"#utility.yul\":27844:27921   */\n    tag_511:\n        /* \"#utility.yul\":27947:28014   */\n      tag_512\n        /* \"#utility.yul\":28007:28013   */\n      dup6\n        /* \"#utility.yul\":28000:28005   */\n      dup3\n        /* \"#utility.yul\":27947:28014   */\n      tag_235\n      jump\t// in\n    tag_512:\n        /* \"#utility.yul\":27941:27945   */\n      dup7\n        /* \"#utility.yul\":27934:28015   */\n      sstore\n        /* \"#utility.yul\":27803:28025   */\n      pop\n        /* \"#utility.yul\":27080:28025   */\n      jump(tag_509)\n        /* \"#utility.yul\":27110:27786   */\n    tag_510:\n        /* \"#utility.yul\":27162:27166   */\n      0x1f\n        /* \"#utility.yul\":27158:27167   */\n      not\n        /* \"#utility.yul\":27150:27156   */\n      dup5\n        /* \"#utility.yul\":27146:27168   */\n      and\n        /* \"#utility.yul\":27188:27228   */\n      tag_513\n        /* \"#utility.yul\":27224:27227   */\n      dup8\n        /* \"#utility.yul\":27188:27228   */\n      tag_243\n      jump\t// in\n    tag_513:\n        /* \"#utility.yul\":27181:27228   */\n      swap7\n      pop\n        /* \"#utility.yul\":27255:27292   */\n      tag_514\n        /* \"#utility.yul\":27287:27291   */\n      dup7\n        /* \"#utility.yul\":27255:27292   */\n      tag_220\n      jump\t// in\n    tag_514:\n        /* \"#utility.yul\":27314:27315   */\n      0x00\n        /* \"#utility.yul\":27328:27535   */\n    tag_515:\n        /* \"#utility.yul\":27342:27349   */\n      dup3\n        /* \"#utility.yul\":27339:27340   */\n      dup2\n        /* \"#utility.yul\":27336:27350   */\n      lt\n        /* \"#utility.yul\":27328:27535   */\n      iszero\n      tag_517\n      jumpi\n        /* \"#utility.yul\":27421:27430   */\n      dup5\n        /* \"#utility.yul\":27416:27419   */\n      dup10\n        /* \"#utility.yul\":27412:27431   */\n      add\n        /* \"#utility.yul\":27406:27432   */\n      sload\n        /* \"#utility.yul\":27398:27404   */\n      dup3\n        /* \"#utility.yul\":27391:27433   */\n      sstore\n        /* \"#utility.yul\":27472:27473   */\n      0x01\n        /* \"#utility.yul\":27464:27470   */\n      dup3\n        /* \"#utility.yul\":27460:27474   */\n      add\n        /* \"#utility.yul\":27450:27474   */\n      swap2\n      pop\n        /* \"#utility.yul\":27519:27520   */\n      0x01\n        /* \"#utility.yul\":27508:27517   */\n      dup6\n        /* \"#utility.yul\":27504:27521   */\n      add\n        /* \"#utility.yul\":27491:27521   */\n      swap5\n      pop\n        /* \"#utility.yul\":27365:27369   */\n      0x20\n        /* \"#utility.yul\":27362:27363   */\n      dup2\n        /* \"#utility.yul\":27358:27370   */\n      add\n        /* \"#utility.yul\":27353:27370   */\n      swap1\n      pop\n        /* \"#utility.yul\":27328:27535   */\n      jump(tag_515)\n    tag_517:\n        /* \"#utility.yul\":27563:27569   */\n      dup7\n        /* \"#utility.yul\":27554:27561   */\n      dup4\n        /* \"#utility.yul\":27551:27570   */\n      lt\n        /* \"#utility.yul\":27548:27727   */\n      iszero\n      tag_518\n      jumpi\n        /* \"#utility.yul\":27621:27630   */\n      dup5\n        /* \"#utility.yul\":27616:27619   */\n      dup10\n        /* \"#utility.yul\":27612:27631   */\n      add\n        /* \"#utility.yul\":27606:27632   */\n      sload\n        /* \"#utility.yul\":27664:27712   */\n      tag_519\n        /* \"#utility.yul\":27706:27710   */\n      0x1f\n        /* \"#utility.yul\":27698:27704   */\n      dup10\n        /* \"#utility.yul\":27694:27711   */\n      and\n        /* \"#utility.yul\":27683:27692   */\n      dup3\n        /* \"#utility.yul\":27664:27712   */\n      tag_234\n      jump\t// in\n    tag_519:\n        /* \"#utility.yul\":27656:27662   */\n      dup4\n        /* \"#utility.yul\":27649:27713   */\n      sstore\n        /* \"#utility.yul\":27571:27727   */\n      pop\n        /* \"#utility.yul\":27548:27727   */\n    tag_518:\n        /* \"#utility.yul\":27773:27774   */\n      0x01\n        /* \"#utility.yul\":27769:27770   */\n      0x02\n        /* \"#utility.yul\":27761:27767   */\n      dup9\n        /* \"#utility.yul\":27757:27771   */\n      mul\n        /* \"#utility.yul\":27753:27775   */\n      add\n        /* \"#utility.yul\":27747:27751   */\n      dup9\n        /* \"#utility.yul\":27740:27776   */\n      sstore\n        /* \"#utility.yul\":27117:27786   */\n      pop\n      pop\n      pop\n        /* \"#utility.yul\":27080:28025   */\n    tag_509:\n      pop\n        /* \"#utility.yul\":26661:28031   */\n      pop\n      pop\n      pop\n        /* \"#utility.yul\":26568:28031   */\n      pop\n      pop\n    tag_502:\n      jump\t// out\n        /* \"#utility.yul\":28037:28217   */\n    tag_149:\n        /* \"#utility.yul\":28085:28162   */\n      0x4e487b7100000000000000000000000000000000000000000000000000000000\n        /* \"#utility.yul\":28082:28083   */\n      0x00\n        /* \"#utility.yul\":28075:28163   */\n      mstore\n        /* \"#utility.yul\":28182:28186   */\n      0x31\n        /* \"#utility.yul\":28179:28180   */\n      0x04\n        /* \"#utility.yul\":28172:28187   */\n      mstore\n        /* \"#utility.yul\":28206:28210   */\n      0x24\n        /* \"#utility.yul\":28203:28204   */\n      0x00\n        /* \"#utility.yul\":28196:28211   */\n      revert\n\n    auxdata: 0xa2646970667358221220848ef8ed2d7b2fdce7dfc5c67e69e49527c8504e183410ee9155dc9480233fa264736f6c634300081a0033\n}\n",
				"bytecode": {
					"linkReferences": {},
					"object": "6080604052348015600e575f80fd5b50335f806101000a81548173ffffffffffffffffffffffffffffffffffffffff021916908373ffffffffffffffffffffffffffffffffffffffff160217905550611d808061005b5f395ff3fe608060405234801561000f575f80fd5b5060043610610086575f3560e01c80637d41216d116100595780637d41216d1461011057806381ad193a14610140578063a99100541461015c578063bac87fe01461017857610086565b80630fc715c31461008a5780635a5cbc85146100a857806360f9bb11146100c457806367e51090146100f4575b5f80fd5b610092610196565b60405161009f9190610f6a565b60405180910390f35b6100c260048036038101906100bd919061112f565b6101b9565b005b6100de60048036038101906100d991906111af565b6103c5565b6040516100eb9190611256565b60405180910390f35b61010e60048036038101906101099190611276565b61058d565b005b61012a600480360381019061012591906112ec565b610710565b60405161013791906113eb565b60405180910390f35b61015a60048036038101906101559190611276565b610886565b005b610176600480360381019061017191906111af565b610af8565b005b610180610ddd565b60405161018d9190611507565b60405180910390f35b5f8054906101000a900473ffffffffffffffffffffffffffffffffffffffff1681565b836001816040516101ca9190611561565b908152602001604051809103902060020160019054906101000a900473ffffffffffffffffffffffffffffffffffffffff1673ffffffffffffffffffffffffffffffffffffffff163373ffffffffffffffffffffffffffffffffffffffff1614610269576040517f08c379a0000000000000000000000000000000000000000000000000000000008152600401610260906115c1565b60405180910390fd5b8460018160405161027a9190611561565b90815260200160405180910390206002015f9054906101000a900460ff166102d7576040517f08c379a00000000000000000000000000000000000000000000000000000000081526004016102ce90611629565b60405180910390fd5b836001876040516102e89190611561565b90815260200160405180910390206003015f8773ffffffffffffffffffffffffffffffffffffffff1673ffffffffffffffffffffffffffffffffffffffff1681526020019081526020015f205f6101000a81548160ff0219169083151502179055508260018760405161035b9190611561565b90815260200160405180910390206004015f8773ffffffffffffffffffffffffffffffffffffffff1673ffffffffffffffffffffffffffffffffffffffff1681526020019081526020015f205f6101000a81548160ff021916908315150217905550505050505050565b6060816001816040516103d89190611561565b90815260200160405180910390206002015f9054906101000a900460ff16610435576040517f08c379a000000000000000000000000000000000000000000000000000000000815260040161042c90611629565b60405180910390fd5b6001836040516104459190611561565b90815260200160405180910390206003015f3373ffffffffffffffffffffffffffffffffffffffff1673ffffffffffffffffffffffffffffffffffffffff1681526020019081526020015f205f9054906101000a900460ff166104dd576040517f08c379a00000000000000000000000000000000000000000000000000000000081526004016104d490611691565b60405180910390fd5b6001836040516104ed9190611561565b90815260200160405180910390206001018054610509906116dc565b80601f0160208091040260200160405190810160405280929190818152602001828054610535906116dc565b80156105805780601f1061055757610100808354040283529160200191610580565b820191905f5260205f20905b81548152906001019060200180831161056357829003601f168201915b5050505050915050919050565b8160018160405161059e9190611561565b90815260200160405180910390206002015f9054906101000a900460ff166105fb576040517f08c379a00000000000000000000000000000000000000000000000000000000081526004016105f290611629565b60405180910390fd5b60018360405161060b9190611561565b90815260200160405180910390206004015f3373ffffffffffffffffffffffffffffffffffffffff1673ffffffffffffffffffffffffffffffffffffffff1681526020019081526020015f205f9054906101000a900460ff166106a3576040517f08c379a000000000000000000000000000000000000000000000000000000000815260040161069a90611756565b60405180910390fd5b816001846040516106b49190611561565b908152602001604051809103902060010190816106d1919061191a565b507f68cdb7bab964c149fbef46e8e67fee59fdd6c0ba1a2229d362d8ab5ab3705f9783836040516107039291906119e9565b60405180910390a1505050565b610718610eb1565b826001816040516107299190611561565b90815260200160405180910390206002015f9054906101000a900460ff16610786576040517f08c379a000000000000000000000000000000000000000000000000000000000815260040161077d90611629565b60405180910390fd5b5f6001856040516107979190611561565b90815260200160405180910390206003015f8573ffffffffffffffffffffffffffffffffffffffff1673ffffffffffffffffffffffffffffffffffffffff1681526020019081526020015f205f9054906101000a900460ff1690505f6001866040516108039190611561565b90815260200160405180910390206004015f8673ffffffffffffffffffffffffffffffffffffffff1673ffffffffffffffffffffffffffffffffffffffff1681526020019081526020015f205f9054906101000a900460ff1690506040518060400160405280831515151581526020018215151515815250935050505092915050565b5f8251116108c9576040517f08c379a00000000000000000000000000000000000000000000000000000000081526004016108c090611a68565b60405180910390fd5b6001826040516108d99190611561565b90815260200160405180910390206002015f9054906101000a900460ff1615610937576040517f08c379a000000000000000000000000000000000000000000000000000000000815260040161092e90611ad0565b60405180910390fd5b5f6001836040516109489190611561565b9081526020016040518091039020905082815f019081610968919061191a565b508181600101908161097a919061191a565b506001816002015f6101000a81548160ff021916908315150217905550338160020160016101000a81548173ffffffffffffffffffffffffffffffffffffffff021916908373ffffffffffffffffffffffffffffffffffffffff1602179055506001816003015f3373ffffffffffffffffffffffffffffffffffffffff1673ffffffffffffffffffffffffffffffffffffffff1681526020019081526020015f205f6101000a81548160ff0219169083151502179055506001816004015f3373ffffffffffffffffffffffffffffffffffffffff1673ffffffffffffffffffffffffffffffffffffffff1681526020019081526020015f205f6101000a81548160ff021916908315150217905550600283908060018154018082558091505060019003905f5260205f20015f909190919091509081610ab9919061191a565b507f74fdeb27b6331df438c50b6327d3b7d950c83000ca1fafb3bc9834e3ec2c7ef38383604051610aeb9291906119e9565b60405180910390a1505050565b80600181604051610b099190611561565b908152602001604051809103902060020160019054906101000a900473ffffffffffffffffffffffffffffffffffffffff1673ffffffffffffffffffffffffffffffffffffffff163373ffffffffffffffffffffffffffffffffffffffff1614610ba8576040517f08c379a0000000000000000000000000000000000000000000000000000000008152600401610b9f906115c1565b60405180910390fd5b81600181604051610bb99190611561565b90815260200160405180910390206002015f9054906101000a900460ff16610c16576040517f08c379a0000000000000000000000000000000000000000000000000000000008152600401610c0d90611629565b60405180910390fd5b600183604051610c269190611561565b90815260200160405180910390205f8082015f610c439190610ed3565b600182015f610c529190610ed3565b600282015f6101000a81549060ff02191690556002820160016101000a81549073ffffffffffffffffffffffffffffffffffffffff021916905550505f5b600280549050811015610da05783604051602001610cae9190611561565b6040516020818303038152906040528051906020012060028281548110610cd857610cd7611aee565b5b905f5260205f2001604051602001610cf09190611b9b565b6040516020818303038152906040528051906020012003610d935760026001600280549050610d1f9190611bde565b81548110610d3057610d2f611aee565b5b905f5260205f200160028281548110610d4c57610d4b611aee565b5b905f5260205f20019081610d609190611c38565b506002805480610d7357610d72611d1d565b5b600190038181905f5260205f20015f610d8c9190610ed3565b9055610da0565b8080600101915050610c90565b507f584fb2b00bcb43e608b5efabffaa6c6037e3f5fd1a3ec96ea172ada6056d617483604051610dd09190611256565b60405180910390a1505050565b60606002805480602002602001604051908101604052809291908181526020015f905b82821015610ea8578382905f5260205f20018054610e1d906116dc565b80601f0160208091040260200160405190810160405280929190818152602001828054610e49906116dc565b8015610e945780601f10610e6b57610100808354040283529160200191610e94565b820191905f5260205f20905b815481529060010190602001808311610e7757829003601f168201915b505050505081526020019060010190610e00565b50505050905090565b6040518060400160405280600290602082028036833780820191505090505090565b508054610edf906116dc565b5f825580601f10610ef05750610f0d565b601f0160209004905f5260205f2090810190610f0c9190610f10565b5b50565b5b80821115610f27575f815f905550600101610f11565b5090565b5f73ffffffffffffffffffffffffffffffffffffffff82169050919050565b5f610f5482610f2b565b9050919050565b610f6481610f4a565b82525050565b5f602082019050610f7d5f830184610f5b565b92915050565b5f604051905090565b5f80fd5b5f80fd5b5f80fd5b5f80fd5b5f601f19601f8301169050919050565b7f4e487b71000000000000000000000000000000000000000000000000000000005f52604160045260245ffd5b610fe282610f9c565b810181811067ffffffffffffffff8211171561100157611000610fac565b5b80604052505050565b5f611013610f83565b905061101f8282610fd9565b919050565b5f67ffffffffffffffff82111561103e5761103d610fac565b5b61104782610f9c565b9050602081019050919050565b828183375f83830152505050565b5f61107461106f84611024565b61100a565b9050828152602081018484840111156110905761108f610f98565b5b61109b848285611054565b509392505050565b5f82601f8301126110b7576110b6610f94565b5b81356110c7848260208601611062565b91505092915050565b6110d981610f4a565b81146110e3575f80fd5b50565b5f813590506110f4816110d0565b92915050565b5f8115159050919050565b61110e816110fa565b8114611118575f80fd5b50565b5f8135905061112981611105565b92915050565b5f805f806080858703121561114757611146610f8c565b5b5f85013567ffffffffffffffff81111561116457611163610f90565b5b611170878288016110a3565b9450506020611181878288016110e6565b93505060406111928782880161111b565b92505060606111a38782880161111b565b91505092959194509250565b5f602082840312156111c4576111c3610f8c565b5b5f82013567ffffffffffffffff8111156111e1576111e0610f90565b5b6111ed848285016110a3565b91505092915050565b5f81519050919050565b5f82825260208201905092915050565b8281835e5f83830152505050565b5f611228826111f6565b6112328185611200565b9350611242818560208601611210565b61124b81610f9c565b840191505092915050565b5f6020820190508181035f83015261126e818461121e565b905092915050565b5f806040838503121561128c5761128b610f8c565b5b5f83013567ffffffffffffffff8111156112a9576112a8610f90565b5b6112b5858286016110a3565b925050602083013567ffffffffffffffff8111156112d6576112d5610f90565b5b6112e2858286016110a3565b9150509250929050565b5f806040838503121561130257611301610f8c565b5b5f83013567ffffffffffffffff81111561131f5761131e610f90565b5b61132b858286016110a3565b925050602061133c858286016110e6565b9150509250929050565b5f60029050919050565b5f81905092915050565b5f819050919050565b61136c816110fa565b82525050565b5f61137d8383611363565b60208301905092915050565b5f602082019050919050565b61139e81611346565b6113a88184611350565b92506113b38261135a565b805f5b838110156113e35781516113ca8782611372565b96506113d583611389565b9250506001810190506113b6565b505050505050565b5f6040820190506113fe5f830184611395565b92915050565b5f81519050919050565b5f82825260208201905092915050565b5f819050602082019050919050565b5f82825260208201905092915050565b5f611447826111f6565b611451818561142d565b9350611461818560208601611210565b61146a81610f9c565b840191505092915050565b5f611480838361143d565b905092915050565b5f602082019050919050565b5f61149e82611404565b6114a8818561140e565b9350836020820285016114ba8561141e565b805f5b858110156114f557848403895281516114d68582611475565b94506114e183611488565b925060208a019950506001810190506114bd565b50829750879550505050505092915050565b5f6020820190508181035f83015261151f8184611494565b905092915050565b5f81905092915050565b5f61153b826111f6565b6115458185611527565b9350611555818560208601611210565b80840191505092915050565b5f61156c8284611531565b915081905092915050565b7f4e6f74207468652066696c652066696c654f776e6572000000000000000000005f82015250565b5f6115ab601683611200565b91506115b682611577565b602082019050919050565b5f6020820190508181035f8301526115d88161159f565b9050919050565b7f46696c6520646f6573206e6f74206578697374000000000000000000000000005f82015250565b5f611613601383611200565b915061161e826115df565b602082019050919050565b5f6020820190508181035f83015261164081611607565b9050919050565b7f4e6f2072656164206163636573730000000000000000000000000000000000005f82015250565b5f61167b600e83611200565b915061168682611647565b602082019050919050565b5f6020820190508181035f8301526116a88161166f565b9050919050565b7f4e487b71000000000000000000000000000000000000000000000000000000005f52602260045260245ffd5b5f60028204905060018216806116f357607f821691505b602082108103611706576117056116af565b5b50919050565b7f4e6f2077726974652061636365737300000000000000000000000000000000005f82015250565b5f611740600f83611200565b915061174b8261170c565b602082019050919050565b5f6020820190508181035f83015261176d81611734565b9050919050565b5f819050815f5260205f209050919050565b5f6020601f8301049050919050565b5f82821b905092915050565b5f600883026117d07fffffffffffffffffffffffffffffffffffffffffffffffffffffffffffffffff82611795565b6117da8683611795565b95508019841693508086168417925050509392505050565b5f819050919050565b5f819050919050565b5f61181e611819611814846117f2565b6117fb565b6117f2565b9050919050565b5f819050919050565b61183783611804565b61184b61184382611825565b8484546117a1565b825550505050565b5f90565b61185f611853565b61186a81848461182e565b505050565b5b8181101561188d576118825f82611857565b600181019050611870565b5050565b601f8211156118d2576118a381611774565b6118ac84611786565b810160208510156118bb578190505b6118cf6118c785611786565b83018261186f565b50505b505050565b5f82821c905092915050565b5f6118f25f19846008026118d7565b1980831691505092915050565b5f61190a83836118e3565b9150826002028217905092915050565b611923826111f6565b67ffffffffffffffff81111561193c5761193b610fac565b5b61194682546116dc565b611951828285611891565b5f60209050601f831160018114611982575f8415611970578287015190505b61197a85826118ff565b8655506119e1565b601f19841661199086611774565b5f5b828110156119b757848901518255600182019150602085019450602081019050611992565b868310156119d457848901516119d0601f8916826118e3565b8355505b6001600288020188555050505b505050505050565b5f6040820190508181035f830152611a01818561121e565b90508181036020830152611a15818461121e565b90509392505050565b7f46696c656e616d652063616e6e6f7420626520656d70747900000000000000005f82015250565b5f611a52601883611200565b9150611a5d82611a1e565b602082019050919050565b5f6020820190508181035f830152611a7f81611a46565b9050919050565b7f46696c6520616c726561647920657869737473000000000000000000000000005f82015250565b5f611aba601383611200565b9150611ac582611a86565b602082019050919050565b5f6020820190508181035f830152611ae781611aae565b9050919050565b7f4e487b71000000000000000000000000000000000000000000000000000000005f52603260045260245ffd5b5f8154611b27816116dc565b611b318186611527565b9450600182165f8114611b4b5760018114611b6057611b92565b60ff1983168652811515820286019350611b92565b611b6985611774565b5f5b83811015611b8a57815481890152600182019150602081019050611b6b565b838801955050505b50505092915050565b5f611ba68284611b1b565b915081905092915050565b7f4e487b71000000000000000000000000000000000000000000000000000000005f52601160045260245ffd5b5f611be8826117f2565b9150611bf3836117f2565b9250828203905081811115611c0b57611c0a611bb1565b5b92915050565b5f81549050611c1f816116dc565b9050919050565b5f819050815f5260205f209050919050565b818103611c46575050611d1b565b611c4f82611c11565b67ffffffffffffffff811115611c6857611c67610fac565b5b611c7282546116dc565b611c7d828285611891565b5f601f831160018114611caa575f8415611c98578287015490505b611ca285826118ff565b865550611d14565b601f198416611cb887611c26565b9650611cc386611774565b5f5b82811015611cea57848901548255600182019150600185019450602081019050611cc5565b86831015611d075784890154611d03601f8916826118e3565b8355505b6001600288020188555050505b5050505050505b565b7f4e487b71000000000000000000000000000000000000000000000000000000005f52603160045260245ffdfea2646970667358221220848ef8ed2d7b2fdce7dfc5c67e69e49527c8504e183410ee9155dc9480233fa264736f6c634300081a0033",
					"opcodes": "PUSH1 0x80 PUSH1 0x40 MSTORE CALLVALUE DUP1 ISZERO PUSH1 0xE JUMPI PUSH0 DUP1 REVERT JUMPDEST POP CALLER PUSH0 DUP1 PUSH2 0x100 EXP DUP2 SLOAD DUP2 PUSH20 0xFFFFFFFFFFFFFFFFFFFFFFFFFFFFFFFFFFFFFFFF MUL NOT AND SWAP1 DUP4 PUSH20 0xFFFFFFFFFFFFFFFFFFFFFFFFFFFFFFFFFFFFFFFF AND MUL OR SWAP1 SSTORE POP PUSH2 0x1D80 DUP1 PUSH2 0x5B PUSH0 CODECOPY PUSH0 RETURN INVALID PUSH1 0x80 PUSH1 0x40 MSTORE CALLVALUE DUP1 ISZERO PUSH2 0xF JUMPI PUSH0 DUP1 REVERT JUMPDEST POP PUSH1 0x4 CALLDATASIZE LT PUSH2 0x86 JUMPI PUSH0 CALLDATALOAD PUSH1 0xE0 SHR DUP1 PUSH4 0x7D41216D GT PUSH2 0x59 JUMPI DUP1 PUSH4 0x7D41216D EQ PUSH2 0x110 JUMPI DUP1 PUSH4 0x81AD193A EQ PUSH2 0x140 JUMPI DUP1 PUSH4 0xA9910054 EQ PUSH2 0x15C JUMPI DUP1 PUSH4 0xBAC87FE0 EQ PUSH2 0x178 JUMPI PUSH2 0x86 JUMP JUMPDEST DUP1 PUSH4 0xFC715C3 EQ PUSH2 0x8A JUMPI DUP1 PUSH4 0x5A5CBC85 EQ PUSH2 0xA8 JUMPI DUP1 PUSH4 0x60F9BB11 EQ PUSH2 0xC4 JUMPI DUP1 PUSH4 0x67E51090 EQ PUSH2 0xF4 JUMPI JUMPDEST PUSH0 DUP1 REVERT JUMPDEST PUSH2 0x92 PUSH2 0x196 JUMP JUMPDEST PUSH1 0x40 MLOAD PUSH2 0x9F SWAP2 SWAP1 PUSH2 0xF6A JUMP JUMPDEST PUSH1 0x40 MLOAD DUP1 SWAP2 SUB SWAP1 RETURN JUMPDEST PUSH2 0xC2 PUSH1 0x4 DUP1 CALLDATASIZE SUB DUP2 ADD SWAP1 PUSH2 0xBD SWAP2 SWAP1 PUSH2 0x112F JUMP JUMPDEST PUSH2 0x1B9 JUMP JUMPDEST STOP JUMPDEST PUSH2 0xDE PUSH1 0x4 DUP1 CALLDATASIZE SUB DUP2 ADD SWAP1 PUSH2 0xD9 SWAP2 SWAP1 PUSH2 0x11AF JUMP JUMPDEST PUSH2 0x3C5 JUMP JUMPDEST PUSH1 0x40 MLOAD PUSH2 0xEB SWAP2 SWAP1 PUSH2 0x1256 JUMP JUMPDEST PUSH1 0x40 MLOAD DUP1 SWAP2 SUB SWAP1 RETURN JUMPDEST PUSH2 0x10E PUSH1 0x4 DUP1 CALLDATASIZE SUB DUP2 ADD SWAP1 PUSH2 0x109 SWAP2 SWAP1 PUSH2 0x1276 JUMP JUMPDEST PUSH2 0x58D JUMP JUMPDEST STOP JUMPDEST PUSH2 0x12A PUSH1 0x4 DUP1 CALLDATASIZE SUB DUP2 ADD SWAP1 PUSH2 0x125 SWAP2 SWAP1 PUSH2 0x12EC JUMP JUMPDEST PUSH2 0x710 JUMP JUMPDEST PUSH1 0x40 MLOAD PUSH2 0x137 SWAP2 SWAP1 PUSH2 0x13EB JUMP JUMPDEST PUSH1 0x40 MLOAD DUP1 SWAP2 SUB SWAP1 RETURN JUMPDEST PUSH2 0x15A PUSH1 0x4 DUP1 CALLDATASIZE SUB DUP2 ADD SWAP1 PUSH2 0x155 SWAP2 SWAP1 PUSH2 0x1276 JUMP JUMPDEST PUSH2 0x886 JUMP JUMPDEST STOP JUMPDEST PUSH2 0x176 PUSH1 0x4 DUP1 CALLDATASIZE SUB DUP2 ADD SWAP1 PUSH2 0x171 SWAP2 SWAP1 PUSH2 0x11AF JUMP JUMPDEST PUSH2 0xAF8 JUMP JUMPDEST STOP JUMPDEST PUSH2 0x180 PUSH2 0xDDD JUMP JUMPDEST PUSH1 0x40 MLOAD PUSH2 0x18D SWAP2 SWAP1 PUSH2 0x1507 JUMP JUMPDEST PUSH1 0x40 MLOAD DUP1 SWAP2 SUB SWAP1 RETURN JUMPDEST PUSH0 DUP1 SLOAD SWAP1 PUSH2 0x100 EXP SWAP1 DIV PUSH20 0xFFFFFFFFFFFFFFFFFFFFFFFFFFFFFFFFFFFFFFFF AND DUP2 JUMP JUMPDEST DUP4 PUSH1 0x1 DUP2 PUSH1 0x40 MLOAD PUSH2 0x1CA SWAP2 SWAP1 PUSH2 0x1561 JUMP JUMPDEST SWAP1 DUP2 MSTORE PUSH1 0x20 ADD PUSH1 0x40 MLOAD DUP1 SWAP2 SUB SWAP1 KECCAK256 PUSH1 0x2 ADD PUSH1 0x1 SWAP1 SLOAD SWAP1 PUSH2 0x100 EXP SWAP1 DIV PUSH20 0xFFFFFFFFFFFFFFFFFFFFFFFFFFFFFFFFFFFFFFFF AND PUSH20 0xFFFFFFFFFFFFFFFFFFFFFFFFFFFFFFFFFFFFFFFF AND CALLER PUSH20 0xFFFFFFFFFFFFFFFFFFFFFFFFFFFFFFFFFFFFFFFF AND EQ PUSH2 0x269 JUMPI PUSH1 0x40 MLOAD PUSH32 0x8C379A000000000000000000000000000000000000000000000000000000000 DUP2 MSTORE PUSH1 0x4 ADD PUSH2 0x260 SWAP1 PUSH2 0x15C1 JUMP JUMPDEST PUSH1 0x40 MLOAD DUP1 SWAP2 SUB SWAP1 REVERT JUMPDEST DUP5 PUSH1 0x1 DUP2 PUSH1 0x40 MLOAD PUSH2 0x27A SWAP2 SWAP1 PUSH2 0x1561 JUMP JUMPDEST SWAP1 DUP2 MSTORE PUSH1 0x20 ADD PUSH1 0x40 MLOAD DUP1 SWAP2 SUB SWAP1 KECCAK256 PUSH1 0x2 ADD PUSH0 SWAP1 SLOAD SWAP1 PUSH2 0x100 EXP SWAP1 DIV PUSH1 0xFF AND PUSH2 0x2D7 JUMPI PUSH1 0x40 MLOAD PUSH32 0x8C379A000000000000000000000000000000000000000000000000000000000 DUP2 MSTORE PUSH1 0x4 ADD PUSH2 0x2CE SWAP1 PUSH2 0x1629 JUMP JUMPDEST PUSH1 0x40 MLOAD DUP1 SWAP2 SUB SWAP1 REVERT JUMPDEST DUP4 PUSH1 0x1 DUP8 PUSH1 0x40 MLOAD PUSH2 0x2E8 SWAP2 SWAP1 PUSH2 0x1561 JUMP JUMPDEST SWAP1 DUP2 MSTORE PUSH1 0x20 ADD PUSH1 0x40 MLOAD DUP1 SWAP2 SUB SWAP1 KECCAK256 PUSH1 0x3 ADD PUSH0 DUP8 PUSH20 0xFFFFFFFFFFFFFFFFFFFFFFFFFFFFFFFFFFFFFFFF AND PUSH20 0xFFFFFFFFFFFFFFFFFFFFFFFFFFFFFFFFFFFFFFFF AND DUP2 MSTORE PUSH1 0x20 ADD SWAP1 DUP2 MSTORE PUSH1 0x20 ADD PUSH0 KECCAK256 PUSH0 PUSH2 0x100 EXP DUP2 SLOAD DUP2 PUSH1 0xFF MUL NOT AND SWAP1 DUP4 ISZERO ISZERO MUL OR SWAP1 SSTORE POP DUP3 PUSH1 0x1 DUP8 PUSH1 0x40 MLOAD PUSH2 0x35B SWAP2 SWAP1 PUSH2 0x1561 JUMP JUMPDEST SWAP1 DUP2 MSTORE PUSH1 0x20 ADD PUSH1 0x40 MLOAD DUP1 SWAP2 SUB SWAP1 KECCAK256 PUSH1 0x4 ADD PUSH0 DUP8 PUSH20 0xFFFFFFFFFFFFFFFFFFFFFFFFFFFFFFFFFFFFFFFF AND PUSH20 0xFFFFFFFFFFFFFFFFFFFFFFFFFFFFFFFFFFFFFFFF AND DUP2 MSTORE PUSH1 0x20 ADD SWAP1 DUP2 MSTORE PUSH1 0x20 ADD PUSH0 KECCAK256 PUSH0 PUSH2 0x100 EXP DUP2 SLOAD DUP2 PUSH1 0xFF MUL NOT AND SWAP1 DUP4 ISZERO ISZERO MUL OR SWAP1 SSTORE POP POP POP POP POP POP POP JUMP JUMPDEST PUSH1 0x60 DUP2 PUSH1 0x1 DUP2 PUSH1 0x40 MLOAD PUSH2 0x3D8 SWAP2 SWAP1 PUSH2 0x1561 JUMP JUMPDEST SWAP1 DUP2 MSTORE PUSH1 0x20 ADD PUSH1 0x40 MLOAD DUP1 SWAP2 SUB SWAP1 KECCAK256 PUSH1 0x2 ADD PUSH0 SWAP1 SLOAD SWAP1 PUSH2 0x100 EXP SWAP1 DIV PUSH1 0xFF AND PUSH2 0x435 JUMPI PUSH1 0x40 MLOAD PUSH32 0x8C379A000000000000000000000000000000000000000000000000000000000 DUP2 MSTORE PUSH1 0x4 ADD PUSH2 0x42C SWAP1 PUSH2 0x1629 JUMP JUMPDEST PUSH1 0x40 MLOAD DUP1 SWAP2 SUB SWAP1 REVERT JUMPDEST PUSH1 0x1 DUP4 PUSH1 0x40 MLOAD PUSH2 0x445 SWAP2 SWAP1 PUSH2 0x1561 JUMP JUMPDEST SWAP1 DUP2 MSTORE PUSH1 0x20 ADD PUSH1 0x40 MLOAD DUP1 SWAP2 SUB SWAP1 KECCAK256 PUSH1 0x3 ADD PUSH0 CALLER PUSH20 0xFFFFFFFFFFFFFFFFFFFFFFFFFFFFFFFFFFFFFFFF AND PUSH20 0xFFFFFFFFFFFFFFFFFFFFFFFFFFFFFFFFFFFFFFFF AND DUP2 MSTORE PUSH1 0x20 ADD SWAP1 DUP2 MSTORE PUSH1 0x20 ADD PUSH0 KECCAK256 PUSH0 SWAP1 SLOAD SWAP1 PUSH2 0x100 EXP SWAP1 DIV PUSH1 0xFF AND PUSH2 0x4DD JUMPI PUSH1 0x40 MLOAD PUSH32 0x8C379A000000000000000000000000000000000000000000000000000000000 DUP2 MSTORE PUSH1 0x4 ADD PUSH2 0x4D4 SWAP1 PUSH2 0x1691 JUMP JUMPDEST PUSH1 0x40 MLOAD DUP1 SWAP2 SUB SWAP1 REVERT JUMPDEST PUSH1 0x1 DUP4 PUSH1 0x40 MLOAD PUSH2 0x4ED SWAP2 SWAP1 PUSH2 0x1561 JUMP JUMPDEST SWAP1 DUP2 MSTORE PUSH1 0x20 ADD PUSH1 0x40 MLOAD DUP1 SWAP2 SUB SWAP1 KECCAK256 PUSH1 0x1 ADD DUP1 SLOAD PUSH2 0x509 SWAP1 PUSH2 0x16DC JUMP JUMPDEST DUP1 PUSH1 0x1F ADD PUSH1 0x20 DUP1 SWAP2 DIV MUL PUSH1 0x20 ADD PUSH1 0x40 MLOAD SWAP1 DUP2 ADD PUSH1 0x40 MSTORE DUP1 SWAP3 SWAP2 SWAP1 DUP2 DUP2 MSTORE PUSH1 0x20 ADD DUP3 DUP1 SLOAD PUSH2 0x535 SWAP1 PUSH2 0x16DC JUMP JUMPDEST DUP1 ISZERO PUSH2 0x580 JUMPI DUP1 PUSH1 0x1F LT PUSH2 0x557 JUMPI PUSH2 0x100 DUP1 DUP4 SLOAD DIV MUL DUP4 MSTORE SWAP2 PUSH1 0x20 ADD SWAP2 PUSH2 0x580 JUMP JUMPDEST DUP3 ADD SWAP2 SWAP1 PUSH0 MSTORE PUSH1 0x20 PUSH0 KECCAK256 SWAP1 JUMPDEST DUP2 SLOAD DUP2 MSTORE SWAP1 PUSH1 0x1 ADD SWAP1 PUSH1 0x20 ADD DUP1 DUP4 GT PUSH2 0x563 JUMPI DUP3 SWAP1 SUB PUSH1 0x1F AND DUP3 ADD SWAP2 JUMPDEST POP POP POP POP POP SWAP2 POP POP SWAP2 SWAP1 POP JUMP JUMPDEST DUP2 PUSH1 0x1 DUP2 PUSH1 0x40 MLOAD PUSH2 0x59E SWAP2 SWAP1 PUSH2 0x1561 JUMP JUMPDEST SWAP1 DUP2 MSTORE PUSH1 0x20 ADD PUSH1 0x40 MLOAD DUP1 SWAP2 SUB SWAP1 KECCAK256 PUSH1 0x2 ADD PUSH0 SWAP1 SLOAD SWAP1 PUSH2 0x100 EXP SWAP1 DIV PUSH1 0xFF AND PUSH2 0x5FB JUMPI PUSH1 0x40 MLOAD PUSH32 0x8C379A000000000000000000000000000000000000000000000000000000000 DUP2 MSTORE PUSH1 0x4 ADD PUSH2 0x5F2 SWAP1 PUSH2 0x1629 JUMP JUMPDEST PUSH1 0x40 MLOAD DUP1 SWAP2 SUB SWAP1 REVERT JUMPDEST PUSH1 0x1 DUP4 PUSH1 0x40 MLOAD PUSH2 0x60B SWAP2 SWAP1 PUSH2 0x1561 JUMP JUMPDEST SWAP1 DUP2 MSTORE PUSH1 0x20 ADD PUSH1 0x40 MLOAD DUP1 SWAP2 SUB SWAP1 KECCAK256 PUSH1 0x4 ADD PUSH0 CALLER PUSH20 0xFFFFFFFFFFFFFFFFFFFFFFFFFFFFFFFFFFFFFFFF AND PUSH20 0xFFFFFFFFFFFFFFFFFFFFFFFFFFFFFFFFFFFFFFFF AND DUP2 MSTORE PUSH1 0x20 ADD SWAP1 DUP2 MSTORE PUSH1 0x20 ADD PUSH0 KECCAK256 PUSH0 SWAP1 SLOAD SWAP1 PUSH2 0x100 EXP SWAP1 DIV PUSH1 0xFF AND PUSH2 0x6A3 JUMPI PUSH1 0x40 MLOAD PUSH32 0x8C379A000000000000000000000000000000000000000000000000000000000 DUP2 MSTORE PUSH1 0x4 ADD PUSH2 0x69A SWAP1 PUSH2 0x1756 JUMP JUMPDEST PUSH1 0x40 MLOAD DUP1 SWAP2 SUB SWAP1 REVERT JUMPDEST DUP2 PUSH1 0x1 DUP5 PUSH1 0x40 MLOAD PUSH2 0x6B4 SWAP2 SWAP1 PUSH2 0x1561 JUMP JUMPDEST SWAP1 DUP2 MSTORE PUSH1 0x20 ADD PUSH1 0x40 MLOAD DUP1 SWAP2 SUB SWAP1 KECCAK256 PUSH1 0x1 ADD SWAP1 DUP2 PUSH2 0x6D1 SWAP2 SWAP1 PUSH2 0x191A JUMP JUMPDEST POP PUSH32 0x68CDB7BAB964C149FBEF46E8E67FEE59FDD6C0BA1A2229D362D8AB5AB3705F97 DUP4 DUP4 PUSH1 0x40 MLOAD PUSH2 0x703 SWAP3 SWAP2 SWAP1 PUSH2 0x19E9 JUMP JUMPDEST PUSH1 0x40 MLOAD DUP1 SWAP2 SUB SWAP1 LOG1 POP POP POP JUMP JUMPDEST PUSH2 0x718 PUSH2 0xEB1 JUMP JUMPDEST DUP3 PUSH1 0x1 DUP2 PUSH1 0x40 MLOAD PUSH2 0x729 SWAP2 SWAP1 PUSH2 0x1561 JUMP JUMPDEST SWAP1 DUP2 MSTORE PUSH1 0x20 ADD PUSH1 0x40 MLOAD DUP1 SWAP2 SUB SWAP1 KECCAK256 PUSH1 0x2 ADD PUSH0 SWAP1 SLOAD SWAP1 PUSH2 0x100 EXP SWAP1 DIV PUSH1 0xFF AND PUSH2 0x786 JUMPI PUSH1 0x40 MLOAD PUSH32 0x8C379A000000000000000000000000000000000000000000000000000000000 DUP2 MSTORE PUSH1 0x4 ADD PUSH2 0x77D SWAP1 PUSH2 0x1629 JUMP JUMPDEST PUSH1 0x40 MLOAD DUP1 SWAP2 SUB SWAP1 REVERT JUMPDEST PUSH0 PUSH1 0x1 DUP6 PUSH1 0x40 MLOAD PUSH2 0x797 SWAP2 SWAP1 PUSH2 0x1561 JUMP JUMPDEST SWAP1 DUP2 MSTORE PUSH1 0x20 ADD PUSH1 0x40 MLOAD DUP1 SWAP2 SUB SWAP1 KECCAK256 PUSH1 0x3 ADD PUSH0 DUP6 PUSH20 0xFFFFFFFFFFFFFFFFFFFFFFFFFFFFFFFFFFFFFFFF AND PUSH20 0xFFFFFFFFFFFFFFFFFFFFFFFFFFFFFFFFFFFFFFFF AND DUP2 MSTORE PUSH1 0x20 ADD SWAP1 DUP2 MSTORE PUSH1 0x20 ADD PUSH0 KECCAK256 PUSH0 SWAP1 SLOAD SWAP1 PUSH2 0x100 EXP SWAP1 DIV PUSH1 0xFF AND SWAP1 POP PUSH0 PUSH1 0x1 DUP7 PUSH1 0x40 MLOAD PUSH2 0x803 SWAP2 SWAP1 PUSH2 0x1561 JUMP JUMPDEST SWAP1 DUP2 MSTORE PUSH1 0x20 ADD PUSH1 0x40 MLOAD DUP1 SWAP2 SUB SWAP1 KECCAK256 PUSH1 0x4 ADD PUSH0 DUP7 PUSH20 0xFFFFFFFFFFFFFFFFFFFFFFFFFFFFFFFFFFFFFFFF AND PUSH20 0xFFFFFFFFFFFFFFFFFFFFFFFFFFFFFFFFFFFFFFFF AND DUP2 MSTORE PUSH1 0x20 ADD SWAP1 DUP2 MSTORE PUSH1 0x20 ADD PUSH0 KECCAK256 PUSH0 SWAP1 SLOAD SWAP1 PUSH2 0x100 EXP SWAP1 DIV PUSH1 0xFF AND SWAP1 POP PUSH1 0x40 MLOAD DUP1 PUSH1 0x40 ADD PUSH1 0x40 MSTORE DUP1 DUP4 ISZERO ISZERO ISZERO ISZERO DUP2 MSTORE PUSH1 0x20 ADD DUP3 ISZERO ISZERO ISZERO ISZERO DUP2 MSTORE POP SWAP4 POP POP POP POP SWAP3 SWAP2 POP POP JUMP JUMPDEST PUSH0 DUP3 MLOAD GT PUSH2 0x8C9 JUMPI PUSH1 0x40 MLOAD PUSH32 0x8C379A000000000000000000000000000000000000000000000000000000000 DUP2 MSTORE PUSH1 0x4 ADD PUSH2 0x8C0 SWAP1 PUSH2 0x1A68 JUMP JUMPDEST PUSH1 0x40 MLOAD DUP1 SWAP2 SUB SWAP1 REVERT JUMPDEST PUSH1 0x1 DUP3 PUSH1 0x40 MLOAD PUSH2 0x8D9 SWAP2 SWAP1 PUSH2 0x1561 JUMP JUMPDEST SWAP1 DUP2 MSTORE PUSH1 0x20 ADD PUSH1 0x40 MLOAD DUP1 SWAP2 SUB SWAP1 KECCAK256 PUSH1 0x2 ADD PUSH0 SWAP1 SLOAD SWAP1 PUSH2 0x100 EXP SWAP1 DIV PUSH1 0xFF AND ISZERO PUSH2 0x937 JUMPI PUSH1 0x40 MLOAD PUSH32 0x8C379A000000000000000000000000000000000000000000000000000000000 DUP2 MSTORE PUSH1 0x4 ADD PUSH2 0x92E SWAP1 PUSH2 0x1AD0 JUMP JUMPDEST PUSH1 0x40 MLOAD DUP1 SWAP2 SUB SWAP1 REVERT JUMPDEST PUSH0 PUSH1 0x1 DUP4 PUSH1 0x40 MLOAD PUSH2 0x948 SWAP2 SWAP1 PUSH2 0x1561 JUMP JUMPDEST SWAP1 DUP2 MSTORE PUSH1 0x20 ADD PUSH1 0x40 MLOAD DUP1 SWAP2 SUB SWAP1 KECCAK256 SWAP1 POP DUP3 DUP2 PUSH0 ADD SWAP1 DUP2 PUSH2 0x968 SWAP2 SWAP1 PUSH2 0x191A JUMP JUMPDEST POP DUP2 DUP2 PUSH1 0x1 ADD SWAP1 DUP2 PUSH2 0x97A SWAP2 SWAP1 PUSH2 0x191A JUMP JUMPDEST POP PUSH1 0x1 DUP2 PUSH1 0x2 ADD PUSH0 PUSH2 0x100 EXP DUP2 SLOAD DUP2 PUSH1 0xFF MUL NOT AND SWAP1 DUP4 ISZERO ISZERO MUL OR SWAP1 SSTORE POP CALLER DUP2 PUSH1 0x2 ADD PUSH1 0x1 PUSH2 0x100 EXP DUP2 SLOAD DUP2 PUSH20 0xFFFFFFFFFFFFFFFFFFFFFFFFFFFFFFFFFFFFFFFF MUL NOT AND SWAP1 DUP4 PUSH20 0xFFFFFFFFFFFFFFFFFFFFFFFFFFFFFFFFFFFFFFFF AND MUL OR SWAP1 SSTORE POP PUSH1 0x1 DUP2 PUSH1 0x3 ADD PUSH0 CALLER PUSH20 0xFFFFFFFFFFFFFFFFFFFFFFFFFFFFFFFFFFFFFFFF AND PUSH20 0xFFFFFFFFFFFFFFFFFFFFFFFFFFFFFFFFFFFFFFFF AND DUP2 MSTORE PUSH1 0x20 ADD SWAP1 DUP2 MSTORE PUSH1 0x20 ADD PUSH0 KECCAK256 PUSH0 PUSH2 0x100 EXP DUP2 SLOAD DUP2 PUSH1 0xFF MUL NOT AND SWAP1 DUP4 ISZERO ISZERO MUL OR SWAP1 SSTORE POP PUSH1 0x1 DUP2 PUSH1 0x4 ADD PUSH0 CALLER PUSH20 0xFFFFFFFFFFFFFFFFFFFFFFFFFFFFFFFFFFFFFFFF AND PUSH20 0xFFFFFFFFFFFFFFFFFFFFFFFFFFFFFFFFFFFFFFFF AND DUP2 MSTORE PUSH1 0x20 ADD SWAP1 DUP2 MSTORE PUSH1 0x20 ADD PUSH0 KECCAK256 PUSH0 PUSH2 0x100 EXP DUP2 SLOAD DUP2 PUSH1 0xFF MUL NOT AND SWAP1 DUP4 ISZERO ISZERO MUL OR SWAP1 SSTORE POP PUSH1 0x2 DUP4 SWAP1 DUP1 PUSH1 0x1 DUP2 SLOAD ADD DUP1 DUP3 SSTORE DUP1 SWAP2 POP POP PUSH1 0x1 SWAP1 SUB SWAP1 PUSH0 MSTORE PUSH1 0x20 PUSH0 KECCAK256 ADD PUSH0 SWAP1 SWAP2 SWAP1 SWAP2 SWAP1 SWAP2 POP SWAP1 DUP2 PUSH2 0xAB9 SWAP2 SWAP1 PUSH2 0x191A JUMP JUMPDEST POP PUSH32 0x74FDEB27B6331DF438C50B6327D3B7D950C83000CA1FAFB3BC9834E3EC2C7EF3 DUP4 DUP4 PUSH1 0x40 MLOAD PUSH2 0xAEB SWAP3 SWAP2 SWAP1 PUSH2 0x19E9 JUMP JUMPDEST PUSH1 0x40 MLOAD DUP1 SWAP2 SUB SWAP1 LOG1 POP POP POP JUMP JUMPDEST DUP1 PUSH1 0x1 DUP2 PUSH1 0x40 MLOAD PUSH2 0xB09 SWAP2 SWAP1 PUSH2 0x1561 JUMP JUMPDEST SWAP1 DUP2 MSTORE PUSH1 0x20 ADD PUSH1 0x40 MLOAD DUP1 SWAP2 SUB SWAP1 KECCAK256 PUSH1 0x2 ADD PUSH1 0x1 SWAP1 SLOAD SWAP1 PUSH2 0x100 EXP SWAP1 DIV PUSH20 0xFFFFFFFFFFFFFFFFFFFFFFFFFFFFFFFFFFFFFFFF AND PUSH20 0xFFFFFFFFFFFFFFFFFFFFFFFFFFFFFFFFFFFFFFFF AND CALLER PUSH20 0xFFFFFFFFFFFFFFFFFFFFFFFFFFFFFFFFFFFFFFFF AND EQ PUSH2 0xBA8 JUMPI PUSH1 0x40 MLOAD PUSH32 0x8C379A000000000000000000000000000000000000000000000000000000000 DUP2 MSTORE PUSH1 0x4 ADD PUSH2 0xB9F SWAP1 PUSH2 0x15C1 JUMP JUMPDEST PUSH1 0x40 MLOAD DUP1 SWAP2 SUB SWAP1 REVERT JUMPDEST DUP2 PUSH1 0x1 DUP2 PUSH1 0x40 MLOAD PUSH2 0xBB9 SWAP2 SWAP1 PUSH2 0x1561 JUMP JUMPDEST SWAP1 DUP2 MSTORE PUSH1 0x20 ADD PUSH1 0x40 MLOAD DUP1 SWAP2 SUB SWAP1 KECCAK256 PUSH1 0x2 ADD PUSH0 SWAP1 SLOAD SWAP1 PUSH2 0x100 EXP SWAP1 DIV PUSH1 0xFF AND PUSH2 0xC16 JUMPI PUSH1 0x40 MLOAD PUSH32 0x8C379A000000000000000000000000000000000000000000000000000000000 DUP2 MSTORE PUSH1 0x4 ADD PUSH2 0xC0D SWAP1 PUSH2 0x1629 JUMP JUMPDEST PUSH1 0x40 MLOAD DUP1 SWAP2 SUB SWAP1 REVERT JUMPDEST PUSH1 0x1 DUP4 PUSH1 0x40 MLOAD PUSH2 0xC26 SWAP2 SWAP1 PUSH2 0x1561 JUMP JUMPDEST SWAP1 DUP2 MSTORE PUSH1 0x20 ADD PUSH1 0x40 MLOAD DUP1 SWAP2 SUB SWAP1 KECCAK256 PUSH0 DUP1 DUP3 ADD PUSH0 PUSH2 0xC43 SWAP2 SWAP1 PUSH2 0xED3 JUMP JUMPDEST PUSH1 0x1 DUP3 ADD PUSH0 PUSH2 0xC52 SWAP2 SWAP1 PUSH2 0xED3 JUMP JUMPDEST PUSH1 0x2 DUP3 ADD PUSH0 PUSH2 0x100 EXP DUP2 SLOAD SWAP1 PUSH1 0xFF MUL NOT AND SWAP1 SSTORE PUSH1 0x2 DUP3 ADD PUSH1 0x1 PUSH2 0x100 EXP DUP2 SLOAD SWAP1 PUSH20 0xFFFFFFFFFFFFFFFFFFFFFFFFFFFFFFFFFFFFFFFF MUL NOT AND SWAP1 SSTORE POP POP PUSH0 JUMPDEST PUSH1 0x2 DUP1 SLOAD SWAP1 POP DUP2 LT ISZERO PUSH2 0xDA0 JUMPI DUP4 PUSH1 0x40 MLOAD PUSH1 0x20 ADD PUSH2 0xCAE SWAP2 SWAP1 PUSH2 0x1561 JUMP JUMPDEST PUSH1 0x40 MLOAD PUSH1 0x20 DUP2 DUP4 SUB SUB DUP2 MSTORE SWAP1 PUSH1 0x40 MSTORE DUP1 MLOAD SWAP1 PUSH1 0x20 ADD KECCAK256 PUSH1 0x2 DUP3 DUP2 SLOAD DUP2 LT PUSH2 0xCD8 JUMPI PUSH2 0xCD7 PUSH2 0x1AEE JUMP JUMPDEST JUMPDEST SWAP1 PUSH0 MSTORE PUSH1 0x20 PUSH0 KECCAK256 ADD PUSH1 0x40 MLOAD PUSH1 0x20 ADD PUSH2 0xCF0 SWAP2 SWAP1 PUSH2 0x1B9B JUMP JUMPDEST PUSH1 0x40 MLOAD PUSH1 0x20 DUP2 DUP4 SUB SUB DUP2 MSTORE SWAP1 PUSH1 0x40 MSTORE DUP1 MLOAD SWAP1 PUSH1 0x20 ADD KECCAK256 SUB PUSH2 0xD93 JUMPI PUSH1 0x2 PUSH1 0x1 PUSH1 0x2 DUP1 SLOAD SWAP1 POP PUSH2 0xD1F SWAP2 SWAP1 PUSH2 0x1BDE JUMP JUMPDEST DUP2 SLOAD DUP2 LT PUSH2 0xD30 JUMPI PUSH2 0xD2F PUSH2 0x1AEE JUMP JUMPDEST JUMPDEST SWAP1 PUSH0 MSTORE PUSH1 0x20 PUSH0 KECCAK256 ADD PUSH1 0x2 DUP3 DUP2 SLOAD DUP2 LT PUSH2 0xD4C JUMPI PUSH2 0xD4B PUSH2 0x1AEE JUMP JUMPDEST JUMPDEST SWAP1 PUSH0 MSTORE PUSH1 0x20 PUSH0 KECCAK256 ADD SWAP1 DUP2 PUSH2 0xD60 SWAP2 SWAP1 PUSH2 0x1C38 JUMP JUMPDEST POP PUSH1 0x2 DUP1 SLOAD DUP1 PUSH2 0xD73 JUMPI PUSH2 0xD72 PUSH2 0x1D1D JUMP JUMPDEST JUMPDEST PUSH1 0x1 SWAP1 SUB DUP2 DUP2 SWAP1 PUSH0 MSTORE PUSH1 0x20 PUSH0 KECCAK256 ADD PUSH0 PUSH2 0xD8C SWAP2 SWAP1 PUSH2 0xED3 JUMP JUMPDEST SWAP1 SSTORE PUSH2 0xDA0 JUMP JUMPDEST DUP1 DUP1 PUSH1 0x1 ADD SWAP2 POP POP PUSH2 0xC90 JUMP JUMPDEST POP PUSH32 0x584FB2B00BCB43E608B5EFABFFAA6C6037E3F5FD1A3EC96EA172ADA6056D6174 DUP4 PUSH1 0x40 MLOAD PUSH2 0xDD0 SWAP2 SWAP1 PUSH2 0x1256 JUMP JUMPDEST PUSH1 0x40 MLOAD DUP1 SWAP2 SUB SWAP1 LOG1 POP POP POP JUMP JUMPDEST PUSH1 0x60 PUSH1 0x2 DUP1 SLOAD DUP1 PUSH1 0x20 MUL PUSH1 0x20 ADD PUSH1 0x40 MLOAD SWAP1 DUP2 ADD PUSH1 0x40 MSTORE DUP1 SWAP3 SWAP2 SWAP1 DUP2 DUP2 MSTORE PUSH1 0x20 ADD PUSH0 SWAP1 JUMPDEST DUP3 DUP3 LT ISZERO PUSH2 0xEA8 JUMPI DUP4 DUP3 SWAP1 PUSH0 MSTORE PUSH1 0x20 PUSH0 KECCAK256 ADD DUP1 SLOAD PUSH2 0xE1D SWAP1 PUSH2 0x16DC JUMP JUMPDEST DUP1 PUSH1 0x1F ADD PUSH1 0x20 DUP1 SWAP2 DIV MUL PUSH1 0x20 ADD PUSH1 0x40 MLOAD SWAP1 DUP2 ADD PUSH1 0x40 MSTORE DUP1 SWAP3 SWAP2 SWAP1 DUP2 DUP2 MSTORE PUSH1 0x20 ADD DUP3 DUP1 SLOAD PUSH2 0xE49 SWAP1 PUSH2 0x16DC JUMP JUMPDEST DUP1 ISZERO PUSH2 0xE94 JUMPI DUP1 PUSH1 0x1F LT PUSH2 0xE6B JUMPI PUSH2 0x100 DUP1 DUP4 SLOAD DIV MUL DUP4 MSTORE SWAP2 PUSH1 0x20 ADD SWAP2 PUSH2 0xE94 JUMP JUMPDEST DUP3 ADD SWAP2 SWAP1 PUSH0 MSTORE PUSH1 0x20 PUSH0 KECCAK256 SWAP1 JUMPDEST DUP2 SLOAD DUP2 MSTORE SWAP1 PUSH1 0x1 ADD SWAP1 PUSH1 0x20 ADD DUP1 DUP4 GT PUSH2 0xE77 JUMPI DUP3 SWAP1 SUB PUSH1 0x1F AND DUP3 ADD SWAP2 JUMPDEST POP POP POP POP POP DUP2 MSTORE PUSH1 0x20 ADD SWAP1 PUSH1 0x1 ADD SWAP1 PUSH2 0xE00 JUMP JUMPDEST POP POP POP POP SWAP1 POP SWAP1 JUMP JUMPDEST PUSH1 0x40 MLOAD DUP1 PUSH1 0x40 ADD PUSH1 0x40 MSTORE DUP1 PUSH1 0x2 SWAP1 PUSH1 0x20 DUP3 MUL DUP1 CALLDATASIZE DUP4 CALLDATACOPY DUP1 DUP3 ADD SWAP2 POP POP SWAP1 POP POP SWAP1 JUMP JUMPDEST POP DUP1 SLOAD PUSH2 0xEDF SWAP1 PUSH2 0x16DC JUMP JUMPDEST PUSH0 DUP3 SSTORE DUP1 PUSH1 0x1F LT PUSH2 0xEF0 JUMPI POP PUSH2 0xF0D JUMP JUMPDEST PUSH1 0x1F ADD PUSH1 0x20 SWAP1 DIV SWAP1 PUSH0 MSTORE PUSH1 0x20 PUSH0 KECCAK256 SWAP1 DUP2 ADD SWAP1 PUSH2 0xF0C SWAP2 SWAP1 PUSH2 0xF10 JUMP JUMPDEST JUMPDEST POP JUMP JUMPDEST JUMPDEST DUP1 DUP3 GT ISZERO PUSH2 0xF27 JUMPI PUSH0 DUP2 PUSH0 SWAP1 SSTORE POP PUSH1 0x1 ADD PUSH2 0xF11 JUMP JUMPDEST POP SWAP1 JUMP JUMPDEST PUSH0 PUSH20 0xFFFFFFFFFFFFFFFFFFFFFFFFFFFFFFFFFFFFFFFF DUP3 AND SWAP1 POP SWAP2 SWAP1 POP JUMP JUMPDEST PUSH0 PUSH2 0xF54 DUP3 PUSH2 0xF2B JUMP JUMPDEST SWAP1 POP SWAP2 SWAP1 POP JUMP JUMPDEST PUSH2 0xF64 DUP2 PUSH2 0xF4A JUMP JUMPDEST DUP3 MSTORE POP POP JUMP JUMPDEST PUSH0 PUSH1 0x20 DUP3 ADD SWAP1 POP PUSH2 0xF7D PUSH0 DUP4 ADD DUP5 PUSH2 0xF5B JUMP JUMPDEST SWAP3 SWAP2 POP POP JUMP JUMPDEST PUSH0 PUSH1 0x40 MLOAD SWAP1 POP SWAP1 JUMP JUMPDEST PUSH0 DUP1 REVERT JUMPDEST PUSH0 DUP1 REVERT JUMPDEST PUSH0 DUP1 REVERT JUMPDEST PUSH0 DUP1 REVERT JUMPDEST PUSH0 PUSH1 0x1F NOT PUSH1 0x1F DUP4 ADD AND SWAP1 POP SWAP2 SWAP1 POP JUMP JUMPDEST PUSH32 0x4E487B7100000000000000000000000000000000000000000000000000000000 PUSH0 MSTORE PUSH1 0x41 PUSH1 0x4 MSTORE PUSH1 0x24 PUSH0 REVERT JUMPDEST PUSH2 0xFE2 DUP3 PUSH2 0xF9C JUMP JUMPDEST DUP2 ADD DUP2 DUP2 LT PUSH8 0xFFFFFFFFFFFFFFFF DUP3 GT OR ISZERO PUSH2 0x1001 JUMPI PUSH2 0x1000 PUSH2 0xFAC JUMP JUMPDEST JUMPDEST DUP1 PUSH1 0x40 MSTORE POP POP POP JUMP JUMPDEST PUSH0 PUSH2 0x1013 PUSH2 0xF83 JUMP JUMPDEST SWAP1 POP PUSH2 0x101F DUP3 DUP3 PUSH2 0xFD9 JUMP JUMPDEST SWAP2 SWAP1 POP JUMP JUMPDEST PUSH0 PUSH8 0xFFFFFFFFFFFFFFFF DUP3 GT ISZERO PUSH2 0x103E JUMPI PUSH2 0x103D PUSH2 0xFAC JUMP JUMPDEST JUMPDEST PUSH2 0x1047 DUP3 PUSH2 0xF9C JUMP JUMPDEST SWAP1 POP PUSH1 0x20 DUP2 ADD SWAP1 POP SWAP2 SWAP1 POP JUMP JUMPDEST DUP3 DUP2 DUP4 CALLDATACOPY PUSH0 DUP4 DUP4 ADD MSTORE POP POP POP JUMP JUMPDEST PUSH0 PUSH2 0x1074 PUSH2 0x106F DUP5 PUSH2 0x1024 JUMP JUMPDEST PUSH2 0x100A JUMP JUMPDEST SWAP1 POP DUP3 DUP2 MSTORE PUSH1 0x20 DUP2 ADD DUP5 DUP5 DUP5 ADD GT ISZERO PUSH2 0x1090 JUMPI PUSH2 0x108F PUSH2 0xF98 JUMP JUMPDEST JUMPDEST PUSH2 0x109B DUP5 DUP3 DUP6 PUSH2 0x1054 JUMP JUMPDEST POP SWAP4 SWAP3 POP POP POP JUMP JUMPDEST PUSH0 DUP3 PUSH1 0x1F DUP4 ADD SLT PUSH2 0x10B7 JUMPI PUSH2 0x10B6 PUSH2 0xF94 JUMP JUMPDEST JUMPDEST DUP2 CALLDATALOAD PUSH2 0x10C7 DUP5 DUP3 PUSH1 0x20 DUP7 ADD PUSH2 0x1062 JUMP JUMPDEST SWAP2 POP POP SWAP3 SWAP2 POP POP JUMP JUMPDEST PUSH2 0x10D9 DUP2 PUSH2 0xF4A JUMP JUMPDEST DUP2 EQ PUSH2 0x10E3 JUMPI PUSH0 DUP1 REVERT JUMPDEST POP JUMP JUMPDEST PUSH0 DUP2 CALLDATALOAD SWAP1 POP PUSH2 0x10F4 DUP2 PUSH2 0x10D0 JUMP JUMPDEST SWAP3 SWAP2 POP POP JUMP JUMPDEST PUSH0 DUP2 ISZERO ISZERO SWAP1 POP SWAP2 SWAP1 POP JUMP JUMPDEST PUSH2 0x110E DUP2 PUSH2 0x10FA JUMP JUMPDEST DUP2 EQ PUSH2 0x1118 JUMPI PUSH0 DUP1 REVERT JUMPDEST POP JUMP JUMPDEST PUSH0 DUP2 CALLDATALOAD SWAP1 POP PUSH2 0x1129 DUP2 PUSH2 0x1105 JUMP JUMPDEST SWAP3 SWAP2 POP POP JUMP JUMPDEST PUSH0 DUP1 PUSH0 DUP1 PUSH1 0x80 DUP6 DUP8 SUB SLT ISZERO PUSH2 0x1147 JUMPI PUSH2 0x1146 PUSH2 0xF8C JUMP JUMPDEST JUMPDEST PUSH0 DUP6 ADD CALLDATALOAD PUSH8 0xFFFFFFFFFFFFFFFF DUP2 GT ISZERO PUSH2 0x1164 JUMPI PUSH2 0x1163 PUSH2 0xF90 JUMP JUMPDEST JUMPDEST PUSH2 0x1170 DUP8 DUP3 DUP9 ADD PUSH2 0x10A3 JUMP JUMPDEST SWAP5 POP POP PUSH1 0x20 PUSH2 0x1181 DUP8 DUP3 DUP9 ADD PUSH2 0x10E6 JUMP JUMPDEST SWAP4 POP POP PUSH1 0x40 PUSH2 0x1192 DUP8 DUP3 DUP9 ADD PUSH2 0x111B JUMP JUMPDEST SWAP3 POP POP PUSH1 0x60 PUSH2 0x11A3 DUP8 DUP3 DUP9 ADD PUSH2 0x111B JUMP JUMPDEST SWAP2 POP POP SWAP3 SWAP6 SWAP2 SWAP5 POP SWAP3 POP JUMP JUMPDEST PUSH0 PUSH1 0x20 DUP3 DUP5 SUB SLT ISZERO PUSH2 0x11C4 JUMPI PUSH2 0x11C3 PUSH2 0xF8C JUMP JUMPDEST JUMPDEST PUSH0 DUP3 ADD CALLDATALOAD PUSH8 0xFFFFFFFFFFFFFFFF DUP2 GT ISZERO PUSH2 0x11E1 JUMPI PUSH2 0x11E0 PUSH2 0xF90 JUMP JUMPDEST JUMPDEST PUSH2 0x11ED DUP5 DUP3 DUP6 ADD PUSH2 0x10A3 JUMP JUMPDEST SWAP2 POP POP SWAP3 SWAP2 POP POP JUMP JUMPDEST PUSH0 DUP2 MLOAD SWAP1 POP SWAP2 SWAP1 POP JUMP JUMPDEST PUSH0 DUP3 DUP3 MSTORE PUSH1 0x20 DUP3 ADD SWAP1 POP SWAP3 SWAP2 POP POP JUMP JUMPDEST DUP3 DUP2 DUP4 MCOPY PUSH0 DUP4 DUP4 ADD MSTORE POP POP POP JUMP JUMPDEST PUSH0 PUSH2 0x1228 DUP3 PUSH2 0x11F6 JUMP JUMPDEST PUSH2 0x1232 DUP2 DUP6 PUSH2 0x1200 JUMP JUMPDEST SWAP4 POP PUSH2 0x1242 DUP2 DUP6 PUSH1 0x20 DUP7 ADD PUSH2 0x1210 JUMP JUMPDEST PUSH2 0x124B DUP2 PUSH2 0xF9C JUMP JUMPDEST DUP5 ADD SWAP2 POP POP SWAP3 SWAP2 POP POP JUMP JUMPDEST PUSH0 PUSH1 0x20 DUP3 ADD SWAP1 POP DUP2 DUP2 SUB PUSH0 DUP4 ADD MSTORE PUSH2 0x126E DUP2 DUP5 PUSH2 0x121E JUMP JUMPDEST SWAP1 POP SWAP3 SWAP2 POP POP JUMP JUMPDEST PUSH0 DUP1 PUSH1 0x40 DUP4 DUP6 SUB SLT ISZERO PUSH2 0x128C JUMPI PUSH2 0x128B PUSH2 0xF8C JUMP JUMPDEST JUMPDEST PUSH0 DUP4 ADD CALLDATALOAD PUSH8 0xFFFFFFFFFFFFFFFF DUP2 GT ISZERO PUSH2 0x12A9 JUMPI PUSH2 0x12A8 PUSH2 0xF90 JUMP JUMPDEST JUMPDEST PUSH2 0x12B5 DUP6 DUP3 DUP7 ADD PUSH2 0x10A3 JUMP JUMPDEST SWAP3 POP POP PUSH1 0x20 DUP4 ADD CALLDATALOAD PUSH8 0xFFFFFFFFFFFFFFFF DUP2 GT ISZERO PUSH2 0x12D6 JUMPI PUSH2 0x12D5 PUSH2 0xF90 JUMP JUMPDEST JUMPDEST PUSH2 0x12E2 DUP6 DUP3 DUP7 ADD PUSH2 0x10A3 JUMP JUMPDEST SWAP2 POP POP SWAP3 POP SWAP3 SWAP1 POP JUMP JUMPDEST PUSH0 DUP1 PUSH1 0x40 DUP4 DUP6 SUB SLT ISZERO PUSH2 0x1302 JUMPI PUSH2 0x1301 PUSH2 0xF8C JUMP JUMPDEST JUMPDEST PUSH0 DUP4 ADD CALLDATALOAD PUSH8 0xFFFFFFFFFFFFFFFF DUP2 GT ISZERO PUSH2 0x131F JUMPI PUSH2 0x131E PUSH2 0xF90 JUMP JUMPDEST JUMPDEST PUSH2 0x132B DUP6 DUP3 DUP7 ADD PUSH2 0x10A3 JUMP JUMPDEST SWAP3 POP POP PUSH1 0x20 PUSH2 0x133C DUP6 DUP3 DUP7 ADD PUSH2 0x10E6 JUMP JUMPDEST SWAP2 POP POP SWAP3 POP SWAP3 SWAP1 POP JUMP JUMPDEST PUSH0 PUSH1 0x2 SWAP1 POP SWAP2 SWAP1 POP JUMP JUMPDEST PUSH0 DUP2 SWAP1 POP SWAP3 SWAP2 POP POP JUMP JUMPDEST PUSH0 DUP2 SWAP1 POP SWAP2 SWAP1 POP JUMP JUMPDEST PUSH2 0x136C DUP2 PUSH2 0x10FA JUMP JUMPDEST DUP3 MSTORE POP POP JUMP JUMPDEST PUSH0 PUSH2 0x137D DUP4 DUP4 PUSH2 0x1363 JUMP JUMPDEST PUSH1 0x20 DUP4 ADD SWAP1 POP SWAP3 SWAP2 POP POP JUMP JUMPDEST PUSH0 PUSH1 0x20 DUP3 ADD SWAP1 POP SWAP2 SWAP1 POP JUMP JUMPDEST PUSH2 0x139E DUP2 PUSH2 0x1346 JUMP JUMPDEST PUSH2 0x13A8 DUP2 DUP5 PUSH2 0x1350 JUMP JUMPDEST SWAP3 POP PUSH2 0x13B3 DUP3 PUSH2 0x135A JUMP JUMPDEST DUP1 PUSH0 JUMPDEST DUP4 DUP2 LT ISZERO PUSH2 0x13E3 JUMPI DUP2 MLOAD PUSH2 0x13CA DUP8 DUP3 PUSH2 0x1372 JUMP JUMPDEST SWAP7 POP PUSH2 0x13D5 DUP4 PUSH2 0x1389 JUMP JUMPDEST SWAP3 POP POP PUSH1 0x1 DUP2 ADD SWAP1 POP PUSH2 0x13B6 JUMP JUMPDEST POP POP POP POP POP POP JUMP JUMPDEST PUSH0 PUSH1 0x40 DUP3 ADD SWAP1 POP PUSH2 0x13FE PUSH0 DUP4 ADD DUP5 PUSH2 0x1395 JUMP JUMPDEST SWAP3 SWAP2 POP POP JUMP JUMPDEST PUSH0 DUP2 MLOAD SWAP1 POP SWAP2 SWAP1 POP JUMP JUMPDEST PUSH0 DUP3 DUP3 MSTORE PUSH1 0x20 DUP3 ADD SWAP1 POP SWAP3 SWAP2 POP POP JUMP JUMPDEST PUSH0 DUP2 SWAP1 POP PUSH1 0x20 DUP3 ADD SWAP1 POP SWAP2 SWAP1 POP JUMP JUMPDEST PUSH0 DUP3 DUP3 MSTORE PUSH1 0x20 DUP3 ADD SWAP1 POP SWAP3 SWAP2 POP POP JUMP JUMPDEST PUSH0 PUSH2 0x1447 DUP3 PUSH2 0x11F6 JUMP JUMPDEST PUSH2 0x1451 DUP2 DUP6 PUSH2 0x142D JUMP JUMPDEST SWAP4 POP PUSH2 0x1461 DUP2 DUP6 PUSH1 0x20 DUP7 ADD PUSH2 0x1210 JUMP JUMPDEST PUSH2 0x146A DUP2 PUSH2 0xF9C JUMP JUMPDEST DUP5 ADD SWAP2 POP POP SWAP3 SWAP2 POP POP JUMP JUMPDEST PUSH0 PUSH2 0x1480 DUP4 DUP4 PUSH2 0x143D JUMP JUMPDEST SWAP1 POP SWAP3 SWAP2 POP POP JUMP JUMPDEST PUSH0 PUSH1 0x20 DUP3 ADD SWAP1 POP SWAP2 SWAP1 POP JUMP JUMPDEST PUSH0 PUSH2 0x149E DUP3 PUSH2 0x1404 JUMP JUMPDEST PUSH2 0x14A8 DUP2 DUP6 PUSH2 0x140E JUMP JUMPDEST SWAP4 POP DUP4 PUSH1 0x20 DUP3 MUL DUP6 ADD PUSH2 0x14BA DUP6 PUSH2 0x141E JUMP JUMPDEST DUP1 PUSH0 JUMPDEST DUP6 DUP2 LT ISZERO PUSH2 0x14F5 JUMPI DUP5 DUP5 SUB DUP10 MSTORE DUP2 MLOAD PUSH2 0x14D6 DUP6 DUP3 PUSH2 0x1475 JUMP JUMPDEST SWAP5 POP PUSH2 0x14E1 DUP4 PUSH2 0x1488 JUMP JUMPDEST SWAP3 POP PUSH1 0x20 DUP11 ADD SWAP10 POP POP PUSH1 0x1 DUP2 ADD SWAP1 POP PUSH2 0x14BD JUMP JUMPDEST POP DUP3 SWAP8 POP DUP8 SWAP6 POP POP POP POP POP POP SWAP3 SWAP2 POP POP JUMP JUMPDEST PUSH0 PUSH1 0x20 DUP3 ADD SWAP1 POP DUP2 DUP2 SUB PUSH0 DUP4 ADD MSTORE PUSH2 0x151F DUP2 DUP5 PUSH2 0x1494 JUMP JUMPDEST SWAP1 POP SWAP3 SWAP2 POP POP JUMP JUMPDEST PUSH0 DUP2 SWAP1 POP SWAP3 SWAP2 POP POP JUMP JUMPDEST PUSH0 PUSH2 0x153B DUP3 PUSH2 0x11F6 JUMP JUMPDEST PUSH2 0x1545 DUP2 DUP6 PUSH2 0x1527 JUMP JUMPDEST SWAP4 POP PUSH2 0x1555 DUP2 DUP6 PUSH1 0x20 DUP7 ADD PUSH2 0x1210 JUMP JUMPDEST DUP1 DUP5 ADD SWAP2 POP POP SWAP3 SWAP2 POP POP JUMP JUMPDEST PUSH0 PUSH2 0x156C DUP3 DUP5 PUSH2 0x1531 JUMP JUMPDEST SWAP2 POP DUP2 SWAP1 POP SWAP3 SWAP2 POP POP JUMP JUMPDEST PUSH32 0x4E6F74207468652066696C652066696C654F776E657200000000000000000000 PUSH0 DUP3 ADD MSTORE POP JUMP JUMPDEST PUSH0 PUSH2 0x15AB PUSH1 0x16 DUP4 PUSH2 0x1200 JUMP JUMPDEST SWAP2 POP PUSH2 0x15B6 DUP3 PUSH2 0x1577 JUMP JUMPDEST PUSH1 0x20 DUP3 ADD SWAP1 POP SWAP2 SWAP1 POP JUMP JUMPDEST PUSH0 PUSH1 0x20 DUP3 ADD SWAP1 POP DUP2 DUP2 SUB PUSH0 DUP4 ADD MSTORE PUSH2 0x15D8 DUP2 PUSH2 0x159F JUMP JUMPDEST SWAP1 POP SWAP2 SWAP1 POP JUMP JUMPDEST PUSH32 0x46696C6520646F6573206E6F7420657869737400000000000000000000000000 PUSH0 DUP3 ADD MSTORE POP JUMP JUMPDEST PUSH0 PUSH2 0x1613 PUSH1 0x13 DUP4 PUSH2 0x1200 JUMP JUMPDEST SWAP2 POP PUSH2 0x161E DUP3 PUSH2 0x15DF JUMP JUMPDEST PUSH1 0x20 DUP3 ADD SWAP1 POP SWAP2 SWAP1 POP JUMP JUMPDEST PUSH0 PUSH1 0x20 DUP3 ADD SWAP1 POP DUP2 DUP2 SUB PUSH0 DUP4 ADD MSTORE PUSH2 0x1640 DUP2 PUSH2 0x1607 JUMP JUMPDEST SWAP1 POP SWAP2 SWAP1 POP JUMP JUMPDEST PUSH32 0x4E6F207265616420616363657373000000000000000000000000000000000000 PUSH0 DUP3 ADD MSTORE POP JUMP JUMPDEST PUSH0 PUSH2 0x167B PUSH1 0xE DUP4 PUSH2 0x1200 JUMP JUMPDEST SWAP2 POP PUSH2 0x1686 DUP3 PUSH2 0x1647 JUMP JUMPDEST PUSH1 0x20 DUP3 ADD SWAP1 POP SWAP2 SWAP1 POP JUMP JUMPDEST PUSH0 PUSH1 0x20 DUP3 ADD SWAP1 POP DUP2 DUP2 SUB PUSH0 DUP4 ADD MSTORE PUSH2 0x16A8 DUP2 PUSH2 0x166F JUMP JUMPDEST SWAP1 POP SWAP2 SWAP1 POP JUMP JUMPDEST PUSH32 0x4E487B7100000000000000000000000000000000000000000000000000000000 PUSH0 MSTORE PUSH1 0x22 PUSH1 0x4 MSTORE PUSH1 0x24 PUSH0 REVERT JUMPDEST PUSH0 PUSH1 0x2 DUP3 DIV SWAP1 POP PUSH1 0x1 DUP3 AND DUP1 PUSH2 0x16F3 JUMPI PUSH1 0x7F DUP3 AND SWAP2 POP JUMPDEST PUSH1 0x20 DUP3 LT DUP2 SUB PUSH2 0x1706 JUMPI PUSH2 0x1705 PUSH2 0x16AF JUMP JUMPDEST JUMPDEST POP SWAP2 SWAP1 POP JUMP JUMPDEST PUSH32 0x4E6F207772697465206163636573730000000000000000000000000000000000 PUSH0 DUP3 ADD MSTORE POP JUMP JUMPDEST PUSH0 PUSH2 0x1740 PUSH1 0xF DUP4 PUSH2 0x1200 JUMP JUMPDEST SWAP2 POP PUSH2 0x174B DUP3 PUSH2 0x170C JUMP JUMPDEST PUSH1 0x20 DUP3 ADD SWAP1 POP SWAP2 SWAP1 POP JUMP JUMPDEST PUSH0 PUSH1 0x20 DUP3 ADD SWAP1 POP DUP2 DUP2 SUB PUSH0 DUP4 ADD MSTORE PUSH2 0x176D DUP2 PUSH2 0x1734 JUMP JUMPDEST SWAP1 POP SWAP2 SWAP1 POP JUMP JUMPDEST PUSH0 DUP2 SWAP1 POP DUP2 PUSH0 MSTORE PUSH1 0x20 PUSH0 KECCAK256 SWAP1 POP SWAP2 SWAP1 POP JUMP JUMPDEST PUSH0 PUSH1 0x20 PUSH1 0x1F DUP4 ADD DIV SWAP1 POP SWAP2 SWAP1 POP JUMP JUMPDEST PUSH0 DUP3 DUP3 SHL SWAP1 POP SWAP3 SWAP2 POP POP JUMP JUMPDEST PUSH0 PUSH1 0x8 DUP4 MUL PUSH2 0x17D0 PUSH32 0xFFFFFFFFFFFFFFFFFFFFFFFFFFFFFFFFFFFFFFFFFFFFFFFFFFFFFFFFFFFFFFFF DUP3 PUSH2 0x1795 JUMP JUMPDEST PUSH2 0x17DA DUP7 DUP4 PUSH2 0x1795 JUMP JUMPDEST SWAP6 POP DUP1 NOT DUP5 AND SWAP4 POP DUP1 DUP7 AND DUP5 OR SWAP3 POP POP POP SWAP4 SWAP3 POP POP POP JUMP JUMPDEST PUSH0 DUP2 SWAP1 POP SWAP2 SWAP1 POP JUMP JUMPDEST PUSH0 DUP2 SWAP1 POP SWAP2 SWAP1 POP JUMP JUMPDEST PUSH0 PUSH2 0x181E PUSH2 0x1819 PUSH2 0x1814 DUP5 PUSH2 0x17F2 JUMP JUMPDEST PUSH2 0x17FB JUMP JUMPDEST PUSH2 0x17F2 JUMP JUMPDEST SWAP1 POP SWAP2 SWAP1 POP JUMP JUMPDEST PUSH0 DUP2 SWAP1 POP SWAP2 SWAP1 POP JUMP JUMPDEST PUSH2 0x1837 DUP4 PUSH2 0x1804 JUMP JUMPDEST PUSH2 0x184B PUSH2 0x1843 DUP3 PUSH2 0x1825 JUMP JUMPDEST DUP5 DUP5 SLOAD PUSH2 0x17A1 JUMP JUMPDEST DUP3 SSTORE POP POP POP POP JUMP JUMPDEST PUSH0 SWAP1 JUMP JUMPDEST PUSH2 0x185F PUSH2 0x1853 JUMP JUMPDEST PUSH2 0x186A DUP2 DUP5 DUP5 PUSH2 0x182E JUMP JUMPDEST POP POP POP JUMP JUMPDEST JUMPDEST DUP2 DUP2 LT ISZERO PUSH2 0x188D JUMPI PUSH2 0x1882 PUSH0 DUP3 PUSH2 0x1857 JUMP JUMPDEST PUSH1 0x1 DUP2 ADD SWAP1 POP PUSH2 0x1870 JUMP JUMPDEST POP POP JUMP JUMPDEST PUSH1 0x1F DUP3 GT ISZERO PUSH2 0x18D2 JUMPI PUSH2 0x18A3 DUP2 PUSH2 0x1774 JUMP JUMPDEST PUSH2 0x18AC DUP5 PUSH2 0x1786 JUMP JUMPDEST DUP2 ADD PUSH1 0x20 DUP6 LT ISZERO PUSH2 0x18BB JUMPI DUP2 SWAP1 POP JUMPDEST PUSH2 0x18CF PUSH2 0x18C7 DUP6 PUSH2 0x1786 JUMP JUMPDEST DUP4 ADD DUP3 PUSH2 0x186F JUMP JUMPDEST POP POP JUMPDEST POP POP POP JUMP JUMPDEST PUSH0 DUP3 DUP3 SHR SWAP1 POP SWAP3 SWAP2 POP POP JUMP JUMPDEST PUSH0 PUSH2 0x18F2 PUSH0 NOT DUP5 PUSH1 0x8 MUL PUSH2 0x18D7 JUMP JUMPDEST NOT DUP1 DUP4 AND SWAP2 POP POP SWAP3 SWAP2 POP POP JUMP JUMPDEST PUSH0 PUSH2 0x190A DUP4 DUP4 PUSH2 0x18E3 JUMP JUMPDEST SWAP2 POP DUP3 PUSH1 0x2 MUL DUP3 OR SWAP1 POP SWAP3 SWAP2 POP POP JUMP JUMPDEST PUSH2 0x1923 DUP3 PUSH2 0x11F6 JUMP JUMPDEST PUSH8 0xFFFFFFFFFFFFFFFF DUP2 GT ISZERO PUSH2 0x193C JUMPI PUSH2 0x193B PUSH2 0xFAC JUMP JUMPDEST JUMPDEST PUSH2 0x1946 DUP3 SLOAD PUSH2 0x16DC JUMP JUMPDEST PUSH2 0x1951 DUP3 DUP3 DUP6 PUSH2 0x1891 JUMP JUMPDEST PUSH0 PUSH1 0x20 SWAP1 POP PUSH1 0x1F DUP4 GT PUSH1 0x1 DUP2 EQ PUSH2 0x1982 JUMPI PUSH0 DUP5 ISZERO PUSH2 0x1970 JUMPI DUP3 DUP8 ADD MLOAD SWAP1 POP JUMPDEST PUSH2 0x197A DUP6 DUP3 PUSH2 0x18FF JUMP JUMPDEST DUP7 SSTORE POP PUSH2 0x19E1 JUMP JUMPDEST PUSH1 0x1F NOT DUP5 AND PUSH2 0x1990 DUP7 PUSH2 0x1774 JUMP JUMPDEST PUSH0 JUMPDEST DUP3 DUP2 LT ISZERO PUSH2 0x19B7 JUMPI DUP5 DUP10 ADD MLOAD DUP3 SSTORE PUSH1 0x1 DUP3 ADD SWAP2 POP PUSH1 0x20 DUP6 ADD SWAP5 POP PUSH1 0x20 DUP2 ADD SWAP1 POP PUSH2 0x1992 JUMP JUMPDEST DUP7 DUP4 LT ISZERO PUSH2 0x19D4 JUMPI DUP5 DUP10 ADD MLOAD PUSH2 0x19D0 PUSH1 0x1F DUP10 AND DUP3 PUSH2 0x18E3 JUMP JUMPDEST DUP4 SSTORE POP JUMPDEST PUSH1 0x1 PUSH1 0x2 DUP9 MUL ADD DUP9 SSTORE POP POP POP JUMPDEST POP POP POP POP POP POP JUMP JUMPDEST PUSH0 PUSH1 0x40 DUP3 ADD SWAP1 POP DUP2 DUP2 SUB PUSH0 DUP4 ADD MSTORE PUSH2 0x1A01 DUP2 DUP6 PUSH2 0x121E JUMP JUMPDEST SWAP1 POP DUP2 DUP2 SUB PUSH1 0x20 DUP4 ADD MSTORE PUSH2 0x1A15 DUP2 DUP5 PUSH2 0x121E JUMP JUMPDEST SWAP1 POP SWAP4 SWAP3 POP POP POP JUMP JUMPDEST PUSH32 0x46696C656E616D652063616E6E6F7420626520656D7074790000000000000000 PUSH0 DUP3 ADD MSTORE POP JUMP JUMPDEST PUSH0 PUSH2 0x1A52 PUSH1 0x18 DUP4 PUSH2 0x1200 JUMP JUMPDEST SWAP2 POP PUSH2 0x1A5D DUP3 PUSH2 0x1A1E JUMP JUMPDEST PUSH1 0x20 DUP3 ADD SWAP1 POP SWAP2 SWAP1 POP JUMP JUMPDEST PUSH0 PUSH1 0x20 DUP3 ADD SWAP1 POP DUP2 DUP2 SUB PUSH0 DUP4 ADD MSTORE PUSH2 0x1A7F DUP2 PUSH2 0x1A46 JUMP JUMPDEST SWAP1 POP SWAP2 SWAP1 POP JUMP JUMPDEST PUSH32 0x46696C6520616C72656164792065786973747300000000000000000000000000 PUSH0 DUP3 ADD MSTORE POP JUMP JUMPDEST PUSH0 PUSH2 0x1ABA PUSH1 0x13 DUP4 PUSH2 0x1200 JUMP JUMPDEST SWAP2 POP PUSH2 0x1AC5 DUP3 PUSH2 0x1A86 JUMP JUMPDEST PUSH1 0x20 DUP3 ADD SWAP1 POP SWAP2 SWAP1 POP JUMP JUMPDEST PUSH0 PUSH1 0x20 DUP3 ADD SWAP1 POP DUP2 DUP2 SUB PUSH0 DUP4 ADD MSTORE PUSH2 0x1AE7 DUP2 PUSH2 0x1AAE JUMP JUMPDEST SWAP1 POP SWAP2 SWAP1 POP JUMP JUMPDEST PUSH32 0x4E487B7100000000000000000000000000000000000000000000000000000000 PUSH0 MSTORE PUSH1 0x32 PUSH1 0x4 MSTORE PUSH1 0x24 PUSH0 REVERT JUMPDEST PUSH0 DUP2 SLOAD PUSH2 0x1B27 DUP2 PUSH2 0x16DC JUMP JUMPDEST PUSH2 0x1B31 DUP2 DUP7 PUSH2 0x1527 JUMP JUMPDEST SWAP5 POP PUSH1 0x1 DUP3 AND PUSH0 DUP2 EQ PUSH2 0x1B4B JUMPI PUSH1 0x1 DUP2 EQ PUSH2 0x1B60 JUMPI PUSH2 0x1B92 JUMP JUMPDEST PUSH1 0xFF NOT DUP4 AND DUP7 MSTORE DUP2 ISZERO ISZERO DUP3 MUL DUP7 ADD SWAP4 POP PUSH2 0x1B92 JUMP JUMPDEST PUSH2 0x1B69 DUP6 PUSH2 0x1774 JUMP JUMPDEST PUSH0 JUMPDEST DUP4 DUP2 LT ISZERO PUSH2 0x1B8A JUMPI DUP2 SLOAD DUP2 DUP10 ADD MSTORE PUSH1 0x1 DUP3 ADD SWAP2 POP PUSH1 0x20 DUP2 ADD SWAP1 POP PUSH2 0x1B6B JUMP JUMPDEST DUP4 DUP9 ADD SWAP6 POP POP POP JUMPDEST POP POP POP SWAP3 SWAP2 POP POP JUMP JUMPDEST PUSH0 PUSH2 0x1BA6 DUP3 DUP5 PUSH2 0x1B1B JUMP JUMPDEST SWAP2 POP DUP2 SWAP1 POP SWAP3 SWAP2 POP POP JUMP JUMPDEST PUSH32 0x4E487B7100000000000000000000000000000000000000000000000000000000 PUSH0 MSTORE PUSH1 0x11 PUSH1 0x4 MSTORE PUSH1 0x24 PUSH0 REVERT JUMPDEST PUSH0 PUSH2 0x1BE8 DUP3 PUSH2 0x17F2 JUMP JUMPDEST SWAP2 POP PUSH2 0x1BF3 DUP4 PUSH2 0x17F2 JUMP JUMPDEST SWAP3 POP DUP3 DUP3 SUB SWAP1 POP DUP2 DUP2 GT ISZERO PUSH2 0x1C0B JUMPI PUSH2 0x1C0A PUSH2 0x1BB1 JUMP JUMPDEST JUMPDEST SWAP3 SWAP2 POP POP JUMP JUMPDEST PUSH0 DUP2 SLOAD SWAP1 POP PUSH2 0x1C1F DUP2 PUSH2 0x16DC JUMP JUMPDEST SWAP1 POP SWAP2 SWAP1 POP JUMP JUMPDEST PUSH0 DUP2 SWAP1 POP DUP2 PUSH0 MSTORE PUSH1 0x20 PUSH0 KECCAK256 SWAP1 POP SWAP2 SWAP1 POP JUMP JUMPDEST DUP2 DUP2 SUB PUSH2 0x1C46 JUMPI POP POP PUSH2 0x1D1B JUMP JUMPDEST PUSH2 0x1C4F DUP3 PUSH2 0x1C11 JUMP JUMPDEST PUSH8 0xFFFFFFFFFFFFFFFF DUP2 GT ISZERO PUSH2 0x1C68 JUMPI PUSH2 0x1C67 PUSH2 0xFAC JUMP JUMPDEST JUMPDEST PUSH2 0x1C72 DUP3 SLOAD PUSH2 0x16DC JUMP JUMPDEST PUSH2 0x1C7D DUP3 DUP3 DUP6 PUSH2 0x1891 JUMP JUMPDEST PUSH0 PUSH1 0x1F DUP4 GT PUSH1 0x1 DUP2 EQ PUSH2 0x1CAA JUMPI PUSH0 DUP5 ISZERO PUSH2 0x1C98 JUMPI DUP3 DUP8 ADD SLOAD SWAP1 POP JUMPDEST PUSH2 0x1CA2 DUP6 DUP3 PUSH2 0x18FF JUMP JUMPDEST DUP7 SSTORE POP PUSH2 0x1D14 JUMP JUMPDEST PUSH1 0x1F NOT DUP5 AND PUSH2 0x1CB8 DUP8 PUSH2 0x1C26 JUMP JUMPDEST SWAP7 POP PUSH2 0x1CC3 DUP7 PUSH2 0x1774 JUMP JUMPDEST PUSH0 JUMPDEST DUP3 DUP2 LT ISZERO PUSH2 0x1CEA JUMPI DUP5 DUP10 ADD SLOAD DUP3 SSTORE PUSH1 0x1 DUP3 ADD SWAP2 POP PUSH1 0x1 DUP6 ADD SWAP5 POP PUSH1 0x20 DUP2 ADD SWAP1 POP PUSH2 0x1CC5 JUMP JUMPDEST DUP7 DUP4 LT ISZERO PUSH2 0x1D07 JUMPI DUP5 DUP10 ADD SLOAD PUSH2 0x1D03 PUSH1 0x1F DUP10 AND DUP3 PUSH2 0x18E3 JUMP JUMPDEST DUP4 SSTORE POP JUMPDEST PUSH1 0x1 PUSH1 0x2 DUP9 MUL ADD DUP9 SSTORE POP POP POP JUMPDEST POP POP POP POP POP POP JUMPDEST JUMP JUMPDEST PUSH32 0x4E487B7100000000000000000000000000000000000000000000000000000000 PUSH0 MSTORE PUSH1 0x31 PUSH1 0x4 MSTORE PUSH1 0x24 PUSH0 REVERT INVALID LOG2 PUSH5 0x6970667358 0x22 SLT KECCAK256 DUP5 DUP15 0xF8 0xED 0x2D PUSH28 0x2FDCE7DFC5C67E69E49527C8504E183410EE9155DC9480233FA26473 PUSH16 0x6C634300081A00330000000000000000 "
				},
				"gasEstimates": {
					"creation": {
						"codeDepositCost": "1510400",
						"executionCost": "25838",
						"totalCost": "1536238"
					},
					"external": {
						"changeFilePermission(string,address,bool,bool)": "infinite",
						"createFile(string,string)": "infinite",
						"deleteFile(string)": "infinite",
						"driveOwner()": "2506",
						"editFile(string,string)": "infinite",
						"readFile(string)": "infinite",
						"viewFileList()": "infinite",
						"viewFilePermission(string,address)": "infinite"
					}
				},
				"methodIdentifiers": {
					"changeFilePermission(string,address,bool,bool)": "5a5cbc85",
					"createFile(string,string)": "81ad193a",
					"deleteFile(string)": "a9910054",
					"driveOwner()": "0fc715c3",
					"editFile(string,string)": "67e51090",
					"readFile(string)": "60f9bb11",
					"viewFileList()": "bac87fe0",
					"viewFilePermission(string,address)": "7d41216d"
				}
			},
			"storageLayout": {
				"storage": [
					{
						"astId": 20,
						"contract": "contracts/FileStorage.sol:FileStorage",
						"label": "driveOwner",
						"offset": 0,
						"slot": "0",
						"type": "t_address"
					},
					{
						"astId": 25,
						"contract": "contracts/FileStorage.sol:FileStorage",
						"label": "files",
						"offset": 0,
						"slot": "1",
						"type": "t_mapping(t_string_memory_ptr,t_struct(File)18_storage)"
					},
					{
						"astId": 28,
						"contract": "contracts/FileStorage.sol:FileStorage",
						"label": "fileList",
						"offset": 0,
						"slot": "2",
						"type": "t_array(t_string_storage)dyn_storage"
					}
				],
				"types": {
					"t_address": {
						"encoding": "inplace",
						"label": "address",
						"numberOfBytes": "20"
					},
					"t_array(t_string_storage)dyn_storage": {
						"base": "t_string_storage",
						"encoding": "dynamic_array",
						"label": "string[]",
						"numberOfBytes": "32"
					},
					"t_bool": {
						"encoding": "inplace",
						"label": "bool",
						"numberOfBytes": "1"
					},
					"t_mapping(t_address,t_bool)": {
						"encoding": "mapping",
						"key": "t_address",
						"label": "mapping(address => bool)",
						"numberOfBytes": "32",
						"value": "t_bool"
					},
					"t_mapping(t_string_memory_ptr,t_struct(File)18_storage)": {
						"encoding": "mapping",
						"key": "t_string_memory_ptr",
						"label": "mapping(string => struct FileStorage.File)",
						"numberOfBytes": "32",
						"value": "t_struct(File)18_storage"
					},
					"t_string_memory_ptr": {
						"encoding": "bytes",
						"label": "string",
						"numberOfBytes": "32"
					},
					"t_string_storage": {
						"encoding": "bytes",
						"label": "string",
						"numberOfBytes": "32"
					},
					"t_struct(File)18_storage": {
						"encoding": "inplace",
						"label": "struct FileStorage.File",
						"members": [
							{
								"astId": 3,
								"contract": "contracts/FileStorage.sol:FileStorage",
								"label": "filename",
								"offset": 0,
								"slot": "0",
								"type": "t_string_storage"
							},
							{
								"astId": 5,
								"contract": "contracts/FileStorage.sol:FileStorage",
								"label": "content",
								"offset": 0,
								"slot": "1",
								"type": "t_string_storage"
							},
							{
								"astId": 7,
								"contract": "contracts/FileStorage.sol:FileStorage",
								"label": "exists",
								"offset": 0,
								"slot": "2",
								"type": "t_bool"
							},
							{
								"astId": 9,
								"contract": "contracts/FileStorage.sol:FileStorage",
								"label": "fileOwner",
								"offset": 1,
								"slot": "2",
								"type": "t_address"
							},
							{
								"astId": 13,
								"contract": "contracts/FileStorage.sol:FileStorage",
								"label": "readAccess",
								"offset": 0,
								"slot": "3",
								"type": "t_mapping(t_address,t_bool)"
							},
							{
								"astId": 17,
								"contract": "contracts/FileStorage.sol:FileStorage",
								"label": "writeAccess",
								"offset": 0,
								"slot": "4",
								"type": "t_mapping(t_address,t_bool)"
							}
						],
						"numberOfBytes": "160"
					}
				}
			},
			"userdoc": {
				"kind": "user",
				"methods": {},
				"version": 1
			}
		}
	}
}