{
	"contracts/FileStorage.sol": {
		"FileStorage": {
			"abi": [
				{
					"inputs": [
						{
							"internalType": "string",
							"name": "_filename",
							"type": "string"
						},
						{
							"internalType": "string",
							"name": "_newContent",
							"type": "string"
						}
					],
					"name": "appendToFile",
					"outputs": [],
					"stateMutability": "nonpayable",
					"type": "function"
				},
				{
					"inputs": [
						{
							"internalType": "string",
							"name": "_filename",
							"type": "string"
						},
						{
							"internalType": "address",
							"name": "_addr",
							"type": "address"
						},
						{
							"internalType": "uint8",
							"name": "_mode",
							"type": "uint8"
						}
					],
					"name": "changeFilePermission",
					"outputs": [],
					"stateMutability": "nonpayable",
					"type": "function"
				},
				{
					"inputs": [
						{
							"internalType": "string",
							"name": "_filename",
							"type": "string"
						},
						{
							"internalType": "address",
							"name": "_addr",
							"type": "address"
						},
						{
							"internalType": "string",
							"name": "_content",
							"type": "string"
						}
					],
					"name": "createFile",
					"outputs": [],
					"stateMutability": "nonpayable",
					"type": "function"
				},
				{
					"inputs": [
						{
							"internalType": "string",
							"name": "_filename",
							"type": "string"
						}
					],
					"name": "deleteFile",
					"outputs": [],
					"stateMutability": "nonpayable",
					"type": "function"
				},
				{
					"inputs": [],
					"name": "fileCount",
					"outputs": [
						{
							"internalType": "uint256",
							"name": "",
							"type": "uint256"
						}
					],
					"stateMutability": "view",
					"type": "function"
				},
				{
					"inputs": [
						{
							"internalType": "string",
							"name": "",
							"type": "string"
						}
					],
					"name": "files",
					"outputs": [
						{
							"internalType": "string",
							"name": "filename",
							"type": "string"
						},
						{
							"internalType": "string",
							"name": "content",
							"type": "string"
						},
						{
							"internalType": "bool",
							"name": "exists",
							"type": "bool"
						},
						{
							"internalType": "address",
							"name": "fileOwner",
							"type": "address"
						}
					],
					"stateMutability": "view",
					"type": "function"
				},
				{
					"inputs": [
						{
							"internalType": "string",
							"name": "_filename",
							"type": "string"
						}
					],
					"name": "getFileOwner",
					"outputs": [
						{
							"internalType": "address",
							"name": "",
							"type": "address"
						}
					],
					"stateMutability": "view",
					"type": "function"
				},
				{
					"inputs": [
						{
							"internalType": "string",
							"name": "_filename",
							"type": "string"
						},
						{
							"internalType": "address",
							"name": "_addr",
							"type": "address"
						}
					],
					"name": "getMode",
					"outputs": [
						{
							"internalType": "uint8",
							"name": "",
							"type": "uint8"
						}
					],
					"stateMutability": "view",
					"type": "function"
				},
				{
					"inputs": [],
					"name": "listFiles",
					"outputs": [
						{
							"internalType": "string[]",
							"name": "",
							"type": "string[]"
						}
					],
					"stateMutability": "view",
					"type": "function"
				},
				{
					"inputs": [
						{
							"internalType": "string",
							"name": "_filename",
							"type": "string"
						}
					],
					"name": "readFile",
					"outputs": [
						{
							"internalType": "string",
							"name": "",
							"type": "string"
						}
					],
					"stateMutability": "view",
					"type": "function"
				},
				{
					"inputs": [
						{
							"internalType": "string",
							"name": "_oldName",
							"type": "string"
						},
						{
							"internalType": "string",
							"name": "_newName",
							"type": "string"
						}
					],
					"name": "renameFile",
					"outputs": [],
					"stateMutability": "nonpayable",
					"type": "function"
				},
				{
					"inputs": [
						{
							"internalType": "string",
							"name": "_filename",
							"type": "string"
						},
						{
							"internalType": "address",
							"name": "_addr",
							"type": "address"
						}
					],
					"name": "viewFilePermission",
					"outputs": [
						{
							"internalType": "string",
							"name": "",
							"type": "string"
						}
					],
					"stateMutability": "view",
					"type": "function"
				},
				{
					"inputs": [
						{
							"internalType": "string",
							"name": "_filename",
							"type": "string"
						},
						{
							"internalType": "string",
							"name": "_newContent",
							"type": "string"
						}
					],
					"name": "writeFile",
					"outputs": [],
					"stateMutability": "nonpayable",
					"type": "function"
				}
			],
			"devdoc": {
				"kind": "dev",
				"methods": {},
				"version": 1
			},
			"evm": {
				"assembly": "    /* \"contracts/FileStorage.sol\":74:4215  contract FileStorage {... */\n  mstore(0x40, 0x80)\n    /* \"contracts/FileStorage.sol\":486:487  0 */\n  0x00\n    /* \"contracts/FileStorage.sol\":462:487  uint public fileCount = 0 */\n  dup1\n  sstore\n    /* \"contracts/FileStorage.sol\":74:4215  contract FileStorage {... */\n  callvalue\n  dup1\n  iszero\n  tag_1\n  jumpi\n  0x00\n  dup1\n  revert\ntag_1:\n  pop\n  dataSize(sub_0)\n  dup1\n  dataOffset(sub_0)\n  0x00\n  codecopy\n  0x00\n  return\nstop\n\nsub_0: assembly {\n        /* \"contracts/FileStorage.sol\":74:4215  contract FileStorage {... */\n      mstore(0x40, 0x80)\n      callvalue\n      dup1\n      iszero\n      tag_1\n      jumpi\n      0x00\n      dup1\n      revert\n    tag_1:\n      pop\n      jumpi(tag_2, lt(calldatasize, 0x04))\n      shr(0xe0, calldataload(0x00))\n      dup1\n      0xa9910054\n      gt\n      tag_16\n      jumpi\n      dup1\n      0xbc051a4d\n      gt\n      tag_17\n      jumpi\n      dup1\n      0xbc051a4d\n      eq\n      tag_12\n      jumpi\n      dup1\n      0xcffa39f9\n      eq\n      tag_13\n      jumpi\n      dup1\n      0xe7755761\n      eq\n      tag_14\n      jumpi\n      dup1\n      0xeceed653\n      eq\n      tag_15\n      jumpi\n      0x00\n      dup1\n      revert\n    tag_17:\n      dup1\n      0xa9910054\n      eq\n      tag_9\n      jumpi\n      dup1\n      0xb033d8fa\n      eq\n      tag_10\n      jumpi\n      dup1\n      0xb6b13caa\n      eq\n      tag_11\n      jumpi\n      0x00\n      dup1\n      revert\n    tag_16:\n      dup1\n      0x13d4a044\n      eq\n      tag_3\n      jumpi\n      dup1\n      0x38fa8f58\n      eq\n      tag_4\n      jumpi\n      dup1\n      0x43953519\n      eq\n      tag_5\n      jumpi\n      dup1\n      0x60f9bb11\n      eq\n      tag_6\n      jumpi\n      dup1\n      0x7d41216d\n      eq\n      tag_7\n      jumpi\n      dup1\n      0x897e0a97\n      eq\n      tag_8\n      jumpi\n    tag_2:\n      0x00\n      dup1\n      revert\n        /* \"contracts/FileStorage.sol\":1463:1748  function renameFile(string memory _oldName, string memory _newName) external fileExists(_oldName) {... */\n    tag_3:\n      tag_18\n      tag_19\n      calldatasize\n      0x04\n      tag_20\n      jump\t// in\n    tag_19:\n      tag_21\n      jump\t// in\n    tag_18:\n      stop\n        /* \"contracts/FileStorage.sol\":4053:4206  function getFileOwner(string memory _filename) external view fileExists(_filename) returns (address) {... */\n    tag_4:\n      tag_22\n      tag_23\n      calldatasize\n      0x04\n      tag_24\n      jump\t// in\n    tag_23:\n      tag_25\n      jump\t// in\n    tag_22:\n      mload(0x40)\n      sub(shl(0xa0, 0x01), 0x01)\n        /* \"#utility.yul\":1911:1943   */\n      swap1\n      swap2\n      and\n        /* \"#utility.yul\":1893:1944   */\n      dup2\n      mstore\n        /* \"#utility.yul\":1881:1883   */\n      0x20\n        /* \"#utility.yul\":1866:1884   */\n      add\n        /* \"contracts/FileStorage.sol\":4053:4206  function getFileOwner(string memory _filename) external view fileExists(_filename) returns (address) {... */\n    tag_26:\n      mload(0x40)\n      dup1\n      swap2\n      sub\n      swap1\n      return\n        /* \"contracts/FileStorage.sol\":462:487  uint public fileCount = 0 */\n    tag_5:\n      tag_28\n      sload(0x00)\n      dup2\n      jump\n    tag_28:\n      mload(0x40)\n        /* \"#utility.yul\":2101:2126   */\n      swap1\n      dup2\n      mstore\n        /* \"#utility.yul\":2089:2091   */\n      0x20\n        /* \"#utility.yul\":2074:2092   */\n      add\n        /* \"contracts/FileStorage.sol\":462:487  uint public fileCount = 0 */\n      tag_26\n        /* \"#utility.yul\":1955:2132   */\n      jump\n        /* \"contracts/FileStorage.sol\":3189:3421  function readFile(string memory _filename) external view fileExists(_filename) returns (string memory) {... */\n    tag_6:\n      tag_32\n      tag_33\n      calldatasize\n      0x04\n      tag_24\n      jump\t// in\n    tag_33:\n      tag_34\n      jump\t// in\n    tag_32:\n      mload(0x40)\n      tag_26\n      swap2\n      swap1\n      tag_36\n      jump\t// in\n        /* \"contracts/FileStorage.sol\":3429:3743  function viewFilePermission(string memory _filename, address _addr) external view fileExists(_filename) returns (string memory) {... */\n    tag_7:\n      tag_32\n      tag_38\n      calldatasize\n      0x04\n      tag_39\n      jump\t// in\n    tag_38:\n      tag_40\n      jump\t// in\n        /* \"contracts/FileStorage.sol\":2104:2343  function writeFile(string memory _filename, string memory _newContent) external fileExists(_filename) {... */\n    tag_8:\n      tag_18\n      tag_43\n      calldatasize\n      0x04\n      tag_20\n      jump\t// in\n    tag_43:\n      tag_44\n      jump\t// in\n        /* \"contracts/FileStorage.sol\":2373:2850  function deleteFile(string memory _filename) external fileExists(_filename) {... */\n    tag_9:\n      tag_18\n      tag_46\n      calldatasize\n      0x04\n      tag_24\n      jump\t// in\n    tag_46:\n      tag_47\n      jump\t// in\n        /* \"contracts/FileStorage.sol\":3777:3872  function listFiles() external view returns (string[] memory) {... */\n    tag_10:\n      tag_48\n      tag_49\n      jump\t// in\n    tag_48:\n      mload(0x40)\n      tag_26\n      swap2\n      swap1\n      tag_51\n      jump\t// in\n        /* \"contracts/FileStorage.sol\":1781:2071  function appendToFile(string memory _filename, string memory _newContent) external fileExists(_filename) {... */\n    tag_11:\n      tag_18\n      tag_53\n      calldatasize\n      0x04\n      tag_20\n      jump\t// in\n    tag_53:\n      tag_54\n      jump\t// in\n        /* \"contracts/FileStorage.sol\":852:1433  function createFile(string memory _filename, address _addr, string memory _content) external notExceedFileLimit {... */\n    tag_12:\n      tag_18\n      tag_56\n      calldatasize\n      0x04\n      tag_57\n      jump\t// in\n    tag_56:\n      tag_58\n      jump\t// in\n        /* \"contracts/FileStorage.sol\":3880:4045  function getMode(string memory _filename, address _addr) external view fileExists(_filename) returns (uint8) {  ... */\n    tag_13:\n      tag_59\n      tag_60\n      calldatasize\n      0x04\n      tag_39\n      jump\t// in\n    tag_60:\n      tag_61\n      jump\t// in\n    tag_59:\n      mload(0x40)\n        /* \"#utility.yul\":4844:4848   */\n      0xff\n        /* \"#utility.yul\":4832:4849   */\n      swap1\n      swap2\n      and\n        /* \"#utility.yul\":4814:4850   */\n      dup2\n      mstore\n        /* \"#utility.yul\":4802:4804   */\n      0x20\n        /* \"#utility.yul\":4787:4805   */\n      add\n        /* \"contracts/FileStorage.sol\":3880:4045  function getMode(string memory _filename, address _addr) external view fileExists(_filename) returns (uint8) {  ... */\n      tag_26\n        /* \"#utility.yul\":4672:4856   */\n      jump\n        /* \"contracts/FileStorage.sol\":494:530  mapping(string => File) public files */\n    tag_14:\n      tag_64\n      tag_65\n      calldatasize\n      0x04\n      tag_24\n      jump\t// in\n    tag_65:\n      tag_66\n      jump\t// in\n    tag_64:\n      mload(0x40)\n      tag_26\n      swap5\n      swap4\n      swap3\n      swap2\n      swap1\n      tag_68\n      jump\t// in\n        /* \"contracts/FileStorage.sol\":2909:3149  function changeFilePermission(string memory _filename, address _addr, uint8 _mode) external fileExists(_filename) {... */\n    tag_15:\n      tag_18\n      tag_70\n      calldatasize\n      0x04\n      tag_71\n      jump\t// in\n    tag_70:\n      tag_72\n      jump\t// in\n        /* \"contracts/FileStorage.sol\":1463:1748  function renameFile(string memory _oldName, string memory _newName) external fileExists(_oldName) {... */\n    tag_21:\n        /* \"contracts/FileStorage.sol\":1551:1559  _oldName */\n      dup2\n        /* \"contracts/FileStorage.sol\":635:640  files */\n      0x01\n        /* \"contracts/FileStorage.sol\":641:650  _filename */\n      dup2\n        /* \"contracts/FileStorage.sol\":635:651  files[_filename] */\n      mload(0x40)\n      tag_74\n      swap2\n      swap1\n      tag_75\n      jump\t// in\n    tag_74:\n      swap1\n      dup2\n      mstore\n      mload(0x40)\n      swap1\n      dup2\n      swap1\n      sub\n      0x20\n      add\n      swap1\n      keccak256\n        /* \"contracts/FileStorage.sol\":635:658  files[_filename].exists */\n      0x02\n      add\n      sload\n      0xff\n      and\n        /* \"contracts/FileStorage.sol\":627:682  require(files[_filename].exists, \"File does not exist\") */\n      tag_76\n      jumpi\n      mload(0x40)\n      shl(0xe5, 0x461bcd)\n      dup2\n      mstore\n      0x04\n      add\n      tag_77\n      swap1\n      tag_78\n      jump\t// in\n    tag_77:\n      mload(0x40)\n      dup1\n      swap2\n      sub\n      swap1\n      revert\n    tag_76:\n        /* \"contracts/FileStorage.sol\":1581:1586  files */\n      0x01\n        /* \"contracts/FileStorage.sol\":1587:1595  _newName */\n      dup3\n        /* \"contracts/FileStorage.sol\":1581:1596  files[_newName] */\n      mload(0x40)\n      tag_80\n      swap2\n      swap1\n      tag_75\n      jump\t// in\n    tag_80:\n      swap1\n      dup2\n      mstore\n      mload(0x40)\n      swap1\n      dup2\n      swap1\n      sub\n      0x20\n      add\n      swap1\n      keccak256\n        /* \"contracts/FileStorage.sol\":1581:1603  files[_newName].exists */\n      0x02\n      add\n      sload\n      0xff\n      and\n        /* \"contracts/FileStorage.sol\":1580:1603  !files[_newName].exists */\n      iszero\n        /* \"contracts/FileStorage.sol\":1572:1626  require(!files[_newName].exists, \"Name not available\") */\n      tag_81\n      jumpi\n      mload(0x40)\n      shl(0xe5, 0x461bcd)\n      dup2\n      mstore\n        /* \"#utility.yul\":6973:6975   */\n      0x20\n        /* \"contracts/FileStorage.sol\":1572:1626  require(!files[_newName].exists, \"Name not available\") */\n      0x04\n      dup3\n      add\n        /* \"#utility.yul\":6955:6976   */\n      mstore\n        /* \"#utility.yul\":7012:7014   */\n      0x12\n        /* \"#utility.yul\":6992:7010   */\n      0x24\n      dup3\n      add\n        /* \"#utility.yul\":6985:7015   */\n      mstore\n      shl(0x70, 0x4e616d65206e6f7420617661696c61626c65)\n        /* \"#utility.yul\":7031:7049   */\n      0x44\n      dup3\n      add\n        /* \"#utility.yul\":7024:7072   */\n      mstore\n        /* \"#utility.yul\":7089:7107   */\n      0x64\n      add\n        /* \"contracts/FileStorage.sol\":1572:1626  require(!files[_newName].exists, \"Name not available\") */\n      tag_77\n        /* \"#utility.yul\":6771:7113   */\n      jump\n        /* \"contracts/FileStorage.sol\":1572:1626  require(!files[_newName].exists, \"Name not available\") */\n    tag_81:\n        /* \"contracts/FileStorage.sol\":1637:1654  File storage file */\n      0x00\n        /* \"contracts/FileStorage.sol\":1657:1662  files */\n      0x01\n        /* \"contracts/FileStorage.sol\":1663:1671  _oldName */\n      dup5\n        /* \"contracts/FileStorage.sol\":1657:1672  files[_oldName] */\n      mload(0x40)\n      tag_84\n      swap2\n      swap1\n      tag_75\n      jump\t// in\n    tag_84:\n      swap1\n      dup2\n      mstore\n      0x20\n      add\n      mload(0x40)\n      dup1\n      swap2\n      sub\n      swap1\n      keccak256\n        /* \"contracts/FileStorage.sol\":1637:1672  File storage file = files[_oldName] */\n      swap1\n      pop\n        /* \"contracts/FileStorage.sol\":1690:1695  files */\n      0x01\n        /* \"contracts/FileStorage.sol\":1696:1704  _oldName */\n      dup5\n        /* \"contracts/FileStorage.sol\":1690:1705  files[_oldName] */\n      mload(0x40)\n      tag_85\n      swap2\n      swap1\n      tag_75\n      jump\t// in\n    tag_85:\n      swap1\n      dup2\n      mstore\n      mload(0x40)\n      swap1\n      dup2\n      swap1\n      sub\n      0x20\n      add\n      swap1\n      keccak256\n      0x00\n        /* \"contracts/FileStorage.sol\":1683:1705  delete files[_oldName] */\n      tag_86\n        /* \"contracts/FileStorage.sol\":1690:1705  files[_oldName] */\n      dup3\n      dup3\n        /* \"contracts/FileStorage.sol\":1683:1705  delete files[_oldName] */\n      tag_87\n      jump\t// in\n    tag_86:\n      tag_88\n      0x01\n      dup4\n      add\n      0x00\n      tag_87\n      jump\t// in\n    tag_88:\n      pop\n      0x02\n      add\n      dup1\n      sload\n      not(sub(shl(0xa8, 0x01), 0x01))\n      and\n      swap1\n      sstore\n        /* \"contracts/FileStorage.sol\":1716:1720  file */\n      dup1\n        /* \"contracts/FileStorage.sol\":1716:1740  file.filename = _newName */\n      tag_89\n        /* \"contracts/FileStorage.sol\":1732:1740  _newName */\n      dup5\n        /* \"contracts/FileStorage.sol\":1716:1720  file */\n      dup3\n        /* \"contracts/FileStorage.sol\":1716:1740  file.filename = _newName */\n      tag_90\n      jump\t// in\n    tag_89:\n      pop\n        /* \"contracts/FileStorage.sol\":1561:1748  {... */\n      pop\n        /* \"contracts/FileStorage.sol\":1463:1748  function renameFile(string memory _oldName, string memory _newName) external fileExists(_oldName) {... */\n      pop\n      pop\n      pop\n      jump\t// out\n        /* \"contracts/FileStorage.sol\":4053:4206  function getFileOwner(string memory _filename) external view fileExists(_filename) returns (address) {... */\n    tag_25:\n        /* \"contracts/FileStorage.sol\":4145:4152  address */\n      0x00\n        /* \"contracts/FileStorage.sol\":4125:4134  _filename */\n      dup2\n        /* \"contracts/FileStorage.sol\":635:640  files */\n      0x01\n        /* \"contracts/FileStorage.sol\":641:650  _filename */\n      dup2\n        /* \"contracts/FileStorage.sol\":635:651  files[_filename] */\n      mload(0x40)\n      tag_92\n      swap2\n      swap1\n      tag_75\n      jump\t// in\n    tag_92:\n      swap1\n      dup2\n      mstore\n      mload(0x40)\n      swap1\n      dup2\n      swap1\n      sub\n      0x20\n      add\n      swap1\n      keccak256\n        /* \"contracts/FileStorage.sol\":635:658  files[_filename].exists */\n      0x02\n      add\n      sload\n      0xff\n      and\n        /* \"contracts/FileStorage.sol\":627:682  require(files[_filename].exists, \"File does not exist\") */\n      tag_93\n      jumpi\n      mload(0x40)\n      shl(0xe5, 0x461bcd)\n      dup2\n      mstore\n      0x04\n      add\n      tag_77\n      swap1\n      tag_78\n      jump\t// in\n    tag_93:\n        /* \"contracts/FileStorage.sol\":4172:4177  files */\n      0x01\n        /* \"contracts/FileStorage.sol\":4178:4187  _filename */\n      dup4\n        /* \"contracts/FileStorage.sol\":4172:4188  files[_filename] */\n      mload(0x40)\n      tag_96\n      swap2\n      swap1\n      tag_75\n      jump\t// in\n    tag_96:\n      swap1\n      dup2\n      mstore\n      mload(0x40)\n      swap1\n      dup2\n      swap1\n      sub\n      0x20\n      add\n      swap1\n      keccak256\n        /* \"contracts/FileStorage.sol\":4172:4198  files[_filename].fileOwner */\n      0x02\n      add\n      sload\n      sub(shl(0xa0, 0x01), 0x01)\n      0x0100\n      swap1\n      swap2\n      div\n      and\n      swap2\n      pop\n        /* \"contracts/FileStorage.sol\":693:694  _ */\n    tag_95:\n        /* \"contracts/FileStorage.sol\":4053:4206  function getFileOwner(string memory _filename) external view fileExists(_filename) returns (address) {... */\n      pop\n      swap2\n      swap1\n      pop\n      jump\t// out\n        /* \"contracts/FileStorage.sol\":3189:3421  function readFile(string memory _filename) external view fileExists(_filename) returns (string memory) {... */\n    tag_34:\n        /* \"contracts/FileStorage.sol\":3277:3290  string memory */\n      0x60\n        /* \"contracts/FileStorage.sol\":3257:3266  _filename */\n      dup2\n        /* \"contracts/FileStorage.sol\":635:640  files */\n      0x01\n        /* \"contracts/FileStorage.sol\":641:650  _filename */\n      dup2\n        /* \"contracts/FileStorage.sol\":635:651  files[_filename] */\n      mload(0x40)\n      tag_98\n      swap2\n      swap1\n      tag_75\n      jump\t// in\n    tag_98:\n      swap1\n      dup2\n      mstore\n      mload(0x40)\n      swap1\n      dup2\n      swap1\n      sub\n      0x20\n      add\n      swap1\n      keccak256\n        /* \"contracts/FileStorage.sol\":635:658  files[_filename].exists */\n      0x02\n      add\n      sload\n      0xff\n      and\n        /* \"contracts/FileStorage.sol\":627:682  require(files[_filename].exists, \"File does not exist\") */\n      tag_99\n      jumpi\n      mload(0x40)\n      shl(0xe5, 0x461bcd)\n      dup2\n      mstore\n      0x04\n      add\n      tag_77\n      swap1\n      tag_78\n      jump\t// in\n    tag_99:\n        /* \"contracts/FileStorage.sol\":3389:3394  files */\n      0x01\n        /* \"contracts/FileStorage.sol\":3395:3404  _filename */\n      dup4\n        /* \"contracts/FileStorage.sol\":3389:3405  files[_filename] */\n      mload(0x40)\n      tag_102\n      swap2\n      swap1\n      tag_75\n      jump\t// in\n    tag_102:\n      swap1\n      dup2\n      mstore\n      0x20\n      add\n      mload(0x40)\n      dup1\n      swap2\n      sub\n      swap1\n      keccak256\n        /* \"contracts/FileStorage.sol\":3389:3413  files[_filename].content */\n      0x01\n      add\n        /* \"contracts/FileStorage.sol\":3382:3413  return files[_filename].content */\n      dup1\n      sload\n      tag_103\n      swap1\n      tag_104\n      jump\t// in\n    tag_103:\n      dup1\n      0x1f\n      add\n      0x20\n      dup1\n      swap2\n      div\n      mul\n      0x20\n      add\n      mload(0x40)\n      swap1\n      dup2\n      add\n      0x40\n      mstore\n      dup1\n      swap3\n      swap2\n      swap1\n      dup2\n      dup2\n      mstore\n      0x20\n      add\n      dup3\n      dup1\n      sload\n      tag_105\n      swap1\n      tag_104\n      jump\t// in\n    tag_105:\n      dup1\n      iszero\n      tag_106\n      jumpi\n      dup1\n      0x1f\n      lt\n      tag_107\n      jumpi\n      0x0100\n      dup1\n      dup4\n      sload\n      div\n      mul\n      dup4\n      mstore\n      swap2\n      0x20\n      add\n      swap2\n      jump(tag_106)\n    tag_107:\n      dup3\n      add\n      swap2\n      swap1\n      0x00\n      mstore\n      keccak256(0x00, 0x20)\n      swap1\n    tag_108:\n      dup2\n      sload\n      dup2\n      mstore\n      swap1\n      0x01\n      add\n      swap1\n      0x20\n      add\n      dup1\n      dup4\n      gt\n      tag_108\n      jumpi\n      dup3\n      swap1\n      sub\n      0x1f\n      and\n      dup3\n      add\n      swap2\n    tag_106:\n      pop\n      pop\n      pop\n      pop\n      pop\n      swap2\n      pop\n        /* \"contracts/FileStorage.sol\":3189:3421  function readFile(string memory _filename) external view fileExists(_filename) returns (string memory) {... */\n      pop\n      swap2\n      swap1\n      pop\n      jump\t// out\n        /* \"contracts/FileStorage.sol\":3429:3743  function viewFilePermission(string memory _filename, address _addr) external view fileExists(_filename) returns (string memory) {... */\n    tag_40:\n        /* \"contracts/FileStorage.sol\":3542:3555  string memory */\n      0x60\n        /* \"contracts/FileStorage.sol\":3522:3531  _filename */\n      dup3\n        /* \"contracts/FileStorage.sol\":635:640  files */\n      0x01\n        /* \"contracts/FileStorage.sol\":641:650  _filename */\n      dup2\n        /* \"contracts/FileStorage.sol\":635:651  files[_filename] */\n      mload(0x40)\n      tag_110\n      swap2\n      swap1\n      tag_75\n      jump\t// in\n    tag_110:\n      swap1\n      dup2\n      mstore\n      mload(0x40)\n      swap1\n      dup2\n      swap1\n      sub\n      0x20\n      add\n      swap1\n      keccak256\n        /* \"contracts/FileStorage.sol\":635:658  files[_filename].exists */\n      0x02\n      add\n      sload\n      0xff\n      and\n        /* \"contracts/FileStorage.sol\":627:682  require(files[_filename].exists, \"File does not exist\") */\n      tag_111\n      jumpi\n      mload(0x40)\n      shl(0xe5, 0x461bcd)\n      dup2\n      mstore\n      0x04\n      add\n      tag_77\n      swap1\n      tag_78\n      jump\t// in\n    tag_111:\n        /* \"contracts/FileStorage.sol\":3568:3671  string[4] memory mode_description = [\"No access\", \"Read only\", \"Read & append\", \"Read, append & write\"] */\n      0x40\n      dup1\n      mload\n      0xc0\n      dup2\n      add\n      dup3\n      mstore\n      0x09\n      0x80\n      dup3\n      add\n      dup2\n      dup2\n      mstore\n      shl(0xb8, 0x4e6f20616363657373)\n      0xa0\n      dup5\n      add\n      mstore\n      dup3\n      mstore\n      dup3\n      mload\n      dup1\n      dup5\n      add\n      dup5\n      mstore\n      swap1\n      dup2\n      mstore\n      shl(0xb8, 0x52656164206f6e6c79)\n      0x20\n      dup3\n      dup2\n      add\n      swap2\n      swap1\n      swap2\n      mstore\n      dup1\n      dup4\n      add\n      swap2\n      swap1\n      swap2\n      mstore\n      dup3\n      mload\n      dup1\n      dup5\n      add\n      dup5\n      mstore\n      0x0d\n      dup2\n      mstore\n      shl(0x9a, 0x14995859080988185c1c195b99)\n      dup2\n      dup4\n      add\n      mstore\n      dup3\n      dup5\n      add\n      mstore\n      dup3\n      mload\n      dup1\n      dup5\n      add\n      dup5\n      mstore\n      0x14\n      dup2\n      mstore\n      shl(0x60, 0x526561642c20617070656e642026207772697465)\n      swap2\n      dup2\n      add\n      swap2\n      swap1\n      swap2\n      mstore\n      0x60\n      dup3\n      add\n      mstore\n        /* \"contracts/FileStorage.sol\":3706:3722  files[_filename] */\n      swap1\n      mload\n        /* \"contracts/FileStorage.sol\":3568:3671  string[4] memory mode_description = [\"No access\", \"Read only\", \"Read & append\", \"Read, append & write\"] */\n      dup2\n      swap1\n        /* \"contracts/FileStorage.sol\":3706:3711  files */\n      0x01\n      swap1\n        /* \"contracts/FileStorage.sol\":3706:3722  files[_filename] */\n      tag_114\n      swap1\n        /* \"contracts/FileStorage.sol\":3712:3721  _filename */\n      dup9\n      swap1\n        /* \"contracts/FileStorage.sol\":3706:3722  files[_filename] */\n      tag_75\n      jump\t// in\n    tag_114:\n      swap1\n      dup2\n      mstore\n      0x40\n      dup1\n      mload\n      0x20\n      swap3\n      dup2\n      swap1\n      sub\n      dup4\n      add\n      swap1\n      keccak256\n      sub(shl(0xa0, 0x01), 0x01)\n        /* \"contracts/FileStorage.sol\":3706:3734  files[_filename].mode[_addr] */\n      dup9\n      and\n      0x00\n      swap1\n      dup2\n      mstore\n        /* \"contracts/FileStorage.sol\":3706:3727  files[_filename].mode */\n      0x03\n      swap1\n      swap2\n      add\n        /* \"contracts/FileStorage.sol\":3706:3734  files[_filename].mode[_addr] */\n      swap1\n      swap3\n      mstore\n      swap1\n      keccak256\n      sload\n      0xff\n      and\n        /* \"contracts/FileStorage.sol\":3689:3735  mode_description[files[_filename].mode[_addr]] */\n      0x04\n      dup2\n      lt\n      tag_116\n      jumpi\n      tag_116\n      tag_117\n      jump\t// in\n    tag_116:\n      0x20\n      mul\n      add\n      mload\n      swap6\n        /* \"contracts/FileStorage.sol\":3429:3743  function viewFilePermission(string memory _filename, address _addr) external view fileExists(_filename) returns (string memory) {... */\n      swap5\n      pop\n      pop\n      pop\n      pop\n      pop\n      jump\t// out\n        /* \"contracts/FileStorage.sol\":2104:2343  function writeFile(string memory _filename, string memory _newContent) external fileExists(_filename) {... */\n    tag_44:\n        /* \"contracts/FileStorage.sol\":2195:2204  _filename */\n      dup2\n        /* \"contracts/FileStorage.sol\":635:640  files */\n      0x01\n        /* \"contracts/FileStorage.sol\":641:650  _filename */\n      dup2\n        /* \"contracts/FileStorage.sol\":635:651  files[_filename] */\n      mload(0x40)\n      tag_119\n      swap2\n      swap1\n      tag_75\n      jump\t// in\n    tag_119:\n      swap1\n      dup2\n      mstore\n      mload(0x40)\n      swap1\n      dup2\n      swap1\n      sub\n      0x20\n      add\n      swap1\n      keccak256\n        /* \"contracts/FileStorage.sol\":635:658  files[_filename].exists */\n      0x02\n      add\n      sload\n      0xff\n      and\n        /* \"contracts/FileStorage.sol\":627:682  require(files[_filename].exists, \"File does not exist\") */\n      tag_120\n      jumpi\n      mload(0x40)\n      shl(0xe5, 0x461bcd)\n      dup2\n      mstore\n      0x04\n      add\n      tag_77\n      swap1\n      tag_78\n      jump\t// in\n    tag_120:\n        /* \"contracts/FileStorage.sol\":2324:2335  _newContent */\n      dup2\n        /* \"contracts/FileStorage.sol\":2297:2302  files */\n      0x01\n        /* \"contracts/FileStorage.sol\":2303:2312  _filename */\n      dup5\n        /* \"contracts/FileStorage.sol\":2297:2313  files[_filename] */\n      mload(0x40)\n      tag_123\n      swap2\n      swap1\n      tag_75\n      jump\t// in\n    tag_123:\n      swap1\n      dup2\n      mstore\n      0x20\n      add\n      mload(0x40)\n      dup1\n      swap2\n      sub\n      swap1\n      keccak256\n        /* \"contracts/FileStorage.sol\":2297:2321  files[_filename].content */\n      0x01\n      add\n        /* \"contracts/FileStorage.sol\":2297:2335  files[_filename].content = _newContent */\n      swap1\n      dup2\n      tag_124\n      swap2\n      swap1\n      tag_90\n      jump\t// in\n    tag_124:\n      pop\n        /* \"contracts/FileStorage.sol\":2104:2343  function writeFile(string memory _filename, string memory _newContent) external fileExists(_filename) {... */\n      pop\n      pop\n      pop\n      jump\t// out\n        /* \"contracts/FileStorage.sol\":2373:2850  function deleteFile(string memory _filename) external fileExists(_filename) {... */\n    tag_47:\n        /* \"contracts/FileStorage.sol\":2438:2447  _filename */\n      dup1\n        /* \"contracts/FileStorage.sol\":635:640  files */\n      0x01\n        /* \"contracts/FileStorage.sol\":641:650  _filename */\n      dup2\n        /* \"contracts/FileStorage.sol\":635:651  files[_filename] */\n      mload(0x40)\n      tag_126\n      swap2\n      swap1\n      tag_75\n      jump\t// in\n    tag_126:\n      swap1\n      dup2\n      mstore\n      mload(0x40)\n      swap1\n      dup2\n      swap1\n      sub\n      0x20\n      add\n      swap1\n      keccak256\n        /* \"contracts/FileStorage.sol\":635:658  files[_filename].exists */\n      0x02\n      add\n      sload\n      0xff\n      and\n        /* \"contracts/FileStorage.sol\":627:682  require(files[_filename].exists, \"File does not exist\") */\n      tag_127\n      jumpi\n      mload(0x40)\n      shl(0xe5, 0x461bcd)\n      dup2\n      mstore\n      0x04\n      add\n      tag_77\n      swap1\n      tag_78\n      jump\t// in\n    tag_127:\n        /* \"contracts/FileStorage.sol\":2467:2472  files */\n      0x01\n        /* \"contracts/FileStorage.sol\":2473:2482  _filename */\n      dup3\n        /* \"contracts/FileStorage.sol\":2467:2483  files[_filename] */\n      mload(0x40)\n      tag_130\n      swap2\n      swap1\n      tag_75\n      jump\t// in\n    tag_130:\n      swap1\n      dup2\n      mstore\n      mload(0x40)\n      swap1\n      dup2\n      swap1\n      sub\n      0x20\n      add\n      swap1\n      keccak256\n      0x00\n        /* \"contracts/FileStorage.sol\":2460:2483  delete files[_filename] */\n      tag_131\n        /* \"contracts/FileStorage.sol\":2467:2483  files[_filename] */\n      dup3\n      dup3\n        /* \"contracts/FileStorage.sol\":2460:2483  delete files[_filename] */\n      tag_87\n      jump\t// in\n    tag_131:\n      tag_132\n      0x01\n      dup4\n      add\n      0x00\n      tag_87\n      jump\t// in\n    tag_132:\n      pop\n      0x02\n      add\n      dup1\n      sload\n      not(sub(shl(0xa8, 0x01), 0x01))\n      and\n      swap1\n      sstore\n      0x00\n        /* \"contracts/FileStorage.sol\":2528:2821  for (uint i = 0; i < fileList.length; i++) {... */\n    tag_133:\n        /* \"contracts/FileStorage.sol\":2549:2557  fileList */\n      0x02\n        /* \"contracts/FileStorage.sol\":2549:2564  fileList.length */\n      sload\n        /* \"contracts/FileStorage.sol\":2545:2564  i < fileList.length */\n      dup2\n      lt\n        /* \"contracts/FileStorage.sol\":2528:2821  for (uint i = 0; i < fileList.length; i++) {... */\n      iszero\n      tag_134\n      jumpi\n        /* \"contracts/FileStorage.sol\":2661:2670  _filename */\n      dup3\n        /* \"contracts/FileStorage.sol\":2644:2671  abi.encodePacked(_filename) */\n      add(0x20, mload(0x40))\n      tag_136\n      swap2\n      swap1\n      tag_75\n      jump\t// in\n    tag_136:\n      mload(0x40)\n      0x20\n      dup2\n      dup4\n      sub\n      sub\n      dup2\n      mstore\n      swap1\n      0x40\n      mstore\n        /* \"contracts/FileStorage.sol\":2634:2672  keccak256(abi.encodePacked(_filename)) */\n      dup1\n      mload\n      swap1\n      0x20\n      add\n      keccak256\n        /* \"contracts/FileStorage.sol\":2617:2625  fileList */\n      0x02\n        /* \"contracts/FileStorage.sol\":2626:2627  i */\n      dup3\n        /* \"contracts/FileStorage.sol\":2617:2628  fileList[i] */\n      dup2\n      sload\n      dup2\n      lt\n      tag_138\n      jumpi\n      tag_138\n      tag_117\n      jump\t// in\n    tag_138:\n      swap1\n      0x00\n      mstore\n      keccak256(0x00, 0x20)\n      add\n        /* \"contracts/FileStorage.sol\":2600:2629  abi.encodePacked(fileList[i]) */\n      add(0x20, mload(0x40))\n      tag_140\n      swap2\n      swap1\n      tag_141\n      jump\t// in\n    tag_140:\n      mload(0x40)\n      0x20\n      dup2\n      dup4\n      sub\n      sub\n      dup2\n      mstore\n      swap1\n      0x40\n      mstore\n        /* \"contracts/FileStorage.sol\":2590:2630  keccak256(abi.encodePacked(fileList[i])) */\n      dup1\n      mload\n      swap1\n      0x20\n      add\n      keccak256\n        /* \"contracts/FileStorage.sol\":2590:2672  keccak256(abi.encodePacked(fileList[i])) == keccak256(abi.encodePacked(_filename)) */\n      sub\n        /* \"contracts/FileStorage.sol\":2586:2810  if (keccak256(abi.encodePacked(fileList[i])) == keccak256(abi.encodePacked(_filename))) {... */\n      tag_142\n      jumpi\n        /* \"contracts/FileStorage.sol\":2707:2715  fileList */\n      0x02\n        /* \"contracts/FileStorage.sol\":2716:2731  fileList.length */\n      dup1\n      sload\n        /* \"contracts/FileStorage.sol\":2716:2735  fileList.length - 1 */\n      tag_143\n      swap1\n        /* \"contracts/FileStorage.sol\":2734:2735  1 */\n      0x01\n      swap1\n        /* \"contracts/FileStorage.sol\":2716:2735  fileList.length - 1 */\n      tag_144\n      jump\t// in\n    tag_143:\n        /* \"contracts/FileStorage.sol\":2707:2736  fileList[fileList.length - 1] */\n      dup2\n      sload\n      dup2\n      lt\n      tag_146\n      jumpi\n      tag_146\n      tag_117\n      jump\t// in\n    tag_146:\n      swap1\n      0x00\n      mstore\n      keccak256(0x00, 0x20)\n      add\n        /* \"contracts/FileStorage.sol\":2693:2701  fileList */\n      0x02\n        /* \"contracts/FileStorage.sol\":2702:2703  i */\n      dup3\n        /* \"contracts/FileStorage.sol\":2693:2704  fileList[i] */\n      dup2\n      sload\n      dup2\n      lt\n      tag_149\n      jumpi\n      tag_149\n      tag_117\n      jump\t// in\n    tag_149:\n      swap1\n      0x00\n      mstore\n      keccak256(0x00, 0x20)\n      add\n        /* \"contracts/FileStorage.sol\":2693:2736  fileList[i] = fileList[fileList.length - 1] */\n      swap1\n      dup2\n      tag_151\n      swap2\n      swap1\n      tag_152\n      jump\t// in\n    tag_151:\n      pop\n        /* \"contracts/FileStorage.sol\":2756:2764  fileList */\n      0x02\n        /* \"contracts/FileStorage.sol\":2756:2770  fileList.pop() */\n      dup1\n      sload\n      dup1\n      tag_154\n      jumpi\n      tag_154\n      tag_155\n      jump\t// in\n    tag_154:\n      0x01\n      swap1\n      sub\n      dup2\n      dup2\n      swap1\n      0x00\n      mstore\n      keccak256(0x00, 0x20)\n      add\n      0x00\n      tag_157\n      swap2\n      swap1\n      tag_87\n      jump\t// in\n    tag_157:\n      swap1\n      sstore\n        /* \"contracts/FileStorage.sol\":2789:2794  break */\n      jump(tag_134)\n        /* \"contracts/FileStorage.sol\":2586:2810  if (keccak256(abi.encodePacked(fileList[i])) == keccak256(abi.encodePacked(_filename))) {... */\n    tag_142:\n        /* \"contracts/FileStorage.sol\":2566:2569  i++ */\n      0x01\n      add\n        /* \"contracts/FileStorage.sol\":2528:2821  for (uint i = 0; i < fileList.length; i++) {... */\n      jump(tag_133)\n    tag_134:\n      pop\n        /* \"contracts/FileStorage.sol\":2831:2840  fileCount */\n      0x00\n        /* \"contracts/FileStorage.sol\":2831:2842  fileCount-- */\n      dup1\n      sload\n      swap1\n        /* \"contracts/FileStorage.sol\":2831:2840  fileCount */\n      dup1\n        /* \"contracts/FileStorage.sol\":2831:2842  fileCount-- */\n      tag_158\n      dup4\n      tag_159\n      jump\t// in\n    tag_158:\n      swap2\n      swap1\n      pop\n      sstore\n      pop\n        /* \"contracts/FileStorage.sol\":2373:2850  function deleteFile(string memory _filename) external fileExists(_filename) {... */\n      pop\n      pop\n      jump\t// out\n        /* \"contracts/FileStorage.sol\":3777:3872  function listFiles() external view returns (string[] memory) {... */\n    tag_49:\n        /* \"contracts/FileStorage.sol\":3821:3836  string[] memory */\n      0x60\n        /* \"contracts/FileStorage.sol\":3856:3864  fileList */\n      0x02\n        /* \"contracts/FileStorage.sol\":3849:3864  return fileList */\n      dup1\n      sload\n      dup1\n      0x20\n      mul\n      0x20\n      add\n      mload(0x40)\n      swap1\n      dup2\n      add\n      0x40\n      mstore\n      dup1\n      swap3\n      swap2\n      swap1\n      dup2\n      dup2\n      mstore\n      0x20\n      add\n      0x00\n      swap1\n    tag_161:\n      dup3\n      dup3\n      lt\n      iszero\n      tag_162\n      jumpi\n      dup4\n      dup3\n      swap1\n      0x00\n      mstore\n      keccak256(0x00, 0x20)\n      add\n      dup1\n      sload\n      tag_164\n      swap1\n      tag_104\n      jump\t// in\n    tag_164:\n      dup1\n      0x1f\n      add\n      0x20\n      dup1\n      swap2\n      div\n      mul\n      0x20\n      add\n      mload(0x40)\n      swap1\n      dup2\n      add\n      0x40\n      mstore\n      dup1\n      swap3\n      swap2\n      swap1\n      dup2\n      dup2\n      mstore\n      0x20\n      add\n      dup3\n      dup1\n      sload\n      tag_165\n      swap1\n      tag_104\n      jump\t// in\n    tag_165:\n      dup1\n      iszero\n      tag_166\n      jumpi\n      dup1\n      0x1f\n      lt\n      tag_167\n      jumpi\n      0x0100\n      dup1\n      dup4\n      sload\n      div\n      mul\n      dup4\n      mstore\n      swap2\n      0x20\n      add\n      swap2\n      jump(tag_166)\n    tag_167:\n      dup3\n      add\n      swap2\n      swap1\n      0x00\n      mstore\n      keccak256(0x00, 0x20)\n      swap1\n    tag_168:\n      dup2\n      sload\n      dup2\n      mstore\n      swap1\n      0x01\n      add\n      swap1\n      0x20\n      add\n      dup1\n      dup4\n      gt\n      tag_168\n      jumpi\n      dup3\n      swap1\n      sub\n      0x1f\n      and\n      dup3\n      add\n      swap2\n    tag_166:\n      pop\n      pop\n      pop\n      pop\n      pop\n      dup2\n      mstore\n      0x20\n      add\n      swap1\n      0x01\n      add\n      swap1\n      jump(tag_161)\n    tag_162:\n      pop\n      pop\n      pop\n      pop\n      swap1\n      pop\n        /* \"contracts/FileStorage.sol\":3777:3872  function listFiles() external view returns (string[] memory) {... */\n      swap1\n      jump\t// out\n        /* \"contracts/FileStorage.sol\":1781:2071  function appendToFile(string memory _filename, string memory _newContent) external fileExists(_filename) {... */\n    tag_54:\n        /* \"contracts/FileStorage.sol\":1875:1884  _filename */\n      dup2\n        /* \"contracts/FileStorage.sol\":635:640  files */\n      0x01\n        /* \"contracts/FileStorage.sol\":641:650  _filename */\n      dup2\n        /* \"contracts/FileStorage.sol\":635:651  files[_filename] */\n      mload(0x40)\n      tag_170\n      swap2\n      swap1\n      tag_75\n      jump\t// in\n    tag_170:\n      swap1\n      dup2\n      mstore\n      mload(0x40)\n      swap1\n      dup2\n      swap1\n      sub\n      0x20\n      add\n      swap1\n      keccak256\n        /* \"contracts/FileStorage.sol\":635:658  files[_filename].exists */\n      0x02\n      add\n      sload\n      0xff\n      and\n        /* \"contracts/FileStorage.sol\":627:682  require(files[_filename].exists, \"File does not exist\") */\n      tag_171\n      jumpi\n      mload(0x40)\n      shl(0xe5, 0x461bcd)\n      dup2\n      mstore\n      0x04\n      add\n      tag_77\n      swap1\n      tag_78\n      jump\t// in\n    tag_171:\n        /* \"contracts/FileStorage.sol\":2019:2024  files */\n      0x01\n        /* \"contracts/FileStorage.sol\":2025:2034  _filename */\n      dup4\n        /* \"contracts/FileStorage.sol\":2019:2035  files[_filename] */\n      mload(0x40)\n      tag_174\n      swap2\n      swap1\n      tag_75\n      jump\t// in\n    tag_174:\n      swap1\n      dup2\n      mstore\n      0x20\n      add\n      mload(0x40)\n      dup1\n      swap2\n      sub\n      swap1\n      keccak256\n        /* \"contracts/FileStorage.sol\":2019:2043  files[_filename].content */\n      0x01\n      add\n        /* \"contracts/FileStorage.sol\":2051:2062  _newContent */\n      dup3\n        /* \"contracts/FileStorage.sol\":2005:2063  string.concat(files[_filename].content, \"\\n\", _newContent) */\n      add(0x20, mload(0x40))\n      tag_175\n      swap3\n      swap2\n      swap1\n      tag_176\n      jump\t// in\n    tag_175:\n      mload(0x40)\n      0x20\n      dup2\n      dup4\n      sub\n      sub\n      dup2\n      mstore\n      swap1\n      0x40\n      mstore\n        /* \"contracts/FileStorage.sol\":1978:1983  files */\n      0x01\n        /* \"contracts/FileStorage.sol\":1984:1993  _filename */\n      dup5\n        /* \"contracts/FileStorage.sol\":1978:1994  files[_filename] */\n      mload(0x40)\n      tag_123\n      swap2\n      swap1\n      tag_75\n      jump\t// in\n        /* \"contracts/FileStorage.sol\":852:1433  function createFile(string memory _filename, address _addr, string memory _content) external notExceedFileLimit {... */\n    tag_58:\n        /* \"contracts/FileStorage.sol\":757:766  fileCount */\n      sload(0x00)\n        /* \"contracts/FileStorage.sol\":140:142  50 */\n      0x32\n      gt\n        /* \"contracts/FileStorage.sol\":749:802  require(fileCount < MAX_FILES, \"Exceeded file limit\") */\n      tag_180\n      jumpi\n      mload(0x40)\n      shl(0xe5, 0x461bcd)\n      dup2\n      mstore\n        /* \"#utility.yul\":13222:13224   */\n      0x20\n        /* \"contracts/FileStorage.sol\":749:802  require(fileCount < MAX_FILES, \"Exceeded file limit\") */\n      0x04\n      dup3\n      add\n        /* \"#utility.yul\":13204:13225   */\n      mstore\n        /* \"#utility.yul\":13261:13263   */\n      0x13\n        /* \"#utility.yul\":13241:13259   */\n      0x24\n      dup3\n      add\n        /* \"#utility.yul\":13234:13264   */\n      mstore\n      shl(0x6a, 0x115e18d95959195908199a5b19481b1a5b5a5d)\n        /* \"#utility.yul\":13280:13298   */\n      0x44\n      dup3\n      add\n        /* \"#utility.yul\":13273:13322   */\n      mstore\n        /* \"#utility.yul\":13339:13357   */\n      0x64\n      add\n        /* \"contracts/FileStorage.sol\":749:802  require(fileCount < MAX_FILES, \"Exceeded file limit\") */\n      tag_77\n        /* \"#utility.yul\":13020:13363   */\n      jump\n        /* \"contracts/FileStorage.sol\":749:802  require(fileCount < MAX_FILES, \"Exceeded file limit\") */\n    tag_180:\n        /* \"contracts/FileStorage.sol\":1009:1010  0 */\n      0x00\n        /* \"contracts/FileStorage.sol\":989:998  _filename */\n      dup4\n        /* \"contracts/FileStorage.sol\":983:1006  bytes(_filename).length */\n      mload\n        /* \"contracts/FileStorage.sol\":983:1010  bytes(_filename).length > 0 */\n      gt\n        /* \"contracts/FileStorage.sol\":975:1039  require(bytes(_filename).length > 0, \"Filename cannot be empty\") */\n      tag_184\n      jumpi\n      mload(0x40)\n      shl(0xe5, 0x461bcd)\n      dup2\n      mstore\n        /* \"#utility.yul\":13570:13572   */\n      0x20\n        /* \"contracts/FileStorage.sol\":975:1039  require(bytes(_filename).length > 0, \"Filename cannot be empty\") */\n      0x04\n      dup3\n      add\n        /* \"#utility.yul\":13552:13573   */\n      mstore\n        /* \"#utility.yul\":13609:13611   */\n      0x18\n        /* \"#utility.yul\":13589:13607   */\n      0x24\n      dup3\n      add\n        /* \"#utility.yul\":13582:13612   */\n      mstore\n        /* \"#utility.yul\":13648:13674   */\n      0x46696c656e616d652063616e6e6f7420626520656d7074790000000000000000\n        /* \"#utility.yul\":13628:13646   */\n      0x44\n      dup3\n      add\n        /* \"#utility.yul\":13621:13675   */\n      mstore\n        /* \"#utility.yul\":13692:13710   */\n      0x64\n      add\n        /* \"contracts/FileStorage.sol\":975:1039  require(bytes(_filename).length > 0, \"Filename cannot be empty\") */\n      tag_77\n        /* \"#utility.yul\":13368:13716   */\n      jump\n        /* \"contracts/FileStorage.sol\":975:1039  require(bytes(_filename).length > 0, \"Filename cannot be empty\") */\n    tag_184:\n        /* \"contracts/FileStorage.sol\":1059:1064  files */\n      0x01\n        /* \"contracts/FileStorage.sol\":1065:1074  _filename */\n      dup4\n        /* \"contracts/FileStorage.sol\":1059:1075  files[_filename] */\n      mload(0x40)\n      tag_187\n      swap2\n      swap1\n      tag_75\n      jump\t// in\n    tag_187:\n      swap1\n      dup2\n      mstore\n      mload(0x40)\n      swap1\n      dup2\n      swap1\n      sub\n      0x20\n      add\n      swap1\n      keccak256\n        /* \"contracts/FileStorage.sol\":1059:1082  files[_filename].exists */\n      0x02\n      add\n      sload\n      0xff\n      and\n        /* \"contracts/FileStorage.sol\":1058:1082  !files[_filename].exists */\n      iszero\n        /* \"contracts/FileStorage.sol\":1050:1106  require(!files[_filename].exists, \"File already exists\") */\n      tag_188\n      jumpi\n      mload(0x40)\n      shl(0xe5, 0x461bcd)\n      dup2\n      mstore\n        /* \"#utility.yul\":13923:13925   */\n      0x20\n        /* \"contracts/FileStorage.sol\":1050:1106  require(!files[_filename].exists, \"File already exists\") */\n      0x04\n      dup3\n      add\n        /* \"#utility.yul\":13905:13926   */\n      mstore\n        /* \"#utility.yul\":13962:13964   */\n      0x13\n        /* \"#utility.yul\":13942:13960   */\n      0x24\n      dup3\n      add\n        /* \"#utility.yul\":13935:13965   */\n      mstore\n      shl(0x68, 0x46696c6520616c726561647920657869737473)\n        /* \"#utility.yul\":13981:13999   */\n      0x44\n      dup3\n      add\n        /* \"#utility.yul\":13974:14023   */\n      mstore\n        /* \"#utility.yul\":14040:14058   */\n      0x64\n      add\n        /* \"contracts/FileStorage.sol\":1050:1106  require(!files[_filename].exists, \"File already exists\") */\n      tag_77\n        /* \"#utility.yul\":13721:14064   */\n      jump\n        /* \"contracts/FileStorage.sol\":1050:1106  require(!files[_filename].exists, \"File already exists\") */\n    tag_188:\n        /* \"contracts/FileStorage.sol\":1119:1139  File storage newFile */\n      0x00\n        /* \"contracts/FileStorage.sol\":1142:1147  files */\n      0x01\n        /* \"contracts/FileStorage.sol\":1148:1157  _filename */\n      dup5\n        /* \"contracts/FileStorage.sol\":1142:1158  files[_filename] */\n      mload(0x40)\n      tag_191\n      swap2\n      swap1\n      tag_75\n      jump\t// in\n    tag_191:\n      swap1\n      dup2\n      mstore\n      mload(0x40)\n      swap1\n      dup2\n      swap1\n      sub\n      0x20\n      add\n      swap1\n      keccak256\n      swap1\n      pop\n      dup1\n        /* \"contracts/FileStorage.sol\":1169:1197  newFile.filename = _filename */\n      tag_192\n        /* \"contracts/FileStorage.sol\":1188:1197  _filename */\n      dup6\n        /* \"contracts/FileStorage.sol\":1142:1158  files[_filename] */\n      dup3\n        /* \"contracts/FileStorage.sol\":1169:1197  newFile.filename = _filename */\n      tag_90\n      jump\t// in\n    tag_192:\n      pop\n        /* \"contracts/FileStorage.sol\":1208:1223  newFile.content */\n      0x01\n      dup2\n      add\n        /* \"contracts/FileStorage.sol\":1208:1234  newFile.content = _content */\n      tag_193\n        /* \"contracts/FileStorage.sol\":1226:1234  _content */\n      dup4\n        /* \"contracts/FileStorage.sol\":1208:1223  newFile.content */\n      dup3\n        /* \"contracts/FileStorage.sol\":1208:1234  newFile.content = _content */\n      tag_90\n      jump\t// in\n    tag_193:\n      pop\n        /* \"contracts/FileStorage.sol\":1245:1259  newFile.exists */\n      0x02\n      dup2\n      add\n        /* \"contracts/FileStorage.sol\":1245:1266  newFile.exists = true */\n      dup1\n      sload\n      sub(shl(0xa0, 0x01), 0x01)\n        /* \"contracts/FileStorage.sol\":1277:1302  newFile.fileOwner = _addr */\n      dup6\n      and\n        /* \"contracts/FileStorage.sol\":1245:1266  newFile.exists = true */\n      0x0100\n        /* \"contracts/FileStorage.sol\":1277:1302  newFile.fileOwner = _addr */\n      dup2\n      mul\n      not(sub(shl(0xa8, 0x01), 0x01))\n      swap1\n      swap3\n      and\n      swap2\n      swap1\n      swap2\n      or\n        /* \"contracts/FileStorage.sol\":1262:1266  true */\n      0x01\n        /* \"contracts/FileStorage.sol\":1277:1302  newFile.fileOwner = _addr */\n      or\n      swap1\n      swap2\n      sstore\n        /* \"contracts/FileStorage.sol\":1245:1259  newFile.exists */\n      0x00\n        /* \"contracts/FileStorage.sol\":1313:1332  newFile.mode[_addr] */\n      swap1\n      dup2\n      mstore\n        /* \"contracts/FileStorage.sol\":1335:1336  3 */\n      0x03\n        /* \"contracts/FileStorage.sol\":1313:1325  newFile.mode */\n      dup1\n      dup4\n      add\n        /* \"contracts/FileStorage.sol\":1313:1332  newFile.mode[_addr] */\n      0x20\n      mstore\n      0x40\n      dup3\n      keccak256\n        /* \"contracts/FileStorage.sol\":1313:1336  newFile.mode[_addr] = 3 */\n      dup1\n      sload\n      not(0xff)\n      and\n      swap1\n      swap2\n      or\n      swap1\n      sstore\n        /* \"contracts/FileStorage.sol\":1378:1389  fileCount++ */\n      dup1\n      sload\n      swap1\n        /* \"contracts/FileStorage.sol\":1245:1259  newFile.exists */\n      dup1\n        /* \"contracts/FileStorage.sol\":1378:1389  fileCount++ */\n      tag_194\n      dup4\n      tag_195\n      jump\t// in\n    tag_194:\n      swap1\n      swap2\n      sstore\n      pop\n      pop\n        /* \"contracts/FileStorage.sol\":1401:1409  fileList */\n      0x02\n        /* \"contracts/FileStorage.sol\":1401:1425  fileList.push(_filename) */\n      dup1\n      sload\n      0x01\n      dup2\n      add\n      dup3\n      sstore\n      0x00\n      swap2\n      swap1\n      swap2\n      mstore\n      0x405787fa12a823e0f2b7631cc41b3ba8828b3321ca811111fa75cd3aa3bb5ace\n      add\n      tag_89\n        /* \"contracts/FileStorage.sol\":1415:1424  _filename */\n      dup6\n        /* \"contracts/FileStorage.sol\":1401:1425  fileList.push(_filename) */\n      dup3\n      tag_90\n      jump\t// in\n        /* \"contracts/FileStorage.sol\":3880:4045  function getMode(string memory _filename, address _addr) external view fileExists(_filename) returns (uint8) {  ... */\n    tag_61:\n        /* \"contracts/FileStorage.sol\":3982:3987  uint8 */\n      0x00\n        /* \"contracts/FileStorage.sol\":3962:3971  _filename */\n      dup3\n        /* \"contracts/FileStorage.sol\":635:640  files */\n      0x01\n        /* \"contracts/FileStorage.sol\":641:650  _filename */\n      dup2\n        /* \"contracts/FileStorage.sol\":635:651  files[_filename] */\n      mload(0x40)\n      tag_199\n      swap2\n      swap1\n      tag_75\n      jump\t// in\n    tag_199:\n      swap1\n      dup2\n      mstore\n      mload(0x40)\n      swap1\n      dup2\n      swap1\n      sub\n      0x20\n      add\n      swap1\n      keccak256\n        /* \"contracts/FileStorage.sol\":635:658  files[_filename].exists */\n      0x02\n      add\n      sload\n      0xff\n      and\n        /* \"contracts/FileStorage.sol\":627:682  require(files[_filename].exists, \"File does not exist\") */\n      tag_200\n      jumpi\n      mload(0x40)\n      shl(0xe5, 0x461bcd)\n      dup2\n      mstore\n      0x04\n      add\n      tag_77\n      swap1\n      tag_78\n      jump\t// in\n    tag_200:\n        /* \"contracts/FileStorage.sol\":4009:4014  files */\n      0x01\n        /* \"contracts/FileStorage.sol\":4015:4024  _filename */\n      dup5\n        /* \"contracts/FileStorage.sol\":4009:4025  files[_filename] */\n      mload(0x40)\n      tag_203\n      swap2\n      swap1\n      tag_75\n      jump\t// in\n    tag_203:\n      swap1\n      dup2\n      mstore\n      0x40\n      dup1\n      mload\n      0x20\n      swap3\n      dup2\n      swap1\n      sub\n      dup4\n      add\n      swap1\n      keccak256\n      sub(shl(0xa0, 0x01), 0x01)\n        /* \"contracts/FileStorage.sol\":4009:4037  files[_filename].mode[_addr] */\n      swap6\n      swap1\n      swap6\n      and\n      0x00\n      swap1\n      dup2\n      mstore\n        /* \"contracts/FileStorage.sol\":4009:4030  files[_filename].mode */\n      0x03\n      swap1\n      swap6\n      add\n        /* \"contracts/FileStorage.sol\":4009:4037  files[_filename].mode[_addr] */\n      swap1\n      swap2\n      mstore\n      swap1\n      swap3\n      keccak256\n      sload\n      0xff\n      and\n      swap4\n        /* \"contracts/FileStorage.sol\":3880:4045  function getMode(string memory _filename, address _addr) external view fileExists(_filename) returns (uint8) {  ... */\n      swap3\n      pop\n      pop\n      pop\n      jump\t// out\n        /* \"contracts/FileStorage.sol\":494:530  mapping(string => File) public files */\n    tag_66:\n      dup1\n      mload\n      0x20\n      dup2\n      dup4\n      add\n      dup2\n      add\n      dup1\n      mload\n      0x01\n      dup3\n      mstore\n      swap3\n      dup3\n      add\n      swap2\n      swap1\n      swap4\n      add\n      keccak256\n      swap2\n      mstore\n      dup1\n      sload\n      dup2\n      swap1\n      tag_204\n      swap1\n      tag_104\n      jump\t// in\n    tag_204:\n      dup1\n      0x1f\n      add\n      0x20\n      dup1\n      swap2\n      div\n      mul\n      0x20\n      add\n      mload(0x40)\n      swap1\n      dup2\n      add\n      0x40\n      mstore\n      dup1\n      swap3\n      swap2\n      swap1\n      dup2\n      dup2\n      mstore\n      0x20\n      add\n      dup3\n      dup1\n      sload\n      tag_205\n      swap1\n      tag_104\n      jump\t// in\n    tag_205:\n      dup1\n      iszero\n      tag_206\n      jumpi\n      dup1\n      0x1f\n      lt\n      tag_207\n      jumpi\n      0x0100\n      dup1\n      dup4\n      sload\n      div\n      mul\n      dup4\n      mstore\n      swap2\n      0x20\n      add\n      swap2\n      jump(tag_206)\n    tag_207:\n      dup3\n      add\n      swap2\n      swap1\n      0x00\n      mstore\n      keccak256(0x00, 0x20)\n      swap1\n    tag_208:\n      dup2\n      sload\n      dup2\n      mstore\n      swap1\n      0x01\n      add\n      swap1\n      0x20\n      add\n      dup1\n      dup4\n      gt\n      tag_208\n      jumpi\n      dup3\n      swap1\n      sub\n      0x1f\n      and\n      dup3\n      add\n      swap2\n    tag_206:\n      pop\n      pop\n      pop\n      pop\n      pop\n      swap1\n      dup1\n      0x01\n      add\n      dup1\n      sload\n      tag_209\n      swap1\n      tag_104\n      jump\t// in\n    tag_209:\n      dup1\n      0x1f\n      add\n      0x20\n      dup1\n      swap2\n      div\n      mul\n      0x20\n      add\n      mload(0x40)\n      swap1\n      dup2\n      add\n      0x40\n      mstore\n      dup1\n      swap3\n      swap2\n      swap1\n      dup2\n      dup2\n      mstore\n      0x20\n      add\n      dup3\n      dup1\n      sload\n      tag_210\n      swap1\n      tag_104\n      jump\t// in\n    tag_210:\n      dup1\n      iszero\n      tag_211\n      jumpi\n      dup1\n      0x1f\n      lt\n      tag_212\n      jumpi\n      0x0100\n      dup1\n      dup4\n      sload\n      div\n      mul\n      dup4\n      mstore\n      swap2\n      0x20\n      add\n      swap2\n      jump(tag_211)\n    tag_212:\n      dup3\n      add\n      swap2\n      swap1\n      0x00\n      mstore\n      keccak256(0x00, 0x20)\n      swap1\n    tag_213:\n      dup2\n      sload\n      dup2\n      mstore\n      swap1\n      0x01\n      add\n      swap1\n      0x20\n      add\n      dup1\n      dup4\n      gt\n      tag_213\n      jumpi\n      dup3\n      swap1\n      sub\n      0x1f\n      and\n      dup3\n      add\n      swap2\n    tag_211:\n      pop\n      pop\n      pop\n      0x02\n      swap1\n      swap4\n      add\n      sload\n      swap2\n      swap3\n      pop\n      pop\n      0xff\n      dup2\n      and\n      swap1\n      sub(shl(0xa0, 0x01), 0x01)\n      0x0100\n      swap1\n      swap2\n      div\n      and\n      dup5\n      jump\t// out\n        /* \"contracts/FileStorage.sol\":2909:3149  function changeFilePermission(string memory _filename, address _addr, uint8 _mode) external fileExists(_filename) {... */\n    tag_72:\n        /* \"contracts/FileStorage.sol\":3012:3021  _filename */\n      dup3\n        /* \"contracts/FileStorage.sol\":635:640  files */\n      0x01\n        /* \"contracts/FileStorage.sol\":641:650  _filename */\n      dup2\n        /* \"contracts/FileStorage.sol\":635:651  files[_filename] */\n      mload(0x40)\n      tag_215\n      swap2\n      swap1\n      tag_75\n      jump\t// in\n    tag_215:\n      swap1\n      dup2\n      mstore\n      mload(0x40)\n      swap1\n      dup2\n      swap1\n      sub\n      0x20\n      add\n      swap1\n      keccak256\n        /* \"contracts/FileStorage.sol\":635:658  files[_filename].exists */\n      0x02\n      add\n      sload\n      0xff\n      and\n        /* \"contracts/FileStorage.sol\":627:682  require(files[_filename].exists, \"File does not exist\") */\n      tag_216\n      jumpi\n      mload(0x40)\n      shl(0xe5, 0x461bcd)\n      dup2\n      mstore\n      0x04\n      add\n      tag_77\n      swap1\n      tag_78\n      jump\t// in\n    tag_216:\n        /* \"contracts/FileStorage.sol\":3065:3066  3 */\n      0x03\n        /* \"contracts/FileStorage.sol\":3056:3061  _mode */\n      dup3\n        /* \"contracts/FileStorage.sol\":3056:3066  _mode <= 3 */\n      0xff\n      and\n      gt\n      iszero\n        /* \"contracts/FileStorage.sol\":3034:3094  require(_mode >= 0 && _mode <= 3, \"Invalid permission mode\") */\n      tag_220\n      jumpi\n      mload(0x40)\n      shl(0xe5, 0x461bcd)\n      dup2\n      mstore\n        /* \"#utility.yul\":14411:14413   */\n      0x20\n        /* \"contracts/FileStorage.sol\":3034:3094  require(_mode >= 0 && _mode <= 3, \"Invalid permission mode\") */\n      0x04\n      dup3\n      add\n        /* \"#utility.yul\":14393:14414   */\n      mstore\n        /* \"#utility.yul\":14450:14452   */\n      0x17\n        /* \"#utility.yul\":14430:14448   */\n      0x24\n      dup3\n      add\n        /* \"#utility.yul\":14423:14453   */\n      mstore\n        /* \"#utility.yul\":14489:14514   */\n      0x496e76616c6964207065726d697373696f6e206d6f6465000000000000000000\n        /* \"#utility.yul\":14469:14487   */\n      0x44\n      dup3\n      add\n        /* \"#utility.yul\":14462:14515   */\n      mstore\n        /* \"#utility.yul\":14532:14550   */\n      0x64\n      add\n        /* \"contracts/FileStorage.sol\":3034:3094  require(_mode >= 0 && _mode <= 3, \"Invalid permission mode\") */\n      tag_77\n        /* \"#utility.yul\":14209:14556   */\n      jump\n        /* \"contracts/FileStorage.sol\":3034:3094  require(_mode >= 0 && _mode <= 3, \"Invalid permission mode\") */\n    tag_220:\n        /* \"contracts/FileStorage.sol\":3136:3141  _mode */\n      dup2\n        /* \"contracts/FileStorage.sol\":3105:3110  files */\n      0x01\n        /* \"contracts/FileStorage.sol\":3111:3120  _filename */\n      dup6\n        /* \"contracts/FileStorage.sol\":3105:3121  files[_filename] */\n      mload(0x40)\n      tag_223\n      swap2\n      swap1\n      tag_75\n      jump\t// in\n    tag_223:\n      swap1\n      dup2\n      mstore\n      0x20\n      add\n      mload(0x40)\n      dup1\n      swap2\n      sub\n      swap1\n      keccak256\n        /* \"contracts/FileStorage.sol\":3105:3126  files[_filename].mode */\n      0x03\n      add\n        /* \"contracts/FileStorage.sol\":3105:3133  files[_filename].mode[_addr] */\n      0x00\n        /* \"contracts/FileStorage.sol\":3127:3132  _addr */\n      dup6\n      sub(shl(0xa0, 0x01), 0x01)\n        /* \"contracts/FileStorage.sol\":3105:3133  files[_filename].mode[_addr] */\n      and\n      sub(shl(0xa0, 0x01), 0x01)\n      and\n      dup2\n      mstore\n      0x20\n      add\n      swap1\n      dup2\n      mstore\n      0x20\n      add\n      0x00\n      keccak256\n      0x00\n        /* \"contracts/FileStorage.sol\":3105:3141  files[_filename].mode[_addr] = _mode */\n      0x0100\n      exp\n      dup2\n      sload\n      dup2\n      0xff\n      mul\n      not\n      and\n      swap1\n      dup4\n      0xff\n      and\n      mul\n      or\n      swap1\n      sstore\n      pop\n        /* \"contracts/FileStorage.sol\":2909:3149  function changeFilePermission(string memory _filename, address _addr, uint8 _mode) external fileExists(_filename) {... */\n      pop\n      pop\n      pop\n      pop\n      jump\t// out\n    tag_87:\n      pop\n      dup1\n      sload\n      tag_224\n      swap1\n      tag_104\n      jump\t// in\n    tag_224:\n      0x00\n      dup3\n      sstore\n      dup1\n      0x1f\n      lt\n      tag_226\n      jumpi\n      pop\n      pop\n      jump\t// out\n    tag_226:\n      0x1f\n      add\n      0x20\n      swap1\n      div\n      swap1\n      0x00\n      mstore\n      keccak256(0x00, 0x20)\n      swap1\n      dup2\n      add\n      swap1\n      tag_227\n      swap2\n      swap1\n      tag_228\n      jump\t// in\n    tag_227:\n      pop\n      jump\t// out\n    tag_228:\n    tag_229:\n      dup1\n      dup3\n      gt\n      iszero\n      tag_230\n      jumpi\n      0x00\n      dup2\n      sstore\n      0x01\n      add\n      jump(tag_229)\n    tag_230:\n      pop\n      swap1\n      jump\t// out\n        /* \"#utility.yul\":14:141   */\n    tag_231:\n        /* \"#utility.yul\":75:85   */\n      0x4e487b71\n        /* \"#utility.yul\":70:73   */\n      0xe0\n        /* \"#utility.yul\":66:86   */\n      shl\n        /* \"#utility.yul\":63:64   */\n      0x00\n        /* \"#utility.yul\":56:87   */\n      mstore\n        /* \"#utility.yul\":106:110   */\n      0x41\n        /* \"#utility.yul\":103:104   */\n      0x04\n        /* \"#utility.yul\":96:111   */\n      mstore\n        /* \"#utility.yul\":130:134   */\n      0x24\n        /* \"#utility.yul\":127:128   */\n      0x00\n        /* \"#utility.yul\":120:135   */\n      revert\n        /* \"#utility.yul\":146:872   */\n    tag_232:\n        /* \"#utility.yul\":189:194   */\n      0x00\n        /* \"#utility.yul\":242:245   */\n      dup3\n        /* \"#utility.yul\":235:239   */\n      0x1f\n        /* \"#utility.yul\":227:233   */\n      dup4\n        /* \"#utility.yul\":223:240   */\n      add\n        /* \"#utility.yul\":219:246   */\n      slt\n        /* \"#utility.yul\":209:264   */\n      tag_244\n      jumpi\n        /* \"#utility.yul\":260:261   */\n      0x00\n        /* \"#utility.yul\":257:258   */\n      dup1\n        /* \"#utility.yul\":250:262   */\n      revert\n        /* \"#utility.yul\":209:264   */\n    tag_244:\n        /* \"#utility.yul\":300:306   */\n      dup2\n        /* \"#utility.yul\":287:307   */\n      calldataload\n        /* \"#utility.yul\":330:348   */\n      0xffffffffffffffff\n        /* \"#utility.yul\":322:328   */\n      dup2\n        /* \"#utility.yul\":319:349   */\n      gt\n        /* \"#utility.yul\":316:372   */\n      iszero\n      tag_246\n      jumpi\n        /* \"#utility.yul\":352:370   */\n      tag_246\n      tag_231\n      jump\t// in\n    tag_246:\n        /* \"#utility.yul\":401:403   */\n      0x40\n        /* \"#utility.yul\":395:404   */\n      mload\n        /* \"#utility.yul\":493:495   */\n      0x1f\n        /* \"#utility.yul\":455:472   */\n      dup3\n      add\n      not(0x1f)\n        /* \"#utility.yul\":451:482   */\n      swap1\n      dup2\n      and\n        /* \"#utility.yul\":484:486   */\n      0x3f\n        /* \"#utility.yul\":447:487   */\n      add\n        /* \"#utility.yul\":443:497   */\n      and\n        /* \"#utility.yul\":431:498   */\n      dup2\n      add\n        /* \"#utility.yul\":528:546   */\n      0xffffffffffffffff\n        /* \"#utility.yul\":513:547   */\n      dup2\n      gt\n        /* \"#utility.yul\":549:571   */\n      dup3\n      dup3\n      lt\n        /* \"#utility.yul\":510:572   */\n      or\n        /* \"#utility.yul\":507:595   */\n      iszero\n      tag_248\n      jumpi\n        /* \"#utility.yul\":575:593   */\n      tag_248\n      tag_231\n      jump\t// in\n    tag_248:\n        /* \"#utility.yul\":611:613   */\n      0x40\n        /* \"#utility.yul\":604:626   */\n      mstore\n        /* \"#utility.yul\":635:657   */\n      dup2\n      dup2\n      mstore\n        /* \"#utility.yul\":676:695   */\n      dup4\n      dup3\n      add\n        /* \"#utility.yul\":697:701   */\n      0x20\n        /* \"#utility.yul\":672:702   */\n      add\n        /* \"#utility.yul\":669:708   */\n      dup6\n      lt\n        /* \"#utility.yul\":666:725   */\n      iszero\n      tag_249\n      jumpi\n        /* \"#utility.yul\":721:722   */\n      0x00\n        /* \"#utility.yul\":718:719   */\n      dup1\n        /* \"#utility.yul\":711:723   */\n      revert\n        /* \"#utility.yul\":666:725   */\n    tag_249:\n        /* \"#utility.yul\":785:791   */\n      dup2\n        /* \"#utility.yul\":778:782   */\n      0x20\n        /* \"#utility.yul\":770:776   */\n      dup6\n        /* \"#utility.yul\":766:783   */\n      add\n        /* \"#utility.yul\":759:763   */\n      0x20\n        /* \"#utility.yul\":751:757   */\n      dup4\n        /* \"#utility.yul\":747:764   */\n      add\n        /* \"#utility.yul\":734:792   */\n      calldatacopy\n        /* \"#utility.yul\":840:841   */\n      0x00\n        /* \"#utility.yul\":812:831   */\n      swap2\n      dup2\n      add\n        /* \"#utility.yul\":833:837   */\n      0x20\n        /* \"#utility.yul\":808:838   */\n      add\n        /* \"#utility.yul\":801:842   */\n      swap2\n      swap1\n      swap2\n      mstore\n        /* \"#utility.yul\":816:822   */\n      swap4\n        /* \"#utility.yul\":146:872   */\n      swap3\n      pop\n      pop\n      pop\n      jump\t// out\n        /* \"#utility.yul\":877:1415   */\n    tag_20:\n        /* \"#utility.yul\":965:971   */\n      0x00\n        /* \"#utility.yul\":973:979   */\n      dup1\n        /* \"#utility.yul\":1026:1028   */\n      0x40\n        /* \"#utility.yul\":1014:1023   */\n      dup4\n        /* \"#utility.yul\":1005:1012   */\n      dup6\n        /* \"#utility.yul\":1001:1024   */\n      sub\n        /* \"#utility.yul\":997:1029   */\n      slt\n        /* \"#utility.yul\":994:1046   */\n      iszero\n      tag_251\n      jumpi\n        /* \"#utility.yul\":1042:1043   */\n      0x00\n        /* \"#utility.yul\":1039:1040   */\n      dup1\n        /* \"#utility.yul\":1032:1044   */\n      revert\n        /* \"#utility.yul\":994:1046   */\n    tag_251:\n        /* \"#utility.yul\":1082:1091   */\n      dup3\n        /* \"#utility.yul\":1069:1092   */\n      calldataload\n        /* \"#utility.yul\":1115:1133   */\n      0xffffffffffffffff\n        /* \"#utility.yul\":1107:1113   */\n      dup2\n        /* \"#utility.yul\":1104:1134   */\n      gt\n        /* \"#utility.yul\":1101:1151   */\n      iszero\n      tag_252\n      jumpi\n        /* \"#utility.yul\":1147:1148   */\n      0x00\n        /* \"#utility.yul\":1144:1145   */\n      dup1\n        /* \"#utility.yul\":1137:1149   */\n      revert\n        /* \"#utility.yul\":1101:1151   */\n    tag_252:\n        /* \"#utility.yul\":1170:1220   */\n      tag_253\n        /* \"#utility.yul\":1212:1219   */\n      dup6\n        /* \"#utility.yul\":1203:1209   */\n      dup3\n        /* \"#utility.yul\":1192:1201   */\n      dup7\n        /* \"#utility.yul\":1188:1210   */\n      add\n        /* \"#utility.yul\":1170:1220   */\n      tag_232\n      jump\t// in\n    tag_253:\n        /* \"#utility.yul\":1160:1220   */\n      swap3\n      pop\n      pop\n        /* \"#utility.yul\":1273:1275   */\n      0x20\n        /* \"#utility.yul\":1262:1271   */\n      dup4\n        /* \"#utility.yul\":1258:1276   */\n      add\n        /* \"#utility.yul\":1245:1277   */\n      calldataload\n        /* \"#utility.yul\":1302:1320   */\n      0xffffffffffffffff\n        /* \"#utility.yul\":1292:1300   */\n      dup2\n        /* \"#utility.yul\":1289:1321   */\n      gt\n        /* \"#utility.yul\":1286:1338   */\n      iszero\n      tag_254\n      jumpi\n        /* \"#utility.yul\":1334:1335   */\n      0x00\n        /* \"#utility.yul\":1331:1332   */\n      dup1\n        /* \"#utility.yul\":1324:1336   */\n      revert\n        /* \"#utility.yul\":1286:1338   */\n    tag_254:\n        /* \"#utility.yul\":1357:1409   */\n      tag_255\n        /* \"#utility.yul\":1401:1408   */\n      dup6\n        /* \"#utility.yul\":1390:1398   */\n      dup3\n        /* \"#utility.yul\":1379:1388   */\n      dup7\n        /* \"#utility.yul\":1375:1399   */\n      add\n        /* \"#utility.yul\":1357:1409   */\n      tag_232\n      jump\t// in\n    tag_255:\n        /* \"#utility.yul\":1347:1409   */\n      swap2\n      pop\n      pop\n        /* \"#utility.yul\":877:1415   */\n      swap3\n      pop\n      swap3\n      swap1\n      pop\n      jump\t// out\n        /* \"#utility.yul\":1420:1742   */\n    tag_24:\n        /* \"#utility.yul\":1489:1495   */\n      0x00\n        /* \"#utility.yul\":1542:1544   */\n      0x20\n        /* \"#utility.yul\":1530:1539   */\n      dup3\n        /* \"#utility.yul\":1521:1528   */\n      dup5\n        /* \"#utility.yul\":1517:1540   */\n      sub\n        /* \"#utility.yul\":1513:1545   */\n      slt\n        /* \"#utility.yul\":1510:1562   */\n      iszero\n      tag_257\n      jumpi\n        /* \"#utility.yul\":1558:1559   */\n      0x00\n        /* \"#utility.yul\":1555:1556   */\n      dup1\n        /* \"#utility.yul\":1548:1560   */\n      revert\n        /* \"#utility.yul\":1510:1562   */\n    tag_257:\n        /* \"#utility.yul\":1598:1607   */\n      dup2\n        /* \"#utility.yul\":1585:1608   */\n      calldataload\n        /* \"#utility.yul\":1631:1649   */\n      0xffffffffffffffff\n        /* \"#utility.yul\":1623:1629   */\n      dup2\n        /* \"#utility.yul\":1620:1650   */\n      gt\n        /* \"#utility.yul\":1617:1667   */\n      iszero\n      tag_258\n      jumpi\n        /* \"#utility.yul\":1663:1664   */\n      0x00\n        /* \"#utility.yul\":1660:1661   */\n      dup1\n        /* \"#utility.yul\":1653:1665   */\n      revert\n        /* \"#utility.yul\":1617:1667   */\n    tag_258:\n        /* \"#utility.yul\":1686:1736   */\n      tag_259\n        /* \"#utility.yul\":1728:1735   */\n      dup5\n        /* \"#utility.yul\":1719:1725   */\n      dup3\n        /* \"#utility.yul\":1708:1717   */\n      dup6\n        /* \"#utility.yul\":1704:1726   */\n      add\n        /* \"#utility.yul\":1686:1736   */\n      tag_232\n      jump\t// in\n    tag_259:\n        /* \"#utility.yul\":1676:1736   */\n      swap5\n        /* \"#utility.yul\":1420:1742   */\n      swap4\n      pop\n      pop\n      pop\n      pop\n      jump\t// out\n        /* \"#utility.yul\":2137:2437   */\n    tag_233:\n        /* \"#utility.yul\":2190:2193   */\n      0x00\n        /* \"#utility.yul\":2228:2233   */\n      dup2\n        /* \"#utility.yul\":2222:2234   */\n      mload\n        /* \"#utility.yul\":2255:2261   */\n      dup1\n        /* \"#utility.yul\":2250:2253   */\n      dup5\n        /* \"#utility.yul\":2243:2262   */\n      mstore\n        /* \"#utility.yul\":2311:2317   */\n      dup1\n        /* \"#utility.yul\":2304:2308   */\n      0x20\n        /* \"#utility.yul\":2297:2302   */\n      dup5\n        /* \"#utility.yul\":2293:2309   */\n      add\n        /* \"#utility.yul\":2286:2290   */\n      0x20\n        /* \"#utility.yul\":2281:2284   */\n      dup7\n        /* \"#utility.yul\":2277:2291   */\n      add\n        /* \"#utility.yul\":2271:2318   */\n      mcopy\n        /* \"#utility.yul\":2363:2364   */\n      0x00\n        /* \"#utility.yul\":2356:2360   */\n      0x20\n        /* \"#utility.yul\":2347:2353   */\n      dup3\n        /* \"#utility.yul\":2342:2345   */\n      dup7\n        /* \"#utility.yul\":2338:2354   */\n      add\n        /* \"#utility.yul\":2334:2361   */\n      add\n        /* \"#utility.yul\":2327:2365   */\n      mstore\n        /* \"#utility.yul\":2426:2430   */\n      0x20\n        /* \"#utility.yul\":2419:2421   */\n      0x1f\n        /* \"#utility.yul\":2415:2422   */\n      not\n        /* \"#utility.yul\":2410:2412   */\n      0x1f\n        /* \"#utility.yul\":2402:2408   */\n      dup4\n        /* \"#utility.yul\":2398:2413   */\n      add\n        /* \"#utility.yul\":2394:2423   */\n      and\n        /* \"#utility.yul\":2389:2392   */\n      dup6\n        /* \"#utility.yul\":2385:2424   */\n      add\n        /* \"#utility.yul\":2381:2431   */\n      add\n        /* \"#utility.yul\":2374:2431   */\n      swap2\n      pop\n      pop\n        /* \"#utility.yul\":2137:2437   */\n      swap3\n      swap2\n      pop\n      pop\n      jump\t// out\n        /* \"#utility.yul\":2442:2673   */\n    tag_36:\n        /* \"#utility.yul\":2591:2593   */\n      0x20\n        /* \"#utility.yul\":2580:2589   */\n      dup2\n        /* \"#utility.yul\":2573:2594   */\n      mstore\n        /* \"#utility.yul\":2554:2558   */\n      0x00\n        /* \"#utility.yul\":2611:2667   */\n      tag_264\n        /* \"#utility.yul\":2663:2665   */\n      0x20\n        /* \"#utility.yul\":2652:2661   */\n      dup4\n        /* \"#utility.yul\":2648:2666   */\n      add\n        /* \"#utility.yul\":2640:2646   */\n      dup5\n        /* \"#utility.yul\":2611:2667   */\n      tag_233\n      jump\t// in\n    tag_264:\n        /* \"#utility.yul\":2603:2667   */\n      swap4\n        /* \"#utility.yul\":2442:2673   */\n      swap3\n      pop\n      pop\n      pop\n      jump\t// out\n        /* \"#utility.yul\":2678:2851   */\n    tag_234:\n        /* \"#utility.yul\":2746:2766   */\n      dup1\n      calldataload\n      sub(shl(0xa0, 0x01), 0x01)\n        /* \"#utility.yul\":2795:2826   */\n      dup2\n      and\n        /* \"#utility.yul\":2785:2827   */\n      dup2\n      eq\n        /* \"#utility.yul\":2775:2845   */\n      tag_266\n      jumpi\n        /* \"#utility.yul\":2841:2842   */\n      0x00\n        /* \"#utility.yul\":2838:2839   */\n      dup1\n        /* \"#utility.yul\":2831:2843   */\n      revert\n        /* \"#utility.yul\":2775:2845   */\n    tag_266:\n        /* \"#utility.yul\":2678:2851   */\n      swap2\n      swap1\n      pop\n      jump\t// out\n        /* \"#utility.yul\":2856:3252   */\n    tag_39:\n        /* \"#utility.yul\":2934:2940   */\n      0x00\n        /* \"#utility.yul\":2942:2948   */\n      dup1\n        /* \"#utility.yul\":2995:2997   */\n      0x40\n        /* \"#utility.yul\":2983:2992   */\n      dup4\n        /* \"#utility.yul\":2974:2981   */\n      dup6\n        /* \"#utility.yul\":2970:2993   */\n      sub\n        /* \"#utility.yul\":2966:2998   */\n      slt\n        /* \"#utility.yul\":2963:3015   */\n      iszero\n      tag_268\n      jumpi\n        /* \"#utility.yul\":3011:3012   */\n      0x00\n        /* \"#utility.yul\":3008:3009   */\n      dup1\n        /* \"#utility.yul\":3001:3013   */\n      revert\n        /* \"#utility.yul\":2963:3015   */\n    tag_268:\n        /* \"#utility.yul\":3051:3060   */\n      dup3\n        /* \"#utility.yul\":3038:3061   */\n      calldataload\n        /* \"#utility.yul\":3084:3102   */\n      0xffffffffffffffff\n        /* \"#utility.yul\":3076:3082   */\n      dup2\n        /* \"#utility.yul\":3073:3103   */\n      gt\n        /* \"#utility.yul\":3070:3120   */\n      iszero\n      tag_269\n      jumpi\n        /* \"#utility.yul\":3116:3117   */\n      0x00\n        /* \"#utility.yul\":3113:3114   */\n      dup1\n        /* \"#utility.yul\":3106:3118   */\n      revert\n        /* \"#utility.yul\":3070:3120   */\n    tag_269:\n        /* \"#utility.yul\":3139:3189   */\n      tag_270\n        /* \"#utility.yul\":3181:3188   */\n      dup6\n        /* \"#utility.yul\":3172:3178   */\n      dup3\n        /* \"#utility.yul\":3161:3170   */\n      dup7\n        /* \"#utility.yul\":3157:3179   */\n      add\n        /* \"#utility.yul\":3139:3189   */\n      tag_232\n      jump\t// in\n    tag_270:\n        /* \"#utility.yul\":3129:3189   */\n      swap3\n      pop\n      pop\n        /* \"#utility.yul\":3208:3246   */\n      tag_271\n        /* \"#utility.yul\":3242:3244   */\n      0x20\n        /* \"#utility.yul\":3231:3240   */\n      dup5\n        /* \"#utility.yul\":3227:3245   */\n      add\n        /* \"#utility.yul\":3208:3246   */\n      tag_234\n      jump\t// in\n    tag_271:\n        /* \"#utility.yul\":3198:3246   */\n      swap1\n      pop\n        /* \"#utility.yul\":2856:3252   */\n      swap3\n      pop\n      swap3\n      swap1\n      pop\n      jump\t// out\n        /* \"#utility.yul\":3257:4050   */\n    tag_51:\n        /* \"#utility.yul\":3419:3423   */\n      0x00\n        /* \"#utility.yul\":3467:3469   */\n      0x20\n        /* \"#utility.yul\":3456:3465   */\n      dup3\n        /* \"#utility.yul\":3452:3470   */\n      add\n        /* \"#utility.yul\":3497:3499   */\n      0x20\n        /* \"#utility.yul\":3486:3495   */\n      dup4\n        /* \"#utility.yul\":3479:3500   */\n      mstore\n        /* \"#utility.yul\":3520:3526   */\n      dup1\n        /* \"#utility.yul\":3555:3561   */\n      dup5\n        /* \"#utility.yul\":3549:3562   */\n      mload\n        /* \"#utility.yul\":3586:3592   */\n      dup1\n        /* \"#utility.yul\":3578:3584   */\n      dup4\n        /* \"#utility.yul\":3571:3593   */\n      mstore\n        /* \"#utility.yul\":3624:3626   */\n      0x40\n        /* \"#utility.yul\":3613:3622   */\n      dup6\n        /* \"#utility.yul\":3609:3627   */\n      add\n        /* \"#utility.yul\":3602:3627   */\n      swap2\n      pop\n        /* \"#utility.yul\":3686:3688   */\n      0x40\n        /* \"#utility.yul\":3676:3682   */\n      dup2\n        /* \"#utility.yul\":3673:3674   */\n      0x05\n        /* \"#utility.yul\":3669:3683   */\n      shl\n        /* \"#utility.yul\":3658:3667   */\n      dup7\n        /* \"#utility.yul\":3654:3684   */\n      add\n        /* \"#utility.yul\":3650:3689   */\n      add\n        /* \"#utility.yul\":3636:3689   */\n      swap3\n      pop\n        /* \"#utility.yul\":3724:3726   */\n      0x20\n        /* \"#utility.yul\":3716:3722   */\n      dup7\n        /* \"#utility.yul\":3712:3727   */\n      add\n        /* \"#utility.yul\":3745:3746   */\n      0x00\n        /* \"#utility.yul\":3755:4021   */\n    tag_273:\n        /* \"#utility.yul\":3769:3775   */\n      dup3\n        /* \"#utility.yul\":3766:3767   */\n      dup2\n        /* \"#utility.yul\":3763:3776   */\n      lt\n        /* \"#utility.yul\":3755:4021   */\n      iszero\n      tag_275\n      jumpi\n        /* \"#utility.yul\":3862:3864   */\n      0x3f\n        /* \"#utility.yul\":3858:3865   */\n      not\n        /* \"#utility.yul\":3846:3855   */\n      dup8\n        /* \"#utility.yul\":3838:3844   */\n      dup7\n        /* \"#utility.yul\":3834:3856   */\n      sub\n        /* \"#utility.yul\":3830:3866   */\n      add\n        /* \"#utility.yul\":3825:3828   */\n      dup5\n        /* \"#utility.yul\":3818:3867   */\n      mstore\n        /* \"#utility.yul\":3890:3941   */\n      tag_276\n        /* \"#utility.yul\":3934:3940   */\n      dup6\n        /* \"#utility.yul\":3925:3931   */\n      dup4\n        /* \"#utility.yul\":3919:3932   */\n      mload\n        /* \"#utility.yul\":3890:3941   */\n      tag_233\n      jump\t// in\n    tag_276:\n        /* \"#utility.yul\":3880:3941   */\n      swap5\n      pop\n        /* \"#utility.yul\":3976:3978   */\n      0x20\n        /* \"#utility.yul\":3999:4011   */\n      swap4\n      dup5\n      add\n      swap4\n        /* \"#utility.yul\":3964:3979   */\n      swap2\n      swap1\n      swap2\n      add\n      swap1\n        /* \"#utility.yul\":3791:3792   */\n      0x01\n        /* \"#utility.yul\":3784:3793   */\n      add\n        /* \"#utility.yul\":3755:4021   */\n      jump(tag_273)\n    tag_275:\n      pop\n        /* \"#utility.yul\":4038:4044   */\n      swap3\n      swap7\n        /* \"#utility.yul\":3257:4050   */\n      swap6\n      pop\n      pop\n      pop\n      pop\n      pop\n      pop\n      jump\t// out\n        /* \"#utility.yul\":4055:4667   */\n    tag_57:\n        /* \"#utility.yul\":4152:4158   */\n      0x00\n        /* \"#utility.yul\":4160:4166   */\n      dup1\n        /* \"#utility.yul\":4168:4174   */\n      0x00\n        /* \"#utility.yul\":4221:4223   */\n      0x60\n        /* \"#utility.yul\":4209:4218   */\n      dup5\n        /* \"#utility.yul\":4200:4207   */\n      dup7\n        /* \"#utility.yul\":4196:4219   */\n      sub\n        /* \"#utility.yul\":4192:4224   */\n      slt\n        /* \"#utility.yul\":4189:4241   */\n      iszero\n      tag_278\n      jumpi\n        /* \"#utility.yul\":4237:4238   */\n      0x00\n        /* \"#utility.yul\":4234:4235   */\n      dup1\n        /* \"#utility.yul\":4227:4239   */\n      revert\n        /* \"#utility.yul\":4189:4241   */\n    tag_278:\n        /* \"#utility.yul\":4277:4286   */\n      dup4\n        /* \"#utility.yul\":4264:4287   */\n      calldataload\n        /* \"#utility.yul\":4310:4328   */\n      0xffffffffffffffff\n        /* \"#utility.yul\":4302:4308   */\n      dup2\n        /* \"#utility.yul\":4299:4329   */\n      gt\n        /* \"#utility.yul\":4296:4346   */\n      iszero\n      tag_279\n      jumpi\n        /* \"#utility.yul\":4342:4343   */\n      0x00\n        /* \"#utility.yul\":4339:4340   */\n      dup1\n        /* \"#utility.yul\":4332:4344   */\n      revert\n        /* \"#utility.yul\":4296:4346   */\n    tag_279:\n        /* \"#utility.yul\":4365:4415   */\n      tag_280\n        /* \"#utility.yul\":4407:4414   */\n      dup7\n        /* \"#utility.yul\":4398:4404   */\n      dup3\n        /* \"#utility.yul\":4387:4396   */\n      dup8\n        /* \"#utility.yul\":4383:4405   */\n      add\n        /* \"#utility.yul\":4365:4415   */\n      tag_232\n      jump\t// in\n    tag_280:\n        /* \"#utility.yul\":4355:4415   */\n      swap4\n      pop\n      pop\n        /* \"#utility.yul\":4434:4472   */\n      tag_281\n        /* \"#utility.yul\":4468:4470   */\n      0x20\n        /* \"#utility.yul\":4457:4466   */\n      dup6\n        /* \"#utility.yul\":4453:4471   */\n      add\n        /* \"#utility.yul\":4434:4472   */\n      tag_234\n      jump\t// in\n    tag_281:\n        /* \"#utility.yul\":4424:4472   */\n      swap2\n      pop\n        /* \"#utility.yul\":4525:4527   */\n      0x40\n        /* \"#utility.yul\":4514:4523   */\n      dup5\n        /* \"#utility.yul\":4510:4528   */\n      add\n        /* \"#utility.yul\":4497:4529   */\n      calldataload\n        /* \"#utility.yul\":4554:4572   */\n      0xffffffffffffffff\n        /* \"#utility.yul\":4544:4552   */\n      dup2\n        /* \"#utility.yul\":4541:4573   */\n      gt\n        /* \"#utility.yul\":4538:4590   */\n      iszero\n      tag_282\n      jumpi\n        /* \"#utility.yul\":4586:4587   */\n      0x00\n        /* \"#utility.yul\":4583:4584   */\n      dup1\n        /* \"#utility.yul\":4576:4588   */\n      revert\n        /* \"#utility.yul\":4538:4590   */\n    tag_282:\n        /* \"#utility.yul\":4609:4661   */\n      tag_283\n        /* \"#utility.yul\":4653:4660   */\n      dup7\n        /* \"#utility.yul\":4642:4650   */\n      dup3\n        /* \"#utility.yul\":4631:4640   */\n      dup8\n        /* \"#utility.yul\":4627:4651   */\n      add\n        /* \"#utility.yul\":4609:4661   */\n      tag_232\n      jump\t// in\n    tag_283:\n        /* \"#utility.yul\":4599:4661   */\n      swap2\n      pop\n      pop\n        /* \"#utility.yul\":4055:4667   */\n      swap3\n      pop\n      swap3\n      pop\n      swap3\n      jump\t// out\n        /* \"#utility.yul\":4861:5446   */\n    tag_68:\n        /* \"#utility.yul\":5108:5111   */\n      0x80\n        /* \"#utility.yul\":5097:5106   */\n      dup2\n        /* \"#utility.yul\":5090:5112   */\n      mstore\n        /* \"#utility.yul\":5071:5075   */\n      0x00\n        /* \"#utility.yul\":5135:5192   */\n      tag_286\n        /* \"#utility.yul\":5187:5190   */\n      0x80\n        /* \"#utility.yul\":5176:5185   */\n      dup4\n        /* \"#utility.yul\":5172:5191   */\n      add\n        /* \"#utility.yul\":5164:5170   */\n      dup8\n        /* \"#utility.yul\":5135:5192   */\n      tag_233\n      jump\t// in\n    tag_286:\n        /* \"#utility.yul\":5240:5249   */\n      dup3\n        /* \"#utility.yul\":5232:5238   */\n      dup2\n        /* \"#utility.yul\":5228:5250   */\n      sub\n        /* \"#utility.yul\":5223:5225   */\n      0x20\n        /* \"#utility.yul\":5212:5221   */\n      dup5\n        /* \"#utility.yul\":5208:5226   */\n      add\n        /* \"#utility.yul\":5201:5251   */\n      mstore\n        /* \"#utility.yul\":5268:5312   */\n      tag_287\n        /* \"#utility.yul\":5305:5311   */\n      dup2\n        /* \"#utility.yul\":5297:5303   */\n      dup8\n        /* \"#utility.yul\":5268:5312   */\n      tag_233\n      jump\t// in\n    tag_287:\n        /* \"#utility.yul\":5355:5369   */\n      swap5\n      iszero\n        /* \"#utility.yul\":5348:5370   */\n      iszero\n        /* \"#utility.yul\":5343:5345   */\n      0x40\n        /* \"#utility.yul\":5328:5346   */\n      dup5\n      add\n        /* \"#utility.yul\":5321:5371   */\n      mstore\n      pop\n      pop\n      sub(shl(0xa0, 0x01), 0x01)\n        /* \"#utility.yul\":5407:5439   */\n      swap2\n      swap1\n      swap2\n      and\n        /* \"#utility.yul\":5402:5404   */\n      0x60\n        /* \"#utility.yul\":5387:5405   */\n      swap1\n      swap2\n      add\n        /* \"#utility.yul\":5380:5440   */\n      mstore\n        /* \"#utility.yul\":5260:5312   */\n      swap3\n        /* \"#utility.yul\":4861:5446   */\n      swap2\n      pop\n      pop\n      jump\t// out\n        /* \"#utility.yul\":5451:6004   */\n    tag_71:\n        /* \"#utility.yul\":5536:5542   */\n      0x00\n        /* \"#utility.yul\":5544:5550   */\n      dup1\n        /* \"#utility.yul\":5552:5558   */\n      0x00\n        /* \"#utility.yul\":5605:5607   */\n      0x60\n        /* \"#utility.yul\":5593:5602   */\n      dup5\n        /* \"#utility.yul\":5584:5591   */\n      dup7\n        /* \"#utility.yul\":5580:5603   */\n      sub\n        /* \"#utility.yul\":5576:5608   */\n      slt\n        /* \"#utility.yul\":5573:5625   */\n      iszero\n      tag_289\n      jumpi\n        /* \"#utility.yul\":5621:5622   */\n      0x00\n        /* \"#utility.yul\":5618:5619   */\n      dup1\n        /* \"#utility.yul\":5611:5623   */\n      revert\n        /* \"#utility.yul\":5573:5625   */\n    tag_289:\n        /* \"#utility.yul\":5661:5670   */\n      dup4\n        /* \"#utility.yul\":5648:5671   */\n      calldataload\n        /* \"#utility.yul\":5694:5712   */\n      0xffffffffffffffff\n        /* \"#utility.yul\":5686:5692   */\n      dup2\n        /* \"#utility.yul\":5683:5713   */\n      gt\n        /* \"#utility.yul\":5680:5730   */\n      iszero\n      tag_290\n      jumpi\n        /* \"#utility.yul\":5726:5727   */\n      0x00\n        /* \"#utility.yul\":5723:5724   */\n      dup1\n        /* \"#utility.yul\":5716:5728   */\n      revert\n        /* \"#utility.yul\":5680:5730   */\n    tag_290:\n        /* \"#utility.yul\":5749:5799   */\n      tag_291\n        /* \"#utility.yul\":5791:5798   */\n      dup7\n        /* \"#utility.yul\":5782:5788   */\n      dup3\n        /* \"#utility.yul\":5771:5780   */\n      dup8\n        /* \"#utility.yul\":5767:5789   */\n      add\n        /* \"#utility.yul\":5749:5799   */\n      tag_232\n      jump\t// in\n    tag_291:\n        /* \"#utility.yul\":5739:5799   */\n      swap4\n      pop\n      pop\n        /* \"#utility.yul\":5818:5856   */\n      tag_292\n        /* \"#utility.yul\":5852:5854   */\n      0x20\n        /* \"#utility.yul\":5841:5850   */\n      dup6\n        /* \"#utility.yul\":5837:5855   */\n      add\n        /* \"#utility.yul\":5818:5856   */\n      tag_234\n      jump\t// in\n    tag_292:\n        /* \"#utility.yul\":5808:5856   */\n      swap2\n      pop\n        /* \"#utility.yul\":5906:5908   */\n      0x40\n        /* \"#utility.yul\":5895:5904   */\n      dup5\n        /* \"#utility.yul\":5891:5909   */\n      add\n        /* \"#utility.yul\":5878:5910   */\n      calldataload\n        /* \"#utility.yul\":5950:5954   */\n      0xff\n        /* \"#utility.yul\":5943:5948   */\n      dup2\n        /* \"#utility.yul\":5939:5955   */\n      and\n        /* \"#utility.yul\":5932:5937   */\n      dup2\n        /* \"#utility.yul\":5929:5956   */\n      eq\n        /* \"#utility.yul\":5919:5974   */\n      tag_293\n      jumpi\n        /* \"#utility.yul\":5970:5971   */\n      0x00\n        /* \"#utility.yul\":5967:5968   */\n      dup1\n        /* \"#utility.yul\":5960:5972   */\n      revert\n        /* \"#utility.yul\":5919:5974   */\n    tag_293:\n        /* \"#utility.yul\":5993:5998   */\n      dup1\n        /* \"#utility.yul\":5983:5998   */\n      swap2\n      pop\n      pop\n        /* \"#utility.yul\":5451:6004   */\n      swap3\n      pop\n      swap3\n      pop\n      swap3\n      jump\t// out\n        /* \"#utility.yul\":6009:6221   */\n    tag_235:\n        /* \"#utility.yul\":6051:6054   */\n      0x00\n        /* \"#utility.yul\":6089:6094   */\n      dup2\n        /* \"#utility.yul\":6083:6095   */\n      mload\n        /* \"#utility.yul\":6133:6139   */\n      dup1\n        /* \"#utility.yul\":6126:6130   */\n      0x20\n        /* \"#utility.yul\":6119:6124   */\n      dup5\n        /* \"#utility.yul\":6115:6131   */\n      add\n        /* \"#utility.yul\":6110:6113   */\n      dup6\n        /* \"#utility.yul\":6104:6140   */\n      mcopy\n        /* \"#utility.yul\":6195:6196   */\n      0x00\n        /* \"#utility.yul\":6159:6175   */\n      swap4\n      add\n        /* \"#utility.yul\":6184:6197   */\n      swap3\n      dup4\n      mstore\n      pop\n        /* \"#utility.yul\":6159:6175   */\n      swap1\n      swap2\n        /* \"#utility.yul\":6009:6221   */\n      swap1\n      pop\n      jump\t// out\n        /* \"#utility.yul\":6226:6418   */\n    tag_75:\n        /* \"#utility.yul\":6357:6360   */\n      0x00\n        /* \"#utility.yul\":6382:6412   */\n      tag_264\n        /* \"#utility.yul\":6408:6411   */\n      dup3\n        /* \"#utility.yul\":6400:6406   */\n      dup5\n        /* \"#utility.yul\":6382:6412   */\n      tag_235\n      jump\t// in\n        /* \"#utility.yul\":6423:6766   */\n    tag_78:\n        /* \"#utility.yul\":6625:6627   */\n      0x20\n        /* \"#utility.yul\":6607:6628   */\n      dup1\n      dup3\n      mstore\n        /* \"#utility.yul\":6664:6666   */\n      0x13\n        /* \"#utility.yul\":6644:6662   */\n      swap1\n      dup3\n      add\n        /* \"#utility.yul\":6637:6667   */\n      mstore\n      shl(0x6a, 0x119a5b1948191bd95cc81b9bdd08195e1a5cdd)\n        /* \"#utility.yul\":6698:6700   */\n      0x40\n        /* \"#utility.yul\":6683:6701   */\n      dup3\n      add\n        /* \"#utility.yul\":6676:6725   */\n      mstore\n        /* \"#utility.yul\":6757:6759   */\n      0x60\n        /* \"#utility.yul\":6742:6760   */\n      add\n      swap1\n        /* \"#utility.yul\":6423:6766   */\n      jump\t// out\n        /* \"#utility.yul\":7118:7498   */\n    tag_104:\n        /* \"#utility.yul\":7197:7198   */\n      0x01\n        /* \"#utility.yul\":7193:7205   */\n      dup2\n      dup2\n      shr\n      swap1\n        /* \"#utility.yul\":7240:7252   */\n      dup3\n      and\n      dup1\n        /* \"#utility.yul\":7261:7322   */\n      tag_300\n      jumpi\n        /* \"#utility.yul\":7315:7319   */\n      0x7f\n        /* \"#utility.yul\":7307:7313   */\n      dup3\n        /* \"#utility.yul\":7303:7320   */\n      and\n        /* \"#utility.yul\":7293:7320   */\n      swap2\n      pop\n        /* \"#utility.yul\":7261:7322   */\n    tag_300:\n        /* \"#utility.yul\":7368:7370   */\n      0x20\n        /* \"#utility.yul\":7360:7366   */\n      dup3\n        /* \"#utility.yul\":7357:7371   */\n      lt\n        /* \"#utility.yul\":7337:7355   */\n      dup2\n        /* \"#utility.yul\":7334:7372   */\n      sub\n        /* \"#utility.yul\":7331:7492   */\n      tag_95\n      jumpi\n        /* \"#utility.yul\":7414:7424   */\n      0x4e487b71\n        /* \"#utility.yul\":7409:7412   */\n      0xe0\n        /* \"#utility.yul\":7405:7425   */\n      shl\n        /* \"#utility.yul\":7402:7403   */\n      0x00\n        /* \"#utility.yul\":7395:7426   */\n      mstore\n        /* \"#utility.yul\":7449:7453   */\n      0x22\n        /* \"#utility.yul\":7446:7447   */\n      0x04\n        /* \"#utility.yul\":7439:7454   */\n      mstore\n        /* \"#utility.yul\":7477:7481   */\n      0x24\n        /* \"#utility.yul\":7474:7475   */\n      0x00\n        /* \"#utility.yul\":7467:7482   */\n      revert\n        /* \"#utility.yul\":7629:8147   */\n    tag_237:\n        /* \"#utility.yul\":7731:7733   */\n      0x1f\n        /* \"#utility.yul\":7726:7729   */\n      dup3\n        /* \"#utility.yul\":7723:7734   */\n      gt\n        /* \"#utility.yul\":7720:8141   */\n      iszero\n      tag_304\n      jumpi\n        /* \"#utility.yul\":7767:7772   */\n      dup1\n        /* \"#utility.yul\":7764:7765   */\n      0x00\n        /* \"#utility.yul\":7757:7773   */\n      mstore\n        /* \"#utility.yul\":7811:7815   */\n      0x20\n        /* \"#utility.yul\":7808:7809   */\n      0x00\n        /* \"#utility.yul\":7798:7816   */\n      keccak256\n        /* \"#utility.yul\":7881:7883   */\n      0x1f\n        /* \"#utility.yul\":7869:7879   */\n      dup5\n        /* \"#utility.yul\":7865:7884   */\n      add\n        /* \"#utility.yul\":7862:7863   */\n      0x05\n        /* \"#utility.yul\":7858:7885   */\n      shr\n        /* \"#utility.yul\":7852:7856   */\n      dup2\n        /* \"#utility.yul\":7848:7886   */\n      add\n        /* \"#utility.yul\":7917:7921   */\n      0x20\n        /* \"#utility.yul\":7905:7915   */\n      dup6\n        /* \"#utility.yul\":7902:7922   */\n      lt\n        /* \"#utility.yul\":7899:7946   */\n      iszero\n      tag_305\n      jumpi\n      pop\n        /* \"#utility.yul\":7940:7944   */\n      dup1\n        /* \"#utility.yul\":7899:7946   */\n    tag_305:\n        /* \"#utility.yul\":7995:7997   */\n      0x1f\n        /* \"#utility.yul\":7990:7993   */\n      dup5\n        /* \"#utility.yul\":7986:7998   */\n      add\n        /* \"#utility.yul\":7983:7984   */\n      0x05\n        /* \"#utility.yul\":7979:7999   */\n      shr\n        /* \"#utility.yul\":7973:7977   */\n      dup3\n        /* \"#utility.yul\":7969:8000   */\n      add\n        /* \"#utility.yul\":7959:8000   */\n      swap2\n      pop\n        /* \"#utility.yul\":8050:8131   */\n    tag_306:\n        /* \"#utility.yul\":8068:8070   */\n      dup2\n        /* \"#utility.yul\":8061:8066   */\n      dup2\n        /* \"#utility.yul\":8058:8071   */\n      lt\n        /* \"#utility.yul\":8050:8131   */\n      iszero\n      tag_89\n      jumpi\n        /* \"#utility.yul\":8127:8128   */\n      0x00\n        /* \"#utility.yul\":8113:8129   */\n      dup2\n      sstore\n        /* \"#utility.yul\":8094:8095   */\n      0x01\n        /* \"#utility.yul\":8083:8096   */\n      add\n        /* \"#utility.yul\":8050:8131   */\n      jump(tag_306)\n        /* \"#utility.yul\":7720:8141   */\n    tag_304:\n        /* \"#utility.yul\":7629:8147   */\n      pop\n      pop\n      pop\n      jump\t// out\n        /* \"#utility.yul\":8323:9622   */\n    tag_90:\n        /* \"#utility.yul\":8449:8452   */\n      dup2\n        /* \"#utility.yul\":8443:8453   */\n      mload\n        /* \"#utility.yul\":8476:8494   */\n      0xffffffffffffffff\n        /* \"#utility.yul\":8468:8474   */\n      dup2\n        /* \"#utility.yul\":8465:8495   */\n      gt\n        /* \"#utility.yul\":8462:8518   */\n      iszero\n      tag_312\n      jumpi\n        /* \"#utility.yul\":8498:8516   */\n      tag_312\n      tag_231\n      jump\t// in\n    tag_312:\n        /* \"#utility.yul\":8527:8624   */\n      tag_313\n        /* \"#utility.yul\":8617:8623   */\n      dup2\n        /* \"#utility.yul\":8577:8615   */\n      tag_314\n        /* \"#utility.yul\":8609:8613   */\n      dup5\n        /* \"#utility.yul\":8603:8614   */\n      sload\n        /* \"#utility.yul\":8577:8615   */\n      tag_104\n      jump\t// in\n    tag_314:\n        /* \"#utility.yul\":8571:8575   */\n      dup5\n        /* \"#utility.yul\":8527:8624   */\n      tag_237\n      jump\t// in\n    tag_313:\n        /* \"#utility.yul\":8673:8677   */\n      0x20\n        /* \"#utility.yul\":8704:8706   */\n      0x1f\n        /* \"#utility.yul\":8693:8707   */\n      dup3\n      gt\n        /* \"#utility.yul\":8721:8722   */\n      0x01\n        /* \"#utility.yul\":8716:9365   */\n      dup2\n      eq\n      tag_316\n      jumpi\n        /* \"#utility.yul\":9409:9410   */\n      0x00\n        /* \"#utility.yul\":9426:9432   */\n      dup4\n        /* \"#utility.yul\":9423:9512   */\n      iszero\n      tag_317\n      jumpi\n      pop\n        /* \"#utility.yul\":9478:9497   */\n      dup5\n      dup3\n      add\n        /* \"#utility.yul\":9472:9498   */\n      mload\n        /* \"#utility.yul\":9423:9512   */\n    tag_317:\n        /* \"#utility.yul\":8304:8305   */\n      0x01\n        /* \"#utility.yul\":8300:8311   */\n      dup5\n      swap1\n      shl\n      not(0x00)\n        /* \"#utility.yul\":8280:8281   */\n      0x03\n        /* \"#utility.yul\":8276:8287   */\n      dup7\n      swap1\n      shl\n        /* \"#utility.yul\":8272:8296   */\n      shr\n        /* \"#utility.yul\":8268:8297   */\n      not\n        /* \"#utility.yul\":8258:8298   */\n      dup3\n      and\n        /* \"#utility.yul\":8255:8312   */\n      or\n        /* \"#utility.yul\":9538:9605   */\n    tag_318:\n        /* \"#utility.yul\":9532:9536   */\n      dup6\n        /* \"#utility.yul\":9525:9606   */\n      sstore\n      pop\n        /* \"#utility.yul\":8686:9616   */\n      jump(tag_89)\n        /* \"#utility.yul\":8716:9365   */\n    tag_316:\n        /* \"#utility.yul\":7576:7577   */\n      0x00\n        /* \"#utility.yul\":7569:7583   */\n      dup5\n      dup2\n      mstore\n        /* \"#utility.yul\":7613:7617   */\n      0x20\n        /* \"#utility.yul\":7600:7618   */\n      dup2\n      keccak256\n      not(0x1f)\n        /* \"#utility.yul\":8752:8772   */\n      dup6\n      and\n      swap2\n        /* \"#utility.yul\":8870:9092   */\n    tag_320:\n        /* \"#utility.yul\":8884:8891   */\n      dup3\n        /* \"#utility.yul\":8881:8882   */\n      dup2\n        /* \"#utility.yul\":8878:8892   */\n      lt\n        /* \"#utility.yul\":8870:9092   */\n      iszero\n      tag_322\n      jumpi\n        /* \"#utility.yul\":8966:8985   */\n      dup8\n      dup6\n      add\n        /* \"#utility.yul\":8960:8986   */\n      mload\n        /* \"#utility.yul\":8945:8987   */\n      dup3\n      sstore\n        /* \"#utility.yul\":9073:9077   */\n      0x20\n        /* \"#utility.yul\":9058:9078   */\n      swap5\n      dup6\n      add\n      swap5\n        /* \"#utility.yul\":9026:9027   */\n      0x01\n        /* \"#utility.yul\":9014:9028   */\n      swap1\n      swap3\n      add\n      swap2\n        /* \"#utility.yul\":8900:8912   */\n      add\n        /* \"#utility.yul\":8870:9092   */\n      jump(tag_320)\n    tag_322:\n        /* \"#utility.yul\":8874:8877   */\n      pop\n        /* \"#utility.yul\":9120:9126   */\n      dup5\n        /* \"#utility.yul\":9111:9118   */\n      dup3\n        /* \"#utility.yul\":9108:9127   */\n      lt\n        /* \"#utility.yul\":9105:9306   */\n      iszero\n      tag_323\n      jumpi\n        /* \"#utility.yul\":9181:9200   */\n      dup7\n      dup5\n      add\n        /* \"#utility.yul\":9175:9201   */\n      mload\n      not(0x00)\n        /* \"#utility.yul\":9264:9265   */\n      0x03\n        /* \"#utility.yul\":9260:9274   */\n      dup8\n      swap1\n      shl\n        /* \"#utility.yul\":9276:9279   */\n      0xf8\n        /* \"#utility.yul\":9256:9280   */\n      and\n        /* \"#utility.yul\":9252:9289   */\n      shr\n        /* \"#utility.yul\":9248:9290   */\n      not\n        /* \"#utility.yul\":9233:9291   */\n      and\n        /* \"#utility.yul\":9218:9292   */\n      dup2\n      sstore\n        /* \"#utility.yul\":9105:9306   */\n    tag_323:\n      pop\n      pop\n      pop\n      pop\n        /* \"#utility.yul\":9352:9353   */\n      0x01\n        /* \"#utility.yul\":9336:9350   */\n      swap1\n      dup2\n      shl\n        /* \"#utility.yul\":9332:9354   */\n      add\n        /* \"#utility.yul\":9319:9355   */\n      swap1\n      sstore\n      pop\n        /* \"#utility.yul\":8323:9622   */\n      jump\t// out\n        /* \"#utility.yul\":9627:9754   */\n    tag_117:\n        /* \"#utility.yul\":9688:9698   */\n      0x4e487b71\n        /* \"#utility.yul\":9683:9686   */\n      0xe0\n        /* \"#utility.yul\":9679:9699   */\n      shl\n        /* \"#utility.yul\":9676:9677   */\n      0x00\n        /* \"#utility.yul\":9669:9700   */\n      mstore\n        /* \"#utility.yul\":9719:9723   */\n      0x32\n        /* \"#utility.yul\":9716:9717   */\n      0x04\n        /* \"#utility.yul\":9709:9724   */\n      mstore\n        /* \"#utility.yul\":9743:9747   */\n      0x24\n        /* \"#utility.yul\":9740:9741   */\n      0x00\n        /* \"#utility.yul\":9733:9748   */\n      revert\n        /* \"#utility.yul\":9759:10436   */\n    tag_239:\n        /* \"#utility.yul\":9809:9812   */\n      0x00\n        /* \"#utility.yul\":9850:9855   */\n      dup2\n        /* \"#utility.yul\":9844:9856   */\n      sload\n        /* \"#utility.yul\":9879:9915   */\n      tag_326\n        /* \"#utility.yul\":9905:9914   */\n      dup2\n        /* \"#utility.yul\":9879:9915   */\n      tag_104\n      jump\t// in\n    tag_326:\n        /* \"#utility.yul\":9946:9947   */\n      0x01\n        /* \"#utility.yul\":9931:9948   */\n      dup3\n      and\n        /* \"#utility.yul\":9957:10090   */\n      dup1\n      iszero\n      tag_328\n      jumpi\n        /* \"#utility.yul\":10104:10105   */\n      0x01\n        /* \"#utility.yul\":10099:10430   */\n      dup2\n      eq\n      tag_329\n      jumpi\n        /* \"#utility.yul\":9924:10430   */\n      jump(tag_327)\n        /* \"#utility.yul\":9957:10090   */\n    tag_328:\n      not(0xff)\n        /* \"#utility.yul\":9990:10014   */\n      dup4\n      and\n        /* \"#utility.yul\":9978:10015   */\n      dup7\n      mstore\n        /* \"#utility.yul\":10063:10077   */\n      dup2\n      iszero\n        /* \"#utility.yul\":10056:10078   */\n      iszero\n        /* \"#utility.yul\":10044:10079   */\n      dup3\n      mul\n        /* \"#utility.yul\":10035:10080   */\n      dup7\n      add\n      swap4\n      pop\n        /* \"#utility.yul\":9957:10090   */\n      jump(tag_327)\n        /* \"#utility.yul\":10099:10430   */\n    tag_329:\n        /* \"#utility.yul\":10130:10135   */\n      dup5\n        /* \"#utility.yul\":10127:10128   */\n      0x00\n        /* \"#utility.yul\":10120:10136   */\n      mstore\n        /* \"#utility.yul\":10177:10181   */\n      0x20\n        /* \"#utility.yul\":10174:10175   */\n      0x00\n        /* \"#utility.yul\":10164:10182   */\n      keccak256\n        /* \"#utility.yul\":10204:10205   */\n      0x00\n        /* \"#utility.yul\":10218:10384   */\n    tag_330:\n        /* \"#utility.yul\":10232:10238   */\n      dup4\n        /* \"#utility.yul\":10229:10230   */\n      dup2\n        /* \"#utility.yul\":10226:10239   */\n      lt\n        /* \"#utility.yul\":10218:10384   */\n      iszero\n      tag_332\n      jumpi\n        /* \"#utility.yul\":10312:10326   */\n      dup2\n      sload\n        /* \"#utility.yul\":10299:10310   */\n      dup9\n      dup3\n      add\n        /* \"#utility.yul\":10292:10327   */\n      mstore\n        /* \"#utility.yul\":10368:10369   */\n      0x01\n        /* \"#utility.yul\":10355:10370   */\n      swap1\n      swap2\n      add\n      swap1\n        /* \"#utility.yul\":10254:10258   */\n      0x20\n        /* \"#utility.yul\":10247:10259   */\n      add\n        /* \"#utility.yul\":10218:10384   */\n      jump(tag_330)\n    tag_332:\n        /* \"#utility.yul\":10222:10225   */\n      pop\n      pop\n        /* \"#utility.yul\":10413:10419   */\n      dup2\n        /* \"#utility.yul\":10408:10411   */\n      dup7\n        /* \"#utility.yul\":10404:10420   */\n      add\n        /* \"#utility.yul\":10397:10420   */\n      swap4\n      pop\n        /* \"#utility.yul\":9924:10430   */\n    tag_327:\n      pop\n      pop\n      pop\n        /* \"#utility.yul\":9759:10436   */\n      swap3\n      swap2\n      pop\n      pop\n      jump\t// out\n        /* \"#utility.yul\":10441:10638   */\n    tag_141:\n        /* \"#utility.yul\":10569:10572   */\n      0x00\n        /* \"#utility.yul\":10594:10632   */\n      tag_264\n        /* \"#utility.yul\":10628:10631   */\n      dup3\n        /* \"#utility.yul\":10620:10626   */\n      dup5\n        /* \"#utility.yul\":10594:10632   */\n      tag_239\n      jump\t// in\n        /* \"#utility.yul\":10643:10770   */\n    tag_240:\n        /* \"#utility.yul\":10704:10714   */\n      0x4e487b71\n        /* \"#utility.yul\":10699:10702   */\n      0xe0\n        /* \"#utility.yul\":10695:10715   */\n      shl\n        /* \"#utility.yul\":10692:10693   */\n      0x00\n        /* \"#utility.yul\":10685:10716   */\n      mstore\n        /* \"#utility.yul\":10735:10739   */\n      0x11\n        /* \"#utility.yul\":10732:10733   */\n      0x04\n        /* \"#utility.yul\":10725:10740   */\n      mstore\n        /* \"#utility.yul\":10759:10763   */\n      0x24\n        /* \"#utility.yul\":10756:10757   */\n      0x00\n        /* \"#utility.yul\":10749:10764   */\n      revert\n        /* \"#utility.yul\":10775:10903   */\n    tag_144:\n        /* \"#utility.yul\":10842:10851   */\n      dup2\n      dup2\n      sub\n        /* \"#utility.yul\":10863:10874   */\n      dup2\n      dup2\n      gt\n        /* \"#utility.yul\":10860:10897   */\n      iszero\n      tag_338\n      jumpi\n        /* \"#utility.yul\":10877:10895   */\n      tag_338\n      tag_240\n      jump\t// in\n    tag_338:\n        /* \"#utility.yul\":10775:10903   */\n      swap3\n      swap2\n      pop\n      pop\n      jump\t// out\n        /* \"#utility.yul\":10908:12305   */\n    tag_152:\n        /* \"#utility.yul\":11027:11030   */\n      dup2\n        /* \"#utility.yul\":11021:11025   */\n      dup2\n        /* \"#utility.yul\":11018:11031   */\n      sub\n        /* \"#utility.yul\":11015:11041   */\n      tag_340\n      jumpi\n        /* \"#utility.yul\":11034:11039   */\n      pop\n      pop\n        /* \"#utility.yul\":10908:12305   */\n      jump\t// out\n        /* \"#utility.yul\":11015:11041   */\n    tag_340:\n        /* \"#utility.yul\":11064:11101   */\n      tag_341\n        /* \"#utility.yul\":11096:11099   */\n      dup3\n        /* \"#utility.yul\":11090:11100   */\n      sload\n        /* \"#utility.yul\":11064:11101   */\n      tag_104\n      jump\t// in\n    tag_341:\n        /* \"#utility.yul\":11124:11142   */\n      0xffffffffffffffff\n        /* \"#utility.yul\":11116:11122   */\n      dup2\n        /* \"#utility.yul\":11113:11143   */\n      gt\n        /* \"#utility.yul\":11110:11166   */\n      iszero\n      tag_343\n      jumpi\n        /* \"#utility.yul\":11146:11164   */\n      tag_343\n      tag_231\n      jump\t// in\n    tag_343:\n        /* \"#utility.yul\":11175:11272   */\n      tag_344\n        /* \"#utility.yul\":11265:11271   */\n      dup2\n        /* \"#utility.yul\":11225:11263   */\n      tag_314\n        /* \"#utility.yul\":11257:11261   */\n      dup5\n        /* \"#utility.yul\":11251:11262   */\n      sload\n        /* \"#utility.yul\":11225:11263   */\n      tag_104\n      jump\t// in\n        /* \"#utility.yul\":11175:11272   */\n    tag_344:\n        /* \"#utility.yul\":11298:11299   */\n      0x00\n        /* \"#utility.yul\":11326:11328   */\n      0x1f\n        /* \"#utility.yul\":11318:11324   */\n      dup3\n        /* \"#utility.yul\":11315:11329   */\n      gt\n        /* \"#utility.yul\":11343:11344   */\n      0x01\n        /* \"#utility.yul\":11338:12048   */\n      dup2\n      eq\n      tag_347\n      jumpi\n        /* \"#utility.yul\":12092:12093   */\n      0x00\n        /* \"#utility.yul\":12109:12115   */\n      dup4\n        /* \"#utility.yul\":12106:12195   */\n      iszero\n      tag_317\n      jumpi\n      pop\n        /* \"#utility.yul\":12161:12180   */\n      dup2\n      dup6\n      add\n        /* \"#utility.yul\":12155:12181   */\n      sload\n        /* \"#utility.yul\":8304:8305   */\n      0x01\n        /* \"#utility.yul\":8300:8311   */\n      dup5\n      swap1\n      shl\n      not(0x00)\n        /* \"#utility.yul\":8280:8281   */\n      0x03\n        /* \"#utility.yul\":8276:8287   */\n      dup7\n      swap1\n      shl\n        /* \"#utility.yul\":8272:8296   */\n      shr\n        /* \"#utility.yul\":8268:8297   */\n      not\n        /* \"#utility.yul\":8258:8298   */\n      dup3\n      and\n        /* \"#utility.yul\":8255:8312   */\n      or\n        /* \"#utility.yul\":12221:12288   */\n      tag_318\n        /* \"#utility.yul\":8152:8318   */\n      jump\n        /* \"#utility.yul\":11338:12048   */\n    tag_347:\n        /* \"#utility.yul\":7576:7577   */\n      0x00\n        /* \"#utility.yul\":7569:7583   */\n      dup6\n      dup2\n      mstore\n        /* \"#utility.yul\":7613:7617   */\n      0x20\n        /* \"#utility.yul\":7600:7618   */\n      dup1\n      dup3\n      keccak256\n        /* \"#utility.yul\":7569:7583   */\n      dup7\n      dup4\n      mstore\n        /* \"#utility.yul\":7600:7618   */\n      swap1\n      dup3\n      keccak256\n      not(0x1f)\n        /* \"#utility.yul\":11374:11394   */\n      dup7\n      and\n      swap3\n        /* \"#utility.yul\":11552:11773   */\n    tag_352:\n        /* \"#utility.yul\":11566:11573   */\n      dup4\n        /* \"#utility.yul\":11563:11564   */\n      dup2\n        /* \"#utility.yul\":11560:11574   */\n      lt\n        /* \"#utility.yul\":11552:11773   */\n      iszero\n      tag_354\n      jumpi\n        /* \"#utility.yul\":11648:11669   */\n      dup3\n      dup7\n      add\n        /* \"#utility.yul\":11642:11670   */\n      sload\n        /* \"#utility.yul\":11627:11671   */\n      dup3\n      sstore\n        /* \"#utility.yul\":11710:11711   */\n      0x01\n        /* \"#utility.yul\":11742:11759   */\n      swap6\n      dup7\n      add\n      swap6\n        /* \"#utility.yul\":11698:11712   */\n      swap1\n      swap2\n      add\n      swap1\n        /* \"#utility.yul\":11589:11593   */\n      0x20\n        /* \"#utility.yul\":11582:11594   */\n      add\n        /* \"#utility.yul\":11552:11773   */\n      jump(tag_352)\n    tag_354:\n        /* \"#utility.yul\":11556:11559   */\n      pop\n        /* \"#utility.yul\":11801:11807   */\n      dup6\n        /* \"#utility.yul\":11792:11799   */\n      dup4\n        /* \"#utility.yul\":11789:11808   */\n      lt\n        /* \"#utility.yul\":11786:11989   */\n      iszero\n      tag_355\n      jumpi\n        /* \"#utility.yul\":11862:11883   */\n      dup2\n      dup6\n      add\n        /* \"#utility.yul\":11856:11884   */\n      sload\n      not(0x00)\n        /* \"#utility.yul\":11947:11948   */\n      0x03\n        /* \"#utility.yul\":11943:11957   */\n      dup9\n      swap1\n      shl\n        /* \"#utility.yul\":11959:11962   */\n      0xf8\n        /* \"#utility.yul\":11939:11963   */\n      and\n        /* \"#utility.yul\":11935:11972   */\n      shr\n        /* \"#utility.yul\":11931:11973   */\n      not\n        /* \"#utility.yul\":11916:11974   */\n      and\n        /* \"#utility.yul\":11901:11975   */\n      dup2\n      sstore\n        /* \"#utility.yul\":11786:11989   */\n    tag_355:\n      pop\n      pop\n      pop\n      pop\n      pop\n        /* \"#utility.yul\":12035:12036   */\n      0x01\n        /* \"#utility.yul\":12019:12033   */\n      swap1\n      dup2\n      shl\n        /* \"#utility.yul\":12015:12037   */\n      add\n        /* \"#utility.yul\":12002:12038   */\n      swap1\n      sstore\n      pop\n        /* \"#utility.yul\":10908:12305   */\n      jump\t// out\n        /* \"#utility.yul\":12310:12437   */\n    tag_155:\n        /* \"#utility.yul\":12371:12381   */\n      0x4e487b71\n        /* \"#utility.yul\":12366:12369   */\n      0xe0\n        /* \"#utility.yul\":12362:12382   */\n      shl\n        /* \"#utility.yul\":12359:12360   */\n      0x00\n        /* \"#utility.yul\":12352:12383   */\n      mstore\n        /* \"#utility.yul\":12402:12406   */\n      0x31\n        /* \"#utility.yul\":12399:12400   */\n      0x04\n        /* \"#utility.yul\":12392:12407   */\n      mstore\n        /* \"#utility.yul\":12426:12430   */\n      0x24\n        /* \"#utility.yul\":12423:12424   */\n      0x00\n        /* \"#utility.yul\":12416:12431   */\n      revert\n        /* \"#utility.yul\":12442:12578   */\n    tag_159:\n        /* \"#utility.yul\":12481:12484   */\n      0x00\n        /* \"#utility.yul\":12509:12514   */\n      dup2\n        /* \"#utility.yul\":12499:12538   */\n      tag_359\n      jumpi\n        /* \"#utility.yul\":12518:12536   */\n      tag_359\n      tag_240\n      jump\t// in\n    tag_359:\n      pop\n      not(0x00)\n        /* \"#utility.yul\":12554:12572   */\n      add\n      swap1\n        /* \"#utility.yul\":12442:12578   */\n      jump\t// out\n        /* \"#utility.yul\":12583:13015   */\n    tag_176:\n        /* \"#utility.yul\":12849:12852   */\n      0x00\n        /* \"#utility.yul\":12880:12918   */\n      tag_361\n        /* \"#utility.yul\":12914:12917   */\n      dup3\n        /* \"#utility.yul\":12906:12912   */\n      dup6\n        /* \"#utility.yul\":12880:12918   */\n      tag_239\n      jump\t// in\n    tag_361:\n      shl(0xf9, 0x05)\n        /* \"#utility.yul\":12927:12953   */\n      dup2\n      mstore\n        /* \"#utility.yul\":12969:13009   */\n      tag_362\n        /* \"#utility.yul\":13006:13007   */\n      0x01\n        /* \"#utility.yul\":12995:13008   */\n      dup3\n      add\n        /* \"#utility.yul\":12987:12993   */\n      dup6\n        /* \"#utility.yul\":12969:13009   */\n      tag_235\n      jump\t// in\n    tag_362:\n        /* \"#utility.yul\":12962:13009   */\n      swap6\n        /* \"#utility.yul\":12583:13015   */\n      swap5\n      pop\n      pop\n      pop\n      pop\n      pop\n      jump\t// out\n        /* \"#utility.yul\":14069:14204   */\n    tag_195:\n        /* \"#utility.yul\":14108:14111   */\n      0x00\n        /* \"#utility.yul\":14129:14146   */\n      0x01\n      dup3\n      add\n        /* \"#utility.yul\":14126:14169   */\n      tag_368\n      jumpi\n        /* \"#utility.yul\":14149:14167   */\n      tag_368\n      tag_240\n      jump\t// in\n    tag_368:\n      pop\n        /* \"#utility.yul\":14196:14197   */\n      0x01\n        /* \"#utility.yul\":14185:14198   */\n      add\n      swap1\n        /* \"#utility.yul\":14069:14204   */\n      jump\t// out\n\n    auxdata: 0xa264697066735822122011c1a36857911527f92b49887e675c2271aba14ddd6332da65335563537de06464736f6c634300081a0033\n}\n",
				"bytecode": {
					"linkReferences": {},
					"object": "60806040525f80553480156011575f80fd5b506115908061001f5f395ff3fe608060405234801561000f575f80fd5b50600436106100cb575f3560e01c8063a991005411610088578063bc051a4d11610063578063bc051a4d146101ab578063cffa39f9146101be578063e7755761146101e3578063eceed65314610206575f80fd5b8063a991005414610170578063b033d8fa14610183578063b6b13caa14610198575f80fd5b806313d4a044146100cf57806338fa8f58146100e4578063439535191461011457806360f9bb111461012a5780637d41216d1461014a578063897e0a971461015d575b5f80fd5b6100e26100dd366004610f16565b610219565b005b6100f76100f2366004610f7b565b610349565b6040516001600160a01b0390911681526020015b60405180910390f35b61011c5f5481565b60405190815260200161010b565b61013d610138366004610f7b565b6103c8565b60405161010b9190610fe3565b61013d610158366004611017565b6104bd565b6100e261016b366004610f16565b610600565b6100e261017e366004610f7b565b610677565b61018b61081d565b60405161010b9190611062565b6100e26101a6366004610f16565b6108f1565b6100e26101b93660046110c5565b610986565b6101d16101cc366004611017565b610b56565b60405160ff909116815260200161010b565b6101f66101f1366004610f7b565b610be1565b60405161010b9493929190611139565b6100e261021436600461117f565b610d2e565b8160018160405161022a91906111f9565b9081526040519081900360200190206002015460ff166102655760405162461bcd60e51b815260040161025c90611204565b60405180910390fd5b60018260405161027591906111f9565b9081526040519081900360200190206002015460ff16156102cd5760405162461bcd60e51b81526020600482015260126024820152714e616d65206e6f7420617661696c61626c6560701b604482015260640161025c565b5f6001846040516102de91906111f9565b908152602001604051809103902090506001846040516102fe91906111f9565b9081526040519081900360200190205f6103188282610e25565b610325600183015f610e25565b5060020180546001600160a81b03191690558061034284826112ac565b5050505050565b5f8160018160405161035b91906111f9565b9081526040519081900360200190206002015460ff1661038d5760405162461bcd60e51b815260040161025c90611204565b60018360405161039d91906111f9565b908152604051908190036020019020600201546001600160a01b036101009091041691505b50919050565b6060816001816040516103db91906111f9565b9081526040519081900360200190206002015460ff1661040d5760405162461bcd60e51b815260040161025c90611204565b60018360405161041d91906111f9565b9081526020016040518091039020600101805461043990611231565b80601f016020809104026020016040519081016040528092919081815260200182805461046590611231565b80156104b05780601f10610487576101008083540402835291602001916104b0565b820191905f5260205f20905b81548152906001019060200180831161049357829003601f168201915b5050505050915050919050565b6060826001816040516104d091906111f9565b9081526040519081900360200190206002015460ff166105025760405162461bcd60e51b815260040161025c90611204565b6040805160c081018252600960808201818152684e6f2061636365737360b81b60a08401528252825180840184529081526852656164206f6e6c7960b81b6020828101919091528083019190915282518084018452600d81526c14995859080988185c1c195b99609a1b8183015282840152825180840184526014815273526561642c20617070656e64202620777269746560601b918101919091526060820152905181906001906105b59088906111f9565b90815260408051602092819003830190206001600160a01b0388165f908152600390910190925290205460ff16600481106105f2576105f261136a565b602002015195945050505050565b8160018160405161061191906111f9565b9081526040519081900360200190206002015460ff166106435760405162461bcd60e51b815260040161025c90611204565b8160018460405161065491906111f9565b9081526020016040518091039020600101908161067191906112ac565b50505050565b8060018160405161068891906111f9565b9081526040519081900360200190206002015460ff166106ba5760405162461bcd60e51b815260040161025c90611204565b6001826040516106ca91906111f9565b9081526040519081900360200190205f6106e48282610e25565b6106f1600183015f610e25565b5060020180546001600160a81b03191690555f5b600254811015610805578260405160200161072091906111f9565b60405160208183030381529060405280519060200120600282815481106107495761074961136a565b905f5260205f200160405160200161076191906113ec565b60405160208183030381529060405280519060200120036107fd576002805461078c9060019061140b565b8154811061079c5761079c61136a565b905f5260205f2001600282815481106107b7576107b761136a565b905f5260205f200190816107cb9190611424565b5060028054806107dd576107dd6114f1565b600190038181905f5260205f20015f6107f69190610e25565b9055610805565b600101610705565b505f8054908061081483611505565b91905055505050565b60606002805480602002602001604051908101604052809291908181526020015f905b828210156108e8578382905f5260205f2001805461085d90611231565b80601f016020809104026020016040519081016040528092919081815260200182805461088990611231565b80156108d45780601f106108ab576101008083540402835291602001916108d4565b820191905f5260205f20905b8154815290600101906020018083116108b757829003601f168201915b505050505081526020019060010190610840565b50505050905090565b8160018160405161090291906111f9565b9081526040519081900360200190206002015460ff166109345760405162461bcd60e51b815260040161025c90611204565b60018360405161094491906111f9565b90815260200160405180910390206001018260405160200161096792919061151a565b60405160208183030381529060405260018460405161065491906111f9565b5f546032116109cd5760405162461bcd60e51b8152602060048201526013602482015272115e18d95959195908199a5b19481b1a5b5a5d606a1b604482015260640161025c565b5f835111610a1d5760405162461bcd60e51b815260206004820152601860248201527f46696c656e616d652063616e6e6f7420626520656d7074790000000000000000604482015260640161025c565b600183604051610a2d91906111f9565b9081526040519081900360200190206002015460ff1615610a865760405162461bcd60e51b815260206004820152601360248201527246696c6520616c72656164792065786973747360681b604482015260640161025c565b5f600184604051610a9791906111f9565b908152604051908190036020019020905080610ab385826112ac565b5060018101610ac283826112ac565b506002810180546001600160a01b03851661010081026001600160a81b0319909216919091176001179091555f908152600380830160205260408220805460ff1916909117905580549080610b1683611542565b9091555050600280546001810182555f919091527f405787fa12a823e0f2b7631cc41b3ba8828b3321ca811111fa75cd3aa3bb5ace0161034285826112ac565b5f82600181604051610b6891906111f9565b9081526040519081900360200190206002015460ff16610b9a5760405162461bcd60e51b815260040161025c90611204565b600184604051610baa91906111f9565b90815260408051602092819003830190206001600160a01b03959095165f90815260039095019091529092205460ff169392505050565b8051602081830181018051600182529282019190930120915280548190610c0790611231565b80601f0160208091040260200160405190810160405280929190818152602001828054610c3390611231565b8015610c7e5780601f10610c5557610100808354040283529160200191610c7e565b820191905f5260205f20905b815481529060010190602001808311610c6157829003601f168201915b505050505090806001018054610c9390611231565b80601f0160208091040260200160405190810160405280929190818152602001828054610cbf90611231565b8015610d0a5780601f10610ce157610100808354040283529160200191610d0a565b820191905f5260205f20905b815481529060010190602001808311610ced57829003601f168201915b5050506002909301549192505060ff8116906001600160a01b036101009091041684565b82600181604051610d3f91906111f9565b9081526040519081900360200190206002015460ff16610d715760405162461bcd60e51b815260040161025c90611204565b60038260ff161115610dc55760405162461bcd60e51b815260206004820152601760248201527f496e76616c6964207065726d697373696f6e206d6f6465000000000000000000604482015260640161025c565b81600185604051610dd691906111f9565b90815260200160405180910390206003015f856001600160a01b03166001600160a01b031681526020019081526020015f205f6101000a81548160ff021916908360ff16021790555050505050565b508054610e3190611231565b5f825580601f10610e40575050565b601f0160209004905f5260205f2090810190610e5c9190610e5f565b50565b5b80821115610e73575f8155600101610e60565b5090565b634e487b7160e01b5f52604160045260245ffd5b5f82601f830112610e9a575f80fd5b813567ffffffffffffffff811115610eb457610eb4610e77565b604051601f8201601f19908116603f0116810167ffffffffffffffff81118282101715610ee357610ee3610e77565b604052818152838201602001851015610efa575f80fd5b816020850160208301375f918101602001919091529392505050565b5f8060408385031215610f27575f80fd5b823567ffffffffffffffff811115610f3d575f80fd5b610f4985828601610e8b565b925050602083013567ffffffffffffffff811115610f65575f80fd5b610f7185828601610e8b565b9150509250929050565b5f60208284031215610f8b575f80fd5b813567ffffffffffffffff811115610fa1575f80fd5b610fad84828501610e8b565b949350505050565b5f81518084528060208401602086015e5f602082860101526020601f19601f83011685010191505092915050565b602081525f610ff56020830184610fb5565b9392505050565b80356001600160a01b0381168114611012575f80fd5b919050565b5f8060408385031215611028575f80fd5b823567ffffffffffffffff81111561103e575f80fd5b61104a85828601610e8b565b92505061105960208401610ffc565b90509250929050565b5f602082016020835280845180835260408501915060408160051b8601019250602086015f5b828110156110b957603f198786030184526110a4858351610fb5565b94506020938401939190910190600101611088565b50929695505050505050565b5f805f606084860312156110d7575f80fd5b833567ffffffffffffffff8111156110ed575f80fd5b6110f986828701610e8b565b93505061110860208501610ffc565b9150604084013567ffffffffffffffff811115611123575f80fd5b61112f86828701610e8b565b9150509250925092565b608081525f61114b6080830187610fb5565b828103602084015261115d8187610fb5565b941515604084015250506001600160a01b039190911660609091015292915050565b5f805f60608486031215611191575f80fd5b833567ffffffffffffffff8111156111a7575f80fd5b6111b386828701610e8b565b9350506111c260208501610ffc565b9150604084013560ff811681146111d7575f80fd5b809150509250925092565b5f81518060208401855e5f93019283525090919050565b5f610ff582846111e2565b602080825260139082015272119a5b1948191bd95cc81b9bdd08195e1a5cdd606a1b604082015260600190565b600181811c9082168061124557607f821691505b6020821081036103c257634e487b7160e01b5f52602260045260245ffd5b601f8211156112a757805f5260205f20601f840160051c810160208510156112885750805b601f840160051c820191505b81811015610342575f8155600101611294565b505050565b815167ffffffffffffffff8111156112c6576112c6610e77565b6112da816112d48454611231565b84611263565b6020601f82116001811461130f575f83156112f55750848201515b600184901b5f19600386901b1c198216175b855550610342565b5f84815260208120601f198516915b8281101561133e578785015182556020948501946001909201910161131e565b508482101561135b57868401515f19600387901b60f8161c191681555b50505050600190811b01905550565b634e487b7160e01b5f52603260045260245ffd5b5f815461138a81611231565b6001821680156113a157600181146113b6576113e3565b60ff19831686528115158202860193506113e3565b845f5260205f205f5b838110156113db578154888201526001909101906020016113bf565b505081860193505b50505092915050565b5f610ff5828461137e565b634e487b7160e01b5f52601160045260245ffd5b8181038181111561141e5761141e6113f7565b92915050565b81810361142f575050565b6114398254611231565b67ffffffffffffffff81111561145157611451610e77565b61145f816112d48454611231565b5f601f82116001811461148e575f83156112f5575081850154600184901b5f19600386901b1c19821617611307565b5f8581526020808220868352908220601f198616925b838110156114c457828601548255600195860195909101906020016114a4565b50858310156114e157818501545f19600388901b60f8161c191681555b5050505050600190811b01905550565b634e487b7160e01b5f52603160045260245ffd5b5f81611513576115136113f7565b505f190190565b5f611525828561137e565b600560f91b815261153960018201856111e2565b95945050505050565b5f60018201611553576115536113f7565b506001019056fea264697066735822122011c1a36857911527f92b49887e675c2271aba14ddd6332da65335563537de06464736f6c634300081a0033",
					"opcodes": "PUSH1 0x80 PUSH1 0x40 MSTORE PUSH0 DUP1 SSTORE CALLVALUE DUP1 ISZERO PUSH1 0x11 JUMPI PUSH0 DUP1 REVERT JUMPDEST POP PUSH2 0x1590 DUP1 PUSH2 0x1F PUSH0 CODECOPY PUSH0 RETURN INVALID PUSH1 0x80 PUSH1 0x40 MSTORE CALLVALUE DUP1 ISZERO PUSH2 0xF JUMPI PUSH0 DUP1 REVERT JUMPDEST POP PUSH1 0x4 CALLDATASIZE LT PUSH2 0xCB JUMPI PUSH0 CALLDATALOAD PUSH1 0xE0 SHR DUP1 PUSH4 0xA9910054 GT PUSH2 0x88 JUMPI DUP1 PUSH4 0xBC051A4D GT PUSH2 0x63 JUMPI DUP1 PUSH4 0xBC051A4D EQ PUSH2 0x1AB JUMPI DUP1 PUSH4 0xCFFA39F9 EQ PUSH2 0x1BE JUMPI DUP1 PUSH4 0xE7755761 EQ PUSH2 0x1E3 JUMPI DUP1 PUSH4 0xECEED653 EQ PUSH2 0x206 JUMPI PUSH0 DUP1 REVERT JUMPDEST DUP1 PUSH4 0xA9910054 EQ PUSH2 0x170 JUMPI DUP1 PUSH4 0xB033D8FA EQ PUSH2 0x183 JUMPI DUP1 PUSH4 0xB6B13CAA EQ PUSH2 0x198 JUMPI PUSH0 DUP1 REVERT JUMPDEST DUP1 PUSH4 0x13D4A044 EQ PUSH2 0xCF JUMPI DUP1 PUSH4 0x38FA8F58 EQ PUSH2 0xE4 JUMPI DUP1 PUSH4 0x43953519 EQ PUSH2 0x114 JUMPI DUP1 PUSH4 0x60F9BB11 EQ PUSH2 0x12A JUMPI DUP1 PUSH4 0x7D41216D EQ PUSH2 0x14A JUMPI DUP1 PUSH4 0x897E0A97 EQ PUSH2 0x15D JUMPI JUMPDEST PUSH0 DUP1 REVERT JUMPDEST PUSH2 0xE2 PUSH2 0xDD CALLDATASIZE PUSH1 0x4 PUSH2 0xF16 JUMP JUMPDEST PUSH2 0x219 JUMP JUMPDEST STOP JUMPDEST PUSH2 0xF7 PUSH2 0xF2 CALLDATASIZE PUSH1 0x4 PUSH2 0xF7B JUMP JUMPDEST PUSH2 0x349 JUMP JUMPDEST PUSH1 0x40 MLOAD PUSH1 0x1 PUSH1 0x1 PUSH1 0xA0 SHL SUB SWAP1 SWAP2 AND DUP2 MSTORE PUSH1 0x20 ADD JUMPDEST PUSH1 0x40 MLOAD DUP1 SWAP2 SUB SWAP1 RETURN JUMPDEST PUSH2 0x11C PUSH0 SLOAD DUP2 JUMP JUMPDEST PUSH1 0x40 MLOAD SWAP1 DUP2 MSTORE PUSH1 0x20 ADD PUSH2 0x10B JUMP JUMPDEST PUSH2 0x13D PUSH2 0x138 CALLDATASIZE PUSH1 0x4 PUSH2 0xF7B JUMP JUMPDEST PUSH2 0x3C8 JUMP JUMPDEST PUSH1 0x40 MLOAD PUSH2 0x10B SWAP2 SWAP1 PUSH2 0xFE3 JUMP JUMPDEST PUSH2 0x13D PUSH2 0x158 CALLDATASIZE PUSH1 0x4 PUSH2 0x1017 JUMP JUMPDEST PUSH2 0x4BD JUMP JUMPDEST PUSH2 0xE2 PUSH2 0x16B CALLDATASIZE PUSH1 0x4 PUSH2 0xF16 JUMP JUMPDEST PUSH2 0x600 JUMP JUMPDEST PUSH2 0xE2 PUSH2 0x17E CALLDATASIZE PUSH1 0x4 PUSH2 0xF7B JUMP JUMPDEST PUSH2 0x677 JUMP JUMPDEST PUSH2 0x18B PUSH2 0x81D JUMP JUMPDEST PUSH1 0x40 MLOAD PUSH2 0x10B SWAP2 SWAP1 PUSH2 0x1062 JUMP JUMPDEST PUSH2 0xE2 PUSH2 0x1A6 CALLDATASIZE PUSH1 0x4 PUSH2 0xF16 JUMP JUMPDEST PUSH2 0x8F1 JUMP JUMPDEST PUSH2 0xE2 PUSH2 0x1B9 CALLDATASIZE PUSH1 0x4 PUSH2 0x10C5 JUMP JUMPDEST PUSH2 0x986 JUMP JUMPDEST PUSH2 0x1D1 PUSH2 0x1CC CALLDATASIZE PUSH1 0x4 PUSH2 0x1017 JUMP JUMPDEST PUSH2 0xB56 JUMP JUMPDEST PUSH1 0x40 MLOAD PUSH1 0xFF SWAP1 SWAP2 AND DUP2 MSTORE PUSH1 0x20 ADD PUSH2 0x10B JUMP JUMPDEST PUSH2 0x1F6 PUSH2 0x1F1 CALLDATASIZE PUSH1 0x4 PUSH2 0xF7B JUMP JUMPDEST PUSH2 0xBE1 JUMP JUMPDEST PUSH1 0x40 MLOAD PUSH2 0x10B SWAP5 SWAP4 SWAP3 SWAP2 SWAP1 PUSH2 0x1139 JUMP JUMPDEST PUSH2 0xE2 PUSH2 0x214 CALLDATASIZE PUSH1 0x4 PUSH2 0x117F JUMP JUMPDEST PUSH2 0xD2E JUMP JUMPDEST DUP2 PUSH1 0x1 DUP2 PUSH1 0x40 MLOAD PUSH2 0x22A SWAP2 SWAP1 PUSH2 0x11F9 JUMP JUMPDEST SWAP1 DUP2 MSTORE PUSH1 0x40 MLOAD SWAP1 DUP2 SWAP1 SUB PUSH1 0x20 ADD SWAP1 KECCAK256 PUSH1 0x2 ADD SLOAD PUSH1 0xFF AND PUSH2 0x265 JUMPI PUSH1 0x40 MLOAD PUSH3 0x461BCD PUSH1 0xE5 SHL DUP2 MSTORE PUSH1 0x4 ADD PUSH2 0x25C SWAP1 PUSH2 0x1204 JUMP JUMPDEST PUSH1 0x40 MLOAD DUP1 SWAP2 SUB SWAP1 REVERT JUMPDEST PUSH1 0x1 DUP3 PUSH1 0x40 MLOAD PUSH2 0x275 SWAP2 SWAP1 PUSH2 0x11F9 JUMP JUMPDEST SWAP1 DUP2 MSTORE PUSH1 0x40 MLOAD SWAP1 DUP2 SWAP1 SUB PUSH1 0x20 ADD SWAP1 KECCAK256 PUSH1 0x2 ADD SLOAD PUSH1 0xFF AND ISZERO PUSH2 0x2CD JUMPI PUSH1 0x40 MLOAD PUSH3 0x461BCD PUSH1 0xE5 SHL DUP2 MSTORE PUSH1 0x20 PUSH1 0x4 DUP3 ADD MSTORE PUSH1 0x12 PUSH1 0x24 DUP3 ADD MSTORE PUSH18 0x4E616D65206E6F7420617661696C61626C65 PUSH1 0x70 SHL PUSH1 0x44 DUP3 ADD MSTORE PUSH1 0x64 ADD PUSH2 0x25C JUMP JUMPDEST PUSH0 PUSH1 0x1 DUP5 PUSH1 0x40 MLOAD PUSH2 0x2DE SWAP2 SWAP1 PUSH2 0x11F9 JUMP JUMPDEST SWAP1 DUP2 MSTORE PUSH1 0x20 ADD PUSH1 0x40 MLOAD DUP1 SWAP2 SUB SWAP1 KECCAK256 SWAP1 POP PUSH1 0x1 DUP5 PUSH1 0x40 MLOAD PUSH2 0x2FE SWAP2 SWAP1 PUSH2 0x11F9 JUMP JUMPDEST SWAP1 DUP2 MSTORE PUSH1 0x40 MLOAD SWAP1 DUP2 SWAP1 SUB PUSH1 0x20 ADD SWAP1 KECCAK256 PUSH0 PUSH2 0x318 DUP3 DUP3 PUSH2 0xE25 JUMP JUMPDEST PUSH2 0x325 PUSH1 0x1 DUP4 ADD PUSH0 PUSH2 0xE25 JUMP JUMPDEST POP PUSH1 0x2 ADD DUP1 SLOAD PUSH1 0x1 PUSH1 0x1 PUSH1 0xA8 SHL SUB NOT AND SWAP1 SSTORE DUP1 PUSH2 0x342 DUP5 DUP3 PUSH2 0x12AC JUMP JUMPDEST POP POP POP POP POP JUMP JUMPDEST PUSH0 DUP2 PUSH1 0x1 DUP2 PUSH1 0x40 MLOAD PUSH2 0x35B SWAP2 SWAP1 PUSH2 0x11F9 JUMP JUMPDEST SWAP1 DUP2 MSTORE PUSH1 0x40 MLOAD SWAP1 DUP2 SWAP1 SUB PUSH1 0x20 ADD SWAP1 KECCAK256 PUSH1 0x2 ADD SLOAD PUSH1 0xFF AND PUSH2 0x38D JUMPI PUSH1 0x40 MLOAD PUSH3 0x461BCD PUSH1 0xE5 SHL DUP2 MSTORE PUSH1 0x4 ADD PUSH2 0x25C SWAP1 PUSH2 0x1204 JUMP JUMPDEST PUSH1 0x1 DUP4 PUSH1 0x40 MLOAD PUSH2 0x39D SWAP2 SWAP1 PUSH2 0x11F9 JUMP JUMPDEST SWAP1 DUP2 MSTORE PUSH1 0x40 MLOAD SWAP1 DUP2 SWAP1 SUB PUSH1 0x20 ADD SWAP1 KECCAK256 PUSH1 0x2 ADD SLOAD PUSH1 0x1 PUSH1 0x1 PUSH1 0xA0 SHL SUB PUSH2 0x100 SWAP1 SWAP2 DIV AND SWAP2 POP JUMPDEST POP SWAP2 SWAP1 POP JUMP JUMPDEST PUSH1 0x60 DUP2 PUSH1 0x1 DUP2 PUSH1 0x40 MLOAD PUSH2 0x3DB SWAP2 SWAP1 PUSH2 0x11F9 JUMP JUMPDEST SWAP1 DUP2 MSTORE PUSH1 0x40 MLOAD SWAP1 DUP2 SWAP1 SUB PUSH1 0x20 ADD SWAP1 KECCAK256 PUSH1 0x2 ADD SLOAD PUSH1 0xFF AND PUSH2 0x40D JUMPI PUSH1 0x40 MLOAD PUSH3 0x461BCD PUSH1 0xE5 SHL DUP2 MSTORE PUSH1 0x4 ADD PUSH2 0x25C SWAP1 PUSH2 0x1204 JUMP JUMPDEST PUSH1 0x1 DUP4 PUSH1 0x40 MLOAD PUSH2 0x41D SWAP2 SWAP1 PUSH2 0x11F9 JUMP JUMPDEST SWAP1 DUP2 MSTORE PUSH1 0x20 ADD PUSH1 0x40 MLOAD DUP1 SWAP2 SUB SWAP1 KECCAK256 PUSH1 0x1 ADD DUP1 SLOAD PUSH2 0x439 SWAP1 PUSH2 0x1231 JUMP JUMPDEST DUP1 PUSH1 0x1F ADD PUSH1 0x20 DUP1 SWAP2 DIV MUL PUSH1 0x20 ADD PUSH1 0x40 MLOAD SWAP1 DUP2 ADD PUSH1 0x40 MSTORE DUP1 SWAP3 SWAP2 SWAP1 DUP2 DUP2 MSTORE PUSH1 0x20 ADD DUP3 DUP1 SLOAD PUSH2 0x465 SWAP1 PUSH2 0x1231 JUMP JUMPDEST DUP1 ISZERO PUSH2 0x4B0 JUMPI DUP1 PUSH1 0x1F LT PUSH2 0x487 JUMPI PUSH2 0x100 DUP1 DUP4 SLOAD DIV MUL DUP4 MSTORE SWAP2 PUSH1 0x20 ADD SWAP2 PUSH2 0x4B0 JUMP JUMPDEST DUP3 ADD SWAP2 SWAP1 PUSH0 MSTORE PUSH1 0x20 PUSH0 KECCAK256 SWAP1 JUMPDEST DUP2 SLOAD DUP2 MSTORE SWAP1 PUSH1 0x1 ADD SWAP1 PUSH1 0x20 ADD DUP1 DUP4 GT PUSH2 0x493 JUMPI DUP3 SWAP1 SUB PUSH1 0x1F AND DUP3 ADD SWAP2 JUMPDEST POP POP POP POP POP SWAP2 POP POP SWAP2 SWAP1 POP JUMP JUMPDEST PUSH1 0x60 DUP3 PUSH1 0x1 DUP2 PUSH1 0x40 MLOAD PUSH2 0x4D0 SWAP2 SWAP1 PUSH2 0x11F9 JUMP JUMPDEST SWAP1 DUP2 MSTORE PUSH1 0x40 MLOAD SWAP1 DUP2 SWAP1 SUB PUSH1 0x20 ADD SWAP1 KECCAK256 PUSH1 0x2 ADD SLOAD PUSH1 0xFF AND PUSH2 0x502 JUMPI PUSH1 0x40 MLOAD PUSH3 0x461BCD PUSH1 0xE5 SHL DUP2 MSTORE PUSH1 0x4 ADD PUSH2 0x25C SWAP1 PUSH2 0x1204 JUMP JUMPDEST PUSH1 0x40 DUP1 MLOAD PUSH1 0xC0 DUP2 ADD DUP3 MSTORE PUSH1 0x9 PUSH1 0x80 DUP3 ADD DUP2 DUP2 MSTORE PUSH9 0x4E6F20616363657373 PUSH1 0xB8 SHL PUSH1 0xA0 DUP5 ADD MSTORE DUP3 MSTORE DUP3 MLOAD DUP1 DUP5 ADD DUP5 MSTORE SWAP1 DUP2 MSTORE PUSH9 0x52656164206F6E6C79 PUSH1 0xB8 SHL PUSH1 0x20 DUP3 DUP2 ADD SWAP2 SWAP1 SWAP2 MSTORE DUP1 DUP4 ADD SWAP2 SWAP1 SWAP2 MSTORE DUP3 MLOAD DUP1 DUP5 ADD DUP5 MSTORE PUSH1 0xD DUP2 MSTORE PUSH13 0x14995859080988185C1C195B99 PUSH1 0x9A SHL DUP2 DUP4 ADD MSTORE DUP3 DUP5 ADD MSTORE DUP3 MLOAD DUP1 DUP5 ADD DUP5 MSTORE PUSH1 0x14 DUP2 MSTORE PUSH20 0x526561642C20617070656E642026207772697465 PUSH1 0x60 SHL SWAP2 DUP2 ADD SWAP2 SWAP1 SWAP2 MSTORE PUSH1 0x60 DUP3 ADD MSTORE SWAP1 MLOAD DUP2 SWAP1 PUSH1 0x1 SWAP1 PUSH2 0x5B5 SWAP1 DUP9 SWAP1 PUSH2 0x11F9 JUMP JUMPDEST SWAP1 DUP2 MSTORE PUSH1 0x40 DUP1 MLOAD PUSH1 0x20 SWAP3 DUP2 SWAP1 SUB DUP4 ADD SWAP1 KECCAK256 PUSH1 0x1 PUSH1 0x1 PUSH1 0xA0 SHL SUB DUP9 AND PUSH0 SWAP1 DUP2 MSTORE PUSH1 0x3 SWAP1 SWAP2 ADD SWAP1 SWAP3 MSTORE SWAP1 KECCAK256 SLOAD PUSH1 0xFF AND PUSH1 0x4 DUP2 LT PUSH2 0x5F2 JUMPI PUSH2 0x5F2 PUSH2 0x136A JUMP JUMPDEST PUSH1 0x20 MUL ADD MLOAD SWAP6 SWAP5 POP POP POP POP POP JUMP JUMPDEST DUP2 PUSH1 0x1 DUP2 PUSH1 0x40 MLOAD PUSH2 0x611 SWAP2 SWAP1 PUSH2 0x11F9 JUMP JUMPDEST SWAP1 DUP2 MSTORE PUSH1 0x40 MLOAD SWAP1 DUP2 SWAP1 SUB PUSH1 0x20 ADD SWAP1 KECCAK256 PUSH1 0x2 ADD SLOAD PUSH1 0xFF AND PUSH2 0x643 JUMPI PUSH1 0x40 MLOAD PUSH3 0x461BCD PUSH1 0xE5 SHL DUP2 MSTORE PUSH1 0x4 ADD PUSH2 0x25C SWAP1 PUSH2 0x1204 JUMP JUMPDEST DUP2 PUSH1 0x1 DUP5 PUSH1 0x40 MLOAD PUSH2 0x654 SWAP2 SWAP1 PUSH2 0x11F9 JUMP JUMPDEST SWAP1 DUP2 MSTORE PUSH1 0x20 ADD PUSH1 0x40 MLOAD DUP1 SWAP2 SUB SWAP1 KECCAK256 PUSH1 0x1 ADD SWAP1 DUP2 PUSH2 0x671 SWAP2 SWAP1 PUSH2 0x12AC JUMP JUMPDEST POP POP POP POP JUMP JUMPDEST DUP1 PUSH1 0x1 DUP2 PUSH1 0x40 MLOAD PUSH2 0x688 SWAP2 SWAP1 PUSH2 0x11F9 JUMP JUMPDEST SWAP1 DUP2 MSTORE PUSH1 0x40 MLOAD SWAP1 DUP2 SWAP1 SUB PUSH1 0x20 ADD SWAP1 KECCAK256 PUSH1 0x2 ADD SLOAD PUSH1 0xFF AND PUSH2 0x6BA JUMPI PUSH1 0x40 MLOAD PUSH3 0x461BCD PUSH1 0xE5 SHL DUP2 MSTORE PUSH1 0x4 ADD PUSH2 0x25C SWAP1 PUSH2 0x1204 JUMP JUMPDEST PUSH1 0x1 DUP3 PUSH1 0x40 MLOAD PUSH2 0x6CA SWAP2 SWAP1 PUSH2 0x11F9 JUMP JUMPDEST SWAP1 DUP2 MSTORE PUSH1 0x40 MLOAD SWAP1 DUP2 SWAP1 SUB PUSH1 0x20 ADD SWAP1 KECCAK256 PUSH0 PUSH2 0x6E4 DUP3 DUP3 PUSH2 0xE25 JUMP JUMPDEST PUSH2 0x6F1 PUSH1 0x1 DUP4 ADD PUSH0 PUSH2 0xE25 JUMP JUMPDEST POP PUSH1 0x2 ADD DUP1 SLOAD PUSH1 0x1 PUSH1 0x1 PUSH1 0xA8 SHL SUB NOT AND SWAP1 SSTORE PUSH0 JUMPDEST PUSH1 0x2 SLOAD DUP2 LT ISZERO PUSH2 0x805 JUMPI DUP3 PUSH1 0x40 MLOAD PUSH1 0x20 ADD PUSH2 0x720 SWAP2 SWAP1 PUSH2 0x11F9 JUMP JUMPDEST PUSH1 0x40 MLOAD PUSH1 0x20 DUP2 DUP4 SUB SUB DUP2 MSTORE SWAP1 PUSH1 0x40 MSTORE DUP1 MLOAD SWAP1 PUSH1 0x20 ADD KECCAK256 PUSH1 0x2 DUP3 DUP2 SLOAD DUP2 LT PUSH2 0x749 JUMPI PUSH2 0x749 PUSH2 0x136A JUMP JUMPDEST SWAP1 PUSH0 MSTORE PUSH1 0x20 PUSH0 KECCAK256 ADD PUSH1 0x40 MLOAD PUSH1 0x20 ADD PUSH2 0x761 SWAP2 SWAP1 PUSH2 0x13EC JUMP JUMPDEST PUSH1 0x40 MLOAD PUSH1 0x20 DUP2 DUP4 SUB SUB DUP2 MSTORE SWAP1 PUSH1 0x40 MSTORE DUP1 MLOAD SWAP1 PUSH1 0x20 ADD KECCAK256 SUB PUSH2 0x7FD JUMPI PUSH1 0x2 DUP1 SLOAD PUSH2 0x78C SWAP1 PUSH1 0x1 SWAP1 PUSH2 0x140B JUMP JUMPDEST DUP2 SLOAD DUP2 LT PUSH2 0x79C JUMPI PUSH2 0x79C PUSH2 0x136A JUMP JUMPDEST SWAP1 PUSH0 MSTORE PUSH1 0x20 PUSH0 KECCAK256 ADD PUSH1 0x2 DUP3 DUP2 SLOAD DUP2 LT PUSH2 0x7B7 JUMPI PUSH2 0x7B7 PUSH2 0x136A JUMP JUMPDEST SWAP1 PUSH0 MSTORE PUSH1 0x20 PUSH0 KECCAK256 ADD SWAP1 DUP2 PUSH2 0x7CB SWAP2 SWAP1 PUSH2 0x1424 JUMP JUMPDEST POP PUSH1 0x2 DUP1 SLOAD DUP1 PUSH2 0x7DD JUMPI PUSH2 0x7DD PUSH2 0x14F1 JUMP JUMPDEST PUSH1 0x1 SWAP1 SUB DUP2 DUP2 SWAP1 PUSH0 MSTORE PUSH1 0x20 PUSH0 KECCAK256 ADD PUSH0 PUSH2 0x7F6 SWAP2 SWAP1 PUSH2 0xE25 JUMP JUMPDEST SWAP1 SSTORE PUSH2 0x805 JUMP JUMPDEST PUSH1 0x1 ADD PUSH2 0x705 JUMP JUMPDEST POP PUSH0 DUP1 SLOAD SWAP1 DUP1 PUSH2 0x814 DUP4 PUSH2 0x1505 JUMP JUMPDEST SWAP2 SWAP1 POP SSTORE POP POP POP JUMP JUMPDEST PUSH1 0x60 PUSH1 0x2 DUP1 SLOAD DUP1 PUSH1 0x20 MUL PUSH1 0x20 ADD PUSH1 0x40 MLOAD SWAP1 DUP2 ADD PUSH1 0x40 MSTORE DUP1 SWAP3 SWAP2 SWAP1 DUP2 DUP2 MSTORE PUSH1 0x20 ADD PUSH0 SWAP1 JUMPDEST DUP3 DUP3 LT ISZERO PUSH2 0x8E8 JUMPI DUP4 DUP3 SWAP1 PUSH0 MSTORE PUSH1 0x20 PUSH0 KECCAK256 ADD DUP1 SLOAD PUSH2 0x85D SWAP1 PUSH2 0x1231 JUMP JUMPDEST DUP1 PUSH1 0x1F ADD PUSH1 0x20 DUP1 SWAP2 DIV MUL PUSH1 0x20 ADD PUSH1 0x40 MLOAD SWAP1 DUP2 ADD PUSH1 0x40 MSTORE DUP1 SWAP3 SWAP2 SWAP1 DUP2 DUP2 MSTORE PUSH1 0x20 ADD DUP3 DUP1 SLOAD PUSH2 0x889 SWAP1 PUSH2 0x1231 JUMP JUMPDEST DUP1 ISZERO PUSH2 0x8D4 JUMPI DUP1 PUSH1 0x1F LT PUSH2 0x8AB JUMPI PUSH2 0x100 DUP1 DUP4 SLOAD DIV MUL DUP4 MSTORE SWAP2 PUSH1 0x20 ADD SWAP2 PUSH2 0x8D4 JUMP JUMPDEST DUP3 ADD SWAP2 SWAP1 PUSH0 MSTORE PUSH1 0x20 PUSH0 KECCAK256 SWAP1 JUMPDEST DUP2 SLOAD DUP2 MSTORE SWAP1 PUSH1 0x1 ADD SWAP1 PUSH1 0x20 ADD DUP1 DUP4 GT PUSH2 0x8B7 JUMPI DUP3 SWAP1 SUB PUSH1 0x1F AND DUP3 ADD SWAP2 JUMPDEST POP POP POP POP POP DUP2 MSTORE PUSH1 0x20 ADD SWAP1 PUSH1 0x1 ADD SWAP1 PUSH2 0x840 JUMP JUMPDEST POP POP POP POP SWAP1 POP SWAP1 JUMP JUMPDEST DUP2 PUSH1 0x1 DUP2 PUSH1 0x40 MLOAD PUSH2 0x902 SWAP2 SWAP1 PUSH2 0x11F9 JUMP JUMPDEST SWAP1 DUP2 MSTORE PUSH1 0x40 MLOAD SWAP1 DUP2 SWAP1 SUB PUSH1 0x20 ADD SWAP1 KECCAK256 PUSH1 0x2 ADD SLOAD PUSH1 0xFF AND PUSH2 0x934 JUMPI PUSH1 0x40 MLOAD PUSH3 0x461BCD PUSH1 0xE5 SHL DUP2 MSTORE PUSH1 0x4 ADD PUSH2 0x25C SWAP1 PUSH2 0x1204 JUMP JUMPDEST PUSH1 0x1 DUP4 PUSH1 0x40 MLOAD PUSH2 0x944 SWAP2 SWAP1 PUSH2 0x11F9 JUMP JUMPDEST SWAP1 DUP2 MSTORE PUSH1 0x20 ADD PUSH1 0x40 MLOAD DUP1 SWAP2 SUB SWAP1 KECCAK256 PUSH1 0x1 ADD DUP3 PUSH1 0x40 MLOAD PUSH1 0x20 ADD PUSH2 0x967 SWAP3 SWAP2 SWAP1 PUSH2 0x151A JUMP JUMPDEST PUSH1 0x40 MLOAD PUSH1 0x20 DUP2 DUP4 SUB SUB DUP2 MSTORE SWAP1 PUSH1 0x40 MSTORE PUSH1 0x1 DUP5 PUSH1 0x40 MLOAD PUSH2 0x654 SWAP2 SWAP1 PUSH2 0x11F9 JUMP JUMPDEST PUSH0 SLOAD PUSH1 0x32 GT PUSH2 0x9CD JUMPI PUSH1 0x40 MLOAD PUSH3 0x461BCD PUSH1 0xE5 SHL DUP2 MSTORE PUSH1 0x20 PUSH1 0x4 DUP3 ADD MSTORE PUSH1 0x13 PUSH1 0x24 DUP3 ADD MSTORE PUSH19 0x115E18D95959195908199A5B19481B1A5B5A5D PUSH1 0x6A SHL PUSH1 0x44 DUP3 ADD MSTORE PUSH1 0x64 ADD PUSH2 0x25C JUMP JUMPDEST PUSH0 DUP4 MLOAD GT PUSH2 0xA1D JUMPI PUSH1 0x40 MLOAD PUSH3 0x461BCD PUSH1 0xE5 SHL DUP2 MSTORE PUSH1 0x20 PUSH1 0x4 DUP3 ADD MSTORE PUSH1 0x18 PUSH1 0x24 DUP3 ADD MSTORE PUSH32 0x46696C656E616D652063616E6E6F7420626520656D7074790000000000000000 PUSH1 0x44 DUP3 ADD MSTORE PUSH1 0x64 ADD PUSH2 0x25C JUMP JUMPDEST PUSH1 0x1 DUP4 PUSH1 0x40 MLOAD PUSH2 0xA2D SWAP2 SWAP1 PUSH2 0x11F9 JUMP JUMPDEST SWAP1 DUP2 MSTORE PUSH1 0x40 MLOAD SWAP1 DUP2 SWAP1 SUB PUSH1 0x20 ADD SWAP1 KECCAK256 PUSH1 0x2 ADD SLOAD PUSH1 0xFF AND ISZERO PUSH2 0xA86 JUMPI PUSH1 0x40 MLOAD PUSH3 0x461BCD PUSH1 0xE5 SHL DUP2 MSTORE PUSH1 0x20 PUSH1 0x4 DUP3 ADD MSTORE PUSH1 0x13 PUSH1 0x24 DUP3 ADD MSTORE PUSH19 0x46696C6520616C726561647920657869737473 PUSH1 0x68 SHL PUSH1 0x44 DUP3 ADD MSTORE PUSH1 0x64 ADD PUSH2 0x25C JUMP JUMPDEST PUSH0 PUSH1 0x1 DUP5 PUSH1 0x40 MLOAD PUSH2 0xA97 SWAP2 SWAP1 PUSH2 0x11F9 JUMP JUMPDEST SWAP1 DUP2 MSTORE PUSH1 0x40 MLOAD SWAP1 DUP2 SWAP1 SUB PUSH1 0x20 ADD SWAP1 KECCAK256 SWAP1 POP DUP1 PUSH2 0xAB3 DUP6 DUP3 PUSH2 0x12AC JUMP JUMPDEST POP PUSH1 0x1 DUP2 ADD PUSH2 0xAC2 DUP4 DUP3 PUSH2 0x12AC JUMP JUMPDEST POP PUSH1 0x2 DUP2 ADD DUP1 SLOAD PUSH1 0x1 PUSH1 0x1 PUSH1 0xA0 SHL SUB DUP6 AND PUSH2 0x100 DUP2 MUL PUSH1 0x1 PUSH1 0x1 PUSH1 0xA8 SHL SUB NOT SWAP1 SWAP3 AND SWAP2 SWAP1 SWAP2 OR PUSH1 0x1 OR SWAP1 SWAP2 SSTORE PUSH0 SWAP1 DUP2 MSTORE PUSH1 0x3 DUP1 DUP4 ADD PUSH1 0x20 MSTORE PUSH1 0x40 DUP3 KECCAK256 DUP1 SLOAD PUSH1 0xFF NOT AND SWAP1 SWAP2 OR SWAP1 SSTORE DUP1 SLOAD SWAP1 DUP1 PUSH2 0xB16 DUP4 PUSH2 0x1542 JUMP JUMPDEST SWAP1 SWAP2 SSTORE POP POP PUSH1 0x2 DUP1 SLOAD PUSH1 0x1 DUP2 ADD DUP3 SSTORE PUSH0 SWAP2 SWAP1 SWAP2 MSTORE PUSH32 0x405787FA12A823E0F2B7631CC41B3BA8828B3321CA811111FA75CD3AA3BB5ACE ADD PUSH2 0x342 DUP6 DUP3 PUSH2 0x12AC JUMP JUMPDEST PUSH0 DUP3 PUSH1 0x1 DUP2 PUSH1 0x40 MLOAD PUSH2 0xB68 SWAP2 SWAP1 PUSH2 0x11F9 JUMP JUMPDEST SWAP1 DUP2 MSTORE PUSH1 0x40 MLOAD SWAP1 DUP2 SWAP1 SUB PUSH1 0x20 ADD SWAP1 KECCAK256 PUSH1 0x2 ADD SLOAD PUSH1 0xFF AND PUSH2 0xB9A JUMPI PUSH1 0x40 MLOAD PUSH3 0x461BCD PUSH1 0xE5 SHL DUP2 MSTORE PUSH1 0x4 ADD PUSH2 0x25C SWAP1 PUSH2 0x1204 JUMP JUMPDEST PUSH1 0x1 DUP5 PUSH1 0x40 MLOAD PUSH2 0xBAA SWAP2 SWAP1 PUSH2 0x11F9 JUMP JUMPDEST SWAP1 DUP2 MSTORE PUSH1 0x40 DUP1 MLOAD PUSH1 0x20 SWAP3 DUP2 SWAP1 SUB DUP4 ADD SWAP1 KECCAK256 PUSH1 0x1 PUSH1 0x1 PUSH1 0xA0 SHL SUB SWAP6 SWAP1 SWAP6 AND PUSH0 SWAP1 DUP2 MSTORE PUSH1 0x3 SWAP1 SWAP6 ADD SWAP1 SWAP2 MSTORE SWAP1 SWAP3 KECCAK256 SLOAD PUSH1 0xFF AND SWAP4 SWAP3 POP POP POP JUMP JUMPDEST DUP1 MLOAD PUSH1 0x20 DUP2 DUP4 ADD DUP2 ADD DUP1 MLOAD PUSH1 0x1 DUP3 MSTORE SWAP3 DUP3 ADD SWAP2 SWAP1 SWAP4 ADD KECCAK256 SWAP2 MSTORE DUP1 SLOAD DUP2 SWAP1 PUSH2 0xC07 SWAP1 PUSH2 0x1231 JUMP JUMPDEST DUP1 PUSH1 0x1F ADD PUSH1 0x20 DUP1 SWAP2 DIV MUL PUSH1 0x20 ADD PUSH1 0x40 MLOAD SWAP1 DUP2 ADD PUSH1 0x40 MSTORE DUP1 SWAP3 SWAP2 SWAP1 DUP2 DUP2 MSTORE PUSH1 0x20 ADD DUP3 DUP1 SLOAD PUSH2 0xC33 SWAP1 PUSH2 0x1231 JUMP JUMPDEST DUP1 ISZERO PUSH2 0xC7E JUMPI DUP1 PUSH1 0x1F LT PUSH2 0xC55 JUMPI PUSH2 0x100 DUP1 DUP4 SLOAD DIV MUL DUP4 MSTORE SWAP2 PUSH1 0x20 ADD SWAP2 PUSH2 0xC7E JUMP JUMPDEST DUP3 ADD SWAP2 SWAP1 PUSH0 MSTORE PUSH1 0x20 PUSH0 KECCAK256 SWAP1 JUMPDEST DUP2 SLOAD DUP2 MSTORE SWAP1 PUSH1 0x1 ADD SWAP1 PUSH1 0x20 ADD DUP1 DUP4 GT PUSH2 0xC61 JUMPI DUP3 SWAP1 SUB PUSH1 0x1F AND DUP3 ADD SWAP2 JUMPDEST POP POP POP POP POP SWAP1 DUP1 PUSH1 0x1 ADD DUP1 SLOAD PUSH2 0xC93 SWAP1 PUSH2 0x1231 JUMP JUMPDEST DUP1 PUSH1 0x1F ADD PUSH1 0x20 DUP1 SWAP2 DIV MUL PUSH1 0x20 ADD PUSH1 0x40 MLOAD SWAP1 DUP2 ADD PUSH1 0x40 MSTORE DUP1 SWAP3 SWAP2 SWAP1 DUP2 DUP2 MSTORE PUSH1 0x20 ADD DUP3 DUP1 SLOAD PUSH2 0xCBF SWAP1 PUSH2 0x1231 JUMP JUMPDEST DUP1 ISZERO PUSH2 0xD0A JUMPI DUP1 PUSH1 0x1F LT PUSH2 0xCE1 JUMPI PUSH2 0x100 DUP1 DUP4 SLOAD DIV MUL DUP4 MSTORE SWAP2 PUSH1 0x20 ADD SWAP2 PUSH2 0xD0A JUMP JUMPDEST DUP3 ADD SWAP2 SWAP1 PUSH0 MSTORE PUSH1 0x20 PUSH0 KECCAK256 SWAP1 JUMPDEST DUP2 SLOAD DUP2 MSTORE SWAP1 PUSH1 0x1 ADD SWAP1 PUSH1 0x20 ADD DUP1 DUP4 GT PUSH2 0xCED JUMPI DUP3 SWAP1 SUB PUSH1 0x1F AND DUP3 ADD SWAP2 JUMPDEST POP POP POP PUSH1 0x2 SWAP1 SWAP4 ADD SLOAD SWAP2 SWAP3 POP POP PUSH1 0xFF DUP2 AND SWAP1 PUSH1 0x1 PUSH1 0x1 PUSH1 0xA0 SHL SUB PUSH2 0x100 SWAP1 SWAP2 DIV AND DUP5 JUMP JUMPDEST DUP3 PUSH1 0x1 DUP2 PUSH1 0x40 MLOAD PUSH2 0xD3F SWAP2 SWAP1 PUSH2 0x11F9 JUMP JUMPDEST SWAP1 DUP2 MSTORE PUSH1 0x40 MLOAD SWAP1 DUP2 SWAP1 SUB PUSH1 0x20 ADD SWAP1 KECCAK256 PUSH1 0x2 ADD SLOAD PUSH1 0xFF AND PUSH2 0xD71 JUMPI PUSH1 0x40 MLOAD PUSH3 0x461BCD PUSH1 0xE5 SHL DUP2 MSTORE PUSH1 0x4 ADD PUSH2 0x25C SWAP1 PUSH2 0x1204 JUMP JUMPDEST PUSH1 0x3 DUP3 PUSH1 0xFF AND GT ISZERO PUSH2 0xDC5 JUMPI PUSH1 0x40 MLOAD PUSH3 0x461BCD PUSH1 0xE5 SHL DUP2 MSTORE PUSH1 0x20 PUSH1 0x4 DUP3 ADD MSTORE PUSH1 0x17 PUSH1 0x24 DUP3 ADD MSTORE PUSH32 0x496E76616C6964207065726D697373696F6E206D6F6465000000000000000000 PUSH1 0x44 DUP3 ADD MSTORE PUSH1 0x64 ADD PUSH2 0x25C JUMP JUMPDEST DUP2 PUSH1 0x1 DUP6 PUSH1 0x40 MLOAD PUSH2 0xDD6 SWAP2 SWAP1 PUSH2 0x11F9 JUMP JUMPDEST SWAP1 DUP2 MSTORE PUSH1 0x20 ADD PUSH1 0x40 MLOAD DUP1 SWAP2 SUB SWAP1 KECCAK256 PUSH1 0x3 ADD PUSH0 DUP6 PUSH1 0x1 PUSH1 0x1 PUSH1 0xA0 SHL SUB AND PUSH1 0x1 PUSH1 0x1 PUSH1 0xA0 SHL SUB AND DUP2 MSTORE PUSH1 0x20 ADD SWAP1 DUP2 MSTORE PUSH1 0x20 ADD PUSH0 KECCAK256 PUSH0 PUSH2 0x100 EXP DUP2 SLOAD DUP2 PUSH1 0xFF MUL NOT AND SWAP1 DUP4 PUSH1 0xFF AND MUL OR SWAP1 SSTORE POP POP POP POP POP JUMP JUMPDEST POP DUP1 SLOAD PUSH2 0xE31 SWAP1 PUSH2 0x1231 JUMP JUMPDEST PUSH0 DUP3 SSTORE DUP1 PUSH1 0x1F LT PUSH2 0xE40 JUMPI POP POP JUMP JUMPDEST PUSH1 0x1F ADD PUSH1 0x20 SWAP1 DIV SWAP1 PUSH0 MSTORE PUSH1 0x20 PUSH0 KECCAK256 SWAP1 DUP2 ADD SWAP1 PUSH2 0xE5C SWAP2 SWAP1 PUSH2 0xE5F JUMP JUMPDEST POP JUMP JUMPDEST JUMPDEST DUP1 DUP3 GT ISZERO PUSH2 0xE73 JUMPI PUSH0 DUP2 SSTORE PUSH1 0x1 ADD PUSH2 0xE60 JUMP JUMPDEST POP SWAP1 JUMP JUMPDEST PUSH4 0x4E487B71 PUSH1 0xE0 SHL PUSH0 MSTORE PUSH1 0x41 PUSH1 0x4 MSTORE PUSH1 0x24 PUSH0 REVERT JUMPDEST PUSH0 DUP3 PUSH1 0x1F DUP4 ADD SLT PUSH2 0xE9A JUMPI PUSH0 DUP1 REVERT JUMPDEST DUP2 CALLDATALOAD PUSH8 0xFFFFFFFFFFFFFFFF DUP2 GT ISZERO PUSH2 0xEB4 JUMPI PUSH2 0xEB4 PUSH2 0xE77 JUMP JUMPDEST PUSH1 0x40 MLOAD PUSH1 0x1F DUP3 ADD PUSH1 0x1F NOT SWAP1 DUP2 AND PUSH1 0x3F ADD AND DUP2 ADD PUSH8 0xFFFFFFFFFFFFFFFF DUP2 GT DUP3 DUP3 LT OR ISZERO PUSH2 0xEE3 JUMPI PUSH2 0xEE3 PUSH2 0xE77 JUMP JUMPDEST PUSH1 0x40 MSTORE DUP2 DUP2 MSTORE DUP4 DUP3 ADD PUSH1 0x20 ADD DUP6 LT ISZERO PUSH2 0xEFA JUMPI PUSH0 DUP1 REVERT JUMPDEST DUP2 PUSH1 0x20 DUP6 ADD PUSH1 0x20 DUP4 ADD CALLDATACOPY PUSH0 SWAP2 DUP2 ADD PUSH1 0x20 ADD SWAP2 SWAP1 SWAP2 MSTORE SWAP4 SWAP3 POP POP POP JUMP JUMPDEST PUSH0 DUP1 PUSH1 0x40 DUP4 DUP6 SUB SLT ISZERO PUSH2 0xF27 JUMPI PUSH0 DUP1 REVERT JUMPDEST DUP3 CALLDATALOAD PUSH8 0xFFFFFFFFFFFFFFFF DUP2 GT ISZERO PUSH2 0xF3D JUMPI PUSH0 DUP1 REVERT JUMPDEST PUSH2 0xF49 DUP6 DUP3 DUP7 ADD PUSH2 0xE8B JUMP JUMPDEST SWAP3 POP POP PUSH1 0x20 DUP4 ADD CALLDATALOAD PUSH8 0xFFFFFFFFFFFFFFFF DUP2 GT ISZERO PUSH2 0xF65 JUMPI PUSH0 DUP1 REVERT JUMPDEST PUSH2 0xF71 DUP6 DUP3 DUP7 ADD PUSH2 0xE8B JUMP JUMPDEST SWAP2 POP POP SWAP3 POP SWAP3 SWAP1 POP JUMP JUMPDEST PUSH0 PUSH1 0x20 DUP3 DUP5 SUB SLT ISZERO PUSH2 0xF8B JUMPI PUSH0 DUP1 REVERT JUMPDEST DUP2 CALLDATALOAD PUSH8 0xFFFFFFFFFFFFFFFF DUP2 GT ISZERO PUSH2 0xFA1 JUMPI PUSH0 DUP1 REVERT JUMPDEST PUSH2 0xFAD DUP5 DUP3 DUP6 ADD PUSH2 0xE8B JUMP JUMPDEST SWAP5 SWAP4 POP POP POP POP JUMP JUMPDEST PUSH0 DUP2 MLOAD DUP1 DUP5 MSTORE DUP1 PUSH1 0x20 DUP5 ADD PUSH1 0x20 DUP7 ADD MCOPY PUSH0 PUSH1 0x20 DUP3 DUP7 ADD ADD MSTORE PUSH1 0x20 PUSH1 0x1F NOT PUSH1 0x1F DUP4 ADD AND DUP6 ADD ADD SWAP2 POP POP SWAP3 SWAP2 POP POP JUMP JUMPDEST PUSH1 0x20 DUP2 MSTORE PUSH0 PUSH2 0xFF5 PUSH1 0x20 DUP4 ADD DUP5 PUSH2 0xFB5 JUMP JUMPDEST SWAP4 SWAP3 POP POP POP JUMP JUMPDEST DUP1 CALLDATALOAD PUSH1 0x1 PUSH1 0x1 PUSH1 0xA0 SHL SUB DUP2 AND DUP2 EQ PUSH2 0x1012 JUMPI PUSH0 DUP1 REVERT JUMPDEST SWAP2 SWAP1 POP JUMP JUMPDEST PUSH0 DUP1 PUSH1 0x40 DUP4 DUP6 SUB SLT ISZERO PUSH2 0x1028 JUMPI PUSH0 DUP1 REVERT JUMPDEST DUP3 CALLDATALOAD PUSH8 0xFFFFFFFFFFFFFFFF DUP2 GT ISZERO PUSH2 0x103E JUMPI PUSH0 DUP1 REVERT JUMPDEST PUSH2 0x104A DUP6 DUP3 DUP7 ADD PUSH2 0xE8B JUMP JUMPDEST SWAP3 POP POP PUSH2 0x1059 PUSH1 0x20 DUP5 ADD PUSH2 0xFFC JUMP JUMPDEST SWAP1 POP SWAP3 POP SWAP3 SWAP1 POP JUMP JUMPDEST PUSH0 PUSH1 0x20 DUP3 ADD PUSH1 0x20 DUP4 MSTORE DUP1 DUP5 MLOAD DUP1 DUP4 MSTORE PUSH1 0x40 DUP6 ADD SWAP2 POP PUSH1 0x40 DUP2 PUSH1 0x5 SHL DUP7 ADD ADD SWAP3 POP PUSH1 0x20 DUP7 ADD PUSH0 JUMPDEST DUP3 DUP2 LT ISZERO PUSH2 0x10B9 JUMPI PUSH1 0x3F NOT DUP8 DUP7 SUB ADD DUP5 MSTORE PUSH2 0x10A4 DUP6 DUP4 MLOAD PUSH2 0xFB5 JUMP JUMPDEST SWAP5 POP PUSH1 0x20 SWAP4 DUP5 ADD SWAP4 SWAP2 SWAP1 SWAP2 ADD SWAP1 PUSH1 0x1 ADD PUSH2 0x1088 JUMP JUMPDEST POP SWAP3 SWAP7 SWAP6 POP POP POP POP POP POP JUMP JUMPDEST PUSH0 DUP1 PUSH0 PUSH1 0x60 DUP5 DUP7 SUB SLT ISZERO PUSH2 0x10D7 JUMPI PUSH0 DUP1 REVERT JUMPDEST DUP4 CALLDATALOAD PUSH8 0xFFFFFFFFFFFFFFFF DUP2 GT ISZERO PUSH2 0x10ED JUMPI PUSH0 DUP1 REVERT JUMPDEST PUSH2 0x10F9 DUP7 DUP3 DUP8 ADD PUSH2 0xE8B JUMP JUMPDEST SWAP4 POP POP PUSH2 0x1108 PUSH1 0x20 DUP6 ADD PUSH2 0xFFC JUMP JUMPDEST SWAP2 POP PUSH1 0x40 DUP5 ADD CALLDATALOAD PUSH8 0xFFFFFFFFFFFFFFFF DUP2 GT ISZERO PUSH2 0x1123 JUMPI PUSH0 DUP1 REVERT JUMPDEST PUSH2 0x112F DUP7 DUP3 DUP8 ADD PUSH2 0xE8B JUMP JUMPDEST SWAP2 POP POP SWAP3 POP SWAP3 POP SWAP3 JUMP JUMPDEST PUSH1 0x80 DUP2 MSTORE PUSH0 PUSH2 0x114B PUSH1 0x80 DUP4 ADD DUP8 PUSH2 0xFB5 JUMP JUMPDEST DUP3 DUP2 SUB PUSH1 0x20 DUP5 ADD MSTORE PUSH2 0x115D DUP2 DUP8 PUSH2 0xFB5 JUMP JUMPDEST SWAP5 ISZERO ISZERO PUSH1 0x40 DUP5 ADD MSTORE POP POP PUSH1 0x1 PUSH1 0x1 PUSH1 0xA0 SHL SUB SWAP2 SWAP1 SWAP2 AND PUSH1 0x60 SWAP1 SWAP2 ADD MSTORE SWAP3 SWAP2 POP POP JUMP JUMPDEST PUSH0 DUP1 PUSH0 PUSH1 0x60 DUP5 DUP7 SUB SLT ISZERO PUSH2 0x1191 JUMPI PUSH0 DUP1 REVERT JUMPDEST DUP4 CALLDATALOAD PUSH8 0xFFFFFFFFFFFFFFFF DUP2 GT ISZERO PUSH2 0x11A7 JUMPI PUSH0 DUP1 REVERT JUMPDEST PUSH2 0x11B3 DUP7 DUP3 DUP8 ADD PUSH2 0xE8B JUMP JUMPDEST SWAP4 POP POP PUSH2 0x11C2 PUSH1 0x20 DUP6 ADD PUSH2 0xFFC JUMP JUMPDEST SWAP2 POP PUSH1 0x40 DUP5 ADD CALLDATALOAD PUSH1 0xFF DUP2 AND DUP2 EQ PUSH2 0x11D7 JUMPI PUSH0 DUP1 REVERT JUMPDEST DUP1 SWAP2 POP POP SWAP3 POP SWAP3 POP SWAP3 JUMP JUMPDEST PUSH0 DUP2 MLOAD DUP1 PUSH1 0x20 DUP5 ADD DUP6 MCOPY PUSH0 SWAP4 ADD SWAP3 DUP4 MSTORE POP SWAP1 SWAP2 SWAP1 POP JUMP JUMPDEST PUSH0 PUSH2 0xFF5 DUP3 DUP5 PUSH2 0x11E2 JUMP JUMPDEST PUSH1 0x20 DUP1 DUP3 MSTORE PUSH1 0x13 SWAP1 DUP3 ADD MSTORE PUSH19 0x119A5B1948191BD95CC81B9BDD08195E1A5CDD PUSH1 0x6A SHL PUSH1 0x40 DUP3 ADD MSTORE PUSH1 0x60 ADD SWAP1 JUMP JUMPDEST PUSH1 0x1 DUP2 DUP2 SHR SWAP1 DUP3 AND DUP1 PUSH2 0x1245 JUMPI PUSH1 0x7F DUP3 AND SWAP2 POP JUMPDEST PUSH1 0x20 DUP3 LT DUP2 SUB PUSH2 0x3C2 JUMPI PUSH4 0x4E487B71 PUSH1 0xE0 SHL PUSH0 MSTORE PUSH1 0x22 PUSH1 0x4 MSTORE PUSH1 0x24 PUSH0 REVERT JUMPDEST PUSH1 0x1F DUP3 GT ISZERO PUSH2 0x12A7 JUMPI DUP1 PUSH0 MSTORE PUSH1 0x20 PUSH0 KECCAK256 PUSH1 0x1F DUP5 ADD PUSH1 0x5 SHR DUP2 ADD PUSH1 0x20 DUP6 LT ISZERO PUSH2 0x1288 JUMPI POP DUP1 JUMPDEST PUSH1 0x1F DUP5 ADD PUSH1 0x5 SHR DUP3 ADD SWAP2 POP JUMPDEST DUP2 DUP2 LT ISZERO PUSH2 0x342 JUMPI PUSH0 DUP2 SSTORE PUSH1 0x1 ADD PUSH2 0x1294 JUMP JUMPDEST POP POP POP JUMP JUMPDEST DUP2 MLOAD PUSH8 0xFFFFFFFFFFFFFFFF DUP2 GT ISZERO PUSH2 0x12C6 JUMPI PUSH2 0x12C6 PUSH2 0xE77 JUMP JUMPDEST PUSH2 0x12DA DUP2 PUSH2 0x12D4 DUP5 SLOAD PUSH2 0x1231 JUMP JUMPDEST DUP5 PUSH2 0x1263 JUMP JUMPDEST PUSH1 0x20 PUSH1 0x1F DUP3 GT PUSH1 0x1 DUP2 EQ PUSH2 0x130F JUMPI PUSH0 DUP4 ISZERO PUSH2 0x12F5 JUMPI POP DUP5 DUP3 ADD MLOAD JUMPDEST PUSH1 0x1 DUP5 SWAP1 SHL PUSH0 NOT PUSH1 0x3 DUP7 SWAP1 SHL SHR NOT DUP3 AND OR JUMPDEST DUP6 SSTORE POP PUSH2 0x342 JUMP JUMPDEST PUSH0 DUP5 DUP2 MSTORE PUSH1 0x20 DUP2 KECCAK256 PUSH1 0x1F NOT DUP6 AND SWAP2 JUMPDEST DUP3 DUP2 LT ISZERO PUSH2 0x133E JUMPI DUP8 DUP6 ADD MLOAD DUP3 SSTORE PUSH1 0x20 SWAP5 DUP6 ADD SWAP5 PUSH1 0x1 SWAP1 SWAP3 ADD SWAP2 ADD PUSH2 0x131E JUMP JUMPDEST POP DUP5 DUP3 LT ISZERO PUSH2 0x135B JUMPI DUP7 DUP5 ADD MLOAD PUSH0 NOT PUSH1 0x3 DUP8 SWAP1 SHL PUSH1 0xF8 AND SHR NOT AND DUP2 SSTORE JUMPDEST POP POP POP POP PUSH1 0x1 SWAP1 DUP2 SHL ADD SWAP1 SSTORE POP JUMP JUMPDEST PUSH4 0x4E487B71 PUSH1 0xE0 SHL PUSH0 MSTORE PUSH1 0x32 PUSH1 0x4 MSTORE PUSH1 0x24 PUSH0 REVERT JUMPDEST PUSH0 DUP2 SLOAD PUSH2 0x138A DUP2 PUSH2 0x1231 JUMP JUMPDEST PUSH1 0x1 DUP3 AND DUP1 ISZERO PUSH2 0x13A1 JUMPI PUSH1 0x1 DUP2 EQ PUSH2 0x13B6 JUMPI PUSH2 0x13E3 JUMP JUMPDEST PUSH1 0xFF NOT DUP4 AND DUP7 MSTORE DUP2 ISZERO ISZERO DUP3 MUL DUP7 ADD SWAP4 POP PUSH2 0x13E3 JUMP JUMPDEST DUP5 PUSH0 MSTORE PUSH1 0x20 PUSH0 KECCAK256 PUSH0 JUMPDEST DUP4 DUP2 LT ISZERO PUSH2 0x13DB JUMPI DUP2 SLOAD DUP9 DUP3 ADD MSTORE PUSH1 0x1 SWAP1 SWAP2 ADD SWAP1 PUSH1 0x20 ADD PUSH2 0x13BF JUMP JUMPDEST POP POP DUP2 DUP7 ADD SWAP4 POP JUMPDEST POP POP POP SWAP3 SWAP2 POP POP JUMP JUMPDEST PUSH0 PUSH2 0xFF5 DUP3 DUP5 PUSH2 0x137E JUMP JUMPDEST PUSH4 0x4E487B71 PUSH1 0xE0 SHL PUSH0 MSTORE PUSH1 0x11 PUSH1 0x4 MSTORE PUSH1 0x24 PUSH0 REVERT JUMPDEST DUP2 DUP2 SUB DUP2 DUP2 GT ISZERO PUSH2 0x141E JUMPI PUSH2 0x141E PUSH2 0x13F7 JUMP JUMPDEST SWAP3 SWAP2 POP POP JUMP JUMPDEST DUP2 DUP2 SUB PUSH2 0x142F JUMPI POP POP JUMP JUMPDEST PUSH2 0x1439 DUP3 SLOAD PUSH2 0x1231 JUMP JUMPDEST PUSH8 0xFFFFFFFFFFFFFFFF DUP2 GT ISZERO PUSH2 0x1451 JUMPI PUSH2 0x1451 PUSH2 0xE77 JUMP JUMPDEST PUSH2 0x145F DUP2 PUSH2 0x12D4 DUP5 SLOAD PUSH2 0x1231 JUMP JUMPDEST PUSH0 PUSH1 0x1F DUP3 GT PUSH1 0x1 DUP2 EQ PUSH2 0x148E JUMPI PUSH0 DUP4 ISZERO PUSH2 0x12F5 JUMPI POP DUP2 DUP6 ADD SLOAD PUSH1 0x1 DUP5 SWAP1 SHL PUSH0 NOT PUSH1 0x3 DUP7 SWAP1 SHL SHR NOT DUP3 AND OR PUSH2 0x1307 JUMP JUMPDEST PUSH0 DUP6 DUP2 MSTORE PUSH1 0x20 DUP1 DUP3 KECCAK256 DUP7 DUP4 MSTORE SWAP1 DUP3 KECCAK256 PUSH1 0x1F NOT DUP7 AND SWAP3 JUMPDEST DUP4 DUP2 LT ISZERO PUSH2 0x14C4 JUMPI DUP3 DUP7 ADD SLOAD DUP3 SSTORE PUSH1 0x1 SWAP6 DUP7 ADD SWAP6 SWAP1 SWAP2 ADD SWAP1 PUSH1 0x20 ADD PUSH2 0x14A4 JUMP JUMPDEST POP DUP6 DUP4 LT ISZERO PUSH2 0x14E1 JUMPI DUP2 DUP6 ADD SLOAD PUSH0 NOT PUSH1 0x3 DUP9 SWAP1 SHL PUSH1 0xF8 AND SHR NOT AND DUP2 SSTORE JUMPDEST POP POP POP POP POP PUSH1 0x1 SWAP1 DUP2 SHL ADD SWAP1 SSTORE POP JUMP JUMPDEST PUSH4 0x4E487B71 PUSH1 0xE0 SHL PUSH0 MSTORE PUSH1 0x31 PUSH1 0x4 MSTORE PUSH1 0x24 PUSH0 REVERT JUMPDEST PUSH0 DUP2 PUSH2 0x1513 JUMPI PUSH2 0x1513 PUSH2 0x13F7 JUMP JUMPDEST POP PUSH0 NOT ADD SWAP1 JUMP JUMPDEST PUSH0 PUSH2 0x1525 DUP3 DUP6 PUSH2 0x137E JUMP JUMPDEST PUSH1 0x5 PUSH1 0xF9 SHL DUP2 MSTORE PUSH2 0x1539 PUSH1 0x1 DUP3 ADD DUP6 PUSH2 0x11E2 JUMP JUMPDEST SWAP6 SWAP5 POP POP POP POP POP JUMP JUMPDEST PUSH0 PUSH1 0x1 DUP3 ADD PUSH2 0x1553 JUMPI PUSH2 0x1553 PUSH2 0x13F7 JUMP JUMPDEST POP PUSH1 0x1 ADD SWAP1 JUMP INVALID LOG2 PUSH5 0x6970667358 0x22 SLT KECCAK256 GT 0xC1 LOG3 PUSH9 0x57911527F92B49887E PUSH8 0x5C2271ABA14DDD63 ORIGIN 0xDA PUSH6 0x335563537DE0 PUSH5 0x64736F6C63 NUMBER STOP ADDMOD BYTE STOP CALLER "
				},
				"gasEstimates": {
					"creation": {
						"codeDepositCost": "1104000",
						"executionCost": "6150",
						"totalCost": "1110150"
					},
					"external": {
						"appendToFile(string,string)": "infinite",
						"changeFilePermission(string,address,uint8)": "infinite",
						"createFile(string,address,string)": "infinite",
						"deleteFile(string)": "infinite",
						"fileCount()": "2338",
						"files(string)": "infinite",
						"getFileOwner(string)": "infinite",
						"getMode(string,address)": "infinite",
						"listFiles()": "infinite",
						"readFile(string)": "infinite",
						"renameFile(string,string)": "infinite",
						"viewFilePermission(string,address)": "infinite",
						"writeFile(string,string)": "infinite"
					}
				},
				"methodIdentifiers": {
					"appendToFile(string,string)": "b6b13caa",
					"changeFilePermission(string,address,uint8)": "eceed653",
					"createFile(string,address,string)": "bc051a4d",
					"deleteFile(string)": "a9910054",
					"fileCount()": "43953519",
					"files(string)": "e7755761",
					"getFileOwner(string)": "38fa8f58",
					"getMode(string,address)": "cffa39f9",
					"listFiles()": "b033d8fa",
					"readFile(string)": "60f9bb11",
					"renameFile(string,string)": "13d4a044",
					"viewFilePermission(string,address)": "7d41216d",
					"writeFile(string,string)": "897e0a97"
				}
			},
			"storageLayout": {
				"storage": [
					{
						"astId": 20,
						"contract": "contracts/FileStorage.sol:FileStorage",
						"label": "fileCount",
						"offset": 0,
						"slot": "0",
						"type": "t_uint256"
					},
					{
						"astId": 25,
						"contract": "contracts/FileStorage.sol:FileStorage",
						"label": "files",
						"offset": 0,
						"slot": "1",
						"type": "t_mapping(t_string_memory_ptr,t_struct(File)17_storage)"
					},
					{
						"astId": 28,
						"contract": "contracts/FileStorage.sol:FileStorage",
						"label": "fileList",
						"offset": 0,
						"slot": "2",
						"type": "t_array(t_string_storage)dyn_storage"
					}
				],
				"types": {
					"t_address": {
						"encoding": "inplace",
						"label": "address",
						"numberOfBytes": "20"
					},
					"t_array(t_string_storage)dyn_storage": {
						"base": "t_string_storage",
						"encoding": "dynamic_array",
						"label": "string[]",
						"numberOfBytes": "32"
					},
					"t_bool": {
						"encoding": "inplace",
						"label": "bool",
						"numberOfBytes": "1"
					},
					"t_mapping(t_address,t_uint8)": {
						"encoding": "mapping",
						"key": "t_address",
						"label": "mapping(address => uint8)",
						"numberOfBytes": "32",
						"value": "t_uint8"
					},
					"t_mapping(t_string_memory_ptr,t_struct(File)17_storage)": {
						"encoding": "mapping",
						"key": "t_string_memory_ptr",
						"label": "mapping(string => struct FileStorage.File)",
						"numberOfBytes": "32",
						"value": "t_struct(File)17_storage"
					},
					"t_string_memory_ptr": {
						"encoding": "bytes",
						"label": "string",
						"numberOfBytes": "32"
					},
					"t_string_storage": {
						"encoding": "bytes",
						"label": "string",
						"numberOfBytes": "32"
					},
					"t_struct(File)17_storage": {
						"encoding": "inplace",
						"label": "struct FileStorage.File",
						"members": [
							{
								"astId": 6,
								"contract": "contracts/FileStorage.sol:FileStorage",
								"label": "filename",
								"offset": 0,
								"slot": "0",
								"type": "t_string_storage"
							},
							{
								"astId": 8,
								"contract": "contracts/FileStorage.sol:FileStorage",
								"label": "content",
								"offset": 0,
								"slot": "1",
								"type": "t_string_storage"
							},
							{
								"astId": 10,
								"contract": "contracts/FileStorage.sol:FileStorage",
								"label": "exists",
								"offset": 0,
								"slot": "2",
								"type": "t_bool"
							},
							{
								"astId": 12,
								"contract": "contracts/FileStorage.sol:FileStorage",
								"label": "fileOwner",
								"offset": 1,
								"slot": "2",
								"type": "t_address"
							},
							{
								"astId": 16,
								"contract": "contracts/FileStorage.sol:FileStorage",
								"label": "mode",
								"offset": 0,
								"slot": "3",
								"type": "t_mapping(t_address,t_uint8)"
							}
						],
						"numberOfBytes": "128"
					},
					"t_uint256": {
						"encoding": "inplace",
						"label": "uint256",
						"numberOfBytes": "32"
					},
					"t_uint8": {
						"encoding": "inplace",
						"label": "uint8",
						"numberOfBytes": "1"
					}
				}
			},
			"userdoc": {
				"kind": "user",
				"methods": {},
				"version": 1
			}
		}
	}
}