{
	"data": {
		"bytecode": {
			"linkReferences": {},
			"object": "60806040525f805f6101000a81548161ffff021916908361ffff1602179055503480156029575f80fd5b506124c3806100375f395ff3fe608060405234801561000f575f80fd5b506004361061009c575f3560e01c8063a991005411610064578063a991005414610154578063b033d8fa14610170578063b6b13caa1461018e578063e7755761146101aa578063eceed653146101dd5761009c565b806313d4a044146100a057806360f9bb11146100bc5780637d41216d146100ec57806381ad193a1461011c578063897e0a9714610138575b5f80fd5b6100ba60048036038101906100b5919061161a565b6101f9565b005b6100d660048036038101906100d19190611690565b610436565b6040516100e39190611737565b60405180910390f35b610106600480360381019061010191906117b1565b610604565b6040516101139190611737565b60405180910390f35b6101366004803603810190610131919061161a565b6107f9565b005b610152600480360381019061014d919061161a565b610a6d565b005b61016e60048036038101906101699190611690565b610bbd565b005b610178610ea4565b604051610185919061190e565b60405180910390f35b6101a860048036038101906101a3919061161a565b610f78565b005b6101c460048036038101906101bf9190611690565b61110a565b6040516101d49493929190611957565b60405180910390f35b6101f760048036038101906101f291906119de565b611286565b005b8160018160405161020a9190611a84565b908152602001604051809103902060020160019054906101000a900473ffffffffffffffffffffffffffffffffffffffff1673ffffffffffffffffffffffffffffffffffffffff163373ffffffffffffffffffffffffffffffffffffffff16146102a9576040517f08c379a00000000000000000000000000000000000000000000000000000000081526004016102a090611ae4565b60405180910390fd5b826001816040516102ba9190611a84565b90815260200160405180910390206002015f9054906101000a900460ff16610317576040517f08c379a000000000000000000000000000000000000000000000000000000000815260040161030e90611b4c565b60405180910390fd5b6001836040516103279190611a84565b90815260200160405180910390206002015f9054906101000a900460ff1615610385576040517f08c379a000000000000000000000000000000000000000000000000000000000815260040161037c90611bb4565b60405180910390fd5b5f6001856040516103969190611a84565b908152602001604051809103902090506001856040516103b69190611a84565b90815260200160405180910390205f8082015f6103d39190611475565b600182015f6103e29190611475565b600282015f6101000a81549060ff02191690556002820160016101000a81549073ffffffffffffffffffffffffffffffffffffffff0219169055505083815f01908161042e9190611dd5565b505050505050565b6060816001816040516104499190611a84565b90815260200160405180910390206002015f9054906101000a900460ff166104a6576040517f08c379a000000000000000000000000000000000000000000000000000000000815260040161049d90611b4c565b60405180910390fd5b600180846040516104b79190611a84565b90815260200160405180910390206003015f3373ffffffffffffffffffffffffffffffffffffffff1673ffffffffffffffffffffffffffffffffffffffff1681526020019081526020015f205f9054906101000a900460ff1660ff161015610554576040517f08c379a000000000000000000000000000000000000000000000000000000000815260040161054b90611eee565b60405180910390fd5b6001836040516105649190611a84565b9081526020016040518091039020600101805461058090611bff565b80601f01602080910402602001604051908101604052809291908181526020018280546105ac90611bff565b80156105f75780601f106105ce576101008083540402835291602001916105f7565b820191905f5260205f20905b8154815290600101906020018083116105da57829003601f168201915b5050505050915050919050565b6060826001816040516106179190611a84565b90815260200160405180910390206002015f9054906101000a900460ff16610674576040517f08c379a000000000000000000000000000000000000000000000000000000000815260040161066b90611b4c565b60405180910390fd5b5f60405180608001604052806040518060400160405280600981526020017f4e6f20616363657373000000000000000000000000000000000000000000000081525081526020016040518060400160405280600981526020017f52656164206f6e6c79000000000000000000000000000000000000000000000081525081526020016040518060400160405280600d81526020017f52656164202620617070656e640000000000000000000000000000000000000081525081526020016040518060400160405280601481526020017f526561642c20617070656e64202620777269746500000000000000000000000081525081525090508060018660405161077d9190611a84565b90815260200160405180910390206003015f8673ffffffffffffffffffffffffffffffffffffffff1673ffffffffffffffffffffffffffffffffffffffff1681526020019081526020015f205f9054906101000a900460ff1660ff16600481106107ea576107e9611f0c565b5b60200201519250505092915050565b603261ffff165f8054906101000a900461ffff1661ffff1610610851576040517f08c379a000000000000000000000000000000000000000000000000000000000815260040161084890611f83565b60405180910390fd5b5f825111610894576040517f08c379a000000000000000000000000000000000000000000000000000000000815260040161088b90611feb565b60405180910390fd5b6001826040516108a49190611a84565b90815260200160405180910390206002015f9054906101000a900460ff1615610902576040517f08c379a00000000000000000000000000000000000000000000000000000000081526004016108f990612053565b60405180910390fd5b5f6001836040516109139190611a84565b9081526020016040518091039020905082815f0190816109339190611dd5565b50818160010190816109459190611dd5565b506001816002015f6101000a81548160ff021916908315150217905550338160020160016101000a81548173ffffffffffffffffffffffffffffffffffffffff021916908373ffffffffffffffffffffffffffffffffffffffff1602179055506003816003015f3373ffffffffffffffffffffffffffffffffffffffff1673ffffffffffffffffffffffffffffffffffffffff1681526020019081526020015f205f6101000a81548160ff021916908360ff1602179055505f8081819054906101000a900461ffff1680929190610a1b906120ab565b91906101000a81548161ffff021916908361ffff16021790555050600283908060018154018082558091505060019003905f5260205f20015f909190919091509081610a679190611dd5565b50505050565b81600181604051610a7e9190611a84565b90815260200160405180910390206002015f9054906101000a900460ff16610adb576040517f08c379a0000000000000000000000000000000000000000000000000000000008152600401610ad290611b4c565b60405180910390fd5b6003600184604051610aed9190611a84565b90815260200160405180910390206003015f3373ffffffffffffffffffffffffffffffffffffffff1673ffffffffffffffffffffffffffffffffffffffff1681526020019081526020015f205f9054906101000a900460ff1660ff1614610b89576040517f08c379a0000000000000000000000000000000000000000000000000000000008152600401610b809061211e565b60405180910390fd5b81600184604051610b9a9190611a84565b90815260200160405180910390206001019081610bb79190611dd5565b50505050565b80600181604051610bce9190611a84565b908152602001604051809103902060020160019054906101000a900473ffffffffffffffffffffffffffffffffffffffff1673ffffffffffffffffffffffffffffffffffffffff163373ffffffffffffffffffffffffffffffffffffffff1614610c6d576040517f08c379a0000000000000000000000000000000000000000000000000000000008152600401610c6490611ae4565b60405180910390fd5b81600181604051610c7e9190611a84565b90815260200160405180910390206002015f9054906101000a900460ff16610cdb576040517f08c379a0000000000000000000000000000000000000000000000000000000008152600401610cd290611b4c565b60405180910390fd5b600183604051610ceb9190611a84565b90815260200160405180910390205f8082015f610d089190611475565b600182015f610d179190611475565b600282015f6101000a81549060ff02191690556002820160016101000a81549073ffffffffffffffffffffffffffffffffffffffff021916905550505f5b600280549050811015610e655783604051602001610d739190611a84565b6040516020818303038152906040528051906020012060028281548110610d9d57610d9c611f0c565b5b905f5260205f2001604051602001610db591906121bc565b6040516020818303038152906040528051906020012003610e585760026001600280549050610de491906121d2565b81548110610df557610df4611f0c565b5b905f5260205f200160028281548110610e1157610e10611f0c565b5b905f5260205f20019081610e25919061222c565b506002805480610e3857610e37612311565b5b600190038181905f5260205f20015f610e519190611475565b9055610e65565b8080600101915050610d55565b505f8081819054906101000a900461ffff1680929190610e849061233e565b91906101000a81548161ffff021916908361ffff16021790555050505050565b60606002805480602002602001604051908101604052809291908181526020015f905b82821015610f6f578382905f5260205f20018054610ee490611bff565b80601f0160208091040260200160405190810160405280929190818152602001828054610f1090611bff565b8015610f5b5780601f10610f3257610100808354040283529160200191610f5b565b820191905f5260205f20905b815481529060010190602001808311610f3e57829003601f168201915b505050505081526020019060010190610ec7565b50505050905090565b81600181604051610f899190611a84565b90815260200160405180910390206002015f9054906101000a900460ff16610fe6576040517f08c379a0000000000000000000000000000000000000000000000000000000008152600401610fdd90611b4c565b60405180910390fd5b6002600184604051610ff89190611a84565b90815260200160405180910390206003015f3373ffffffffffffffffffffffffffffffffffffffff1673ffffffffffffffffffffffffffffffffffffffff1681526020019081526020015f205f9054906101000a900460ff1660ff161015611095576040517f08c379a000000000000000000000000000000000000000000000000000000000815260040161108c906123af565b60405180910390fd5b6001836040516110a59190611a84565b9081526020016040518091039020600101826040516020016110c89291906123f3565b6040516020818303038152906040526001846040516110e79190611a84565b908152602001604051809103902060010190816111049190611dd5565b50505050565b6001818051602081018201805184825260208301602085012081835280955050505050505f91509050805f01805461114190611bff565b80601f016020809104026020016040519081016040528092919081815260200182805461116d90611bff565b80156111b85780601f1061118f576101008083540402835291602001916111b8565b820191905f5260205f20905b81548152906001019060200180831161119b57829003601f168201915b5050505050908060010180546111cd90611bff565b80601f01602080910402602001604051908101604052809291908181526020018280546111f990611bff565b80156112445780601f1061121b57610100808354040283529160200191611244565b820191905f5260205f20905b81548152906001019060200180831161122757829003601f168201915b505050505090806002015f9054906101000a900460ff16908060020160019054906101000a900473ffffffffffffffffffffffffffffffffffffffff16905084565b826001816040516112979190611a84565b908152602001604051809103902060020160019054906101000a900473ffffffffffffffffffffffffffffffffffffffff1673ffffffffffffffffffffffffffffffffffffffff163373ffffffffffffffffffffffffffffffffffffffff1614611336576040517f08c379a000000000000000000000000000000000000000000000000000000000815260040161132d90611ae4565b60405180910390fd5b836001816040516113479190611a84565b90815260200160405180910390206002015f9054906101000a900460ff166113a4576040517f08c379a000000000000000000000000000000000000000000000000000000000815260040161139b90611b4c565b60405180910390fd5b5f8360ff16101580156113bb575060038360ff1611155b6113fa576040517f08c379a00000000000000000000000000000000000000000000000000000000081526004016113f19061246f565b60405180910390fd5b8260018660405161140b9190611a84565b90815260200160405180910390206003015f8673ffffffffffffffffffffffffffffffffffffffff1673ffffffffffffffffffffffffffffffffffffffff1681526020019081526020015f205f6101000a81548160ff021916908360ff1602179055505050505050565b50805461148190611bff565b5f825580601f1061149257506114af565b601f0160209004905f5260205f20908101906114ae91906114b2565b5b50565b5b808211156114c9575f815f9055506001016114b3565b5090565b5f604051905090565b5f80fd5b5f80fd5b5f80fd5b5f80fd5b5f601f19601f8301169050919050565b7f4e487b71000000000000000000000000000000000000000000000000000000005f52604160045260245ffd5b61152c826114e6565b810181811067ffffffffffffffff8211171561154b5761154a6114f6565b5b80604052505050565b5f61155d6114cd565b90506115698282611523565b919050565b5f67ffffffffffffffff821115611588576115876114f6565b5b611591826114e6565b9050602081019050919050565b828183375f83830152505050565b5f6115be6115b98461156e565b611554565b9050828152602081018484840111156115da576115d96114e2565b5b6115e584828561159e565b509392505050565b5f82601f830112611601576116006114de565b5b81356116118482602086016115ac565b91505092915050565b5f80604083850312156116305761162f6114d6565b5b5f83013567ffffffffffffffff81111561164d5761164c6114da565b5b611659858286016115ed565b925050602083013567ffffffffffffffff81111561167a576116796114da565b5b611686858286016115ed565b9150509250929050565b5f602082840312156116a5576116a46114d6565b5b5f82013567ffffffffffffffff8111156116c2576116c16114da565b5b6116ce848285016115ed565b91505092915050565b5f81519050919050565b5f82825260208201905092915050565b8281835e5f83830152505050565b5f611709826116d7565b61171381856116e1565b93506117238185602086016116f1565b61172c816114e6565b840191505092915050565b5f6020820190508181035f83015261174f81846116ff565b905092915050565b5f73ffffffffffffffffffffffffffffffffffffffff82169050919050565b5f61178082611757565b9050919050565b61179081611776565b811461179a575f80fd5b50565b5f813590506117ab81611787565b92915050565b5f80604083850312156117c7576117c66114d6565b5b5f83013567ffffffffffffffff8111156117e4576117e36114da565b5b6117f0858286016115ed565b92505060206118018582860161179d565b9150509250929050565b5f81519050919050565b5f82825260208201905092915050565b5f819050602082019050919050565b5f82825260208201905092915050565b5f61184e826116d7565b6118588185611834565b93506118688185602086016116f1565b611871816114e6565b840191505092915050565b5f6118878383611844565b905092915050565b5f602082019050919050565b5f6118a58261180b565b6118af8185611815565b9350836020820285016118c185611825565b805f5b858110156118fc57848403895281516118dd858261187c565b94506118e88361188f565b925060208a019950506001810190506118c4565b50829750879550505050505092915050565b5f6020820190508181035f830152611926818461189b565b905092915050565b5f8115159050919050565b6119428161192e565b82525050565b61195181611776565b82525050565b5f6080820190508181035f83015261196f81876116ff565b9050818103602083015261198381866116ff565b90506119926040830185611939565b61199f6060830184611948565b95945050505050565b5f60ff82169050919050565b6119bd816119a8565b81146119c7575f80fd5b50565b5f813590506119d8816119b4565b92915050565b5f805f606084860312156119f5576119f46114d6565b5b5f84013567ffffffffffffffff811115611a1257611a116114da565b5b611a1e868287016115ed565b9350506020611a2f8682870161179d565b9250506040611a40868287016119ca565b9150509250925092565b5f81905092915050565b5f611a5e826116d7565b611a688185611a4a565b9350611a788185602086016116f1565b80840191505092915050565b5f611a8f8284611a54565b915081905092915050565b7f596f7520617265206e6f74207468652066696c65206f776e65720000000000005f82015250565b5f611ace601a836116e1565b9150611ad982611a9a565b602082019050919050565b5f6020820190508181035f830152611afb81611ac2565b9050919050565b7f46696c6520646f6573206e6f74206578697374000000000000000000000000005f82015250565b5f611b366013836116e1565b9150611b4182611b02565b602082019050919050565b5f6020820190508181035f830152611b6381611b2a565b9050919050565b7f4e616d65206e6f7420617661696c61626c6500000000000000000000000000005f82015250565b5f611b9e6012836116e1565b9150611ba982611b6a565b602082019050919050565b5f6020820190508181035f830152611bcb81611b92565b9050919050565b7f4e487b71000000000000000000000000000000000000000000000000000000005f52602260045260245ffd5b5f6002820490506001821680611c1657607f821691505b602082108103611c2957611c28611bd2565b5b50919050565b5f819050815f5260205f209050919050565b5f6020601f8301049050919050565b5f82821b905092915050565b5f60088302611c8b7fffffffffffffffffffffffffffffffffffffffffffffffffffffffffffffffff82611c50565b611c958683611c50565b95508019841693508086168417925050509392505050565b5f819050919050565b5f819050919050565b5f611cd9611cd4611ccf84611cad565b611cb6565b611cad565b9050919050565b5f819050919050565b611cf283611cbf565b611d06611cfe82611ce0565b848454611c5c565b825550505050565b5f90565b611d1a611d0e565b611d25818484611ce9565b505050565b5b81811015611d4857611d3d5f82611d12565b600181019050611d2b565b5050565b601f821115611d8d57611d5e81611c2f565b611d6784611c41565b81016020851015611d76578190505b611d8a611d8285611c41565b830182611d2a565b50505b505050565b5f82821c905092915050565b5f611dad5f1984600802611d92565b1980831691505092915050565b5f611dc58383611d9e565b9150826002028217905092915050565b611dde826116d7565b67ffffffffffffffff811115611df757611df66114f6565b5b611e018254611bff565b611e0c828285611d4c565b5f60209050601f831160018114611e3d575f8415611e2b578287015190505b611e358582611dba565b865550611e9c565b601f198416611e4b86611c2f565b5f5b82811015611e7257848901518255600182019150602085019450602081019050611e4d565b86831015611e8f5784890151611e8b601f891682611d9e565b8355505b6001600288020188555050505b505050505050565b7f4e6f2052656164206163636573730000000000000000000000000000000000005f82015250565b5f611ed8600e836116e1565b9150611ee382611ea4565b602082019050919050565b5f6020820190508181035f830152611f0581611ecc565b9050919050565b7f4e487b71000000000000000000000000000000000000000000000000000000005f52603260045260245ffd5b7f45786365656465642066696c65206c696d6974000000000000000000000000005f82015250565b5f611f6d6013836116e1565b9150611f7882611f39565b602082019050919050565b5f6020820190508181035f830152611f9a81611f61565b9050919050565b7f46696c656e616d652063616e6e6f7420626520656d70747900000000000000005f82015250565b5f611fd56018836116e1565b9150611fe082611fa1565b602082019050919050565b5f6020820190508181035f83015261200281611fc9565b9050919050565b7f46696c6520616c726561647920657869737473000000000000000000000000005f82015250565b5f61203d6013836116e1565b915061204882612009565b602082019050919050565b5f6020820190508181035f83015261206a81612031565b9050919050565b7f4e487b71000000000000000000000000000000000000000000000000000000005f52601160045260245ffd5b5f61ffff82169050919050565b5f6120b58261209e565b915061ffff82036120c9576120c8612071565b5b600182019050919050565b7f4e6f2077726974652061636365737300000000000000000000000000000000005f82015250565b5f612108600f836116e1565b9150612113826120d4565b602082019050919050565b5f6020820190508181035f830152612135816120fc565b9050919050565b5f815461214881611bff565b6121528186611a4a565b9450600182165f811461216c5760018114612181576121b3565b60ff19831686528115158202860193506121b3565b61218a85611c2f565b5f5b838110156121ab5781548189015260018201915060208101905061218c565b838801955050505b50505092915050565b5f6121c7828461213c565b915081905092915050565b5f6121dc82611cad565b91506121e783611cad565b92508282039050818111156121ff576121fe612071565b5b92915050565b5f8154905061221381611bff565b9050919050565b5f819050815f5260205f209050919050565b81810361223a57505061230f565b61224382612205565b67ffffffffffffffff81111561225c5761225b6114f6565b5b6122668254611bff565b612271828285611d4c565b5f601f83116001811461229e575f841561228c578287015490505b6122968582611dba565b865550612308565b601f1984166122ac8761221a565b96506122b786611c2f565b5f5b828110156122de578489015482556001820191506001850194506020810190506122b9565b868310156122fb57848901546122f7601f891682611d9e565b8355505b6001600288020188555050505b5050505050505b565b7f4e487b71000000000000000000000000000000000000000000000000000000005f52603160045260245ffd5b5f6123488261209e565b91505f820361235a57612359612071565b5b600182039050919050565b7f4e6f20617070656e6420616363657373000000000000000000000000000000005f82015250565b5f6123996010836116e1565b91506123a482612365565b602082019050919050565b5f6020820190508181035f8301526123c68161238d565b9050919050565b7f0a00000000000000000000000000000000000000000000000000000000000000815250565b5f6123fe828561213c565b9150612409826123cd565b6001820191506124198284611a54565b91508190509392505050565b7f496e76616c6964207065726d697373696f6e206d6f64650000000000000000005f82015250565b5f6124596017836116e1565b915061246482612425565b602082019050919050565b5f6020820190508181035f8301526124868161244d565b905091905056fea264697066735822122011a448399f7ca0c1115094dab3a7766fce1df18b51b061473dafe2305f525f4664736f6c634300081a0033",
			"opcodes": "PUSH1 0x80 PUSH1 0x40 MSTORE PUSH0 DUP1 PUSH0 PUSH2 0x100 EXP DUP2 SLOAD DUP2 PUSH2 0xFFFF MUL NOT AND SWAP1 DUP4 PUSH2 0xFFFF AND MUL OR SWAP1 SSTORE POP CALLVALUE DUP1 ISZERO PUSH1 0x29 JUMPI PUSH0 DUP1 REVERT JUMPDEST POP PUSH2 0x24C3 DUP1 PUSH2 0x37 PUSH0 CODECOPY PUSH0 RETURN INVALID PUSH1 0x80 PUSH1 0x40 MSTORE CALLVALUE DUP1 ISZERO PUSH2 0xF JUMPI PUSH0 DUP1 REVERT JUMPDEST POP PUSH1 0x4 CALLDATASIZE LT PUSH2 0x9C JUMPI PUSH0 CALLDATALOAD PUSH1 0xE0 SHR DUP1 PUSH4 0xA9910054 GT PUSH2 0x64 JUMPI DUP1 PUSH4 0xA9910054 EQ PUSH2 0x154 JUMPI DUP1 PUSH4 0xB033D8FA EQ PUSH2 0x170 JUMPI DUP1 PUSH4 0xB6B13CAA EQ PUSH2 0x18E JUMPI DUP1 PUSH4 0xE7755761 EQ PUSH2 0x1AA JUMPI DUP1 PUSH4 0xECEED653 EQ PUSH2 0x1DD JUMPI PUSH2 0x9C JUMP JUMPDEST DUP1 PUSH4 0x13D4A044 EQ PUSH2 0xA0 JUMPI DUP1 PUSH4 0x60F9BB11 EQ PUSH2 0xBC JUMPI DUP1 PUSH4 0x7D41216D EQ PUSH2 0xEC JUMPI DUP1 PUSH4 0x81AD193A EQ PUSH2 0x11C JUMPI DUP1 PUSH4 0x897E0A97 EQ PUSH2 0x138 JUMPI JUMPDEST PUSH0 DUP1 REVERT JUMPDEST PUSH2 0xBA PUSH1 0x4 DUP1 CALLDATASIZE SUB DUP2 ADD SWAP1 PUSH2 0xB5 SWAP2 SWAP1 PUSH2 0x161A JUMP JUMPDEST PUSH2 0x1F9 JUMP JUMPDEST STOP JUMPDEST PUSH2 0xD6 PUSH1 0x4 DUP1 CALLDATASIZE SUB DUP2 ADD SWAP1 PUSH2 0xD1 SWAP2 SWAP1 PUSH2 0x1690 JUMP JUMPDEST PUSH2 0x436 JUMP JUMPDEST PUSH1 0x40 MLOAD PUSH2 0xE3 SWAP2 SWAP1 PUSH2 0x1737 JUMP JUMPDEST PUSH1 0x40 MLOAD DUP1 SWAP2 SUB SWAP1 RETURN JUMPDEST PUSH2 0x106 PUSH1 0x4 DUP1 CALLDATASIZE SUB DUP2 ADD SWAP1 PUSH2 0x101 SWAP2 SWAP1 PUSH2 0x17B1 JUMP JUMPDEST PUSH2 0x604 JUMP JUMPDEST PUSH1 0x40 MLOAD PUSH2 0x113 SWAP2 SWAP1 PUSH2 0x1737 JUMP JUMPDEST PUSH1 0x40 MLOAD DUP1 SWAP2 SUB SWAP1 RETURN JUMPDEST PUSH2 0x136 PUSH1 0x4 DUP1 CALLDATASIZE SUB DUP2 ADD SWAP1 PUSH2 0x131 SWAP2 SWAP1 PUSH2 0x161A JUMP JUMPDEST PUSH2 0x7F9 JUMP JUMPDEST STOP JUMPDEST PUSH2 0x152 PUSH1 0x4 DUP1 CALLDATASIZE SUB DUP2 ADD SWAP1 PUSH2 0x14D SWAP2 SWAP1 PUSH2 0x161A JUMP JUMPDEST PUSH2 0xA6D JUMP JUMPDEST STOP JUMPDEST PUSH2 0x16E PUSH1 0x4 DUP1 CALLDATASIZE SUB DUP2 ADD SWAP1 PUSH2 0x169 SWAP2 SWAP1 PUSH2 0x1690 JUMP JUMPDEST PUSH2 0xBBD JUMP JUMPDEST STOP JUMPDEST PUSH2 0x178 PUSH2 0xEA4 JUMP JUMPDEST PUSH1 0x40 MLOAD PUSH2 0x185 SWAP2 SWAP1 PUSH2 0x190E JUMP JUMPDEST PUSH1 0x40 MLOAD DUP1 SWAP2 SUB SWAP1 RETURN JUMPDEST PUSH2 0x1A8 PUSH1 0x4 DUP1 CALLDATASIZE SUB DUP2 ADD SWAP1 PUSH2 0x1A3 SWAP2 SWAP1 PUSH2 0x161A JUMP JUMPDEST PUSH2 0xF78 JUMP JUMPDEST STOP JUMPDEST PUSH2 0x1C4 PUSH1 0x4 DUP1 CALLDATASIZE SUB DUP2 ADD SWAP1 PUSH2 0x1BF SWAP2 SWAP1 PUSH2 0x1690 JUMP JUMPDEST PUSH2 0x110A JUMP JUMPDEST PUSH1 0x40 MLOAD PUSH2 0x1D4 SWAP5 SWAP4 SWAP3 SWAP2 SWAP1 PUSH2 0x1957 JUMP JUMPDEST PUSH1 0x40 MLOAD DUP1 SWAP2 SUB SWAP1 RETURN JUMPDEST PUSH2 0x1F7 PUSH1 0x4 DUP1 CALLDATASIZE SUB DUP2 ADD SWAP1 PUSH2 0x1F2 SWAP2 SWAP1 PUSH2 0x19DE JUMP JUMPDEST PUSH2 0x1286 JUMP JUMPDEST STOP JUMPDEST DUP2 PUSH1 0x1 DUP2 PUSH1 0x40 MLOAD PUSH2 0x20A SWAP2 SWAP1 PUSH2 0x1A84 JUMP JUMPDEST SWAP1 DUP2 MSTORE PUSH1 0x20 ADD PUSH1 0x40 MLOAD DUP1 SWAP2 SUB SWAP1 KECCAK256 PUSH1 0x2 ADD PUSH1 0x1 SWAP1 SLOAD SWAP1 PUSH2 0x100 EXP SWAP1 DIV PUSH20 0xFFFFFFFFFFFFFFFFFFFFFFFFFFFFFFFFFFFFFFFF AND PUSH20 0xFFFFFFFFFFFFFFFFFFFFFFFFFFFFFFFFFFFFFFFF AND CALLER PUSH20 0xFFFFFFFFFFFFFFFFFFFFFFFFFFFFFFFFFFFFFFFF AND EQ PUSH2 0x2A9 JUMPI PUSH1 0x40 MLOAD PUSH32 0x8C379A000000000000000000000000000000000000000000000000000000000 DUP2 MSTORE PUSH1 0x4 ADD PUSH2 0x2A0 SWAP1 PUSH2 0x1AE4 JUMP JUMPDEST PUSH1 0x40 MLOAD DUP1 SWAP2 SUB SWAP1 REVERT JUMPDEST DUP3 PUSH1 0x1 DUP2 PUSH1 0x40 MLOAD PUSH2 0x2BA SWAP2 SWAP1 PUSH2 0x1A84 JUMP JUMPDEST SWAP1 DUP2 MSTORE PUSH1 0x20 ADD PUSH1 0x40 MLOAD DUP1 SWAP2 SUB SWAP1 KECCAK256 PUSH1 0x2 ADD PUSH0 SWAP1 SLOAD SWAP1 PUSH2 0x100 EXP SWAP1 DIV PUSH1 0xFF AND PUSH2 0x317 JUMPI PUSH1 0x40 MLOAD PUSH32 0x8C379A000000000000000000000000000000000000000000000000000000000 DUP2 MSTORE PUSH1 0x4 ADD PUSH2 0x30E SWAP1 PUSH2 0x1B4C JUMP JUMPDEST PUSH1 0x40 MLOAD DUP1 SWAP2 SUB SWAP1 REVERT JUMPDEST PUSH1 0x1 DUP4 PUSH1 0x40 MLOAD PUSH2 0x327 SWAP2 SWAP1 PUSH2 0x1A84 JUMP JUMPDEST SWAP1 DUP2 MSTORE PUSH1 0x20 ADD PUSH1 0x40 MLOAD DUP1 SWAP2 SUB SWAP1 KECCAK256 PUSH1 0x2 ADD PUSH0 SWAP1 SLOAD SWAP1 PUSH2 0x100 EXP SWAP1 DIV PUSH1 0xFF AND ISZERO PUSH2 0x385 JUMPI PUSH1 0x40 MLOAD PUSH32 0x8C379A000000000000000000000000000000000000000000000000000000000 DUP2 MSTORE PUSH1 0x4 ADD PUSH2 0x37C SWAP1 PUSH2 0x1BB4 JUMP JUMPDEST PUSH1 0x40 MLOAD DUP1 SWAP2 SUB SWAP1 REVERT JUMPDEST PUSH0 PUSH1 0x1 DUP6 PUSH1 0x40 MLOAD PUSH2 0x396 SWAP2 SWAP1 PUSH2 0x1A84 JUMP JUMPDEST SWAP1 DUP2 MSTORE PUSH1 0x20 ADD PUSH1 0x40 MLOAD DUP1 SWAP2 SUB SWAP1 KECCAK256 SWAP1 POP PUSH1 0x1 DUP6 PUSH1 0x40 MLOAD PUSH2 0x3B6 SWAP2 SWAP1 PUSH2 0x1A84 JUMP JUMPDEST SWAP1 DUP2 MSTORE PUSH1 0x20 ADD PUSH1 0x40 MLOAD DUP1 SWAP2 SUB SWAP1 KECCAK256 PUSH0 DUP1 DUP3 ADD PUSH0 PUSH2 0x3D3 SWAP2 SWAP1 PUSH2 0x1475 JUMP JUMPDEST PUSH1 0x1 DUP3 ADD PUSH0 PUSH2 0x3E2 SWAP2 SWAP1 PUSH2 0x1475 JUMP JUMPDEST PUSH1 0x2 DUP3 ADD PUSH0 PUSH2 0x100 EXP DUP2 SLOAD SWAP1 PUSH1 0xFF MUL NOT AND SWAP1 SSTORE PUSH1 0x2 DUP3 ADD PUSH1 0x1 PUSH2 0x100 EXP DUP2 SLOAD SWAP1 PUSH20 0xFFFFFFFFFFFFFFFFFFFFFFFFFFFFFFFFFFFFFFFF MUL NOT AND SWAP1 SSTORE POP POP DUP4 DUP2 PUSH0 ADD SWAP1 DUP2 PUSH2 0x42E SWAP2 SWAP1 PUSH2 0x1DD5 JUMP JUMPDEST POP POP POP POP POP POP JUMP JUMPDEST PUSH1 0x60 DUP2 PUSH1 0x1 DUP2 PUSH1 0x40 MLOAD PUSH2 0x449 SWAP2 SWAP1 PUSH2 0x1A84 JUMP JUMPDEST SWAP1 DUP2 MSTORE PUSH1 0x20 ADD PUSH1 0x40 MLOAD DUP1 SWAP2 SUB SWAP1 KECCAK256 PUSH1 0x2 ADD PUSH0 SWAP1 SLOAD SWAP1 PUSH2 0x100 EXP SWAP1 DIV PUSH1 0xFF AND PUSH2 0x4A6 JUMPI PUSH1 0x40 MLOAD PUSH32 0x8C379A000000000000000000000000000000000000000000000000000000000 DUP2 MSTORE PUSH1 0x4 ADD PUSH2 0x49D SWAP1 PUSH2 0x1B4C JUMP JUMPDEST PUSH1 0x40 MLOAD DUP1 SWAP2 SUB SWAP1 REVERT JUMPDEST PUSH1 0x1 DUP1 DUP5 PUSH1 0x40 MLOAD PUSH2 0x4B7 SWAP2 SWAP1 PUSH2 0x1A84 JUMP JUMPDEST SWAP1 DUP2 MSTORE PUSH1 0x20 ADD PUSH1 0x40 MLOAD DUP1 SWAP2 SUB SWAP1 KECCAK256 PUSH1 0x3 ADD PUSH0 CALLER PUSH20 0xFFFFFFFFFFFFFFFFFFFFFFFFFFFFFFFFFFFFFFFF AND PUSH20 0xFFFFFFFFFFFFFFFFFFFFFFFFFFFFFFFFFFFFFFFF AND DUP2 MSTORE PUSH1 0x20 ADD SWAP1 DUP2 MSTORE PUSH1 0x20 ADD PUSH0 KECCAK256 PUSH0 SWAP1 SLOAD SWAP1 PUSH2 0x100 EXP SWAP1 DIV PUSH1 0xFF AND PUSH1 0xFF AND LT ISZERO PUSH2 0x554 JUMPI PUSH1 0x40 MLOAD PUSH32 0x8C379A000000000000000000000000000000000000000000000000000000000 DUP2 MSTORE PUSH1 0x4 ADD PUSH2 0x54B SWAP1 PUSH2 0x1EEE JUMP JUMPDEST PUSH1 0x40 MLOAD DUP1 SWAP2 SUB SWAP1 REVERT JUMPDEST PUSH1 0x1 DUP4 PUSH1 0x40 MLOAD PUSH2 0x564 SWAP2 SWAP1 PUSH2 0x1A84 JUMP JUMPDEST SWAP1 DUP2 MSTORE PUSH1 0x20 ADD PUSH1 0x40 MLOAD DUP1 SWAP2 SUB SWAP1 KECCAK256 PUSH1 0x1 ADD DUP1 SLOAD PUSH2 0x580 SWAP1 PUSH2 0x1BFF JUMP JUMPDEST DUP1 PUSH1 0x1F ADD PUSH1 0x20 DUP1 SWAP2 DIV MUL PUSH1 0x20 ADD PUSH1 0x40 MLOAD SWAP1 DUP2 ADD PUSH1 0x40 MSTORE DUP1 SWAP3 SWAP2 SWAP1 DUP2 DUP2 MSTORE PUSH1 0x20 ADD DUP3 DUP1 SLOAD PUSH2 0x5AC SWAP1 PUSH2 0x1BFF JUMP JUMPDEST DUP1 ISZERO PUSH2 0x5F7 JUMPI DUP1 PUSH1 0x1F LT PUSH2 0x5CE JUMPI PUSH2 0x100 DUP1 DUP4 SLOAD DIV MUL DUP4 MSTORE SWAP2 PUSH1 0x20 ADD SWAP2 PUSH2 0x5F7 JUMP JUMPDEST DUP3 ADD SWAP2 SWAP1 PUSH0 MSTORE PUSH1 0x20 PUSH0 KECCAK256 SWAP1 JUMPDEST DUP2 SLOAD DUP2 MSTORE SWAP1 PUSH1 0x1 ADD SWAP1 PUSH1 0x20 ADD DUP1 DUP4 GT PUSH2 0x5DA JUMPI DUP3 SWAP1 SUB PUSH1 0x1F AND DUP3 ADD SWAP2 JUMPDEST POP POP POP POP POP SWAP2 POP POP SWAP2 SWAP1 POP JUMP JUMPDEST PUSH1 0x60 DUP3 PUSH1 0x1 DUP2 PUSH1 0x40 MLOAD PUSH2 0x617 SWAP2 SWAP1 PUSH2 0x1A84 JUMP JUMPDEST SWAP1 DUP2 MSTORE PUSH1 0x20 ADD PUSH1 0x40 MLOAD DUP1 SWAP2 SUB SWAP1 KECCAK256 PUSH1 0x2 ADD PUSH0 SWAP1 SLOAD SWAP1 PUSH2 0x100 EXP SWAP1 DIV PUSH1 0xFF AND PUSH2 0x674 JUMPI PUSH1 0x40 MLOAD PUSH32 0x8C379A000000000000000000000000000000000000000000000000000000000 DUP2 MSTORE PUSH1 0x4 ADD PUSH2 0x66B SWAP1 PUSH2 0x1B4C JUMP JUMPDEST PUSH1 0x40 MLOAD DUP1 SWAP2 SUB SWAP1 REVERT JUMPDEST PUSH0 PUSH1 0x40 MLOAD DUP1 PUSH1 0x80 ADD PUSH1 0x40 MSTORE DUP1 PUSH1 0x40 MLOAD DUP1 PUSH1 0x40 ADD PUSH1 0x40 MSTORE DUP1 PUSH1 0x9 DUP2 MSTORE PUSH1 0x20 ADD PUSH32 0x4E6F206163636573730000000000000000000000000000000000000000000000 DUP2 MSTORE POP DUP2 MSTORE PUSH1 0x20 ADD PUSH1 0x40 MLOAD DUP1 PUSH1 0x40 ADD PUSH1 0x40 MSTORE DUP1 PUSH1 0x9 DUP2 MSTORE PUSH1 0x20 ADD PUSH32 0x52656164206F6E6C790000000000000000000000000000000000000000000000 DUP2 MSTORE POP DUP2 MSTORE PUSH1 0x20 ADD PUSH1 0x40 MLOAD DUP1 PUSH1 0x40 ADD PUSH1 0x40 MSTORE DUP1 PUSH1 0xD DUP2 MSTORE PUSH1 0x20 ADD PUSH32 0x52656164202620617070656E6400000000000000000000000000000000000000 DUP2 MSTORE POP DUP2 MSTORE PUSH1 0x20 ADD PUSH1 0x40 MLOAD DUP1 PUSH1 0x40 ADD PUSH1 0x40 MSTORE DUP1 PUSH1 0x14 DUP2 MSTORE PUSH1 0x20 ADD PUSH32 0x526561642C20617070656E642026207772697465000000000000000000000000 DUP2 MSTORE POP DUP2 MSTORE POP SWAP1 POP DUP1 PUSH1 0x1 DUP7 PUSH1 0x40 MLOAD PUSH2 0x77D SWAP2 SWAP1 PUSH2 0x1A84 JUMP JUMPDEST SWAP1 DUP2 MSTORE PUSH1 0x20 ADD PUSH1 0x40 MLOAD DUP1 SWAP2 SUB SWAP1 KECCAK256 PUSH1 0x3 ADD PUSH0 DUP7 PUSH20 0xFFFFFFFFFFFFFFFFFFFFFFFFFFFFFFFFFFFFFFFF AND PUSH20 0xFFFFFFFFFFFFFFFFFFFFFFFFFFFFFFFFFFFFFFFF AND DUP2 MSTORE PUSH1 0x20 ADD SWAP1 DUP2 MSTORE PUSH1 0x20 ADD PUSH0 KECCAK256 PUSH0 SWAP1 SLOAD SWAP1 PUSH2 0x100 EXP SWAP1 DIV PUSH1 0xFF AND PUSH1 0xFF AND PUSH1 0x4 DUP2 LT PUSH2 0x7EA JUMPI PUSH2 0x7E9 PUSH2 0x1F0C JUMP JUMPDEST JUMPDEST PUSH1 0x20 MUL ADD MLOAD SWAP3 POP POP POP SWAP3 SWAP2 POP POP JUMP JUMPDEST PUSH1 0x32 PUSH2 0xFFFF AND PUSH0 DUP1 SLOAD SWAP1 PUSH2 0x100 EXP SWAP1 DIV PUSH2 0xFFFF AND PUSH2 0xFFFF AND LT PUSH2 0x851 JUMPI PUSH1 0x40 MLOAD PUSH32 0x8C379A000000000000000000000000000000000000000000000000000000000 DUP2 MSTORE PUSH1 0x4 ADD PUSH2 0x848 SWAP1 PUSH2 0x1F83 JUMP JUMPDEST PUSH1 0x40 MLOAD DUP1 SWAP2 SUB SWAP1 REVERT JUMPDEST PUSH0 DUP3 MLOAD GT PUSH2 0x894 JUMPI PUSH1 0x40 MLOAD PUSH32 0x8C379A000000000000000000000000000000000000000000000000000000000 DUP2 MSTORE PUSH1 0x4 ADD PUSH2 0x88B SWAP1 PUSH2 0x1FEB JUMP JUMPDEST PUSH1 0x40 MLOAD DUP1 SWAP2 SUB SWAP1 REVERT JUMPDEST PUSH1 0x1 DUP3 PUSH1 0x40 MLOAD PUSH2 0x8A4 SWAP2 SWAP1 PUSH2 0x1A84 JUMP JUMPDEST SWAP1 DUP2 MSTORE PUSH1 0x20 ADD PUSH1 0x40 MLOAD DUP1 SWAP2 SUB SWAP1 KECCAK256 PUSH1 0x2 ADD PUSH0 SWAP1 SLOAD SWAP1 PUSH2 0x100 EXP SWAP1 DIV PUSH1 0xFF AND ISZERO PUSH2 0x902 JUMPI PUSH1 0x40 MLOAD PUSH32 0x8C379A000000000000000000000000000000000000000000000000000000000 DUP2 MSTORE PUSH1 0x4 ADD PUSH2 0x8F9 SWAP1 PUSH2 0x2053 JUMP JUMPDEST PUSH1 0x40 MLOAD DUP1 SWAP2 SUB SWAP1 REVERT JUMPDEST PUSH0 PUSH1 0x1 DUP4 PUSH1 0x40 MLOAD PUSH2 0x913 SWAP2 SWAP1 PUSH2 0x1A84 JUMP JUMPDEST SWAP1 DUP2 MSTORE PUSH1 0x20 ADD PUSH1 0x40 MLOAD DUP1 SWAP2 SUB SWAP1 KECCAK256 SWAP1 POP DUP3 DUP2 PUSH0 ADD SWAP1 DUP2 PUSH2 0x933 SWAP2 SWAP1 PUSH2 0x1DD5 JUMP JUMPDEST POP DUP2 DUP2 PUSH1 0x1 ADD SWAP1 DUP2 PUSH2 0x945 SWAP2 SWAP1 PUSH2 0x1DD5 JUMP JUMPDEST POP PUSH1 0x1 DUP2 PUSH1 0x2 ADD PUSH0 PUSH2 0x100 EXP DUP2 SLOAD DUP2 PUSH1 0xFF MUL NOT AND SWAP1 DUP4 ISZERO ISZERO MUL OR SWAP1 SSTORE POP CALLER DUP2 PUSH1 0x2 ADD PUSH1 0x1 PUSH2 0x100 EXP DUP2 SLOAD DUP2 PUSH20 0xFFFFFFFFFFFFFFFFFFFFFFFFFFFFFFFFFFFFFFFF MUL NOT AND SWAP1 DUP4 PUSH20 0xFFFFFFFFFFFFFFFFFFFFFFFFFFFFFFFFFFFFFFFF AND MUL OR SWAP1 SSTORE POP PUSH1 0x3 DUP2 PUSH1 0x3 ADD PUSH0 CALLER PUSH20 0xFFFFFFFFFFFFFFFFFFFFFFFFFFFFFFFFFFFFFFFF AND PUSH20 0xFFFFFFFFFFFFFFFFFFFFFFFFFFFFFFFFFFFFFFFF AND DUP2 MSTORE PUSH1 0x20 ADD SWAP1 DUP2 MSTORE PUSH1 0x20 ADD PUSH0 KECCAK256 PUSH0 PUSH2 0x100 EXP DUP2 SLOAD DUP2 PUSH1 0xFF MUL NOT AND SWAP1 DUP4 PUSH1 0xFF AND MUL OR SWAP1 SSTORE POP PUSH0 DUP1 DUP2 DUP2 SWAP1 SLOAD SWAP1 PUSH2 0x100 EXP SWAP1 DIV PUSH2 0xFFFF AND DUP1 SWAP3 SWAP2 SWAP1 PUSH2 0xA1B SWAP1 PUSH2 0x20AB JUMP JUMPDEST SWAP2 SWAP1 PUSH2 0x100 EXP DUP2 SLOAD DUP2 PUSH2 0xFFFF MUL NOT AND SWAP1 DUP4 PUSH2 0xFFFF AND MUL OR SWAP1 SSTORE POP POP PUSH1 0x2 DUP4 SWAP1 DUP1 PUSH1 0x1 DUP2 SLOAD ADD DUP1 DUP3 SSTORE DUP1 SWAP2 POP POP PUSH1 0x1 SWAP1 SUB SWAP1 PUSH0 MSTORE PUSH1 0x20 PUSH0 KECCAK256 ADD PUSH0 SWAP1 SWAP2 SWAP1 SWAP2 SWAP1 SWAP2 POP SWAP1 DUP2 PUSH2 0xA67 SWAP2 SWAP1 PUSH2 0x1DD5 JUMP JUMPDEST POP POP POP POP JUMP JUMPDEST DUP2 PUSH1 0x1 DUP2 PUSH1 0x40 MLOAD PUSH2 0xA7E SWAP2 SWAP1 PUSH2 0x1A84 JUMP JUMPDEST SWAP1 DUP2 MSTORE PUSH1 0x20 ADD PUSH1 0x40 MLOAD DUP1 SWAP2 SUB SWAP1 KECCAK256 PUSH1 0x2 ADD PUSH0 SWAP1 SLOAD SWAP1 PUSH2 0x100 EXP SWAP1 DIV PUSH1 0xFF AND PUSH2 0xADB JUMPI PUSH1 0x40 MLOAD PUSH32 0x8C379A000000000000000000000000000000000000000000000000000000000 DUP2 MSTORE PUSH1 0x4 ADD PUSH2 0xAD2 SWAP1 PUSH2 0x1B4C JUMP JUMPDEST PUSH1 0x40 MLOAD DUP1 SWAP2 SUB SWAP1 REVERT JUMPDEST PUSH1 0x3 PUSH1 0x1 DUP5 PUSH1 0x40 MLOAD PUSH2 0xAED SWAP2 SWAP1 PUSH2 0x1A84 JUMP JUMPDEST SWAP1 DUP2 MSTORE PUSH1 0x20 ADD PUSH1 0x40 MLOAD DUP1 SWAP2 SUB SWAP1 KECCAK256 PUSH1 0x3 ADD PUSH0 CALLER PUSH20 0xFFFFFFFFFFFFFFFFFFFFFFFFFFFFFFFFFFFFFFFF AND PUSH20 0xFFFFFFFFFFFFFFFFFFFFFFFFFFFFFFFFFFFFFFFF AND DUP2 MSTORE PUSH1 0x20 ADD SWAP1 DUP2 MSTORE PUSH1 0x20 ADD PUSH0 KECCAK256 PUSH0 SWAP1 SLOAD SWAP1 PUSH2 0x100 EXP SWAP1 DIV PUSH1 0xFF AND PUSH1 0xFF AND EQ PUSH2 0xB89 JUMPI PUSH1 0x40 MLOAD PUSH32 0x8C379A000000000000000000000000000000000000000000000000000000000 DUP2 MSTORE PUSH1 0x4 ADD PUSH2 0xB80 SWAP1 PUSH2 0x211E JUMP JUMPDEST PUSH1 0x40 MLOAD DUP1 SWAP2 SUB SWAP1 REVERT JUMPDEST DUP2 PUSH1 0x1 DUP5 PUSH1 0x40 MLOAD PUSH2 0xB9A SWAP2 SWAP1 PUSH2 0x1A84 JUMP JUMPDEST SWAP1 DUP2 MSTORE PUSH1 0x20 ADD PUSH1 0x40 MLOAD DUP1 SWAP2 SUB SWAP1 KECCAK256 PUSH1 0x1 ADD SWAP1 DUP2 PUSH2 0xBB7 SWAP2 SWAP1 PUSH2 0x1DD5 JUMP JUMPDEST POP POP POP POP JUMP JUMPDEST DUP1 PUSH1 0x1 DUP2 PUSH1 0x40 MLOAD PUSH2 0xBCE SWAP2 SWAP1 PUSH2 0x1A84 JUMP JUMPDEST SWAP1 DUP2 MSTORE PUSH1 0x20 ADD PUSH1 0x40 MLOAD DUP1 SWAP2 SUB SWAP1 KECCAK256 PUSH1 0x2 ADD PUSH1 0x1 SWAP1 SLOAD SWAP1 PUSH2 0x100 EXP SWAP1 DIV PUSH20 0xFFFFFFFFFFFFFFFFFFFFFFFFFFFFFFFFFFFFFFFF AND PUSH20 0xFFFFFFFFFFFFFFFFFFFFFFFFFFFFFFFFFFFFFFFF AND CALLER PUSH20 0xFFFFFFFFFFFFFFFFFFFFFFFFFFFFFFFFFFFFFFFF AND EQ PUSH2 0xC6D JUMPI PUSH1 0x40 MLOAD PUSH32 0x8C379A000000000000000000000000000000000000000000000000000000000 DUP2 MSTORE PUSH1 0x4 ADD PUSH2 0xC64 SWAP1 PUSH2 0x1AE4 JUMP JUMPDEST PUSH1 0x40 MLOAD DUP1 SWAP2 SUB SWAP1 REVERT JUMPDEST DUP2 PUSH1 0x1 DUP2 PUSH1 0x40 MLOAD PUSH2 0xC7E SWAP2 SWAP1 PUSH2 0x1A84 JUMP JUMPDEST SWAP1 DUP2 MSTORE PUSH1 0x20 ADD PUSH1 0x40 MLOAD DUP1 SWAP2 SUB SWAP1 KECCAK256 PUSH1 0x2 ADD PUSH0 SWAP1 SLOAD SWAP1 PUSH2 0x100 EXP SWAP1 DIV PUSH1 0xFF AND PUSH2 0xCDB JUMPI PUSH1 0x40 MLOAD PUSH32 0x8C379A000000000000000000000000000000000000000000000000000000000 DUP2 MSTORE PUSH1 0x4 ADD PUSH2 0xCD2 SWAP1 PUSH2 0x1B4C JUMP JUMPDEST PUSH1 0x40 MLOAD DUP1 SWAP2 SUB SWAP1 REVERT JUMPDEST PUSH1 0x1 DUP4 PUSH1 0x40 MLOAD PUSH2 0xCEB SWAP2 SWAP1 PUSH2 0x1A84 JUMP JUMPDEST SWAP1 DUP2 MSTORE PUSH1 0x20 ADD PUSH1 0x40 MLOAD DUP1 SWAP2 SUB SWAP1 KECCAK256 PUSH0 DUP1 DUP3 ADD PUSH0 PUSH2 0xD08 SWAP2 SWAP1 PUSH2 0x1475 JUMP JUMPDEST PUSH1 0x1 DUP3 ADD PUSH0 PUSH2 0xD17 SWAP2 SWAP1 PUSH2 0x1475 JUMP JUMPDEST PUSH1 0x2 DUP3 ADD PUSH0 PUSH2 0x100 EXP DUP2 SLOAD SWAP1 PUSH1 0xFF MUL NOT AND SWAP1 SSTORE PUSH1 0x2 DUP3 ADD PUSH1 0x1 PUSH2 0x100 EXP DUP2 SLOAD SWAP1 PUSH20 0xFFFFFFFFFFFFFFFFFFFFFFFFFFFFFFFFFFFFFFFF MUL NOT AND SWAP1 SSTORE POP POP PUSH0 JUMPDEST PUSH1 0x2 DUP1 SLOAD SWAP1 POP DUP2 LT ISZERO PUSH2 0xE65 JUMPI DUP4 PUSH1 0x40 MLOAD PUSH1 0x20 ADD PUSH2 0xD73 SWAP2 SWAP1 PUSH2 0x1A84 JUMP JUMPDEST PUSH1 0x40 MLOAD PUSH1 0x20 DUP2 DUP4 SUB SUB DUP2 MSTORE SWAP1 PUSH1 0x40 MSTORE DUP1 MLOAD SWAP1 PUSH1 0x20 ADD KECCAK256 PUSH1 0x2 DUP3 DUP2 SLOAD DUP2 LT PUSH2 0xD9D JUMPI PUSH2 0xD9C PUSH2 0x1F0C JUMP JUMPDEST JUMPDEST SWAP1 PUSH0 MSTORE PUSH1 0x20 PUSH0 KECCAK256 ADD PUSH1 0x40 MLOAD PUSH1 0x20 ADD PUSH2 0xDB5 SWAP2 SWAP1 PUSH2 0x21BC JUMP JUMPDEST PUSH1 0x40 MLOAD PUSH1 0x20 DUP2 DUP4 SUB SUB DUP2 MSTORE SWAP1 PUSH1 0x40 MSTORE DUP1 MLOAD SWAP1 PUSH1 0x20 ADD KECCAK256 SUB PUSH2 0xE58 JUMPI PUSH1 0x2 PUSH1 0x1 PUSH1 0x2 DUP1 SLOAD SWAP1 POP PUSH2 0xDE4 SWAP2 SWAP1 PUSH2 0x21D2 JUMP JUMPDEST DUP2 SLOAD DUP2 LT PUSH2 0xDF5 JUMPI PUSH2 0xDF4 PUSH2 0x1F0C JUMP JUMPDEST JUMPDEST SWAP1 PUSH0 MSTORE PUSH1 0x20 PUSH0 KECCAK256 ADD PUSH1 0x2 DUP3 DUP2 SLOAD DUP2 LT PUSH2 0xE11 JUMPI PUSH2 0xE10 PUSH2 0x1F0C JUMP JUMPDEST JUMPDEST SWAP1 PUSH0 MSTORE PUSH1 0x20 PUSH0 KECCAK256 ADD SWAP1 DUP2 PUSH2 0xE25 SWAP2 SWAP1 PUSH2 0x222C JUMP JUMPDEST POP PUSH1 0x2 DUP1 SLOAD DUP1 PUSH2 0xE38 JUMPI PUSH2 0xE37 PUSH2 0x2311 JUMP JUMPDEST JUMPDEST PUSH1 0x1 SWAP1 SUB DUP2 DUP2 SWAP1 PUSH0 MSTORE PUSH1 0x20 PUSH0 KECCAK256 ADD PUSH0 PUSH2 0xE51 SWAP2 SWAP1 PUSH2 0x1475 JUMP JUMPDEST SWAP1 SSTORE PUSH2 0xE65 JUMP JUMPDEST DUP1 DUP1 PUSH1 0x1 ADD SWAP2 POP POP PUSH2 0xD55 JUMP JUMPDEST POP PUSH0 DUP1 DUP2 DUP2 SWAP1 SLOAD SWAP1 PUSH2 0x100 EXP SWAP1 DIV PUSH2 0xFFFF AND DUP1 SWAP3 SWAP2 SWAP1 PUSH2 0xE84 SWAP1 PUSH2 0x233E JUMP JUMPDEST SWAP2 SWAP1 PUSH2 0x100 EXP DUP2 SLOAD DUP2 PUSH2 0xFFFF MUL NOT AND SWAP1 DUP4 PUSH2 0xFFFF AND MUL OR SWAP1 SSTORE POP POP POP POP POP JUMP JUMPDEST PUSH1 0x60 PUSH1 0x2 DUP1 SLOAD DUP1 PUSH1 0x20 MUL PUSH1 0x20 ADD PUSH1 0x40 MLOAD SWAP1 DUP2 ADD PUSH1 0x40 MSTORE DUP1 SWAP3 SWAP2 SWAP1 DUP2 DUP2 MSTORE PUSH1 0x20 ADD PUSH0 SWAP1 JUMPDEST DUP3 DUP3 LT ISZERO PUSH2 0xF6F JUMPI DUP4 DUP3 SWAP1 PUSH0 MSTORE PUSH1 0x20 PUSH0 KECCAK256 ADD DUP1 SLOAD PUSH2 0xEE4 SWAP1 PUSH2 0x1BFF JUMP JUMPDEST DUP1 PUSH1 0x1F ADD PUSH1 0x20 DUP1 SWAP2 DIV MUL PUSH1 0x20 ADD PUSH1 0x40 MLOAD SWAP1 DUP2 ADD PUSH1 0x40 MSTORE DUP1 SWAP3 SWAP2 SWAP1 DUP2 DUP2 MSTORE PUSH1 0x20 ADD DUP3 DUP1 SLOAD PUSH2 0xF10 SWAP1 PUSH2 0x1BFF JUMP JUMPDEST DUP1 ISZERO PUSH2 0xF5B JUMPI DUP1 PUSH1 0x1F LT PUSH2 0xF32 JUMPI PUSH2 0x100 DUP1 DUP4 SLOAD DIV MUL DUP4 MSTORE SWAP2 PUSH1 0x20 ADD SWAP2 PUSH2 0xF5B JUMP JUMPDEST DUP3 ADD SWAP2 SWAP1 PUSH0 MSTORE PUSH1 0x20 PUSH0 KECCAK256 SWAP1 JUMPDEST DUP2 SLOAD DUP2 MSTORE SWAP1 PUSH1 0x1 ADD SWAP1 PUSH1 0x20 ADD DUP1 DUP4 GT PUSH2 0xF3E JUMPI DUP3 SWAP1 SUB PUSH1 0x1F AND DUP3 ADD SWAP2 JUMPDEST POP POP POP POP POP DUP2 MSTORE PUSH1 0x20 ADD SWAP1 PUSH1 0x1 ADD SWAP1 PUSH2 0xEC7 JUMP JUMPDEST POP POP POP POP SWAP1 POP SWAP1 JUMP JUMPDEST DUP2 PUSH1 0x1 DUP2 PUSH1 0x40 MLOAD PUSH2 0xF89 SWAP2 SWAP1 PUSH2 0x1A84 JUMP JUMPDEST SWAP1 DUP2 MSTORE PUSH1 0x20 ADD PUSH1 0x40 MLOAD DUP1 SWAP2 SUB SWAP1 KECCAK256 PUSH1 0x2 ADD PUSH0 SWAP1 SLOAD SWAP1 PUSH2 0x100 EXP SWAP1 DIV PUSH1 0xFF AND PUSH2 0xFE6 JUMPI PUSH1 0x40 MLOAD PUSH32 0x8C379A000000000000000000000000000000000000000000000000000000000 DUP2 MSTORE PUSH1 0x4 ADD PUSH2 0xFDD SWAP1 PUSH2 0x1B4C JUMP JUMPDEST PUSH1 0x40 MLOAD DUP1 SWAP2 SUB SWAP1 REVERT JUMPDEST PUSH1 0x2 PUSH1 0x1 DUP5 PUSH1 0x40 MLOAD PUSH2 0xFF8 SWAP2 SWAP1 PUSH2 0x1A84 JUMP JUMPDEST SWAP1 DUP2 MSTORE PUSH1 0x20 ADD PUSH1 0x40 MLOAD DUP1 SWAP2 SUB SWAP1 KECCAK256 PUSH1 0x3 ADD PUSH0 CALLER PUSH20 0xFFFFFFFFFFFFFFFFFFFFFFFFFFFFFFFFFFFFFFFF AND PUSH20 0xFFFFFFFFFFFFFFFFFFFFFFFFFFFFFFFFFFFFFFFF AND DUP2 MSTORE PUSH1 0x20 ADD SWAP1 DUP2 MSTORE PUSH1 0x20 ADD PUSH0 KECCAK256 PUSH0 SWAP1 SLOAD SWAP1 PUSH2 0x100 EXP SWAP1 DIV PUSH1 0xFF AND PUSH1 0xFF AND LT ISZERO PUSH2 0x1095 JUMPI PUSH1 0x40 MLOAD PUSH32 0x8C379A000000000000000000000000000000000000000000000000000000000 DUP2 MSTORE PUSH1 0x4 ADD PUSH2 0x108C SWAP1 PUSH2 0x23AF JUMP JUMPDEST PUSH1 0x40 MLOAD DUP1 SWAP2 SUB SWAP1 REVERT JUMPDEST PUSH1 0x1 DUP4 PUSH1 0x40 MLOAD PUSH2 0x10A5 SWAP2 SWAP1 PUSH2 0x1A84 JUMP JUMPDEST SWAP1 DUP2 MSTORE PUSH1 0x20 ADD PUSH1 0x40 MLOAD DUP1 SWAP2 SUB SWAP1 KECCAK256 PUSH1 0x1 ADD DUP3 PUSH1 0x40 MLOAD PUSH1 0x20 ADD PUSH2 0x10C8 SWAP3 SWAP2 SWAP1 PUSH2 0x23F3 JUMP JUMPDEST PUSH1 0x40 MLOAD PUSH1 0x20 DUP2 DUP4 SUB SUB DUP2 MSTORE SWAP1 PUSH1 0x40 MSTORE PUSH1 0x1 DUP5 PUSH1 0x40 MLOAD PUSH2 0x10E7 SWAP2 SWAP1 PUSH2 0x1A84 JUMP JUMPDEST SWAP1 DUP2 MSTORE PUSH1 0x20 ADD PUSH1 0x40 MLOAD DUP1 SWAP2 SUB SWAP1 KECCAK256 PUSH1 0x1 ADD SWAP1 DUP2 PUSH2 0x1104 SWAP2 SWAP1 PUSH2 0x1DD5 JUMP JUMPDEST POP POP POP POP JUMP JUMPDEST PUSH1 0x1 DUP2 DUP1 MLOAD PUSH1 0x20 DUP2 ADD DUP3 ADD DUP1 MLOAD DUP5 DUP3 MSTORE PUSH1 0x20 DUP4 ADD PUSH1 0x20 DUP6 ADD KECCAK256 DUP2 DUP4 MSTORE DUP1 SWAP6 POP POP POP POP POP POP PUSH0 SWAP2 POP SWAP1 POP DUP1 PUSH0 ADD DUP1 SLOAD PUSH2 0x1141 SWAP1 PUSH2 0x1BFF JUMP JUMPDEST DUP1 PUSH1 0x1F ADD PUSH1 0x20 DUP1 SWAP2 DIV MUL PUSH1 0x20 ADD PUSH1 0x40 MLOAD SWAP1 DUP2 ADD PUSH1 0x40 MSTORE DUP1 SWAP3 SWAP2 SWAP1 DUP2 DUP2 MSTORE PUSH1 0x20 ADD DUP3 DUP1 SLOAD PUSH2 0x116D SWAP1 PUSH2 0x1BFF JUMP JUMPDEST DUP1 ISZERO PUSH2 0x11B8 JUMPI DUP1 PUSH1 0x1F LT PUSH2 0x118F JUMPI PUSH2 0x100 DUP1 DUP4 SLOAD DIV MUL DUP4 MSTORE SWAP2 PUSH1 0x20 ADD SWAP2 PUSH2 0x11B8 JUMP JUMPDEST DUP3 ADD SWAP2 SWAP1 PUSH0 MSTORE PUSH1 0x20 PUSH0 KECCAK256 SWAP1 JUMPDEST DUP2 SLOAD DUP2 MSTORE SWAP1 PUSH1 0x1 ADD SWAP1 PUSH1 0x20 ADD DUP1 DUP4 GT PUSH2 0x119B JUMPI DUP3 SWAP1 SUB PUSH1 0x1F AND DUP3 ADD SWAP2 JUMPDEST POP POP POP POP POP SWAP1 DUP1 PUSH1 0x1 ADD DUP1 SLOAD PUSH2 0x11CD SWAP1 PUSH2 0x1BFF JUMP JUMPDEST DUP1 PUSH1 0x1F ADD PUSH1 0x20 DUP1 SWAP2 DIV MUL PUSH1 0x20 ADD PUSH1 0x40 MLOAD SWAP1 DUP2 ADD PUSH1 0x40 MSTORE DUP1 SWAP3 SWAP2 SWAP1 DUP2 DUP2 MSTORE PUSH1 0x20 ADD DUP3 DUP1 SLOAD PUSH2 0x11F9 SWAP1 PUSH2 0x1BFF JUMP JUMPDEST DUP1 ISZERO PUSH2 0x1244 JUMPI DUP1 PUSH1 0x1F LT PUSH2 0x121B JUMPI PUSH2 0x100 DUP1 DUP4 SLOAD DIV MUL DUP4 MSTORE SWAP2 PUSH1 0x20 ADD SWAP2 PUSH2 0x1244 JUMP JUMPDEST DUP3 ADD SWAP2 SWAP1 PUSH0 MSTORE PUSH1 0x20 PUSH0 KECCAK256 SWAP1 JUMPDEST DUP2 SLOAD DUP2 MSTORE SWAP1 PUSH1 0x1 ADD SWAP1 PUSH1 0x20 ADD DUP1 DUP4 GT PUSH2 0x1227 JUMPI DUP3 SWAP1 SUB PUSH1 0x1F AND DUP3 ADD SWAP2 JUMPDEST POP POP POP POP POP SWAP1 DUP1 PUSH1 0x2 ADD PUSH0 SWAP1 SLOAD SWAP1 PUSH2 0x100 EXP SWAP1 DIV PUSH1 0xFF AND SWAP1 DUP1 PUSH1 0x2 ADD PUSH1 0x1 SWAP1 SLOAD SWAP1 PUSH2 0x100 EXP SWAP1 DIV PUSH20 0xFFFFFFFFFFFFFFFFFFFFFFFFFFFFFFFFFFFFFFFF AND SWAP1 POP DUP5 JUMP JUMPDEST DUP3 PUSH1 0x1 DUP2 PUSH1 0x40 MLOAD PUSH2 0x1297 SWAP2 SWAP1 PUSH2 0x1A84 JUMP JUMPDEST SWAP1 DUP2 MSTORE PUSH1 0x20 ADD PUSH1 0x40 MLOAD DUP1 SWAP2 SUB SWAP1 KECCAK256 PUSH1 0x2 ADD PUSH1 0x1 SWAP1 SLOAD SWAP1 PUSH2 0x100 EXP SWAP1 DIV PUSH20 0xFFFFFFFFFFFFFFFFFFFFFFFFFFFFFFFFFFFFFFFF AND PUSH20 0xFFFFFFFFFFFFFFFFFFFFFFFFFFFFFFFFFFFFFFFF AND CALLER PUSH20 0xFFFFFFFFFFFFFFFFFFFFFFFFFFFFFFFFFFFFFFFF AND EQ PUSH2 0x1336 JUMPI PUSH1 0x40 MLOAD PUSH32 0x8C379A000000000000000000000000000000000000000000000000000000000 DUP2 MSTORE PUSH1 0x4 ADD PUSH2 0x132D SWAP1 PUSH2 0x1AE4 JUMP JUMPDEST PUSH1 0x40 MLOAD DUP1 SWAP2 SUB SWAP1 REVERT JUMPDEST DUP4 PUSH1 0x1 DUP2 PUSH1 0x40 MLOAD PUSH2 0x1347 SWAP2 SWAP1 PUSH2 0x1A84 JUMP JUMPDEST SWAP1 DUP2 MSTORE PUSH1 0x20 ADD PUSH1 0x40 MLOAD DUP1 SWAP2 SUB SWAP1 KECCAK256 PUSH1 0x2 ADD PUSH0 SWAP1 SLOAD SWAP1 PUSH2 0x100 EXP SWAP1 DIV PUSH1 0xFF AND PUSH2 0x13A4 JUMPI PUSH1 0x40 MLOAD PUSH32 0x8C379A000000000000000000000000000000000000000000000000000000000 DUP2 MSTORE PUSH1 0x4 ADD PUSH2 0x139B SWAP1 PUSH2 0x1B4C JUMP JUMPDEST PUSH1 0x40 MLOAD DUP1 SWAP2 SUB SWAP1 REVERT JUMPDEST PUSH0 DUP4 PUSH1 0xFF AND LT ISZERO DUP1 ISZERO PUSH2 0x13BB JUMPI POP PUSH1 0x3 DUP4 PUSH1 0xFF AND GT ISZERO JUMPDEST PUSH2 0x13FA JUMPI PUSH1 0x40 MLOAD PUSH32 0x8C379A000000000000000000000000000000000000000000000000000000000 DUP2 MSTORE PUSH1 0x4 ADD PUSH2 0x13F1 SWAP1 PUSH2 0x246F JUMP JUMPDEST PUSH1 0x40 MLOAD DUP1 SWAP2 SUB SWAP1 REVERT JUMPDEST DUP3 PUSH1 0x1 DUP7 PUSH1 0x40 MLOAD PUSH2 0x140B SWAP2 SWAP1 PUSH2 0x1A84 JUMP JUMPDEST SWAP1 DUP2 MSTORE PUSH1 0x20 ADD PUSH1 0x40 MLOAD DUP1 SWAP2 SUB SWAP1 KECCAK256 PUSH1 0x3 ADD PUSH0 DUP7 PUSH20 0xFFFFFFFFFFFFFFFFFFFFFFFFFFFFFFFFFFFFFFFF AND PUSH20 0xFFFFFFFFFFFFFFFFFFFFFFFFFFFFFFFFFFFFFFFF AND DUP2 MSTORE PUSH1 0x20 ADD SWAP1 DUP2 MSTORE PUSH1 0x20 ADD PUSH0 KECCAK256 PUSH0 PUSH2 0x100 EXP DUP2 SLOAD DUP2 PUSH1 0xFF MUL NOT AND SWAP1 DUP4 PUSH1 0xFF AND MUL OR SWAP1 SSTORE POP POP POP POP POP POP JUMP JUMPDEST POP DUP1 SLOAD PUSH2 0x1481 SWAP1 PUSH2 0x1BFF JUMP JUMPDEST PUSH0 DUP3 SSTORE DUP1 PUSH1 0x1F LT PUSH2 0x1492 JUMPI POP PUSH2 0x14AF JUMP JUMPDEST PUSH1 0x1F ADD PUSH1 0x20 SWAP1 DIV SWAP1 PUSH0 MSTORE PUSH1 0x20 PUSH0 KECCAK256 SWAP1 DUP2 ADD SWAP1 PUSH2 0x14AE SWAP2 SWAP1 PUSH2 0x14B2 JUMP JUMPDEST JUMPDEST POP JUMP JUMPDEST JUMPDEST DUP1 DUP3 GT ISZERO PUSH2 0x14C9 JUMPI PUSH0 DUP2 PUSH0 SWAP1 SSTORE POP PUSH1 0x1 ADD PUSH2 0x14B3 JUMP JUMPDEST POP SWAP1 JUMP JUMPDEST PUSH0 PUSH1 0x40 MLOAD SWAP1 POP SWAP1 JUMP JUMPDEST PUSH0 DUP1 REVERT JUMPDEST PUSH0 DUP1 REVERT JUMPDEST PUSH0 DUP1 REVERT JUMPDEST PUSH0 DUP1 REVERT JUMPDEST PUSH0 PUSH1 0x1F NOT PUSH1 0x1F DUP4 ADD AND SWAP1 POP SWAP2 SWAP1 POP JUMP JUMPDEST PUSH32 0x4E487B7100000000000000000000000000000000000000000000000000000000 PUSH0 MSTORE PUSH1 0x41 PUSH1 0x4 MSTORE PUSH1 0x24 PUSH0 REVERT JUMPDEST PUSH2 0x152C DUP3 PUSH2 0x14E6 JUMP JUMPDEST DUP2 ADD DUP2 DUP2 LT PUSH8 0xFFFFFFFFFFFFFFFF DUP3 GT OR ISZERO PUSH2 0x154B JUMPI PUSH2 0x154A PUSH2 0x14F6 JUMP JUMPDEST JUMPDEST DUP1 PUSH1 0x40 MSTORE POP POP POP JUMP JUMPDEST PUSH0 PUSH2 0x155D PUSH2 0x14CD JUMP JUMPDEST SWAP1 POP PUSH2 0x1569 DUP3 DUP3 PUSH2 0x1523 JUMP JUMPDEST SWAP2 SWAP1 POP JUMP JUMPDEST PUSH0 PUSH8 0xFFFFFFFFFFFFFFFF DUP3 GT ISZERO PUSH2 0x1588 JUMPI PUSH2 0x1587 PUSH2 0x14F6 JUMP JUMPDEST JUMPDEST PUSH2 0x1591 DUP3 PUSH2 0x14E6 JUMP JUMPDEST SWAP1 POP PUSH1 0x20 DUP2 ADD SWAP1 POP SWAP2 SWAP1 POP JUMP JUMPDEST DUP3 DUP2 DUP4 CALLDATACOPY PUSH0 DUP4 DUP4 ADD MSTORE POP POP POP JUMP JUMPDEST PUSH0 PUSH2 0x15BE PUSH2 0x15B9 DUP5 PUSH2 0x156E JUMP JUMPDEST PUSH2 0x1554 JUMP JUMPDEST SWAP1 POP DUP3 DUP2 MSTORE PUSH1 0x20 DUP2 ADD DUP5 DUP5 DUP5 ADD GT ISZERO PUSH2 0x15DA JUMPI PUSH2 0x15D9 PUSH2 0x14E2 JUMP JUMPDEST JUMPDEST PUSH2 0x15E5 DUP5 DUP3 DUP6 PUSH2 0x159E JUMP JUMPDEST POP SWAP4 SWAP3 POP POP POP JUMP JUMPDEST PUSH0 DUP3 PUSH1 0x1F DUP4 ADD SLT PUSH2 0x1601 JUMPI PUSH2 0x1600 PUSH2 0x14DE JUMP JUMPDEST JUMPDEST DUP2 CALLDATALOAD PUSH2 0x1611 DUP5 DUP3 PUSH1 0x20 DUP7 ADD PUSH2 0x15AC JUMP JUMPDEST SWAP2 POP POP SWAP3 SWAP2 POP POP JUMP JUMPDEST PUSH0 DUP1 PUSH1 0x40 DUP4 DUP6 SUB SLT ISZERO PUSH2 0x1630 JUMPI PUSH2 0x162F PUSH2 0x14D6 JUMP JUMPDEST JUMPDEST PUSH0 DUP4 ADD CALLDATALOAD PUSH8 0xFFFFFFFFFFFFFFFF DUP2 GT ISZERO PUSH2 0x164D JUMPI PUSH2 0x164C PUSH2 0x14DA JUMP JUMPDEST JUMPDEST PUSH2 0x1659 DUP6 DUP3 DUP7 ADD PUSH2 0x15ED JUMP JUMPDEST SWAP3 POP POP PUSH1 0x20 DUP4 ADD CALLDATALOAD PUSH8 0xFFFFFFFFFFFFFFFF DUP2 GT ISZERO PUSH2 0x167A JUMPI PUSH2 0x1679 PUSH2 0x14DA JUMP JUMPDEST JUMPDEST PUSH2 0x1686 DUP6 DUP3 DUP7 ADD PUSH2 0x15ED JUMP JUMPDEST SWAP2 POP POP SWAP3 POP SWAP3 SWAP1 POP JUMP JUMPDEST PUSH0 PUSH1 0x20 DUP3 DUP5 SUB SLT ISZERO PUSH2 0x16A5 JUMPI PUSH2 0x16A4 PUSH2 0x14D6 JUMP JUMPDEST JUMPDEST PUSH0 DUP3 ADD CALLDATALOAD PUSH8 0xFFFFFFFFFFFFFFFF DUP2 GT ISZERO PUSH2 0x16C2 JUMPI PUSH2 0x16C1 PUSH2 0x14DA JUMP JUMPDEST JUMPDEST PUSH2 0x16CE DUP5 DUP3 DUP6 ADD PUSH2 0x15ED JUMP JUMPDEST SWAP2 POP POP SWAP3 SWAP2 POP POP JUMP JUMPDEST PUSH0 DUP2 MLOAD SWAP1 POP SWAP2 SWAP1 POP JUMP JUMPDEST PUSH0 DUP3 DUP3 MSTORE PUSH1 0x20 DUP3 ADD SWAP1 POP SWAP3 SWAP2 POP POP JUMP JUMPDEST DUP3 DUP2 DUP4 MCOPY PUSH0 DUP4 DUP4 ADD MSTORE POP POP POP JUMP JUMPDEST PUSH0 PUSH2 0x1709 DUP3 PUSH2 0x16D7 JUMP JUMPDEST PUSH2 0x1713 DUP2 DUP6 PUSH2 0x16E1 JUMP JUMPDEST SWAP4 POP PUSH2 0x1723 DUP2 DUP6 PUSH1 0x20 DUP7 ADD PUSH2 0x16F1 JUMP JUMPDEST PUSH2 0x172C DUP2 PUSH2 0x14E6 JUMP JUMPDEST DUP5 ADD SWAP2 POP POP SWAP3 SWAP2 POP POP JUMP JUMPDEST PUSH0 PUSH1 0x20 DUP3 ADD SWAP1 POP DUP2 DUP2 SUB PUSH0 DUP4 ADD MSTORE PUSH2 0x174F DUP2 DUP5 PUSH2 0x16FF JUMP JUMPDEST SWAP1 POP SWAP3 SWAP2 POP POP JUMP JUMPDEST PUSH0 PUSH20 0xFFFFFFFFFFFFFFFFFFFFFFFFFFFFFFFFFFFFFFFF DUP3 AND SWAP1 POP SWAP2 SWAP1 POP JUMP JUMPDEST PUSH0 PUSH2 0x1780 DUP3 PUSH2 0x1757 JUMP JUMPDEST SWAP1 POP SWAP2 SWAP1 POP JUMP JUMPDEST PUSH2 0x1790 DUP2 PUSH2 0x1776 JUMP JUMPDEST DUP2 EQ PUSH2 0x179A JUMPI PUSH0 DUP1 REVERT JUMPDEST POP JUMP JUMPDEST PUSH0 DUP2 CALLDATALOAD SWAP1 POP PUSH2 0x17AB DUP2 PUSH2 0x1787 JUMP JUMPDEST SWAP3 SWAP2 POP POP JUMP JUMPDEST PUSH0 DUP1 PUSH1 0x40 DUP4 DUP6 SUB SLT ISZERO PUSH2 0x17C7 JUMPI PUSH2 0x17C6 PUSH2 0x14D6 JUMP JUMPDEST JUMPDEST PUSH0 DUP4 ADD CALLDATALOAD PUSH8 0xFFFFFFFFFFFFFFFF DUP2 GT ISZERO PUSH2 0x17E4 JUMPI PUSH2 0x17E3 PUSH2 0x14DA JUMP JUMPDEST JUMPDEST PUSH2 0x17F0 DUP6 DUP3 DUP7 ADD PUSH2 0x15ED JUMP JUMPDEST SWAP3 POP POP PUSH1 0x20 PUSH2 0x1801 DUP6 DUP3 DUP7 ADD PUSH2 0x179D JUMP JUMPDEST SWAP2 POP POP SWAP3 POP SWAP3 SWAP1 POP JUMP JUMPDEST PUSH0 DUP2 MLOAD SWAP1 POP SWAP2 SWAP1 POP JUMP JUMPDEST PUSH0 DUP3 DUP3 MSTORE PUSH1 0x20 DUP3 ADD SWAP1 POP SWAP3 SWAP2 POP POP JUMP JUMPDEST PUSH0 DUP2 SWAP1 POP PUSH1 0x20 DUP3 ADD SWAP1 POP SWAP2 SWAP1 POP JUMP JUMPDEST PUSH0 DUP3 DUP3 MSTORE PUSH1 0x20 DUP3 ADD SWAP1 POP SWAP3 SWAP2 POP POP JUMP JUMPDEST PUSH0 PUSH2 0x184E DUP3 PUSH2 0x16D7 JUMP JUMPDEST PUSH2 0x1858 DUP2 DUP6 PUSH2 0x1834 JUMP JUMPDEST SWAP4 POP PUSH2 0x1868 DUP2 DUP6 PUSH1 0x20 DUP7 ADD PUSH2 0x16F1 JUMP JUMPDEST PUSH2 0x1871 DUP2 PUSH2 0x14E6 JUMP JUMPDEST DUP5 ADD SWAP2 POP POP SWAP3 SWAP2 POP POP JUMP JUMPDEST PUSH0 PUSH2 0x1887 DUP4 DUP4 PUSH2 0x1844 JUMP JUMPDEST SWAP1 POP SWAP3 SWAP2 POP POP JUMP JUMPDEST PUSH0 PUSH1 0x20 DUP3 ADD SWAP1 POP SWAP2 SWAP1 POP JUMP JUMPDEST PUSH0 PUSH2 0x18A5 DUP3 PUSH2 0x180B JUMP JUMPDEST PUSH2 0x18AF DUP2 DUP6 PUSH2 0x1815 JUMP JUMPDEST SWAP4 POP DUP4 PUSH1 0x20 DUP3 MUL DUP6 ADD PUSH2 0x18C1 DUP6 PUSH2 0x1825 JUMP JUMPDEST DUP1 PUSH0 JUMPDEST DUP6 DUP2 LT ISZERO PUSH2 0x18FC JUMPI DUP5 DUP5 SUB DUP10 MSTORE DUP2 MLOAD PUSH2 0x18DD DUP6 DUP3 PUSH2 0x187C JUMP JUMPDEST SWAP5 POP PUSH2 0x18E8 DUP4 PUSH2 0x188F JUMP JUMPDEST SWAP3 POP PUSH1 0x20 DUP11 ADD SWAP10 POP POP PUSH1 0x1 DUP2 ADD SWAP1 POP PUSH2 0x18C4 JUMP JUMPDEST POP DUP3 SWAP8 POP DUP8 SWAP6 POP POP POP POP POP POP SWAP3 SWAP2 POP POP JUMP JUMPDEST PUSH0 PUSH1 0x20 DUP3 ADD SWAP1 POP DUP2 DUP2 SUB PUSH0 DUP4 ADD MSTORE PUSH2 0x1926 DUP2 DUP5 PUSH2 0x189B JUMP JUMPDEST SWAP1 POP SWAP3 SWAP2 POP POP JUMP JUMPDEST PUSH0 DUP2 ISZERO ISZERO SWAP1 POP SWAP2 SWAP1 POP JUMP JUMPDEST PUSH2 0x1942 DUP2 PUSH2 0x192E JUMP JUMPDEST DUP3 MSTORE POP POP JUMP JUMPDEST PUSH2 0x1951 DUP2 PUSH2 0x1776 JUMP JUMPDEST DUP3 MSTORE POP POP JUMP JUMPDEST PUSH0 PUSH1 0x80 DUP3 ADD SWAP1 POP DUP2 DUP2 SUB PUSH0 DUP4 ADD MSTORE PUSH2 0x196F DUP2 DUP8 PUSH2 0x16FF JUMP JUMPDEST SWAP1 POP DUP2 DUP2 SUB PUSH1 0x20 DUP4 ADD MSTORE PUSH2 0x1983 DUP2 DUP7 PUSH2 0x16FF JUMP JUMPDEST SWAP1 POP PUSH2 0x1992 PUSH1 0x40 DUP4 ADD DUP6 PUSH2 0x1939 JUMP JUMPDEST PUSH2 0x199F PUSH1 0x60 DUP4 ADD DUP5 PUSH2 0x1948 JUMP JUMPDEST SWAP6 SWAP5 POP POP POP POP POP JUMP JUMPDEST PUSH0 PUSH1 0xFF DUP3 AND SWAP1 POP SWAP2 SWAP1 POP JUMP JUMPDEST PUSH2 0x19BD DUP2 PUSH2 0x19A8 JUMP JUMPDEST DUP2 EQ PUSH2 0x19C7 JUMPI PUSH0 DUP1 REVERT JUMPDEST POP JUMP JUMPDEST PUSH0 DUP2 CALLDATALOAD SWAP1 POP PUSH2 0x19D8 DUP2 PUSH2 0x19B4 JUMP JUMPDEST SWAP3 SWAP2 POP POP JUMP JUMPDEST PUSH0 DUP1 PUSH0 PUSH1 0x60 DUP5 DUP7 SUB SLT ISZERO PUSH2 0x19F5 JUMPI PUSH2 0x19F4 PUSH2 0x14D6 JUMP JUMPDEST JUMPDEST PUSH0 DUP5 ADD CALLDATALOAD PUSH8 0xFFFFFFFFFFFFFFFF DUP2 GT ISZERO PUSH2 0x1A12 JUMPI PUSH2 0x1A11 PUSH2 0x14DA JUMP JUMPDEST JUMPDEST PUSH2 0x1A1E DUP7 DUP3 DUP8 ADD PUSH2 0x15ED JUMP JUMPDEST SWAP4 POP POP PUSH1 0x20 PUSH2 0x1A2F DUP7 DUP3 DUP8 ADD PUSH2 0x179D JUMP JUMPDEST SWAP3 POP POP PUSH1 0x40 PUSH2 0x1A40 DUP7 DUP3 DUP8 ADD PUSH2 0x19CA JUMP JUMPDEST SWAP2 POP POP SWAP3 POP SWAP3 POP SWAP3 JUMP JUMPDEST PUSH0 DUP2 SWAP1 POP SWAP3 SWAP2 POP POP JUMP JUMPDEST PUSH0 PUSH2 0x1A5E DUP3 PUSH2 0x16D7 JUMP JUMPDEST PUSH2 0x1A68 DUP2 DUP6 PUSH2 0x1A4A JUMP JUMPDEST SWAP4 POP PUSH2 0x1A78 DUP2 DUP6 PUSH1 0x20 DUP7 ADD PUSH2 0x16F1 JUMP JUMPDEST DUP1 DUP5 ADD SWAP2 POP POP SWAP3 SWAP2 POP POP JUMP JUMPDEST PUSH0 PUSH2 0x1A8F DUP3 DUP5 PUSH2 0x1A54 JUMP JUMPDEST SWAP2 POP DUP2 SWAP1 POP SWAP3 SWAP2 POP POP JUMP JUMPDEST PUSH32 0x596F7520617265206E6F74207468652066696C65206F776E6572000000000000 PUSH0 DUP3 ADD MSTORE POP JUMP JUMPDEST PUSH0 PUSH2 0x1ACE PUSH1 0x1A DUP4 PUSH2 0x16E1 JUMP JUMPDEST SWAP2 POP PUSH2 0x1AD9 DUP3 PUSH2 0x1A9A JUMP JUMPDEST PUSH1 0x20 DUP3 ADD SWAP1 POP SWAP2 SWAP1 POP JUMP JUMPDEST PUSH0 PUSH1 0x20 DUP3 ADD SWAP1 POP DUP2 DUP2 SUB PUSH0 DUP4 ADD MSTORE PUSH2 0x1AFB DUP2 PUSH2 0x1AC2 JUMP JUMPDEST SWAP1 POP SWAP2 SWAP1 POP JUMP JUMPDEST PUSH32 0x46696C6520646F6573206E6F7420657869737400000000000000000000000000 PUSH0 DUP3 ADD MSTORE POP JUMP JUMPDEST PUSH0 PUSH2 0x1B36 PUSH1 0x13 DUP4 PUSH2 0x16E1 JUMP JUMPDEST SWAP2 POP PUSH2 0x1B41 DUP3 PUSH2 0x1B02 JUMP JUMPDEST PUSH1 0x20 DUP3 ADD SWAP1 POP SWAP2 SWAP1 POP JUMP JUMPDEST PUSH0 PUSH1 0x20 DUP3 ADD SWAP1 POP DUP2 DUP2 SUB PUSH0 DUP4 ADD MSTORE PUSH2 0x1B63 DUP2 PUSH2 0x1B2A JUMP JUMPDEST SWAP1 POP SWAP2 SWAP1 POP JUMP JUMPDEST PUSH32 0x4E616D65206E6F7420617661696C61626C650000000000000000000000000000 PUSH0 DUP3 ADD MSTORE POP JUMP JUMPDEST PUSH0 PUSH2 0x1B9E PUSH1 0x12 DUP4 PUSH2 0x16E1 JUMP JUMPDEST SWAP2 POP PUSH2 0x1BA9 DUP3 PUSH2 0x1B6A JUMP JUMPDEST PUSH1 0x20 DUP3 ADD SWAP1 POP SWAP2 SWAP1 POP JUMP JUMPDEST PUSH0 PUSH1 0x20 DUP3 ADD SWAP1 POP DUP2 DUP2 SUB PUSH0 DUP4 ADD MSTORE PUSH2 0x1BCB DUP2 PUSH2 0x1B92 JUMP JUMPDEST SWAP1 POP SWAP2 SWAP1 POP JUMP JUMPDEST PUSH32 0x4E487B7100000000000000000000000000000000000000000000000000000000 PUSH0 MSTORE PUSH1 0x22 PUSH1 0x4 MSTORE PUSH1 0x24 PUSH0 REVERT JUMPDEST PUSH0 PUSH1 0x2 DUP3 DIV SWAP1 POP PUSH1 0x1 DUP3 AND DUP1 PUSH2 0x1C16 JUMPI PUSH1 0x7F DUP3 AND SWAP2 POP JUMPDEST PUSH1 0x20 DUP3 LT DUP2 SUB PUSH2 0x1C29 JUMPI PUSH2 0x1C28 PUSH2 0x1BD2 JUMP JUMPDEST JUMPDEST POP SWAP2 SWAP1 POP JUMP JUMPDEST PUSH0 DUP2 SWAP1 POP DUP2 PUSH0 MSTORE PUSH1 0x20 PUSH0 KECCAK256 SWAP1 POP SWAP2 SWAP1 POP JUMP JUMPDEST PUSH0 PUSH1 0x20 PUSH1 0x1F DUP4 ADD DIV SWAP1 POP SWAP2 SWAP1 POP JUMP JUMPDEST PUSH0 DUP3 DUP3 SHL SWAP1 POP SWAP3 SWAP2 POP POP JUMP JUMPDEST PUSH0 PUSH1 0x8 DUP4 MUL PUSH2 0x1C8B PUSH32 0xFFFFFFFFFFFFFFFFFFFFFFFFFFFFFFFFFFFFFFFFFFFFFFFFFFFFFFFFFFFFFFFF DUP3 PUSH2 0x1C50 JUMP JUMPDEST PUSH2 0x1C95 DUP7 DUP4 PUSH2 0x1C50 JUMP JUMPDEST SWAP6 POP DUP1 NOT DUP5 AND SWAP4 POP DUP1 DUP7 AND DUP5 OR SWAP3 POP POP POP SWAP4 SWAP3 POP POP POP JUMP JUMPDEST PUSH0 DUP2 SWAP1 POP SWAP2 SWAP1 POP JUMP JUMPDEST PUSH0 DUP2 SWAP1 POP SWAP2 SWAP1 POP JUMP JUMPDEST PUSH0 PUSH2 0x1CD9 PUSH2 0x1CD4 PUSH2 0x1CCF DUP5 PUSH2 0x1CAD JUMP JUMPDEST PUSH2 0x1CB6 JUMP JUMPDEST PUSH2 0x1CAD JUMP JUMPDEST SWAP1 POP SWAP2 SWAP1 POP JUMP JUMPDEST PUSH0 DUP2 SWAP1 POP SWAP2 SWAP1 POP JUMP JUMPDEST PUSH2 0x1CF2 DUP4 PUSH2 0x1CBF JUMP JUMPDEST PUSH2 0x1D06 PUSH2 0x1CFE DUP3 PUSH2 0x1CE0 JUMP JUMPDEST DUP5 DUP5 SLOAD PUSH2 0x1C5C JUMP JUMPDEST DUP3 SSTORE POP POP POP POP JUMP JUMPDEST PUSH0 SWAP1 JUMP JUMPDEST PUSH2 0x1D1A PUSH2 0x1D0E JUMP JUMPDEST PUSH2 0x1D25 DUP2 DUP5 DUP5 PUSH2 0x1CE9 JUMP JUMPDEST POP POP POP JUMP JUMPDEST JUMPDEST DUP2 DUP2 LT ISZERO PUSH2 0x1D48 JUMPI PUSH2 0x1D3D PUSH0 DUP3 PUSH2 0x1D12 JUMP JUMPDEST PUSH1 0x1 DUP2 ADD SWAP1 POP PUSH2 0x1D2B JUMP JUMPDEST POP POP JUMP JUMPDEST PUSH1 0x1F DUP3 GT ISZERO PUSH2 0x1D8D JUMPI PUSH2 0x1D5E DUP2 PUSH2 0x1C2F JUMP JUMPDEST PUSH2 0x1D67 DUP5 PUSH2 0x1C41 JUMP JUMPDEST DUP2 ADD PUSH1 0x20 DUP6 LT ISZERO PUSH2 0x1D76 JUMPI DUP2 SWAP1 POP JUMPDEST PUSH2 0x1D8A PUSH2 0x1D82 DUP6 PUSH2 0x1C41 JUMP JUMPDEST DUP4 ADD DUP3 PUSH2 0x1D2A JUMP JUMPDEST POP POP JUMPDEST POP POP POP JUMP JUMPDEST PUSH0 DUP3 DUP3 SHR SWAP1 POP SWAP3 SWAP2 POP POP JUMP JUMPDEST PUSH0 PUSH2 0x1DAD PUSH0 NOT DUP5 PUSH1 0x8 MUL PUSH2 0x1D92 JUMP JUMPDEST NOT DUP1 DUP4 AND SWAP2 POP POP SWAP3 SWAP2 POP POP JUMP JUMPDEST PUSH0 PUSH2 0x1DC5 DUP4 DUP4 PUSH2 0x1D9E JUMP JUMPDEST SWAP2 POP DUP3 PUSH1 0x2 MUL DUP3 OR SWAP1 POP SWAP3 SWAP2 POP POP JUMP JUMPDEST PUSH2 0x1DDE DUP3 PUSH2 0x16D7 JUMP JUMPDEST PUSH8 0xFFFFFFFFFFFFFFFF DUP2 GT ISZERO PUSH2 0x1DF7 JUMPI PUSH2 0x1DF6 PUSH2 0x14F6 JUMP JUMPDEST JUMPDEST PUSH2 0x1E01 DUP3 SLOAD PUSH2 0x1BFF JUMP JUMPDEST PUSH2 0x1E0C DUP3 DUP3 DUP6 PUSH2 0x1D4C JUMP JUMPDEST PUSH0 PUSH1 0x20 SWAP1 POP PUSH1 0x1F DUP4 GT PUSH1 0x1 DUP2 EQ PUSH2 0x1E3D JUMPI PUSH0 DUP5 ISZERO PUSH2 0x1E2B JUMPI DUP3 DUP8 ADD MLOAD SWAP1 POP JUMPDEST PUSH2 0x1E35 DUP6 DUP3 PUSH2 0x1DBA JUMP JUMPDEST DUP7 SSTORE POP PUSH2 0x1E9C JUMP JUMPDEST PUSH1 0x1F NOT DUP5 AND PUSH2 0x1E4B DUP7 PUSH2 0x1C2F JUMP JUMPDEST PUSH0 JUMPDEST DUP3 DUP2 LT ISZERO PUSH2 0x1E72 JUMPI DUP5 DUP10 ADD MLOAD DUP3 SSTORE PUSH1 0x1 DUP3 ADD SWAP2 POP PUSH1 0x20 DUP6 ADD SWAP5 POP PUSH1 0x20 DUP2 ADD SWAP1 POP PUSH2 0x1E4D JUMP JUMPDEST DUP7 DUP4 LT ISZERO PUSH2 0x1E8F JUMPI DUP5 DUP10 ADD MLOAD PUSH2 0x1E8B PUSH1 0x1F DUP10 AND DUP3 PUSH2 0x1D9E JUMP JUMPDEST DUP4 SSTORE POP JUMPDEST PUSH1 0x1 PUSH1 0x2 DUP9 MUL ADD DUP9 SSTORE POP POP POP JUMPDEST POP POP POP POP POP POP JUMP JUMPDEST PUSH32 0x4E6F205265616420616363657373000000000000000000000000000000000000 PUSH0 DUP3 ADD MSTORE POP JUMP JUMPDEST PUSH0 PUSH2 0x1ED8 PUSH1 0xE DUP4 PUSH2 0x16E1 JUMP JUMPDEST SWAP2 POP PUSH2 0x1EE3 DUP3 PUSH2 0x1EA4 JUMP JUMPDEST PUSH1 0x20 DUP3 ADD SWAP1 POP SWAP2 SWAP1 POP JUMP JUMPDEST PUSH0 PUSH1 0x20 DUP3 ADD SWAP1 POP DUP2 DUP2 SUB PUSH0 DUP4 ADD MSTORE PUSH2 0x1F05 DUP2 PUSH2 0x1ECC JUMP JUMPDEST SWAP1 POP SWAP2 SWAP1 POP JUMP JUMPDEST PUSH32 0x4E487B7100000000000000000000000000000000000000000000000000000000 PUSH0 MSTORE PUSH1 0x32 PUSH1 0x4 MSTORE PUSH1 0x24 PUSH0 REVERT JUMPDEST PUSH32 0x45786365656465642066696C65206C696D697400000000000000000000000000 PUSH0 DUP3 ADD MSTORE POP JUMP JUMPDEST PUSH0 PUSH2 0x1F6D PUSH1 0x13 DUP4 PUSH2 0x16E1 JUMP JUMPDEST SWAP2 POP PUSH2 0x1F78 DUP3 PUSH2 0x1F39 JUMP JUMPDEST PUSH1 0x20 DUP3 ADD SWAP1 POP SWAP2 SWAP1 POP JUMP JUMPDEST PUSH0 PUSH1 0x20 DUP3 ADD SWAP1 POP DUP2 DUP2 SUB PUSH0 DUP4 ADD MSTORE PUSH2 0x1F9A DUP2 PUSH2 0x1F61 JUMP JUMPDEST SWAP1 POP SWAP2 SWAP1 POP JUMP JUMPDEST PUSH32 0x46696C656E616D652063616E6E6F7420626520656D7074790000000000000000 PUSH0 DUP3 ADD MSTORE POP JUMP JUMPDEST PUSH0 PUSH2 0x1FD5 PUSH1 0x18 DUP4 PUSH2 0x16E1 JUMP JUMPDEST SWAP2 POP PUSH2 0x1FE0 DUP3 PUSH2 0x1FA1 JUMP JUMPDEST PUSH1 0x20 DUP3 ADD SWAP1 POP SWAP2 SWAP1 POP JUMP JUMPDEST PUSH0 PUSH1 0x20 DUP3 ADD SWAP1 POP DUP2 DUP2 SUB PUSH0 DUP4 ADD MSTORE PUSH2 0x2002 DUP2 PUSH2 0x1FC9 JUMP JUMPDEST SWAP1 POP SWAP2 SWAP1 POP JUMP JUMPDEST PUSH32 0x46696C6520616C72656164792065786973747300000000000000000000000000 PUSH0 DUP3 ADD MSTORE POP JUMP JUMPDEST PUSH0 PUSH2 0x203D PUSH1 0x13 DUP4 PUSH2 0x16E1 JUMP JUMPDEST SWAP2 POP PUSH2 0x2048 DUP3 PUSH2 0x2009 JUMP JUMPDEST PUSH1 0x20 DUP3 ADD SWAP1 POP SWAP2 SWAP1 POP JUMP JUMPDEST PUSH0 PUSH1 0x20 DUP3 ADD SWAP1 POP DUP2 DUP2 SUB PUSH0 DUP4 ADD MSTORE PUSH2 0x206A DUP2 PUSH2 0x2031 JUMP JUMPDEST SWAP1 POP SWAP2 SWAP1 POP JUMP JUMPDEST PUSH32 0x4E487B7100000000000000000000000000000000000000000000000000000000 PUSH0 MSTORE PUSH1 0x11 PUSH1 0x4 MSTORE PUSH1 0x24 PUSH0 REVERT JUMPDEST PUSH0 PUSH2 0xFFFF DUP3 AND SWAP1 POP SWAP2 SWAP1 POP JUMP JUMPDEST PUSH0 PUSH2 0x20B5 DUP3 PUSH2 0x209E JUMP JUMPDEST SWAP2 POP PUSH2 0xFFFF DUP3 SUB PUSH2 0x20C9 JUMPI PUSH2 0x20C8 PUSH2 0x2071 JUMP JUMPDEST JUMPDEST PUSH1 0x1 DUP3 ADD SWAP1 POP SWAP2 SWAP1 POP JUMP JUMPDEST PUSH32 0x4E6F207772697465206163636573730000000000000000000000000000000000 PUSH0 DUP3 ADD MSTORE POP JUMP JUMPDEST PUSH0 PUSH2 0x2108 PUSH1 0xF DUP4 PUSH2 0x16E1 JUMP JUMPDEST SWAP2 POP PUSH2 0x2113 DUP3 PUSH2 0x20D4 JUMP JUMPDEST PUSH1 0x20 DUP3 ADD SWAP1 POP SWAP2 SWAP1 POP JUMP JUMPDEST PUSH0 PUSH1 0x20 DUP3 ADD SWAP1 POP DUP2 DUP2 SUB PUSH0 DUP4 ADD MSTORE PUSH2 0x2135 DUP2 PUSH2 0x20FC JUMP JUMPDEST SWAP1 POP SWAP2 SWAP1 POP JUMP JUMPDEST PUSH0 DUP2 SLOAD PUSH2 0x2148 DUP2 PUSH2 0x1BFF JUMP JUMPDEST PUSH2 0x2152 DUP2 DUP7 PUSH2 0x1A4A JUMP JUMPDEST SWAP5 POP PUSH1 0x1 DUP3 AND PUSH0 DUP2 EQ PUSH2 0x216C JUMPI PUSH1 0x1 DUP2 EQ PUSH2 0x2181 JUMPI PUSH2 0x21B3 JUMP JUMPDEST PUSH1 0xFF NOT DUP4 AND DUP7 MSTORE DUP2 ISZERO ISZERO DUP3 MUL DUP7 ADD SWAP4 POP PUSH2 0x21B3 JUMP JUMPDEST PUSH2 0x218A DUP6 PUSH2 0x1C2F JUMP JUMPDEST PUSH0 JUMPDEST DUP4 DUP2 LT ISZERO PUSH2 0x21AB JUMPI DUP2 SLOAD DUP2 DUP10 ADD MSTORE PUSH1 0x1 DUP3 ADD SWAP2 POP PUSH1 0x20 DUP2 ADD SWAP1 POP PUSH2 0x218C JUMP JUMPDEST DUP4 DUP9 ADD SWAP6 POP POP POP JUMPDEST POP POP POP SWAP3 SWAP2 POP POP JUMP JUMPDEST PUSH0 PUSH2 0x21C7 DUP3 DUP5 PUSH2 0x213C JUMP JUMPDEST SWAP2 POP DUP2 SWAP1 POP SWAP3 SWAP2 POP POP JUMP JUMPDEST PUSH0 PUSH2 0x21DC DUP3 PUSH2 0x1CAD JUMP JUMPDEST SWAP2 POP PUSH2 0x21E7 DUP4 PUSH2 0x1CAD JUMP JUMPDEST SWAP3 POP DUP3 DUP3 SUB SWAP1 POP DUP2 DUP2 GT ISZERO PUSH2 0x21FF JUMPI PUSH2 0x21FE PUSH2 0x2071 JUMP JUMPDEST JUMPDEST SWAP3 SWAP2 POP POP JUMP JUMPDEST PUSH0 DUP2 SLOAD SWAP1 POP PUSH2 0x2213 DUP2 PUSH2 0x1BFF JUMP JUMPDEST SWAP1 POP SWAP2 SWAP1 POP JUMP JUMPDEST PUSH0 DUP2 SWAP1 POP DUP2 PUSH0 MSTORE PUSH1 0x20 PUSH0 KECCAK256 SWAP1 POP SWAP2 SWAP1 POP JUMP JUMPDEST DUP2 DUP2 SUB PUSH2 0x223A JUMPI POP POP PUSH2 0x230F JUMP JUMPDEST PUSH2 0x2243 DUP3 PUSH2 0x2205 JUMP JUMPDEST PUSH8 0xFFFFFFFFFFFFFFFF DUP2 GT ISZERO PUSH2 0x225C JUMPI PUSH2 0x225B PUSH2 0x14F6 JUMP JUMPDEST JUMPDEST PUSH2 0x2266 DUP3 SLOAD PUSH2 0x1BFF JUMP JUMPDEST PUSH2 0x2271 DUP3 DUP3 DUP6 PUSH2 0x1D4C JUMP JUMPDEST PUSH0 PUSH1 0x1F DUP4 GT PUSH1 0x1 DUP2 EQ PUSH2 0x229E JUMPI PUSH0 DUP5 ISZERO PUSH2 0x228C JUMPI DUP3 DUP8 ADD SLOAD SWAP1 POP JUMPDEST PUSH2 0x2296 DUP6 DUP3 PUSH2 0x1DBA JUMP JUMPDEST DUP7 SSTORE POP PUSH2 0x2308 JUMP JUMPDEST PUSH1 0x1F NOT DUP5 AND PUSH2 0x22AC DUP8 PUSH2 0x221A JUMP JUMPDEST SWAP7 POP PUSH2 0x22B7 DUP7 PUSH2 0x1C2F JUMP JUMPDEST PUSH0 JUMPDEST DUP3 DUP2 LT ISZERO PUSH2 0x22DE JUMPI DUP5 DUP10 ADD SLOAD DUP3 SSTORE PUSH1 0x1 DUP3 ADD SWAP2 POP PUSH1 0x1 DUP6 ADD SWAP5 POP PUSH1 0x20 DUP2 ADD SWAP1 POP PUSH2 0x22B9 JUMP JUMPDEST DUP7 DUP4 LT ISZERO PUSH2 0x22FB JUMPI DUP5 DUP10 ADD SLOAD PUSH2 0x22F7 PUSH1 0x1F DUP10 AND DUP3 PUSH2 0x1D9E JUMP JUMPDEST DUP4 SSTORE POP JUMPDEST PUSH1 0x1 PUSH1 0x2 DUP9 MUL ADD DUP9 SSTORE POP POP POP JUMPDEST POP POP POP POP POP POP JUMPDEST JUMP JUMPDEST PUSH32 0x4E487B7100000000000000000000000000000000000000000000000000000000 PUSH0 MSTORE PUSH1 0x31 PUSH1 0x4 MSTORE PUSH1 0x24 PUSH0 REVERT JUMPDEST PUSH0 PUSH2 0x2348 DUP3 PUSH2 0x209E JUMP JUMPDEST SWAP2 POP PUSH0 DUP3 SUB PUSH2 0x235A JUMPI PUSH2 0x2359 PUSH2 0x2071 JUMP JUMPDEST JUMPDEST PUSH1 0x1 DUP3 SUB SWAP1 POP SWAP2 SWAP1 POP JUMP JUMPDEST PUSH32 0x4E6F20617070656E642061636365737300000000000000000000000000000000 PUSH0 DUP3 ADD MSTORE POP JUMP JUMPDEST PUSH0 PUSH2 0x2399 PUSH1 0x10 DUP4 PUSH2 0x16E1 JUMP JUMPDEST SWAP2 POP PUSH2 0x23A4 DUP3 PUSH2 0x2365 JUMP JUMPDEST PUSH1 0x20 DUP3 ADD SWAP1 POP SWAP2 SWAP1 POP JUMP JUMPDEST PUSH0 PUSH1 0x20 DUP3 ADD SWAP1 POP DUP2 DUP2 SUB PUSH0 DUP4 ADD MSTORE PUSH2 0x23C6 DUP2 PUSH2 0x238D JUMP JUMPDEST SWAP1 POP SWAP2 SWAP1 POP JUMP JUMPDEST PUSH32 0xA00000000000000000000000000000000000000000000000000000000000000 DUP2 MSTORE POP JUMP JUMPDEST PUSH0 PUSH2 0x23FE DUP3 DUP6 PUSH2 0x213C JUMP JUMPDEST SWAP2 POP PUSH2 0x2409 DUP3 PUSH2 0x23CD JUMP JUMPDEST PUSH1 0x1 DUP3 ADD SWAP2 POP PUSH2 0x2419 DUP3 DUP5 PUSH2 0x1A54 JUMP JUMPDEST SWAP2 POP DUP2 SWAP1 POP SWAP4 SWAP3 POP POP POP JUMP JUMPDEST PUSH32 0x496E76616C6964207065726D697373696F6E206D6F6465000000000000000000 PUSH0 DUP3 ADD MSTORE POP JUMP JUMPDEST PUSH0 PUSH2 0x2459 PUSH1 0x17 DUP4 PUSH2 0x16E1 JUMP JUMPDEST SWAP2 POP PUSH2 0x2464 DUP3 PUSH2 0x2425 JUMP JUMPDEST PUSH1 0x20 DUP3 ADD SWAP1 POP SWAP2 SWAP1 POP JUMP JUMPDEST PUSH0 PUSH1 0x20 DUP3 ADD SWAP1 POP DUP2 DUP2 SUB PUSH0 DUP4 ADD MSTORE PUSH2 0x2486 DUP2 PUSH2 0x244D JUMP JUMPDEST SWAP1 POP SWAP2 SWAP1 POP JUMP INVALID LOG2 PUSH5 0x6970667358 0x22 SLT KECCAK256 GT LOG4 BASEFEE CODECOPY SWAP16 PUSH29 0xA0C1115094DAB3A7766FCE1DF18B51B061473DAFE2305F525F4664736F PUSH13 0x634300081A0033000000000000 "
		},
		"gasEstimates": {
			"creation": {
				"codeDepositCost": "1882200",
				"executionCost": "26253",
				"totalCost": "1908453"
			},
			"external": {
				"appendToFile(string,string)": "infinite",
				"changeFilePermission(string,address,uint8)": "infinite",
				"createFile(string,string)": "infinite",
				"deleteFile(string)": "infinite",
				"files(string)": "infinite",
				"listFiles()": "infinite",
				"readFile(string)": "infinite",
				"renameFile(string,string)": "infinite",
				"viewFilePermission(string,address)": "infinite",
				"writeFile(string,string)": "infinite"
			}
		},
		"methodIdentifiers": {
			"appendToFile(string,string)": "b6b13caa",
			"changeFilePermission(string,address,uint8)": "eceed653",
			"createFile(string,string)": "81ad193a",
			"deleteFile(string)": "a9910054",
			"files(string)": "e7755761",
			"listFiles()": "b033d8fa",
			"readFile(string)": "60f9bb11",
			"renameFile(string,string)": "13d4a044",
			"viewFilePermission(string,address)": "7d41216d",
			"writeFile(string,string)": "897e0a97"
		}
	},
	"abi": [
		{
			"inputs": [
				{
					"internalType": "string",
					"name": "_filename",
					"type": "string"
				},
				{
					"internalType": "string",
					"name": "_newContent",
					"type": "string"
				}
			],
			"name": "appendToFile",
			"outputs": [],
			"stateMutability": "nonpayable",
			"type": "function"
		},
		{
			"inputs": [
				{
					"internalType": "string",
					"name": "_filename",
					"type": "string"
				},
				{
					"internalType": "address",
					"name": "_addr",
					"type": "address"
				},
				{
					"internalType": "uint8",
					"name": "_mode",
					"type": "uint8"
				}
			],
			"name": "changeFilePermission",
			"outputs": [],
			"stateMutability": "nonpayable",
			"type": "function"
		},
		{
			"inputs": [
				{
					"internalType": "string",
					"name": "_filename",
					"type": "string"
				},
				{
					"internalType": "string",
					"name": "_content",
					"type": "string"
				}
			],
			"name": "createFile",
			"outputs": [],
			"stateMutability": "nonpayable",
			"type": "function"
		},
		{
			"inputs": [
				{
					"internalType": "string",
					"name": "_filename",
					"type": "string"
				}
			],
			"name": "deleteFile",
			"outputs": [],
			"stateMutability": "nonpayable",
			"type": "function"
		},
		{
			"inputs": [
				{
					"internalType": "string",
					"name": "",
					"type": "string"
				}
			],
			"name": "files",
			"outputs": [
				{
					"internalType": "string",
					"name": "filename",
					"type": "string"
				},
				{
					"internalType": "string",
					"name": "content",
					"type": "string"
				},
				{
					"internalType": "bool",
					"name": "exists",
					"type": "bool"
				},
				{
					"internalType": "address",
					"name": "fileOwner",
					"type": "address"
				}
			],
			"stateMutability": "view",
			"type": "function"
		},
		{
			"inputs": [],
			"name": "listFiles",
			"outputs": [
				{
					"internalType": "string[]",
					"name": "",
					"type": "string[]"
				}
			],
			"stateMutability": "view",
			"type": "function"
		},
		{
			"inputs": [
				{
					"internalType": "string",
					"name": "_filename",
					"type": "string"
				}
			],
			"name": "readFile",
			"outputs": [
				{
					"internalType": "string",
					"name": "",
					"type": "string"
				}
			],
			"stateMutability": "view",
			"type": "function"
		},
		{
			"inputs": [
				{
					"internalType": "string",
					"name": "_oldName",
					"type": "string"
				},
				{
					"internalType": "string",
					"name": "_newName",
					"type": "string"
				}
			],
			"name": "renameFile",
			"outputs": [],
			"stateMutability": "nonpayable",
			"type": "function"
		},
		{
			"inputs": [
				{
					"internalType": "string",
					"name": "_filename",
					"type": "string"
				},
				{
					"internalType": "address",
					"name": "_addr",
					"type": "address"
				}
			],
			"name": "viewFilePermission",
			"outputs": [
				{
					"internalType": "string",
					"name": "",
					"type": "string"
				}
			],
			"stateMutability": "view",
			"type": "function"
		},
		{
			"inputs": [
				{
					"internalType": "string",
					"name": "_filename",
					"type": "string"
				},
				{
					"internalType": "string",
					"name": "_newContent",
					"type": "string"
				}
			],
			"name": "writeFile",
			"outputs": [],
			"stateMutability": "nonpayable",
			"type": "function"
		}
	]
}