{
	"data": {
		"bytecode": {
			"linkReferences": {},
			"object": "60806040525f80553480156011575f80fd5b506118378061001f5f395ff3fe608060405234801561000f575f80fd5b50600436106100cb575f3560e01c8063a991005411610088578063bc051a4d11610063578063bc051a4d146101ab578063cffa39f9146101be578063e7755761146101e3578063eceed65314610206575f80fd5b8063a991005414610170578063b033d8fa14610183578063b6b13caa14610198575f80fd5b806313d4a044146100cf57806338fa8f58146100e4578063439535191461011457806360f9bb111461012a5780637d41216d1461014a578063897e0a971461015d575b5f80fd5b6100e26100dd3660046111c2565b610219565b005b6100f76100f2366004611227565b610510565b6040516001600160a01b0390911681526020015b60405180910390f35b61011c5f5481565b60405190815260200161010b565b61013d610138366004611227565b61058f565b60405161010b919061128f565b61013d6101583660046112c3565b610684565b6100e261016b3660046111c2565b6107c6565b6100e261017e366004611227565b61083d565b61018b610a25565b60405161010b919061130e565b6100e26101a63660046111c2565b610af9565b6100e26101b9366004611371565b610b8e565b6101d16101cc3660046112c3565b610d88565b60405160ff909116815260200161010b565b6101f66101f1366004611227565b610e13565b60405161010b94939291906113e5565b6100e261021436600461142b565b610f60565b8160018160405161022a91906114a5565b9081526040519081900360200190206002015460ff166102655760405162461bcd60e51b815260040161025c906114b0565b60405180910390fd5b60018260405161027591906114a5565b9081526040519081900360200190206002015460ff16156102cd5760405162461bcd60e51b81526020600482015260126024820152714e616d65206e6f7420617661696c61626c6560701b604482015260640161025c565b6103af826001856040516102e191906114a5565b908152604051908190036020018120600201546001600160a01b0361010090910416906001906103129088906114a5565b9081526020016040518091039020600101805461032e906114dd565b80601f016020809104026020016040519081016040528092919081815260200182805461035a906114dd565b80156103a55780601f1061037c576101008083540402835291602001916103a5565b820191905f5260205f20905b81548152906001019060200180831161038857829003601f168201915b5050505050610b8e565b5f5b6001846040516103c191906114a5565b90815260405190819003602001902060030154811015610501575f6001856040516103ec91906114a5565b9081526020016040518091039020600301828154811061040e5761040e61150f565b5f918252602090912001546040516001600160a01b0390911691506001906104379086906114a5565b908152604051602091819003820181206003018054600180820183555f928352939091200180546001600160a01b0319166001600160a01b0385161790556104809087906114a5565b9081526040805191829003602090810183206001600160a01b0385165f9081526004909101909152205460ff16906001906104bc9087906114a5565b90815260408051602092819003830190206001600160a01b03949094165f9081526004909401909152909120805460ff191660ff9092169190911790556001016103b1565b5061050b8361083d565b505050565b5f8160018160405161052291906114a5565b9081526040519081900360200190206002015460ff166105545760405162461bcd60e51b815260040161025c906114b0565b60018360405161056491906114a5565b908152604051908190036020019020600201546001600160a01b036101009091041691505b50919050565b6060816001816040516105a291906114a5565b9081526040519081900360200190206002015460ff166105d45760405162461bcd60e51b815260040161025c906114b0565b6001836040516105e491906114a5565b90815260200160405180910390206001018054610600906114dd565b80601f016020809104026020016040519081016040528092919081815260200182805461062c906114dd565b80156106775780601f1061064e57610100808354040283529160200191610677565b820191905f5260205f20905b81548152906001019060200180831161065a57829003601f168201915b5050505050915050919050565b60608260018160405161069791906114a5565b9081526040519081900360200190206002015460ff166106c95760405162461bcd60e51b815260040161025c906114b0565b6040805160c081018252600960808201818152684e6f2061636365737360b81b60a08401528252825180840184529081526852656164206f6e6c7960b81b6020828101919091528083019190915282518084018452600d81526c14995859080988185c1c195b99609a1b8183015282840152825180840184526014815273526561642c20617070656e64202620777269746560601b9181019190915260608201529051819060019061077c9088906114a5565b90815260408051602092819003830190206001600160a01b0388165f908152600491820190935291205460ff169081106107b8576107b861150f565b602002015195945050505050565b816001816040516107d791906114a5565b9081526040519081900360200190206002015460ff166108095760405162461bcd60e51b815260040161025c906114b0565b8160018460405161081a91906114a5565b908152602001604051809103902060010190816108379190611567565b50505050565b8060018160405161084e91906114a5565b9081526040519081900360200190206002015460ff166108805760405162461bcd60e51b815260040161025c906114b0565b5f60018360405161089191906114a5565b908152604051908190036020018120600201805492151560ff19909316929092179091556001906108c39084906114a5565b9081526040519081900360200190205f6108dd8282611057565b6108ea600183015f611057565b6002820180546001600160a81b0319169055610909600383015f611091565b50505f5b600254811015610a0d578260405160200161092891906114a5565b60405160208183030381529060405280519060200120600282815481106109515761095161150f565b905f5260205f20016040516020016109699190611693565b6040516020818303038152906040528051906020012003610a055760028054610994906001906116b2565b815481106109a4576109a461150f565b905f5260205f2001600282815481106109bf576109bf61150f565b905f5260205f200190816109d391906116cb565b5060028054806109e5576109e5611798565b600190038181905f5260205f20015f6109fe9190611057565b9055610a0d565b60010161090d565b505f80549080610a1c836117ac565b91905055505050565b60606002805480602002602001604051908101604052809291908181526020015f905b82821015610af0578382905f5260205f20018054610a65906114dd565b80601f0160208091040260200160405190810160405280929190818152602001828054610a91906114dd565b8015610adc5780601f10610ab357610100808354040283529160200191610adc565b820191905f5260205f20905b815481529060010190602001808311610abf57829003601f168201915b505050505081526020019060010190610a48565b50505050905090565b81600181604051610b0a91906114a5565b9081526040519081900360200190206002015460ff16610b3c5760405162461bcd60e51b815260040161025c906114b0565b600183604051610b4c91906114a5565b908152602001604051809103902060010182604051602001610b6f9291906117c1565b60405160208183030381529060405260018460405161081a91906114a5565b5f54603211610bd55760405162461bcd60e51b8152602060048201526013602482015272115e18d95959195908199a5b19481b1a5b5a5d606a1b604482015260640161025c565b5f835111610c255760405162461bcd60e51b815260206004820152601860248201527f46696c656e616d652063616e6e6f7420626520656d7074790000000000000000604482015260640161025c565b600183604051610c3591906114a5565b9081526040519081900360200190206002015460ff1615610c8e5760405162461bcd60e51b815260206004820152601360248201527246696c6520616c72656164792065786973747360681b604482015260640161025c565b5f600184604051610c9f91906114a5565b908152604051908190036020019020905080610cbb8582611567565b5060018101610cca8382611567565b506002810180546001600160a01b038516610100026001600160a81b0319909116176001179055604080515f8152602081019182905251610d0f9160038401916110ac565b506001600160a01b0383165f9081526004820160205260408120805460ff1916600317905580549080610d41836117e9565b9091555050600280546001810182555f919091527f405787fa12a823e0f2b7631cc41b3ba8828b3321ca811111fa75cd3aa3bb5ace01610d818582611567565b5050505050565b5f82600181604051610d9a91906114a5565b9081526040519081900360200190206002015460ff16610dcc5760405162461bcd60e51b815260040161025c906114b0565b600184604051610ddc91906114a5565b90815260408051602092819003830190206001600160a01b03959095165f90815260049095019091529092205460ff169392505050565b8051602081830181018051600182529282019190930120915280548190610e39906114dd565b80601f0160208091040260200160405190810160405280929190818152602001828054610e65906114dd565b8015610eb05780601f10610e8757610100808354040283529160200191610eb0565b820191905f5260205f20905b815481529060010190602001808311610e9357829003601f168201915b505050505090806001018054610ec5906114dd565b80601f0160208091040260200160405190810160405280929190818152602001828054610ef1906114dd565b8015610f3c5780601f10610f1357610100808354040283529160200191610f3c565b820191905f5260205f20905b815481529060010190602001808311610f1f57829003601f168201915b5050506002909301549192505060ff8116906001600160a01b036101009091041684565b82600181604051610f7191906114a5565b9081526040519081900360200190206002015460ff16610fa35760405162461bcd60e51b815260040161025c906114b0565b60038260ff161115610ff75760405162461bcd60e51b815260206004820152601760248201527f496e76616c6964207065726d697373696f6e206d6f6465000000000000000000604482015260640161025c565b8160018560405161100891906114a5565b90815260200160405180910390206004015f856001600160a01b03166001600160a01b031681526020019081526020015f205f6101000a81548160ff021916908360ff16021790555050505050565b508054611063906114dd565b5f825580601f10611072575050565b601f0160209004905f5260205f209081019061108e919061110f565b50565b5080545f8255905f5260205f209081019061108e919061110f565b828054828255905f5260205f209081019282156110ff579160200282015b828111156110ff57825182546001600160a01b0319166001600160a01b039091161782556020909201916001909101906110ca565b5061110b92915061110f565b5090565b5b8082111561110b575f8155600101611110565b634e487b7160e01b5f52604160045260245ffd5b5f82601f830112611146575f80fd5b813567ffffffffffffffff81111561116057611160611123565b604051601f8201601f19908116603f0116810167ffffffffffffffff8111828210171561118f5761118f611123565b6040528181528382016020018510156111a6575f80fd5b816020850160208301375f918101602001919091529392505050565b5f80604083850312156111d3575f80fd5b823567ffffffffffffffff8111156111e9575f80fd5b6111f585828601611137565b925050602083013567ffffffffffffffff811115611211575f80fd5b61121d85828601611137565b9150509250929050565b5f60208284031215611237575f80fd5b813567ffffffffffffffff81111561124d575f80fd5b61125984828501611137565b949350505050565b5f81518084528060208401602086015e5f602082860101526020601f19601f83011685010191505092915050565b602081525f6112a16020830184611261565b9392505050565b80356001600160a01b03811681146112be575f80fd5b919050565b5f80604083850312156112d4575f80fd5b823567ffffffffffffffff8111156112ea575f80fd5b6112f685828601611137565b925050611305602084016112a8565b90509250929050565b5f602082016020835280845180835260408501915060408160051b8601019250602086015f5b8281101561136557603f19878603018452611350858351611261565b94506020938401939190910190600101611334565b50929695505050505050565b5f805f60608486031215611383575f80fd5b833567ffffffffffffffff811115611399575f80fd5b6113a586828701611137565b9350506113b4602085016112a8565b9150604084013567ffffffffffffffff8111156113cf575f80fd5b6113db86828701611137565b9150509250925092565b608081525f6113f76080830187611261565b82810360208401526114098187611261565b941515604084015250506001600160a01b039190911660609091015292915050565b5f805f6060848603121561143d575f80fd5b833567ffffffffffffffff811115611453575f80fd5b61145f86828701611137565b93505061146e602085016112a8565b9150604084013560ff81168114611483575f80fd5b809150509250925092565b5f81518060208401855e5f93019283525090919050565b5f6112a1828461148e565b602080825260139082015272119a5b1948191bd95cc81b9bdd08195e1a5cdd606a1b604082015260600190565b600181811c908216806114f157607f821691505b60208210810361058957634e487b7160e01b5f52602260045260245ffd5b634e487b7160e01b5f52603260045260245ffd5b601f82111561050b57805f5260205f20601f840160051c810160208510156115485750805b601f840160051c820191505b81811015610d81575f8155600101611554565b815167ffffffffffffffff81111561158157611581611123565b6115958161158f84546114dd565b84611523565b6020601f8211600181146115ca575f83156115b05750848201515b600184901b5f19600386901b1c198216175b855550610d81565b5f84815260208120601f198516915b828110156115f957878501518255602094850194600190920191016115d9565b508482101561161657868401515f19600387901b60f8161c191681555b50505050600190811b01905550565b5f8154611631816114dd565b600182168015611648576001811461165d5761168a565b60ff198316865281151582028601935061168a565b845f5260205f205f5b8381101561168257815488820152600190910190602001611666565b505081860193505b50505092915050565b5f6112a18284611625565b634e487b7160e01b5f52601160045260245ffd5b818103818111156116c5576116c561169e565b92915050565b8181036116d6575050565b6116e082546114dd565b67ffffffffffffffff8111156116f8576116f8611123565b6117068161158f84546114dd565b5f601f821160018114611735575f83156115b0575081850154600184901b5f19600386901b1c198216176115c2565b5f8581526020808220868352908220601f198616925b8381101561176b578286015482556001958601959091019060200161174b565b508583101561178857818501545f19600388901b60f8161c191681555b5050505050600190811b01905550565b634e487b7160e01b5f52603160045260245ffd5b5f816117ba576117ba61169e565b505f190190565b5f6117cc8285611625565b600560f91b81526117e0600182018561148e565b95945050505050565b5f600182016117fa576117fa61169e565b506001019056fea264697066735822122033fb6cd139b9fc77ba75ccc30272905775908a778f556e6eed7b529a4f8ceb5a64736f6c634300081a0033",
			"opcodes": "PUSH1 0x80 PUSH1 0x40 MSTORE PUSH0 DUP1 SSTORE CALLVALUE DUP1 ISZERO PUSH1 0x11 JUMPI PUSH0 DUP1 REVERT JUMPDEST POP PUSH2 0x1837 DUP1 PUSH2 0x1F PUSH0 CODECOPY PUSH0 RETURN INVALID PUSH1 0x80 PUSH1 0x40 MSTORE CALLVALUE DUP1 ISZERO PUSH2 0xF JUMPI PUSH0 DUP1 REVERT JUMPDEST POP PUSH1 0x4 CALLDATASIZE LT PUSH2 0xCB JUMPI PUSH0 CALLDATALOAD PUSH1 0xE0 SHR DUP1 PUSH4 0xA9910054 GT PUSH2 0x88 JUMPI DUP1 PUSH4 0xBC051A4D GT PUSH2 0x63 JUMPI DUP1 PUSH4 0xBC051A4D EQ PUSH2 0x1AB JUMPI DUP1 PUSH4 0xCFFA39F9 EQ PUSH2 0x1BE JUMPI DUP1 PUSH4 0xE7755761 EQ PUSH2 0x1E3 JUMPI DUP1 PUSH4 0xECEED653 EQ PUSH2 0x206 JUMPI PUSH0 DUP1 REVERT JUMPDEST DUP1 PUSH4 0xA9910054 EQ PUSH2 0x170 JUMPI DUP1 PUSH4 0xB033D8FA EQ PUSH2 0x183 JUMPI DUP1 PUSH4 0xB6B13CAA EQ PUSH2 0x198 JUMPI PUSH0 DUP1 REVERT JUMPDEST DUP1 PUSH4 0x13D4A044 EQ PUSH2 0xCF JUMPI DUP1 PUSH4 0x38FA8F58 EQ PUSH2 0xE4 JUMPI DUP1 PUSH4 0x43953519 EQ PUSH2 0x114 JUMPI DUP1 PUSH4 0x60F9BB11 EQ PUSH2 0x12A JUMPI DUP1 PUSH4 0x7D41216D EQ PUSH2 0x14A JUMPI DUP1 PUSH4 0x897E0A97 EQ PUSH2 0x15D JUMPI JUMPDEST PUSH0 DUP1 REVERT JUMPDEST PUSH2 0xE2 PUSH2 0xDD CALLDATASIZE PUSH1 0x4 PUSH2 0x11C2 JUMP JUMPDEST PUSH2 0x219 JUMP JUMPDEST STOP JUMPDEST PUSH2 0xF7 PUSH2 0xF2 CALLDATASIZE PUSH1 0x4 PUSH2 0x1227 JUMP JUMPDEST PUSH2 0x510 JUMP JUMPDEST PUSH1 0x40 MLOAD PUSH1 0x1 PUSH1 0x1 PUSH1 0xA0 SHL SUB SWAP1 SWAP2 AND DUP2 MSTORE PUSH1 0x20 ADD JUMPDEST PUSH1 0x40 MLOAD DUP1 SWAP2 SUB SWAP1 RETURN JUMPDEST PUSH2 0x11C PUSH0 SLOAD DUP2 JUMP JUMPDEST PUSH1 0x40 MLOAD SWAP1 DUP2 MSTORE PUSH1 0x20 ADD PUSH2 0x10B JUMP JUMPDEST PUSH2 0x13D PUSH2 0x138 CALLDATASIZE PUSH1 0x4 PUSH2 0x1227 JUMP JUMPDEST PUSH2 0x58F JUMP JUMPDEST PUSH1 0x40 MLOAD PUSH2 0x10B SWAP2 SWAP1 PUSH2 0x128F JUMP JUMPDEST PUSH2 0x13D PUSH2 0x158 CALLDATASIZE PUSH1 0x4 PUSH2 0x12C3 JUMP JUMPDEST PUSH2 0x684 JUMP JUMPDEST PUSH2 0xE2 PUSH2 0x16B CALLDATASIZE PUSH1 0x4 PUSH2 0x11C2 JUMP JUMPDEST PUSH2 0x7C6 JUMP JUMPDEST PUSH2 0xE2 PUSH2 0x17E CALLDATASIZE PUSH1 0x4 PUSH2 0x1227 JUMP JUMPDEST PUSH2 0x83D JUMP JUMPDEST PUSH2 0x18B PUSH2 0xA25 JUMP JUMPDEST PUSH1 0x40 MLOAD PUSH2 0x10B SWAP2 SWAP1 PUSH2 0x130E JUMP JUMPDEST PUSH2 0xE2 PUSH2 0x1A6 CALLDATASIZE PUSH1 0x4 PUSH2 0x11C2 JUMP JUMPDEST PUSH2 0xAF9 JUMP JUMPDEST PUSH2 0xE2 PUSH2 0x1B9 CALLDATASIZE PUSH1 0x4 PUSH2 0x1371 JUMP JUMPDEST PUSH2 0xB8E JUMP JUMPDEST PUSH2 0x1D1 PUSH2 0x1CC CALLDATASIZE PUSH1 0x4 PUSH2 0x12C3 JUMP JUMPDEST PUSH2 0xD88 JUMP JUMPDEST PUSH1 0x40 MLOAD PUSH1 0xFF SWAP1 SWAP2 AND DUP2 MSTORE PUSH1 0x20 ADD PUSH2 0x10B JUMP JUMPDEST PUSH2 0x1F6 PUSH2 0x1F1 CALLDATASIZE PUSH1 0x4 PUSH2 0x1227 JUMP JUMPDEST PUSH2 0xE13 JUMP JUMPDEST PUSH1 0x40 MLOAD PUSH2 0x10B SWAP5 SWAP4 SWAP3 SWAP2 SWAP1 PUSH2 0x13E5 JUMP JUMPDEST PUSH2 0xE2 PUSH2 0x214 CALLDATASIZE PUSH1 0x4 PUSH2 0x142B JUMP JUMPDEST PUSH2 0xF60 JUMP JUMPDEST DUP2 PUSH1 0x1 DUP2 PUSH1 0x40 MLOAD PUSH2 0x22A SWAP2 SWAP1 PUSH2 0x14A5 JUMP JUMPDEST SWAP1 DUP2 MSTORE PUSH1 0x40 MLOAD SWAP1 DUP2 SWAP1 SUB PUSH1 0x20 ADD SWAP1 KECCAK256 PUSH1 0x2 ADD SLOAD PUSH1 0xFF AND PUSH2 0x265 JUMPI PUSH1 0x40 MLOAD PUSH3 0x461BCD PUSH1 0xE5 SHL DUP2 MSTORE PUSH1 0x4 ADD PUSH2 0x25C SWAP1 PUSH2 0x14B0 JUMP JUMPDEST PUSH1 0x40 MLOAD DUP1 SWAP2 SUB SWAP1 REVERT JUMPDEST PUSH1 0x1 DUP3 PUSH1 0x40 MLOAD PUSH2 0x275 SWAP2 SWAP1 PUSH2 0x14A5 JUMP JUMPDEST SWAP1 DUP2 MSTORE PUSH1 0x40 MLOAD SWAP1 DUP2 SWAP1 SUB PUSH1 0x20 ADD SWAP1 KECCAK256 PUSH1 0x2 ADD SLOAD PUSH1 0xFF AND ISZERO PUSH2 0x2CD JUMPI PUSH1 0x40 MLOAD PUSH3 0x461BCD PUSH1 0xE5 SHL DUP2 MSTORE PUSH1 0x20 PUSH1 0x4 DUP3 ADD MSTORE PUSH1 0x12 PUSH1 0x24 DUP3 ADD MSTORE PUSH18 0x4E616D65206E6F7420617661696C61626C65 PUSH1 0x70 SHL PUSH1 0x44 DUP3 ADD MSTORE PUSH1 0x64 ADD PUSH2 0x25C JUMP JUMPDEST PUSH2 0x3AF DUP3 PUSH1 0x1 DUP6 PUSH1 0x40 MLOAD PUSH2 0x2E1 SWAP2 SWAP1 PUSH2 0x14A5 JUMP JUMPDEST SWAP1 DUP2 MSTORE PUSH1 0x40 MLOAD SWAP1 DUP2 SWAP1 SUB PUSH1 0x20 ADD DUP2 KECCAK256 PUSH1 0x2 ADD SLOAD PUSH1 0x1 PUSH1 0x1 PUSH1 0xA0 SHL SUB PUSH2 0x100 SWAP1 SWAP2 DIV AND SWAP1 PUSH1 0x1 SWAP1 PUSH2 0x312 SWAP1 DUP9 SWAP1 PUSH2 0x14A5 JUMP JUMPDEST SWAP1 DUP2 MSTORE PUSH1 0x20 ADD PUSH1 0x40 MLOAD DUP1 SWAP2 SUB SWAP1 KECCAK256 PUSH1 0x1 ADD DUP1 SLOAD PUSH2 0x32E SWAP1 PUSH2 0x14DD JUMP JUMPDEST DUP1 PUSH1 0x1F ADD PUSH1 0x20 DUP1 SWAP2 DIV MUL PUSH1 0x20 ADD PUSH1 0x40 MLOAD SWAP1 DUP2 ADD PUSH1 0x40 MSTORE DUP1 SWAP3 SWAP2 SWAP1 DUP2 DUP2 MSTORE PUSH1 0x20 ADD DUP3 DUP1 SLOAD PUSH2 0x35A SWAP1 PUSH2 0x14DD JUMP JUMPDEST DUP1 ISZERO PUSH2 0x3A5 JUMPI DUP1 PUSH1 0x1F LT PUSH2 0x37C JUMPI PUSH2 0x100 DUP1 DUP4 SLOAD DIV MUL DUP4 MSTORE SWAP2 PUSH1 0x20 ADD SWAP2 PUSH2 0x3A5 JUMP JUMPDEST DUP3 ADD SWAP2 SWAP1 PUSH0 MSTORE PUSH1 0x20 PUSH0 KECCAK256 SWAP1 JUMPDEST DUP2 SLOAD DUP2 MSTORE SWAP1 PUSH1 0x1 ADD SWAP1 PUSH1 0x20 ADD DUP1 DUP4 GT PUSH2 0x388 JUMPI DUP3 SWAP1 SUB PUSH1 0x1F AND DUP3 ADD SWAP2 JUMPDEST POP POP POP POP POP PUSH2 0xB8E JUMP JUMPDEST PUSH0 JUMPDEST PUSH1 0x1 DUP5 PUSH1 0x40 MLOAD PUSH2 0x3C1 SWAP2 SWAP1 PUSH2 0x14A5 JUMP JUMPDEST SWAP1 DUP2 MSTORE PUSH1 0x40 MLOAD SWAP1 DUP2 SWAP1 SUB PUSH1 0x20 ADD SWAP1 KECCAK256 PUSH1 0x3 ADD SLOAD DUP2 LT ISZERO PUSH2 0x501 JUMPI PUSH0 PUSH1 0x1 DUP6 PUSH1 0x40 MLOAD PUSH2 0x3EC SWAP2 SWAP1 PUSH2 0x14A5 JUMP JUMPDEST SWAP1 DUP2 MSTORE PUSH1 0x20 ADD PUSH1 0x40 MLOAD DUP1 SWAP2 SUB SWAP1 KECCAK256 PUSH1 0x3 ADD DUP3 DUP2 SLOAD DUP2 LT PUSH2 0x40E JUMPI PUSH2 0x40E PUSH2 0x150F JUMP JUMPDEST PUSH0 SWAP2 DUP3 MSTORE PUSH1 0x20 SWAP1 SWAP2 KECCAK256 ADD SLOAD PUSH1 0x40 MLOAD PUSH1 0x1 PUSH1 0x1 PUSH1 0xA0 SHL SUB SWAP1 SWAP2 AND SWAP2 POP PUSH1 0x1 SWAP1 PUSH2 0x437 SWAP1 DUP7 SWAP1 PUSH2 0x14A5 JUMP JUMPDEST SWAP1 DUP2 MSTORE PUSH1 0x40 MLOAD PUSH1 0x20 SWAP2 DUP2 SWAP1 SUB DUP3 ADD DUP2 KECCAK256 PUSH1 0x3 ADD DUP1 SLOAD PUSH1 0x1 DUP1 DUP3 ADD DUP4 SSTORE PUSH0 SWAP3 DUP4 MSTORE SWAP4 SWAP1 SWAP2 KECCAK256 ADD DUP1 SLOAD PUSH1 0x1 PUSH1 0x1 PUSH1 0xA0 SHL SUB NOT AND PUSH1 0x1 PUSH1 0x1 PUSH1 0xA0 SHL SUB DUP6 AND OR SWAP1 SSTORE PUSH2 0x480 SWAP1 DUP8 SWAP1 PUSH2 0x14A5 JUMP JUMPDEST SWAP1 DUP2 MSTORE PUSH1 0x40 DUP1 MLOAD SWAP2 DUP3 SWAP1 SUB PUSH1 0x20 SWAP1 DUP2 ADD DUP4 KECCAK256 PUSH1 0x1 PUSH1 0x1 PUSH1 0xA0 SHL SUB DUP6 AND PUSH0 SWAP1 DUP2 MSTORE PUSH1 0x4 SWAP1 SWAP2 ADD SWAP1 SWAP2 MSTORE KECCAK256 SLOAD PUSH1 0xFF AND SWAP1 PUSH1 0x1 SWAP1 PUSH2 0x4BC SWAP1 DUP8 SWAP1 PUSH2 0x14A5 JUMP JUMPDEST SWAP1 DUP2 MSTORE PUSH1 0x40 DUP1 MLOAD PUSH1 0x20 SWAP3 DUP2 SWAP1 SUB DUP4 ADD SWAP1 KECCAK256 PUSH1 0x1 PUSH1 0x1 PUSH1 0xA0 SHL SUB SWAP5 SWAP1 SWAP5 AND PUSH0 SWAP1 DUP2 MSTORE PUSH1 0x4 SWAP1 SWAP5 ADD SWAP1 SWAP2 MSTORE SWAP1 SWAP2 KECCAK256 DUP1 SLOAD PUSH1 0xFF NOT AND PUSH1 0xFF SWAP1 SWAP3 AND SWAP2 SWAP1 SWAP2 OR SWAP1 SSTORE PUSH1 0x1 ADD PUSH2 0x3B1 JUMP JUMPDEST POP PUSH2 0x50B DUP4 PUSH2 0x83D JUMP JUMPDEST POP POP POP JUMP JUMPDEST PUSH0 DUP2 PUSH1 0x1 DUP2 PUSH1 0x40 MLOAD PUSH2 0x522 SWAP2 SWAP1 PUSH2 0x14A5 JUMP JUMPDEST SWAP1 DUP2 MSTORE PUSH1 0x40 MLOAD SWAP1 DUP2 SWAP1 SUB PUSH1 0x20 ADD SWAP1 KECCAK256 PUSH1 0x2 ADD SLOAD PUSH1 0xFF AND PUSH2 0x554 JUMPI PUSH1 0x40 MLOAD PUSH3 0x461BCD PUSH1 0xE5 SHL DUP2 MSTORE PUSH1 0x4 ADD PUSH2 0x25C SWAP1 PUSH2 0x14B0 JUMP JUMPDEST PUSH1 0x1 DUP4 PUSH1 0x40 MLOAD PUSH2 0x564 SWAP2 SWAP1 PUSH2 0x14A5 JUMP JUMPDEST SWAP1 DUP2 MSTORE PUSH1 0x40 MLOAD SWAP1 DUP2 SWAP1 SUB PUSH1 0x20 ADD SWAP1 KECCAK256 PUSH1 0x2 ADD SLOAD PUSH1 0x1 PUSH1 0x1 PUSH1 0xA0 SHL SUB PUSH2 0x100 SWAP1 SWAP2 DIV AND SWAP2 POP JUMPDEST POP SWAP2 SWAP1 POP JUMP JUMPDEST PUSH1 0x60 DUP2 PUSH1 0x1 DUP2 PUSH1 0x40 MLOAD PUSH2 0x5A2 SWAP2 SWAP1 PUSH2 0x14A5 JUMP JUMPDEST SWAP1 DUP2 MSTORE PUSH1 0x40 MLOAD SWAP1 DUP2 SWAP1 SUB PUSH1 0x20 ADD SWAP1 KECCAK256 PUSH1 0x2 ADD SLOAD PUSH1 0xFF AND PUSH2 0x5D4 JUMPI PUSH1 0x40 MLOAD PUSH3 0x461BCD PUSH1 0xE5 SHL DUP2 MSTORE PUSH1 0x4 ADD PUSH2 0x25C SWAP1 PUSH2 0x14B0 JUMP JUMPDEST PUSH1 0x1 DUP4 PUSH1 0x40 MLOAD PUSH2 0x5E4 SWAP2 SWAP1 PUSH2 0x14A5 JUMP JUMPDEST SWAP1 DUP2 MSTORE PUSH1 0x20 ADD PUSH1 0x40 MLOAD DUP1 SWAP2 SUB SWAP1 KECCAK256 PUSH1 0x1 ADD DUP1 SLOAD PUSH2 0x600 SWAP1 PUSH2 0x14DD JUMP JUMPDEST DUP1 PUSH1 0x1F ADD PUSH1 0x20 DUP1 SWAP2 DIV MUL PUSH1 0x20 ADD PUSH1 0x40 MLOAD SWAP1 DUP2 ADD PUSH1 0x40 MSTORE DUP1 SWAP3 SWAP2 SWAP1 DUP2 DUP2 MSTORE PUSH1 0x20 ADD DUP3 DUP1 SLOAD PUSH2 0x62C SWAP1 PUSH2 0x14DD JUMP JUMPDEST DUP1 ISZERO PUSH2 0x677 JUMPI DUP1 PUSH1 0x1F LT PUSH2 0x64E JUMPI PUSH2 0x100 DUP1 DUP4 SLOAD DIV MUL DUP4 MSTORE SWAP2 PUSH1 0x20 ADD SWAP2 PUSH2 0x677 JUMP JUMPDEST DUP3 ADD SWAP2 SWAP1 PUSH0 MSTORE PUSH1 0x20 PUSH0 KECCAK256 SWAP1 JUMPDEST DUP2 SLOAD DUP2 MSTORE SWAP1 PUSH1 0x1 ADD SWAP1 PUSH1 0x20 ADD DUP1 DUP4 GT PUSH2 0x65A JUMPI DUP3 SWAP1 SUB PUSH1 0x1F AND DUP3 ADD SWAP2 JUMPDEST POP POP POP POP POP SWAP2 POP POP SWAP2 SWAP1 POP JUMP JUMPDEST PUSH1 0x60 DUP3 PUSH1 0x1 DUP2 PUSH1 0x40 MLOAD PUSH2 0x697 SWAP2 SWAP1 PUSH2 0x14A5 JUMP JUMPDEST SWAP1 DUP2 MSTORE PUSH1 0x40 MLOAD SWAP1 DUP2 SWAP1 SUB PUSH1 0x20 ADD SWAP1 KECCAK256 PUSH1 0x2 ADD SLOAD PUSH1 0xFF AND PUSH2 0x6C9 JUMPI PUSH1 0x40 MLOAD PUSH3 0x461BCD PUSH1 0xE5 SHL DUP2 MSTORE PUSH1 0x4 ADD PUSH2 0x25C SWAP1 PUSH2 0x14B0 JUMP JUMPDEST PUSH1 0x40 DUP1 MLOAD PUSH1 0xC0 DUP2 ADD DUP3 MSTORE PUSH1 0x9 PUSH1 0x80 DUP3 ADD DUP2 DUP2 MSTORE PUSH9 0x4E6F20616363657373 PUSH1 0xB8 SHL PUSH1 0xA0 DUP5 ADD MSTORE DUP3 MSTORE DUP3 MLOAD DUP1 DUP5 ADD DUP5 MSTORE SWAP1 DUP2 MSTORE PUSH9 0x52656164206F6E6C79 PUSH1 0xB8 SHL PUSH1 0x20 DUP3 DUP2 ADD SWAP2 SWAP1 SWAP2 MSTORE DUP1 DUP4 ADD SWAP2 SWAP1 SWAP2 MSTORE DUP3 MLOAD DUP1 DUP5 ADD DUP5 MSTORE PUSH1 0xD DUP2 MSTORE PUSH13 0x14995859080988185C1C195B99 PUSH1 0x9A SHL DUP2 DUP4 ADD MSTORE DUP3 DUP5 ADD MSTORE DUP3 MLOAD DUP1 DUP5 ADD DUP5 MSTORE PUSH1 0x14 DUP2 MSTORE PUSH20 0x526561642C20617070656E642026207772697465 PUSH1 0x60 SHL SWAP2 DUP2 ADD SWAP2 SWAP1 SWAP2 MSTORE PUSH1 0x60 DUP3 ADD MSTORE SWAP1 MLOAD DUP2 SWAP1 PUSH1 0x1 SWAP1 PUSH2 0x77C SWAP1 DUP9 SWAP1 PUSH2 0x14A5 JUMP JUMPDEST SWAP1 DUP2 MSTORE PUSH1 0x40 DUP1 MLOAD PUSH1 0x20 SWAP3 DUP2 SWAP1 SUB DUP4 ADD SWAP1 KECCAK256 PUSH1 0x1 PUSH1 0x1 PUSH1 0xA0 SHL SUB DUP9 AND PUSH0 SWAP1 DUP2 MSTORE PUSH1 0x4 SWAP2 DUP3 ADD SWAP1 SWAP4 MSTORE SWAP2 KECCAK256 SLOAD PUSH1 0xFF AND SWAP1 DUP2 LT PUSH2 0x7B8 JUMPI PUSH2 0x7B8 PUSH2 0x150F JUMP JUMPDEST PUSH1 0x20 MUL ADD MLOAD SWAP6 SWAP5 POP POP POP POP POP JUMP JUMPDEST DUP2 PUSH1 0x1 DUP2 PUSH1 0x40 MLOAD PUSH2 0x7D7 SWAP2 SWAP1 PUSH2 0x14A5 JUMP JUMPDEST SWAP1 DUP2 MSTORE PUSH1 0x40 MLOAD SWAP1 DUP2 SWAP1 SUB PUSH1 0x20 ADD SWAP1 KECCAK256 PUSH1 0x2 ADD SLOAD PUSH1 0xFF AND PUSH2 0x809 JUMPI PUSH1 0x40 MLOAD PUSH3 0x461BCD PUSH1 0xE5 SHL DUP2 MSTORE PUSH1 0x4 ADD PUSH2 0x25C SWAP1 PUSH2 0x14B0 JUMP JUMPDEST DUP2 PUSH1 0x1 DUP5 PUSH1 0x40 MLOAD PUSH2 0x81A SWAP2 SWAP1 PUSH2 0x14A5 JUMP JUMPDEST SWAP1 DUP2 MSTORE PUSH1 0x20 ADD PUSH1 0x40 MLOAD DUP1 SWAP2 SUB SWAP1 KECCAK256 PUSH1 0x1 ADD SWAP1 DUP2 PUSH2 0x837 SWAP2 SWAP1 PUSH2 0x1567 JUMP JUMPDEST POP POP POP POP JUMP JUMPDEST DUP1 PUSH1 0x1 DUP2 PUSH1 0x40 MLOAD PUSH2 0x84E SWAP2 SWAP1 PUSH2 0x14A5 JUMP JUMPDEST SWAP1 DUP2 MSTORE PUSH1 0x40 MLOAD SWAP1 DUP2 SWAP1 SUB PUSH1 0x20 ADD SWAP1 KECCAK256 PUSH1 0x2 ADD SLOAD PUSH1 0xFF AND PUSH2 0x880 JUMPI PUSH1 0x40 MLOAD PUSH3 0x461BCD PUSH1 0xE5 SHL DUP2 MSTORE PUSH1 0x4 ADD PUSH2 0x25C SWAP1 PUSH2 0x14B0 JUMP JUMPDEST PUSH0 PUSH1 0x1 DUP4 PUSH1 0x40 MLOAD PUSH2 0x891 SWAP2 SWAP1 PUSH2 0x14A5 JUMP JUMPDEST SWAP1 DUP2 MSTORE PUSH1 0x40 MLOAD SWAP1 DUP2 SWAP1 SUB PUSH1 0x20 ADD DUP2 KECCAK256 PUSH1 0x2 ADD DUP1 SLOAD SWAP3 ISZERO ISZERO PUSH1 0xFF NOT SWAP1 SWAP4 AND SWAP3 SWAP1 SWAP3 OR SWAP1 SWAP2 SSTORE PUSH1 0x1 SWAP1 PUSH2 0x8C3 SWAP1 DUP5 SWAP1 PUSH2 0x14A5 JUMP JUMPDEST SWAP1 DUP2 MSTORE PUSH1 0x40 MLOAD SWAP1 DUP2 SWAP1 SUB PUSH1 0x20 ADD SWAP1 KECCAK256 PUSH0 PUSH2 0x8DD DUP3 DUP3 PUSH2 0x1057 JUMP JUMPDEST PUSH2 0x8EA PUSH1 0x1 DUP4 ADD PUSH0 PUSH2 0x1057 JUMP JUMPDEST PUSH1 0x2 DUP3 ADD DUP1 SLOAD PUSH1 0x1 PUSH1 0x1 PUSH1 0xA8 SHL SUB NOT AND SWAP1 SSTORE PUSH2 0x909 PUSH1 0x3 DUP4 ADD PUSH0 PUSH2 0x1091 JUMP JUMPDEST POP POP PUSH0 JUMPDEST PUSH1 0x2 SLOAD DUP2 LT ISZERO PUSH2 0xA0D JUMPI DUP3 PUSH1 0x40 MLOAD PUSH1 0x20 ADD PUSH2 0x928 SWAP2 SWAP1 PUSH2 0x14A5 JUMP JUMPDEST PUSH1 0x40 MLOAD PUSH1 0x20 DUP2 DUP4 SUB SUB DUP2 MSTORE SWAP1 PUSH1 0x40 MSTORE DUP1 MLOAD SWAP1 PUSH1 0x20 ADD KECCAK256 PUSH1 0x2 DUP3 DUP2 SLOAD DUP2 LT PUSH2 0x951 JUMPI PUSH2 0x951 PUSH2 0x150F JUMP JUMPDEST SWAP1 PUSH0 MSTORE PUSH1 0x20 PUSH0 KECCAK256 ADD PUSH1 0x40 MLOAD PUSH1 0x20 ADD PUSH2 0x969 SWAP2 SWAP1 PUSH2 0x1693 JUMP JUMPDEST PUSH1 0x40 MLOAD PUSH1 0x20 DUP2 DUP4 SUB SUB DUP2 MSTORE SWAP1 PUSH1 0x40 MSTORE DUP1 MLOAD SWAP1 PUSH1 0x20 ADD KECCAK256 SUB PUSH2 0xA05 JUMPI PUSH1 0x2 DUP1 SLOAD PUSH2 0x994 SWAP1 PUSH1 0x1 SWAP1 PUSH2 0x16B2 JUMP JUMPDEST DUP2 SLOAD DUP2 LT PUSH2 0x9A4 JUMPI PUSH2 0x9A4 PUSH2 0x150F JUMP JUMPDEST SWAP1 PUSH0 MSTORE PUSH1 0x20 PUSH0 KECCAK256 ADD PUSH1 0x2 DUP3 DUP2 SLOAD DUP2 LT PUSH2 0x9BF JUMPI PUSH2 0x9BF PUSH2 0x150F JUMP JUMPDEST SWAP1 PUSH0 MSTORE PUSH1 0x20 PUSH0 KECCAK256 ADD SWAP1 DUP2 PUSH2 0x9D3 SWAP2 SWAP1 PUSH2 0x16CB JUMP JUMPDEST POP PUSH1 0x2 DUP1 SLOAD DUP1 PUSH2 0x9E5 JUMPI PUSH2 0x9E5 PUSH2 0x1798 JUMP JUMPDEST PUSH1 0x1 SWAP1 SUB DUP2 DUP2 SWAP1 PUSH0 MSTORE PUSH1 0x20 PUSH0 KECCAK256 ADD PUSH0 PUSH2 0x9FE SWAP2 SWAP1 PUSH2 0x1057 JUMP JUMPDEST SWAP1 SSTORE PUSH2 0xA0D JUMP JUMPDEST PUSH1 0x1 ADD PUSH2 0x90D JUMP JUMPDEST POP PUSH0 DUP1 SLOAD SWAP1 DUP1 PUSH2 0xA1C DUP4 PUSH2 0x17AC JUMP JUMPDEST SWAP2 SWAP1 POP SSTORE POP POP POP JUMP JUMPDEST PUSH1 0x60 PUSH1 0x2 DUP1 SLOAD DUP1 PUSH1 0x20 MUL PUSH1 0x20 ADD PUSH1 0x40 MLOAD SWAP1 DUP2 ADD PUSH1 0x40 MSTORE DUP1 SWAP3 SWAP2 SWAP1 DUP2 DUP2 MSTORE PUSH1 0x20 ADD PUSH0 SWAP1 JUMPDEST DUP3 DUP3 LT ISZERO PUSH2 0xAF0 JUMPI DUP4 DUP3 SWAP1 PUSH0 MSTORE PUSH1 0x20 PUSH0 KECCAK256 ADD DUP1 SLOAD PUSH2 0xA65 SWAP1 PUSH2 0x14DD JUMP JUMPDEST DUP1 PUSH1 0x1F ADD PUSH1 0x20 DUP1 SWAP2 DIV MUL PUSH1 0x20 ADD PUSH1 0x40 MLOAD SWAP1 DUP2 ADD PUSH1 0x40 MSTORE DUP1 SWAP3 SWAP2 SWAP1 DUP2 DUP2 MSTORE PUSH1 0x20 ADD DUP3 DUP1 SLOAD PUSH2 0xA91 SWAP1 PUSH2 0x14DD JUMP JUMPDEST DUP1 ISZERO PUSH2 0xADC JUMPI DUP1 PUSH1 0x1F LT PUSH2 0xAB3 JUMPI PUSH2 0x100 DUP1 DUP4 SLOAD DIV MUL DUP4 MSTORE SWAP2 PUSH1 0x20 ADD SWAP2 PUSH2 0xADC JUMP JUMPDEST DUP3 ADD SWAP2 SWAP1 PUSH0 MSTORE PUSH1 0x20 PUSH0 KECCAK256 SWAP1 JUMPDEST DUP2 SLOAD DUP2 MSTORE SWAP1 PUSH1 0x1 ADD SWAP1 PUSH1 0x20 ADD DUP1 DUP4 GT PUSH2 0xABF JUMPI DUP3 SWAP1 SUB PUSH1 0x1F AND DUP3 ADD SWAP2 JUMPDEST POP POP POP POP POP DUP2 MSTORE PUSH1 0x20 ADD SWAP1 PUSH1 0x1 ADD SWAP1 PUSH2 0xA48 JUMP JUMPDEST POP POP POP POP SWAP1 POP SWAP1 JUMP JUMPDEST DUP2 PUSH1 0x1 DUP2 PUSH1 0x40 MLOAD PUSH2 0xB0A SWAP2 SWAP1 PUSH2 0x14A5 JUMP JUMPDEST SWAP1 DUP2 MSTORE PUSH1 0x40 MLOAD SWAP1 DUP2 SWAP1 SUB PUSH1 0x20 ADD SWAP1 KECCAK256 PUSH1 0x2 ADD SLOAD PUSH1 0xFF AND PUSH2 0xB3C JUMPI PUSH1 0x40 MLOAD PUSH3 0x461BCD PUSH1 0xE5 SHL DUP2 MSTORE PUSH1 0x4 ADD PUSH2 0x25C SWAP1 PUSH2 0x14B0 JUMP JUMPDEST PUSH1 0x1 DUP4 PUSH1 0x40 MLOAD PUSH2 0xB4C SWAP2 SWAP1 PUSH2 0x14A5 JUMP JUMPDEST SWAP1 DUP2 MSTORE PUSH1 0x20 ADD PUSH1 0x40 MLOAD DUP1 SWAP2 SUB SWAP1 KECCAK256 PUSH1 0x1 ADD DUP3 PUSH1 0x40 MLOAD PUSH1 0x20 ADD PUSH2 0xB6F SWAP3 SWAP2 SWAP1 PUSH2 0x17C1 JUMP JUMPDEST PUSH1 0x40 MLOAD PUSH1 0x20 DUP2 DUP4 SUB SUB DUP2 MSTORE SWAP1 PUSH1 0x40 MSTORE PUSH1 0x1 DUP5 PUSH1 0x40 MLOAD PUSH2 0x81A SWAP2 SWAP1 PUSH2 0x14A5 JUMP JUMPDEST PUSH0 SLOAD PUSH1 0x32 GT PUSH2 0xBD5 JUMPI PUSH1 0x40 MLOAD PUSH3 0x461BCD PUSH1 0xE5 SHL DUP2 MSTORE PUSH1 0x20 PUSH1 0x4 DUP3 ADD MSTORE PUSH1 0x13 PUSH1 0x24 DUP3 ADD MSTORE PUSH19 0x115E18D95959195908199A5B19481B1A5B5A5D PUSH1 0x6A SHL PUSH1 0x44 DUP3 ADD MSTORE PUSH1 0x64 ADD PUSH2 0x25C JUMP JUMPDEST PUSH0 DUP4 MLOAD GT PUSH2 0xC25 JUMPI PUSH1 0x40 MLOAD PUSH3 0x461BCD PUSH1 0xE5 SHL DUP2 MSTORE PUSH1 0x20 PUSH1 0x4 DUP3 ADD MSTORE PUSH1 0x18 PUSH1 0x24 DUP3 ADD MSTORE PUSH32 0x46696C656E616D652063616E6E6F7420626520656D7074790000000000000000 PUSH1 0x44 DUP3 ADD MSTORE PUSH1 0x64 ADD PUSH2 0x25C JUMP JUMPDEST PUSH1 0x1 DUP4 PUSH1 0x40 MLOAD PUSH2 0xC35 SWAP2 SWAP1 PUSH2 0x14A5 JUMP JUMPDEST SWAP1 DUP2 MSTORE PUSH1 0x40 MLOAD SWAP1 DUP2 SWAP1 SUB PUSH1 0x20 ADD SWAP1 KECCAK256 PUSH1 0x2 ADD SLOAD PUSH1 0xFF AND ISZERO PUSH2 0xC8E JUMPI PUSH1 0x40 MLOAD PUSH3 0x461BCD PUSH1 0xE5 SHL DUP2 MSTORE PUSH1 0x20 PUSH1 0x4 DUP3 ADD MSTORE PUSH1 0x13 PUSH1 0x24 DUP3 ADD MSTORE PUSH19 0x46696C6520616C726561647920657869737473 PUSH1 0x68 SHL PUSH1 0x44 DUP3 ADD MSTORE PUSH1 0x64 ADD PUSH2 0x25C JUMP JUMPDEST PUSH0 PUSH1 0x1 DUP5 PUSH1 0x40 MLOAD PUSH2 0xC9F SWAP2 SWAP1 PUSH2 0x14A5 JUMP JUMPDEST SWAP1 DUP2 MSTORE PUSH1 0x40 MLOAD SWAP1 DUP2 SWAP1 SUB PUSH1 0x20 ADD SWAP1 KECCAK256 SWAP1 POP DUP1 PUSH2 0xCBB DUP6 DUP3 PUSH2 0x1567 JUMP JUMPDEST POP PUSH1 0x1 DUP2 ADD PUSH2 0xCCA DUP4 DUP3 PUSH2 0x1567 JUMP JUMPDEST POP PUSH1 0x2 DUP2 ADD DUP1 SLOAD PUSH1 0x1 PUSH1 0x1 PUSH1 0xA0 SHL SUB DUP6 AND PUSH2 0x100 MUL PUSH1 0x1 PUSH1 0x1 PUSH1 0xA8 SHL SUB NOT SWAP1 SWAP2 AND OR PUSH1 0x1 OR SWAP1 SSTORE PUSH1 0x40 DUP1 MLOAD PUSH0 DUP2 MSTORE PUSH1 0x20 DUP2 ADD SWAP2 DUP3 SWAP1 MSTORE MLOAD PUSH2 0xD0F SWAP2 PUSH1 0x3 DUP5 ADD SWAP2 PUSH2 0x10AC JUMP JUMPDEST POP PUSH1 0x1 PUSH1 0x1 PUSH1 0xA0 SHL SUB DUP4 AND PUSH0 SWAP1 DUP2 MSTORE PUSH1 0x4 DUP3 ADD PUSH1 0x20 MSTORE PUSH1 0x40 DUP2 KECCAK256 DUP1 SLOAD PUSH1 0xFF NOT AND PUSH1 0x3 OR SWAP1 SSTORE DUP1 SLOAD SWAP1 DUP1 PUSH2 0xD41 DUP4 PUSH2 0x17E9 JUMP JUMPDEST SWAP1 SWAP2 SSTORE POP POP PUSH1 0x2 DUP1 SLOAD PUSH1 0x1 DUP2 ADD DUP3 SSTORE PUSH0 SWAP2 SWAP1 SWAP2 MSTORE PUSH32 0x405787FA12A823E0F2B7631CC41B3BA8828B3321CA811111FA75CD3AA3BB5ACE ADD PUSH2 0xD81 DUP6 DUP3 PUSH2 0x1567 JUMP JUMPDEST POP POP POP POP POP JUMP JUMPDEST PUSH0 DUP3 PUSH1 0x1 DUP2 PUSH1 0x40 MLOAD PUSH2 0xD9A SWAP2 SWAP1 PUSH2 0x14A5 JUMP JUMPDEST SWAP1 DUP2 MSTORE PUSH1 0x40 MLOAD SWAP1 DUP2 SWAP1 SUB PUSH1 0x20 ADD SWAP1 KECCAK256 PUSH1 0x2 ADD SLOAD PUSH1 0xFF AND PUSH2 0xDCC JUMPI PUSH1 0x40 MLOAD PUSH3 0x461BCD PUSH1 0xE5 SHL DUP2 MSTORE PUSH1 0x4 ADD PUSH2 0x25C SWAP1 PUSH2 0x14B0 JUMP JUMPDEST PUSH1 0x1 DUP5 PUSH1 0x40 MLOAD PUSH2 0xDDC SWAP2 SWAP1 PUSH2 0x14A5 JUMP JUMPDEST SWAP1 DUP2 MSTORE PUSH1 0x40 DUP1 MLOAD PUSH1 0x20 SWAP3 DUP2 SWAP1 SUB DUP4 ADD SWAP1 KECCAK256 PUSH1 0x1 PUSH1 0x1 PUSH1 0xA0 SHL SUB SWAP6 SWAP1 SWAP6 AND PUSH0 SWAP1 DUP2 MSTORE PUSH1 0x4 SWAP1 SWAP6 ADD SWAP1 SWAP2 MSTORE SWAP1 SWAP3 KECCAK256 SLOAD PUSH1 0xFF AND SWAP4 SWAP3 POP POP POP JUMP JUMPDEST DUP1 MLOAD PUSH1 0x20 DUP2 DUP4 ADD DUP2 ADD DUP1 MLOAD PUSH1 0x1 DUP3 MSTORE SWAP3 DUP3 ADD SWAP2 SWAP1 SWAP4 ADD KECCAK256 SWAP2 MSTORE DUP1 SLOAD DUP2 SWAP1 PUSH2 0xE39 SWAP1 PUSH2 0x14DD JUMP JUMPDEST DUP1 PUSH1 0x1F ADD PUSH1 0x20 DUP1 SWAP2 DIV MUL PUSH1 0x20 ADD PUSH1 0x40 MLOAD SWAP1 DUP2 ADD PUSH1 0x40 MSTORE DUP1 SWAP3 SWAP2 SWAP1 DUP2 DUP2 MSTORE PUSH1 0x20 ADD DUP3 DUP1 SLOAD PUSH2 0xE65 SWAP1 PUSH2 0x14DD JUMP JUMPDEST DUP1 ISZERO PUSH2 0xEB0 JUMPI DUP1 PUSH1 0x1F LT PUSH2 0xE87 JUMPI PUSH2 0x100 DUP1 DUP4 SLOAD DIV MUL DUP4 MSTORE SWAP2 PUSH1 0x20 ADD SWAP2 PUSH2 0xEB0 JUMP JUMPDEST DUP3 ADD SWAP2 SWAP1 PUSH0 MSTORE PUSH1 0x20 PUSH0 KECCAK256 SWAP1 JUMPDEST DUP2 SLOAD DUP2 MSTORE SWAP1 PUSH1 0x1 ADD SWAP1 PUSH1 0x20 ADD DUP1 DUP4 GT PUSH2 0xE93 JUMPI DUP3 SWAP1 SUB PUSH1 0x1F AND DUP3 ADD SWAP2 JUMPDEST POP POP POP POP POP SWAP1 DUP1 PUSH1 0x1 ADD DUP1 SLOAD PUSH2 0xEC5 SWAP1 PUSH2 0x14DD JUMP JUMPDEST DUP1 PUSH1 0x1F ADD PUSH1 0x20 DUP1 SWAP2 DIV MUL PUSH1 0x20 ADD PUSH1 0x40 MLOAD SWAP1 DUP2 ADD PUSH1 0x40 MSTORE DUP1 SWAP3 SWAP2 SWAP1 DUP2 DUP2 MSTORE PUSH1 0x20 ADD DUP3 DUP1 SLOAD PUSH2 0xEF1 SWAP1 PUSH2 0x14DD JUMP JUMPDEST DUP1 ISZERO PUSH2 0xF3C JUMPI DUP1 PUSH1 0x1F LT PUSH2 0xF13 JUMPI PUSH2 0x100 DUP1 DUP4 SLOAD DIV MUL DUP4 MSTORE SWAP2 PUSH1 0x20 ADD SWAP2 PUSH2 0xF3C JUMP JUMPDEST DUP3 ADD SWAP2 SWAP1 PUSH0 MSTORE PUSH1 0x20 PUSH0 KECCAK256 SWAP1 JUMPDEST DUP2 SLOAD DUP2 MSTORE SWAP1 PUSH1 0x1 ADD SWAP1 PUSH1 0x20 ADD DUP1 DUP4 GT PUSH2 0xF1F JUMPI DUP3 SWAP1 SUB PUSH1 0x1F AND DUP3 ADD SWAP2 JUMPDEST POP POP POP PUSH1 0x2 SWAP1 SWAP4 ADD SLOAD SWAP2 SWAP3 POP POP PUSH1 0xFF DUP2 AND SWAP1 PUSH1 0x1 PUSH1 0x1 PUSH1 0xA0 SHL SUB PUSH2 0x100 SWAP1 SWAP2 DIV AND DUP5 JUMP JUMPDEST DUP3 PUSH1 0x1 DUP2 PUSH1 0x40 MLOAD PUSH2 0xF71 SWAP2 SWAP1 PUSH2 0x14A5 JUMP JUMPDEST SWAP1 DUP2 MSTORE PUSH1 0x40 MLOAD SWAP1 DUP2 SWAP1 SUB PUSH1 0x20 ADD SWAP1 KECCAK256 PUSH1 0x2 ADD SLOAD PUSH1 0xFF AND PUSH2 0xFA3 JUMPI PUSH1 0x40 MLOAD PUSH3 0x461BCD PUSH1 0xE5 SHL DUP2 MSTORE PUSH1 0x4 ADD PUSH2 0x25C SWAP1 PUSH2 0x14B0 JUMP JUMPDEST PUSH1 0x3 DUP3 PUSH1 0xFF AND GT ISZERO PUSH2 0xFF7 JUMPI PUSH1 0x40 MLOAD PUSH3 0x461BCD PUSH1 0xE5 SHL DUP2 MSTORE PUSH1 0x20 PUSH1 0x4 DUP3 ADD MSTORE PUSH1 0x17 PUSH1 0x24 DUP3 ADD MSTORE PUSH32 0x496E76616C6964207065726D697373696F6E206D6F6465000000000000000000 PUSH1 0x44 DUP3 ADD MSTORE PUSH1 0x64 ADD PUSH2 0x25C JUMP JUMPDEST DUP2 PUSH1 0x1 DUP6 PUSH1 0x40 MLOAD PUSH2 0x1008 SWAP2 SWAP1 PUSH2 0x14A5 JUMP JUMPDEST SWAP1 DUP2 MSTORE PUSH1 0x20 ADD PUSH1 0x40 MLOAD DUP1 SWAP2 SUB SWAP1 KECCAK256 PUSH1 0x4 ADD PUSH0 DUP6 PUSH1 0x1 PUSH1 0x1 PUSH1 0xA0 SHL SUB AND PUSH1 0x1 PUSH1 0x1 PUSH1 0xA0 SHL SUB AND DUP2 MSTORE PUSH1 0x20 ADD SWAP1 DUP2 MSTORE PUSH1 0x20 ADD PUSH0 KECCAK256 PUSH0 PUSH2 0x100 EXP DUP2 SLOAD DUP2 PUSH1 0xFF MUL NOT AND SWAP1 DUP4 PUSH1 0xFF AND MUL OR SWAP1 SSTORE POP POP POP POP POP JUMP JUMPDEST POP DUP1 SLOAD PUSH2 0x1063 SWAP1 PUSH2 0x14DD JUMP JUMPDEST PUSH0 DUP3 SSTORE DUP1 PUSH1 0x1F LT PUSH2 0x1072 JUMPI POP POP JUMP JUMPDEST PUSH1 0x1F ADD PUSH1 0x20 SWAP1 DIV SWAP1 PUSH0 MSTORE PUSH1 0x20 PUSH0 KECCAK256 SWAP1 DUP2 ADD SWAP1 PUSH2 0x108E SWAP2 SWAP1 PUSH2 0x110F JUMP JUMPDEST POP JUMP JUMPDEST POP DUP1 SLOAD PUSH0 DUP3 SSTORE SWAP1 PUSH0 MSTORE PUSH1 0x20 PUSH0 KECCAK256 SWAP1 DUP2 ADD SWAP1 PUSH2 0x108E SWAP2 SWAP1 PUSH2 0x110F JUMP JUMPDEST DUP3 DUP1 SLOAD DUP3 DUP3 SSTORE SWAP1 PUSH0 MSTORE PUSH1 0x20 PUSH0 KECCAK256 SWAP1 DUP2 ADD SWAP3 DUP3 ISZERO PUSH2 0x10FF JUMPI SWAP2 PUSH1 0x20 MUL DUP3 ADD JUMPDEST DUP3 DUP2 GT ISZERO PUSH2 0x10FF JUMPI DUP3 MLOAD DUP3 SLOAD PUSH1 0x1 PUSH1 0x1 PUSH1 0xA0 SHL SUB NOT AND PUSH1 0x1 PUSH1 0x1 PUSH1 0xA0 SHL SUB SWAP1 SWAP2 AND OR DUP3 SSTORE PUSH1 0x20 SWAP1 SWAP3 ADD SWAP2 PUSH1 0x1 SWAP1 SWAP2 ADD SWAP1 PUSH2 0x10CA JUMP JUMPDEST POP PUSH2 0x110B SWAP3 SWAP2 POP PUSH2 0x110F JUMP JUMPDEST POP SWAP1 JUMP JUMPDEST JUMPDEST DUP1 DUP3 GT ISZERO PUSH2 0x110B JUMPI PUSH0 DUP2 SSTORE PUSH1 0x1 ADD PUSH2 0x1110 JUMP JUMPDEST PUSH4 0x4E487B71 PUSH1 0xE0 SHL PUSH0 MSTORE PUSH1 0x41 PUSH1 0x4 MSTORE PUSH1 0x24 PUSH0 REVERT JUMPDEST PUSH0 DUP3 PUSH1 0x1F DUP4 ADD SLT PUSH2 0x1146 JUMPI PUSH0 DUP1 REVERT JUMPDEST DUP2 CALLDATALOAD PUSH8 0xFFFFFFFFFFFFFFFF DUP2 GT ISZERO PUSH2 0x1160 JUMPI PUSH2 0x1160 PUSH2 0x1123 JUMP JUMPDEST PUSH1 0x40 MLOAD PUSH1 0x1F DUP3 ADD PUSH1 0x1F NOT SWAP1 DUP2 AND PUSH1 0x3F ADD AND DUP2 ADD PUSH8 0xFFFFFFFFFFFFFFFF DUP2 GT DUP3 DUP3 LT OR ISZERO PUSH2 0x118F JUMPI PUSH2 0x118F PUSH2 0x1123 JUMP JUMPDEST PUSH1 0x40 MSTORE DUP2 DUP2 MSTORE DUP4 DUP3 ADD PUSH1 0x20 ADD DUP6 LT ISZERO PUSH2 0x11A6 JUMPI PUSH0 DUP1 REVERT JUMPDEST DUP2 PUSH1 0x20 DUP6 ADD PUSH1 0x20 DUP4 ADD CALLDATACOPY PUSH0 SWAP2 DUP2 ADD PUSH1 0x20 ADD SWAP2 SWAP1 SWAP2 MSTORE SWAP4 SWAP3 POP POP POP JUMP JUMPDEST PUSH0 DUP1 PUSH1 0x40 DUP4 DUP6 SUB SLT ISZERO PUSH2 0x11D3 JUMPI PUSH0 DUP1 REVERT JUMPDEST DUP3 CALLDATALOAD PUSH8 0xFFFFFFFFFFFFFFFF DUP2 GT ISZERO PUSH2 0x11E9 JUMPI PUSH0 DUP1 REVERT JUMPDEST PUSH2 0x11F5 DUP6 DUP3 DUP7 ADD PUSH2 0x1137 JUMP JUMPDEST SWAP3 POP POP PUSH1 0x20 DUP4 ADD CALLDATALOAD PUSH8 0xFFFFFFFFFFFFFFFF DUP2 GT ISZERO PUSH2 0x1211 JUMPI PUSH0 DUP1 REVERT JUMPDEST PUSH2 0x121D DUP6 DUP3 DUP7 ADD PUSH2 0x1137 JUMP JUMPDEST SWAP2 POP POP SWAP3 POP SWAP3 SWAP1 POP JUMP JUMPDEST PUSH0 PUSH1 0x20 DUP3 DUP5 SUB SLT ISZERO PUSH2 0x1237 JUMPI PUSH0 DUP1 REVERT JUMPDEST DUP2 CALLDATALOAD PUSH8 0xFFFFFFFFFFFFFFFF DUP2 GT ISZERO PUSH2 0x124D JUMPI PUSH0 DUP1 REVERT JUMPDEST PUSH2 0x1259 DUP5 DUP3 DUP6 ADD PUSH2 0x1137 JUMP JUMPDEST SWAP5 SWAP4 POP POP POP POP JUMP JUMPDEST PUSH0 DUP2 MLOAD DUP1 DUP5 MSTORE DUP1 PUSH1 0x20 DUP5 ADD PUSH1 0x20 DUP7 ADD MCOPY PUSH0 PUSH1 0x20 DUP3 DUP7 ADD ADD MSTORE PUSH1 0x20 PUSH1 0x1F NOT PUSH1 0x1F DUP4 ADD AND DUP6 ADD ADD SWAP2 POP POP SWAP3 SWAP2 POP POP JUMP JUMPDEST PUSH1 0x20 DUP2 MSTORE PUSH0 PUSH2 0x12A1 PUSH1 0x20 DUP4 ADD DUP5 PUSH2 0x1261 JUMP JUMPDEST SWAP4 SWAP3 POP POP POP JUMP JUMPDEST DUP1 CALLDATALOAD PUSH1 0x1 PUSH1 0x1 PUSH1 0xA0 SHL SUB DUP2 AND DUP2 EQ PUSH2 0x12BE JUMPI PUSH0 DUP1 REVERT JUMPDEST SWAP2 SWAP1 POP JUMP JUMPDEST PUSH0 DUP1 PUSH1 0x40 DUP4 DUP6 SUB SLT ISZERO PUSH2 0x12D4 JUMPI PUSH0 DUP1 REVERT JUMPDEST DUP3 CALLDATALOAD PUSH8 0xFFFFFFFFFFFFFFFF DUP2 GT ISZERO PUSH2 0x12EA JUMPI PUSH0 DUP1 REVERT JUMPDEST PUSH2 0x12F6 DUP6 DUP3 DUP7 ADD PUSH2 0x1137 JUMP JUMPDEST SWAP3 POP POP PUSH2 0x1305 PUSH1 0x20 DUP5 ADD PUSH2 0x12A8 JUMP JUMPDEST SWAP1 POP SWAP3 POP SWAP3 SWAP1 POP JUMP JUMPDEST PUSH0 PUSH1 0x20 DUP3 ADD PUSH1 0x20 DUP4 MSTORE DUP1 DUP5 MLOAD DUP1 DUP4 MSTORE PUSH1 0x40 DUP6 ADD SWAP2 POP PUSH1 0x40 DUP2 PUSH1 0x5 SHL DUP7 ADD ADD SWAP3 POP PUSH1 0x20 DUP7 ADD PUSH0 JUMPDEST DUP3 DUP2 LT ISZERO PUSH2 0x1365 JUMPI PUSH1 0x3F NOT DUP8 DUP7 SUB ADD DUP5 MSTORE PUSH2 0x1350 DUP6 DUP4 MLOAD PUSH2 0x1261 JUMP JUMPDEST SWAP5 POP PUSH1 0x20 SWAP4 DUP5 ADD SWAP4 SWAP2 SWAP1 SWAP2 ADD SWAP1 PUSH1 0x1 ADD PUSH2 0x1334 JUMP JUMPDEST POP SWAP3 SWAP7 SWAP6 POP POP POP POP POP POP JUMP JUMPDEST PUSH0 DUP1 PUSH0 PUSH1 0x60 DUP5 DUP7 SUB SLT ISZERO PUSH2 0x1383 JUMPI PUSH0 DUP1 REVERT JUMPDEST DUP4 CALLDATALOAD PUSH8 0xFFFFFFFFFFFFFFFF DUP2 GT ISZERO PUSH2 0x1399 JUMPI PUSH0 DUP1 REVERT JUMPDEST PUSH2 0x13A5 DUP7 DUP3 DUP8 ADD PUSH2 0x1137 JUMP JUMPDEST SWAP4 POP POP PUSH2 0x13B4 PUSH1 0x20 DUP6 ADD PUSH2 0x12A8 JUMP JUMPDEST SWAP2 POP PUSH1 0x40 DUP5 ADD CALLDATALOAD PUSH8 0xFFFFFFFFFFFFFFFF DUP2 GT ISZERO PUSH2 0x13CF JUMPI PUSH0 DUP1 REVERT JUMPDEST PUSH2 0x13DB DUP7 DUP3 DUP8 ADD PUSH2 0x1137 JUMP JUMPDEST SWAP2 POP POP SWAP3 POP SWAP3 POP SWAP3 JUMP JUMPDEST PUSH1 0x80 DUP2 MSTORE PUSH0 PUSH2 0x13F7 PUSH1 0x80 DUP4 ADD DUP8 PUSH2 0x1261 JUMP JUMPDEST DUP3 DUP2 SUB PUSH1 0x20 DUP5 ADD MSTORE PUSH2 0x1409 DUP2 DUP8 PUSH2 0x1261 JUMP JUMPDEST SWAP5 ISZERO ISZERO PUSH1 0x40 DUP5 ADD MSTORE POP POP PUSH1 0x1 PUSH1 0x1 PUSH1 0xA0 SHL SUB SWAP2 SWAP1 SWAP2 AND PUSH1 0x60 SWAP1 SWAP2 ADD MSTORE SWAP3 SWAP2 POP POP JUMP JUMPDEST PUSH0 DUP1 PUSH0 PUSH1 0x60 DUP5 DUP7 SUB SLT ISZERO PUSH2 0x143D JUMPI PUSH0 DUP1 REVERT JUMPDEST DUP4 CALLDATALOAD PUSH8 0xFFFFFFFFFFFFFFFF DUP2 GT ISZERO PUSH2 0x1453 JUMPI PUSH0 DUP1 REVERT JUMPDEST PUSH2 0x145F DUP7 DUP3 DUP8 ADD PUSH2 0x1137 JUMP JUMPDEST SWAP4 POP POP PUSH2 0x146E PUSH1 0x20 DUP6 ADD PUSH2 0x12A8 JUMP JUMPDEST SWAP2 POP PUSH1 0x40 DUP5 ADD CALLDATALOAD PUSH1 0xFF DUP2 AND DUP2 EQ PUSH2 0x1483 JUMPI PUSH0 DUP1 REVERT JUMPDEST DUP1 SWAP2 POP POP SWAP3 POP SWAP3 POP SWAP3 JUMP JUMPDEST PUSH0 DUP2 MLOAD DUP1 PUSH1 0x20 DUP5 ADD DUP6 MCOPY PUSH0 SWAP4 ADD SWAP3 DUP4 MSTORE POP SWAP1 SWAP2 SWAP1 POP JUMP JUMPDEST PUSH0 PUSH2 0x12A1 DUP3 DUP5 PUSH2 0x148E JUMP JUMPDEST PUSH1 0x20 DUP1 DUP3 MSTORE PUSH1 0x13 SWAP1 DUP3 ADD MSTORE PUSH19 0x119A5B1948191BD95CC81B9BDD08195E1A5CDD PUSH1 0x6A SHL PUSH1 0x40 DUP3 ADD MSTORE PUSH1 0x60 ADD SWAP1 JUMP JUMPDEST PUSH1 0x1 DUP2 DUP2 SHR SWAP1 DUP3 AND DUP1 PUSH2 0x14F1 JUMPI PUSH1 0x7F DUP3 AND SWAP2 POP JUMPDEST PUSH1 0x20 DUP3 LT DUP2 SUB PUSH2 0x589 JUMPI PUSH4 0x4E487B71 PUSH1 0xE0 SHL PUSH0 MSTORE PUSH1 0x22 PUSH1 0x4 MSTORE PUSH1 0x24 PUSH0 REVERT JUMPDEST PUSH4 0x4E487B71 PUSH1 0xE0 SHL PUSH0 MSTORE PUSH1 0x32 PUSH1 0x4 MSTORE PUSH1 0x24 PUSH0 REVERT JUMPDEST PUSH1 0x1F DUP3 GT ISZERO PUSH2 0x50B JUMPI DUP1 PUSH0 MSTORE PUSH1 0x20 PUSH0 KECCAK256 PUSH1 0x1F DUP5 ADD PUSH1 0x5 SHR DUP2 ADD PUSH1 0x20 DUP6 LT ISZERO PUSH2 0x1548 JUMPI POP DUP1 JUMPDEST PUSH1 0x1F DUP5 ADD PUSH1 0x5 SHR DUP3 ADD SWAP2 POP JUMPDEST DUP2 DUP2 LT ISZERO PUSH2 0xD81 JUMPI PUSH0 DUP2 SSTORE PUSH1 0x1 ADD PUSH2 0x1554 JUMP JUMPDEST DUP2 MLOAD PUSH8 0xFFFFFFFFFFFFFFFF DUP2 GT ISZERO PUSH2 0x1581 JUMPI PUSH2 0x1581 PUSH2 0x1123 JUMP JUMPDEST PUSH2 0x1595 DUP2 PUSH2 0x158F DUP5 SLOAD PUSH2 0x14DD JUMP JUMPDEST DUP5 PUSH2 0x1523 JUMP JUMPDEST PUSH1 0x20 PUSH1 0x1F DUP3 GT PUSH1 0x1 DUP2 EQ PUSH2 0x15CA JUMPI PUSH0 DUP4 ISZERO PUSH2 0x15B0 JUMPI POP DUP5 DUP3 ADD MLOAD JUMPDEST PUSH1 0x1 DUP5 SWAP1 SHL PUSH0 NOT PUSH1 0x3 DUP7 SWAP1 SHL SHR NOT DUP3 AND OR JUMPDEST DUP6 SSTORE POP PUSH2 0xD81 JUMP JUMPDEST PUSH0 DUP5 DUP2 MSTORE PUSH1 0x20 DUP2 KECCAK256 PUSH1 0x1F NOT DUP6 AND SWAP2 JUMPDEST DUP3 DUP2 LT ISZERO PUSH2 0x15F9 JUMPI DUP8 DUP6 ADD MLOAD DUP3 SSTORE PUSH1 0x20 SWAP5 DUP6 ADD SWAP5 PUSH1 0x1 SWAP1 SWAP3 ADD SWAP2 ADD PUSH2 0x15D9 JUMP JUMPDEST POP DUP5 DUP3 LT ISZERO PUSH2 0x1616 JUMPI DUP7 DUP5 ADD MLOAD PUSH0 NOT PUSH1 0x3 DUP8 SWAP1 SHL PUSH1 0xF8 AND SHR NOT AND DUP2 SSTORE JUMPDEST POP POP POP POP PUSH1 0x1 SWAP1 DUP2 SHL ADD SWAP1 SSTORE POP JUMP JUMPDEST PUSH0 DUP2 SLOAD PUSH2 0x1631 DUP2 PUSH2 0x14DD JUMP JUMPDEST PUSH1 0x1 DUP3 AND DUP1 ISZERO PUSH2 0x1648 JUMPI PUSH1 0x1 DUP2 EQ PUSH2 0x165D JUMPI PUSH2 0x168A JUMP JUMPDEST PUSH1 0xFF NOT DUP4 AND DUP7 MSTORE DUP2 ISZERO ISZERO DUP3 MUL DUP7 ADD SWAP4 POP PUSH2 0x168A JUMP JUMPDEST DUP5 PUSH0 MSTORE PUSH1 0x20 PUSH0 KECCAK256 PUSH0 JUMPDEST DUP4 DUP2 LT ISZERO PUSH2 0x1682 JUMPI DUP2 SLOAD DUP9 DUP3 ADD MSTORE PUSH1 0x1 SWAP1 SWAP2 ADD SWAP1 PUSH1 0x20 ADD PUSH2 0x1666 JUMP JUMPDEST POP POP DUP2 DUP7 ADD SWAP4 POP JUMPDEST POP POP POP SWAP3 SWAP2 POP POP JUMP JUMPDEST PUSH0 PUSH2 0x12A1 DUP3 DUP5 PUSH2 0x1625 JUMP JUMPDEST PUSH4 0x4E487B71 PUSH1 0xE0 SHL PUSH0 MSTORE PUSH1 0x11 PUSH1 0x4 MSTORE PUSH1 0x24 PUSH0 REVERT JUMPDEST DUP2 DUP2 SUB DUP2 DUP2 GT ISZERO PUSH2 0x16C5 JUMPI PUSH2 0x16C5 PUSH2 0x169E JUMP JUMPDEST SWAP3 SWAP2 POP POP JUMP JUMPDEST DUP2 DUP2 SUB PUSH2 0x16D6 JUMPI POP POP JUMP JUMPDEST PUSH2 0x16E0 DUP3 SLOAD PUSH2 0x14DD JUMP JUMPDEST PUSH8 0xFFFFFFFFFFFFFFFF DUP2 GT ISZERO PUSH2 0x16F8 JUMPI PUSH2 0x16F8 PUSH2 0x1123 JUMP JUMPDEST PUSH2 0x1706 DUP2 PUSH2 0x158F DUP5 SLOAD PUSH2 0x14DD JUMP JUMPDEST PUSH0 PUSH1 0x1F DUP3 GT PUSH1 0x1 DUP2 EQ PUSH2 0x1735 JUMPI PUSH0 DUP4 ISZERO PUSH2 0x15B0 JUMPI POP DUP2 DUP6 ADD SLOAD PUSH1 0x1 DUP5 SWAP1 SHL PUSH0 NOT PUSH1 0x3 DUP7 SWAP1 SHL SHR NOT DUP3 AND OR PUSH2 0x15C2 JUMP JUMPDEST PUSH0 DUP6 DUP2 MSTORE PUSH1 0x20 DUP1 DUP3 KECCAK256 DUP7 DUP4 MSTORE SWAP1 DUP3 KECCAK256 PUSH1 0x1F NOT DUP7 AND SWAP3 JUMPDEST DUP4 DUP2 LT ISZERO PUSH2 0x176B JUMPI DUP3 DUP7 ADD SLOAD DUP3 SSTORE PUSH1 0x1 SWAP6 DUP7 ADD SWAP6 SWAP1 SWAP2 ADD SWAP1 PUSH1 0x20 ADD PUSH2 0x174B JUMP JUMPDEST POP DUP6 DUP4 LT ISZERO PUSH2 0x1788 JUMPI DUP2 DUP6 ADD SLOAD PUSH0 NOT PUSH1 0x3 DUP9 SWAP1 SHL PUSH1 0xF8 AND SHR NOT AND DUP2 SSTORE JUMPDEST POP POP POP POP POP PUSH1 0x1 SWAP1 DUP2 SHL ADD SWAP1 SSTORE POP JUMP JUMPDEST PUSH4 0x4E487B71 PUSH1 0xE0 SHL PUSH0 MSTORE PUSH1 0x31 PUSH1 0x4 MSTORE PUSH1 0x24 PUSH0 REVERT JUMPDEST PUSH0 DUP2 PUSH2 0x17BA JUMPI PUSH2 0x17BA PUSH2 0x169E JUMP JUMPDEST POP PUSH0 NOT ADD SWAP1 JUMP JUMPDEST PUSH0 PUSH2 0x17CC DUP3 DUP6 PUSH2 0x1625 JUMP JUMPDEST PUSH1 0x5 PUSH1 0xF9 SHL DUP2 MSTORE PUSH2 0x17E0 PUSH1 0x1 DUP3 ADD DUP6 PUSH2 0x148E JUMP JUMPDEST SWAP6 SWAP5 POP POP POP POP POP JUMP JUMPDEST PUSH0 PUSH1 0x1 DUP3 ADD PUSH2 0x17FA JUMPI PUSH2 0x17FA PUSH2 0x169E JUMP JUMPDEST POP PUSH1 0x1 ADD SWAP1 JUMP INVALID LOG2 PUSH5 0x6970667358 0x22 SLT KECCAK256 CALLER 0xFB PUSH13 0xD139B9FC77BA75CCC302729057 PUSH22 0x908A778F556E6EED7B529A4F8CEB5A64736F6C634300 ADDMOD BYTE STOP CALLER "
		},
		"gasEstimates": {
			"creation": {
				"codeDepositCost": "1239800",
				"executionCost": "6291",
				"totalCost": "1246091"
			},
			"external": {
				"appendToFile(string,string)": "infinite",
				"changeFilePermission(string,address,uint8)": "infinite",
				"createFile(string,address,string)": "infinite",
				"deleteFile(string)": "infinite",
				"fileCount()": "2338",
				"files(string)": "infinite",
				"getFileOwner(string)": "infinite",
				"getMode(string,address)": "infinite",
				"listFiles()": "infinite",
				"readFile(string)": "infinite",
				"renameFile(string,string)": "infinite",
				"viewFilePermission(string,address)": "infinite",
				"writeFile(string,string)": "infinite"
			}
		},
		"methodIdentifiers": {
			"appendToFile(string,string)": "b6b13caa",
			"changeFilePermission(string,address,uint8)": "eceed653",
			"createFile(string,address,string)": "bc051a4d",
			"deleteFile(string)": "a9910054",
			"fileCount()": "43953519",
			"files(string)": "e7755761",
			"getFileOwner(string)": "38fa8f58",
			"getMode(string,address)": "cffa39f9",
			"listFiles()": "b033d8fa",
			"readFile(string)": "60f9bb11",
			"renameFile(string,string)": "13d4a044",
			"viewFilePermission(string,address)": "7d41216d",
			"writeFile(string,string)": "897e0a97"
		}
	},
	"abi": [
		{
			"inputs": [
				{
					"internalType": "string",
					"name": "_filename",
					"type": "string"
				},
				{
					"internalType": "string",
					"name": "_newContent",
					"type": "string"
				}
			],
			"name": "appendToFile",
			"outputs": [],
			"stateMutability": "nonpayable",
			"type": "function"
		},
		{
			"inputs": [
				{
					"internalType": "string",
					"name": "_filename",
					"type": "string"
				},
				{
					"internalType": "address",
					"name": "_addr",
					"type": "address"
				},
				{
					"internalType": "uint8",
					"name": "_mode",
					"type": "uint8"
				}
			],
			"name": "changeFilePermission",
			"outputs": [],
			"stateMutability": "nonpayable",
			"type": "function"
		},
		{
			"inputs": [
				{
					"internalType": "string",
					"name": "_filename",
					"type": "string"
				},
				{
					"internalType": "address",
					"name": "_addr",
					"type": "address"
				},
				{
					"internalType": "string",
					"name": "_content",
					"type": "string"
				}
			],
			"name": "createFile",
			"outputs": [],
			"stateMutability": "nonpayable",
			"type": "function"
		},
		{
			"inputs": [
				{
					"internalType": "string",
					"name": "_filename",
					"type": "string"
				}
			],
			"name": "deleteFile",
			"outputs": [],
			"stateMutability": "nonpayable",
			"type": "function"
		},
		{
			"inputs": [],
			"name": "fileCount",
			"outputs": [
				{
					"internalType": "uint256",
					"name": "",
					"type": "uint256"
				}
			],
			"stateMutability": "view",
			"type": "function"
		},
		{
			"inputs": [
				{
					"internalType": "string",
					"name": "",
					"type": "string"
				}
			],
			"name": "files",
			"outputs": [
				{
					"internalType": "string",
					"name": "filename",
					"type": "string"
				},
				{
					"internalType": "string",
					"name": "content",
					"type": "string"
				},
				{
					"internalType": "bool",
					"name": "exists",
					"type": "bool"
				},
				{
					"internalType": "address",
					"name": "fileOwner",
					"type": "address"
				}
			],
			"stateMutability": "view",
			"type": "function"
		},
		{
			"inputs": [
				{
					"internalType": "string",
					"name": "_filename",
					"type": "string"
				}
			],
			"name": "getFileOwner",
			"outputs": [
				{
					"internalType": "address",
					"name": "",
					"type": "address"
				}
			],
			"stateMutability": "view",
			"type": "function"
		},
		{
			"inputs": [
				{
					"internalType": "string",
					"name": "_filename",
					"type": "string"
				},
				{
					"internalType": "address",
					"name": "_addr",
					"type": "address"
				}
			],
			"name": "getMode",
			"outputs": [
				{
					"internalType": "uint8",
					"name": "",
					"type": "uint8"
				}
			],
			"stateMutability": "view",
			"type": "function"
		},
		{
			"inputs": [],
			"name": "listFiles",
			"outputs": [
				{
					"internalType": "string[]",
					"name": "",
					"type": "string[]"
				}
			],
			"stateMutability": "view",
			"type": "function"
		},
		{
			"inputs": [
				{
					"internalType": "string",
					"name": "_filename",
					"type": "string"
				}
			],
			"name": "readFile",
			"outputs": [
				{
					"internalType": "string",
					"name": "",
					"type": "string"
				}
			],
			"stateMutability": "view",
			"type": "function"
		},
		{
			"inputs": [
				{
					"internalType": "string",
					"name": "_oldName",
					"type": "string"
				},
				{
					"internalType": "string",
					"name": "_newName",
					"type": "string"
				}
			],
			"name": "renameFile",
			"outputs": [],
			"stateMutability": "nonpayable",
			"type": "function"
		},
		{
			"inputs": [
				{
					"internalType": "string",
					"name": "_filename",
					"type": "string"
				},
				{
					"internalType": "address",
					"name": "_addr",
					"type": "address"
				}
			],
			"name": "viewFilePermission",
			"outputs": [
				{
					"internalType": "string",
					"name": "",
					"type": "string"
				}
			],
			"stateMutability": "view",
			"type": "function"
		},
		{
			"inputs": [
				{
					"internalType": "string",
					"name": "_filename",
					"type": "string"
				},
				{
					"internalType": "string",
					"name": "_newContent",
					"type": "string"
				}
			],
			"name": "writeFile",
			"outputs": [],
			"stateMutability": "nonpayable",
			"type": "function"
		}
	]
}