{
	"data": {
		"bytecode": {
			"linkReferences": {},
			"object": "608060405234801561000f575f80fd5b50604051616b56380380616b5683398101604081905261002e916104a4565b604080516080810182523381525f602080830182815284518086018652600581526427bbb732b960d91b92810192909252938301819052600160608401819052835183546001600160a01b0319166001600160a01b039091161783559351909355909160029061009e90826105d8565b50606091909101516003909101805460ff1916911515919091179055335f908152600660205260408120815481546001600160a01b039091166001600160a01b031990911617815560018054908201556002808201906100fe9082610695565b506003918201549101805460ff909216151560ff199092169190911790555f805460015482526007602052604080832080546001600160a01b0319166001600160a01b039384161790559154915191169060089061015e90600290610761565b90815260405190819003602001902080546001600160a01b03929092166001600160a01b031990921691909117905560016004819055600555600b6101a382826105d8565b506040805161010081018252600160c08201818152602f60f81b60e084015282526020808301829052828401829052606083019190915282515f815290810183526080820152905160a08201906101f9906103ea565b604051809103905ff080158015610212573d5f803e3d5ffd5b506001600160a01b031690528051600c90819061022f90826105d8565b506020828101516001830155604083015160028301805460ff1916911515919091179055606083015160038301556080830151805161027492600485019201906103f7565b5060a09190910151600590910180546001600160a01b0319166001600160a01b03909216919091179055600c6012806102ad8382610695565b5060018281015490820155600280830154908201805460ff191660ff909216151591909117905560038083015490820155600480830180546102f29284019190610440565b50600591820154910180546001600160a01b0319166001600160a01b0390921691909117905560015f526018602052600c7ff3794665d3af9b6fb6f858b70185898134f96768ef31c325d52e04f0ac195a4d8061034f8382610695565b5060018281015490820155600280830154908201805460ff191660ff909216151591909117905560038083015490820155600480830180546103949284019190610440565b50600591820154910180546001600160a01b0319166001600160a01b039092169190911790556040516001906019906103cf90600c90610761565b90815260405190819003602001902055506002600a556107d2565b6118568061530083390190565b828054828255905f5260205f20908101928215610430579160200282015b82811115610430578251825591602001919060010190610415565b5061043c92915061047c565b5090565b828054828255905f5260205f20908101928215610430575f5260205f209182015b82811115610430578254825591600101919060010190610461565b5b8082111561043c575f815560010161047d565b634e487b7160e01b5f52604160045260245ffd5b5f602082840312156104b4575f80fd5b81516001600160401b038111156104c9575f80fd5b8201601f810184136104d9575f80fd5b80516001600160401b038111156104f2576104f2610490565b604051601f8201601f19908116603f011681016001600160401b038111828210171561052057610520610490565b604052818152828201602001861015610537575f80fd5b8160208401602083015e5f91810160200191909152949350505050565b600181811c9082168061056857607f821691505b60208210810361058657634e487b7160e01b5f52602260045260245ffd5b50919050565b601f8211156105d357805f5260205f20601f840160051c810160208510156105b15750805b601f840160051c820191505b818110156105d0575f81556001016105bd565b50505b505050565b81516001600160401b038111156105f1576105f1610490565b610605816105ff8454610554565b8461058c565b6020601f82116001811461063a575f83156106205750848201515b600184901b5f19600386901b1c198216175b8555506105d0565b5f84815260208120601f198516915b828110156106695787850151825560209485019460019092019101610649565b508482101561068657868401515f19600387901b60f8161c191681555b50505050600190811b01905550565b8181036106a0575050565b6106aa8254610554565b6001600160401b038111156106c1576106c1610490565b6106cf816105ff8454610554565b5f601f8211600181146106fe575f8315610620575081850154600184901b5f19600386901b1c19821617610632565b5f8581526020808220868352908220601f198616925b838110156107345782860154825560019586019590910190602001610714565b508583101561075157818501545f19600388901b60f8161c191681555b5050505050600190811b01905550565b5f80835461076e81610554565b600182168015610785576001811461079a576107c7565b60ff19831686528115158202860193506107c7565b865f5260205f205f5b838110156107bf578154888201526001909101906020016107a3565b505081860193505b509195945050505050565b614b21806107df5f395ff3fe608060405234801561000f575f80fd5b5060043610610148575f3560e01c806381ad193a116100bf578063b3b36bb311610079578063b3b36bb3146102a9578063b6b13caa146102b1578063d4eb40b0146102c4578063eb73bcef146102cc578063eceed653146102d4578063ffa52b84146102e7575f80fd5b806381ad193a1461023757806386c985061461024a578063985751881461025d5780639af2abc614610270578063a47b6cf614610283578063a991005414610296575f80fd5b806313d4a0441161011057806313d4a044146101b2578063421b2d8b146101c557806360f9bb11146101d8578063699060c3146101f857806377064bfa146102115780637d41216d14610224575f80fd5b806307973ccf1461014c5780630a5cf57c146101685780630e3c9008146101725780630fc715c3146101855780630fe579c01461019d575b5f80fd5b61015560045481565b6040519081526020015b60405180910390f35b6101706102fc565b005b610170610180366004612970565b61051b565b61018d6105d3565b60405161015f94939291906129cf565b6101a561067e565b60405161015f9190612a08565b6101706101c0366004612aa1565b610820565b6101706101d3366004612b18565b610947565b6101eb6101e6366004612970565b610b4e565b60405161015f9190612b33565b610200610c83565b60405161015f959493929190612b45565b61017061021f366004612aa1565b610d39565b6101eb610232366004612b84565b610f1a565b610170610245366004612aa1565b610fd4565b610170610258366004612970565b611144565b61017061026b366004612b18565b6113af565b61017061027e366004612970565b611591565b610170610291366004612970565b611b3b565b6101706102a4366004612970565b611cd3565b6101eb611eb7565b6101706102bf366004612aa1565b611f58565b61017061212d565b6101eb61213b565b6101706102e2366004612be0565b61214c565b6102ef6122f9565b60405161015f9190612c3f565b6013546001036103485760405162461bcd60e51b815260206004820152601260248201527110d85b9b9bdd0819195b195d19481c9bdbdd60721b60448201526064015b60405180910390fd5b601380545f90815260186020526040808220600201805460ff1916905591548152908120906103778282612792565b5f6001830181905560028301805460ff19169055600383018190556103a09060048401906127cc565b5060050180546001600160a01b03191690556040516019906103c490601290612d73565b90815260200160405180910390205f90556103e3601260030154612548565b5f5b60165481101561048f57601354601680548390811061040657610406612d7e565b905f5260205f20015403610487576016805461042490600190612da6565b8154811061043457610434612d7e565b905f5260205f2001546012600401828154811061045357610453612d7e565b5f91825260209091200155601680548061046f5761046f612db9565b600190038181905f5260205f20015f9055905561048f565b6001016103e5565b506013545f908152601860205260409020601290806104ae8382612e18565b5060018281015490820155600280830154908201805460ff191660ff909216151591909117905560038083015490820155600480830180546104f392840191906127e7565b50600591820154910180546001600160a01b0319166001600160a01b03909216919091179055565b5f60198260405161052c9190612f06565b90815260200160405180910390205490505f805b60165481101561057c57826012600401828154811061056157610561612d7e565b905f5260205f2001540361057457600191505b600101610540565b50806105c55760405162461bcd60e51b8152602060048201526018602482015277111a5c9958dd1bdc9e48191bd95cc81b9bdd08195e1a5cdd60421b604482015260640161033f565b6105ce82612548565b505050565b5f8054600154600280546001600160a01b039093169391926105f490612cd3565b80601f016020809104026020016040519081016040528092919081815260200182805461062090612cd3565b801561066b5780601f106106425761010080835404028352916020019161066b565b820191905f5260205f20905b81548152906001019060200180831161064e57829003601f168201915b5050506003909301549192505060ff1684565b60605f6004546001600160401b0381111561069b5761069b6128b4565b6040519080825280602002602001820160405280156106ff57816020015b6106ec60405180608001604052805f6001600160a01b031681526020015f8152602001606081526020015f151581525090565b8152602001906001900390816106b95790505b5090505f5b60045481101561081a575f818152600760209081526040808320546001600160a01b03908116845260068352928190208151608081018352815490941684526001810154928401929092526002820180549184019161076290612cd3565b80601f016020809104026020016040519081016040528092919081815260200182805461078e90612cd3565b80156107d95780601f106107b0576101008083540402835291602001916107d9565b820191905f5260205f20905b8154815290600101906020018083116107bc57829003601f168201915b50505091835250506003919091015460ff161515602090910152825183908390811061080757610807612d7e565b6020908102919091010152600101610704565b50919050565b6017546040516304f5281160e21b81526001600160a01b03909116906313d4a044906108529085908590600401612f11565b5f604051808303815f87803b158015610869575f80fd5b505af115801561087b573d5f803e3d5ffd5b50506013545f9081526018602052604090206012925090508061089e8382612e18565b5060018281015490820155600280830154908201805460ff191660ff909216151591909117905560038083015490820155600480830180546108e392840191906127e7565b50600591820154910180546001600160a01b0319166001600160a01b039092169190911790556040517fb754bfead0d4a97f28ed9edd53e7cd84b2dd0989a6e63fe8cf67db038cded2a39061093b9084908490612f11565b60405180910390a15050565b6001600160a01b0381165f9081526006602052604090206003015460ff16156109a85760405162461bcd60e51b81526020600482015260136024820152725573657220616c72656164792065786973747360681b604482015260640161033f565b5f6040518060800160405280836001600160a01b0316815260200160055481526020016109d660045461262b565b6040516020016109e69190612f3e565b60408051808303601f19018152918152908252600160209283018190526001600160a01b038681165f90815260068552839020855181546001600160a01b0319169216919091178155928401519083015582015191925082916002820190610a4e9082612f57565b50606091909101516003909101805460ff191691151591909117905580516020808301515f908152600790915260409081902080546001600160a01b0319166001600160a01b039093169290921790915581518183015191519091600891610ab69190612f06565b90815260200160405180910390205f6101000a8154816001600160a01b0302191690836001600160a01b03160217905550600160045f828254610af99190613009565b92505081905550600160055f828254610b129190613009565b90915550506040516001600160a01b038316907f19ef9a4877199f89440a26acb26895ec02ed86f2df1aeaa90dc18041b892f71f905f90a25050565b60175460405163cffa39f960e01b81526060915f916001600160a01b039091169063cffa39f990610b85908690339060040161301c565b602060405180830381865afa158015610ba0573d5f803e3d5ffd5b505050506040513d601f19601f82011682018060405250810190610bc49190613045565b905060018160ff161015610c0b5760405162461bcd60e51b815260206004820152600e60248201526d4e6f20726561642061636365737360901b604482015260640161033f565b6017546040516360f9bb1160e01b81526001600160a01b03909116906360f9bb1190610c3b908690600401612b33565b5f60405180830381865afa158015610c55573d5f803e3d5ffd5b505050506040513d5f823e601f3d908101601f19168201604052610c7c91908101906130ad565b9392505050565b601280548190610c9290612cd3565b80601f0160208091040260200160405190810160405280929190818152602001828054610cbe90612cd3565b8015610d095780601f10610ce057610100808354040283529160200191610d09565b820191905f5260205f20905b815481529060010190602001808311610cec57829003601f168201915b505050506001830154600284015460038501546005909501549394919360ff90911692506001600160a01b031685565b60175460405163cffa39f960e01b81525f916001600160a01b03169063cffa39f990610d6b908690339060040161301c565b602060405180830381865afa158015610d86573d5f803e3d5ffd5b505050506040513d601f19601f82011682018060405250810190610daa9190613045565b905060038160ff161015610df25760405162461bcd60e51b815260206004820152600f60248201526e4e6f2077726974652061636365737360881b604482015260640161033f565b60175460405163897e0a9760e01b81526001600160a01b039091169063897e0a9790610e249086908690600401612f11565b5f604051808303815f87803b158015610e3b575f80fd5b505af1158015610e4d573d5f803e3d5ffd5b50506013545f90815260186020526040902060129250905080610e708382612e18565b5060018281015490820155600280830154908201805460ff191660ff90921615159190911790556003808301549082015560048083018054610eb592840191906127e7565b50600591820154910180546001600160a01b0319166001600160a01b039092169190911790556040517f4441a3ec3579b92d8e6c91b65ae7da842056291f1be1cd5d64c2681da07a7cc390610f0d9085908590612f11565b60405180910390a1505050565b6001600160a01b0381165f90815260066020526040902060030154606090829060ff16610f595760405162461bcd60e51b815260040161033f906130de565b601754604051637d41216d60e01b81526001600160a01b0390911690637d41216d90610f8b908790879060040161301c565b5f60405180830381865afa158015610fa5573d5f803e3d5ffd5b505050506040513d5f823e601f3d908101601f19168201604052610fcc91908101906130ad565b949350505050565b6103e8600954106110275760405162461bcd60e51b815260206004820152601a60248201527f457863656564656420676c6f62616c2066696c65206c696d6974000000000000604482015260640161033f565b60175460405163bc051a4d60e01b81526001600160a01b039091169063bc051a4d9061105b9085903390869060040161310b565b5f604051808303815f87803b158015611072575f80fd5b505af1158015611084573d5f803e3d5ffd5b50506013545f908152601860205260409020601292509050806110a78382612e18565b5060018281015490820155600280830154908201805460ff191660ff909216151591909117905560038083015490820155600480830180546110ec92840191906127e7565b50600591820154910180546001600160a01b0319166001600160a01b039092169190911790556040517f74fdeb27b6331df438c50b6327d3b7d950c83000ca1fafb3bc9834e3ec2c7ef39061093b9084908490612f11565b6019816040516111549190612f06565b9081526040805160209281900383019020545f8181526018909352912060040154600a116111c45760405162461bcd60e51b815260206004820152601860248201527f4578636565646564206c6f63616c20646972206c696d69740000000000000000604482015260640161033f565b600a546040805160c0810182528481526020808201849052600182840152601354606083015282515f815290810183526080820152905160a082019061120990612833565b604051809103905ff080158015611222573d5f803e3d5ffd5b506001600160a01b031690525f828152601860205260409020815181906112499082612f57565b506020828101516001830155604083015160028301805460ff1916911515919091179055606083015160038301556080830151805161128e9260048501920190612840565b5060a09190910151600590910180546001600160a01b0319166001600160a01b03909216919091179055601380545f908152601860209081526040808320600a54600490910180546001810182559085529284209092019190915591548152206012806112fb8382612e18565b5060018281015490820155600280830154908201805460ff191660ff9092161515919091179055600380830154908201556004808301805461134092840191906127e7565b50600591820154910180546001600160a01b0319166001600160a01b039092169190911790555f8181526018602052604090819020905182916019916113869190612d73565b90815260405190819003602001902055600a8054905f6113a583613148565b9190505550505050565b5f546001600160a01b031633146114085760405162461bcd60e51b815260206004820152601b60248201527f596f7520617265206e6f7420746865206472697665206f776e65720000000000604482015260640161033f565b6001600160a01b0381165f90815260066020526040902060030154819060ff166114445760405162461bcd60e51b815260040161033f906130de565b336001600160a01b038316036114925760405162461bcd60e51b815260206004820152601360248201527221b0b73737ba103932b6b7bb329037bbb732b960691b604482015260640161033f565b6001600160a01b0382165f818152600660208181526040808420600181015485526007835281852080546001600160a01b03191690559490935252516008916114e091600290910190612d73565b908152604080516020928190038301902080546001600160a01b03199081169091556001600160a01b0385165f90815260069093529082208054909116815560018101829055906115346002830182612792565b50600301805460ff1916905560048054600191905f90611555908490612da6565b90915550506040516001600160a01b038316907fe9dce8c992623ce791725b21e857e33248d1f190a25b5168313420eebdaae99d905f90a25050565b6015545f90815260186020908152604080832060040180548251818502810185019093528083528594938301828280156115e857602002820191905f5260205f20905b8154815260200190600101908083116115d4575b5093945060609350859250600191505f90505b845181101561171c5760185f86838151811061161957611619612d7e565b602002602001015181526020019081526020015f205f01805461163b90612cd3565b80601f016020809104026020016040519081016040528092919081815260200182805461166790612cd3565b80156116b25780601f10611689576101008083540402835291602001916116b2565b820191905f5260205f20905b81548152906001019060200180831161169557829003601f168201915b50505050509350856040516020016116ca9190612f06565b60405160208183030381529060405280519060200120846040516020016116f19190612f06565b6040516020818303038152906040528051906020012003611714575f915061171c565b6001016115fb565b508061175f5760405162461bcd60e51b81526020600482015260126024820152714e616d65206e6f7420617661696c61626c6560701b604482015260640161033f565b5f82511180156117715750601e825111155b6117d95760405162461bcd60e51b815260206004820152603360248201527f4c656e677468206f66206e616d652073686f756c64206265206265747765656e604482015272203120746f203330206368617261637465727360681b606482015260840161033f565b60015f5b83518110156118e2575f8482815181106117f9576117f9612d7e565b01602001516001600160f81b0319169050600360fc1b811080159061182c5750603960f81b6001600160f81b0319821611155b1580156118625750604160f81b6001600160f81b03198216108015906118605750602d60f91b6001600160f81b0319821611155b155b80156118975750606160f81b6001600160f81b03198216108015906118955750603d60f91b6001600160f81b0319821611155b155b80156118b15750605f60f81b6001600160f81b0319821614155b80156118cb5750600160fd1b6001600160f81b0319821614155b156118d9575f9250506118e2565b506001016117dd565b506001811515146119705760405162461bcd60e51b815260206004820152604c60248201527f4e616d652073686f756c64206f6e6c7920636f6e7461696e20616c7068616e7560448201527f6d6572696320636861726163746572732c207768697465737061636573206f7260648201526b20756e64657273636f72657360a01b608482015260a40161033f565b6013546001036119b75760405162461bcd60e51b815260206004820152601260248201527110d85b9b9bdd081c995b985b59481c9bdbdd60721b604482015260640161033f565b6013545f90815260186020526040812080546119d290612cd3565b80601f01602080910402602001604051908101604052809291908181526020018280546119fe90612cd3565b8015611a495780601f10611a2057610100808354040283529160200191611a49565b820191905f5260205f20905b815481529060010190602001808311611a2c57829003601f168201915b50506013545f908152601860205260409020939450611a6e92508b9150839050612f57565b506013545f908152601860205260409020601280611a8c8382612e18565b5060018281015490820155600280830154908201805460ff191660ff90921615159190911790556003808301549082015560048083018054611ad192840191906127e7565b50600591820154910180546001600160a01b0319166001600160a01b039092169190911790556040517f7dba9f8c9260baa7bd3db26977bf6ea76c4204a4de5b00e1d687834960fb678090611b299083908b90612f11565b60405180910390a15050505050505050565b5f6001600160a01b0316600882604051611b559190612f06565b908152604051908190036020019020546001600160a01b031614611bb05760405162461bcd60e51b81526020600482015260126024820152714e616d65206e6f7420617661696c61626c6560701b604482015260640161033f565b335f9081526006602052604081206002018054611bcc90612cd3565b80601f0160208091040260200160405190810160405280929190818152602001828054611bf890612cd3565b8015611c435780601f10611c1a57610100808354040283529160200191611c43565b820191905f5260205f20905b815481529060010190602001808311611c2657829003601f168201915b5050335f9081526006602052604090209394505060029092019150611c6a90508382612f57565b50600881604051611c7b9190612f06565b90815260405190819003602001812080546001600160a01b031916905533907f45052326573ed191a212eeed8881bde4dca0c84b19407ecbb4ffc724ace1f10590611cc7908590612b33565b60405180910390a25050565b60175460405163071f51eb60e31b815282915f916001600160a01b03909116906338fa8f5890611d07908590600401612b33565b602060405180830381865afa158015611d22573d5f803e3d5ffd5b505050506040513d601f19601f82011682018060405250810190611d469190613160565b9050336001600160a01b03821614611da05760405162461bcd60e51b815260206004820152601a60248201527f596f7520617265206e6f74207468652066696c65206f776e6572000000000000604482015260640161033f565b601754604051632a64401560e21b81526001600160a01b039091169063a991005490611dd0908690600401612b33565b5f604051808303815f87803b158015611de7575f80fd5b505af1158015611df9573d5f803e3d5ffd5b50506013545f90815260186020526040902060129250905080611e1c8382612e18565b5060018281015490820155600280830154908201805460ff191660ff90921615159190911790556003808301549082015560048083018054611e6192840191906127e7565b50600591820154910180546001600160a01b0319166001600160a01b039092169190911790556040517f584fb2b00bcb43e608b5efabffaa6c6037e3f5fd1a3ec96ea172ada6056d617490610f0d908590612b33565b335f908152600660205260409020600201805460609190611ed790612cd3565b80601f0160208091040260200160405190810160405280929190818152602001828054611f0390612cd3565b8015611f4e5780601f10611f2557610100808354040283529160200191611f4e565b820191905f5260205f20905b815481529060010190602001808311611f3157829003601f168201915b5050505050905090565b60175460405163cffa39f960e01b81525f916001600160a01b03169063cffa39f990611f8a908690339060040161301c565b602060405180830381865afa158015611fa5573d5f803e3d5ffd5b505050506040513d601f19601f82011682018060405250810190611fc99190613045565b905060028160ff1610156120125760405162461bcd60e51b815260206004820152601060248201526f4e6f20617070656e642061636365737360801b604482015260640161033f565b601754604051635b589e5560e11b81526001600160a01b039091169063b6b13caa906120449086908690600401612f11565b5f604051808303815f87803b15801561205b575f80fd5b505af115801561206d573d5f803e3d5ffd5b50506013545f908152601860205260409020601292509050806120908382612e18565b5060018281015490820155600280830154908201805460ff191660ff909216151591909117905560038083015490820155600480830180546120d592840191906127e7565b50600591820154910180546001600160a01b0319166001600160a01b039092169190911790556040517fcee34ecf9262a89dc00b9660881b6f33b9679b279edf9369fb194621179b3ea190610f0d9085908590612f11565b60155461213990612548565b565b606060125f018054611ed790612cd3565b6001600160a01b0382165f90815260066020526040902060030154829060ff166121885760405162461bcd60e51b815260040161033f906130de565b60175460405163071f51eb60e31b815285915f916001600160a01b03909116906338fa8f58906121bc908590600401612b33565b602060405180830381865afa1580156121d7573d5f803e3d5ffd5b505050506040513d601f19601f820116820180604052508101906121fb9190613160565b9050336001600160a01b038216146122555760405162461bcd60e51b815260206004820152601a60248201527f596f7520617265206e6f74207468652066696c65206f776e6572000000000000604482015260640161033f565b60175460405163eceed65360e01b81526001600160a01b039091169063eceed653906122899089908990899060040161317b565b5f604051808303815f87803b1580156122a0575f80fd5b505af11580156122b2573d5f803e3d5ffd5b505050507f131c719b060fc000d9e012842abca32aa23d10e9329da5d8bca9ce82b47cc95f8686866040516122e99392919061317b565b60405180910390a1505050505050565b612301612879565b6016545f906001600160401b0381111561231d5761231d6128b4565b60405190808252806020026020018201604052801561235057816020015b606081526020019060019003908161233b5790505b5090505f805b6016548110156124275760185f6012600401838154811061237957612379612d7e565b5f918252602080832090910154835282019290925260400190206002015460ff16151560010361241f5760185f601260040183815481106123bc576123bc612d7e565b905f5260205f20015481526020019081526020015f205f016040516020016123e491906131b0565b60405160208183030381529060405283838151811061240557612405612d7e565b6020026020010181905250818061241b90613148565b9250505b600101612356565b505f816001600160401b03811115612441576124416128b4565b60405190808252806020026020018201604052801561247457816020015b606081526020019060019003908161245f5790505b5090505f5b828110156124c05783818151811061249357612493612d7e565b60200260200101518282815181106124ad576124ad612d7e565b6020908102919091010152600101612479565b5060175460408051635819ec7d60e11b815290515f926001600160a01b03169163b033d8fa91600480830192869291908290030181865afa158015612507573d5f803e3d5ffd5b505050506040513d5f823e601f3d908101601f1916820160405261252e91908101906131cc565b604080518082019091529283526020830152509392505050565b5f8181526018602052604090206002015460ff166125a35760405162461bcd60e51b8152602060048201526018602482015277111a5c9958dd1bdc9e48191bd95cc81b9bdd08195e1a5cdd60421b604482015260640161033f565b5f8181526018602052604090206012806125bd8382612e18565b5060018281015490820155600280830154908201805460ff191660ff9092161515919091179055600380830154908201556004808301805461260292840191906127e7565b50600591820154910180546001600160a01b0319166001600160a01b0390921691909117905550565b60605f612637836126ba565b60010190505f816001600160401b03811115612655576126556128b4565b6040519080825280601f01601f19166020018201604052801561267f576020820181803683370190505b5090508181016020015b5f19016f181899199a1a9b1b9c1cb0b131b232b360811b600a86061a8153600a850494508461268957509392505050565b5f8072184f03e93ff9f4daa797ed6e38ed64bf6a1f0160401b83106126f85772184f03e93ff9f4daa797ed6e38ed64bf6a1f0160401b830492506040015b6d04ee2d6d415b85acef81000000008310612724576d04ee2d6d415b85acef8100000000830492506020015b662386f26fc10000831061274257662386f26fc10000830492506010015b6305f5e100831061275a576305f5e100830492506008015b612710831061276e57612710830492506004015b60648310612780576064830492506002015b600a831061278c576001015b92915050565b50805461279e90612cd3565b5f825580601f106127ad575050565b601f0160209004905f5260205f20908101906127c991906128a0565b50565b5080545f8255905f5260205f20908101906127c991906128a0565b828054828255905f5260205f20908101928215612823575f5260205f209182015b82811115612823578254825591600101919060010190612808565b5061282f9291506128a0565b5090565b6118568061329683390190565b828054828255905f5260205f20908101928215612823579160200282015b8281111561282357825182559160200191906001019061285e565b60405180604001604052806002905b60608152602001906001900390816128885790505090565b5b8082111561282f575f81556001016128a1565b634e487b7160e01b5f52604160045260245ffd5b604051601f8201601f191681016001600160401b03811182821017156128f0576128f06128b4565b604052919050565b5f6001600160401b03821115612910576129106128b4565b50601f01601f191660200190565b5f82601f83011261292d575f80fd5b813561294061293b826128f8565b6128c8565b818152846020838601011115612954575f80fd5b816020850160208301375f918101602001919091529392505050565b5f60208284031215612980575f80fd5b81356001600160401b03811115612995575f80fd5b610fcc8482850161291e565b5f81518084528060208401602086015e5f602082860101526020601f19601f83011685010191505092915050565b60018060a01b0385168152836020820152608060408201525f6129f560808301856129a1565b9050821515606083015295945050505050565b5f602082016020835280845180835260408501915060408160051b8601019250602086015f5b82811015612a9557603f19878603018452815160018060a01b03815116865260208101516020870152604081015160806040880152612a7060808801826129a1565b6060928301511515979092019690965294506020938401939190910190600101612a2e565b50929695505050505050565b5f8060408385031215612ab2575f80fd5b82356001600160401b03811115612ac7575f80fd5b612ad38582860161291e565b92505060208301356001600160401b03811115612aee575f80fd5b612afa8582860161291e565b9150509250929050565b6001600160a01b03811681146127c9575f80fd5b5f60208284031215612b28575f80fd5b8135610c7c81612b04565b602081525f610c7c60208301846129a1565b60a081525f612b5760a08301886129a1565b602083019690965250921515604084015260608301919091526001600160a01b0316608090910152919050565b5f8060408385031215612b95575f80fd5b82356001600160401b03811115612baa575f80fd5b612bb68582860161291e565b9250506020830135612bc781612b04565b809150509250929050565b60ff811681146127c9575f80fd5b5f805f60608486031215612bf2575f80fd5b83356001600160401b03811115612c07575f80fd5b612c138682870161291e565b9350506020840135612c2481612b04565b91506040840135612c3481612bd2565b809150509250925092565b60208082525f906060830190830184835b6002811015612cc857858403601f19018352815180518086526020918201918087019190600582901b8801015f5b82811015612caf57601f19898303018452612c9a8286516129a1565b60209586019594909401939150600101612c7e565b5096505050602093840193929092019150600101612c50565b509195945050505050565b600181811c90821680612ce757607f821691505b60208210810361081a57634e487b7160e01b5f52602260045260245ffd5b5f8154612d1181612cd3565b600182168015612d285760018114612d3d57612d6a565b60ff1983168652811515820286019350612d6a565b845f5260205f205f5b83811015612d6257815488820152600190910190602001612d46565b505081860193505b50505092915050565b5f610c7c8284612d05565b634e487b7160e01b5f52603260045260245ffd5b634e487b7160e01b5f52601160045260245ffd5b8181038181111561278c5761278c612d92565b634e487b7160e01b5f52603160045260245ffd5b601f8211156105ce57805f5260205f20601f840160051c81016020851015612df25750805b601f840160051c820191505b81811015612e11575f8155600101612dfe565b5050505050565b818103612e23575050565b612e2d8254612cd3565b6001600160401b03811115612e4457612e446128b4565b612e5881612e528454612cd3565b84612dcd565b5f601f821160018114612e8c575f8315612e725750848201545b600184901b5f19600386901b1c198216175b855550612e11565b5f8581526020808220868352908220601f198616925b83811015612ec25782860154825560019586019590910190602001612ea2565b5085831015612edf57818501545f19600388901b60f8161c191681555b5050505050600190811b01905550565b5f81518060208401855e5f93019283525090919050565b5f610c7c8284612eef565b604081525f612f2360408301856129a1565b8281036020840152612f3581856129a1565b95945050505050565b6402ab9b2b9160dd1b81525f610c7c6005830184612eef565b81516001600160401b03811115612f7057612f706128b4565b612f7e81612e528454612cd3565b6020601f821160018114612fae575f8315612e72575081850151600184901b5f19600386901b1c19821617612e84565b5f84815260208120601f198516915b82811015612fdd5787850151825560209485019460019092019101612fbd565b5084821015612ffa57868401515f19600387901b60f8161c191681555b50505050600190811b01905550565b8082018082111561278c5761278c612d92565b604081525f61302e60408301856129a1565b905060018060a01b03831660208301529392505050565b5f60208284031215613055575f80fd5b8151610c7c81612bd2565b5f82601f83011261306f575f80fd5b815161307d61293b826128f8565b818152846020838601011115613091575f80fd5b8160208501602083015e5f918101602001919091529392505050565b5f602082840312156130bd575f80fd5b81516001600160401b038111156130d2575f80fd5b610fcc84828501613060565b602080825260139082015272155cd95c88191bd95cc81b9bdd08195e1a5cdd606a1b604082015260600190565b606081525f61311d60608301866129a1565b6001600160a01b0385166020840152828103604084015261313e81856129a1565b9695505050505050565b5f6001820161315957613159612d92565b5060010190565b5f60208284031215613170575f80fd5b8151610c7c81612b04565b606081525f61318d60608301866129a1565b6001600160a01b039490941660208301525060ff91909116604090910152919050565b5f6131bb8284612d05565b602f60f81b81526001019392505050565b5f602082840312156131dc575f80fd5b81516001600160401b038111156131f1575f80fd5b8201601f81018413613201575f80fd5b80516001600160401b0381111561321a5761321a6128b4565b8060051b61322a602082016128c8565b91825260208184018101929081019087841115613245575f80fd5b6020850192505b8383101561328a5782516001600160401b03811115613269575f80fd5b61327889602083890101613060565b8352506020928301929091019061324c565b97965050505050505056fe60806040525f80553480156011575f80fd5b506118378061001f5f395ff3fe608060405234801561000f575f80fd5b50600436106100cb575f3560e01c8063a991005411610088578063bc051a4d11610063578063bc051a4d146101ab578063cffa39f9146101be578063e7755761146101e3578063eceed65314610206575f80fd5b8063a991005414610170578063b033d8fa14610183578063b6b13caa14610198575f80fd5b806313d4a044146100cf57806338fa8f58146100e4578063439535191461011457806360f9bb111461012a5780637d41216d1461014a578063897e0a971461015d575b5f80fd5b6100e26100dd3660046111c2565b610219565b005b6100f76100f2366004611227565b610510565b6040516001600160a01b0390911681526020015b60405180910390f35b61011c5f5481565b60405190815260200161010b565b61013d610138366004611227565b61058f565b60405161010b919061128f565b61013d6101583660046112c3565b610684565b6100e261016b3660046111c2565b6107c6565b6100e261017e366004611227565b61083d565b61018b610a25565b60405161010b919061130e565b6100e26101a63660046111c2565b610af9565b6100e26101b9366004611371565b610b8e565b6101d16101cc3660046112c3565b610d88565b60405160ff909116815260200161010b565b6101f66101f1366004611227565b610e13565b60405161010b94939291906113e5565b6100e261021436600461142b565b610f60565b8160018160405161022a91906114a5565b9081526040519081900360200190206002015460ff166102655760405162461bcd60e51b815260040161025c906114b0565b60405180910390fd5b60018260405161027591906114a5565b9081526040519081900360200190206002015460ff16156102cd5760405162461bcd60e51b81526020600482015260126024820152714e616d65206e6f7420617661696c61626c6560701b604482015260640161025c565b6103af826001856040516102e191906114a5565b908152604051908190036020018120600201546001600160a01b0361010090910416906001906103129088906114a5565b9081526020016040518091039020600101805461032e906114dd565b80601f016020809104026020016040519081016040528092919081815260200182805461035a906114dd565b80156103a55780601f1061037c576101008083540402835291602001916103a5565b820191905f5260205f20905b81548152906001019060200180831161038857829003601f168201915b5050505050610b8e565b5f5b6001846040516103c191906114a5565b90815260405190819003602001902060030154811015610501575f6001856040516103ec91906114a5565b9081526020016040518091039020600301828154811061040e5761040e61150f565b5f918252602090912001546040516001600160a01b0390911691506001906104379086906114a5565b908152604051602091819003820181206003018054600180820183555f928352939091200180546001600160a01b0319166001600160a01b0385161790556104809087906114a5565b9081526040805191829003602090810183206001600160a01b0385165f9081526004909101909152205460ff16906001906104bc9087906114a5565b90815260408051602092819003830190206001600160a01b03949094165f9081526004909401909152909120805460ff191660ff9092169190911790556001016103b1565b5061050b8361083d565b505050565b5f8160018160405161052291906114a5565b9081526040519081900360200190206002015460ff166105545760405162461bcd60e51b815260040161025c906114b0565b60018360405161056491906114a5565b908152604051908190036020019020600201546001600160a01b036101009091041691505b50919050565b6060816001816040516105a291906114a5565b9081526040519081900360200190206002015460ff166105d45760405162461bcd60e51b815260040161025c906114b0565b6001836040516105e491906114a5565b90815260200160405180910390206001018054610600906114dd565b80601f016020809104026020016040519081016040528092919081815260200182805461062c906114dd565b80156106775780601f1061064e57610100808354040283529160200191610677565b820191905f5260205f20905b81548152906001019060200180831161065a57829003601f168201915b5050505050915050919050565b60608260018160405161069791906114a5565b9081526040519081900360200190206002015460ff166106c95760405162461bcd60e51b815260040161025c906114b0565b6040805160c081018252600960808201818152684e6f2061636365737360b81b60a08401528252825180840184529081526852656164206f6e6c7960b81b6020828101919091528083019190915282518084018452600d81526c14995859080988185c1c195b99609a1b8183015282840152825180840184526014815273526561642c20617070656e64202620777269746560601b9181019190915260608201529051819060019061077c9088906114a5565b90815260408051602092819003830190206001600160a01b0388165f908152600491820190935291205460ff169081106107b8576107b861150f565b602002015195945050505050565b816001816040516107d791906114a5565b9081526040519081900360200190206002015460ff166108095760405162461bcd60e51b815260040161025c906114b0565b8160018460405161081a91906114a5565b908152602001604051809103902060010190816108379190611567565b50505050565b8060018160405161084e91906114a5565b9081526040519081900360200190206002015460ff166108805760405162461bcd60e51b815260040161025c906114b0565b5f60018360405161089191906114a5565b908152604051908190036020018120600201805492151560ff19909316929092179091556001906108c39084906114a5565b9081526040519081900360200190205f6108dd8282611057565b6108ea600183015f611057565b6002820180546001600160a81b0319169055610909600383015f611091565b50505f5b600254811015610a0d578260405160200161092891906114a5565b60405160208183030381529060405280519060200120600282815481106109515761095161150f565b905f5260205f20016040516020016109699190611693565b6040516020818303038152906040528051906020012003610a055760028054610994906001906116b2565b815481106109a4576109a461150f565b905f5260205f2001600282815481106109bf576109bf61150f565b905f5260205f200190816109d391906116cb565b5060028054806109e5576109e5611798565b600190038181905f5260205f20015f6109fe9190611057565b9055610a0d565b60010161090d565b505f80549080610a1c836117ac565b91905055505050565b60606002805480602002602001604051908101604052809291908181526020015f905b82821015610af0578382905f5260205f20018054610a65906114dd565b80601f0160208091040260200160405190810160405280929190818152602001828054610a91906114dd565b8015610adc5780601f10610ab357610100808354040283529160200191610adc565b820191905f5260205f20905b815481529060010190602001808311610abf57829003601f168201915b505050505081526020019060010190610a48565b50505050905090565b81600181604051610b0a91906114a5565b9081526040519081900360200190206002015460ff16610b3c5760405162461bcd60e51b815260040161025c906114b0565b600183604051610b4c91906114a5565b908152602001604051809103902060010182604051602001610b6f9291906117c1565b60405160208183030381529060405260018460405161081a91906114a5565b5f54603211610bd55760405162461bcd60e51b8152602060048201526013602482015272115e18d95959195908199a5b19481b1a5b5a5d606a1b604482015260640161025c565b5f835111610c255760405162461bcd60e51b815260206004820152601860248201527f46696c656e616d652063616e6e6f7420626520656d7074790000000000000000604482015260640161025c565b600183604051610c3591906114a5565b9081526040519081900360200190206002015460ff1615610c8e5760405162461bcd60e51b815260206004820152601360248201527246696c6520616c72656164792065786973747360681b604482015260640161025c565b5f600184604051610c9f91906114a5565b908152604051908190036020019020905080610cbb8582611567565b5060018101610cca8382611567565b506002810180546001600160a01b038516610100026001600160a81b0319909116176001179055604080515f8152602081019182905251610d0f9160038401916110ac565b506001600160a01b0383165f9081526004820160205260408120805460ff1916600317905580549080610d41836117e9565b9091555050600280546001810182555f919091527f405787fa12a823e0f2b7631cc41b3ba8828b3321ca811111fa75cd3aa3bb5ace01610d818582611567565b5050505050565b5f82600181604051610d9a91906114a5565b9081526040519081900360200190206002015460ff16610dcc5760405162461bcd60e51b815260040161025c906114b0565b600184604051610ddc91906114a5565b90815260408051602092819003830190206001600160a01b03959095165f90815260049095019091529092205460ff169392505050565b8051602081830181018051600182529282019190930120915280548190610e39906114dd565b80601f0160208091040260200160405190810160405280929190818152602001828054610e65906114dd565b8015610eb05780601f10610e8757610100808354040283529160200191610eb0565b820191905f5260205f20905b815481529060010190602001808311610e9357829003601f168201915b505050505090806001018054610ec5906114dd565b80601f0160208091040260200160405190810160405280929190818152602001828054610ef1906114dd565b8015610f3c5780601f10610f1357610100808354040283529160200191610f3c565b820191905f5260205f20905b815481529060010190602001808311610f1f57829003601f168201915b5050506002909301549192505060ff8116906001600160a01b036101009091041684565b82600181604051610f7191906114a5565b9081526040519081900360200190206002015460ff16610fa35760405162461bcd60e51b815260040161025c906114b0565b60038260ff161115610ff75760405162461bcd60e51b815260206004820152601760248201527f496e76616c6964207065726d697373696f6e206d6f6465000000000000000000604482015260640161025c565b8160018560405161100891906114a5565b90815260200160405180910390206004015f856001600160a01b03166001600160a01b031681526020019081526020015f205f6101000a81548160ff021916908360ff16021790555050505050565b508054611063906114dd565b5f825580601f10611072575050565b601f0160209004905f5260205f209081019061108e919061110f565b50565b5080545f8255905f5260205f209081019061108e919061110f565b828054828255905f5260205f209081019282156110ff579160200282015b828111156110ff57825182546001600160a01b0319166001600160a01b039091161782556020909201916001909101906110ca565b5061110b92915061110f565b5090565b5b8082111561110b575f8155600101611110565b634e487b7160e01b5f52604160045260245ffd5b5f82601f830112611146575f80fd5b813567ffffffffffffffff81111561116057611160611123565b604051601f8201601f19908116603f0116810167ffffffffffffffff8111828210171561118f5761118f611123565b6040528181528382016020018510156111a6575f80fd5b816020850160208301375f918101602001919091529392505050565b5f80604083850312156111d3575f80fd5b823567ffffffffffffffff8111156111e9575f80fd5b6111f585828601611137565b925050602083013567ffffffffffffffff811115611211575f80fd5b61121d85828601611137565b9150509250929050565b5f60208284031215611237575f80fd5b813567ffffffffffffffff81111561124d575f80fd5b61125984828501611137565b949350505050565b5f81518084528060208401602086015e5f602082860101526020601f19601f83011685010191505092915050565b602081525f6112a16020830184611261565b9392505050565b80356001600160a01b03811681146112be575f80fd5b919050565b5f80604083850312156112d4575f80fd5b823567ffffffffffffffff8111156112ea575f80fd5b6112f685828601611137565b925050611305602084016112a8565b90509250929050565b5f602082016020835280845180835260408501915060408160051b8601019250602086015f5b8281101561136557603f19878603018452611350858351611261565b94506020938401939190910190600101611334565b50929695505050505050565b5f805f60608486031215611383575f80fd5b833567ffffffffffffffff811115611399575f80fd5b6113a586828701611137565b9350506113b4602085016112a8565b9150604084013567ffffffffffffffff8111156113cf575f80fd5b6113db86828701611137565b9150509250925092565b608081525f6113f76080830187611261565b82810360208401526114098187611261565b941515604084015250506001600160a01b039190911660609091015292915050565b5f805f6060848603121561143d575f80fd5b833567ffffffffffffffff811115611453575f80fd5b61145f86828701611137565b93505061146e602085016112a8565b9150604084013560ff81168114611483575f80fd5b809150509250925092565b5f81518060208401855e5f93019283525090919050565b5f6112a1828461148e565b602080825260139082015272119a5b1948191bd95cc81b9bdd08195e1a5cdd606a1b604082015260600190565b600181811c908216806114f157607f821691505b60208210810361058957634e487b7160e01b5f52602260045260245ffd5b634e487b7160e01b5f52603260045260245ffd5b601f82111561050b57805f5260205f20601f840160051c810160208510156115485750805b601f840160051c820191505b81811015610d81575f8155600101611554565b815167ffffffffffffffff81111561158157611581611123565b6115958161158f84546114dd565b84611523565b6020601f8211600181146115ca575f83156115b05750848201515b600184901b5f19600386901b1c198216175b855550610d81565b5f84815260208120601f198516915b828110156115f957878501518255602094850194600190920191016115d9565b508482101561161657868401515f19600387901b60f8161c191681555b50505050600190811b01905550565b5f8154611631816114dd565b600182168015611648576001811461165d5761168a565b60ff198316865281151582028601935061168a565b845f5260205f205f5b8381101561168257815488820152600190910190602001611666565b505081860193505b50505092915050565b5f6112a18284611625565b634e487b7160e01b5f52601160045260245ffd5b818103818111156116c5576116c561169e565b92915050565b8181036116d6575050565b6116e082546114dd565b67ffffffffffffffff8111156116f8576116f8611123565b6117068161158f84546114dd565b5f601f821160018114611735575f83156115b0575081850154600184901b5f19600386901b1c198216176115c2565b5f8581526020808220868352908220601f198616925b8381101561176b578286015482556001958601959091019060200161174b565b508583101561178857818501545f19600388901b60f8161c191681555b5050505050600190811b01905550565b634e487b7160e01b5f52603160045260245ffd5b5f816117ba576117ba61169e565b505f190190565b5f6117cc8285611625565b600560f91b81526117e0600182018561148e565b95945050505050565b5f600182016117fa576117fa61169e565b506001019056fea264697066735822122033fb6cd139b9fc77ba75ccc30272905775908a778f556e6eed7b529a4f8ceb5a64736f6c634300081a0033a2646970667358221220b1a4de76e08b90a1445b7cdf1ea648e36a0d8bb311577df17675afa5214fe9aa64736f6c634300081a003360806040525f80553480156011575f80fd5b506118378061001f5f395ff3fe608060405234801561000f575f80fd5b50600436106100cb575f3560e01c8063a991005411610088578063bc051a4d11610063578063bc051a4d146101ab578063cffa39f9146101be578063e7755761146101e3578063eceed65314610206575f80fd5b8063a991005414610170578063b033d8fa14610183578063b6b13caa14610198575f80fd5b806313d4a044146100cf57806338fa8f58146100e4578063439535191461011457806360f9bb111461012a5780637d41216d1461014a578063897e0a971461015d575b5f80fd5b6100e26100dd3660046111c2565b610219565b005b6100f76100f2366004611227565b610510565b6040516001600160a01b0390911681526020015b60405180910390f35b61011c5f5481565b60405190815260200161010b565b61013d610138366004611227565b61058f565b60405161010b919061128f565b61013d6101583660046112c3565b610684565b6100e261016b3660046111c2565b6107c6565b6100e261017e366004611227565b61083d565b61018b610a25565b60405161010b919061130e565b6100e26101a63660046111c2565b610af9565b6100e26101b9366004611371565b610b8e565b6101d16101cc3660046112c3565b610d88565b60405160ff909116815260200161010b565b6101f66101f1366004611227565b610e13565b60405161010b94939291906113e5565b6100e261021436600461142b565b610f60565b8160018160405161022a91906114a5565b9081526040519081900360200190206002015460ff166102655760405162461bcd60e51b815260040161025c906114b0565b60405180910390fd5b60018260405161027591906114a5565b9081526040519081900360200190206002015460ff16156102cd5760405162461bcd60e51b81526020600482015260126024820152714e616d65206e6f7420617661696c61626c6560701b604482015260640161025c565b6103af826001856040516102e191906114a5565b908152604051908190036020018120600201546001600160a01b0361010090910416906001906103129088906114a5565b9081526020016040518091039020600101805461032e906114dd565b80601f016020809104026020016040519081016040528092919081815260200182805461035a906114dd565b80156103a55780601f1061037c576101008083540402835291602001916103a5565b820191905f5260205f20905b81548152906001019060200180831161038857829003601f168201915b5050505050610b8e565b5f5b6001846040516103c191906114a5565b90815260405190819003602001902060030154811015610501575f6001856040516103ec91906114a5565b9081526020016040518091039020600301828154811061040e5761040e61150f565b5f918252602090912001546040516001600160a01b0390911691506001906104379086906114a5565b908152604051602091819003820181206003018054600180820183555f928352939091200180546001600160a01b0319166001600160a01b0385161790556104809087906114a5565b9081526040805191829003602090810183206001600160a01b0385165f9081526004909101909152205460ff16906001906104bc9087906114a5565b90815260408051602092819003830190206001600160a01b03949094165f9081526004909401909152909120805460ff191660ff9092169190911790556001016103b1565b5061050b8361083d565b505050565b5f8160018160405161052291906114a5565b9081526040519081900360200190206002015460ff166105545760405162461bcd60e51b815260040161025c906114b0565b60018360405161056491906114a5565b908152604051908190036020019020600201546001600160a01b036101009091041691505b50919050565b6060816001816040516105a291906114a5565b9081526040519081900360200190206002015460ff166105d45760405162461bcd60e51b815260040161025c906114b0565b6001836040516105e491906114a5565b90815260200160405180910390206001018054610600906114dd565b80601f016020809104026020016040519081016040528092919081815260200182805461062c906114dd565b80156106775780601f1061064e57610100808354040283529160200191610677565b820191905f5260205f20905b81548152906001019060200180831161065a57829003601f168201915b5050505050915050919050565b60608260018160405161069791906114a5565b9081526040519081900360200190206002015460ff166106c95760405162461bcd60e51b815260040161025c906114b0565b6040805160c081018252600960808201818152684e6f2061636365737360b81b60a08401528252825180840184529081526852656164206f6e6c7960b81b6020828101919091528083019190915282518084018452600d81526c14995859080988185c1c195b99609a1b8183015282840152825180840184526014815273526561642c20617070656e64202620777269746560601b9181019190915260608201529051819060019061077c9088906114a5565b90815260408051602092819003830190206001600160a01b0388165f908152600491820190935291205460ff169081106107b8576107b861150f565b602002015195945050505050565b816001816040516107d791906114a5565b9081526040519081900360200190206002015460ff166108095760405162461bcd60e51b815260040161025c906114b0565b8160018460405161081a91906114a5565b908152602001604051809103902060010190816108379190611567565b50505050565b8060018160405161084e91906114a5565b9081526040519081900360200190206002015460ff166108805760405162461bcd60e51b815260040161025c906114b0565b5f60018360405161089191906114a5565b908152604051908190036020018120600201805492151560ff19909316929092179091556001906108c39084906114a5565b9081526040519081900360200190205f6108dd8282611057565b6108ea600183015f611057565b6002820180546001600160a81b0319169055610909600383015f611091565b50505f5b600254811015610a0d578260405160200161092891906114a5565b60405160208183030381529060405280519060200120600282815481106109515761095161150f565b905f5260205f20016040516020016109699190611693565b6040516020818303038152906040528051906020012003610a055760028054610994906001906116b2565b815481106109a4576109a461150f565b905f5260205f2001600282815481106109bf576109bf61150f565b905f5260205f200190816109d391906116cb565b5060028054806109e5576109e5611798565b600190038181905f5260205f20015f6109fe9190611057565b9055610a0d565b60010161090d565b505f80549080610a1c836117ac565b91905055505050565b60606002805480602002602001604051908101604052809291908181526020015f905b82821015610af0578382905f5260205f20018054610a65906114dd565b80601f0160208091040260200160405190810160405280929190818152602001828054610a91906114dd565b8015610adc5780601f10610ab357610100808354040283529160200191610adc565b820191905f5260205f20905b815481529060010190602001808311610abf57829003601f168201915b505050505081526020019060010190610a48565b50505050905090565b81600181604051610b0a91906114a5565b9081526040519081900360200190206002015460ff16610b3c5760405162461bcd60e51b815260040161025c906114b0565b600183604051610b4c91906114a5565b908152602001604051809103902060010182604051602001610b6f9291906117c1565b60405160208183030381529060405260018460405161081a91906114a5565b5f54603211610bd55760405162461bcd60e51b8152602060048201526013602482015272115e18d95959195908199a5b19481b1a5b5a5d606a1b604482015260640161025c565b5f835111610c255760405162461bcd60e51b815260206004820152601860248201527f46696c656e616d652063616e6e6f7420626520656d7074790000000000000000604482015260640161025c565b600183604051610c3591906114a5565b9081526040519081900360200190206002015460ff1615610c8e5760405162461bcd60e51b815260206004820152601360248201527246696c6520616c72656164792065786973747360681b604482015260640161025c565b5f600184604051610c9f91906114a5565b908152604051908190036020019020905080610cbb8582611567565b5060018101610cca8382611567565b506002810180546001600160a01b038516610100026001600160a81b0319909116176001179055604080515f8152602081019182905251610d0f9160038401916110ac565b506001600160a01b0383165f9081526004820160205260408120805460ff1916600317905580549080610d41836117e9565b9091555050600280546001810182555f919091527f405787fa12a823e0f2b7631cc41b3ba8828b3321ca811111fa75cd3aa3bb5ace01610d818582611567565b5050505050565b5f82600181604051610d9a91906114a5565b9081526040519081900360200190206002015460ff16610dcc5760405162461bcd60e51b815260040161025c906114b0565b600184604051610ddc91906114a5565b90815260408051602092819003830190206001600160a01b03959095165f90815260049095019091529092205460ff169392505050565b8051602081830181018051600182529282019190930120915280548190610e39906114dd565b80601f0160208091040260200160405190810160405280929190818152602001828054610e65906114dd565b8015610eb05780601f10610e8757610100808354040283529160200191610eb0565b820191905f5260205f20905b815481529060010190602001808311610e9357829003601f168201915b505050505090806001018054610ec5906114dd565b80601f0160208091040260200160405190810160405280929190818152602001828054610ef1906114dd565b8015610f3c5780601f10610f1357610100808354040283529160200191610f3c565b820191905f5260205f20905b815481529060010190602001808311610f1f57829003601f168201915b5050506002909301549192505060ff8116906001600160a01b036101009091041684565b82600181604051610f7191906114a5565b9081526040519081900360200190206002015460ff16610fa35760405162461bcd60e51b815260040161025c906114b0565b60038260ff161115610ff75760405162461bcd60e51b815260206004820152601760248201527f496e76616c6964207065726d697373696f6e206d6f6465000000000000000000604482015260640161025c565b8160018560405161100891906114a5565b90815260200160405180910390206004015f856001600160a01b03166001600160a01b031681526020019081526020015f205f6101000a81548160ff021916908360ff16021790555050505050565b508054611063906114dd565b5f825580601f10611072575050565b601f0160209004905f5260205f209081019061108e919061110f565b50565b5080545f8255905f5260205f209081019061108e919061110f565b828054828255905f5260205f209081019282156110ff579160200282015b828111156110ff57825182546001600160a01b0319166001600160a01b039091161782556020909201916001909101906110ca565b5061110b92915061110f565b5090565b5b8082111561110b575f8155600101611110565b634e487b7160e01b5f52604160045260245ffd5b5f82601f830112611146575f80fd5b813567ffffffffffffffff81111561116057611160611123565b604051601f8201601f19908116603f0116810167ffffffffffffffff8111828210171561118f5761118f611123565b6040528181528382016020018510156111a6575f80fd5b816020850160208301375f918101602001919091529392505050565b5f80604083850312156111d3575f80fd5b823567ffffffffffffffff8111156111e9575f80fd5b6111f585828601611137565b925050602083013567ffffffffffffffff811115611211575f80fd5b61121d85828601611137565b9150509250929050565b5f60208284031215611237575f80fd5b813567ffffffffffffffff81111561124d575f80fd5b61125984828501611137565b949350505050565b5f81518084528060208401602086015e5f602082860101526020601f19601f83011685010191505092915050565b602081525f6112a16020830184611261565b9392505050565b80356001600160a01b03811681146112be575f80fd5b919050565b5f80604083850312156112d4575f80fd5b823567ffffffffffffffff8111156112ea575f80fd5b6112f685828601611137565b925050611305602084016112a8565b90509250929050565b5f602082016020835280845180835260408501915060408160051b8601019250602086015f5b8281101561136557603f19878603018452611350858351611261565b94506020938401939190910190600101611334565b50929695505050505050565b5f805f60608486031215611383575f80fd5b833567ffffffffffffffff811115611399575f80fd5b6113a586828701611137565b9350506113b4602085016112a8565b9150604084013567ffffffffffffffff8111156113cf575f80fd5b6113db86828701611137565b9150509250925092565b608081525f6113f76080830187611261565b82810360208401526114098187611261565b941515604084015250506001600160a01b039190911660609091015292915050565b5f805f6060848603121561143d575f80fd5b833567ffffffffffffffff811115611453575f80fd5b61145f86828701611137565b93505061146e602085016112a8565b9150604084013560ff81168114611483575f80fd5b809150509250925092565b5f81518060208401855e5f93019283525090919050565b5f6112a1828461148e565b602080825260139082015272119a5b1948191bd95cc81b9bdd08195e1a5cdd606a1b604082015260600190565b600181811c908216806114f157607f821691505b60208210810361058957634e487b7160e01b5f52602260045260245ffd5b634e487b7160e01b5f52603260045260245ffd5b601f82111561050b57805f5260205f20601f840160051c810160208510156115485750805b601f840160051c820191505b81811015610d81575f8155600101611554565b815167ffffffffffffffff81111561158157611581611123565b6115958161158f84546114dd565b84611523565b6020601f8211600181146115ca575f83156115b05750848201515b600184901b5f19600386901b1c198216175b855550610d81565b5f84815260208120601f198516915b828110156115f957878501518255602094850194600190920191016115d9565b508482101561161657868401515f19600387901b60f8161c191681555b50505050600190811b01905550565b5f8154611631816114dd565b600182168015611648576001811461165d5761168a565b60ff198316865281151582028601935061168a565b845f5260205f205f5b8381101561168257815488820152600190910190602001611666565b505081860193505b50505092915050565b5f6112a18284611625565b634e487b7160e01b5f52601160045260245ffd5b818103818111156116c5576116c561169e565b92915050565b8181036116d6575050565b6116e082546114dd565b67ffffffffffffffff8111156116f8576116f8611123565b6117068161158f84546114dd565b5f601f821160018114611735575f83156115b0575081850154600184901b5f19600386901b1c198216176115c2565b5f8581526020808220868352908220601f198616925b8381101561176b578286015482556001958601959091019060200161174b565b508583101561178857818501545f19600388901b60f8161c191681555b5050505050600190811b01905550565b634e487b7160e01b5f52603160045260245ffd5b5f816117ba576117ba61169e565b505f190190565b5f6117cc8285611625565b600560f91b81526117e0600182018561148e565b95945050505050565b5f600182016117fa576117fa61169e565b506001019056fea264697066735822122033fb6cd139b9fc77ba75ccc30272905775908a778f556e6eed7b529a4f8ceb5a64736f6c634300081a0033",
			"opcodes": "PUSH1 0x80 PUSH1 0x40 MSTORE CALLVALUE DUP1 ISZERO PUSH2 0xF JUMPI PUSH0 DUP1 REVERT JUMPDEST POP PUSH1 0x40 MLOAD PUSH2 0x6B56 CODESIZE SUB DUP1 PUSH2 0x6B56 DUP4 CODECOPY DUP2 ADD PUSH1 0x40 DUP2 SWAP1 MSTORE PUSH2 0x2E SWAP2 PUSH2 0x4A4 JUMP JUMPDEST PUSH1 0x40 DUP1 MLOAD PUSH1 0x80 DUP2 ADD DUP3 MSTORE CALLER DUP2 MSTORE PUSH0 PUSH1 0x20 DUP1 DUP4 ADD DUP3 DUP2 MSTORE DUP5 MLOAD DUP1 DUP7 ADD DUP7 MSTORE PUSH1 0x5 DUP2 MSTORE PUSH5 0x27BBB732B9 PUSH1 0xD9 SHL SWAP3 DUP2 ADD SWAP3 SWAP1 SWAP3 MSTORE SWAP4 DUP4 ADD DUP2 SWAP1 MSTORE PUSH1 0x1 PUSH1 0x60 DUP5 ADD DUP2 SWAP1 MSTORE DUP4 MLOAD DUP4 SLOAD PUSH1 0x1 PUSH1 0x1 PUSH1 0xA0 SHL SUB NOT AND PUSH1 0x1 PUSH1 0x1 PUSH1 0xA0 SHL SUB SWAP1 SWAP2 AND OR DUP4 SSTORE SWAP4 MLOAD SWAP1 SWAP4 SSTORE SWAP1 SWAP2 PUSH1 0x2 SWAP1 PUSH2 0x9E SWAP1 DUP3 PUSH2 0x5D8 JUMP JUMPDEST POP PUSH1 0x60 SWAP2 SWAP1 SWAP2 ADD MLOAD PUSH1 0x3 SWAP1 SWAP2 ADD DUP1 SLOAD PUSH1 0xFF NOT AND SWAP2 ISZERO ISZERO SWAP2 SWAP1 SWAP2 OR SWAP1 SSTORE CALLER PUSH0 SWAP1 DUP2 MSTORE PUSH1 0x6 PUSH1 0x20 MSTORE PUSH1 0x40 DUP2 KECCAK256 DUP2 SLOAD DUP2 SLOAD PUSH1 0x1 PUSH1 0x1 PUSH1 0xA0 SHL SUB SWAP1 SWAP2 AND PUSH1 0x1 PUSH1 0x1 PUSH1 0xA0 SHL SUB NOT SWAP1 SWAP2 AND OR DUP2 SSTORE PUSH1 0x1 DUP1 SLOAD SWAP1 DUP3 ADD SSTORE PUSH1 0x2 DUP1 DUP3 ADD SWAP1 PUSH2 0xFE SWAP1 DUP3 PUSH2 0x695 JUMP JUMPDEST POP PUSH1 0x3 SWAP2 DUP3 ADD SLOAD SWAP2 ADD DUP1 SLOAD PUSH1 0xFF SWAP1 SWAP3 AND ISZERO ISZERO PUSH1 0xFF NOT SWAP1 SWAP3 AND SWAP2 SWAP1 SWAP2 OR SWAP1 SSTORE PUSH0 DUP1 SLOAD PUSH1 0x1 SLOAD DUP3 MSTORE PUSH1 0x7 PUSH1 0x20 MSTORE PUSH1 0x40 DUP1 DUP4 KECCAK256 DUP1 SLOAD PUSH1 0x1 PUSH1 0x1 PUSH1 0xA0 SHL SUB NOT AND PUSH1 0x1 PUSH1 0x1 PUSH1 0xA0 SHL SUB SWAP4 DUP5 AND OR SWAP1 SSTORE SWAP2 SLOAD SWAP2 MLOAD SWAP2 AND SWAP1 PUSH1 0x8 SWAP1 PUSH2 0x15E SWAP1 PUSH1 0x2 SWAP1 PUSH2 0x761 JUMP JUMPDEST SWAP1 DUP2 MSTORE PUSH1 0x40 MLOAD SWAP1 DUP2 SWAP1 SUB PUSH1 0x20 ADD SWAP1 KECCAK256 DUP1 SLOAD PUSH1 0x1 PUSH1 0x1 PUSH1 0xA0 SHL SUB SWAP3 SWAP1 SWAP3 AND PUSH1 0x1 PUSH1 0x1 PUSH1 0xA0 SHL SUB NOT SWAP1 SWAP3 AND SWAP2 SWAP1 SWAP2 OR SWAP1 SSTORE PUSH1 0x1 PUSH1 0x4 DUP2 SWAP1 SSTORE PUSH1 0x5 SSTORE PUSH1 0xB PUSH2 0x1A3 DUP3 DUP3 PUSH2 0x5D8 JUMP JUMPDEST POP PUSH1 0x40 DUP1 MLOAD PUSH2 0x100 DUP2 ADD DUP3 MSTORE PUSH1 0x1 PUSH1 0xC0 DUP3 ADD DUP2 DUP2 MSTORE PUSH1 0x2F PUSH1 0xF8 SHL PUSH1 0xE0 DUP5 ADD MSTORE DUP3 MSTORE PUSH1 0x20 DUP1 DUP4 ADD DUP3 SWAP1 MSTORE DUP3 DUP5 ADD DUP3 SWAP1 MSTORE PUSH1 0x60 DUP4 ADD SWAP2 SWAP1 SWAP2 MSTORE DUP3 MLOAD PUSH0 DUP2 MSTORE SWAP1 DUP2 ADD DUP4 MSTORE PUSH1 0x80 DUP3 ADD MSTORE SWAP1 MLOAD PUSH1 0xA0 DUP3 ADD SWAP1 PUSH2 0x1F9 SWAP1 PUSH2 0x3EA JUMP JUMPDEST PUSH1 0x40 MLOAD DUP1 SWAP2 SUB SWAP1 PUSH0 CREATE DUP1 ISZERO DUP1 ISZERO PUSH2 0x212 JUMPI RETURNDATASIZE PUSH0 DUP1 RETURNDATACOPY RETURNDATASIZE PUSH0 REVERT JUMPDEST POP PUSH1 0x1 PUSH1 0x1 PUSH1 0xA0 SHL SUB AND SWAP1 MSTORE DUP1 MLOAD PUSH1 0xC SWAP1 DUP2 SWAP1 PUSH2 0x22F SWAP1 DUP3 PUSH2 0x5D8 JUMP JUMPDEST POP PUSH1 0x20 DUP3 DUP2 ADD MLOAD PUSH1 0x1 DUP4 ADD SSTORE PUSH1 0x40 DUP4 ADD MLOAD PUSH1 0x2 DUP4 ADD DUP1 SLOAD PUSH1 0xFF NOT AND SWAP2 ISZERO ISZERO SWAP2 SWAP1 SWAP2 OR SWAP1 SSTORE PUSH1 0x60 DUP4 ADD MLOAD PUSH1 0x3 DUP4 ADD SSTORE PUSH1 0x80 DUP4 ADD MLOAD DUP1 MLOAD PUSH2 0x274 SWAP3 PUSH1 0x4 DUP6 ADD SWAP3 ADD SWAP1 PUSH2 0x3F7 JUMP JUMPDEST POP PUSH1 0xA0 SWAP2 SWAP1 SWAP2 ADD MLOAD PUSH1 0x5 SWAP1 SWAP2 ADD DUP1 SLOAD PUSH1 0x1 PUSH1 0x1 PUSH1 0xA0 SHL SUB NOT AND PUSH1 0x1 PUSH1 0x1 PUSH1 0xA0 SHL SUB SWAP1 SWAP3 AND SWAP2 SWAP1 SWAP2 OR SWAP1 SSTORE PUSH1 0xC PUSH1 0x12 DUP1 PUSH2 0x2AD DUP4 DUP3 PUSH2 0x695 JUMP JUMPDEST POP PUSH1 0x1 DUP3 DUP2 ADD SLOAD SWAP1 DUP3 ADD SSTORE PUSH1 0x2 DUP1 DUP4 ADD SLOAD SWAP1 DUP3 ADD DUP1 SLOAD PUSH1 0xFF NOT AND PUSH1 0xFF SWAP1 SWAP3 AND ISZERO ISZERO SWAP2 SWAP1 SWAP2 OR SWAP1 SSTORE PUSH1 0x3 DUP1 DUP4 ADD SLOAD SWAP1 DUP3 ADD SSTORE PUSH1 0x4 DUP1 DUP4 ADD DUP1 SLOAD PUSH2 0x2F2 SWAP3 DUP5 ADD SWAP2 SWAP1 PUSH2 0x440 JUMP JUMPDEST POP PUSH1 0x5 SWAP2 DUP3 ADD SLOAD SWAP2 ADD DUP1 SLOAD PUSH1 0x1 PUSH1 0x1 PUSH1 0xA0 SHL SUB NOT AND PUSH1 0x1 PUSH1 0x1 PUSH1 0xA0 SHL SUB SWAP1 SWAP3 AND SWAP2 SWAP1 SWAP2 OR SWAP1 SSTORE PUSH1 0x1 PUSH0 MSTORE PUSH1 0x18 PUSH1 0x20 MSTORE PUSH1 0xC PUSH32 0xF3794665D3AF9B6FB6F858B70185898134F96768EF31C325D52E04F0AC195A4D DUP1 PUSH2 0x34F DUP4 DUP3 PUSH2 0x695 JUMP JUMPDEST POP PUSH1 0x1 DUP3 DUP2 ADD SLOAD SWAP1 DUP3 ADD SSTORE PUSH1 0x2 DUP1 DUP4 ADD SLOAD SWAP1 DUP3 ADD DUP1 SLOAD PUSH1 0xFF NOT AND PUSH1 0xFF SWAP1 SWAP3 AND ISZERO ISZERO SWAP2 SWAP1 SWAP2 OR SWAP1 SSTORE PUSH1 0x3 DUP1 DUP4 ADD SLOAD SWAP1 DUP3 ADD SSTORE PUSH1 0x4 DUP1 DUP4 ADD DUP1 SLOAD PUSH2 0x394 SWAP3 DUP5 ADD SWAP2 SWAP1 PUSH2 0x440 JUMP JUMPDEST POP PUSH1 0x5 SWAP2 DUP3 ADD SLOAD SWAP2 ADD DUP1 SLOAD PUSH1 0x1 PUSH1 0x1 PUSH1 0xA0 SHL SUB NOT AND PUSH1 0x1 PUSH1 0x1 PUSH1 0xA0 SHL SUB SWAP1 SWAP3 AND SWAP2 SWAP1 SWAP2 OR SWAP1 SSTORE PUSH1 0x40 MLOAD PUSH1 0x1 SWAP1 PUSH1 0x19 SWAP1 PUSH2 0x3CF SWAP1 PUSH1 0xC SWAP1 PUSH2 0x761 JUMP JUMPDEST SWAP1 DUP2 MSTORE PUSH1 0x40 MLOAD SWAP1 DUP2 SWAP1 SUB PUSH1 0x20 ADD SWAP1 KECCAK256 SSTORE POP PUSH1 0x2 PUSH1 0xA SSTORE PUSH2 0x7D2 JUMP JUMPDEST PUSH2 0x1856 DUP1 PUSH2 0x5300 DUP4 CODECOPY ADD SWAP1 JUMP JUMPDEST DUP3 DUP1 SLOAD DUP3 DUP3 SSTORE SWAP1 PUSH0 MSTORE PUSH1 0x20 PUSH0 KECCAK256 SWAP1 DUP2 ADD SWAP3 DUP3 ISZERO PUSH2 0x430 JUMPI SWAP2 PUSH1 0x20 MUL DUP3 ADD JUMPDEST DUP3 DUP2 GT ISZERO PUSH2 0x430 JUMPI DUP3 MLOAD DUP3 SSTORE SWAP2 PUSH1 0x20 ADD SWAP2 SWAP1 PUSH1 0x1 ADD SWAP1 PUSH2 0x415 JUMP JUMPDEST POP PUSH2 0x43C SWAP3 SWAP2 POP PUSH2 0x47C JUMP JUMPDEST POP SWAP1 JUMP JUMPDEST DUP3 DUP1 SLOAD DUP3 DUP3 SSTORE SWAP1 PUSH0 MSTORE PUSH1 0x20 PUSH0 KECCAK256 SWAP1 DUP2 ADD SWAP3 DUP3 ISZERO PUSH2 0x430 JUMPI PUSH0 MSTORE PUSH1 0x20 PUSH0 KECCAK256 SWAP2 DUP3 ADD JUMPDEST DUP3 DUP2 GT ISZERO PUSH2 0x430 JUMPI DUP3 SLOAD DUP3 SSTORE SWAP2 PUSH1 0x1 ADD SWAP2 SWAP1 PUSH1 0x1 ADD SWAP1 PUSH2 0x461 JUMP JUMPDEST JUMPDEST DUP1 DUP3 GT ISZERO PUSH2 0x43C JUMPI PUSH0 DUP2 SSTORE PUSH1 0x1 ADD PUSH2 0x47D JUMP JUMPDEST PUSH4 0x4E487B71 PUSH1 0xE0 SHL PUSH0 MSTORE PUSH1 0x41 PUSH1 0x4 MSTORE PUSH1 0x24 PUSH0 REVERT JUMPDEST PUSH0 PUSH1 0x20 DUP3 DUP5 SUB SLT ISZERO PUSH2 0x4B4 JUMPI PUSH0 DUP1 REVERT JUMPDEST DUP2 MLOAD PUSH1 0x1 PUSH1 0x1 PUSH1 0x40 SHL SUB DUP2 GT ISZERO PUSH2 0x4C9 JUMPI PUSH0 DUP1 REVERT JUMPDEST DUP3 ADD PUSH1 0x1F DUP2 ADD DUP5 SGT PUSH2 0x4D9 JUMPI PUSH0 DUP1 REVERT JUMPDEST DUP1 MLOAD PUSH1 0x1 PUSH1 0x1 PUSH1 0x40 SHL SUB DUP2 GT ISZERO PUSH2 0x4F2 JUMPI PUSH2 0x4F2 PUSH2 0x490 JUMP JUMPDEST PUSH1 0x40 MLOAD PUSH1 0x1F DUP3 ADD PUSH1 0x1F NOT SWAP1 DUP2 AND PUSH1 0x3F ADD AND DUP2 ADD PUSH1 0x1 PUSH1 0x1 PUSH1 0x40 SHL SUB DUP2 GT DUP3 DUP3 LT OR ISZERO PUSH2 0x520 JUMPI PUSH2 0x520 PUSH2 0x490 JUMP JUMPDEST PUSH1 0x40 MSTORE DUP2 DUP2 MSTORE DUP3 DUP3 ADD PUSH1 0x20 ADD DUP7 LT ISZERO PUSH2 0x537 JUMPI PUSH0 DUP1 REVERT JUMPDEST DUP2 PUSH1 0x20 DUP5 ADD PUSH1 0x20 DUP4 ADD MCOPY PUSH0 SWAP2 DUP2 ADD PUSH1 0x20 ADD SWAP2 SWAP1 SWAP2 MSTORE SWAP5 SWAP4 POP POP POP POP JUMP JUMPDEST PUSH1 0x1 DUP2 DUP2 SHR SWAP1 DUP3 AND DUP1 PUSH2 0x568 JUMPI PUSH1 0x7F DUP3 AND SWAP2 POP JUMPDEST PUSH1 0x20 DUP3 LT DUP2 SUB PUSH2 0x586 JUMPI PUSH4 0x4E487B71 PUSH1 0xE0 SHL PUSH0 MSTORE PUSH1 0x22 PUSH1 0x4 MSTORE PUSH1 0x24 PUSH0 REVERT JUMPDEST POP SWAP2 SWAP1 POP JUMP JUMPDEST PUSH1 0x1F DUP3 GT ISZERO PUSH2 0x5D3 JUMPI DUP1 PUSH0 MSTORE PUSH1 0x20 PUSH0 KECCAK256 PUSH1 0x1F DUP5 ADD PUSH1 0x5 SHR DUP2 ADD PUSH1 0x20 DUP6 LT ISZERO PUSH2 0x5B1 JUMPI POP DUP1 JUMPDEST PUSH1 0x1F DUP5 ADD PUSH1 0x5 SHR DUP3 ADD SWAP2 POP JUMPDEST DUP2 DUP2 LT ISZERO PUSH2 0x5D0 JUMPI PUSH0 DUP2 SSTORE PUSH1 0x1 ADD PUSH2 0x5BD JUMP JUMPDEST POP POP JUMPDEST POP POP POP JUMP JUMPDEST DUP2 MLOAD PUSH1 0x1 PUSH1 0x1 PUSH1 0x40 SHL SUB DUP2 GT ISZERO PUSH2 0x5F1 JUMPI PUSH2 0x5F1 PUSH2 0x490 JUMP JUMPDEST PUSH2 0x605 DUP2 PUSH2 0x5FF DUP5 SLOAD PUSH2 0x554 JUMP JUMPDEST DUP5 PUSH2 0x58C JUMP JUMPDEST PUSH1 0x20 PUSH1 0x1F DUP3 GT PUSH1 0x1 DUP2 EQ PUSH2 0x63A JUMPI PUSH0 DUP4 ISZERO PUSH2 0x620 JUMPI POP DUP5 DUP3 ADD MLOAD JUMPDEST PUSH1 0x1 DUP5 SWAP1 SHL PUSH0 NOT PUSH1 0x3 DUP7 SWAP1 SHL SHR NOT DUP3 AND OR JUMPDEST DUP6 SSTORE POP PUSH2 0x5D0 JUMP JUMPDEST PUSH0 DUP5 DUP2 MSTORE PUSH1 0x20 DUP2 KECCAK256 PUSH1 0x1F NOT DUP6 AND SWAP2 JUMPDEST DUP3 DUP2 LT ISZERO PUSH2 0x669 JUMPI DUP8 DUP6 ADD MLOAD DUP3 SSTORE PUSH1 0x20 SWAP5 DUP6 ADD SWAP5 PUSH1 0x1 SWAP1 SWAP3 ADD SWAP2 ADD PUSH2 0x649 JUMP JUMPDEST POP DUP5 DUP3 LT ISZERO PUSH2 0x686 JUMPI DUP7 DUP5 ADD MLOAD PUSH0 NOT PUSH1 0x3 DUP8 SWAP1 SHL PUSH1 0xF8 AND SHR NOT AND DUP2 SSTORE JUMPDEST POP POP POP POP PUSH1 0x1 SWAP1 DUP2 SHL ADD SWAP1 SSTORE POP JUMP JUMPDEST DUP2 DUP2 SUB PUSH2 0x6A0 JUMPI POP POP JUMP JUMPDEST PUSH2 0x6AA DUP3 SLOAD PUSH2 0x554 JUMP JUMPDEST PUSH1 0x1 PUSH1 0x1 PUSH1 0x40 SHL SUB DUP2 GT ISZERO PUSH2 0x6C1 JUMPI PUSH2 0x6C1 PUSH2 0x490 JUMP JUMPDEST PUSH2 0x6CF DUP2 PUSH2 0x5FF DUP5 SLOAD PUSH2 0x554 JUMP JUMPDEST PUSH0 PUSH1 0x1F DUP3 GT PUSH1 0x1 DUP2 EQ PUSH2 0x6FE JUMPI PUSH0 DUP4 ISZERO PUSH2 0x620 JUMPI POP DUP2 DUP6 ADD SLOAD PUSH1 0x1 DUP5 SWAP1 SHL PUSH0 NOT PUSH1 0x3 DUP7 SWAP1 SHL SHR NOT DUP3 AND OR PUSH2 0x632 JUMP JUMPDEST PUSH0 DUP6 DUP2 MSTORE PUSH1 0x20 DUP1 DUP3 KECCAK256 DUP7 DUP4 MSTORE SWAP1 DUP3 KECCAK256 PUSH1 0x1F NOT DUP7 AND SWAP3 JUMPDEST DUP4 DUP2 LT ISZERO PUSH2 0x734 JUMPI DUP3 DUP7 ADD SLOAD DUP3 SSTORE PUSH1 0x1 SWAP6 DUP7 ADD SWAP6 SWAP1 SWAP2 ADD SWAP1 PUSH1 0x20 ADD PUSH2 0x714 JUMP JUMPDEST POP DUP6 DUP4 LT ISZERO PUSH2 0x751 JUMPI DUP2 DUP6 ADD SLOAD PUSH0 NOT PUSH1 0x3 DUP9 SWAP1 SHL PUSH1 0xF8 AND SHR NOT AND DUP2 SSTORE JUMPDEST POP POP POP POP POP PUSH1 0x1 SWAP1 DUP2 SHL ADD SWAP1 SSTORE POP JUMP JUMPDEST PUSH0 DUP1 DUP4 SLOAD PUSH2 0x76E DUP2 PUSH2 0x554 JUMP JUMPDEST PUSH1 0x1 DUP3 AND DUP1 ISZERO PUSH2 0x785 JUMPI PUSH1 0x1 DUP2 EQ PUSH2 0x79A JUMPI PUSH2 0x7C7 JUMP JUMPDEST PUSH1 0xFF NOT DUP4 AND DUP7 MSTORE DUP2 ISZERO ISZERO DUP3 MUL DUP7 ADD SWAP4 POP PUSH2 0x7C7 JUMP JUMPDEST DUP7 PUSH0 MSTORE PUSH1 0x20 PUSH0 KECCAK256 PUSH0 JUMPDEST DUP4 DUP2 LT ISZERO PUSH2 0x7BF JUMPI DUP2 SLOAD DUP9 DUP3 ADD MSTORE PUSH1 0x1 SWAP1 SWAP2 ADD SWAP1 PUSH1 0x20 ADD PUSH2 0x7A3 JUMP JUMPDEST POP POP DUP2 DUP7 ADD SWAP4 POP JUMPDEST POP SWAP2 SWAP6 SWAP5 POP POP POP POP POP JUMP JUMPDEST PUSH2 0x4B21 DUP1 PUSH2 0x7DF PUSH0 CODECOPY PUSH0 RETURN INVALID PUSH1 0x80 PUSH1 0x40 MSTORE CALLVALUE DUP1 ISZERO PUSH2 0xF JUMPI PUSH0 DUP1 REVERT JUMPDEST POP PUSH1 0x4 CALLDATASIZE LT PUSH2 0x148 JUMPI PUSH0 CALLDATALOAD PUSH1 0xE0 SHR DUP1 PUSH4 0x81AD193A GT PUSH2 0xBF JUMPI DUP1 PUSH4 0xB3B36BB3 GT PUSH2 0x79 JUMPI DUP1 PUSH4 0xB3B36BB3 EQ PUSH2 0x2A9 JUMPI DUP1 PUSH4 0xB6B13CAA EQ PUSH2 0x2B1 JUMPI DUP1 PUSH4 0xD4EB40B0 EQ PUSH2 0x2C4 JUMPI DUP1 PUSH4 0xEB73BCEF EQ PUSH2 0x2CC JUMPI DUP1 PUSH4 0xECEED653 EQ PUSH2 0x2D4 JUMPI DUP1 PUSH4 0xFFA52B84 EQ PUSH2 0x2E7 JUMPI PUSH0 DUP1 REVERT JUMPDEST DUP1 PUSH4 0x81AD193A EQ PUSH2 0x237 JUMPI DUP1 PUSH4 0x86C98506 EQ PUSH2 0x24A JUMPI DUP1 PUSH4 0x98575188 EQ PUSH2 0x25D JUMPI DUP1 PUSH4 0x9AF2ABC6 EQ PUSH2 0x270 JUMPI DUP1 PUSH4 0xA47B6CF6 EQ PUSH2 0x283 JUMPI DUP1 PUSH4 0xA9910054 EQ PUSH2 0x296 JUMPI PUSH0 DUP1 REVERT JUMPDEST DUP1 PUSH4 0x13D4A044 GT PUSH2 0x110 JUMPI DUP1 PUSH4 0x13D4A044 EQ PUSH2 0x1B2 JUMPI DUP1 PUSH4 0x421B2D8B EQ PUSH2 0x1C5 JUMPI DUP1 PUSH4 0x60F9BB11 EQ PUSH2 0x1D8 JUMPI DUP1 PUSH4 0x699060C3 EQ PUSH2 0x1F8 JUMPI DUP1 PUSH4 0x77064BFA EQ PUSH2 0x211 JUMPI DUP1 PUSH4 0x7D41216D EQ PUSH2 0x224 JUMPI PUSH0 DUP1 REVERT JUMPDEST DUP1 PUSH4 0x7973CCF EQ PUSH2 0x14C JUMPI DUP1 PUSH4 0xA5CF57C EQ PUSH2 0x168 JUMPI DUP1 PUSH4 0xE3C9008 EQ PUSH2 0x172 JUMPI DUP1 PUSH4 0xFC715C3 EQ PUSH2 0x185 JUMPI DUP1 PUSH4 0xFE579C0 EQ PUSH2 0x19D JUMPI JUMPDEST PUSH0 DUP1 REVERT JUMPDEST PUSH2 0x155 PUSH1 0x4 SLOAD DUP2 JUMP JUMPDEST PUSH1 0x40 MLOAD SWAP1 DUP2 MSTORE PUSH1 0x20 ADD JUMPDEST PUSH1 0x40 MLOAD DUP1 SWAP2 SUB SWAP1 RETURN JUMPDEST PUSH2 0x170 PUSH2 0x2FC JUMP JUMPDEST STOP JUMPDEST PUSH2 0x170 PUSH2 0x180 CALLDATASIZE PUSH1 0x4 PUSH2 0x2970 JUMP JUMPDEST PUSH2 0x51B JUMP JUMPDEST PUSH2 0x18D PUSH2 0x5D3 JUMP JUMPDEST PUSH1 0x40 MLOAD PUSH2 0x15F SWAP5 SWAP4 SWAP3 SWAP2 SWAP1 PUSH2 0x29CF JUMP JUMPDEST PUSH2 0x1A5 PUSH2 0x67E JUMP JUMPDEST PUSH1 0x40 MLOAD PUSH2 0x15F SWAP2 SWAP1 PUSH2 0x2A08 JUMP JUMPDEST PUSH2 0x170 PUSH2 0x1C0 CALLDATASIZE PUSH1 0x4 PUSH2 0x2AA1 JUMP JUMPDEST PUSH2 0x820 JUMP JUMPDEST PUSH2 0x170 PUSH2 0x1D3 CALLDATASIZE PUSH1 0x4 PUSH2 0x2B18 JUMP JUMPDEST PUSH2 0x947 JUMP JUMPDEST PUSH2 0x1EB PUSH2 0x1E6 CALLDATASIZE PUSH1 0x4 PUSH2 0x2970 JUMP JUMPDEST PUSH2 0xB4E JUMP JUMPDEST PUSH1 0x40 MLOAD PUSH2 0x15F SWAP2 SWAP1 PUSH2 0x2B33 JUMP JUMPDEST PUSH2 0x200 PUSH2 0xC83 JUMP JUMPDEST PUSH1 0x40 MLOAD PUSH2 0x15F SWAP6 SWAP5 SWAP4 SWAP3 SWAP2 SWAP1 PUSH2 0x2B45 JUMP JUMPDEST PUSH2 0x170 PUSH2 0x21F CALLDATASIZE PUSH1 0x4 PUSH2 0x2AA1 JUMP JUMPDEST PUSH2 0xD39 JUMP JUMPDEST PUSH2 0x1EB PUSH2 0x232 CALLDATASIZE PUSH1 0x4 PUSH2 0x2B84 JUMP JUMPDEST PUSH2 0xF1A JUMP JUMPDEST PUSH2 0x170 PUSH2 0x245 CALLDATASIZE PUSH1 0x4 PUSH2 0x2AA1 JUMP JUMPDEST PUSH2 0xFD4 JUMP JUMPDEST PUSH2 0x170 PUSH2 0x258 CALLDATASIZE PUSH1 0x4 PUSH2 0x2970 JUMP JUMPDEST PUSH2 0x1144 JUMP JUMPDEST PUSH2 0x170 PUSH2 0x26B CALLDATASIZE PUSH1 0x4 PUSH2 0x2B18 JUMP JUMPDEST PUSH2 0x13AF JUMP JUMPDEST PUSH2 0x170 PUSH2 0x27E CALLDATASIZE PUSH1 0x4 PUSH2 0x2970 JUMP JUMPDEST PUSH2 0x1591 JUMP JUMPDEST PUSH2 0x170 PUSH2 0x291 CALLDATASIZE PUSH1 0x4 PUSH2 0x2970 JUMP JUMPDEST PUSH2 0x1B3B JUMP JUMPDEST PUSH2 0x170 PUSH2 0x2A4 CALLDATASIZE PUSH1 0x4 PUSH2 0x2970 JUMP JUMPDEST PUSH2 0x1CD3 JUMP JUMPDEST PUSH2 0x1EB PUSH2 0x1EB7 JUMP JUMPDEST PUSH2 0x170 PUSH2 0x2BF CALLDATASIZE PUSH1 0x4 PUSH2 0x2AA1 JUMP JUMPDEST PUSH2 0x1F58 JUMP JUMPDEST PUSH2 0x170 PUSH2 0x212D JUMP JUMPDEST PUSH2 0x1EB PUSH2 0x213B JUMP JUMPDEST PUSH2 0x170 PUSH2 0x2E2 CALLDATASIZE PUSH1 0x4 PUSH2 0x2BE0 JUMP JUMPDEST PUSH2 0x214C JUMP JUMPDEST PUSH2 0x2EF PUSH2 0x22F9 JUMP JUMPDEST PUSH1 0x40 MLOAD PUSH2 0x15F SWAP2 SWAP1 PUSH2 0x2C3F JUMP JUMPDEST PUSH1 0x13 SLOAD PUSH1 0x1 SUB PUSH2 0x348 JUMPI PUSH1 0x40 MLOAD PUSH3 0x461BCD PUSH1 0xE5 SHL DUP2 MSTORE PUSH1 0x20 PUSH1 0x4 DUP3 ADD MSTORE PUSH1 0x12 PUSH1 0x24 DUP3 ADD MSTORE PUSH18 0x10D85B9B9BDD0819195B195D19481C9BDBDD PUSH1 0x72 SHL PUSH1 0x44 DUP3 ADD MSTORE PUSH1 0x64 ADD JUMPDEST PUSH1 0x40 MLOAD DUP1 SWAP2 SUB SWAP1 REVERT JUMPDEST PUSH1 0x13 DUP1 SLOAD PUSH0 SWAP1 DUP2 MSTORE PUSH1 0x18 PUSH1 0x20 MSTORE PUSH1 0x40 DUP1 DUP3 KECCAK256 PUSH1 0x2 ADD DUP1 SLOAD PUSH1 0xFF NOT AND SWAP1 SSTORE SWAP2 SLOAD DUP2 MSTORE SWAP1 DUP2 KECCAK256 SWAP1 PUSH2 0x377 DUP3 DUP3 PUSH2 0x2792 JUMP JUMPDEST PUSH0 PUSH1 0x1 DUP4 ADD DUP2 SWAP1 SSTORE PUSH1 0x2 DUP4 ADD DUP1 SLOAD PUSH1 0xFF NOT AND SWAP1 SSTORE PUSH1 0x3 DUP4 ADD DUP2 SWAP1 SSTORE PUSH2 0x3A0 SWAP1 PUSH1 0x4 DUP5 ADD SWAP1 PUSH2 0x27CC JUMP JUMPDEST POP PUSH1 0x5 ADD DUP1 SLOAD PUSH1 0x1 PUSH1 0x1 PUSH1 0xA0 SHL SUB NOT AND SWAP1 SSTORE PUSH1 0x40 MLOAD PUSH1 0x19 SWAP1 PUSH2 0x3C4 SWAP1 PUSH1 0x12 SWAP1 PUSH2 0x2D73 JUMP JUMPDEST SWAP1 DUP2 MSTORE PUSH1 0x20 ADD PUSH1 0x40 MLOAD DUP1 SWAP2 SUB SWAP1 KECCAK256 PUSH0 SWAP1 SSTORE PUSH2 0x3E3 PUSH1 0x12 PUSH1 0x3 ADD SLOAD PUSH2 0x2548 JUMP JUMPDEST PUSH0 JUMPDEST PUSH1 0x16 SLOAD DUP2 LT ISZERO PUSH2 0x48F JUMPI PUSH1 0x13 SLOAD PUSH1 0x16 DUP1 SLOAD DUP4 SWAP1 DUP2 LT PUSH2 0x406 JUMPI PUSH2 0x406 PUSH2 0x2D7E JUMP JUMPDEST SWAP1 PUSH0 MSTORE PUSH1 0x20 PUSH0 KECCAK256 ADD SLOAD SUB PUSH2 0x487 JUMPI PUSH1 0x16 DUP1 SLOAD PUSH2 0x424 SWAP1 PUSH1 0x1 SWAP1 PUSH2 0x2DA6 JUMP JUMPDEST DUP2 SLOAD DUP2 LT PUSH2 0x434 JUMPI PUSH2 0x434 PUSH2 0x2D7E JUMP JUMPDEST SWAP1 PUSH0 MSTORE PUSH1 0x20 PUSH0 KECCAK256 ADD SLOAD PUSH1 0x12 PUSH1 0x4 ADD DUP3 DUP2 SLOAD DUP2 LT PUSH2 0x453 JUMPI PUSH2 0x453 PUSH2 0x2D7E JUMP JUMPDEST PUSH0 SWAP2 DUP3 MSTORE PUSH1 0x20 SWAP1 SWAP2 KECCAK256 ADD SSTORE PUSH1 0x16 DUP1 SLOAD DUP1 PUSH2 0x46F JUMPI PUSH2 0x46F PUSH2 0x2DB9 JUMP JUMPDEST PUSH1 0x1 SWAP1 SUB DUP2 DUP2 SWAP1 PUSH0 MSTORE PUSH1 0x20 PUSH0 KECCAK256 ADD PUSH0 SWAP1 SSTORE SWAP1 SSTORE PUSH2 0x48F JUMP JUMPDEST PUSH1 0x1 ADD PUSH2 0x3E5 JUMP JUMPDEST POP PUSH1 0x13 SLOAD PUSH0 SWAP1 DUP2 MSTORE PUSH1 0x18 PUSH1 0x20 MSTORE PUSH1 0x40 SWAP1 KECCAK256 PUSH1 0x12 SWAP1 DUP1 PUSH2 0x4AE DUP4 DUP3 PUSH2 0x2E18 JUMP JUMPDEST POP PUSH1 0x1 DUP3 DUP2 ADD SLOAD SWAP1 DUP3 ADD SSTORE PUSH1 0x2 DUP1 DUP4 ADD SLOAD SWAP1 DUP3 ADD DUP1 SLOAD PUSH1 0xFF NOT AND PUSH1 0xFF SWAP1 SWAP3 AND ISZERO ISZERO SWAP2 SWAP1 SWAP2 OR SWAP1 SSTORE PUSH1 0x3 DUP1 DUP4 ADD SLOAD SWAP1 DUP3 ADD SSTORE PUSH1 0x4 DUP1 DUP4 ADD DUP1 SLOAD PUSH2 0x4F3 SWAP3 DUP5 ADD SWAP2 SWAP1 PUSH2 0x27E7 JUMP JUMPDEST POP PUSH1 0x5 SWAP2 DUP3 ADD SLOAD SWAP2 ADD DUP1 SLOAD PUSH1 0x1 PUSH1 0x1 PUSH1 0xA0 SHL SUB NOT AND PUSH1 0x1 PUSH1 0x1 PUSH1 0xA0 SHL SUB SWAP1 SWAP3 AND SWAP2 SWAP1 SWAP2 OR SWAP1 SSTORE JUMP JUMPDEST PUSH0 PUSH1 0x19 DUP3 PUSH1 0x40 MLOAD PUSH2 0x52C SWAP2 SWAP1 PUSH2 0x2F06 JUMP JUMPDEST SWAP1 DUP2 MSTORE PUSH1 0x20 ADD PUSH1 0x40 MLOAD DUP1 SWAP2 SUB SWAP1 KECCAK256 SLOAD SWAP1 POP PUSH0 DUP1 JUMPDEST PUSH1 0x16 SLOAD DUP2 LT ISZERO PUSH2 0x57C JUMPI DUP3 PUSH1 0x12 PUSH1 0x4 ADD DUP3 DUP2 SLOAD DUP2 LT PUSH2 0x561 JUMPI PUSH2 0x561 PUSH2 0x2D7E JUMP JUMPDEST SWAP1 PUSH0 MSTORE PUSH1 0x20 PUSH0 KECCAK256 ADD SLOAD SUB PUSH2 0x574 JUMPI PUSH1 0x1 SWAP2 POP JUMPDEST PUSH1 0x1 ADD PUSH2 0x540 JUMP JUMPDEST POP DUP1 PUSH2 0x5C5 JUMPI PUSH1 0x40 MLOAD PUSH3 0x461BCD PUSH1 0xE5 SHL DUP2 MSTORE PUSH1 0x20 PUSH1 0x4 DUP3 ADD MSTORE PUSH1 0x18 PUSH1 0x24 DUP3 ADD MSTORE PUSH24 0x111A5C9958DD1BDC9E48191BD95CC81B9BDD08195E1A5CDD PUSH1 0x42 SHL PUSH1 0x44 DUP3 ADD MSTORE PUSH1 0x64 ADD PUSH2 0x33F JUMP JUMPDEST PUSH2 0x5CE DUP3 PUSH2 0x2548 JUMP JUMPDEST POP POP POP JUMP JUMPDEST PUSH0 DUP1 SLOAD PUSH1 0x1 SLOAD PUSH1 0x2 DUP1 SLOAD PUSH1 0x1 PUSH1 0x1 PUSH1 0xA0 SHL SUB SWAP1 SWAP4 AND SWAP4 SWAP2 SWAP3 PUSH2 0x5F4 SWAP1 PUSH2 0x2CD3 JUMP JUMPDEST DUP1 PUSH1 0x1F ADD PUSH1 0x20 DUP1 SWAP2 DIV MUL PUSH1 0x20 ADD PUSH1 0x40 MLOAD SWAP1 DUP2 ADD PUSH1 0x40 MSTORE DUP1 SWAP3 SWAP2 SWAP1 DUP2 DUP2 MSTORE PUSH1 0x20 ADD DUP3 DUP1 SLOAD PUSH2 0x620 SWAP1 PUSH2 0x2CD3 JUMP JUMPDEST DUP1 ISZERO PUSH2 0x66B JUMPI DUP1 PUSH1 0x1F LT PUSH2 0x642 JUMPI PUSH2 0x100 DUP1 DUP4 SLOAD DIV MUL DUP4 MSTORE SWAP2 PUSH1 0x20 ADD SWAP2 PUSH2 0x66B JUMP JUMPDEST DUP3 ADD SWAP2 SWAP1 PUSH0 MSTORE PUSH1 0x20 PUSH0 KECCAK256 SWAP1 JUMPDEST DUP2 SLOAD DUP2 MSTORE SWAP1 PUSH1 0x1 ADD SWAP1 PUSH1 0x20 ADD DUP1 DUP4 GT PUSH2 0x64E JUMPI DUP3 SWAP1 SUB PUSH1 0x1F AND DUP3 ADD SWAP2 JUMPDEST POP POP POP PUSH1 0x3 SWAP1 SWAP4 ADD SLOAD SWAP2 SWAP3 POP POP PUSH1 0xFF AND DUP5 JUMP JUMPDEST PUSH1 0x60 PUSH0 PUSH1 0x4 SLOAD PUSH1 0x1 PUSH1 0x1 PUSH1 0x40 SHL SUB DUP2 GT ISZERO PUSH2 0x69B JUMPI PUSH2 0x69B PUSH2 0x28B4 JUMP JUMPDEST PUSH1 0x40 MLOAD SWAP1 DUP1 DUP3 MSTORE DUP1 PUSH1 0x20 MUL PUSH1 0x20 ADD DUP3 ADD PUSH1 0x40 MSTORE DUP1 ISZERO PUSH2 0x6FF JUMPI DUP2 PUSH1 0x20 ADD JUMPDEST PUSH2 0x6EC PUSH1 0x40 MLOAD DUP1 PUSH1 0x80 ADD PUSH1 0x40 MSTORE DUP1 PUSH0 PUSH1 0x1 PUSH1 0x1 PUSH1 0xA0 SHL SUB AND DUP2 MSTORE PUSH1 0x20 ADD PUSH0 DUP2 MSTORE PUSH1 0x20 ADD PUSH1 0x60 DUP2 MSTORE PUSH1 0x20 ADD PUSH0 ISZERO ISZERO DUP2 MSTORE POP SWAP1 JUMP JUMPDEST DUP2 MSTORE PUSH1 0x20 ADD SWAP1 PUSH1 0x1 SWAP1 SUB SWAP1 DUP2 PUSH2 0x6B9 JUMPI SWAP1 POP JUMPDEST POP SWAP1 POP PUSH0 JUMPDEST PUSH1 0x4 SLOAD DUP2 LT ISZERO PUSH2 0x81A JUMPI PUSH0 DUP2 DUP2 MSTORE PUSH1 0x7 PUSH1 0x20 SWAP1 DUP2 MSTORE PUSH1 0x40 DUP1 DUP4 KECCAK256 SLOAD PUSH1 0x1 PUSH1 0x1 PUSH1 0xA0 SHL SUB SWAP1 DUP2 AND DUP5 MSTORE PUSH1 0x6 DUP4 MSTORE SWAP3 DUP2 SWAP1 KECCAK256 DUP2 MLOAD PUSH1 0x80 DUP2 ADD DUP4 MSTORE DUP2 SLOAD SWAP1 SWAP5 AND DUP5 MSTORE PUSH1 0x1 DUP2 ADD SLOAD SWAP3 DUP5 ADD SWAP3 SWAP1 SWAP3 MSTORE PUSH1 0x2 DUP3 ADD DUP1 SLOAD SWAP2 DUP5 ADD SWAP2 PUSH2 0x762 SWAP1 PUSH2 0x2CD3 JUMP JUMPDEST DUP1 PUSH1 0x1F ADD PUSH1 0x20 DUP1 SWAP2 DIV MUL PUSH1 0x20 ADD PUSH1 0x40 MLOAD SWAP1 DUP2 ADD PUSH1 0x40 MSTORE DUP1 SWAP3 SWAP2 SWAP1 DUP2 DUP2 MSTORE PUSH1 0x20 ADD DUP3 DUP1 SLOAD PUSH2 0x78E SWAP1 PUSH2 0x2CD3 JUMP JUMPDEST DUP1 ISZERO PUSH2 0x7D9 JUMPI DUP1 PUSH1 0x1F LT PUSH2 0x7B0 JUMPI PUSH2 0x100 DUP1 DUP4 SLOAD DIV MUL DUP4 MSTORE SWAP2 PUSH1 0x20 ADD SWAP2 PUSH2 0x7D9 JUMP JUMPDEST DUP3 ADD SWAP2 SWAP1 PUSH0 MSTORE PUSH1 0x20 PUSH0 KECCAK256 SWAP1 JUMPDEST DUP2 SLOAD DUP2 MSTORE SWAP1 PUSH1 0x1 ADD SWAP1 PUSH1 0x20 ADD DUP1 DUP4 GT PUSH2 0x7BC JUMPI DUP3 SWAP1 SUB PUSH1 0x1F AND DUP3 ADD SWAP2 JUMPDEST POP POP POP SWAP2 DUP4 MSTORE POP POP PUSH1 0x3 SWAP2 SWAP1 SWAP2 ADD SLOAD PUSH1 0xFF AND ISZERO ISZERO PUSH1 0x20 SWAP1 SWAP2 ADD MSTORE DUP3 MLOAD DUP4 SWAP1 DUP4 SWAP1 DUP2 LT PUSH2 0x807 JUMPI PUSH2 0x807 PUSH2 0x2D7E JUMP JUMPDEST PUSH1 0x20 SWAP1 DUP2 MUL SWAP2 SWAP1 SWAP2 ADD ADD MSTORE PUSH1 0x1 ADD PUSH2 0x704 JUMP JUMPDEST POP SWAP2 SWAP1 POP JUMP JUMPDEST PUSH1 0x17 SLOAD PUSH1 0x40 MLOAD PUSH4 0x4F52811 PUSH1 0xE2 SHL DUP2 MSTORE PUSH1 0x1 PUSH1 0x1 PUSH1 0xA0 SHL SUB SWAP1 SWAP2 AND SWAP1 PUSH4 0x13D4A044 SWAP1 PUSH2 0x852 SWAP1 DUP6 SWAP1 DUP6 SWAP1 PUSH1 0x4 ADD PUSH2 0x2F11 JUMP JUMPDEST PUSH0 PUSH1 0x40 MLOAD DUP1 DUP4 SUB DUP2 PUSH0 DUP8 DUP1 EXTCODESIZE ISZERO DUP1 ISZERO PUSH2 0x869 JUMPI PUSH0 DUP1 REVERT JUMPDEST POP GAS CALL ISZERO DUP1 ISZERO PUSH2 0x87B JUMPI RETURNDATASIZE PUSH0 DUP1 RETURNDATACOPY RETURNDATASIZE PUSH0 REVERT JUMPDEST POP POP PUSH1 0x13 SLOAD PUSH0 SWAP1 DUP2 MSTORE PUSH1 0x18 PUSH1 0x20 MSTORE PUSH1 0x40 SWAP1 KECCAK256 PUSH1 0x12 SWAP3 POP SWAP1 POP DUP1 PUSH2 0x89E DUP4 DUP3 PUSH2 0x2E18 JUMP JUMPDEST POP PUSH1 0x1 DUP3 DUP2 ADD SLOAD SWAP1 DUP3 ADD SSTORE PUSH1 0x2 DUP1 DUP4 ADD SLOAD SWAP1 DUP3 ADD DUP1 SLOAD PUSH1 0xFF NOT AND PUSH1 0xFF SWAP1 SWAP3 AND ISZERO ISZERO SWAP2 SWAP1 SWAP2 OR SWAP1 SSTORE PUSH1 0x3 DUP1 DUP4 ADD SLOAD SWAP1 DUP3 ADD SSTORE PUSH1 0x4 DUP1 DUP4 ADD DUP1 SLOAD PUSH2 0x8E3 SWAP3 DUP5 ADD SWAP2 SWAP1 PUSH2 0x27E7 JUMP JUMPDEST POP PUSH1 0x5 SWAP2 DUP3 ADD SLOAD SWAP2 ADD DUP1 SLOAD PUSH1 0x1 PUSH1 0x1 PUSH1 0xA0 SHL SUB NOT AND PUSH1 0x1 PUSH1 0x1 PUSH1 0xA0 SHL SUB SWAP1 SWAP3 AND SWAP2 SWAP1 SWAP2 OR SWAP1 SSTORE PUSH1 0x40 MLOAD PUSH32 0xB754BFEAD0D4A97F28ED9EDD53E7CD84B2DD0989A6E63FE8CF67DB038CDED2A3 SWAP1 PUSH2 0x93B SWAP1 DUP5 SWAP1 DUP5 SWAP1 PUSH2 0x2F11 JUMP JUMPDEST PUSH1 0x40 MLOAD DUP1 SWAP2 SUB SWAP1 LOG1 POP POP JUMP JUMPDEST PUSH1 0x1 PUSH1 0x1 PUSH1 0xA0 SHL SUB DUP2 AND PUSH0 SWAP1 DUP2 MSTORE PUSH1 0x6 PUSH1 0x20 MSTORE PUSH1 0x40 SWAP1 KECCAK256 PUSH1 0x3 ADD SLOAD PUSH1 0xFF AND ISZERO PUSH2 0x9A8 JUMPI PUSH1 0x40 MLOAD PUSH3 0x461BCD PUSH1 0xE5 SHL DUP2 MSTORE PUSH1 0x20 PUSH1 0x4 DUP3 ADD MSTORE PUSH1 0x13 PUSH1 0x24 DUP3 ADD MSTORE PUSH19 0x5573657220616C726561647920657869737473 PUSH1 0x68 SHL PUSH1 0x44 DUP3 ADD MSTORE PUSH1 0x64 ADD PUSH2 0x33F JUMP JUMPDEST PUSH0 PUSH1 0x40 MLOAD DUP1 PUSH1 0x80 ADD PUSH1 0x40 MSTORE DUP1 DUP4 PUSH1 0x1 PUSH1 0x1 PUSH1 0xA0 SHL SUB AND DUP2 MSTORE PUSH1 0x20 ADD PUSH1 0x5 SLOAD DUP2 MSTORE PUSH1 0x20 ADD PUSH2 0x9D6 PUSH1 0x4 SLOAD PUSH2 0x262B JUMP JUMPDEST PUSH1 0x40 MLOAD PUSH1 0x20 ADD PUSH2 0x9E6 SWAP2 SWAP1 PUSH2 0x2F3E JUMP JUMPDEST PUSH1 0x40 DUP1 MLOAD DUP1 DUP4 SUB PUSH1 0x1F NOT ADD DUP2 MSTORE SWAP2 DUP2 MSTORE SWAP1 DUP3 MSTORE PUSH1 0x1 PUSH1 0x20 SWAP3 DUP4 ADD DUP2 SWAP1 MSTORE PUSH1 0x1 PUSH1 0x1 PUSH1 0xA0 SHL SUB DUP7 DUP2 AND PUSH0 SWAP1 DUP2 MSTORE PUSH1 0x6 DUP6 MSTORE DUP4 SWAP1 KECCAK256 DUP6 MLOAD DUP2 SLOAD PUSH1 0x1 PUSH1 0x1 PUSH1 0xA0 SHL SUB NOT AND SWAP3 AND SWAP2 SWAP1 SWAP2 OR DUP2 SSTORE SWAP3 DUP5 ADD MLOAD SWAP1 DUP4 ADD SSTORE DUP3 ADD MLOAD SWAP2 SWAP3 POP DUP3 SWAP2 PUSH1 0x2 DUP3 ADD SWAP1 PUSH2 0xA4E SWAP1 DUP3 PUSH2 0x2F57 JUMP JUMPDEST POP PUSH1 0x60 SWAP2 SWAP1 SWAP2 ADD MLOAD PUSH1 0x3 SWAP1 SWAP2 ADD DUP1 SLOAD PUSH1 0xFF NOT AND SWAP2 ISZERO ISZERO SWAP2 SWAP1 SWAP2 OR SWAP1 SSTORE DUP1 MLOAD PUSH1 0x20 DUP1 DUP4 ADD MLOAD PUSH0 SWAP1 DUP2 MSTORE PUSH1 0x7 SWAP1 SWAP2 MSTORE PUSH1 0x40 SWAP1 DUP2 SWAP1 KECCAK256 DUP1 SLOAD PUSH1 0x1 PUSH1 0x1 PUSH1 0xA0 SHL SUB NOT AND PUSH1 0x1 PUSH1 0x1 PUSH1 0xA0 SHL SUB SWAP1 SWAP4 AND SWAP3 SWAP1 SWAP3 OR SWAP1 SWAP2 SSTORE DUP2 MLOAD DUP2 DUP4 ADD MLOAD SWAP2 MLOAD SWAP1 SWAP2 PUSH1 0x8 SWAP2 PUSH2 0xAB6 SWAP2 SWAP1 PUSH2 0x2F06 JUMP JUMPDEST SWAP1 DUP2 MSTORE PUSH1 0x20 ADD PUSH1 0x40 MLOAD DUP1 SWAP2 SUB SWAP1 KECCAK256 PUSH0 PUSH2 0x100 EXP DUP2 SLOAD DUP2 PUSH1 0x1 PUSH1 0x1 PUSH1 0xA0 SHL SUB MUL NOT AND SWAP1 DUP4 PUSH1 0x1 PUSH1 0x1 PUSH1 0xA0 SHL SUB AND MUL OR SWAP1 SSTORE POP PUSH1 0x1 PUSH1 0x4 PUSH0 DUP3 DUP3 SLOAD PUSH2 0xAF9 SWAP2 SWAP1 PUSH2 0x3009 JUMP JUMPDEST SWAP3 POP POP DUP2 SWAP1 SSTORE POP PUSH1 0x1 PUSH1 0x5 PUSH0 DUP3 DUP3 SLOAD PUSH2 0xB12 SWAP2 SWAP1 PUSH2 0x3009 JUMP JUMPDEST SWAP1 SWAP2 SSTORE POP POP PUSH1 0x40 MLOAD PUSH1 0x1 PUSH1 0x1 PUSH1 0xA0 SHL SUB DUP4 AND SWAP1 PUSH32 0x19EF9A4877199F89440A26ACB26895EC02ED86F2DF1AEAA90DC18041B892F71F SWAP1 PUSH0 SWAP1 LOG2 POP POP JUMP JUMPDEST PUSH1 0x17 SLOAD PUSH1 0x40 MLOAD PUSH4 0xCFFA39F9 PUSH1 0xE0 SHL DUP2 MSTORE PUSH1 0x60 SWAP2 PUSH0 SWAP2 PUSH1 0x1 PUSH1 0x1 PUSH1 0xA0 SHL SUB SWAP1 SWAP2 AND SWAP1 PUSH4 0xCFFA39F9 SWAP1 PUSH2 0xB85 SWAP1 DUP7 SWAP1 CALLER SWAP1 PUSH1 0x4 ADD PUSH2 0x301C JUMP JUMPDEST PUSH1 0x20 PUSH1 0x40 MLOAD DUP1 DUP4 SUB DUP2 DUP7 GAS STATICCALL ISZERO DUP1 ISZERO PUSH2 0xBA0 JUMPI RETURNDATASIZE PUSH0 DUP1 RETURNDATACOPY RETURNDATASIZE PUSH0 REVERT JUMPDEST POP POP POP POP PUSH1 0x40 MLOAD RETURNDATASIZE PUSH1 0x1F NOT PUSH1 0x1F DUP3 ADD AND DUP3 ADD DUP1 PUSH1 0x40 MSTORE POP DUP2 ADD SWAP1 PUSH2 0xBC4 SWAP2 SWAP1 PUSH2 0x3045 JUMP JUMPDEST SWAP1 POP PUSH1 0x1 DUP2 PUSH1 0xFF AND LT ISZERO PUSH2 0xC0B JUMPI PUSH1 0x40 MLOAD PUSH3 0x461BCD PUSH1 0xE5 SHL DUP2 MSTORE PUSH1 0x20 PUSH1 0x4 DUP3 ADD MSTORE PUSH1 0xE PUSH1 0x24 DUP3 ADD MSTORE PUSH14 0x4E6F207265616420616363657373 PUSH1 0x90 SHL PUSH1 0x44 DUP3 ADD MSTORE PUSH1 0x64 ADD PUSH2 0x33F JUMP JUMPDEST PUSH1 0x17 SLOAD PUSH1 0x40 MLOAD PUSH4 0x60F9BB11 PUSH1 0xE0 SHL DUP2 MSTORE PUSH1 0x1 PUSH1 0x1 PUSH1 0xA0 SHL SUB SWAP1 SWAP2 AND SWAP1 PUSH4 0x60F9BB11 SWAP1 PUSH2 0xC3B SWAP1 DUP7 SWAP1 PUSH1 0x4 ADD PUSH2 0x2B33 JUMP JUMPDEST PUSH0 PUSH1 0x40 MLOAD DUP1 DUP4 SUB DUP2 DUP7 GAS STATICCALL ISZERO DUP1 ISZERO PUSH2 0xC55 JUMPI RETURNDATASIZE PUSH0 DUP1 RETURNDATACOPY RETURNDATASIZE PUSH0 REVERT JUMPDEST POP POP POP POP PUSH1 0x40 MLOAD RETURNDATASIZE PUSH0 DUP3 RETURNDATACOPY PUSH1 0x1F RETURNDATASIZE SWAP1 DUP2 ADD PUSH1 0x1F NOT AND DUP3 ADD PUSH1 0x40 MSTORE PUSH2 0xC7C SWAP2 SWAP1 DUP2 ADD SWAP1 PUSH2 0x30AD JUMP JUMPDEST SWAP4 SWAP3 POP POP POP JUMP JUMPDEST PUSH1 0x12 DUP1 SLOAD DUP2 SWAP1 PUSH2 0xC92 SWAP1 PUSH2 0x2CD3 JUMP JUMPDEST DUP1 PUSH1 0x1F ADD PUSH1 0x20 DUP1 SWAP2 DIV MUL PUSH1 0x20 ADD PUSH1 0x40 MLOAD SWAP1 DUP2 ADD PUSH1 0x40 MSTORE DUP1 SWAP3 SWAP2 SWAP1 DUP2 DUP2 MSTORE PUSH1 0x20 ADD DUP3 DUP1 SLOAD PUSH2 0xCBE SWAP1 PUSH2 0x2CD3 JUMP JUMPDEST DUP1 ISZERO PUSH2 0xD09 JUMPI DUP1 PUSH1 0x1F LT PUSH2 0xCE0 JUMPI PUSH2 0x100 DUP1 DUP4 SLOAD DIV MUL DUP4 MSTORE SWAP2 PUSH1 0x20 ADD SWAP2 PUSH2 0xD09 JUMP JUMPDEST DUP3 ADD SWAP2 SWAP1 PUSH0 MSTORE PUSH1 0x20 PUSH0 KECCAK256 SWAP1 JUMPDEST DUP2 SLOAD DUP2 MSTORE SWAP1 PUSH1 0x1 ADD SWAP1 PUSH1 0x20 ADD DUP1 DUP4 GT PUSH2 0xCEC JUMPI DUP3 SWAP1 SUB PUSH1 0x1F AND DUP3 ADD SWAP2 JUMPDEST POP POP POP POP PUSH1 0x1 DUP4 ADD SLOAD PUSH1 0x2 DUP5 ADD SLOAD PUSH1 0x3 DUP6 ADD SLOAD PUSH1 0x5 SWAP1 SWAP6 ADD SLOAD SWAP4 SWAP5 SWAP2 SWAP4 PUSH1 0xFF SWAP1 SWAP2 AND SWAP3 POP PUSH1 0x1 PUSH1 0x1 PUSH1 0xA0 SHL SUB AND DUP6 JUMP JUMPDEST PUSH1 0x17 SLOAD PUSH1 0x40 MLOAD PUSH4 0xCFFA39F9 PUSH1 0xE0 SHL DUP2 MSTORE PUSH0 SWAP2 PUSH1 0x1 PUSH1 0x1 PUSH1 0xA0 SHL SUB AND SWAP1 PUSH4 0xCFFA39F9 SWAP1 PUSH2 0xD6B SWAP1 DUP7 SWAP1 CALLER SWAP1 PUSH1 0x4 ADD PUSH2 0x301C JUMP JUMPDEST PUSH1 0x20 PUSH1 0x40 MLOAD DUP1 DUP4 SUB DUP2 DUP7 GAS STATICCALL ISZERO DUP1 ISZERO PUSH2 0xD86 JUMPI RETURNDATASIZE PUSH0 DUP1 RETURNDATACOPY RETURNDATASIZE PUSH0 REVERT JUMPDEST POP POP POP POP PUSH1 0x40 MLOAD RETURNDATASIZE PUSH1 0x1F NOT PUSH1 0x1F DUP3 ADD AND DUP3 ADD DUP1 PUSH1 0x40 MSTORE POP DUP2 ADD SWAP1 PUSH2 0xDAA SWAP2 SWAP1 PUSH2 0x3045 JUMP JUMPDEST SWAP1 POP PUSH1 0x3 DUP2 PUSH1 0xFF AND LT ISZERO PUSH2 0xDF2 JUMPI PUSH1 0x40 MLOAD PUSH3 0x461BCD PUSH1 0xE5 SHL DUP2 MSTORE PUSH1 0x20 PUSH1 0x4 DUP3 ADD MSTORE PUSH1 0xF PUSH1 0x24 DUP3 ADD MSTORE PUSH15 0x4E6F20777269746520616363657373 PUSH1 0x88 SHL PUSH1 0x44 DUP3 ADD MSTORE PUSH1 0x64 ADD PUSH2 0x33F JUMP JUMPDEST PUSH1 0x17 SLOAD PUSH1 0x40 MLOAD PUSH4 0x897E0A97 PUSH1 0xE0 SHL DUP2 MSTORE PUSH1 0x1 PUSH1 0x1 PUSH1 0xA0 SHL SUB SWAP1 SWAP2 AND SWAP1 PUSH4 0x897E0A97 SWAP1 PUSH2 0xE24 SWAP1 DUP7 SWAP1 DUP7 SWAP1 PUSH1 0x4 ADD PUSH2 0x2F11 JUMP JUMPDEST PUSH0 PUSH1 0x40 MLOAD DUP1 DUP4 SUB DUP2 PUSH0 DUP8 DUP1 EXTCODESIZE ISZERO DUP1 ISZERO PUSH2 0xE3B JUMPI PUSH0 DUP1 REVERT JUMPDEST POP GAS CALL ISZERO DUP1 ISZERO PUSH2 0xE4D JUMPI RETURNDATASIZE PUSH0 DUP1 RETURNDATACOPY RETURNDATASIZE PUSH0 REVERT JUMPDEST POP POP PUSH1 0x13 SLOAD PUSH0 SWAP1 DUP2 MSTORE PUSH1 0x18 PUSH1 0x20 MSTORE PUSH1 0x40 SWAP1 KECCAK256 PUSH1 0x12 SWAP3 POP SWAP1 POP DUP1 PUSH2 0xE70 DUP4 DUP3 PUSH2 0x2E18 JUMP JUMPDEST POP PUSH1 0x1 DUP3 DUP2 ADD SLOAD SWAP1 DUP3 ADD SSTORE PUSH1 0x2 DUP1 DUP4 ADD SLOAD SWAP1 DUP3 ADD DUP1 SLOAD PUSH1 0xFF NOT AND PUSH1 0xFF SWAP1 SWAP3 AND ISZERO ISZERO SWAP2 SWAP1 SWAP2 OR SWAP1 SSTORE PUSH1 0x3 DUP1 DUP4 ADD SLOAD SWAP1 DUP3 ADD SSTORE PUSH1 0x4 DUP1 DUP4 ADD DUP1 SLOAD PUSH2 0xEB5 SWAP3 DUP5 ADD SWAP2 SWAP1 PUSH2 0x27E7 JUMP JUMPDEST POP PUSH1 0x5 SWAP2 DUP3 ADD SLOAD SWAP2 ADD DUP1 SLOAD PUSH1 0x1 PUSH1 0x1 PUSH1 0xA0 SHL SUB NOT AND PUSH1 0x1 PUSH1 0x1 PUSH1 0xA0 SHL SUB SWAP1 SWAP3 AND SWAP2 SWAP1 SWAP2 OR SWAP1 SSTORE PUSH1 0x40 MLOAD PUSH32 0x4441A3EC3579B92D8E6C91B65AE7DA842056291F1BE1CD5D64C2681DA07A7CC3 SWAP1 PUSH2 0xF0D SWAP1 DUP6 SWAP1 DUP6 SWAP1 PUSH2 0x2F11 JUMP JUMPDEST PUSH1 0x40 MLOAD DUP1 SWAP2 SUB SWAP1 LOG1 POP POP POP JUMP JUMPDEST PUSH1 0x1 PUSH1 0x1 PUSH1 0xA0 SHL SUB DUP2 AND PUSH0 SWAP1 DUP2 MSTORE PUSH1 0x6 PUSH1 0x20 MSTORE PUSH1 0x40 SWAP1 KECCAK256 PUSH1 0x3 ADD SLOAD PUSH1 0x60 SWAP1 DUP3 SWAP1 PUSH1 0xFF AND PUSH2 0xF59 JUMPI PUSH1 0x40 MLOAD PUSH3 0x461BCD PUSH1 0xE5 SHL DUP2 MSTORE PUSH1 0x4 ADD PUSH2 0x33F SWAP1 PUSH2 0x30DE JUMP JUMPDEST PUSH1 0x17 SLOAD PUSH1 0x40 MLOAD PUSH4 0x7D41216D PUSH1 0xE0 SHL DUP2 MSTORE PUSH1 0x1 PUSH1 0x1 PUSH1 0xA0 SHL SUB SWAP1 SWAP2 AND SWAP1 PUSH4 0x7D41216D SWAP1 PUSH2 0xF8B SWAP1 DUP8 SWAP1 DUP8 SWAP1 PUSH1 0x4 ADD PUSH2 0x301C JUMP JUMPDEST PUSH0 PUSH1 0x40 MLOAD DUP1 DUP4 SUB DUP2 DUP7 GAS STATICCALL ISZERO DUP1 ISZERO PUSH2 0xFA5 JUMPI RETURNDATASIZE PUSH0 DUP1 RETURNDATACOPY RETURNDATASIZE PUSH0 REVERT JUMPDEST POP POP POP POP PUSH1 0x40 MLOAD RETURNDATASIZE PUSH0 DUP3 RETURNDATACOPY PUSH1 0x1F RETURNDATASIZE SWAP1 DUP2 ADD PUSH1 0x1F NOT AND DUP3 ADD PUSH1 0x40 MSTORE PUSH2 0xFCC SWAP2 SWAP1 DUP2 ADD SWAP1 PUSH2 0x30AD JUMP JUMPDEST SWAP5 SWAP4 POP POP POP POP JUMP JUMPDEST PUSH2 0x3E8 PUSH1 0x9 SLOAD LT PUSH2 0x1027 JUMPI PUSH1 0x40 MLOAD PUSH3 0x461BCD PUSH1 0xE5 SHL DUP2 MSTORE PUSH1 0x20 PUSH1 0x4 DUP3 ADD MSTORE PUSH1 0x1A PUSH1 0x24 DUP3 ADD MSTORE PUSH32 0x457863656564656420676C6F62616C2066696C65206C696D6974000000000000 PUSH1 0x44 DUP3 ADD MSTORE PUSH1 0x64 ADD PUSH2 0x33F JUMP JUMPDEST PUSH1 0x17 SLOAD PUSH1 0x40 MLOAD PUSH4 0xBC051A4D PUSH1 0xE0 SHL DUP2 MSTORE PUSH1 0x1 PUSH1 0x1 PUSH1 0xA0 SHL SUB SWAP1 SWAP2 AND SWAP1 PUSH4 0xBC051A4D SWAP1 PUSH2 0x105B SWAP1 DUP6 SWAP1 CALLER SWAP1 DUP7 SWAP1 PUSH1 0x4 ADD PUSH2 0x310B JUMP JUMPDEST PUSH0 PUSH1 0x40 MLOAD DUP1 DUP4 SUB DUP2 PUSH0 DUP8 DUP1 EXTCODESIZE ISZERO DUP1 ISZERO PUSH2 0x1072 JUMPI PUSH0 DUP1 REVERT JUMPDEST POP GAS CALL ISZERO DUP1 ISZERO PUSH2 0x1084 JUMPI RETURNDATASIZE PUSH0 DUP1 RETURNDATACOPY RETURNDATASIZE PUSH0 REVERT JUMPDEST POP POP PUSH1 0x13 SLOAD PUSH0 SWAP1 DUP2 MSTORE PUSH1 0x18 PUSH1 0x20 MSTORE PUSH1 0x40 SWAP1 KECCAK256 PUSH1 0x12 SWAP3 POP SWAP1 POP DUP1 PUSH2 0x10A7 DUP4 DUP3 PUSH2 0x2E18 JUMP JUMPDEST POP PUSH1 0x1 DUP3 DUP2 ADD SLOAD SWAP1 DUP3 ADD SSTORE PUSH1 0x2 DUP1 DUP4 ADD SLOAD SWAP1 DUP3 ADD DUP1 SLOAD PUSH1 0xFF NOT AND PUSH1 0xFF SWAP1 SWAP3 AND ISZERO ISZERO SWAP2 SWAP1 SWAP2 OR SWAP1 SSTORE PUSH1 0x3 DUP1 DUP4 ADD SLOAD SWAP1 DUP3 ADD SSTORE PUSH1 0x4 DUP1 DUP4 ADD DUP1 SLOAD PUSH2 0x10EC SWAP3 DUP5 ADD SWAP2 SWAP1 PUSH2 0x27E7 JUMP JUMPDEST POP PUSH1 0x5 SWAP2 DUP3 ADD SLOAD SWAP2 ADD DUP1 SLOAD PUSH1 0x1 PUSH1 0x1 PUSH1 0xA0 SHL SUB NOT AND PUSH1 0x1 PUSH1 0x1 PUSH1 0xA0 SHL SUB SWAP1 SWAP3 AND SWAP2 SWAP1 SWAP2 OR SWAP1 SSTORE PUSH1 0x40 MLOAD PUSH32 0x74FDEB27B6331DF438C50B6327D3B7D950C83000CA1FAFB3BC9834E3EC2C7EF3 SWAP1 PUSH2 0x93B SWAP1 DUP5 SWAP1 DUP5 SWAP1 PUSH2 0x2F11 JUMP JUMPDEST PUSH1 0x19 DUP2 PUSH1 0x40 MLOAD PUSH2 0x1154 SWAP2 SWAP1 PUSH2 0x2F06 JUMP JUMPDEST SWAP1 DUP2 MSTORE PUSH1 0x40 DUP1 MLOAD PUSH1 0x20 SWAP3 DUP2 SWAP1 SUB DUP4 ADD SWAP1 KECCAK256 SLOAD PUSH0 DUP2 DUP2 MSTORE PUSH1 0x18 SWAP1 SWAP4 MSTORE SWAP2 KECCAK256 PUSH1 0x4 ADD SLOAD PUSH1 0xA GT PUSH2 0x11C4 JUMPI PUSH1 0x40 MLOAD PUSH3 0x461BCD PUSH1 0xE5 SHL DUP2 MSTORE PUSH1 0x20 PUSH1 0x4 DUP3 ADD MSTORE PUSH1 0x18 PUSH1 0x24 DUP3 ADD MSTORE PUSH32 0x4578636565646564206C6F63616C20646972206C696D69740000000000000000 PUSH1 0x44 DUP3 ADD MSTORE PUSH1 0x64 ADD PUSH2 0x33F JUMP JUMPDEST PUSH1 0xA SLOAD PUSH1 0x40 DUP1 MLOAD PUSH1 0xC0 DUP2 ADD DUP3 MSTORE DUP5 DUP2 MSTORE PUSH1 0x20 DUP1 DUP3 ADD DUP5 SWAP1 MSTORE PUSH1 0x1 DUP3 DUP5 ADD MSTORE PUSH1 0x13 SLOAD PUSH1 0x60 DUP4 ADD MSTORE DUP3 MLOAD PUSH0 DUP2 MSTORE SWAP1 DUP2 ADD DUP4 MSTORE PUSH1 0x80 DUP3 ADD MSTORE SWAP1 MLOAD PUSH1 0xA0 DUP3 ADD SWAP1 PUSH2 0x1209 SWAP1 PUSH2 0x2833 JUMP JUMPDEST PUSH1 0x40 MLOAD DUP1 SWAP2 SUB SWAP1 PUSH0 CREATE DUP1 ISZERO DUP1 ISZERO PUSH2 0x1222 JUMPI RETURNDATASIZE PUSH0 DUP1 RETURNDATACOPY RETURNDATASIZE PUSH0 REVERT JUMPDEST POP PUSH1 0x1 PUSH1 0x1 PUSH1 0xA0 SHL SUB AND SWAP1 MSTORE PUSH0 DUP3 DUP2 MSTORE PUSH1 0x18 PUSH1 0x20 MSTORE PUSH1 0x40 SWAP1 KECCAK256 DUP2 MLOAD DUP2 SWAP1 PUSH2 0x1249 SWAP1 DUP3 PUSH2 0x2F57 JUMP JUMPDEST POP PUSH1 0x20 DUP3 DUP2 ADD MLOAD PUSH1 0x1 DUP4 ADD SSTORE PUSH1 0x40 DUP4 ADD MLOAD PUSH1 0x2 DUP4 ADD DUP1 SLOAD PUSH1 0xFF NOT AND SWAP2 ISZERO ISZERO SWAP2 SWAP1 SWAP2 OR SWAP1 SSTORE PUSH1 0x60 DUP4 ADD MLOAD PUSH1 0x3 DUP4 ADD SSTORE PUSH1 0x80 DUP4 ADD MLOAD DUP1 MLOAD PUSH2 0x128E SWAP3 PUSH1 0x4 DUP6 ADD SWAP3 ADD SWAP1 PUSH2 0x2840 JUMP JUMPDEST POP PUSH1 0xA0 SWAP2 SWAP1 SWAP2 ADD MLOAD PUSH1 0x5 SWAP1 SWAP2 ADD DUP1 SLOAD PUSH1 0x1 PUSH1 0x1 PUSH1 0xA0 SHL SUB NOT AND PUSH1 0x1 PUSH1 0x1 PUSH1 0xA0 SHL SUB SWAP1 SWAP3 AND SWAP2 SWAP1 SWAP2 OR SWAP1 SSTORE PUSH1 0x13 DUP1 SLOAD PUSH0 SWAP1 DUP2 MSTORE PUSH1 0x18 PUSH1 0x20 SWAP1 DUP2 MSTORE PUSH1 0x40 DUP1 DUP4 KECCAK256 PUSH1 0xA SLOAD PUSH1 0x4 SWAP1 SWAP2 ADD DUP1 SLOAD PUSH1 0x1 DUP2 ADD DUP3 SSTORE SWAP1 DUP6 MSTORE SWAP3 DUP5 KECCAK256 SWAP1 SWAP3 ADD SWAP2 SWAP1 SWAP2 SSTORE SWAP2 SLOAD DUP2 MSTORE KECCAK256 PUSH1 0x12 DUP1 PUSH2 0x12FB DUP4 DUP3 PUSH2 0x2E18 JUMP JUMPDEST POP PUSH1 0x1 DUP3 DUP2 ADD SLOAD SWAP1 DUP3 ADD SSTORE PUSH1 0x2 DUP1 DUP4 ADD SLOAD SWAP1 DUP3 ADD DUP1 SLOAD PUSH1 0xFF NOT AND PUSH1 0xFF SWAP1 SWAP3 AND ISZERO ISZERO SWAP2 SWAP1 SWAP2 OR SWAP1 SSTORE PUSH1 0x3 DUP1 DUP4 ADD SLOAD SWAP1 DUP3 ADD SSTORE PUSH1 0x4 DUP1 DUP4 ADD DUP1 SLOAD PUSH2 0x1340 SWAP3 DUP5 ADD SWAP2 SWAP1 PUSH2 0x27E7 JUMP JUMPDEST POP PUSH1 0x5 SWAP2 DUP3 ADD SLOAD SWAP2 ADD DUP1 SLOAD PUSH1 0x1 PUSH1 0x1 PUSH1 0xA0 SHL SUB NOT AND PUSH1 0x1 PUSH1 0x1 PUSH1 0xA0 SHL SUB SWAP1 SWAP3 AND SWAP2 SWAP1 SWAP2 OR SWAP1 SSTORE PUSH0 DUP2 DUP2 MSTORE PUSH1 0x18 PUSH1 0x20 MSTORE PUSH1 0x40 SWAP1 DUP2 SWAP1 KECCAK256 SWAP1 MLOAD DUP3 SWAP2 PUSH1 0x19 SWAP2 PUSH2 0x1386 SWAP2 SWAP1 PUSH2 0x2D73 JUMP JUMPDEST SWAP1 DUP2 MSTORE PUSH1 0x40 MLOAD SWAP1 DUP2 SWAP1 SUB PUSH1 0x20 ADD SWAP1 KECCAK256 SSTORE PUSH1 0xA DUP1 SLOAD SWAP1 PUSH0 PUSH2 0x13A5 DUP4 PUSH2 0x3148 JUMP JUMPDEST SWAP2 SWAP1 POP SSTORE POP POP POP POP JUMP JUMPDEST PUSH0 SLOAD PUSH1 0x1 PUSH1 0x1 PUSH1 0xA0 SHL SUB AND CALLER EQ PUSH2 0x1408 JUMPI PUSH1 0x40 MLOAD PUSH3 0x461BCD PUSH1 0xE5 SHL DUP2 MSTORE PUSH1 0x20 PUSH1 0x4 DUP3 ADD MSTORE PUSH1 0x1B PUSH1 0x24 DUP3 ADD MSTORE PUSH32 0x596F7520617265206E6F7420746865206472697665206F776E65720000000000 PUSH1 0x44 DUP3 ADD MSTORE PUSH1 0x64 ADD PUSH2 0x33F JUMP JUMPDEST PUSH1 0x1 PUSH1 0x1 PUSH1 0xA0 SHL SUB DUP2 AND PUSH0 SWAP1 DUP2 MSTORE PUSH1 0x6 PUSH1 0x20 MSTORE PUSH1 0x40 SWAP1 KECCAK256 PUSH1 0x3 ADD SLOAD DUP2 SWAP1 PUSH1 0xFF AND PUSH2 0x1444 JUMPI PUSH1 0x40 MLOAD PUSH3 0x461BCD PUSH1 0xE5 SHL DUP2 MSTORE PUSH1 0x4 ADD PUSH2 0x33F SWAP1 PUSH2 0x30DE JUMP JUMPDEST CALLER PUSH1 0x1 PUSH1 0x1 PUSH1 0xA0 SHL SUB DUP4 AND SUB PUSH2 0x1492 JUMPI PUSH1 0x40 MLOAD PUSH3 0x461BCD PUSH1 0xE5 SHL DUP2 MSTORE PUSH1 0x20 PUSH1 0x4 DUP3 ADD MSTORE PUSH1 0x13 PUSH1 0x24 DUP3 ADD MSTORE PUSH19 0x21B0B73737BA103932B6B7BB329037BBB732B9 PUSH1 0x69 SHL PUSH1 0x44 DUP3 ADD MSTORE PUSH1 0x64 ADD PUSH2 0x33F JUMP JUMPDEST PUSH1 0x1 PUSH1 0x1 PUSH1 0xA0 SHL SUB DUP3 AND PUSH0 DUP2 DUP2 MSTORE PUSH1 0x6 PUSH1 0x20 DUP2 DUP2 MSTORE PUSH1 0x40 DUP1 DUP5 KECCAK256 PUSH1 0x1 DUP2 ADD SLOAD DUP6 MSTORE PUSH1 0x7 DUP4 MSTORE DUP2 DUP6 KECCAK256 DUP1 SLOAD PUSH1 0x1 PUSH1 0x1 PUSH1 0xA0 SHL SUB NOT AND SWAP1 SSTORE SWAP5 SWAP1 SWAP4 MSTORE MSTORE MLOAD PUSH1 0x8 SWAP2 PUSH2 0x14E0 SWAP2 PUSH1 0x2 SWAP1 SWAP2 ADD SWAP1 PUSH2 0x2D73 JUMP JUMPDEST SWAP1 DUP2 MSTORE PUSH1 0x40 DUP1 MLOAD PUSH1 0x20 SWAP3 DUP2 SWAP1 SUB DUP4 ADD SWAP1 KECCAK256 DUP1 SLOAD PUSH1 0x1 PUSH1 0x1 PUSH1 0xA0 SHL SUB NOT SWAP1 DUP2 AND SWAP1 SWAP2 SSTORE PUSH1 0x1 PUSH1 0x1 PUSH1 0xA0 SHL SUB DUP6 AND PUSH0 SWAP1 DUP2 MSTORE PUSH1 0x6 SWAP1 SWAP4 MSTORE SWAP1 DUP3 KECCAK256 DUP1 SLOAD SWAP1 SWAP2 AND DUP2 SSTORE PUSH1 0x1 DUP2 ADD DUP3 SWAP1 SSTORE SWAP1 PUSH2 0x1534 PUSH1 0x2 DUP4 ADD DUP3 PUSH2 0x2792 JUMP JUMPDEST POP PUSH1 0x3 ADD DUP1 SLOAD PUSH1 0xFF NOT AND SWAP1 SSTORE PUSH1 0x4 DUP1 SLOAD PUSH1 0x1 SWAP2 SWAP1 PUSH0 SWAP1 PUSH2 0x1555 SWAP1 DUP5 SWAP1 PUSH2 0x2DA6 JUMP JUMPDEST SWAP1 SWAP2 SSTORE POP POP PUSH1 0x40 MLOAD PUSH1 0x1 PUSH1 0x1 PUSH1 0xA0 SHL SUB DUP4 AND SWAP1 PUSH32 0xE9DCE8C992623CE791725B21E857E33248D1F190A25B5168313420EEBDAAE99D SWAP1 PUSH0 SWAP1 LOG2 POP POP JUMP JUMPDEST PUSH1 0x15 SLOAD PUSH0 SWAP1 DUP2 MSTORE PUSH1 0x18 PUSH1 0x20 SWAP1 DUP2 MSTORE PUSH1 0x40 DUP1 DUP4 KECCAK256 PUSH1 0x4 ADD DUP1 SLOAD DUP3 MLOAD DUP2 DUP6 MUL DUP2 ADD DUP6 ADD SWAP1 SWAP4 MSTORE DUP1 DUP4 MSTORE DUP6 SWAP5 SWAP4 DUP4 ADD DUP3 DUP3 DUP1 ISZERO PUSH2 0x15E8 JUMPI PUSH1 0x20 MUL DUP3 ADD SWAP2 SWAP1 PUSH0 MSTORE PUSH1 0x20 PUSH0 KECCAK256 SWAP1 JUMPDEST DUP2 SLOAD DUP2 MSTORE PUSH1 0x20 ADD SWAP1 PUSH1 0x1 ADD SWAP1 DUP1 DUP4 GT PUSH2 0x15D4 JUMPI JUMPDEST POP SWAP4 SWAP5 POP PUSH1 0x60 SWAP4 POP DUP6 SWAP3 POP PUSH1 0x1 SWAP2 POP PUSH0 SWAP1 POP JUMPDEST DUP5 MLOAD DUP2 LT ISZERO PUSH2 0x171C JUMPI PUSH1 0x18 PUSH0 DUP7 DUP4 DUP2 MLOAD DUP2 LT PUSH2 0x1619 JUMPI PUSH2 0x1619 PUSH2 0x2D7E JUMP JUMPDEST PUSH1 0x20 MUL PUSH1 0x20 ADD ADD MLOAD DUP2 MSTORE PUSH1 0x20 ADD SWAP1 DUP2 MSTORE PUSH1 0x20 ADD PUSH0 KECCAK256 PUSH0 ADD DUP1 SLOAD PUSH2 0x163B SWAP1 PUSH2 0x2CD3 JUMP JUMPDEST DUP1 PUSH1 0x1F ADD PUSH1 0x20 DUP1 SWAP2 DIV MUL PUSH1 0x20 ADD PUSH1 0x40 MLOAD SWAP1 DUP2 ADD PUSH1 0x40 MSTORE DUP1 SWAP3 SWAP2 SWAP1 DUP2 DUP2 MSTORE PUSH1 0x20 ADD DUP3 DUP1 SLOAD PUSH2 0x1667 SWAP1 PUSH2 0x2CD3 JUMP JUMPDEST DUP1 ISZERO PUSH2 0x16B2 JUMPI DUP1 PUSH1 0x1F LT PUSH2 0x1689 JUMPI PUSH2 0x100 DUP1 DUP4 SLOAD DIV MUL DUP4 MSTORE SWAP2 PUSH1 0x20 ADD SWAP2 PUSH2 0x16B2 JUMP JUMPDEST DUP3 ADD SWAP2 SWAP1 PUSH0 MSTORE PUSH1 0x20 PUSH0 KECCAK256 SWAP1 JUMPDEST DUP2 SLOAD DUP2 MSTORE SWAP1 PUSH1 0x1 ADD SWAP1 PUSH1 0x20 ADD DUP1 DUP4 GT PUSH2 0x1695 JUMPI DUP3 SWAP1 SUB PUSH1 0x1F AND DUP3 ADD SWAP2 JUMPDEST POP POP POP POP POP SWAP4 POP DUP6 PUSH1 0x40 MLOAD PUSH1 0x20 ADD PUSH2 0x16CA SWAP2 SWAP1 PUSH2 0x2F06 JUMP JUMPDEST PUSH1 0x40 MLOAD PUSH1 0x20 DUP2 DUP4 SUB SUB DUP2 MSTORE SWAP1 PUSH1 0x40 MSTORE DUP1 MLOAD SWAP1 PUSH1 0x20 ADD KECCAK256 DUP5 PUSH1 0x40 MLOAD PUSH1 0x20 ADD PUSH2 0x16F1 SWAP2 SWAP1 PUSH2 0x2F06 JUMP JUMPDEST PUSH1 0x40 MLOAD PUSH1 0x20 DUP2 DUP4 SUB SUB DUP2 MSTORE SWAP1 PUSH1 0x40 MSTORE DUP1 MLOAD SWAP1 PUSH1 0x20 ADD KECCAK256 SUB PUSH2 0x1714 JUMPI PUSH0 SWAP2 POP PUSH2 0x171C JUMP JUMPDEST PUSH1 0x1 ADD PUSH2 0x15FB JUMP JUMPDEST POP DUP1 PUSH2 0x175F JUMPI PUSH1 0x40 MLOAD PUSH3 0x461BCD PUSH1 0xE5 SHL DUP2 MSTORE PUSH1 0x20 PUSH1 0x4 DUP3 ADD MSTORE PUSH1 0x12 PUSH1 0x24 DUP3 ADD MSTORE PUSH18 0x4E616D65206E6F7420617661696C61626C65 PUSH1 0x70 SHL PUSH1 0x44 DUP3 ADD MSTORE PUSH1 0x64 ADD PUSH2 0x33F JUMP JUMPDEST PUSH0 DUP3 MLOAD GT DUP1 ISZERO PUSH2 0x1771 JUMPI POP PUSH1 0x1E DUP3 MLOAD GT ISZERO JUMPDEST PUSH2 0x17D9 JUMPI PUSH1 0x40 MLOAD PUSH3 0x461BCD PUSH1 0xE5 SHL DUP2 MSTORE PUSH1 0x20 PUSH1 0x4 DUP3 ADD MSTORE PUSH1 0x33 PUSH1 0x24 DUP3 ADD MSTORE PUSH32 0x4C656E677468206F66206E616D652073686F756C64206265206265747765656E PUSH1 0x44 DUP3 ADD MSTORE PUSH19 0x203120746F2033302063686172616374657273 PUSH1 0x68 SHL PUSH1 0x64 DUP3 ADD MSTORE PUSH1 0x84 ADD PUSH2 0x33F JUMP JUMPDEST PUSH1 0x1 PUSH0 JUMPDEST DUP4 MLOAD DUP2 LT ISZERO PUSH2 0x18E2 JUMPI PUSH0 DUP5 DUP3 DUP2 MLOAD DUP2 LT PUSH2 0x17F9 JUMPI PUSH2 0x17F9 PUSH2 0x2D7E JUMP JUMPDEST ADD PUSH1 0x20 ADD MLOAD PUSH1 0x1 PUSH1 0x1 PUSH1 0xF8 SHL SUB NOT AND SWAP1 POP PUSH1 0x3 PUSH1 0xFC SHL DUP2 LT DUP1 ISZERO SWAP1 PUSH2 0x182C JUMPI POP PUSH1 0x39 PUSH1 0xF8 SHL PUSH1 0x1 PUSH1 0x1 PUSH1 0xF8 SHL SUB NOT DUP3 AND GT ISZERO JUMPDEST ISZERO DUP1 ISZERO PUSH2 0x1862 JUMPI POP PUSH1 0x41 PUSH1 0xF8 SHL PUSH1 0x1 PUSH1 0x1 PUSH1 0xF8 SHL SUB NOT DUP3 AND LT DUP1 ISZERO SWAP1 PUSH2 0x1860 JUMPI POP PUSH1 0x2D PUSH1 0xF9 SHL PUSH1 0x1 PUSH1 0x1 PUSH1 0xF8 SHL SUB NOT DUP3 AND GT ISZERO JUMPDEST ISZERO JUMPDEST DUP1 ISZERO PUSH2 0x1897 JUMPI POP PUSH1 0x61 PUSH1 0xF8 SHL PUSH1 0x1 PUSH1 0x1 PUSH1 0xF8 SHL SUB NOT DUP3 AND LT DUP1 ISZERO SWAP1 PUSH2 0x1895 JUMPI POP PUSH1 0x3D PUSH1 0xF9 SHL PUSH1 0x1 PUSH1 0x1 PUSH1 0xF8 SHL SUB NOT DUP3 AND GT ISZERO JUMPDEST ISZERO JUMPDEST DUP1 ISZERO PUSH2 0x18B1 JUMPI POP PUSH1 0x5F PUSH1 0xF8 SHL PUSH1 0x1 PUSH1 0x1 PUSH1 0xF8 SHL SUB NOT DUP3 AND EQ ISZERO JUMPDEST DUP1 ISZERO PUSH2 0x18CB JUMPI POP PUSH1 0x1 PUSH1 0xFD SHL PUSH1 0x1 PUSH1 0x1 PUSH1 0xF8 SHL SUB NOT DUP3 AND EQ ISZERO JUMPDEST ISZERO PUSH2 0x18D9 JUMPI PUSH0 SWAP3 POP POP PUSH2 0x18E2 JUMP JUMPDEST POP PUSH1 0x1 ADD PUSH2 0x17DD JUMP JUMPDEST POP PUSH1 0x1 DUP2 ISZERO ISZERO EQ PUSH2 0x1970 JUMPI PUSH1 0x40 MLOAD PUSH3 0x461BCD PUSH1 0xE5 SHL DUP2 MSTORE PUSH1 0x20 PUSH1 0x4 DUP3 ADD MSTORE PUSH1 0x4C PUSH1 0x24 DUP3 ADD MSTORE PUSH32 0x4E616D652073686F756C64206F6E6C7920636F6E7461696E20616C7068616E75 PUSH1 0x44 DUP3 ADD MSTORE PUSH32 0x6D6572696320636861726163746572732C207768697465737061636573206F72 PUSH1 0x64 DUP3 ADD MSTORE PUSH12 0x20756E64657273636F726573 PUSH1 0xA0 SHL PUSH1 0x84 DUP3 ADD MSTORE PUSH1 0xA4 ADD PUSH2 0x33F JUMP JUMPDEST PUSH1 0x13 SLOAD PUSH1 0x1 SUB PUSH2 0x19B7 JUMPI PUSH1 0x40 MLOAD PUSH3 0x461BCD PUSH1 0xE5 SHL DUP2 MSTORE PUSH1 0x20 PUSH1 0x4 DUP3 ADD MSTORE PUSH1 0x12 PUSH1 0x24 DUP3 ADD MSTORE PUSH18 0x10D85B9B9BDD081C995B985B59481C9BDBDD PUSH1 0x72 SHL PUSH1 0x44 DUP3 ADD MSTORE PUSH1 0x64 ADD PUSH2 0x33F JUMP JUMPDEST PUSH1 0x13 SLOAD PUSH0 SWAP1 DUP2 MSTORE PUSH1 0x18 PUSH1 0x20 MSTORE PUSH1 0x40 DUP2 KECCAK256 DUP1 SLOAD PUSH2 0x19D2 SWAP1 PUSH2 0x2CD3 JUMP JUMPDEST DUP1 PUSH1 0x1F ADD PUSH1 0x20 DUP1 SWAP2 DIV MUL PUSH1 0x20 ADD PUSH1 0x40 MLOAD SWAP1 DUP2 ADD PUSH1 0x40 MSTORE DUP1 SWAP3 SWAP2 SWAP1 DUP2 DUP2 MSTORE PUSH1 0x20 ADD DUP3 DUP1 SLOAD PUSH2 0x19FE SWAP1 PUSH2 0x2CD3 JUMP JUMPDEST DUP1 ISZERO PUSH2 0x1A49 JUMPI DUP1 PUSH1 0x1F LT PUSH2 0x1A20 JUMPI PUSH2 0x100 DUP1 DUP4 SLOAD DIV MUL DUP4 MSTORE SWAP2 PUSH1 0x20 ADD SWAP2 PUSH2 0x1A49 JUMP JUMPDEST DUP3 ADD SWAP2 SWAP1 PUSH0 MSTORE PUSH1 0x20 PUSH0 KECCAK256 SWAP1 JUMPDEST DUP2 SLOAD DUP2 MSTORE SWAP1 PUSH1 0x1 ADD SWAP1 PUSH1 0x20 ADD DUP1 DUP4 GT PUSH2 0x1A2C JUMPI DUP3 SWAP1 SUB PUSH1 0x1F AND DUP3 ADD SWAP2 JUMPDEST POP POP PUSH1 0x13 SLOAD PUSH0 SWAP1 DUP2 MSTORE PUSH1 0x18 PUSH1 0x20 MSTORE PUSH1 0x40 SWAP1 KECCAK256 SWAP4 SWAP5 POP PUSH2 0x1A6E SWAP3 POP DUP12 SWAP2 POP DUP4 SWAP1 POP PUSH2 0x2F57 JUMP JUMPDEST POP PUSH1 0x13 SLOAD PUSH0 SWAP1 DUP2 MSTORE PUSH1 0x18 PUSH1 0x20 MSTORE PUSH1 0x40 SWAP1 KECCAK256 PUSH1 0x12 DUP1 PUSH2 0x1A8C DUP4 DUP3 PUSH2 0x2E18 JUMP JUMPDEST POP PUSH1 0x1 DUP3 DUP2 ADD SLOAD SWAP1 DUP3 ADD SSTORE PUSH1 0x2 DUP1 DUP4 ADD SLOAD SWAP1 DUP3 ADD DUP1 SLOAD PUSH1 0xFF NOT AND PUSH1 0xFF SWAP1 SWAP3 AND ISZERO ISZERO SWAP2 SWAP1 SWAP2 OR SWAP1 SSTORE PUSH1 0x3 DUP1 DUP4 ADD SLOAD SWAP1 DUP3 ADD SSTORE PUSH1 0x4 DUP1 DUP4 ADD DUP1 SLOAD PUSH2 0x1AD1 SWAP3 DUP5 ADD SWAP2 SWAP1 PUSH2 0x27E7 JUMP JUMPDEST POP PUSH1 0x5 SWAP2 DUP3 ADD SLOAD SWAP2 ADD DUP1 SLOAD PUSH1 0x1 PUSH1 0x1 PUSH1 0xA0 SHL SUB NOT AND PUSH1 0x1 PUSH1 0x1 PUSH1 0xA0 SHL SUB SWAP1 SWAP3 AND SWAP2 SWAP1 SWAP2 OR SWAP1 SSTORE PUSH1 0x40 MLOAD PUSH32 0x7DBA9F8C9260BAA7BD3DB26977BF6EA76C4204A4DE5B00E1D687834960FB6780 SWAP1 PUSH2 0x1B29 SWAP1 DUP4 SWAP1 DUP12 SWAP1 PUSH2 0x2F11 JUMP JUMPDEST PUSH1 0x40 MLOAD DUP1 SWAP2 SUB SWAP1 LOG1 POP POP POP POP POP POP POP POP JUMP JUMPDEST PUSH0 PUSH1 0x1 PUSH1 0x1 PUSH1 0xA0 SHL SUB AND PUSH1 0x8 DUP3 PUSH1 0x40 MLOAD PUSH2 0x1B55 SWAP2 SWAP1 PUSH2 0x2F06 JUMP JUMPDEST SWAP1 DUP2 MSTORE PUSH1 0x40 MLOAD SWAP1 DUP2 SWAP1 SUB PUSH1 0x20 ADD SWAP1 KECCAK256 SLOAD PUSH1 0x1 PUSH1 0x1 PUSH1 0xA0 SHL SUB AND EQ PUSH2 0x1BB0 JUMPI PUSH1 0x40 MLOAD PUSH3 0x461BCD PUSH1 0xE5 SHL DUP2 MSTORE PUSH1 0x20 PUSH1 0x4 DUP3 ADD MSTORE PUSH1 0x12 PUSH1 0x24 DUP3 ADD MSTORE PUSH18 0x4E616D65206E6F7420617661696C61626C65 PUSH1 0x70 SHL PUSH1 0x44 DUP3 ADD MSTORE PUSH1 0x64 ADD PUSH2 0x33F JUMP JUMPDEST CALLER PUSH0 SWAP1 DUP2 MSTORE PUSH1 0x6 PUSH1 0x20 MSTORE PUSH1 0x40 DUP2 KECCAK256 PUSH1 0x2 ADD DUP1 SLOAD PUSH2 0x1BCC SWAP1 PUSH2 0x2CD3 JUMP JUMPDEST DUP1 PUSH1 0x1F ADD PUSH1 0x20 DUP1 SWAP2 DIV MUL PUSH1 0x20 ADD PUSH1 0x40 MLOAD SWAP1 DUP2 ADD PUSH1 0x40 MSTORE DUP1 SWAP3 SWAP2 SWAP1 DUP2 DUP2 MSTORE PUSH1 0x20 ADD DUP3 DUP1 SLOAD PUSH2 0x1BF8 SWAP1 PUSH2 0x2CD3 JUMP JUMPDEST DUP1 ISZERO PUSH2 0x1C43 JUMPI DUP1 PUSH1 0x1F LT PUSH2 0x1C1A JUMPI PUSH2 0x100 DUP1 DUP4 SLOAD DIV MUL DUP4 MSTORE SWAP2 PUSH1 0x20 ADD SWAP2 PUSH2 0x1C43 JUMP JUMPDEST DUP3 ADD SWAP2 SWAP1 PUSH0 MSTORE PUSH1 0x20 PUSH0 KECCAK256 SWAP1 JUMPDEST DUP2 SLOAD DUP2 MSTORE SWAP1 PUSH1 0x1 ADD SWAP1 PUSH1 0x20 ADD DUP1 DUP4 GT PUSH2 0x1C26 JUMPI DUP3 SWAP1 SUB PUSH1 0x1F AND DUP3 ADD SWAP2 JUMPDEST POP POP CALLER PUSH0 SWAP1 DUP2 MSTORE PUSH1 0x6 PUSH1 0x20 MSTORE PUSH1 0x40 SWAP1 KECCAK256 SWAP4 SWAP5 POP POP PUSH1 0x2 SWAP1 SWAP3 ADD SWAP2 POP PUSH2 0x1C6A SWAP1 POP DUP4 DUP3 PUSH2 0x2F57 JUMP JUMPDEST POP PUSH1 0x8 DUP2 PUSH1 0x40 MLOAD PUSH2 0x1C7B SWAP2 SWAP1 PUSH2 0x2F06 JUMP JUMPDEST SWAP1 DUP2 MSTORE PUSH1 0x40 MLOAD SWAP1 DUP2 SWAP1 SUB PUSH1 0x20 ADD DUP2 KECCAK256 DUP1 SLOAD PUSH1 0x1 PUSH1 0x1 PUSH1 0xA0 SHL SUB NOT AND SWAP1 SSTORE CALLER SWAP1 PUSH32 0x45052326573ED191A212EEED8881BDE4DCA0C84B19407ECBB4FFC724ACE1F105 SWAP1 PUSH2 0x1CC7 SWAP1 DUP6 SWAP1 PUSH2 0x2B33 JUMP JUMPDEST PUSH1 0x40 MLOAD DUP1 SWAP2 SUB SWAP1 LOG2 POP POP JUMP JUMPDEST PUSH1 0x17 SLOAD PUSH1 0x40 MLOAD PUSH4 0x71F51EB PUSH1 0xE3 SHL DUP2 MSTORE DUP3 SWAP2 PUSH0 SWAP2 PUSH1 0x1 PUSH1 0x1 PUSH1 0xA0 SHL SUB SWAP1 SWAP2 AND SWAP1 PUSH4 0x38FA8F58 SWAP1 PUSH2 0x1D07 SWAP1 DUP6 SWAP1 PUSH1 0x4 ADD PUSH2 0x2B33 JUMP JUMPDEST PUSH1 0x20 PUSH1 0x40 MLOAD DUP1 DUP4 SUB DUP2 DUP7 GAS STATICCALL ISZERO DUP1 ISZERO PUSH2 0x1D22 JUMPI RETURNDATASIZE PUSH0 DUP1 RETURNDATACOPY RETURNDATASIZE PUSH0 REVERT JUMPDEST POP POP POP POP PUSH1 0x40 MLOAD RETURNDATASIZE PUSH1 0x1F NOT PUSH1 0x1F DUP3 ADD AND DUP3 ADD DUP1 PUSH1 0x40 MSTORE POP DUP2 ADD SWAP1 PUSH2 0x1D46 SWAP2 SWAP1 PUSH2 0x3160 JUMP JUMPDEST SWAP1 POP CALLER PUSH1 0x1 PUSH1 0x1 PUSH1 0xA0 SHL SUB DUP3 AND EQ PUSH2 0x1DA0 JUMPI PUSH1 0x40 MLOAD PUSH3 0x461BCD PUSH1 0xE5 SHL DUP2 MSTORE PUSH1 0x20 PUSH1 0x4 DUP3 ADD MSTORE PUSH1 0x1A PUSH1 0x24 DUP3 ADD MSTORE PUSH32 0x596F7520617265206E6F74207468652066696C65206F776E6572000000000000 PUSH1 0x44 DUP3 ADD MSTORE PUSH1 0x64 ADD PUSH2 0x33F JUMP JUMPDEST PUSH1 0x17 SLOAD PUSH1 0x40 MLOAD PUSH4 0x2A644015 PUSH1 0xE2 SHL DUP2 MSTORE PUSH1 0x1 PUSH1 0x1 PUSH1 0xA0 SHL SUB SWAP1 SWAP2 AND SWAP1 PUSH4 0xA9910054 SWAP1 PUSH2 0x1DD0 SWAP1 DUP7 SWAP1 PUSH1 0x4 ADD PUSH2 0x2B33 JUMP JUMPDEST PUSH0 PUSH1 0x40 MLOAD DUP1 DUP4 SUB DUP2 PUSH0 DUP8 DUP1 EXTCODESIZE ISZERO DUP1 ISZERO PUSH2 0x1DE7 JUMPI PUSH0 DUP1 REVERT JUMPDEST POP GAS CALL ISZERO DUP1 ISZERO PUSH2 0x1DF9 JUMPI RETURNDATASIZE PUSH0 DUP1 RETURNDATACOPY RETURNDATASIZE PUSH0 REVERT JUMPDEST POP POP PUSH1 0x13 SLOAD PUSH0 SWAP1 DUP2 MSTORE PUSH1 0x18 PUSH1 0x20 MSTORE PUSH1 0x40 SWAP1 KECCAK256 PUSH1 0x12 SWAP3 POP SWAP1 POP DUP1 PUSH2 0x1E1C DUP4 DUP3 PUSH2 0x2E18 JUMP JUMPDEST POP PUSH1 0x1 DUP3 DUP2 ADD SLOAD SWAP1 DUP3 ADD SSTORE PUSH1 0x2 DUP1 DUP4 ADD SLOAD SWAP1 DUP3 ADD DUP1 SLOAD PUSH1 0xFF NOT AND PUSH1 0xFF SWAP1 SWAP3 AND ISZERO ISZERO SWAP2 SWAP1 SWAP2 OR SWAP1 SSTORE PUSH1 0x3 DUP1 DUP4 ADD SLOAD SWAP1 DUP3 ADD SSTORE PUSH1 0x4 DUP1 DUP4 ADD DUP1 SLOAD PUSH2 0x1E61 SWAP3 DUP5 ADD SWAP2 SWAP1 PUSH2 0x27E7 JUMP JUMPDEST POP PUSH1 0x5 SWAP2 DUP3 ADD SLOAD SWAP2 ADD DUP1 SLOAD PUSH1 0x1 PUSH1 0x1 PUSH1 0xA0 SHL SUB NOT AND PUSH1 0x1 PUSH1 0x1 PUSH1 0xA0 SHL SUB SWAP1 SWAP3 AND SWAP2 SWAP1 SWAP2 OR SWAP1 SSTORE PUSH1 0x40 MLOAD PUSH32 0x584FB2B00BCB43E608B5EFABFFAA6C6037E3F5FD1A3EC96EA172ADA6056D6174 SWAP1 PUSH2 0xF0D SWAP1 DUP6 SWAP1 PUSH2 0x2B33 JUMP JUMPDEST CALLER PUSH0 SWAP1 DUP2 MSTORE PUSH1 0x6 PUSH1 0x20 MSTORE PUSH1 0x40 SWAP1 KECCAK256 PUSH1 0x2 ADD DUP1 SLOAD PUSH1 0x60 SWAP2 SWAP1 PUSH2 0x1ED7 SWAP1 PUSH2 0x2CD3 JUMP JUMPDEST DUP1 PUSH1 0x1F ADD PUSH1 0x20 DUP1 SWAP2 DIV MUL PUSH1 0x20 ADD PUSH1 0x40 MLOAD SWAP1 DUP2 ADD PUSH1 0x40 MSTORE DUP1 SWAP3 SWAP2 SWAP1 DUP2 DUP2 MSTORE PUSH1 0x20 ADD DUP3 DUP1 SLOAD PUSH2 0x1F03 SWAP1 PUSH2 0x2CD3 JUMP JUMPDEST DUP1 ISZERO PUSH2 0x1F4E JUMPI DUP1 PUSH1 0x1F LT PUSH2 0x1F25 JUMPI PUSH2 0x100 DUP1 DUP4 SLOAD DIV MUL DUP4 MSTORE SWAP2 PUSH1 0x20 ADD SWAP2 PUSH2 0x1F4E JUMP JUMPDEST DUP3 ADD SWAP2 SWAP1 PUSH0 MSTORE PUSH1 0x20 PUSH0 KECCAK256 SWAP1 JUMPDEST DUP2 SLOAD DUP2 MSTORE SWAP1 PUSH1 0x1 ADD SWAP1 PUSH1 0x20 ADD DUP1 DUP4 GT PUSH2 0x1F31 JUMPI DUP3 SWAP1 SUB PUSH1 0x1F AND DUP3 ADD SWAP2 JUMPDEST POP POP POP POP POP SWAP1 POP SWAP1 JUMP JUMPDEST PUSH1 0x17 SLOAD PUSH1 0x40 MLOAD PUSH4 0xCFFA39F9 PUSH1 0xE0 SHL DUP2 MSTORE PUSH0 SWAP2 PUSH1 0x1 PUSH1 0x1 PUSH1 0xA0 SHL SUB AND SWAP1 PUSH4 0xCFFA39F9 SWAP1 PUSH2 0x1F8A SWAP1 DUP7 SWAP1 CALLER SWAP1 PUSH1 0x4 ADD PUSH2 0x301C JUMP JUMPDEST PUSH1 0x20 PUSH1 0x40 MLOAD DUP1 DUP4 SUB DUP2 DUP7 GAS STATICCALL ISZERO DUP1 ISZERO PUSH2 0x1FA5 JUMPI RETURNDATASIZE PUSH0 DUP1 RETURNDATACOPY RETURNDATASIZE PUSH0 REVERT JUMPDEST POP POP POP POP PUSH1 0x40 MLOAD RETURNDATASIZE PUSH1 0x1F NOT PUSH1 0x1F DUP3 ADD AND DUP3 ADD DUP1 PUSH1 0x40 MSTORE POP DUP2 ADD SWAP1 PUSH2 0x1FC9 SWAP2 SWAP1 PUSH2 0x3045 JUMP JUMPDEST SWAP1 POP PUSH1 0x2 DUP2 PUSH1 0xFF AND LT ISZERO PUSH2 0x2012 JUMPI PUSH1 0x40 MLOAD PUSH3 0x461BCD PUSH1 0xE5 SHL DUP2 MSTORE PUSH1 0x20 PUSH1 0x4 DUP3 ADD MSTORE PUSH1 0x10 PUSH1 0x24 DUP3 ADD MSTORE PUSH16 0x4E6F20617070656E6420616363657373 PUSH1 0x80 SHL PUSH1 0x44 DUP3 ADD MSTORE PUSH1 0x64 ADD PUSH2 0x33F JUMP JUMPDEST PUSH1 0x17 SLOAD PUSH1 0x40 MLOAD PUSH4 0x5B589E55 PUSH1 0xE1 SHL DUP2 MSTORE PUSH1 0x1 PUSH1 0x1 PUSH1 0xA0 SHL SUB SWAP1 SWAP2 AND SWAP1 PUSH4 0xB6B13CAA SWAP1 PUSH2 0x2044 SWAP1 DUP7 SWAP1 DUP7 SWAP1 PUSH1 0x4 ADD PUSH2 0x2F11 JUMP JUMPDEST PUSH0 PUSH1 0x40 MLOAD DUP1 DUP4 SUB DUP2 PUSH0 DUP8 DUP1 EXTCODESIZE ISZERO DUP1 ISZERO PUSH2 0x205B JUMPI PUSH0 DUP1 REVERT JUMPDEST POP GAS CALL ISZERO DUP1 ISZERO PUSH2 0x206D JUMPI RETURNDATASIZE PUSH0 DUP1 RETURNDATACOPY RETURNDATASIZE PUSH0 REVERT JUMPDEST POP POP PUSH1 0x13 SLOAD PUSH0 SWAP1 DUP2 MSTORE PUSH1 0x18 PUSH1 0x20 MSTORE PUSH1 0x40 SWAP1 KECCAK256 PUSH1 0x12 SWAP3 POP SWAP1 POP DUP1 PUSH2 0x2090 DUP4 DUP3 PUSH2 0x2E18 JUMP JUMPDEST POP PUSH1 0x1 DUP3 DUP2 ADD SLOAD SWAP1 DUP3 ADD SSTORE PUSH1 0x2 DUP1 DUP4 ADD SLOAD SWAP1 DUP3 ADD DUP1 SLOAD PUSH1 0xFF NOT AND PUSH1 0xFF SWAP1 SWAP3 AND ISZERO ISZERO SWAP2 SWAP1 SWAP2 OR SWAP1 SSTORE PUSH1 0x3 DUP1 DUP4 ADD SLOAD SWAP1 DUP3 ADD SSTORE PUSH1 0x4 DUP1 DUP4 ADD DUP1 SLOAD PUSH2 0x20D5 SWAP3 DUP5 ADD SWAP2 SWAP1 PUSH2 0x27E7 JUMP JUMPDEST POP PUSH1 0x5 SWAP2 DUP3 ADD SLOAD SWAP2 ADD DUP1 SLOAD PUSH1 0x1 PUSH1 0x1 PUSH1 0xA0 SHL SUB NOT AND PUSH1 0x1 PUSH1 0x1 PUSH1 0xA0 SHL SUB SWAP1 SWAP3 AND SWAP2 SWAP1 SWAP2 OR SWAP1 SSTORE PUSH1 0x40 MLOAD PUSH32 0xCEE34ECF9262A89DC00B9660881B6F33B9679B279EDF9369FB194621179B3EA1 SWAP1 PUSH2 0xF0D SWAP1 DUP6 SWAP1 DUP6 SWAP1 PUSH2 0x2F11 JUMP JUMPDEST PUSH1 0x15 SLOAD PUSH2 0x2139 SWAP1 PUSH2 0x2548 JUMP JUMPDEST JUMP JUMPDEST PUSH1 0x60 PUSH1 0x12 PUSH0 ADD DUP1 SLOAD PUSH2 0x1ED7 SWAP1 PUSH2 0x2CD3 JUMP JUMPDEST PUSH1 0x1 PUSH1 0x1 PUSH1 0xA0 SHL SUB DUP3 AND PUSH0 SWAP1 DUP2 MSTORE PUSH1 0x6 PUSH1 0x20 MSTORE PUSH1 0x40 SWAP1 KECCAK256 PUSH1 0x3 ADD SLOAD DUP3 SWAP1 PUSH1 0xFF AND PUSH2 0x2188 JUMPI PUSH1 0x40 MLOAD PUSH3 0x461BCD PUSH1 0xE5 SHL DUP2 MSTORE PUSH1 0x4 ADD PUSH2 0x33F SWAP1 PUSH2 0x30DE JUMP JUMPDEST PUSH1 0x17 SLOAD PUSH1 0x40 MLOAD PUSH4 0x71F51EB PUSH1 0xE3 SHL DUP2 MSTORE DUP6 SWAP2 PUSH0 SWAP2 PUSH1 0x1 PUSH1 0x1 PUSH1 0xA0 SHL SUB SWAP1 SWAP2 AND SWAP1 PUSH4 0x38FA8F58 SWAP1 PUSH2 0x21BC SWAP1 DUP6 SWAP1 PUSH1 0x4 ADD PUSH2 0x2B33 JUMP JUMPDEST PUSH1 0x20 PUSH1 0x40 MLOAD DUP1 DUP4 SUB DUP2 DUP7 GAS STATICCALL ISZERO DUP1 ISZERO PUSH2 0x21D7 JUMPI RETURNDATASIZE PUSH0 DUP1 RETURNDATACOPY RETURNDATASIZE PUSH0 REVERT JUMPDEST POP POP POP POP PUSH1 0x40 MLOAD RETURNDATASIZE PUSH1 0x1F NOT PUSH1 0x1F DUP3 ADD AND DUP3 ADD DUP1 PUSH1 0x40 MSTORE POP DUP2 ADD SWAP1 PUSH2 0x21FB SWAP2 SWAP1 PUSH2 0x3160 JUMP JUMPDEST SWAP1 POP CALLER PUSH1 0x1 PUSH1 0x1 PUSH1 0xA0 SHL SUB DUP3 AND EQ PUSH2 0x2255 JUMPI PUSH1 0x40 MLOAD PUSH3 0x461BCD PUSH1 0xE5 SHL DUP2 MSTORE PUSH1 0x20 PUSH1 0x4 DUP3 ADD MSTORE PUSH1 0x1A PUSH1 0x24 DUP3 ADD MSTORE PUSH32 0x596F7520617265206E6F74207468652066696C65206F776E6572000000000000 PUSH1 0x44 DUP3 ADD MSTORE PUSH1 0x64 ADD PUSH2 0x33F JUMP JUMPDEST PUSH1 0x17 SLOAD PUSH1 0x40 MLOAD PUSH4 0xECEED653 PUSH1 0xE0 SHL DUP2 MSTORE PUSH1 0x1 PUSH1 0x1 PUSH1 0xA0 SHL SUB SWAP1 SWAP2 AND SWAP1 PUSH4 0xECEED653 SWAP1 PUSH2 0x2289 SWAP1 DUP10 SWAP1 DUP10 SWAP1 DUP10 SWAP1 PUSH1 0x4 ADD PUSH2 0x317B JUMP JUMPDEST PUSH0 PUSH1 0x40 MLOAD DUP1 DUP4 SUB DUP2 PUSH0 DUP8 DUP1 EXTCODESIZE ISZERO DUP1 ISZERO PUSH2 0x22A0 JUMPI PUSH0 DUP1 REVERT JUMPDEST POP GAS CALL ISZERO DUP1 ISZERO PUSH2 0x22B2 JUMPI RETURNDATASIZE PUSH0 DUP1 RETURNDATACOPY RETURNDATASIZE PUSH0 REVERT JUMPDEST POP POP POP POP PUSH32 0x131C719B060FC000D9E012842ABCA32AA23D10E9329DA5D8BCA9CE82B47CC95F DUP7 DUP7 DUP7 PUSH1 0x40 MLOAD PUSH2 0x22E9 SWAP4 SWAP3 SWAP2 SWAP1 PUSH2 0x317B JUMP JUMPDEST PUSH1 0x40 MLOAD DUP1 SWAP2 SUB SWAP1 LOG1 POP POP POP POP POP POP JUMP JUMPDEST PUSH2 0x2301 PUSH2 0x2879 JUMP JUMPDEST PUSH1 0x16 SLOAD PUSH0 SWAP1 PUSH1 0x1 PUSH1 0x1 PUSH1 0x40 SHL SUB DUP2 GT ISZERO PUSH2 0x231D JUMPI PUSH2 0x231D PUSH2 0x28B4 JUMP JUMPDEST PUSH1 0x40 MLOAD SWAP1 DUP1 DUP3 MSTORE DUP1 PUSH1 0x20 MUL PUSH1 0x20 ADD DUP3 ADD PUSH1 0x40 MSTORE DUP1 ISZERO PUSH2 0x2350 JUMPI DUP2 PUSH1 0x20 ADD JUMPDEST PUSH1 0x60 DUP2 MSTORE PUSH1 0x20 ADD SWAP1 PUSH1 0x1 SWAP1 SUB SWAP1 DUP2 PUSH2 0x233B JUMPI SWAP1 POP JUMPDEST POP SWAP1 POP PUSH0 DUP1 JUMPDEST PUSH1 0x16 SLOAD DUP2 LT ISZERO PUSH2 0x2427 JUMPI PUSH1 0x18 PUSH0 PUSH1 0x12 PUSH1 0x4 ADD DUP4 DUP2 SLOAD DUP2 LT PUSH2 0x2379 JUMPI PUSH2 0x2379 PUSH2 0x2D7E JUMP JUMPDEST PUSH0 SWAP2 DUP3 MSTORE PUSH1 0x20 DUP1 DUP4 KECCAK256 SWAP1 SWAP2 ADD SLOAD DUP4 MSTORE DUP3 ADD SWAP3 SWAP1 SWAP3 MSTORE PUSH1 0x40 ADD SWAP1 KECCAK256 PUSH1 0x2 ADD SLOAD PUSH1 0xFF AND ISZERO ISZERO PUSH1 0x1 SUB PUSH2 0x241F JUMPI PUSH1 0x18 PUSH0 PUSH1 0x12 PUSH1 0x4 ADD DUP4 DUP2 SLOAD DUP2 LT PUSH2 0x23BC JUMPI PUSH2 0x23BC PUSH2 0x2D7E JUMP JUMPDEST SWAP1 PUSH0 MSTORE PUSH1 0x20 PUSH0 KECCAK256 ADD SLOAD DUP2 MSTORE PUSH1 0x20 ADD SWAP1 DUP2 MSTORE PUSH1 0x20 ADD PUSH0 KECCAK256 PUSH0 ADD PUSH1 0x40 MLOAD PUSH1 0x20 ADD PUSH2 0x23E4 SWAP2 SWAP1 PUSH2 0x31B0 JUMP JUMPDEST PUSH1 0x40 MLOAD PUSH1 0x20 DUP2 DUP4 SUB SUB DUP2 MSTORE SWAP1 PUSH1 0x40 MSTORE DUP4 DUP4 DUP2 MLOAD DUP2 LT PUSH2 0x2405 JUMPI PUSH2 0x2405 PUSH2 0x2D7E JUMP JUMPDEST PUSH1 0x20 MUL PUSH1 0x20 ADD ADD DUP2 SWAP1 MSTORE POP DUP2 DUP1 PUSH2 0x241B SWAP1 PUSH2 0x3148 JUMP JUMPDEST SWAP3 POP POP JUMPDEST PUSH1 0x1 ADD PUSH2 0x2356 JUMP JUMPDEST POP PUSH0 DUP2 PUSH1 0x1 PUSH1 0x1 PUSH1 0x40 SHL SUB DUP2 GT ISZERO PUSH2 0x2441 JUMPI PUSH2 0x2441 PUSH2 0x28B4 JUMP JUMPDEST PUSH1 0x40 MLOAD SWAP1 DUP1 DUP3 MSTORE DUP1 PUSH1 0x20 MUL PUSH1 0x20 ADD DUP3 ADD PUSH1 0x40 MSTORE DUP1 ISZERO PUSH2 0x2474 JUMPI DUP2 PUSH1 0x20 ADD JUMPDEST PUSH1 0x60 DUP2 MSTORE PUSH1 0x20 ADD SWAP1 PUSH1 0x1 SWAP1 SUB SWAP1 DUP2 PUSH2 0x245F JUMPI SWAP1 POP JUMPDEST POP SWAP1 POP PUSH0 JUMPDEST DUP3 DUP2 LT ISZERO PUSH2 0x24C0 JUMPI DUP4 DUP2 DUP2 MLOAD DUP2 LT PUSH2 0x2493 JUMPI PUSH2 0x2493 PUSH2 0x2D7E JUMP JUMPDEST PUSH1 0x20 MUL PUSH1 0x20 ADD ADD MLOAD DUP3 DUP3 DUP2 MLOAD DUP2 LT PUSH2 0x24AD JUMPI PUSH2 0x24AD PUSH2 0x2D7E JUMP JUMPDEST PUSH1 0x20 SWAP1 DUP2 MUL SWAP2 SWAP1 SWAP2 ADD ADD MSTORE PUSH1 0x1 ADD PUSH2 0x2479 JUMP JUMPDEST POP PUSH1 0x17 SLOAD PUSH1 0x40 DUP1 MLOAD PUSH4 0x5819EC7D PUSH1 0xE1 SHL DUP2 MSTORE SWAP1 MLOAD PUSH0 SWAP3 PUSH1 0x1 PUSH1 0x1 PUSH1 0xA0 SHL SUB AND SWAP2 PUSH4 0xB033D8FA SWAP2 PUSH1 0x4 DUP1 DUP4 ADD SWAP3 DUP7 SWAP3 SWAP2 SWAP1 DUP3 SWAP1 SUB ADD DUP2 DUP7 GAS STATICCALL ISZERO DUP1 ISZERO PUSH2 0x2507 JUMPI RETURNDATASIZE PUSH0 DUP1 RETURNDATACOPY RETURNDATASIZE PUSH0 REVERT JUMPDEST POP POP POP POP PUSH1 0x40 MLOAD RETURNDATASIZE PUSH0 DUP3 RETURNDATACOPY PUSH1 0x1F RETURNDATASIZE SWAP1 DUP2 ADD PUSH1 0x1F NOT AND DUP3 ADD PUSH1 0x40 MSTORE PUSH2 0x252E SWAP2 SWAP1 DUP2 ADD SWAP1 PUSH2 0x31CC JUMP JUMPDEST PUSH1 0x40 DUP1 MLOAD DUP1 DUP3 ADD SWAP1 SWAP2 MSTORE SWAP3 DUP4 MSTORE PUSH1 0x20 DUP4 ADD MSTORE POP SWAP4 SWAP3 POP POP POP JUMP JUMPDEST PUSH0 DUP2 DUP2 MSTORE PUSH1 0x18 PUSH1 0x20 MSTORE PUSH1 0x40 SWAP1 KECCAK256 PUSH1 0x2 ADD SLOAD PUSH1 0xFF AND PUSH2 0x25A3 JUMPI PUSH1 0x40 MLOAD PUSH3 0x461BCD PUSH1 0xE5 SHL DUP2 MSTORE PUSH1 0x20 PUSH1 0x4 DUP3 ADD MSTORE PUSH1 0x18 PUSH1 0x24 DUP3 ADD MSTORE PUSH24 0x111A5C9958DD1BDC9E48191BD95CC81B9BDD08195E1A5CDD PUSH1 0x42 SHL PUSH1 0x44 DUP3 ADD MSTORE PUSH1 0x64 ADD PUSH2 0x33F JUMP JUMPDEST PUSH0 DUP2 DUP2 MSTORE PUSH1 0x18 PUSH1 0x20 MSTORE PUSH1 0x40 SWAP1 KECCAK256 PUSH1 0x12 DUP1 PUSH2 0x25BD DUP4 DUP3 PUSH2 0x2E18 JUMP JUMPDEST POP PUSH1 0x1 DUP3 DUP2 ADD SLOAD SWAP1 DUP3 ADD SSTORE PUSH1 0x2 DUP1 DUP4 ADD SLOAD SWAP1 DUP3 ADD DUP1 SLOAD PUSH1 0xFF NOT AND PUSH1 0xFF SWAP1 SWAP3 AND ISZERO ISZERO SWAP2 SWAP1 SWAP2 OR SWAP1 SSTORE PUSH1 0x3 DUP1 DUP4 ADD SLOAD SWAP1 DUP3 ADD SSTORE PUSH1 0x4 DUP1 DUP4 ADD DUP1 SLOAD PUSH2 0x2602 SWAP3 DUP5 ADD SWAP2 SWAP1 PUSH2 0x27E7 JUMP JUMPDEST POP PUSH1 0x5 SWAP2 DUP3 ADD SLOAD SWAP2 ADD DUP1 SLOAD PUSH1 0x1 PUSH1 0x1 PUSH1 0xA0 SHL SUB NOT AND PUSH1 0x1 PUSH1 0x1 PUSH1 0xA0 SHL SUB SWAP1 SWAP3 AND SWAP2 SWAP1 SWAP2 OR SWAP1 SSTORE POP JUMP JUMPDEST PUSH1 0x60 PUSH0 PUSH2 0x2637 DUP4 PUSH2 0x26BA JUMP JUMPDEST PUSH1 0x1 ADD SWAP1 POP PUSH0 DUP2 PUSH1 0x1 PUSH1 0x1 PUSH1 0x40 SHL SUB DUP2 GT ISZERO PUSH2 0x2655 JUMPI PUSH2 0x2655 PUSH2 0x28B4 JUMP JUMPDEST PUSH1 0x40 MLOAD SWAP1 DUP1 DUP3 MSTORE DUP1 PUSH1 0x1F ADD PUSH1 0x1F NOT AND PUSH1 0x20 ADD DUP3 ADD PUSH1 0x40 MSTORE DUP1 ISZERO PUSH2 0x267F JUMPI PUSH1 0x20 DUP3 ADD DUP2 DUP1 CALLDATASIZE DUP4 CALLDATACOPY ADD SWAP1 POP JUMPDEST POP SWAP1 POP DUP2 DUP2 ADD PUSH1 0x20 ADD JUMPDEST PUSH0 NOT ADD PUSH16 0x181899199A1A9B1B9C1CB0B131B232B3 PUSH1 0x81 SHL PUSH1 0xA DUP7 MOD BYTE DUP2 MSTORE8 PUSH1 0xA DUP6 DIV SWAP5 POP DUP5 PUSH2 0x2689 JUMPI POP SWAP4 SWAP3 POP POP POP JUMP JUMPDEST PUSH0 DUP1 PUSH19 0x184F03E93FF9F4DAA797ED6E38ED64BF6A1F01 PUSH1 0x40 SHL DUP4 LT PUSH2 0x26F8 JUMPI PUSH19 0x184F03E93FF9F4DAA797ED6E38ED64BF6A1F01 PUSH1 0x40 SHL DUP4 DIV SWAP3 POP PUSH1 0x40 ADD JUMPDEST PUSH14 0x4EE2D6D415B85ACEF8100000000 DUP4 LT PUSH2 0x2724 JUMPI PUSH14 0x4EE2D6D415B85ACEF8100000000 DUP4 DIV SWAP3 POP PUSH1 0x20 ADD JUMPDEST PUSH7 0x2386F26FC10000 DUP4 LT PUSH2 0x2742 JUMPI PUSH7 0x2386F26FC10000 DUP4 DIV SWAP3 POP PUSH1 0x10 ADD JUMPDEST PUSH4 0x5F5E100 DUP4 LT PUSH2 0x275A JUMPI PUSH4 0x5F5E100 DUP4 DIV SWAP3 POP PUSH1 0x8 ADD JUMPDEST PUSH2 0x2710 DUP4 LT PUSH2 0x276E JUMPI PUSH2 0x2710 DUP4 DIV SWAP3 POP PUSH1 0x4 ADD JUMPDEST PUSH1 0x64 DUP4 LT PUSH2 0x2780 JUMPI PUSH1 0x64 DUP4 DIV SWAP3 POP PUSH1 0x2 ADD JUMPDEST PUSH1 0xA DUP4 LT PUSH2 0x278C JUMPI PUSH1 0x1 ADD JUMPDEST SWAP3 SWAP2 POP POP JUMP JUMPDEST POP DUP1 SLOAD PUSH2 0x279E SWAP1 PUSH2 0x2CD3 JUMP JUMPDEST PUSH0 DUP3 SSTORE DUP1 PUSH1 0x1F LT PUSH2 0x27AD JUMPI POP POP JUMP JUMPDEST PUSH1 0x1F ADD PUSH1 0x20 SWAP1 DIV SWAP1 PUSH0 MSTORE PUSH1 0x20 PUSH0 KECCAK256 SWAP1 DUP2 ADD SWAP1 PUSH2 0x27C9 SWAP2 SWAP1 PUSH2 0x28A0 JUMP JUMPDEST POP JUMP JUMPDEST POP DUP1 SLOAD PUSH0 DUP3 SSTORE SWAP1 PUSH0 MSTORE PUSH1 0x20 PUSH0 KECCAK256 SWAP1 DUP2 ADD SWAP1 PUSH2 0x27C9 SWAP2 SWAP1 PUSH2 0x28A0 JUMP JUMPDEST DUP3 DUP1 SLOAD DUP3 DUP3 SSTORE SWAP1 PUSH0 MSTORE PUSH1 0x20 PUSH0 KECCAK256 SWAP1 DUP2 ADD SWAP3 DUP3 ISZERO PUSH2 0x2823 JUMPI PUSH0 MSTORE PUSH1 0x20 PUSH0 KECCAK256 SWAP2 DUP3 ADD JUMPDEST DUP3 DUP2 GT ISZERO PUSH2 0x2823 JUMPI DUP3 SLOAD DUP3 SSTORE SWAP2 PUSH1 0x1 ADD SWAP2 SWAP1 PUSH1 0x1 ADD SWAP1 PUSH2 0x2808 JUMP JUMPDEST POP PUSH2 0x282F SWAP3 SWAP2 POP PUSH2 0x28A0 JUMP JUMPDEST POP SWAP1 JUMP JUMPDEST PUSH2 0x1856 DUP1 PUSH2 0x3296 DUP4 CODECOPY ADD SWAP1 JUMP JUMPDEST DUP3 DUP1 SLOAD DUP3 DUP3 SSTORE SWAP1 PUSH0 MSTORE PUSH1 0x20 PUSH0 KECCAK256 SWAP1 DUP2 ADD SWAP3 DUP3 ISZERO PUSH2 0x2823 JUMPI SWAP2 PUSH1 0x20 MUL DUP3 ADD JUMPDEST DUP3 DUP2 GT ISZERO PUSH2 0x2823 JUMPI DUP3 MLOAD DUP3 SSTORE SWAP2 PUSH1 0x20 ADD SWAP2 SWAP1 PUSH1 0x1 ADD SWAP1 PUSH2 0x285E JUMP JUMPDEST PUSH1 0x40 MLOAD DUP1 PUSH1 0x40 ADD PUSH1 0x40 MSTORE DUP1 PUSH1 0x2 SWAP1 JUMPDEST PUSH1 0x60 DUP2 MSTORE PUSH1 0x20 ADD SWAP1 PUSH1 0x1 SWAP1 SUB SWAP1 DUP2 PUSH2 0x2888 JUMPI SWAP1 POP POP SWAP1 JUMP JUMPDEST JUMPDEST DUP1 DUP3 GT ISZERO PUSH2 0x282F JUMPI PUSH0 DUP2 SSTORE PUSH1 0x1 ADD PUSH2 0x28A1 JUMP JUMPDEST PUSH4 0x4E487B71 PUSH1 0xE0 SHL PUSH0 MSTORE PUSH1 0x41 PUSH1 0x4 MSTORE PUSH1 0x24 PUSH0 REVERT JUMPDEST PUSH1 0x40 MLOAD PUSH1 0x1F DUP3 ADD PUSH1 0x1F NOT AND DUP2 ADD PUSH1 0x1 PUSH1 0x1 PUSH1 0x40 SHL SUB DUP2 GT DUP3 DUP3 LT OR ISZERO PUSH2 0x28F0 JUMPI PUSH2 0x28F0 PUSH2 0x28B4 JUMP JUMPDEST PUSH1 0x40 MSTORE SWAP2 SWAP1 POP JUMP JUMPDEST PUSH0 PUSH1 0x1 PUSH1 0x1 PUSH1 0x40 SHL SUB DUP3 GT ISZERO PUSH2 0x2910 JUMPI PUSH2 0x2910 PUSH2 0x28B4 JUMP JUMPDEST POP PUSH1 0x1F ADD PUSH1 0x1F NOT AND PUSH1 0x20 ADD SWAP1 JUMP JUMPDEST PUSH0 DUP3 PUSH1 0x1F DUP4 ADD SLT PUSH2 0x292D JUMPI PUSH0 DUP1 REVERT JUMPDEST DUP2 CALLDATALOAD PUSH2 0x2940 PUSH2 0x293B DUP3 PUSH2 0x28F8 JUMP JUMPDEST PUSH2 0x28C8 JUMP JUMPDEST DUP2 DUP2 MSTORE DUP5 PUSH1 0x20 DUP4 DUP7 ADD ADD GT ISZERO PUSH2 0x2954 JUMPI PUSH0 DUP1 REVERT JUMPDEST DUP2 PUSH1 0x20 DUP6 ADD PUSH1 0x20 DUP4 ADD CALLDATACOPY PUSH0 SWAP2 DUP2 ADD PUSH1 0x20 ADD SWAP2 SWAP1 SWAP2 MSTORE SWAP4 SWAP3 POP POP POP JUMP JUMPDEST PUSH0 PUSH1 0x20 DUP3 DUP5 SUB SLT ISZERO PUSH2 0x2980 JUMPI PUSH0 DUP1 REVERT JUMPDEST DUP2 CALLDATALOAD PUSH1 0x1 PUSH1 0x1 PUSH1 0x40 SHL SUB DUP2 GT ISZERO PUSH2 0x2995 JUMPI PUSH0 DUP1 REVERT JUMPDEST PUSH2 0xFCC DUP5 DUP3 DUP6 ADD PUSH2 0x291E JUMP JUMPDEST PUSH0 DUP2 MLOAD DUP1 DUP5 MSTORE DUP1 PUSH1 0x20 DUP5 ADD PUSH1 0x20 DUP7 ADD MCOPY PUSH0 PUSH1 0x20 DUP3 DUP7 ADD ADD MSTORE PUSH1 0x20 PUSH1 0x1F NOT PUSH1 0x1F DUP4 ADD AND DUP6 ADD ADD SWAP2 POP POP SWAP3 SWAP2 POP POP JUMP JUMPDEST PUSH1 0x1 DUP1 PUSH1 0xA0 SHL SUB DUP6 AND DUP2 MSTORE DUP4 PUSH1 0x20 DUP3 ADD MSTORE PUSH1 0x80 PUSH1 0x40 DUP3 ADD MSTORE PUSH0 PUSH2 0x29F5 PUSH1 0x80 DUP4 ADD DUP6 PUSH2 0x29A1 JUMP JUMPDEST SWAP1 POP DUP3 ISZERO ISZERO PUSH1 0x60 DUP4 ADD MSTORE SWAP6 SWAP5 POP POP POP POP POP JUMP JUMPDEST PUSH0 PUSH1 0x20 DUP3 ADD PUSH1 0x20 DUP4 MSTORE DUP1 DUP5 MLOAD DUP1 DUP4 MSTORE PUSH1 0x40 DUP6 ADD SWAP2 POP PUSH1 0x40 DUP2 PUSH1 0x5 SHL DUP7 ADD ADD SWAP3 POP PUSH1 0x20 DUP7 ADD PUSH0 JUMPDEST DUP3 DUP2 LT ISZERO PUSH2 0x2A95 JUMPI PUSH1 0x3F NOT DUP8 DUP7 SUB ADD DUP5 MSTORE DUP2 MLOAD PUSH1 0x1 DUP1 PUSH1 0xA0 SHL SUB DUP2 MLOAD AND DUP7 MSTORE PUSH1 0x20 DUP2 ADD MLOAD PUSH1 0x20 DUP8 ADD MSTORE PUSH1 0x40 DUP2 ADD MLOAD PUSH1 0x80 PUSH1 0x40 DUP9 ADD MSTORE PUSH2 0x2A70 PUSH1 0x80 DUP9 ADD DUP3 PUSH2 0x29A1 JUMP JUMPDEST PUSH1 0x60 SWAP3 DUP4 ADD MLOAD ISZERO ISZERO SWAP8 SWAP1 SWAP3 ADD SWAP7 SWAP1 SWAP7 MSTORE SWAP5 POP PUSH1 0x20 SWAP4 DUP5 ADD SWAP4 SWAP2 SWAP1 SWAP2 ADD SWAP1 PUSH1 0x1 ADD PUSH2 0x2A2E JUMP JUMPDEST POP SWAP3 SWAP7 SWAP6 POP POP POP POP POP POP JUMP JUMPDEST PUSH0 DUP1 PUSH1 0x40 DUP4 DUP6 SUB SLT ISZERO PUSH2 0x2AB2 JUMPI PUSH0 DUP1 REVERT JUMPDEST DUP3 CALLDATALOAD PUSH1 0x1 PUSH1 0x1 PUSH1 0x40 SHL SUB DUP2 GT ISZERO PUSH2 0x2AC7 JUMPI PUSH0 DUP1 REVERT JUMPDEST PUSH2 0x2AD3 DUP6 DUP3 DUP7 ADD PUSH2 0x291E JUMP JUMPDEST SWAP3 POP POP PUSH1 0x20 DUP4 ADD CALLDATALOAD PUSH1 0x1 PUSH1 0x1 PUSH1 0x40 SHL SUB DUP2 GT ISZERO PUSH2 0x2AEE JUMPI PUSH0 DUP1 REVERT JUMPDEST PUSH2 0x2AFA DUP6 DUP3 DUP7 ADD PUSH2 0x291E JUMP JUMPDEST SWAP2 POP POP SWAP3 POP SWAP3 SWAP1 POP JUMP JUMPDEST PUSH1 0x1 PUSH1 0x1 PUSH1 0xA0 SHL SUB DUP2 AND DUP2 EQ PUSH2 0x27C9 JUMPI PUSH0 DUP1 REVERT JUMPDEST PUSH0 PUSH1 0x20 DUP3 DUP5 SUB SLT ISZERO PUSH2 0x2B28 JUMPI PUSH0 DUP1 REVERT JUMPDEST DUP2 CALLDATALOAD PUSH2 0xC7C DUP2 PUSH2 0x2B04 JUMP JUMPDEST PUSH1 0x20 DUP2 MSTORE PUSH0 PUSH2 0xC7C PUSH1 0x20 DUP4 ADD DUP5 PUSH2 0x29A1 JUMP JUMPDEST PUSH1 0xA0 DUP2 MSTORE PUSH0 PUSH2 0x2B57 PUSH1 0xA0 DUP4 ADD DUP9 PUSH2 0x29A1 JUMP JUMPDEST PUSH1 0x20 DUP4 ADD SWAP7 SWAP1 SWAP7 MSTORE POP SWAP3 ISZERO ISZERO PUSH1 0x40 DUP5 ADD MSTORE PUSH1 0x60 DUP4 ADD SWAP2 SWAP1 SWAP2 MSTORE PUSH1 0x1 PUSH1 0x1 PUSH1 0xA0 SHL SUB AND PUSH1 0x80 SWAP1 SWAP2 ADD MSTORE SWAP2 SWAP1 POP JUMP JUMPDEST PUSH0 DUP1 PUSH1 0x40 DUP4 DUP6 SUB SLT ISZERO PUSH2 0x2B95 JUMPI PUSH0 DUP1 REVERT JUMPDEST DUP3 CALLDATALOAD PUSH1 0x1 PUSH1 0x1 PUSH1 0x40 SHL SUB DUP2 GT ISZERO PUSH2 0x2BAA JUMPI PUSH0 DUP1 REVERT JUMPDEST PUSH2 0x2BB6 DUP6 DUP3 DUP7 ADD PUSH2 0x291E JUMP JUMPDEST SWAP3 POP POP PUSH1 0x20 DUP4 ADD CALLDATALOAD PUSH2 0x2BC7 DUP2 PUSH2 0x2B04 JUMP JUMPDEST DUP1 SWAP2 POP POP SWAP3 POP SWAP3 SWAP1 POP JUMP JUMPDEST PUSH1 0xFF DUP2 AND DUP2 EQ PUSH2 0x27C9 JUMPI PUSH0 DUP1 REVERT JUMPDEST PUSH0 DUP1 PUSH0 PUSH1 0x60 DUP5 DUP7 SUB SLT ISZERO PUSH2 0x2BF2 JUMPI PUSH0 DUP1 REVERT JUMPDEST DUP4 CALLDATALOAD PUSH1 0x1 PUSH1 0x1 PUSH1 0x40 SHL SUB DUP2 GT ISZERO PUSH2 0x2C07 JUMPI PUSH0 DUP1 REVERT JUMPDEST PUSH2 0x2C13 DUP7 DUP3 DUP8 ADD PUSH2 0x291E JUMP JUMPDEST SWAP4 POP POP PUSH1 0x20 DUP5 ADD CALLDATALOAD PUSH2 0x2C24 DUP2 PUSH2 0x2B04 JUMP JUMPDEST SWAP2 POP PUSH1 0x40 DUP5 ADD CALLDATALOAD PUSH2 0x2C34 DUP2 PUSH2 0x2BD2 JUMP JUMPDEST DUP1 SWAP2 POP POP SWAP3 POP SWAP3 POP SWAP3 JUMP JUMPDEST PUSH1 0x20 DUP1 DUP3 MSTORE PUSH0 SWAP1 PUSH1 0x60 DUP4 ADD SWAP1 DUP4 ADD DUP5 DUP4 JUMPDEST PUSH1 0x2 DUP2 LT ISZERO PUSH2 0x2CC8 JUMPI DUP6 DUP5 SUB PUSH1 0x1F NOT ADD DUP4 MSTORE DUP2 MLOAD DUP1 MLOAD DUP1 DUP7 MSTORE PUSH1 0x20 SWAP2 DUP3 ADD SWAP2 DUP1 DUP8 ADD SWAP2 SWAP1 PUSH1 0x5 DUP3 SWAP1 SHL DUP9 ADD ADD PUSH0 JUMPDEST DUP3 DUP2 LT ISZERO PUSH2 0x2CAF JUMPI PUSH1 0x1F NOT DUP10 DUP4 SUB ADD DUP5 MSTORE PUSH2 0x2C9A DUP3 DUP7 MLOAD PUSH2 0x29A1 JUMP JUMPDEST PUSH1 0x20 SWAP6 DUP7 ADD SWAP6 SWAP5 SWAP1 SWAP5 ADD SWAP4 SWAP2 POP PUSH1 0x1 ADD PUSH2 0x2C7E JUMP JUMPDEST POP SWAP7 POP POP POP PUSH1 0x20 SWAP4 DUP5 ADD SWAP4 SWAP3 SWAP1 SWAP3 ADD SWAP2 POP PUSH1 0x1 ADD PUSH2 0x2C50 JUMP JUMPDEST POP SWAP2 SWAP6 SWAP5 POP POP POP POP POP JUMP JUMPDEST PUSH1 0x1 DUP2 DUP2 SHR SWAP1 DUP3 AND DUP1 PUSH2 0x2CE7 JUMPI PUSH1 0x7F DUP3 AND SWAP2 POP JUMPDEST PUSH1 0x20 DUP3 LT DUP2 SUB PUSH2 0x81A JUMPI PUSH4 0x4E487B71 PUSH1 0xE0 SHL PUSH0 MSTORE PUSH1 0x22 PUSH1 0x4 MSTORE PUSH1 0x24 PUSH0 REVERT JUMPDEST PUSH0 DUP2 SLOAD PUSH2 0x2D11 DUP2 PUSH2 0x2CD3 JUMP JUMPDEST PUSH1 0x1 DUP3 AND DUP1 ISZERO PUSH2 0x2D28 JUMPI PUSH1 0x1 DUP2 EQ PUSH2 0x2D3D JUMPI PUSH2 0x2D6A JUMP JUMPDEST PUSH1 0xFF NOT DUP4 AND DUP7 MSTORE DUP2 ISZERO ISZERO DUP3 MUL DUP7 ADD SWAP4 POP PUSH2 0x2D6A JUMP JUMPDEST DUP5 PUSH0 MSTORE PUSH1 0x20 PUSH0 KECCAK256 PUSH0 JUMPDEST DUP4 DUP2 LT ISZERO PUSH2 0x2D62 JUMPI DUP2 SLOAD DUP9 DUP3 ADD MSTORE PUSH1 0x1 SWAP1 SWAP2 ADD SWAP1 PUSH1 0x20 ADD PUSH2 0x2D46 JUMP JUMPDEST POP POP DUP2 DUP7 ADD SWAP4 POP JUMPDEST POP POP POP SWAP3 SWAP2 POP POP JUMP JUMPDEST PUSH0 PUSH2 0xC7C DUP3 DUP5 PUSH2 0x2D05 JUMP JUMPDEST PUSH4 0x4E487B71 PUSH1 0xE0 SHL PUSH0 MSTORE PUSH1 0x32 PUSH1 0x4 MSTORE PUSH1 0x24 PUSH0 REVERT JUMPDEST PUSH4 0x4E487B71 PUSH1 0xE0 SHL PUSH0 MSTORE PUSH1 0x11 PUSH1 0x4 MSTORE PUSH1 0x24 PUSH0 REVERT JUMPDEST DUP2 DUP2 SUB DUP2 DUP2 GT ISZERO PUSH2 0x278C JUMPI PUSH2 0x278C PUSH2 0x2D92 JUMP JUMPDEST PUSH4 0x4E487B71 PUSH1 0xE0 SHL PUSH0 MSTORE PUSH1 0x31 PUSH1 0x4 MSTORE PUSH1 0x24 PUSH0 REVERT JUMPDEST PUSH1 0x1F DUP3 GT ISZERO PUSH2 0x5CE JUMPI DUP1 PUSH0 MSTORE PUSH1 0x20 PUSH0 KECCAK256 PUSH1 0x1F DUP5 ADD PUSH1 0x5 SHR DUP2 ADD PUSH1 0x20 DUP6 LT ISZERO PUSH2 0x2DF2 JUMPI POP DUP1 JUMPDEST PUSH1 0x1F DUP5 ADD PUSH1 0x5 SHR DUP3 ADD SWAP2 POP JUMPDEST DUP2 DUP2 LT ISZERO PUSH2 0x2E11 JUMPI PUSH0 DUP2 SSTORE PUSH1 0x1 ADD PUSH2 0x2DFE JUMP JUMPDEST POP POP POP POP POP JUMP JUMPDEST DUP2 DUP2 SUB PUSH2 0x2E23 JUMPI POP POP JUMP JUMPDEST PUSH2 0x2E2D DUP3 SLOAD PUSH2 0x2CD3 JUMP JUMPDEST PUSH1 0x1 PUSH1 0x1 PUSH1 0x40 SHL SUB DUP2 GT ISZERO PUSH2 0x2E44 JUMPI PUSH2 0x2E44 PUSH2 0x28B4 JUMP JUMPDEST PUSH2 0x2E58 DUP2 PUSH2 0x2E52 DUP5 SLOAD PUSH2 0x2CD3 JUMP JUMPDEST DUP5 PUSH2 0x2DCD JUMP JUMPDEST PUSH0 PUSH1 0x1F DUP3 GT PUSH1 0x1 DUP2 EQ PUSH2 0x2E8C JUMPI PUSH0 DUP4 ISZERO PUSH2 0x2E72 JUMPI POP DUP5 DUP3 ADD SLOAD JUMPDEST PUSH1 0x1 DUP5 SWAP1 SHL PUSH0 NOT PUSH1 0x3 DUP7 SWAP1 SHL SHR NOT DUP3 AND OR JUMPDEST DUP6 SSTORE POP PUSH2 0x2E11 JUMP JUMPDEST PUSH0 DUP6 DUP2 MSTORE PUSH1 0x20 DUP1 DUP3 KECCAK256 DUP7 DUP4 MSTORE SWAP1 DUP3 KECCAK256 PUSH1 0x1F NOT DUP7 AND SWAP3 JUMPDEST DUP4 DUP2 LT ISZERO PUSH2 0x2EC2 JUMPI DUP3 DUP7 ADD SLOAD DUP3 SSTORE PUSH1 0x1 SWAP6 DUP7 ADD SWAP6 SWAP1 SWAP2 ADD SWAP1 PUSH1 0x20 ADD PUSH2 0x2EA2 JUMP JUMPDEST POP DUP6 DUP4 LT ISZERO PUSH2 0x2EDF JUMPI DUP2 DUP6 ADD SLOAD PUSH0 NOT PUSH1 0x3 DUP9 SWAP1 SHL PUSH1 0xF8 AND SHR NOT AND DUP2 SSTORE JUMPDEST POP POP POP POP POP PUSH1 0x1 SWAP1 DUP2 SHL ADD SWAP1 SSTORE POP JUMP JUMPDEST PUSH0 DUP2 MLOAD DUP1 PUSH1 0x20 DUP5 ADD DUP6 MCOPY PUSH0 SWAP4 ADD SWAP3 DUP4 MSTORE POP SWAP1 SWAP2 SWAP1 POP JUMP JUMPDEST PUSH0 PUSH2 0xC7C DUP3 DUP5 PUSH2 0x2EEF JUMP JUMPDEST PUSH1 0x40 DUP2 MSTORE PUSH0 PUSH2 0x2F23 PUSH1 0x40 DUP4 ADD DUP6 PUSH2 0x29A1 JUMP JUMPDEST DUP3 DUP2 SUB PUSH1 0x20 DUP5 ADD MSTORE PUSH2 0x2F35 DUP2 DUP6 PUSH2 0x29A1 JUMP JUMPDEST SWAP6 SWAP5 POP POP POP POP POP JUMP JUMPDEST PUSH5 0x2AB9B2B91 PUSH1 0xDD SHL DUP2 MSTORE PUSH0 PUSH2 0xC7C PUSH1 0x5 DUP4 ADD DUP5 PUSH2 0x2EEF JUMP JUMPDEST DUP2 MLOAD PUSH1 0x1 PUSH1 0x1 PUSH1 0x40 SHL SUB DUP2 GT ISZERO PUSH2 0x2F70 JUMPI PUSH2 0x2F70 PUSH2 0x28B4 JUMP JUMPDEST PUSH2 0x2F7E DUP2 PUSH2 0x2E52 DUP5 SLOAD PUSH2 0x2CD3 JUMP JUMPDEST PUSH1 0x20 PUSH1 0x1F DUP3 GT PUSH1 0x1 DUP2 EQ PUSH2 0x2FAE JUMPI PUSH0 DUP4 ISZERO PUSH2 0x2E72 JUMPI POP DUP2 DUP6 ADD MLOAD PUSH1 0x1 DUP5 SWAP1 SHL PUSH0 NOT PUSH1 0x3 DUP7 SWAP1 SHL SHR NOT DUP3 AND OR PUSH2 0x2E84 JUMP JUMPDEST PUSH0 DUP5 DUP2 MSTORE PUSH1 0x20 DUP2 KECCAK256 PUSH1 0x1F NOT DUP6 AND SWAP2 JUMPDEST DUP3 DUP2 LT ISZERO PUSH2 0x2FDD JUMPI DUP8 DUP6 ADD MLOAD DUP3 SSTORE PUSH1 0x20 SWAP5 DUP6 ADD SWAP5 PUSH1 0x1 SWAP1 SWAP3 ADD SWAP2 ADD PUSH2 0x2FBD JUMP JUMPDEST POP DUP5 DUP3 LT ISZERO PUSH2 0x2FFA JUMPI DUP7 DUP5 ADD MLOAD PUSH0 NOT PUSH1 0x3 DUP8 SWAP1 SHL PUSH1 0xF8 AND SHR NOT AND DUP2 SSTORE JUMPDEST POP POP POP POP PUSH1 0x1 SWAP1 DUP2 SHL ADD SWAP1 SSTORE POP JUMP JUMPDEST DUP1 DUP3 ADD DUP1 DUP3 GT ISZERO PUSH2 0x278C JUMPI PUSH2 0x278C PUSH2 0x2D92 JUMP JUMPDEST PUSH1 0x40 DUP2 MSTORE PUSH0 PUSH2 0x302E PUSH1 0x40 DUP4 ADD DUP6 PUSH2 0x29A1 JUMP JUMPDEST SWAP1 POP PUSH1 0x1 DUP1 PUSH1 0xA0 SHL SUB DUP4 AND PUSH1 0x20 DUP4 ADD MSTORE SWAP4 SWAP3 POP POP POP JUMP JUMPDEST PUSH0 PUSH1 0x20 DUP3 DUP5 SUB SLT ISZERO PUSH2 0x3055 JUMPI PUSH0 DUP1 REVERT JUMPDEST DUP2 MLOAD PUSH2 0xC7C DUP2 PUSH2 0x2BD2 JUMP JUMPDEST PUSH0 DUP3 PUSH1 0x1F DUP4 ADD SLT PUSH2 0x306F JUMPI PUSH0 DUP1 REVERT JUMPDEST DUP2 MLOAD PUSH2 0x307D PUSH2 0x293B DUP3 PUSH2 0x28F8 JUMP JUMPDEST DUP2 DUP2 MSTORE DUP5 PUSH1 0x20 DUP4 DUP7 ADD ADD GT ISZERO PUSH2 0x3091 JUMPI PUSH0 DUP1 REVERT JUMPDEST DUP2 PUSH1 0x20 DUP6 ADD PUSH1 0x20 DUP4 ADD MCOPY PUSH0 SWAP2 DUP2 ADD PUSH1 0x20 ADD SWAP2 SWAP1 SWAP2 MSTORE SWAP4 SWAP3 POP POP POP JUMP JUMPDEST PUSH0 PUSH1 0x20 DUP3 DUP5 SUB SLT ISZERO PUSH2 0x30BD JUMPI PUSH0 DUP1 REVERT JUMPDEST DUP2 MLOAD PUSH1 0x1 PUSH1 0x1 PUSH1 0x40 SHL SUB DUP2 GT ISZERO PUSH2 0x30D2 JUMPI PUSH0 DUP1 REVERT JUMPDEST PUSH2 0xFCC DUP5 DUP3 DUP6 ADD PUSH2 0x3060 JUMP JUMPDEST PUSH1 0x20 DUP1 DUP3 MSTORE PUSH1 0x13 SWAP1 DUP3 ADD MSTORE PUSH19 0x155CD95C88191BD95CC81B9BDD08195E1A5CDD PUSH1 0x6A SHL PUSH1 0x40 DUP3 ADD MSTORE PUSH1 0x60 ADD SWAP1 JUMP JUMPDEST PUSH1 0x60 DUP2 MSTORE PUSH0 PUSH2 0x311D PUSH1 0x60 DUP4 ADD DUP7 PUSH2 0x29A1 JUMP JUMPDEST PUSH1 0x1 PUSH1 0x1 PUSH1 0xA0 SHL SUB DUP6 AND PUSH1 0x20 DUP5 ADD MSTORE DUP3 DUP2 SUB PUSH1 0x40 DUP5 ADD MSTORE PUSH2 0x313E DUP2 DUP6 PUSH2 0x29A1 JUMP JUMPDEST SWAP7 SWAP6 POP POP POP POP POP POP JUMP JUMPDEST PUSH0 PUSH1 0x1 DUP3 ADD PUSH2 0x3159 JUMPI PUSH2 0x3159 PUSH2 0x2D92 JUMP JUMPDEST POP PUSH1 0x1 ADD SWAP1 JUMP JUMPDEST PUSH0 PUSH1 0x20 DUP3 DUP5 SUB SLT ISZERO PUSH2 0x3170 JUMPI PUSH0 DUP1 REVERT JUMPDEST DUP2 MLOAD PUSH2 0xC7C DUP2 PUSH2 0x2B04 JUMP JUMPDEST PUSH1 0x60 DUP2 MSTORE PUSH0 PUSH2 0x318D PUSH1 0x60 DUP4 ADD DUP7 PUSH2 0x29A1 JUMP JUMPDEST PUSH1 0x1 PUSH1 0x1 PUSH1 0xA0 SHL SUB SWAP5 SWAP1 SWAP5 AND PUSH1 0x20 DUP4 ADD MSTORE POP PUSH1 0xFF SWAP2 SWAP1 SWAP2 AND PUSH1 0x40 SWAP1 SWAP2 ADD MSTORE SWAP2 SWAP1 POP JUMP JUMPDEST PUSH0 PUSH2 0x31BB DUP3 DUP5 PUSH2 0x2D05 JUMP JUMPDEST PUSH1 0x2F PUSH1 0xF8 SHL DUP2 MSTORE PUSH1 0x1 ADD SWAP4 SWAP3 POP POP POP JUMP JUMPDEST PUSH0 PUSH1 0x20 DUP3 DUP5 SUB SLT ISZERO PUSH2 0x31DC JUMPI PUSH0 DUP1 REVERT JUMPDEST DUP2 MLOAD PUSH1 0x1 PUSH1 0x1 PUSH1 0x40 SHL SUB DUP2 GT ISZERO PUSH2 0x31F1 JUMPI PUSH0 DUP1 REVERT JUMPDEST DUP3 ADD PUSH1 0x1F DUP2 ADD DUP5 SGT PUSH2 0x3201 JUMPI PUSH0 DUP1 REVERT JUMPDEST DUP1 MLOAD PUSH1 0x1 PUSH1 0x1 PUSH1 0x40 SHL SUB DUP2 GT ISZERO PUSH2 0x321A JUMPI PUSH2 0x321A PUSH2 0x28B4 JUMP JUMPDEST DUP1 PUSH1 0x5 SHL PUSH2 0x322A PUSH1 0x20 DUP3 ADD PUSH2 0x28C8 JUMP JUMPDEST SWAP2 DUP3 MSTORE PUSH1 0x20 DUP2 DUP5 ADD DUP2 ADD SWAP3 SWAP1 DUP2 ADD SWAP1 DUP8 DUP5 GT ISZERO PUSH2 0x3245 JUMPI PUSH0 DUP1 REVERT JUMPDEST PUSH1 0x20 DUP6 ADD SWAP3 POP JUMPDEST DUP4 DUP4 LT ISZERO PUSH2 0x328A JUMPI DUP3 MLOAD PUSH1 0x1 PUSH1 0x1 PUSH1 0x40 SHL SUB DUP2 GT ISZERO PUSH2 0x3269 JUMPI PUSH0 DUP1 REVERT JUMPDEST PUSH2 0x3278 DUP10 PUSH1 0x20 DUP4 DUP10 ADD ADD PUSH2 0x3060 JUMP JUMPDEST DUP4 MSTORE POP PUSH1 0x20 SWAP3 DUP4 ADD SWAP3 SWAP1 SWAP2 ADD SWAP1 PUSH2 0x324C JUMP JUMPDEST SWAP8 SWAP7 POP POP POP POP POP POP POP JUMP INVALID PUSH1 0x80 PUSH1 0x40 MSTORE PUSH0 DUP1 SSTORE CALLVALUE DUP1 ISZERO PUSH1 0x11 JUMPI PUSH0 DUP1 REVERT JUMPDEST POP PUSH2 0x1837 DUP1 PUSH2 0x1F PUSH0 CODECOPY PUSH0 RETURN INVALID PUSH1 0x80 PUSH1 0x40 MSTORE CALLVALUE DUP1 ISZERO PUSH2 0xF JUMPI PUSH0 DUP1 REVERT JUMPDEST POP PUSH1 0x4 CALLDATASIZE LT PUSH2 0xCB JUMPI PUSH0 CALLDATALOAD PUSH1 0xE0 SHR DUP1 PUSH4 0xA9910054 GT PUSH2 0x88 JUMPI DUP1 PUSH4 0xBC051A4D GT PUSH2 0x63 JUMPI DUP1 PUSH4 0xBC051A4D EQ PUSH2 0x1AB JUMPI DUP1 PUSH4 0xCFFA39F9 EQ PUSH2 0x1BE JUMPI DUP1 PUSH4 0xE7755761 EQ PUSH2 0x1E3 JUMPI DUP1 PUSH4 0xECEED653 EQ PUSH2 0x206 JUMPI PUSH0 DUP1 REVERT JUMPDEST DUP1 PUSH4 0xA9910054 EQ PUSH2 0x170 JUMPI DUP1 PUSH4 0xB033D8FA EQ PUSH2 0x183 JUMPI DUP1 PUSH4 0xB6B13CAA EQ PUSH2 0x198 JUMPI PUSH0 DUP1 REVERT JUMPDEST DUP1 PUSH4 0x13D4A044 EQ PUSH2 0xCF JUMPI DUP1 PUSH4 0x38FA8F58 EQ PUSH2 0xE4 JUMPI DUP1 PUSH4 0x43953519 EQ PUSH2 0x114 JUMPI DUP1 PUSH4 0x60F9BB11 EQ PUSH2 0x12A JUMPI DUP1 PUSH4 0x7D41216D EQ PUSH2 0x14A JUMPI DUP1 PUSH4 0x897E0A97 EQ PUSH2 0x15D JUMPI JUMPDEST PUSH0 DUP1 REVERT JUMPDEST PUSH2 0xE2 PUSH2 0xDD CALLDATASIZE PUSH1 0x4 PUSH2 0x11C2 JUMP JUMPDEST PUSH2 0x219 JUMP JUMPDEST STOP JUMPDEST PUSH2 0xF7 PUSH2 0xF2 CALLDATASIZE PUSH1 0x4 PUSH2 0x1227 JUMP JUMPDEST PUSH2 0x510 JUMP JUMPDEST PUSH1 0x40 MLOAD PUSH1 0x1 PUSH1 0x1 PUSH1 0xA0 SHL SUB SWAP1 SWAP2 AND DUP2 MSTORE PUSH1 0x20 ADD JUMPDEST PUSH1 0x40 MLOAD DUP1 SWAP2 SUB SWAP1 RETURN JUMPDEST PUSH2 0x11C PUSH0 SLOAD DUP2 JUMP JUMPDEST PUSH1 0x40 MLOAD SWAP1 DUP2 MSTORE PUSH1 0x20 ADD PUSH2 0x10B JUMP JUMPDEST PUSH2 0x13D PUSH2 0x138 CALLDATASIZE PUSH1 0x4 PUSH2 0x1227 JUMP JUMPDEST PUSH2 0x58F JUMP JUMPDEST PUSH1 0x40 MLOAD PUSH2 0x10B SWAP2 SWAP1 PUSH2 0x128F JUMP JUMPDEST PUSH2 0x13D PUSH2 0x158 CALLDATASIZE PUSH1 0x4 PUSH2 0x12C3 JUMP JUMPDEST PUSH2 0x684 JUMP JUMPDEST PUSH2 0xE2 PUSH2 0x16B CALLDATASIZE PUSH1 0x4 PUSH2 0x11C2 JUMP JUMPDEST PUSH2 0x7C6 JUMP JUMPDEST PUSH2 0xE2 PUSH2 0x17E CALLDATASIZE PUSH1 0x4 PUSH2 0x1227 JUMP JUMPDEST PUSH2 0x83D JUMP JUMPDEST PUSH2 0x18B PUSH2 0xA25 JUMP JUMPDEST PUSH1 0x40 MLOAD PUSH2 0x10B SWAP2 SWAP1 PUSH2 0x130E JUMP JUMPDEST PUSH2 0xE2 PUSH2 0x1A6 CALLDATASIZE PUSH1 0x4 PUSH2 0x11C2 JUMP JUMPDEST PUSH2 0xAF9 JUMP JUMPDEST PUSH2 0xE2 PUSH2 0x1B9 CALLDATASIZE PUSH1 0x4 PUSH2 0x1371 JUMP JUMPDEST PUSH2 0xB8E JUMP JUMPDEST PUSH2 0x1D1 PUSH2 0x1CC CALLDATASIZE PUSH1 0x4 PUSH2 0x12C3 JUMP JUMPDEST PUSH2 0xD88 JUMP JUMPDEST PUSH1 0x40 MLOAD PUSH1 0xFF SWAP1 SWAP2 AND DUP2 MSTORE PUSH1 0x20 ADD PUSH2 0x10B JUMP JUMPDEST PUSH2 0x1F6 PUSH2 0x1F1 CALLDATASIZE PUSH1 0x4 PUSH2 0x1227 JUMP JUMPDEST PUSH2 0xE13 JUMP JUMPDEST PUSH1 0x40 MLOAD PUSH2 0x10B SWAP5 SWAP4 SWAP3 SWAP2 SWAP1 PUSH2 0x13E5 JUMP JUMPDEST PUSH2 0xE2 PUSH2 0x214 CALLDATASIZE PUSH1 0x4 PUSH2 0x142B JUMP JUMPDEST PUSH2 0xF60 JUMP JUMPDEST DUP2 PUSH1 0x1 DUP2 PUSH1 0x40 MLOAD PUSH2 0x22A SWAP2 SWAP1 PUSH2 0x14A5 JUMP JUMPDEST SWAP1 DUP2 MSTORE PUSH1 0x40 MLOAD SWAP1 DUP2 SWAP1 SUB PUSH1 0x20 ADD SWAP1 KECCAK256 PUSH1 0x2 ADD SLOAD PUSH1 0xFF AND PUSH2 0x265 JUMPI PUSH1 0x40 MLOAD PUSH3 0x461BCD PUSH1 0xE5 SHL DUP2 MSTORE PUSH1 0x4 ADD PUSH2 0x25C SWAP1 PUSH2 0x14B0 JUMP JUMPDEST PUSH1 0x40 MLOAD DUP1 SWAP2 SUB SWAP1 REVERT JUMPDEST PUSH1 0x1 DUP3 PUSH1 0x40 MLOAD PUSH2 0x275 SWAP2 SWAP1 PUSH2 0x14A5 JUMP JUMPDEST SWAP1 DUP2 MSTORE PUSH1 0x40 MLOAD SWAP1 DUP2 SWAP1 SUB PUSH1 0x20 ADD SWAP1 KECCAK256 PUSH1 0x2 ADD SLOAD PUSH1 0xFF AND ISZERO PUSH2 0x2CD JUMPI PUSH1 0x40 MLOAD PUSH3 0x461BCD PUSH1 0xE5 SHL DUP2 MSTORE PUSH1 0x20 PUSH1 0x4 DUP3 ADD MSTORE PUSH1 0x12 PUSH1 0x24 DUP3 ADD MSTORE PUSH18 0x4E616D65206E6F7420617661696C61626C65 PUSH1 0x70 SHL PUSH1 0x44 DUP3 ADD MSTORE PUSH1 0x64 ADD PUSH2 0x25C JUMP JUMPDEST PUSH2 0x3AF DUP3 PUSH1 0x1 DUP6 PUSH1 0x40 MLOAD PUSH2 0x2E1 SWAP2 SWAP1 PUSH2 0x14A5 JUMP JUMPDEST SWAP1 DUP2 MSTORE PUSH1 0x40 MLOAD SWAP1 DUP2 SWAP1 SUB PUSH1 0x20 ADD DUP2 KECCAK256 PUSH1 0x2 ADD SLOAD PUSH1 0x1 PUSH1 0x1 PUSH1 0xA0 SHL SUB PUSH2 0x100 SWAP1 SWAP2 DIV AND SWAP1 PUSH1 0x1 SWAP1 PUSH2 0x312 SWAP1 DUP9 SWAP1 PUSH2 0x14A5 JUMP JUMPDEST SWAP1 DUP2 MSTORE PUSH1 0x20 ADD PUSH1 0x40 MLOAD DUP1 SWAP2 SUB SWAP1 KECCAK256 PUSH1 0x1 ADD DUP1 SLOAD PUSH2 0x32E SWAP1 PUSH2 0x14DD JUMP JUMPDEST DUP1 PUSH1 0x1F ADD PUSH1 0x20 DUP1 SWAP2 DIV MUL PUSH1 0x20 ADD PUSH1 0x40 MLOAD SWAP1 DUP2 ADD PUSH1 0x40 MSTORE DUP1 SWAP3 SWAP2 SWAP1 DUP2 DUP2 MSTORE PUSH1 0x20 ADD DUP3 DUP1 SLOAD PUSH2 0x35A SWAP1 PUSH2 0x14DD JUMP JUMPDEST DUP1 ISZERO PUSH2 0x3A5 JUMPI DUP1 PUSH1 0x1F LT PUSH2 0x37C JUMPI PUSH2 0x100 DUP1 DUP4 SLOAD DIV MUL DUP4 MSTORE SWAP2 PUSH1 0x20 ADD SWAP2 PUSH2 0x3A5 JUMP JUMPDEST DUP3 ADD SWAP2 SWAP1 PUSH0 MSTORE PUSH1 0x20 PUSH0 KECCAK256 SWAP1 JUMPDEST DUP2 SLOAD DUP2 MSTORE SWAP1 PUSH1 0x1 ADD SWAP1 PUSH1 0x20 ADD DUP1 DUP4 GT PUSH2 0x388 JUMPI DUP3 SWAP1 SUB PUSH1 0x1F AND DUP3 ADD SWAP2 JUMPDEST POP POP POP POP POP PUSH2 0xB8E JUMP JUMPDEST PUSH0 JUMPDEST PUSH1 0x1 DUP5 PUSH1 0x40 MLOAD PUSH2 0x3C1 SWAP2 SWAP1 PUSH2 0x14A5 JUMP JUMPDEST SWAP1 DUP2 MSTORE PUSH1 0x40 MLOAD SWAP1 DUP2 SWAP1 SUB PUSH1 0x20 ADD SWAP1 KECCAK256 PUSH1 0x3 ADD SLOAD DUP2 LT ISZERO PUSH2 0x501 JUMPI PUSH0 PUSH1 0x1 DUP6 PUSH1 0x40 MLOAD PUSH2 0x3EC SWAP2 SWAP1 PUSH2 0x14A5 JUMP JUMPDEST SWAP1 DUP2 MSTORE PUSH1 0x20 ADD PUSH1 0x40 MLOAD DUP1 SWAP2 SUB SWAP1 KECCAK256 PUSH1 0x3 ADD DUP3 DUP2 SLOAD DUP2 LT PUSH2 0x40E JUMPI PUSH2 0x40E PUSH2 0x150F JUMP JUMPDEST PUSH0 SWAP2 DUP3 MSTORE PUSH1 0x20 SWAP1 SWAP2 KECCAK256 ADD SLOAD PUSH1 0x40 MLOAD PUSH1 0x1 PUSH1 0x1 PUSH1 0xA0 SHL SUB SWAP1 SWAP2 AND SWAP2 POP PUSH1 0x1 SWAP1 PUSH2 0x437 SWAP1 DUP7 SWAP1 PUSH2 0x14A5 JUMP JUMPDEST SWAP1 DUP2 MSTORE PUSH1 0x40 MLOAD PUSH1 0x20 SWAP2 DUP2 SWAP1 SUB DUP3 ADD DUP2 KECCAK256 PUSH1 0x3 ADD DUP1 SLOAD PUSH1 0x1 DUP1 DUP3 ADD DUP4 SSTORE PUSH0 SWAP3 DUP4 MSTORE SWAP4 SWAP1 SWAP2 KECCAK256 ADD DUP1 SLOAD PUSH1 0x1 PUSH1 0x1 PUSH1 0xA0 SHL SUB NOT AND PUSH1 0x1 PUSH1 0x1 PUSH1 0xA0 SHL SUB DUP6 AND OR SWAP1 SSTORE PUSH2 0x480 SWAP1 DUP8 SWAP1 PUSH2 0x14A5 JUMP JUMPDEST SWAP1 DUP2 MSTORE PUSH1 0x40 DUP1 MLOAD SWAP2 DUP3 SWAP1 SUB PUSH1 0x20 SWAP1 DUP2 ADD DUP4 KECCAK256 PUSH1 0x1 PUSH1 0x1 PUSH1 0xA0 SHL SUB DUP6 AND PUSH0 SWAP1 DUP2 MSTORE PUSH1 0x4 SWAP1 SWAP2 ADD SWAP1 SWAP2 MSTORE KECCAK256 SLOAD PUSH1 0xFF AND SWAP1 PUSH1 0x1 SWAP1 PUSH2 0x4BC SWAP1 DUP8 SWAP1 PUSH2 0x14A5 JUMP JUMPDEST SWAP1 DUP2 MSTORE PUSH1 0x40 DUP1 MLOAD PUSH1 0x20 SWAP3 DUP2 SWAP1 SUB DUP4 ADD SWAP1 KECCAK256 PUSH1 0x1 PUSH1 0x1 PUSH1 0xA0 SHL SUB SWAP5 SWAP1 SWAP5 AND PUSH0 SWAP1 DUP2 MSTORE PUSH1 0x4 SWAP1 SWAP5 ADD SWAP1 SWAP2 MSTORE SWAP1 SWAP2 KECCAK256 DUP1 SLOAD PUSH1 0xFF NOT AND PUSH1 0xFF SWAP1 SWAP3 AND SWAP2 SWAP1 SWAP2 OR SWAP1 SSTORE PUSH1 0x1 ADD PUSH2 0x3B1 JUMP JUMPDEST POP PUSH2 0x50B DUP4 PUSH2 0x83D JUMP JUMPDEST POP POP POP JUMP JUMPDEST PUSH0 DUP2 PUSH1 0x1 DUP2 PUSH1 0x40 MLOAD PUSH2 0x522 SWAP2 SWAP1 PUSH2 0x14A5 JUMP JUMPDEST SWAP1 DUP2 MSTORE PUSH1 0x40 MLOAD SWAP1 DUP2 SWAP1 SUB PUSH1 0x20 ADD SWAP1 KECCAK256 PUSH1 0x2 ADD SLOAD PUSH1 0xFF AND PUSH2 0x554 JUMPI PUSH1 0x40 MLOAD PUSH3 0x461BCD PUSH1 0xE5 SHL DUP2 MSTORE PUSH1 0x4 ADD PUSH2 0x25C SWAP1 PUSH2 0x14B0 JUMP JUMPDEST PUSH1 0x1 DUP4 PUSH1 0x40 MLOAD PUSH2 0x564 SWAP2 SWAP1 PUSH2 0x14A5 JUMP JUMPDEST SWAP1 DUP2 MSTORE PUSH1 0x40 MLOAD SWAP1 DUP2 SWAP1 SUB PUSH1 0x20 ADD SWAP1 KECCAK256 PUSH1 0x2 ADD SLOAD PUSH1 0x1 PUSH1 0x1 PUSH1 0xA0 SHL SUB PUSH2 0x100 SWAP1 SWAP2 DIV AND SWAP2 POP JUMPDEST POP SWAP2 SWAP1 POP JUMP JUMPDEST PUSH1 0x60 DUP2 PUSH1 0x1 DUP2 PUSH1 0x40 MLOAD PUSH2 0x5A2 SWAP2 SWAP1 PUSH2 0x14A5 JUMP JUMPDEST SWAP1 DUP2 MSTORE PUSH1 0x40 MLOAD SWAP1 DUP2 SWAP1 SUB PUSH1 0x20 ADD SWAP1 KECCAK256 PUSH1 0x2 ADD SLOAD PUSH1 0xFF AND PUSH2 0x5D4 JUMPI PUSH1 0x40 MLOAD PUSH3 0x461BCD PUSH1 0xE5 SHL DUP2 MSTORE PUSH1 0x4 ADD PUSH2 0x25C SWAP1 PUSH2 0x14B0 JUMP JUMPDEST PUSH1 0x1 DUP4 PUSH1 0x40 MLOAD PUSH2 0x5E4 SWAP2 SWAP1 PUSH2 0x14A5 JUMP JUMPDEST SWAP1 DUP2 MSTORE PUSH1 0x20 ADD PUSH1 0x40 MLOAD DUP1 SWAP2 SUB SWAP1 KECCAK256 PUSH1 0x1 ADD DUP1 SLOAD PUSH2 0x600 SWAP1 PUSH2 0x14DD JUMP JUMPDEST DUP1 PUSH1 0x1F ADD PUSH1 0x20 DUP1 SWAP2 DIV MUL PUSH1 0x20 ADD PUSH1 0x40 MLOAD SWAP1 DUP2 ADD PUSH1 0x40 MSTORE DUP1 SWAP3 SWAP2 SWAP1 DUP2 DUP2 MSTORE PUSH1 0x20 ADD DUP3 DUP1 SLOAD PUSH2 0x62C SWAP1 PUSH2 0x14DD JUMP JUMPDEST DUP1 ISZERO PUSH2 0x677 JUMPI DUP1 PUSH1 0x1F LT PUSH2 0x64E JUMPI PUSH2 0x100 DUP1 DUP4 SLOAD DIV MUL DUP4 MSTORE SWAP2 PUSH1 0x20 ADD SWAP2 PUSH2 0x677 JUMP JUMPDEST DUP3 ADD SWAP2 SWAP1 PUSH0 MSTORE PUSH1 0x20 PUSH0 KECCAK256 SWAP1 JUMPDEST DUP2 SLOAD DUP2 MSTORE SWAP1 PUSH1 0x1 ADD SWAP1 PUSH1 0x20 ADD DUP1 DUP4 GT PUSH2 0x65A JUMPI DUP3 SWAP1 SUB PUSH1 0x1F AND DUP3 ADD SWAP2 JUMPDEST POP POP POP POP POP SWAP2 POP POP SWAP2 SWAP1 POP JUMP JUMPDEST PUSH1 0x60 DUP3 PUSH1 0x1 DUP2 PUSH1 0x40 MLOAD PUSH2 0x697 SWAP2 SWAP1 PUSH2 0x14A5 JUMP JUMPDEST SWAP1 DUP2 MSTORE PUSH1 0x40 MLOAD SWAP1 DUP2 SWAP1 SUB PUSH1 0x20 ADD SWAP1 KECCAK256 PUSH1 0x2 ADD SLOAD PUSH1 0xFF AND PUSH2 0x6C9 JUMPI PUSH1 0x40 MLOAD PUSH3 0x461BCD PUSH1 0xE5 SHL DUP2 MSTORE PUSH1 0x4 ADD PUSH2 0x25C SWAP1 PUSH2 0x14B0 JUMP JUMPDEST PUSH1 0x40 DUP1 MLOAD PUSH1 0xC0 DUP2 ADD DUP3 MSTORE PUSH1 0x9 PUSH1 0x80 DUP3 ADD DUP2 DUP2 MSTORE PUSH9 0x4E6F20616363657373 PUSH1 0xB8 SHL PUSH1 0xA0 DUP5 ADD MSTORE DUP3 MSTORE DUP3 MLOAD DUP1 DUP5 ADD DUP5 MSTORE SWAP1 DUP2 MSTORE PUSH9 0x52656164206F6E6C79 PUSH1 0xB8 SHL PUSH1 0x20 DUP3 DUP2 ADD SWAP2 SWAP1 SWAP2 MSTORE DUP1 DUP4 ADD SWAP2 SWAP1 SWAP2 MSTORE DUP3 MLOAD DUP1 DUP5 ADD DUP5 MSTORE PUSH1 0xD DUP2 MSTORE PUSH13 0x14995859080988185C1C195B99 PUSH1 0x9A SHL DUP2 DUP4 ADD MSTORE DUP3 DUP5 ADD MSTORE DUP3 MLOAD DUP1 DUP5 ADD DUP5 MSTORE PUSH1 0x14 DUP2 MSTORE PUSH20 0x526561642C20617070656E642026207772697465 PUSH1 0x60 SHL SWAP2 DUP2 ADD SWAP2 SWAP1 SWAP2 MSTORE PUSH1 0x60 DUP3 ADD MSTORE SWAP1 MLOAD DUP2 SWAP1 PUSH1 0x1 SWAP1 PUSH2 0x77C SWAP1 DUP9 SWAP1 PUSH2 0x14A5 JUMP JUMPDEST SWAP1 DUP2 MSTORE PUSH1 0x40 DUP1 MLOAD PUSH1 0x20 SWAP3 DUP2 SWAP1 SUB DUP4 ADD SWAP1 KECCAK256 PUSH1 0x1 PUSH1 0x1 PUSH1 0xA0 SHL SUB DUP9 AND PUSH0 SWAP1 DUP2 MSTORE PUSH1 0x4 SWAP2 DUP3 ADD SWAP1 SWAP4 MSTORE SWAP2 KECCAK256 SLOAD PUSH1 0xFF AND SWAP1 DUP2 LT PUSH2 0x7B8 JUMPI PUSH2 0x7B8 PUSH2 0x150F JUMP JUMPDEST PUSH1 0x20 MUL ADD MLOAD SWAP6 SWAP5 POP POP POP POP POP JUMP JUMPDEST DUP2 PUSH1 0x1 DUP2 PUSH1 0x40 MLOAD PUSH2 0x7D7 SWAP2 SWAP1 PUSH2 0x14A5 JUMP JUMPDEST SWAP1 DUP2 MSTORE PUSH1 0x40 MLOAD SWAP1 DUP2 SWAP1 SUB PUSH1 0x20 ADD SWAP1 KECCAK256 PUSH1 0x2 ADD SLOAD PUSH1 0xFF AND PUSH2 0x809 JUMPI PUSH1 0x40 MLOAD PUSH3 0x461BCD PUSH1 0xE5 SHL DUP2 MSTORE PUSH1 0x4 ADD PUSH2 0x25C SWAP1 PUSH2 0x14B0 JUMP JUMPDEST DUP2 PUSH1 0x1 DUP5 PUSH1 0x40 MLOAD PUSH2 0x81A SWAP2 SWAP1 PUSH2 0x14A5 JUMP JUMPDEST SWAP1 DUP2 MSTORE PUSH1 0x20 ADD PUSH1 0x40 MLOAD DUP1 SWAP2 SUB SWAP1 KECCAK256 PUSH1 0x1 ADD SWAP1 DUP2 PUSH2 0x837 SWAP2 SWAP1 PUSH2 0x1567 JUMP JUMPDEST POP POP POP POP JUMP JUMPDEST DUP1 PUSH1 0x1 DUP2 PUSH1 0x40 MLOAD PUSH2 0x84E SWAP2 SWAP1 PUSH2 0x14A5 JUMP JUMPDEST SWAP1 DUP2 MSTORE PUSH1 0x40 MLOAD SWAP1 DUP2 SWAP1 SUB PUSH1 0x20 ADD SWAP1 KECCAK256 PUSH1 0x2 ADD SLOAD PUSH1 0xFF AND PUSH2 0x880 JUMPI PUSH1 0x40 MLOAD PUSH3 0x461BCD PUSH1 0xE5 SHL DUP2 MSTORE PUSH1 0x4 ADD PUSH2 0x25C SWAP1 PUSH2 0x14B0 JUMP JUMPDEST PUSH0 PUSH1 0x1 DUP4 PUSH1 0x40 MLOAD PUSH2 0x891 SWAP2 SWAP1 PUSH2 0x14A5 JUMP JUMPDEST SWAP1 DUP2 MSTORE PUSH1 0x40 MLOAD SWAP1 DUP2 SWAP1 SUB PUSH1 0x20 ADD DUP2 KECCAK256 PUSH1 0x2 ADD DUP1 SLOAD SWAP3 ISZERO ISZERO PUSH1 0xFF NOT SWAP1 SWAP4 AND SWAP3 SWAP1 SWAP3 OR SWAP1 SWAP2 SSTORE PUSH1 0x1 SWAP1 PUSH2 0x8C3 SWAP1 DUP5 SWAP1 PUSH2 0x14A5 JUMP JUMPDEST SWAP1 DUP2 MSTORE PUSH1 0x40 MLOAD SWAP1 DUP2 SWAP1 SUB PUSH1 0x20 ADD SWAP1 KECCAK256 PUSH0 PUSH2 0x8DD DUP3 DUP3 PUSH2 0x1057 JUMP JUMPDEST PUSH2 0x8EA PUSH1 0x1 DUP4 ADD PUSH0 PUSH2 0x1057 JUMP JUMPDEST PUSH1 0x2 DUP3 ADD DUP1 SLOAD PUSH1 0x1 PUSH1 0x1 PUSH1 0xA8 SHL SUB NOT AND SWAP1 SSTORE PUSH2 0x909 PUSH1 0x3 DUP4 ADD PUSH0 PUSH2 0x1091 JUMP JUMPDEST POP POP PUSH0 JUMPDEST PUSH1 0x2 SLOAD DUP2 LT ISZERO PUSH2 0xA0D JUMPI DUP3 PUSH1 0x40 MLOAD PUSH1 0x20 ADD PUSH2 0x928 SWAP2 SWAP1 PUSH2 0x14A5 JUMP JUMPDEST PUSH1 0x40 MLOAD PUSH1 0x20 DUP2 DUP4 SUB SUB DUP2 MSTORE SWAP1 PUSH1 0x40 MSTORE DUP1 MLOAD SWAP1 PUSH1 0x20 ADD KECCAK256 PUSH1 0x2 DUP3 DUP2 SLOAD DUP2 LT PUSH2 0x951 JUMPI PUSH2 0x951 PUSH2 0x150F JUMP JUMPDEST SWAP1 PUSH0 MSTORE PUSH1 0x20 PUSH0 KECCAK256 ADD PUSH1 0x40 MLOAD PUSH1 0x20 ADD PUSH2 0x969 SWAP2 SWAP1 PUSH2 0x1693 JUMP JUMPDEST PUSH1 0x40 MLOAD PUSH1 0x20 DUP2 DUP4 SUB SUB DUP2 MSTORE SWAP1 PUSH1 0x40 MSTORE DUP1 MLOAD SWAP1 PUSH1 0x20 ADD KECCAK256 SUB PUSH2 0xA05 JUMPI PUSH1 0x2 DUP1 SLOAD PUSH2 0x994 SWAP1 PUSH1 0x1 SWAP1 PUSH2 0x16B2 JUMP JUMPDEST DUP2 SLOAD DUP2 LT PUSH2 0x9A4 JUMPI PUSH2 0x9A4 PUSH2 0x150F JUMP JUMPDEST SWAP1 PUSH0 MSTORE PUSH1 0x20 PUSH0 KECCAK256 ADD PUSH1 0x2 DUP3 DUP2 SLOAD DUP2 LT PUSH2 0x9BF JUMPI PUSH2 0x9BF PUSH2 0x150F JUMP JUMPDEST SWAP1 PUSH0 MSTORE PUSH1 0x20 PUSH0 KECCAK256 ADD SWAP1 DUP2 PUSH2 0x9D3 SWAP2 SWAP1 PUSH2 0x16CB JUMP JUMPDEST POP PUSH1 0x2 DUP1 SLOAD DUP1 PUSH2 0x9E5 JUMPI PUSH2 0x9E5 PUSH2 0x1798 JUMP JUMPDEST PUSH1 0x1 SWAP1 SUB DUP2 DUP2 SWAP1 PUSH0 MSTORE PUSH1 0x20 PUSH0 KECCAK256 ADD PUSH0 PUSH2 0x9FE SWAP2 SWAP1 PUSH2 0x1057 JUMP JUMPDEST SWAP1 SSTORE PUSH2 0xA0D JUMP JUMPDEST PUSH1 0x1 ADD PUSH2 0x90D JUMP JUMPDEST POP PUSH0 DUP1 SLOAD SWAP1 DUP1 PUSH2 0xA1C DUP4 PUSH2 0x17AC JUMP JUMPDEST SWAP2 SWAP1 POP SSTORE POP POP POP JUMP JUMPDEST PUSH1 0x60 PUSH1 0x2 DUP1 SLOAD DUP1 PUSH1 0x20 MUL PUSH1 0x20 ADD PUSH1 0x40 MLOAD SWAP1 DUP2 ADD PUSH1 0x40 MSTORE DUP1 SWAP3 SWAP2 SWAP1 DUP2 DUP2 MSTORE PUSH1 0x20 ADD PUSH0 SWAP1 JUMPDEST DUP3 DUP3 LT ISZERO PUSH2 0xAF0 JUMPI DUP4 DUP3 SWAP1 PUSH0 MSTORE PUSH1 0x20 PUSH0 KECCAK256 ADD DUP1 SLOAD PUSH2 0xA65 SWAP1 PUSH2 0x14DD JUMP JUMPDEST DUP1 PUSH1 0x1F ADD PUSH1 0x20 DUP1 SWAP2 DIV MUL PUSH1 0x20 ADD PUSH1 0x40 MLOAD SWAP1 DUP2 ADD PUSH1 0x40 MSTORE DUP1 SWAP3 SWAP2 SWAP1 DUP2 DUP2 MSTORE PUSH1 0x20 ADD DUP3 DUP1 SLOAD PUSH2 0xA91 SWAP1 PUSH2 0x14DD JUMP JUMPDEST DUP1 ISZERO PUSH2 0xADC JUMPI DUP1 PUSH1 0x1F LT PUSH2 0xAB3 JUMPI PUSH2 0x100 DUP1 DUP4 SLOAD DIV MUL DUP4 MSTORE SWAP2 PUSH1 0x20 ADD SWAP2 PUSH2 0xADC JUMP JUMPDEST DUP3 ADD SWAP2 SWAP1 PUSH0 MSTORE PUSH1 0x20 PUSH0 KECCAK256 SWAP1 JUMPDEST DUP2 SLOAD DUP2 MSTORE SWAP1 PUSH1 0x1 ADD SWAP1 PUSH1 0x20 ADD DUP1 DUP4 GT PUSH2 0xABF JUMPI DUP3 SWAP1 SUB PUSH1 0x1F AND DUP3 ADD SWAP2 JUMPDEST POP POP POP POP POP DUP2 MSTORE PUSH1 0x20 ADD SWAP1 PUSH1 0x1 ADD SWAP1 PUSH2 0xA48 JUMP JUMPDEST POP POP POP POP SWAP1 POP SWAP1 JUMP JUMPDEST DUP2 PUSH1 0x1 DUP2 PUSH1 0x40 MLOAD PUSH2 0xB0A SWAP2 SWAP1 PUSH2 0x14A5 JUMP JUMPDEST SWAP1 DUP2 MSTORE PUSH1 0x40 MLOAD SWAP1 DUP2 SWAP1 SUB PUSH1 0x20 ADD SWAP1 KECCAK256 PUSH1 0x2 ADD SLOAD PUSH1 0xFF AND PUSH2 0xB3C JUMPI PUSH1 0x40 MLOAD PUSH3 0x461BCD PUSH1 0xE5 SHL DUP2 MSTORE PUSH1 0x4 ADD PUSH2 0x25C SWAP1 PUSH2 0x14B0 JUMP JUMPDEST PUSH1 0x1 DUP4 PUSH1 0x40 MLOAD PUSH2 0xB4C SWAP2 SWAP1 PUSH2 0x14A5 JUMP JUMPDEST SWAP1 DUP2 MSTORE PUSH1 0x20 ADD PUSH1 0x40 MLOAD DUP1 SWAP2 SUB SWAP1 KECCAK256 PUSH1 0x1 ADD DUP3 PUSH1 0x40 MLOAD PUSH1 0x20 ADD PUSH2 0xB6F SWAP3 SWAP2 SWAP1 PUSH2 0x17C1 JUMP JUMPDEST PUSH1 0x40 MLOAD PUSH1 0x20 DUP2 DUP4 SUB SUB DUP2 MSTORE SWAP1 PUSH1 0x40 MSTORE PUSH1 0x1 DUP5 PUSH1 0x40 MLOAD PUSH2 0x81A SWAP2 SWAP1 PUSH2 0x14A5 JUMP JUMPDEST PUSH0 SLOAD PUSH1 0x32 GT PUSH2 0xBD5 JUMPI PUSH1 0x40 MLOAD PUSH3 0x461BCD PUSH1 0xE5 SHL DUP2 MSTORE PUSH1 0x20 PUSH1 0x4 DUP3 ADD MSTORE PUSH1 0x13 PUSH1 0x24 DUP3 ADD MSTORE PUSH19 0x115E18D95959195908199A5B19481B1A5B5A5D PUSH1 0x6A SHL PUSH1 0x44 DUP3 ADD MSTORE PUSH1 0x64 ADD PUSH2 0x25C JUMP JUMPDEST PUSH0 DUP4 MLOAD GT PUSH2 0xC25 JUMPI PUSH1 0x40 MLOAD PUSH3 0x461BCD PUSH1 0xE5 SHL DUP2 MSTORE PUSH1 0x20 PUSH1 0x4 DUP3 ADD MSTORE PUSH1 0x18 PUSH1 0x24 DUP3 ADD MSTORE PUSH32 0x46696C656E616D652063616E6E6F7420626520656D7074790000000000000000 PUSH1 0x44 DUP3 ADD MSTORE PUSH1 0x64 ADD PUSH2 0x25C JUMP JUMPDEST PUSH1 0x1 DUP4 PUSH1 0x40 MLOAD PUSH2 0xC35 SWAP2 SWAP1 PUSH2 0x14A5 JUMP JUMPDEST SWAP1 DUP2 MSTORE PUSH1 0x40 MLOAD SWAP1 DUP2 SWAP1 SUB PUSH1 0x20 ADD SWAP1 KECCAK256 PUSH1 0x2 ADD SLOAD PUSH1 0xFF AND ISZERO PUSH2 0xC8E JUMPI PUSH1 0x40 MLOAD PUSH3 0x461BCD PUSH1 0xE5 SHL DUP2 MSTORE PUSH1 0x20 PUSH1 0x4 DUP3 ADD MSTORE PUSH1 0x13 PUSH1 0x24 DUP3 ADD MSTORE PUSH19 0x46696C6520616C726561647920657869737473 PUSH1 0x68 SHL PUSH1 0x44 DUP3 ADD MSTORE PUSH1 0x64 ADD PUSH2 0x25C JUMP JUMPDEST PUSH0 PUSH1 0x1 DUP5 PUSH1 0x40 MLOAD PUSH2 0xC9F SWAP2 SWAP1 PUSH2 0x14A5 JUMP JUMPDEST SWAP1 DUP2 MSTORE PUSH1 0x40 MLOAD SWAP1 DUP2 SWAP1 SUB PUSH1 0x20 ADD SWAP1 KECCAK256 SWAP1 POP DUP1 PUSH2 0xCBB DUP6 DUP3 PUSH2 0x1567 JUMP JUMPDEST POP PUSH1 0x1 DUP2 ADD PUSH2 0xCCA DUP4 DUP3 PUSH2 0x1567 JUMP JUMPDEST POP PUSH1 0x2 DUP2 ADD DUP1 SLOAD PUSH1 0x1 PUSH1 0x1 PUSH1 0xA0 SHL SUB DUP6 AND PUSH2 0x100 MUL PUSH1 0x1 PUSH1 0x1 PUSH1 0xA8 SHL SUB NOT SWAP1 SWAP2 AND OR PUSH1 0x1 OR SWAP1 SSTORE PUSH1 0x40 DUP1 MLOAD PUSH0 DUP2 MSTORE PUSH1 0x20 DUP2 ADD SWAP2 DUP3 SWAP1 MSTORE MLOAD PUSH2 0xD0F SWAP2 PUSH1 0x3 DUP5 ADD SWAP2 PUSH2 0x10AC JUMP JUMPDEST POP PUSH1 0x1 PUSH1 0x1 PUSH1 0xA0 SHL SUB DUP4 AND PUSH0 SWAP1 DUP2 MSTORE PUSH1 0x4 DUP3 ADD PUSH1 0x20 MSTORE PUSH1 0x40 DUP2 KECCAK256 DUP1 SLOAD PUSH1 0xFF NOT AND PUSH1 0x3 OR SWAP1 SSTORE DUP1 SLOAD SWAP1 DUP1 PUSH2 0xD41 DUP4 PUSH2 0x17E9 JUMP JUMPDEST SWAP1 SWAP2 SSTORE POP POP PUSH1 0x2 DUP1 SLOAD PUSH1 0x1 DUP2 ADD DUP3 SSTORE PUSH0 SWAP2 SWAP1 SWAP2 MSTORE PUSH32 0x405787FA12A823E0F2B7631CC41B3BA8828B3321CA811111FA75CD3AA3BB5ACE ADD PUSH2 0xD81 DUP6 DUP3 PUSH2 0x1567 JUMP JUMPDEST POP POP POP POP POP JUMP JUMPDEST PUSH0 DUP3 PUSH1 0x1 DUP2 PUSH1 0x40 MLOAD PUSH2 0xD9A SWAP2 SWAP1 PUSH2 0x14A5 JUMP JUMPDEST SWAP1 DUP2 MSTORE PUSH1 0x40 MLOAD SWAP1 DUP2 SWAP1 SUB PUSH1 0x20 ADD SWAP1 KECCAK256 PUSH1 0x2 ADD SLOAD PUSH1 0xFF AND PUSH2 0xDCC JUMPI PUSH1 0x40 MLOAD PUSH3 0x461BCD PUSH1 0xE5 SHL DUP2 MSTORE PUSH1 0x4 ADD PUSH2 0x25C SWAP1 PUSH2 0x14B0 JUMP JUMPDEST PUSH1 0x1 DUP5 PUSH1 0x40 MLOAD PUSH2 0xDDC SWAP2 SWAP1 PUSH2 0x14A5 JUMP JUMPDEST SWAP1 DUP2 MSTORE PUSH1 0x40 DUP1 MLOAD PUSH1 0x20 SWAP3 DUP2 SWAP1 SUB DUP4 ADD SWAP1 KECCAK256 PUSH1 0x1 PUSH1 0x1 PUSH1 0xA0 SHL SUB SWAP6 SWAP1 SWAP6 AND PUSH0 SWAP1 DUP2 MSTORE PUSH1 0x4 SWAP1 SWAP6 ADD SWAP1 SWAP2 MSTORE SWAP1 SWAP3 KECCAK256 SLOAD PUSH1 0xFF AND SWAP4 SWAP3 POP POP POP JUMP JUMPDEST DUP1 MLOAD PUSH1 0x20 DUP2 DUP4 ADD DUP2 ADD DUP1 MLOAD PUSH1 0x1 DUP3 MSTORE SWAP3 DUP3 ADD SWAP2 SWAP1 SWAP4 ADD KECCAK256 SWAP2 MSTORE DUP1 SLOAD DUP2 SWAP1 PUSH2 0xE39 SWAP1 PUSH2 0x14DD JUMP JUMPDEST DUP1 PUSH1 0x1F ADD PUSH1 0x20 DUP1 SWAP2 DIV MUL PUSH1 0x20 ADD PUSH1 0x40 MLOAD SWAP1 DUP2 ADD PUSH1 0x40 MSTORE DUP1 SWAP3 SWAP2 SWAP1 DUP2 DUP2 MSTORE PUSH1 0x20 ADD DUP3 DUP1 SLOAD PUSH2 0xE65 SWAP1 PUSH2 0x14DD JUMP JUMPDEST DUP1 ISZERO PUSH2 0xEB0 JUMPI DUP1 PUSH1 0x1F LT PUSH2 0xE87 JUMPI PUSH2 0x100 DUP1 DUP4 SLOAD DIV MUL DUP4 MSTORE SWAP2 PUSH1 0x20 ADD SWAP2 PUSH2 0xEB0 JUMP JUMPDEST DUP3 ADD SWAP2 SWAP1 PUSH0 MSTORE PUSH1 0x20 PUSH0 KECCAK256 SWAP1 JUMPDEST DUP2 SLOAD DUP2 MSTORE SWAP1 PUSH1 0x1 ADD SWAP1 PUSH1 0x20 ADD DUP1 DUP4 GT PUSH2 0xE93 JUMPI DUP3 SWAP1 SUB PUSH1 0x1F AND DUP3 ADD SWAP2 JUMPDEST POP POP POP POP POP SWAP1 DUP1 PUSH1 0x1 ADD DUP1 SLOAD PUSH2 0xEC5 SWAP1 PUSH2 0x14DD JUMP JUMPDEST DUP1 PUSH1 0x1F ADD PUSH1 0x20 DUP1 SWAP2 DIV MUL PUSH1 0x20 ADD PUSH1 0x40 MLOAD SWAP1 DUP2 ADD PUSH1 0x40 MSTORE DUP1 SWAP3 SWAP2 SWAP1 DUP2 DUP2 MSTORE PUSH1 0x20 ADD DUP3 DUP1 SLOAD PUSH2 0xEF1 SWAP1 PUSH2 0x14DD JUMP JUMPDEST DUP1 ISZERO PUSH2 0xF3C JUMPI DUP1 PUSH1 0x1F LT PUSH2 0xF13 JUMPI PUSH2 0x100 DUP1 DUP4 SLOAD DIV MUL DUP4 MSTORE SWAP2 PUSH1 0x20 ADD SWAP2 PUSH2 0xF3C JUMP JUMPDEST DUP3 ADD SWAP2 SWAP1 PUSH0 MSTORE PUSH1 0x20 PUSH0 KECCAK256 SWAP1 JUMPDEST DUP2 SLOAD DUP2 MSTORE SWAP1 PUSH1 0x1 ADD SWAP1 PUSH1 0x20 ADD DUP1 DUP4 GT PUSH2 0xF1F JUMPI DUP3 SWAP1 SUB PUSH1 0x1F AND DUP3 ADD SWAP2 JUMPDEST POP POP POP PUSH1 0x2 SWAP1 SWAP4 ADD SLOAD SWAP2 SWAP3 POP POP PUSH1 0xFF DUP2 AND SWAP1 PUSH1 0x1 PUSH1 0x1 PUSH1 0xA0 SHL SUB PUSH2 0x100 SWAP1 SWAP2 DIV AND DUP5 JUMP JUMPDEST DUP3 PUSH1 0x1 DUP2 PUSH1 0x40 MLOAD PUSH2 0xF71 SWAP2 SWAP1 PUSH2 0x14A5 JUMP JUMPDEST SWAP1 DUP2 MSTORE PUSH1 0x40 MLOAD SWAP1 DUP2 SWAP1 SUB PUSH1 0x20 ADD SWAP1 KECCAK256 PUSH1 0x2 ADD SLOAD PUSH1 0xFF AND PUSH2 0xFA3 JUMPI PUSH1 0x40 MLOAD PUSH3 0x461BCD PUSH1 0xE5 SHL DUP2 MSTORE PUSH1 0x4 ADD PUSH2 0x25C SWAP1 PUSH2 0x14B0 JUMP JUMPDEST PUSH1 0x3 DUP3 PUSH1 0xFF AND GT ISZERO PUSH2 0xFF7 JUMPI PUSH1 0x40 MLOAD PUSH3 0x461BCD PUSH1 0xE5 SHL DUP2 MSTORE PUSH1 0x20 PUSH1 0x4 DUP3 ADD MSTORE PUSH1 0x17 PUSH1 0x24 DUP3 ADD MSTORE PUSH32 0x496E76616C6964207065726D697373696F6E206D6F6465000000000000000000 PUSH1 0x44 DUP3 ADD MSTORE PUSH1 0x64 ADD PUSH2 0x25C JUMP JUMPDEST DUP2 PUSH1 0x1 DUP6 PUSH1 0x40 MLOAD PUSH2 0x1008 SWAP2 SWAP1 PUSH2 0x14A5 JUMP JUMPDEST SWAP1 DUP2 MSTORE PUSH1 0x20 ADD PUSH1 0x40 MLOAD DUP1 SWAP2 SUB SWAP1 KECCAK256 PUSH1 0x4 ADD PUSH0 DUP6 PUSH1 0x1 PUSH1 0x1 PUSH1 0xA0 SHL SUB AND PUSH1 0x1 PUSH1 0x1 PUSH1 0xA0 SHL SUB AND DUP2 MSTORE PUSH1 0x20 ADD SWAP1 DUP2 MSTORE PUSH1 0x20 ADD PUSH0 KECCAK256 PUSH0 PUSH2 0x100 EXP DUP2 SLOAD DUP2 PUSH1 0xFF MUL NOT AND SWAP1 DUP4 PUSH1 0xFF AND MUL OR SWAP1 SSTORE POP POP POP POP POP JUMP JUMPDEST POP DUP1 SLOAD PUSH2 0x1063 SWAP1 PUSH2 0x14DD JUMP JUMPDEST PUSH0 DUP3 SSTORE DUP1 PUSH1 0x1F LT PUSH2 0x1072 JUMPI POP POP JUMP JUMPDEST PUSH1 0x1F ADD PUSH1 0x20 SWAP1 DIV SWAP1 PUSH0 MSTORE PUSH1 0x20 PUSH0 KECCAK256 SWAP1 DUP2 ADD SWAP1 PUSH2 0x108E SWAP2 SWAP1 PUSH2 0x110F JUMP JUMPDEST POP JUMP JUMPDEST POP DUP1 SLOAD PUSH0 DUP3 SSTORE SWAP1 PUSH0 MSTORE PUSH1 0x20 PUSH0 KECCAK256 SWAP1 DUP2 ADD SWAP1 PUSH2 0x108E SWAP2 SWAP1 PUSH2 0x110F JUMP JUMPDEST DUP3 DUP1 SLOAD DUP3 DUP3 SSTORE SWAP1 PUSH0 MSTORE PUSH1 0x20 PUSH0 KECCAK256 SWAP1 DUP2 ADD SWAP3 DUP3 ISZERO PUSH2 0x10FF JUMPI SWAP2 PUSH1 0x20 MUL DUP3 ADD JUMPDEST DUP3 DUP2 GT ISZERO PUSH2 0x10FF JUMPI DUP3 MLOAD DUP3 SLOAD PUSH1 0x1 PUSH1 0x1 PUSH1 0xA0 SHL SUB NOT AND PUSH1 0x1 PUSH1 0x1 PUSH1 0xA0 SHL SUB SWAP1 SWAP2 AND OR DUP3 SSTORE PUSH1 0x20 SWAP1 SWAP3 ADD SWAP2 PUSH1 0x1 SWAP1 SWAP2 ADD SWAP1 PUSH2 0x10CA JUMP JUMPDEST POP PUSH2 0x110B SWAP3 SWAP2 POP PUSH2 0x110F JUMP JUMPDEST POP SWAP1 JUMP JUMPDEST JUMPDEST DUP1 DUP3 GT ISZERO PUSH2 0x110B JUMPI PUSH0 DUP2 SSTORE PUSH1 0x1 ADD PUSH2 0x1110 JUMP JUMPDEST PUSH4 0x4E487B71 PUSH1 0xE0 SHL PUSH0 MSTORE PUSH1 0x41 PUSH1 0x4 MSTORE PUSH1 0x24 PUSH0 REVERT JUMPDEST PUSH0 DUP3 PUSH1 0x1F DUP4 ADD SLT PUSH2 0x1146 JUMPI PUSH0 DUP1 REVERT JUMPDEST DUP2 CALLDATALOAD PUSH8 0xFFFFFFFFFFFFFFFF DUP2 GT ISZERO PUSH2 0x1160 JUMPI PUSH2 0x1160 PUSH2 0x1123 JUMP JUMPDEST PUSH1 0x40 MLOAD PUSH1 0x1F DUP3 ADD PUSH1 0x1F NOT SWAP1 DUP2 AND PUSH1 0x3F ADD AND DUP2 ADD PUSH8 0xFFFFFFFFFFFFFFFF DUP2 GT DUP3 DUP3 LT OR ISZERO PUSH2 0x118F JUMPI PUSH2 0x118F PUSH2 0x1123 JUMP JUMPDEST PUSH1 0x40 MSTORE DUP2 DUP2 MSTORE DUP4 DUP3 ADD PUSH1 0x20 ADD DUP6 LT ISZERO PUSH2 0x11A6 JUMPI PUSH0 DUP1 REVERT JUMPDEST DUP2 PUSH1 0x20 DUP6 ADD PUSH1 0x20 DUP4 ADD CALLDATACOPY PUSH0 SWAP2 DUP2 ADD PUSH1 0x20 ADD SWAP2 SWAP1 SWAP2 MSTORE SWAP4 SWAP3 POP POP POP JUMP JUMPDEST PUSH0 DUP1 PUSH1 0x40 DUP4 DUP6 SUB SLT ISZERO PUSH2 0x11D3 JUMPI PUSH0 DUP1 REVERT JUMPDEST DUP3 CALLDATALOAD PUSH8 0xFFFFFFFFFFFFFFFF DUP2 GT ISZERO PUSH2 0x11E9 JUMPI PUSH0 DUP1 REVERT JUMPDEST PUSH2 0x11F5 DUP6 DUP3 DUP7 ADD PUSH2 0x1137 JUMP JUMPDEST SWAP3 POP POP PUSH1 0x20 DUP4 ADD CALLDATALOAD PUSH8 0xFFFFFFFFFFFFFFFF DUP2 GT ISZERO PUSH2 0x1211 JUMPI PUSH0 DUP1 REVERT JUMPDEST PUSH2 0x121D DUP6 DUP3 DUP7 ADD PUSH2 0x1137 JUMP JUMPDEST SWAP2 POP POP SWAP3 POP SWAP3 SWAP1 POP JUMP JUMPDEST PUSH0 PUSH1 0x20 DUP3 DUP5 SUB SLT ISZERO PUSH2 0x1237 JUMPI PUSH0 DUP1 REVERT JUMPDEST DUP2 CALLDATALOAD PUSH8 0xFFFFFFFFFFFFFFFF DUP2 GT ISZERO PUSH2 0x124D JUMPI PUSH0 DUP1 REVERT JUMPDEST PUSH2 0x1259 DUP5 DUP3 DUP6 ADD PUSH2 0x1137 JUMP JUMPDEST SWAP5 SWAP4 POP POP POP POP JUMP JUMPDEST PUSH0 DUP2 MLOAD DUP1 DUP5 MSTORE DUP1 PUSH1 0x20 DUP5 ADD PUSH1 0x20 DUP7 ADD MCOPY PUSH0 PUSH1 0x20 DUP3 DUP7 ADD ADD MSTORE PUSH1 0x20 PUSH1 0x1F NOT PUSH1 0x1F DUP4 ADD AND DUP6 ADD ADD SWAP2 POP POP SWAP3 SWAP2 POP POP JUMP JUMPDEST PUSH1 0x20 DUP2 MSTORE PUSH0 PUSH2 0x12A1 PUSH1 0x20 DUP4 ADD DUP5 PUSH2 0x1261 JUMP JUMPDEST SWAP4 SWAP3 POP POP POP JUMP JUMPDEST DUP1 CALLDATALOAD PUSH1 0x1 PUSH1 0x1 PUSH1 0xA0 SHL SUB DUP2 AND DUP2 EQ PUSH2 0x12BE JUMPI PUSH0 DUP1 REVERT JUMPDEST SWAP2 SWAP1 POP JUMP JUMPDEST PUSH0 DUP1 PUSH1 0x40 DUP4 DUP6 SUB SLT ISZERO PUSH2 0x12D4 JUMPI PUSH0 DUP1 REVERT JUMPDEST DUP3 CALLDATALOAD PUSH8 0xFFFFFFFFFFFFFFFF DUP2 GT ISZERO PUSH2 0x12EA JUMPI PUSH0 DUP1 REVERT JUMPDEST PUSH2 0x12F6 DUP6 DUP3 DUP7 ADD PUSH2 0x1137 JUMP JUMPDEST SWAP3 POP POP PUSH2 0x1305 PUSH1 0x20 DUP5 ADD PUSH2 0x12A8 JUMP JUMPDEST SWAP1 POP SWAP3 POP SWAP3 SWAP1 POP JUMP JUMPDEST PUSH0 PUSH1 0x20 DUP3 ADD PUSH1 0x20 DUP4 MSTORE DUP1 DUP5 MLOAD DUP1 DUP4 MSTORE PUSH1 0x40 DUP6 ADD SWAP2 POP PUSH1 0x40 DUP2 PUSH1 0x5 SHL DUP7 ADD ADD SWAP3 POP PUSH1 0x20 DUP7 ADD PUSH0 JUMPDEST DUP3 DUP2 LT ISZERO PUSH2 0x1365 JUMPI PUSH1 0x3F NOT DUP8 DUP7 SUB ADD DUP5 MSTORE PUSH2 0x1350 DUP6 DUP4 MLOAD PUSH2 0x1261 JUMP JUMPDEST SWAP5 POP PUSH1 0x20 SWAP4 DUP5 ADD SWAP4 SWAP2 SWAP1 SWAP2 ADD SWAP1 PUSH1 0x1 ADD PUSH2 0x1334 JUMP JUMPDEST POP SWAP3 SWAP7 SWAP6 POP POP POP POP POP POP JUMP JUMPDEST PUSH0 DUP1 PUSH0 PUSH1 0x60 DUP5 DUP7 SUB SLT ISZERO PUSH2 0x1383 JUMPI PUSH0 DUP1 REVERT JUMPDEST DUP4 CALLDATALOAD PUSH8 0xFFFFFFFFFFFFFFFF DUP2 GT ISZERO PUSH2 0x1399 JUMPI PUSH0 DUP1 REVERT JUMPDEST PUSH2 0x13A5 DUP7 DUP3 DUP8 ADD PUSH2 0x1137 JUMP JUMPDEST SWAP4 POP POP PUSH2 0x13B4 PUSH1 0x20 DUP6 ADD PUSH2 0x12A8 JUMP JUMPDEST SWAP2 POP PUSH1 0x40 DUP5 ADD CALLDATALOAD PUSH8 0xFFFFFFFFFFFFFFFF DUP2 GT ISZERO PUSH2 0x13CF JUMPI PUSH0 DUP1 REVERT JUMPDEST PUSH2 0x13DB DUP7 DUP3 DUP8 ADD PUSH2 0x1137 JUMP JUMPDEST SWAP2 POP POP SWAP3 POP SWAP3 POP SWAP3 JUMP JUMPDEST PUSH1 0x80 DUP2 MSTORE PUSH0 PUSH2 0x13F7 PUSH1 0x80 DUP4 ADD DUP8 PUSH2 0x1261 JUMP JUMPDEST DUP3 DUP2 SUB PUSH1 0x20 DUP5 ADD MSTORE PUSH2 0x1409 DUP2 DUP8 PUSH2 0x1261 JUMP JUMPDEST SWAP5 ISZERO ISZERO PUSH1 0x40 DUP5 ADD MSTORE POP POP PUSH1 0x1 PUSH1 0x1 PUSH1 0xA0 SHL SUB SWAP2 SWAP1 SWAP2 AND PUSH1 0x60 SWAP1 SWAP2 ADD MSTORE SWAP3 SWAP2 POP POP JUMP JUMPDEST PUSH0 DUP1 PUSH0 PUSH1 0x60 DUP5 DUP7 SUB SLT ISZERO PUSH2 0x143D JUMPI PUSH0 DUP1 REVERT JUMPDEST DUP4 CALLDATALOAD PUSH8 0xFFFFFFFFFFFFFFFF DUP2 GT ISZERO PUSH2 0x1453 JUMPI PUSH0 DUP1 REVERT JUMPDEST PUSH2 0x145F DUP7 DUP3 DUP8 ADD PUSH2 0x1137 JUMP JUMPDEST SWAP4 POP POP PUSH2 0x146E PUSH1 0x20 DUP6 ADD PUSH2 0x12A8 JUMP JUMPDEST SWAP2 POP PUSH1 0x40 DUP5 ADD CALLDATALOAD PUSH1 0xFF DUP2 AND DUP2 EQ PUSH2 0x1483 JUMPI PUSH0 DUP1 REVERT JUMPDEST DUP1 SWAP2 POP POP SWAP3 POP SWAP3 POP SWAP3 JUMP JUMPDEST PUSH0 DUP2 MLOAD DUP1 PUSH1 0x20 DUP5 ADD DUP6 MCOPY PUSH0 SWAP4 ADD SWAP3 DUP4 MSTORE POP SWAP1 SWAP2 SWAP1 POP JUMP JUMPDEST PUSH0 PUSH2 0x12A1 DUP3 DUP5 PUSH2 0x148E JUMP JUMPDEST PUSH1 0x20 DUP1 DUP3 MSTORE PUSH1 0x13 SWAP1 DUP3 ADD MSTORE PUSH19 0x119A5B1948191BD95CC81B9BDD08195E1A5CDD PUSH1 0x6A SHL PUSH1 0x40 DUP3 ADD MSTORE PUSH1 0x60 ADD SWAP1 JUMP JUMPDEST PUSH1 0x1 DUP2 DUP2 SHR SWAP1 DUP3 AND DUP1 PUSH2 0x14F1 JUMPI PUSH1 0x7F DUP3 AND SWAP2 POP JUMPDEST PUSH1 0x20 DUP3 LT DUP2 SUB PUSH2 0x589 JUMPI PUSH4 0x4E487B71 PUSH1 0xE0 SHL PUSH0 MSTORE PUSH1 0x22 PUSH1 0x4 MSTORE PUSH1 0x24 PUSH0 REVERT JUMPDEST PUSH4 0x4E487B71 PUSH1 0xE0 SHL PUSH0 MSTORE PUSH1 0x32 PUSH1 0x4 MSTORE PUSH1 0x24 PUSH0 REVERT JUMPDEST PUSH1 0x1F DUP3 GT ISZERO PUSH2 0x50B JUMPI DUP1 PUSH0 MSTORE PUSH1 0x20 PUSH0 KECCAK256 PUSH1 0x1F DUP5 ADD PUSH1 0x5 SHR DUP2 ADD PUSH1 0x20 DUP6 LT ISZERO PUSH2 0x1548 JUMPI POP DUP1 JUMPDEST PUSH1 0x1F DUP5 ADD PUSH1 0x5 SHR DUP3 ADD SWAP2 POP JUMPDEST DUP2 DUP2 LT ISZERO PUSH2 0xD81 JUMPI PUSH0 DUP2 SSTORE PUSH1 0x1 ADD PUSH2 0x1554 JUMP JUMPDEST DUP2 MLOAD PUSH8 0xFFFFFFFFFFFFFFFF DUP2 GT ISZERO PUSH2 0x1581 JUMPI PUSH2 0x1581 PUSH2 0x1123 JUMP JUMPDEST PUSH2 0x1595 DUP2 PUSH2 0x158F DUP5 SLOAD PUSH2 0x14DD JUMP JUMPDEST DUP5 PUSH2 0x1523 JUMP JUMPDEST PUSH1 0x20 PUSH1 0x1F DUP3 GT PUSH1 0x1 DUP2 EQ PUSH2 0x15CA JUMPI PUSH0 DUP4 ISZERO PUSH2 0x15B0 JUMPI POP DUP5 DUP3 ADD MLOAD JUMPDEST PUSH1 0x1 DUP5 SWAP1 SHL PUSH0 NOT PUSH1 0x3 DUP7 SWAP1 SHL SHR NOT DUP3 AND OR JUMPDEST DUP6 SSTORE POP PUSH2 0xD81 JUMP JUMPDEST PUSH0 DUP5 DUP2 MSTORE PUSH1 0x20 DUP2 KECCAK256 PUSH1 0x1F NOT DUP6 AND SWAP2 JUMPDEST DUP3 DUP2 LT ISZERO PUSH2 0x15F9 JUMPI DUP8 DUP6 ADD MLOAD DUP3 SSTORE PUSH1 0x20 SWAP5 DUP6 ADD SWAP5 PUSH1 0x1 SWAP1 SWAP3 ADD SWAP2 ADD PUSH2 0x15D9 JUMP JUMPDEST POP DUP5 DUP3 LT ISZERO PUSH2 0x1616 JUMPI DUP7 DUP5 ADD MLOAD PUSH0 NOT PUSH1 0x3 DUP8 SWAP1 SHL PUSH1 0xF8 AND SHR NOT AND DUP2 SSTORE JUMPDEST POP POP POP POP PUSH1 0x1 SWAP1 DUP2 SHL ADD SWAP1 SSTORE POP JUMP JUMPDEST PUSH0 DUP2 SLOAD PUSH2 0x1631 DUP2 PUSH2 0x14DD JUMP JUMPDEST PUSH1 0x1 DUP3 AND DUP1 ISZERO PUSH2 0x1648 JUMPI PUSH1 0x1 DUP2 EQ PUSH2 0x165D JUMPI PUSH2 0x168A JUMP JUMPDEST PUSH1 0xFF NOT DUP4 AND DUP7 MSTORE DUP2 ISZERO ISZERO DUP3 MUL DUP7 ADD SWAP4 POP PUSH2 0x168A JUMP JUMPDEST DUP5 PUSH0 MSTORE PUSH1 0x20 PUSH0 KECCAK256 PUSH0 JUMPDEST DUP4 DUP2 LT ISZERO PUSH2 0x1682 JUMPI DUP2 SLOAD DUP9 DUP3 ADD MSTORE PUSH1 0x1 SWAP1 SWAP2 ADD SWAP1 PUSH1 0x20 ADD PUSH2 0x1666 JUMP JUMPDEST POP POP DUP2 DUP7 ADD SWAP4 POP JUMPDEST POP POP POP SWAP3 SWAP2 POP POP JUMP JUMPDEST PUSH0 PUSH2 0x12A1 DUP3 DUP5 PUSH2 0x1625 JUMP JUMPDEST PUSH4 0x4E487B71 PUSH1 0xE0 SHL PUSH0 MSTORE PUSH1 0x11 PUSH1 0x4 MSTORE PUSH1 0x24 PUSH0 REVERT JUMPDEST DUP2 DUP2 SUB DUP2 DUP2 GT ISZERO PUSH2 0x16C5 JUMPI PUSH2 0x16C5 PUSH2 0x169E JUMP JUMPDEST SWAP3 SWAP2 POP POP JUMP JUMPDEST DUP2 DUP2 SUB PUSH2 0x16D6 JUMPI POP POP JUMP JUMPDEST PUSH2 0x16E0 DUP3 SLOAD PUSH2 0x14DD JUMP JUMPDEST PUSH8 0xFFFFFFFFFFFFFFFF DUP2 GT ISZERO PUSH2 0x16F8 JUMPI PUSH2 0x16F8 PUSH2 0x1123 JUMP JUMPDEST PUSH2 0x1706 DUP2 PUSH2 0x158F DUP5 SLOAD PUSH2 0x14DD JUMP JUMPDEST PUSH0 PUSH1 0x1F DUP3 GT PUSH1 0x1 DUP2 EQ PUSH2 0x1735 JUMPI PUSH0 DUP4 ISZERO PUSH2 0x15B0 JUMPI POP DUP2 DUP6 ADD SLOAD PUSH1 0x1 DUP5 SWAP1 SHL PUSH0 NOT PUSH1 0x3 DUP7 SWAP1 SHL SHR NOT DUP3 AND OR PUSH2 0x15C2 JUMP JUMPDEST PUSH0 DUP6 DUP2 MSTORE PUSH1 0x20 DUP1 DUP3 KECCAK256 DUP7 DUP4 MSTORE SWAP1 DUP3 KECCAK256 PUSH1 0x1F NOT DUP7 AND SWAP3 JUMPDEST DUP4 DUP2 LT ISZERO PUSH2 0x176B JUMPI DUP3 DUP7 ADD SLOAD DUP3 SSTORE PUSH1 0x1 SWAP6 DUP7 ADD SWAP6 SWAP1 SWAP2 ADD SWAP1 PUSH1 0x20 ADD PUSH2 0x174B JUMP JUMPDEST POP DUP6 DUP4 LT ISZERO PUSH2 0x1788 JUMPI DUP2 DUP6 ADD SLOAD PUSH0 NOT PUSH1 0x3 DUP9 SWAP1 SHL PUSH1 0xF8 AND SHR NOT AND DUP2 SSTORE JUMPDEST POP POP POP POP POP PUSH1 0x1 SWAP1 DUP2 SHL ADD SWAP1 SSTORE POP JUMP JUMPDEST PUSH4 0x4E487B71 PUSH1 0xE0 SHL PUSH0 MSTORE PUSH1 0x31 PUSH1 0x4 MSTORE PUSH1 0x24 PUSH0 REVERT JUMPDEST PUSH0 DUP2 PUSH2 0x17BA JUMPI PUSH2 0x17BA PUSH2 0x169E JUMP JUMPDEST POP PUSH0 NOT ADD SWAP1 JUMP JUMPDEST PUSH0 PUSH2 0x17CC DUP3 DUP6 PUSH2 0x1625 JUMP JUMPDEST PUSH1 0x5 PUSH1 0xF9 SHL DUP2 MSTORE PUSH2 0x17E0 PUSH1 0x1 DUP3 ADD DUP6 PUSH2 0x148E JUMP JUMPDEST SWAP6 SWAP5 POP POP POP POP POP JUMP JUMPDEST PUSH0 PUSH1 0x1 DUP3 ADD PUSH2 0x17FA JUMPI PUSH2 0x17FA PUSH2 0x169E JUMP JUMPDEST POP PUSH1 0x1 ADD SWAP1 JUMP INVALID LOG2 PUSH5 0x6970667358 0x22 SLT KECCAK256 CALLER 0xFB PUSH13 0xD139B9FC77BA75CCC302729057 PUSH22 0x908A778F556E6EED7B529A4F8CEB5A64736F6C634300 ADDMOD BYTE STOP CALLER LOG2 PUSH5 0x6970667358 0x22 SLT KECCAK256 0xB1 LOG4 0xDE PUSH23 0xE08B90A1445B7CDF1EA648E36A0D8BB311577DF17675AF 0xA5 0x21 0x4F 0xE9 0xAA PUSH5 0x736F6C6343 STOP ADDMOD BYTE STOP CALLER PUSH1 0x80 PUSH1 0x40 MSTORE PUSH0 DUP1 SSTORE CALLVALUE DUP1 ISZERO PUSH1 0x11 JUMPI PUSH0 DUP1 REVERT JUMPDEST POP PUSH2 0x1837 DUP1 PUSH2 0x1F PUSH0 CODECOPY PUSH0 RETURN INVALID PUSH1 0x80 PUSH1 0x40 MSTORE CALLVALUE DUP1 ISZERO PUSH2 0xF JUMPI PUSH0 DUP1 REVERT JUMPDEST POP PUSH1 0x4 CALLDATASIZE LT PUSH2 0xCB JUMPI PUSH0 CALLDATALOAD PUSH1 0xE0 SHR DUP1 PUSH4 0xA9910054 GT PUSH2 0x88 JUMPI DUP1 PUSH4 0xBC051A4D GT PUSH2 0x63 JUMPI DUP1 PUSH4 0xBC051A4D EQ PUSH2 0x1AB JUMPI DUP1 PUSH4 0xCFFA39F9 EQ PUSH2 0x1BE JUMPI DUP1 PUSH4 0xE7755761 EQ PUSH2 0x1E3 JUMPI DUP1 PUSH4 0xECEED653 EQ PUSH2 0x206 JUMPI PUSH0 DUP1 REVERT JUMPDEST DUP1 PUSH4 0xA9910054 EQ PUSH2 0x170 JUMPI DUP1 PUSH4 0xB033D8FA EQ PUSH2 0x183 JUMPI DUP1 PUSH4 0xB6B13CAA EQ PUSH2 0x198 JUMPI PUSH0 DUP1 REVERT JUMPDEST DUP1 PUSH4 0x13D4A044 EQ PUSH2 0xCF JUMPI DUP1 PUSH4 0x38FA8F58 EQ PUSH2 0xE4 JUMPI DUP1 PUSH4 0x43953519 EQ PUSH2 0x114 JUMPI DUP1 PUSH4 0x60F9BB11 EQ PUSH2 0x12A JUMPI DUP1 PUSH4 0x7D41216D EQ PUSH2 0x14A JUMPI DUP1 PUSH4 0x897E0A97 EQ PUSH2 0x15D JUMPI JUMPDEST PUSH0 DUP1 REVERT JUMPDEST PUSH2 0xE2 PUSH2 0xDD CALLDATASIZE PUSH1 0x4 PUSH2 0x11C2 JUMP JUMPDEST PUSH2 0x219 JUMP JUMPDEST STOP JUMPDEST PUSH2 0xF7 PUSH2 0xF2 CALLDATASIZE PUSH1 0x4 PUSH2 0x1227 JUMP JUMPDEST PUSH2 0x510 JUMP JUMPDEST PUSH1 0x40 MLOAD PUSH1 0x1 PUSH1 0x1 PUSH1 0xA0 SHL SUB SWAP1 SWAP2 AND DUP2 MSTORE PUSH1 0x20 ADD JUMPDEST PUSH1 0x40 MLOAD DUP1 SWAP2 SUB SWAP1 RETURN JUMPDEST PUSH2 0x11C PUSH0 SLOAD DUP2 JUMP JUMPDEST PUSH1 0x40 MLOAD SWAP1 DUP2 MSTORE PUSH1 0x20 ADD PUSH2 0x10B JUMP JUMPDEST PUSH2 0x13D PUSH2 0x138 CALLDATASIZE PUSH1 0x4 PUSH2 0x1227 JUMP JUMPDEST PUSH2 0x58F JUMP JUMPDEST PUSH1 0x40 MLOAD PUSH2 0x10B SWAP2 SWAP1 PUSH2 0x128F JUMP JUMPDEST PUSH2 0x13D PUSH2 0x158 CALLDATASIZE PUSH1 0x4 PUSH2 0x12C3 JUMP JUMPDEST PUSH2 0x684 JUMP JUMPDEST PUSH2 0xE2 PUSH2 0x16B CALLDATASIZE PUSH1 0x4 PUSH2 0x11C2 JUMP JUMPDEST PUSH2 0x7C6 JUMP JUMPDEST PUSH2 0xE2 PUSH2 0x17E CALLDATASIZE PUSH1 0x4 PUSH2 0x1227 JUMP JUMPDEST PUSH2 0x83D JUMP JUMPDEST PUSH2 0x18B PUSH2 0xA25 JUMP JUMPDEST PUSH1 0x40 MLOAD PUSH2 0x10B SWAP2 SWAP1 PUSH2 0x130E JUMP JUMPDEST PUSH2 0xE2 PUSH2 0x1A6 CALLDATASIZE PUSH1 0x4 PUSH2 0x11C2 JUMP JUMPDEST PUSH2 0xAF9 JUMP JUMPDEST PUSH2 0xE2 PUSH2 0x1B9 CALLDATASIZE PUSH1 0x4 PUSH2 0x1371 JUMP JUMPDEST PUSH2 0xB8E JUMP JUMPDEST PUSH2 0x1D1 PUSH2 0x1CC CALLDATASIZE PUSH1 0x4 PUSH2 0x12C3 JUMP JUMPDEST PUSH2 0xD88 JUMP JUMPDEST PUSH1 0x40 MLOAD PUSH1 0xFF SWAP1 SWAP2 AND DUP2 MSTORE PUSH1 0x20 ADD PUSH2 0x10B JUMP JUMPDEST PUSH2 0x1F6 PUSH2 0x1F1 CALLDATASIZE PUSH1 0x4 PUSH2 0x1227 JUMP JUMPDEST PUSH2 0xE13 JUMP JUMPDEST PUSH1 0x40 MLOAD PUSH2 0x10B SWAP5 SWAP4 SWAP3 SWAP2 SWAP1 PUSH2 0x13E5 JUMP JUMPDEST PUSH2 0xE2 PUSH2 0x214 CALLDATASIZE PUSH1 0x4 PUSH2 0x142B JUMP JUMPDEST PUSH2 0xF60 JUMP JUMPDEST DUP2 PUSH1 0x1 DUP2 PUSH1 0x40 MLOAD PUSH2 0x22A SWAP2 SWAP1 PUSH2 0x14A5 JUMP JUMPDEST SWAP1 DUP2 MSTORE PUSH1 0x40 MLOAD SWAP1 DUP2 SWAP1 SUB PUSH1 0x20 ADD SWAP1 KECCAK256 PUSH1 0x2 ADD SLOAD PUSH1 0xFF AND PUSH2 0x265 JUMPI PUSH1 0x40 MLOAD PUSH3 0x461BCD PUSH1 0xE5 SHL DUP2 MSTORE PUSH1 0x4 ADD PUSH2 0x25C SWAP1 PUSH2 0x14B0 JUMP JUMPDEST PUSH1 0x40 MLOAD DUP1 SWAP2 SUB SWAP1 REVERT JUMPDEST PUSH1 0x1 DUP3 PUSH1 0x40 MLOAD PUSH2 0x275 SWAP2 SWAP1 PUSH2 0x14A5 JUMP JUMPDEST SWAP1 DUP2 MSTORE PUSH1 0x40 MLOAD SWAP1 DUP2 SWAP1 SUB PUSH1 0x20 ADD SWAP1 KECCAK256 PUSH1 0x2 ADD SLOAD PUSH1 0xFF AND ISZERO PUSH2 0x2CD JUMPI PUSH1 0x40 MLOAD PUSH3 0x461BCD PUSH1 0xE5 SHL DUP2 MSTORE PUSH1 0x20 PUSH1 0x4 DUP3 ADD MSTORE PUSH1 0x12 PUSH1 0x24 DUP3 ADD MSTORE PUSH18 0x4E616D65206E6F7420617661696C61626C65 PUSH1 0x70 SHL PUSH1 0x44 DUP3 ADD MSTORE PUSH1 0x64 ADD PUSH2 0x25C JUMP JUMPDEST PUSH2 0x3AF DUP3 PUSH1 0x1 DUP6 PUSH1 0x40 MLOAD PUSH2 0x2E1 SWAP2 SWAP1 PUSH2 0x14A5 JUMP JUMPDEST SWAP1 DUP2 MSTORE PUSH1 0x40 MLOAD SWAP1 DUP2 SWAP1 SUB PUSH1 0x20 ADD DUP2 KECCAK256 PUSH1 0x2 ADD SLOAD PUSH1 0x1 PUSH1 0x1 PUSH1 0xA0 SHL SUB PUSH2 0x100 SWAP1 SWAP2 DIV AND SWAP1 PUSH1 0x1 SWAP1 PUSH2 0x312 SWAP1 DUP9 SWAP1 PUSH2 0x14A5 JUMP JUMPDEST SWAP1 DUP2 MSTORE PUSH1 0x20 ADD PUSH1 0x40 MLOAD DUP1 SWAP2 SUB SWAP1 KECCAK256 PUSH1 0x1 ADD DUP1 SLOAD PUSH2 0x32E SWAP1 PUSH2 0x14DD JUMP JUMPDEST DUP1 PUSH1 0x1F ADD PUSH1 0x20 DUP1 SWAP2 DIV MUL PUSH1 0x20 ADD PUSH1 0x40 MLOAD SWAP1 DUP2 ADD PUSH1 0x40 MSTORE DUP1 SWAP3 SWAP2 SWAP1 DUP2 DUP2 MSTORE PUSH1 0x20 ADD DUP3 DUP1 SLOAD PUSH2 0x35A SWAP1 PUSH2 0x14DD JUMP JUMPDEST DUP1 ISZERO PUSH2 0x3A5 JUMPI DUP1 PUSH1 0x1F LT PUSH2 0x37C JUMPI PUSH2 0x100 DUP1 DUP4 SLOAD DIV MUL DUP4 MSTORE SWAP2 PUSH1 0x20 ADD SWAP2 PUSH2 0x3A5 JUMP JUMPDEST DUP3 ADD SWAP2 SWAP1 PUSH0 MSTORE PUSH1 0x20 PUSH0 KECCAK256 SWAP1 JUMPDEST DUP2 SLOAD DUP2 MSTORE SWAP1 PUSH1 0x1 ADD SWAP1 PUSH1 0x20 ADD DUP1 DUP4 GT PUSH2 0x388 JUMPI DUP3 SWAP1 SUB PUSH1 0x1F AND DUP3 ADD SWAP2 JUMPDEST POP POP POP POP POP PUSH2 0xB8E JUMP JUMPDEST PUSH0 JUMPDEST PUSH1 0x1 DUP5 PUSH1 0x40 MLOAD PUSH2 0x3C1 SWAP2 SWAP1 PUSH2 0x14A5 JUMP JUMPDEST SWAP1 DUP2 MSTORE PUSH1 0x40 MLOAD SWAP1 DUP2 SWAP1 SUB PUSH1 0x20 ADD SWAP1 KECCAK256 PUSH1 0x3 ADD SLOAD DUP2 LT ISZERO PUSH2 0x501 JUMPI PUSH0 PUSH1 0x1 DUP6 PUSH1 0x40 MLOAD PUSH2 0x3EC SWAP2 SWAP1 PUSH2 0x14A5 JUMP JUMPDEST SWAP1 DUP2 MSTORE PUSH1 0x20 ADD PUSH1 0x40 MLOAD DUP1 SWAP2 SUB SWAP1 KECCAK256 PUSH1 0x3 ADD DUP3 DUP2 SLOAD DUP2 LT PUSH2 0x40E JUMPI PUSH2 0x40E PUSH2 0x150F JUMP JUMPDEST PUSH0 SWAP2 DUP3 MSTORE PUSH1 0x20 SWAP1 SWAP2 KECCAK256 ADD SLOAD PUSH1 0x40 MLOAD PUSH1 0x1 PUSH1 0x1 PUSH1 0xA0 SHL SUB SWAP1 SWAP2 AND SWAP2 POP PUSH1 0x1 SWAP1 PUSH2 0x437 SWAP1 DUP7 SWAP1 PUSH2 0x14A5 JUMP JUMPDEST SWAP1 DUP2 MSTORE PUSH1 0x40 MLOAD PUSH1 0x20 SWAP2 DUP2 SWAP1 SUB DUP3 ADD DUP2 KECCAK256 PUSH1 0x3 ADD DUP1 SLOAD PUSH1 0x1 DUP1 DUP3 ADD DUP4 SSTORE PUSH0 SWAP3 DUP4 MSTORE SWAP4 SWAP1 SWAP2 KECCAK256 ADD DUP1 SLOAD PUSH1 0x1 PUSH1 0x1 PUSH1 0xA0 SHL SUB NOT AND PUSH1 0x1 PUSH1 0x1 PUSH1 0xA0 SHL SUB DUP6 AND OR SWAP1 SSTORE PUSH2 0x480 SWAP1 DUP8 SWAP1 PUSH2 0x14A5 JUMP JUMPDEST SWAP1 DUP2 MSTORE PUSH1 0x40 DUP1 MLOAD SWAP2 DUP3 SWAP1 SUB PUSH1 0x20 SWAP1 DUP2 ADD DUP4 KECCAK256 PUSH1 0x1 PUSH1 0x1 PUSH1 0xA0 SHL SUB DUP6 AND PUSH0 SWAP1 DUP2 MSTORE PUSH1 0x4 SWAP1 SWAP2 ADD SWAP1 SWAP2 MSTORE KECCAK256 SLOAD PUSH1 0xFF AND SWAP1 PUSH1 0x1 SWAP1 PUSH2 0x4BC SWAP1 DUP8 SWAP1 PUSH2 0x14A5 JUMP JUMPDEST SWAP1 DUP2 MSTORE PUSH1 0x40 DUP1 MLOAD PUSH1 0x20 SWAP3 DUP2 SWAP1 SUB DUP4 ADD SWAP1 KECCAK256 PUSH1 0x1 PUSH1 0x1 PUSH1 0xA0 SHL SUB SWAP5 SWAP1 SWAP5 AND PUSH0 SWAP1 DUP2 MSTORE PUSH1 0x4 SWAP1 SWAP5 ADD SWAP1 SWAP2 MSTORE SWAP1 SWAP2 KECCAK256 DUP1 SLOAD PUSH1 0xFF NOT AND PUSH1 0xFF SWAP1 SWAP3 AND SWAP2 SWAP1 SWAP2 OR SWAP1 SSTORE PUSH1 0x1 ADD PUSH2 0x3B1 JUMP JUMPDEST POP PUSH2 0x50B DUP4 PUSH2 0x83D JUMP JUMPDEST POP POP POP JUMP JUMPDEST PUSH0 DUP2 PUSH1 0x1 DUP2 PUSH1 0x40 MLOAD PUSH2 0x522 SWAP2 SWAP1 PUSH2 0x14A5 JUMP JUMPDEST SWAP1 DUP2 MSTORE PUSH1 0x40 MLOAD SWAP1 DUP2 SWAP1 SUB PUSH1 0x20 ADD SWAP1 KECCAK256 PUSH1 0x2 ADD SLOAD PUSH1 0xFF AND PUSH2 0x554 JUMPI PUSH1 0x40 MLOAD PUSH3 0x461BCD PUSH1 0xE5 SHL DUP2 MSTORE PUSH1 0x4 ADD PUSH2 0x25C SWAP1 PUSH2 0x14B0 JUMP JUMPDEST PUSH1 0x1 DUP4 PUSH1 0x40 MLOAD PUSH2 0x564 SWAP2 SWAP1 PUSH2 0x14A5 JUMP JUMPDEST SWAP1 DUP2 MSTORE PUSH1 0x40 MLOAD SWAP1 DUP2 SWAP1 SUB PUSH1 0x20 ADD SWAP1 KECCAK256 PUSH1 0x2 ADD SLOAD PUSH1 0x1 PUSH1 0x1 PUSH1 0xA0 SHL SUB PUSH2 0x100 SWAP1 SWAP2 DIV AND SWAP2 POP JUMPDEST POP SWAP2 SWAP1 POP JUMP JUMPDEST PUSH1 0x60 DUP2 PUSH1 0x1 DUP2 PUSH1 0x40 MLOAD PUSH2 0x5A2 SWAP2 SWAP1 PUSH2 0x14A5 JUMP JUMPDEST SWAP1 DUP2 MSTORE PUSH1 0x40 MLOAD SWAP1 DUP2 SWAP1 SUB PUSH1 0x20 ADD SWAP1 KECCAK256 PUSH1 0x2 ADD SLOAD PUSH1 0xFF AND PUSH2 0x5D4 JUMPI PUSH1 0x40 MLOAD PUSH3 0x461BCD PUSH1 0xE5 SHL DUP2 MSTORE PUSH1 0x4 ADD PUSH2 0x25C SWAP1 PUSH2 0x14B0 JUMP JUMPDEST PUSH1 0x1 DUP4 PUSH1 0x40 MLOAD PUSH2 0x5E4 SWAP2 SWAP1 PUSH2 0x14A5 JUMP JUMPDEST SWAP1 DUP2 MSTORE PUSH1 0x20 ADD PUSH1 0x40 MLOAD DUP1 SWAP2 SUB SWAP1 KECCAK256 PUSH1 0x1 ADD DUP1 SLOAD PUSH2 0x600 SWAP1 PUSH2 0x14DD JUMP JUMPDEST DUP1 PUSH1 0x1F ADD PUSH1 0x20 DUP1 SWAP2 DIV MUL PUSH1 0x20 ADD PUSH1 0x40 MLOAD SWAP1 DUP2 ADD PUSH1 0x40 MSTORE DUP1 SWAP3 SWAP2 SWAP1 DUP2 DUP2 MSTORE PUSH1 0x20 ADD DUP3 DUP1 SLOAD PUSH2 0x62C SWAP1 PUSH2 0x14DD JUMP JUMPDEST DUP1 ISZERO PUSH2 0x677 JUMPI DUP1 PUSH1 0x1F LT PUSH2 0x64E JUMPI PUSH2 0x100 DUP1 DUP4 SLOAD DIV MUL DUP4 MSTORE SWAP2 PUSH1 0x20 ADD SWAP2 PUSH2 0x677 JUMP JUMPDEST DUP3 ADD SWAP2 SWAP1 PUSH0 MSTORE PUSH1 0x20 PUSH0 KECCAK256 SWAP1 JUMPDEST DUP2 SLOAD DUP2 MSTORE SWAP1 PUSH1 0x1 ADD SWAP1 PUSH1 0x20 ADD DUP1 DUP4 GT PUSH2 0x65A JUMPI DUP3 SWAP1 SUB PUSH1 0x1F AND DUP3 ADD SWAP2 JUMPDEST POP POP POP POP POP SWAP2 POP POP SWAP2 SWAP1 POP JUMP JUMPDEST PUSH1 0x60 DUP3 PUSH1 0x1 DUP2 PUSH1 0x40 MLOAD PUSH2 0x697 SWAP2 SWAP1 PUSH2 0x14A5 JUMP JUMPDEST SWAP1 DUP2 MSTORE PUSH1 0x40 MLOAD SWAP1 DUP2 SWAP1 SUB PUSH1 0x20 ADD SWAP1 KECCAK256 PUSH1 0x2 ADD SLOAD PUSH1 0xFF AND PUSH2 0x6C9 JUMPI PUSH1 0x40 MLOAD PUSH3 0x461BCD PUSH1 0xE5 SHL DUP2 MSTORE PUSH1 0x4 ADD PUSH2 0x25C SWAP1 PUSH2 0x14B0 JUMP JUMPDEST PUSH1 0x40 DUP1 MLOAD PUSH1 0xC0 DUP2 ADD DUP3 MSTORE PUSH1 0x9 PUSH1 0x80 DUP3 ADD DUP2 DUP2 MSTORE PUSH9 0x4E6F20616363657373 PUSH1 0xB8 SHL PUSH1 0xA0 DUP5 ADD MSTORE DUP3 MSTORE DUP3 MLOAD DUP1 DUP5 ADD DUP5 MSTORE SWAP1 DUP2 MSTORE PUSH9 0x52656164206F6E6C79 PUSH1 0xB8 SHL PUSH1 0x20 DUP3 DUP2 ADD SWAP2 SWAP1 SWAP2 MSTORE DUP1 DUP4 ADD SWAP2 SWAP1 SWAP2 MSTORE DUP3 MLOAD DUP1 DUP5 ADD DUP5 MSTORE PUSH1 0xD DUP2 MSTORE PUSH13 0x14995859080988185C1C195B99 PUSH1 0x9A SHL DUP2 DUP4 ADD MSTORE DUP3 DUP5 ADD MSTORE DUP3 MLOAD DUP1 DUP5 ADD DUP5 MSTORE PUSH1 0x14 DUP2 MSTORE PUSH20 0x526561642C20617070656E642026207772697465 PUSH1 0x60 SHL SWAP2 DUP2 ADD SWAP2 SWAP1 SWAP2 MSTORE PUSH1 0x60 DUP3 ADD MSTORE SWAP1 MLOAD DUP2 SWAP1 PUSH1 0x1 SWAP1 PUSH2 0x77C SWAP1 DUP9 SWAP1 PUSH2 0x14A5 JUMP JUMPDEST SWAP1 DUP2 MSTORE PUSH1 0x40 DUP1 MLOAD PUSH1 0x20 SWAP3 DUP2 SWAP1 SUB DUP4 ADD SWAP1 KECCAK256 PUSH1 0x1 PUSH1 0x1 PUSH1 0xA0 SHL SUB DUP9 AND PUSH0 SWAP1 DUP2 MSTORE PUSH1 0x4 SWAP2 DUP3 ADD SWAP1 SWAP4 MSTORE SWAP2 KECCAK256 SLOAD PUSH1 0xFF AND SWAP1 DUP2 LT PUSH2 0x7B8 JUMPI PUSH2 0x7B8 PUSH2 0x150F JUMP JUMPDEST PUSH1 0x20 MUL ADD MLOAD SWAP6 SWAP5 POP POP POP POP POP JUMP JUMPDEST DUP2 PUSH1 0x1 DUP2 PUSH1 0x40 MLOAD PUSH2 0x7D7 SWAP2 SWAP1 PUSH2 0x14A5 JUMP JUMPDEST SWAP1 DUP2 MSTORE PUSH1 0x40 MLOAD SWAP1 DUP2 SWAP1 SUB PUSH1 0x20 ADD SWAP1 KECCAK256 PUSH1 0x2 ADD SLOAD PUSH1 0xFF AND PUSH2 0x809 JUMPI PUSH1 0x40 MLOAD PUSH3 0x461BCD PUSH1 0xE5 SHL DUP2 MSTORE PUSH1 0x4 ADD PUSH2 0x25C SWAP1 PUSH2 0x14B0 JUMP JUMPDEST DUP2 PUSH1 0x1 DUP5 PUSH1 0x40 MLOAD PUSH2 0x81A SWAP2 SWAP1 PUSH2 0x14A5 JUMP JUMPDEST SWAP1 DUP2 MSTORE PUSH1 0x20 ADD PUSH1 0x40 MLOAD DUP1 SWAP2 SUB SWAP1 KECCAK256 PUSH1 0x1 ADD SWAP1 DUP2 PUSH2 0x837 SWAP2 SWAP1 PUSH2 0x1567 JUMP JUMPDEST POP POP POP POP JUMP JUMPDEST DUP1 PUSH1 0x1 DUP2 PUSH1 0x40 MLOAD PUSH2 0x84E SWAP2 SWAP1 PUSH2 0x14A5 JUMP JUMPDEST SWAP1 DUP2 MSTORE PUSH1 0x40 MLOAD SWAP1 DUP2 SWAP1 SUB PUSH1 0x20 ADD SWAP1 KECCAK256 PUSH1 0x2 ADD SLOAD PUSH1 0xFF AND PUSH2 0x880 JUMPI PUSH1 0x40 MLOAD PUSH3 0x461BCD PUSH1 0xE5 SHL DUP2 MSTORE PUSH1 0x4 ADD PUSH2 0x25C SWAP1 PUSH2 0x14B0 JUMP JUMPDEST PUSH0 PUSH1 0x1 DUP4 PUSH1 0x40 MLOAD PUSH2 0x891 SWAP2 SWAP1 PUSH2 0x14A5 JUMP JUMPDEST SWAP1 DUP2 MSTORE PUSH1 0x40 MLOAD SWAP1 DUP2 SWAP1 SUB PUSH1 0x20 ADD DUP2 KECCAK256 PUSH1 0x2 ADD DUP1 SLOAD SWAP3 ISZERO ISZERO PUSH1 0xFF NOT SWAP1 SWAP4 AND SWAP3 SWAP1 SWAP3 OR SWAP1 SWAP2 SSTORE PUSH1 0x1 SWAP1 PUSH2 0x8C3 SWAP1 DUP5 SWAP1 PUSH2 0x14A5 JUMP JUMPDEST SWAP1 DUP2 MSTORE PUSH1 0x40 MLOAD SWAP1 DUP2 SWAP1 SUB PUSH1 0x20 ADD SWAP1 KECCAK256 PUSH0 PUSH2 0x8DD DUP3 DUP3 PUSH2 0x1057 JUMP JUMPDEST PUSH2 0x8EA PUSH1 0x1 DUP4 ADD PUSH0 PUSH2 0x1057 JUMP JUMPDEST PUSH1 0x2 DUP3 ADD DUP1 SLOAD PUSH1 0x1 PUSH1 0x1 PUSH1 0xA8 SHL SUB NOT AND SWAP1 SSTORE PUSH2 0x909 PUSH1 0x3 DUP4 ADD PUSH0 PUSH2 0x1091 JUMP JUMPDEST POP POP PUSH0 JUMPDEST PUSH1 0x2 SLOAD DUP2 LT ISZERO PUSH2 0xA0D JUMPI DUP3 PUSH1 0x40 MLOAD PUSH1 0x20 ADD PUSH2 0x928 SWAP2 SWAP1 PUSH2 0x14A5 JUMP JUMPDEST PUSH1 0x40 MLOAD PUSH1 0x20 DUP2 DUP4 SUB SUB DUP2 MSTORE SWAP1 PUSH1 0x40 MSTORE DUP1 MLOAD SWAP1 PUSH1 0x20 ADD KECCAK256 PUSH1 0x2 DUP3 DUP2 SLOAD DUP2 LT PUSH2 0x951 JUMPI PUSH2 0x951 PUSH2 0x150F JUMP JUMPDEST SWAP1 PUSH0 MSTORE PUSH1 0x20 PUSH0 KECCAK256 ADD PUSH1 0x40 MLOAD PUSH1 0x20 ADD PUSH2 0x969 SWAP2 SWAP1 PUSH2 0x1693 JUMP JUMPDEST PUSH1 0x40 MLOAD PUSH1 0x20 DUP2 DUP4 SUB SUB DUP2 MSTORE SWAP1 PUSH1 0x40 MSTORE DUP1 MLOAD SWAP1 PUSH1 0x20 ADD KECCAK256 SUB PUSH2 0xA05 JUMPI PUSH1 0x2 DUP1 SLOAD PUSH2 0x994 SWAP1 PUSH1 0x1 SWAP1 PUSH2 0x16B2 JUMP JUMPDEST DUP2 SLOAD DUP2 LT PUSH2 0x9A4 JUMPI PUSH2 0x9A4 PUSH2 0x150F JUMP JUMPDEST SWAP1 PUSH0 MSTORE PUSH1 0x20 PUSH0 KECCAK256 ADD PUSH1 0x2 DUP3 DUP2 SLOAD DUP2 LT PUSH2 0x9BF JUMPI PUSH2 0x9BF PUSH2 0x150F JUMP JUMPDEST SWAP1 PUSH0 MSTORE PUSH1 0x20 PUSH0 KECCAK256 ADD SWAP1 DUP2 PUSH2 0x9D3 SWAP2 SWAP1 PUSH2 0x16CB JUMP JUMPDEST POP PUSH1 0x2 DUP1 SLOAD DUP1 PUSH2 0x9E5 JUMPI PUSH2 0x9E5 PUSH2 0x1798 JUMP JUMPDEST PUSH1 0x1 SWAP1 SUB DUP2 DUP2 SWAP1 PUSH0 MSTORE PUSH1 0x20 PUSH0 KECCAK256 ADD PUSH0 PUSH2 0x9FE SWAP2 SWAP1 PUSH2 0x1057 JUMP JUMPDEST SWAP1 SSTORE PUSH2 0xA0D JUMP JUMPDEST PUSH1 0x1 ADD PUSH2 0x90D JUMP JUMPDEST POP PUSH0 DUP1 SLOAD SWAP1 DUP1 PUSH2 0xA1C DUP4 PUSH2 0x17AC JUMP JUMPDEST SWAP2 SWAP1 POP SSTORE POP POP POP JUMP JUMPDEST PUSH1 0x60 PUSH1 0x2 DUP1 SLOAD DUP1 PUSH1 0x20 MUL PUSH1 0x20 ADD PUSH1 0x40 MLOAD SWAP1 DUP2 ADD PUSH1 0x40 MSTORE DUP1 SWAP3 SWAP2 SWAP1 DUP2 DUP2 MSTORE PUSH1 0x20 ADD PUSH0 SWAP1 JUMPDEST DUP3 DUP3 LT ISZERO PUSH2 0xAF0 JUMPI DUP4 DUP3 SWAP1 PUSH0 MSTORE PUSH1 0x20 PUSH0 KECCAK256 ADD DUP1 SLOAD PUSH2 0xA65 SWAP1 PUSH2 0x14DD JUMP JUMPDEST DUP1 PUSH1 0x1F ADD PUSH1 0x20 DUP1 SWAP2 DIV MUL PUSH1 0x20 ADD PUSH1 0x40 MLOAD SWAP1 DUP2 ADD PUSH1 0x40 MSTORE DUP1 SWAP3 SWAP2 SWAP1 DUP2 DUP2 MSTORE PUSH1 0x20 ADD DUP3 DUP1 SLOAD PUSH2 0xA91 SWAP1 PUSH2 0x14DD JUMP JUMPDEST DUP1 ISZERO PUSH2 0xADC JUMPI DUP1 PUSH1 0x1F LT PUSH2 0xAB3 JUMPI PUSH2 0x100 DUP1 DUP4 SLOAD DIV MUL DUP4 MSTORE SWAP2 PUSH1 0x20 ADD SWAP2 PUSH2 0xADC JUMP JUMPDEST DUP3 ADD SWAP2 SWAP1 PUSH0 MSTORE PUSH1 0x20 PUSH0 KECCAK256 SWAP1 JUMPDEST DUP2 SLOAD DUP2 MSTORE SWAP1 PUSH1 0x1 ADD SWAP1 PUSH1 0x20 ADD DUP1 DUP4 GT PUSH2 0xABF JUMPI DUP3 SWAP1 SUB PUSH1 0x1F AND DUP3 ADD SWAP2 JUMPDEST POP POP POP POP POP DUP2 MSTORE PUSH1 0x20 ADD SWAP1 PUSH1 0x1 ADD SWAP1 PUSH2 0xA48 JUMP JUMPDEST POP POP POP POP SWAP1 POP SWAP1 JUMP JUMPDEST DUP2 PUSH1 0x1 DUP2 PUSH1 0x40 MLOAD PUSH2 0xB0A SWAP2 SWAP1 PUSH2 0x14A5 JUMP JUMPDEST SWAP1 DUP2 MSTORE PUSH1 0x40 MLOAD SWAP1 DUP2 SWAP1 SUB PUSH1 0x20 ADD SWAP1 KECCAK256 PUSH1 0x2 ADD SLOAD PUSH1 0xFF AND PUSH2 0xB3C JUMPI PUSH1 0x40 MLOAD PUSH3 0x461BCD PUSH1 0xE5 SHL DUP2 MSTORE PUSH1 0x4 ADD PUSH2 0x25C SWAP1 PUSH2 0x14B0 JUMP JUMPDEST PUSH1 0x1 DUP4 PUSH1 0x40 MLOAD PUSH2 0xB4C SWAP2 SWAP1 PUSH2 0x14A5 JUMP JUMPDEST SWAP1 DUP2 MSTORE PUSH1 0x20 ADD PUSH1 0x40 MLOAD DUP1 SWAP2 SUB SWAP1 KECCAK256 PUSH1 0x1 ADD DUP3 PUSH1 0x40 MLOAD PUSH1 0x20 ADD PUSH2 0xB6F SWAP3 SWAP2 SWAP1 PUSH2 0x17C1 JUMP JUMPDEST PUSH1 0x40 MLOAD PUSH1 0x20 DUP2 DUP4 SUB SUB DUP2 MSTORE SWAP1 PUSH1 0x40 MSTORE PUSH1 0x1 DUP5 PUSH1 0x40 MLOAD PUSH2 0x81A SWAP2 SWAP1 PUSH2 0x14A5 JUMP JUMPDEST PUSH0 SLOAD PUSH1 0x32 GT PUSH2 0xBD5 JUMPI PUSH1 0x40 MLOAD PUSH3 0x461BCD PUSH1 0xE5 SHL DUP2 MSTORE PUSH1 0x20 PUSH1 0x4 DUP3 ADD MSTORE PUSH1 0x13 PUSH1 0x24 DUP3 ADD MSTORE PUSH19 0x115E18D95959195908199A5B19481B1A5B5A5D PUSH1 0x6A SHL PUSH1 0x44 DUP3 ADD MSTORE PUSH1 0x64 ADD PUSH2 0x25C JUMP JUMPDEST PUSH0 DUP4 MLOAD GT PUSH2 0xC25 JUMPI PUSH1 0x40 MLOAD PUSH3 0x461BCD PUSH1 0xE5 SHL DUP2 MSTORE PUSH1 0x20 PUSH1 0x4 DUP3 ADD MSTORE PUSH1 0x18 PUSH1 0x24 DUP3 ADD MSTORE PUSH32 0x46696C656E616D652063616E6E6F7420626520656D7074790000000000000000 PUSH1 0x44 DUP3 ADD MSTORE PUSH1 0x64 ADD PUSH2 0x25C JUMP JUMPDEST PUSH1 0x1 DUP4 PUSH1 0x40 MLOAD PUSH2 0xC35 SWAP2 SWAP1 PUSH2 0x14A5 JUMP JUMPDEST SWAP1 DUP2 MSTORE PUSH1 0x40 MLOAD SWAP1 DUP2 SWAP1 SUB PUSH1 0x20 ADD SWAP1 KECCAK256 PUSH1 0x2 ADD SLOAD PUSH1 0xFF AND ISZERO PUSH2 0xC8E JUMPI PUSH1 0x40 MLOAD PUSH3 0x461BCD PUSH1 0xE5 SHL DUP2 MSTORE PUSH1 0x20 PUSH1 0x4 DUP3 ADD MSTORE PUSH1 0x13 PUSH1 0x24 DUP3 ADD MSTORE PUSH19 0x46696C6520616C726561647920657869737473 PUSH1 0x68 SHL PUSH1 0x44 DUP3 ADD MSTORE PUSH1 0x64 ADD PUSH2 0x25C JUMP JUMPDEST PUSH0 PUSH1 0x1 DUP5 PUSH1 0x40 MLOAD PUSH2 0xC9F SWAP2 SWAP1 PUSH2 0x14A5 JUMP JUMPDEST SWAP1 DUP2 MSTORE PUSH1 0x40 MLOAD SWAP1 DUP2 SWAP1 SUB PUSH1 0x20 ADD SWAP1 KECCAK256 SWAP1 POP DUP1 PUSH2 0xCBB DUP6 DUP3 PUSH2 0x1567 JUMP JUMPDEST POP PUSH1 0x1 DUP2 ADD PUSH2 0xCCA DUP4 DUP3 PUSH2 0x1567 JUMP JUMPDEST POP PUSH1 0x2 DUP2 ADD DUP1 SLOAD PUSH1 0x1 PUSH1 0x1 PUSH1 0xA0 SHL SUB DUP6 AND PUSH2 0x100 MUL PUSH1 0x1 PUSH1 0x1 PUSH1 0xA8 SHL SUB NOT SWAP1 SWAP2 AND OR PUSH1 0x1 OR SWAP1 SSTORE PUSH1 0x40 DUP1 MLOAD PUSH0 DUP2 MSTORE PUSH1 0x20 DUP2 ADD SWAP2 DUP3 SWAP1 MSTORE MLOAD PUSH2 0xD0F SWAP2 PUSH1 0x3 DUP5 ADD SWAP2 PUSH2 0x10AC JUMP JUMPDEST POP PUSH1 0x1 PUSH1 0x1 PUSH1 0xA0 SHL SUB DUP4 AND PUSH0 SWAP1 DUP2 MSTORE PUSH1 0x4 DUP3 ADD PUSH1 0x20 MSTORE PUSH1 0x40 DUP2 KECCAK256 DUP1 SLOAD PUSH1 0xFF NOT AND PUSH1 0x3 OR SWAP1 SSTORE DUP1 SLOAD SWAP1 DUP1 PUSH2 0xD41 DUP4 PUSH2 0x17E9 JUMP JUMPDEST SWAP1 SWAP2 SSTORE POP POP PUSH1 0x2 DUP1 SLOAD PUSH1 0x1 DUP2 ADD DUP3 SSTORE PUSH0 SWAP2 SWAP1 SWAP2 MSTORE PUSH32 0x405787FA12A823E0F2B7631CC41B3BA8828B3321CA811111FA75CD3AA3BB5ACE ADD PUSH2 0xD81 DUP6 DUP3 PUSH2 0x1567 JUMP JUMPDEST POP POP POP POP POP JUMP JUMPDEST PUSH0 DUP3 PUSH1 0x1 DUP2 PUSH1 0x40 MLOAD PUSH2 0xD9A SWAP2 SWAP1 PUSH2 0x14A5 JUMP JUMPDEST SWAP1 DUP2 MSTORE PUSH1 0x40 MLOAD SWAP1 DUP2 SWAP1 SUB PUSH1 0x20 ADD SWAP1 KECCAK256 PUSH1 0x2 ADD SLOAD PUSH1 0xFF AND PUSH2 0xDCC JUMPI PUSH1 0x40 MLOAD PUSH3 0x461BCD PUSH1 0xE5 SHL DUP2 MSTORE PUSH1 0x4 ADD PUSH2 0x25C SWAP1 PUSH2 0x14B0 JUMP JUMPDEST PUSH1 0x1 DUP5 PUSH1 0x40 MLOAD PUSH2 0xDDC SWAP2 SWAP1 PUSH2 0x14A5 JUMP JUMPDEST SWAP1 DUP2 MSTORE PUSH1 0x40 DUP1 MLOAD PUSH1 0x20 SWAP3 DUP2 SWAP1 SUB DUP4 ADD SWAP1 KECCAK256 PUSH1 0x1 PUSH1 0x1 PUSH1 0xA0 SHL SUB SWAP6 SWAP1 SWAP6 AND PUSH0 SWAP1 DUP2 MSTORE PUSH1 0x4 SWAP1 SWAP6 ADD SWAP1 SWAP2 MSTORE SWAP1 SWAP3 KECCAK256 SLOAD PUSH1 0xFF AND SWAP4 SWAP3 POP POP POP JUMP JUMPDEST DUP1 MLOAD PUSH1 0x20 DUP2 DUP4 ADD DUP2 ADD DUP1 MLOAD PUSH1 0x1 DUP3 MSTORE SWAP3 DUP3 ADD SWAP2 SWAP1 SWAP4 ADD KECCAK256 SWAP2 MSTORE DUP1 SLOAD DUP2 SWAP1 PUSH2 0xE39 SWAP1 PUSH2 0x14DD JUMP JUMPDEST DUP1 PUSH1 0x1F ADD PUSH1 0x20 DUP1 SWAP2 DIV MUL PUSH1 0x20 ADD PUSH1 0x40 MLOAD SWAP1 DUP2 ADD PUSH1 0x40 MSTORE DUP1 SWAP3 SWAP2 SWAP1 DUP2 DUP2 MSTORE PUSH1 0x20 ADD DUP3 DUP1 SLOAD PUSH2 0xE65 SWAP1 PUSH2 0x14DD JUMP JUMPDEST DUP1 ISZERO PUSH2 0xEB0 JUMPI DUP1 PUSH1 0x1F LT PUSH2 0xE87 JUMPI PUSH2 0x100 DUP1 DUP4 SLOAD DIV MUL DUP4 MSTORE SWAP2 PUSH1 0x20 ADD SWAP2 PUSH2 0xEB0 JUMP JUMPDEST DUP3 ADD SWAP2 SWAP1 PUSH0 MSTORE PUSH1 0x20 PUSH0 KECCAK256 SWAP1 JUMPDEST DUP2 SLOAD DUP2 MSTORE SWAP1 PUSH1 0x1 ADD SWAP1 PUSH1 0x20 ADD DUP1 DUP4 GT PUSH2 0xE93 JUMPI DUP3 SWAP1 SUB PUSH1 0x1F AND DUP3 ADD SWAP2 JUMPDEST POP POP POP POP POP SWAP1 DUP1 PUSH1 0x1 ADD DUP1 SLOAD PUSH2 0xEC5 SWAP1 PUSH2 0x14DD JUMP JUMPDEST DUP1 PUSH1 0x1F ADD PUSH1 0x20 DUP1 SWAP2 DIV MUL PUSH1 0x20 ADD PUSH1 0x40 MLOAD SWAP1 DUP2 ADD PUSH1 0x40 MSTORE DUP1 SWAP3 SWAP2 SWAP1 DUP2 DUP2 MSTORE PUSH1 0x20 ADD DUP3 DUP1 SLOAD PUSH2 0xEF1 SWAP1 PUSH2 0x14DD JUMP JUMPDEST DUP1 ISZERO PUSH2 0xF3C JUMPI DUP1 PUSH1 0x1F LT PUSH2 0xF13 JUMPI PUSH2 0x100 DUP1 DUP4 SLOAD DIV MUL DUP4 MSTORE SWAP2 PUSH1 0x20 ADD SWAP2 PUSH2 0xF3C JUMP JUMPDEST DUP3 ADD SWAP2 SWAP1 PUSH0 MSTORE PUSH1 0x20 PUSH0 KECCAK256 SWAP1 JUMPDEST DUP2 SLOAD DUP2 MSTORE SWAP1 PUSH1 0x1 ADD SWAP1 PUSH1 0x20 ADD DUP1 DUP4 GT PUSH2 0xF1F JUMPI DUP3 SWAP1 SUB PUSH1 0x1F AND DUP3 ADD SWAP2 JUMPDEST POP POP POP PUSH1 0x2 SWAP1 SWAP4 ADD SLOAD SWAP2 SWAP3 POP POP PUSH1 0xFF DUP2 AND SWAP1 PUSH1 0x1 PUSH1 0x1 PUSH1 0xA0 SHL SUB PUSH2 0x100 SWAP1 SWAP2 DIV AND DUP5 JUMP JUMPDEST DUP3 PUSH1 0x1 DUP2 PUSH1 0x40 MLOAD PUSH2 0xF71 SWAP2 SWAP1 PUSH2 0x14A5 JUMP JUMPDEST SWAP1 DUP2 MSTORE PUSH1 0x40 MLOAD SWAP1 DUP2 SWAP1 SUB PUSH1 0x20 ADD SWAP1 KECCAK256 PUSH1 0x2 ADD SLOAD PUSH1 0xFF AND PUSH2 0xFA3 JUMPI PUSH1 0x40 MLOAD PUSH3 0x461BCD PUSH1 0xE5 SHL DUP2 MSTORE PUSH1 0x4 ADD PUSH2 0x25C SWAP1 PUSH2 0x14B0 JUMP JUMPDEST PUSH1 0x3 DUP3 PUSH1 0xFF AND GT ISZERO PUSH2 0xFF7 JUMPI PUSH1 0x40 MLOAD PUSH3 0x461BCD PUSH1 0xE5 SHL DUP2 MSTORE PUSH1 0x20 PUSH1 0x4 DUP3 ADD MSTORE PUSH1 0x17 PUSH1 0x24 DUP3 ADD MSTORE PUSH32 0x496E76616C6964207065726D697373696F6E206D6F6465000000000000000000 PUSH1 0x44 DUP3 ADD MSTORE PUSH1 0x64 ADD PUSH2 0x25C JUMP JUMPDEST DUP2 PUSH1 0x1 DUP6 PUSH1 0x40 MLOAD PUSH2 0x1008 SWAP2 SWAP1 PUSH2 0x14A5 JUMP JUMPDEST SWAP1 DUP2 MSTORE PUSH1 0x20 ADD PUSH1 0x40 MLOAD DUP1 SWAP2 SUB SWAP1 KECCAK256 PUSH1 0x4 ADD PUSH0 DUP6 PUSH1 0x1 PUSH1 0x1 PUSH1 0xA0 SHL SUB AND PUSH1 0x1 PUSH1 0x1 PUSH1 0xA0 SHL SUB AND DUP2 MSTORE PUSH1 0x20 ADD SWAP1 DUP2 MSTORE PUSH1 0x20 ADD PUSH0 KECCAK256 PUSH0 PUSH2 0x100 EXP DUP2 SLOAD DUP2 PUSH1 0xFF MUL NOT AND SWAP1 DUP4 PUSH1 0xFF AND MUL OR SWAP1 SSTORE POP POP POP POP POP JUMP JUMPDEST POP DUP1 SLOAD PUSH2 0x1063 SWAP1 PUSH2 0x14DD JUMP JUMPDEST PUSH0 DUP3 SSTORE DUP1 PUSH1 0x1F LT PUSH2 0x1072 JUMPI POP POP JUMP JUMPDEST PUSH1 0x1F ADD PUSH1 0x20 SWAP1 DIV SWAP1 PUSH0 MSTORE PUSH1 0x20 PUSH0 KECCAK256 SWAP1 DUP2 ADD SWAP1 PUSH2 0x108E SWAP2 SWAP1 PUSH2 0x110F JUMP JUMPDEST POP JUMP JUMPDEST POP DUP1 SLOAD PUSH0 DUP3 SSTORE SWAP1 PUSH0 MSTORE PUSH1 0x20 PUSH0 KECCAK256 SWAP1 DUP2 ADD SWAP1 PUSH2 0x108E SWAP2 SWAP1 PUSH2 0x110F JUMP JUMPDEST DUP3 DUP1 SLOAD DUP3 DUP3 SSTORE SWAP1 PUSH0 MSTORE PUSH1 0x20 PUSH0 KECCAK256 SWAP1 DUP2 ADD SWAP3 DUP3 ISZERO PUSH2 0x10FF JUMPI SWAP2 PUSH1 0x20 MUL DUP3 ADD JUMPDEST DUP3 DUP2 GT ISZERO PUSH2 0x10FF JUMPI DUP3 MLOAD DUP3 SLOAD PUSH1 0x1 PUSH1 0x1 PUSH1 0xA0 SHL SUB NOT AND PUSH1 0x1 PUSH1 0x1 PUSH1 0xA0 SHL SUB SWAP1 SWAP2 AND OR DUP3 SSTORE PUSH1 0x20 SWAP1 SWAP3 ADD SWAP2 PUSH1 0x1 SWAP1 SWAP2 ADD SWAP1 PUSH2 0x10CA JUMP JUMPDEST POP PUSH2 0x110B SWAP3 SWAP2 POP PUSH2 0x110F JUMP JUMPDEST POP SWAP1 JUMP JUMPDEST JUMPDEST DUP1 DUP3 GT ISZERO PUSH2 0x110B JUMPI PUSH0 DUP2 SSTORE PUSH1 0x1 ADD PUSH2 0x1110 JUMP JUMPDEST PUSH4 0x4E487B71 PUSH1 0xE0 SHL PUSH0 MSTORE PUSH1 0x41 PUSH1 0x4 MSTORE PUSH1 0x24 PUSH0 REVERT JUMPDEST PUSH0 DUP3 PUSH1 0x1F DUP4 ADD SLT PUSH2 0x1146 JUMPI PUSH0 DUP1 REVERT JUMPDEST DUP2 CALLDATALOAD PUSH8 0xFFFFFFFFFFFFFFFF DUP2 GT ISZERO PUSH2 0x1160 JUMPI PUSH2 0x1160 PUSH2 0x1123 JUMP JUMPDEST PUSH1 0x40 MLOAD PUSH1 0x1F DUP3 ADD PUSH1 0x1F NOT SWAP1 DUP2 AND PUSH1 0x3F ADD AND DUP2 ADD PUSH8 0xFFFFFFFFFFFFFFFF DUP2 GT DUP3 DUP3 LT OR ISZERO PUSH2 0x118F JUMPI PUSH2 0x118F PUSH2 0x1123 JUMP JUMPDEST PUSH1 0x40 MSTORE DUP2 DUP2 MSTORE DUP4 DUP3 ADD PUSH1 0x20 ADD DUP6 LT ISZERO PUSH2 0x11A6 JUMPI PUSH0 DUP1 REVERT JUMPDEST DUP2 PUSH1 0x20 DUP6 ADD PUSH1 0x20 DUP4 ADD CALLDATACOPY PUSH0 SWAP2 DUP2 ADD PUSH1 0x20 ADD SWAP2 SWAP1 SWAP2 MSTORE SWAP4 SWAP3 POP POP POP JUMP JUMPDEST PUSH0 DUP1 PUSH1 0x40 DUP4 DUP6 SUB SLT ISZERO PUSH2 0x11D3 JUMPI PUSH0 DUP1 REVERT JUMPDEST DUP3 CALLDATALOAD PUSH8 0xFFFFFFFFFFFFFFFF DUP2 GT ISZERO PUSH2 0x11E9 JUMPI PUSH0 DUP1 REVERT JUMPDEST PUSH2 0x11F5 DUP6 DUP3 DUP7 ADD PUSH2 0x1137 JUMP JUMPDEST SWAP3 POP POP PUSH1 0x20 DUP4 ADD CALLDATALOAD PUSH8 0xFFFFFFFFFFFFFFFF DUP2 GT ISZERO PUSH2 0x1211 JUMPI PUSH0 DUP1 REVERT JUMPDEST PUSH2 0x121D DUP6 DUP3 DUP7 ADD PUSH2 0x1137 JUMP JUMPDEST SWAP2 POP POP SWAP3 POP SWAP3 SWAP1 POP JUMP JUMPDEST PUSH0 PUSH1 0x20 DUP3 DUP5 SUB SLT ISZERO PUSH2 0x1237 JUMPI PUSH0 DUP1 REVERT JUMPDEST DUP2 CALLDATALOAD PUSH8 0xFFFFFFFFFFFFFFFF DUP2 GT ISZERO PUSH2 0x124D JUMPI PUSH0 DUP1 REVERT JUMPDEST PUSH2 0x1259 DUP5 DUP3 DUP6 ADD PUSH2 0x1137 JUMP JUMPDEST SWAP5 SWAP4 POP POP POP POP JUMP JUMPDEST PUSH0 DUP2 MLOAD DUP1 DUP5 MSTORE DUP1 PUSH1 0x20 DUP5 ADD PUSH1 0x20 DUP7 ADD MCOPY PUSH0 PUSH1 0x20 DUP3 DUP7 ADD ADD MSTORE PUSH1 0x20 PUSH1 0x1F NOT PUSH1 0x1F DUP4 ADD AND DUP6 ADD ADD SWAP2 POP POP SWAP3 SWAP2 POP POP JUMP JUMPDEST PUSH1 0x20 DUP2 MSTORE PUSH0 PUSH2 0x12A1 PUSH1 0x20 DUP4 ADD DUP5 PUSH2 0x1261 JUMP JUMPDEST SWAP4 SWAP3 POP POP POP JUMP JUMPDEST DUP1 CALLDATALOAD PUSH1 0x1 PUSH1 0x1 PUSH1 0xA0 SHL SUB DUP2 AND DUP2 EQ PUSH2 0x12BE JUMPI PUSH0 DUP1 REVERT JUMPDEST SWAP2 SWAP1 POP JUMP JUMPDEST PUSH0 DUP1 PUSH1 0x40 DUP4 DUP6 SUB SLT ISZERO PUSH2 0x12D4 JUMPI PUSH0 DUP1 REVERT JUMPDEST DUP3 CALLDATALOAD PUSH8 0xFFFFFFFFFFFFFFFF DUP2 GT ISZERO PUSH2 0x12EA JUMPI PUSH0 DUP1 REVERT JUMPDEST PUSH2 0x12F6 DUP6 DUP3 DUP7 ADD PUSH2 0x1137 JUMP JUMPDEST SWAP3 POP POP PUSH2 0x1305 PUSH1 0x20 DUP5 ADD PUSH2 0x12A8 JUMP JUMPDEST SWAP1 POP SWAP3 POP SWAP3 SWAP1 POP JUMP JUMPDEST PUSH0 PUSH1 0x20 DUP3 ADD PUSH1 0x20 DUP4 MSTORE DUP1 DUP5 MLOAD DUP1 DUP4 MSTORE PUSH1 0x40 DUP6 ADD SWAP2 POP PUSH1 0x40 DUP2 PUSH1 0x5 SHL DUP7 ADD ADD SWAP3 POP PUSH1 0x20 DUP7 ADD PUSH0 JUMPDEST DUP3 DUP2 LT ISZERO PUSH2 0x1365 JUMPI PUSH1 0x3F NOT DUP8 DUP7 SUB ADD DUP5 MSTORE PUSH2 0x1350 DUP6 DUP4 MLOAD PUSH2 0x1261 JUMP JUMPDEST SWAP5 POP PUSH1 0x20 SWAP4 DUP5 ADD SWAP4 SWAP2 SWAP1 SWAP2 ADD SWAP1 PUSH1 0x1 ADD PUSH2 0x1334 JUMP JUMPDEST POP SWAP3 SWAP7 SWAP6 POP POP POP POP POP POP JUMP JUMPDEST PUSH0 DUP1 PUSH0 PUSH1 0x60 DUP5 DUP7 SUB SLT ISZERO PUSH2 0x1383 JUMPI PUSH0 DUP1 REVERT JUMPDEST DUP4 CALLDATALOAD PUSH8 0xFFFFFFFFFFFFFFFF DUP2 GT ISZERO PUSH2 0x1399 JUMPI PUSH0 DUP1 REVERT JUMPDEST PUSH2 0x13A5 DUP7 DUP3 DUP8 ADD PUSH2 0x1137 JUMP JUMPDEST SWAP4 POP POP PUSH2 0x13B4 PUSH1 0x20 DUP6 ADD PUSH2 0x12A8 JUMP JUMPDEST SWAP2 POP PUSH1 0x40 DUP5 ADD CALLDATALOAD PUSH8 0xFFFFFFFFFFFFFFFF DUP2 GT ISZERO PUSH2 0x13CF JUMPI PUSH0 DUP1 REVERT JUMPDEST PUSH2 0x13DB DUP7 DUP3 DUP8 ADD PUSH2 0x1137 JUMP JUMPDEST SWAP2 POP POP SWAP3 POP SWAP3 POP SWAP3 JUMP JUMPDEST PUSH1 0x80 DUP2 MSTORE PUSH0 PUSH2 0x13F7 PUSH1 0x80 DUP4 ADD DUP8 PUSH2 0x1261 JUMP JUMPDEST DUP3 DUP2 SUB PUSH1 0x20 DUP5 ADD MSTORE PUSH2 0x1409 DUP2 DUP8 PUSH2 0x1261 JUMP JUMPDEST SWAP5 ISZERO ISZERO PUSH1 0x40 DUP5 ADD MSTORE POP POP PUSH1 0x1 PUSH1 0x1 PUSH1 0xA0 SHL SUB SWAP2 SWAP1 SWAP2 AND PUSH1 0x60 SWAP1 SWAP2 ADD MSTORE SWAP3 SWAP2 POP POP JUMP JUMPDEST PUSH0 DUP1 PUSH0 PUSH1 0x60 DUP5 DUP7 SUB SLT ISZERO PUSH2 0x143D JUMPI PUSH0 DUP1 REVERT JUMPDEST DUP4 CALLDATALOAD PUSH8 0xFFFFFFFFFFFFFFFF DUP2 GT ISZERO PUSH2 0x1453 JUMPI PUSH0 DUP1 REVERT JUMPDEST PUSH2 0x145F DUP7 DUP3 DUP8 ADD PUSH2 0x1137 JUMP JUMPDEST SWAP4 POP POP PUSH2 0x146E PUSH1 0x20 DUP6 ADD PUSH2 0x12A8 JUMP JUMPDEST SWAP2 POP PUSH1 0x40 DUP5 ADD CALLDATALOAD PUSH1 0xFF DUP2 AND DUP2 EQ PUSH2 0x1483 JUMPI PUSH0 DUP1 REVERT JUMPDEST DUP1 SWAP2 POP POP SWAP3 POP SWAP3 POP SWAP3 JUMP JUMPDEST PUSH0 DUP2 MLOAD DUP1 PUSH1 0x20 DUP5 ADD DUP6 MCOPY PUSH0 SWAP4 ADD SWAP3 DUP4 MSTORE POP SWAP1 SWAP2 SWAP1 POP JUMP JUMPDEST PUSH0 PUSH2 0x12A1 DUP3 DUP5 PUSH2 0x148E JUMP JUMPDEST PUSH1 0x20 DUP1 DUP3 MSTORE PUSH1 0x13 SWAP1 DUP3 ADD MSTORE PUSH19 0x119A5B1948191BD95CC81B9BDD08195E1A5CDD PUSH1 0x6A SHL PUSH1 0x40 DUP3 ADD MSTORE PUSH1 0x60 ADD SWAP1 JUMP JUMPDEST PUSH1 0x1 DUP2 DUP2 SHR SWAP1 DUP3 AND DUP1 PUSH2 0x14F1 JUMPI PUSH1 0x7F DUP3 AND SWAP2 POP JUMPDEST PUSH1 0x20 DUP3 LT DUP2 SUB PUSH2 0x589 JUMPI PUSH4 0x4E487B71 PUSH1 0xE0 SHL PUSH0 MSTORE PUSH1 0x22 PUSH1 0x4 MSTORE PUSH1 0x24 PUSH0 REVERT JUMPDEST PUSH4 0x4E487B71 PUSH1 0xE0 SHL PUSH0 MSTORE PUSH1 0x32 PUSH1 0x4 MSTORE PUSH1 0x24 PUSH0 REVERT JUMPDEST PUSH1 0x1F DUP3 GT ISZERO PUSH2 0x50B JUMPI DUP1 PUSH0 MSTORE PUSH1 0x20 PUSH0 KECCAK256 PUSH1 0x1F DUP5 ADD PUSH1 0x5 SHR DUP2 ADD PUSH1 0x20 DUP6 LT ISZERO PUSH2 0x1548 JUMPI POP DUP1 JUMPDEST PUSH1 0x1F DUP5 ADD PUSH1 0x5 SHR DUP3 ADD SWAP2 POP JUMPDEST DUP2 DUP2 LT ISZERO PUSH2 0xD81 JUMPI PUSH0 DUP2 SSTORE PUSH1 0x1 ADD PUSH2 0x1554 JUMP JUMPDEST DUP2 MLOAD PUSH8 0xFFFFFFFFFFFFFFFF DUP2 GT ISZERO PUSH2 0x1581 JUMPI PUSH2 0x1581 PUSH2 0x1123 JUMP JUMPDEST PUSH2 0x1595 DUP2 PUSH2 0x158F DUP5 SLOAD PUSH2 0x14DD JUMP JUMPDEST DUP5 PUSH2 0x1523 JUMP JUMPDEST PUSH1 0x20 PUSH1 0x1F DUP3 GT PUSH1 0x1 DUP2 EQ PUSH2 0x15CA JUMPI PUSH0 DUP4 ISZERO PUSH2 0x15B0 JUMPI POP DUP5 DUP3 ADD MLOAD JUMPDEST PUSH1 0x1 DUP5 SWAP1 SHL PUSH0 NOT PUSH1 0x3 DUP7 SWAP1 SHL SHR NOT DUP3 AND OR JUMPDEST DUP6 SSTORE POP PUSH2 0xD81 JUMP JUMPDEST PUSH0 DUP5 DUP2 MSTORE PUSH1 0x20 DUP2 KECCAK256 PUSH1 0x1F NOT DUP6 AND SWAP2 JUMPDEST DUP3 DUP2 LT ISZERO PUSH2 0x15F9 JUMPI DUP8 DUP6 ADD MLOAD DUP3 SSTORE PUSH1 0x20 SWAP5 DUP6 ADD SWAP5 PUSH1 0x1 SWAP1 SWAP3 ADD SWAP2 ADD PUSH2 0x15D9 JUMP JUMPDEST POP DUP5 DUP3 LT ISZERO PUSH2 0x1616 JUMPI DUP7 DUP5 ADD MLOAD PUSH0 NOT PUSH1 0x3 DUP8 SWAP1 SHL PUSH1 0xF8 AND SHR NOT AND DUP2 SSTORE JUMPDEST POP POP POP POP PUSH1 0x1 SWAP1 DUP2 SHL ADD SWAP1 SSTORE POP JUMP JUMPDEST PUSH0 DUP2 SLOAD PUSH2 0x1631 DUP2 PUSH2 0x14DD JUMP JUMPDEST PUSH1 0x1 DUP3 AND DUP1 ISZERO PUSH2 0x1648 JUMPI PUSH1 0x1 DUP2 EQ PUSH2 0x165D JUMPI PUSH2 0x168A JUMP JUMPDEST PUSH1 0xFF NOT DUP4 AND DUP7 MSTORE DUP2 ISZERO ISZERO DUP3 MUL DUP7 ADD SWAP4 POP PUSH2 0x168A JUMP JUMPDEST DUP5 PUSH0 MSTORE PUSH1 0x20 PUSH0 KECCAK256 PUSH0 JUMPDEST DUP4 DUP2 LT ISZERO PUSH2 0x1682 JUMPI DUP2 SLOAD DUP9 DUP3 ADD MSTORE PUSH1 0x1 SWAP1 SWAP2 ADD SWAP1 PUSH1 0x20 ADD PUSH2 0x1666 JUMP JUMPDEST POP POP DUP2 DUP7 ADD SWAP4 POP JUMPDEST POP POP POP SWAP3 SWAP2 POP POP JUMP JUMPDEST PUSH0 PUSH2 0x12A1 DUP3 DUP5 PUSH2 0x1625 JUMP JUMPDEST PUSH4 0x4E487B71 PUSH1 0xE0 SHL PUSH0 MSTORE PUSH1 0x11 PUSH1 0x4 MSTORE PUSH1 0x24 PUSH0 REVERT JUMPDEST DUP2 DUP2 SUB DUP2 DUP2 GT ISZERO PUSH2 0x16C5 JUMPI PUSH2 0x16C5 PUSH2 0x169E JUMP JUMPDEST SWAP3 SWAP2 POP POP JUMP JUMPDEST DUP2 DUP2 SUB PUSH2 0x16D6 JUMPI POP POP JUMP JUMPDEST PUSH2 0x16E0 DUP3 SLOAD PUSH2 0x14DD JUMP JUMPDEST PUSH8 0xFFFFFFFFFFFFFFFF DUP2 GT ISZERO PUSH2 0x16F8 JUMPI PUSH2 0x16F8 PUSH2 0x1123 JUMP JUMPDEST PUSH2 0x1706 DUP2 PUSH2 0x158F DUP5 SLOAD PUSH2 0x14DD JUMP JUMPDEST PUSH0 PUSH1 0x1F DUP3 GT PUSH1 0x1 DUP2 EQ PUSH2 0x1735 JUMPI PUSH0 DUP4 ISZERO PUSH2 0x15B0 JUMPI POP DUP2 DUP6 ADD SLOAD PUSH1 0x1 DUP5 SWAP1 SHL PUSH0 NOT PUSH1 0x3 DUP7 SWAP1 SHL SHR NOT DUP3 AND OR PUSH2 0x15C2 JUMP JUMPDEST PUSH0 DUP6 DUP2 MSTORE PUSH1 0x20 DUP1 DUP3 KECCAK256 DUP7 DUP4 MSTORE SWAP1 DUP3 KECCAK256 PUSH1 0x1F NOT DUP7 AND SWAP3 JUMPDEST DUP4 DUP2 LT ISZERO PUSH2 0x176B JUMPI DUP3 DUP7 ADD SLOAD DUP3 SSTORE PUSH1 0x1 SWAP6 DUP7 ADD SWAP6 SWAP1 SWAP2 ADD SWAP1 PUSH1 0x20 ADD PUSH2 0x174B JUMP JUMPDEST POP DUP6 DUP4 LT ISZERO PUSH2 0x1788 JUMPI DUP2 DUP6 ADD SLOAD PUSH0 NOT PUSH1 0x3 DUP9 SWAP1 SHL PUSH1 0xF8 AND SHR NOT AND DUP2 SSTORE JUMPDEST POP POP POP POP POP PUSH1 0x1 SWAP1 DUP2 SHL ADD SWAP1 SSTORE POP JUMP JUMPDEST PUSH4 0x4E487B71 PUSH1 0xE0 SHL PUSH0 MSTORE PUSH1 0x31 PUSH1 0x4 MSTORE PUSH1 0x24 PUSH0 REVERT JUMPDEST PUSH0 DUP2 PUSH2 0x17BA JUMPI PUSH2 0x17BA PUSH2 0x169E JUMP JUMPDEST POP PUSH0 NOT ADD SWAP1 JUMP JUMPDEST PUSH0 PUSH2 0x17CC DUP3 DUP6 PUSH2 0x1625 JUMP JUMPDEST PUSH1 0x5 PUSH1 0xF9 SHL DUP2 MSTORE PUSH2 0x17E0 PUSH1 0x1 DUP3 ADD DUP6 PUSH2 0x148E JUMP JUMPDEST SWAP6 SWAP5 POP POP POP POP POP JUMP JUMPDEST PUSH0 PUSH1 0x1 DUP3 ADD PUSH2 0x17FA JUMPI PUSH2 0x17FA PUSH2 0x169E JUMP JUMPDEST POP PUSH1 0x1 ADD SWAP1 JUMP INVALID LOG2 PUSH5 0x6970667358 0x22 SLT KECCAK256 CALLER 0xFB PUSH13 0xD139B9FC77BA75CCC302729057 PUSH22 0x908A778F556E6EED7B529A4F8CEB5A64736F6C634300 ADDMOD BYTE STOP CALLER "
		},
		"gasEstimates": {
			"creation": {
				"codeDepositCost": "3846600",
				"executionCost": "infinite",
				"totalCost": "infinite"
			},
			"external": {
				"addUser(address)": "infinite",
				"appendToFile(string,string)": "infinite",
				"changeFilePermission(string,address,uint8)": "infinite",
				"createDir(string)": "infinite",
				"createFile(string,string)": "infinite",
				"currentDir()": "infinite",
				"deleteDir()": "infinite",
				"deleteFile(string)": "infinite",
				"driveOwner()": "infinite",
				"goDown(string)": "infinite",
				"goUp()": "infinite",
				"listDir()": "infinite",
				"readFile(string)": "infinite",
				"removeUser(address)": "infinite",
				"renameDir(string)": "infinite",
				"renameFile(string,string)": "infinite",
				"renameSelf(string)": "infinite",
				"userCount()": "2307",
				"viewCurrentDirName()": "infinite",
				"viewFilePermission(string,address)": "infinite",
				"viewUserList()": "infinite",
				"whoami()": "infinite",
				"writeToFile(string,string)": "infinite"
			},
			"internal": {
				"changeDir(uint256)": "infinite"
			}
		},
		"methodIdentifiers": {
			"addUser(address)": "421b2d8b",
			"appendToFile(string,string)": "b6b13caa",
			"changeFilePermission(string,address,uint8)": "eceed653",
			"createDir(string)": "86c98506",
			"createFile(string,string)": "81ad193a",
			"currentDir()": "699060c3",
			"deleteDir()": "0a5cf57c",
			"deleteFile(string)": "a9910054",
			"driveOwner()": "0fc715c3",
			"goDown(string)": "0e3c9008",
			"goUp()": "d4eb40b0",
			"listDir()": "ffa52b84",
			"readFile(string)": "60f9bb11",
			"removeUser(address)": "98575188",
			"renameDir(string)": "9af2abc6",
			"renameFile(string,string)": "13d4a044",
			"renameSelf(string)": "a47b6cf6",
			"userCount()": "07973ccf",
			"viewCurrentDirName()": "eb73bcef",
			"viewFilePermission(string,address)": "7d41216d",
			"viewUserList()": "0fe579c0",
			"whoami()": "b3b36bb3",
			"writeToFile(string,string)": "77064bfa"
		}
	},
	"abi": [
		{
			"inputs": [
				{
					"internalType": "string",
					"name": "_driveName",
					"type": "string"
				}
			],
			"stateMutability": "nonpayable",
			"type": "constructor"
		},
		{
			"anonymous": false,
			"inputs": [
				{
					"indexed": false,
					"internalType": "string",
					"name": "filename",
					"type": "string"
				},
				{
					"indexed": false,
					"internalType": "string",
					"name": "newContent",
					"type": "string"
				}
			],
			"name": "AppendedToFile",
			"type": "event"
		},
		{
			"anonymous": false,
			"inputs": [
				{
					"indexed": false,
					"internalType": "string",
					"name": "dirName",
					"type": "string"
				}
			],
			"name": "DirectoryCreated",
			"type": "event"
		},
		{
			"anonymous": false,
			"inputs": [
				{
					"indexed": false,
					"internalType": "string",
					"name": "dirName",
					"type": "string"
				}
			],
			"name": "DirectoryDeleted",
			"type": "event"
		},
		{
			"anonymous": false,
			"inputs": [
				{
					"indexed": false,
					"internalType": "string",
					"name": "oldname",
					"type": "string"
				},
				{
					"indexed": false,
					"internalType": "string",
					"name": "newNames",
					"type": "string"
				}
			],
			"name": "DirectoryRenamed",
			"type": "event"
		},
		{
			"anonymous": false,
			"inputs": [
				{
					"indexed": false,
					"internalType": "string",
					"name": "filename",
					"type": "string"
				},
				{
					"indexed": false,
					"internalType": "string",
					"name": "content",
					"type": "string"
				}
			],
			"name": "FileCreated",
			"type": "event"
		},
		{
			"anonymous": false,
			"inputs": [
				{
					"indexed": false,
					"internalType": "string",
					"name": "filename",
					"type": "string"
				}
			],
			"name": "FileDeleted",
			"type": "event"
		},
		{
			"anonymous": false,
			"inputs": [
				{
					"indexed": false,
					"internalType": "string",
					"name": "filename",
					"type": "string"
				},
				{
					"indexed": false,
					"internalType": "address",
					"name": "addr",
					"type": "address"
				},
				{
					"indexed": false,
					"internalType": "uint8",
					"name": "mode",
					"type": "uint8"
				}
			],
			"name": "FilePermissionChanged",
			"type": "event"
		},
		{
			"anonymous": false,
			"inputs": [
				{
					"indexed": false,
					"internalType": "string",
					"name": "oldname",
					"type": "string"
				},
				{
					"indexed": false,
					"internalType": "string",
					"name": "newName",
					"type": "string"
				}
			],
			"name": "FileRenamed",
			"type": "event"
		},
		{
			"anonymous": false,
			"inputs": [
				{
					"indexed": false,
					"internalType": "string",
					"name": "filename",
					"type": "string"
				},
				{
					"indexed": false,
					"internalType": "string",
					"name": "newContent",
					"type": "string"
				}
			],
			"name": "FileWritten",
			"type": "event"
		},
		{
			"anonymous": false,
			"inputs": [
				{
					"indexed": false,
					"internalType": "string",
					"name": "newName",
					"type": "string"
				}
			],
			"name": "ShareDriveRenamed",
			"type": "event"
		},
		{
			"anonymous": false,
			"inputs": [
				{
					"indexed": true,
					"internalType": "address",
					"name": "addr",
					"type": "address"
				}
			],
			"name": "UserAdded",
			"type": "event"
		},
		{
			"anonymous": false,
			"inputs": [
				{
					"indexed": true,
					"internalType": "address",
					"name": "addr",
					"type": "address"
				}
			],
			"name": "UserRemoved",
			"type": "event"
		},
		{
			"anonymous": false,
			"inputs": [
				{
					"indexed": true,
					"internalType": "address",
					"name": "addr",
					"type": "address"
				},
				{
					"indexed": false,
					"internalType": "string",
					"name": "newName",
					"type": "string"
				}
			],
			"name": "UserRenamed",
			"type": "event"
		},
		{
			"inputs": [
				{
					"internalType": "address",
					"name": "_addr",
					"type": "address"
				}
			],
			"name": "addUser",
			"outputs": [],
			"stateMutability": "nonpayable",
			"type": "function"
		},
		{
			"inputs": [
				{
					"internalType": "string",
					"name": "_filename",
					"type": "string"
				},
				{
					"internalType": "string",
					"name": "_newContent",
					"type": "string"
				}
			],
			"name": "appendToFile",
			"outputs": [],
			"stateMutability": "nonpayable",
			"type": "function"
		},
		{
			"inputs": [
				{
					"internalType": "string",
					"name": "_filename",
					"type": "string"
				},
				{
					"internalType": "address",
					"name": "_addr",
					"type": "address"
				},
				{
					"internalType": "uint8",
					"name": "_mode",
					"type": "uint8"
				}
			],
			"name": "changeFilePermission",
			"outputs": [],
			"stateMutability": "nonpayable",
			"type": "function"
		},
		{
			"inputs": [
				{
					"internalType": "string",
					"name": "_dirName",
					"type": "string"
				}
			],
			"name": "createDir",
			"outputs": [],
			"stateMutability": "nonpayable",
			"type": "function"
		},
		{
			"inputs": [
				{
					"internalType": "string",
					"name": "_filename",
					"type": "string"
				},
				{
					"internalType": "string",
					"name": "_content",
					"type": "string"
				}
			],
			"name": "createFile",
			"outputs": [],
			"stateMutability": "nonpayable",
			"type": "function"
		},
		{
			"inputs": [],
			"name": "currentDir",
			"outputs": [
				{
					"internalType": "string",
					"name": "dirName",
					"type": "string"
				},
				{
					"internalType": "uint256",
					"name": "id",
					"type": "uint256"
				},
				{
					"internalType": "bool",
					"name": "exists",
					"type": "bool"
				},
				{
					"internalType": "uint256",
					"name": "parent",
					"type": "uint256"
				},
				{
					"internalType": "contract FileStorage",
					"name": "currentFiles",
					"type": "address"
				}
			],
			"stateMutability": "view",
			"type": "function"
		},
		{
			"inputs": [],
			"name": "deleteDir",
			"outputs": [],
			"stateMutability": "nonpayable",
			"type": "function"
		},
		{
			"inputs": [
				{
					"internalType": "string",
					"name": "_filename",
					"type": "string"
				}
			],
			"name": "deleteFile",
			"outputs": [],
			"stateMutability": "nonpayable",
			"type": "function"
		},
		{
			"inputs": [],
			"name": "driveOwner",
			"outputs": [
				{
					"internalType": "address",
					"name": "addr",
					"type": "address"
				},
				{
					"internalType": "uint256",
					"name": "id",
					"type": "uint256"
				},
				{
					"internalType": "string",
					"name": "username",
					"type": "string"
				},
				{
					"internalType": "bool",
					"name": "exists",
					"type": "bool"
				}
			],
			"stateMutability": "view",
			"type": "function"
		},
		{
			"inputs": [
				{
					"internalType": "string",
					"name": "_dirName",
					"type": "string"
				}
			],
			"name": "goDown",
			"outputs": [],
			"stateMutability": "nonpayable",
			"type": "function"
		},
		{
			"inputs": [],
			"name": "goUp",
			"outputs": [],
			"stateMutability": "nonpayable",
			"type": "function"
		},
		{
			"inputs": [],
			"name": "listDir",
			"outputs": [
				{
					"internalType": "string[][2]",
					"name": "",
					"type": "string[][2]"
				}
			],
			"stateMutability": "view",
			"type": "function"
		},
		{
			"inputs": [
				{
					"internalType": "string",
					"name": "_filename",
					"type": "string"
				}
			],
			"name": "readFile",
			"outputs": [
				{
					"internalType": "string",
					"name": "",
					"type": "string"
				}
			],
			"stateMutability": "view",
			"type": "function"
		},
		{
			"inputs": [
				{
					"internalType": "address",
					"name": "_addr",
					"type": "address"
				}
			],
			"name": "removeUser",
			"outputs": [],
			"stateMutability": "nonpayable",
			"type": "function"
		},
		{
			"inputs": [
				{
					"internalType": "string",
					"name": "_newName",
					"type": "string"
				}
			],
			"name": "renameDir",
			"outputs": [],
			"stateMutability": "nonpayable",
			"type": "function"
		},
		{
			"inputs": [
				{
					"internalType": "string",
					"name": "_oldName",
					"type": "string"
				},
				{
					"internalType": "string",
					"name": "_newName",
					"type": "string"
				}
			],
			"name": "renameFile",
			"outputs": [],
			"stateMutability": "nonpayable",
			"type": "function"
		},
		{
			"inputs": [
				{
					"internalType": "string",
					"name": "_newName",
					"type": "string"
				}
			],
			"name": "renameSelf",
			"outputs": [],
			"stateMutability": "nonpayable",
			"type": "function"
		},
		{
			"inputs": [],
			"name": "userCount",
			"outputs": [
				{
					"internalType": "uint256",
					"name": "",
					"type": "uint256"
				}
			],
			"stateMutability": "view",
			"type": "function"
		},
		{
			"inputs": [],
			"name": "viewCurrentDirName",
			"outputs": [
				{
					"internalType": "string",
					"name": "",
					"type": "string"
				}
			],
			"stateMutability": "view",
			"type": "function"
		},
		{
			"inputs": [
				{
					"internalType": "string",
					"name": "_filename",
					"type": "string"
				},
				{
					"internalType": "address",
					"name": "_addr",
					"type": "address"
				}
			],
			"name": "viewFilePermission",
			"outputs": [
				{
					"internalType": "string",
					"name": "",
					"type": "string"
				}
			],
			"stateMutability": "view",
			"type": "function"
		},
		{
			"inputs": [],
			"name": "viewUserList",
			"outputs": [
				{
					"components": [
						{
							"internalType": "address",
							"name": "addr",
							"type": "address"
						},
						{
							"internalType": "uint256",
							"name": "id",
							"type": "uint256"
						},
						{
							"internalType": "string",
							"name": "username",
							"type": "string"
						},
						{
							"internalType": "bool",
							"name": "exists",
							"type": "bool"
						}
					],
					"internalType": "struct UserSystem.User[]",
					"name": "",
					"type": "tuple[]"
				}
			],
			"stateMutability": "view",
			"type": "function"
		},
		{
			"inputs": [],
			"name": "whoami",
			"outputs": [
				{
					"internalType": "string",
					"name": "",
					"type": "string"
				}
			],
			"stateMutability": "view",
			"type": "function"
		},
		{
			"inputs": [
				{
					"internalType": "string",
					"name": "_filename",
					"type": "string"
				},
				{
					"internalType": "string",
					"name": "_newContent",
					"type": "string"
				}
			],
			"name": "writeToFile",
			"outputs": [],
			"stateMutability": "nonpayable",
			"type": "function"
		}
	]
}